{
  "_format": "hh-sol-artifact-1",
  "contractName": "ActiveOrdersList",
  "sourceName": "contracts/ActiveOrdersList.sol",
  "abi": [
    {
      "inputs": [
        {
          "internalType": "uint256",
          "name": "begin",
          "type": "uint256"
        },
        {
          "internalType": "uint256",
          "name": "end",
          "type": "uint256"
        }
      ],
      "name": "getListOfActiveOrdersRange",
      "outputs": [
        {
          "internalType": "uint256[]",
          "name": "",
          "type": "uint256[]"
        }
      ],
      "stateMutability": "view",
      "type": "function"
    },
    {
      "inputs": [],
      "name": "getListOfActiveOrdersSize",
      "outputs": [
        {
          "internalType": "uint256",
          "name": "",
          "type": "uint256"
        }
      ],
      "stateMutability": "view",
      "type": "function"
    },
    {
      "inputs": [
        {
          "internalType": "uint256",
          "name": "orderId",
          "type": "uint256"
        }
      ],
      "name": "onOrderActivated",
      "outputs": [],
      "stateMutability": "nonpayable",
      "type": "function"
    },
    {
      "inputs": [
        {
          "internalType": "uint256",
          "name": "orderId",
          "type": "uint256"
        }
      ],
      "name": "onOrderDeactivated",
      "outputs": [],
      "stateMutability": "nonpayable",
      "type": "function"
    }
  ],
  "bytecode": "0x608060405234801561001057600080fd5b506106fa806100206000396000f3fe608060405234801561001057600080fd5b506004361061004c5760003560e01c80630988e54f146100515780634a0b5095146100865780636b227f19146100a6578063b9338bbe146100bb575b600080fd5b7f5b3df05beeff831d55e7059a2e9336a5c7fbcad4a2ca6a8a8634ecbe996bc37f546040519081526020015b60405180910390f35b6100996100943660046105bb565b6100ce565b60405161007d91906105dd565b6100b96100b4366004610621565b61028f565b005b6100b96100c9366004610621565b61030d565b60607f5b3df05beeff831d55e7059a2e9336a5c7fbcad4a2ca6a8a8634ecbe996bc37e83158015610103575060018101548310155b15610160576001810180546040805160208084028201810190925282815292919083018282801561015357602002820191906000526020600020905b81548152602001906001019080831161013f575b5050505050915050610289565b6001810154600090841061017857600182015461017a565b835b90508085106101d05760405162461bcd60e51b815260206004820152601760248201527f496e76616c69642072616e67652072657175657374656400000000000000000060448201526064015b60405180910390fd5b60006101dc8683610650565b67ffffffffffffffff8111156101f4576101f4610667565b60405190808252806020026020018201604052801561021d578160200160208202803683370190505b509050855b8281101561028357600184018054829081106102405761024061067d565b90600052602060002001548288836102589190610650565b815181106102685761026861067d565b602090810291909101015261027c81610693565b9050610222565b50925050505b92915050565b3330146102de5760405162461bcd60e51b815260206004820152601660248201527f45787465726e616c206163636573732064656e6965640000000000000000000060448201526064016101c7565b7f5b3df05beeff831d55e7059a2e9336a5c7fbcad4a2ca6a8a8634ecbe996bc37e6103098183610387565b5050565b33301461035c5760405162461bcd60e51b815260206004820152601660248201527f45787465726e616c206163636573732064656e6965640000000000000000000060448201526064016101c7565b7f5b3df05beeff831d55e7059a2e9336a5c7fbcad4a2ca6a8a8634ecbe996bc37e61030981836104e4565b6103918282610565565b156103095760018201546103a3575050565b600081815260208390526040902054600183018054839190839081106103cb576103cb61067d565b9060005260206000200154146104495760405162461bcd60e51b815260206004820152602160248201527f3530302e20556e65787065637465642055696e7448617368536574207374617460448201527f650000000000000000000000000000000000000000000000000000000000000060648201526084016101c7565b6001808401805460009261045c91610650565b8154811061046c5761046c61067d565b906000526020600020015490508084600101838154811061048f5761048f61067d565b6000918252602080832090910192909255828152908590526040808220849055848252812055600184018054806104c8576104c86106ae565b6001900381819060005260206000200160009055905550505050565b6001820154600090158061052f575060008281526020849052604090205415801561052f575081836001016000815481106105215761052161067d565b906000526020600020015414155b90508061053b57505050565b50600180830180546000848152602095865260408120829055928101825590825292902090910155565b600182015460009061057957506000610289565b6000828152602084905260409020541515806105b4575081836001016000815481106105a7576105a761067d565b9060005260206000200154145b9392505050565b600080604083850312156105ce57600080fd5b50508035926020909101359150565b6020808252825182820181905260009190848201906040850190845b81811015610615578351835292840192918401916001016105f9565b50909695505050505050565b60006020828403121561063357600080fd5b5035919050565b634e487b7160e01b600052601160045260246000fd5b6000828210156106625761066261063a565b500390565b634e487b7160e01b600052604160045260246000fd5b634e487b7160e01b600052603260045260246000fd5b60006000198214156106a7576106a761063a565b5060010190565b634e487b7160e01b600052603160045260246000fdfea26469706673582212207c2f0d21e987e0b70f0e70d6439584632d560c47e41464a4ab0d360a6013837264736f6c63430008090033",
  "linkReferences": {},
  "deployedLinkReferences": {}
}