{
  "_format": "hh-sol-artifact-1",
  "contractName": "ActiveOffersList",
  "sourceName": "contracts/ActiveOffersList.sol",
  "abi": [
    {
      "inputs": [],
      "name": "getActiveOffersCurrentEventIndex",
      "outputs": [
        {
          "internalType": "uint256",
          "name": "",
          "type": "uint256"
        }
      ],
      "stateMutability": "view",
      "type": "function"
    },
    {
      "inputs": [],
      "name": "getActiveOffersEventsQueueLength",
      "outputs": [
        {
          "internalType": "uint256",
          "name": "",
          "type": "uint256"
        }
      ],
      "stateMutability": "view",
      "type": "function"
    },
    {
      "inputs": [
        {
          "internalType": "uint256",
          "name": "begin",
          "type": "uint256"
        },
        {
          "internalType": "uint256",
          "name": "end",
          "type": "uint256"
        }
      ],
      "name": "getListOfActiveOffersRange",
      "outputs": [
        {
          "internalType": "uint256[]",
          "name": "",
          "type": "uint256[]"
        }
      ],
      "stateMutability": "view",
      "type": "function"
    },
    {
      "inputs": [],
      "name": "getListOfActiveOffersSize",
      "outputs": [
        {
          "internalType": "uint256",
          "name": "",
          "type": "uint256"
        }
      ],
      "stateMutability": "view",
      "type": "function"
    },
    {
      "inputs": [],
      "name": "isListOfActiveOffersNeedToBeUpdated",
      "outputs": [
        {
          "internalType": "bool",
          "name": "",
          "type": "bool"
        }
      ],
      "stateMutability": "view",
      "type": "function"
    },
    {
      "inputs": [
        {
          "internalType": "uint256",
          "name": "offerId",
          "type": "uint256"
        },
        {
          "internalType": "uint256",
          "name": "disabledAfter",
          "type": "uint256"
        }
      ],
      "name": "onOfferDisableRequest",
      "outputs": [],
      "stateMutability": "nonpayable",
      "type": "function"
    },
    {
      "inputs": [
        {
          "internalType": "uint256",
          "name": "offerId",
          "type": "uint256"
        }
      ],
      "name": "onOfferEnabled",
      "outputs": [],
      "stateMutability": "nonpayable",
      "type": "function"
    },
    {
      "inputs": [
        {
          "internalType": "uint256",
          "name": "maxProcessedEvents",
          "type": "uint256"
        }
      ],
      "name": "updateListOfActiveOffers",
      "outputs": [],
      "stateMutability": "nonpayable",
      "type": "function"
    }
  ],
  "bytecode": "0x608060405234801561001057600080fd5b50610c52806100206000396000f3fe608060405234801561001057600080fd5b50600436106100885760003560e01c8063761bd6061161005b578063761bd6061461010b5780637bb8eb04146101235780637f76f4c41461013657806389a24b131461015d57600080fd5b8063087960d91461008d5780631eaffcab146100a257806336c1c561146100d85780634c17da92146100f8575b600080fd5b6100a061009b366004610ae3565b610184565b005b7fe11efb191e508714f3eac9ae5f8174595ca6c11eb8046e3368c8e30d109ae762545b6040519081526020015b60405180910390f35b6100eb6100e6366004610ae3565b6103f3565b6040516100cf9190610b05565b6100a0610106366004610b49565b6105af565b61011361064d565b60405190151581526020016100cf565b6100a0610131366004610b49565b6106d6565b7fe11efb191e508714f3eac9ae5f8174595ca6c11eb8046e3368c8e30d109ae764546100c5565b7fe11efb191e508714f3eac9ae5f8174595ca6c11eb8046e3368c8e30d109ae761546100c5565b3330146101d85760405162461bcd60e51b815260206004820152601660248201527f45787465726e616c206163636573732064656e6965640000000000000000000060448201526064015b60405180910390fd5b60408051808201909152828152602081018281527fe11efb191e508714f3eac9ae5f8174595ca6c11eb8046e3368c8e30d109ae761805460018082018355600083905284517f4ca46698764bc51bc0986fb69530ae970523bd6eaecedf6af3bf0ca4a17e755f60029093029283015592517f4ca46698764bc51bc0986fb69530ae970523bd6eaecedf6af3bf0ca4a17e756090910155805490929110156103ed57815460009061028a90600190610b78565b90505b6000811180156102f457508260000181815481106102ad576102ad610b8f565b906000526020600020906002020160010154836000016001836102d09190610b78565b815481106102e0576102e0610b8f565b906000526020600020906002020160010154115b156103eb57600083610307600184610b78565b8154811061031757610317610b8f565b906000526020600020906002020160405180604001604052908160008201548152602001600182015481525050905083600001828154811061035b5761035b610b8f565b6000918252602090912060029091020184610377600185610b78565b8154811061038757610387610b8f565b600091825260209091208254600290920201908155600191820154910155835481908590849081106103bb576103bb610b8f565b600091825260209182902083516002909202019081559101516001909101556103e382610ba5565b91505061028d565b505b50505050565b60607fe11efb191e508714f3eac9ae5f8174595ca6c11eb8046e3368c8e30d109ae76183158015610428575060038101548310155b15610485576003810180546040805160208084028201810190925282815292919083018282801561047857602002820191906000526020600020905b815481526020019060010190808311610464575b50505050509150506105a9565b6003810154600090841061049d57600382015461049f565b835b90508085106104f05760405162461bcd60e51b815260206004820152601760248201527f496e76616c69642072616e67652072657175657374656400000000000000000060448201526064016101cf565b60006104fc8683610b78565b67ffffffffffffffff81111561051457610514610bbc565b60405190808252806020026020018201604052801561053d578160200160208202803683370190505b509050855b828110156105a3576003840180548290811061056057610560610b8f565b90600052602060002001548288836105789190610b78565b8151811061058857610588610b8f565b602090810291909101015261059c81610bd2565b9050610542565b50925050505b92915050565b3330146105fe5760405162461bcd60e51b815260206004820152601660248201527f45787465726e616c206163636573732064656e6965640000000000000000000060448201526064016101cf565b7fe11efb191e508714f3eac9ae5f8174595ca6c11eb8046e3368c8e30d109ae7616106497fe11efb191e508714f3eac9ae5f8174595ca6c11eb8046e3368c8e30d109ae7638361086c565b5050565b7fe11efb191e508714f3eac9ae5f8174595ca6c11eb8046e3368c8e30d109ae76180547fe11efb191e508714f3eac9ae5f8174595ca6c11eb8046e3368c8e30d109ae7625460009291116106a357600091505090565b42816000018260010154815481106106bd576106bd610b8f565b9060005260206000209060020201600101541091505090565b60005a90507fe11efb191e508714f3eac9ae5f8174595ca6c11eb8046e3368c8e30d109ae76160005b8381108015610712575081546001830154105b801561072b57506233e1405a6107289085610b78565b11155b156108465761073981610bd2565b905060008260000183600101548154811061075657610756610b8f565b90600052602060002090600202019050428160010154106107775750610846565b80546040517f1e7adb9d00000000000000000000000000000000000000000000000000000000815260048101919091526000903090631e7adb9d9060240160206040518083038186803b1580156107cd57600080fd5b505afa1580156107e1573d6000803e3d6000fd5b505050506040513d601f19601f820116820180604052508101906108059190610bed565b9050801580159061081557504281105b1561082a57815461082a9060028601906108ed565b5050816001016000815461083d90610bd2565b909155506106ff565b508054600182015414156108675761085f816000610aa0565b600060018201555b505050565b600182015460009015806108b757506000828152602084905260409020541580156108b7575081836001016000815481106108a9576108a9610b8f565b906000526020600020015414155b9050806108c357505050565b50600180830180546000848152602095865260408120829055928101825590825292902090910155565b6108f78282610a4a565b15610649576001820154610909575050565b6000818152602083905260409020546001830180548391908390811061093157610931610b8f565b9060005260206000200154146109af5760405162461bcd60e51b815260206004820152602160248201527f3530302e20556e65787065637465642055696e7448617368536574207374617460448201527f650000000000000000000000000000000000000000000000000000000000000060648201526084016101cf565b600180840180546000926109c291610b78565b815481106109d2576109d2610b8f565b90600052602060002001549050808460010183815481106109f5576109f5610b8f565b600091825260208083209091019290925582815290859052604080822084905584825281205560018401805480610a2e57610a2e610c06565b6001900381819060005260206000200160009055905550505050565b6001820154600090610a5e575060006105a9565b600082815260208490526040902054151580610a9957508183600101600081548110610a8c57610a8c610b8f565b9060005260206000200154145b9392505050565b5080546000825560020290600052602060002090810190610ac19190610ac4565b50565b5b80821115610adf5760008082556001820155600201610ac5565b5090565b60008060408385031215610af657600080fd5b50508035926020909101359150565b6020808252825182820181905260009190848201906040850190845b81811015610b3d57835183529284019291840191600101610b21565b50909695505050505050565b600060208284031215610b5b57600080fd5b5035919050565b634e487b7160e01b600052601160045260246000fd5b600082821015610b8a57610b8a610b62565b500390565b634e487b7160e01b600052603260045260246000fd5b600081610bb457610bb4610b62565b506000190190565b634e487b7160e01b600052604160045260246000fd5b6000600019821415610be657610be6610b62565b5060010190565b600060208284031215610bff57600080fd5b5051919050565b634e487b7160e01b600052603160045260246000fdfea2646970667358221220ef072bababbc3962fe05df5ebe8cd12e789b4a7dc5b0ac6f12bd5299d8c9190964736f6c63430008090033",
  "linkReferences": {},
  "deployedLinkReferences": {}
}