{
  "_format": "hh-sol-artifact-1",
  "contractName": "ActiveOrdersList",
  "sourceName": "contracts/ActiveOrdersList.sol",
  "abi": [
    {
      "inputs": [
        {
          "internalType": "uint256",
          "name": "begin",
          "type": "uint256"
        },
        {
          "internalType": "uint256",
          "name": "end",
          "type": "uint256"
        }
      ],
      "name": "getListOfActiveOrdersRange",
      "outputs": [
        {
          "internalType": "uint256[]",
          "name": "",
          "type": "uint256[]"
        }
      ],
      "stateMutability": "view",
      "type": "function"
    },
    {
      "inputs": [],
      "name": "getListOfActiveOrdersSize",
      "outputs": [
        {
          "internalType": "uint256",
          "name": "",
          "type": "uint256"
        }
      ],
      "stateMutability": "view",
      "type": "function"
    },
    {
      "inputs": [
        {
          "internalType": "uint256",
          "name": "offerId",
          "type": "uint256"
        }
      ],
      "name": "getOfferActiveOrdersCount",
      "outputs": [
        {
          "internalType": "uint256",
          "name": "",
          "type": "uint256"
        }
      ],
      "stateMutability": "view",
      "type": "function"
    },
    {
      "inputs": [
        {
          "internalType": "uint256",
          "name": "offerId",
          "type": "uint256"
        },
        {
          "internalType": "uint256",
          "name": "begin",
          "type": "uint256"
        },
        {
          "internalType": "uint256",
          "name": "end",
          "type": "uint256"
        }
      ],
      "name": "getOfferActiveOrdersRange",
      "outputs": [
        {
          "internalType": "uint256[]",
          "name": "",
          "type": "uint256[]"
        }
      ],
      "stateMutability": "view",
      "type": "function"
    },
    {
      "inputs": [],
      "name": "getWorkingOffersCount",
      "outputs": [
        {
          "internalType": "uint256",
          "name": "",
          "type": "uint256"
        }
      ],
      "stateMutability": "view",
      "type": "function"
    },
    {
      "inputs": [
        {
          "internalType": "uint256",
          "name": "begin",
          "type": "uint256"
        },
        {
          "internalType": "uint256",
          "name": "end",
          "type": "uint256"
        }
      ],
      "name": "getWorkingOffersRange",
      "outputs": [
        {
          "internalType": "uint256[]",
          "name": "",
          "type": "uint256[]"
        }
      ],
      "stateMutability": "view",
      "type": "function"
    },
    {
      "inputs": [
        {
          "internalType": "uint256",
          "name": "orderId",
          "type": "uint256"
        },
        {
          "internalType": "uint256",
          "name": "offerId",
          "type": "uint256"
        }
      ],
      "name": "onOrderActivated",
      "outputs": [],
      "stateMutability": "nonpayable",
      "type": "function"
    },
    {
      "inputs": [
        {
          "internalType": "uint256",
          "name": "orderId",
          "type": "uint256"
        },
        {
          "internalType": "uint256",
          "name": "offerId",
          "type": "uint256"
        }
      ],
      "name": "onOrderDeactivated",
      "outputs": [],
      "stateMutability": "nonpayable",
      "type": "function"
    }
  ],
  "bytecode": "0x608060405234801561001057600080fd5b50610ca5806100206000396000f3fe608060405234801561001057600080fd5b50600436106100885760003560e01c8063c31e64271161005b578063c31e64271461014c578063d7208bb11461015f578063db6b013c14610174578063ff192ecb1461018757600080fd5b80630988e54f1461008d578063312a8e78146100c35780634a0b5095146100ea578063bf8754f61461010a575b600080fd5b7f5b3df05beeff831d55e7059a2e9336a5c7fbcad4a2ca6a8a8634ecbe996bc37f545b6040519081526020015b60405180910390f35b7f5b3df05beeff831d55e7059a2e9336a5c7fbcad4a2ca6a8a8634ecbe996bc382546100b0565b6100fd6100f8366004610b22565b61019a565b6040516100ba9190610b44565b6100b0610118366004610b88565b60009081527f5b3df05beeff831d55e7059a2e9336a5c7fbcad4a2ca6a8a8634ecbe996bc383602052604090206001015490565b6100fd61015a366004610ba1565b61035b565b61017261016d366004610b22565b61054b565b005b610172610182366004610b22565b610617565b6100fd610195366004610b22565b61070f565b60607f5b3df05beeff831d55e7059a2e9336a5c7fbcad4a2ca6a8a8634ecbe996bc37e831580156101cf575060018101548310155b1561022c576001810180546040805160208084028201810190925282815292919083018282801561021f57602002820191906000526020600020905b81548152602001906001019080831161020b575b5050505050915050610355565b60018101546000908410610244576001820154610246565b835b905080851061029c5760405162461bcd60e51b815260206004820152601760248201527f496e76616c69642072616e67652072657175657374656400000000000000000060448201526064015b60405180910390fd5b60006102a88683610be3565b67ffffffffffffffff8111156102c0576102c0610bfa565b6040519080825280602002602001820160405280156102e9578160200160208202803683370190505b509050855b8281101561034f576001840180548290811061030c5761030c610c10565b90600052602060002001548288836103249190610be3565b8151811061033457610334610c10565b602090810291909101015261034881610c26565b90506102ee565b50925050505b92915050565b60008381527f5b3df05beeff831d55e7059a2e9336a5c7fbcad4a2ca6a8a8634ecbe996bc383602052604090206060907f5b3df05beeff831d55e7059a2e9336a5c7fbcad4a2ca6a8a8634ecbe996bc37e90841580156103bf575060018101548410155b15610420578060010180548060200260200160405190810160405280929190818152602001828054801561041257602002820191906000526020600020905b8154815260200190600101908083116103fe575b505050505092505050610544565b6001810154600090851061043857600182015461043a565b845b905080861061048b5760405162461bcd60e51b815260206004820152601760248201527f496e76616c69642072616e6765207265717565737465640000000000000000006044820152606401610293565b60006104978783610be3565b67ffffffffffffffff8111156104af576104af610bfa565b6040519080825280602002602001820160405280156104d8578160200160208202803683370190505b509050865b8281101561053d578360010181815481106104fa576104fa610c10565b90600052602060002001548289836105129190610be3565b8151811061052257610522610c10565b602090810291909101015261053681610c26565b90506104dd565b5093505050505b9392505050565b33301461059a5760405162461bcd60e51b815260206004820152601660248201527f45787465726e616c206163636573732064656e696564000000000000000000006044820152606401610293565b7f5b3df05beeff831d55e7059a2e9336a5c7fbcad4a2ca6a8a8634ecbe996bc37e6105c581846108ee565b600082815260058201602052604090206105df90846108ee565b6105ec60038201836108ee565b6000828152600282016020526040812080546001929061060d908490610c41565b9091555050505050565b3330146106665760405162461bcd60e51b815260206004820152601660248201527f45787465726e616c206163636573732064656e696564000000000000000000006044820152606401610293565b7f5b3df05beeff831d55e7059a2e9336a5c7fbcad4a2ca6a8a8634ecbe996bc37e610691818461096f565b600082815260058201602052604090206106ab908461096f565b6000828152600282016020526040902054156106e857600082815260028201602052604081208054600192906106e2908490610be3565b90915550505b600082815260028201602052604090205461070a5761070a600382018361096f565b505050565b60607f5b3df05beeff831d55e7059a2e9336a5c7fbcad4a2ca6a8a8634ecbe996bc37e7f5b3df05beeff831d55e7059a2e9336a5c7fbcad4a2ca6a8a8634ecbe996bc38184158015610765575060018101548410155b156107c657806001018054806020026020016040519081016040528092919081815260200182805480156107b857602002820191906000526020600020905b8154815260200190600101908083116107a4575b505050505092505050610355565b600181015460009085106107de5760018201546107e0565b845b90508086106108315760405162461bcd60e51b815260206004820152601760248201527f496e76616c69642072616e6765207265717565737465640000000000000000006044820152606401610293565b600061083d8783610be3565b67ffffffffffffffff81111561085557610855610bfa565b60405190808252806020026020018201604052801561087e578160200160208202803683370190505b509050865b828110156108e3578360010181815481106108a0576108a0610c10565b90600052602060002001548289836108b89190610be3565b815181106108c8576108c8610c10565b60209081029190910101526108dc81610c26565b9050610883565b509695505050505050565b6001820154600090158061093957506000828152602084905260409020541580156109395750818360010160008154811061092b5761092b610c10565b906000526020600020015414155b90508061094557505050565b50600180830180546000848152602095865260408120829055928101825590825292902090910155565b6109798282610acd565b15610ac957600182015461098b575050565b600081815260208390526040902054600183018054839190839081106109b3576109b3610c10565b906000526020600020015414610a315760405162461bcd60e51b815260206004820152602160248201527f3530302e20556e65787065637465642055696e7448617368536574207374617460448201527f65000000000000000000000000000000000000000000000000000000000000006064820152608401610293565b60018084018054600092610a4491610be3565b81548110610a5457610a54610c10565b9060005260206000200154905080846001018381548110610a7757610a77610c10565b600091825260208083209091019290925582815290859052604080822084905584825281205560018401805480610ab057610ab0610c59565b6001900381819060005260206000200160009055905550505b5050565b6001820154600090610ae157506000610355565b60008281526020849052604090205415158061054457508183600101600081548110610b0f57610b0f610c10565b9060005260206000200154149392505050565b60008060408385031215610b3557600080fd5b50508035926020909101359150565b6020808252825182820181905260009190848201906040850190845b81811015610b7c57835183529284019291840191600101610b60565b50909695505050505050565b600060208284031215610b9a57600080fd5b5035919050565b600080600060608486031215610bb657600080fd5b505081359360208301359350604090920135919050565b634e487b7160e01b600052601160045260246000fd5b600082821015610bf557610bf5610bcd565b500390565b634e487b7160e01b600052604160045260246000fd5b634e487b7160e01b600052603260045260246000fd5b6000600019821415610c3a57610c3a610bcd565b5060010190565b60008219821115610c5457610c54610bcd565b500190565b634e487b7160e01b600052603160045260246000fdfea2646970667358221220375afd40e4d8fc62f9aae5026e5cc587831273f3ff950fedcd3434d583fe5ca564736f6c63430008090033",
  "linkReferences": {},
  "deployedLinkReferences": {}
}