{
    "_format": "hh-sol-artifact-1",
    "contractName": "Ballot",
    "sourceName": "contracts/Ballot.sol",
    "abi": [
        {
            "inputs": [
                {
                    "internalType": "address",
                    "name": "_superpro",
                    "type": "address"
                },
                {
                    "internalType": "address",
                    "name": "_issuer",
                    "type": "address"
                },
                {
                    "internalType": "uint256",
                    "name": "_depositAmount",
                    "type": "uint256"
                },
                {
                    "components": [
                        {
                            "internalType": "enum ModifyRequestType",
                            "name": "requestType",
                            "type": "uint8"
                        },
                        {
                            "internalType": "enum ContractName",
                            "name": "contractName",
                            "type": "uint8"
                        },
                        {
                            "internalType": "address",
                            "name": "newContractAddress",
                            "type": "address"
                        },
                        {
                            "internalType": "enum ParamName",
                            "name": "paramName",
                            "type": "uint8"
                        },
                        {
                            "internalType": "uint256",
                            "name": "newParamValue",
                            "type": "uint256"
                        }
                    ],
                    "internalType": "struct ModifyRequest",
                    "name": "_request",
                    "type": "tuple"
                }
            ],
            "stateMutability": "nonpayable",
            "type": "constructor"
        },
        {
            "anonymous": false,
            "inputs": [
                {
                    "indexed": false,
                    "internalType": "address",
                    "name": "who",
                    "type": "address"
                },
                {
                    "indexed": false,
                    "internalType": "bool",
                    "name": "acceptUpdate",
                    "type": "bool"
                }
            ],
            "name": "NewVote",
            "type": "event"
        },
        {
            "inputs": [],
            "name": "getInfo",
            "outputs": [
                {
                    "components": [
                        {
                            "internalType": "address",
                            "name": "issuer",
                            "type": "address"
                        },
                        {
                            "internalType": "uint256",
                            "name": "depositAmount",
                            "type": "uint256"
                        },
                        {
                            "internalType": "uint256",
                            "name": "openDate",
                            "type": "uint256"
                        },
                        {
                            "internalType": "uint256",
                            "name": "closeDate",
                            "type": "uint256"
                        },
                        {
                            "internalType": "uint256",
                            "name": "execDate",
                            "type": "uint256"
                        },
                        {
                            "components": [
                                {
                                    "internalType": "enum ModifyRequestType",
                                    "name": "requestType",
                                    "type": "uint8"
                                },
                                {
                                    "internalType": "enum ContractName",
                                    "name": "contractName",
                                    "type": "uint8"
                                },
                                {
                                    "internalType": "address",
                                    "name": "newContractAddress",
                                    "type": "address"
                                },
                                {
                                    "internalType": "enum ParamName",
                                    "name": "paramName",
                                    "type": "uint8"
                                },
                                {
                                    "internalType": "uint256",
                                    "name": "newParamValue",
                                    "type": "uint256"
                                }
                            ],
                            "internalType": "struct ModifyRequest",
                            "name": "request",
                            "type": "tuple"
                        },
                        {
                            "internalType": "enum BallotState",
                            "name": "state",
                            "type": "uint8"
                        },
                        {
                            "internalType": "enum BallotStateReason",
                            "name": "reason",
                            "type": "uint8"
                        },
                        {
                            "internalType": "uint256",
                            "name": "totalHoldedVotes",
                            "type": "uint256"
                        },
                        {
                            "internalType": "uint256",
                            "name": "quorum",
                            "type": "uint256"
                        },
                        {
                            "internalType": "uint256",
                            "name": "yes",
                            "type": "uint256"
                        },
                        {
                            "internalType": "uint256",
                            "name": "no",
                            "type": "uint256"
                        },
                        {
                            "components": [
                                {
                                    "internalType": "address",
                                    "name": "voter",
                                    "type": "address"
                                },
                                {
                                    "internalType": "bool",
                                    "name": "yes",
                                    "type": "bool"
                                }
                            ],
                            "internalType": "struct VoterInfo[]",
                            "name": "voters",
                            "type": "tuple[]"
                        }
                    ],
                    "internalType": "struct BallotInfo",
                    "name": "ret",
                    "type": "tuple"
                }
            ],
            "stateMutability": "view",
            "type": "function"
        },
        {
            "inputs": [
                {
                    "internalType": "enum BallotState",
                    "name": "newState",
                    "type": "uint8"
                },
                {
                    "internalType": "enum BallotStateReason",
                    "name": "reason",
                    "type": "uint8"
                }
            ],
            "name": "setState",
            "outputs": [],
            "stateMutability": "nonpayable",
            "type": "function"
        },
        {
            "inputs": [
                {
                    "internalType": "bool",
                    "name": "yes",
                    "type": "bool"
                }
            ],
            "name": "vote",
            "outputs": [],
            "stateMutability": "nonpayable",
            "type": "function"
        }
    ],
    "bytecode": "0x60806040523480156200001157600080fd5b506040516200157e3803806200157e83398101604081905262000034916200031a565b600080546001600160a01b038087166001600160a01b0319928316178355600180549187169190921617815560028490554260035560088054909160ff1990911690830217905550805160068054839290829060ff191660018381811115620000ad57634e487b7160e01b600052602160045260246000fd5b021790555060208201518154829061ff00191661010083600b811115620000e457634e487b7160e01b600052602160045260246000fd5b0217905550604082015181546001600160a01b03909116620100000262010000600160b01b0319821681178355606084015191839160ff60b01b191662010000600160b81b031990911617600160b01b8360108111156200015557634e487b7160e01b600052602160045260246000fd5b021790555060809190910151600190910155600080546040516303a2216d60e01b81526001600160a01b03909116906303a2216d906200019b9060099060040162000414565b60206040518083038186803b158015620001b457600080fd5b505afa158015620001c9573d6000803e3d6000fd5b505050506040513d601f19601f82011682018060405250810190620001ef9190620003fb565b600080546040516303a2216d60e01b815292935090916001600160a01b03909116906303a2216d906200022890600a9060040162000414565b60206040518083038186803b1580156200024157600080fd5b505afa15801562000256573d6000803e3d6000fd5b505050506040513d601f19601f820116820180604052508101906200027c9190620003fb565b90506200028d620151808362000458565b6003546200029c91906200043d565b600455620002ae620151808262000458565b600454620002bd91906200043d565b6005555062000490945050505050565b80516001600160a01b0381168114620002e557600080fd5b919050565b8051600c8110620002e557600080fd5b805160028110620002e557600080fd5b805160118110620002e557600080fd5b60008060008084860361010081121562000332578485fd5b6200033d86620002cd565b94506200034d60208701620002cd565b93506040860151925060a0605f198201121562000368578182fd5b5060405160a081016001600160401b03811182821017156200039857634e487b7160e01b83526041600452602483fd5b604052620003a960608701620002fa565b8152620003b960808701620002ea565b6020820152620003cc60a08701620002cd565b6040820152620003df60c087016200030a565b606082015260e086015160808201528091505092959194509250565b6000602082840312156200040d578081fd5b5051919050565b60208101601183106200043757634e487b7160e01b600052602160045260246000fd5b91905290565b600082198211156200045357620004536200047a565b500190565b60008160001904831182151516156200047557620004756200047a565b500290565b634e487b7160e01b600052601160045260246000fd5b6110de80620004a06000396000f3fe608060405234801561001057600080fd5b50600436106100415760003560e01c80634b9f5c98146100465780635a9b0b891461005b57806391e4793514610079575b600080fd5b610059610054366004610dae565b61008c565b005b610063610473565b6040516100709190610f26565b60405180910390f35b610059610087366004610dce565b610af6565b600054604080517ff1f0bd01000000000000000000000000000000000000000000000000000000008152905133926001600160a01b03169163f1f0bd01916004808301926020929190829003018186803b1580156100e957600080fd5b505afa1580156100fd573d6000803e3d6000fd5b505050506040513d601f19601f820116820180604052508101906101219190610d87565b600080547fffffffffffffffffffffffff0000000000000000000000000000000000000000166001600160a01b0392909216918217815560405163bcaa0c5560e01b815290919063bcaa0c559061017d90600790600401610f04565b60206040518083038186803b15801561019557600080fd5b505afa1580156101a9573d6000803e3d6000fd5b505050506040513d601f19601f820116820180604052508101906101cd9190610d87565b60405163bc992bcb60e01b81526001600160a01b03848116600483015291925060009183169063bc992bcb9060240160206040518083038186803b15801561021457600080fd5b505afa158015610228573d6000803e3d6000fd5b505050506040513d601f19601f8201168201806040525081019061024c9190610e0c565b1161029e5760405162461bcd60e51b815260206004820152600f60248201527f4e6f20766f74696e6720706f776572000000000000000000000000000000000060448201526064015b60405180910390fd5b60045442106102ef5760405162461bcd60e51b815260206004820152601060248201527f42616c6c6f7420697320636c6f736564000000000000000000000000000000006044820152606401610295565b6001600160a01b0382166000908152600f6020526040812054600e54909190821080156103595750836001600160a01b0316600e838154811061034257634e487b7160e01b600052603260045260246000fd5b6000918252602090912001546001600160a01b0316145b905080156103c85784600e838154811061038357634e487b7160e01b600052603260045260246000fd5b60009182526020909120018054911515600160a01b027fffffffffffffffffffffff00ffffffffffffffffffffffffffffffffffffffff90921691909117905561046c565b600e80546001600160a01b038681166000818152600f6020908152604080832086905580518082019091529283528a1515908301908152600185018655949052517fbb7b4a454dc3493923482f07822329ed19e8244eff582cc204f8554c3620c3fd909201805493511515600160a01b027fffffffffffffffffffffff00000000000000000000000000000000000000000090941692909116919091179190911790555b5050505050565b61047b610ce7565b60008060009054906101000a90046001600160a01b03166001600160a01b031663f1f0bd016040518163ffffffff1660e01b815260040160206040518083038186803b1580156104ca57600080fd5b505afa1580156104de573d6000803e3d6000fd5b505050506040513d601f19601f820116820180604052508101906105029190610d87565b90506000816001600160a01b031663bcaa0c5560076040518263ffffffff1660e01b81526004016105339190610f04565b60206040518083038186803b15801561054b57600080fd5b505afa15801561055f573d6000803e3d6000fd5b505050506040513d601f19601f820116820180604052508101906105839190610d87565b90506000816001600160a01b031663293097456040518163ffffffff1660e01b815260040160206040518083038186803b1580156105c057600080fd5b505afa1580156105d4573d6000803e3d6000fd5b505050506040513d601f19601f820116820180604052508101906105f89190610e0c565b600080546040517f03a2216d00000000000000000000000000000000000000000000000000000000815292935090916001600160a01b03909116906303a2216d9061064890600c90600401610f18565b60206040518083038186803b15801561066057600080fd5b505afa158015610674573d6000803e3d6000fd5b505050506040513d601f19601f820116820180604052508101906106989190610e0c565b905060006106a68383610cc8565b604080516101a081018252600180546001600160a01b0316825260025460208301526003548284015260045460608301526005546080830152825160a081810190945260068054959650929491938501929091829060ff168581111561071c57634e487b7160e01b600052602160045260246000fd5b600181111561073b57634e487b7160e01b600052602160045260246000fd5b81528154602090910190610100900460ff16600b81111561076c57634e487b7160e01b600052602160045260246000fd5b600b81111561078b57634e487b7160e01b600052602160045260246000fd5b815281546201000081046001600160a01b03166020830152604090910190760100000000000000000000000000000000000000000000900460ff1660108111156107e557634e487b7160e01b600052602160045260246000fd5b601081111561080457634e487b7160e01b600052602160045260246000fd5b815260019190910154602091820152908252600783015491019060ff16600281111561084057634e487b7160e01b600052602160045260246000fd5b600281111561085f57634e487b7160e01b600052602160045260246000fd5b81526020016007820160019054906101000a900460ff16600181111561089557634e487b7160e01b600052602160045260246000fd5b60018111156108b457634e487b7160e01b600052602160045260246000fd5b81526020016008820154815260200160098201548152602001600a8201548152602001600b8201548152602001600c8201805480602002602001604051908101604052809291908181526020016000905b8282101561095057600084815260209081902060408051808201909152908401546001600160a01b0381168252600160a01b900460ff16151581830152825260019092019101610905565b5050509152505061010081018490526101208101829052600e80546040805160208084028201810190925282815293995060009084015b828210156109d257600084815260209081902060408051808201909152908401546001600160a01b0381168252600160a01b900460ff16151581830152825260019092019101610987565b5050505061018087015260005b600e54811015610aed576000600e8281548110610a0c57634e487b7160e01b600052603260045260246000fd5b60009182526020822001805460405163bc992bcb60e01b81526001600160a01b03918216600482015291935088169063bc992bcb9060240160206040518083038186803b158015610a5c57600080fd5b505afa158015610a70573d6000803e3d6000fd5b505050506040513d601f19601f82011682018060405250810190610a949190610e0c565b8254909150600160a01b900460ff1615610ac357808961014001818151610abb9190610ff7565b905250610ada565b808961016001818151610ad69190610ff7565b9052505b505080610ae69061104e565b90506109df565b50505050505090565b60008060009054906101000a90046001600160a01b03166001600160a01b031663f1f0bd016040518163ffffffff1660e01b815260040160206040518083038186803b158015610b4557600080fd5b505afa158015610b59573d6000803e3d6000fd5b505050506040513d601f19601f82011682018060405250810190610b7d9190610d87565b60405163bcaa0c5560e01b81529091506001600160a01b0382169063bcaa0c5590610bad90600790600401610f04565b60206040518083038186803b158015610bc557600080fd5b505afa158015610bd9573d6000803e3d6000fd5b505050506040513d601f19601f82011682018060405250810190610bfd9190610d87565b6001600160a01b0316336001600160a01b031614610c5d5760405162461bcd60e51b815260206004820152600d60248201527f4163636573732064656e696564000000000000000000000000000000000000006044820152606401610295565b6008805484919060ff19166001836002811115610c8a57634e487b7160e01b600052602160045260246000fd5b02179055506008805483919061ff001916610100836001811115610cbe57634e487b7160e01b600052602160045260246000fd5b0217905550505050565b60006064610cd6838561102f565b610ce0919061100f565b9392505050565b604051806101a0016040528060006001600160a01b0316815260200160008152602001600081526020016000815260200160008152602001610d506040805160a08101825260008082526020820181905291810182905260608101829052608081019190915290565b8152602001600081526020016000815260200160008152602001600081526020016000815260200160008152602001606081525090565b600060208284031215610d98578081fd5b81516001600160a01b0381168114610ce0578182fd5b600060208284031215610dbf578081fd5b81358015158114610ce0578182fd5b60008060408385031215610de0578081fd5b823560038110610dee578182fd5b9150602083013560028110610e01578182fd5b809150509250929050565b600060208284031215610e1d578081fd5b5051919050565b6000815180845260208085019450808401835b83811015610e6957815180516001600160a01b0316885283015115158388015260409096019590820190600101610e37565b509495945050505050565b610e7d81611095565b9052565b60038110610e7d57610e7d61107f565b600c8110610e7d57610e7d61107f565b60118110610e7d57610e7d61107f565b8051610ebc81611095565b808352506020810151610ed26020840182610e91565b506001600160a01b0360408201511660408301526060810151610ef86060840182610ea1565b50608090810151910152565b60208101610f128284610e91565b92915050565b60208101610f128284610ea1565b60208152610f406020820183516001600160a01b03169052565b602082015160408201526040820151606082015260608201516080820152608082015160a0820152600060a0830151610f7c60c0840182610eb1565b5060c0830151610160610f9181850183610e81565b60e08501519150610180610fa781860184610e74565b6101008601516101a08601526101208601516101c08601526101408601516101e086015290850151610200850152840151610220808501529050610fef610240840182610e24565b949350505050565b6000821982111561100a5761100a611069565b500190565b60008261102a57634e487b7160e01b81526012600452602481fd5b500490565b600081600019048311821515161561104957611049611069565b500290565b600060001982141561106257611062611069565b5060010190565b634e487b7160e01b600052601160045260246000fd5b634e487b7160e01b600052602160045260246000fd5b600281106110a5576110a561107f565b5056fea2646970667358221220252f1f7c0c8d7bd364b2593a91e6bdfa05a7a069cb82a60e169f91ef779645cb64736f6c63430008040033",
    "linkReferences": {},
    "deployedLinkReferences": {}
}