{
  "_format": "hh-sol-artifact-1",
  "contractName": "ConsensusTables",
  "sourceName": "contracts/ConsensusTables.sol",
  "abi": [
    {
      "anonymous": false,
      "inputs": [
        {
          "indexed": false,
          "internalType": "uint256",
          "name": "tcbId",
          "type": "uint256"
        },
        {
          "indexed": true,
          "internalType": "address",
          "name": "provider",
          "type": "address"
        }
      ],
      "name": "TcbBanned",
      "type": "event"
    },
    {
      "inputs": [
        {
          "internalType": "uint256",
          "name": "tcbId",
          "type": "uint256"
        }
      ],
      "name": "addLastBlock",
      "outputs": [],
      "stateMutability": "nonpayable",
      "type": "function"
    },
    {
      "inputs": [
        {
          "internalType": "uint256",
          "name": "tcbId",
          "type": "uint256"
        }
      ],
      "name": "addSuspiciousBlock",
      "outputs": [],
      "stateMutability": "nonpayable",
      "type": "function"
    },
    {
      "inputs": [
        {
          "internalType": "uint256",
          "name": "tcbId",
          "type": "uint256"
        }
      ],
      "name": "addTcbToEpoch",
      "outputs": [],
      "stateMutability": "nonpayable",
      "type": "function"
    },
    {
      "inputs": [
        {
          "internalType": "uint256",
          "name": "tcbId",
          "type": "uint256"
        }
      ],
      "name": "compareWithThreshold",
      "outputs": [],
      "stateMutability": "nonpayable",
      "type": "function"
    },
    {
      "inputs": [
        {
          "internalType": "uint256",
          "name": "intruderTcbId",
          "type": "uint256"
        }
      ],
      "name": "compensateEpochDamage",
      "outputs": [],
      "stateMutability": "nonpayable",
      "type": "function"
    },
    {
      "inputs": [
        {
          "internalType": "uint256",
          "name": "tcbId",
          "type": "uint256"
        }
      ],
      "name": "findAccomplices",
      "outputs": [],
      "stateMutability": "nonpayable",
      "type": "function"
    },
    {
      "inputs": [
        {
          "internalType": "uint256",
          "name": "compensation",
          "type": "uint256"
        }
      ],
      "name": "increaseNextEpochCompensation",
      "outputs": [],
      "stateMutability": "nonpayable",
      "type": "function"
    },
    {
      "inputs": [
        {
          "internalType": "uint256",
          "name": "tcbId",
          "type": "uint256"
        }
      ],
      "name": "removeLastBlock",
      "outputs": [],
      "stateMutability": "nonpayable",
      "type": "function"
    },
    {
      "inputs": [
        {
          "internalType": "uint256",
          "name": "tcbId",
          "type": "uint256"
        }
      ],
      "name": "removeSuspiciousBlock",
      "outputs": [],
      "stateMutability": "nonpayable",
      "type": "function"
    },
    {
      "inputs": [
        {
          "internalType": "uint256",
          "name": "tcbId",
          "type": "uint256"
        }
      ],
      "name": "updateConsensusTables",
      "outputs": [],
      "stateMutability": "nonpayable",
      "type": "function"
    }
  ],
  "bytecode": "0x608060405234801561001057600080fd5b506117c9806100206000396000f3fe608060405234801561001057600080fd5b50600436106100be5760003560e01c8063b6839fb511610076578063c9845afb1161005b578063c9845afb1461014a578063c9a576251461015d578063ea7940f51461017057600080fd5b8063b6839fb514610124578063b7f1ab7d1461013757600080fd5b80634d333b92116100a75780634d333b92146100eb5780637b312066146100fe578063b1624f781461011157600080fd5b80630e81cff7146100c3578063178a8c8d146100d8575b600080fd5b6100d66100d13660046115fb565b610183565b005b6100d66100e63660046115fb565b610255565b6100d66100f93660046115fb565b6102ec565b6100d661010c3660046115fb565b61046d565b6100d661011f3660046115fb565b610541565b6100d66101323660046115fb565b610754565b6100d66101453660046115fb565b6107e7565b6100d66101583660046115fb565b6109b1565b6100d661016b3660046115fb565b610d2a565b6100d661017e3660046115fb565b611058565b3330146101d05760405162461bcd60e51b8152602060048201526016602482015275115e1d195c9b985b081858d8d95cdcc819195b9a595960521b60448201526064015b60405180910390fd5b60008181527f0a5acc90f21aabf3ab41c1289935e75ef2bd93fb7f949142411047ee599638b460205260409020600381015460028201547f0a5acc90f21aabf3ab41c1289935e75ef2bd93fb7f949142411047ee599638b19291901561024f5761023d600684018561116b565b60008181526002840160205260408120555b50505050565b33301461029d5760405162461bcd60e51b8152602060048201526016602482015275115e1d195c9b985b081858d8d95cdcc819195b9a595960521b60448201526064016101c7565b7f0a5acc90f21aabf3ab41c1289935e75ef2bd93fb7f949142411047ee599638b16102e87f0a5acc90f21aabf3ab41c1289935e75ef2bd93fb7f949142411047ee599638b98361116b565b5050565b3330146103345760405162461bcd60e51b8152602060048201526016602482015275115e1d195c9b985b081858d8d95cdcc819195b9a595960521b60448201526064016101c7565b60008181527f0a5acc90f21aabf3ab41c1289935e75ef2bd93fb7f949142411047ee599638b460205260408120905b6007820154811015610468576000600883018054839081106103875761038761162a565b90600052602060002090602091828204019190069054906101000a900460ff1660038111156103b8576103b8611614565b14156104565760008260070160000182815481106103d8576103d861162a565b90600052602060002001549050600061041b8260009081527f0a5acc90f21aabf3ab41c1289935e75ef2bd93fb7f949142411047ee599638b46020526040902090565b600d81015490915060ff161561044a57600b8101805466ffffffff00000019169055600d8101805460ff191690555b61045382610754565b50505b8061046081611656565b915050610363565b505050565b3330146104b55760405162461bcd60e51b8152602060048201526016602482015275115e1d195c9b985b081858d8d95cdcc819195b9a595960521b60448201526064016101c7565b7f0a5acc90f21aabf3ab41c1289935e75ef2bd93fb7f949142411047ee599638b65460008181527f0a5acc90f21aabf3ab41c1289935e75ef2bd93fb7f949142411047ee599638b56020526040812080547f0a5acc90f21aabf3ab41c1289935e75ef2bd93fb7f949142411047ee599638b19392859291610537908490611671565b9091555050505050565b3330146105895760405162461bcd60e51b8152602060048201526016602482015275115e1d195c9b985b081858d8d95cdcc819195b9a595960521b60448201526064016101c7565b60008181527f0a5acc90f21aabf3ab41c1289935e75ef2bd93fb7f949142411047ee599638b460205260409020600d81015460ff16156105c7575050565b600b8101546028906105ef9061ffff6301000000820481169165010000000000900416611689565b61ffff16106102e857600d8101805460ff1916600117905561061082610255565b600b81015461ffff650100000000008204811663010000009092041611156102e85761063b82610183565b610644826109b1565b61064d826102ec565b600381015460405163b8c4e81760e01b81526004810191909152600090309063b8c4e8179060240160206040518083038186803b15801561068d57600080fd5b505afa1580156106a1573d6000803e3d6000fd5b505050506040513d601f19601f820116820180604052508101906106c591906116af565b9050601360ff8216106104685760038201546004808401546040517f538345590000000000000000000000000000000000000000000000000000000081529182019290925260248101919091523090635383455990604401600060405180830381600087803b15801561073757600080fd5b505af115801561074b573d6000803e3d6000fd5b50505050505050565b33301461079c5760405162461bcd60e51b8152602060048201526016602482015275115e1d195c9b985b081858d8d95cdcc819195b9a595960521b60448201526064016101c7565b7f0a5acc90f21aabf3ab41c1289935e75ef2bd93fb7f949142411047ee599638b16102e87f0a5acc90f21aabf3ab41c1289935e75ef2bd93fb7f949142411047ee599638b9836112c8565b33301461082f5760405162461bcd60e51b8152602060048201526016602482015275115e1d195c9b985b081858d8d95cdcc819195b9a595960521b60448201526064016101c7565b60008181527f0a5acc90f21aabf3ab41c1289935e75ef2bd93fb7f949142411047ee599638b46020526040902060108101547f0a5acc90f21aabf3ab41c1289935e75ef2bd93fb7f949142411047ee599638b19060ff16156108d35760405162461bcd60e51b815260206004820152601d60248201527f54434220616c72656164792061737369676e656420746f2065706f636800000060448201526064016101c7565b600581015415600081158261091a57506005830180546108f5906001906116d9565b815481106109055761090561162a565b90600052602060002090600502016001015442115b905081806109255750805b1561093257610932611349565b6005830154600090610946906001906116d9565b600f860181905560108601805460ff19166001179055600585018054919250600091839081106109785761097861162a565b9060005260206000209060050201905085600301600201548160030160008282546109a39190611671565b909155505050505050505050565b3330146109f95760405162461bcd60e51b8152602060048201526016602482015275115e1d195c9b985b081858d8d95cdcc819195b9a595960521b60448201526064016101c7565b60008181527f0a5acc90f21aabf3ab41c1289935e75ef2bd93fb7f949142411047ee599638b460205260409020600e8101547f0a5acc90f21aabf3ab41c1289935e75ef2bd93fb7f949142411047ee599638b19060029060ff166003811115610a6457610a64611614565b1461046857600080610a7c8460030160000154611478565b915091506000610a893090565b6001600160a01b031663379ccd33876040518263ffffffff1660e01b8152600401610ab691815260200190565b60206040518083038186803b158015610ace57600080fd5b505afa158015610ae2573d6000803e3d6000fd5b505050506040513d601f19601f82011682018060405250810190610b0691906116f0565b600b86015490915062010000900460ff1615610b90576040517f896d087f000000000000000000000000000000000000000000000000000000008152309063896d087f90610b5d9060029086908690600401611709565b600060405180830381600087803b158015610b7757600080fd5b505af1158015610b8b573d6000803e3d6000fd5b505050505b60038501546040517ffa06374b0000000000000000000000000000000000000000000000000000000081526004810191909152309063fa06374b90602401600060405180830381600087803b158015610be857600080fd5b505af1158015610bfc573d6000803e3d6000fd5b50505050610c073090565b6040517fe50e576f0000000000000000000000000000000000000000000000000000000081526001600160a01b038581166004830152919091169063e50e576f90602401600060405180830381600087803b158015610c6557600080fd5b505af1158015610c79573d6000803e3d6000fd5b50505050610c868161046d565b60008460050186600f016000015481548110610ca457610ca461162a565b906000526020600020906005020190508560030160020154816004016000828254610ccf9190611671565b9091555050600e8601805460ff191660021790556040518781526001600160a01b038516907f0cca70fdacdb6a72b8ff960d503d3955563b04a34cc1526ed32afecd6b41cf739060200160405180910390a250505050505050565b333014610d725760405162461bcd60e51b8152602060048201526016602482015275115e1d195c9b985b081858d8d95cdcc819195b9a595960521b60448201526064016101c7565b60008181527f0a5acc90f21aabf3ab41c1289935e75ef2bd93fb7f949142411047ee599638b4602052604081209050600881016007820160005b6007840154811015611051576000610e0a838381548110610dcf57610dcf61162a565b906000526020600020015460009081527f0a5acc90f21aabf3ab41c1289935e75ef2bd93fb7f949142411047ee599638b46020526040902090565b905060006002600e83015460ff166003811115610e2957610e29611614565b600384015460405163b8c4e81760e01b8152600481019190915291149150600090601390309063b8c4e8179060240160206040518083038186803b158015610e7057600080fd5b505afa158015610e84573d6000803e3d6000fd5b505050506040513d601f19601f82011682018060405250810190610ea891906116af565b60ff16101590508180610eb85750805b15610f0f57610ee2858581548110610ed257610ed261162a565b9060005260206000200154610183565b610f07858581548110610ef757610ef761162a565b9060005260206000200154610255565b50505061103f565b6000868581548110610f2357610f2361162a565b90600052602060002090602091828204019190069054906101000a900460ff166003811115610f5457610f54611614565b1415610f9e57600b8301805460019190600590610f7f90849065010000000000900461ffff16611689565b92506101000a81548161ffff021916908361ffff160217905550610fdc565b600b8301805460019190600390610fc19084906301000000900461ffff16611689565b92506101000a81548161ffff021916908361ffff1602179055505b600b8301546301000000900461ffff1615611016576110168585815481106110065761100661162a565b9060005260206000200154610754565b61103b85858154811061102b5761102b61162a565b9060005260206000200154610541565b5050505b8061104981611656565b915050610dac565b5050505050565b3330146110a05760405162461bcd60e51b8152602060048201526016602482015275115e1d195c9b985b081858d8d95cdcc819195b9a595960521b60448201526064016101c7565b60008181527f0a5acc90f21aabf3ab41c1289935e75ef2bd93fb7f949142411047ee599638b46020908152604080832060038101548085527f0a5acc90f21aabf3ab41c1289935e75ef2bd93fb7f949142411047ee599638b39093529220547f0a5acc90f21aabf3ab41c1289935e75ef2bd93fb7f949142411047ee599638b19291901561114257600081815260028401602052604090205461114290610183565b4260028084019190915560008281529084016020526040902084905561024f60068401856112c8565b61117582826115a3565b156102e8576001820154611187575050565b600081815260208390526040902054600183018054839190839081106111af576111af61162a565b90600052602060002001541461122d5760405162461bcd60e51b815260206004820152602160248201527f3530302e20556e65787065637465642055696e7448617368536574207374617460448201527f650000000000000000000000000000000000000000000000000000000000000060648201526084016101c7565b60018084018054600092611240916116d9565b815481106112505761125061162a565b90600052602060002001549050808460010183815481106112735761127361162a565b6000918252602080832090910192909255828152908590526040808220849055848252812055600184018054806112ac576112ac61173a565b6001900381819060005260206000200160009055905550505050565b600182015460009015806113135750600082815260208490526040902054158015611313575081836001016000815481106113055761130561162a565b906000526020600020015414155b90508061131f57505050565b50600180830180546000848152602095865260408120829055928101825590825292902090910155565b7f0a5acc90f21aabf3ab41c1289935e75ef2bd93fb7f949142411047ee599638b68054600190810180835560008381527f0a5acc90f21aabf3ab41c1289935e75ef2bd93fb7f949142411047ee599638b193909290916113a991906116d9565b815481106113b9576113b961162a565b60009182526020909120426005909202019081556040517f897ce7cf000000000000000000000000000000000000000000000000000000008152909150309063897ce7cf9061140d90600790600401611750565b60206040518083038186803b15801561142557600080fd5b505afa158015611439573d6000803e3d6000fd5b505050506040513d601f19601f8201168201806040525081019061145d91906116f0565b600282015561146f6201518042611671565b60019091015550565b6040517f4e6e04f70000000000000000000000000000000000000000000000000000000081526004810182905260009081903090634e6e04f79060240160206040518083038186803b1580156114cd57600080fd5b505afa1580156114e1573d6000803e3d6000fd5b505050506040513d601f19601f82011682018060405250810190611505919061176a565b9150306040517f0cc079f30000000000000000000000000000000000000000000000000000000081526001600160a01b0384811660048301529190911690630cc079f39060240160206040518083038186803b15801561156457600080fd5b505afa158015611578573d6000803e3d6000fd5b505050506040513d601f19601f8201168201806040525081019061159c919061176a565b9050915091565b60018201546000906115b7575060006115f5565b6000828152602084905260409020541515806115f2575081836001016000815481106115e5576115e561162a565b9060005260206000200154145b90505b92915050565b60006020828403121561160d57600080fd5b5035919050565b634e487b7160e01b600052602160045260246000fd5b634e487b7160e01b600052603260045260246000fd5b634e487b7160e01b600052601160045260246000fd5b600060001982141561166a5761166a611640565b5060010190565b6000821982111561168457611684611640565b500190565b600061ffff8083168185168083038211156116a6576116a6611640565b01949350505050565b6000602082840312156116c157600080fd5b815160ff811681146116d257600080fd5b9392505050565b6000828210156116eb576116eb611640565b500390565b60006020828403121561170257600080fd5b5051919050565b606081016003851061171d5761171d611614565b9381526001600160a01b0392909216602083015260409091015290565b634e487b7160e01b600052603160045260246000fd5b602081016008831061176457611764611614565b91905290565b60006020828403121561177c57600080fd5b81516001600160a01b03811681146116d257600080fdfea2646970667358221220fb13da359f3f9d3e79abeda6de8730fed739b10d83130e21c9125abe83786f9a64736f6c63430008090033",
  "linkReferences": {},
  "deployedLinkReferences": {}
}