{
  "_format": "hh-sol-artifact-1",
  "contractName": "Consensus",
  "sourceName": "contracts/consensus/Consensus.sol",
  "abi": [
    {
      "inputs": [
        {
          "internalType": "address",
          "name": "_SPConfig",
          "type": "address"
        }
      ],
      "stateMutability": "nonpayable",
      "type": "constructor"
    },
    {
      "anonymous": false,
      "inputs": [
        {
          "indexed": false,
          "internalType": "address",
          "name": "tcb",
          "type": "address"
        }
      ],
      "name": "TCBInited",
      "type": "event"
    },
    {
      "inputs": [
        {
          "internalType": "address",
          "name": "tcb",
          "type": "address"
        }
      ],
      "name": "addToSupply",
      "outputs": [],
      "stateMutability": "nonpayable",
      "type": "function"
    },
    {
      "inputs": [
        {
          "internalType": "address",
          "name": "tcb",
          "type": "address"
        }
      ],
      "name": "claimRewards",
      "outputs": [],
      "stateMutability": "nonpayable",
      "type": "function"
    },
    {
      "inputs": [
        {
          "internalType": "address",
          "name": "teeOffer",
          "type": "address"
        }
      ],
      "name": "getInitedTcb",
      "outputs": [
        {
          "internalType": "address",
          "name": "",
          "type": "address"
        }
      ],
      "stateMutability": "view",
      "type": "function"
    },
    {
      "inputs": [
        {
          "internalType": "address",
          "name": "teeOffer",
          "type": "address"
        }
      ],
      "name": "getTimeInited",
      "outputs": [
        {
          "internalType": "uint256",
          "name": "",
          "type": "uint256"
        }
      ],
      "stateMutability": "view",
      "type": "function"
    },
    {
      "inputs": [
        {
          "internalType": "address",
          "name": "teeOffer",
          "type": "address"
        }
      ],
      "name": "initTcb",
      "outputs": [
        {
          "internalType": "address",
          "name": "",
          "type": "address"
        }
      ],
      "stateMutability": "nonpayable",
      "type": "function"
    },
    {
      "inputs": [
        {
          "internalType": "address",
          "name": "tcb",
          "type": "address"
        },
        {
          "internalType": "uint256",
          "name": "amount",
          "type": "uint256"
        }
      ],
      "name": "unlockRewards",
      "outputs": [],
      "stateMutability": "nonpayable",
      "type": "function"
    }
  ],
  "bytecode": "0x60806040523480156200001157600080fd5b50604051620052903803806200529083398101604081905262000034916200005a565b600080546001600160a01b0319166001600160a01b03929092169190911790556200008a565b6000602082840312156200006c578081fd5b81516001600160a01b038116811462000083578182fd5b9392505050565b6151f6806200009a6000396000f3fe60806040523480156200001157600080fd5b50600436106200007b5760003560e01c8063a6cf65921162000056578063a6cf65921462000118578063ef5cfb8c146200012f578063fda62563146200014657600080fd5b80638b92bf7d14620000805780638ea74bfd14620000b45780639790283b14620000cd575b600080fd5b620000976200009136600462002afb565b62000175565b6040516001600160a01b0390911681526020015b60405180910390f35b620000cb620000c536600462002b39565b6200077c565b005b62000109620000de36600462002afb565b6001600160a01b03908116600090815260016020908152604080832054909316825260029052205490565b604051908152602001620000ab565b620000cb6200012936600462002afb565b62000bb4565b620000cb6200014036600462002afb565b62001089565b620000976200015736600462002afb565b6001600160a01b039081166000908152600160205260409020541690565b600080826001600160a01b031663c422c1b16040518163ffffffff1660e01b815260040160206040518083038186803b158015620001b257600080fd5b505afa158015620001c7573d6000803e3d6000fd5b505050506040513d601f19601f82011682018060405250810190620001ed919062002b1a565b6001600160a01b0380851660008181526001602090815260408083205481517f483d45bd000000000000000000000000000000000000000000000000000000008152915196975090941694919363483d45bd9260048083019392829003018186803b1580156200025c57600080fd5b505afa15801562000271573d6000803e3d6000fd5b505050506040513d601f19601f8201168201806040525081019062000297919062002b1a565b6001600160a01b0316636760c4b76040518163ffffffff1660e01b815260040160206040518083038186803b158015620002d057600080fd5b505afa158015620002e5573d6000803e3d6000fd5b505050506040513d601f19601f820116820180604052508101906200030b919062002b1a565b90506002856001600160a01b0316630c72dc316040518163ffffffff1660e01b815260040160206040518083038186803b1580156200034957600080fd5b505afa1580156200035e573d6000803e3d6000fd5b505050506040513d601f19601f8201168201806040525081019062000384919062002f24565b60ff1610620003da5760405162461bcd60e51b815260206004820152601c60248201527f546f6f206d7563682070656e616c7469657320666f72206f666665720000000060448201526064015b60405180910390fd5b6001600160a01b0381163314620004345760405162461bcd60e51b815260206004820181905260248201527f417661696c61626c65206f6e6c7920666f7220616374696f6e4163636f756e746044820152606401620003d1565b6001600160a01b0382161580620004885750600054429062000461906001600160a01b03166010620016e5565b6001600160a01b03841660009081526002602052604090205462000486919062002ffc565b105b620004fc5760405162461bcd60e51b815260206004820152602560248201527f417661696c61626c65206e6f206d6f7265207468616e206f6e6365207065722060448201527f65706f63680000000000000000000000000000000000000000000000000000006064820152608401620003d1565b6001600160a01b0383161580620005e65750600054429062000529906001600160a01b03166010620016e5565b60005462000540906001600160a01b03166200177a565b6040517fe7f938270000000000000000000000000000000000000000000000000000000081526001600160a01b038781166004830152919091169063e7f938279060240160206040518083038186803b1580156200059d57600080fd5b505afa158015620005b2573d6000803e3d6000fd5b505050506040513d601f19601f82011682018060405250810190620005d8919062002ee7565b620005e4919062002ffc565b105b6200065a5760405162461bcd60e51b815260206004820152602860248201527f417661696c61626c65206e6f206561726c696572207468616e2065706f63682060448201527f6475726174696f6e0000000000000000000000000000000000000000000000006064820152608401620003d1565b6000805462000674906001600160a01b0316600d620016e5565b6000546200068d906001600160a01b0316600e620016e5565b60005460405189916001600160a01b031690620006aa9062002ac5565b93845260208401929092526001600160a01b039081166040840152166060820152608001604051809103906000f080158015620006eb573d6000803e3d6000fd5b506001600160a01b038181166000818152600260209081526040808320429055938b168252600181529083902080547fffffffffffffffffffffffff0000000000000000000000000000000000000000168317905591519081529192507f153771aaa78488614c50cf067758a4428416d88cba1b027745b1311abc96d5c7910160405180910390a195945050505050565b6000826001600160a01b031663bf7ce7426040518163ffffffff1660e01b815260040160006040518083038186803b158015620007b857600080fd5b505afa158015620007cd573d6000803e3d6000fd5b505050506040513d6000823e601f3d908101601f19168201604052620007f7919081019062002dd4565b6000015190506000816001600160a01b031663483d45bd6040518163ffffffff1660e01b815260040160206040518083038186803b1580156200083957600080fd5b505afa1580156200084e573d6000803e3d6000fd5b505050506040513d601f19601f8201168201806040525081019062000874919062002b1a565b6001600160a01b0316636760c4b76040518163ffffffff1660e01b815260040160206040518083038186803b158015620008ad57600080fd5b505afa158015620008c2573d6000803e3d6000fd5b505050506040513d601f19601f82011682018060405250810190620008e8919062002b1a565b90506000826001600160a01b031663483d45bd6040518163ffffffff1660e01b815260040160206040518083038186803b1580156200092657600080fd5b505afa1580156200093b573d6000803e3d6000fd5b505050506040513d601f19601f8201168201806040525081019062000961919062002b1a565b6001600160a01b0316636d69a3e86040518163ffffffff1660e01b815260040160206040518083038186803b1580156200099a57600080fd5b505afa158015620009af573d6000803e3d6000fd5b505050506040513d601f19601f82011682018060405250810190620009d5919062002b1a565b90506001600160a01b038116331480620009f757506001600160a01b03821633145b62000a455760405162461bcd60e51b815260206004820152601060248201527f41636365737320666f7262696464656e000000000000000000000000000000006044820152606401620003d1565b60005462000a5c906001600160a01b03166200180f565b6040516336afedef60e01b81526001600160a01b03878116600483015291909116906336afedef9060240160206040518083038186803b15801562000aa057600080fd5b505afa15801562000ab5573d6000803e3d6000fd5b505050506040513d601f19601f8201168201806040525081019062000adb919062002cad565b62000b175760405162461bcd60e51b815260206004820152600b60248201526a24b73b30b634b2103a31b160a91b6044820152606401620003d1565b60005462000b2e906001600160a01b03166200180f565b6040517ffa4e04a60000000000000000000000000000000000000000000000000000000081526001600160a01b03878116600483015260248201879052919091169063fa4e04a690604401600060405180830381600087803b15801562000b9457600080fd5b505af115801562000ba9573d6000803e3d6000fd5b505050505050505050565b6000816001600160a01b031663bf7ce7426040518163ffffffff1660e01b815260040160006040518083038186803b15801562000bf057600080fd5b505afa15801562000c05573d6000803e3d6000fd5b505050506040513d6000823e601f3d908101601f1916820160405262000c2f919081019062002dd4565b6000015190506000816001600160a01b031663483d45bd6040518163ffffffff1660e01b815260040160206040518083038186803b15801562000c7157600080fd5b505afa15801562000c86573d6000803e3d6000fd5b505050506040513d601f19601f8201168201806040525081019062000cac919062002b1a565b6001600160a01b0316636760c4b76040518163ffffffff1660e01b815260040160206040518083038186803b15801562000ce557600080fd5b505afa15801562000cfa573d6000803e3d6000fd5b505050506040513d601f19601f8201168201806040525081019062000d20919062002b1a565b90506001600160a01b038116331462000d7c5760405162461bcd60e51b815260206004820181905260248201527f417661696c61626c65206f6e6c7920666f7220616374696f6e4163636f756e746044820152606401620003d1565b6001600160a01b03831660009081526002602052604090205462000de35760405162461bcd60e51b815260206004820152601860248201527f57726f6e6720696e6974656420746362206164647265737300000000000000006044820152606401620003d1565b6001600160a01b038316600090815260026020526040902054429062000e0e90620151809062002ffc565b1162000e825760405162461bcd60e51b8152602060048201526024808201527f5443422063616e20626520636f6d706c657465642077697468696e203234206860448201527f6f757273000000000000000000000000000000000000000000000000000000006064820152608401620003d1565b826001600160a01b031663522e11776040518163ffffffff1660e01b8152600401600060405180830381600087803b15801562000ebe57600080fd5b505af115801562000ed3573d6000803e3d6000fd5b505060005462000eef92506001600160a01b031690506200180f565b6040517f2c413abf0000000000000000000000000000000000000000000000000000000081526001600160a01b0385811660048301529190911690632c413abf90602401600060405180830381600087803b15801562000f4e57600080fd5b505af115801562000f63573d6000803e3d6000fd5b505060005462000f7f92506001600160a01b031690506200177a565b604051630a3b0a4f60e01b81526001600160a01b0385811660048301529190911690630a3b0a4f90602401600060405180830381600087803b15801562000fc557600080fd5b505af115801562000fda573d6000803e3d6000fd5b505060005462000ff692506001600160a01b031690506200184a565b604051630a3b0a4f60e01b81526001600160a01b0385811660048301529190911690630a3b0a4f90602401600060405180830381600087803b1580156200103c57600080fd5b505af115801562001051573d6000803e3d6000fd5b5050506001600160a01b03841660009081526002602052604081205550620010798362001885565b620010848362001b7b565b505050565b600054620010a0906001600160a01b03166200180f565b6040516336afedef60e01b81526001600160a01b03838116600483015291909116906336afedef9060240160206040518083038186803b158015620010e457600080fd5b505afa158015620010f9573d6000803e3d6000fd5b505050506040513d601f19601f820116820180604052508101906200111f919062002cad565b6200115b5760405162461bcd60e51b815260206004820152600b60248201526a24b73b30b634b2103a31b160a91b6044820152606401620003d1565b6000816001600160a01b031663a9fd1a8f6040518163ffffffff1660e01b815260040160606040518083038186803b1580156200119757600080fd5b505afa158015620011ac573d6000803e3d6000fd5b505050506040513d601f19601f82011682018060405250810190620011d2919062002d68565b516000805491925090620011ef906001600160a01b03166200184a565b6001600160a01b031663bc0bc6ba836040518263ffffffff1660e01b81526004016200121d91815260200190565b60c06040518083038186803b1580156200123657600080fd5b505afa1580156200124b573d6000803e3d6000fd5b505050506040513d601f19601f8201168201806040525081019062001271919062002ceb565b60200151905042811115620012c95760405162461bcd60e51b815260206004820152601b60248201527f54434227732045706f6368206973206e6f74206f7665722079657400000000006044820152606401620003d1565b60008054620012e1906001600160a01b03166200184a565b6040517fb8ac86420000000000000000000000000000000000000000000000000000000081526001600160a01b038681166004830152919091169063b8ac86429060240160206040518083038186803b1580156200133e57600080fd5b505afa15801562001353573d6000803e3d6000fd5b505050506040513d601f19601f8201168201806040525081019062001379919062002ee7565b60005462001390906001600160a01b03166200184a565b6040517fc00007b00000000000000000000000000000000000000000000000000000000081526001600160a01b038781166004830152919091169063c00007b09060240160206040518083038186803b158015620013ed57600080fd5b505afa15801562001402573d6000803e3d6000fd5b505050506040513d601f19601f8201168201806040525081019062001428919062002ee7565b62001434919062002ffc565b90506000846001600160a01b0316636a20a8a16040518163ffffffff1660e01b815260040160206040518083038186803b1580156200147257600080fd5b505afa15801562001487573d6000803e3d6000fd5b505050506040513d601f19601f82011682018060405250810190620014ad919062002ee7565b90508115801590620014bf5750808210155b6200150d5760405162461bcd60e51b815260206004820152601160248201527f3530302e2057726f6e67207265776172640000000000000000000000000000006044820152606401620003d1565b60006200151b828462003017565b6040517f385bb5cd000000000000000000000000000000000000000000000000000000008152600481018290529091506001600160a01b0387169063385bb5cd90602401600060405180830381600087803b1580156200157a57600080fd5b505af11580156200158f573d6000803e3d6000fd5b5050600054620015ab92506001600160a01b0316905062001dbb565b6000546001600160a01b03918216916340c10f1991620015cc91166200180f565b6040517fffffffff0000000000000000000000000000000000000000000000000000000060e084901b1681526001600160a01b03909116600482015260248101849052604401600060405180830381600087803b1580156200162d57600080fd5b505af115801562001642573d6000803e3d6000fd5b50506000546200165e92506001600160a01b031690506200180f565b6040517fe05553070000000000000000000000000000000000000000000000000000000081526001600160a01b03888116600483015260248201849052919091169063e055530790604401600060405180830381600087803b158015620016c457600080fd5b505af1158015620016d9573d6000803e3d6000fd5b50505050505050505050565b6000620016f28362001df6565b6001600160a01b03166303a2216d836040518263ffffffff1660e01b81526004016200171f919062002f5e565b60206040518083038186803b1580156200173857600080fd5b505afa1580156200174d573d6000803e3d6000fd5b505050506040513d601f19601f8201168201806040525081019062001773919062002ee7565b9392505050565b6000620017878262001df6565b6001600160a01b031663bcaa0c55600a6040518263ffffffff1660e01b8152600401620017b5919062002f41565b60206040518083038186803b158015620017ce57600080fd5b505afa158015620017e3573d6000803e3d6000fd5b505050506040513d601f19601f8201168201806040525081019062001809919062002b1a565b92915050565b60006200181c8262001df6565b6001600160a01b031663bcaa0c5560046040518263ffffffff1660e01b8152600401620017b5919062002f41565b6000620018578262001df6565b6001600160a01b031663bcaa0c55600b6040518263ffffffff1660e01b8152600401620017b5919062002f41565b60008190506000816001600160a01b031663990db3636040518163ffffffff1660e01b815260040160006040518083038186803b158015620018c657600080fd5b505afa158015620018db573d6000803e3d6000fd5b505050506040513d6000823e601f3d908101601f1916820160405262001905919081019062002c14565b90506000826001600160a01b031663a00da7316040518163ffffffff1660e01b815260040160006040518083038186803b1580156200194357600080fd5b505afa15801562001958573d6000803e3d6000fd5b505050506040513d6000823e601f3d908101601f1916820160405262001982919081019062002b67565b905060005b815181101562001b74576000828281518110620019b457634e487b7160e01b600052603260045260246000fd5b60200260200101519050838281518110620019df57634e487b7160e01b600052603260045260246000fd5b602002602001015160ff166000141562001a4e57806001600160a01b0316637d3e3ef16040518163ffffffff1660e01b8152600401600060405180830381600087803b15801562001a2f57600080fd5b505af115801562001a44573d6000803e3d6000fd5b5050505062001b53565b806001600160a01b031663b71712e46040518163ffffffff1660e01b8152600401600060405180830381600087803b15801562001a8a57600080fd5b505af115801562001a9f573d6000803e3d6000fd5b505060005462001abb92506001600160a01b0316905062001e32565b6001600160a01b0316630a3b0a4f84848151811062001aea57634e487b7160e01b600052603260045260246000fd5b60200260200101516040518263ffffffff1660e01b815260040162001b1e91906001600160a01b0391909116815260200190565b600060405180830381600087803b15801562001b3957600080fd5b505af115801562001b4e573d6000803e3d6000fd5b505050505b62001b5e8162001e6d565b508062001b6b8162003031565b91505062001987565b5050505050565b60008190506000816001600160a01b0316630f8f42926040518163ffffffff1660e01b815260040160006040518083038186803b15801562001bbc57600080fd5b505afa15801562001bd1573d6000803e3d6000fd5b505050506040513d6000823e601f3d908101601f1916820160405262001bfb919081019062002c14565b90506000826001600160a01b03166343fe9e7b6040518163ffffffff1660e01b815260040160006040518083038186803b15801562001c3957600080fd5b505afa15801562001c4e573d6000803e3d6000fd5b505050506040513d6000823e601f3d908101601f1916820160405262001c78919081019062002b67565b905060005b815181101562001b7457600082828151811062001caa57634e487b7160e01b600052603260045260246000fd5b6020026020010151905083828151811062001cd557634e487b7160e01b600052603260045260246000fd5b602002602001015160ff166000141562001d4457806001600160a01b0316637d3e3ef16040518163ffffffff1660e01b8152600401600060405180830381600087803b15801562001d2557600080fd5b505af115801562001d3a573d6000803e3d6000fd5b5050505062001d9a565b806001600160a01b031663b71712e46040518163ffffffff1660e01b8152600401600060405180830381600087803b15801562001d8057600080fd5b505af115801562001d95573d6000803e3d6000fd5b505050505b62001da58162001e6d565b508062001db28162003031565b91505062001c7d565b600062001dc88262001df6565b6001600160a01b031663bcaa0c5560056040518263ffffffff1660e01b8152600401620017b5919062002f41565b6000816001600160a01b031663f1f0bd016040518163ffffffff1660e01b815260040160206040518083038186803b158015620017ce57600080fd5b600062001e3f8262001df6565b6001600160a01b031663bcaa0c5560096040518263ffffffff1660e01b8152600401620017b5919062002f41565b600080826001600160a01b031663128248366040518163ffffffff1660e01b8152600401604080518083038186803b15801562001ea957600080fd5b505afa15801562001ebe573d6000803e3d6000fd5b505050506040513d601f19601f8201168201806040525081019062001ee4919062002f00565b600054919350915062001f02906001600160a01b0316600f620016e5565b821062001fd95760005462001f20906001600160a01b031662001e32565b604051631484968760e11b81526001600160a01b03858116600483015291909116906329092d0e90602401600060405180830381600087803b15801562001f6657600080fd5b505af115801562001f7b573d6000803e3d6000fd5b50505050826001600160a01b0316638e2c2d3b6040518163ffffffff1660e01b8152600401600060405180830381600087803b15801562001fbb57600080fd5b505af115801562001fd0573d6000803e3d6000fd5b50505050505050565b60005462001ff2906001600160a01b0316600f620016e5565b8110620010845760005462002010906001600160a01b031662001e32565b604051631484968760e11b81526001600160a01b03858116600483015291909116906329092d0e90602401600060405180830381600087803b1580156200205657600080fd5b505af11580156200206b573d6000803e3d6000fd5b50506000546200208792506001600160a01b031690506200177a565b604051631484968760e11b81526001600160a01b03858116600483015291909116906329092d0e90602401600060405180830381600087803b158015620020cd57600080fd5b505af1158015620020e2573d6000803e3d6000fd5b50505050826001600160a01b0316638e2c2d3b6040518163ffffffff1660e01b8152600401600060405180830381600087803b1580156200212257600080fd5b505af115801562002137573d6000803e3d6000fd5b5050505062002146836200215c565b620021518362002340565b620010848362002689565b6000805462002174906001600160a01b03166200180f565b6040517f9a6bcd0e0000000000000000000000000000000000000000000000000000000081526001600160a01b0384811660048301529190911690639a6bcd0e9060240160206040518083038186803b158015620021d157600080fd5b505afa158015620021e6573d6000803e3d6000fd5b505050506040513d601f19601f820116820180604052508101906200220c919062002ee7565b60005490915062002226906001600160a01b03166200180f565b6040517f6b2e41b60000000000000000000000000000000000000000000000000000000081526001600160a01b038481166004830152602482018490529190911690636b2e41b690604401600060405180830381600087803b1580156200228c57600080fd5b505af1158015620022a1573d6000803e3d6000fd5b5050600054620022bd92506001600160a01b031690506200184a565b6040517f8ce1662d0000000000000000000000000000000000000000000000000000000081526001600160a01b038481166004830152602482018490529190911690638ce1662d90604401600060405180830381600087803b1580156200232357600080fd5b505af115801562002338573d6000803e3d6000fd5b505050505050565b6000816001600160a01b031663bf7ce7426040518163ffffffff1660e01b815260040160006040518083038186803b1580156200237c57600080fd5b505afa15801562002391573d6000803e3d6000fd5b505050506040513d6000823e601f3d908101601f19168201604052620023bb919081019062002dd4565b6000015190506000816001600160a01b0316630c72dc316040518163ffffffff1660e01b815260040160206040518083038186803b158015620023fd57600080fd5b505afa15801562002412573d6000803e3d6000fd5b505050506040513d601f19601f8201168201806040525081019062002438919062002f24565b600080549192509062002456906001600160a01b03166005620016e5565b90508160ff1660021480156200250157506002846001600160a01b03166354e410ca6040518163ffffffff1660e01b815260040160206040518083038186803b158015620024a357600080fd5b505afa158015620024b8573d6000803e3d6000fd5b505050506040513d601f19601f82011682018060405250810190620024de919062002cca565b6002811115620024fe57634e487b7160e01b600052602160045260246000fd5b14155b1562002683576000546200251e906001600160a01b03166200180f565b6040517f44bde3ff0000000000000000000000000000000000000000000000000000000081526001600160a01b03868116600483015291909116906344bde3ff90602401600060405180830381600087803b1580156200257d57600080fd5b505af115801562002592573d6000803e3d6000fd5b5050600054620025ae92506001600160a01b0316905062002a8a565b6040517f5cdf48f10000000000000000000000000000000000000000000000000000000081526001600160a01b038581166004830152602482018490529190911690635cdf48f190604401600060405180830381600087803b1580156200261457600080fd5b505af115801562002629573d6000803e3d6000fd5b50505050836001600160a01b031663684f04666040518163ffffffff1660e01b8152600401600060405180830381600087803b1580156200266957600080fd5b505af11580156200267e573d6000803e3d6000fd5b505050505b50505050565b6000816001600160a01b031663990db3636040518163ffffffff1660e01b815260040160006040518083038186803b158015620026c557600080fd5b505afa158015620026da573d6000803e3d6000fd5b505050506040513d6000823e601f3d908101601f1916820160405262002704919081019062002c14565b90506000826001600160a01b0316630f8f42926040518163ffffffff1660e01b815260040160006040518083038186803b1580156200274257600080fd5b505afa15801562002757573d6000803e3d6000fd5b505050506040513d6000823e601f3d908101601f1916820160405262002781919081019062002c14565b90506000836001600160a01b031663a00da7316040518163ffffffff1660e01b815260040160006040518083038186803b158015620027bf57600080fd5b505afa158015620027d4573d6000803e3d6000fd5b505050506040513d6000823e601f3d908101601f19168201604052620027fe919081019062002b67565b90506000846001600160a01b03166343fe9e7b6040518163ffffffff1660e01b815260040160006040518083038186803b1580156200283c57600080fd5b505afa15801562002851573d6000803e3d6000fd5b505050506040513d6000823e601f3d908101601f191682016040526200287b919081019062002b67565b905060005b82518110156200298357848181518110620028ab57634e487b7160e01b600052603260045260246000fd5b602002602001015160ff16600014156200296e57600054620028d6906001600160a01b031662001e32565b6001600160a01b0316630a3b0a4f8483815181106200290557634e487b7160e01b600052603260045260246000fd5b60200260200101516040518263ffffffff1660e01b81526004016200293991906001600160a01b0391909116815260200190565b600060405180830381600087803b1580156200295457600080fd5b505af115801562002969573d6000803e3d6000fd5b505050505b806200297a8162003031565b91505062002880565b5060005b81518110156200233857838181518110620029b257634e487b7160e01b600052603260045260246000fd5b602002602001015160ff166000141562002a7557600054620029dd906001600160a01b031662001e32565b6001600160a01b0316630a3b0a4f83838151811062002a0c57634e487b7160e01b600052603260045260246000fd5b60200260200101516040518263ffffffff1660e01b815260040162002a4091906001600160a01b0391909116815260200190565b600060405180830381600087803b15801562002a5b57600080fd5b505af115801562002a70573d6000803e3d6000fd5b505050505b8062002a818162003031565b91505062002987565b600062002a978262001df6565b6001600160a01b031663bcaa0c5560016040518263ffffffff1660e01b8152600401620017b5919062002f41565b61211680620030ab83390190565b8051801515811462002ae457600080fd5b919050565b805160ff8116811462002ae457600080fd5b60006020828403121562002b0d578081fd5b8135620017738162003091565b60006020828403121562002b2c578081fd5b8151620017738162003091565b6000806040838503121562002b4c578081fd5b823562002b598162003091565b946020939093013593505050565b6000602080838503121562002b7a578182fd5b825167ffffffffffffffff81111562002b91578283fd5b8301601f8101851362002ba2578283fd5b805162002bb962002bb38262002fd5565b62002fa1565b80828252848201915084840188868560051b870101111562002bd9578687fd5b8694505b8385101562002c0857805162002bf38162003091565b83526001949094019391850191850162002bdd565b50979650505050505050565b6000602080838503121562002c27578182fd5b825167ffffffffffffffff81111562002c3e578283fd5b8301601f8101851362002c4f578283fd5b805162002c6062002bb38262002fd5565b80828252848201915084840188868560051b870101111562002c80578687fd5b8694505b8385101562002c085762002c988162002ae9565b83526001949094019391850191850162002c84565b60006020828403121562002cbf578081fd5b620017738262002ad3565b60006020828403121562002cdc578081fd5b81516003811062001773578182fd5b600060c0828403121562002cfd578081fd5b60405160c0810181811067ffffffffffffffff8211171562002d235762002d236200307b565b8060405250825181526020830151602082015260408301516040820152606083015160608201526080830151608082015260a083015160a08201528091505092915050565b60006060828403121562002d7a578081fd5b6040516060810181811067ffffffffffffffff8211171562002da05762002da06200307b565b6040528251815262002db56020840162002ad3565b602082015262002dc86040840162002ad3565b60408201529392505050565b6000602080838503121562002de7578182fd5b825167ffffffffffffffff8082111562002dff578384fd5b908401906080828703121562002e13578384fd5b62002e1d62002f75565b825162002e2a8162003091565b815282840151848201526040808401519082015260608301518281111562002e50578586fd5b80840193505086601f84011262002e65578485fd5b82518281111562002e7a5762002e7a6200307b565b62002e8e601f8201601f1916860162002fa1565b9250808352878582860101111562002ea4578586fd5b855b8181101562002ec357848101860151848201870152850162002ea6565b8181111562002ed457868683860101525b5050606081019190915295945050505050565b60006020828403121562002ef9578081fd5b5051919050565b6000806040838503121562002f13578182fd5b505080516020909101519092909150565b60006020828403121562002f36578081fd5b620017738262002ae9565b60208101600c831062002f585762002f5862003065565b91905290565b602081016011831062002f585762002f5862003065565b6040516080810167ffffffffffffffff8111828210171562002f9b5762002f9b6200307b565b60405290565b604051601f8201601f1916810167ffffffffffffffff8111828210171562002fcd5762002fcd6200307b565b604052919050565b600067ffffffffffffffff82111562002ff25762002ff26200307b565b5060051b60200190565b600082198211156200301257620030126200304f565b500190565b6000828210156200302c576200302c6200304f565b500390565b60006000198214156200304857620030486200304f565b5060010190565b634e487b7160e01b600052601160045260246000fd5b634e487b7160e01b600052602160045260246000fd5b634e487b7160e01b600052604160045260246000fd5b6001600160a01b0381168114620030a757600080fd5b5056fe60806040523480156200001157600080fd5b506040516200211638038062002116833981016040819052620000349162000154565b600d849055600e839055600080546001600160a01b038084166001600160a01b0319928316179092556002805492851692909116821790556040805163c422c1b160e01b8152905163c422c1b191600480820192602092909190829003018186803b158015620000a357600080fd5b505afa158015620000b8573d6000803e3d6000fd5b505050506040513d601f19601f82011682018060405250810190620000de919062000130565b600f80546001600160a01b0319166001600160a01b039290921691909117905550506010805460ff19169055506200019e9050565b80516001600160a01b03811681146200012b57600080fd5b919050565b60006020828403121562000142578081fd5b6200014d8262000113565b9392505050565b600080600080608085870312156200016a578283fd5b8451935060208501519250620001836040860162000113565b9150620001936060860162000113565b905092959194509250565b611f6880620001ae6000396000f3fe608060405234801561001057600080fd5b50600436106101a35760003560e01c80636a20a8a1116100ee578063990db36311610097578063a9fd1a8f11610071578063a9fd1a8f1461030d578063b71712e414610385578063bf7ce7421461038d578063fe71954b146103a257600080fd5b8063990db363146102ea578063a00da731146102f2578063a03a0188146102fa57600080fd5b80637d3e3ef1116100c85780637d3e3ef1146102c75780638c6cd3ad146102cf5780638e2c2d3b146102e257600080fd5b80636a20a8a1146102a4578063774140b2146102ac57806379a94569146102bf57600080fd5b8063457bb7f411610150578063639dd37f1161012a578063639dd37f1461027657806367e1f61214610289578063684f04661461029c57600080fd5b8063457bb7f41461023a578063522e11771461025b57806354e410ca1461026357600080fd5b8063171755b111610181578063171755b1146101fd578063385bb5cd1461021257806343fe9e7b1461022557600080fd5b80630ceb2cef146101a85780630f8f4292146101bd57806312824836146101db575b600080fd5b6101bb6101b6366004611bdd565b6103b5565b005b6101c5610441565b6040516101d29190611d19565b60405180910390f35b600a546040805161ffff620100008404811682529092166020830152016101d2565b6102056104ba565b6040516101d29190611d82565b6101bb610220366004611bdd565b610543565b61022d6105d5565b6040516101d29190611ccc565b61024d610248366004611bdd565b610639565b6040519081526020016101d2565b6101bb610679565b60105460ff166040516101d29190611d6e565b6101bb610284366004611a63565b610a30565b6101bb610297366004611a63565b610b44565b6101bb610c55565b600b5461024d565b6101bb6102ba366004611b24565b610cde565b60045461024d565b6101bb610efa565b6101bb6102dd366004611c0d565b610fa5565b6101bb6111e5565b6101c5611269565b61022d6112c6565b61024d610308366004611bdd565b611329565b61035f60408051606081018252600080825260208201819052918101919091525060408051606081018252601154815260125460ff808216151560208401526101009091041615159181019190915290565b6040805182518152602080840151151590820152918101511515908201526060016101d2565b6101bb611362565b6103956113eb565b6040516101d29190611d95565b6101bb6103b0366004611b04565b6114d6565b6000546103ca906001600160a01b0316611565565b6001600160a01b0316336001600160a01b03161461042f5760405162461bcd60e51b815260206004820152601960248201527f417661696c61626c65206f6e6c7920666f722045706f6368730000000000000060448201526064015b60405180910390fd5b6011556012805460ff19166001179055565b606060066003018054806020026020016040519081016040528092919081815260200182805480156104b057602002820191906000526020600020906000905b825461010083900a900460ff168152602060019283018181049485019490930390920291018084116104815790505b5050505050905090565b6060600180546104c990611e63565b80601f01602080910402602001604051908101604052809291908181526020018280546104f590611e63565b80156104b05780601f10610517576101008083540402835291602001916104b0565b820191906000526020600020905b81548152906001019060200180831161052557509395945050505050565b600054610558906001600160a01b03166115f2565b6001600160a01b0316336001600160a01b0316146105b85760405162461bcd60e51b815260206004820152601c60248201527f417661696c61626c65206f6e6c7920666f7220436f6e73656e737573000000006044820152606401610426565b80600660050160008282546105cd9190611e34565b909155505050565b606060066001018054806020026020016040519081016040528092919081815260200182805480156104b057602002820191906000526020600020905b81546001600160a01b03168152600190910190602001808311610612575050505050905090565b600080600660070154831161064e5782610652565b600d545b6006549091508111610665576000610672565b6006546106729082611e4c565b9392505050565b60005461068e906001600160a01b03166115f2565b6001600160a01b0316336001600160a01b0316146106ee5760405162461bcd60e51b815260206004820152601c60248201527f417661696c61626c65206f6e6c7920666f7220436f6e73656e737573000000006044820152606401610426565b600160105460ff16600281111561071557634e487b7160e01b600052602160045260246000fd5b14156107575760405162461bcd60e51b8152602060048201526011602482015270105b1c9958591e4818dbdb5c1b195d1959607a1b6044820152606401610426565b6000546107e090610770906001600160a01b0316611629565b6001600160a01b03166306661abd6040518163ffffffff1660e01b815260040160206040518083038186803b1580156107a857600080fd5b505afa1580156107bc573d6000803e3d6000fd5b505050506040513d601f19601f820116820180604052508101906102489190611bf5565b1561082d5760405162461bcd60e51b815260206004820152601c60248201527f4e65656420746f20616464206d6f7265206c61737420626c6f636b73000000006044820152606401610426565b6000546108b690610846906001600160a01b0316611660565b6001600160a01b03166306661abd6040518163ffffffff1660e01b815260040160206040518083038186803b15801561087e57600080fd5b505afa158015610892573d6000803e3d6000fd5b505050506040513d601f19601f820116820180604052508101906103089190611bf5565b156109295760405162461bcd60e51b815260206004820152602660248201527f4d6f72652073757370656374656420626c6f636b73206e65656420746f20626560448201527f20616464656400000000000000000000000000000000000000000000000000006064820152608401610426565b600654600854146109a25760405162461bcd60e51b815260206004820152602560248201527f4e65656420746f20616464206d6f7265206d61726b73206f66206c617374206260448201527f6c6f636b730000000000000000000000000000000000000000000000000000006064820152608401610426565b60075460095414610a1a5760405162461bcd60e51b8152602060048201526024808201527f4e65656420746f20616464206d6f7265206d61726b73206f662073757370696360448201527f696f7573000000000000000000000000000000000000000000000000000000006064820152608401610426565b601080546001919060ff191682805b0217905550565b600054610a45906001600160a01b0316611629565b6001600160a01b0316336001600160a01b031614610acb5760405162461bcd60e51b815260206004820152602860248201527f417661696c61626c65206f6e6c7920666f72204c617374426c6f636b7354616260448201527f6c65207461626c650000000000000000000000000000000000000000000000006064820152608401610426565b600160105460ff166002811115610af257634e487b7160e01b600052602160045260246000fd5b1415610b345760405162461bcd60e51b8152602060048201526011602482015270105b1c9958591e4818dbdb5c1b195d1959607a1b6044820152606401610426565b610b416006600083611697565b50565b600054610b59906001600160a01b0316611660565b6001600160a01b0316336001600160a01b031614610bdf5760405162461bcd60e51b815260206004820152602360248201527f417661696c61626c65206f6e6c7920666f7220537573706963696f757320746160448201527f626c6500000000000000000000000000000000000000000000000000000000006064820152608401610426565b600160105460ff166002811115610c0657634e487b7160e01b600052602160045260246000fd5b1415610c485760405162461bcd60e51b8152602060048201526011602482015270105b1c9958591e4818dbdb5c1b195d1959607a1b6044820152606401610426565b610b416006600183611697565b600054610c6a906001600160a01b03166115f2565b6001600160a01b0316336001600160a01b031614610cca5760405162461bcd60e51b815260206004820152601c60248201527f417661696c61626c65206f6e6c7920666f7220436f6e73656e737573000000006044820152606401610426565b601080546002919060ff1916600183610a29565b6002546040805163483d45bd60e01b815290516000926001600160a01b03169163483d45bd916004808301926020929190829003018186803b158015610d2357600080fd5b505afa158015610d37573d6000803e3d6000fd5b505050506040513d601f19601f82011682018060405250810190610d5b9190611a47565b6001600160a01b0316636760c4b76040518163ffffffff1660e01b815260040160206040518083038186803b158015610d9357600080fd5b505afa158015610da7573d6000803e3d6000fd5b505050506040513d601f19601f82011682018060405250810190610dcb9190611a47565b9050336001600160a01b03821614610e2f5760405162461bcd60e51b815260206004820152602160248201527f417661696c61626c65206f6e6c7920666f7220616374696f6e206163636f756e6044820152601d60fa1b6064820152608401610426565b600160105460ff166002811115610e5657634e487b7160e01b600052602160045260246000fd5b1415610e985760405162461bcd60e51b8152602060048201526011602482015270105b1c9958591e4818dbdb5c1b195d1959607a1b6044820152606401610426565b6000825111610ee95760405162461bcd60e51b815260206004820152600560248201527f456d7074790000000000000000000000000000000000000000000000000000006044820152606401610426565b610ef5600684846117bd565b505050565b600054610f0f906001600160a01b03166115f2565b6001600160a01b0316336001600160a01b031614610f6f5760405162461bcd60e51b815260206004820152601c60248201527f417661696c61626c65206f6e6c7920666f7220436f6e73656e737573000000006044820152606401610426565b600a8054600290610f899062010000900461ffff16611e9e565b91906101000a81548161ffff021916908361ffff160217905550565b6002546040805163483d45bd60e01b815290516000926001600160a01b03169163483d45bd916004808301926020929190829003018186803b158015610fea57600080fd5b505afa158015610ffe573d6000803e3d6000fd5b505050506040513d601f19601f820116820180604052508101906110229190611a47565b6001600160a01b0316636760c4b76040518163ffffffff1660e01b815260040160206040518083038186803b15801561105a57600080fd5b505afa15801561106e573d6000803e3d6000fd5b505050506040513d601f19601f820116820180604052508101906110929190611a47565b9050336001600160a01b038216146110f65760405162461bcd60e51b815260206004820152602160248201527f417661696c61626c65206f6e6c7920666f7220616374696f6e206163636f756e6044820152601d60fa1b6064820152608401610426565b600160105460ff16600281111561111d57634e487b7160e01b600052602160045260246000fd5b141561115f5760405162461bcd60e51b8152602060048201526011602482015270105b1c9958591e4818dbdb5c1b195d1959607a1b6044820152606401610426565b826111ac5760405162461bcd60e51b815260206004820152600f60248201527f456d7074792064657669636520494400000000000000000000000000000000006044820152606401610426565b600485905583516111c4906005906020870190611943565b50600383905581516111dd906001906020850190611943565b505050505050565b6000546111fa906001600160a01b03166115f2565b6001600160a01b0316336001600160a01b03161461125a5760405162461bcd60e51b815260206004820152601c60248201527f417661696c61626c65206f6e6c7920666f7220436f6e73656e737573000000006044820152606401610426565b600a805463ffffffff19169055565b606060066002018054806020026020016040519081016040528092919081815260200182805480156104b0576000918252602091829020805460ff1684529082028301929091600191018084116104815790505050505050905090565b606060066000018054806020026020016040519081016040528092919081815260200182805480156104b0576020028201919060005260206000209081546001600160a01b03168152600190910190602001808311610612575050505050905090565b600080600660080154831161133e5782611342565b600e545b6007549091508111611355576000610672565b6007546106729082611e4c565b600054611377906001600160a01b03166115f2565b6001600160a01b0316336001600160a01b0316146113d75760405162461bcd60e51b815260206004820152601c60248201527f417661696c61626c65206f6e6c7920666f7220436f6e73656e737573000000006044820152606401610426565b600a8054600090610f899061ffff16611e9e565b604080516080810182526000808252602082018190529181019190915260608082015260408051608081018252600280546001600160a01b031682526003546020830152600454928201929092526005805491929160608401919061144f90611e63565b80601f016020809104026020016040519081016040528092919081815260200182805461147b90611e63565b80156114c85780601f1061149d576101008083540402835291602001916114c8565b820191906000526020600020905b8154815290600101906020018083116114ab57829003601f168201915b505050505081525050905090565b6000546114eb906001600160a01b0316611565565b6001600160a01b0316336001600160a01b03161461154b5760405162461bcd60e51b815260206004820152601960248201527f417661696c61626c65206f6e6c7920666f722045706f636873000000000000006044820152606401610426565b601280549115156101000261ff0019909216919091179055565b600061157082611908565b6001600160a01b031663bcaa0c55600b6040518263ffffffff1660e01b815260040161159c9190611d54565b60206040518083038186803b1580156115b457600080fd5b505afa1580156115c8573d6000803e3d6000fd5b505050506040513d601f19601f820116820180604052508101906115ec9190611a47565b92915050565b60006115fd82611908565b6001600160a01b031663bcaa0c5560086040518263ffffffff1660e01b815260040161159c9190611d54565b600061163482611908565b6001600160a01b031663bcaa0c55600a6040518263ffffffff1660e01b815260040161159c9190611d54565b600061166b82611908565b6001600160a01b031663bcaa0c5560096040518263ffffffff1660e01b815260040161159c9190611d54565b60005a905060008060018560018111156116c157634e487b7160e01b600052602160045260246000fd5b1490506000816116d85760078701548754106116e4565b60088701546001880154105b90506000826116f357876116f8565b876001015b90505b81801561170d575085518461ffff1614155b801561172657506233e1405a6117239087611e4c565b11155b156117b35780868561ffff168151811061175057634e487b7160e01b600052603260045260246000fd5b60209081029190910181015182546001810184556000938452919092200180547fffffffffffffffffffffffff0000000000000000000000000000000000000000166001600160a01b039092169190911790556117ac84611e9e565b93506116fb565b5050505050505050565b600060018360018111156117e157634e487b7160e01b600052602160045260246000fd5b14905060008161180157600285015485546117fc9190611e4c565b611815565b600385015460018601546118159190611e4c565b9050600082611827578560020161182c565b856003015b9050835182101561187f5760405162461bcd60e51b815260206004820152601260248201527f496e76616c6964206d61726b732073697a6500000000000000000000000000006044820152606401610426565b60005b84518110156118ff57818582815181106118ac57634e487b7160e01b600052603260045260246000fd5b6020908102919091018101518254600181018455600093845292829020918304909101805460ff928316601f9094166101000a9384029290930219909216179055806118f781611ec0565b915050611882565b50505050505050565b6000816001600160a01b031663f1f0bd016040518163ffffffff1660e01b815260040160206040518083038186803b1580156115b457600080fd5b82805461194f90611e63565b90600052602060002090601f01602090048101928261197157600085556119b7565b82601f1061198a57805160ff19168380011785556119b7565b828001600101855582156119b7579182015b828111156119b757825182559160200191906001019061199c565b506119c39291506119c7565b5090565b5b808211156119c357600081556001016119c8565b600082601f8301126119ec578081fd5b813567ffffffffffffffff811115611a0657611a06611f07565b611a19601f8201601f1916602001611ddf565b818152846020838601011115611a2d578283fd5b816020850160208301379081016020019190915292915050565b600060208284031215611a58578081fd5b815161067281611f1d565b60006020808385031215611a75578182fd5b823567ffffffffffffffff811115611a8b578283fd5b8301601f81018513611a9b578283fd5b8035611aae611aa982611e10565b611ddf565b80828252848201915084840188868560051b8701011115611acd578687fd5b8694505b83851015611af8578035611ae481611f1d565b835260019490940193918501918501611ad1565b50979650505050505050565b600060208284031215611b15578081fd5b81358015158114610672578182fd5b60008060408385031215611b36578081fd5b823560028110611b44578182fd5b915060208381013567ffffffffffffffff811115611b60578283fd5b8401601f81018613611b70578283fd5b8035611b7e611aa982611e10565b80828252848201915084840189868560051b8701011115611b9d578687fd5b8694505b83851015611bcd57803560ff81168114611bb9578788fd5b835260019490940193918501918501611ba1565b5080955050505050509250929050565b600060208284031215611bee578081fd5b5035919050565b600060208284031215611c06578081fd5b5051919050565b60008060008060808587031215611c22578182fd5b84359350602085013567ffffffffffffffff80821115611c40578384fd5b611c4c888389016119dc565b9450604087013593506060870135915080821115611c68578283fd5b50611c75878288016119dc565b91505092959194509250565b60008151808452815b81811015611ca657602081850181015186830182015201611c8a565b81811115611cb75782602083870101525b50601f01601f19169290920160200192915050565b6020808252825182820181905260009190848201906040850190845b81811015611d0d5783516001600160a01b031683529284019291840191600101611ce8565b50909695505050505050565b6020808252825182820181905260009190848201906040850190845b81811015611d0d57835160ff1683529284019291840191600101611d35565b60208101600c8310611d6857611d68611ef1565b91905290565b6020810160038310611d6857611d68611ef1565b6020815260006106726020830184611c81565b602081526001600160a01b038251166020820152602082015160408201526040820151606082015260006060830151608080840152611dd760a0840182611c81565b949350505050565b604051601f8201601f1916810167ffffffffffffffff81118282101715611e0857611e08611f07565b604052919050565b600067ffffffffffffffff821115611e2a57611e2a611f07565b5060051b60200190565b60008219821115611e4757611e47611edb565b500190565b600082821015611e5e57611e5e611edb565b500390565b600181811c90821680611e7757607f821691505b60208210811415611e9857634e487b7160e01b600052602260045260246000fd5b50919050565b600061ffff80831681811415611eb657611eb6611edb565b6001019392505050565b6000600019821415611ed457611ed4611edb565b5060010190565b634e487b7160e01b600052601160045260246000fd5b634e487b7160e01b600052602160045260246000fd5b634e487b7160e01b600052604160045260246000fd5b6001600160a01b0381168114610b4157600080fdfea264697066735822122047ef8b1e82c6ca2462de852bfc0f585073e0e7b044d3d4a5e89d78de5b8168ac64736f6c63430008040033a264697066735822122044a6dab809a3ccb651fdd7829ee37bd8bb2bdc9a637297a035576f4f521dbda064736f6c63430008040033",
  "linkReferences": {},
  "deployedLinkReferences": {}
}