{
    "_format": "hh-sol-artifact-1",
    "contractName": "Consensus",
    "sourceName": "contracts/consensus/Consensus.sol",
    "abi": [
        {
            "inputs": [
                {
                    "internalType": "address",
                    "name": "_SPConfig",
                    "type": "address"
                }
            ],
            "stateMutability": "nonpayable",
            "type": "constructor"
        },
        {
            "anonymous": false,
            "inputs": [
                {
                    "indexed": false,
                    "internalType": "address",
                    "name": "tcb",
                    "type": "address"
                }
            ],
            "name": "TCBInited",
            "type": "event"
        },
        {
            "inputs": [
                {
                    "internalType": "address",
                    "name": "tcb",
                    "type": "address"
                }
            ],
            "name": "addToSupply",
            "outputs": [],
            "stateMutability": "nonpayable",
            "type": "function"
        },
        {
            "inputs": [
                {
                    "internalType": "address",
                    "name": "tcb",
                    "type": "address"
                }
            ],
            "name": "claimRewards",
            "outputs": [],
            "stateMutability": "nonpayable",
            "type": "function"
        },
        {
            "inputs": [
                {
                    "internalType": "address",
                    "name": "teeOffer",
                    "type": "address"
                }
            ],
            "name": "getInitedTcb",
            "outputs": [
                {
                    "internalType": "address",
                    "name": "",
                    "type": "address"
                }
            ],
            "stateMutability": "view",
            "type": "function"
        },
        {
            "inputs": [
                {
                    "internalType": "address",
                    "name": "teeOffer",
                    "type": "address"
                }
            ],
            "name": "initTcb",
            "outputs": [
                {
                    "internalType": "address",
                    "name": "",
                    "type": "address"
                }
            ],
            "stateMutability": "nonpayable",
            "type": "function"
        },
        {
            "inputs": [
                {
                    "internalType": "address",
                    "name": "tcb",
                    "type": "address"
                },
                {
                    "internalType": "uint256",
                    "name": "amount",
                    "type": "uint256"
                }
            ],
            "name": "unlockRewards",
            "outputs": [],
            "stateMutability": "nonpayable",
            "type": "function"
        }
    ],
    "bytecode": "0x60806040523480156200001157600080fd5b50604051620056503803806200565083398101604081905262000034916200005a565b600080546001600160a01b0319166001600160a01b03929092169190911790556200008a565b6000602082840312156200006c578081fd5b81516001600160a01b038116811462000083578182fd5b9392505050565b6155b6806200009a6000396000f3fe60806040523480156200001157600080fd5b50600436106200006f5760003560e01c8063a6cf65921162000056578063a6cf659214620000c0578063ef5cfb8c14620000d7578063fda6256314620000ee57600080fd5b80638b92bf7d14620000745780638ea74bfd14620000a7575b600080fd5b6200008b6200008536600462002b43565b6200011d565b6040516001600160a01b03909116815260200160405180910390f35b620000be620000b836600462002b81565b62000724565b005b620000be620000d136600462002b43565b62000b5c565b620000be620000e836600462002b43565b62001031565b6200008b620000ff36600462002b43565b6001600160a01b039081166000908152600160205260409020541690565b600080826001600160a01b031663c422c1b16040518163ffffffff1660e01b815260040160206040518083038186803b1580156200015a57600080fd5b505afa1580156200016f573d6000803e3d6000fd5b505050506040513d601f19601f8201168201806040525081019062000195919062002b62565b6001600160a01b0380851660008181526001602090815260408083205481517f483d45bd000000000000000000000000000000000000000000000000000000008152915196975090941694919363483d45bd9260048083019392829003018186803b1580156200020457600080fd5b505afa15801562000219573d6000803e3d6000fd5b505050506040513d601f19601f820116820180604052508101906200023f919062002b62565b6001600160a01b0316636760c4b76040518163ffffffff1660e01b815260040160206040518083038186803b1580156200027857600080fd5b505afa1580156200028d573d6000803e3d6000fd5b505050506040513d601f19601f82011682018060405250810190620002b3919062002b62565b90506002856001600160a01b0316630c72dc316040518163ffffffff1660e01b815260040160206040518083038186803b158015620002f157600080fd5b505afa15801562000306573d6000803e3d6000fd5b505050506040513d601f19601f820116820180604052508101906200032c919062002f6c565b60ff1610620003825760405162461bcd60e51b815260206004820152601c60248201527f546f6f206d7563682070656e616c7469657320666f72206f666665720000000060448201526064015b60405180910390fd5b6001600160a01b0381163314620003dc5760405162461bcd60e51b815260206004820181905260248201527f417661696c61626c65206f6e6c7920666f7220616374696f6e4163636f756e74604482015260640162000379565b6001600160a01b0382161580620004305750600054429062000409906001600160a01b031660106200168d565b6001600160a01b0384166000908152600260205260409020546200042e91906200304a565b105b620004a45760405162461bcd60e51b815260206004820152602560248201527f417661696c61626c65206e6f206d6f7265207468616e206f6e6365207065722060448201527f65706f6368000000000000000000000000000000000000000000000000000000606482015260840162000379565b6001600160a01b03831615806200058e57506000544290620004d1906001600160a01b031660106200168d565b600054620004e8906001600160a01b031662001722565b6040517fe7f938270000000000000000000000000000000000000000000000000000000081526001600160a01b038781166004830152919091169063e7f938279060240160206040518083038186803b1580156200054557600080fd5b505afa1580156200055a573d6000803e3d6000fd5b505050506040513d601f19601f8201168201806040525081019062000580919062002f2f565b6200058c91906200304a565b105b620006025760405162461bcd60e51b815260206004820152602860248201527f417661696c61626c65206e6f206561726c696572207468616e2065706f63682060448201527f6475726174696f6e000000000000000000000000000000000000000000000000606482015260840162000379565b600080546200061c906001600160a01b0316600d6200168d565b60005462000635906001600160a01b0316600e6200168d565b60005460405189916001600160a01b031690620006529062002b1f565b93845260208401929092526001600160a01b039081166040840152166060820152608001604051809103906000f08015801562000693573d6000803e3d6000fd5b506001600160a01b038181166000818152600260209081526040808320429055938b168252600181529083902080547fffffffffffffffffffffffff0000000000000000000000000000000000000000168317905591519081529192507f153771aaa78488614c50cf067758a4428416d88cba1b027745b1311abc96d5c7910160405180910390a195945050505050565b6000826001600160a01b031663182c3dfd6040518163ffffffff1660e01b815260040160006040518083038186803b1580156200076057600080fd5b505afa15801562000775573d6000803e3d6000fd5b505050506040513d6000823e601f3d908101601f191682016040526200079f919081019062002e1c565b6000015190506000816001600160a01b031663483d45bd6040518163ffffffff1660e01b815260040160206040518083038186803b158015620007e157600080fd5b505afa158015620007f6573d6000803e3d6000fd5b505050506040513d601f19601f820116820180604052508101906200081c919062002b62565b6001600160a01b0316636760c4b76040518163ffffffff1660e01b815260040160206040518083038186803b1580156200085557600080fd5b505afa1580156200086a573d6000803e3d6000fd5b505050506040513d601f19601f8201168201806040525081019062000890919062002b62565b90506000826001600160a01b031663483d45bd6040518163ffffffff1660e01b815260040160206040518083038186803b158015620008ce57600080fd5b505afa158015620008e3573d6000803e3d6000fd5b505050506040513d601f19601f8201168201806040525081019062000909919062002b62565b6001600160a01b0316636d69a3e86040518163ffffffff1660e01b815260040160206040518083038186803b1580156200094257600080fd5b505afa15801562000957573d6000803e3d6000fd5b505050506040513d601f19601f820116820180604052508101906200097d919062002b62565b90506001600160a01b0381163314806200099f57506001600160a01b03821633145b620009ed5760405162461bcd60e51b815260206004820152601060248201527f41636365737320666f7262696464656e00000000000000000000000000000000604482015260640162000379565b60005462000a04906001600160a01b0316620017b7565b6040516336afedef60e01b81526001600160a01b03878116600483015291909116906336afedef9060240160206040518083038186803b15801562000a4857600080fd5b505afa15801562000a5d573d6000803e3d6000fd5b505050506040513d601f19601f8201168201806040525081019062000a83919062002cf7565b62000abf5760405162461bcd60e51b815260206004820152600b60248201526a24b73b30b634b2103a31b160a91b604482015260640162000379565b60005462000ad6906001600160a01b0316620017b7565b6040517ffa4e04a60000000000000000000000000000000000000000000000000000000081526001600160a01b03878116600483015260248201879052919091169063fa4e04a690604401600060405180830381600087803b15801562000b3c57600080fd5b505af115801562000b51573d6000803e3d6000fd5b505050505050505050565b6000816001600160a01b031663182c3dfd6040518163ffffffff1660e01b815260040160006040518083038186803b15801562000b9857600080fd5b505afa15801562000bad573d6000803e3d6000fd5b505050506040513d6000823e601f3d908101601f1916820160405262000bd7919081019062002e1c565b6000015190506000816001600160a01b031663483d45bd6040518163ffffffff1660e01b815260040160206040518083038186803b15801562000c1957600080fd5b505afa15801562000c2e573d6000803e3d6000fd5b505050506040513d601f19601f8201168201806040525081019062000c54919062002b62565b6001600160a01b0316636760c4b76040518163ffffffff1660e01b815260040160206040518083038186803b15801562000c8d57600080fd5b505afa15801562000ca2573d6000803e3d6000fd5b505050506040513d601f19601f8201168201806040525081019062000cc8919062002b62565b90506001600160a01b038116331462000d245760405162461bcd60e51b815260206004820181905260248201527f417661696c61626c65206f6e6c7920666f7220616374696f6e4163636f756e74604482015260640162000379565b6001600160a01b03831660009081526002602052604090205462000d8b5760405162461bcd60e51b815260206004820152601860248201527f57726f6e6720696e697465642074636220616464726573730000000000000000604482015260640162000379565b6001600160a01b038316600090815260026020526040902054429062000db69062015180906200304a565b1162000e2a5760405162461bcd60e51b8152602060048201526024808201527f5443422063616e20626520636f6d706c657465642077697468696e203234206860448201527f6f75727300000000000000000000000000000000000000000000000000000000606482015260840162000379565b826001600160a01b031663522e11776040518163ffffffff1660e01b8152600401600060405180830381600087803b15801562000e6657600080fd5b505af115801562000e7b573d6000803e3d6000fd5b505060005462000e9792506001600160a01b03169050620017b7565b6040517f2c413abf0000000000000000000000000000000000000000000000000000000081526001600160a01b0385811660048301529190911690632c413abf90602401600060405180830381600087803b15801562000ef657600080fd5b505af115801562000f0b573d6000803e3d6000fd5b505060005462000f2792506001600160a01b0316905062001722565b604051630a3b0a4f60e01b81526001600160a01b0385811660048301529190911690630a3b0a4f90602401600060405180830381600087803b15801562000f6d57600080fd5b505af115801562000f82573d6000803e3d6000fd5b505060005462000f9e92506001600160a01b03169050620017f2565b604051630a3b0a4f60e01b81526001600160a01b0385811660048301529190911690630a3b0a4f90602401600060405180830381600087803b15801562000fe457600080fd5b505af115801562000ff9573d6000803e3d6000fd5b5050506001600160a01b0384166000908152600260205260408120555062001021836200182d565b6200102c8362001b5f565b505050565b60005462001048906001600160a01b0316620017b7565b6040516336afedef60e01b81526001600160a01b03838116600483015291909116906336afedef9060240160206040518083038186803b1580156200108c57600080fd5b505afa158015620010a1573d6000803e3d6000fd5b505050506040513d601f19601f82011682018060405250810190620010c7919062002cf7565b620011035760405162461bcd60e51b815260206004820152600b60248201526a24b73b30b634b2103a31b160a91b604482015260640162000379565b6000816001600160a01b031663a9fd1a8f6040518163ffffffff1660e01b815260040160606040518083038186803b1580156200113f57600080fd5b505afa15801562001154573d6000803e3d6000fd5b505050506040513d601f19601f820116820180604052508101906200117a919062002db0565b51600080549192509062001197906001600160a01b0316620017f2565b6001600160a01b031663bc0bc6ba836040518263ffffffff1660e01b8152600401620011c591815260200190565b60c06040518083038186803b158015620011de57600080fd5b505afa158015620011f3573d6000803e3d6000fd5b505050506040513d601f19601f8201168201806040525081019062001219919062002d33565b60200151905042811115620012715760405162461bcd60e51b815260206004820152601b60248201527f54434227732045706f6368206973206e6f74206f766572207965740000000000604482015260640162000379565b6000805462001289906001600160a01b0316620017f2565b6040517fb8ac86420000000000000000000000000000000000000000000000000000000081526001600160a01b038681166004830152919091169063b8ac86429060240160206040518083038186803b158015620012e657600080fd5b505afa158015620012fb573d6000803e3d6000fd5b505050506040513d601f19601f8201168201806040525081019062001321919062002f2f565b60005462001338906001600160a01b0316620017f2565b6040517fc00007b00000000000000000000000000000000000000000000000000000000081526001600160a01b038781166004830152919091169063c00007b09060240160206040518083038186803b1580156200139557600080fd5b505afa158015620013aa573d6000803e3d6000fd5b505050506040513d601f19601f82011682018060405250810190620013d0919062002f2f565b620013dc91906200304a565b90506000846001600160a01b0316636a20a8a16040518163ffffffff1660e01b815260040160206040518083038186803b1580156200141a57600080fd5b505afa1580156200142f573d6000803e3d6000fd5b505050506040513d601f19601f8201168201806040525081019062001455919062002f2f565b90508115801590620014675750808210155b620014b55760405162461bcd60e51b815260206004820152601160248201527f3530302e2057726f6e6720726577617264000000000000000000000000000000604482015260640162000379565b6000620014c3828462003065565b6040517f385bb5cd000000000000000000000000000000000000000000000000000000008152600481018290529091506001600160a01b0387169063385bb5cd90602401600060405180830381600087803b1580156200152257600080fd5b505af115801562001537573d6000803e3d6000fd5b50506000546200155392506001600160a01b0316905062001ddb565b6000546001600160a01b03918216916340c10f1991620015749116620017b7565b6040517fffffffff0000000000000000000000000000000000000000000000000000000060e084901b1681526001600160a01b03909116600482015260248101849052604401600060405180830381600087803b158015620015d557600080fd5b505af1158015620015ea573d6000803e3d6000fd5b50506000546200160692506001600160a01b03169050620017b7565b6040517fe05553070000000000000000000000000000000000000000000000000000000081526001600160a01b03888116600483015260248201849052919091169063e055530790604401600060405180830381600087803b1580156200166c57600080fd5b505af115801562001681573d6000803e3d6000fd5b50505050505050505050565b60006200169a8362001e16565b6001600160a01b03166303a2216d836040518263ffffffff1660e01b8152600401620016c7919062002fac565b60206040518083038186803b158015620016e057600080fd5b505afa158015620016f5573d6000803e3d6000fd5b505050506040513d601f19601f820116820180604052508101906200171b919062002f2f565b9392505050565b60006200172f8262001e16565b6001600160a01b031663bcaa0c55600a6040518263ffffffff1660e01b81526004016200175d919062002f8f565b60206040518083038186803b1580156200177657600080fd5b505afa1580156200178b573d6000803e3d6000fd5b505050506040513d601f19601f82011682018060405250810190620017b1919062002b62565b92915050565b6000620017c48262001e16565b6001600160a01b031663bcaa0c5560046040518263ffffffff1660e01b81526004016200175d919062002f8f565b6000620017ff8262001e16565b6001600160a01b031663bcaa0c55600b6040518263ffffffff1660e01b81526004016200175d919062002f8f565b60008190506000816001600160a01b031663990db3636040518163ffffffff1660e01b815260040160006040518083038186803b1580156200186e57600080fd5b505afa15801562001883573d6000803e3d6000fd5b505050506040513d6000823e601f3d908101601f19168201604052620018ad919081019062002c5c565b90506000826001600160a01b031663a00da7316040518163ffffffff1660e01b815260040160006040518083038186803b158015620018eb57600080fd5b505afa15801562001900573d6000803e3d6000fd5b505050506040513d6000823e601f3d908101601f191682016040526200192a919081019062002baf565b905060005b815181101562001b585760008282815181106200195c57634e487b7160e01b600052603260045260246000fd5b602002602001015190506002808111156200198757634e487b7160e01b600052602160045260246000fd5b848381518110620019a857634e487b7160e01b600052603260045260246000fd5b60200260200101516002811115620019d057634e487b7160e01b600052602160045260246000fd5b141562001a3257806001600160a01b0316637d3e3ef16040518163ffffffff1660e01b8152600401600060405180830381600087803b15801562001a1357600080fd5b505af115801562001a28573d6000803e3d6000fd5b5050505062001b37565b806001600160a01b031663b71712e46040518163ffffffff1660e01b8152600401600060405180830381600087803b15801562001a6e57600080fd5b505af115801562001a83573d6000803e3d6000fd5b505060005462001a9f92506001600160a01b0316905062001e52565b6001600160a01b0316630a3b0a4f84848151811062001ace57634e487b7160e01b600052603260045260246000fd5b60200260200101516040518263ffffffff1660e01b815260040162001b0291906001600160a01b0391909116815260200190565b600060405180830381600087803b15801562001b1d57600080fd5b505af115801562001b32573d6000803e3d6000fd5b505050505b62001b428162001e8d565b508062001b4f816200307f565b9150506200192f565b5050505050565b60008190506000816001600160a01b0316630f8f42926040518163ffffffff1660e01b815260040160006040518083038186803b15801562001ba057600080fd5b505afa15801562001bb5573d6000803e3d6000fd5b505050506040513d6000823e601f3d908101601f1916820160405262001bdf919081019062002c5c565b90506000826001600160a01b03166343fe9e7b6040518163ffffffff1660e01b815260040160006040518083038186803b15801562001c1d57600080fd5b505afa15801562001c32573d6000803e3d6000fd5b505050506040513d6000823e601f3d908101601f1916820160405262001c5c919081019062002baf565b905060005b815181101562001b5857600082828151811062001c8e57634e487b7160e01b600052603260045260246000fd5b6020026020010151905060028081111562001cb957634e487b7160e01b600052602160045260246000fd5b84838151811062001cda57634e487b7160e01b600052603260045260246000fd5b6020026020010151600281111562001d0257634e487b7160e01b600052602160045260246000fd5b141562001d6457806001600160a01b0316637d3e3ef16040518163ffffffff1660e01b8152600401600060405180830381600087803b15801562001d4557600080fd5b505af115801562001d5a573d6000803e3d6000fd5b5050505062001dba565b806001600160a01b031663b71712e46040518163ffffffff1660e01b8152600401600060405180830381600087803b15801562001da057600080fd5b505af115801562001db5573d6000803e3d6000fd5b505050505b62001dc58162001e8d565b508062001dd2816200307f565b91505062001c61565b600062001de88262001e16565b6001600160a01b031663bcaa0c5560056040518263ffffffff1660e01b81526004016200175d919062002f8f565b6000816001600160a01b031663f1f0bd016040518163ffffffff1660e01b815260040160206040518083038186803b1580156200177657600080fd5b600062001e5f8262001e16565b6001600160a01b031663bcaa0c5560096040518263ffffffff1660e01b81526004016200175d919062002f8f565b600080826001600160a01b031663128248366040518163ffffffff1660e01b8152600401604080518083038186803b15801562001ec957600080fd5b505afa15801562001ede573d6000803e3d6000fd5b505050506040513d601f19601f8201168201806040525081019062001f04919062002f48565b600054919350915062001f22906001600160a01b0316600f6200168d565b821062001ff95760005462001f40906001600160a01b031662001e52565b604051631484968760e11b81526001600160a01b03858116600483015291909116906329092d0e90602401600060405180830381600087803b15801562001f8657600080fd5b505af115801562001f9b573d6000803e3d6000fd5b50505050826001600160a01b0316638e2c2d3b6040518163ffffffff1660e01b8152600401600060405180830381600087803b15801562001fdb57600080fd5b505af115801562001ff0573d6000803e3d6000fd5b50505050505050565b60005462002012906001600160a01b0316600f6200168d565b81106200102c5760005462002030906001600160a01b031662001e52565b604051631484968760e11b81526001600160a01b03858116600483015291909116906329092d0e90602401600060405180830381600087803b1580156200207657600080fd5b505af11580156200208b573d6000803e3d6000fd5b5050600054620020a792506001600160a01b0316905062001722565b604051631484968760e11b81526001600160a01b03858116600483015291909116906329092d0e90602401600060405180830381600087803b158015620020ed57600080fd5b505af115801562002102573d6000803e3d6000fd5b50505050826001600160a01b0316638e2c2d3b6040518163ffffffff1660e01b8152600401600060405180830381600087803b1580156200214257600080fd5b505af115801562002157573d6000803e3d6000fd5b5050505062002166836200217c565b620021718362002360565b6200102c83620026a9565b6000805462002194906001600160a01b0316620017b7565b6040517f9a6bcd0e0000000000000000000000000000000000000000000000000000000081526001600160a01b0384811660048301529190911690639a6bcd0e9060240160206040518083038186803b158015620021f157600080fd5b505afa15801562002206573d6000803e3d6000fd5b505050506040513d601f19601f820116820180604052508101906200222c919062002f2f565b60005490915062002246906001600160a01b0316620017b7565b6040517f6b2e41b60000000000000000000000000000000000000000000000000000000081526001600160a01b038481166004830152602482018490529190911690636b2e41b690604401600060405180830381600087803b158015620022ac57600080fd5b505af1158015620022c1573d6000803e3d6000fd5b5050600054620022dd92506001600160a01b03169050620017f2565b6040517f8ce1662d0000000000000000000000000000000000000000000000000000000081526001600160a01b038481166004830152602482018490529190911690638ce1662d90604401600060405180830381600087803b1580156200234357600080fd5b505af115801562002358573d6000803e3d6000fd5b505050505050565b6000816001600160a01b031663182c3dfd6040518163ffffffff1660e01b815260040160006040518083038186803b1580156200239c57600080fd5b505afa158015620023b1573d6000803e3d6000fd5b505050506040513d6000823e601f3d908101601f19168201604052620023db919081019062002e1c565b6000015190506000816001600160a01b0316630c72dc316040518163ffffffff1660e01b815260040160206040518083038186803b1580156200241d57600080fd5b505afa15801562002432573d6000803e3d6000fd5b505050506040513d601f19601f8201168201806040525081019062002458919062002f6c565b600080549192509062002476906001600160a01b031660056200168d565b90508160ff1660021480156200252157506002846001600160a01b03166354e410ca6040518163ffffffff1660e01b815260040160206040518083038186803b158015620024c357600080fd5b505afa158015620024d8573d6000803e3d6000fd5b505050506040513d601f19601f82011682018060405250810190620024fe919062002d14565b60028111156200251e57634e487b7160e01b600052602160045260246000fd5b14155b15620026a3576000546200253e906001600160a01b0316620017b7565b6040517f44bde3ff0000000000000000000000000000000000000000000000000000000081526001600160a01b03868116600483015291909116906344bde3ff90602401600060405180830381600087803b1580156200259d57600080fd5b505af1158015620025b2573d6000803e3d6000fd5b5050600054620025ce92506001600160a01b0316905062002ae4565b6040517f5cdf48f10000000000000000000000000000000000000000000000000000000081526001600160a01b038581166004830152602482018490529190911690635cdf48f190604401600060405180830381600087803b1580156200263457600080fd5b505af115801562002649573d6000803e3d6000fd5b50505050836001600160a01b031663684f04666040518163ffffffff1660e01b8152600401600060405180830381600087803b1580156200268957600080fd5b505af11580156200269e573d6000803e3d6000fd5b505050505b50505050565b6000816001600160a01b031663990db3636040518163ffffffff1660e01b815260040160006040518083038186803b158015620026e557600080fd5b505afa158015620026fa573d6000803e3d6000fd5b505050506040513d6000823e601f3d908101601f1916820160405262002724919081019062002c5c565b90506000826001600160a01b0316630f8f42926040518163ffffffff1660e01b815260040160006040518083038186803b1580156200276257600080fd5b505afa15801562002777573d6000803e3d6000fd5b505050506040513d6000823e601f3d908101601f19168201604052620027a1919081019062002c5c565b90506000836001600160a01b031663a00da7316040518163ffffffff1660e01b815260040160006040518083038186803b158015620027df57600080fd5b505afa158015620027f4573d6000803e3d6000fd5b505050506040513d6000823e601f3d908101601f191682016040526200281e919081019062002baf565b90506000846001600160a01b03166343fe9e7b6040518163ffffffff1660e01b815260040160006040518083038186803b1580156200285c57600080fd5b505afa15801562002871573d6000803e3d6000fd5b505050506040513d6000823e601f3d908101601f191682016040526200289b919081019062002baf565b905060005b8251811015620029c0576002858281518110620028cd57634e487b7160e01b600052603260045260246000fd5b60200260200101516002811115620028f557634e487b7160e01b600052602160045260246000fd5b1415620029ab5760005462002913906001600160a01b031662001e52565b6001600160a01b0316630a3b0a4f8483815181106200294257634e487b7160e01b600052603260045260246000fd5b60200260200101516040518263ffffffff1660e01b81526004016200297691906001600160a01b0391909116815260200190565b600060405180830381600087803b1580156200299157600080fd5b505af1158015620029a6573d6000803e3d6000fd5b505050505b80620029b7816200307f565b915050620028a0565b5060005b815181101562002358576002848281518110620029f157634e487b7160e01b600052603260045260246000fd5b6020026020010151600281111562002a1957634e487b7160e01b600052602160045260246000fd5b141562002acf5760005462002a37906001600160a01b031662001e52565b6001600160a01b0316630a3b0a4f83838151811062002a6657634e487b7160e01b600052603260045260246000fd5b60200260200101516040518263ffffffff1660e01b815260040162002a9a91906001600160a01b0391909116815260200190565b600060405180830381600087803b15801562002ab557600080fd5b505af115801562002aca573d6000803e3d6000fd5b505050505b8062002adb816200307f565b915050620029c4565b600062002af18262001e16565b6001600160a01b031663bcaa0c5560016040518263ffffffff1660e01b81526004016200175d919062002f8f565b61247a806200310783390190565b8051801515811462002b3e57600080fd5b919050565b60006020828403121562002b55578081fd5b81356200171b81620030df565b60006020828403121562002b74578081fd5b81516200171b81620030df565b6000806040838503121562002b94578081fd5b823562002ba181620030df565b946020939093013593505050565b6000602080838503121562002bc2578182fd5b825167ffffffffffffffff81111562002bd9578283fd5b8301601f8101851362002bea578283fd5b805162002c0162002bfb8262003023565b62002fef565b80828252848201915084840188868560051b870101111562002c21578687fd5b8694505b8385101562002c5057805162002c3b81620030df565b83526001949094019391850191850162002c25565b50979650505050505050565b6000602080838503121562002c6f578182fd5b825167ffffffffffffffff81111562002c86578283fd5b8301601f8101851362002c97578283fd5b805162002ca862002bfb8262003023565b80828252848201915084840188868560051b870101111562002cc8578687fd5b8694505b8385101562002c5057805162002ce281620030f8565b83526001949094019391850191850162002ccc565b60006020828403121562002d09578081fd5b6200171b8262002b2d565b60006020828403121562002d26578081fd5b81516200171b81620030f8565b600060c0828403121562002d45578081fd5b60405160c0810181811067ffffffffffffffff8211171562002d6b5762002d6b620030c9565b8060405250825181526020830151602082015260408301516040820152606083015160608201526080830151608082015260a083015160a08201528091505092915050565b60006060828403121562002dc2578081fd5b6040516060810181811067ffffffffffffffff8211171562002de85762002de8620030c9565b6040528251815262002dfd6020840162002b2d565b602082015262002e106040840162002b2d565b60408201529392505050565b6000602080838503121562002e2f578182fd5b825167ffffffffffffffff8082111562002e47578384fd5b908401906080828703121562002e5b578384fd5b62002e6562002fc3565b825162002e7281620030df565b815282840151848201526040808401519082015260608301518281111562002e98578586fd5b80840193505086601f84011262002ead578485fd5b82518281111562002ec25762002ec2620030c9565b62002ed6601f8201601f1916860162002fef565b9250808352878582860101111562002eec578586fd5b855b8181101562002f0b57848101860151848201870152850162002eee565b8181111562002f1c57868683860101525b5050606081019190915295945050505050565b60006020828403121562002f41578081fd5b5051919050565b6000806040838503121562002f5b578182fd5b505080516020909101519092909150565b60006020828403121562002f7e578081fd5b815160ff811681146200171b578182fd5b60208101600c831062002fa65762002fa6620030b3565b91905290565b602081016011831062002fa65762002fa6620030b3565b6040516080810167ffffffffffffffff8111828210171562002fe95762002fe9620030c9565b60405290565b604051601f8201601f1916810167ffffffffffffffff811182821017156200301b576200301b620030c9565b604052919050565b600067ffffffffffffffff821115620030405762003040620030c9565b5060051b60200190565b600082198211156200306057620030606200309d565b500190565b6000828210156200307a576200307a6200309d565b500390565b60006000198214156200309657620030966200309d565b5060010190565b634e487b7160e01b600052601160045260246000fd5b634e487b7160e01b600052602160045260246000fd5b634e487b7160e01b600052604160045260246000fd5b6001600160a01b0381168114620030f557600080fd5b50565b60038110620030f557600080fdfe60806040523480156200001157600080fd5b506040516200247a3803806200247a833981016040819052620000349162000154565b600e849055600f839055600080546001600160a01b038084166001600160a01b0319928316179092556003805492851692909116821790556040805163c422c1b160e01b8152905163c422c1b191600480820192602092909190829003018186803b158015620000a357600080fd5b505afa158015620000b8573d6000803e3d6000fd5b505050506040513d601f19601f82011682018060405250810190620000de919062000130565b601080546001600160a01b0319166001600160a01b039290921691909117905550506011805460ff19169055506200019e9050565b80516001600160a01b03811681146200012b57600080fd5b919050565b60006020828403121562000142578081fd5b6200014d8262000113565b9392505050565b600080600080608085870312156200016a578283fd5b8451935060208501519250620001836040860162000113565b9150620001936060860162000113565b905092959194509250565b6122cc80620001ae6000396000f3fe608060405234801561001057600080fd5b50600436106101ae5760003560e01c8063774140b2116100ee578063a03a018811610097578063b69ca9a111610071578063b69ca9a114610390578063b71712e4146103a5578063c852295b146103ad578063fe71954b146103c057600080fd5b8063a03a0188146102f2578063a9fd1a8f14610305578063b2d8327f1461037d57600080fd5b80638e2c2d3b116100c85780638e2c2d3b146102da578063990db363146102e2578063a00da731146102ea57600080fd5b8063774140b2146102b757806379a94569146102ca5780637d3e3ef1146102d257600080fd5b8063457bb7f41161015b578063639dd37f11610135578063639dd37f1461028157806367e1f61214610294578063684f0466146102a75780636a20a8a1146102af57600080fd5b8063457bb7f414610245578063522e11771461026657806354e410ca1461026e57600080fd5b8063182c3dfd1161018c578063182c3dfd14610208578063385bb5cd1461021d57806343fe9e7b1461023057600080fd5b80630ceb2cef146101b35780630f8f4292146101c857806312824836146101e6575b600080fd5b6101c66101c1366004611f29565b6103d3565b005b6101d061045f565b6040516101dd919061203f565b60405180910390f35b600b546040805161ffff620100008404811682529092166020830152016101dd565b6102106104f8565b6040516101dd91906120e9565b6101c661022b366004611f29565b6105e3565b610238610675565b6040516101dd9190611ff2565b610258610253366004611f29565b6106d9565b6040519081526020016101dd565b6101c6610718565b60115460ff166040516101dd919061209a565b6101c661028f366004611d0f565b610acf565b6101c66102a2366004611d0f565b610be3565b6101c6610cf4565b600c54610258565b6101c66102c5366004611dd0565b610d7d565b600554610258565b6101c6610f99565b6101c6611044565b6101d06110c8565b610238611160565b610258610300366004611f29565b6111c3565b61035760408051606081018252600080825260208201819052918101919091525060408051606081018252601254815260135460ff808216151560208401526101009091041615159181019190915290565b6040805182518152602080840151151590820152918101511515908201526060016101dd565b6101c661038b366004611e87565b6111fc565b6103986113f0565b6040516101dd91906120a7565b6101c66114b3565b6101c66103bb366004611f59565b61153c565b6101c66103ce366004611db0565b611764565b6000546103e8906001600160a01b03166117f3565b6001600160a01b0316336001600160a01b03161461044d5760405162461bcd60e51b815260206004820152601960248201527f417661696c61626c65206f6e6c7920666f722045706f6368730000000000000060448201526064015b60405180910390fd5b6012556013805460ff19166001179055565b606060076003018054806020026020016040519081016040528092919081815260200182805480156104ee57602002820191906000526020600020906000905b82829054906101000a900460ff1660028111156104cc57634e487b7160e01b600052602160045260246000fd5b81526020600192830181810494850194909303909202910180841161049f5790505b5050505050905090565b604080516080810182526000808252602082018190529181019190915260608082015260408051608081018252600380546001600160a01b031682526004546020830152600554928201929092526006805491929160608401919061055c906121b7565b80601f0160208091040260200160405190810160405280929190818152602001828054610588906121b7565b80156105d55780601f106105aa576101008083540402835291602001916105d5565b820191906000526020600020905b8154815290600101906020018083116105b857829003601f168201915b505050505081525050905090565b6000546105f8906001600160a01b0316611880565b6001600160a01b0316336001600160a01b0316146106585760405162461bcd60e51b815260206004820152601c60248201527f417661696c61626c65206f6e6c7920666f7220436f6e73656e737573000000006044820152606401610444565b806007600501600082825461066d9190612188565b909155505050565b606060076001018054806020026020016040519081016040528092919081815260200182805480156104ee57602002820191906000526020600020905b81546001600160a01b031681526001909101906020018083116106b2575050505050905090565b600080600780015483116106ed57826106f1565b600e545b6007549091508111610704576000610711565b60075461071190826121a0565b9392505050565b60005461072d906001600160a01b0316611880565b6001600160a01b0316336001600160a01b03161461078d5760405162461bcd60e51b815260206004820152601c60248201527f417661696c61626c65206f6e6c7920666f7220436f6e73656e737573000000006044820152606401610444565b600160115460ff1660028111156107b457634e487b7160e01b600052602160045260246000fd5b14156107f65760405162461bcd60e51b8152602060048201526011602482015270105b1c9958591e4818dbdb5c1b195d1959607a1b6044820152606401610444565b60005461087f9061080f906001600160a01b03166118b7565b6001600160a01b03166306661abd6040518163ffffffff1660e01b815260040160206040518083038186803b15801561084757600080fd5b505afa15801561085b573d6000803e3d6000fd5b505050506040513d601f19601f820116820180604052508101906102539190611f41565b156108cc5760405162461bcd60e51b815260206004820152601c60248201527f4e65656420746f20616464206d6f7265206c61737420626c6f636b73000000006044820152606401610444565b600054610955906108e5906001600160a01b03166118ee565b6001600160a01b03166306661abd6040518163ffffffff1660e01b815260040160206040518083038186803b15801561091d57600080fd5b505afa158015610931573d6000803e3d6000fd5b505050506040513d601f19601f820116820180604052508101906103009190611f41565b156109c85760405162461bcd60e51b815260206004820152602660248201527f4d6f72652073757370656374656420626c6f636b73206e65656420746f20626560448201527f20616464656400000000000000000000000000000000000000000000000000006064820152608401610444565b60075460095414610a415760405162461bcd60e51b815260206004820152602560248201527f4e65656420746f20616464206d6f7265206d61726b73206f66206c617374206260448201527f6c6f636b730000000000000000000000000000000000000000000000000000006064820152608401610444565b600854600a5414610ab95760405162461bcd60e51b8152602060048201526024808201527f4e65656420746f20616464206d6f7265206d61726b73206f662073757370696360448201527f696f7573000000000000000000000000000000000000000000000000000000006064820152608401610444565b601180546001919060ff191682805b0217905550565b600054610ae4906001600160a01b03166118b7565b6001600160a01b0316336001600160a01b031614610b6a5760405162461bcd60e51b815260206004820152602860248201527f417661696c61626c65206f6e6c7920666f72204c617374426c6f636b7354616260448201527f6c65207461626c650000000000000000000000000000000000000000000000006064820152608401610444565b600160115460ff166002811115610b9157634e487b7160e01b600052602160045260246000fd5b1415610bd35760405162461bcd60e51b8152602060048201526011602482015270105b1c9958591e4818dbdb5c1b195d1959607a1b6044820152606401610444565b610be06007600083611925565b50565b600054610bf8906001600160a01b03166118ee565b6001600160a01b0316336001600160a01b031614610c7e5760405162461bcd60e51b815260206004820152602360248201527f417661696c61626c65206f6e6c7920666f7220537573706963696f757320746160448201527f626c6500000000000000000000000000000000000000000000000000000000006064820152608401610444565b600160115460ff166002811115610ca557634e487b7160e01b600052602160045260246000fd5b1415610ce75760405162461bcd60e51b8152602060048201526011602482015270105b1c9958591e4818dbdb5c1b195d1959607a1b6044820152606401610444565b610be06007600183611925565b600054610d09906001600160a01b0316611880565b6001600160a01b0316336001600160a01b031614610d695760405162461bcd60e51b815260206004820152601c60248201527f417661696c61626c65206f6e6c7920666f7220436f6e73656e737573000000006044820152606401610444565b601180546002919060ff1916600183610ac8565b6003546040805163483d45bd60e01b815290516000926001600160a01b03169163483d45bd916004808301926020929190829003018186803b158015610dc257600080fd5b505afa158015610dd6573d6000803e3d6000fd5b505050506040513d601f19601f82011682018060405250810190610dfa9190611cf3565b6001600160a01b0316636760c4b76040518163ffffffff1660e01b815260040160206040518083038186803b158015610e3257600080fd5b505afa158015610e46573d6000803e3d6000fd5b505050506040513d601f19601f82011682018060405250810190610e6a9190611cf3565b9050336001600160a01b03821614610ece5760405162461bcd60e51b815260206004820152602160248201527f417661696c61626c65206f6e6c7920666f7220616374696f6e206163636f756e6044820152601d60fa1b6064820152608401610444565b600160115460ff166002811115610ef557634e487b7160e01b600052602160045260246000fd5b1415610f375760405162461bcd60e51b8152602060048201526011602482015270105b1c9958591e4818dbdb5c1b195d1959607a1b6044820152606401610444565b6000825111610f885760405162461bcd60e51b815260206004820152600560248201527f456d7074790000000000000000000000000000000000000000000000000000006044820152606401610444565b610f9460078484611a4b565b505050565b600054610fae906001600160a01b0316611880565b6001600160a01b0316336001600160a01b03161461100e5760405162461bcd60e51b815260206004820152601c60248201527f417661696c61626c65206f6e6c7920666f7220436f6e73656e737573000000006044820152606401610444565b600b80546002906110289062010000900461ffff166121f2565b91906101000a81548161ffff021916908361ffff160217905550565b600054611059906001600160a01b0316611880565b6001600160a01b0316336001600160a01b0316146110b95760405162461bcd60e51b815260206004820152601c60248201527f417661696c61626c65206f6e6c7920666f7220436f6e73656e737573000000006044820152606401610444565b600b805463ffffffff19169055565b606060076002018054806020026020016040519081016040528092919081815260200182805480156104ee57602002820191906000526020600020906000905b82829054906101000a900460ff16600281111561113557634e487b7160e01b600052602160045260246000fd5b8152602060019283018181049485019490930390920291018084116111085790505050505050905090565b606060076000018054806020026020016040519081016040528092919081815260200182805480156104ee576020028201919060005260206000209081546001600160a01b031681526001909101906020018083116106b2575050505050905090565b60008060076008015483116111d857826111dc565b600f545b60085490915081116111ef576000610711565b60085461071190826121a0565b6003546040805163483d45bd60e01b815290516000926001600160a01b03169163483d45bd916004808301926020929190829003018186803b15801561124157600080fd5b505afa158015611255573d6000803e3d6000fd5b505050506040513d601f19601f820116820180604052508101906112799190611cf3565b6001600160a01b0316636760c4b76040518163ffffffff1660e01b815260040160206040518083038186803b1580156112b157600080fd5b505afa1580156112c5573d6000803e3d6000fd5b505050506040513d601f19601f820116820180604052508101906112e99190611cf3565b9050336001600160a01b0382161461134d5760405162461bcd60e51b815260206004820152602160248201527f417661696c61626c65206f6e6c7920666f7220616374696f6e206163636f756e6044820152601d60fa1b6064820152608401610444565b600160115460ff16600281111561137457634e487b7160e01b600052602160045260246000fd5b14156113b65760405162461bcd60e51b8152602060048201526011602482015270105b1c9958591e4818dbdb5c1b195d1959607a1b6044820152606401610444565b8151805183916001916113d0918391602090910190611bef565b5060208281015180516113e99260018501920190611bef565b5050505050565b60408051808201909152606080825260208201526001604051806040016040529081600082018054611421906121b7565b80601f016020809104026020016040519081016040528092919081815260200182805461144d906121b7565b801561149a5780601f1061146f5761010080835404028352916020019161149a565b820191906000526020600020905b81548152906001019060200180831161147d57829003601f168201915b5050505050815260200160018201805461055c906121b7565b6000546114c8906001600160a01b0316611880565b6001600160a01b0316336001600160a01b0316146115285760405162461bcd60e51b815260206004820152601c60248201527f417661696c61626c65206f6e6c7920666f7220436f6e73656e737573000000006044820152606401610444565b600b80546000906110289061ffff166121f2565b6003546040805163483d45bd60e01b815290516000926001600160a01b03169163483d45bd916004808301926020929190829003018186803b15801561158157600080fd5b505afa158015611595573d6000803e3d6000fd5b505050506040513d601f19601f820116820180604052508101906115b99190611cf3565b6001600160a01b0316636760c4b76040518163ffffffff1660e01b815260040160206040518083038186803b1580156115f157600080fd5b505afa158015611605573d6000803e3d6000fd5b505050506040513d601f19601f820116820180604052508101906116299190611cf3565b9050336001600160a01b0382161461168d5760405162461bcd60e51b815260206004820152602160248201527f417661696c61626c65206f6e6c7920666f7220616374696f6e206163636f756e6044820152601d60fa1b6064820152608401610444565b600160115460ff1660028111156116b457634e487b7160e01b600052602160045260246000fd5b14156116f65760405162461bcd60e51b8152602060048201526011602482015270105b1c9958591e4818dbdb5c1b195d1959607a1b6044820152606401610444565b816117435760405162461bcd60e51b815260206004820152600f60248201527f456d7074792064657669636520494400000000000000000000000000000000006044820152606401610444565b6005849055825161175b906006906020860190611bef565b50506004555050565b600054611779906001600160a01b03166117f3565b6001600160a01b0316336001600160a01b0316146117d95760405162461bcd60e51b815260206004820152601960248201527f417661696c61626c65206f6e6c7920666f722045706f636873000000000000006044820152606401610444565b601380549115156101000261ff0019909216919091179055565b60006117fe82611bb4565b6001600160a01b031663bcaa0c55600b6040518263ffffffff1660e01b815260040161182a9190612080565b60206040518083038186803b15801561184257600080fd5b505afa158015611856573d6000803e3d6000fd5b505050506040513d601f19601f8201168201806040525081019061187a9190611cf3565b92915050565b600061188b82611bb4565b6001600160a01b031663bcaa0c5560086040518263ffffffff1660e01b815260040161182a9190612080565b60006118c282611bb4565b6001600160a01b031663bcaa0c55600a6040518263ffffffff1660e01b815260040161182a9190612080565b60006118f982611bb4565b6001600160a01b031663bcaa0c5560096040518263ffffffff1660e01b815260040161182a9190612080565b60005a9050600080600185600181111561194f57634e487b7160e01b600052602160045260246000fd5b149050600081611966576007870154875410611972565b60088701546001880154105b90506000826119815787611986565b876001015b90505b81801561199b575085518461ffff1614155b80156119b457506233e1405a6119b190876121a0565b11155b15611a415780868561ffff16815181106119de57634e487b7160e01b600052603260045260246000fd5b60209081029190910181015182546001810184556000938452919092200180547fffffffffffffffffffffffff0000000000000000000000000000000000000000166001600160a01b03909216919091179055611a3a846121f2565b9350611989565b5050505050505050565b60006001836001811115611a6f57634e487b7160e01b600052602160045260246000fd5b149050600081611a8f5760028501548554611a8a91906121a0565b611aa3565b60038501546001860154611aa391906121a0565b9050600082611ab55785600201611aba565b856003015b90508351821015611b0d5760405162461bcd60e51b815260206004820152601260248201527f496e76616c6964206d61726b732073697a6500000000000000000000000000006044820152606401610444565b60005b8451811015611bab5781858281518110611b3a57634e487b7160e01b600052603260045260246000fd5b602090810291909101810151825460018101845560009384529282902091830490910180549192909160ff601f9092166101000a918202191690836002811115611b9457634e487b7160e01b600052602160045260246000fd5b021790555080611ba381612214565b915050611b10565b50505050505050565b6000816001600160a01b031663f1f0bd016040518163ffffffff1660e01b815260040160206040518083038186803b15801561184257600080fd5b828054611bfb906121b7565b90600052602060002090601f016020900481019282611c1d5760008555611c63565b82601f10611c3657805160ff1916838001178555611c63565b82800160010185558215611c63579182015b82811115611c63578251825591602001919060010190611c48565b50611c6f929150611c73565b5090565b5b80821115611c6f5760008155600101611c74565b600082601f830112611c98578081fd5b813567ffffffffffffffff811115611cb257611cb261225b565b611cc5601f8201601f1916602001612133565b818152846020838601011115611cd9578283fd5b816020850160208301379081016020019190915292915050565b600060208284031215611d04578081fd5b815161071181612281565b60006020808385031215611d21578182fd5b823567ffffffffffffffff811115611d37578283fd5b8301601f81018513611d47578283fd5b8035611d5a611d5582612164565b612133565b80828252848201915084840188868560051b8701011115611d79578687fd5b8694505b83851015611da4578035611d9081612281565b835260019490940193918501918501611d7d565b50979650505050505050565b600060208284031215611dc1578081fd5b81358015158114610711578182fd5b60008060408385031215611de2578081fd5b823560028110611df0578182fd5b915060208381013567ffffffffffffffff811115611e0c578283fd5b8401601f81018613611e1c578283fd5b8035611e2a611d5582612164565b80828252848201915084840189868560051b8701011115611e49578687fd5b8694505b83851015611e7757803560038110611e63578788fd5b835260019490940193918501918501611e4d565b5080955050505050509250929050565b600060208284031215611e98578081fd5b813567ffffffffffffffff80821115611eaf578283fd5b9083019060408286031215611ec2578283fd5b604051604081018181108382111715611edd57611edd61225b565b604052823582811115611eee578485fd5b611efa87828601611c88565b825250602083013582811115611f0e578485fd5b611f1a87828601611c88565b60208301525095945050505050565b600060208284031215611f3a578081fd5b5035919050565b600060208284031215611f52578081fd5b5051919050565b600080600060608486031215611f6d578081fd5b83359250602084013567ffffffffffffffff811115611f8a578182fd5b611f9686828701611c88565b925050604084013590509250925092565b60008151808452815b81811015611fcc57602081850181015186830182015201611fb0565b81811115611fdd5782602083870101525b50601f01601f19169290920160200192915050565b6020808252825182820181905260009190848201906040850190845b818110156120335783516001600160a01b03168352928401929184019160010161200e565b50909695505050505050565b6020808252825182820181905260009190848201906040850190845b8181101561203357835161206e81612271565b8352928401929184019160010161205b565b60208101600c831061209457612094612245565b91905290565b6020810161209483612271565b6020815260008251604060208401526120c36060840182611fa7565b90506020840151601f198483030160408501526120e08282611fa7565b95945050505050565b602081526001600160a01b03825116602082015260208201516040820152604082015160608201526000606083015160808084015261212b60a0840182611fa7565b949350505050565b604051601f8201601f1916810167ffffffffffffffff8111828210171561215c5761215c61225b565b604052919050565b600067ffffffffffffffff82111561217e5761217e61225b565b5060051b60200190565b6000821982111561219b5761219b61222f565b500190565b6000828210156121b2576121b261222f565b500390565b600181811c908216806121cb57607f821691505b602082108114156121ec57634e487b7160e01b600052602260045260246000fd5b50919050565b600061ffff8083168181141561220a5761220a61222f565b6001019392505050565b60006000198214156122285761222861222f565b5060010190565b634e487b7160e01b600052601160045260246000fd5b634e487b7160e01b600052602160045260246000fd5b634e487b7160e01b600052604160045260246000fd5b60038110610be057610be0612245565b6001600160a01b0381168114610be057600080fdfea264697066735822122030d7d78fa3cb91923df918c4f66d79da17cdc97b2d01584b32d8be9ef7304eef64736f6c63430008040033a2646970667358221220e4f6ccc1b4cddac63ce03c03078f4f419fcbc4317be65cbf4fca866877f7873a64736f6c63430008040033",
    "linkReferences": {},
    "deployedLinkReferences": {}
}