{
    "_format": "hh-sol-artifact-1",
    "contractName": "Consensus",
    "sourceName": "contracts/consensus/Consensus.sol",
    "abi": [
        {
            "inputs": [
                {
                    "internalType": "address",
                    "name": "_SPConfig",
                    "type": "address"
                }
            ],
            "stateMutability": "nonpayable",
            "type": "constructor"
        },
        {
            "anonymous": false,
            "inputs": [
                {
                    "indexed": false,
                    "internalType": "address",
                    "name": "tcb",
                    "type": "address"
                }
            ],
            "name": "TCBInited",
            "type": "event"
        },
        {
            "inputs": [
                {
                    "internalType": "address",
                    "name": "tcb",
                    "type": "address"
                }
            ],
            "name": "addToSupply",
            "outputs": [],
            "stateMutability": "nonpayable",
            "type": "function"
        },
        {
            "inputs": [
                {
                    "internalType": "address",
                    "name": "tcb",
                    "type": "address"
                }
            ],
            "name": "claimRewards",
            "outputs": [],
            "stateMutability": "nonpayable",
            "type": "function"
        },
        {
            "inputs": [
                {
                    "internalType": "address",
                    "name": "teeOffer",
                    "type": "address"
                }
            ],
            "name": "getInitedTcb",
            "outputs": [
                {
                    "internalType": "address",
                    "name": "",
                    "type": "address"
                }
            ],
            "stateMutability": "view",
            "type": "function"
        },
        {
            "inputs": [
                {
                    "internalType": "address",
                    "name": "teeOffer",
                    "type": "address"
                }
            ],
            "name": "initTcb",
            "outputs": [
                {
                    "internalType": "address",
                    "name": "",
                    "type": "address"
                }
            ],
            "stateMutability": "nonpayable",
            "type": "function"
        },
        {
            "inputs": [
                {
                    "internalType": "address",
                    "name": "tcb",
                    "type": "address"
                },
                {
                    "internalType": "uint256",
                    "name": "amount",
                    "type": "uint256"
                }
            ],
            "name": "unlockRewards",
            "outputs": [],
            "stateMutability": "nonpayable",
            "type": "function"
        }
    ],
    "bytecode": "0x60806040523480156200001157600080fd5b50604051620056653803806200566583398101604081905262000034916200005a565b600080546001600160a01b0319166001600160a01b03929092169190911790556200008a565b6000602082840312156200006c578081fd5b81516001600160a01b038116811462000083578182fd5b9392505050565b6155cb806200009a6000396000f3fe60806040523480156200001157600080fd5b50600436106200006f5760003560e01c8063a6cf65921162000056578063a6cf659214620000c0578063ef5cfb8c14620000d7578063fda6256314620000ee57600080fd5b80638b92bf7d14620000745780638ea74bfd14620000a7575b600080fd5b6200008b6200008536600462002b30565b6200011d565b6040516001600160a01b03909116815260200160405180910390f35b620000be620000b836600462002b6e565b62000711565b005b620000be620000d136600462002b30565b62000b49565b620000be620000e836600462002b30565b6200101e565b6200008b620000ff36600462002b30565b6001600160a01b039081166000908152600160205260409020541690565b600080826001600160a01b031663c422c1b16040518163ffffffff1660e01b815260040160206040518083038186803b1580156200015a57600080fd5b505afa1580156200016f573d6000803e3d6000fd5b505050506040513d601f19601f8201168201806040525081019062000195919062002b4f565b6001600160a01b0380851660008181526001602090815260408083205481517f483d45bd000000000000000000000000000000000000000000000000000000008152915196975090941694919363483d45bd9260048083019392829003018186803b1580156200020457600080fd5b505afa15801562000219573d6000803e3d6000fd5b505050506040513d601f19601f820116820180604052508101906200023f919062002b4f565b6001600160a01b0316636760c4b76040518163ffffffff1660e01b815260040160206040518083038186803b1580156200027857600080fd5b505afa1580156200028d573d6000803e3d6000fd5b505050506040513d601f19601f82011682018060405250810190620002b3919062002b4f565b90506000620002c8610e10620151806200306c565b63ffffffff1690506002866001600160a01b0316630c72dc316040518163ffffffff1660e01b815260040160206040518083038186803b1580156200030c57600080fd5b505afa15801562000321573d6000803e3d6000fd5b505050506040513d601f19601f8201168201806040525081019062000347919062002f59565b60ff16106200039d5760405162461bcd60e51b815260206004820152601c60248201527f546f6f206d7563682070656e616c7469657320666f72206f666665720000000060448201526064015b60405180910390fd5b6001600160a01b0382163314620003f75760405162461bcd60e51b815260206004820181905260248201527f417661696c61626c65206f6e6c7920666f7220616374696f6e4163636f756e74604482015260640162000394565b6001600160a01b03831615806200043357506001600160a01b03831660009081526002602052604090205442906200043190839062003037565b105b620004a75760405162461bcd60e51b815260206004820152602a60248201527f417661696c61626c65206e6f206d6f7265207468616e206f6e6365206576657260448201527f7920323320686f75727300000000000000000000000000000000000000000000606482015260840162000394565b6001600160a01b03841615806200057a575060005442908290620004d4906001600160a01b03166200167a565b6040517fe7f938270000000000000000000000000000000000000000000000000000000081526001600160a01b038881166004830152919091169063e7f938279060240160206040518083038186803b1580156200053157600080fd5b505afa15801562000546573d6000803e3d6000fd5b505050506040513d601f19601f820116820180604052508101906200056c919062002f1c565b62000578919062003037565b105b620005ee5760405162461bcd60e51b815260206004820152602260248201527f417661696c61626c65206e6f206561726c696572207468616e20323320686f7560448201527f7273000000000000000000000000000000000000000000000000000000000000606482015260840162000394565b6000805462000608906001600160a01b0316600d6200170f565b60005462000621906001600160a01b0316600e6200170f565b6000546040518a916001600160a01b0316906200063e9062002b0c565b93845260208401929092526001600160a01b039081166040840152166060820152608001604051809103906000f0801580156200067f573d6000803e3d6000fd5b506001600160a01b038181166000818152600260209081526040808320429055938c168252600181529083902080547fffffffffffffffffffffffff0000000000000000000000000000000000000000168317905591519081529192507f153771aaa78488614c50cf067758a4428416d88cba1b027745b1311abc96d5c7910160405180910390a19695505050505050565b6000826001600160a01b031663182c3dfd6040518163ffffffff1660e01b815260040160006040518083038186803b1580156200074d57600080fd5b505afa15801562000762573d6000803e3d6000fd5b505050506040513d6000823e601f3d908101601f191682016040526200078c919081019062002e09565b6000015190506000816001600160a01b031663483d45bd6040518163ffffffff1660e01b815260040160206040518083038186803b158015620007ce57600080fd5b505afa158015620007e3573d6000803e3d6000fd5b505050506040513d601f19601f8201168201806040525081019062000809919062002b4f565b6001600160a01b0316636760c4b76040518163ffffffff1660e01b815260040160206040518083038186803b1580156200084257600080fd5b505afa15801562000857573d6000803e3d6000fd5b505050506040513d601f19601f820116820180604052508101906200087d919062002b4f565b90506000826001600160a01b031663483d45bd6040518163ffffffff1660e01b815260040160206040518083038186803b158015620008bb57600080fd5b505afa158015620008d0573d6000803e3d6000fd5b505050506040513d601f19601f82011682018060405250810190620008f6919062002b4f565b6001600160a01b0316636d69a3e86040518163ffffffff1660e01b815260040160206040518083038186803b1580156200092f57600080fd5b505afa15801562000944573d6000803e3d6000fd5b505050506040513d601f19601f820116820180604052508101906200096a919062002b4f565b90506001600160a01b0381163314806200098c57506001600160a01b03821633145b620009da5760405162461bcd60e51b815260206004820152601060248201527f41636365737320666f7262696464656e00000000000000000000000000000000604482015260640162000394565b600054620009f1906001600160a01b0316620017a4565b6040516336afedef60e01b81526001600160a01b03878116600483015291909116906336afedef9060240160206040518083038186803b15801562000a3557600080fd5b505afa15801562000a4a573d6000803e3d6000fd5b505050506040513d601f19601f8201168201806040525081019062000a70919062002ce4565b62000aac5760405162461bcd60e51b815260206004820152600b60248201526a24b73b30b634b2103a31b160a91b604482015260640162000394565b60005462000ac3906001600160a01b0316620017a4565b6040517ffa4e04a60000000000000000000000000000000000000000000000000000000081526001600160a01b03878116600483015260248201879052919091169063fa4e04a690604401600060405180830381600087803b15801562000b2957600080fd5b505af115801562000b3e573d6000803e3d6000fd5b505050505050505050565b6000816001600160a01b031663182c3dfd6040518163ffffffff1660e01b815260040160006040518083038186803b15801562000b8557600080fd5b505afa15801562000b9a573d6000803e3d6000fd5b505050506040513d6000823e601f3d908101601f1916820160405262000bc4919081019062002e09565b6000015190506000816001600160a01b031663483d45bd6040518163ffffffff1660e01b815260040160206040518083038186803b15801562000c0657600080fd5b505afa15801562000c1b573d6000803e3d6000fd5b505050506040513d601f19601f8201168201806040525081019062000c41919062002b4f565b6001600160a01b0316636760c4b76040518163ffffffff1660e01b815260040160206040518083038186803b15801562000c7a57600080fd5b505afa15801562000c8f573d6000803e3d6000fd5b505050506040513d601f19601f8201168201806040525081019062000cb5919062002b4f565b90506001600160a01b038116331462000d115760405162461bcd60e51b815260206004820181905260248201527f417661696c61626c65206f6e6c7920666f7220616374696f6e4163636f756e74604482015260640162000394565b6001600160a01b03831660009081526002602052604090205462000d785760405162461bcd60e51b815260206004820152601860248201527f57726f6e6720696e697465642074636220616464726573730000000000000000604482015260640162000394565b6001600160a01b038316600090815260026020526040902054429062000da390620151809062003037565b1162000e175760405162461bcd60e51b8152602060048201526024808201527f5443422063616e20626520636f6d706c657465642077697468696e203234206860448201527f6f75727300000000000000000000000000000000000000000000000000000000606482015260840162000394565b826001600160a01b031663522e11776040518163ffffffff1660e01b8152600401600060405180830381600087803b15801562000e5357600080fd5b505af115801562000e68573d6000803e3d6000fd5b505060005462000e8492506001600160a01b03169050620017a4565b6040517f2c413abf0000000000000000000000000000000000000000000000000000000081526001600160a01b0385811660048301529190911690632c413abf90602401600060405180830381600087803b15801562000ee357600080fd5b505af115801562000ef8573d6000803e3d6000fd5b505060005462000f1492506001600160a01b031690506200167a565b604051630a3b0a4f60e01b81526001600160a01b0385811660048301529190911690630a3b0a4f90602401600060405180830381600087803b15801562000f5a57600080fd5b505af115801562000f6f573d6000803e3d6000fd5b505060005462000f8b92506001600160a01b03169050620017df565b604051630a3b0a4f60e01b81526001600160a01b0385811660048301529190911690630a3b0a4f90602401600060405180830381600087803b15801562000fd157600080fd5b505af115801562000fe6573d6000803e3d6000fd5b5050506001600160a01b038416600090815260026020526040812055506200100e836200181a565b620010198362001b4c565b505050565b60005462001035906001600160a01b0316620017a4565b6040516336afedef60e01b81526001600160a01b03838116600483015291909116906336afedef9060240160206040518083038186803b1580156200107957600080fd5b505afa1580156200108e573d6000803e3d6000fd5b505050506040513d601f19601f82011682018060405250810190620010b4919062002ce4565b620010f05760405162461bcd60e51b815260206004820152600b60248201526a24b73b30b634b2103a31b160a91b604482015260640162000394565b6000816001600160a01b031663a9fd1a8f6040518163ffffffff1660e01b815260040160606040518083038186803b1580156200112c57600080fd5b505afa15801562001141573d6000803e3d6000fd5b505050506040513d601f19601f8201168201806040525081019062001167919062002d9d565b51600080549192509062001184906001600160a01b0316620017df565b6001600160a01b031663bc0bc6ba836040518263ffffffff1660e01b8152600401620011b291815260200190565b60c06040518083038186803b158015620011cb57600080fd5b505afa158015620011e0573d6000803e3d6000fd5b505050506040513d601f19601f8201168201806040525081019062001206919062002d20565b602001519050428111156200125e5760405162461bcd60e51b815260206004820152601b60248201527f54434227732045706f6368206973206e6f74206f766572207965740000000000604482015260640162000394565b6000805462001276906001600160a01b0316620017df565b6040517fb8ac86420000000000000000000000000000000000000000000000000000000081526001600160a01b038681166004830152919091169063b8ac86429060240160206040518083038186803b158015620012d357600080fd5b505afa158015620012e8573d6000803e3d6000fd5b505050506040513d601f19601f820116820180604052508101906200130e919062002f1c565b60005462001325906001600160a01b0316620017df565b6040517fc00007b00000000000000000000000000000000000000000000000000000000081526001600160a01b038781166004830152919091169063c00007b09060240160206040518083038186803b1580156200138257600080fd5b505afa15801562001397573d6000803e3d6000fd5b505050506040513d601f19601f82011682018060405250810190620013bd919062002f1c565b620013c9919062003037565b90506000846001600160a01b0316636a20a8a16040518163ffffffff1660e01b815260040160206040518083038186803b1580156200140757600080fd5b505afa1580156200141c573d6000803e3d6000fd5b505050506040513d601f19601f8201168201806040525081019062001442919062002f1c565b90508115801590620014545750808210155b620014a25760405162461bcd60e51b815260206004820152601160248201527f3530302e2057726f6e6720726577617264000000000000000000000000000000604482015260640162000394565b6000620014b0828462003052565b6040517f385bb5cd000000000000000000000000000000000000000000000000000000008152600481018290529091506001600160a01b0387169063385bb5cd90602401600060405180830381600087803b1580156200150f57600080fd5b505af115801562001524573d6000803e3d6000fd5b50506000546200154092506001600160a01b0316905062001dc8565b6000546001600160a01b03918216916340c10f1991620015619116620017a4565b6040517fffffffff0000000000000000000000000000000000000000000000000000000060e084901b1681526001600160a01b03909116600482015260248101849052604401600060405180830381600087803b158015620015c257600080fd5b505af1158015620015d7573d6000803e3d6000fd5b5050600054620015f392506001600160a01b03169050620017a4565b6040517fe05553070000000000000000000000000000000000000000000000000000000081526001600160a01b03888116600483015260248201849052919091169063e055530790604401600060405180830381600087803b1580156200165957600080fd5b505af11580156200166e573d6000803e3d6000fd5b50505050505050505050565b6000620016878262001e03565b6001600160a01b031663bcaa0c55600a6040518263ffffffff1660e01b8152600401620016b5919062002f7c565b60206040518083038186803b158015620016ce57600080fd5b505afa158015620016e3573d6000803e3d6000fd5b505050506040513d601f19601f8201168201806040525081019062001709919062002b4f565b92915050565b60006200171c8362001e03565b6001600160a01b03166303a2216d836040518263ffffffff1660e01b815260040162001749919062002f99565b60206040518083038186803b1580156200176257600080fd5b505afa15801562001777573d6000803e3d6000fd5b505050506040513d601f19601f820116820180604052508101906200179d919062002f1c565b9392505050565b6000620017b18262001e03565b6001600160a01b031663bcaa0c5560046040518263ffffffff1660e01b8152600401620016b5919062002f7c565b6000620017ec8262001e03565b6001600160a01b031663bcaa0c55600b6040518263ffffffff1660e01b8152600401620016b5919062002f7c565b60008190506000816001600160a01b031663990db3636040518163ffffffff1660e01b815260040160006040518083038186803b1580156200185b57600080fd5b505afa15801562001870573d6000803e3d6000fd5b505050506040513d6000823e601f3d908101601f191682016040526200189a919081019062002c49565b90506000826001600160a01b031663a00da7316040518163ffffffff1660e01b815260040160006040518083038186803b158015620018d857600080fd5b505afa158015620018ed573d6000803e3d6000fd5b505050506040513d6000823e601f3d908101601f1916820160405262001917919081019062002b9c565b905060005b815181101562001b455760008282815181106200194957634e487b7160e01b600052603260045260246000fd5b602002602001015190506002808111156200197457634e487b7160e01b600052602160045260246000fd5b8483815181106200199557634e487b7160e01b600052603260045260246000fd5b60200260200101516002811115620019bd57634e487b7160e01b600052602160045260246000fd5b141562001a1f57806001600160a01b0316637d3e3ef16040518163ffffffff1660e01b8152600401600060405180830381600087803b15801562001a0057600080fd5b505af115801562001a15573d6000803e3d6000fd5b5050505062001b24565b806001600160a01b031663b71712e46040518163ffffffff1660e01b8152600401600060405180830381600087803b15801562001a5b57600080fd5b505af115801562001a70573d6000803e3d6000fd5b505060005462001a8c92506001600160a01b0316905062001e3f565b6001600160a01b0316630a3b0a4f84848151811062001abb57634e487b7160e01b600052603260045260246000fd5b60200260200101516040518263ffffffff1660e01b815260040162001aef91906001600160a01b0391909116815260200190565b600060405180830381600087803b15801562001b0a57600080fd5b505af115801562001b1f573d6000803e3d6000fd5b505050505b62001b2f8162001e7a565b508062001b3c8162003094565b9150506200191c565b5050505050565b60008190506000816001600160a01b0316630f8f42926040518163ffffffff1660e01b815260040160006040518083038186803b15801562001b8d57600080fd5b505afa15801562001ba2573d6000803e3d6000fd5b505050506040513d6000823e601f3d908101601f1916820160405262001bcc919081019062002c49565b90506000826001600160a01b03166343fe9e7b6040518163ffffffff1660e01b815260040160006040518083038186803b15801562001c0a57600080fd5b505afa15801562001c1f573d6000803e3d6000fd5b505050506040513d6000823e601f3d908101601f1916820160405262001c49919081019062002b9c565b905060005b815181101562001b4557600082828151811062001c7b57634e487b7160e01b600052603260045260246000fd5b6020026020010151905060028081111562001ca657634e487b7160e01b600052602160045260246000fd5b84838151811062001cc757634e487b7160e01b600052603260045260246000fd5b6020026020010151600281111562001cef57634e487b7160e01b600052602160045260246000fd5b141562001d5157806001600160a01b0316637d3e3ef16040518163ffffffff1660e01b8152600401600060405180830381600087803b15801562001d3257600080fd5b505af115801562001d47573d6000803e3d6000fd5b5050505062001da7565b806001600160a01b031663b71712e46040518163ffffffff1660e01b8152600401600060405180830381600087803b15801562001d8d57600080fd5b505af115801562001da2573d6000803e3d6000fd5b505050505b62001db28162001e7a565b508062001dbf8162003094565b91505062001c4e565b600062001dd58262001e03565b6001600160a01b031663bcaa0c5560056040518263ffffffff1660e01b8152600401620016b5919062002f7c565b6000816001600160a01b031663f1f0bd016040518163ffffffff1660e01b815260040160206040518083038186803b158015620016ce57600080fd5b600062001e4c8262001e03565b6001600160a01b031663bcaa0c5560096040518263ffffffff1660e01b8152600401620016b5919062002f7c565b600080826001600160a01b031663128248366040518163ffffffff1660e01b8152600401604080518083038186803b15801562001eb657600080fd5b505afa15801562001ecb573d6000803e3d6000fd5b505050506040513d601f19601f8201168201806040525081019062001ef1919062002f35565b600054919350915062001f0f906001600160a01b0316600f6200170f565b821062001fe65760005462001f2d906001600160a01b031662001e3f565b604051631484968760e11b81526001600160a01b03858116600483015291909116906329092d0e90602401600060405180830381600087803b15801562001f7357600080fd5b505af115801562001f88573d6000803e3d6000fd5b50505050826001600160a01b0316638e2c2d3b6040518163ffffffff1660e01b8152600401600060405180830381600087803b15801562001fc857600080fd5b505af115801562001fdd573d6000803e3d6000fd5b50505050505050565b60005462001fff906001600160a01b0316600f6200170f565b811062001019576000546200201d906001600160a01b031662001e3f565b604051631484968760e11b81526001600160a01b03858116600483015291909116906329092d0e90602401600060405180830381600087803b1580156200206357600080fd5b505af115801562002078573d6000803e3d6000fd5b50506000546200209492506001600160a01b031690506200167a565b604051631484968760e11b81526001600160a01b03858116600483015291909116906329092d0e90602401600060405180830381600087803b158015620020da57600080fd5b505af1158015620020ef573d6000803e3d6000fd5b50505050826001600160a01b0316638e2c2d3b6040518163ffffffff1660e01b8152600401600060405180830381600087803b1580156200212f57600080fd5b505af115801562002144573d6000803e3d6000fd5b50505050620021538362002169565b6200215e836200234d565b620010198362002696565b6000805462002181906001600160a01b0316620017a4565b6040517f9a6bcd0e0000000000000000000000000000000000000000000000000000000081526001600160a01b0384811660048301529190911690639a6bcd0e9060240160206040518083038186803b158015620021de57600080fd5b505afa158015620021f3573d6000803e3d6000fd5b505050506040513d601f19601f8201168201806040525081019062002219919062002f1c565b60005490915062002233906001600160a01b0316620017a4565b6040517f6b2e41b60000000000000000000000000000000000000000000000000000000081526001600160a01b038481166004830152602482018490529190911690636b2e41b690604401600060405180830381600087803b1580156200229957600080fd5b505af1158015620022ae573d6000803e3d6000fd5b5050600054620022ca92506001600160a01b03169050620017df565b6040517f8ce1662d0000000000000000000000000000000000000000000000000000000081526001600160a01b038481166004830152602482018490529190911690638ce1662d90604401600060405180830381600087803b1580156200233057600080fd5b505af115801562002345573d6000803e3d6000fd5b505050505050565b6000816001600160a01b031663182c3dfd6040518163ffffffff1660e01b815260040160006040518083038186803b1580156200238957600080fd5b505afa1580156200239e573d6000803e3d6000fd5b505050506040513d6000823e601f3d908101601f19168201604052620023c8919081019062002e09565b6000015190506000816001600160a01b0316630c72dc316040518163ffffffff1660e01b815260040160206040518083038186803b1580156200240a57600080fd5b505afa1580156200241f573d6000803e3d6000fd5b505050506040513d601f19601f8201168201806040525081019062002445919062002f59565b600080549192509062002463906001600160a01b031660056200170f565b90508160ff1660021480156200250e57506002846001600160a01b03166354e410ca6040518163ffffffff1660e01b815260040160206040518083038186803b158015620024b057600080fd5b505afa158015620024c5573d6000803e3d6000fd5b505050506040513d601f19601f82011682018060405250810190620024eb919062002d01565b60028111156200250b57634e487b7160e01b600052602160045260246000fd5b14155b1562002690576000546200252b906001600160a01b0316620017a4565b6040517f44bde3ff0000000000000000000000000000000000000000000000000000000081526001600160a01b03868116600483015291909116906344bde3ff90602401600060405180830381600087803b1580156200258a57600080fd5b505af11580156200259f573d6000803e3d6000fd5b5050600054620025bb92506001600160a01b0316905062002ad1565b6040517f5cdf48f10000000000000000000000000000000000000000000000000000000081526001600160a01b038581166004830152602482018490529190911690635cdf48f190604401600060405180830381600087803b1580156200262157600080fd5b505af115801562002636573d6000803e3d6000fd5b50505050836001600160a01b031663684f04666040518163ffffffff1660e01b8152600401600060405180830381600087803b1580156200267657600080fd5b505af11580156200268b573d6000803e3d6000fd5b505050505b50505050565b6000816001600160a01b031663990db3636040518163ffffffff1660e01b815260040160006040518083038186803b158015620026d257600080fd5b505afa158015620026e7573d6000803e3d6000fd5b505050506040513d6000823e601f3d908101601f1916820160405262002711919081019062002c49565b90506000826001600160a01b0316630f8f42926040518163ffffffff1660e01b815260040160006040518083038186803b1580156200274f57600080fd5b505afa15801562002764573d6000803e3d6000fd5b505050506040513d6000823e601f3d908101601f191682016040526200278e919081019062002c49565b90506000836001600160a01b031663a00da7316040518163ffffffff1660e01b815260040160006040518083038186803b158015620027cc57600080fd5b505afa158015620027e1573d6000803e3d6000fd5b505050506040513d6000823e601f3d908101601f191682016040526200280b919081019062002b9c565b90506000846001600160a01b03166343fe9e7b6040518163ffffffff1660e01b815260040160006040518083038186803b1580156200284957600080fd5b505afa1580156200285e573d6000803e3d6000fd5b505050506040513d6000823e601f3d908101601f1916820160405262002888919081019062002b9c565b905060005b8251811015620029ad576002858281518110620028ba57634e487b7160e01b600052603260045260246000fd5b60200260200101516002811115620028e257634e487b7160e01b600052602160045260246000fd5b1415620029985760005462002900906001600160a01b031662001e3f565b6001600160a01b0316630a3b0a4f8483815181106200292f57634e487b7160e01b600052603260045260246000fd5b60200260200101516040518263ffffffff1660e01b81526004016200296391906001600160a01b0391909116815260200190565b600060405180830381600087803b1580156200297e57600080fd5b505af115801562002993573d6000803e3d6000fd5b505050505b80620029a48162003094565b9150506200288d565b5060005b815181101562002345576002848281518110620029de57634e487b7160e01b600052603260045260246000fd5b6020026020010151600281111562002a0657634e487b7160e01b600052602160045260246000fd5b141562002abc5760005462002a24906001600160a01b031662001e3f565b6001600160a01b0316630a3b0a4f83838151811062002a5357634e487b7160e01b600052603260045260246000fd5b60200260200101516040518263ffffffff1660e01b815260040162002a8791906001600160a01b0391909116815260200190565b600060405180830381600087803b15801562002aa257600080fd5b505af115801562002ab7573d6000803e3d6000fd5b505050505b8062002ac88162003094565b915050620029b1565b600062002ade8262001e03565b6001600160a01b031663bcaa0c5560016040518263ffffffff1660e01b8152600401620016b5919062002f7c565b61247a806200311c83390190565b8051801515811462002b2b57600080fd5b919050565b60006020828403121562002b42578081fd5b81356200179d81620030f4565b60006020828403121562002b61578081fd5b81516200179d81620030f4565b6000806040838503121562002b81578081fd5b823562002b8e81620030f4565b946020939093013593505050565b6000602080838503121562002baf578182fd5b825167ffffffffffffffff81111562002bc6578283fd5b8301601f8101851362002bd7578283fd5b805162002bee62002be88262003010565b62002fdc565b80828252848201915084840188868560051b870101111562002c0e578687fd5b8694505b8385101562002c3d57805162002c2881620030f4565b83526001949094019391850191850162002c12565b50979650505050505050565b6000602080838503121562002c5c578182fd5b825167ffffffffffffffff81111562002c73578283fd5b8301601f8101851362002c84578283fd5b805162002c9562002be88262003010565b80828252848201915084840188868560051b870101111562002cb5578687fd5b8694505b8385101562002c3d57805162002ccf816200310d565b83526001949094019391850191850162002cb9565b60006020828403121562002cf6578081fd5b6200179d8262002b1a565b60006020828403121562002d13578081fd5b81516200179d816200310d565b600060c0828403121562002d32578081fd5b60405160c0810181811067ffffffffffffffff8211171562002d585762002d58620030de565b8060405250825181526020830151602082015260408301516040820152606083015160608201526080830151608082015260a083015160a08201528091505092915050565b60006060828403121562002daf578081fd5b6040516060810181811067ffffffffffffffff8211171562002dd55762002dd5620030de565b6040528251815262002dea6020840162002b1a565b602082015262002dfd6040840162002b1a565b60408201529392505050565b6000602080838503121562002e1c578182fd5b825167ffffffffffffffff8082111562002e34578384fd5b908401906080828703121562002e48578384fd5b62002e5262002fb0565b825162002e5f81620030f4565b815282840151848201526040808401519082015260608301518281111562002e85578586fd5b80840193505086601f84011262002e9a578485fd5b82518281111562002eaf5762002eaf620030de565b62002ec3601f8201601f1916860162002fdc565b9250808352878582860101111562002ed9578586fd5b855b8181101562002ef857848101860151848201870152850162002edb565b8181111562002f0957868683860101525b5050606081019190915295945050505050565b60006020828403121562002f2e578081fd5b5051919050565b6000806040838503121562002f48578182fd5b505080516020909101519092909150565b60006020828403121562002f6b578081fd5b815160ff811681146200179d578182fd5b60208101600c831062002f935762002f93620030c8565b91905290565b602081016011831062002f935762002f93620030c8565b6040516080810167ffffffffffffffff8111828210171562002fd65762002fd6620030de565b60405290565b604051601f8201601f1916810167ffffffffffffffff81118282101715620030085762003008620030de565b604052919050565b600067ffffffffffffffff8211156200302d576200302d620030de565b5060051b60200190565b600082198211156200304d576200304d620030b2565b500190565b600082821015620030675762003067620030b2565b500390565b600063ffffffff838116908316818110156200308c576200308c620030b2565b039392505050565b6000600019821415620030ab57620030ab620030b2565b5060010190565b634e487b7160e01b600052601160045260246000fd5b634e487b7160e01b600052602160045260246000fd5b634e487b7160e01b600052604160045260246000fd5b6001600160a01b03811681146200310a57600080fd5b50565b600381106200310a57600080fdfe60806040523480156200001157600080fd5b506040516200247a3803806200247a833981016040819052620000349162000154565b600e849055600f839055600080546001600160a01b038084166001600160a01b0319928316179092556003805492851692909116821790556040805163c422c1b160e01b8152905163c422c1b191600480820192602092909190829003018186803b158015620000a357600080fd5b505afa158015620000b8573d6000803e3d6000fd5b505050506040513d601f19601f82011682018060405250810190620000de919062000130565b601080546001600160a01b0319166001600160a01b039290921691909117905550506011805460ff19169055506200019e9050565b80516001600160a01b03811681146200012b57600080fd5b919050565b60006020828403121562000142578081fd5b6200014d8262000113565b9392505050565b600080600080608085870312156200016a578283fd5b8451935060208501519250620001836040860162000113565b9150620001936060860162000113565b905092959194509250565b6122cc80620001ae6000396000f3fe608060405234801561001057600080fd5b50600436106101ae5760003560e01c8063774140b2116100ee578063a03a018811610097578063b69ca9a111610071578063b69ca9a114610390578063b71712e4146103a5578063c852295b146103ad578063fe71954b146103c057600080fd5b8063a03a0188146102f2578063a9fd1a8f14610305578063b2d8327f1461037d57600080fd5b80638e2c2d3b116100c85780638e2c2d3b146102da578063990db363146102e2578063a00da731146102ea57600080fd5b8063774140b2146102b757806379a94569146102ca5780637d3e3ef1146102d257600080fd5b8063457bb7f41161015b578063639dd37f11610135578063639dd37f1461028157806367e1f61214610294578063684f0466146102a75780636a20a8a1146102af57600080fd5b8063457bb7f414610245578063522e11771461026657806354e410ca1461026e57600080fd5b8063182c3dfd1161018c578063182c3dfd14610208578063385bb5cd1461021d57806343fe9e7b1461023057600080fd5b80630ceb2cef146101b35780630f8f4292146101c857806312824836146101e6575b600080fd5b6101c66101c1366004611f29565b6103d3565b005b6101d061045f565b6040516101dd919061203f565b60405180910390f35b600b546040805161ffff620100008404811682529092166020830152016101dd565b6102106104f8565b6040516101dd91906120e9565b6101c661022b366004611f29565b6105e3565b610238610675565b6040516101dd9190611ff2565b610258610253366004611f29565b6106d9565b6040519081526020016101dd565b6101c6610718565b60115460ff166040516101dd919061209a565b6101c661028f366004611d0f565b610acf565b6101c66102a2366004611d0f565b610be3565b6101c6610cf4565b600c54610258565b6101c66102c5366004611dd0565b610d7d565b600554610258565b6101c6610f99565b6101c6611044565b6101d06110c8565b610238611160565b610258610300366004611f29565b6111c3565b61035760408051606081018252600080825260208201819052918101919091525060408051606081018252601254815260135460ff808216151560208401526101009091041615159181019190915290565b6040805182518152602080840151151590820152918101511515908201526060016101dd565b6101c661038b366004611e87565b6111fc565b6103986113f0565b6040516101dd91906120a7565b6101c66114b3565b6101c66103bb366004611f59565b61153c565b6101c66103ce366004611db0565b611764565b6000546103e8906001600160a01b03166117f3565b6001600160a01b0316336001600160a01b03161461044d5760405162461bcd60e51b815260206004820152601960248201527f417661696c61626c65206f6e6c7920666f722045706f6368730000000000000060448201526064015b60405180910390fd5b6012556013805460ff19166001179055565b606060076003018054806020026020016040519081016040528092919081815260200182805480156104ee57602002820191906000526020600020906000905b82829054906101000a900460ff1660028111156104cc57634e487b7160e01b600052602160045260246000fd5b81526020600192830181810494850194909303909202910180841161049f5790505b5050505050905090565b604080516080810182526000808252602082018190529181019190915260608082015260408051608081018252600380546001600160a01b031682526004546020830152600554928201929092526006805491929160608401919061055c906121b7565b80601f0160208091040260200160405190810160405280929190818152602001828054610588906121b7565b80156105d55780601f106105aa576101008083540402835291602001916105d5565b820191906000526020600020905b8154815290600101906020018083116105b857829003601f168201915b505050505081525050905090565b6000546105f8906001600160a01b0316611880565b6001600160a01b0316336001600160a01b0316146106585760405162461bcd60e51b815260206004820152601c60248201527f417661696c61626c65206f6e6c7920666f7220436f6e73656e737573000000006044820152606401610444565b806007600501600082825461066d9190612188565b909155505050565b606060076001018054806020026020016040519081016040528092919081815260200182805480156104ee57602002820191906000526020600020905b81546001600160a01b031681526001909101906020018083116106b2575050505050905090565b600080600780015483116106ed57826106f1565b600e545b6007549091508111610704576000610711565b60075461071190826121a0565b9392505050565b60005461072d906001600160a01b0316611880565b6001600160a01b0316336001600160a01b03161461078d5760405162461bcd60e51b815260206004820152601c60248201527f417661696c61626c65206f6e6c7920666f7220436f6e73656e737573000000006044820152606401610444565b600160115460ff1660028111156107b457634e487b7160e01b600052602160045260246000fd5b14156107f65760405162461bcd60e51b8152602060048201526011602482015270105b1c9958591e4818dbdb5c1b195d1959607a1b6044820152606401610444565b60005461087f9061080f906001600160a01b03166118b7565b6001600160a01b03166306661abd6040518163ffffffff1660e01b815260040160206040518083038186803b15801561084757600080fd5b505afa15801561085b573d6000803e3d6000fd5b505050506040513d601f19601f820116820180604052508101906102539190611f41565b156108cc5760405162461bcd60e51b815260206004820152601c60248201527f4e65656420746f20616464206d6f7265206c61737420626c6f636b73000000006044820152606401610444565b600054610955906108e5906001600160a01b03166118ee565b6001600160a01b03166306661abd6040518163ffffffff1660e01b815260040160206040518083038186803b15801561091d57600080fd5b505afa158015610931573d6000803e3d6000fd5b505050506040513d601f19601f820116820180604052508101906103009190611f41565b156109c85760405162461bcd60e51b815260206004820152602660248201527f4d6f72652073757370656374656420626c6f636b73206e65656420746f20626560448201527f20616464656400000000000000000000000000000000000000000000000000006064820152608401610444565b60075460095414610a415760405162461bcd60e51b815260206004820152602560248201527f4e65656420746f20616464206d6f7265206d61726b73206f66206c617374206260448201527f6c6f636b730000000000000000000000000000000000000000000000000000006064820152608401610444565b600854600a5414610ab95760405162461bcd60e51b8152602060048201526024808201527f4e65656420746f20616464206d6f7265206d61726b73206f662073757370696360448201527f696f7573000000000000000000000000000000000000000000000000000000006064820152608401610444565b601180546001919060ff191682805b0217905550565b600054610ae4906001600160a01b03166118b7565b6001600160a01b0316336001600160a01b031614610b6a5760405162461bcd60e51b815260206004820152602860248201527f417661696c61626c65206f6e6c7920666f72204c617374426c6f636b7354616260448201527f6c65207461626c650000000000000000000000000000000000000000000000006064820152608401610444565b600160115460ff166002811115610b9157634e487b7160e01b600052602160045260246000fd5b1415610bd35760405162461bcd60e51b8152602060048201526011602482015270105b1c9958591e4818dbdb5c1b195d1959607a1b6044820152606401610444565b610be06007600083611925565b50565b600054610bf8906001600160a01b03166118ee565b6001600160a01b0316336001600160a01b031614610c7e5760405162461bcd60e51b815260206004820152602360248201527f417661696c61626c65206f6e6c7920666f7220537573706963696f757320746160448201527f626c6500000000000000000000000000000000000000000000000000000000006064820152608401610444565b600160115460ff166002811115610ca557634e487b7160e01b600052602160045260246000fd5b1415610ce75760405162461bcd60e51b8152602060048201526011602482015270105b1c9958591e4818dbdb5c1b195d1959607a1b6044820152606401610444565b610be06007600183611925565b600054610d09906001600160a01b0316611880565b6001600160a01b0316336001600160a01b031614610d695760405162461bcd60e51b815260206004820152601c60248201527f417661696c61626c65206f6e6c7920666f7220436f6e73656e737573000000006044820152606401610444565b601180546002919060ff1916600183610ac8565b6003546040805163483d45bd60e01b815290516000926001600160a01b03169163483d45bd916004808301926020929190829003018186803b158015610dc257600080fd5b505afa158015610dd6573d6000803e3d6000fd5b505050506040513d601f19601f82011682018060405250810190610dfa9190611cf3565b6001600160a01b0316636760c4b76040518163ffffffff1660e01b815260040160206040518083038186803b158015610e3257600080fd5b505afa158015610e46573d6000803e3d6000fd5b505050506040513d601f19601f82011682018060405250810190610e6a9190611cf3565b9050336001600160a01b03821614610ece5760405162461bcd60e51b815260206004820152602160248201527f417661696c61626c65206f6e6c7920666f7220616374696f6e206163636f756e6044820152601d60fa1b6064820152608401610444565b600160115460ff166002811115610ef557634e487b7160e01b600052602160045260246000fd5b1415610f375760405162461bcd60e51b8152602060048201526011602482015270105b1c9958591e4818dbdb5c1b195d1959607a1b6044820152606401610444565b6000825111610f885760405162461bcd60e51b815260206004820152600560248201527f456d7074790000000000000000000000000000000000000000000000000000006044820152606401610444565b610f9460078484611a4b565b505050565b600054610fae906001600160a01b0316611880565b6001600160a01b0316336001600160a01b03161461100e5760405162461bcd60e51b815260206004820152601c60248201527f417661696c61626c65206f6e6c7920666f7220436f6e73656e737573000000006044820152606401610444565b600b80546002906110289062010000900461ffff166121f2565b91906101000a81548161ffff021916908361ffff160217905550565b600054611059906001600160a01b0316611880565b6001600160a01b0316336001600160a01b0316146110b95760405162461bcd60e51b815260206004820152601c60248201527f417661696c61626c65206f6e6c7920666f7220436f6e73656e737573000000006044820152606401610444565b600b805463ffffffff19169055565b606060076002018054806020026020016040519081016040528092919081815260200182805480156104ee57602002820191906000526020600020906000905b82829054906101000a900460ff16600281111561113557634e487b7160e01b600052602160045260246000fd5b8152602060019283018181049485019490930390920291018084116111085790505050505050905090565b606060076000018054806020026020016040519081016040528092919081815260200182805480156104ee576020028201919060005260206000209081546001600160a01b031681526001909101906020018083116106b2575050505050905090565b60008060076008015483116111d857826111dc565b600f545b60085490915081116111ef576000610711565b60085461071190826121a0565b6003546040805163483d45bd60e01b815290516000926001600160a01b03169163483d45bd916004808301926020929190829003018186803b15801561124157600080fd5b505afa158015611255573d6000803e3d6000fd5b505050506040513d601f19601f820116820180604052508101906112799190611cf3565b6001600160a01b0316636760c4b76040518163ffffffff1660e01b815260040160206040518083038186803b1580156112b157600080fd5b505afa1580156112c5573d6000803e3d6000fd5b505050506040513d601f19601f820116820180604052508101906112e99190611cf3565b9050336001600160a01b0382161461134d5760405162461bcd60e51b815260206004820152602160248201527f417661696c61626c65206f6e6c7920666f7220616374696f6e206163636f756e6044820152601d60fa1b6064820152608401610444565b600160115460ff16600281111561137457634e487b7160e01b600052602160045260246000fd5b14156113b65760405162461bcd60e51b8152602060048201526011602482015270105b1c9958591e4818dbdb5c1b195d1959607a1b6044820152606401610444565b8151805183916001916113d0918391602090910190611bef565b5060208281015180516113e99260018501920190611bef565b5050505050565b60408051808201909152606080825260208201526001604051806040016040529081600082018054611421906121b7565b80601f016020809104026020016040519081016040528092919081815260200182805461144d906121b7565b801561149a5780601f1061146f5761010080835404028352916020019161149a565b820191906000526020600020905b81548152906001019060200180831161147d57829003601f168201915b5050505050815260200160018201805461055c906121b7565b6000546114c8906001600160a01b0316611880565b6001600160a01b0316336001600160a01b0316146115285760405162461bcd60e51b815260206004820152601c60248201527f417661696c61626c65206f6e6c7920666f7220436f6e73656e737573000000006044820152606401610444565b600b80546000906110289061ffff166121f2565b6003546040805163483d45bd60e01b815290516000926001600160a01b03169163483d45bd916004808301926020929190829003018186803b15801561158157600080fd5b505afa158015611595573d6000803e3d6000fd5b505050506040513d601f19601f820116820180604052508101906115b99190611cf3565b6001600160a01b0316636760c4b76040518163ffffffff1660e01b815260040160206040518083038186803b1580156115f157600080fd5b505afa158015611605573d6000803e3d6000fd5b505050506040513d601f19601f820116820180604052508101906116299190611cf3565b9050336001600160a01b0382161461168d5760405162461bcd60e51b815260206004820152602160248201527f417661696c61626c65206f6e6c7920666f7220616374696f6e206163636f756e6044820152601d60fa1b6064820152608401610444565b600160115460ff1660028111156116b457634e487b7160e01b600052602160045260246000fd5b14156116f65760405162461bcd60e51b8152602060048201526011602482015270105b1c9958591e4818dbdb5c1b195d1959607a1b6044820152606401610444565b816117435760405162461bcd60e51b815260206004820152600f60248201527f456d7074792064657669636520494400000000000000000000000000000000006044820152606401610444565b6005849055825161175b906006906020860190611bef565b50506004555050565b600054611779906001600160a01b03166117f3565b6001600160a01b0316336001600160a01b0316146117d95760405162461bcd60e51b815260206004820152601960248201527f417661696c61626c65206f6e6c7920666f722045706f636873000000000000006044820152606401610444565b601380549115156101000261ff0019909216919091179055565b60006117fe82611bb4565b6001600160a01b031663bcaa0c55600b6040518263ffffffff1660e01b815260040161182a9190612080565b60206040518083038186803b15801561184257600080fd5b505afa158015611856573d6000803e3d6000fd5b505050506040513d601f19601f8201168201806040525081019061187a9190611cf3565b92915050565b600061188b82611bb4565b6001600160a01b031663bcaa0c5560086040518263ffffffff1660e01b815260040161182a9190612080565b60006118c282611bb4565b6001600160a01b031663bcaa0c55600a6040518263ffffffff1660e01b815260040161182a9190612080565b60006118f982611bb4565b6001600160a01b031663bcaa0c5560096040518263ffffffff1660e01b815260040161182a9190612080565b60005a9050600080600185600181111561194f57634e487b7160e01b600052602160045260246000fd5b149050600081611966576007870154875410611972565b60088701546001880154105b90506000826119815787611986565b876001015b90505b81801561199b575085518461ffff1614155b80156119b457506233e1405a6119b190876121a0565b11155b15611a415780868561ffff16815181106119de57634e487b7160e01b600052603260045260246000fd5b60209081029190910181015182546001810184556000938452919092200180547fffffffffffffffffffffffff0000000000000000000000000000000000000000166001600160a01b03909216919091179055611a3a846121f2565b9350611989565b5050505050505050565b60006001836001811115611a6f57634e487b7160e01b600052602160045260246000fd5b149050600081611a8f5760028501548554611a8a91906121a0565b611aa3565b60038501546001860154611aa391906121a0565b9050600082611ab55785600201611aba565b856003015b90508351821015611b0d5760405162461bcd60e51b815260206004820152601260248201527f496e76616c6964206d61726b732073697a6500000000000000000000000000006044820152606401610444565b60005b8451811015611bab5781858281518110611b3a57634e487b7160e01b600052603260045260246000fd5b602090810291909101810151825460018101845560009384529282902091830490910180549192909160ff601f9092166101000a918202191690836002811115611b9457634e487b7160e01b600052602160045260246000fd5b021790555080611ba381612214565b915050611b10565b50505050505050565b6000816001600160a01b031663f1f0bd016040518163ffffffff1660e01b815260040160206040518083038186803b15801561184257600080fd5b828054611bfb906121b7565b90600052602060002090601f016020900481019282611c1d5760008555611c63565b82601f10611c3657805160ff1916838001178555611c63565b82800160010185558215611c63579182015b82811115611c63578251825591602001919060010190611c48565b50611c6f929150611c73565b5090565b5b80821115611c6f5760008155600101611c74565b600082601f830112611c98578081fd5b813567ffffffffffffffff811115611cb257611cb261225b565b611cc5601f8201601f1916602001612133565b818152846020838601011115611cd9578283fd5b816020850160208301379081016020019190915292915050565b600060208284031215611d04578081fd5b815161071181612281565b60006020808385031215611d21578182fd5b823567ffffffffffffffff811115611d37578283fd5b8301601f81018513611d47578283fd5b8035611d5a611d5582612164565b612133565b80828252848201915084840188868560051b8701011115611d79578687fd5b8694505b83851015611da4578035611d9081612281565b835260019490940193918501918501611d7d565b50979650505050505050565b600060208284031215611dc1578081fd5b81358015158114610711578182fd5b60008060408385031215611de2578081fd5b823560028110611df0578182fd5b915060208381013567ffffffffffffffff811115611e0c578283fd5b8401601f81018613611e1c578283fd5b8035611e2a611d5582612164565b80828252848201915084840189868560051b8701011115611e49578687fd5b8694505b83851015611e7757803560038110611e63578788fd5b835260019490940193918501918501611e4d565b5080955050505050509250929050565b600060208284031215611e98578081fd5b813567ffffffffffffffff80821115611eaf578283fd5b9083019060408286031215611ec2578283fd5b604051604081018181108382111715611edd57611edd61225b565b604052823582811115611eee578485fd5b611efa87828601611c88565b825250602083013582811115611f0e578485fd5b611f1a87828601611c88565b60208301525095945050505050565b600060208284031215611f3a578081fd5b5035919050565b600060208284031215611f52578081fd5b5051919050565b600080600060608486031215611f6d578081fd5b83359250602084013567ffffffffffffffff811115611f8a578182fd5b611f9686828701611c88565b925050604084013590509250925092565b60008151808452815b81811015611fcc57602081850181015186830182015201611fb0565b81811115611fdd5782602083870101525b50601f01601f19169290920160200192915050565b6020808252825182820181905260009190848201906040850190845b818110156120335783516001600160a01b03168352928401929184019160010161200e565b50909695505050505050565b6020808252825182820181905260009190848201906040850190845b8181101561203357835161206e81612271565b8352928401929184019160010161205b565b60208101600c831061209457612094612245565b91905290565b6020810161209483612271565b6020815260008251604060208401526120c36060840182611fa7565b90506020840151601f198483030160408501526120e08282611fa7565b95945050505050565b602081526001600160a01b03825116602082015260208201516040820152604082015160608201526000606083015160808084015261212b60a0840182611fa7565b949350505050565b604051601f8201601f1916810167ffffffffffffffff8111828210171561215c5761215c61225b565b604052919050565b600067ffffffffffffffff82111561217e5761217e61225b565b5060051b60200190565b6000821982111561219b5761219b61222f565b500190565b6000828210156121b2576121b261222f565b500390565b600181811c908216806121cb57607f821691505b602082108114156121ec57634e487b7160e01b600052602260045260246000fd5b50919050565b600061ffff8083168181141561220a5761220a61222f565b6001019392505050565b60006000198214156122285761222861222f565b5060010190565b634e487b7160e01b600052601160045260246000fd5b634e487b7160e01b600052602160045260246000fd5b634e487b7160e01b600052604160045260246000fd5b60038110610be057610be0612245565b6001600160a01b0381168114610be057600080fdfea26469706673582212200725b137a47a0f024410670d3921524387dff3fa15f092d964973aadf066447364736f6c63430008040033a26469706673582212203cfc2694bdecf3613cc3de6eafa7c51218bbc6460446ef60015532653ee4910c64736f6c63430008040033",
    "linkReferences": {},
    "deployedLinkReferences": {}
}