{
  "_format": "hh-sol-artifact-1",
  "contractName": "Epochs",
  "sourceName": "contracts/consensus/Epochs.sol",
  "abi": [
    {
      "inputs": [
        {
          "internalType": "address",
          "name": "_superpro",
          "type": "address"
        }
      ],
      "stateMutability": "nonpayable",
      "type": "constructor"
    },
    {
      "inputs": [
        {
          "internalType": "address",
          "name": "tcbAddress",
          "type": "address"
        }
      ],
      "name": "add",
      "outputs": [],
      "stateMutability": "nonpayable",
      "type": "function"
    },
    {
      "inputs": [],
      "name": "count",
      "outputs": [
        {
          "internalType": "uint256",
          "name": "",
          "type": "uint256"
        }
      ],
      "stateMutability": "view",
      "type": "function"
    },
    {
      "inputs": [
        {
          "internalType": "uint256",
          "name": "index",
          "type": "uint256"
        }
      ],
      "name": "getEpoch",
      "outputs": [
        {
          "components": [
            {
              "internalType": "uint256",
              "name": "startDate",
              "type": "uint256"
            },
            {
              "internalType": "uint256",
              "name": "endDate",
              "type": "uint256"
            },
            {
              "internalType": "uint256",
              "name": "reward",
              "type": "uint256"
            },
            {
              "internalType": "uint256",
              "name": "benchmark",
              "type": "uint256"
            },
            {
              "internalType": "uint256",
              "name": "reparation",
              "type": "uint256"
            },
            {
              "internalType": "uint256",
              "name": "reparationBenchmark",
              "type": "uint256"
            }
          ],
          "internalType": "struct Epoch",
          "name": "",
          "type": "tuple"
        }
      ],
      "stateMutability": "view",
      "type": "function"
    },
    {
      "inputs": [
        {
          "internalType": "address",
          "name": "tcbAddress",
          "type": "address"
        }
      ],
      "name": "getReparationBonus",
      "outputs": [
        {
          "internalType": "uint256",
          "name": "",
          "type": "uint256"
        }
      ],
      "stateMutability": "view",
      "type": "function"
    },
    {
      "inputs": [
        {
          "internalType": "address",
          "name": "tcbAddress",
          "type": "address"
        }
      ],
      "name": "getReward",
      "outputs": [
        {
          "internalType": "uint256",
          "name": "",
          "type": "uint256"
        }
      ],
      "stateMutability": "view",
      "type": "function"
    },
    {
      "inputs": [
        {
          "internalType": "address",
          "name": "tcbAddress",
          "type": "address"
        },
        {
          "internalType": "uint256",
          "name": "amount",
          "type": "uint256"
        }
      ],
      "name": "makeReparation",
      "outputs": [],
      "stateMutability": "nonpayable",
      "type": "function"
    }
  ],
  "bytecode": "0x608060405234801561001057600080fd5b506040516111c23803806111c283398101604081905261002f91610054565b600080546001600160a01b0319166001600160a01b0392909216919091179055610082565b600060208284031215610065578081fd5b81516001600160a01b038116811461007b578182fd5b9392505050565b611131806100916000396000f3fe608060405234801561001057600080fd5b50600436106100725760003560e01c8063b8ac864211610050578063b8ac8642146100b6578063bc0bc6ba146100c9578063c00007b01461012857600080fd5b806306661abd146100775780630a3b0a4f1461008e5780638ce1662d146100a3575b600080fd5b6001545b6040519081526020015b60405180910390f35b6100a161009c366004610f18565b61013b565b005b6100a16100b1366004610f50565b6104eb565b61007b6100c4366004610f18565b61082e565b6100dc6100d7366004610feb565b610a7d565b6040516100859190600060c082019050825182526020830151602083015260408301516040830152606083015160608301526080830151608083015260a083015160a083015292915050565b61007b610136366004610f18565b610b84565b600054610150906001600160a01b0316610dae565b6001600160a01b0316336001600160a01b0316146101a55760405162461bcd60e51b815260206004820152600d60248201526c1058d8d95cdcc819195b9a5959609a1b60448201526064015b60405180910390fd5b60015415806101f15750600180546101be9082906110a0565b815481106101dc57634e487b7160e01b600052603260045260246000fd5b90600052602060002090600602016001015442115b1561028857600180548101808255600082815291906102119082906110a0565b8154811061022f57634e487b7160e01b600052603260045260246000fd5b60009182526020822042600690920201908155905490915061025b906001600160a01b03166007610e3b565b6002820155600054610277906001600160a01b03166010610e3b565b6102819042611049565b6001909101555b6001546102d75760405162461bcd60e51b815260206004820152601c60248201527f3530302e20556e65787065637465642065706f63687320737461746500000000604482015260640161019c565b600180546000916102e7916110a0565b905060008290506000816001600160a01b031663a9fd1a8f6040518163ffffffff1660e01b815260040160606040518083038186803b15801561032957600080fd5b505afa15801561033d573d6000803e3d6000fd5b505050506040513d601f19601f820116820180604052508101906103619190610f7b565b90508060200151156103b55760405162461bcd60e51b815260206004820152601d60248201527f54434220616c72656164792061737369676e656420746f2065706f6368000000604482015260640161019c565b6040517f0ceb2cef000000000000000000000000000000000000000000000000000000008152600481018490526001600160a01b03831690630ceb2cef90602401600060405180830381600087803b15801561041057600080fd5b505af1158015610424573d6000803e3d6000fd5b5050505060006001848154811061044b57634e487b7160e01b600052603260045260246000fd5b90600052602060002090600602019050826001600160a01b03166379a945696040518163ffffffff1660e01b815260040160206040518083038186803b15801561049457600080fd5b505afa1580156104a8573d6000803e3d6000fd5b505050506040513d601f19601f820116820180604052508101906104cc9190611003565b8160030160008282546104df9190611049565b90915550505050505050565b600054610500906001600160a01b0316610dae565b6001600160a01b0316336001600160a01b0316146105505760405162461bcd60e51b815260206004820152600d60248201526c1058d8d95cdcc819195b9a5959609a1b604482015260640161019c565b60008290506000816001600160a01b031663a9fd1a8f6040518163ffffffff1660e01b815260040160606040518083038186803b15801561059057600080fd5b505afa1580156105a4573d6000803e3d6000fd5b505050506040513d601f19601f820116820180604052508101906105c89190610f7b565b9050806020015161061b5760405162461bcd60e51b815260206004820152601460248201527f5443422065706f6368206973206e6f7420736574000000000000000000000000604482015260640161019c565b8060400151156106935760405162461bcd60e51b815260206004820152602860248201527f5443422065706f636820697320616c726561647920686173207265706172617460448201527f696f6e206d61726b000000000000000000000000000000000000000000000000606482015260840161019c565b6001548151106106e55760405162461bcd60e51b815260206004820181905260248201527f3530302e205443422068617320696e76616c69642065706f636820696e646578604482015260640161019c565b6040517ffe71954b000000000000000000000000000000000000000000000000000000008152600160048201526001600160a01b0383169063fe71954b90602401600060405180830381600087803b15801561074057600080fd5b505af1158015610754573d6000803e3d6000fd5b505050506000600182600001518154811061077f57634e487b7160e01b600052603260045260246000fd5b90600052602060002090600602019050826001600160a01b03166379a945696040518163ffffffff1660e01b815260040160206040518083038186803b1580156107c857600080fd5b505afa1580156107dc573d6000803e3d6000fd5b505050506040513d601f19601f820116820180604052508101906108009190611003565b8160050160008282546108139190611049565b92505081905550838160040160008282546104df9190611049565b6000808290506000816001600160a01b031663a9fd1a8f6040518163ffffffff1660e01b815260040160606040518083038186803b15801561086f57600080fd5b505afa158015610883573d6000803e3d6000fd5b505050506040513d601f19601f820116820180604052508101906108a79190610f7b565b905080602001516108bc575060009392505050565b8060400151156108d0575060009392505050565b6001548151106109225760405162461bcd60e51b815260206004820181905260248201527f3530302e205443422068617320696e76616c69642065706f636820696e646578604482015260640161019c565b6000600182600001518154811061094957634e487b7160e01b600052603260045260246000fd5b9060005260206000209060060201905080600501548160030154116109d65760405162461bcd60e51b815260206004820152602a60248201527f3530302e20556e65787065637465642065706f63682062656e63686d61726b2060448201527f636f6e646974696f6e2e00000000000000000000000000000000000000000000606482015260840161019c565b806005015481600301546109ea91906110a0565b836001600160a01b03166379a945696040518163ffffffff1660e01b815260040160206040518083038186803b158015610a2357600080fd5b505afa158015610a37573d6000803e3d6000fd5b505050506040513d601f19601f82011682018060405250810190610a5b9190611003565b8260040154610a6a9190611081565b610a749190611061565b95945050505050565b610ab66040518060c001604052806000815260200160008152602001600081526020016000815260200160008152602001600081525090565b6001548210610b075760405162461bcd60e51b815260206004820152600d60248201527f556e6b6e6f776e2065706f636800000000000000000000000000000000000000604482015260640161019c565b60018281548110610b2857634e487b7160e01b600052603260045260246000fd5b90600052602060002090600602016040518060c001604052908160008201548152602001600182015481526020016002820154815260200160038201548152602001600482015481526020016005820154815250509050919050565b6000808290506000816001600160a01b031663a9fd1a8f6040518163ffffffff1660e01b815260040160606040518083038186803b158015610bc557600080fd5b505afa158015610bd9573d6000803e3d6000fd5b505050506040513d601f19601f82011682018060405250810190610bfd9190610f7b565b90508060200151610c12575060009392505050565b806040015115610c26575060009392505050565b600154815110610c785760405162461bcd60e51b815260206004820181905260248201527f3530302e205443422068617320696e76616c69642065706f636820696e646578604482015260640161019c565b60006001826000015181548110610c9f57634e487b7160e01b600052603260045260246000fd5b906000526020600020906006020190506000816003015411610d295760405162461bcd60e51b815260206004820152603960248201527f3530302e20556e65787065637465642065706f63682062656e63686d61726b2060448201527f636f6e646974696f6e20666f722072657061726174696f6e2e00000000000000606482015260840161019c565b8060030154836001600160a01b03166379a945696040518163ffffffff1660e01b815260040160206040518083038186803b158015610d6757600080fd5b505afa158015610d7b573d6000803e3d6000fd5b505050506040513d601f19601f82011682018060405250810190610d9f9190611003565b8260020154610a6a9190611081565b6000610db982610ec8565b6001600160a01b031663bcaa0c5560086040518263ffffffff1660e01b8152600401610de5919061101b565b60206040518083038186803b158015610dfd57600080fd5b505afa158015610e11573d6000803e3d6000fd5b505050506040513d601f19601f82011682018060405250810190610e359190610f34565b92915050565b6000610e4683610ec8565b6001600160a01b03166303a2216d836040518263ffffffff1660e01b8152600401610e719190611035565b60206040518083038186803b158015610e8957600080fd5b505afa158015610e9d573d6000803e3d6000fd5b505050506040513d601f19601f82011682018060405250810190610ec19190611003565b9392505050565b6000816001600160a01b031663f1f0bd016040518163ffffffff1660e01b815260040160206040518083038186803b158015610dfd57600080fd5b80518015158114610f1357600080fd5b919050565b600060208284031215610f29578081fd5b8135610ec1816110e3565b600060208284031215610f45578081fd5b8151610ec1816110e3565b60008060408385031215610f62578081fd5b8235610f6d816110e3565b946020939093013593505050565b600060608284031215610f8c578081fd5b6040516060810181811067ffffffffffffffff82111715610fbb57634e487b7160e01b83526041600452602483fd5b60405282518152610fce60208401610f03565b6020820152610fdf60408401610f03565b60408201529392505050565b600060208284031215610ffc578081fd5b5035919050565b600060208284031215611014578081fd5b5051919050565b60208101600c831061102f5761102f6110cd565b91905290565b602081016011831061102f5761102f6110cd565b6000821982111561105c5761105c6110b7565b500190565b60008261107c57634e487b7160e01b81526012600452602481fd5b500490565b600081600019048311821515161561109b5761109b6110b7565b500290565b6000828210156110b2576110b26110b7565b500390565b634e487b7160e01b600052601160045260246000fd5b634e487b7160e01b600052602160045260246000fd5b6001600160a01b03811681146110f857600080fd5b5056fea2646970667358221220ef076e4c404bff623452b377960ff9268bddfab284965b9d6ecdd377cfe1081364736f6c63430008040033",
  "linkReferences": {},
  "deployedLinkReferences": {}
}