{
  "_format": "hh-sol-artifact-1",
  "contractName": "LastBlocks",
  "sourceName": "contracts/consensus/LastBlocks.sol",
  "abi": [
    {
      "inputs": [
        {
          "internalType": "address",
          "name": "_superpro",
          "type": "address"
        }
      ],
      "stateMutability": "nonpayable",
      "type": "constructor"
    },
    {
      "inputs": [
        {
          "internalType": "address",
          "name": "tcb",
          "type": "address"
        }
      ],
      "name": "add",
      "outputs": [],
      "stateMutability": "nonpayable",
      "type": "function"
    },
    {
      "inputs": [
        {
          "internalType": "address[]",
          "name": "items",
          "type": "address[]"
        }
      ],
      "name": "addMany",
      "outputs": [],
      "stateMutability": "nonpayable",
      "type": "function"
    },
    {
      "inputs": [],
      "name": "count",
      "outputs": [
        {
          "internalType": "uint256",
          "name": "",
          "type": "uint256"
        }
      ],
      "stateMutability": "view",
      "type": "function"
    },
    {
      "inputs": [],
      "name": "gc",
      "outputs": [],
      "stateMutability": "nonpayable",
      "type": "function"
    },
    {
      "inputs": [
        {
          "internalType": "address",
          "name": "tcb",
          "type": "address"
        }
      ],
      "name": "getCreatedTime",
      "outputs": [
        {
          "internalType": "uint256",
          "name": "",
          "type": "uint256"
        }
      ],
      "stateMutability": "view",
      "type": "function"
    },
    {
      "inputs": [
        {
          "internalType": "address",
          "name": "tcb",
          "type": "address"
        }
      ],
      "name": "getRandomL1",
      "outputs": [],
      "stateMutability": "nonpayable",
      "type": "function"
    },
    {
      "inputs": [],
      "name": "listAll",
      "outputs": [
        {
          "internalType": "address[]",
          "name": "",
          "type": "address[]"
        }
      ],
      "stateMutability": "view",
      "type": "function"
    },
    {
      "inputs": [
        {
          "internalType": "address",
          "name": "tcb",
          "type": "address"
        }
      ],
      "name": "remove",
      "outputs": [],
      "stateMutability": "nonpayable",
      "type": "function"
    }
  ],
  "bytecode": "0x608060405234801561001057600080fd5b5060405161125838038061125883398101604081905261002f91610054565b600080546001600160a01b0319166001600160a01b0392909216919091179055610082565b600060208284031215610065578081fd5b81516001600160a01b038116811461007b578182fd5b9392505050565b6111c7806100916000396000f3fe608060405234801561001057600080fd5b50600436106100885760003560e01c80636a2ca3d91161005b5780636a2ca3d9146100d457806378a9eeed146100e7578063b37d97b5146100fc578063e7f938271461010f57600080fd5b806306661abd1461008d5780630a3b0a4f146100a45780631b71d85f146100b957806329092d0e146100c1575b600080fd5b6002545b6040519081526020015b60405180910390f35b6100b76100b2366004610dc3565b610138565b005b6100b76102ab565b6100b76100cf366004610dc3565b610388565b6100b76100e2366004610dc3565b6104cd565b6100ef6105bf565b60405161009b9190610fc8565b6100b761010a366004610dfb565b610623565b61009161011d366004610dc3565b6001600160a01b031660009081526004602052604090205490565b60005461014d906001600160a01b03166106de565b6001600160a01b0316336001600160a01b0316146101a25760405162461bcd60e51b815260206004820152600d60248201526c1058d8d95cdcc819195b9a5959609a1b60448201526064015b60405180910390fd5b6000816001600160a01b031663bf7ce7426040518163ffffffff1660e01b815260040160006040518083038186803b1580156101dd57600080fd5b505afa1580156101f1573d6000803e3d6000fd5b505050506040513d6000823e601f3d908101601f191682016040526102199190810190610eaf565b516001600160a01b038082166000908152600360205260409020549192501615610261576001600160a01b038082166000908152600360205260409020546102619116610388565b6001600160a01b03818116600090815260036020908152604080832080546001600160a01b031916948716948517905592825260049052204290556102a760018361076b565b5050565b60005a90506000806102c162015180605a6110b5565b6102d19063ffffffff16426110e1565b90505b600254821080156102f257506233e1405a6102ef90856110e1565b11155b1561038357600060018001838154811061031c57634e487b7160e01b600052603260045260246000fd5b60009182526020808320909101546001600160a01b0316808352600490915260409091205490915082111561037057610356600182610886565b6001600160a01b0381166000908152600460205260408120555b61037b60018461109d565b9250506102d4565b505050565b60005461039d906001600160a01b03166106de565b6001600160a01b0316336001600160a01b0316146103ed5760405162461bcd60e51b815260206004820152600d60248201526c1058d8d95cdcc819195b9a5959609a1b6044820152606401610199565b6001600160a01b038116600090815260046020526040902054156104ca576000816001600160a01b031663bf7ce7426040518163ffffffff1660e01b815260040160006040518083038186803b15801561044657600080fd5b505afa15801561045a573d6000803e3d6000fd5b505050506040513d6000823e601f3d908101601f191682016040526104829190810190610eaf565b519050610490600183610886565b6001600160a01b03808316600090815260046020908152604080832083905593909216815260039091522080546001600160a01b03191690555b50565b600080546104e5906001600160a01b0316600d610aaa565b6002549091508110156001600160a01b03831663639dd37f826105135761050e60018587610b37565b61056c565b600280546040805160208084028201810190925282815292919083018282801561056657602002820191906000526020600020905b81546001600160a01b03168152600190910190602001808311610548575b50505050505b6040518263ffffffff1660e01b81526004016105889190610fc8565b600060405180830381600087803b1580156105a257600080fd5b505af11580156105b6573d6000803e3d6000fd5b50505050505050565b60606001800180548060200260200160405190810160405280929190818152602001828054801561061957602002820191906000526020600020905b81546001600160a01b031681526001909101906020018083116105fb575b5050505050905090565b600054610638906001600160a01b03166106de565b6001600160a01b0316336001600160a01b0316146106885760405162461bcd60e51b815260206004820152600d60248201526c1058d8d95cdcc819195b9a5959609a1b6044820152606401610199565b60005b81518161ffff1610156102a7576106cc828261ffff16815181106106bf57634e487b7160e01b600052603260045260246000fd5b6020026020010151610138565b806106d6816110f8565b91505061068b565b60006106e982610d88565b6001600160a01b031663bcaa0c5560086040518263ffffffff1660e01b81526004016107159190611015565b60206040518083038186803b15801561072d57600080fd5b505afa158015610741573d6000803e3d6000fd5b505050506040513d601f19601f820116820180604052508101906107659190610ddf565b92915050565b6001600160a01b0381166107c15760405162461bcd60e51b815260206004820152601d60248201527f417474656d707420746f206164642061207a65726f20616464726573730000006044820152606401610199565b6001820154600090158061083757506001600160a01b0382166000908152602084905260409020541580156108375750816001600160a01b03168360010160008154811061081f57634e487b7160e01b600052603260045260246000fd5b6000918252602090912001546001600160a01b031614155b90508061084357505050565b50600180830180546001600160a01b03909316600081815260209586526040812085905592840182559082529290200180546001600160a01b0319169091179055565b6001600160a01b0381166108dc5760405162461bcd60e51b815260206004820181905260248201527f417474656d707420746f2072656d6f76652061207a65726f20616464726573736044820152606401610199565b60018201546108e9575050565b6001600160a01b0381166000818152602084905260409020546001840180549192918390811061092957634e487b7160e01b600052603260045260246000fd5b6000918252602090912001546001600160a01b0316146109b05760405162461bcd60e51b8152602060048201526024808201527f3530302e20556e6578706563746564204164647265737348617368536574207360448201527f74617465000000000000000000000000000000000000000000000000000000006064820152608401610199565b600180840180546000926109c3916110e1565b815481106109e157634e487b7160e01b600052603260045260246000fd5b6000918252602090912001546001850180546001600160a01b039092169250829184908110610a2057634e487b7160e01b600052603260045260246000fd5b600091825260208083209190910180546001600160a01b0319166001600160a01b039485161790558383168252869052604080822085905591851681529081205560018401805480610a8257634e487b7160e01b600052603160045260246000fd5b600082815260209020810160001990810180546001600160a01b031916905501905550505050565b6000610ab583610d88565b6001600160a01b03166303a2216d836040518263ffffffff1660e01b8152600401610ae0919061102f565b60206040518083038186803b158015610af857600080fd5b505afa158015610b0c573d6000803e3d6000fd5b505050506040513d601f19601f82011682018060405250810190610b309190610fb0565b9392505050565b606060005a905060008060008760010180549050600143610b5891906110e1565b60408051914060208301526bffffffffffffffffffffffff1960608a901b16908201526054016040516020818303038152906040528051906020012060001c610ba1919061111a565b905060008767ffffffffffffffff811115610bcc57634e487b7160e01b600052604160045260246000fd5b604051908082528060200260200182016040528015610bf5578160200160208202803683370190505b5090508192505b878461ffff1614158015610c1d57506233e1405a610c1a90876110e1565b11155b15610d7c57886001018381548110610c4557634e487b7160e01b600052603260045260246000fd5b9060005260206000200160009054906101000a90046001600160a01b0316818561ffff1681518110610c8757634e487b7160e01b600052603260045260246000fd5b60200260200101906001600160a01b031690816001600160a01b0316815250506002896001018481548110610ccc57634e487b7160e01b600052603260045260246000fd5b60009182526020918290200154604051610d11926001600160a01b039092169186910160609290921b6bffffffffffffffffffffffff19168252601482015260340190565b6040516020818303038152906040528051906020012060001c610d34919061111a565b610d3e908461109d565b60018a810154919450610d50916110e1565b831015610d6757610d6283600161109d565b610d6a565b60005b9250610d75846110f8565b9350610bfc565b98975050505050505050565b6000816001600160a01b031663f1f0bd016040518163ffffffff1660e01b815260040160206040518083038186803b15801561072d57600080fd5b600060208284031215610dd4578081fd5b8135610b308161117c565b600060208284031215610df0578081fd5b8151610b308161117c565b60006020808385031215610e0d578182fd5b823567ffffffffffffffff80821115610e24578384fd5b818501915085601f830112610e37578384fd5b813581811115610e4957610e49611166565b8060051b9150610e5a84830161106c565b8181528481019084860184860187018a1015610e74578788fd5b8795505b83861015610ea25780359450610e8d8561117c565b84835260019590950194918601918601610e78565b5098975050505050505050565b60006020808385031215610ec1578182fd5b825167ffffffffffffffff80821115610ed8578384fd5b9084019060808287031215610eeb578384fd5b610ef3611043565b8251610efe8161117c565b8152828401518482015260408084015190820152606083015182811115610f23578586fd5b80840193505086601f840112610f37578485fd5b825182811115610f4957610f49611166565b610f5b601f8201601f1916860161106c565b92508083528785828601011115610f70578586fd5b855b81811015610f8d578481018601518482018701528501610f72565b81811115610f9d57868683860101525b5050606081019190915295945050505050565b600060208284031215610fc1578081fd5b5051919050565b6020808252825182820181905260009190848201906040850190845b818110156110095783516001600160a01b031683529284019291840191600101610fe4565b50909695505050505050565b60208101600c831061102957611029611150565b91905290565b602081016011831061102957611029611150565b6040516080810167ffffffffffffffff8111828210171561106657611066611166565b60405290565b604051601f8201601f1916810167ffffffffffffffff8111828210171561109557611095611166565b604052919050565b600082198211156110b0576110b061113a565b500190565b600063ffffffff808316818516818304811182151516156110d8576110d861113a565b02949350505050565b6000828210156110f3576110f361113a565b500390565b600061ffff808316818114156111105761111061113a565b6001019392505050565b60008261113557634e487b7160e01b81526012600452602481fd5b500690565b634e487b7160e01b600052601160045260246000fd5b634e487b7160e01b600052602160045260246000fd5b634e487b7160e01b600052604160045260246000fd5b6001600160a01b03811681146104ca57600080fdfea2646970667358221220d46d9bec8e75bd8ea5147c38748ee5a095a6fe4f399d51bbf10b0c5e5b3dba8564736f6c63430008040033",
  "linkReferences": {},
  "deployedLinkReferences": {}
}