{
  "_format": "hh-sol-artifact-1",
  "contractName": "Marks",
  "sourceName": "contracts/Marks.sol",
  "abi": [
    {
      "inputs": [
        {
          "internalType": "uint256",
          "name": "orderId",
          "type": "uint256"
        }
      ],
      "name": "getOrderMark",
      "outputs": [
        {
          "internalType": "enum Mark",
          "name": "",
          "type": "uint8"
        }
      ],
      "stateMutability": "view",
      "type": "function"
    },
    {
      "inputs": [
        {
          "internalType": "address",
          "name": "provider",
          "type": "address"
        }
      ],
      "name": "getProviderMarks",
      "outputs": [
        {
          "components": [
            {
              "internalType": "uint256",
              "name": "positive",
              "type": "uint256"
            },
            {
              "internalType": "uint256",
              "name": "negative",
              "type": "uint256"
            }
          ],
          "internalType": "struct ProviderMarksCount",
          "name": "",
          "type": "tuple"
        }
      ],
      "stateMutability": "view",
      "type": "function"
    },
    {
      "inputs": [
        {
          "internalType": "uint256",
          "name": "orderId",
          "type": "uint256"
        },
        {
          "internalType": "enum Mark",
          "name": "mark",
          "type": "uint8"
        }
      ],
      "name": "setOrderMark",
      "outputs": [],
      "stateMutability": "nonpayable",
      "type": "function"
    }
  ],
  "bytecode": "0x608060405234801561001057600080fd5b50610b46806100206000396000f3fe608060405234801561001057600080fd5b50600436106100415760003560e01c80630fae1b3914610046578063b38a51ae146100d9578063ffead55f14610128575b600080fd5b6100b961005436600461063f565b604080518082018252600080825260209182018190526001600160a01b039390931683527f49c0235e9530578295b6f4bd9da5b9990c518cc2993869526bc1f22f9dc7018e815291819020815180830190925280548252600101549181019190915290565b604080518251815260209283015192810192909252015b60405180910390f35b61011b6100e7366004610663565b60009081527f49c0235e9530578295b6f4bd9da5b9990c518cc2993869526bc1f22f9dc7018d602052604090205460ff1690565b6040516100d09190610692565b61013b6101363660046106ba565b61013d565b005b6040517fd09ef241000000000000000000000000000000000000000000000000000000008152600481018390526000908190309063d09ef2419060240160006040518083038186803b15801561019257600080fd5b505afa1580156101a6573d6000803e3d6000fd5b505050506040513d6000823e601f3d908101601f191682016040526101ce9190810190610981565b50909250905060018360028111156101e8576101e861067c565b1480610205575060028360028111156102035761020361067c565b145b6102565760405162461bcd60e51b815260206004820152600c60248201527f496e76616c6964206d61726b000000000000000000000000000000000000000060448201526064015b60405180910390fd5b60048160800151600781111561026e5761026e61067c565b146102bb5760405162461bcd60e51b815260206004820152601e60248201527f4f72646572206d75737420626520776974682073746174757320446f6e650000604482015260640161024d565b336001600160a01b038316146103135760405162461bcd60e51b815260206004820152601960248201527f4e6f7420616c6c6f77656420746f2072617465206f7264657200000000000000604482015260640161024d565b80516040517f4e6e04f700000000000000000000000000000000000000000000000000000000815260048101919091526000903090634e6e04f79060240160206040518083038186803b15801561036957600080fd5b505afa15801561037d573d6000803e3d6000fd5b505050506040513d601f19601f820116820180604052508101906103a19190610aae565b60008681527f49c0235e9530578295b6f4bd9da5b9990c518cc2993869526bc1f22f9dc7018d602081905260408220549293509160ff1660028111156103e9576103e961067c565b14156104b25760018560028111156104035761040361067c565b141561045f576001600160a01b0382166000908152600182810160205260408220805491929091610435908490610ae1565b9091555050600086815260208290526040902080546001919060ff191682805b021790555061061f565b6001600160a01b0382166000908152600182810160205260408220810180549192909161048d908490610ae1565b9091555050600086815260208290526040902080546002919060ff1916600183610455565b600160008781526020839052604090205460ff1660028111156104d7576104d761067c565b1480156104f5575060028560028111156104f3576104f361067c565b145b15610559576001600160a01b0382166000908152600182810160205260408220805491929091610526908490610af9565b90915550506001600160a01b0382166000908152600182810160205260408220810180549192909161048d908490610ae1565b600260008781526020839052604090205460ff16600281111561057e5761057e61067c565b14801561059c5750600185600281111561059a5761059a61067c565b145b1561061f576001600160a01b03821660009081526001828101602052604082208054919290916105cd908490610ae1565b90915550506001600160a01b03821660009081526001828101602052604082208101805491929091610600908490610af9565b90915550506000868152602082905260409020805460ff191660011790555b505050505050565b6001600160a01b038116811461063c57600080fd5b50565b60006020828403121561065157600080fd5b813561065c81610627565b9392505050565b60006020828403121561067557600080fd5b5035919050565b634e487b7160e01b600052602160045260246000fd5b60208101600383106106b457634e487b7160e01b600052602160045260246000fd5b91905290565b600080604083850312156106cd57600080fd5b823591506020830135600381106106e357600080fd5b809150509250929050565b634e487b7160e01b600052604160045260246000fd5b60405160c0810167ffffffffffffffff81118282101715610727576107276106ee565b60405290565b604051601f8201601f1916810167ffffffffffffffff81118282101715610756576107566106ee565b604052919050565b600082601f83011261076f57600080fd5b815167ffffffffffffffff811115610789576107896106ee565b602061079d601f8301601f1916820161072d565b82815285828487010111156107b157600080fd5b60005b838110156107cf5785810183015182820184015282016107b4565b838111156107e05760008385840101525b5095945050505050565b8051600881106107f957600080fd5b919050565b600082601f83011261080f57600080fd5b8151602067ffffffffffffffff82111561082b5761082b6106ee565b8160051b61083a82820161072d565b928352848101820192828101908785111561085457600080fd5b83870192505b848310156108735782518252918301919083019061085a565b979650505050505050565b60006060828403121561089057600080fd5b6040516060810167ffffffffffffffff82821081831117156108b4576108b46106ee565b816040528293508451835260208501519150808211156108d357600080fd5b6108df868387016107fe565b602084015260408501519150808211156108f857600080fd5b50610905858286016107fe565b6040830152505092915050565b60006040828403121561092457600080fd5b6040516040810167ffffffffffffffff8282108183111715610948576109486106ee565b81604052829350845191508082111561096057600080fd5b5061096d8582860161075e565b825250602083015160208201525092915050565b60008060006060848603121561099657600080fd5b83516109a181610627565b602085015190935067ffffffffffffffff808211156109bf57600080fd5b9085019060c082880312156109d357600080fd5b6109db610704565b825181526020830151828111156109f157600080fd5b6109fd8982860161075e565b602083015250604083015182811115610a1557600080fd5b610a218982860161075e565b604083015250606083015182811115610a3957600080fd5b610a458982860161075e565b606083015250610a57608084016107ea565b608082015260a083015182811115610a6e57600080fd5b610a7a8982860161087e565b60a0830152506040870151909450915080821115610a9757600080fd5b50610aa486828701610912565b9150509250925092565b600060208284031215610ac057600080fd5b815161065c81610627565b634e487b7160e01b600052601160045260246000fd5b60008219821115610af457610af4610acb565b500190565b600082821015610b0b57610b0b610acb565b50039056fea2646970667358221220cc0680b1435bf9c012b57b2589dc0da2b10a459753aa141a570f2d959a7d168b64736f6c63430008090033",
  "linkReferences": {},
  "deployedLinkReferences": {}
}