{
  "_format": "hh-sol-artifact-1",
  "contractName": "OffersRangeView",
  "sourceName": "contracts/OffersRangeView.sol",
  "abi": [
    {
      "inputs": [
        {
          "internalType": "uint256",
          "name": "begin",
          "type": "uint256"
        },
        {
          "internalType": "uint256",
          "name": "end",
          "type": "uint256"
        }
      ],
      "name": "getTeeOffersRange",
      "outputs": [
        {
          "components": [
            {
              "internalType": "uint256",
              "name": "id",
              "type": "uint256"
            },
            {
              "internalType": "address",
              "name": "providerAuth",
              "type": "address"
            },
            {
              "components": [
                {
                  "internalType": "string",
                  "name": "name",
                  "type": "string"
                },
                {
                  "internalType": "string",
                  "name": "description",
                  "type": "string"
                },
                {
                  "internalType": "string",
                  "name": "teeType",
                  "type": "string"
                },
                {
                  "internalType": "uint32",
                  "name": "slots",
                  "type": "uint32"
                },
                {
                  "internalType": "uint64",
                  "name": "minTimeMinutes",
                  "type": "uint64"
                },
                {
                  "internalType": "string",
                  "name": "properties",
                  "type": "string"
                },
                {
                  "internalType": "address",
                  "name": "tcb",
                  "type": "address"
                },
                {
                  "internalType": "string",
                  "name": "tlb",
                  "type": "string"
                },
                {
                  "internalType": "string",
                  "name": "argsPublicKey",
                  "type": "string"
                }
              ],
              "internalType": "struct TeeOfferInfo",
              "name": "info",
              "type": "tuple"
            },
            {
              "internalType": "uint256",
              "name": "disabledAfter",
              "type": "uint256"
            }
          ],
          "internalType": "struct TeeOfferData[]",
          "name": "",
          "type": "tuple[]"
        }
      ],
      "stateMutability": "view",
      "type": "function"
    },
    {
      "inputs": [
        {
          "internalType": "enum OfferType",
          "name": "offerType",
          "type": "uint8"
        },
        {
          "internalType": "uint256",
          "name": "begin",
          "type": "uint256"
        },
        {
          "internalType": "uint256",
          "name": "end",
          "type": "uint256"
        }
      ],
      "name": "getValueOffersRange",
      "outputs": [
        {
          "components": [
            {
              "internalType": "uint256",
              "name": "id",
              "type": "uint256"
            },
            {
              "internalType": "address",
              "name": "providerAuth",
              "type": "address"
            },
            {
              "components": [
                {
                  "internalType": "string",
                  "name": "name",
                  "type": "string"
                },
                {
                  "internalType": "enum OfferGroup",
                  "name": "group",
                  "type": "uint8"
                },
                {
                  "internalType": "enum OfferType",
                  "name": "offerType",
                  "type": "uint8"
                },
                {
                  "internalType": "bool",
                  "name": "cancelable",
                  "type": "bool"
                },
                {
                  "internalType": "string",
                  "name": "description",
                  "type": "string"
                },
                {
                  "internalType": "uint256",
                  "name": "holdSum",
                  "type": "uint256"
                },
                {
                  "components": [
                    {
                      "internalType": "uint256[]",
                      "name": "offers",
                      "type": "uint256[]"
                    },
                    {
                      "internalType": "enum OfferType[]",
                      "name": "types",
                      "type": "uint8[]"
                    }
                  ],
                  "internalType": "struct OfferRestrictions",
                  "name": "restrictions",
                  "type": "tuple"
                },
                {
                  "internalType": "string",
                  "name": "properties",
                  "type": "string"
                },
                {
                  "internalType": "uint256",
                  "name": "maxDurationTimeMinutes",
                  "type": "uint256"
                },
                {
                  "internalType": "string",
                  "name": "input",
                  "type": "string"
                },
                {
                  "internalType": "string",
                  "name": "output",
                  "type": "string"
                },
                {
                  "internalType": "string",
                  "name": "allowedArgs",
                  "type": "string"
                },
                {
                  "internalType": "address[]",
                  "name": "allowedAccounts",
                  "type": "address[]"
                },
                {
                  "internalType": "string",
                  "name": "argsPublicKey",
                  "type": "string"
                },
                {
                  "internalType": "string",
                  "name": "resultUrl",
                  "type": "string"
                },
                {
                  "internalType": "string",
                  "name": "linkage",
                  "type": "string"
                },
                {
                  "internalType": "string",
                  "name": "hash",
                  "type": "string"
                }
              ],
              "internalType": "struct ValueOfferInfo",
              "name": "info",
              "type": "tuple"
            },
            {
              "internalType": "uint256",
              "name": "disabledAfter",
              "type": "uint256"
            }
          ],
          "internalType": "struct ValueOfferData[]",
          "name": "",
          "type": "tuple[]"
        }
      ],
      "stateMutability": "view",
      "type": "function"
    }
  ],
  "bytecode": "0x608060405234801561001057600080fd5b5061197c806100206000396000f3fe608060405234801561001057600080fd5b50600436106100365760003560e01c80638cd7d1b71461003b578063aeda60e314610064575b600080fd5b61004e610049366004611325565b610084565b60405161005b9190611394565b60405180910390f35b61007761007236600461151a565b610735565b60405161005b9190611652565b60008080527fa15d1660ecf4f4c2ac27ec148e6bb28bae19d84f4ea12b71b4576a040a68ee8960209081527fd4834ee800e1d29b8245eee2e9d8310bc81c7dff583462751ffe5c0255eea3cd805460408051828502810185019091528181526060947fa15d1660ecf4f4c2ac27ec148e6bb28bae19d84f4ea12b71b4576a040a68ee8494909391929083018282801561013c57602002820191906000526020600020905b815481526020019060010190808311610128575b50505050509050600081518510610154578151610156565b845b90508086106101ac5760405162461bcd60e51b815260206004820152601d60248201527f496e76616c69642072616e67652072657175657374656420287465652900000060448201526064015b60405180910390fd5b60006101b887836118ad565b67ffffffffffffffff8111156101d0576101d06118c4565b60405190808252806020026020018201604052801561020957816020015b6101f66111d2565b8152602001906001900390816101ee5790505b509050865b8281101561072a57600084828151811061022a5761022a6118da565b60200260200101519050600061026a8260009081527fa15d1660ecf4f4c2ac27ec148e6bb28bae19d84f4ea12b71b4576a040a68ee856020526040902090565b60008381527fa15d1660ecf4f4c2ac27ec148e6bb28bae19d84f4ea12b71b4576a040a68ee87602052604081209192506102a48c866118ad565b9050838682815181106102b9576102b96118da565b602090810291909101015152600583015486516001600160a01b03909116908790839081106102ea576102ea6118da565b6020026020010151602001906001600160a01b031690816001600160a01b031681525050816001016040518061012001604052908160008201805461032e906118f0565b80601f016020809104026020016040519081016040528092919081815260200182805461035a906118f0565b80156103a75780601f1061037c576101008083540402835291602001916103a7565b820191906000526020600020905b81548152906001019060200180831161038a57829003601f168201915b505050505081526020016001820180546103c0906118f0565b80601f01602080910402602001604051908101604052809291908181526020018280546103ec906118f0565b80156104395780601f1061040e57610100808354040283529160200191610439565b820191906000526020600020905b81548152906001019060200180831161041c57829003601f168201915b50505050508152602001600282018054610452906118f0565b80601f016020809104026020016040519081016040528092919081815260200182805461047e906118f0565b80156104cb5780601f106104a0576101008083540402835291602001916104cb565b820191906000526020600020905b8154815290600101906020018083116104ae57829003601f168201915b5050509183525050600382015463ffffffff81166020830152640100000000900467ffffffffffffffff166040820152600482018054606090920191610510906118f0565b80601f016020809104026020016040519081016040528092919081815260200182805461053c906118f0565b80156105895780601f1061055e57610100808354040283529160200191610589565b820191906000526020600020905b81548152906001019060200180831161056c57829003601f168201915b505050918352505060058201546001600160a01b031660208201526006820180546040909201916105b9906118f0565b80601f01602080910402602001604051908101604052809291908181526020018280546105e5906118f0565b80156106325780601f1061060757610100808354040283529160200191610632565b820191906000526020600020905b81548152906001019060200180831161061557829003601f168201915b5050505050815260200160078201805461064b906118f0565b80601f0160208091040260200160405190810160405280929190818152602001828054610677906118f0565b80156106c45780601f10610699576101008083540402835291602001916106c4565b820191906000526020600020905b8154815290600101906020018083116106a757829003601f168201915b5050505050815250508682815181106106df576106df6118da565b6020026020010151604001819052508260060154868281518110610705576107056118da565b6020026020010151606001818152505050505050806107239061192b565b905061020e565b509695505050505050565b60607fa15d1660ecf4f4c2ac27ec148e6bb28bae19d84f4ea12b71b4576a040a68ee8460007fa15d1660ecf4f4c2ac27ec148e6bb28bae19d84f4ea12b71b4576a040a68ee898187600381111561078e5761078e611553565b600381111561079f5761079f611553565b81526020019081526020016000208054806020026020016040519081016040528092919081815260200182805480156107f757602002820191906000526020600020905b8154815260200190600101908083116107e3575b5050505050905060008151851061080f578151610811565b845b90508086106108625760405162461bcd60e51b815260206004820152601f60248201527f496e76616c69642072616e676520726571756573746564202876616c7565290060448201526064016101a3565b600061086e87836118ad565b67ffffffffffffffff811115610886576108866118c4565b6040519080825280602002602001820160405280156108bf57816020015b6108ac611269565b8152602001906001900390816108a45790505b509050865b828110156111c65760008482815181106108e0576108e06118da565b6020026020010151905060006109208260009081527fa15d1660ecf4f4c2ac27ec148e6bb28bae19d84f4ea12b71b4576a040a68ee856020526040902090565b60008381527fa15d1660ecf4f4c2ac27ec148e6bb28bae19d84f4ea12b71b4576a040a68ee866020526040812091925061095a8c866118ad565b90508386828151811061096f5761096f6118da565b602090810291909101015152600583015486516001600160a01b03909116908790839081106109a0576109a06118da565b6020908102919091018101516001600160a01b0390921691015260408051610220810190915282548390829082906109d7906118f0565b80601f0160208091040260200160405190810160405280929190818152602001828054610a03906118f0565b8015610a505780601f10610a2557610100808354040283529160200191610a50565b820191906000526020600020905b815481529060010190602001808311610a3357829003601f168201915b5050509183525050600182015460209091019060ff166002811115610a7757610a77611553565b6002811115610a8857610a88611553565b81526020016001820160019054906101000a900460ff166003811115610ab057610ab0611553565b6003811115610ac157610ac1611553565b8152600182015462010000900460ff1615156020820152600282018054604090920191610aed906118f0565b80601f0160208091040260200160405190810160405280929190818152602001828054610b19906118f0565b8015610b665780601f10610b3b57610100808354040283529160200191610b66565b820191906000526020600020905b815481529060010190602001808311610b4957829003601f168201915b50505050508152602001600382015481526020016004820160405180604001604052908160008201805480602002602001604051908101604052809291908181526020018280548015610bd857602002820191906000526020600020905b815481526020019060010190808311610bc4575b5050505050815260200160018201805480602002602001604051908101604052809291908181526020018280548015610c6057602002820191906000526020600020906000905b82829054906101000a900460ff166003811115610c3e57610c3e611553565b815260206001928301818104948501949093039092029101808411610c1f5790505b5050505050815250508152602001600682018054610c7d906118f0565b80601f0160208091040260200160405190810160405280929190818152602001828054610ca9906118f0565b8015610cf65780601f10610ccb57610100808354040283529160200191610cf6565b820191906000526020600020905b815481529060010190602001808311610cd957829003601f168201915b5050505050815260200160078201548152602001600882018054610d19906118f0565b80601f0160208091040260200160405190810160405280929190818152602001828054610d45906118f0565b8015610d925780601f10610d6757610100808354040283529160200191610d92565b820191906000526020600020905b815481529060010190602001808311610d7557829003601f168201915b50505050508152602001600982018054610dab906118f0565b80601f0160208091040260200160405190810160405280929190818152602001828054610dd7906118f0565b8015610e245780601f10610df957610100808354040283529160200191610e24565b820191906000526020600020905b815481529060010190602001808311610e0757829003601f168201915b50505050508152602001600a82018054610e3d906118f0565b80601f0160208091040260200160405190810160405280929190818152602001828054610e69906118f0565b8015610eb65780601f10610e8b57610100808354040283529160200191610eb6565b820191906000526020600020905b815481529060010190602001808311610e9957829003601f168201915b50505050508152602001600b8201805480602002602001604051908101604052809291908181526020018280548015610f1857602002820191906000526020600020905b81546001600160a01b03168152600190910190602001808311610efa575b50505050508152602001600c82018054610f31906118f0565b80601f0160208091040260200160405190810160405280929190818152602001828054610f5d906118f0565b8015610faa5780601f10610f7f57610100808354040283529160200191610faa565b820191906000526020600020905b815481529060010190602001808311610f8d57829003601f168201915b50505050508152602001600d82018054610fc3906118f0565b80601f0160208091040260200160405190810160405280929190818152602001828054610fef906118f0565b801561103c5780601f106110115761010080835404028352916020019161103c565b820191906000526020600020905b81548152906001019060200180831161101f57829003601f168201915b50505050508152602001600e82018054611055906118f0565b80601f0160208091040260200160405190810160405280929190818152602001828054611081906118f0565b80156110ce5780601f106110a3576101008083540402835291602001916110ce565b820191906000526020600020905b8154815290600101906020018083116110b157829003601f168201915b50505050508152602001600f820180546110e7906118f0565b80601f0160208091040260200160405190810160405280929190818152602001828054611113906118f0565b80156111605780601f1061113557610100808354040283529160200191611160565b820191906000526020600020905b81548152906001019060200180831161114357829003601f168201915b50505050508152505086828151811061117b5761117b6118da565b60200260200101516040018190525082600601548682815181106111a1576111a16118da565b6020026020010151606001818152505050505050806111bf9061192b565b90506108c4565b50979650505050505050565b60405180608001604052806000815260200160006001600160a01b0316815260200161125c604051806101200160405280606081526020016060815260200160608152602001600063ffffffff168152602001600067ffffffffffffffff1681526020016060815260200160006001600160a01b0316815260200160608152602001606081525090565b8152602001600081525090565b604080516080810182526000808252602082015290810161125c6040805161022081019091526060815260208101600081526020016000815260200160001515815260200160608152602001600081526020016112d9604051806040016040528060608152602001606081525090565b8152602001606081526020016000815260200160608152602001606081526020016060815260200160608152602001606081526020016060815260200160608152602001606081525090565b6000806040838503121561133857600080fd5b50508035926020909101359150565b6000815180845260005b8181101561136d57602081850181015186830182015201611351565b8181111561137f576000602083870101525b50601f01601f19169290920160200192915050565b60006020808301818452808551808352604092508286019150828160051b87010184880160005b8381101561150c57603f1989840301855281516080815185526001600160a01b03898301511689860152878201518189870152805161012080848901526114066101a0890183611347565b91508b830151607f1960a0818b860301818c01526114248584611347565b94508d860151925060c0828c870301818d01526114418685611347565b9550606093508387015160e061145e818f018363ffffffff169052565b9888015198610100915061147d8e83018b67ffffffffffffffff169052565b838901519950848e890301878f0152611496888b611347565b99508289015197506114b46101408f01896001600160a01b03169052565b8801518d8a0385016101608f015296506114ce8988611347565b9701518c88039093016101808d01525094955093506114ed8585611347565b95810151980197909752505050948701949250908601906001016113bb565b509098975050505050505050565b60008060006060848603121561152f57600080fd5b83356004811061153e57600080fd5b95602085013595506040909401359392505050565b634e487b7160e01b600052602160045260246000fd5b6003811061157957611579611553565b9052565b6004811061157957611579611553565b805160408084528151908401819052600091602091908201906060860190845b818110156115c9578351835292840192918401916001016115ad565b50508483015186820387850152805180835290840192506000918401905b8083101561072a576115fa82855161157d565b9284019260019290920191908401906115e7565b600081518084526020808501945080840160005b838110156116475781516001600160a01b031687529582019590820190600101611622565b509495945050505050565b60006020808301818452808551808352604092508286019150828160051b87010184880160005b8381101561150c57603f1989840301855281516080815185526001600160a01b03898301511689860152878201518189870152805161022080848901526116c46102a0890183611347565b91508b83015160a06116d8818b0183611569565b8c850151915060c06116ec818c018461157d565b606092508286015160e0611703818e018315159052565b888801519850607f199150610100828e890301818f0152611724888b611347565b9950848901519750610120945087858f01528389015197506101409350828e8b0301848f01526117548a8961158d565b99508189015197506101609150828e8b0301828f01526117748a89611347565b99508089015197505061018087818f01528489015197506101a09450828e8b0301858f01526117a38a89611347565b99508389015197506101c09350828e8b0301848f01526117c38a89611347565b99508189015197506101e09150828e8b0301828f01526117e38a89611347565b995080890151975050610200828e8b0301818f01526118028a8961160e565b9950848901519750828e8b0301878f015261181d8a89611347565b9950838901519750828e8b03016102408f015261183a8a89611347565b9950818901519750828e8b03016102608f01526118578a89611347565b9801518d89039092016102808e015250959650611878915086905085611347565b9581015198019790975250505094870194925090860190600101611679565b634e487b7160e01b600052601160045260246000fd5b6000828210156118bf576118bf611897565b500390565b634e487b7160e01b600052604160045260246000fd5b634e487b7160e01b600052603260045260246000fd5b600181811c9082168061190457607f821691505b6020821081141561192557634e487b7160e01b600052602260045260246000fd5b50919050565b600060001982141561193f5761193f611897565b506001019056fea2646970667358221220e1bd4f7f9ac0c75cf3d543ea90d93a20c07881b7aaf5222c7d0cbaf2b002cc1864736f6c63430008090033",
  "linkReferences": {},
  "deployedLinkReferences": {}
}