{
  "_format": "hh-sol-artifact-1",
  "contractName": "Offer",
  "sourceName": "contracts/Offer.sol",
  "abi": [
    {
      "inputs": [
        {
          "internalType": "address",
          "name": "_superpro",
          "type": "address"
        },
        {
          "internalType": "address",
          "name": "_provider",
          "type": "address"
        },
        {
          "internalType": "address",
          "name": "_creator",
          "type": "address"
        },
        {
          "components": [
            {
              "internalType": "string",
              "name": "name",
              "type": "string"
            },
            {
              "internalType": "enum OfferGroup",
              "name": "group",
              "type": "uint8"
            },
            {
              "internalType": "enum OfferType",
              "name": "offerType",
              "type": "uint8"
            },
            {
              "internalType": "bool",
              "name": "cancelable",
              "type": "bool"
            },
            {
              "internalType": "string",
              "name": "description",
              "type": "string"
            },
            {
              "internalType": "uint256",
              "name": "holdSum",
              "type": "uint256"
            },
            {
              "components": [
                {
                  "internalType": "address[]",
                  "name": "offers",
                  "type": "address[]"
                },
                {
                  "internalType": "enum OfferType[]",
                  "name": "types",
                  "type": "uint8[]"
                }
              ],
              "internalType": "struct OfferRestrictions",
              "name": "restrictions",
              "type": "tuple"
            },
            {
              "internalType": "string",
              "name": "properties",
              "type": "string"
            },
            {
              "internalType": "uint256",
              "name": "maxDurationTimeMinutes",
              "type": "uint256"
            },
            {
              "internalType": "string",
              "name": "inputFormat",
              "type": "string"
            },
            {
              "internalType": "string",
              "name": "outputFormat",
              "type": "string"
            },
            {
              "internalType": "string",
              "name": "allowedArgs",
              "type": "string"
            },
            {
              "internalType": "address[]",
              "name": "allowedAccounts",
              "type": "address[]"
            },
            {
              "internalType": "string",
              "name": "argsPublicKey",
              "type": "string"
            },
            {
              "internalType": "string",
              "name": "argsPublicKeyAlgo",
              "type": "string"
            },
            {
              "internalType": "string",
              "name": "resultUrl",
              "type": "string"
            },
            {
              "internalType": "uint256",
              "name": "disabledAfter",
              "type": "uint256"
            },
            {
              "internalType": "string",
              "name": "linkage",
              "type": "string"
            },
            {
              "internalType": "string",
              "name": "hash",
              "type": "string"
            },
            {
              "internalType": "string",
              "name": "hashAlgo",
              "type": "string"
            }
          ],
          "internalType": "struct OfferInfo",
          "name": "_info",
          "type": "tuple"
        }
      ],
      "stateMutability": "nonpayable",
      "type": "constructor"
    },
    {
      "inputs": [],
      "name": "disable",
      "outputs": [],
      "stateMutability": "nonpayable",
      "type": "function"
    },
    {
      "inputs": [],
      "name": "enable",
      "outputs": [],
      "stateMutability": "nonpayable",
      "type": "function"
    },
    {
      "inputs": [
        {
          "internalType": "uint256",
          "name": "startDate",
          "type": "uint256"
        },
        {
          "internalType": "uint256",
          "name": "orderPrice",
          "type": "uint256"
        }
      ],
      "name": "getClosingPrice",
      "outputs": [
        {
          "internalType": "uint256",
          "name": "",
          "type": "uint256"
        }
      ],
      "stateMutability": "view",
      "type": "function"
    },
    {
      "inputs": [],
      "name": "getDisabledAfter",
      "outputs": [
        {
          "internalType": "uint256",
          "name": "",
          "type": "uint256"
        }
      ],
      "stateMutability": "view",
      "type": "function"
    },
    {
      "inputs": [],
      "name": "getHoldDeposit",
      "outputs": [
        {
          "internalType": "uint256",
          "name": "",
          "type": "uint256"
        }
      ],
      "stateMutability": "view",
      "type": "function"
    },
    {
      "inputs": [],
      "name": "getInfo",
      "outputs": [
        {
          "components": [
            {
              "internalType": "string",
              "name": "name",
              "type": "string"
            },
            {
              "internalType": "enum OfferGroup",
              "name": "group",
              "type": "uint8"
            },
            {
              "internalType": "enum OfferType",
              "name": "offerType",
              "type": "uint8"
            },
            {
              "internalType": "bool",
              "name": "cancelable",
              "type": "bool"
            },
            {
              "internalType": "string",
              "name": "description",
              "type": "string"
            },
            {
              "internalType": "uint256",
              "name": "holdSum",
              "type": "uint256"
            },
            {
              "components": [
                {
                  "internalType": "address[]",
                  "name": "offers",
                  "type": "address[]"
                },
                {
                  "internalType": "enum OfferType[]",
                  "name": "types",
                  "type": "uint8[]"
                }
              ],
              "internalType": "struct OfferRestrictions",
              "name": "restrictions",
              "type": "tuple"
            },
            {
              "internalType": "string",
              "name": "properties",
              "type": "string"
            },
            {
              "internalType": "uint256",
              "name": "maxDurationTimeMinutes",
              "type": "uint256"
            },
            {
              "internalType": "string",
              "name": "inputFormat",
              "type": "string"
            },
            {
              "internalType": "string",
              "name": "outputFormat",
              "type": "string"
            },
            {
              "internalType": "string",
              "name": "allowedArgs",
              "type": "string"
            },
            {
              "internalType": "address[]",
              "name": "allowedAccounts",
              "type": "address[]"
            },
            {
              "internalType": "string",
              "name": "argsPublicKey",
              "type": "string"
            },
            {
              "internalType": "string",
              "name": "argsPublicKeyAlgo",
              "type": "string"
            },
            {
              "internalType": "string",
              "name": "resultUrl",
              "type": "string"
            },
            {
              "internalType": "uint256",
              "name": "disabledAfter",
              "type": "uint256"
            },
            {
              "internalType": "string",
              "name": "linkage",
              "type": "string"
            },
            {
              "internalType": "string",
              "name": "hash",
              "type": "string"
            },
            {
              "internalType": "string",
              "name": "hashAlgo",
              "type": "string"
            }
          ],
          "internalType": "struct OfferInfo",
          "name": "",
          "type": "tuple"
        }
      ],
      "stateMutability": "view",
      "type": "function"
    },
    {
      "inputs": [],
      "name": "getOfferGroup",
      "outputs": [
        {
          "internalType": "enum OfferGroup",
          "name": "",
          "type": "uint8"
        }
      ],
      "stateMutability": "view",
      "type": "function"
    },
    {
      "inputs": [],
      "name": "getOfferType",
      "outputs": [
        {
          "internalType": "enum OfferType",
          "name": "",
          "type": "uint8"
        }
      ],
      "stateMutability": "view",
      "type": "function"
    },
    {
      "inputs": [],
      "name": "getOrigins",
      "outputs": [
        {
          "components": [
            {
              "internalType": "uint256",
              "name": "createdDate",
              "type": "uint256"
            },
            {
              "internalType": "address",
              "name": "createdBy",
              "type": "address"
            },
            {
              "internalType": "uint256",
              "name": "modifiedDate",
              "type": "uint256"
            },
            {
              "internalType": "address",
              "name": "modifiedBy",
              "type": "address"
            }
          ],
          "internalType": "struct Origins",
          "name": "",
          "type": "tuple"
        }
      ],
      "stateMutability": "view",
      "type": "function"
    },
    {
      "inputs": [],
      "name": "getProvider",
      "outputs": [
        {
          "internalType": "address",
          "name": "",
          "type": "address"
        }
      ],
      "stateMutability": "view",
      "type": "function"
    },
    {
      "inputs": [],
      "name": "getProviderAuthority",
      "outputs": [
        {
          "internalType": "address",
          "name": "",
          "type": "address"
        }
      ],
      "stateMutability": "view",
      "type": "function"
    },
    {
      "inputs": [
        {
          "internalType": "address",
          "name": "consumer",
          "type": "address"
        }
      ],
      "name": "isAllowedFor",
      "outputs": [
        {
          "internalType": "bool",
          "name": "",
          "type": "bool"
        }
      ],
      "stateMutability": "view",
      "type": "function"
    },
    {
      "inputs": [],
      "name": "isCancelable",
      "outputs": [
        {
          "internalType": "bool",
          "name": "",
          "type": "bool"
        }
      ],
      "stateMutability": "view",
      "type": "function"
    },
    {
      "inputs": [],
      "name": "isEnabled",
      "outputs": [
        {
          "internalType": "bool",
          "name": "",
          "type": "bool"
        }
      ],
      "stateMutability": "view",
      "type": "function"
    },
    {
      "inputs": [
        {
          "internalType": "enum OfferType",
          "name": "offerType",
          "type": "uint8"
        }
      ],
      "name": "isRestrictedByOfferType",
      "outputs": [
        {
          "internalType": "bool",
          "name": "",
          "type": "bool"
        }
      ],
      "stateMutability": "view",
      "type": "function"
    },
    {
      "inputs": [
        {
          "internalType": "address",
          "name": "offerAddress",
          "type": "address"
        }
      ],
      "name": "isRestrictionsPermitThatOffer",
      "outputs": [
        {
          "internalType": "bool",
          "name": "",
          "type": "bool"
        }
      ],
      "stateMutability": "view",
      "type": "function"
    },
    {
      "inputs": [
        {
          "internalType": "string",
          "name": "description",
          "type": "string"
        }
      ],
      "name": "setDescription",
      "outputs": [],
      "stateMutability": "nonpayable",
      "type": "function"
    },
    {
      "inputs": [
        {
          "internalType": "string",
          "name": "name",
          "type": "string"
        }
      ],
      "name": "setName",
      "outputs": [],
      "stateMutability": "nonpayable",
      "type": "function"
    }
  ],
  "bytecode": "0x60806040523480156200001157600080fd5b5060405162002de638038062002de6833981016040819052620000349162000b05565b600080546001600160a01b038087166001600160a01b03199283161790925560038054928616929091169190911790558051805182916004916200008091839160209091019062000706565b50602082015160018083018054909160ff1990911690836002811115620000b757634e487b7160e01b600052602160045260246000fd5b0217905550604082015160018201805461ff001916610100836003811115620000f057634e487b7160e01b600052602160045260246000fd5b02179055506060820151600182018054911515620100000262ff000019909216919091179055608082015180516200013391600284019160209091019062000706565b5060a0820151600382015560c08201518051805160048401916200015d9183916020019062000795565b506020828101518051620001789260018501920190620007ed565b50505060e082015180516200019891600684019160209091019062000706565b5061010082015160078201556101208201518051620001c291600884019160209091019062000706565b506101408201518051620001e191600984019160209091019062000706565b5061016082015180516200020091600a84019160209091019062000706565b5061018082015180516200021f91600b84019160209091019062000795565b506101a082015180516200023e91600c84019160209091019062000706565b506101c082015180516200025d91600d84019160209091019062000706565b506101e082015180516200027c91600e84019160209091019062000706565b50610200820151600f8201556102208201518051620002a691601084019160209091019062000706565b506102408201518051620002c591601184019160209091019062000706565b506102608201518051620002e491601284019160209091019062000706565b5090505062000303826017620005a660201b620014781790919060201c565b6008541580620003385750600060055460ff1660028111156200033657634e487b7160e01b600052602160045260246000fd5b145b6200038a5760405162461bcd60e51b815260206004820152601c60248201527f4e6f7420616c6c6f77656420666f72206f75747075742067726f75700000000060448201526064015b60405180910390fd5b60005b600854811015620004cc57600880546000919083908110620003bf57634e487b7160e01b600052603260045260246000fd5b6000918252602080832090910154604080516357a9b97360e11b815290516001600160a01b0390921694508493620004b6938593601b93859263af5372e692600480840193829003018186803b1580156200041957600080fd5b505afa1580156200042e573d6000803e3d6000fd5b505050506040513d601f19601f8201168201806040525081019062000454919062000e0d565b60038111156200047457634e487b7160e01b600052602160045260246000fd5b60038111156200049457634e487b7160e01b600052602160045260246000fd5b8152602001908152602001600020620005e560201b620014b71790919060201c565b505080620004c49062000f18565b90506200038d565b5060005b6009548110156200059b576009805460009190839081106200050257634e487b7160e01b600052603260045260246000fd5b60009182526020808320908204015460ff601f9092166101000a9004169150600190601c908360038111156200054857634e487b7160e01b600052602160045260246000fd5b60038111156200056857634e487b7160e01b600052602160045260246000fd5b81526020810191909152604001600020805460ff191691151591909117905550620005938162000f18565b9050620004d0565b505050505062000f56565b428083556001830180546001600160a01b039093166001600160a01b031993841681179091556002840191909155600390920180549091169091179055565b6001600160a01b0381166200063d5760405162461bcd60e51b815260206004820152601d60248201527f417474656d707420746f206164642061207a65726f2061646472657373000000604482015260640162000381565b60018201546000901580620006b657506001600160a01b038216600090815260208490526040902054158015620006b65750816001600160a01b0316836001016000815481106200069e57634e487b7160e01b600052603260045260246000fd5b6000918252602090912001546001600160a01b031614155b905080620006c357505050565b50600180830180546001600160a01b03909316600081815260209586526040812085905592840182559082529290200180546001600160a01b0319169091179055565b828054620007149062000edb565b90600052602060002090601f01602090048101928262000738576000855562000783565b82601f106200075357805160ff191683800117855562000783565b8280016001018555821562000783579182015b828111156200078357825182559160200191906001019062000766565b5062000791929150620008ad565b5090565b82805482825590600052602060002090810192821562000783579160200282015b828111156200078357825182546001600160a01b0319166001600160a01b03909116178255602090920191600190910190620007b6565b82805482825590600052602060002090601f01602090048101928215620007835791602002820160005b838211156200087457835183826101000a81548160ff021916908360038111156200085257634e487b7160e01b600052602160045260246000fd5b0217905550926020019260010160208160000104928301926001030262000817565b8015620008a35782816101000a81549060ff021916905560010160208160000104928301926001030262000874565b5050620007919291505b5b80821115620007915760008155600101620008ae565b80516001600160a01b0381168114620008dc57600080fd5b919050565b600082601f830112620008f2578081fd5b815160206200090b620009058362000eb5565b62000e82565b80838252828201915082860187848660051b89010111156200092b578586fd5b855b8581101562000954576200094182620008c4565b845292840192908401906001016200092d565b5090979650505050505050565b80518015158114620008dc57600080fd5b805160038110620008dc57600080fd5b805160048110620008dc57600080fd5b600082601f830112620009a3578081fd5b81516001600160401b03811115620009bf57620009bf62000f40565b6020620009d5601f8301601f1916820162000e82565b8281528582848701011115620009e9578384fd5b835b8381101562000a08578581018301518282018401528201620009eb565b8381111562000a1957848385840101525b5095945050505050565b60006040828403121562000a35578081fd5b62000a3f62000e31565b82519091506001600160401b038082111562000a5a57600080fd5b62000a6885838601620008e1565b835260209150818401518181111562000a8057600080fd5b84019050601f8101851362000a9457600080fd5b805162000aa5620009058262000eb5565b80828252848201915084840188868560051b870101111562000ac657600080fd5b600094505b8385101562000af45762000adf8162000982565b83526001949094019391850191850162000acb565b508085870152505050505092915050565b6000806000806080858703121562000b1b578384fd5b62000b2685620008c4565b935062000b3660208601620008c4565b925062000b4660408601620008c4565b60608601519092506001600160401b038082111562000b63578283fd5b90860190610280828903121562000b78578283fd5b62000b8262000e5c565b82518281111562000b91578485fd5b62000b9f8a82860162000992565b82525062000bb06020840162000972565b602082015262000bc36040840162000982565b604082015262000bd66060840162000961565b606082015260808301518281111562000bed578485fd5b62000bfb8a82860162000992565b60808301525060a083015160a082015260c08301518281111562000c1d578485fd5b62000c2b8a82860162000a23565b60c08301525060e08301518281111562000c43578485fd5b62000c518a82860162000992565b60e0830152506101008381015190820152610120808401518381111562000c76578586fd5b62000c848b82870162000992565b828401525050610140808401518381111562000c9e578586fd5b62000cac8b82870162000992565b828401525050610160808401518381111562000cc6578586fd5b62000cd48b82870162000992565b828401525050610180808401518381111562000cee578586fd5b62000cfc8b828701620008e1565b8284015250506101a0808401518381111562000d16578586fd5b62000d248b82870162000992565b8284015250506101c0808401518381111562000d3e578586fd5b62000d4c8b82870162000992565b8284015250506101e0808401518381111562000d66578586fd5b62000d748b82870162000992565b828401525050610200808401518183015250610220808401518381111562000d9a578586fd5b62000da88b82870162000992565b828401525050610240808401518381111562000dc2578586fd5b62000dd08b82870162000992565b828401525050610260808401518381111562000dea578586fd5b62000df88b82870162000992565b82840152505080935050505092959194509250565b60006020828403121562000e1f578081fd5b62000e2a8262000982565b9392505050565b604080519081016001600160401b038111828210171562000e565762000e5662000f40565b60405290565b60405161028081016001600160401b038111828210171562000e565762000e5662000f40565b604051601f8201601f191681016001600160401b038111828210171562000ead5762000ead62000f40565b604052919050565b60006001600160401b0382111562000ed15762000ed162000f40565b5060051b60200190565b600181811c9082168062000ef057607f821691505b6020821081141562000f1257634e487b7160e01b600052602260045260246000fd5b50919050565b600060001982141562000f3957634e487b7160e01b81526011600452602481fd5b5060010190565b634e487b7160e01b600052604160045260246000fd5b611e808062000f666000396000f3fe608060405234801561001057600080fd5b50600436106101365760003560e01c80639b7d6f12116100b2578063b737e98e11610081578063c47f002711610066578063c47f0027146102df578063f12018c3146102f2578063f55ba0d31461030557600080fd5b8063b737e98e14610233578063bbb5d5f7146102d757600080fd5b80639b7d6f1214610203578063a3907d711461020b578063aad4513314610213578063af5372e61461021b57600080fd5b8063483d45bd116101095780636aa633b6116100ee5780636aa633b6146101c75780638383da75146101cf57806390c3f38f146101f057600080fd5b8063483d45bd1461018d5780635a9b0b89146101b257600080fd5b80631bffb4911461013b5780631f6bb8481461015d5780632acdf0fa146101705780632f2770db14610183575b600080fd5b60055462010000900460ff165b60405190151581526020015b60405180910390f35b61014861016b3660046118da565b610318565b60055460ff166040516101549190611b0e565b61018b6103db565b005b6003546001600160a01b03165b6040516001600160a01b039091168152602001610154565b6101ba6105a4565b6040516101549190611b44565b610148610edf565b6101e26101dd3660046119d4565b610ef8565b604051908152602001610154565b61018b6101fe366004611912565b610f31565b61019a611020565b61018b6110b6565b6013546101e2565b600554610100900460ff166040516101549190611b1c565b610295604080516080810182526000808252602082018190529181018290526060810191909152506040805160808101825260175481526018546001600160a01b03908116602083015260195492820192909252601a54909116606082015290565b6040516101549190815181526020808301516001600160a01b039081169183019190915260408084015190830152606092830151169181019190915260800190565b6007546101e2565b61018b6102ed366004611912565b61121b565b6101486103003660046118a2565b611306565b6101486103133660046118a2565b611391565b6000601c600083600381111561033e57634e487b7160e01b600052602160045260246000fd5b600381111561035d57634e487b7160e01b600052602160045260246000fd5b815260208101919091526040016000205460ff16806103d557506103d3601b600084600381111561039e57634e487b7160e01b600052602160045260246000fd5b60038111156103bd57634e487b7160e01b600052602160045260246000fd5b8152602001908152602001600020600101541590565b155b92915050565b60035460408051636760c4b760e01b8152905133926001600160a01b031691636760c4b7916004808301926020929190829003018186803b15801561041f57600080fd5b505afa158015610433573d6000803e3d6000fd5b505050506040513d601f19601f8201168201806040525081019061045791906118be565b6001600160a01b0316146104a25760405162461bcd60e51b815260206004820152600d60248201526c1058d8d95cdcc819195b9a5959609a1b60448201526064015b60405180910390fd5b601354156104f25760405162461bcd60e51b815260206004820152601960248201527f4f6666657220697320616c72656164792064697361626c6564000000000000006044820152606401610499565b42601955601a80546001600160a01b031916331790556000546201518090610524906001600160a01b031660046115d2565b61052e9190611d6e565b6105389042611d56565b6013819055600354604051639789e32360e01b81526000600482015260248101929092526001600160a01b031690639789e323906044015b600060405180830381600087803b15801561058a57600080fd5b505af115801561059e573d6000803e3d6000fd5b50505050565b6105ac611752565b6004604051806102800160405290816000820180546105ca90611d8d565b80601f01602080910402602001604051908101604052809291908181526020018280546105f690611d8d565b80156106435780601f1061061857610100808354040283529160200191610643565b820191906000526020600020905b81548152906001019060200180831161062657829003601f168201915b5050509183525050600182015460209091019060ff16600281111561067857634e487b7160e01b600052602160045260246000fd5b600281111561069757634e487b7160e01b600052602160045260246000fd5b81526020016001820160019054906101000a900460ff1660038111156106cd57634e487b7160e01b600052602160045260246000fd5b60038111156106ec57634e487b7160e01b600052602160045260246000fd5b8152600182015462010000900460ff161515602082015260028201805460409092019161071890611d8d565b80601f016020809104026020016040519081016040528092919081815260200182805461074490611d8d565b80156107915780601f1061076657610100808354040283529160200191610791565b820191906000526020600020905b81548152906001019060200180831161077457829003601f168201915b5050505050815260200160038201548152602001600482016040518060400160405290816000820180548060200260200160405190810160405280929190818152602001828054801561080d57602002820191906000526020600020905b81546001600160a01b031681526001909101906020018083116107ef575b50505050508152602001600182018054806020026020016040519081016040528092919081815260200182805480156108a357602002820191906000526020600020906000905b82829054906101000a900460ff16600381111561088157634e487b7160e01b600052602160045260246000fd5b8152602060019283018181049485019490930390920291018084116108545790505b50505050508152505081526020016006820180546108c090611d8d565b80601f01602080910402602001604051908101604052809291908181526020018280546108ec90611d8d565b80156109395780601f1061090e57610100808354040283529160200191610939565b820191906000526020600020905b81548152906001019060200180831161091c57829003601f168201915b505050505081526020016007820154815260200160088201805461095c90611d8d565b80601f016020809104026020016040519081016040528092919081815260200182805461098890611d8d565b80156109d55780601f106109aa576101008083540402835291602001916109d5565b820191906000526020600020905b8154815290600101906020018083116109b857829003601f168201915b505050505081526020016009820180546109ee90611d8d565b80601f0160208091040260200160405190810160405280929190818152602001828054610a1a90611d8d565b8015610a675780601f10610a3c57610100808354040283529160200191610a67565b820191906000526020600020905b815481529060010190602001808311610a4a57829003601f168201915b50505050508152602001600a82018054610a8090611d8d565b80601f0160208091040260200160405190810160405280929190818152602001828054610aac90611d8d565b8015610af95780601f10610ace57610100808354040283529160200191610af9565b820191906000526020600020905b815481529060010190602001808311610adc57829003601f168201915b50505050508152602001600b8201805480602002602001604051908101604052809291908181526020018280548015610b5b57602002820191906000526020600020905b81546001600160a01b03168152600190910190602001808311610b3d575b50505050508152602001600c82018054610b7490611d8d565b80601f0160208091040260200160405190810160405280929190818152602001828054610ba090611d8d565b8015610bed5780601f10610bc257610100808354040283529160200191610bed565b820191906000526020600020905b815481529060010190602001808311610bd057829003601f168201915b50505050508152602001600d82018054610c0690611d8d565b80601f0160208091040260200160405190810160405280929190818152602001828054610c3290611d8d565b8015610c7f5780601f10610c5457610100808354040283529160200191610c7f565b820191906000526020600020905b815481529060010190602001808311610c6257829003601f168201915b50505050508152602001600e82018054610c9890611d8d565b80601f0160208091040260200160405190810160405280929190818152602001828054610cc490611d8d565b8015610d115780601f10610ce657610100808354040283529160200191610d11565b820191906000526020600020905b815481529060010190602001808311610cf457829003601f168201915b50505050508152602001600f8201548152602001601082018054610d3490611d8d565b80601f0160208091040260200160405190810160405280929190818152602001828054610d6090611d8d565b8015610dad5780601f10610d8257610100808354040283529160200191610dad565b820191906000526020600020905b815481529060010190602001808311610d9057829003601f168201915b50505050508152602001601182018054610dc690611d8d565b80601f0160208091040260200160405190810160405280929190818152602001828054610df290611d8d565b8015610e3f5780601f10610e1457610100808354040283529160200191610e3f565b820191906000526020600020905b815481529060010190602001808311610e2257829003601f168201915b50505050508152602001601282018054610e5890611d8d565b80601f0160208091040260200160405190810160405280929190818152602001828054610e8490611d8d565b8015610ed15780601f10610ea657610100808354040283529160200191610ed1565b820191906000526020600020905b815481529060010190602001808311610eb457829003601f168201915b505050505081525050905090565b6013546000901580610ef357506013544211155b905090565b60008042600460070154603c610f0e9190611d6e565b610f189086611d56565b10905080610f265782610f29565b60005b949350505050565b60035460408051636760c4b760e01b8152905133926001600160a01b031691636760c4b7916004808301926020929190829003018186803b158015610f7557600080fd5b505afa158015610f89573d6000803e3d6000fd5b505050506040513d601f19601f82011682018060405250810190610fad91906118be565b6001600160a01b031614610ff35760405162461bcd60e51b815260206004820152600d60248201526c1058d8d95cdcc819195b9a5959609a1b6044820152606401610499565b42601955601a80546001600160a01b03191633179055805161101c906006906020840190611809565b5050565b600354604080517f0857101100000000000000000000000000000000000000000000000000000000815290516000926001600160a01b0316916308571011916004808301926020929190829003018186803b15801561107e57600080fd5b505afa158015611092573d6000803e3d6000fd5b505050506040513d601f19601f82011682018060405250810190610ef391906118be565b60035460408051636760c4b760e01b8152905133926001600160a01b031691636760c4b7916004808301926020929190829003018186803b1580156110fa57600080fd5b505afa15801561110e573d6000803e3d6000fd5b505050506040513d601f19601f8201168201806040525081019061113291906118be565b6001600160a01b0316146111785760405162461bcd60e51b815260206004820152600d60248201526c1058d8d95cdcc819195b9a5959609a1b6044820152606401610499565b6013546111c75760405162461bcd60e51b815260206004820152601860248201527f4f6666657220697320616c726561647920656e61626c656400000000000000006044820152606401610499565b42601955601a80546001600160a01b0319163317905560006013819055600354604051639789e32360e01b81526001600482015260248101929092526001600160a01b031690639789e32390604401610570565b60035460408051636760c4b760e01b8152905133926001600160a01b031691636760c4b7916004808301926020929190829003018186803b15801561125f57600080fd5b505afa158015611273573d6000803e3d6000fd5b505050506040513d601f19601f8201168201806040525081019061129791906118be565b6001600160a01b0316146112dd5760405162461bcd60e51b815260206004820152600d60248201526c1058d8d95cdcc819195b9a5959609a1b6044820152606401610499565b42601955601a80546001600160a01b03191633179055805161101c906004906020840190611809565b600f5460009061131857506001919050565b60005b600f548110156113885760006004600b01828154811061134b57634e487b7160e01b600052603260045260246000fd5b6000918252602090912001546001600160a01b0390811691508416811415611377575060019392505050565b5061138181611dc8565b905061131b565b50600092915050565b6000808290506000601b6000836001600160a01b031663af5372e66040518163ffffffff1660e01b815260040160206040518083038186803b1580156113d657600080fd5b505afa1580156113ea573d6000803e3d6000fd5b505050506040513d601f19601f8201168201806040525081019061140e91906118f6565b600381111561142d57634e487b7160e01b600052602160045260246000fd5b600381111561144c57634e487b7160e01b600052602160045260246000fd5b8152602001908152602001600020905061146881600101541590565b80610f295750610f29818561165f565b428083556001830180546001600160a01b039093166001600160a01b031993841681179091556002840191909155600390920180549091169091179055565b6001600160a01b03811661150d5760405162461bcd60e51b815260206004820152601d60248201527f417474656d707420746f206164642061207a65726f20616464726573730000006044820152606401610499565b6001820154600090158061158357506001600160a01b0382166000908152602084905260409020541580156115835750816001600160a01b03168360010160008154811061156b57634e487b7160e01b600052603260045260246000fd5b6000918252602090912001546001600160a01b031614155b90508061158f57505050565b50600180830180546001600160a01b03909316600081815260209586526040812085905592840182559082529290200180546001600160a01b0319169091179055565b60006115dd836116df565b6001600160a01b03166303a2216d836040518263ffffffff1660e01b81526004016116089190611b2a565b60206040518083038186803b15801561162057600080fd5b505afa158015611634573d6000803e3d6000fd5b505050506040513d601f19601f8201168201806040525081019061165891906119bc565b9392505050565b6001820154600090611673575060006103d5565b6001600160a01b0382166000908152602084905260409020541515806116585750816001600160a01b0316836001016000815481106116c257634e487b7160e01b600052603260045260246000fd5b6000918252602090912001546001600160a01b0316149392505050565b6000816001600160a01b031663f1f0bd016040518163ffffffff1660e01b815260040160206040518083038186803b15801561171a57600080fd5b505afa15801561172e573d6000803e3d6000fd5b505050506040513d601f19601f820116820180604052508101906103d591906118be565b6040805161028081019091526060815260208101600081526020016000815260200160001515815260200160608152602001600081526020016117a8604051806040016040528060608152602001606081525090565b8152602001606081526020016000815260200160608152602001606081526020016060815260200160608152602001606081526020016060815260200160608152602001600081526020016060815260200160608152602001606081525090565b82805461181590611d8d565b90600052602060002090601f016020900481019282611837576000855561187d565b82601f1061185057805160ff191683800117855561187d565b8280016001018555821561187d579182015b8281111561187d578251825591602001919060010190611862565b5061188992915061188d565b5090565b5b80821115611889576000815560010161188e565b6000602082840312156118b3578081fd5b813561165881611e25565b6000602082840312156118cf578081fd5b815161165881611e25565b6000602082840312156118eb578081fd5b813561165881611e3d565b600060208284031215611907578081fd5b815161165881611e3d565b600060208284031215611923578081fd5b813567ffffffffffffffff8082111561193a578283fd5b818401915084601f83011261194d578283fd5b81358181111561195f5761195f611e0f565b604051601f8201601f19908116603f0116810190838211818310171561198757611987611e0f565b8160405282815287602084870101111561199f578586fd5b826020860160208301379182016020019490945295945050505050565b6000602082840312156119cd578081fd5b5051919050565b600080604083850312156119e6578081fd5b50508035926020909101359150565b6000815180845260208085019450808401835b83811015611a2d5781516001600160a01b031687529582019590820190600101611a08565b509495945050505050565b60038110611a4857611a48611df9565b9052565b60048110611a4857611a48611df9565b60008151808452815b81811015611a8157602081850181015186830182015201611a65565b81811115611a925782602083870101525b50601f01601f19169290920160200192915050565b6000815160408452611abc60408501826119f5565b602084810151868303878301528051808452908201935090918491908301905b80831015611b0357611aef828651611a4c565b938301936001929092019190830190611adc565b509695505050505050565b602081016103d58284611a38565b602081016103d58284611a4c565b6020810160118310611b3e57611b3e611df9565b91905290565b6020815260008251610280806020850152611b636102a0850183611a5c565b91506020850151611b776040860182611a38565b506040850151611b8a6060860182611a4c565b5060608501518015156080860152506080850151601f19808685030160a0870152611bb58483611a5c565b935060a087015160c087015260c08701519150808685030160e0870152611bdc8483611aa7565b935060e08701519150610100818786030181880152611bfb8584611a5c565b945080880151925050610120828188015280880151925050610140818786030181880152611c298584611a5c565b945080880151925050610160818786030181880152611c488584611a5c565b945080880151925050610180818786030181880152611c678584611a5c565b9450808801519250506101a0818786030181880152611c8685846119f5565b9450808801519250506101c0818786030181880152611ca58584611a5c565b9450808801519250506101e0818786030181880152611cc48584611a5c565b945080880151925050610200818786030181880152611ce38584611a5c565b945080880151925050610220828188015280880151925050610240818786030181880152611d118584611a5c565b945080880151925050610260818786030181880152611d308584611a5c565b908801518782039092018488015293509050611d4c8382611a5c565b9695505050505050565b60008219821115611d6957611d69611de3565b500190565b6000816000190483118215151615611d8857611d88611de3565b500290565b600181811c90821680611da157607f821691505b60208210811415611dc257634e487b7160e01b600052602260045260246000fd5b50919050565b6000600019821415611ddc57611ddc611de3565b5060010190565b634e487b7160e01b600052601160045260246000fd5b634e487b7160e01b600052602160045260246000fd5b634e487b7160e01b600052604160045260246000fd5b6001600160a01b0381168114611e3a57600080fd5b50565b60048110611e3a57600080fdfea2646970667358221220456c4c7cf6cb17a57332944db83436180fea014282e7bbea732d9a764183ccdf64736f6c63430008040033",
  "linkReferences": {},
  "deployedLinkReferences": {}
}