{
    "_format": "hh-sol-artifact-1",
    "contractName": "Offer",
    "sourceName": "contracts/Offer.sol",
    "abi": [
        {
            "inputs": [
                {
                    "internalType": "address",
                    "name": "_superpro",
                    "type": "address"
                },
                {
                    "internalType": "address",
                    "name": "_provider",
                    "type": "address"
                },
                {
                    "components": [
                        {
                            "internalType": "string",
                            "name": "name",
                            "type": "string"
                        },
                        {
                            "internalType": "enum OfferType",
                            "name": "offerType",
                            "type": "uint8"
                        },
                        {
                            "internalType": "bool",
                            "name": "cancelable",
                            "type": "bool"
                        },
                        {
                            "internalType": "string",
                            "name": "description",
                            "type": "string"
                        },
                        {
                            "internalType": "uint256",
                            "name": "holdSum",
                            "type": "uint256"
                        },
                        {
                            "internalType": "uint256",
                            "name": "price",
                            "type": "uint256"
                        },
                        {
                            "internalType": "string",
                            "name": "priceUnit",
                            "type": "string"
                        },
                        {
                            "internalType": "string",
                            "name": "properties",
                            "type": "string"
                        },
                        {
                            "internalType": "uint256",
                            "name": "maxDurationTimeMinutes",
                            "type": "uint256"
                        },
                        {
                            "internalType": "string",
                            "name": "inputFormat",
                            "type": "string"
                        },
                        {
                            "internalType": "string",
                            "name": "outputFormat",
                            "type": "string"
                        },
                        {
                            "internalType": "string",
                            "name": "allowedArgs",
                            "type": "string"
                        },
                        {
                            "internalType": "address[]",
                            "name": "allowedAccounts",
                            "type": "address[]"
                        },
                        {
                            "internalType": "string",
                            "name": "argsPublicKey",
                            "type": "string"
                        },
                        {
                            "internalType": "string",
                            "name": "argsPublicKeyAlgo",
                            "type": "string"
                        },
                        {
                            "internalType": "string",
                            "name": "resultUrl",
                            "type": "string"
                        },
                        {
                            "internalType": "uint256",
                            "name": "disabledAfter",
                            "type": "uint256"
                        }
                    ],
                    "internalType": "struct OfferInfo",
                    "name": "_info",
                    "type": "tuple"
                }
            ],
            "stateMutability": "nonpayable",
            "type": "constructor"
        },
        {
            "inputs": [],
            "name": "disable",
            "outputs": [],
            "stateMutability": "nonpayable",
            "type": "function"
        },
        {
            "inputs": [],
            "name": "enable",
            "outputs": [],
            "stateMutability": "nonpayable",
            "type": "function"
        },
        {
            "inputs": [],
            "name": "getDisalbedAfter",
            "outputs": [
                {
                    "internalType": "uint256",
                    "name": "",
                    "type": "uint256"
                }
            ],
            "stateMutability": "view",
            "type": "function"
        },
        {
            "inputs": [],
            "name": "getInfo",
            "outputs": [
                {
                    "components": [
                        {
                            "internalType": "string",
                            "name": "name",
                            "type": "string"
                        },
                        {
                            "internalType": "enum OfferType",
                            "name": "offerType",
                            "type": "uint8"
                        },
                        {
                            "internalType": "bool",
                            "name": "cancelable",
                            "type": "bool"
                        },
                        {
                            "internalType": "string",
                            "name": "description",
                            "type": "string"
                        },
                        {
                            "internalType": "uint256",
                            "name": "holdSum",
                            "type": "uint256"
                        },
                        {
                            "internalType": "uint256",
                            "name": "price",
                            "type": "uint256"
                        },
                        {
                            "internalType": "string",
                            "name": "priceUnit",
                            "type": "string"
                        },
                        {
                            "internalType": "string",
                            "name": "properties",
                            "type": "string"
                        },
                        {
                            "internalType": "uint256",
                            "name": "maxDurationTimeMinutes",
                            "type": "uint256"
                        },
                        {
                            "internalType": "string",
                            "name": "inputFormat",
                            "type": "string"
                        },
                        {
                            "internalType": "string",
                            "name": "outputFormat",
                            "type": "string"
                        },
                        {
                            "internalType": "string",
                            "name": "allowedArgs",
                            "type": "string"
                        },
                        {
                            "internalType": "address[]",
                            "name": "allowedAccounts",
                            "type": "address[]"
                        },
                        {
                            "internalType": "string",
                            "name": "argsPublicKey",
                            "type": "string"
                        },
                        {
                            "internalType": "string",
                            "name": "argsPublicKeyAlgo",
                            "type": "string"
                        },
                        {
                            "internalType": "string",
                            "name": "resultUrl",
                            "type": "string"
                        },
                        {
                            "internalType": "uint256",
                            "name": "disabledAfter",
                            "type": "uint256"
                        }
                    ],
                    "internalType": "struct OfferInfo",
                    "name": "",
                    "type": "tuple"
                }
            ],
            "stateMutability": "view",
            "type": "function"
        },
        {
            "inputs": [],
            "name": "getOfferType",
            "outputs": [
                {
                    "internalType": "enum OfferType",
                    "name": "",
                    "type": "uint8"
                }
            ],
            "stateMutability": "view",
            "type": "function"
        },
        {
            "inputs": [],
            "name": "getProvider",
            "outputs": [
                {
                    "internalType": "address",
                    "name": "",
                    "type": "address"
                }
            ],
            "stateMutability": "view",
            "type": "function"
        },
        {
            "inputs": [],
            "name": "getProviderAuthority",
            "outputs": [
                {
                    "internalType": "address",
                    "name": "",
                    "type": "address"
                }
            ],
            "stateMutability": "view",
            "type": "function"
        },
        {
            "inputs": [
                {
                    "internalType": "address",
                    "name": "consumer",
                    "type": "address"
                }
            ],
            "name": "isAllowedFor",
            "outputs": [
                {
                    "internalType": "bool",
                    "name": "",
                    "type": "bool"
                }
            ],
            "stateMutability": "view",
            "type": "function"
        },
        {
            "inputs": [],
            "name": "isCancelable",
            "outputs": [
                {
                    "internalType": "bool",
                    "name": "",
                    "type": "bool"
                }
            ],
            "stateMutability": "view",
            "type": "function"
        },
        {
            "inputs": [],
            "name": "isEnabled",
            "outputs": [
                {
                    "internalType": "bool",
                    "name": "",
                    "type": "bool"
                }
            ],
            "stateMutability": "view",
            "type": "function"
        },
        {
            "inputs": [
                {
                    "internalType": "string",
                    "name": "description",
                    "type": "string"
                }
            ],
            "name": "setDescription",
            "outputs": [],
            "stateMutability": "nonpayable",
            "type": "function"
        },
        {
            "inputs": [
                {
                    "internalType": "string",
                    "name": "name",
                    "type": "string"
                }
            ],
            "name": "setName",
            "outputs": [],
            "stateMutability": "nonpayable",
            "type": "function"
        }
    ],
    "bytecode": "0x60806040523480156200001157600080fd5b5060405162001ee138038062001ee18339810160408190526200003491620004a5565b600080546001600160a01b038086166001600160a01b03199283161790925560038054928516929091169190911790558051805182916004916200008091839160209091019062000244565b50602082015160018083018054909160ff1990911690836003811115620000b757634e487b7160e01b600052602160045260246000fd5b021790555060408201516001820180549115156101000261ff001990921691909117905560608201518051620000f891600284019160209091019062000244565b506080820151600382015560a0820151600482015560c082015180516200012a91600584019160209091019062000244565b5060e082015180516200014891600684019160209091019062000244565b50610100820151600782015561012082015180516200017291600884019160209091019062000244565b5061014082015180516200019191600984019160209091019062000244565b506101608201518051620001b091600a84019160209091019062000244565b506101808201518051620001cf91600b840191602090910190620002d3565b506101a08201518051620001ee91600c84019160209091019062000244565b506101c082015180516200020d91600d84019160209091019062000244565b506101e082015180516200022c91600e84019160209091019062000244565b5061020082015181600f0155905050505050620007cc565b828054620002529062000779565b90600052602060002090601f016020900481019282620002765760008555620002c1565b82601f106200029157805160ff1916838001178555620002c1565b82800160010185558215620002c1579182015b82811115620002c1578251825591602001919060010190620002a4565b50620002cf9291506200032b565b5090565b828054828255906000526020600020908101928215620002c1579160200282015b82811115620002c157825182546001600160a01b0319166001600160a01b03909116178255602090920191600190910190620002f4565b5b80821115620002cf57600081556001016200032c565b80516001600160a01b03811681146200035a57600080fd5b919050565b600082601f83011262000370578081fd5b815160206001600160401b038211156200038e576200038e620007b6565b8160051b6200039f82820162000746565b838152828101908684018388018501891015620003ba578687fd5b8693505b85841015620003e757620003d28162000342565b835260019390930192918401918401620003be565b50979650505050505050565b805180151581146200035a57600080fd5b8051600481106200035a57600080fd5b600082601f83011262000425578081fd5b81516001600160401b03811115620004415762000441620007b6565b602062000457601f8301601f1916820162000746565b82815285828487010111156200046b578384fd5b835b838110156200048a5785810183015182820184015282016200046d565b838111156200049b57848385840101525b5095945050505050565b600080600060608486031215620004ba578283fd5b620004c58462000342565b9250620004d56020850162000342565b60408501519092506001600160401b0380821115620004f2578283fd5b90850190610220828803121562000507578283fd5b620005116200071a565b82518281111562000520578485fd5b6200052e8982860162000414565b8252506200053f6020840162000404565b60208201526200055260408401620003f3565b604082015260608301518281111562000569578485fd5b620005778982860162000414565b6060830152506080830151608082015260a083015160a082015260c083015182811115620005a3578485fd5b620005b18982860162000414565b60c08301525060e083015182811115620005c9578485fd5b620005d78982860162000414565b60e08301525061010083810151908201526101208084015183811115620005fc578586fd5b6200060a8a82870162000414565b828401525050610140808401518381111562000624578586fd5b620006328a82870162000414565b82840152505061016080840151838111156200064c578586fd5b6200065a8a82870162000414565b828401525050610180808401518381111562000674578586fd5b620006828a8287016200035f565b8284015250506101a080840151838111156200069c578586fd5b620006aa8a82870162000414565b8284015250506101c08084015183811115620006c4578586fd5b620006d28a82870162000414565b8284015250506101e08084015183811115620006ec578586fd5b620006fa8a82870162000414565b828401525050610200915081830151828201528093505050509250925092565b60405161022081016001600160401b0381118282101715620007405762000740620007b6565b60405290565b604051601f8201601f191681016001600160401b0381118282101715620007715762000771620007b6565b604052919050565b600181811c908216806200078e57607f821691505b60208210811415620007b057634e487b7160e01b600052602260045260246000fd5b50919050565b634e487b7160e01b600052604160045260246000fd5b61170580620007dc6000396000f3fe608060405234801561001057600080fd5b50600436106100d45760003560e01c806390c3f38f11610081578063af5372e61161005b578063af5372e61461017a578063c47f00271461018d578063f12018c3146101a057600080fd5b806390c3f38f146101575780639b7d6f121461016a578063a3907d711461017257600080fd5b80635a9b0b89116100b25780635a9b0b89146101295780636aa633b61461013e5780636d483c841461014657600080fd5b80631bffb491146100d95780632f2770db146100fa578063483d45bd14610104575b600080fd5b600554610100900460ff165b60405190151581526020015b60405180910390f35b6101026101b3565b005b6003546001600160a01b03165b6040516001600160a01b0390911681526020016100f1565b61013161040a565b6040516100f19190611412565b6100e5610b4b565b6013546040519081526020016100f1565b61010261016536600461126c565b610b64565b610111610c45565b610102610cdb565b60055460ff166040516100f191906113ea565b61010261019b36600461126c565b610e3a565b6100e56101ae36600461122d565b610f17565b6101bb610fa2565b60035460408051636760c4b760e01b8152905133926001600160a01b031691636760c4b7916004808301926020929190829003018186803b1580156101ff57600080fd5b505afa158015610213573d6000803e3d6000fd5b505050506040513d601f19601f820116820180604052508101906102379190611250565b6001600160a01b0316146102825760405162461bcd60e51b815260206004820152600d60248201526c1058d8d95cdcc819195b9a5959609a1b60448201526064015b60405180910390fd5b61028a610fa2565b601354156102da5760405162461bcd60e51b815260206004820152601960248201527f4f6666657220697320616c72656164792064697361626c6564000000000000006044820152606401610279565b6102e7610e1060186115f3565b6000546040517f03a2216d00000000000000000000000000000000000000000000000000000000815263ffffffff92909216916001600160a01b03909116906303a2216d9061033a9060049081016113fe565b60206040518083038186803b15801561035257600080fd5b505afa158015610366573d6000803e3d6000fd5b505050506040513d601f19601f8201168201806040525081019061038a9190611316565b61039491906115d4565b61039e90426115bc565b6013819055600354604051639789e32360e01b81526000600482015260248101929092526001600160a01b031690639789e323906044015b600060405180830381600087803b1580156103f057600080fd5b505af1158015610404573d6000803e3d6000fd5b50505050565b61049460408051610220810190915260608152602081016000815260200160001515815260200160608152602001600081526020016000815260200160608152602001606081526020016000815260200160608152602001606081526020016060815260200160608152602001606081526020016060815260200160608152602001600081525090565b6004604051806102200160405290816000820180546104b29061161f565b80601f01602080910402602001604051908101604052809291908181526020018280546104de9061161f565b801561052b5780601f106105005761010080835404028352916020019161052b565b820191906000526020600020905b81548152906001019060200180831161050e57829003601f168201915b5050509183525050600182015460209091019060ff16600381111561056057634e487b7160e01b600052602160045260246000fd5b600381111561057f57634e487b7160e01b600052602160045260246000fd5b81526001820154610100900460ff16151560208201526002820180546040909201916105aa9061161f565b80601f01602080910402602001604051908101604052809291908181526020018280546105d69061161f565b80156106235780601f106105f857610100808354040283529160200191610623565b820191906000526020600020905b81548152906001019060200180831161060657829003601f168201915b5050505050815260200160038201548152602001600482015481526020016005820180546106509061161f565b80601f016020809104026020016040519081016040528092919081815260200182805461067c9061161f565b80156106c95780601f1061069e576101008083540402835291602001916106c9565b820191906000526020600020905b8154815290600101906020018083116106ac57829003601f168201915b505050505081526020016006820180546106e29061161f565b80601f016020809104026020016040519081016040528092919081815260200182805461070e9061161f565b801561075b5780601f106107305761010080835404028352916020019161075b565b820191906000526020600020905b81548152906001019060200180831161073e57829003601f168201915b505050505081526020016007820154815260200160088201805461077e9061161f565b80601f01602080910402602001604051908101604052809291908181526020018280546107aa9061161f565b80156107f75780601f106107cc576101008083540402835291602001916107f7565b820191906000526020600020905b8154815290600101906020018083116107da57829003601f168201915b505050505081526020016009820180546108109061161f565b80601f016020809104026020016040519081016040528092919081815260200182805461083c9061161f565b80156108895780601f1061085e57610100808354040283529160200191610889565b820191906000526020600020905b81548152906001019060200180831161086c57829003601f168201915b50505050508152602001600a820180546108a29061161f565b80601f01602080910402602001604051908101604052809291908181526020018280546108ce9061161f565b801561091b5780601f106108f05761010080835404028352916020019161091b565b820191906000526020600020905b8154815290600101906020018083116108fe57829003601f168201915b50505050508152602001600b820180548060200260200160405190810160405280929190818152602001828054801561097d57602002820191906000526020600020905b81546001600160a01b0316815260019091019060200180831161095f575b50505050508152602001600c820180546109969061161f565b80601f01602080910402602001604051908101604052809291908181526020018280546109c29061161f565b8015610a0f5780601f106109e457610100808354040283529160200191610a0f565b820191906000526020600020905b8154815290600101906020018083116109f257829003601f168201915b50505050508152602001600d82018054610a289061161f565b80601f0160208091040260200160405190810160405280929190818152602001828054610a549061161f565b8015610aa15780601f10610a7657610100808354040283529160200191610aa1565b820191906000526020600020905b815481529060010190602001808311610a8457829003601f168201915b50505050508152602001600e82018054610aba9061161f565b80601f0160208091040260200160405190810160405280929190818152602001828054610ae69061161f565b8015610b335780601f10610b0857610100808354040283529160200191610b33565b820191906000526020600020905b815481529060010190602001808311610b1657829003601f168201915b50505050508152602001600f82015481525050905090565b6013546000901580610b5f57506013544211155b905090565b610b6c610fa2565b60035460408051636760c4b760e01b8152905133926001600160a01b031691636760c4b7916004808301926020929190829003018186803b158015610bb057600080fd5b505afa158015610bc4573d6000803e3d6000fd5b505050506040513d601f19601f82011682018060405250810190610be89190611250565b6001600160a01b031614610c2e5760405162461bcd60e51b815260206004820152600d60248201526c1058d8d95cdcc819195b9a5959609a1b6044820152606401610279565b8051610c41906006906020840190611194565b5050565b600354604080517f0857101100000000000000000000000000000000000000000000000000000000815290516000926001600160a01b0316916308571011916004808301926020929190829003018186803b158015610ca357600080fd5b505afa158015610cb7573d6000803e3d6000fd5b505050506040513d601f19601f82011682018060405250810190610b5f9190611250565b610ce3610fa2565b60035460408051636760c4b760e01b8152905133926001600160a01b031691636760c4b7916004808301926020929190829003018186803b158015610d2757600080fd5b505afa158015610d3b573d6000803e3d6000fd5b505050506040513d601f19601f82011682018060405250810190610d5f9190611250565b6001600160a01b031614610da55760405162461bcd60e51b815260206004820152600d60248201526c1058d8d95cdcc819195b9a5959609a1b6044820152606401610279565b610dad610fa2565b601354610dfc5760405162461bcd60e51b815260206004820152601860248201527f4f6666657220697320616c726561647920656e61626c656400000000000000006044820152606401610279565b60006013819055600354604051639789e32360e01b81526001600482015260248101929092526001600160a01b031690639789e323906044016103d6565b610e42610fa2565b60035460408051636760c4b760e01b8152905133926001600160a01b031691636760c4b7916004808301926020929190829003018186803b158015610e8657600080fd5b505afa158015610e9a573d6000803e3d6000fd5b505050506040513d601f19601f82011682018060405250810190610ebe9190611250565b6001600160a01b031614610f045760405162461bcd60e51b815260206004820152600d60248201526c1058d8d95cdcc819195b9a5959609a1b6044820152606401610279565b8051610c41906004906020840190611194565b600f54600090610f2957506001919050565b60005b600f54811015610f995760006004600b018281548110610f5c57634e487b7160e01b600052603260045260246000fd5b6000918252602090912001546001600160a01b0390811691508416811415610f88575060019392505050565b50610f928161165a565b9050610f2c565b50600092915050565b60008054906101000a90046001600160a01b03166001600160a01b031663f1f0bd016040518163ffffffff1660e01b815260040160206040518083038186803b158015610fee57600080fd5b505afa158015611002573d6000803e3d6000fd5b505050506040513d601f19601f820116820180604052508101906110269190611250565b6000805473ffffffffffffffffffffffffffffffffffffffff19166001600160a01b0392909216918217905560405163bcaa0c5560e01b815263bcaa0c5590611074906001906004016113d0565b60206040518083038186803b15801561108c57600080fd5b505afa1580156110a0573d6000803e3d6000fd5b505050506040513d601f19601f820116820180604052508101906110c49190611250565b6001805473ffffffffffffffffffffffffffffffffffffffff19166001600160a01b0392831617905560005460405163bcaa0c5560e01b815291169063bcaa0c5590611115906006906004016113d0565b60206040518083038186803b15801561112d57600080fd5b505afa158015611141573d6000803e3d6000fd5b505050506040513d601f19601f820116820180604052508101906111659190611250565b6002805473ffffffffffffffffffffffffffffffffffffffff19166001600160a01b0392909216919091179055565b8280546111a09061161f565b90600052602060002090601f0160209004810192826111c25760008555611208565b82601f106111db57805160ff1916838001178555611208565b82800160010185558215611208579182015b828111156112085782518255916020019190600101906111ed565b50611214929150611218565b5090565b5b808211156112145760008155600101611219565b60006020828403121561123e578081fd5b8135611249816116b7565b9392505050565b600060208284031215611261578081fd5b8151611249816116b7565b60006020828403121561127d578081fd5b813567ffffffffffffffff80821115611294578283fd5b818401915084601f8301126112a7578283fd5b8135818111156112b9576112b96116a1565b604051601f8201601f19908116603f011681019083821181831017156112e1576112e16116a1565b816040528281528760208487010111156112f9578586fd5b826020860160208301379182016020019490945295945050505050565b600060208284031215611327578081fd5b5051919050565b6000815180845260208085019450808401835b838110156113665781516001600160a01b031687529582019590820190600101611341565b509495945050505050565b600481106113815761138161168b565b9052565b60008151808452815b818110156113aa5760208185018101518683018201520161138e565b818111156113bb5782602083870101525b50601f01601f19169290920160200192915050565b60208101600c83106113e4576113e461168b565b91905290565b602081016113f88284611371565b92915050565b60208101601183106113e4576113e461168b565b6020815260008251610220806020850152611431610240850183611385565b915060208501516114456040860182611371565b5060408501518015156060860152506060850151601f19808685030160808701526114708483611385565b9350608087015160a087015260a087015160c087015260c08701519150808685030160e08701526114a18483611385565b935060e087015191506101008187860301818801526114c08584611385565b9450808801519250506101208281880152808801519250506101408187860301818801526114ee8584611385565b94508088015192505061016081878603018188015261150d8584611385565b94508088015192505061018081878603018188015261152c8584611385565b9450808801519250506101a081878603018188015261154b858461132e565b9450808801519250506101c081878603018188015261156a8584611385565b9450808801519250506101e08187860301818801526115898584611385565b9450808801519250506102008187860301818801526115a88584611385565b970151959092019490945250929392505050565b600082198211156115cf576115cf611675565b500190565b60008160001904831182151516156115ee576115ee611675565b500290565b600063ffffffff8083168185168183048111821515161561161657611616611675565b02949350505050565b600181811c9082168061163357607f821691505b6020821081141561165457634e487b7160e01b600052602260045260246000fd5b50919050565b600060001982141561166e5761166e611675565b5060010190565b634e487b7160e01b600052601160045260246000fd5b634e487b7160e01b600052602160045260246000fd5b634e487b7160e01b600052604160045260246000fd5b6001600160a01b03811681146116cc57600080fd5b5056fea2646970667358221220f7229dd3aba45d7f936b44a6046d4973eb5d939ab4621b77d0673361e3d4005564736f6c63430008040033",
    "linkReferences": {},
    "deployedLinkReferences": {}
}