{
  "_format": "hh-sol-artifact-1",
  "contractName": "OffersFactory",
  "sourceName": "contracts/OffersFactory.sol",
  "abi": [
    {
      "inputs": [
        {
          "internalType": "address",
          "name": "_superpro",
          "type": "address"
        }
      ],
      "stateMutability": "nonpayable",
      "type": "constructor"
    },
    {
      "anonymous": false,
      "inputs": [
        {
          "indexed": false,
          "internalType": "address",
          "name": "newOfferAddress",
          "type": "address"
        }
      ],
      "name": "OfferCreated",
      "type": "event"
    },
    {
      "inputs": [
        {
          "internalType": "address",
          "name": "providerAuth",
          "type": "address"
        },
        {
          "components": [
            {
              "internalType": "string",
              "name": "name",
              "type": "string"
            },
            {
              "internalType": "enum OfferType",
              "name": "offerType",
              "type": "uint8"
            },
            {
              "internalType": "bool",
              "name": "cancelable",
              "type": "bool"
            },
            {
              "internalType": "string",
              "name": "description",
              "type": "string"
            },
            {
              "internalType": "uint256",
              "name": "holdSum",
              "type": "uint256"
            },
            {
              "internalType": "uint256",
              "name": "price",
              "type": "uint256"
            },
            {
              "internalType": "string",
              "name": "priceUnit",
              "type": "string"
            },
            {
              "components": [
                {
                  "components": [
                    {
                      "internalType": "address",
                      "name": "guid",
                      "type": "address"
                    },
                    {
                      "internalType": "bool",
                      "name": "isExist",
                      "type": "bool"
                    }
                  ],
                  "internalType": "struct OfferRequirement",
                  "name": "Script",
                  "type": "tuple"
                },
                {
                  "components": [
                    {
                      "internalType": "address",
                      "name": "guid",
                      "type": "address"
                    },
                    {
                      "internalType": "bool",
                      "name": "isExist",
                      "type": "bool"
                    }
                  ],
                  "internalType": "struct OfferRequirement",
                  "name": "Storage",
                  "type": "tuple"
                },
                {
                  "components": [
                    {
                      "internalType": "address",
                      "name": "guid",
                      "type": "address"
                    },
                    {
                      "internalType": "bool",
                      "name": "isExist",
                      "type": "bool"
                    }
                  ],
                  "internalType": "struct OfferRequirement",
                  "name": "TeeOffer",
                  "type": "tuple"
                },
                {
                  "components": [
                    {
                      "internalType": "address",
                      "name": "guid",
                      "type": "address"
                    },
                    {
                      "internalType": "bool",
                      "name": "isExist",
                      "type": "bool"
                    }
                  ],
                  "internalType": "struct OfferRequirement",
                  "name": "AdSegment",
                  "type": "tuple"
                }
              ],
              "internalType": "struct Requirements",
              "name": "requirements",
              "type": "tuple"
            },
            {
              "internalType": "string",
              "name": "properties",
              "type": "string"
            },
            {
              "internalType": "uint256",
              "name": "maxDurationTimeMinutes",
              "type": "uint256"
            },
            {
              "internalType": "string",
              "name": "inputFormat",
              "type": "string"
            },
            {
              "internalType": "string",
              "name": "outputFormat",
              "type": "string"
            },
            {
              "internalType": "string",
              "name": "allowedArgs",
              "type": "string"
            },
            {
              "internalType": "address[]",
              "name": "allowedAccounts",
              "type": "address[]"
            },
            {
              "internalType": "string",
              "name": "argsPublicKey",
              "type": "string"
            },
            {
              "internalType": "string",
              "name": "argsPublicKeyAlgo",
              "type": "string"
            },
            {
              "internalType": "string",
              "name": "resultUrl",
              "type": "string"
            },
            {
              "internalType": "uint256",
              "name": "disabledAfter",
              "type": "uint256"
            }
          ],
          "internalType": "struct OfferInfo",
          "name": "info",
          "type": "tuple"
        }
      ],
      "name": "create",
      "outputs": [
        {
          "internalType": "address",
          "name": "",
          "type": "address"
        }
      ],
      "stateMutability": "nonpayable",
      "type": "function"
    },
    {
      "inputs": [],
      "name": "getOffers",
      "outputs": [
        {
          "internalType": "address[]",
          "name": "",
          "type": "address[]"
        }
      ],
      "stateMutability": "view",
      "type": "function"
    },
    {
      "inputs": [
        {
          "internalType": "address",
          "name": "offer",
          "type": "address"
        }
      ],
      "name": "getOffersProvider",
      "outputs": [
        {
          "internalType": "address",
          "name": "",
          "type": "address"
        }
      ],
      "stateMutability": "view",
      "type": "function"
    }
  ],
  "bytecode": "0x608060405234801561001057600080fd5b5060405161379c38038061379c83398101604081905261002f91610054565b600080546001600160a01b0319166001600160a01b0392909216919091179055610082565b600060208284031215610065578081fd5b81516001600160a01b038116811461007b578182fd5b9392505050565b61370b806100916000396000f3fe60806040523480156200001157600080fd5b5060043610620000465760003560e01c8063165dee3f146200004b5780633ee992ee1462000097578063b3031b2714620000b0575b600080fd5b6200007a6200005c36600462000b7c565b6001600160a01b039081166000908152600460205260409020541690565b6040516001600160a01b0390911681526020015b60405180910390f35b620000a1620000c7565b6040516200008e919062001180565b6200007a620000c136600462000bc1565b6200012b565b606060038054806020026020016040519081016040528092919081815260200182805480156200012157602002820191906000526020600020905b81546001600160a01b0316815260019091019060200180831162000102575b5050505050905090565b60006200013762000746565b6001546040517fc2bc2efc0000000000000000000000000000000000000000000000000000000081526001600160a01b038581166004830152600092169063c2bc2efc9060240160206040518083038186803b1580156200019757600080fd5b505afa158015620001ac573d6000803e3d6000fd5b505050506040513d601f19601f82011682018060405250810190620001d2919062000ba2565b9050806001600160a01b0316631b71d85f6040518163ffffffff1660e01b8152600401600060405180830381600087803b1580156200021057600080fd5b505af115801562000225573d6000803e3d6000fd5b5050600080546040517f03a2216d0000000000000000000000000000000000000000000000000000000081529193506001600160a01b031691506303a2216d906200027690600690600401620011b2565b60206040518083038186803b1580156200028f57600080fd5b505afa158015620002a4573d6000803e3d6000fd5b505050506040513d601f19601f82011682018060405250810190620002ca919062000e3d565b6001546040517fb00e3c240000000000000000000000000000000000000000000000000000000081526001600160a01b0388811660048301529293506000929091169063b00e3c249060240160206040518083038186803b1580156200032f57600080fd5b505afa15801562000344573d6000803e3d6000fd5b505050506040513d601f19601f820116820180604052508101906200036a919062000e3d565b6040517fcf06217c000000000000000000000000000000000000000000000000000000008152600481018490529091506000906001600160a01b0385169063cf06217c9060240160206040518083038186803b158015620003ca57600080fd5b505afa158015620003df573d6000803e3d6000fd5b505050506040513d601f19601f8201168201806040525081019062000405919062000e3d565b90506000866020015160038111156200042e57634e487b7160e01b600052602160045260246000fd5b1415620004825760405162461bcd60e51b815260206004820152601760248201527f496e766169642076616c7565206f66666572207479706500000000000000000060448201526064015b60405180910390fd5b336001600160a01b0316846001600160a01b0316636760c4b76040518163ffffffff1660e01b815260040160206040518083038186803b158015620004c657600080fd5b505afa158015620004db573d6000803e3d6000fd5b505050506040513d601f19601f8201168201806040525081019062000501919062000ba2565b6001600160a01b031614620005595760405162461bcd60e51b815260206004820152600d60248201527f4163636573732064656e69656400000000000000000000000000000000000000604482015260640162000479565b80821015620005ab5760405162461bcd60e51b815260206004820152601d60248201527f5365637572697479206465706f73697420697320746f6f20736d616c6c000000604482015260640162000479565b600080546040516001600160a01b039091169086908990620005cd9062000948565b620005db9392919062000f87565b604051809103906000f080158015620005f8573d6000803e3d6000fd5b5090508760046000836001600160a01b03166001600160a01b0316815260200190815260200160002060006101000a8154816001600160a01b0302191690836001600160a01b031602179055506003819080600181540180825580915050600190039060005260206000200160009091909190916101000a8154816001600160a01b0302191690836001600160a01b03160217905550846001600160a01b031663a553269b826040518263ffffffff1660e01b8152600401620006ca91906001600160a01b0391909116815260200190565b600060405180830381600087803b158015620006e557600080fd5b505af1158015620006fa573d6000803e3d6000fd5b50506040516001600160a01b03841681527f4ed297a49813ea635060b2157f5ef5bfb33acbe12df64dcedb8e8870fddf196b9250602001905060405180910390a1979650505050505050565b60008054906101000a90046001600160a01b03166001600160a01b031663f1f0bd016040518163ffffffff1660e01b815260040160206040518083038186803b1580156200079357600080fd5b505afa158015620007a8573d6000803e3d6000fd5b505050506040513d601f19601f82011682018060405250810190620007ce919062000ba2565b6000805473ffffffffffffffffffffffffffffffffffffffff19166001600160a01b0392909216918217905560405163bcaa0c5560e01b815263bcaa0c55906200081e9060019060040162001195565b60206040518083038186803b1580156200083757600080fd5b505afa1580156200084c573d6000803e3d6000fd5b505050506040513d601f19601f8201168201806040525081019062000872919062000ba2565b6001805473ffffffffffffffffffffffffffffffffffffffff19166001600160a01b0392831617905560005460405163bcaa0c5560e01b815291169063bcaa0c5590620008c59060029060040162001195565b60206040518083038186803b158015620008de57600080fd5b505afa158015620008f3573d6000803e3d6000fd5b505050506040513d601f19601f8201168201806040525081019062000919919062000ba2565b6002805473ffffffffffffffffffffffffffffffffffffffff19166001600160a01b0392909216919091179055565b612466806200127083390190565b600082601f83011262000967578081fd5b8135602067ffffffffffffffff82111562000986576200098662001240565b8160051b62000997828201620011f6565b838152828101908684018388018501891015620009b2578687fd5b8693505b85841015620009e1578035620009cc8162001256565b835260019390930192918401918401620009b6565b50979650505050505050565b80358015158114620009fe57600080fd5b919050565b803560048110620009fe57600080fd5b600082601f83011262000a24578081fd5b813567ffffffffffffffff81111562000a415762000a4162001240565b62000a56601f8201601f1916602001620011f6565b81815284602083860101111562000a6b578283fd5b816020850160208301379081016020019190915292915050565b60006040828403121562000a97578081fd5b6040516040810181811067ffffffffffffffff8211171562000abd5762000abd62001240565b604052905080823562000ad08162001256565b815262000ae060208401620009ed565b60208201525092915050565b6000610100828403121562000aff578081fd5b6040516080810181811067ffffffffffffffff8211171562000b255762000b2562001240565b60405290508062000b37848462000a85565b815262000b48846040850162000a85565b602082015262000b5c846080850162000a85565b604082015262000b708460c0850162000a85565b60608201525092915050565b60006020828403121562000b8e578081fd5b813562000b9b8162001256565b9392505050565b60006020828403121562000bb4578081fd5b815162000b9b8162001256565b6000806040838503121562000bd4578081fd5b823562000be18162001256565b9150602083013567ffffffffffffffff8082111562000bfe578283fd5b90840190610320828703121562000c13578283fd5b62000c1d620011c9565b82358281111562000c2c578485fd5b62000c3a8882860162000a13565b82525062000c4b6020840162000a03565b602082015262000c5e60408401620009ed565b604082015260608301358281111562000c75578485fd5b62000c838882860162000a13565b6060830152506080830135608082015260a083013560a082015260c08301358281111562000caf578485fd5b62000cbd8882860162000a13565b60c08301525062000cd28760e0850162000aec565b60e08201526101e0808401358381111562000ceb578586fd5b62000cf98982870162000a13565b6101008401525061020080850135610120840152610220808601358581111562000d21578788fd5b62000d2f8b82890162000a13565b610140860152506102408601358581111562000d49578788fd5b62000d578b82890162000a13565b610160860152506102608601358581111562000d71578788fd5b62000d7f8b82890162000a13565b610180860152506102808601358581111562000d99578788fd5b62000da78b82890162000956565b6101a0860152506102a08601358581111562000dc1578788fd5b62000dcf8b82890162000a13565b6101c0860152506102c08601358581111562000de9578788fd5b62000df78b82890162000a13565b84860152506102e086013592508483111562000e11578687fd5b62000e1f8a84880162000a13565b82850152610300860135818501525050508093505050509250929050565b60006020828403121562000e4f578081fd5b5051919050565b6000815180845260208085019450808401835b8381101562000e905781516001600160a01b03168752958201959082019060010162000e69565b509495945050505050565b6004811062000eae5762000eae6200122a565b9052565b60008151808452815b8181101562000ed95760208185018101518683018201520162000ebb565b8181111562000eeb5782602083870101525b50601f01601f19169290920160200192915050565b62000f2182825180516001600160a01b031682526020908101511515910152565b60208181015180516001600160a01b03166040850152908101511515606084015250604081015180516001600160a01b031660808401526020810151151560a0840152506060015180516001600160a01b031660c083015260200151151560e090910152565b60006001600160a01b03808616835280851660208401525060606040830152825161032080606085015262000fc161038085018362000eb2565b9150602085015162000fd7608086018262000e9b565b506040850151151560a08501526060850151848303605f1990810160c087015262001003848362000eb2565b9350608087015160e087015260a08701519150610100828188015260c088015192506101208288870301818901526200103d868562000eb2565b955060e0890151935061014062001057818a018662000f00565b828a0151945083898803016102408a015262001074878662000eb2565b918a01516102608a015289015188820384016102808a015290955092506200109f9050848362000eb2565b9350610160870151915080868503016102a0870152620010c0848362000eb2565b9350610180870151915080868503016102c0870152620010e1848362000eb2565b93506101a0870151915080868503016102e087015262001102848362000e56565b93506101c08701519150808685030161030087015262001123848362000eb2565b93506101e0870151915080868503018387015262001142848362000eb2565b935061020087015192508086850301610340870152505062001165828262000eb2565b91505061022084015161036084015280915050949350505050565b60208152600062000b9b602083018462000e56565b60208101600c8310620011ac57620011ac6200122a565b91905290565b6020810160118310620011ac57620011ac6200122a565b604051610240810167ffffffffffffffff81118282101715620011f057620011f062001240565b60405290565b604051601f8201601f1916810167ffffffffffffffff8111828210171562001222576200122262001240565b604052919050565b634e487b7160e01b600052602160045260246000fd5b634e487b7160e01b600052604160045260246000fd5b6001600160a01b03811681146200126c57600080fd5b5056fe60806040523480156200001157600080fd5b50604051620024663803806200246683398101604081905262000034916200063b565b600080546001600160a01b038086166001600160a01b031992831617909255600380549285169290911691909117905580518051829160049162000080918391602090910190620002e7565b50602082015160018083018054909160ff1990911690836003811115620000b757634e487b7160e01b600052602160045260246000fd5b021790555060408201516001820180549115156101000261ff001990921691909117905560608201518051620000f8916002840191602090910190620002e7565b506080820151600382015560a0820151600482015560c082015180516200012a916005840191602090910190620002e7565b5060e0820151805180516006840180546020938401516001600160a01b039384166001600160a81b031992831617600160a01b91151582021790925583850151805160078801805492870151918616928416929092179015158402179055604085015180516008880180549287015191861692841692909217901515840217905560609094015180516009870180549286015191909416919095161793151502929092179091556101008301518051620001eb92600a8501920190620002e7565b50610120820151600b82015561014082015180516200021591600c840191602090910190620002e7565b5061016082015180516200023491600d840191602090910190620002e7565b5061018082015180516200025391600e840191602090910190620002e7565b506101a082015180516200027291600f84019160209091019062000376565b506101c0820151805162000291916010840191602090910190620002e7565b506101e08201518051620002b0916011840191602090910190620002e7565b506102008201518051620002cf916012840191602090910190620002e7565b50610220820151816013015590505050505062000979565b828054620002f59062000926565b90600052602060002090601f01602090048101928262000319576000855562000364565b82601f106200033457805160ff191683800117855562000364565b8280016001018555821562000364579182015b828111156200036457825182559160200191906001019062000347565b5062000372929150620003ce565b5090565b82805482825590600052602060002090810192821562000364579160200282015b828111156200036457825182546001600160a01b0319166001600160a01b0390911617825560209092019160019091019062000397565b5b80821115620003725760008155600101620003cf565b80516001600160a01b0381168114620003fd57600080fd5b919050565b600082601f83011262000413578081fd5b815160206001600160401b0382111562000431576200043162000963565b8160051b62000442828201620008f3565b8381528281019086840183880185018910156200045d578687fd5b8693505b858410156200048a576200047581620003e5565b83526001939093019291840191840162000461565b50979650505050505050565b80518015158114620003fd57600080fd5b805160048110620003fd57600080fd5b600082601f830112620004c8578081fd5b81516001600160401b03811115620004e457620004e462000963565b6020620004fa601f8301601f19168201620008f3565b82815285828487010111156200050e578384fd5b835b838110156200052d57858101830151828201840152820162000510565b838111156200053e57848385840101525b5095945050505050565b6000604082840312156200055a578081fd5b604080519081016001600160401b03811182821017156200057f576200057f62000963565b6040529050806200059083620003e5565b8152620005a06020840162000496565b60208201525092915050565b60006101008284031215620005bf578081fd5b604051608081016001600160401b0381118282101715620005e457620005e462000963565b604052905080620005f6848462000548565b815262000607846040850162000548565b60208201526200061b846080850162000548565b60408201526200062f8460c0850162000548565b60608201525092915050565b60008060006060848603121562000650578283fd5b6200065b84620003e5565b92506200066b60208501620003e5565b60408501519092506001600160401b038082111562000688578283fd5b9085019061032082880312156200069d578283fd5b620006a7620008c7565b825182811115620006b6578485fd5b620006c489828601620004b7565b825250620006d560208401620004a7565b6020820152620006e86040840162000496565b6040820152606083015182811115620006ff578485fd5b6200070d89828601620004b7565b6060830152506080830151608082015260a083015160a082015260c08301518281111562000739578485fd5b6200074789828601620004b7565b60c0830152506200075c8860e08501620005ac565b60e08201526101e0808401518381111562000775578586fd5b620007838a828701620004b7565b61010084015250610200808501516101208401526102208086015185811115620007ab578788fd5b620007b98c828901620004b7565b6101408601525061024086015185811115620007d3578788fd5b620007e18c828901620004b7565b6101608601525061026086015185811115620007fb578788fd5b620008098c828901620004b7565b610180860152506102808601518581111562000823578788fd5b620008318c82890162000402565b6101a0860152506102a0860151858111156200084b578788fd5b620008598c828901620004b7565b6101c0860152506102c08601518581111562000873578788fd5b620008818c828901620004b7565b84860152506102e08601519250848311156200089b578687fd5b620008a98b848801620004b7565b82850152610300860151818501525050508093505050509250925092565b60405161024081016001600160401b0381118282101715620008ed57620008ed62000963565b60405290565b604051601f8201601f191681016001600160401b03811182821017156200091e576200091e62000963565b604052919050565b600181811c908216806200093b57607f821691505b602082108114156200095d57634e487b7160e01b600052602260045260246000fd5b50919050565b634e487b7160e01b600052604160045260246000fd5b611add80620009896000396000f3fe608060405234801561001057600080fd5b50600436106100df5760003560e01c80636d483c841161008c578063a3907d7111610066578063a3907d711461019d578063af5372e6146101a5578063c47f0027146101b8578063f12018c3146101cb57600080fd5b80636d483c841461017157806390c3f38f146101825780639b7d6f121461019557600080fd5b8063483d45bd116100bd578063483d45bd1461012f5780635a9b0b89146101545780636aa633b61461016957600080fd5b80631bffb491146100e457806323c31221146101055780632f2770db14610125575b600080fd5b600554610100900460ff165b60405190151581526020015b60405180910390f35b610118610113366004611567565b6101de565b6040516100fc9190611972565b61012d61039b565b005b6003546001600160a01b03165b6040516001600160a01b0390911681526020016100fc565b61015c6105ed565b6040516100fc91906117b2565b6100f0610d57565b6017546040519081526020016100fc565b61012d610190366004611586565b610d70565b61013c610e51565b61012d610ee7565b60055460ff166040516100fc919061178a565b61012d6101c6366004611586565b611046565b6100f06101d9366004611528565b611123565b6040805180820190915260008082526020820152600082600381111561021457634e487b7160e01b600052602160045260246000fd5b141561024957505060408051808201909152600c546001600160a01b0381168252600160a01b900460ff161515602082015290565b600282600381111561026b57634e487b7160e01b600052602160045260246000fd5b14156102a057505060408051808201909152600a546001600160a01b0381168252600160a01b900460ff161515602082015290565b60038260038111156102c257634e487b7160e01b600052602160045260246000fd5b14156102f757505060408051808201909152600d546001600160a01b0381168252600160a01b900460ff161515602082015290565b600182600381111561031957634e487b7160e01b600052602160045260246000fd5b141561034e57505060408051808201909152600b546001600160a01b0381168252600160a01b900460ff161515602082015290565b60405162461bcd60e51b815260206004820152600c60248201527f556e6b6e6f776e2074797065000000000000000000000000000000000000000060448201526064015b60405180910390fd5b6103a36111ae565b60035460408051636760c4b760e01b8152905133926001600160a01b031691636760c4b7916004808301926020929190829003018186803b1580156103e757600080fd5b505afa1580156103fb573d6000803e3d6000fd5b505050506040513d601f19601f8201168201806040525081019061041f919061154b565b6001600160a01b0316146104655760405162461bcd60e51b815260206004820152600d60248201526c1058d8d95cdcc819195b9a5959609a1b6044820152606401610392565b61046d6111ae565b601754156104bd5760405162461bcd60e51b815260206004820152601960248201527f4f6666657220697320616c72656164792064697361626c6564000000000000006044820152606401610392565b6104ca610e1060186119cb565b6000546040517f03a2216d00000000000000000000000000000000000000000000000000000000815263ffffffff92909216916001600160a01b03909116906303a2216d9061051d90600490810161179e565b60206040518083038186803b15801561053557600080fd5b505afa158015610549573d6000803e3d6000fd5b505050506040513d601f19601f8201168201806040525081019061056d9190611630565b61057791906119ac565b6105819042611994565b6017819055600354604051639789e32360e01b81526000600482015260248101929092526001600160a01b031690639789e323906044015b600060405180830381600087803b1580156105d357600080fd5b505af11580156105e7573d6000803e3d6000fd5b50505050565b6105f56113a0565b600460405180610240016040529081600082018054610613906119f7565b80601f016020809104026020016040519081016040528092919081815260200182805461063f906119f7565b801561068c5780601f106106615761010080835404028352916020019161068c565b820191906000526020600020905b81548152906001019060200180831161066f57829003601f168201915b5050509183525050600182015460209091019060ff1660038111156106c157634e487b7160e01b600052602160045260246000fd5b60038111156106e057634e487b7160e01b600052602160045260246000fd5b81526001820154610100900460ff161515602082015260028201805460409092019161070b906119f7565b80601f0160208091040260200160405190810160405280929190818152602001828054610737906119f7565b80156107845780601f1061075957610100808354040283529160200191610784565b820191906000526020600020905b81548152906001019060200180831161076757829003601f168201915b5050505050815260200160038201548152602001600482015481526020016005820180546107b1906119f7565b80601f01602080910402602001604051908101604052809291908181526020018280546107dd906119f7565b801561082a5780601f106107ff5761010080835404028352916020019161082a565b820191906000526020600020905b81548152906001019060200180831161080d57829003601f168201915b50505091835250506040805160c08101825260068401546001600160a01b038082166080840190815260ff600160a01b938490048116151560a0860152908452845180860186526007880154808416825284900482161515602082810191909152858101919091528551808701875260088901548085168252859004831615158183015285870152855180870187526009890154938416815293909204161515828201526060830191909152830152600a830180549190920191906108ee906119f7565b80601f016020809104026020016040519081016040528092919081815260200182805461091a906119f7565b80156109675780601f1061093c57610100808354040283529160200191610967565b820191906000526020600020905b81548152906001019060200180831161094a57829003601f168201915b50505050508152602001600b8201548152602001600c8201805461098a906119f7565b80601f01602080910402602001604051908101604052809291908181526020018280546109b6906119f7565b8015610a035780601f106109d857610100808354040283529160200191610a03565b820191906000526020600020905b8154815290600101906020018083116109e657829003601f168201915b50505050508152602001600d82018054610a1c906119f7565b80601f0160208091040260200160405190810160405280929190818152602001828054610a48906119f7565b8015610a955780601f10610a6a57610100808354040283529160200191610a95565b820191906000526020600020905b815481529060010190602001808311610a7857829003601f168201915b50505050508152602001600e82018054610aae906119f7565b80601f0160208091040260200160405190810160405280929190818152602001828054610ada906119f7565b8015610b275780601f10610afc57610100808354040283529160200191610b27565b820191906000526020600020905b815481529060010190602001808311610b0a57829003601f168201915b50505050508152602001600f8201805480602002602001604051908101604052809291908181526020018280548015610b8957602002820191906000526020600020905b81546001600160a01b03168152600190910190602001808311610b6b575b50505050508152602001601082018054610ba2906119f7565b80601f0160208091040260200160405190810160405280929190818152602001828054610bce906119f7565b8015610c1b5780601f10610bf057610100808354040283529160200191610c1b565b820191906000526020600020905b815481529060010190602001808311610bfe57829003601f168201915b50505050508152602001601182018054610c34906119f7565b80601f0160208091040260200160405190810160405280929190818152602001828054610c60906119f7565b8015610cad5780601f10610c8257610100808354040283529160200191610cad565b820191906000526020600020905b815481529060010190602001808311610c9057829003601f168201915b50505050508152602001601282018054610cc6906119f7565b80601f0160208091040260200160405190810160405280929190818152602001828054610cf2906119f7565b8015610d3f5780601f10610d1457610100808354040283529160200191610d3f565b820191906000526020600020905b815481529060010190602001808311610d2257829003601f168201915b50505050508152602001601382015481525050905090565b6017546000901580610d6b57506017544211155b905090565b610d786111ae565b60035460408051636760c4b760e01b8152905133926001600160a01b031691636760c4b7916004808301926020929190829003018186803b158015610dbc57600080fd5b505afa158015610dd0573d6000803e3d6000fd5b505050506040513d601f19601f82011682018060405250810190610df4919061154b565b6001600160a01b031614610e3a5760405162461bcd60e51b815260206004820152600d60248201526c1058d8d95cdcc819195b9a5959609a1b6044820152606401610392565b8051610e4d90600690602084019061148f565b5050565b600354604080517f0857101100000000000000000000000000000000000000000000000000000000815290516000926001600160a01b0316916308571011916004808301926020929190829003018186803b158015610eaf57600080fd5b505afa158015610ec3573d6000803e3d6000fd5b505050506040513d601f19601f82011682018060405250810190610d6b919061154b565b610eef6111ae565b60035460408051636760c4b760e01b8152905133926001600160a01b031691636760c4b7916004808301926020929190829003018186803b158015610f3357600080fd5b505afa158015610f47573d6000803e3d6000fd5b505050506040513d601f19601f82011682018060405250810190610f6b919061154b565b6001600160a01b031614610fb15760405162461bcd60e51b815260206004820152600d60248201526c1058d8d95cdcc819195b9a5959609a1b6044820152606401610392565b610fb96111ae565b6017546110085760405162461bcd60e51b815260206004820152601860248201527f4f6666657220697320616c726561647920656e61626c656400000000000000006044820152606401610392565b60006017819055600354604051639789e32360e01b81526001600482015260248101929092526001600160a01b031690639789e323906044016105b9565b61104e6111ae565b60035460408051636760c4b760e01b8152905133926001600160a01b031691636760c4b7916004808301926020929190829003018186803b15801561109257600080fd5b505afa1580156110a6573d6000803e3d6000fd5b505050506040513d601f19601f820116820180604052508101906110ca919061154b565b6001600160a01b0316146111105760405162461bcd60e51b815260206004820152600d60248201526c1058d8d95cdcc819195b9a5959609a1b6044820152606401610392565b8051610e4d90600490602084019061148f565b60135460009061113557506001919050565b60005b6013548110156111a55760006004600f01828154811061116857634e487b7160e01b600052603260045260246000fd5b6000918252602090912001546001600160a01b0390811691508416811415611194575060019392505050565b5061119e81611a32565b9050611138565b50600092915050565b60008054906101000a90046001600160a01b03166001600160a01b031663f1f0bd016040518163ffffffff1660e01b815260040160206040518083038186803b1580156111fa57600080fd5b505afa15801561120e573d6000803e3d6000fd5b505050506040513d601f19601f82011682018060405250810190611232919061154b565b6000805473ffffffffffffffffffffffffffffffffffffffff19166001600160a01b0392909216918217905560405163bcaa0c5560e01b815263bcaa0c559061128090600190600401611770565b60206040518083038186803b15801561129857600080fd5b505afa1580156112ac573d6000803e3d6000fd5b505050506040513d601f19601f820116820180604052508101906112d0919061154b565b6001805473ffffffffffffffffffffffffffffffffffffffff19166001600160a01b0392831617905560005460405163bcaa0c5560e01b815291169063bcaa0c559061132190600690600401611770565b60206040518083038186803b15801561133957600080fd5b505afa15801561134d573d6000803e3d6000fd5b505050506040513d601f19601f82011682018060405250810190611371919061154b565b6002805473ffffffffffffffffffffffffffffffffffffffff19166001600160a01b0392909216919091179055565b604080516102408101909152606081526020810160008152602001600015158152602001606081526020016000815260200160008152602001606081526020016114436040805160c08101825260006080820181815260a083018290528252825180840184528181526020808201839052808401919091528351808501855282815280820183905283850152835180850190945281845283015290606082015290565b8152602001606081526020016000815260200160608152602001606081526020016060815260200160608152602001606081526020016060815260200160608152602001600081525090565b82805461149b906119f7565b90600052602060002090601f0160209004810192826114bd5760008555611503565b82601f106114d657805160ff1916838001178555611503565b82800160010185558215611503579182015b828111156115035782518255916020019190600101906114e8565b5061150f929150611513565b5090565b5b8082111561150f5760008155600101611514565b600060208284031215611539578081fd5b813561154481611a8f565b9392505050565b60006020828403121561155c578081fd5b815161154481611a8f565b600060208284031215611578578081fd5b813560048110611544578182fd5b600060208284031215611597578081fd5b813567ffffffffffffffff808211156115ae578283fd5b818401915084601f8301126115c1578283fd5b8135818111156115d3576115d3611a79565b604051601f8201601f19908116603f011681019083821181831017156115fb576115fb611a79565b81604052828152876020848701011115611613578586fd5b826020860160208301379182016020019490945295945050505050565b600060208284031215611641578081fd5b5051919050565b6000815180845260208085019450808401835b838110156116805781516001600160a01b03168752958201959082019060010161165b565b509495945050505050565b6004811061169b5761169b611a63565b9052565b60008151808452815b818110156116c4576020818501810151868301820152016116a8565b818111156116d55782602083870101525b50601f01601f19169290920160200192915050565b61170a82825180516001600160a01b031682526020908101511515910152565b60208181015180516001600160a01b03166040850152908101511515606084015250604081015180516001600160a01b031660808401526020810151151560a0840152506060015180516001600160a01b031660c083015260200151151560e090910152565b60208101600c831061178457611784611a63565b91905290565b60208101611798828461168b565b92915050565b602081016011831061178457611784611a63565b60208152600082516103208060208501526117d161034085018361169f565b915060208501516117e5604086018261168b565b5060408501518015156060860152506060850151601f1980868503016080870152611810848361169f565b9350608087015160a087015260a087015160c087015260c08701519150808685030160e0870152611841848361169f565b935060e08701519150610100611859818801846116ea565b80880151925050610200818786030181880152611876858461169f565b945061012088015192506102208381890152610140890151935082888703016102408901526118a5868561169f565b9550610160890151935082888703016102608901526118c4868561169f565b9550610180890151935082888703016102808901526118e3868561169f565b95506101a0890151935082888703016102a08901526119028685611648565b95506101c0890151935082888703016102c0890152611921868561169f565b95506101e0890151935082888703016102e0890152611940868561169f565b9550818901519350828887030161030089015261195d868561169f565b98015196909301959095525093949350505050565b81516001600160a01b0316815260208083015115159082015260408101611798565b600082198211156119a7576119a7611a4d565b500190565b60008160001904831182151516156119c6576119c6611a4d565b500290565b600063ffffffff808316818516818304811182151516156119ee576119ee611a4d565b02949350505050565b600181811c90821680611a0b57607f821691505b60208210811415611a2c57634e487b7160e01b600052602260045260246000fd5b50919050565b6000600019821415611a4657611a46611a4d565b5060010190565b634e487b7160e01b600052601160045260246000fd5b634e487b7160e01b600052602160045260246000fd5b634e487b7160e01b600052604160045260246000fd5b6001600160a01b0381168114611aa457600080fd5b5056fea264697066735822122013b0f3e07a2e91b96a1011fdc93ce9f5bde9a7ec060f33bf208c534925949a4164736f6c63430008040033a2646970667358221220741270d3fe0eb590397314e61bed1c47b8a1de10eb6b51e33ae32347916ccca864736f6c63430008040033",
  "linkReferences": {},
  "deployedLinkReferences": {}
}