{
  "_format": "hh-sol-artifact-1",
  "contractName": "Offers",
  "sourceName": "contracts/Offers.sol",
  "abi": [
    {
      "anonymous": false,
      "inputs": [
        {
          "indexed": true,
          "internalType": "address",
          "name": "creator",
          "type": "address"
        },
        {
          "indexed": true,
          "internalType": "bytes32",
          "name": "externalId",
          "type": "bytes32"
        },
        {
          "indexed": true,
          "internalType": "uint256",
          "name": "offerId",
          "type": "uint256"
        }
      ],
      "name": "OfferCreated",
      "type": "event"
    },
    {
      "anonymous": false,
      "inputs": [
        {
          "indexed": true,
          "internalType": "address",
          "name": "providerAuth",
          "type": "address"
        },
        {
          "indexed": true,
          "internalType": "uint256",
          "name": "offerId",
          "type": "uint256"
        },
        {
          "indexed": true,
          "internalType": "enum OfferType",
          "name": "offerType",
          "type": "uint8"
        }
      ],
      "name": "OfferDisabled",
      "type": "event"
    },
    {
      "anonymous": false,
      "inputs": [
        {
          "indexed": true,
          "internalType": "address",
          "name": "providerAuth",
          "type": "address"
        },
        {
          "indexed": true,
          "internalType": "uint256",
          "name": "offerId",
          "type": "uint256"
        },
        {
          "indexed": true,
          "internalType": "enum OfferType",
          "name": "offerType",
          "type": "uint8"
        }
      ],
      "name": "OfferEnabled",
      "type": "event"
    },
    {
      "anonymous": false,
      "inputs": [
        {
          "indexed": true,
          "internalType": "address",
          "name": "creator",
          "type": "address"
        },
        {
          "indexed": true,
          "internalType": "bytes32",
          "name": "externalId",
          "type": "bytes32"
        },
        {
          "indexed": true,
          "internalType": "uint256",
          "name": "offerId",
          "type": "uint256"
        }
      ],
      "name": "TeeOfferCreated",
      "type": "event"
    },
    {
      "anonymous": false,
      "inputs": [
        {
          "indexed": true,
          "internalType": "address",
          "name": "providerAuth",
          "type": "address"
        },
        {
          "indexed": true,
          "internalType": "uint256",
          "name": "offerId",
          "type": "uint256"
        },
        {
          "indexed": false,
          "internalType": "uint256",
          "name": "violationRate",
          "type": "uint256"
        }
      ],
      "name": "TeeOfferViolationRateChanged",
      "type": "event"
    },
    {
      "inputs": [
        {
          "internalType": "address",
          "name": "providerAuth",
          "type": "address"
        },
        {
          "components": [
            {
              "internalType": "string",
              "name": "name",
              "type": "string"
            },
            {
              "internalType": "string",
              "name": "description",
              "type": "string"
            },
            {
              "internalType": "string",
              "name": "teeType",
              "type": "string"
            },
            {
              "internalType": "uint32",
              "name": "slots",
              "type": "uint32"
            },
            {
              "internalType": "uint64",
              "name": "minTimeMinutes",
              "type": "uint64"
            },
            {
              "internalType": "string",
              "name": "properties",
              "type": "string"
            },
            {
              "internalType": "address",
              "name": "tcb",
              "type": "address"
            },
            {
              "internalType": "string",
              "name": "tlb",
              "type": "string"
            },
            {
              "internalType": "string",
              "name": "argsPublicKey",
              "type": "string"
            }
          ],
          "internalType": "struct TeeOfferInfo",
          "name": "info",
          "type": "tuple"
        },
        {
          "internalType": "bytes32",
          "name": "externalId",
          "type": "bytes32"
        }
      ],
      "name": "createTeeOffer",
      "outputs": [],
      "stateMutability": "nonpayable",
      "type": "function"
    },
    {
      "inputs": [
        {
          "internalType": "address",
          "name": "providerAuth",
          "type": "address"
        },
        {
          "components": [
            {
              "internalType": "string",
              "name": "name",
              "type": "string"
            },
            {
              "internalType": "enum OfferGroup",
              "name": "group",
              "type": "uint8"
            },
            {
              "internalType": "enum OfferType",
              "name": "offerType",
              "type": "uint8"
            },
            {
              "internalType": "bool",
              "name": "cancelable",
              "type": "bool"
            },
            {
              "internalType": "string",
              "name": "description",
              "type": "string"
            },
            {
              "internalType": "uint256",
              "name": "holdSum",
              "type": "uint256"
            },
            {
              "components": [
                {
                  "internalType": "uint256[]",
                  "name": "offers",
                  "type": "uint256[]"
                },
                {
                  "internalType": "enum OfferType[]",
                  "name": "types",
                  "type": "uint8[]"
                }
              ],
              "internalType": "struct OfferRestrictions",
              "name": "restrictions",
              "type": "tuple"
            },
            {
              "internalType": "string",
              "name": "properties",
              "type": "string"
            },
            {
              "internalType": "uint256",
              "name": "maxDurationTimeMinutes",
              "type": "uint256"
            },
            {
              "internalType": "string",
              "name": "input",
              "type": "string"
            },
            {
              "internalType": "string",
              "name": "output",
              "type": "string"
            },
            {
              "internalType": "string",
              "name": "allowedArgs",
              "type": "string"
            },
            {
              "internalType": "address[]",
              "name": "allowedAccounts",
              "type": "address[]"
            },
            {
              "internalType": "string",
              "name": "argsPublicKey",
              "type": "string"
            },
            {
              "internalType": "string",
              "name": "resultUrl",
              "type": "string"
            },
            {
              "internalType": "string",
              "name": "linkage",
              "type": "string"
            },
            {
              "internalType": "string",
              "name": "hash",
              "type": "string"
            }
          ],
          "internalType": "struct ValueOfferInfo",
          "name": "info",
          "type": "tuple"
        },
        {
          "internalType": "bytes32",
          "name": "externalId",
          "type": "bytes32"
        }
      ],
      "name": "createValueOffer",
      "outputs": [],
      "stateMutability": "nonpayable",
      "type": "function"
    },
    {
      "inputs": [
        {
          "internalType": "uint256",
          "name": "offerId",
          "type": "uint256"
        }
      ],
      "name": "disableOffer",
      "outputs": [],
      "stateMutability": "nonpayable",
      "type": "function"
    },
    {
      "inputs": [
        {
          "internalType": "uint256",
          "name": "offerId",
          "type": "uint256"
        }
      ],
      "name": "enableOffer",
      "outputs": [],
      "stateMutability": "nonpayable",
      "type": "function"
    },
    {
      "inputs": [
        {
          "internalType": "uint256",
          "name": "offerId",
          "type": "uint256"
        },
        {
          "internalType": "uint256",
          "name": "startDate",
          "type": "uint256"
        },
        {
          "internalType": "uint256",
          "name": "orderPrice",
          "type": "uint256"
        }
      ],
      "name": "getOfferClosingPrice",
      "outputs": [
        {
          "internalType": "uint256",
          "name": "",
          "type": "uint256"
        }
      ],
      "stateMutability": "view",
      "type": "function"
    },
    {
      "inputs": [
        {
          "internalType": "uint256",
          "name": "offerId",
          "type": "uint256"
        }
      ],
      "name": "getOfferDisabledAfter",
      "outputs": [
        {
          "internalType": "uint256",
          "name": "",
          "type": "uint256"
        }
      ],
      "stateMutability": "view",
      "type": "function"
    },
    {
      "inputs": [
        {
          "internalType": "uint256",
          "name": "offerId",
          "type": "uint256"
        }
      ],
      "name": "getOfferGroup",
      "outputs": [
        {
          "internalType": "enum OfferGroup",
          "name": "",
          "type": "uint8"
        }
      ],
      "stateMutability": "view",
      "type": "function"
    },
    {
      "inputs": [
        {
          "internalType": "uint256",
          "name": "offerId",
          "type": "uint256"
        }
      ],
      "name": "getOfferHoldDeposit",
      "outputs": [
        {
          "internalType": "uint256",
          "name": "",
          "type": "uint256"
        }
      ],
      "stateMutability": "view",
      "type": "function"
    },
    {
      "inputs": [
        {
          "internalType": "uint256",
          "name": "offerId",
          "type": "uint256"
        }
      ],
      "name": "getOfferOrigins",
      "outputs": [
        {
          "components": [
            {
              "internalType": "uint256",
              "name": "createdDate",
              "type": "uint256"
            },
            {
              "internalType": "address",
              "name": "createdBy",
              "type": "address"
            },
            {
              "internalType": "uint256",
              "name": "modifiedDate",
              "type": "uint256"
            },
            {
              "internalType": "address",
              "name": "modifiedBy",
              "type": "address"
            }
          ],
          "internalType": "struct Origins",
          "name": "",
          "type": "tuple"
        }
      ],
      "stateMutability": "view",
      "type": "function"
    },
    {
      "inputs": [
        {
          "internalType": "uint256",
          "name": "offerId",
          "type": "uint256"
        }
      ],
      "name": "getOfferProviderAuthority",
      "outputs": [
        {
          "internalType": "address",
          "name": "",
          "type": "address"
        }
      ],
      "stateMutability": "view",
      "type": "function"
    },
    {
      "inputs": [
        {
          "internalType": "uint256",
          "name": "offerId",
          "type": "uint256"
        }
      ],
      "name": "getOfferType",
      "outputs": [
        {
          "internalType": "enum OfferType",
          "name": "",
          "type": "uint8"
        }
      ],
      "stateMutability": "view",
      "type": "function"
    },
    {
      "inputs": [],
      "name": "getOffersCount",
      "outputs": [
        {
          "internalType": "uint256",
          "name": "",
          "type": "uint256"
        }
      ],
      "stateMutability": "view",
      "type": "function"
    },
    {
      "inputs": [
        {
          "internalType": "uint256",
          "name": "offerId",
          "type": "uint256"
        }
      ],
      "name": "getTeeOffer",
      "outputs": [
        {
          "components": [
            {
              "internalType": "string",
              "name": "name",
              "type": "string"
            },
            {
              "internalType": "string",
              "name": "description",
              "type": "string"
            },
            {
              "internalType": "string",
              "name": "teeType",
              "type": "string"
            },
            {
              "internalType": "uint32",
              "name": "slots",
              "type": "uint32"
            },
            {
              "internalType": "uint64",
              "name": "minTimeMinutes",
              "type": "uint64"
            },
            {
              "internalType": "string",
              "name": "properties",
              "type": "string"
            },
            {
              "internalType": "address",
              "name": "tcb",
              "type": "address"
            },
            {
              "internalType": "string",
              "name": "tlb",
              "type": "string"
            },
            {
              "internalType": "string",
              "name": "argsPublicKey",
              "type": "string"
            }
          ],
          "internalType": "struct TeeOfferInfo",
          "name": "",
          "type": "tuple"
        },
        {
          "internalType": "address",
          "name": "",
          "type": "address"
        },
        {
          "internalType": "uint256",
          "name": "",
          "type": "uint256"
        }
      ],
      "stateMutability": "view",
      "type": "function"
    },
    {
      "inputs": [
        {
          "internalType": "uint256",
          "name": "offerId",
          "type": "uint256"
        }
      ],
      "name": "getTeeOfferLastTcbReward",
      "outputs": [
        {
          "internalType": "uint256",
          "name": "",
          "type": "uint256"
        }
      ],
      "stateMutability": "view",
      "type": "function"
    },
    {
      "inputs": [
        {
          "internalType": "uint256",
          "name": "offerId",
          "type": "uint256"
        }
      ],
      "name": "getTeeOfferViolationRate",
      "outputs": [
        {
          "internalType": "uint256",
          "name": "",
          "type": "uint256"
        }
      ],
      "stateMutability": "view",
      "type": "function"
    },
    {
      "inputs": [
        {
          "internalType": "uint256",
          "name": "offerId",
          "type": "uint256"
        }
      ],
      "name": "getValueOffer",
      "outputs": [
        {
          "components": [
            {
              "internalType": "string",
              "name": "name",
              "type": "string"
            },
            {
              "internalType": "enum OfferGroup",
              "name": "group",
              "type": "uint8"
            },
            {
              "internalType": "enum OfferType",
              "name": "offerType",
              "type": "uint8"
            },
            {
              "internalType": "bool",
              "name": "cancelable",
              "type": "bool"
            },
            {
              "internalType": "string",
              "name": "description",
              "type": "string"
            },
            {
              "internalType": "uint256",
              "name": "holdSum",
              "type": "uint256"
            },
            {
              "components": [
                {
                  "internalType": "uint256[]",
                  "name": "offers",
                  "type": "uint256[]"
                },
                {
                  "internalType": "enum OfferType[]",
                  "name": "types",
                  "type": "uint8[]"
                }
              ],
              "internalType": "struct OfferRestrictions",
              "name": "restrictions",
              "type": "tuple"
            },
            {
              "internalType": "string",
              "name": "properties",
              "type": "string"
            },
            {
              "internalType": "uint256",
              "name": "maxDurationTimeMinutes",
              "type": "uint256"
            },
            {
              "internalType": "string",
              "name": "input",
              "type": "string"
            },
            {
              "internalType": "string",
              "name": "output",
              "type": "string"
            },
            {
              "internalType": "string",
              "name": "allowedArgs",
              "type": "string"
            },
            {
              "internalType": "address[]",
              "name": "allowedAccounts",
              "type": "address[]"
            },
            {
              "internalType": "string",
              "name": "argsPublicKey",
              "type": "string"
            },
            {
              "internalType": "string",
              "name": "resultUrl",
              "type": "string"
            },
            {
              "internalType": "string",
              "name": "linkage",
              "type": "string"
            },
            {
              "internalType": "string",
              "name": "hash",
              "type": "string"
            }
          ],
          "internalType": "struct ValueOfferInfo",
          "name": "",
          "type": "tuple"
        },
        {
          "internalType": "address",
          "name": "",
          "type": "address"
        },
        {
          "internalType": "uint256",
          "name": "",
          "type": "uint256"
        }
      ],
      "stateMutability": "view",
      "type": "function"
    },
    {
      "inputs": [
        {
          "internalType": "uint256",
          "name": "offerId",
          "type": "uint256"
        }
      ],
      "name": "incrTeeOfferViolationRate",
      "outputs": [],
      "stateMutability": "nonpayable",
      "type": "function"
    },
    {
      "inputs": [
        {
          "internalType": "uint256",
          "name": "offerId",
          "type": "uint256"
        },
        {
          "internalType": "address",
          "name": "consumer",
          "type": "address"
        }
      ],
      "name": "isOfferAllowedForConsumer",
      "outputs": [
        {
          "internalType": "bool",
          "name": "",
          "type": "bool"
        }
      ],
      "stateMutability": "view",
      "type": "function"
    },
    {
      "inputs": [
        {
          "internalType": "uint256",
          "name": "offerId",
          "type": "uint256"
        }
      ],
      "name": "isOfferCancelable",
      "outputs": [
        {
          "internalType": "bool",
          "name": "",
          "type": "bool"
        }
      ],
      "stateMutability": "view",
      "type": "function"
    },
    {
      "inputs": [
        {
          "internalType": "uint256",
          "name": "offerId",
          "type": "uint256"
        }
      ],
      "name": "isOfferEnabled",
      "outputs": [
        {
          "internalType": "bool",
          "name": "",
          "type": "bool"
        }
      ],
      "stateMutability": "view",
      "type": "function"
    },
    {
      "inputs": [
        {
          "internalType": "uint256",
          "name": "offerId",
          "type": "uint256"
        },
        {
          "internalType": "enum OfferType",
          "name": "offerType",
          "type": "uint8"
        }
      ],
      "name": "isOfferRestrictedByOfferType",
      "outputs": [
        {
          "internalType": "bool",
          "name": "",
          "type": "bool"
        }
      ],
      "stateMutability": "view",
      "type": "function"
    },
    {
      "inputs": [
        {
          "internalType": "uint256",
          "name": "offerId",
          "type": "uint256"
        },
        {
          "internalType": "uint256",
          "name": "otherOfferId",
          "type": "uint256"
        }
      ],
      "name": "isOfferRestrictionsPermitOtherOffer",
      "outputs": [
        {
          "internalType": "bool",
          "name": "",
          "type": "bool"
        }
      ],
      "stateMutability": "view",
      "type": "function"
    },
    {
      "inputs": [
        {
          "internalType": "uint256",
          "name": "offerId",
          "type": "uint256"
        },
        {
          "internalType": "string",
          "name": "description",
          "type": "string"
        }
      ],
      "name": "setOfferDescription",
      "outputs": [],
      "stateMutability": "nonpayable",
      "type": "function"
    },
    {
      "inputs": [
        {
          "internalType": "uint256",
          "name": "offerId",
          "type": "uint256"
        },
        {
          "internalType": "string",
          "name": "name",
          "type": "string"
        }
      ],
      "name": "setOfferName",
      "outputs": [],
      "stateMutability": "nonpayable",
      "type": "function"
    },
    {
      "inputs": [
        {
          "internalType": "uint256",
          "name": "offerId",
          "type": "uint256"
        },
        {
          "internalType": "string",
          "name": "publicKey",
          "type": "string"
        }
      ],
      "name": "setOfferPublicKey",
      "outputs": [],
      "stateMutability": "nonpayable",
      "type": "function"
    },
    {
      "inputs": [
        {
          "internalType": "uint256",
          "name": "offerId",
          "type": "uint256"
        },
        {
          "internalType": "string",
          "name": "tlb",
          "type": "string"
        }
      ],
      "name": "setTeeOfferTlb",
      "outputs": [],
      "stateMutability": "nonpayable",
      "type": "function"
    }
  ],
  "bytecode": "0x608060405234801561001057600080fd5b5061495a806100206000396000f3fe608060405234801561001057600080fd5b50600436106101ae5760003560e01c80637bdd4078116100ee578063cc04f00311610097578063d9841bc611610071578063d9841bc614610480578063e51334fb14610493578063e8e8ad4e146104a6578063fa06374b146104b957600080fd5b8063cc04f00314610447578063d35c85d31461045a578063d43d0f411461046d57600080fd5b8063b473aaaa116100c8578063b473aaaa1461040e578063b8c4e81714610421578063b98c9f3e1461043457600080fd5b80637bdd4078146103c65780638442090a146103d9578063a356088d146103ec57600080fd5b80633835b0d31161015b57806350dc7eef1161013557806350dc7eef1461031c5780635ca1b89f1461032f5780635ddc0ba2146103845780636165696f146103a657600080fd5b80633835b0d31461027b5780634202334f146102b85780634e6e04f7146102cb57600080fd5b8063238586841161018c578063238586841461022c578063295a9e621461023f5780632f2e7b751461025457600080fd5b80630b82a0ce146101b35780631e5dd86b146101d95780631e7adb9d146101fc575b600080fd5b6101c66101c1366004613a46565b6104cc565b6040519081526020015b60405180910390f35b6101ec6101e7366004613a73565b61051d565b60405190151581526020016101d0565b6101c661020a366004613a46565b60009081526000805160206148e5833981519152602052604090206006015490565b6101c661023a366004613a46565b6105c9565b61025261024d366004613bc7565b61062f565b005b7fa15d1660ecf4f4c2ac27ec148e6bb28bae19d84f4ea12b71b4576a040a68ee84546101c6565b6102ab610289366004613a46565b60009081526000805160206148e5833981519152602052604090205460ff1690565b6040516101d09190613c38565b6101ec6102c6366004613c69565b610817565b6103046102d9366004613a46565b60009081526000805160206148e583398151915260205260409020600501546001600160a01b031690565b6040516001600160a01b0390911681526020016101d0565b61025261032a366004613cc5565b6108fe565b61034261033d366004613a46565b610f69565b6040516101d09190815181526020808301516001600160a01b039081169183019190915260408084015190830152606092830151169181019190915260800190565b610397610392366004613a46565b610ff4565b6040516101d093929190613e87565b6103b96103b4366004613a46565b61148b565b6040516101d09190613fc0565b6102526103d4366004613a46565b6114f4565b6101ec6103e7366004613a46565b6117ff565b6103ff6103fa366004613a46565b61186e565b6040516101d09392919061409e565b61025261041c36600461443f565b611fee565b6101c661042f366004613a46565b6127a9565b6101c6610442366004614689565b612854565b6101ec6104553660046146b5565b6129c1565b610252610468366004613a46565b612a70565b61025261047b366004613bc7565b612cd7565b61025261048e366004613bc7565b612ea4565b6101ec6104a1366004613a46565b6130e8565b6102526104b4366004613bc7565b61311c565b6102526104c7366004613a46565b6132ec565b60008181527fa15d1660ecf4f4c2ac27ec148e6bb28bae19d84f4ea12b71b4576a040a68ee876020526040812060068101546001600160a01b03166105145750600092915050565b50600092915050565b60008281526000805160206149058339815191526020526040812080601101600084600381111561055057610550613c0e565b600381111561056157610561613c0e565b815260208101919091526040016000205460ff16806105bf57506105bd81601001600085600381111561059657610596613c0e565b60038111156105a7576105a7613c0e565b8152602001908152602001600020600101541590565b155b9150505b92915050565b60008181526000805160206148e5833981519152602052604081206000815460ff1660038111156105fc576105fc613c0e565b141561060b5750600092915050565b50506000908152600080516020614905833981519152602052604090206003015490565b60008281526000805160206148e583398151915260205260408120839150600030600583015460405163071ddd6760e11b81526001600160a01b039182166004820152911690630e3bbace9060240160206040518083038186803b15801561069657600080fd5b505afa1580156106aa573d6000803e3d6000fd5b505050506040513d601f19601f820116820180604052508101906106ce91906146d7565b90506001600160a01b03811633146107375760405162461bcd60e51b815260206004820152602160248201527f4f6e6c7920617661696c61626c6520666f7220616374696f6e206163636f756e6044820152601d60fa1b60648201526084015b60405180910390fd5b60008581526000805160206148e5833981519152602052604090204260038201556004810180546001600160a01b0319163317905585906000815460ff16600381111561078657610786613c0e565b14156107d85760008781527fa15d1660ecf4f4c2ac27ec148e6bb28bae19d84f4ea12b71b4576a040a68ee876020526040812087519091506107d190600883019060208a01906137cd565b505061080e565b600087815260008051602061490583398151915260205260408120875190915061080b90600c83019060208a01906137cd565b50505b50505050505050565b60008281526000805160206148e5833981519152602052604081206000815460ff16600381111561084a5761084a613c0e565b141561085a5760019150506105c3565b600084815260008051602061490583398151915260205260409020600b810154610889576001925050506105c3565b60005b600b8201548110156108f257600082600001600b0182815481106108b2576108b26146f4565b6000918252602090912001546001600160a01b03908116915086168114156108e15760019450505050506105c3565b506108eb81614720565b905061088c565b50600095945050505050565b30604051630f56c8a760e11b81526001600160a01b0385811660048301529190911690631ead914e9060240160206040518083038186803b15801561094257600080fd5b505afa158015610956573d6000803e3d6000fd5b505050506040513d601f19601f8201168201806040525081019061097a919061473b565b6109c65760405162461bcd60e51b815260206004820152601a60248201527f50726f7669646572206973206e6f742072656769737465726564000000000000604482015260640161072e565b3060405163b6dd45ff60e01b81526001600160a01b038581166004830152919091169063b6dd45ff90602401600060405180830381600087803b158015610a0c57600080fd5b505af1158015610a20573d6000803e3d6000fd5b505050506000610a2d3090565b6001600160a01b031663897ce7cf60056040518263ffffffff1660e01b8152600401610a599190614758565b60206040518083038186803b158015610a7157600080fd5b505afa158015610a85573d6000803e3d6000fd5b505050506040513d601f19601f82011682018060405250810190610aa99190614772565b905060003060405163d8a2d2c560e01b81526001600160a01b038781166004830152919091169063d8a2d2c59060240160206040518083038186803b158015610af157600080fd5b505afa158015610b05573d6000803e3d6000fd5b505050506040513d601f19601f82011682018060405250810190610b299190614772565b90506000306040516305e0d9bd60e31b81526001600160a01b038881166004830152602482018690529190911690632f06cde89060440160206040518083038186803b158015610b7857600080fd5b505afa158015610b8c573d6000803e3d6000fd5b505050506040513d601f19601f82011682018060405250810190610bb09190614772565b9050333060405163071ddd6760e11b81526001600160a01b0389811660048301529190911690630e3bbace9060240160206040518083038186803b158015610bf757600080fd5b505afa158015610c0b573d6000803e3d6000fd5b505050506040513d601f19601f82011682018060405250810190610c2f91906146d7565b6001600160a01b031614610c8f5760405162461bcd60e51b815260206004820152602160248201527f4f6e6c7920617661696c61626c6520666f7220616374696f6e206163636f756e6044820152601d60fa1b606482015260840161072e565b80821015610d055760405162461bcd60e51b815260206004820152602360248201527f5365637572697479206465706f73697420697320746f6f20736d616c6c20287460448201527f6565290000000000000000000000000000000000000000000000000000000000606482015260840161072e565b6000610d0f613459565b60008181526000805160206148e58339815191526020526040812091925090805460ff191681556005810180546001600160a01b03199081166001600160a01b038c16179091554260018301819055600283018054339084168117909155600384019190915560048301805490921617905560008381527fa15d1660ecf4f4c2ac27ec148e6bb28bae19d84f4ea12b71b4576a040a68ee8760205260408120919250908851805191925089916001840191610dcf918391602001906137cd565b506020828101518051610de892600185019201906137cd565b5060408201518051610e049160028401916020909101906137cd565b506060820151600382018054608085015167ffffffffffffffff16640100000000026bffffffffffffffffffffffff1990911663ffffffff9093169290921791909117905560a08201518051610e649160048401916020909101906137cd565b5060c08201516005820180546001600160a01b0319166001600160a01b0390921691909117905560e08201518051610ea69160068401916020909101906137cd565b506101008201518051610ec39160078401916020909101906137cd565b50905050610ece3090565b6001600160a01b031663fa8e245e8a8560006040518463ffffffff1660e01b8152600401610efe9392919061478b565b600060405180830381600087803b158015610f1857600080fd5b505af1158015610f2c573d6000803e3d6000fd5b505060405185925089915033907e5df092672da531405626f5263533cfa98d929d57b194c31fb6fed2cbc929db90600090a4505050505050505050565b604080516080810182526000808252602082018190529181018290526060810182905290610faf8360009081526000805160206148e58339815191526020526040902090565b604080516080810182526001830154815260028301546001600160a01b0390811660208301526003840154928201929092526004909201541660608201529392505050565b61105c604051806101200160405280606081526020016060815260200160608152602001600063ffffffff168152602001600067ffffffffffffffff1681526020016060815260200160006001600160a01b0316815260200160608152602001606081525090565b60008281526000805160206148e5833981519152602090815260408083207fa15d1660ecf4f4c2ac27ec148e6bb28bae19d84f4ea12b71b4576a040a68ee87909252808320600583015460068401548351610120810190945260018301805487969591936001600160a01b03169291908490829082906110db906147b7565b80601f0160208091040260200160405190810160405280929190818152602001828054611107906147b7565b80156111545780601f1061112957610100808354040283529160200191611154565b820191906000526020600020905b81548152906001019060200180831161113757829003601f168201915b5050505050815260200160018201805461116d906147b7565b80601f0160208091040260200160405190810160405280929190818152602001828054611199906147b7565b80156111e65780601f106111bb576101008083540402835291602001916111e6565b820191906000526020600020905b8154815290600101906020018083116111c957829003601f168201915b505050505081526020016002820180546111ff906147b7565b80601f016020809104026020016040519081016040528092919081815260200182805461122b906147b7565b80156112785780601f1061124d57610100808354040283529160200191611278565b820191906000526020600020905b81548152906001019060200180831161125b57829003601f168201915b5050509183525050600382015463ffffffff81166020830152640100000000900467ffffffffffffffff1660408201526004820180546060909201916112bd906147b7565b80601f01602080910402602001604051908101604052809291908181526020018280546112e9906147b7565b80156113365780601f1061130b57610100808354040283529160200191611336565b820191906000526020600020905b81548152906001019060200180831161131957829003601f168201915b505050918352505060058201546001600160a01b03166020820152600682018054604090920191611366906147b7565b80601f0160208091040260200160405190810160405280929190818152602001828054611392906147b7565b80156113df5780601f106113b4576101008083540402835291602001916113df565b820191906000526020600020905b8154815290600101906020018083116113c257829003601f168201915b505050505081526020016007820180546113f8906147b7565b80601f0160208091040260200160405190810160405280929190818152602001828054611424906147b7565b80156114715780601f1061144657610100808354040283529160200191611471565b820191906000526020600020905b81548152906001019060200180831161145457829003601f168201915b505050505081525050925094509450945050509193909250565b60008181526000805160206148e5833981519152602052604081206000815460ff1660038111156114be576114be613c0e565b14156114cd5750600192915050565b50506000908152600080516020614905833981519152602052604090206001015460ff1690565b60008181526000805160206148e583398151915260205260408120829150600030600583015460405163071ddd6760e11b81526001600160a01b039182166004820152911690630e3bbace9060240160206040518083038186803b15801561155b57600080fd5b505afa15801561156f573d6000803e3d6000fd5b505050506040513d601f19601f8201168201806040525081019061159391906146d7565b90506001600160a01b03811633146115f75760405162461bcd60e51b815260206004820152602160248201527f4f6e6c7920617661696c61626c6520666f7220616374696f6e206163636f756e6044820152601d60fa1b606482015260840161072e565b60008481526000805160206148e5833981519152602052604090206006810154859190156116675760405162461bcd60e51b815260206004820152601960248201527f4f6666657220697320616c72656164792064697361626c656400000000000000604482015260640161072e565b6116898160010142600282015560030180546001600160a01b03191633179055565b6040517f897ce7cf0000000000000000000000000000000000000000000000000000000081526201518090309063897ce7cf906116ca906004908101614758565b60206040518083038186803b1580156116e257600080fd5b505afa1580156116f6573d6000803e3d6000fd5b505050506040513d601f19601f8201168201806040525081019061171a9190614772565b61172491906147f2565b61172e9042614811565b600682018190556005820154825460405163a4f48e3d60e01b8152309363a4f48e3d93611774936001600160a01b03909116928c9260ff90921691600091600401614829565b600060405180830381600087803b15801561178e57600080fd5b505af11580156117a2573d6000803e3d6000fd5b5050825460ff1691505060038111156117bd576117bd613c0e565b600582015460405188916001600160a01b0316907fda3cf25191e5eec59245d2d16a2d74a4155ebaa61176cc6b1309fa508d0984f090600090a4505050505050565b60008181526000805160206148e5833981519152602052604081206000815460ff16600381111561183257611832613c0e565b14156118415750600192915050565b50506000908152600080516020614905833981519152602052604090206001015462010000900460ff1690565b611876613851565b60008281526000805160206148e5833981519152602090815260408083206000805160206149058339815191529092528083206005830154600684015483516102208101909452825486959484936001600160a01b031692918490829082906118de906147b7565b80601f016020809104026020016040519081016040528092919081815260200182805461190a906147b7565b80156119575780601f1061192c57610100808354040283529160200191611957565b820191906000526020600020905b81548152906001019060200180831161193a57829003601f168201915b5050509183525050600182015460209091019060ff16600281111561197e5761197e613c0e565b600281111561198f5761198f613c0e565b81526020016001820160019054906101000a900460ff1660038111156119b7576119b7613c0e565b60038111156119c8576119c8613c0e565b8152600182015462010000900460ff16151560208201526002820180546040909201916119f4906147b7565b80601f0160208091040260200160405190810160405280929190818152602001828054611a20906147b7565b8015611a6d5780601f10611a4257610100808354040283529160200191611a6d565b820191906000526020600020905b815481529060010190602001808311611a5057829003601f168201915b50505050508152602001600382015481526020016004820160405180604001604052908160008201805480602002602001604051908101604052809291908181526020018280548015611adf57602002820191906000526020600020905b815481526020019060010190808311611acb575b5050505050815260200160018201805480602002602001604051908101604052809291908181526020018280548015611b6757602002820191906000526020600020906000905b82829054906101000a900460ff166003811115611b4557611b45613c0e565b815260206001928301818104948501949093039092029101808411611b265790505b5050505050815250508152602001600682018054611b84906147b7565b80601f0160208091040260200160405190810160405280929190818152602001828054611bb0906147b7565b8015611bfd5780601f10611bd257610100808354040283529160200191611bfd565b820191906000526020600020905b815481529060010190602001808311611be057829003601f168201915b5050505050815260200160078201548152602001600882018054611c20906147b7565b80601f0160208091040260200160405190810160405280929190818152602001828054611c4c906147b7565b8015611c995780601f10611c6e57610100808354040283529160200191611c99565b820191906000526020600020905b815481529060010190602001808311611c7c57829003601f168201915b50505050508152602001600982018054611cb2906147b7565b80601f0160208091040260200160405190810160405280929190818152602001828054611cde906147b7565b8015611d2b5780601f10611d0057610100808354040283529160200191611d2b565b820191906000526020600020905b815481529060010190602001808311611d0e57829003601f168201915b50505050508152602001600a82018054611d44906147b7565b80601f0160208091040260200160405190810160405280929190818152602001828054611d70906147b7565b8015611dbd5780601f10611d9257610100808354040283529160200191611dbd565b820191906000526020600020905b815481529060010190602001808311611da057829003601f168201915b50505050508152602001600b8201805480602002602001604051908101604052809291908181526020018280548015611e1f57602002820191906000526020600020905b81546001600160a01b03168152600190910190602001808311611e01575b50505050508152602001600c82018054611e38906147b7565b80601f0160208091040260200160405190810160405280929190818152602001828054611e64906147b7565b8015611eb15780601f10611e8657610100808354040283529160200191611eb1565b820191906000526020600020905b815481529060010190602001808311611e9457829003601f168201915b50505050508152602001600d82018054611eca906147b7565b80601f0160208091040260200160405190810160405280929190818152602001828054611ef6906147b7565b8015611f435780601f10611f1857610100808354040283529160200191611f43565b820191906000526020600020905b815481529060010190602001808311611f2657829003601f168201915b50505050508152602001600e82018054611f5c906147b7565b80601f0160208091040260200160405190810160405280929190818152602001828054611f88906147b7565b8015611fd55780601f10611faa57610100808354040283529160200191611fd5565b820191906000526020600020905b815481529060010190602001808311611fb857829003601f168201915b50505050508152602001600f820180546113f8906147b7565b30604051630f56c8a760e11b81526001600160a01b0385811660048301529190911690631ead914e9060240160206040518083038186803b15801561203257600080fd5b505afa158015612046573d6000803e3d6000fd5b505050506040513d601f19601f8201168201806040525081019061206a919061473b565b6120b65760405162461bcd60e51b815260206004820152601a60248201527f50726f7669646572206973206e6f742072656769737465726564000000000000604482015260640161072e565b3060405163b6dd45ff60e01b81526001600160a01b038581166004830152919091169063b6dd45ff90602401600060405180830381600087803b1580156120fc57600080fd5b505af1158015612110573d6000803e3d6000fd5b50505050600061211d3090565b6001600160a01b031663897ce7cf60066040518263ffffffff1660e01b81526004016121499190614758565b60206040518083038186803b15801561216157600080fd5b505afa158015612175573d6000803e3d6000fd5b505050506040513d601f19601f820116820180604052508101906121999190614772565b905060003060405163d8a2d2c560e01b81526001600160a01b038781166004830152919091169063d8a2d2c59060240160206040518083038186803b1580156121e157600080fd5b505afa1580156121f5573d6000803e3d6000fd5b505050506040513d601f19601f820116820180604052508101906122199190614772565b90506000306040516305e0d9bd60e31b81526001600160a01b038881166004830152602482018690529190911690632f06cde89060440160206040518083038186803b15801561226857600080fd5b505afa15801561227c573d6000803e3d6000fd5b505050506040513d601f19601f820116820180604052508101906122a09190614772565b90506000856040015160038111156122ba576122ba613c0e565b14156123085760405162461bcd60e51b815260206004820152601760248201527f496e766169642076616c7565206f666665722074797065000000000000000000604482015260640161072e565b333060405163071ddd6760e11b81526001600160a01b0389811660048301529190911690630e3bbace9060240160206040518083038186803b15801561234d57600080fd5b505afa158015612361573d6000803e3d6000fd5b505050506040513d601f19601f8201168201806040525081019061238591906146d7565b6001600160a01b0316146123e55760405162461bcd60e51b815260206004820152602160248201527f4f6e6c7920617661696c61626c6520666f7220616374696f6e206163636f756e6044820152601d60fa1b606482015260840161072e565b808210156124355760405162461bcd60e51b815260206004820152601d60248201527f5365637572697479206465706f73697420697320746f6f20736d616c6c000000604482015260640161072e565b600061243f613459565b60008181526000805160206148e58339815191526020526040908190209088015181549293509091829060ff1916600183600381111561248157612481613c0e565b02179055506005810180546001600160a01b038a166001600160a01b031991821617909155426001830181905560028301805483163390811790915560038401919091556004830180549092161790556000828152600080516020614905833981519152602052604081208851805191925089918391612506918391602001906137cd565b50602082015160018083018054909160ff199091169083600281111561252e5761252e613c0e565b0217905550604082015160018201805461ff00191661010083600381111561255857612558613c0e565b02179055506060820151600182018054911515620100000262ff000019909216919091179055608082015180516125999160028401916020909101906137cd565b5060a0820151600382015560c08201518051805160048401916125c1918391602001906138f3565b5060208281015180516125da926001850192019061392d565b50505060e082015180516125f89160068401916020909101906137cd565b50610100820151600782015561012082015180516126209160088401916020909101906137cd565b50610140820151805161263d9160098401916020909101906137cd565b50610160820151805161265a91600a8401916020909101906137cd565b50610180820151805161267791600b8401916020909101906139dc565b506101a0820151805161269491600c8401916020909101906137cd565b506101c082015180516126b191600d8401916020909101906137cd565b506101e082015180516126ce91600e8401916020909101906137cd565b5061020082015180516126eb91600f8401916020909101906137cd565b509050506126f98189613497565b60408089015190517ffa8e245e000000000000000000000000000000000000000000000000000000008152309163fa8e245e9161273d918d9188919060040161478b565b600060405180830381600087803b15801561275757600080fd5b505af115801561276b573d6000803e3d6000fd5b505060405185925089915033907fe8953a36b344cf43660efc2a608b608b7635ecb16314534b98e7d5885ae4291190600090a4505050505050505050565b60008181526000805160206148e5833981519152602052604081206000815460ff1660038111156127dc576127dc613c0e565b1461281e5760405162461bcd60e51b8152602060048201526012602482015271496e76616c6964206f66666572207479706560701b604482015260640161072e565b505060009081527fa15d1660ecf4f4c2ac27ec148e6bb28bae19d84f4ea12b71b4576a040a68ee87602052604090205460ff1690565b60008381526000805160206148e5833981519152602052604081206000815460ff16600381111561288757612887613c0e565b14156129695760008581527fa15d1660ecf4f4c2ac27ec148e6bb28bae19d84f4ea12b71b4576a040a68ee8760205260408120906128c58642614860565b905060006128d4603c8361488d565b6004840154909150640100000000900467ffffffffffffffff1681101561290e57506004820154640100000000900467ffffffffffffffff165b600483015460009063ffffffff166129258a6104cc565b61292f919061488d565b90506000612941603c620151806148a1565b63ffffffff1661295183856147f2565b61295b919061488d565b96506129ba95505050505050565b6000858152600080516020614905833981519152602052604081206007810154909190429061299990603c6147f2565b6129a39088614811565b109050806129b157846129b4565b60005b93505050505b9392505050565b6000818314156129d3575060016105c3565b6000838152600080516020614905833981519152602090815260408083208584526000805160206148e583398151915290925282208054919290916010840190829060ff166003811115612a2957612a29613c0e565b6003811115612a3a57612a3a613c0e565b81526020019081526020016000209050612a5681600101541590565b80612a665750612a6681866136f7565b9695505050505050565b60008181526000805160206148e583398151915260205260408120829150600030600583015460405163071ddd6760e11b81526001600160a01b039182166004820152911690630e3bbace9060240160206040518083038186803b158015612ad757600080fd5b505afa158015612aeb573d6000803e3d6000fd5b505050506040513d601f19601f82011682018060405250810190612b0f91906146d7565b90506001600160a01b0381163314612b735760405162461bcd60e51b815260206004820152602160248201527f4f6e6c7920617661696c61626c6520666f7220616374696f6e206163636f756e6044820152601d60fa1b606482015260840161072e565b60008481526000805160206148e5833981519152602052604090206006810154859190612be25760405162461bcd60e51b815260206004820152601860248201527f4f6666657220697320616c726561647920656e61626c65640000000000000000604482015260640161072e565b612c048160010142600282015560030180546001600160a01b03191633179055565b6000600682018190556005820154825460405163a4f48e3d60e01b8152309363a4f48e3d93612c4c936001600160a01b03909116928c9260ff90921691600191600401614829565b600060405180830381600087803b158015612c6657600080fd5b505af1158015612c7a573d6000803e3d6000fd5b5050825460ff169150506003811115612c9557612c95613c0e565b600582015460405188916001600160a01b0316907ff31105f3ed0244cf1e9bc35a9bbd1d0855e47a8ab57a00f7e94b7dfa2b6ea36e90600090a4505050505050565b60008281526000805160206148e583398151915260205260408120839150600030600583015460405163071ddd6760e11b81526001600160a01b039182166004820152911690630e3bbace9060240160206040518083038186803b158015612d3e57600080fd5b505afa158015612d52573d6000803e3d6000fd5b505050506040513d601f19601f82011682018060405250810190612d7691906146d7565b90506001600160a01b0381163314612dda5760405162461bcd60e51b815260206004820152602160248201527f4f6e6c7920617661696c61626c6520666f7220616374696f6e206163636f756e6044820152601d60fa1b606482015260840161072e565b60008581526000805160206148e5833981519152602052604090204260038201556004810180546001600160a01b0319163317905585906000815460ff166003811115612e2957612e29613c0e565b1415612e745760008781527fa15d1660ecf4f4c2ac27ec148e6bb28bae19d84f4ea12b71b4576a040a68ee876020526040812087519091506107d190600183019060208a01906137cd565b600087815260008051602061490583398151915260205260408120875190915061080b90829060208a01906137cd565b60008281526000805160206148e583398151915260205260408120839150600030600583015460405163071ddd6760e11b81526001600160a01b039182166004820152911690630e3bbace9060240160206040518083038186803b158015612f0b57600080fd5b505afa158015612f1f573d6000803e3d6000fd5b505050506040513d601f19601f82011682018060405250810190612f4391906146d7565b90506001600160a01b0381163314612fa75760405162461bcd60e51b815260206004820152602160248201527f4f6e6c7920617661696c61626c6520666f7220616374696f6e206163636f756e6044820152601d60fa1b606482015260840161072e565b60008581526000805160206148e583398151915260205260408120805487929060ff166003811115612fdb57612fdb613c0e565b1461301d5760405162461bcd60e51b8152602060048201526012602482015271496e76616c6964206f66666572207479706560701b604482015260640161072e565b61303f8160010142600282015560030180546001600160a01b03191633179055565b60008781527fa15d1660ecf4f4c2ac27ec148e6bb28bae19d84f4ea12b71b4576a040a68ee8760205260409020600a81015442906130809062015180614811565b106130cd5760405162461bcd60e51b815260206004820152601460248201527f417661696c61626c65206f6e6365206120646179000000000000000000000000604482015260640161072e565b42600a820155865161080b90600783019060208a01906137cd565b60008181526000805160206148e583398151915260205260408120600681015415806129ba57506006015442111592915050565b60008281526000805160206148e583398151915260205260408120839150600030600583015460405163071ddd6760e11b81526001600160a01b039182166004820152911690630e3bbace9060240160206040518083038186803b15801561318357600080fd5b505afa158015613197573d6000803e3d6000fd5b505050506040513d601f19601f820116820180604052508101906131bb91906146d7565b90506001600160a01b038116331461321f5760405162461bcd60e51b815260206004820152602160248201527f4f6e6c7920617661696c61626c6520666f7220616374696f6e206163636f756e6044820152601d60fa1b606482015260840161072e565b60008581526000805160206148e5833981519152602052604090204260038201556004810180546001600160a01b0319163317905585906000815460ff16600381111561326e5761326e613c0e565b14156132b95760008781527fa15d1660ecf4f4c2ac27ec148e6bb28bae19d84f4ea12b71b4576a040a68ee876020526040812087519091506107d190600283019060208a01906137cd565b600087815260008051602061490583398151915260205260408120875190915061080b90600283019060208a01906137cd565b33301461333b5760405162461bcd60e51b815260206004820152601660248201527f45787465726e616c206163636573732064656e69656400000000000000000000604482015260640161072e565b60008181526000805160206148e58339815191526020526040812090506000815460ff16600381111561337057613370613c0e565b146133b25760405162461bcd60e51b8152602060048201526012602482015271496e76616c6964206f66666572207479706560701b604482015260640161072e565b60008281527fa15d1660ecf4f4c2ac27ec148e6bb28bae19d84f4ea12b71b4576a040a68ee87602052604081208054909182916133f19060ff166148c4565b82546101009290920a60ff818102199093169183160217909155600583015482546040519216825284916001600160a01b03909116907f8afe26414495b48d7a81267e874a66e7595073254e6889545f7d427f916fba789060200160405180910390a3505050565b7fa15d1660ecf4f4c2ac27ec148e6bb28bae19d84f4ea12b71b4576a040a68ee84805490600181600061348c8386614811565b925050819055505090565b60c0810151515115806134bf57506000816020015160028111156134bd576134bd613c0e565b145b61350b5760405162461bcd60e51b815260206004820152601c60248201527f4e6f7420616c6c6f77656420666f72206f75747075742067726f757000000000604482015260640161072e565b60005b60c0820151515181101561365c5760008260c00151600001518281518110613538576135386146f4565b6020026020010151905061356a7fa15d1660ecf4f4c2ac27ec148e6bb28bae19d84f4ea12b71b4576a040a68ee845490565b81106135de5760405162461bcd60e51b815260206004820152603060248201527f4f666665722063616e6e6f742062652072657374726963746564206279206e6f60448201527f6e2d6578697374696e67206f6666657200000000000000000000000000000000606482015260840161072e565b60008181526000805160206148e58339815191526020526040812080549091613649918491601089019160ff16600381111561361c5761361c613c0e565b600381111561362d5761362d613c0e565b815260200190815260200160002061374c90919063ffffffff16565b50508061365590614720565b905061350e565b5060005b8160c0015160200151518110156136f25760008260c0015160200151828151811061368d5761368d6146f4565b6020026020010151905060018460110160008360038111156136b1576136b1613c0e565b60038111156136c2576136c2613c0e565b81526020810191909152604001600020805460ff1916911515919091179055506136eb81614720565b9050613660565b505050565b600182015460009061370b575060006105c3565b6000828152602084905260409020541515806129ba57508183600101600081548110613739576137396146f4565b9060005260206000200154149392505050565b60018201546000901580613797575060008281526020849052604090205415801561379757508183600101600081548110613789576137896146f4565b906000526020600020015414155b9050806137a357505050565b50600180830180546000848152602095865260408120829055928101825590825292902090910155565b8280546137d9906147b7565b90600052602060002090601f0160209004810192826137fb5760008555613841565b82601f1061381457805160ff1916838001178555613841565b82800160010185558215613841579182015b82811115613841578251825591602001919060010190613826565b5061384d929150613a31565b5090565b6040805161022081019091526060815260208101600081526020016000815260200160001515815260200160608152602001600081526020016138a7604051806040016040528060608152602001606081525090565b8152602001606081526020016000815260200160608152602001606081526020016060815260200160608152602001606081526020016060815260200160608152602001606081525090565b8280548282559060005260206000209081019282156138415791602002820182811115613841578251825591602001919060010190613826565b82805482825590600052602060002090601f016020900481019282156138415791602002820160005b838211156139a257835183826101000a81548160ff0219169083600381111561398157613981613c0e565b02179055509260200192600101602081600001049283019260010302613956565b80156139cf5782816101000a81549060ff02191690556001016020816000010492830192600103026139a2565b505061384d929150613a31565b828054828255906000526020600020908101928215613841579160200282015b8281111561384157825182546001600160a01b0319166001600160a01b039091161782556020909201916001909101906139fc565b5b8082111561384d5760008155600101613a32565b600060208284031215613a5857600080fd5b5035919050565b803560048110613a6e57600080fd5b919050565b60008060408385031215613a8657600080fd5b82359150613a9660208401613a5f565b90509250929050565b634e487b7160e01b600052604160045260246000fd5b604051610120810167ffffffffffffffff81118282101715613ad957613ad9613a9f565b60405290565b6040805190810167ffffffffffffffff81118282101715613ad957613ad9613a9f565b604051610220810167ffffffffffffffff81118282101715613ad957613ad9613a9f565b604051601f8201601f1916810167ffffffffffffffff81118282101715613b4f57613b4f613a9f565b604052919050565b600082601f830112613b6857600080fd5b813567ffffffffffffffff811115613b8257613b82613a9f565b613b95601f8201601f1916602001613b26565b818152846020838601011115613baa57600080fd5b816020850160208301376000918101602001919091529392505050565b60008060408385031215613bda57600080fd5b82359150602083013567ffffffffffffffff811115613bf857600080fd5b613c0485828601613b57565b9150509250929050565b634e487b7160e01b600052602160045260246000fd5b60048110613c3457613c34613c0e565b9052565b602081016105c38284613c24565b6001600160a01b0381168114613c5b57600080fd5b50565b8035613a6e81613c46565b60008060408385031215613c7c57600080fd5b823591506020830135613c8e81613c46565b809150509250929050565b803563ffffffff81168114613a6e57600080fd5b803567ffffffffffffffff81168114613a6e57600080fd5b600080600060608486031215613cda57600080fd5b8335613ce581613c46565b9250602084013567ffffffffffffffff80821115613d0257600080fd5b908501906101208288031215613d1757600080fd5b613d1f613ab5565b823582811115613d2e57600080fd5b613d3a89828601613b57565b825250602083013582811115613d4f57600080fd5b613d5b89828601613b57565b602083015250604083013582811115613d7357600080fd5b613d7f89828601613b57565b604083015250613d9160608401613c99565b6060820152613da260808401613cad565b608082015260a083013582811115613db957600080fd5b613dc589828601613b57565b60a083015250613dd760c08401613c5e565b60c082015260e083013582811115613dee57600080fd5b613dfa89828601613b57565b60e0830152506101008084013583811115613e1457600080fd5b613e208a828701613b57565b828401525050809450505050604084013590509250925092565b6000815180845260005b81811015613e6057602081850181015186830182015201613e44565b81811115613e72576000602083870101525b50601f01601f19169290920160200192915050565b6060815260008451610120806060850152613ea6610180850183613e3a565b91506020870151605f1980868503016080870152613ec48483613e3a565b935060408901519150808685030160a0870152613ee18483613e3a565b935060608901519150613efc60c087018363ffffffff169052565b608089015167ffffffffffffffff811660e0880152915060a08901519150610100818786030181880152613f308584613e3a565b945060c08a01519250613f4d848801846001600160a01b03169052565b60e08a015193508187860301610140880152613f698585613e3a565b9450808a015193505080868503016101608701525050613f898282613e3a565b92505050613fa260208301856001600160a01b03169052565b826040830152949350505050565b60038110613c3457613c34613c0e565b602081016105c38284613fb0565b805160408084528151908401819052600091602091908201906060860190845b8181101561400a57835183529284019291840191600101613fee565b50508483015186820387850152805180835290840192506000918401905b8083101561404f5761403b828551613c24565b928401926001929092019190840190614028565b509695505050505050565b600081518084526020808501945080840160005b838110156140935781516001600160a01b03168752958201959082019060010161406e565b509495945050505050565b60608152600084516102208060608501526140bd610280850183613e3a565b915060208701516140d16080860182613fb0565b5060408701516140e460a0860182613c24565b506060870151151560c08501526080870151848303605f1990810160e087015261410e8483613e3a565b935060a08901519150610100828188015260c08a0151925061012082888703018189015261413c8685613fce565b955060e08b015193506101408389880301818a015261415b8786613e3a565b9650828c01519450610160925084838a0152818c0151945061018091508389880301828a015261418b8786613e3a565b9650808c01519450506101a08389880301818a01526141aa8786613e3a565b9650828c015194506101c092508389880301838a01526141ca8786613e3a565b9650818c015194506101e091508389880301828a01526141ea878661405a565b9650808c01519450506102008389880301818a01526142098786613e3a565b9650828c015194508389880301868a01526142248786613e3a565b9650818c0151955083898803016102408a01526142418787613e3a565b9650808c0151955050505080868503016102608701525050613f898282613e3a565b803560038110613a6e57600080fd5b8015158114613c5b57600080fd5b8035613a6e81614272565b600067ffffffffffffffff8211156142a5576142a5613a9f565b5060051b60200190565b600082601f8301126142c057600080fd5b813560206142d56142d08361428b565b613b26565b82815260059290921b840181019181810190868411156142f457600080fd5b8286015b8481101561404f5761430981613a5f565b83529183019183016142f8565b60006040828403121561432857600080fd5b614330613adf565b9050813567ffffffffffffffff8082111561434a57600080fd5b818401915084601f83011261435e57600080fd5b8135602061436e6142d08361428b565b82815260059290921b8401810191818101908884111561438d57600080fd5b948201945b838610156143ab57853582529482019490820190614392565b865250858101359350828411156143c157600080fd5b6143cd878588016142af565b818601525050505092915050565b600082601f8301126143ec57600080fd5b813560206143fc6142d08361428b565b82815260059290921b8401810191818101908684111561441b57600080fd5b8286015b8481101561404f57803561443281613c46565b835291830191830161441f565b60008060006060848603121561445457600080fd5b833561445f81613c46565b9250602084013567ffffffffffffffff8082111561447c57600080fd5b90850190610220828803121561449157600080fd5b614499613b02565b8235828111156144a857600080fd5b6144b489828601613b57565b8252506144c360208401614263565b60208201526144d460408401613a5f565b60408201526144e560608401614280565b60608201526080830135828111156144fc57600080fd5b61450889828601613b57565b60808301525060a083013560a082015260c08301358281111561452a57600080fd5b61453689828601614316565b60c08301525060e08301358281111561454e57600080fd5b61455a89828601613b57565b60e0830152506101008381013590820152610120808401358381111561457f57600080fd5b61458b8a828701613b57565b82840152505061014080840135838111156145a557600080fd5b6145b18a828701613b57565b82840152505061016080840135838111156145cb57600080fd5b6145d78a828701613b57565b82840152505061018080840135838111156145f157600080fd5b6145fd8a8287016143db565b8284015250506101a0808401358381111561461757600080fd5b6146238a828701613b57565b8284015250506101c0808401358381111561463d57600080fd5b6146498a828701613b57565b8284015250506101e0808401358381111561466357600080fd5b61466f8a828701613b57565b8284015250506102008084013583811115613e1457600080fd5b60008060006060848603121561469e57600080fd5b505081359360208301359350604090920135919050565b600080604083850312156146c857600080fd5b50508035926020909101359150565b6000602082840312156146e957600080fd5b81516129ba81613c46565b634e487b7160e01b600052603260045260246000fd5b634e487b7160e01b600052601160045260246000fd5b60006000198214156147345761473461470a565b5060010190565b60006020828403121561474d57600080fd5b81516129ba81614272565b602081016011831061476c5761476c613c0e565b91905290565b60006020828403121561478457600080fd5b5051919050565b6001600160a01b038416815260208101839052606081016147af6040830184613c24565b949350505050565b600181811c908216806147cb57607f821691505b602082108114156147ec57634e487b7160e01b600052602260045260246000fd5b50919050565b600081600019048311821515161561480c5761480c61470a565b500290565b600082198211156148245761482461470a565b500190565b6001600160a01b03861681526020810185905260a0810161484d6040830186613c24565b9215156060820152608001529392505050565b6000828210156148725761487261470a565b500390565b634e487b7160e01b600052601260045260246000fd5b60008261489c5761489c614877565b500490565b600063ffffffff808416806148b8576148b8614877565b92169190910492915050565b600060ff821660ff8114156148db576148db61470a565b6001019291505056fea15d1660ecf4f4c2ac27ec148e6bb28bae19d84f4ea12b71b4576a040a68ee85a15d1660ecf4f4c2ac27ec148e6bb28bae19d84f4ea12b71b4576a040a68ee86a2646970667358221220de0da3dece2e92a9a0b00170713d025a8b0a361461162b7a70f43b9e266b6e7164736f6c63430008090033",
  "linkReferences": {},
  "deployedLinkReferences": {}
}