{
    "_format": "hh-sol-artifact-1",
    "contractName": "OffersFactory",
    "sourceName": "contracts/OffersFactory.sol",
    "abi": [
        {
            "inputs": [
                {
                    "internalType": "address",
                    "name": "_superpro",
                    "type": "address"
                }
            ],
            "stateMutability": "nonpayable",
            "type": "constructor"
        },
        {
            "anonymous": false,
            "inputs": [
                {
                    "indexed": false,
                    "internalType": "address",
                    "name": "newOfferAddress",
                    "type": "address"
                }
            ],
            "name": "OfferCreated",
            "type": "event"
        },
        {
            "inputs": [
                {
                    "internalType": "address",
                    "name": "providerAuth",
                    "type": "address"
                },
                {
                    "components": [
                        {
                            "internalType": "string",
                            "name": "name",
                            "type": "string"
                        },
                        {
                            "internalType": "enum OfferGroup",
                            "name": "group",
                            "type": "uint8"
                        },
                        {
                            "internalType": "enum OfferType",
                            "name": "offerType",
                            "type": "uint8"
                        },
                        {
                            "internalType": "bool",
                            "name": "cancelable",
                            "type": "bool"
                        },
                        {
                            "internalType": "string",
                            "name": "description",
                            "type": "string"
                        },
                        {
                            "internalType": "uint256",
                            "name": "holdSum",
                            "type": "uint256"
                        },
                        {
                            "components": [
                                {
                                    "internalType": "address[]",
                                    "name": "offers",
                                    "type": "address[]"
                                },
                                {
                                    "internalType": "enum OfferType[]",
                                    "name": "types",
                                    "type": "uint8[]"
                                }
                            ],
                            "internalType": "struct OfferRestrictions",
                            "name": "restrictions",
                            "type": "tuple"
                        },
                        {
                            "internalType": "string",
                            "name": "properties",
                            "type": "string"
                        },
                        {
                            "internalType": "uint256",
                            "name": "maxDurationTimeMinutes",
                            "type": "uint256"
                        },
                        {
                            "internalType": "string",
                            "name": "inputFormat",
                            "type": "string"
                        },
                        {
                            "internalType": "string",
                            "name": "outputFormat",
                            "type": "string"
                        },
                        {
                            "internalType": "string",
                            "name": "allowedArgs",
                            "type": "string"
                        },
                        {
                            "internalType": "address[]",
                            "name": "allowedAccounts",
                            "type": "address[]"
                        },
                        {
                            "internalType": "string",
                            "name": "argsPublicKey",
                            "type": "string"
                        },
                        {
                            "internalType": "string",
                            "name": "argsPublicKeyAlgo",
                            "type": "string"
                        },
                        {
                            "internalType": "string",
                            "name": "resultUrl",
                            "type": "string"
                        },
                        {
                            "internalType": "uint256",
                            "name": "disabledAfter",
                            "type": "uint256"
                        },
                        {
                            "internalType": "string",
                            "name": "linkage",
                            "type": "string"
                        },
                        {
                            "internalType": "string",
                            "name": "hash",
                            "type": "string"
                        },
                        {
                            "internalType": "string",
                            "name": "hashAlgo",
                            "type": "string"
                        }
                    ],
                    "internalType": "struct OfferInfo",
                    "name": "info",
                    "type": "tuple"
                }
            ],
            "name": "create",
            "outputs": [
                {
                    "internalType": "address",
                    "name": "",
                    "type": "address"
                }
            ],
            "stateMutability": "nonpayable",
            "type": "function"
        },
        {
            "inputs": [],
            "name": "getOffers",
            "outputs": [
                {
                    "internalType": "address[]",
                    "name": "",
                    "type": "address[]"
                }
            ],
            "stateMutability": "view",
            "type": "function"
        },
        {
            "inputs": [
                {
                    "internalType": "address",
                    "name": "offer",
                    "type": "address"
                }
            ],
            "name": "getOffersProvider",
            "outputs": [
                {
                    "internalType": "address",
                    "name": "",
                    "type": "address"
                }
            ],
            "stateMutability": "view",
            "type": "function"
        }
    ],
    "bytecode": "0x608060405234801561001057600080fd5b50604051613f7b380380613f7b83398101604081905261002f91610054565b600080546001600160a01b0319166001600160a01b0392909216919091179055610082565b600060208284031215610065578081fd5b81516001600160a01b038116811461007b578182fd5b9392505050565b613eea806100916000396000f3fe60806040523480156200001157600080fd5b5060043610620000465760003560e01c8063165dee3f146200004b5780633ee992ee1462000097578063b895c21814620000b0575b600080fd5b6200007a6200005c36600462000a4a565b6001600160a01b039081166000908152600260205260409020541690565b6040516001600160a01b0390911681526020015b60405180910390f35b620000a1620000c7565b6040516200008e919062001108565b6200007a620000c136600462000a88565b6200012b565b606060018054806020026020016040519081016040528092919081815260200182805480156200012157602002820191906000526020600020905b81546001600160a01b0316815260019091019060200180831162000102575b5050505050905090565b60008054819062000145906001600160a01b0316620006ca565b6040517fc2bc2efc0000000000000000000000000000000000000000000000000000000081526001600160a01b038681166004830152919091169063c2bc2efc9060240160206040518083038186803b158015620001a257600080fd5b505afa158015620001b7573d6000803e3d6000fd5b505050506040513d601f19601f82011682018060405250810190620001dd919062000a69565b9050806001600160a01b0316631b71d85f6040518163ffffffff1660e01b8152600401600060405180830381600087803b1580156200021b57600080fd5b505af115801562000230573d6000803e3d6000fd5b5050600080549092506200025091506001600160a01b031660066200075f565b60008054919250906200026c906001600160a01b0316620006ca565b6040517fb00e3c240000000000000000000000000000000000000000000000000000000081526001600160a01b038881166004830152919091169063b00e3c249060240160206040518083038186803b158015620002c957600080fd5b505afa158015620002de573d6000803e3d6000fd5b505050506040513d601f19601f8201168201806040525081019062000304919062000d6d565b6040517fcf06217c000000000000000000000000000000000000000000000000000000008152600481018490529091506000906001600160a01b0385169063cf06217c9060240160206040518083038186803b1580156200036457600080fd5b505afa15801562000379573d6000803e3d6000fd5b505050506040513d601f19601f820116820180604052508101906200039f919062000d6d565b9050600086604001516003811115620003c857634e487b7160e01b600052602160045260246000fd5b14156200041c5760405162461bcd60e51b815260206004820152601760248201527f496e766169642076616c7565206f66666572207479706500000000000000000060448201526064015b60405180910390fd5b336001600160a01b0316846001600160a01b0316636760c4b76040518163ffffffff1660e01b815260040160206040518083038186803b1580156200046057600080fd5b505afa15801562000475573d6000803e3d6000fd5b505050506040513d601f19601f820116820180604052508101906200049b919062000a69565b6001600160a01b031614620004f35760405162461bcd60e51b815260206004820152600d60248201527f4163636573732064656e69656400000000000000000000000000000000000000604482015260640162000413565b80821015620005455760405162461bcd60e51b815260206004820152601d60248201527f5365637572697479206465706f73697420697320746f6f20736d616c6c000000604482015260640162000413565b600080546040516001600160a01b039091169086908990620005679062000830565b620005759392919062000eb0565b604051809103906000f08015801562000592573d6000803e3d6000fd5b506001600160a01b0381811660008181526002602052604080822080547fffffffffffffffffffffffff00000000000000000000000000000000000000009081168f87161790915560018054808201825593527fb10e2d527612073b26eecdfd717e6a320cf44b4afac2b0732d9fcbe2b7fa0cf690920180549092168317909155517fa553269b000000000000000000000000000000000000000000000000000000008152600481019190915291925086169063a553269b90602401600060405180830381600087803b1580156200066957600080fd5b505af11580156200067e573d6000803e3d6000fd5b50506040516001600160a01b03841681527f4ed297a49813ea635060b2157f5ef5bfb33acbe12df64dcedb8e8870fddf196b9250602001905060405180910390a1979650505050505050565b6000620006d782620007f4565b6001600160a01b031663bcaa0c5560016040518263ffffffff1660e01b815260040162000705919062001157565b60206040518083038186803b1580156200071e57600080fd5b505afa15801562000733573d6000803e3d6000fd5b505050506040513d601f19601f8201168201806040525081019062000759919062000a69565b92915050565b60006200076c83620007f4565b6001600160a01b03166303a2216d836040518263ffffffff1660e01b815260040162000799919062001174565b60206040518083038186803b158015620007b257600080fd5b505afa158015620007c7573d6000803e3d6000fd5b505050506040513d601f19601f82011682018060405250810190620007ed919062000d6d565b9392505050565b6000816001600160a01b031663f1f0bd016040518163ffffffff1660e01b815260040160206040518083038186803b1580156200071e57600080fd5b612c36806200127f83390190565b600082601f8301126200084f578081fd5b8135602062000868620008628362001212565b620011de565b80838252828201915082860187848660051b890101111562000888578586fd5b855b85811015620008b3578135620008a08162001265565b845292840192908401906001016200088a565b5090979650505050505050565b80358015158114620008d157600080fd5b919050565b803560038110620008d157600080fd5b803560048110620008d157600080fd5b600082601f83011262000907578081fd5b813567ffffffffffffffff8111156200092457620009246200124f565b62000939601f8201601f1916602001620011de565b8181528460208386010111156200094e578283fd5b816020850160208301379081016020019190915292915050565b6000604082840312156200097a578081fd5b620009846200118b565b9050813567ffffffffffffffff808211156200099f57600080fd5b620009ad858386016200083e565b8352602091508184013581811115620009c557600080fd5b84019050601f81018513620009d957600080fd5b8035620009ea620008628262001212565b80828252848201915084840188868560051b870101111562000a0b57600080fd5b600094505b8385101562000a395762000a2481620008e6565b83526001949094019391850191850162000a10565b508085870152505050505092915050565b60006020828403121562000a5c578081fd5b8135620007ed8162001265565b60006020828403121562000a7b578081fd5b8151620007ed8162001265565b6000806040838503121562000a9b578081fd5b823562000aa88162001265565b9150602083013567ffffffffffffffff8082111562000ac5578283fd5b90840190610280828703121562000ada578283fd5b62000ae4620011b7565b82358281111562000af3578485fd5b62000b0188828601620008f6565b82525062000b1260208401620008d6565b602082015262000b2560408401620008e6565b604082015262000b3860608401620008c0565b606082015260808301358281111562000b4f578485fd5b62000b5d88828601620008f6565b60808301525060a083013560a082015260c08301358281111562000b7f578485fd5b62000b8d8882860162000968565b60c08301525060e08301358281111562000ba5578485fd5b62000bb388828601620008f6565b60e0830152506101008381013590820152610120808401358381111562000bd8578586fd5b62000be689828701620008f6565b828401525050610140808401358381111562000c00578586fd5b62000c0e89828701620008f6565b828401525050610160808401358381111562000c28578586fd5b62000c3689828701620008f6565b828401525050610180808401358381111562000c50578586fd5b62000c5e898287016200083e565b8284015250506101a0808401358381111562000c78578586fd5b62000c8689828701620008f6565b8284015250506101c0808401358381111562000ca0578586fd5b62000cae89828701620008f6565b8284015250506101e0808401358381111562000cc8578586fd5b62000cd689828701620008f6565b828401525050610200808401358183015250610220808401358381111562000cfc578586fd5b62000d0a89828701620008f6565b828401525050610240808401358381111562000d24578586fd5b62000d3289828701620008f6565b828401525050610260808401358381111562000d4c578586fd5b62000d5a89828701620008f6565b8284015250508093505050509250929050565b60006020828403121562000d7f578081fd5b5051919050565b6000815180845260208085019450808401835b8381101562000dc05781516001600160a01b03168752958201959082019060010162000d99565b509495945050505050565b6003811062000dde5762000dde62001239565b9052565b6004811062000dde5762000dde62001239565b60008151808452815b8181101562000e1c5760208185018101518683018201520162000dfe565b8181111562000e2e5782602083870101525b50601f01601f19169290920160200192915050565b600081516040845262000e5a604085018262000d86565b602084810151868303878301528051808452908201935090918491908301905b8083101562000ea55762000e9082865162000de2565b93830193600192909201919083019062000e7a565b509695505050505050565b60006001600160a01b03808616835280851660208401525060606040830152825161028080606085015262000eea6102e085018362000df5565b9150602085015162000f00608086018262000dcb565b50604085015162000f1560a086018262000de2565b506060850151151560c08501526080850151848303605f1990810160e087015262000f41848362000df5565b935060a08701519150610100828188015260c0880151925061012082888703018189015262000f71868562000e43565b955060e089015193506101408389880301818a015262000f92878662000df5565b9650828a01519450610160925084838a0152818a0151945061018091508389880301828a015262000fc4878662000df5565b9650808a01519450506101a08389880301818a015262000fe5878662000df5565b9650828a015194506101c092508389880301838a015262001007878662000df5565b9650818a015194506101e091508389880301828a015262001029878662000d86565b9650808a01519450506102008389880301818a01526200104a878662000df5565b9650828a0151945061022092508389880301838a01526200106c878662000df5565b9650818a0151945061024091508389880301828a01526200108e878662000df5565b9650808a015194505061026084818a0152828a015194508389880301868a0152620010ba878662000df5565b9650818a0151955083898803016102a08a0152620010d9878762000df5565b9650808a0151955050505080868503016102c08701525050620010fd828262000df5565b979650505050505050565b6020808252825182820181905260009190848201906040850190845b818110156200114b5783516001600160a01b03168352928401929184019160010162001124565b50909695505050505050565b60208101600c83106200116e576200116e62001239565b91905290565b60208101601183106200116e576200116e62001239565b6040805190810167ffffffffffffffff81118282101715620011b157620011b16200124f565b60405290565b604051610280810167ffffffffffffffff81118282101715620011b157620011b16200124f565b604051601f8201601f1916810167ffffffffffffffff811182821017156200120a576200120a6200124f565b604052919050565b600067ffffffffffffffff8211156200122f576200122f6200124f565b5060051b60200190565b634e487b7160e01b600052602160045260246000fd5b634e487b7160e01b600052604160045260246000fd5b6001600160a01b03811681146200127b57600080fd5b5056fe60806040523480156200001157600080fd5b5060405162002c3638038062002c36833981016040819052620000349162000aaa565b600080546001600160a01b038086166001600160a01b031992831617909255600380549285169290911691909117905580518051829160049162000080918391602090910190620006ab565b50602082015160018083018054909160ff1990911690836002811115620000b757634e487b7160e01b600052602160045260246000fd5b0217905550604082015160018201805461ff001916610100836003811115620000f057634e487b7160e01b600052602160045260246000fd5b02179055506060820151600182018054911515620100000262ff0000199092169190911790556080820151805162000133916002840191602090910190620006ab565b5060a0820151600382015560c08201518051805160048401916200015d918391602001906200073a565b50602082810151805162000178926001850192019062000792565b50505060e0820151805162000198916006840191602090910190620006ab565b5061010082015160078201556101208201518051620001c2916008840191602090910190620006ab565b506101408201518051620001e1916009840191602090910190620006ab565b5061016082015180516200020091600a840191602090910190620006ab565b5061018082015180516200021f91600b8401916020909101906200073a565b506101a082015180516200023e91600c840191602090910190620006ab565b506101c082015180516200025d91600d840191602090910190620006ab565b506101e082015180516200027c91600e840191602090910190620006ab565b50610200820151600f8201556102208201518051620002a6916010840191602090910190620006ab565b506102408201518051620002c5916011840191602090910190620006ab565b506102608201518051620002e4916012840191602090910190620006ab565b5050600854159050806200031d5750600060055460ff1660028111156200031b57634e487b7160e01b600052602160045260246000fd5b145b6200036f5760405162461bcd60e51b815260206004820152601c60248201527f4e6f7420616c6c6f77656420666f72206f75747075742067726f75700000000060448201526064015b60405180910390fd5b60005b600854811015620004b157600880546000919083908110620003a457634e487b7160e01b600052603260045260246000fd5b6000918252602080832090910154604080516357a9b97360e11b815290516001600160a01b03909216945084936200049b938593601793859263af5372e692600480840193829003018186803b158015620003fe57600080fd5b505afa15801562000413573d6000803e3d6000fd5b505050506040513d601f19601f8201168201806040525081019062000439919062000d9f565b60038111156200045957634e487b7160e01b600052602160045260246000fd5b60038111156200047957634e487b7160e01b600052602160045260246000fd5b81526020019081526020016000206200058a60201b6200135d1790919060201c565b505080620004a99062000eaa565b905062000372565b5060005b6009548110156200058057600980546000919083908110620004e757634e487b7160e01b600052603260045260246000fd5b60009182526020808320908204015460ff601f9092166101000a90041691506001906018908360038111156200052d57634e487b7160e01b600052602160045260246000fd5b60038111156200054d57634e487b7160e01b600052602160045260246000fd5b81526020810191909152604001600020805460ff191691151591909117905550620005788162000eaa565b9050620004b5565b5050505062000ee8565b6001600160a01b038116620005e25760405162461bcd60e51b815260206004820152601d60248201527f417474656d707420746f206164642061207a65726f2061646472657373000000604482015260640162000366565b600182015460009015806200065b57506001600160a01b0382166000908152602084905260409020541580156200065b5750816001600160a01b0316836001016000815481106200064357634e487b7160e01b600052603260045260246000fd5b6000918252602090912001546001600160a01b031614155b9050806200066857505050565b50600180830180546001600160a01b03909316600081815260209586526040812085905592840182559082529290200180546001600160a01b0319169091179055565b828054620006b99062000e6d565b90600052602060002090601f016020900481019282620006dd576000855562000728565b82601f10620006f857805160ff191683800117855562000728565b8280016001018555821562000728579182015b82811115620007285782518255916020019190600101906200070b565b506200073692915062000852565b5090565b82805482825590600052602060002090810192821562000728579160200282015b828111156200072857825182546001600160a01b0319166001600160a01b039091161782556020909201916001909101906200075b565b82805482825590600052602060002090601f01602090048101928215620007285791602002820160005b838211156200081957835183826101000a81548160ff02191690836003811115620007f757634e487b7160e01b600052602160045260246000fd5b02179055509260200192600101602081600001049283019260010302620007bc565b8015620008485782816101000a81549060ff021916905560010160208160000104928301926001030262000819565b5050620007369291505b5b8082111562000736576000815560010162000853565b80516001600160a01b03811681146200088157600080fd5b919050565b600082601f83011262000897578081fd5b81516020620008b0620008aa8362000e47565b62000e14565b80838252828201915082860187848660051b8901011115620008d0578586fd5b855b85811015620008f957620008e68262000869565b84529284019290840190600101620008d2565b5090979650505050505050565b805180151581146200088157600080fd5b8051600381106200088157600080fd5b8051600481106200088157600080fd5b600082601f83011262000948578081fd5b81516001600160401b0381111562000964576200096462000ed2565b60206200097a601f8301601f1916820162000e14565b82815285828487010111156200098e578384fd5b835b83811015620009ad57858101830151828201840152820162000990565b83811115620009be57848385840101525b5095945050505050565b600060408284031215620009da578081fd5b620009e462000dc3565b82519091506001600160401b0380821115620009ff57600080fd5b62000a0d8583860162000886565b835260209150818401518181111562000a2557600080fd5b84019050601f8101851362000a3957600080fd5b805162000a4a620008aa8262000e47565b80828252848201915084840188868560051b870101111562000a6b57600080fd5b600094505b8385101562000a995762000a848162000927565b83526001949094019391850191850162000a70565b508085870152505050505092915050565b60008060006060848603121562000abf578283fd5b62000aca8462000869565b925062000ada6020850162000869565b60408501519092506001600160401b038082111562000af7578283fd5b90850190610280828803121562000b0c578283fd5b62000b1662000dee565b82518281111562000b25578485fd5b62000b338982860162000937565b82525062000b446020840162000917565b602082015262000b576040840162000927565b604082015262000b6a6060840162000906565b606082015260808301518281111562000b81578485fd5b62000b8f8982860162000937565b60808301525060a083015160a082015260c08301518281111562000bb1578485fd5b62000bbf89828601620009c8565b60c08301525060e08301518281111562000bd7578485fd5b62000be58982860162000937565b60e0830152506101008381015190820152610120808401518381111562000c0a578586fd5b62000c188a82870162000937565b828401525050610140808401518381111562000c32578586fd5b62000c408a82870162000937565b828401525050610160808401518381111562000c5a578586fd5b62000c688a82870162000937565b828401525050610180808401518381111562000c82578586fd5b62000c908a82870162000886565b8284015250506101a0808401518381111562000caa578586fd5b62000cb88a82870162000937565b8284015250506101c0808401518381111562000cd2578586fd5b62000ce08a82870162000937565b8284015250506101e0808401518381111562000cfa578586fd5b62000d088a82870162000937565b828401525050610200808401518183015250610220808401518381111562000d2e578586fd5b62000d3c8a82870162000937565b828401525050610240808401518381111562000d56578586fd5b62000d648a82870162000937565b828401525050610260808401518381111562000d7e578586fd5b62000d8c8a82870162000937565b8284015250508093505050509250925092565b60006020828403121562000db1578081fd5b62000dbc8262000927565b9392505050565b604080519081016001600160401b038111828210171562000de85762000de862000ed2565b60405290565b60405161028081016001600160401b038111828210171562000de85762000de862000ed2565b604051601f8201601f191681016001600160401b038111828210171562000e3f5762000e3f62000ed2565b604052919050565b60006001600160401b0382111562000e635762000e6362000ed2565b5060051b60200190565b600181811c9082168062000e8257607f821691505b6020821081141562000ea457634e487b7160e01b600052602260045260246000fd5b50919050565b600060001982141562000ecb57634e487b7160e01b81526011600452602481fd5b5060010190565b634e487b7160e01b600052604160045260246000fd5b611d3e8062000ef86000396000f3fe608060405234801561001057600080fd5b506004361061011b5760003560e01c80638383da75116100b2578063af5372e611610081578063c47f002711610066578063c47f00271461021c578063f12018c31461022f578063f55ba0d31461024257600080fd5b8063af5372e6146101fc578063bbb5d5f71461021457600080fd5b80638383da75146101c657806390c3f38f146101d95780639b7d6f12146101ec578063a3907d71146101f457600080fd5b8063483d45bd116100ee578063483d45bd146101725780635a9b0b89146101975780636aa633b6146101ac5780636d483c84146101b457600080fd5b80631bffb491146101205780631f6bb848146101425780632acdf0fa146101555780632f2770db14610168575b600080fd5b60055462010000900460ff165b60405190151581526020015b60405180910390f35b61012d610150366004611798565b610255565b60055460ff1660405161013991906119cc565b610170610318565b005b6003546001600160a01b03165b6040516001600160a01b039091168152602001610139565b61019f6104cb565b6040516101399190611a02565b61012d610e06565b6013545b604051908152602001610139565b6101b86101d4366004611892565b610e1f565b6101706101e73660046117d0565b610e58565b61017f610f31565b610170610fc7565b600554610100900460ff1660405161013991906119da565b6007546101b8565b61017061022a3660046117d0565b611116565b61012d61023d366004611760565b6111eb565b61012d610250366004611760565b611276565b60006018600083600381111561027b57634e487b7160e01b600052602160045260246000fd5b600381111561029a57634e487b7160e01b600052602160045260246000fd5b815260208101919091526040016000205460ff16806103125750610310601760008460038111156102db57634e487b7160e01b600052602160045260246000fd5b60038111156102fa57634e487b7160e01b600052602160045260246000fd5b8152602001908152602001600020600101541590565b155b92915050565b60035460408051636760c4b760e01b8152905133926001600160a01b031691636760c4b7916004808301926020929190829003018186803b15801561035c57600080fd5b505afa158015610370573d6000803e3d6000fd5b505050506040513d601f19601f82011682018060405250810190610394919061177c565b6001600160a01b0316146103df5760405162461bcd60e51b815260206004820152600d60248201526c1058d8d95cdcc819195b9a5959609a1b60448201526064015b60405180910390fd5b6013541561042f5760405162461bcd60e51b815260206004820152601960248201527f4f6666657220697320616c72656164792064697361626c65640000000000000060448201526064016103d6565b600054620151809061044b906001600160a01b03166004611490565b6104559190611c2c565b61045f9042611c14565b6013819055600354604051639789e32360e01b81526000600482015260248101929092526001600160a01b031690639789e323906044015b600060405180830381600087803b1580156104b157600080fd5b505af11580156104c5573d6000803e3d6000fd5b50505050565b6104d3611610565b6004604051806102800160405290816000820180546104f190611c4b565b80601f016020809104026020016040519081016040528092919081815260200182805461051d90611c4b565b801561056a5780601f1061053f5761010080835404028352916020019161056a565b820191906000526020600020905b81548152906001019060200180831161054d57829003601f168201915b5050509183525050600182015460209091019060ff16600281111561059f57634e487b7160e01b600052602160045260246000fd5b60028111156105be57634e487b7160e01b600052602160045260246000fd5b81526020016001820160019054906101000a900460ff1660038111156105f457634e487b7160e01b600052602160045260246000fd5b600381111561061357634e487b7160e01b600052602160045260246000fd5b8152600182015462010000900460ff161515602082015260028201805460409092019161063f90611c4b565b80601f016020809104026020016040519081016040528092919081815260200182805461066b90611c4b565b80156106b85780601f1061068d576101008083540402835291602001916106b8565b820191906000526020600020905b81548152906001019060200180831161069b57829003601f168201915b5050505050815260200160038201548152602001600482016040518060400160405290816000820180548060200260200160405190810160405280929190818152602001828054801561073457602002820191906000526020600020905b81546001600160a01b03168152600190910190602001808311610716575b50505050508152602001600182018054806020026020016040519081016040528092919081815260200182805480156107ca57602002820191906000526020600020906000905b82829054906101000a900460ff1660038111156107a857634e487b7160e01b600052602160045260246000fd5b81526020600192830181810494850194909303909202910180841161077b5790505b50505050508152505081526020016006820180546107e790611c4b565b80601f016020809104026020016040519081016040528092919081815260200182805461081390611c4b565b80156108605780601f1061083557610100808354040283529160200191610860565b820191906000526020600020905b81548152906001019060200180831161084357829003601f168201915b505050505081526020016007820154815260200160088201805461088390611c4b565b80601f01602080910402602001604051908101604052809291908181526020018280546108af90611c4b565b80156108fc5780601f106108d1576101008083540402835291602001916108fc565b820191906000526020600020905b8154815290600101906020018083116108df57829003601f168201915b5050505050815260200160098201805461091590611c4b565b80601f016020809104026020016040519081016040528092919081815260200182805461094190611c4b565b801561098e5780601f106109635761010080835404028352916020019161098e565b820191906000526020600020905b81548152906001019060200180831161097157829003601f168201915b50505050508152602001600a820180546109a790611c4b565b80601f01602080910402602001604051908101604052809291908181526020018280546109d390611c4b565b8015610a205780601f106109f557610100808354040283529160200191610a20565b820191906000526020600020905b815481529060010190602001808311610a0357829003601f168201915b50505050508152602001600b8201805480602002602001604051908101604052809291908181526020018280548015610a8257602002820191906000526020600020905b81546001600160a01b03168152600190910190602001808311610a64575b50505050508152602001600c82018054610a9b90611c4b565b80601f0160208091040260200160405190810160405280929190818152602001828054610ac790611c4b565b8015610b145780601f10610ae957610100808354040283529160200191610b14565b820191906000526020600020905b815481529060010190602001808311610af757829003601f168201915b50505050508152602001600d82018054610b2d90611c4b565b80601f0160208091040260200160405190810160405280929190818152602001828054610b5990611c4b565b8015610ba65780601f10610b7b57610100808354040283529160200191610ba6565b820191906000526020600020905b815481529060010190602001808311610b8957829003601f168201915b50505050508152602001600e82018054610bbf90611c4b565b80601f0160208091040260200160405190810160405280929190818152602001828054610beb90611c4b565b8015610c385780601f10610c0d57610100808354040283529160200191610c38565b820191906000526020600020905b815481529060010190602001808311610c1b57829003601f168201915b50505050508152602001600f8201548152602001601082018054610c5b90611c4b565b80601f0160208091040260200160405190810160405280929190818152602001828054610c8790611c4b565b8015610cd45780601f10610ca957610100808354040283529160200191610cd4565b820191906000526020600020905b815481529060010190602001808311610cb757829003601f168201915b50505050508152602001601182018054610ced90611c4b565b80601f0160208091040260200160405190810160405280929190818152602001828054610d1990611c4b565b8015610d665780601f10610d3b57610100808354040283529160200191610d66565b820191906000526020600020905b815481529060010190602001808311610d4957829003601f168201915b50505050508152602001601282018054610d7f90611c4b565b80601f0160208091040260200160405190810160405280929190818152602001828054610dab90611c4b565b8015610df85780601f10610dcd57610100808354040283529160200191610df8565b820191906000526020600020905b815481529060010190602001808311610ddb57829003601f168201915b505050505081525050905090565b6013546000901580610e1a57506013544211155b905090565b60008042600460070154603c610e359190611c2c565b610e3f9086611c14565b10905080610e4d5782610e50565b60005b949350505050565b60035460408051636760c4b760e01b8152905133926001600160a01b031691636760c4b7916004808301926020929190829003018186803b158015610e9c57600080fd5b505afa158015610eb0573d6000803e3d6000fd5b505050506040513d601f19601f82011682018060405250810190610ed4919061177c565b6001600160a01b031614610f1a5760405162461bcd60e51b815260206004820152600d60248201526c1058d8d95cdcc819195b9a5959609a1b60448201526064016103d6565b8051610f2d9060069060208401906116c7565b5050565b600354604080517f0857101100000000000000000000000000000000000000000000000000000000815290516000926001600160a01b0316916308571011916004808301926020929190829003018186803b158015610f8f57600080fd5b505afa158015610fa3573d6000803e3d6000fd5b505050506040513d601f19601f82011682018060405250810190610e1a919061177c565b60035460408051636760c4b760e01b8152905133926001600160a01b031691636760c4b7916004808301926020929190829003018186803b15801561100b57600080fd5b505afa15801561101f573d6000803e3d6000fd5b505050506040513d601f19601f82011682018060405250810190611043919061177c565b6001600160a01b0316146110895760405162461bcd60e51b815260206004820152600d60248201526c1058d8d95cdcc819195b9a5959609a1b60448201526064016103d6565b6013546110d85760405162461bcd60e51b815260206004820152601860248201527f4f6666657220697320616c726561647920656e61626c6564000000000000000060448201526064016103d6565b60006013819055600354604051639789e32360e01b81526001600482015260248101929092526001600160a01b031690639789e32390604401610497565b60035460408051636760c4b760e01b8152905133926001600160a01b031691636760c4b7916004808301926020929190829003018186803b15801561115a57600080fd5b505afa15801561116e573d6000803e3d6000fd5b505050506040513d601f19601f82011682018060405250810190611192919061177c565b6001600160a01b0316146111d85760405162461bcd60e51b815260206004820152600d60248201526c1058d8d95cdcc819195b9a5959609a1b60448201526064016103d6565b8051610f2d9060049060208401906116c7565b600f546000906111fd57506001919050565b60005b600f5481101561126d5760006004600b01828154811061123057634e487b7160e01b600052603260045260246000fd5b6000918252602090912001546001600160a01b039081169150841681141561125c575060019392505050565b5061126681611c86565b9050611200565b50600092915050565b600080829050600060176000836001600160a01b031663af5372e66040518163ffffffff1660e01b815260040160206040518083038186803b1580156112bb57600080fd5b505afa1580156112cf573d6000803e3d6000fd5b505050506040513d601f19601f820116820180604052508101906112f391906117b4565b600381111561131257634e487b7160e01b600052602160045260246000fd5b600381111561133157634e487b7160e01b600052602160045260246000fd5b8152602001908152602001600020905061134d81600101541590565b80610e505750610e50818561151d565b6001600160a01b0381166113b35760405162461bcd60e51b815260206004820152601d60248201527f417474656d707420746f206164642061207a65726f206164647265737300000060448201526064016103d6565b6001820154600090158061142957506001600160a01b0382166000908152602084905260409020541580156114295750816001600160a01b03168360010160008154811061141157634e487b7160e01b600052603260045260246000fd5b6000918252602090912001546001600160a01b031614155b90508061143557505050565b50600180830180546001600160a01b03909316600081815260209586526040812085905592840182559082529290200180547fffffffffffffffffffffffff0000000000000000000000000000000000000000169091179055565b600061149b8361159d565b6001600160a01b03166303a2216d836040518263ffffffff1660e01b81526004016114c691906119e8565b60206040518083038186803b1580156114de57600080fd5b505afa1580156114f2573d6000803e3d6000fd5b505050506040513d601f19601f82011682018060405250810190611516919061187a565b9392505050565b600182015460009061153157506000610312565b6001600160a01b0382166000908152602084905260409020541515806115165750816001600160a01b03168360010160008154811061158057634e487b7160e01b600052603260045260246000fd5b6000918252602090912001546001600160a01b0316149392505050565b6000816001600160a01b031663f1f0bd016040518163ffffffff1660e01b815260040160206040518083038186803b1580156115d857600080fd5b505afa1580156115ec573d6000803e3d6000fd5b505050506040513d601f19601f82011682018060405250810190610312919061177c565b604080516102808101909152606081526020810160008152602001600081526020016000151581526020016060815260200160008152602001611666604051806040016040528060608152602001606081525090565b8152602001606081526020016000815260200160608152602001606081526020016060815260200160608152602001606081526020016060815260200160608152602001600081526020016060815260200160608152602001606081525090565b8280546116d390611c4b565b90600052602060002090601f0160209004810192826116f5576000855561173b565b82601f1061170e57805160ff191683800117855561173b565b8280016001018555821561173b579182015b8281111561173b578251825591602001919060010190611720565b5061174792915061174b565b5090565b5b80821115611747576000815560010161174c565b600060208284031215611771578081fd5b813561151681611ce3565b60006020828403121561178d578081fd5b815161151681611ce3565b6000602082840312156117a9578081fd5b813561151681611cfb565b6000602082840312156117c5578081fd5b815161151681611cfb565b6000602082840312156117e1578081fd5b813567ffffffffffffffff808211156117f8578283fd5b818401915084601f83011261180b578283fd5b81358181111561181d5761181d611ccd565b604051601f8201601f19908116603f0116810190838211818310171561184557611845611ccd565b8160405282815287602084870101111561185d578586fd5b826020860160208301379182016020019490945295945050505050565b60006020828403121561188b578081fd5b5051919050565b600080604083850312156118a4578081fd5b50508035926020909101359150565b6000815180845260208085019450808401835b838110156118eb5781516001600160a01b0316875295820195908201906001016118c6565b509495945050505050565b6003811061190657611906611cb7565b9052565b6004811061190657611906611cb7565b60008151808452815b8181101561193f57602081850181015186830182015201611923565b818111156119505782602083870101525b50601f01601f19169290920160200192915050565b600081516040845261197a60408501826118b3565b602084810151868303878301528051808452908201935090918491908301905b808310156119c1576119ad82865161190a565b93830193600192909201919083019061199a565b509695505050505050565b6020810161031282846118f6565b60208101610312828461190a565b60208101601183106119fc576119fc611cb7565b91905290565b6020815260008251610280806020850152611a216102a085018361191a565b91506020850151611a3560408601826118f6565b506040850151611a48606086018261190a565b5060608501518015156080860152506080850151601f19808685030160a0870152611a73848361191a565b935060a087015160c087015260c08701519150808685030160e0870152611a9a8483611965565b935060e08701519150610100818786030181880152611ab9858461191a565b945080880151925050610120828188015280880151925050610140818786030181880152611ae7858461191a565b945080880151925050610160818786030181880152611b06858461191a565b945080880151925050610180818786030181880152611b25858461191a565b9450808801519250506101a0818786030181880152611b4485846118b3565b9450808801519250506101c0818786030181880152611b63858461191a565b9450808801519250506101e0818786030181880152611b82858461191a565b945080880151925050610200818786030181880152611ba1858461191a565b945080880151925050610220828188015280880151925050610240818786030181880152611bcf858461191a565b945080880151925050610260818786030181880152611bee858461191a565b908801518782039092018488015293509050611c0a838261191a565b9695505050505050565b60008219821115611c2757611c27611ca1565b500190565b6000816000190483118215151615611c4657611c46611ca1565b500290565b600181811c90821680611c5f57607f821691505b60208210811415611c8057634e487b7160e01b600052602260045260246000fd5b50919050565b6000600019821415611c9a57611c9a611ca1565b5060010190565b634e487b7160e01b600052601160045260246000fd5b634e487b7160e01b600052602160045260246000fd5b634e487b7160e01b600052604160045260246000fd5b6001600160a01b0381168114611cf857600080fd5b50565b60048110611cf857600080fdfea2646970667358221220b02f92014ccaa7ffcedfc4fc4273ff6bceaafba1228b02b98c11d5f0c99eef5464736f6c63430008040033a26469706673582212200142c83bbaed315bf30915b74c58e8c56ac8a49f26d0a39f6a719cb6dc679cfa64736f6c63430008040033",
    "linkReferences": {},
    "deployedLinkReferences": {}
}