{
  "_format": "hh-sol-artifact-1",
  "contractName": "Offer",
  "sourceName": "contracts/Offer.sol",
  "abi": [
    {
      "inputs": [
        {
          "internalType": "address",
          "name": "_superpro",
          "type": "address"
        },
        {
          "internalType": "address",
          "name": "_provider",
          "type": "address"
        },
        {
          "internalType": "address",
          "name": "_creator",
          "type": "address"
        },
        {
          "components": [
            {
              "internalType": "string",
              "name": "name",
              "type": "string"
            },
            {
              "internalType": "enum OfferGroup",
              "name": "group",
              "type": "uint8"
            },
            {
              "internalType": "enum OfferType",
              "name": "offerType",
              "type": "uint8"
            },
            {
              "internalType": "bool",
              "name": "cancelable",
              "type": "bool"
            },
            {
              "internalType": "string",
              "name": "description",
              "type": "string"
            },
            {
              "internalType": "uint256",
              "name": "holdSum",
              "type": "uint256"
            },
            {
              "components": [
                {
                  "internalType": "address[]",
                  "name": "offers",
                  "type": "address[]"
                },
                {
                  "internalType": "enum OfferType[]",
                  "name": "types",
                  "type": "uint8[]"
                }
              ],
              "internalType": "struct OfferRestrictions",
              "name": "restrictions",
              "type": "tuple"
            },
            {
              "internalType": "string",
              "name": "properties",
              "type": "string"
            },
            {
              "internalType": "uint256",
              "name": "maxDurationTimeMinutes",
              "type": "uint256"
            },
            {
              "internalType": "string",
              "name": "inputFormat",
              "type": "string"
            },
            {
              "internalType": "string",
              "name": "outputFormat",
              "type": "string"
            },
            {
              "internalType": "string",
              "name": "allowedArgs",
              "type": "string"
            },
            {
              "internalType": "address[]",
              "name": "allowedAccounts",
              "type": "address[]"
            },
            {
              "internalType": "string",
              "name": "argsPublicKey",
              "type": "string"
            },
            {
              "internalType": "string",
              "name": "resultUrl",
              "type": "string"
            },
            {
              "internalType": "uint256",
              "name": "disabledAfter",
              "type": "uint256"
            },
            {
              "internalType": "string",
              "name": "linkage",
              "type": "string"
            },
            {
              "internalType": "string",
              "name": "hash",
              "type": "string"
            }
          ],
          "internalType": "struct OfferInfo",
          "name": "_info",
          "type": "tuple"
        },
        {
          "internalType": "bytes32",
          "name": "_externalId",
          "type": "bytes32"
        }
      ],
      "stateMutability": "nonpayable",
      "type": "constructor"
    },
    {
      "inputs": [],
      "name": "disable",
      "outputs": [],
      "stateMutability": "nonpayable",
      "type": "function"
    },
    {
      "inputs": [],
      "name": "enable",
      "outputs": [],
      "stateMutability": "nonpayable",
      "type": "function"
    },
    {
      "inputs": [
        {
          "internalType": "uint256",
          "name": "startDate",
          "type": "uint256"
        },
        {
          "internalType": "uint256",
          "name": "orderPrice",
          "type": "uint256"
        }
      ],
      "name": "getClosingPrice",
      "outputs": [
        {
          "internalType": "uint256",
          "name": "",
          "type": "uint256"
        }
      ],
      "stateMutability": "view",
      "type": "function"
    },
    {
      "inputs": [],
      "name": "getDisabledAfter",
      "outputs": [
        {
          "internalType": "uint256",
          "name": "",
          "type": "uint256"
        }
      ],
      "stateMutability": "view",
      "type": "function"
    },
    {
      "inputs": [],
      "name": "getHoldDeposit",
      "outputs": [
        {
          "internalType": "uint256",
          "name": "",
          "type": "uint256"
        }
      ],
      "stateMutability": "view",
      "type": "function"
    },
    {
      "inputs": [],
      "name": "getInfo",
      "outputs": [
        {
          "components": [
            {
              "internalType": "string",
              "name": "name",
              "type": "string"
            },
            {
              "internalType": "enum OfferGroup",
              "name": "group",
              "type": "uint8"
            },
            {
              "internalType": "enum OfferType",
              "name": "offerType",
              "type": "uint8"
            },
            {
              "internalType": "bool",
              "name": "cancelable",
              "type": "bool"
            },
            {
              "internalType": "string",
              "name": "description",
              "type": "string"
            },
            {
              "internalType": "uint256",
              "name": "holdSum",
              "type": "uint256"
            },
            {
              "components": [
                {
                  "internalType": "address[]",
                  "name": "offers",
                  "type": "address[]"
                },
                {
                  "internalType": "enum OfferType[]",
                  "name": "types",
                  "type": "uint8[]"
                }
              ],
              "internalType": "struct OfferRestrictions",
              "name": "restrictions",
              "type": "tuple"
            },
            {
              "internalType": "string",
              "name": "properties",
              "type": "string"
            },
            {
              "internalType": "uint256",
              "name": "maxDurationTimeMinutes",
              "type": "uint256"
            },
            {
              "internalType": "string",
              "name": "inputFormat",
              "type": "string"
            },
            {
              "internalType": "string",
              "name": "outputFormat",
              "type": "string"
            },
            {
              "internalType": "string",
              "name": "allowedArgs",
              "type": "string"
            },
            {
              "internalType": "address[]",
              "name": "allowedAccounts",
              "type": "address[]"
            },
            {
              "internalType": "string",
              "name": "argsPublicKey",
              "type": "string"
            },
            {
              "internalType": "string",
              "name": "resultUrl",
              "type": "string"
            },
            {
              "internalType": "uint256",
              "name": "disabledAfter",
              "type": "uint256"
            },
            {
              "internalType": "string",
              "name": "linkage",
              "type": "string"
            },
            {
              "internalType": "string",
              "name": "hash",
              "type": "string"
            }
          ],
          "internalType": "struct OfferInfo",
          "name": "",
          "type": "tuple"
        }
      ],
      "stateMutability": "view",
      "type": "function"
    },
    {
      "inputs": [],
      "name": "getOfferGroup",
      "outputs": [
        {
          "internalType": "enum OfferGroup",
          "name": "",
          "type": "uint8"
        }
      ],
      "stateMutability": "view",
      "type": "function"
    },
    {
      "inputs": [],
      "name": "getOfferType",
      "outputs": [
        {
          "internalType": "enum OfferType",
          "name": "",
          "type": "uint8"
        }
      ],
      "stateMutability": "view",
      "type": "function"
    },
    {
      "inputs": [],
      "name": "getOrigins",
      "outputs": [
        {
          "components": [
            {
              "internalType": "uint256",
              "name": "createdDate",
              "type": "uint256"
            },
            {
              "internalType": "address",
              "name": "createdBy",
              "type": "address"
            },
            {
              "internalType": "uint256",
              "name": "modifiedDate",
              "type": "uint256"
            },
            {
              "internalType": "address",
              "name": "modifiedBy",
              "type": "address"
            }
          ],
          "internalType": "struct Origins",
          "name": "",
          "type": "tuple"
        }
      ],
      "stateMutability": "view",
      "type": "function"
    },
    {
      "inputs": [],
      "name": "getProvider",
      "outputs": [
        {
          "internalType": "address",
          "name": "",
          "type": "address"
        }
      ],
      "stateMutability": "view",
      "type": "function"
    },
    {
      "inputs": [],
      "name": "getProviderAuthority",
      "outputs": [
        {
          "internalType": "address",
          "name": "",
          "type": "address"
        }
      ],
      "stateMutability": "view",
      "type": "function"
    },
    {
      "inputs": [
        {
          "internalType": "address",
          "name": "consumer",
          "type": "address"
        }
      ],
      "name": "isAllowedFor",
      "outputs": [
        {
          "internalType": "bool",
          "name": "",
          "type": "bool"
        }
      ],
      "stateMutability": "view",
      "type": "function"
    },
    {
      "inputs": [],
      "name": "isCancelable",
      "outputs": [
        {
          "internalType": "bool",
          "name": "",
          "type": "bool"
        }
      ],
      "stateMutability": "view",
      "type": "function"
    },
    {
      "inputs": [],
      "name": "isEnabled",
      "outputs": [
        {
          "internalType": "bool",
          "name": "",
          "type": "bool"
        }
      ],
      "stateMutability": "view",
      "type": "function"
    },
    {
      "inputs": [
        {
          "internalType": "enum OfferType",
          "name": "offerType",
          "type": "uint8"
        }
      ],
      "name": "isRestrictedByOfferType",
      "outputs": [
        {
          "internalType": "bool",
          "name": "",
          "type": "bool"
        }
      ],
      "stateMutability": "view",
      "type": "function"
    },
    {
      "inputs": [
        {
          "internalType": "address",
          "name": "offerAddress",
          "type": "address"
        }
      ],
      "name": "isRestrictionsPermitThatOffer",
      "outputs": [
        {
          "internalType": "bool",
          "name": "",
          "type": "bool"
        }
      ],
      "stateMutability": "view",
      "type": "function"
    },
    {
      "inputs": [
        {
          "internalType": "string",
          "name": "description",
          "type": "string"
        }
      ],
      "name": "setDescription",
      "outputs": [],
      "stateMutability": "nonpayable",
      "type": "function"
    },
    {
      "inputs": [
        {
          "internalType": "string",
          "name": "name",
          "type": "string"
        }
      ],
      "name": "setName",
      "outputs": [],
      "stateMutability": "nonpayable",
      "type": "function"
    }
  ],
  "bytecode": "0x60806040523480156200001157600080fd5b5060405162002c0f38038062002c0f833981016040819052620000349162000aca565b600080546001600160a01b038088166001600160a01b031992831617909255600380549287169290911691909117905581518051839160059162000080918391602090910190620006cb565b50602082015160018083018054909160ff1990911690836002811115620000b757634e487b7160e01b600052602160045260246000fd5b0217905550604082015160018201805461ff001916610100836003811115620000f057634e487b7160e01b600052602160045260246000fd5b02179055506060820151600182018054911515620100000262ff0000199092169190911790556080820151805162000133916002840191602090910190620006cb565b5060a0820151600382015560c08201518051805160048401916200015d918391602001906200075a565b506020828101518051620001789260018501920190620007b2565b50505060e0820151805162000198916006840191602090910190620006cb565b5061010082015160078201556101208201518051620001c2916008840191602090910190620006cb565b506101408201518051620001e1916009840191602090910190620006cb565b5061016082015180516200020091600a840191602090910190620006cb565b5061018082015180516200021f91600b8401916020909101906200075a565b506101a082015180516200023e91600c840191602090910190620006cb565b506101c082015180516200025d91600d840191602090910190620006cb565b506101e0820151600e82015561020082015180516200028791600f840191602090910190620006cb565b506102208201518051620002a6916010840191602090910190620006cb565b5050506004819055620002c76016846200056b602090811b6200136e17901c565b6009541580620002fc5750600060065460ff166002811115620002fa57634e487b7160e01b600052602160045260246000fd5b145b6200034e5760405162461bcd60e51b815260206004820152601c60248201527f4e6f7420616c6c6f77656420666f72206f75747075742067726f75700000000060448201526064015b60405180910390fd5b60005b60095481101562000490576009805460009190839081106200038357634e487b7160e01b600052603260045260246000fd5b6000918252602080832090910154604080516357a9b97360e11b815290516001600160a01b03909216945084936200047a938593601a93859263af5372e692600480840193829003018186803b158015620003dd57600080fd5b505afa158015620003f2573d6000803e3d6000fd5b505050506040513d601f19601f8201168201806040525081019062000418919062000d8c565b60038111156200043857634e487b7160e01b600052602160045260246000fd5b60038111156200045857634e487b7160e01b600052602160045260246000fd5b8152602001908152602001600020620005aa60201b620013ad1790919060201c565b505080620004889062000e97565b905062000351565b5060005b600a548110156200055f57600a80546000919083908110620004c657634e487b7160e01b600052603260045260246000fd5b60009182526020808320908204015460ff601f9092166101000a9004169150600190601b908360038111156200050c57634e487b7160e01b600052602160045260246000fd5b60038111156200052c57634e487b7160e01b600052602160045260246000fd5b81526020810191909152604001600020805460ff191691151591909117905550620005578162000e97565b905062000494565b50505050505062000ed5565b428083556001830180546001600160a01b039093166001600160a01b031993841681179091556002840191909155600390920180549091169091179055565b6001600160a01b038116620006025760405162461bcd60e51b815260206004820152601d60248201527f417474656d707420746f206164642061207a65726f2061646472657373000000604482015260640162000345565b600182015460009015806200067b57506001600160a01b0382166000908152602084905260409020541580156200067b5750816001600160a01b0316836001016000815481106200066357634e487b7160e01b600052603260045260246000fd5b6000918252602090912001546001600160a01b031614155b9050806200068857505050565b50600180830180546001600160a01b03909316600081815260209586526040812085905592840182559082529290200180546001600160a01b0319169091179055565b828054620006d99062000e5a565b90600052602060002090601f016020900481019282620006fd576000855562000748565b82601f106200071857805160ff191683800117855562000748565b8280016001018555821562000748579182015b82811115620007485782518255916020019190600101906200072b565b506200075692915062000872565b5090565b82805482825590600052602060002090810192821562000748579160200282015b828111156200074857825182546001600160a01b0319166001600160a01b039091161782556020909201916001909101906200077b565b82805482825590600052602060002090601f01602090048101928215620007485791602002820160005b838211156200083957835183826101000a81548160ff021916908360038111156200081757634e487b7160e01b600052602160045260246000fd5b02179055509260200192600101602081600001049283019260010302620007dc565b8015620008685782816101000a81549060ff021916905560010160208160000104928301926001030262000839565b5050620007569291505b5b8082111562000756576000815560010162000873565b80516001600160a01b0381168114620008a157600080fd5b919050565b600082601f830112620008b7578081fd5b81516020620008d0620008ca8362000e34565b62000e01565b80838252828201915082860187848660051b8901011115620008f0578586fd5b855b858110156200091957620009068262000889565b84529284019290840190600101620008f2565b5090979650505050505050565b80518015158114620008a157600080fd5b805160038110620008a157600080fd5b805160048110620008a157600080fd5b600082601f83011262000968578081fd5b81516001600160401b0381111562000984576200098462000ebf565b60206200099a601f8301601f1916820162000e01565b8281528582848701011115620009ae578384fd5b835b83811015620009cd578581018301518282018401528201620009b0565b83811115620009de57848385840101525b5095945050505050565b600060408284031215620009fa578081fd5b62000a0462000db0565b82519091506001600160401b038082111562000a1f57600080fd5b62000a2d85838601620008a6565b835260209150818401518181111562000a4557600080fd5b84019050601f8101851362000a5957600080fd5b805162000a6a620008ca8262000e34565b80828252848201915084840188868560051b870101111562000a8b57600080fd5b600094505b8385101562000ab95762000aa48162000947565b83526001949094019391850191850162000a90565b508085870152505050505092915050565b600080600080600060a0868803121562000ae2578081fd5b62000aed8662000889565b945062000afd6020870162000889565b935062000b0d6040870162000889565b60608701519093506001600160401b038082111562000b2a578283fd5b90870190610240828a03121562000b3f578283fd5b62000b4962000ddb565b82518281111562000b58578485fd5b62000b668b82860162000957565b82525062000b776020840162000937565b602082015262000b8a6040840162000947565b604082015262000b9d6060840162000926565b606082015260808301518281111562000bb4578485fd5b62000bc28b82860162000957565b60808301525060a083015160a082015260c08301518281111562000be4578485fd5b62000bf28b828601620009e8565b60c08301525060e08301518281111562000c0a578485fd5b62000c188b82860162000957565b60e0830152506101008381015190820152610120808401518381111562000c3d578586fd5b62000c4b8c82870162000957565b828401525050610140808401518381111562000c65578586fd5b62000c738c82870162000957565b828401525050610160808401518381111562000c8d578586fd5b62000c9b8c82870162000957565b828401525050610180808401518381111562000cb5578586fd5b62000cc38c828701620008a6565b8284015250506101a0808401518381111562000cdd578586fd5b62000ceb8c82870162000957565b8284015250506101c0808401518381111562000d05578586fd5b62000d138c82870162000957565b8284015250506101e0808401518183015250610200808401518381111562000d39578586fd5b62000d478c82870162000957565b828401525050610220808401518381111562000d61578586fd5b62000d6f8c82870162000957565b828401525050809450505050608086015190509295509295909350565b60006020828403121562000d9e578081fd5b62000da98262000947565b9392505050565b604080519081016001600160401b038111828210171562000dd55762000dd562000ebf565b60405290565b60405161024081016001600160401b038111828210171562000dd55762000dd562000ebf565b604051601f8201601f191681016001600160401b038111828210171562000e2c5762000e2c62000ebf565b604052919050565b60006001600160401b0382111562000e505762000e5062000ebf565b5060051b60200190565b600181811c9082168062000e6f57607f821691505b6020821081141562000e9157634e487b7160e01b600052602260045260246000fd5b50919050565b600060001982141562000eb857634e487b7160e01b81526011600452602481fd5b5060010190565b634e487b7160e01b600052604160045260246000fd5b611d2a8062000ee56000396000f3fe608060405234801561001057600080fd5b50600436106101365760003560e01c80639b7d6f12116100b2578063b737e98e11610081578063c47f002711610066578063c47f0027146102df578063f12018c3146102f2578063f55ba0d31461030557600080fd5b8063b737e98e14610233578063bbb5d5f7146102d757600080fd5b80639b7d6f1214610203578063a3907d711461020b578063aad4513314610213578063af5372e61461021b57600080fd5b8063483d45bd116101095780636aa633b6116100ee5780636aa633b6146101c75780638383da75146101cf57806390c3f38f146101f057600080fd5b8063483d45bd1461018d5780635a9b0b89146101b257600080fd5b80631bffb4911461013b5780631f6bb8481461015d5780632acdf0fa146101705780632f2770db14610183575b600080fd5b60065462010000900460ff165b60405190151581526020015b60405180910390f35b61014861016b3660046117c2565b610318565b60065460ff1660405161015491906119f6565b61018b6103db565b005b6003546001600160a01b03165b6040516001600160a01b039091168152602001610154565b6101ba6105a4565b6040516101549190611a2c565b610148610dbb565b6101e26101dd3660046118bc565b610dd4565b604051908152602001610154565b61018b6101fe3660046117fa565b610e0d565b61019a610efc565b61018b610f92565b6013546101e2565b600654610100900460ff166040516101549190611a04565b610295604080516080810182526000808252602082018190529181018290526060810191909152506040805160808101825260165481526017546001600160a01b03908116602083015260185492820192909252601954909116606082015290565b6040516101549190815181526020808301516001600160a01b039081169183019190915260408084015190830152606092830151169181019190915260800190565b6008546101e2565b61018b6102ed3660046117fa565b6110f7565b61014861030036600461178a565b6111e2565b61014861031336600461178a565b61126d565b6000601b600083600381111561033e57634e487b7160e01b600052602160045260246000fd5b600381111561035d57634e487b7160e01b600052602160045260246000fd5b815260208101919091526040016000205460ff16806103d557506103d3601a600084600381111561039e57634e487b7160e01b600052602160045260246000fd5b60038111156103bd57634e487b7160e01b600052602160045260246000fd5b8152602001908152602001600020600101541590565b155b92915050565b60035460408051636760c4b760e01b8152905133926001600160a01b031691636760c4b7916004808301926020929190829003018186803b15801561041f57600080fd5b505afa158015610433573d6000803e3d6000fd5b505050506040513d601f19601f8201168201806040525081019061045791906117a6565b6001600160a01b0316146104a25760405162461bcd60e51b815260206004820152600d60248201526c1058d8d95cdcc819195b9a5959609a1b60448201526064015b60405180910390fd5b601354156104f25760405162461bcd60e51b815260206004820152601960248201527f4f6666657220697320616c72656164792064697361626c6564000000000000006044820152606401610499565b42601855601980546001600160a01b031916331790556000546201518090610524906001600160a01b031660046114c8565b61052e9190611c18565b6105389042611c00565b6013819055600354604051639789e32360e01b81526000600482015260248101929092526001600160a01b031690639789e323906044015b600060405180830381600087803b15801561058a57600080fd5b505af115801561059e573d6000803e3d6000fd5b50505050565b6105ac611648565b6005604051806102400160405290816000820180546105ca90611c37565b80601f01602080910402602001604051908101604052809291908181526020018280546105f690611c37565b80156106435780601f1061061857610100808354040283529160200191610643565b820191906000526020600020905b81548152906001019060200180831161062657829003601f168201915b5050509183525050600182015460209091019060ff16600281111561067857634e487b7160e01b600052602160045260246000fd5b600281111561069757634e487b7160e01b600052602160045260246000fd5b81526020016001820160019054906101000a900460ff1660038111156106cd57634e487b7160e01b600052602160045260246000fd5b60038111156106ec57634e487b7160e01b600052602160045260246000fd5b8152600182015462010000900460ff161515602082015260028201805460409092019161071890611c37565b80601f016020809104026020016040519081016040528092919081815260200182805461074490611c37565b80156107915780601f1061076657610100808354040283529160200191610791565b820191906000526020600020905b81548152906001019060200180831161077457829003601f168201915b5050505050815260200160038201548152602001600482016040518060400160405290816000820180548060200260200160405190810160405280929190818152602001828054801561080d57602002820191906000526020600020905b81546001600160a01b031681526001909101906020018083116107ef575b50505050508152602001600182018054806020026020016040519081016040528092919081815260200182805480156108a357602002820191906000526020600020906000905b82829054906101000a900460ff16600381111561088157634e487b7160e01b600052602160045260246000fd5b8152602060019283018181049485019490930390920291018084116108545790505b50505050508152505081526020016006820180546108c090611c37565b80601f01602080910402602001604051908101604052809291908181526020018280546108ec90611c37565b80156109395780601f1061090e57610100808354040283529160200191610939565b820191906000526020600020905b81548152906001019060200180831161091c57829003601f168201915b505050505081526020016007820154815260200160088201805461095c90611c37565b80601f016020809104026020016040519081016040528092919081815260200182805461098890611c37565b80156109d55780601f106109aa576101008083540402835291602001916109d5565b820191906000526020600020905b8154815290600101906020018083116109b857829003601f168201915b505050505081526020016009820180546109ee90611c37565b80601f0160208091040260200160405190810160405280929190818152602001828054610a1a90611c37565b8015610a675780601f10610a3c57610100808354040283529160200191610a67565b820191906000526020600020905b815481529060010190602001808311610a4a57829003601f168201915b50505050508152602001600a82018054610a8090611c37565b80601f0160208091040260200160405190810160405280929190818152602001828054610aac90611c37565b8015610af95780601f10610ace57610100808354040283529160200191610af9565b820191906000526020600020905b815481529060010190602001808311610adc57829003601f168201915b50505050508152602001600b8201805480602002602001604051908101604052809291908181526020018280548015610b5b57602002820191906000526020600020905b81546001600160a01b03168152600190910190602001808311610b3d575b50505050508152602001600c82018054610b7490611c37565b80601f0160208091040260200160405190810160405280929190818152602001828054610ba090611c37565b8015610bed5780601f10610bc257610100808354040283529160200191610bed565b820191906000526020600020905b815481529060010190602001808311610bd057829003601f168201915b50505050508152602001600d82018054610c0690611c37565b80601f0160208091040260200160405190810160405280929190818152602001828054610c3290611c37565b8015610c7f5780601f10610c5457610100808354040283529160200191610c7f565b820191906000526020600020905b815481529060010190602001808311610c6257829003601f168201915b50505050508152602001600e8201548152602001600f82018054610ca290611c37565b80601f0160208091040260200160405190810160405280929190818152602001828054610cce90611c37565b8015610d1b5780601f10610cf057610100808354040283529160200191610d1b565b820191906000526020600020905b815481529060010190602001808311610cfe57829003601f168201915b50505050508152602001601082018054610d3490611c37565b80601f0160208091040260200160405190810160405280929190818152602001828054610d6090611c37565b8015610dad5780601f10610d8257610100808354040283529160200191610dad565b820191906000526020600020905b815481529060010190602001808311610d9057829003601f168201915b505050505081525050905090565b6013546000901580610dcf57506013544211155b905090565b60008042600560070154603c610dea9190611c18565b610df49086611c00565b10905080610e025782610e05565b60005b949350505050565b60035460408051636760c4b760e01b8152905133926001600160a01b031691636760c4b7916004808301926020929190829003018186803b158015610e5157600080fd5b505afa158015610e65573d6000803e3d6000fd5b505050506040513d601f19601f82011682018060405250810190610e8991906117a6565b6001600160a01b031614610ecf5760405162461bcd60e51b815260206004820152600d60248201526c1058d8d95cdcc819195b9a5959609a1b6044820152606401610499565b42601855601980546001600160a01b031916331790558051610ef89060079060208401906116f1565b5050565b600354604080517f0857101100000000000000000000000000000000000000000000000000000000815290516000926001600160a01b0316916308571011916004808301926020929190829003018186803b158015610f5a57600080fd5b505afa158015610f6e573d6000803e3d6000fd5b505050506040513d601f19601f82011682018060405250810190610dcf91906117a6565b60035460408051636760c4b760e01b8152905133926001600160a01b031691636760c4b7916004808301926020929190829003018186803b158015610fd657600080fd5b505afa158015610fea573d6000803e3d6000fd5b505050506040513d601f19601f8201168201806040525081019061100e91906117a6565b6001600160a01b0316146110545760405162461bcd60e51b815260206004820152600d60248201526c1058d8d95cdcc819195b9a5959609a1b6044820152606401610499565b6013546110a35760405162461bcd60e51b815260206004820152601860248201527f4f6666657220697320616c726561647920656e61626c656400000000000000006044820152606401610499565b42601855601980546001600160a01b0319163317905560006013819055600354604051639789e32360e01b81526001600482015260248101929092526001600160a01b031690639789e32390604401610570565b60035460408051636760c4b760e01b8152905133926001600160a01b031691636760c4b7916004808301926020929190829003018186803b15801561113b57600080fd5b505afa15801561114f573d6000803e3d6000fd5b505050506040513d601f19601f8201168201806040525081019061117391906117a6565b6001600160a01b0316146111b95760405162461bcd60e51b815260206004820152600d60248201526c1058d8d95cdcc819195b9a5959609a1b6044820152606401610499565b42601855601980546001600160a01b031916331790558051610ef89060059060208401906116f1565b6010546000906111f457506001919050565b60005b6010548110156112645760006005600b01828154811061122757634e487b7160e01b600052603260045260246000fd5b6000918252602090912001546001600160a01b0390811691508416811415611253575060019392505050565b5061125d81611c72565b90506111f7565b50600092915050565b6000306001600160a01b038316141561128857506001919050565b60008290506000601a6000836001600160a01b031663af5372e66040518163ffffffff1660e01b815260040160206040518083038186803b1580156112cc57600080fd5b505afa1580156112e0573d6000803e3d6000fd5b505050506040513d601f19601f8201168201806040525081019061130491906117de565b600381111561132357634e487b7160e01b600052602160045260246000fd5b600381111561134257634e487b7160e01b600052602160045260246000fd5b8152602001908152602001600020905061135e81600101541590565b80610e055750610e058185611555565b428083556001830180546001600160a01b039093166001600160a01b031993841681179091556002840191909155600390920180549091169091179055565b6001600160a01b0381166114035760405162461bcd60e51b815260206004820152601d60248201527f417474656d707420746f206164642061207a65726f20616464726573730000006044820152606401610499565b6001820154600090158061147957506001600160a01b0382166000908152602084905260409020541580156114795750816001600160a01b03168360010160008154811061146157634e487b7160e01b600052603260045260246000fd5b6000918252602090912001546001600160a01b031614155b90508061148557505050565b50600180830180546001600160a01b03909316600081815260209586526040812085905592840182559082529290200180546001600160a01b0319169091179055565b60006114d3836115d5565b6001600160a01b03166303a2216d836040518263ffffffff1660e01b81526004016114fe9190611a12565b60206040518083038186803b15801561151657600080fd5b505afa15801561152a573d6000803e3d6000fd5b505050506040513d601f19601f8201168201806040525081019061154e91906118a4565b9392505050565b6001820154600090611569575060006103d5565b6001600160a01b03821660009081526020849052604090205415158061154e5750816001600160a01b0316836001016000815481106115b857634e487b7160e01b600052603260045260246000fd5b6000918252602090912001546001600160a01b0316149392505050565b6000816001600160a01b031663f1f0bd016040518163ffffffff1660e01b815260040160206040518083038186803b15801561161057600080fd5b505afa158015611624573d6000803e3d6000fd5b505050506040513d601f19601f820116820180604052508101906103d591906117a6565b60408051610240810190915260608152602081016000815260200160008152602001600015158152602001606081526020016000815260200161169e604051806040016040528060608152602001606081525090565b815260200160608152602001600081526020016060815260200160608152602001606081526020016060815260200160608152602001606081526020016000815260200160608152602001606081525090565b8280546116fd90611c37565b90600052602060002090601f01602090048101928261171f5760008555611765565b82601f1061173857805160ff1916838001178555611765565b82800160010185558215611765579182015b8281111561176557825182559160200191906001019061174a565b50611771929150611775565b5090565b5b808211156117715760008155600101611776565b60006020828403121561179b578081fd5b813561154e81611ccf565b6000602082840312156117b7578081fd5b815161154e81611ccf565b6000602082840312156117d3578081fd5b813561154e81611ce7565b6000602082840312156117ef578081fd5b815161154e81611ce7565b60006020828403121561180b578081fd5b813567ffffffffffffffff80821115611822578283fd5b818401915084601f830112611835578283fd5b81358181111561184757611847611cb9565b604051601f8201601f19908116603f0116810190838211818310171561186f5761186f611cb9565b81604052828152876020848701011115611887578586fd5b826020860160208301379182016020019490945295945050505050565b6000602082840312156118b5578081fd5b5051919050565b600080604083850312156118ce578081fd5b50508035926020909101359150565b6000815180845260208085019450808401835b838110156119155781516001600160a01b0316875295820195908201906001016118f0565b509495945050505050565b6003811061193057611930611ca3565b9052565b6004811061193057611930611ca3565b60008151808452815b818110156119695760208185018101518683018201520161194d565b8181111561197a5782602083870101525b50601f01601f19169290920160200192915050565b60008151604084526119a460408501826118dd565b602084810151868303878301528051808452908201935090918491908301905b808310156119eb576119d7828651611934565b9383019360019290920191908301906119c4565b509695505050505050565b602081016103d58284611920565b602081016103d58284611934565b6020810160118310611a2657611a26611ca3565b91905290565b6020815260008251610240806020850152611a4b610260850183611944565b91506020850151611a5f6040860182611920565b506040850151611a726060860182611934565b5060608501518015156080860152506080850151601f19808685030160a0870152611a9d8483611944565b935060a087015160c087015260c08701519150808685030160e0870152611ac4848361198f565b935060e08701519150610100818786030181880152611ae38584611944565b945080880151925050610120828188015280880151925050610140818786030181880152611b118584611944565b945080880151925050610160818786030181880152611b308584611944565b945080880151925050610180818786030181880152611b4f8584611944565b9450808801519250506101a0818786030181880152611b6e85846118dd565b9450808801519250506101c0818786030181880152611b8d8584611944565b9450808801519250506101e0818786030181880152611bac8584611944565b945080880151925050610200828188015280880151925050610220818786030181880152611bda8584611944565b908801518782039092018488015293509050611bf68382611944565b9695505050505050565b60008219821115611c1357611c13611c8d565b500190565b6000816000190483118215151615611c3257611c32611c8d565b500290565b600181811c90821680611c4b57607f821691505b60208210811415611c6c57634e487b7160e01b600052602260045260246000fd5b50919050565b6000600019821415611c8657611c86611c8d565b5060010190565b634e487b7160e01b600052601160045260246000fd5b634e487b7160e01b600052602160045260246000fd5b634e487b7160e01b600052604160045260246000fd5b6001600160a01b0381168114611ce457600080fd5b50565b60048110611ce457600080fdfea2646970667358221220be38bb08356b04c42d1f70fd303a6e4e01562f9d76b2d6b826d219c1494cd18664736f6c63430008040033",
  "linkReferences": {},
  "deployedLinkReferences": {}
}