{
  "_format": "hh-sol-artifact-1",
  "contractName": "Offer",
  "sourceName": "contracts/Offer.sol",
  "abi": [
    {
      "inputs": [
        {
          "internalType": "address",
          "name": "_superpro",
          "type": "address"
        },
        {
          "internalType": "address",
          "name": "_provider",
          "type": "address"
        },
        {
          "components": [
            {
              "internalType": "string",
              "name": "name",
              "type": "string"
            },
            {
              "internalType": "enum OfferGroup",
              "name": "group",
              "type": "uint8"
            },
            {
              "internalType": "enum OfferType",
              "name": "offerType",
              "type": "uint8"
            },
            {
              "internalType": "bool",
              "name": "cancelable",
              "type": "bool"
            },
            {
              "internalType": "string",
              "name": "description",
              "type": "string"
            },
            {
              "internalType": "uint256",
              "name": "holdSum",
              "type": "uint256"
            },
            {
              "internalType": "address[]",
              "name": "restrictions",
              "type": "address[]"
            },
            {
              "internalType": "string",
              "name": "properties",
              "type": "string"
            },
            {
              "internalType": "uint256",
              "name": "maxDurationTimeMinutes",
              "type": "uint256"
            },
            {
              "internalType": "string",
              "name": "inputFormat",
              "type": "string"
            },
            {
              "internalType": "string",
              "name": "outputFormat",
              "type": "string"
            },
            {
              "internalType": "string",
              "name": "allowedArgs",
              "type": "string"
            },
            {
              "internalType": "address[]",
              "name": "allowedAccounts",
              "type": "address[]"
            },
            {
              "internalType": "string",
              "name": "argsPublicKey",
              "type": "string"
            },
            {
              "internalType": "string",
              "name": "argsPublicKeyAlgo",
              "type": "string"
            },
            {
              "internalType": "string",
              "name": "resultUrl",
              "type": "string"
            },
            {
              "internalType": "uint256",
              "name": "disabledAfter",
              "type": "uint256"
            }
          ],
          "internalType": "struct OfferInfo",
          "name": "_info",
          "type": "tuple"
        }
      ],
      "stateMutability": "nonpayable",
      "type": "constructor"
    },
    {
      "inputs": [
        {
          "internalType": "address",
          "name": "offerAddress",
          "type": "address"
        }
      ],
      "name": "checkRestrictionsFor",
      "outputs": [
        {
          "internalType": "bool",
          "name": "",
          "type": "bool"
        }
      ],
      "stateMutability": "view",
      "type": "function"
    },
    {
      "inputs": [],
      "name": "disable",
      "outputs": [],
      "stateMutability": "nonpayable",
      "type": "function"
    },
    {
      "inputs": [],
      "name": "enable",
      "outputs": [],
      "stateMutability": "nonpayable",
      "type": "function"
    },
    {
      "inputs": [],
      "name": "getDisalbedAfter",
      "outputs": [
        {
          "internalType": "uint256",
          "name": "",
          "type": "uint256"
        }
      ],
      "stateMutability": "view",
      "type": "function"
    },
    {
      "inputs": [],
      "name": "getInfo",
      "outputs": [
        {
          "components": [
            {
              "internalType": "string",
              "name": "name",
              "type": "string"
            },
            {
              "internalType": "enum OfferGroup",
              "name": "group",
              "type": "uint8"
            },
            {
              "internalType": "enum OfferType",
              "name": "offerType",
              "type": "uint8"
            },
            {
              "internalType": "bool",
              "name": "cancelable",
              "type": "bool"
            },
            {
              "internalType": "string",
              "name": "description",
              "type": "string"
            },
            {
              "internalType": "uint256",
              "name": "holdSum",
              "type": "uint256"
            },
            {
              "internalType": "address[]",
              "name": "restrictions",
              "type": "address[]"
            },
            {
              "internalType": "string",
              "name": "properties",
              "type": "string"
            },
            {
              "internalType": "uint256",
              "name": "maxDurationTimeMinutes",
              "type": "uint256"
            },
            {
              "internalType": "string",
              "name": "inputFormat",
              "type": "string"
            },
            {
              "internalType": "string",
              "name": "outputFormat",
              "type": "string"
            },
            {
              "internalType": "string",
              "name": "allowedArgs",
              "type": "string"
            },
            {
              "internalType": "address[]",
              "name": "allowedAccounts",
              "type": "address[]"
            },
            {
              "internalType": "string",
              "name": "argsPublicKey",
              "type": "string"
            },
            {
              "internalType": "string",
              "name": "argsPublicKeyAlgo",
              "type": "string"
            },
            {
              "internalType": "string",
              "name": "resultUrl",
              "type": "string"
            },
            {
              "internalType": "uint256",
              "name": "disabledAfter",
              "type": "uint256"
            }
          ],
          "internalType": "struct OfferInfo",
          "name": "",
          "type": "tuple"
        }
      ],
      "stateMutability": "view",
      "type": "function"
    },
    {
      "inputs": [],
      "name": "getOfferType",
      "outputs": [
        {
          "internalType": "enum OfferType",
          "name": "",
          "type": "uint8"
        }
      ],
      "stateMutability": "view",
      "type": "function"
    },
    {
      "inputs": [],
      "name": "getProvider",
      "outputs": [
        {
          "internalType": "address",
          "name": "",
          "type": "address"
        }
      ],
      "stateMutability": "view",
      "type": "function"
    },
    {
      "inputs": [],
      "name": "getProviderAuthority",
      "outputs": [
        {
          "internalType": "address",
          "name": "",
          "type": "address"
        }
      ],
      "stateMutability": "view",
      "type": "function"
    },
    {
      "inputs": [
        {
          "internalType": "address",
          "name": "consumer",
          "type": "address"
        }
      ],
      "name": "isAllowedFor",
      "outputs": [
        {
          "internalType": "bool",
          "name": "",
          "type": "bool"
        }
      ],
      "stateMutability": "view",
      "type": "function"
    },
    {
      "inputs": [],
      "name": "isCancelable",
      "outputs": [
        {
          "internalType": "bool",
          "name": "",
          "type": "bool"
        }
      ],
      "stateMutability": "view",
      "type": "function"
    },
    {
      "inputs": [],
      "name": "isEnabled",
      "outputs": [
        {
          "internalType": "bool",
          "name": "",
          "type": "bool"
        }
      ],
      "stateMutability": "view",
      "type": "function"
    },
    {
      "inputs": [
        {
          "internalType": "string",
          "name": "description",
          "type": "string"
        }
      ],
      "name": "setDescription",
      "outputs": [],
      "stateMutability": "nonpayable",
      "type": "function"
    },
    {
      "inputs": [
        {
          "internalType": "string",
          "name": "name",
          "type": "string"
        }
      ],
      "name": "setName",
      "outputs": [],
      "stateMutability": "nonpayable",
      "type": "function"
    }
  ],
  "bytecode": "0x60806040523480156200001157600080fd5b506040516200244a3803806200244a8339810160408190526200003491620007d5565b600080546001600160a01b038086166001600160a01b03199283161790925560038054928516929091169190911790558051805182916004916200008091839160209091019062000564565b50602082015160018083018054909160ff19909116908381811115620000b657634e487b7160e01b600052602160045260246000fd5b0217905550604082015160018201805461ff001916610100836003811115620000ef57634e487b7160e01b600052602160045260246000fd5b02179055506060820151600182018054911515620100000262ff000019909216919091179055608082015180516200013291600284019160209091019062000564565b5060a0820151600382015560c082015180516200015a916004840191602090910190620005f3565b5060e082015180516200017891600584019160209091019062000564565b5061010082015160068201556101208201518051620001a291600784019160209091019062000564565b506101408201518051620001c191600884019160209091019062000564565b506101608201518051620001e091600984019160209091019062000564565b506101808201518051620001ff91600a840191602090910190620005f3565b506101a082015180516200021e91600b84019160209091019062000564565b506101c082015180516200023d91600c84019160209091019062000564565b506101e082015180516200025c91600d84019160209091019062000564565b506102009190910151600e909101556008541580620002a05750600060055460ff1660018111156200029e57634e487b7160e01b600052602160045260246000fd5b145b620002f25760405162461bcd60e51b815260206004820152601c60248201527f4e6f7420616c6c6f77656420666f72206f75747075742067726f75700000000060448201526064015b60405180910390fd5b60005b600854811015620004395760006004800182815481106200032657634e487b7160e01b600052603260045260246000fd5b9060005260206000200160009054906101000a90046001600160a01b0316905060008190506200042360136000836001600160a01b031663af5372e66040518163ffffffff1660e01b815260040160206040518083038186803b1580156200038d57600080fd5b505afa158015620003a2573d6000803e3d6000fd5b505050506040513d601f19601f82011682018060405250810190620003c8919062000a53565b6003811115620003e857634e487b7160e01b600052602160045260246000fd5b60038111156200040857634e487b7160e01b600052602160045260246000fd5b8152602001908152602001600020836200044360201b60201c565b505080620004319062000b13565b9050620002f5565b5050505062000b51565b6001600160a01b0381166200049b5760405162461bcd60e51b815260206004820152601d60248201527f417474656d707420746f206164642061207a65726f20616464726573730000006044820152606401620002e9565b600182015460009015806200051457506001600160a01b038216600090815260208490526040902054158015620005145750816001600160a01b031683600101600081548110620004fc57634e487b7160e01b600052603260045260246000fd5b6000918252602090912001546001600160a01b031614155b9050806200052157505050565b50600180830180546001600160a01b03909316600081815260209586526040812085905592840182559082529290200180546001600160a01b0319169091179055565b828054620005729062000ad6565b90600052602060002090601f016020900481019282620005965760008555620005e1565b82601f10620005b157805160ff1916838001178555620005e1565b82800160010185558215620005e1579182015b82811115620005e1578251825591602001919060010190620005c4565b50620005ef9291506200064b565b5090565b828054828255906000526020600020908101928215620005e1579160200282015b82811115620005e157825182546001600160a01b0319166001600160a01b0390911617825560209092019160019091019062000614565b5b80821115620005ef57600081556001016200064c565b80516001600160a01b03811681146200067a57600080fd5b919050565b600082601f83011262000690578081fd5b815160206001600160401b03821115620006ae57620006ae62000b3b565b8160051b620006bf82820162000aa3565b838152828101908684018388018501891015620006da578687fd5b8693505b858410156200070757620006f28162000662565b835260019390930192918401918401620006de565b50979650505050505050565b805180151581146200067a57600080fd5b8051600281106200067a57600080fd5b8051600481106200067a57600080fd5b600082601f83011262000755578081fd5b81516001600160401b0381111562000771576200077162000b3b565b602062000787601f8301601f1916820162000aa3565b82815285828487010111156200079b578384fd5b835b83811015620007ba5785810183015182820184015282016200079d565b83811115620007cb57848385840101525b5095945050505050565b600080600060608486031215620007ea578283fd5b620007f58462000662565b9250620008056020850162000662565b60408501519092506001600160401b038082111562000822578283fd5b90850190610220828803121562000837578283fd5b6200084162000a77565b82518281111562000850578485fd5b6200085e8982860162000744565b8252506200086f6020840162000724565b6020820152620008826040840162000734565b6040820152620008956060840162000713565b6060820152608083015182811115620008ac578485fd5b620008ba8982860162000744565b60808301525060a083015160a082015260c083015182811115620008dc578485fd5b620008ea898286016200067f565b60c08301525060e08301518281111562000902578485fd5b620009108982860162000744565b60e0830152506101008381015190820152610120808401518381111562000935578586fd5b620009438a82870162000744565b82840152505061014080840151838111156200095d578586fd5b6200096b8a82870162000744565b828401525050610160808401518381111562000985578586fd5b620009938a82870162000744565b8284015250506101808084015183811115620009ad578586fd5b620009bb8a8287016200067f565b8284015250506101a08084015183811115620009d5578586fd5b620009e38a82870162000744565b8284015250506101c08084015183811115620009fd578586fd5b62000a0b8a82870162000744565b8284015250506101e0808401518381111562000a25578586fd5b62000a338a82870162000744565b828401525050610200915081830151828201528093505050509250925092565b60006020828403121562000a65578081fd5b62000a708262000734565b9392505050565b60405161022081016001600160401b038111828210171562000a9d5762000a9d62000b3b565b60405290565b604051601f8201601f191681016001600160401b038111828210171562000ace5762000ace62000b3b565b604052919050565b600181811c9082168062000aeb57607f821691505b6020821081141562000b0d57634e487b7160e01b600052602260045260246000fd5b50919050565b600060001982141562000b3457634e487b7160e01b81526011600452602481fd5b5060010190565b634e487b7160e01b600052604160045260246000fd5b6118e98062000b616000396000f3fe608060405234801561001057600080fd5b50600436106100df5760003560e01c806390c3f38f1161008c578063a3907d7111610066578063a3907d7114610191578063af5372e614610199578063c47f0027146101b1578063f12018c3146101c457600080fd5b806390c3f38f14610163578063939ec132146101765780639b7d6f121461018957600080fd5b80635a9b0b89116100bd5780635a9b0b89146101355780636aa633b61461014a5780636d483c841461015257600080fd5b80631bffb491146100e45780632f2770db14610106578063483d45bd14610110575b600080fd5b60055462010000900460ff165b60405190151581526020015b60405180910390f35b61010e6101d7565b005b6003546001600160a01b03165b6040516001600160a01b0390911681526020016100fd565b61013d61042e565b6040516100fd91906115ed565b6100f1610b8b565b6012546040519081526020016100fd565b61010e61017136600461143d565b610ba4565b6100f16101843660046113df565b610c85565b61011d610d74565b61010e610e0a565b600554610100900460ff166040516100fd91906115cb565b61010e6101bf36600461143d565b610f69565b6100f16101d23660046113df565b611046565b6101df6110d1565b60035460408051636760c4b760e01b8152905133926001600160a01b031691636760c4b7916004808301926020929190829003018186803b15801561022357600080fd5b505afa158015610237573d6000803e3d6000fd5b505050506040513d601f19601f8201168201806040525081019061025b9190611402565b6001600160a01b0316146102a65760405162461bcd60e51b815260206004820152600d60248201526c1058d8d95cdcc819195b9a5959609a1b60448201526064015b60405180910390fd5b6102ae6110d1565b601254156102fe5760405162461bcd60e51b815260206004820152601960248201527f4f6666657220697320616c72656164792064697361626c656400000000000000604482015260640161029d565b61030b610e1060186117d7565b6000546040517f03a2216d00000000000000000000000000000000000000000000000000000000815263ffffffff92909216916001600160a01b03909116906303a2216d9061035e9060049081016115d9565b60206040518083038186803b15801561037657600080fd5b505afa15801561038a573d6000803e3d6000fd5b505050506040513d601f19601f820116820180604052508101906103ae91906114e7565b6103b891906117b8565b6103c290426117a0565b6012819055600354604051639789e32360e01b81526000600482015260248101929092526001600160a01b031690639789e323906044015b600060405180830381600087803b15801561041457600080fd5b505af1158015610428573d6000803e3d6000fd5b50505050565b6104b860408051610220810190915260608152602081016000815260200160008152602001600015158152602001606081526020016000815260200160608152602001606081526020016000815260200160608152602001606081526020016060815260200160608152602001606081526020016060815260200160608152602001600081525090565b6004604051806102200160405290816000820180546104d690611803565b80601f016020809104026020016040519081016040528092919081815260200182805461050290611803565b801561054f5780601f106105245761010080835404028352916020019161054f565b820191906000526020600020905b81548152906001019060200180831161053257829003601f168201915b505050918352505060018281015460209092019160ff169081111561058457634e487b7160e01b600052602160045260246000fd5b60018111156105a357634e487b7160e01b600052602160045260246000fd5b81526020016001820160019054906101000a900460ff1660038111156105d957634e487b7160e01b600052602160045260246000fd5b60038111156105f857634e487b7160e01b600052602160045260246000fd5b8152600182015462010000900460ff161515602082015260028201805460409092019161062490611803565b80601f016020809104026020016040519081016040528092919081815260200182805461065090611803565b801561069d5780601f106106725761010080835404028352916020019161069d565b820191906000526020600020905b81548152906001019060200180831161068057829003601f168201915b50505050508152602001600382015481526020016004820180548060200260200160405190810160405280929190818152602001828054801561070957602002820191906000526020600020905b81546001600160a01b031681526001909101906020018083116106eb575b5050505050815260200160058201805461072290611803565b80601f016020809104026020016040519081016040528092919081815260200182805461074e90611803565b801561079b5780601f106107705761010080835404028352916020019161079b565b820191906000526020600020905b81548152906001019060200180831161077e57829003601f168201915b50505050508152602001600682015481526020016007820180546107be90611803565b80601f01602080910402602001604051908101604052809291908181526020018280546107ea90611803565b80156108375780601f1061080c57610100808354040283529160200191610837565b820191906000526020600020905b81548152906001019060200180831161081a57829003601f168201915b5050505050815260200160088201805461085090611803565b80601f016020809104026020016040519081016040528092919081815260200182805461087c90611803565b80156108c95780601f1061089e576101008083540402835291602001916108c9565b820191906000526020600020905b8154815290600101906020018083116108ac57829003601f168201915b505050505081526020016009820180546108e290611803565b80601f016020809104026020016040519081016040528092919081815260200182805461090e90611803565b801561095b5780601f106109305761010080835404028352916020019161095b565b820191906000526020600020905b81548152906001019060200180831161093e57829003601f168201915b50505050508152602001600a82018054806020026020016040519081016040528092919081815260200182805480156109bd57602002820191906000526020600020905b81546001600160a01b0316815260019091019060200180831161099f575b50505050508152602001600b820180546109d690611803565b80601f0160208091040260200160405190810160405280929190818152602001828054610a0290611803565b8015610a4f5780601f10610a2457610100808354040283529160200191610a4f565b820191906000526020600020905b815481529060010190602001808311610a3257829003601f168201915b50505050508152602001600c82018054610a6890611803565b80601f0160208091040260200160405190810160405280929190818152602001828054610a9490611803565b8015610ae15780601f10610ab657610100808354040283529160200191610ae1565b820191906000526020600020905b815481529060010190602001808311610ac457829003601f168201915b50505050508152602001600d82018054610afa90611803565b80601f0160208091040260200160405190810160405280929190818152602001828054610b2690611803565b8015610b735780601f10610b4857610100808354040283529160200191610b73565b820191906000526020600020905b815481529060010190602001808311610b5657829003601f168201915b50505050508152602001600e82015481525050905090565b6012546000901580610b9f57506012544211155b905090565b610bac6110d1565b60035460408051636760c4b760e01b8152905133926001600160a01b031691636760c4b7916004808301926020929190829003018186803b158015610bf057600080fd5b505afa158015610c04573d6000803e3d6000fd5b505050506040513d601f19601f82011682018060405250810190610c289190611402565b6001600160a01b031614610c6e5760405162461bcd60e51b815260206004820152600d60248201526c1058d8d95cdcc819195b9a5959609a1b604482015260640161029d565b8051610c81906006906020840190611346565b5050565b600080829050600060136000836001600160a01b031663af5372e66040518163ffffffff1660e01b815260040160206040518083038186803b158015610cca57600080fd5b505afa158015610cde573d6000803e3d6000fd5b505050506040513d601f19601f82011682018060405250810190610d02919061141e565b6003811115610d2157634e487b7160e01b600052602160045260246000fd5b6003811115610d4057634e487b7160e01b600052602160045260246000fd5b81526020019081526020016000209050610d5c81600101541590565b80610d6c5750610d6c81856112c3565b949350505050565b600354604080517f0857101100000000000000000000000000000000000000000000000000000000815290516000926001600160a01b0316916308571011916004808301926020929190829003018186803b158015610dd257600080fd5b505afa158015610de6573d6000803e3d6000fd5b505050506040513d601f19601f82011682018060405250810190610b9f9190611402565b610e126110d1565b60035460408051636760c4b760e01b8152905133926001600160a01b031691636760c4b7916004808301926020929190829003018186803b158015610e5657600080fd5b505afa158015610e6a573d6000803e3d6000fd5b505050506040513d601f19601f82011682018060405250810190610e8e9190611402565b6001600160a01b031614610ed45760405162461bcd60e51b815260206004820152600d60248201526c1058d8d95cdcc819195b9a5959609a1b604482015260640161029d565b610edc6110d1565b601254610f2b5760405162461bcd60e51b815260206004820152601860248201527f4f6666657220697320616c726561647920656e61626c65640000000000000000604482015260640161029d565b60006012819055600354604051639789e32360e01b81526001600482015260248101929092526001600160a01b031690639789e323906044016103fa565b610f716110d1565b60035460408051636760c4b760e01b8152905133926001600160a01b031691636760c4b7916004808301926020929190829003018186803b158015610fb557600080fd5b505afa158015610fc9573d6000803e3d6000fd5b505050506040513d601f19601f82011682018060405250810190610fed9190611402565b6001600160a01b0316146110335760405162461bcd60e51b815260206004820152600d60248201526c1058d8d95cdcc819195b9a5959609a1b604482015260640161029d565b8051610c81906004906020840190611346565b600e5460009061105857506001919050565b60005b600e548110156110c85760006004600a01828154811061108b57634e487b7160e01b600052603260045260246000fd5b6000918252602090912001546001600160a01b03908116915084168114156110b7575060019392505050565b506110c18161183e565b905061105b565b50600092915050565b60008054906101000a90046001600160a01b03166001600160a01b031663f1f0bd016040518163ffffffff1660e01b815260040160206040518083038186803b15801561111d57600080fd5b505afa158015611131573d6000803e3d6000fd5b505050506040513d601f19601f820116820180604052508101906111559190611402565b6000805473ffffffffffffffffffffffffffffffffffffffff19166001600160a01b0392909216918217905560405163bcaa0c5560e01b815263bcaa0c55906111a3906001906004016115b1565b60206040518083038186803b1580156111bb57600080fd5b505afa1580156111cf573d6000803e3d6000fd5b505050506040513d601f19601f820116820180604052508101906111f39190611402565b6001805473ffffffffffffffffffffffffffffffffffffffff19166001600160a01b0392831617905560005460405163bcaa0c5560e01b815291169063bcaa0c5590611244906006906004016115b1565b60206040518083038186803b15801561125c57600080fd5b505afa158015611270573d6000803e3d6000fd5b505050506040513d601f19601f820116820180604052508101906112949190611402565b6002805473ffffffffffffffffffffffffffffffffffffffff19166001600160a01b0392909216919091179055565b60018201546000906112d757506000611340565b6001600160a01b03821660009081526020849052604090205415158061133d5750816001600160a01b03168360010160008154811061132657634e487b7160e01b600052603260045260246000fd5b6000918252602090912001546001600160a01b0316145b90505b92915050565b82805461135290611803565b90600052602060002090601f01602090048101928261137457600085556113ba565b82601f1061138d57805160ff19168380011785556113ba565b828001600101855582156113ba579182015b828111156113ba57825182559160200191906001019061139f565b506113c69291506113ca565b5090565b5b808211156113c657600081556001016113cb565b6000602082840312156113f0578081fd5b81356113fb8161189b565b9392505050565b600060208284031215611413578081fd5b81516113fb8161189b565b60006020828403121561142f578081fd5b8151600481106113fb578182fd5b60006020828403121561144e578081fd5b813567ffffffffffffffff80821115611465578283fd5b818401915084601f830112611478578283fd5b81358181111561148a5761148a611885565b604051601f8201601f19908116603f011681019083821181831017156114b2576114b2611885565b816040528281528760208487010111156114ca578586fd5b826020860160208301379182016020019490945295945050505050565b6000602082840312156114f8578081fd5b5051919050565b6000815180845260208085019450808401835b838110156115375781516001600160a01b031687529582019590820190600101611512565b509495945050505050565b600281106115525761155261186f565b9052565b600481106115525761155261186f565b60008151808452815b8181101561158b5760208185018101518683018201520161156f565b8181111561159c5782602083870101525b50601f01601f19169290920160200192915050565b60208101600c83106115c5576115c561186f565b91905290565b602081016113408284611556565b60208101601183106115c5576115c561186f565b602081526000825161022080602085015261160c610240850183611566565b915060208501516116206040860182611542565b5060408501516116336060860182611556565b5060608501518015156080860152506080850151601f19808685030160a087015261165e8483611566565b935060a087015160c087015260c08701519150808685030160e087015261168584836114ff565b935060e087015191506101008187860301818801526116a48584611566565b9450808801519250506101208281880152808801519250506101408187860301818801526116d28584611566565b9450808801519250506101608187860301818801526116f18584611566565b9450808801519250506101808187860301818801526117108584611566565b9450808801519250506101a081878603018188015261172f85846114ff565b9450808801519250506101c081878603018188015261174e8584611566565b9450808801519250506101e081878603018188015261176d8584611566565b94508088015192505061020081878603018188015261178c8584611566565b970151959092019490945250929392505050565b600082198211156117b3576117b3611859565b500190565b60008160001904831182151516156117d2576117d2611859565b500290565b600063ffffffff808316818516818304811182151516156117fa576117fa611859565b02949350505050565b600181811c9082168061181757607f821691505b6020821081141561183857634e487b7160e01b600052602260045260246000fd5b50919050565b600060001982141561185257611852611859565b5060010190565b634e487b7160e01b600052601160045260246000fd5b634e487b7160e01b600052602160045260246000fd5b634e487b7160e01b600052604160045260246000fd5b6001600160a01b03811681146118b057600080fd5b5056fea2646970667358221220d8ff69c15f2a9c2b89ca7fd91a29540c0e592e6b159e7ccbaa2406627434a11564736f6c63430008040033",
  "linkReferences": {},
  "deployedLinkReferences": {}
}