{
  "_format": "hh-sol-artifact-1",
  "contractName": "OrdersFactory",
  "sourceName": "contracts/OrdersFactory.sol",
  "abi": [
    {
      "inputs": [
        {
          "internalType": "address",
          "name": "_SPConfig",
          "type": "address"
        }
      ],
      "stateMutability": "nonpayable",
      "type": "constructor"
    },
    {
      "anonymous": false,
      "inputs": [
        {
          "indexed": false,
          "internalType": "address",
          "name": "newOrderAddress",
          "type": "address"
        }
      ],
      "name": "OrderCreated",
      "type": "event"
    },
    {
      "inputs": [
        {
          "internalType": "address",
          "name": "creator",
          "type": "address"
        },
        {
          "internalType": "uint256",
          "name": "holdSum",
          "type": "uint256"
        },
        {
          "components": [
            {
              "internalType": "address",
              "name": "offer",
              "type": "address"
            },
            {
              "internalType": "string",
              "name": "resultPublicKey",
              "type": "string"
            },
            {
              "internalType": "string",
              "name": "resultPublicKeyAlgo",
              "type": "string"
            },
            {
              "internalType": "string",
              "name": "encryptedRequirements",
              "type": "string"
            },
            {
              "internalType": "string",
              "name": "encryptedArgs",
              "type": "string"
            },
            {
              "internalType": "enum OrderStatus",
              "name": "status",
              "type": "uint8"
            },
            {
              "components": [
                {
                  "internalType": "uint256",
                  "name": "slots",
                  "type": "uint256"
                },
                {
                  "internalType": "address[]",
                  "name": "inputOffers",
                  "type": "address[]"
                },
                {
                  "internalType": "address[]",
                  "name": "selectedOffers",
                  "type": "address[]"
                }
              ],
              "internalType": "struct OrderArgs",
              "name": "args",
              "type": "tuple"
            }
          ],
          "internalType": "struct OrderInfo",
          "name": "info",
          "type": "tuple"
        },
        {
          "internalType": "bool",
          "name": "blocking",
          "type": "bool"
        }
      ],
      "name": "addSubOrder",
      "outputs": [
        {
          "internalType": "address",
          "name": "",
          "type": "address"
        }
      ],
      "stateMutability": "nonpayable",
      "type": "function"
    },
    {
      "inputs": [
        {
          "components": [
            {
              "internalType": "address",
              "name": "offer",
              "type": "address"
            },
            {
              "internalType": "string",
              "name": "resultPublicKey",
              "type": "string"
            },
            {
              "internalType": "string",
              "name": "resultPublicKeyAlgo",
              "type": "string"
            },
            {
              "internalType": "string",
              "name": "encryptedRequirements",
              "type": "string"
            },
            {
              "internalType": "string",
              "name": "encryptedArgs",
              "type": "string"
            },
            {
              "internalType": "enum OrderStatus",
              "name": "status",
              "type": "uint8"
            },
            {
              "components": [
                {
                  "internalType": "uint256",
                  "name": "slots",
                  "type": "uint256"
                },
                {
                  "internalType": "address[]",
                  "name": "inputOffers",
                  "type": "address[]"
                },
                {
                  "internalType": "address[]",
                  "name": "selectedOffers",
                  "type": "address[]"
                }
              ],
              "internalType": "struct OrderArgs",
              "name": "args",
              "type": "tuple"
            }
          ],
          "internalType": "struct OrderInfo",
          "name": "info",
          "type": "tuple"
        },
        {
          "internalType": "bool",
          "name": "suspended",
          "type": "bool"
        }
      ],
      "name": "create",
      "outputs": [
        {
          "internalType": "address",
          "name": "",
          "type": "address"
        }
      ],
      "stateMutability": "nonpayable",
      "type": "function"
    },
    {
      "inputs": [
        {
          "internalType": "address",
          "name": "order",
          "type": "address"
        }
      ],
      "name": "getOrderHoldDeposit",
      "outputs": [
        {
          "internalType": "uint256",
          "name": "",
          "type": "uint256"
        }
      ],
      "stateMutability": "view",
      "type": "function"
    },
    {
      "inputs": [
        {
          "internalType": "address",
          "name": "orderId",
          "type": "address"
        }
      ],
      "name": "isValidOrder",
      "outputs": [
        {
          "internalType": "bool",
          "name": "",
          "type": "bool"
        }
      ],
      "stateMutability": "view",
      "type": "function"
    },
    {
      "inputs": [],
      "name": "listAll",
      "outputs": [
        {
          "internalType": "address[]",
          "name": "",
          "type": "address[]"
        }
      ],
      "stateMutability": "view",
      "type": "function"
    },
    {
      "inputs": [
        {
          "internalType": "address",
          "name": "orderId",
          "type": "address"
        },
        {
          "internalType": "uint256",
          "name": "amount",
          "type": "uint256"
        }
      ],
      "name": "refillOrder",
      "outputs": [],
      "stateMutability": "nonpayable",
      "type": "function"
    },
    {
      "inputs": [
        {
          "internalType": "uint256",
          "name": "withdraw",
          "type": "uint256"
        }
      ],
      "name": "transferChange",
      "outputs": [],
      "stateMutability": "nonpayable",
      "type": "function"
    },
    {
      "inputs": [
        {
          "internalType": "uint256",
          "name": "profit",
          "type": "uint256"
        },
        {
          "internalType": "address",
          "name": "tokenReceiver",
          "type": "address"
        }
      ],
      "name": "transferProfit",
      "outputs": [],
      "stateMutability": "nonpayable",
      "type": "function"
    }
  ],
  "bytecode": "0x608060405234801561001057600080fd5b5060405162005acf38038062005acf83398101604081905261003191610056565b600480546001600160a01b0319166001600160a01b0392909216919091179055610084565b600060208284031215610067578081fd5b81516001600160a01b038116811461007d578182fd5b9392505050565b615a3b80620000946000396000f3fe60806040523480156200001157600080fd5b5060043610620000925760003560e01c8063666a7b831162000062578063666a7b83146200012e57806378a9eeed146200015e578063905d20451462000177578063d80ef2df146200018e57600080fd5b8062b734e1146200009757806322e8d36914620000c35780632812826714620000dc5780635f4550ba1462000117575b600080fd5b620000ae620000a83660046200192e565b620001a5565b60405190151581526020015b60405180910390f35b620000da620000d436600462001d30565b62000262565b005b62000108620000ed3660046200192e565b6001600160a01b031660009081526001602052604090205490565b604051908152602001620000ba565b620000da6200012836600462001cfe565b62000590565b620001456200013f36600462001ca8565b62000751565b6040516001600160a01b039091168152602001620000ba565b6200016862000c47565b604051620000ba919062001f2e565b6200014562000188366004620019a1565b62000cab565b620000da6200019f36600462001973565b62000de7565b6000808290506000816001600160a01b0316636c07681f6040518163ffffffff1660e01b815260040160206040518083038186803b158015620001e757600080fd5b505afa158015620001fc573d6000803e3d6000fd5b505050506040513d601f19601f8201168201806040525081019062000222919062001954565b6001600160a01b0385811660009081526020819052604090205491925082811691161480156200025a57506001600160a01b03811615155b949350505050565b336200026e81620001a5565b620002b55760405162461bcd60e51b81526020600482015260126024820152711a9818171024b73b30b634b21037b93232b960711b60448201526064015b60405180910390fd5b6001600160a01b0381166000908152600160205260409020548311156200031f5760405162461bcd60e51b815260206004820152601360248201527f3530302e20496e76616c696420616d6f756e74000000000000000000000000006044820152606401620002ac565b6005546006546040517f095ea7b30000000000000000000000000000000000000000000000000000000081526001600160a01b0391821660048201526024810186905291169063095ea7b390604401602060405180830381600087803b1580156200038957600080fd5b505af11580156200039e573d6000803e3d6000fd5b505050506040513d601f19601f82011682018060405250810190620003c4919062001a13565b506006546040517f2ee409080000000000000000000000000000000000000000000000000000000081526001600160a01b0384811660048301526024820186905290911690632ee4090890604401600060405180830381600087803b1580156200042d57600080fd5b505af115801562000442573d6000803e3d6000fd5b5050600654600480546040516303a2216d60e01b81526001600160a01b03938416955063e2ab691d9450879389939216916303a2216d9162000488916001910162001f60565b60206040518083038186803b158015620004a157600080fd5b505afa158015620004b6573d6000803e3d6000fd5b505050506040513d601f19601f82011682018060405250810190620004dc919062001d17565b6040517fffffffff0000000000000000000000000000000000000000000000000000000060e086901b1681526001600160a01b03909316600484015260248301919091526044820152606401600060405180830381600087803b1580156200054357600080fd5b505af115801562000558573d6000803e3d6000fd5b505050506001600160a01b03811660009081526001602052604081208054859290620005869084906200206b565b9091555050505050565b336200059c81620001a5565b620005df5760405162461bcd60e51b81526020600482015260126024820152711a9818171024b73b30b634b21037b93232b960711b6044820152606401620002ac565b6001600160a01b038116600090815260016020526040902054821115620006495760405162461bcd60e51b815260206004820152601360248201527f3530302e20496e76616c696420616d6f756e74000000000000000000000000006044820152606401620002ac565b6001600160a01b0381166000908152600160205260408120546200066f9084906200206b565b6005546001600160a01b03848116600090815260208190526040908190205490517fa9059cbb000000000000000000000000000000000000000000000000000000008152908216600482015260248101849052929350169063a9059cbb90604401602060405180830381600087803b158015620006eb57600080fd5b505af115801562000700573d6000803e3d6000fd5b505050506040513d601f19601f8201168201806040525081019062000726919062001a13565b506001600160a01b03821660009081526001602052604081208054839290620005869084906200206b565b60006200075d62000f9f565b6000338185600001516001600160a01b031663af5372e66040518163ffffffff1660e01b815260040160206040518083038186803b1580156200079f57600080fd5b505afa158015620007b4573d6000803e3d6000fd5b505050506040513d601f19601f82011682018060405250810190620007da919062001a32565b6003811115620007fa57634e487b7160e01b600052602160045260246000fd5b146200096a5784516040517ff12018c30000000000000000000000000000000000000000000000000000000081523360048201526001600160a01b0382169063f12018c39060240160206040518083038186803b1580156200085b57600080fd5b505afa15801562000870573d6000803e3d6000fd5b505050506040513d601f19601f8201168201806040525081019062000896919062001a13565b620008e45760405162461bcd60e51b815260206004820152600b60248201527f4e6f7420616c6c6f7765640000000000000000000000000000000000000000006044820152606401620002ac565b6000816001600160a01b0316635a9b0b896040518163ffffffff1660e01b8152600401600060405180830381600087803b1580156200092257600080fd5b505af115801562000937573d6000803e3d6000fd5b505050506040513d6000823e601f3d908101601f1916820160405262000961919081019062001a4f565b60a00151935050505b600480546040516303a2216d60e01b81526001600160a01b03909116916303a2216d916200099c916000910162001f60565b60206040518083038186803b158015620009b557600080fd5b505afa158015620009ca573d6000803e3d6000fd5b505050506040513d601f19601f82011682018060405250810190620009f0919062001d17565b82101562000a8157600480546040516303a2216d60e01b81526001600160a01b03909116916303a2216d9162000a2a916000910162001f60565b60206040518083038186803b15801562000a4357600080fd5b505afa15801562000a58573d6000803e3d6000fd5b505050506040513d601f19601f8201168201806040525081019062000a7e919062001d17565b91505b600554604051636eb1769f60e11b81526001600160a01b0383811660048301523060248301529091169063dd62ed3e9060440160206040518083038186803b15801562000acd57600080fd5b505afa15801562000ae2573d6000803e3d6000fd5b505050506040513d601f19601f8201168201806040525081019062000b08919062001d17565b82111562000b7e5760405162461bcd60e51b8152602060048201526024808201527f416c6c6f77656420746f6b656e73206c657373207468616e20686f6c6444657060448201527f6f736974000000000000000000000000000000000000000000000000000000006064820152608401620002ac565b6005546040516323b872dd60e01b81526001600160a01b03838116600483015230602483015260448201859052909116906323b872dd90606401602060405180830381600087803b15801562000bd357600080fd5b505af115801562000be8573d6000803e3d6000fd5b505050506040513d601f19601f8201168201806040525081019062000c0e919062001a13565b50600062000c218260008886896200121f565b6001600160a01b0381166000908152600160205260409020939093555090949350505050565b6060600280548060200260200160405190810160405280929190818152602001828054801562000ca157602002820191906000526020600020905b81546001600160a01b0316815260019091019060200180831162000c82575b5050505050905090565b6000338162000cba82620001a5565b62000cfd5760405162461bcd60e51b81526020600482015260126024820152711a9818171024b73b30b634b21037b93232b960711b6044820152606401620002ac565b6001600160a01b03821660009081526001602052604090205486111562000d675760405162461bcd60e51b815260206004820152601360248201527f3530302e20496e76616c696420616d6f756e74000000000000000000000000006044820152606401620002ac565b600062000d788884888a866200121f565b6001600160a01b03841660009081526001602052604081208054929350899290919062000da79084906200206b565b90915550506001600160a01b0381166000908152600160205260408120805489929062000dd690849062002050565b909155509098975050505050505050565b600554604051636eb1769f60e11b81523360048201819052306024830152916001600160a01b03169063dd62ed3e9060440160206040518083038186803b15801562000e3257600080fd5b505afa15801562000e47573d6000803e3d6000fd5b505050506040513d601f19601f8201168201806040525081019062000e6d919062001d17565b82111562000ee45760405162461bcd60e51b815260206004820152602660248201527f416c6c6f77656420746f6b656e73206c657373207468616e20726566696c6c2060448201527f616d6f756e7400000000000000000000000000000000000000000000000000006064820152608401620002ac565b6005546040516323b872dd60e01b81526001600160a01b03838116600483015230602483015260448201859052909116906323b872dd90606401602060405180830381600087803b15801562000f3957600080fd5b505af115801562000f4e573d6000803e3d6000fd5b505050506040513d601f19601f8201168201806040525081019062000f74919062001a13565b506001600160a01b038316600090815260016020526040812080548492906200058690849062002050565b60048054604080517ff1f0bd0100000000000000000000000000000000000000000000000000000000815290516001600160a01b039092169263f1f0bd01928282019260209290829003018186803b15801562000ffb57600080fd5b505afa15801562001010573d6000803e3d6000fd5b505050506040513d601f19601f8201168201806040525081019062001036919062001954565b600480546001600160a01b0319166001600160a01b0392909216918217815560405163bcaa0c5560e01b815263bcaa0c559162001077916005910162001f43565b60206040518083038186803b1580156200109057600080fd5b505afa158015620010a5573d6000803e3d6000fd5b505050506040513d601f19601f82011682018060405250810190620010cb919062001954565b600580546001600160a01b0319166001600160a01b039283161790556004805460405163bcaa0c5560e01b815292169163bcaa0c559162001110916002910162001f43565b60206040518083038186803b1580156200112957600080fd5b505afa1580156200113e573d6000803e3d6000fd5b505050506040513d601f19601f8201168201806040525081019062001164919062001954565b600680546001600160a01b0319166001600160a01b039283161790556004805460405163bcaa0c5560e01b815292169163bcaa0c5591620011a9916001910162001f43565b60206040518083038186803b158015620011c257600080fd5b505afa158015620011d7573d6000803e3d6000fd5b505050506040513d601f19601f82011682018060405250810190620011fd919062001954565b600380546001600160a01b0319166001600160a01b0392909216919091179055565b600080846000015190506000816001600160a01b031663483d45bd6040518163ffffffff1660e01b815260040160206040518083038186803b1580156200126557600080fd5b505afa1580156200127a573d6000803e3d6000fd5b505050506040513d601f19601f82011682018060405250810190620012a0919062001954565b6001600160a01b031663085710116040518163ffffffff1660e01b815260040160206040518083038186803b158015620012d957600080fd5b505afa158015620012ee573d6000803e3d6000fd5b505050506040513d601f19601f8201168201806040525081019062001314919062001954565b9050816001600160a01b0316636aa633b66040518163ffffffff1660e01b815260040160206040518083038186803b1580156200135057600080fd5b505afa15801562001365573d6000803e3d6000fd5b505050506040513d601f19601f820116820180604052508101906200138b919062001a13565b80156200142d57506003546040517f54e80afd0000000000000000000000000000000000000000000000000000000081526001600160a01b038381166004830152909116906354e80afd9060240160206040518083038186803b158015620013f257600080fd5b505afa15801562001407573d6000803e3d6000fd5b505050506040513d601f19601f820116820180604052508101906200142d919062001a13565b6200147b5760405162461bcd60e51b815260206004820152601460248201527f4f66666572206d757374206265206163746976650000000000000000000000006044820152606401620002ac565b6000600460009054906101000a90046001600160a01b03168989898989604051620014a69062001593565b620014b79695949392919062001e26565b604051809103906000f080158015620014d4573d6000803e3d6000fd5b506001600160a01b038082166000818152602081905260408082208054948f166001600160a01b03199586161790556002805460018101825592527f405787fa12a823e0f2b7631cc41b3ba8828b3321ca811111fa75cd3aa3bb5ace9091018054909316909117909155519091507fed94e6f8f334678b3265725f268ecd9032016d6050efeb9e673a561ffbfb0a76906200157f9083906001600160a01b0391909116815260200190565b60405180910390a198975050505050505050565b6138e3806200212383390190565b8035620015ae81620020fa565b919050565b600082601f830112620015c4578081fd5b81356020620015dd620015d78362001ffe565b62001fca565b80838252828201915082860187848660051b8901011115620015fd578586fd5b855b85811015620016285781356200161581620020fa565b84529284019290840190600101620015ff565b5090979650505050505050565b600082601f83011262001646578081fd5b8151602062001659620015d78362001ffe565b80838252828201915082860187848660051b890101111562001679578586fd5b855b85811015620016285781516200169181620020fa565b845292840192908401906001016200167b565b8051620015ae8162002113565b805160028110620015ae57600080fd5b805160048110620015ae57600080fd5b803560098110620015ae57600080fd5b600082601f830112620016f2578081fd5b813562001703620015d78262002025565b81815284602083860101111562001718578283fd5b816020850160208301379081016020019190915292915050565b600082601f83011262001743578081fd5b815162001754620015d78262002025565b81815284602083860101111562001769578283fd5b6200025a82602083016020870162002085565b6000606082840312156200178e578081fd5b6040516060810167ffffffffffffffff8282108183111715620017b557620017b5620020e4565b81604052829350843583526020850135915080821115620017d557600080fd5b620017e386838701620015b3565b60208401526040850135915080821115620017fd57600080fd5b506200180c85828601620015b3565b6040830152505092915050565b600060e082840312156200182b578081fd5b6200183562001f77565b90506200184282620015a1565b8152602082013567ffffffffffffffff808211156200186057600080fd5b6200186e85838601620016e1565b602084015260408401359150808211156200188857600080fd5b6200189685838601620016e1565b60408401526060840135915080821115620018b057600080fd5b620018be85838601620016e1565b60608401526080840135915080821115620018d857600080fd5b620018e685838601620016e1565b6080840152620018f960a08501620016d1565b60a084015260c08401359150808211156200191357600080fd5b5062001922848285016200177c565b60c08301525092915050565b60006020828403121562001940578081fd5b81356200194d81620020fa565b9392505050565b60006020828403121562001966578081fd5b81516200194d81620020fa565b6000806040838503121562001986578081fd5b82356200199381620020fa565b946020939093013593505050565b60008060008060808587031215620019b7578182fd5b8435620019c481620020fa565b935060208501359250604085013567ffffffffffffffff811115620019e7578283fd5b620019f58782880162001819565b925050606085013562001a088162002113565b939692955090935050565b60006020828403121562001a25578081fd5b81516200194d8162002113565b60006020828403121562001a44578081fd5b6200194d82620016c1565b60006020828403121562001a61578081fd5b815167ffffffffffffffff8082111562001a79578283fd5b90830190610220828603121562001a8e578283fd5b62001a9862001fa3565b82518281111562001aa7578485fd5b62001ab58782860162001732565b82525062001ac660208401620016b1565b602082015262001ad960408401620016c1565b604082015262001aec60608401620016a4565b606082015260808301518281111562001b03578485fd5b62001b118782860162001732565b60808301525060a083015160a082015260c08301518281111562001b33578485fd5b62001b418782860162001635565b60c08301525060e08301518281111562001b59578485fd5b62001b678782860162001732565b60e0830152506101008381015190820152610120808401518381111562001b8c578586fd5b62001b9a8882870162001732565b828401525050610140808401518381111562001bb4578586fd5b62001bc28882870162001732565b828401525050610160808401518381111562001bdc578586fd5b62001bea8882870162001732565b828401525050610180808401518381111562001c04578586fd5b62001c128882870162001635565b8284015250506101a0808401518381111562001c2c578586fd5b62001c3a8882870162001732565b8284015250506101c0808401518381111562001c54578586fd5b62001c628882870162001732565b8284015250506101e0808401518381111562001c7c578586fd5b62001c8a8882870162001732565b91830191909152506102009283015192810192909252509392505050565b6000806040838503121562001cbb578182fd5b823567ffffffffffffffff81111562001cd2578283fd5b62001ce08582860162001819565b925050602083013562001cf38162002113565b809150509250929050565b60006020828403121562001d10578081fd5b5035919050565b60006020828403121562001d29578081fd5b5051919050565b6000806040838503121562001d43578182fd5b82359150602083013562001cf381620020fa565b6000815180845260208085019450808401835b8381101562001d915781516001600160a01b03168752958201959082019060010162001d6a565b509495945050505050565b6009811062001daf5762001daf620020ce565b9052565b6000815180845262001dcd81602086016020860162002085565b601f01601f19169290920160200192915050565b80518252600060208201516060602085015262001e02606085018262001d57565b90506040830151848203604086015262001e1d828262001d57565b95945050505050565b60006001600160a01b0380891683528088166020840152808716604084015260c060608401528086511660c084015250602085015160e08084015262001e716101a084018262001db3565b9050604086015160bf19808584030161010086015262001e92838362001db3565b925060608801519150808584030161012086015262001eb2838362001db3565b925060808801519150808584030161014086015262001ed2838362001db3565b925060a0880151915062001eeb61016086018362001d9c565b60c0880151915080858403016101808601525062001f0a828262001de1565b9250505083608083015262001f2360a083018415159052565b979650505050505050565b6020815260006200194d602083018462001d57565b60208101600c831062001f5a5762001f5a620020ce565b91905290565b602081016011831062001f5a5762001f5a620020ce565b60405160e0810167ffffffffffffffff8111828210171562001f9d5762001f9d620020e4565b60405290565b604051610220810167ffffffffffffffff8111828210171562001f9d5762001f9d620020e4565b604051601f8201601f1916810167ffffffffffffffff8111828210171562001ff65762001ff6620020e4565b604052919050565b600067ffffffffffffffff8211156200201b576200201b620020e4565b5060051b60200190565b600067ffffffffffffffff821115620020425762002042620020e4565b50601f01601f191660200190565b60008219821115620020665762002066620020b8565b500190565b600082821015620020805762002080620020b8565b500390565b60005b83811015620020a257818101518382015260200162002088565b83811115620020b2576000848401525b50505050565b634e487b7160e01b600052601160045260246000fd5b634e487b7160e01b600052602160045260246000fd5b634e487b7160e01b600052604160045260246000fd5b6001600160a01b03811681146200211057600080fd5b50565b80151581146200211057600080fdfe60806040526011805461ffff60a01b191690553480156200001f57600080fd5b50604051620038e3380380620038e3833981016040819052620000429162000631565b856001600160a01b031663f1f0bd016040518163ffffffff1660e01b815260040160206040518083038186803b1580156200007c57600080fd5b505afa15801562000091573d6000803e3d6000fd5b505050506040513d601f19601f82011682018060405250810190620000b791906200060d565b601080546001600160a01b0392831661010002610100600160a81b0319909116179055600180548783166001600160a01b03199182161790915584516004805491909316911617815560208085015180518693926200011c9260059291019062000310565b50604082015180516200013a91600284019160209091019062000310565b50606082015180516200015891600384019160209091019062000310565b50608082015180516200017691600484019160209091019062000310565b5060a082015160058201805460ff19166001836008811115620001a957634e487b7160e01b600052602160045260246000fd5b021790555060c08201518051600683019081556020808301518051620001d692600787019201906200039f565b5060408201518051620001f49160028401916020909101906200039f565b50505090505082600001516001600160a01b031663af5372e66040518163ffffffff1660e01b815260040160206040518083038186803b1580156200023857600080fd5b505afa1580156200024d573d6000803e3d6000fd5b505050506040513d601f19601f82011682018060405250810190620002739190620007b5565b6010805460ff191660018360038111156200029e57634e487b7160e01b600052602160045260246000fd5b0217905550600080546001600160a01b0319166001600160a01b038616179055600f82905580620002d1576000620002d4565b60075b6009805460ff19166001836008811115620002ff57634e487b7160e01b600052602160045260246000fd5b021790555050505050505062000887565b8280546200031e9062000834565b90600052602060002090601f0160209004810192826200034257600085556200038d565b82601f106200035d57805160ff19168380011785556200038d565b828001600101855582156200038d579182015b828111156200038d57825182559160200191906001019062000370565b506200039b929150620003f7565b5090565b8280548282559060005260206000209081019282156200038d579160200282015b828111156200038d57825182546001600160a01b0319166001600160a01b03909116178255602090920191600190910190620003c0565b5b808211156200039b5760008155600101620003f8565b80516001600160a01b03811681146200042657600080fd5b919050565b600082601f8301126200043c578081fd5b815160206001600160401b038211156200045a576200045a62000871565b8160051b6200046b82820162000801565b83815282810190868401838801850189101562000486578687fd5b8693505b85841015620004b3576200049e816200040e565b8352600193909301929184019184016200048a565b50979650505050505050565b805180151581146200042657600080fd5b8051600981106200042657600080fd5b600082601f830112620004f1578081fd5b81516001600160401b038111156200050d576200050d62000871565b602062000523601f8301601f1916820162000801565b828152858284870101111562000537578384fd5b835b838110156200055657858101830151828201840152820162000539565b838111156200056757848385840101525b5095945050505050565b60006060828403121562000583578081fd5b604051606081016001600160401b038082118383101715620005a957620005a962000871565b81604052829350845183526020850151915080821115620005c957600080fd5b620005d7868387016200042b565b60208401526040850151915080821115620005f157600080fd5b5062000600858286016200042b565b6040830152505092915050565b6000602082840312156200061f578081fd5b6200062a826200040e565b9392505050565b60008060008060008060c087890312156200064a578182fd5b62000655876200040e565b955062000665602088016200040e565b945062000675604088016200040e565b60608801519094506001600160401b038082111562000692578384fd5b9088019060e0828b031215620006a6578384fd5b620006b0620007d6565b620006bb836200040e565b8152602083015182811115620006cf578586fd5b620006dd8c828601620004e0565b602083015250604083015182811115620006f5578586fd5b620007038c828601620004e0565b6040830152506060830151828111156200071b578586fd5b620007298c828601620004e0565b60608301525060808301518281111562000741578586fd5b6200074f8c828601620004e0565b6080830152506200076360a08401620004d0565b60a082015260c0830151828111156200077a578586fd5b620007888c82860162000571565b60c08301525080955050505060808701519150620007a960a08801620004bf565b90509295509295509295565b600060208284031215620007c7578081fd5b8151600481106200062a578182fd5b60405160e081016001600160401b0381118282101715620007fb57620007fb62000871565b60405290565b604051601f8201601f191681016001600160401b03811182821017156200082c576200082c62000871565b604052919050565b600181811c908216806200084957607f821691505b602082108114156200086b57634e487b7160e01b600052602260045260246000fd5b50919050565b634e487b7160e01b600052604160045260246000fd5b61304c80620008976000396000f3fe608060405234801561001057600080fd5b50600436106101365760003560e01c8063b1be5929116100b2578063c214d37a11610081578063c3c61f9111610066578063c3c61f9114610247578063cef8f6d414610258578063fa391c641461026d57600080fd5b8063c214d37a14610222578063c28bd4ef1461023557600080fd5b8063b1be5929146101ea578063b2375e8d146101f2578063b7ff5dae14610207578063be9a65551461021a57600080fd5b80636c07681f11610109578063982308f5116100ee578063982308f5146101bf57806398365150146101d0578063af91ec60146101d857600080fd5b80636c07681f146101a6578063959499b6146101b757600080fd5b806301efb6c81461013b578063291197211461015957806330979eba146101845780636a8165481461019c575b600080fd5b610143610275565b6040516101509190612d32565b60405180910390f35b61016c6101673660046128a4565b610618565b6040516001600160a01b039091168152602001610150565b61018c610a04565b6040519015158152602001610150565b6101a4610a65565b005b6001546001600160a01b031661016c565b6101a4610eef565b6000546001600160a01b031661016c565b6101a46111be565b601154600160a81b900460ff1661018c565b6101a46113ce565b6101fa611506565b6040516101509190612d45565b6101a461021536600461264e565b61166a565b6101a46118d2565b6101a46102303660046125dd565b6119ac565b601154600160a01b900460ff1661018c565b600f54604051908152602001610150565b610260611ca0565b6040516101509190612d05565b61018c611d02565b61027d6121d3565b6040805160e08101909152600480546001600160a01b03168252600580546020840191906102aa90612f60565b80601f01602080910402602001604051908101604052809291908181526020018280546102d690612f60565b80156103235780601f106102f857610100808354040283529160200191610323565b820191906000526020600020905b81548152906001019060200180831161030657829003601f168201915b5050505050815260200160028201805461033c90612f60565b80601f016020809104026020016040519081016040528092919081815260200182805461036890612f60565b80156103b55780601f1061038a576101008083540402835291602001916103b5565b820191906000526020600020905b81548152906001019060200180831161039857829003601f168201915b505050505081526020016003820180546103ce90612f60565b80601f01602080910402602001604051908101604052809291908181526020018280546103fa90612f60565b80156104475780601f1061041c57610100808354040283529160200191610447565b820191906000526020600020905b81548152906001019060200180831161042a57829003601f168201915b5050505050815260200160048201805461046090612f60565b80601f016020809104026020016040519081016040528092919081815260200182805461048c90612f60565b80156104d95780601f106104ae576101008083540402835291602001916104d9565b820191906000526020600020905b8154815290600101906020018083116104bc57829003601f168201915b5050509183525050600582015460209091019060ff16600881111561050e57634e487b7160e01b600052602160045260246000fd5b600881111561052d57634e487b7160e01b600052602160045260246000fd5b81526020016006820160405180606001604052908160008201548152602001600182018054806020026020016040519081016040528092919081815260200182805480156105a457602002820191906000526020600020905b81546001600160a01b03168152600190910190602001808311610586575b505050505081526020016002820180548060200260200160405190810160405280929190818152602001828054801561060657602002820191906000526020600020905b81546001600160a01b031681526001909101906020018083116105e8575b50505050508152505081525050905090565b6000610622611d8e565b600061062c610a04565b90506000610638611f12565b905081801561064f5750336001600160a01b038216145b8061066d57508115801561066d57506001546001600160a01b031633145b6106be5760405162461bcd60e51b815260206004820152600d60248201527f4163636573732064656e6965640000000000000000000000000000000000000060448201526064015b60405180910390fd5b60008086600001516001600160a01b031663af5372e66040518163ffffffff1660e01b815260040160206040518083038186803b1580156106fe57600080fd5b505afa158015610712573d6000803e3d6000fd5b505050506040513d601f19601f8201168201806040525081019061073691906125c3565b9050600081600381111561075a57634e487b7160e01b600052602160045260246000fd5b146108bf5786516040517ff12018c30000000000000000000000000000000000000000000000000000000081523360048201526001600160a01b0382169063f12018c39060240160206040518083038186803b1580156107b957600080fd5b505afa1580156107cd573d6000803e3d6000fd5b505050506040513d601f19601f820116820180604052508101906107f191906125a7565b61083d5760405162461bcd60e51b815260206004820152600b60248201527f4e6f7420616c6c6f77656400000000000000000000000000000000000000000060448201526064016106b5565b6000816001600160a01b0316635a9b0b896040518163ffffffff1660e01b8152600401600060405180830381600087803b15801561087a57600080fd5b505af115801561088e573d6000803e3d6000fd5b505050506040513d6000823e601f3d908101601f191682016040526108b69190810190612677565b60a00151935050505b6011546001546040517f905d20450000000000000000000000000000000000000000000000000000000081526000926001600160a01b039081169263905d204592610916929091169087908d908d90600401612cca565b602060405180830381600087803b15801561093057600080fd5b505af1158015610944573d6000803e3d6000fd5b505050506040513d601f19601f820116820180604052508101906109689190612584565b600380546001810182556000919091527fc2575a0e9e593c00f959f8c92f12db2869c3395a3b0502d05e2516446f71f85b01805473ffffffffffffffffffffffffffffffffffffffff19166001600160a01b0383169081179091556040519081529091507fd4a8311d4a2937c45f6564edb791f76d0a6d74db0902f4a6fb46cbee04166a639060200160405180910390a1979650505050505050565b6000600760095460ff166008811115610a2d57634e487b7160e01b600052602160045260246000fd5b14158015610a605750600660095460ff166008811115610a5d57634e487b7160e01b600052602160045260246000fd5b14155b905090565b6001546001600160a01b03163314610abf5760405162461bcd60e51b815260206004820152601b60248201527f417661696c61626c65206f6e6c7920666f7220636f6e73756d6572000000000060448201526064016106b5565b610ac7611d02565b15610b3a5760405162461bcd60e51b815260206004820152602160248201527f436f6d706c65746564206f726465722063616e27742062652063616e63656c6560448201527f640000000000000000000000000000000000000000000000000000000000000060648201526084016106b5565b60048054604080517f1bffb49100000000000000000000000000000000000000000000000000000000815290516001600160a01b0390921692631bffb491928282019260209290829003018186803b158015610b9557600080fd5b505afa158015610ba9573d6000803e3d6000fd5b505050506040513d601f19601f82011682018060405250810190610bcd91906125a7565b158015610bdb575060025415155b15610bec57610bea6002612000565b565b610bf66003612000565b600254610c04576000600f55565b600060105460ff166003811115610c2b57634e487b7160e01b600052602160045260246000fd5b1415610e39576004805460408051635a9b0b8960e01b815290516001600160a01b03909216926000928492635a9b0b8992818101928692909190829003018186803b158015610c7957600080fd5b505afa158015610c8d573d6000803e3d6000fd5b505050506040513d6000823e601f3d908101601f19168201604052610cb591908101906129cd565b6060015163ffffffff1690506000826001600160a01b0316635a9b0b896040518163ffffffff1660e01b815260040160006040518083038186803b158015610cfc57600080fd5b505afa158015610d10573d6000803e3d6000fd5b505050506040513d6000823e601f3d908101601f19168201604052610d3891908101906129cd565b6080015167ffffffffffffffff169050600060025442610d589190612f1d565b90506000610d67603c83612e9b565b905082811015610d745750815b600084866001600160a01b0316638a35e9426040518163ffffffff1660e01b815260040160206040518083038186803b158015610db057600080fd5b505afa158015610dc4573d6000803e3d6000fd5b505050506040513d601f19601f82011682018060405250810190610de89190612b42565b610df29190612e9b565b90506000603c610e05610e106018612ef1565b610e0f9190612eaf565b63ffffffff16610e1f8385612ed2565b610e299190612e9b565b600f5550610bea95505050505050565b6004805460408051635a9b0b8960e01b815290516001600160a01b03909216926000928492635a9b0b899281810192869290919082900301818387803b158015610e8257600080fd5b505af1158015610e96573d6000803e3d6000fd5b505050506040513d6000823e601f3d908101601f19168201604052610ebe9190810190612677565b6101000151610ece90603c612ed2565b90504281600254610edf9190612e83565b1015610eeb576000600f555b5050565b610ef7611d8e565b600480546040805163483d45bd60e01b815290516000936001600160a01b039093169263483d45bd92808201926020929091829003018186803b158015610f3d57600080fd5b505afa158015610f51573d6000803e3d6000fd5b505050506040513d601f19601f82011682018060405250810190610f759190612584565b6001600160a01b0316636d69a3e86040518163ffffffff1660e01b815260040160206040518083038186803b158015610fad57600080fd5b505afa158015610fc1573d6000803e3d6000fd5b505050506040513d601f19601f82011682018060405250810190610fe59190612584565b600f54909150610ff3611d02565b6110505760405162461bcd60e51b815260206004820152602860248201527f57697468647261776e20617661696c61626c65207768656e206f7264657220636044820152671bdb5c1b195d195960c21b60648201526084016106b5565b336001600160a01b038316146110ce5760405162461bcd60e51b815260206004820152603160248201527f417661696c61626c65206f6e6c7920666f722070726f766964657220746f6b6560448201527f6e2072656369766572206163636f756e7400000000000000000000000000000060648201526084016106b5565b601154600160a81b900460ff16156111285760405162461bcd60e51b815260206004820152601860248201527f50726f66697420616c72656164792077697468647261776e000000000000000060448201526064016106b5565b6011546040517f22e8d369000000000000000000000000000000000000000000000000000000008152600481018390526001600160a01b038481166024830152909116906322e8d36990604401600060405180830381600087803b15801561118f57600080fd5b505af11580156111a3573d6000803e3d6000fd5b50506011805460ff60a81b1916600160a81b17905550505050565b6111c6611d8e565b601154600160a01b900460ff16156112205760405162461bcd60e51b815260206004820152601860248201527f4368616e676520616c72656164792077697468647261776e000000000000000060448201526064016106b5565b6001546001600160a01b031633146112a05760405162461bcd60e51b815260206004820152602160248201527f417661696c61626c65206f6e6c7920666f72204f7264657220636f6e73756d6560448201527f720000000000000000000000000000000000000000000000000000000000000060648201526084016106b5565b6112a8611d02565b6113055760405162461bcd60e51b815260206004820152602860248201527f57697468647261776e20617661696c61626c65207768656e206f7264657220636044820152671bdb5c1b195d195960c21b60648201526084016106b5565b601154600090600160a81b900460ff1615611321576000611325565b600f545b6011546040517f5f4550ba000000000000000000000000000000000000000000000000000000008152600481018390529192506001600160a01b031690635f4550ba90602401600060405180830381600087803b15801561138557600080fd5b505af1158015611399573d6000803e3d6000fd5b5050601180547fffffffffffffffffffffff00ffffffffffffffffffffffffffffffffffffffff16600160a01b179055505050565b60006113d8611f12565b9050336001600160a01b038216146114445760405162461bcd60e51b815260206004820152602960248201527f417661696c61626c65206f6e6c7920666f722070726f766964657220616374696044820152681bdb9058d8dbdd5b9d60ba1b60648201526084016106b5565b61144c610a04565b6114985760405162461bcd60e51b815260206004820152601960248201527f4f72646572206861736e2774206265656e20737461727465640000000000000060448201526064016106b5565b6114a0611d02565b156114ed5760405162461bcd60e51b815260206004820181905260248201527f436f6d706c65746564206f726465722063616e2774206265207570646174656460448201526064016106b5565b6114f76001612000565b60025461150357426002555b50565b61152a60405180606001604052806060815260200160608152602001600081525090565b600d60405180606001604052908160008201805461154790612f60565b80601f016020809104026020016040519081016040528092919081815260200182805461157390612f60565b80156115c05780601f10611595576101008083540402835291602001916115c0565b820191906000526020600020905b8154815290600101906020018083116115a357829003601f168201915b505050505081526020016001820180546115d990612f60565b80601f016020809104026020016040519081016040528092919081815260200182805461160590612f60565b80156116525780601f1061162757610100808354040283529160200191611652565b820191906000526020600020905b81548152906001019060200180831161163557829003601f168201915b50505050508152602001600282015481525050905090565b6000611674611f12565b9050336001600160a01b038216146116e05760405162461bcd60e51b815260206004820152602960248201527f417661696c61626c65206f6e6c7920666f722070726f766964657220616374696044820152681bdb9058d8dbdd5b9d60ba1b60648201526084016106b5565b6116e8610a04565b6117345760405162461bcd60e51b815260206004820152601960248201527f4f72646572206861736e2774206265656e20737461727465640000000000000060448201526064016106b5565b61173c611d02565b156117895760405162461bcd60e51b815260206004820181905260248201527f436f6d706c65746564206f726465722063616e2774206265207570646174656460448201526064016106b5565b6009546117999060ff168461206e565b6117e55760405162461bcd60e51b815260206004820152600d60248201527f496e76616964207374617475730000000000000000000000000000000000000060448201526064016106b5565b6117ee83612000565b60025415801561181d5750600183600881111561181b57634e487b7160e01b600052602160045260246000fd5b145b1561182757426002555b600060105460ff16600381111561184e57634e487b7160e01b600052602160045260246000fd5b146118cb57600f548211156118cb5760405162461bcd60e51b815260206004820152602b60248201527f466f7262696464656e20746f20696e63726561736520707269636520666f722060448201527f76616c75654f666665727300000000000000000000000000000000000000000060648201526084016106b5565b50600f5550565b6001546001600160a01b0316331461192c5760405162461bcd60e51b815260206004820152601b60248201527f417661696c61626c65206f6e6c7920666f7220636f6e73756d6572000000000060448201526064016106b5565b600760095460ff16600881111561195357634e487b7160e01b600052602160045260246000fd5b146119a05760405162461bcd60e51b815260206004820152601760248201527f4f72646572206d7573742062652073757370656e64656400000000000000000060448201526064016106b5565b6009805460ff19169055565b60006119b6611f12565b9050336001600160a01b03821614611a225760405162461bcd60e51b815260206004820152602960248201527f417661696c61626c65206f6e6c7920666f722070726f766964657220616374696044820152681bdb9058d8dbdd5b9d60ba1b60648201526084016106b5565b611a2a610a04565b611a765760405162461bcd60e51b815260206004820152601960248201527f4f72646572206861736e2774206265656e20737461727465640000000000000060448201526064016106b5565b611a7e611d02565b15611acb5760405162461bcd60e51b815260206004820152601160248201527f416c726561647920636f6d706c6574656400000000000000000000000000000060448201526064016106b5565b6005846008811115611aed57634e487b7160e01b600052602160045260246000fd5b1480611b1857506004846008811115611b1657634e487b7160e01b600052602160045260246000fd5b145b611b8a5760405162461bcd60e51b815260206004820152602b60248201527f43616e20636f6d706c657465206f6e6c7920776974682073746174757320457260448201527f726f72206f7220446f6e6500000000000000000000000000000000000000000060648201526084016106b5565b600160095460ff166008811115611bb157634e487b7160e01b600052602160045260246000fd5b1480611be15750600860095460ff166008811115611bdf57634e487b7160e01b600052602160045260246000fd5b145b611c2d5760405162461bcd60e51b815260206004820181905260248201527f43616e277420636f6d706c657465206265666f72652070726f63657373696e6760448201526064016106b5565b8251611c4090600d906020860190612259565b508151611c5490600e906020850190612259565b506005846008811115611c7757634e487b7160e01b600052602160045260246000fd5b1415611c91576011805460ff60a81b1916600160a81b1790555b611c9a84612000565b50505050565b60606003805480602002602001604051908101604052809291908181526020018280548015611cf857602002820191906000526020600020905b81546001600160a01b03168152600190910190602001808311611cda575b5050505050905090565b6000600460095460ff166008811115611d2b57634e487b7160e01b600052602160045260246000fd5b1480611d5b5750600560095460ff166008811115611d5957634e487b7160e01b600052602160045260246000fd5b145b80610a605750600360095460ff166008811115611d8857634e487b7160e01b600052602160045260246000fd5b14905090565b601060019054906101000a90046001600160a01b03166001600160a01b031663f1f0bd016040518163ffffffff1660e01b815260040160206040518083038186803b158015611ddc57600080fd5b505afa158015611df0573d6000803e3d6000fd5b505050506040513d601f19601f82011682018060405250810190611e149190612584565b601080547fffffffffffffffffffffff0000000000000000000000000000000000000000ff166101006001600160a01b03938416810291909117918290556040517fbcaa0c5500000000000000000000000000000000000000000000000000000000815291049091169063bcaa0c5590611e9390600090600401612d18565b60206040518083038186803b158015611eab57600080fd5b505afa158015611ebf573d6000803e3d6000fd5b505050506040513d601f19601f82011682018060405250810190611ee39190612584565b6011805473ffffffffffffffffffffffffffffffffffffffff19166001600160a01b0392909216919091179055565b600480546040805163483d45bd60e01b815290516000936001600160a01b039093169263483d45bd92808201926020929091829003018186803b158015611f5857600080fd5b505afa158015611f6c573d6000803e3d6000fd5b505050506040513d601f19601f82011682018060405250810190611f909190612584565b6001600160a01b0316636760c4b76040518163ffffffff1660e01b815260040160206040518083038186803b158015611fc857600080fd5b505afa158015611fdc573d6000803e3d6000fd5b505050506040513d601f19601f82011682018060405250810190610a609190612584565b6009805482919060ff1916600183600881111561202d57634e487b7160e01b600052602160045260246000fd5b02179055507fdeec0b1e3a1ffaeb49a9045c07756b2e16cd738314db2d7ec9317e56809732bb3082604051612063929190612cad565b60405180910390a150565b600080600284600881111561209357634e487b7160e01b600052602160045260246000fd5b1480156120bf575060038360088111156120bd57634e487b7160e01b600052602160045260246000fd5b145b90506000808560088111156120e457634e487b7160e01b600052602160045260246000fd5b148061210f5750600185600881111561210d57634e487b7160e01b600052602160045260246000fd5b145b806121395750600885600881111561213757634e487b7160e01b600052602160045260246000fd5b145b80156121645750600184600881111561216257634e487b7160e01b600052602160045260246000fd5b145b90506000600186600881111561218a57634e487b7160e01b600052602160045260246000fd5b1480156121b6575060088560088111156121b457634e487b7160e01b600052602160045260246000fd5b145b905082806121c15750815b806121c95750805b9695505050505050565b6040518060e0016040528060006001600160a01b03168152602001606081526020016060815260200160608152602001606081526020016000600881111561222b57634e487b7160e01b600052602160045260246000fd5b815260200161225460405180606001604052806000815260200160608152602001606081525090565b905290565b82805461226590612f60565b90600052602060002090601f01602090048101928261228757600085556122cd565b82601f106122a057805160ff19168380011785556122cd565b828001600101855582156122cd579182015b828111156122cd5782518255916020019190600101906122b2565b506122d99291506122dd565b5090565b5b808211156122d957600081556001016122de565b80356122fd81612ff3565b919050565b80516122fd81612ff3565b600082601f83011261231d578081fd5b8135602061233261232d83612e37565b612e06565b80838252828201915082860187848660051b8901011115612351578586fd5b855b8581101561237857813561236681612ff3565b84529284019290840190600101612353565b5090979650505050505050565b600082601f830112612395578081fd5b815160206123a561232d83612e37565b80838252828201915082860187848660051b89010111156123c4578586fd5b855b858110156123785781516123d981612ff3565b845292840192908401906001016123c6565b80356122fd81613008565b80516122fd81613008565b8051600281106122fd57600080fd5b8051600481106122fd57600080fd5b8035600981106122fd57600080fd5b600082601f83011261243e578081fd5b813561244c61232d82612e5b565b818152846020838601011115612460578283fd5b816020850160208301379081016020019190915292915050565b600082601f83011261248a578081fd5b815161249861232d82612e5b565b8181528460208386010111156124ac578283fd5b6124bd826020830160208701612f34565b949350505050565b6000606082840312156124d6578081fd5b6040516060810167ffffffffffffffff82821081831117156124fa576124fa612fdd565b8160405282935084358352602085013591508082111561251957600080fd5b6125258683870161230d565b6020840152604085013591508082111561253e57600080fd5b5061254b8582860161230d565b6040830152505092915050565b805163ffffffff811681146122fd57600080fd5b805167ffffffffffffffff811681146122fd57600080fd5b600060208284031215612595578081fd5b81516125a081612ff3565b9392505050565b6000602082840312156125b8578081fd5b81516125a081613008565b6000602082840312156125d4578081fd5b6125a082612410565b6000806000606084860312156125f1578182fd5b6125fa8461241f565b9250602084013567ffffffffffffffff80821115612616578384fd5b6126228783880161242e565b93506040860135915080821115612637578283fd5b506126448682870161242e565b9150509250925092565b60008060408385031215612660578182fd5b6126698361241f565b946020939093013593505050565b600060208284031215612688578081fd5b815167ffffffffffffffff8082111561269f578283fd5b9083019061022082860312156126b3578283fd5b6126bb612d95565b8251828111156126c9578485fd5b6126d58782860161247a565b8252506126e460208401612401565b60208201526126f560408401612410565b6040820152612706606084016123f6565b606082015260808301518281111561271c578485fd5b6127288782860161247a565b60808301525060a083015160a082015260c083015182811115612749578485fd5b61275587828601612385565b60c08301525060e08301518281111561276c578485fd5b6127788782860161247a565b60e0830152506101008381015190820152610120808401518381111561279c578586fd5b6127a88882870161247a565b82840152505061014080840151838111156127c1578586fd5b6127cd8882870161247a565b82840152505061016080840151838111156127e6578586fd5b6127f28882870161247a565b828401525050610180808401518381111561280b578586fd5b61281788828701612385565b8284015250506101a08084015183811115612830578586fd5b61283c8882870161247a565b8284015250506101c08084015183811115612855578586fd5b6128618882870161247a565b8284015250506101e0808401518381111561287a578586fd5b6128868882870161247a565b91830191909152506102009283015192810192909252509392505050565b600080604083850312156128b6578182fd5b823567ffffffffffffffff808211156128cd578384fd5b9084019060e082870312156128e0578384fd5b6128e8612dbf565b6128f1836122f2565b8152602083013582811115612904578586fd5b6129108882860161242e565b602083015250604083013582811115612927578586fd5b6129338882860161242e565b60408301525060608301358281111561294a578586fd5b6129568882860161242e565b60608301525060808301358281111561296d578586fd5b6129798882860161242e565b60808301525061298b60a0840161241f565b60a082015260c0830135828111156129a1578586fd5b6129ad888286016124c5565b60c08301525093506129c4915050602084016123eb565b90509250929050565b6000602082840312156129de578081fd5b815167ffffffffffffffff808211156129f5578283fd5b908301906101408286031215612a09578283fd5b612a11612de2565b825182811115612a1f578485fd5b612a2b8782860161247a565b825250602083015182811115612a3f578485fd5b612a4b8782860161247a565b602083015250604083015182811115612a62578485fd5b612a6e8782860161247a565b604083015250612a8060608401612558565b6060820152612a916080840161256c565b608082015260a083015182811115612aa7578485fd5b612ab38782860161247a565b60a083015250612ac560c08401612302565b60c082015260e083015182811115612adb578485fd5b612ae78782860161247a565b60e0830152506101008084015183811115612b00578586fd5b612b0c8882870161247a565b8284015250506101208084015183811115612b25578586fd5b612b318882870161247a565b918301919091525095945050505050565b600060208284031215612b53578081fd5b5051919050565b6000815180845260208085019450808401835b83811015612b925781516001600160a01b031687529582019590820190600101612b6d565b509495945050505050565b60098110612bad57612bad612fc7565b9052565b60008151808452612bc9816020860160208601612f34565b601f01601f19169290920160200192915050565b6001600160a01b0381511682526000602082015160e06020850152612c0560e0850182612bb1565b905060408301518482036040860152612c1e8282612bb1565b91505060608301518482036060860152612c388282612bb1565b91505060808301518482036080860152612c528282612bb1565b91505060a0830151612c6760a0860182612b9d565b5060c083015184820360c086015280518252602081015160606020840152612c926060840182612b5a565b90506040820151915082810360408401526121c98183612b5a565b6001600160a01b0383168152604081016125a06020830184612b9d565b6001600160a01b0385168152836020820152608060408201526000612cf26080830185612bdd565b9050821515606083015295945050505050565b6020815260006125a06020830184612b5a565b60208101600c8310612d2c57612d2c612fc7565b91905290565b6020815260006125a06020830184612bdd565b602081526000825160606020840152612d616080840182612bb1565b90506020840151601f19848303016040850152612d7e8282612bb1565b915050604084015160608401528091505092915050565b604051610220810167ffffffffffffffff81118282101715612db957612db9612fdd565b60405290565b60405160e0810167ffffffffffffffff81118282101715612db957612db9612fdd565b604051610140810167ffffffffffffffff81118282101715612db957612db9612fdd565b604051601f8201601f1916810167ffffffffffffffff81118282101715612e2f57612e2f612fdd565b604052919050565b600067ffffffffffffffff821115612e5157612e51612fdd565b5060051b60200190565b600067ffffffffffffffff821115612e7557612e75612fdd565b50601f01601f191660200190565b60008219821115612e9657612e96612f9b565b500190565b600082612eaa57612eaa612fb1565b500490565b600063ffffffff80841680612ec657612ec6612fb1565b92169190910492915050565b6000816000190483118215151615612eec57612eec612f9b565b500290565b600063ffffffff80831681851681830481118215151615612f1457612f14612f9b565b02949350505050565b600082821015612f2f57612f2f612f9b565b500390565b60005b83811015612f4f578181015183820152602001612f37565b83811115611c9a5750506000910152565b600181811c90821680612f7457607f821691505b60208210811415612f9557634e487b7160e01b600052602260045260246000fd5b50919050565b634e487b7160e01b600052601160045260246000fd5b634e487b7160e01b600052601260045260246000fd5b634e487b7160e01b600052602160045260246000fd5b634e487b7160e01b600052604160045260246000fd5b6001600160a01b038116811461150357600080fd5b801515811461150357600080fdfea264697066735822122083c4ad34972b48b142b04b17318ae239bbf2ab598ac2b44260ffa9d596e4d91864736f6c63430008040033a2646970667358221220be19c7564f8ce2ac0af0156abb5eb7e9ae419e6394d3b843e60efe8953f1c89664736f6c63430008040033",
  "linkReferences": {},
  "deployedLinkReferences": {}
}