{
  "_format": "hh-sol-artifact-1",
  "contractName": "Order",
  "sourceName": "contracts/Order.sol",
  "abi": [
    {
      "inputs": [
        {
          "internalType": "address",
          "name": "_SPConfig",
          "type": "address"
        },
        {
          "internalType": "address",
          "name": "_consumer",
          "type": "address"
        },
        {
          "internalType": "address",
          "name": "_parentOrder",
          "type": "address"
        },
        {
          "components": [
            {
              "internalType": "address",
              "name": "offer",
              "type": "address"
            },
            {
              "internalType": "string",
              "name": "resultPublicKey",
              "type": "string"
            },
            {
              "internalType": "string",
              "name": "encryptedRequirements",
              "type": "string"
            },
            {
              "internalType": "string",
              "name": "encryptedArgs",
              "type": "string"
            },
            {
              "internalType": "enum OrderStatus",
              "name": "status",
              "type": "uint8"
            },
            {
              "components": [
                {
                  "internalType": "uint256",
                  "name": "slots",
                  "type": "uint256"
                },
                {
                  "internalType": "address[]",
                  "name": "inputOffers",
                  "type": "address[]"
                },
                {
                  "internalType": "address[]",
                  "name": "selectedOffers",
                  "type": "address[]"
                }
              ],
              "internalType": "struct OrderArgs",
              "name": "args",
              "type": "tuple"
            }
          ],
          "internalType": "struct OrderInfo",
          "name": "_info",
          "type": "tuple"
        },
        {
          "internalType": "uint256",
          "name": "_orderPrice",
          "type": "uint256"
        },
        {
          "internalType": "bool",
          "name": "_suspended",
          "type": "bool"
        },
        {
          "internalType": "bytes32",
          "name": "_externalId",
          "type": "bytes32"
        }
      ],
      "stateMutability": "nonpayable",
      "type": "constructor"
    },
    {
      "anonymous": false,
      "inputs": [
        {
          "indexed": false,
          "internalType": "address",
          "name": "order",
          "type": "address"
        },
        {
          "indexed": false,
          "internalType": "enum OrderStatus",
          "name": "status",
          "type": "uint8"
        }
      ],
      "name": "OrderStatusUpdated",
      "type": "event"
    },
    {
      "anonymous": false,
      "inputs": [
        {
          "indexed": false,
          "internalType": "address",
          "name": "subOrder",
          "type": "address"
        }
      ],
      "name": "SubOrderCreated",
      "type": "event"
    },
    {
      "inputs": [],
      "name": "cancelOrder",
      "outputs": [],
      "stateMutability": "nonpayable",
      "type": "function"
    },
    {
      "inputs": [
        {
          "internalType": "enum OrderStatus",
          "name": "status",
          "type": "uint8"
        },
        {
          "internalType": "string",
          "name": "encryptedResult",
          "type": "string"
        },
        {
          "internalType": "string",
          "name": "encryptedError",
          "type": "string"
        }
      ],
      "name": "complete",
      "outputs": [],
      "stateMutability": "nonpayable",
      "type": "function"
    },
    {
      "inputs": [
        {
          "components": [
            {
              "internalType": "address",
              "name": "offer",
              "type": "address"
            },
            {
              "internalType": "string",
              "name": "resultPublicKey",
              "type": "string"
            },
            {
              "internalType": "string",
              "name": "encryptedRequirements",
              "type": "string"
            },
            {
              "internalType": "string",
              "name": "encryptedArgs",
              "type": "string"
            },
            {
              "internalType": "enum OrderStatus",
              "name": "status",
              "type": "uint8"
            },
            {
              "components": [
                {
                  "internalType": "uint256",
                  "name": "slots",
                  "type": "uint256"
                },
                {
                  "internalType": "address[]",
                  "name": "inputOffers",
                  "type": "address[]"
                },
                {
                  "internalType": "address[]",
                  "name": "selectedOffers",
                  "type": "address[]"
                }
              ],
              "internalType": "struct OrderArgs",
              "name": "args",
              "type": "tuple"
            }
          ],
          "internalType": "struct OrderInfo",
          "name": "info",
          "type": "tuple"
        },
        {
          "internalType": "bool",
          "name": "blocking",
          "type": "bool"
        },
        {
          "internalType": "bytes32",
          "name": "_externalId",
          "type": "bytes32"
        }
      ],
      "name": "createSubOrder",
      "outputs": [
        {
          "internalType": "address",
          "name": "",
          "type": "address"
        }
      ],
      "stateMutability": "nonpayable",
      "type": "function"
    },
    {
      "inputs": [],
      "name": "getChangeWithdrawn",
      "outputs": [
        {
          "internalType": "bool",
          "name": "",
          "type": "bool"
        }
      ],
      "stateMutability": "view",
      "type": "function"
    },
    {
      "inputs": [],
      "name": "getConsumer",
      "outputs": [
        {
          "internalType": "address",
          "name": "",
          "type": "address"
        }
      ],
      "stateMutability": "view",
      "type": "function"
    },
    {
      "inputs": [],
      "name": "getExteranlId",
      "outputs": [
        {
          "internalType": "bytes32",
          "name": "",
          "type": "bytes32"
        }
      ],
      "stateMutability": "view",
      "type": "function"
    },
    {
      "inputs": [],
      "name": "getOrderInfo",
      "outputs": [
        {
          "components": [
            {
              "internalType": "address",
              "name": "offer",
              "type": "address"
            },
            {
              "internalType": "string",
              "name": "resultPublicKey",
              "type": "string"
            },
            {
              "internalType": "string",
              "name": "encryptedRequirements",
              "type": "string"
            },
            {
              "internalType": "string",
              "name": "encryptedArgs",
              "type": "string"
            },
            {
              "internalType": "enum OrderStatus",
              "name": "status",
              "type": "uint8"
            },
            {
              "components": [
                {
                  "internalType": "uint256",
                  "name": "slots",
                  "type": "uint256"
                },
                {
                  "internalType": "address[]",
                  "name": "inputOffers",
                  "type": "address[]"
                },
                {
                  "internalType": "address[]",
                  "name": "selectedOffers",
                  "type": "address[]"
                }
              ],
              "internalType": "struct OrderArgs",
              "name": "args",
              "type": "tuple"
            }
          ],
          "internalType": "struct OrderInfo",
          "name": "",
          "type": "tuple"
        }
      ],
      "stateMutability": "view",
      "type": "function"
    },
    {
      "inputs": [],
      "name": "getOrderPrice",
      "outputs": [
        {
          "internalType": "uint256",
          "name": "",
          "type": "uint256"
        }
      ],
      "stateMutability": "view",
      "type": "function"
    },
    {
      "inputs": [],
      "name": "getOrderResult",
      "outputs": [
        {
          "components": [
            {
              "internalType": "string",
              "name": "encryptedResult",
              "type": "string"
            },
            {
              "internalType": "string",
              "name": "encryptedError",
              "type": "string"
            },
            {
              "internalType": "uint256",
              "name": "orderPrice",
              "type": "uint256"
            }
          ],
          "internalType": "struct OrderResult",
          "name": "",
          "type": "tuple"
        }
      ],
      "stateMutability": "view",
      "type": "function"
    },
    {
      "inputs": [],
      "name": "getOrigins",
      "outputs": [
        {
          "components": [
            {
              "internalType": "uint256",
              "name": "createdDate",
              "type": "uint256"
            },
            {
              "internalType": "address",
              "name": "createdBy",
              "type": "address"
            },
            {
              "internalType": "uint256",
              "name": "modifiedDate",
              "type": "uint256"
            },
            {
              "internalType": "address",
              "name": "modifiedBy",
              "type": "address"
            }
          ],
          "internalType": "struct Origins",
          "name": "",
          "type": "tuple"
        }
      ],
      "stateMutability": "view",
      "type": "function"
    },
    {
      "inputs": [],
      "name": "getParentOrder",
      "outputs": [
        {
          "internalType": "address",
          "name": "",
          "type": "address"
        }
      ],
      "stateMutability": "view",
      "type": "function"
    },
    {
      "inputs": [],
      "name": "getProfitWithdrawn",
      "outputs": [
        {
          "internalType": "bool",
          "name": "",
          "type": "bool"
        }
      ],
      "stateMutability": "view",
      "type": "function"
    },
    {
      "inputs": [],
      "name": "getSubOrders",
      "outputs": [
        {
          "internalType": "address[]",
          "name": "",
          "type": "address[]"
        }
      ],
      "stateMutability": "view",
      "type": "function"
    },
    {
      "inputs": [],
      "name": "isCompleted",
      "outputs": [
        {
          "internalType": "bool",
          "name": "",
          "type": "bool"
        }
      ],
      "stateMutability": "view",
      "type": "function"
    },
    {
      "inputs": [],
      "name": "isReadyForProcessing",
      "outputs": [
        {
          "internalType": "bool",
          "name": "",
          "type": "bool"
        }
      ],
      "stateMutability": "view",
      "type": "function"
    },
    {
      "inputs": [],
      "name": "setProcessingStatus",
      "outputs": [],
      "stateMutability": "nonpayable",
      "type": "function"
    },
    {
      "inputs": [],
      "name": "start",
      "outputs": [],
      "stateMutability": "nonpayable",
      "type": "function"
    },
    {
      "inputs": [
        {
          "internalType": "enum OrderStatus",
          "name": "status",
          "type": "uint8"
        },
        {
          "internalType": "uint256",
          "name": "orderPrice",
          "type": "uint256"
        }
      ],
      "name": "updateStatus",
      "outputs": [],
      "stateMutability": "nonpayable",
      "type": "function"
    },
    {
      "inputs": [
        {
          "internalType": "address",
          "name": "auth",
          "type": "address"
        },
        {
          "internalType": "enum OrderStatus",
          "name": "newStatus",
          "type": "uint8"
        }
      ],
      "name": "updateStatusFromSuborders",
      "outputs": [],
      "stateMutability": "nonpayable",
      "type": "function"
    },
    {
      "inputs": [],
      "name": "withdrawChange",
      "outputs": [],
      "stateMutability": "nonpayable",
      "type": "function"
    },
    {
      "inputs": [],
      "name": "withdrawProfit",
      "outputs": [],
      "stateMutability": "nonpayable",
      "type": "function"
    }
  ],
  "bytecode": "0x60806040526015805461ffff60a01b191690553480156200001f57600080fd5b5060405162003edd38038062003edd83398101604081905262000042916200071f565b601580546001600160a01b03808a166001600160a01b031992831617909255600180548984169083161790558551600580549190931691161781556020808601518051879392620000999260069291019062000422565b5060408201518051620000b791600284019160209091019062000422565b5060608201518051620000d591600384019160209091019062000422565b50608082015160048201805460ff191660018360088111156200010857634e487b7160e01b600052602160045260246000fd5b021790555060a08201518051600583019081556020808301518051620001359260068701920190620004b1565b506040820151805162000153916002840191602090910190620004b1565b50505090505062000174866011620003e360201b620028701790919060201c565b83600001516001600160a01b031663af5372e66040518163ffffffff1660e01b815260040160206040518083038186803b158015620001b257600080fd5b505afa158015620001c7573d6000803e3d6000fd5b505050506040513d601f19601f82011682018060405250810190620001ed919062000888565b6010805460ff191660018360038111156200021857634e487b7160e01b600052602160045260246000fd5b0217905550600080546001600160a01b0319166001600160a01b038716179055600f839055816200024b5760006200024e565b60075b6009805460ff191660018360088111156200027957634e487b7160e01b600052602160045260246000fd5b0217905550600b5415620003d35760005b600b54811015620003d157600b80546000919083908110620002bc57634e487b7160e01b600052603260045260246000fd5b9060005260206000200160009054906101000a90046001600160a01b03169050600160176000836001600160a01b031663af5372e66040518163ffffffff1660e01b815260040160206040518083038186803b1580156200031c57600080fd5b505afa15801562000331573d6000803e3d6000fd5b505050506040513d601f19601f8201168201806040525081019062000357919062000888565b60038111156200037757634e487b7160e01b600052602160045260246000fd5b60038111156200039757634e487b7160e01b600052602160045260246000fd5b81526020019081526020016000206000828254620003b691906200090e565b90915550620003c9915082905062000966565b90506200028a565b505b60045550620009b0945050505050565b428083556001830180546001600160a01b039093166001600160a01b031993841681179091556002840191909155600390920180549091169091179055565b828054620004309062000929565b90600052602060002090601f0160209004810192826200045457600085556200049f565b82601f106200046f57805160ff19168380011785556200049f565b828001600101855582156200049f579182015b828111156200049f57825182559160200191906001019062000482565b50620004ad92915062000509565b5090565b8280548282559060005260206000209081019282156200049f579160200282015b828111156200049f57825182546001600160a01b0319166001600160a01b03909116178255602090920191600190910190620004d2565b5b80821115620004ad57600081556001016200050a565b80516001600160a01b03811681146200053857600080fd5b919050565b600082601f8301126200054e578081fd5b815160206001600160401b038211156200056c576200056c6200099a565b8160051b6200057d828201620008db565b83815282810190868401838801850189101562000598578687fd5b8693505b85841015620005c557620005b08162000520565b8352600193909301929184019184016200059c565b50979650505050505050565b805180151581146200053857600080fd5b8051600981106200053857600080fd5b600082601f83011262000603578081fd5b81516001600160401b038111156200061f576200061f6200099a565b602062000635601f8301601f19168201620008db565b828152858284870101111562000649578384fd5b835b83811015620006685785810183015182820184015282016200064b565b838111156200067957848385840101525b5095945050505050565b60006060828403121562000695578081fd5b604051606081016001600160401b038082118383101715620006bb57620006bb6200099a565b81604052829350845183526020850151915080821115620006db57600080fd5b620006e9868387016200053d565b602084015260408501519150808211156200070357600080fd5b5062000712858286016200053d565b6040830152505092915050565b600080600080600080600060e0888a0312156200073a578283fd5b620007458862000520565b9650620007556020890162000520565b9550620007656040890162000520565b60608901519095506001600160401b038082111562000782578485fd5b9089019060c0828c03121562000796578485fd5b620007a0620008b0565b620007ab8362000520565b8152602083015182811115620007bf578687fd5b620007cd8d828601620005f2565b602083015250604083015182811115620007e5578687fd5b620007f38d828601620005f2565b6040830152506060830151828111156200080b578687fd5b620008198d828601620005f2565b6060830152506200082d60808401620005e2565b608082015260a08301518281111562000844578687fd5b620008528d82860162000683565b60a083015250809650505050608088015192506200087360a08901620005d1565b915060c0880151905092959891949750929550565b6000602082840312156200089a578081fd5b815160048110620008a9578182fd5b9392505050565b60405160c081016001600160401b0381118282101715620008d557620008d56200099a565b60405290565b604051601f8201601f191681016001600160401b03811182821017156200090657620009066200099a565b604052919050565b6000821982111562000924576200092462000984565b500190565b600181811c908216806200093e57607f821691505b602082108114156200096057634e487b7160e01b600052602260045260246000fd5b50919050565b60006000198214156200097d576200097d62000984565b5060010190565b634e487b7160e01b600052601160045260246000fd5b634e487b7160e01b600052604160045260246000fd5b61351d80620009c06000396000f3fe608060405234801561001057600080fd5b50600436106101775760003560e01c8063b2375e8d116100d8578063c28bd4ef1161008c578063d3328a6911610066578063d3328a691461034f578063ecf1aedb14610357578063fa391c641461036a57600080fd5b8063c28bd4ef14610316578063c3c61f9114610328578063cef8f6d41461033a57600080fd5b8063b7ff5dae116100bd578063b7ff5dae146102e8578063be9a6555146102fb578063c214d37a1461030357600080fd5b8063b2375e8d1461022f578063b737e98e1461024457600080fd5b8063959499b61161012f5780639836515011610114578063983651501461020d578063af91ec6014610215578063b1be59291461022757600080fd5b8063959499b6146101f4578063982308f5146101fc57600080fd5b80634ed1fe6e116101605780634ed1fe6e146101b25780636a816548146101c75780636c07681f146101cf57600080fd5b806301efb6c81461017c57806330979eba1461019a575b600080fd5b610184610372565b6040516101919190613357565b60405180910390f35b6101a2610683565b6040519015158152602001610191565b6101c56101c0366004612f35565b6106e4565b005b6101c5610842565b6001546001600160a01b03165b6040516001600160a01b039091168152602001610191565b6101c5610a73565b6000546001600160a01b03166101dc565b6101c5610d4c565b601554600160a81b900460ff166101a2565b6101c5610f53565b61023761102d565b604051610191919061336a565b6102a6604080516080810182526000808252602082018190529181018290526060810191909152506040805160808101825260115481526012546001600160a01b03908116602083015260135492820192909252601454909116606082015290565b6040516101919190815181526020808301516001600160a01b039081169183019190915260408084015190830152606092830151169181019190915260800190565b6101c56102f6366004613015565b611191565b6101c5611355565b6101c5610311366004612fa4565b611533565b601554600160a01b900460ff166101a2565b600f545b604051908152602001610191565b6103426118e4565b6040516101919190613316565b60045461032c565b6101dc61036536600461303e565b611946565b6101a26127e4565b61037a612c4d565b6040805160c08101909152600580546001600160a01b03168252600680546020840191906103a79061342c565b80601f01602080910402602001604051908101604052809291908181526020018280546103d39061342c565b80156104205780601f106103f557610100808354040283529160200191610420565b820191906000526020600020905b81548152906001019060200180831161040357829003601f168201915b505050505081526020016002820180546104399061342c565b80601f01602080910402602001604051908101604052809291908181526020018280546104659061342c565b80156104b25780601f10610487576101008083540402835291602001916104b2565b820191906000526020600020905b81548152906001019060200180831161049557829003601f168201915b505050505081526020016003820180546104cb9061342c565b80601f01602080910402602001604051908101604052809291908181526020018280546104f79061342c565b80156105445780601f1061051957610100808354040283529160200191610544565b820191906000526020600020905b81548152906001019060200180831161052757829003601f168201915b5050509183525050600482015460209091019060ff16600881111561057957634e487b7160e01b600052602160045260246000fd5b600881111561059857634e487b7160e01b600052602160045260246000fd5b815260200160058201604051806060016040529081600082015481526020016001820180548060200260200160405190810160405280929190818152602001828054801561060f57602002820191906000526020600020905b81546001600160a01b031681526001909101906020018083116105f1575b505050505081526020016002820180548060200260200160405190810160405280929190818152602001828054801561067157602002820191906000526020600020905b81546001600160a01b03168152600190910190602001808311610653575b50505050508152505081525050905090565b6000600760095460ff1660088111156106ac57634e487b7160e01b600052602160045260246000fd5b141580156106df5750600660095460ff1660088111156106dc57634e487b7160e01b600052602160045260246000fd5b14155b905090565b6015546106f9906001600160a01b03166128af565b6001600160a01b0316336001600160a01b03161461075e5760405162461bcd60e51b815260206004820152601260248201527f4f6e6c79206f7264657220666163746f7279000000000000000000000000000060448201526064015b60405180910390fd5b42601355601480546001600160a01b0319166001600160a01b038416179055600060058260088111156107a157634e487b7160e01b600052602160045260246000fd5b1490506000600660095460ff1660088111156107cd57634e487b7160e01b600052602160045260246000fd5b1480156107f9575060008360088111156107f757634e487b7160e01b600052602160045260246000fd5b145b905081806108045750805b1561083c576009805484919060ff1916600183600881111561083657634e487b7160e01b600052602160045260246000fd5b02179055505b50505050565b6001546001600160a01b0316331461089c5760405162461bcd60e51b815260206004820152601b60248201527f417661696c61626c65206f6e6c7920666f7220636f6e73756d657200000000006044820152606401610755565b6108a46127e4565b156108fb5760405162461bcd60e51b815260206004820152602160248201527f436f6d706c65746564206f726465722063616e27742062652063616e63656c656044820152601960fa1b6064820152608401610755565b600554604080517f1bffb49100000000000000000000000000000000000000000000000000000000815290516001600160a01b03909216918291631bffb491916004808301926020929190829003018186803b15801561095a57600080fd5b505afa15801561096e573d6000803e3d6000fd5b505050506040513d601f19601f820116820180604052508101906109929190612f69565b1580156109a0575060025415155b156109b2576109af600261293c565b50565b6109bc600361293c565b6002546109cb57506000600f55565b600254600f546040517f8383da750000000000000000000000000000000000000000000000000000000081526001600160a01b03841692638383da7592610a1d92600401918252602082015260400190565b60206040518083038186803b158015610a3557600080fd5b505afa158015610a49573d6000803e3d6000fd5b505050506040513d601f19601f82011682018060405250810190610a6d919061314d565b600f5550565b6005546040805163483d45bd60e01b815290516000926001600160a01b03169163483d45bd916004808301926020929190829003018186803b158015610ab857600080fd5b505afa158015610acc573d6000803e3d6000fd5b505050506040513d601f19601f82011682018060405250810190610af09190612f19565b6001600160a01b0316636d69a3e86040518163ffffffff1660e01b815260040160206040518083038186803b158015610b2857600080fd5b505afa158015610b3c573d6000803e3d6000fd5b505050506040513d601f19601f82011682018060405250810190610b609190612f19565b600f54909150610b6e6127e4565b610bcb5760405162461bcd60e51b815260206004820152602860248201527f57697468647261776e20617661696c61626c65207768656e206f7264657220636044820152671bdb5c1b195d195960c21b6064820152608401610755565b336001600160a01b03831614610c495760405162461bcd60e51b815260206004820152603160248201527f417661696c61626c65206f6e6c7920666f722070726f766964657220746f6b6560448201527f6e2072656369766572206163636f756e740000000000000000000000000000006064820152608401610755565b601554600160a81b900460ff1615610ca35760405162461bcd60e51b815260206004820152601860248201527f50726f66697420616c72656164792077697468647261776e00000000000000006044820152606401610755565b601554610cb8906001600160a01b03166128af565b6040517f22e8d369000000000000000000000000000000000000000000000000000000008152600481018390526001600160a01b03848116602483015291909116906322e8d36990604401600060405180830381600087803b158015610d1d57600080fd5b505af1158015610d31573d6000803e3d6000fd5b50506015805460ff60a81b1916600160a81b17905550505050565b601554600160a01b900460ff1615610da65760405162461bcd60e51b815260206004820152601860248201527f4368616e676520616c72656164792077697468647261776e00000000000000006044820152606401610755565b6001546001600160a01b03163314610e265760405162461bcd60e51b815260206004820152602160248201527f417661696c61626c65206f6e6c7920666f72204f7264657220636f6e73756d6560448201527f72000000000000000000000000000000000000000000000000000000000000006064820152608401610755565b610e2e6127e4565b610e8b5760405162461bcd60e51b815260206004820152602860248201527f57697468647261776e20617661696c61626c65207768656e206f7264657220636044820152671bdb5c1b195d195960c21b6064820152608401610755565b601554600090600160a81b900460ff1615610ea7576000610eab565b600f545b601554909150610ec3906001600160a01b03166128af565b6001600160a01b0316635f4550ba826040518263ffffffff1660e01b8152600401610ef091815260200190565b600060405180830381600087803b158015610f0a57600080fd5b505af1158015610f1e573d6000803e3d6000fd5b5050601580547fffffffffffffffffffffff00ffffffffffffffffffffffffffffffffffffffff16600160a01b179055505050565b6000610f5d6129c0565b9050336001600160a01b03821614610fc95760405162461bcd60e51b815260206004820152602960248201527f417661696c61626c65206f6e6c7920666f722070726f766964657220616374696044820152681bdb9058d8dbdd5b9d60ba1b6064820152608401610755565b610fd1610683565b61101d5760405162461bcd60e51b815260206004820152601960248201527f4f72646572206861736e2774206265656e2073746172746564000000000000006044820152606401610755565b6109af6001600d60020154611191565b61105160405180606001604052806060815260200160608152602001600081525090565b600d60405180606001604052908160008201805461106e9061342c565b80601f016020809104026020016040519081016040528092919081815260200182805461109a9061342c565b80156110e75780601f106110bc576101008083540402835291602001916110e7565b820191906000526020600020905b8154815290600101906020018083116110ca57829003601f168201915b505050505081526020016001820180546111009061342c565b80601f016020809104026020016040519081016040528092919081815260200182805461112c9061342c565b80156111795780601f1061114e57610100808354040283529160200191611179565b820191906000526020600020905b81548152906001019060200180831161115c57829003601f168201915b50505050508152602001600282015481525050905090565b600061119b6129c0565b9050336001600160a01b038216146112075760405162461bcd60e51b815260206004820152602960248201527f417661696c61626c65206f6e6c7920666f722070726f766964657220616374696044820152681bdb9058d8dbdd5b9d60ba1b6064820152608401610755565b61120f610683565b61125b5760405162461bcd60e51b815260206004820152601960248201527f4f72646572206861736e2774206265656e2073746172746564000000000000006044820152606401610755565b6112636127e4565b156112b05760405162461bcd60e51b815260206004820181905260248201527f436f6d706c65746564206f726465722063616e277420626520757064617465646044820152606401610755565b6009546112c09060ff1684612aad565b61130c5760405162461bcd60e51b815260206004820152600d60248201527f496e7661696420737461747573000000000000000000000000000000000000006044820152606401610755565b6113158361293c565b6002541580156113445750600183600881111561134257634e487b7160e01b600052602160045260246000fd5b145b1561134e57426002555b50600f5550565b6001546001600160a01b031633146113af5760405162461bcd60e51b815260206004820152601b60248201527f417661696c61626c65206f6e6c7920666f7220636f6e73756d657200000000006044820152606401610755565b600760095460ff1660088111156113d657634e487b7160e01b600052602160045260246000fd5b146114235760405162461bcd60e51b815260206004820152601760248201527f4f72646572206d7573742062652073757370656e6465640000000000000000006044820152606401610755565b42601355601480546001600160a01b03191633179055601554600090611451906001600160a01b03166128af565b6040517f9a5f3a1f0000000000000000000000000000000000000000000000000000000081523060048201526001600160a01b039190911690639a5f3a1f9060240160206040518083038186803b1580156114ab57600080fd5b505afa1580156114bf573d6000803e3d6000fd5b505050506040513d601f19601f820116820180604052508101906114e3919061314d565b9050600081116114fe576009805460ff191690556000611501565b60065b6009805460ff1916600183600881111561152b57634e487b7160e01b600052602160045260246000fd5b021790555050565b600061153d6129c0565b9050336001600160a01b038216146115a95760405162461bcd60e51b815260206004820152602960248201527f417661696c61626c65206f6e6c7920666f722070726f766964657220616374696044820152681bdb9058d8dbdd5b9d60ba1b6064820152608401610755565b6115b1610683565b6115fd5760405162461bcd60e51b815260206004820152601960248201527f4f72646572206861736e2774206265656e2073746172746564000000000000006044820152606401610755565b6116056127e4565b156116525760405162461bcd60e51b815260206004820152601160248201527f416c726561647920636f6d706c657465640000000000000000000000000000006044820152606401610755565b600584600881111561167457634e487b7160e01b600052602160045260246000fd5b148061169f5750600484600881111561169d57634e487b7160e01b600052602160045260246000fd5b145b6117115760405162461bcd60e51b815260206004820152602b60248201527f43616e20636f6d706c657465206f6e6c7920776974682073746174757320457260448201527f726f72206f7220446f6e650000000000000000000000000000000000000000006064820152608401610755565b600160095460ff16600881111561173857634e487b7160e01b600052602160045260246000fd5b14806117685750600860095460ff16600881111561176657634e487b7160e01b600052602160045260246000fd5b145b6117b45760405162461bcd60e51b815260206004820181905260248201527f43616e277420636f6d706c657465206265666f72652070726f63657373696e676044820152606401610755565b82516117c790600d906020860190612ccc565b5081516117db90600e906020850190612ccc565b5060058460088111156117fe57634e487b7160e01b600052602160045260246000fd5b1415611818576015805460ff60a81b1916600160a81b1790555b6118218461293c565b601554611836906001600160a01b03166128af565b6001600160a01b0316635110df7333600587600881111561186757634e487b7160e01b600052602160045260246000fd5b6040517fffffffff0000000000000000000000000000000000000000000000000000000060e086901b1681526001600160a01b039093166004840152146024820152604401600060405180830381600087803b1580156118c657600080fd5b505af11580156118da573d6000803e3d6000fd5b5050505050505050565b6060600380548060200260200160405190810160405280929190818152602001828054801561193c57602002820191906000526020600020905b81546001600160a01b0316815260019091019060200180831161191e575b5050505050905090565b600554604080517f2acdf0fa00000000000000000000000000000000000000000000000000000000815290516000926001600160a01b03169183918391632acdf0fa916004808301926020929190829003018186803b1580156119a857600080fd5b505afa1580156119bc573d6000803e3d6000fd5b505050506040513d601f19601f820116820180604052508101906119e09190612f85565b90506002816002811115611a0457634e487b7160e01b600052602160045260246000fd5b1415611a785760405162461bcd60e51b815260206004820152602b60248201527f5375626f726465727320666f7220276f7574707574272067726f75702069732060448201527f6e6f7420616c6c6f7765640000000000000000000000000000000000000000006064820152608401610755565b42601355601480546001600160a01b031916331790556000611a98610683565b90506000611aa46129c0565b9050818015611abb5750336001600160a01b038216145b80611ad9575081158015611ad957506001546001600160a01b031633145b611b255760405162461bcd60e51b815260206004820152600d60248201527f4163636573732064656e696564000000000000000000000000000000000000006044820152606401610755565b6000886000015190506000816001600160a01b0316632acdf0fa6040518163ffffffff1660e01b815260040160206040518083038186803b158015611b6957600080fd5b505afa158015611b7d573d6000803e3d6000fd5b505050506040513d601f19601f82011682018060405250810190611ba19190612f85565b6040517ff12018c30000000000000000000000000000000000000000000000000000000081523360048201529091506001600160a01b0383169063f12018c39060240160206040518083038186803b158015611bfc57600080fd5b505afa158015611c10573d6000803e3d6000fd5b505050506040513d601f19601f82011682018060405250810190611c349190612f69565b611c805760405162461bcd60e51b815260206004820152600b60248201527f4e6f7420616c6c6f7765640000000000000000000000000000000000000000006044820152606401610755565b600160166000836002811115611ca657634e487b7160e01b600052602160045260246000fd5b6002811115611cc557634e487b7160e01b600052602160045260246000fd5b81526020019081526020016000206000828254611ce29190613414565b9091555060019050856002811115611d0a57634e487b7160e01b600052602160045260246000fd5b141580611d435750600260005260166020527fcaff291fe014adc6b72a172705750b4cabe8f8667664d2924a166caab288564854600110155b611d995760405162461bcd60e51b815260206004820152602160248201527f4f7574707574207375626f7264657220616c726561647920616c6c6f636174656044820152601960fa1b6064820152608401610755565b6000856002811115611dbb57634e487b7160e01b600052602160045260246000fd5b141580611df45750600260005260166020527fcaff291fe014adc6b72a172705750b4cabe8f8667664d2924a166caab288564854600110155b611e4a5760405162461bcd60e51b815260206004820152602160248201527f4f7574707574207375626f7264657220616c726561647920616c6c6f636174656044820152601960fa1b6064820152608401610755565b6002816002811115611e6c57634e487b7160e01b600052602160045260246000fd5b148015611e7a5750600c5415155b15611f69576000805b600c54811015611ef157600c80546000919083908110611eb357634e487b7160e01b600052603260045260246000fd5b6000918252602090912001548d516001600160a01b03918216925016811415611ee0576001925050611ef1565b50611eea81613467565b9050611e83565b5080611f67576040805162461bcd60e51b81526020600482015260248101919091527f4f6666657220646f6573206e6f74207361746973667920706172656e74206f7260448201527f6465722073656c65637465644f66666572732073706563696669636174696f6e6064820152608401610755565b505b6000816002811115611f8b57634e487b7160e01b600052602160045260246000fd5b1415612162576000805b600b548110156120ec57600b80546000919083908110611fc557634e487b7160e01b600052603260045260246000fd5b60009182526020909120015460405163f55ba0d360e01b81526001600160a01b039182166004820181905292509086169063f55ba0d39060240160206040518083038186803b15801561201757600080fd5b505afa15801561202b573d6000803e3d6000fd5b505050506040513d601f19601f8201168201806040525081019061204f9190612f69565b6120c15760405162461bcd60e51b815260206004820152603c60248201527f4f66666572207265737472696374696f6e7320636f6e666c696374732077697460448201527f6820706172656e74206f726465722073706563696669636174696f6e000000006064820152608401610755565b8c516001600160a01b03828116911614156120db57600192505b506120e581613467565b9050611f95565b50806121605760405162461bcd60e51b815260206004820152603d60248201527f4f6666657220646f6573206e6f74207361746973667920706172656e74206f7260448201527f64657220696e7075744f66666572732073706563696669636174696f6e0000006064820152608401610755565b505b6040516303ed770960e31b81526001600160a01b03831690631f6bb8489061218f90600290600401613343565b60206040518083038186803b1580156121a757600080fd5b505afa1580156121bb573d6000803e3d6000fd5b505050506040513d601f19601f820116820180604052508101906121df9190612f69565b1561228c57600260005260176020527fc52df653038b2ad477d8d97f1ddd63cfd138847b628ad8a7b89c109c3f8782ca5461228c5760405162461bcd60e51b815260206004820152604160248201527f506172656e74206f726465722073706563696669636174696f6e20646f65732060448201527f6e6f742073617469736679207375626f66666572207265737472696374696f6e6064820152607360f81b608482015260a401610755565b6040516303ed770960e31b81526001600160a01b03831690631f6bb848906122b990600390600401613343565b60206040518083038186803b1580156122d157600080fd5b505afa1580156122e5573d6000803e3d6000fd5b505050506040513d601f19601f820116820180604052508101906123099190612f69565b156123b657600360005260176020527fd8b2bced50346359af71f91110b86cdf684b6ab1c6ca64a7583c044d5c24de5c546123b65760405162461bcd60e51b815260206004820152604160248201527f506172656e74206f726465722073706563696669636174696f6e20646f65732060448201527f6e6f742073617469736679207375626f66666572207265737472696374696f6e6064820152607360f81b608482015260a401610755565b6040516303ed770960e31b81526001600160a01b03831690631f6bb848906123e390600190600401613343565b60206040518083038186803b1580156123fb57600080fd5b505afa15801561240f573d6000803e3d6000fd5b505050506040513d601f19601f820116820180604052508101906124339190612f69565b156124e057600160005260176020527ff36d6bc9642eb6fb6ee9998b09ce990566df752ab06e11f8de7ab633bbd57b8f546124e05760405162461bcd60e51b815260206004820152604160248201527f506172656e74206f726465722073706563696669636174696f6e20646f65732060448201527f6e6f742073617469736679207375626f66666572207265737472696374696f6e6064820152607360f81b608482015260a401610755565b6040516303ed770960e31b81526001600160a01b03831690631f6bb8489061250d90600090600401613343565b60206040518083038186803b15801561252557600080fd5b505afa158015612539573d6000803e3d6000fd5b505050506040513d601f19601f8201168201806040525081019061255d9190612f69565b156126275760405163f55ba0d360e01b81526001600160a01b03878116600483015283169063f55ba0d39060240160206040518083038186803b1580156125a357600080fd5b505afa1580156125b7573d6000803e3d6000fd5b505050506040513d601f19601f820116820180604052508101906125db9190612f69565b6126275760405162461bcd60e51b815260206004820152601f60248201527f4f6666657220646973616c6c6f7720706172656e7420544545206f66666572006044820152606401610755565b6000826001600160a01b031663bbb5d5f76040518163ffffffff1660e01b815260040160206040518083038186803b15801561266257600080fd5b505afa158015612676573d6000803e3d6000fd5b505050506040513d601f19601f8201168201806040525081019061269a919061314d565b6015549091506000906126b5906001600160a01b03166128af565b6001600160a01b031663e0f13473600160009054906101000a90046001600160a01b0316848f8f8f6040518663ffffffff1660e01b81526004016126fd9594939291906132da565b602060405180830381600087803b15801561271757600080fd5b505af115801561272b573d6000803e3d6000fd5b505050506040513d601f19601f8201168201806040525081019061274f9190612f19565b600380546001810182556000919091527fc2575a0e9e593c00f959f8c92f12db2869c3395a3b0502d05e2516446f71f85b0180546001600160a01b0319166001600160a01b0383169081179091556040519081529091507fd4a8311d4a2937c45f6564edb791f76d0a6d74db0902f4a6fb46cbee04166a639060200160405180910390a19750505050505050505b9392505050565b6000600460095460ff16600881111561280d57634e487b7160e01b600052602160045260246000fd5b148061283d5750600560095460ff16600881111561283b57634e487b7160e01b600052602160045260246000fd5b145b806106df5750600360095460ff16600881111561286a57634e487b7160e01b600052602160045260246000fd5b14905090565b428083556001830180546001600160a01b039093166001600160a01b031993841681179091556002840191909155600390920180549091169091179055565b60006128ba82612c12565b6001600160a01b031663bcaa0c5560006040518263ffffffff1660e01b81526004016128e69190613329565b60206040518083038186803b1580156128fe57600080fd5b505afa158015612912573d6000803e3d6000fd5b505050506040513d601f19601f820116820180604052508101906129369190612f19565b92915050565b42601355601480546001600160a01b031916331790556009805482919060ff1916600183600881111561297f57634e487b7160e01b600052602160045260246000fd5b02179055507fdeec0b1e3a1ffaeb49a9045c07756b2e16cd738314db2d7ec9317e56809732bb30826040516129b59291906132bd565b60405180910390a150565b6005546040805163483d45bd60e01b815290516000926001600160a01b03169163483d45bd916004808301926020929190829003018186803b158015612a0557600080fd5b505afa158015612a19573d6000803e3d6000fd5b505050506040513d601f19601f82011682018060405250810190612a3d9190612f19565b6001600160a01b0316636760c4b76040518163ffffffff1660e01b815260040160206040518083038186803b158015612a7557600080fd5b505afa158015612a89573d6000803e3d6000fd5b505050506040513d601f19601f820116820180604052508101906106df9190612f19565b6000806002846008811115612ad257634e487b7160e01b600052602160045260246000fd5b148015612afe57506003836008811115612afc57634e487b7160e01b600052602160045260246000fd5b145b9050600080856008811115612b2357634e487b7160e01b600052602160045260246000fd5b1480612b4e57506001856008811115612b4c57634e487b7160e01b600052602160045260246000fd5b145b80612b7857506008856008811115612b7657634e487b7160e01b600052602160045260246000fd5b145b8015612ba357506001846008811115612ba157634e487b7160e01b600052602160045260246000fd5b145b905060006001866008811115612bc957634e487b7160e01b600052602160045260246000fd5b148015612bf557506008856008811115612bf357634e487b7160e01b600052602160045260246000fd5b145b90508280612c005750815b80612c085750805b9695505050505050565b6000816001600160a01b031663f1f0bd016040518163ffffffff1660e01b815260040160206040518083038186803b1580156128fe57600080fd5b6040518060c0016040528060006001600160a01b0316815260200160608152602001606081526020016060815260200160006008811115612c9e57634e487b7160e01b600052602160045260246000fd5b8152602001612cc760405180606001604052806000815260200160608152602001606081525090565b905290565b828054612cd89061342c565b90600052602060002090601f016020900481019282612cfa5760008555612d40565b82601f10612d1357805160ff1916838001178555612d40565b82800160010185558215612d40579182015b82811115612d40578251825591602001919060010190612d25565b50612d4c929150612d50565b5090565b5b80821115612d4c5760008155600101612d51565b8035612d70816134c4565b919050565b600082601f830112612d85578081fd5b8135602067ffffffffffffffff821115612da157612da16134ae565b8160051b612db08282016133e3565b838152828101908684018388018501891015612dca578687fd5b8693505b85841015612df5578035612de1816134c4565b835260019390930192918401918401612dce565b50979650505050505050565b8035612d70816134d9565b803560098110612d7057600080fd5b600082601f830112612e2b578081fd5b813567ffffffffffffffff811115612e4557612e456134ae565b612e58601f8201601f19166020016133e3565b818152846020838601011115612e6c578283fd5b816020850160208301379081016020019190915292915050565b600060608284031215612e97578081fd5b6040516060810167ffffffffffffffff8282108183111715612ebb57612ebb6134ae565b81604052829350843583526020850135915080821115612eda57600080fd5b612ee686838701612d75565b60208401526040850135915080821115612eff57600080fd5b50612f0c85828601612d75565b6040830152505092915050565b600060208284031215612f2a578081fd5b81516127dd816134c4565b60008060408385031215612f47578081fd5b8235612f52816134c4565b9150612f6060208401612e0c565b90509250929050565b600060208284031215612f7a578081fd5b81516127dd816134d9565b600060208284031215612f96578081fd5b8151600381106127dd578182fd5b600080600060608486031215612fb8578081fd5b612fc184612e0c565b9250602084013567ffffffffffffffff80821115612fdd578283fd5b612fe987838801612e1b565b93506040860135915080821115612ffe578283fd5b5061300b86828701612e1b565b9150509250925092565b60008060408385031215613027578182fd5b61303083612e0c565b946020939093013593505050565b600080600060608486031215613052578283fd5b833567ffffffffffffffff80821115613069578485fd5b9085019060c0828803121561307c578485fd5b6130846133ba565b61308d83612d65565b81526020830135828111156130a0578687fd5b6130ac89828601612e1b565b6020830152506040830135828111156130c3578687fd5b6130cf89828601612e1b565b6040830152506060830135828111156130e6578687fd5b6130f289828601612e1b565b60608301525061310460808401612e0c565b608082015260a08301358281111561311a578687fd5b61312689828601612e86565b60a083015250945061313d91505060208501612e01565b9150604084013590509250925092565b60006020828403121561315e578081fd5b5051919050565b6000815180845260208085019450808401835b8381101561319d5781516001600160a01b031687529582019590820190600101613178565b509495945050505050565b600981106131b8576131b8613498565b9052565b60008151808452815b818110156131e1576020818501810151868301820152016131c5565b818111156131f25782602083870101525b50601f01601f19169290920160200192915050565b6001600160a01b0381511682526000602082015160c0602085015261322f60c08501826131bc565b90506040830151848203604086015261324882826131bc565b9150506060830151848203606086015261326282826131bc565b915050608083015161327760808601826131a8565b5060a083015184820360a0860152805182526020810151606060208401526132a26060840182613165565b9050604082015191508281036040840152612c088183613165565b6001600160a01b0383168152604081016127dd60208301846131a8565b6001600160a01b038616815284602082015260a06040820152600061330260a0830186613207565b931515606083015250608001529392505050565b6020815260006127dd6020830184613165565b60208101600c831061333d5761333d613498565b91905290565b602081016004831061333d5761333d613498565b6020815260006127dd6020830184613207565b60208152600082516060602084015261338660808401826131bc565b90506020840151601f198483030160408501526133a382826131bc565b915050604084015160608401528091505092915050565b60405160c0810167ffffffffffffffff811182821017156133dd576133dd6134ae565b60405290565b604051601f8201601f1916810167ffffffffffffffff8111828210171561340c5761340c6134ae565b604052919050565b6000821982111561342757613427613482565b500190565b600181811c9082168061344057607f821691505b6020821081141561346157634e487b7160e01b600052602260045260246000fd5b50919050565b600060001982141561347b5761347b613482565b5060010190565b634e487b7160e01b600052601160045260246000fd5b634e487b7160e01b600052602160045260246000fd5b634e487b7160e01b600052604160045260246000fd5b6001600160a01b03811681146109af57600080fd5b80151581146109af57600080fdfea2646970667358221220c4d6d188c2f1698af7ec57c4d091a501fbf246866f5069f240ced4ee27d8ac8664736f6c63430008040033",
  "linkReferences": {},
  "deployedLinkReferences": {}
}