{
  "_format": "hh-sol-artifact-1",
  "contractName": "OrdersFactory",
  "sourceName": "contracts/OrdersFactory.sol",
  "abi": [
    {
      "inputs": [
        {
          "internalType": "address",
          "name": "_SPConfig",
          "type": "address"
        }
      ],
      "stateMutability": "nonpayable",
      "type": "constructor"
    },
    {
      "anonymous": false,
      "inputs": [
        {
          "indexed": false,
          "internalType": "address",
          "name": "newOrderAddress",
          "type": "address"
        }
      ],
      "name": "OrderCreated",
      "type": "event"
    },
    {
      "inputs": [
        {
          "internalType": "address",
          "name": "creator",
          "type": "address"
        },
        {
          "internalType": "uint256",
          "name": "holdSum",
          "type": "uint256"
        },
        {
          "components": [
            {
              "internalType": "address",
              "name": "offer",
              "type": "address"
            },
            {
              "internalType": "string",
              "name": "resultPublicKey",
              "type": "string"
            },
            {
              "internalType": "string",
              "name": "resultPublicKeyAlgo",
              "type": "string"
            },
            {
              "internalType": "string",
              "name": "encryptedRequirements",
              "type": "string"
            },
            {
              "internalType": "string",
              "name": "encryptedArgs",
              "type": "string"
            },
            {
              "internalType": "enum OrderStatus",
              "name": "status",
              "type": "uint8"
            },
            {
              "components": [
                {
                  "internalType": "uint256",
                  "name": "slots",
                  "type": "uint256"
                },
                {
                  "internalType": "address[]",
                  "name": "inputOffers",
                  "type": "address[]"
                },
                {
                  "internalType": "address[]",
                  "name": "selectedOffers",
                  "type": "address[]"
                }
              ],
              "internalType": "struct OrderArgs",
              "name": "args",
              "type": "tuple"
            }
          ],
          "internalType": "struct OrderInfo",
          "name": "info",
          "type": "tuple"
        },
        {
          "internalType": "bool",
          "name": "blocking",
          "type": "bool"
        }
      ],
      "name": "addSubOrder",
      "outputs": [
        {
          "internalType": "address",
          "name": "",
          "type": "address"
        }
      ],
      "stateMutability": "nonpayable",
      "type": "function"
    },
    {
      "inputs": [
        {
          "components": [
            {
              "internalType": "address",
              "name": "offer",
              "type": "address"
            },
            {
              "internalType": "string",
              "name": "resultPublicKey",
              "type": "string"
            },
            {
              "internalType": "string",
              "name": "resultPublicKeyAlgo",
              "type": "string"
            },
            {
              "internalType": "string",
              "name": "encryptedRequirements",
              "type": "string"
            },
            {
              "internalType": "string",
              "name": "encryptedArgs",
              "type": "string"
            },
            {
              "internalType": "enum OrderStatus",
              "name": "status",
              "type": "uint8"
            },
            {
              "components": [
                {
                  "internalType": "uint256",
                  "name": "slots",
                  "type": "uint256"
                },
                {
                  "internalType": "address[]",
                  "name": "inputOffers",
                  "type": "address[]"
                },
                {
                  "internalType": "address[]",
                  "name": "selectedOffers",
                  "type": "address[]"
                }
              ],
              "internalType": "struct OrderArgs",
              "name": "args",
              "type": "tuple"
            }
          ],
          "internalType": "struct OrderInfo",
          "name": "info",
          "type": "tuple"
        },
        {
          "internalType": "bool",
          "name": "suspended",
          "type": "bool"
        }
      ],
      "name": "create",
      "outputs": [
        {
          "internalType": "address",
          "name": "",
          "type": "address"
        }
      ],
      "stateMutability": "nonpayable",
      "type": "function"
    },
    {
      "inputs": [
        {
          "internalType": "address",
          "name": "order",
          "type": "address"
        }
      ],
      "name": "getOrderBlockingSubordersCount",
      "outputs": [
        {
          "internalType": "uint256",
          "name": "",
          "type": "uint256"
        }
      ],
      "stateMutability": "view",
      "type": "function"
    },
    {
      "inputs": [
        {
          "internalType": "address",
          "name": "order",
          "type": "address"
        }
      ],
      "name": "getOrderHoldDeposit",
      "outputs": [
        {
          "internalType": "uint256",
          "name": "",
          "type": "uint256"
        }
      ],
      "stateMutability": "view",
      "type": "function"
    },
    {
      "inputs": [
        {
          "internalType": "address",
          "name": "orderId",
          "type": "address"
        }
      ],
      "name": "isValidOrder",
      "outputs": [
        {
          "internalType": "bool",
          "name": "",
          "type": "bool"
        }
      ],
      "stateMutability": "view",
      "type": "function"
    },
    {
      "inputs": [],
      "name": "listAll",
      "outputs": [
        {
          "internalType": "address[]",
          "name": "",
          "type": "address[]"
        }
      ],
      "stateMutability": "view",
      "type": "function"
    },
    {
      "inputs": [
        {
          "internalType": "address",
          "name": "auth",
          "type": "address"
        },
        {
          "internalType": "bool",
          "name": "error",
          "type": "bool"
        }
      ],
      "name": "onOrderCompleted",
      "outputs": [],
      "stateMutability": "nonpayable",
      "type": "function"
    },
    {
      "inputs": [
        {
          "internalType": "address",
          "name": "orderId",
          "type": "address"
        },
        {
          "internalType": "uint256",
          "name": "amount",
          "type": "uint256"
        }
      ],
      "name": "refillOrder",
      "outputs": [],
      "stateMutability": "nonpayable",
      "type": "function"
    },
    {
      "inputs": [
        {
          "internalType": "uint256",
          "name": "withdraw",
          "type": "uint256"
        }
      ],
      "name": "transferChange",
      "outputs": [],
      "stateMutability": "nonpayable",
      "type": "function"
    },
    {
      "inputs": [
        {
          "internalType": "uint256",
          "name": "profit",
          "type": "uint256"
        },
        {
          "internalType": "address",
          "name": "tokenReceiver",
          "type": "address"
        }
      ],
      "name": "transferProfit",
      "outputs": [],
      "stateMutability": "nonpayable",
      "type": "function"
    }
  ],
  "bytecode": "0x608060405234801561001057600080fd5b50604051620060173803806200601783398101604081905261003191610056565b600580546001600160a01b0319166001600160a01b0392909216919091179055610084565b600060208284031215610067578081fd5b81516001600160a01b038116811461007d578182fd5b9392505050565b615f8380620000946000396000f3fe60806040523480156200001157600080fd5b5060043610620000cc5760003560e01c8063666a7b83116200007f578063905d20451162000062578063905d204514620001c85780639a5f3a1f14620001df578063d80ef2df146200020b57600080fd5b8063666a7b83146200017f57806378a9eeed14620001af57600080fd5b80632812826711620000b45780632812826714620001165780635110df7314620001515780635f4550ba146200016857600080fd5b8062b734e114620000d157806322e8d36914620000fd575b600080fd5b620000e8620000e2366004620019f8565b62000222565b60405190151581526020015b60405180910390f35b620001146200010e36600462001baf565b620002df565b005b6200014262000127366004620019f8565b6001600160a01b031660009081526001602052604090205490565b604051908152602001620000f4565b620001146200016236600462001a36565b620003ea565b620001146200017936600462001b7d565b620005c6565b620001966200019036600462001b32565b62000774565b6040516001600160a01b039091168152602001620000f4565b620001b962000bf1565b604051620000f4919062001dec565b62000196620001d936600462001aa1565b62000c55565b62000142620001f0366004620019f8565b6001600160a01b031660009081526003602052604090205490565b620001146200021c36600462001a73565b62000dd5565b6000808290506000816001600160a01b0316636c07681f6040518163ffffffff1660e01b815260040160206040518083038186803b1580156200026457600080fd5b505afa15801562000279573d6000803e3d6000fd5b505050506040513d601f19601f820116820180604052508101906200029f919062001a17565b6001600160a01b038581166000908152602081905260409020549192508281169116148015620002d757506001600160a01b03811615155b949350505050565b81620002eb3362000222565b620003325760405162461bcd60e51b81526020600482015260126024820152711a9818171024b73b30b634b21037b93232b960711b60448201526064015b60405180910390fd5b33600090815260016020526040902054811115620003885760405162461bcd60e51b8152602060048201526012602482015271139bdd08195b9bdd59da0819195c1bdcda5d60721b604482015260640162000329565b600554620003bf9083908590620003aa906001600160a01b0316600162000fba565b6005546001600160a01b03169291906200104f565b3360009081526001602052604081208054859290620003e090849062001ec7565b9091555050505050565b33620003f68162000222565b620004445760405162461bcd60e51b815260206004820152600d60248201527f556e6b6e6f776e206f7264657200000000000000000000000000000000000000604482015260640162000329565b60008190506000816001600160a01b031663982308f56040518163ffffffff1660e01b815260040160206040518083038186803b1580156200048557600080fd5b505afa1580156200049a573d6000803e3d6000fd5b505050506040513d601f19601f82011682018060405250810190620004c0919062001a17565b90506001600160a01b03811615620005bf576001600160a01b038082166000818152600260209081526040808320948816835293815283822054928252600390529182208054919283926200051790849062001ec7565b90915550859050806200054057506001600160a01b038216600090815260036020526040902054155b15620005bd57816001600160a01b038116634ed1fe6e88886200056557600062000568565b60055b6040518363ffffffff1660e01b81526004016200058792919062001dcd565b600060405180830381600087803b158015620005a257600080fd5b505af1158015620005b7573d6000803e3d6000fd5b50505050505b505b5050505050565b80620005d23362000222565b620006155760405162461bcd60e51b81526020600482015260126024820152711a9818171024b73b30b634b21037b93232b960711b604482015260640162000329565b336000908152600160205260409020548111156200066b5760405162461bcd60e51b8152602060048201526012602482015271139bdd08195b9bdd59da0819195c1bdcda5d60721b604482015260640162000329565b336000908152600160205260408120546200068890849062001ec7565b600554909150620006a2906001600160a01b031662001225565b33600090815260208190526040908190205490517fa9059cbb0000000000000000000000000000000000000000000000000000000081526001600160a01b0391821660048201526024810184905291169063a9059cbb90604401602060405180830381600087803b1580156200071757600080fd5b505af11580156200072c573d6000803e3d6000fd5b505050506040513d601f19601f8201168201806040525081019062000752919062001b13565b503360009081526001602052604081208054839290620003e090849062001ec7565b81516040517ff12018c3000000000000000000000000000000000000000000000000000000008152336004820181905260009290916001600160a01b0382169063f12018c39060240160206040518083038186803b158015620007d657600080fd5b505afa158015620007eb573d6000803e3d6000fd5b505050506040513d601f19601f8201168201806040525081019062000811919062001b13565b6200085f5760405162461bcd60e51b815260206004820152600b60248201527f4e6f7420616c6c6f776564000000000000000000000000000000000000000000604482015260640162000329565b6040517f1f6bb8480000000000000000000000000000000000000000000000000000000081526001600160a01b03821690631f6bb84890620008a79060009060040162001e1e565b60206040518083038186803b158015620008c057600080fd5b505afa158015620008d5573d6000803e3d6000fd5b505050506040513d601f19601f82011682018060405250810190620008fb919062001b13565b156200094a5760405162461bcd60e51b815260206004820181905260248201527f4f6666657220646973616c6c6f77207374616e64616c6f6e65206f7264657273604482015260640162000329565b6000816001600160a01b031663bbb5d5f76040518163ffffffff1660e01b815260040160206040518083038186803b1580156200098657600080fd5b505afa1580156200099b573d6000803e3d6000fd5b505050506040513d601f19601f82011682018060405250810190620009c1919062001b96565b600554909150620009dd906001600160a01b0316600062000fba565b81101562000a0157600554620009fe906001600160a01b0316600062000fba565b90505b60055462000a18906001600160a01b031662001225565b604051636eb1769f60e11b81526001600160a01b038581166004830152306024830152919091169063dd62ed3e9060440160206040518083038186803b15801562000a6257600080fd5b505afa15801562000a77573d6000803e3d6000fd5b505050506040513d601f19601f8201168201806040525081019062000a9d919062001b96565b81111562000b135760405162461bcd60e51b8152602060048201526024808201527f416c6c6f77656420746f6b656e73206c657373207468616e20686f6c6444657060448201527f6f73697400000000000000000000000000000000000000000000000000000000606482015260840162000329565b60055462000b2a906001600160a01b031662001225565b6040516323b872dd60e01b81526001600160a01b0385811660048301523060248301526044820184905291909116906323b872dd90606401602060405180830381600087803b15801562000b7d57600080fd5b505af115801562000b92573d6000803e3d6000fd5b505050506040513d601f19601f8201168201806040525081019062000bb8919062001b13565b50600062000bcb84600089858a620012ba565b6001600160a01b0381166000908152600160205260409020929092555095945050505050565b6060600480548060200260200160405190810160405280929190818152602001828054801562000c4b57602002820191906000526020600020905b81546001600160a01b0316815260019091019060200180831162000c2c575b5050505050905090565b60008362000c633362000222565b62000ca65760405162461bcd60e51b81526020600482015260126024820152711a9818171024b73b30b634b21037b93232b960711b604482015260640162000329565b3360009081526001602052604090205481111562000cfc5760405162461bcd60e51b8152602060048201526012602482015271139bdd08195b9bdd59da0819195c1bdcda5d60721b604482015260640162000329565b3360008062000d0f8984898b85620012ba565b6001600160a01b038416600090815260016020526040812080549293508a9290919062000d3e90849062001ec7565b90915550506001600160a01b038116600090815260016020526040812080548a929062000d6d90849062001eac565b9091555050851562000dc9576001600160a01b03808416600081815260026020908152604080832094861683529381528382206001908190559282526003905291822080549192909162000dc390849062001eac565b90915550505b98975050505050505050565b600554339062000dee906001600160a01b031662001225565b604051636eb1769f60e11b81526001600160a01b038381166004830152306024830152919091169063dd62ed3e9060440160206040518083038186803b15801562000e3857600080fd5b505afa15801562000e4d573d6000803e3d6000fd5b505050506040513d601f19601f8201168201806040525081019062000e73919062001b96565b82111562000eea5760405162461bcd60e51b815260206004820152602660248201527f416c6c6f77656420746f6b656e73206c657373207468616e20726566696c6c2060448201527f616d6f756e740000000000000000000000000000000000000000000000000000606482015260840162000329565b60055462000f01906001600160a01b031662001225565b6040516323b872dd60e01b81526001600160a01b0383811660048301523060248301526044820185905291909116906323b872dd90606401602060405180830381600087803b15801562000f5457600080fd5b505af115801562000f69573d6000803e3d6000fd5b505050506040513d601f19601f8201168201806040525081019062000f8f919062001b13565b506001600160a01b03831660009081526001602052604081208054849290620003e090849062001eac565b600062000fc7836200165b565b6001600160a01b03166303a2216d836040518263ffffffff1660e01b815260040162000ff4919062001e35565b60206040518083038186803b1580156200100d57600080fd5b505afa15801562001022573d6000803e3d6000fd5b505050506040513d601f19601f8201168201806040525081019062001048919062001b96565b9392505050565b600062001065856001600160a01b031662001697565b90506200107b856001600160a01b031662001225565b6040517f095ea7b30000000000000000000000000000000000000000000000000000000081526001600160a01b03838116600483015260248201869052919091169063095ea7b390604401602060405180830381600087803b158015620010e157600080fd5b505af1158015620010f6573d6000803e3d6000fd5b505050506040513d601f19601f820116820180604052508101906200111c919062001b13565b506040517f2ee409080000000000000000000000000000000000000000000000000000000081526001600160a01b03858116600483015260248201859052821690632ee4090890604401600060405180830381600087803b1580156200118157600080fd5b505af115801562001196573d6000803e3d6000fd5b50506040517fe2ab691d0000000000000000000000000000000000000000000000000000000081526001600160a01b03878116600483015260248201879052604482018690528416925063e2ab691d9150606401600060405180830381600087803b1580156200120557600080fd5b505af11580156200121a573d6000803e3d6000fd5b505050505050505050565b600062001232826200165b565b6001600160a01b031663bcaa0c5560056040518263ffffffff1660e01b815260040162001260919062001e01565b60206040518083038186803b1580156200127957600080fd5b505afa1580156200128e573d6000803e3d6000fd5b505050506040513d601f19601f82011682018060405250810190620012b4919062001a17565b92915050565b600080846000015190506000816001600160a01b031663483d45bd6040518163ffffffff1660e01b815260040160206040518083038186803b1580156200130057600080fd5b505afa15801562001315573d6000803e3d6000fd5b505050506040513d601f19601f820116820180604052508101906200133b919062001a17565b6001600160a01b031663085710116040518163ffffffff1660e01b815260040160206040518083038186803b1580156200137457600080fd5b505afa15801562001389573d6000803e3d6000fd5b505050506040513d601f19601f82011682018060405250810190620013af919062001a17565b9050816001600160a01b0316636aa633b66040518163ffffffff1660e01b815260040160206040518083038186803b158015620013eb57600080fd5b505afa15801562001400573d6000803e3d6000fd5b505050506040513d601f19601f8201168201806040525081019062001426919062001b13565b8015620014dd575060055462001445906001600160a01b0316620016d2565b6040517f54e80afd0000000000000000000000000000000000000000000000000000000081526001600160a01b03838116600483015291909116906354e80afd9060240160206040518083038186803b158015620014a257600080fd5b505afa158015620014b7573d6000803e3d6000fd5b505050506040513d601f19601f82011682018060405250810190620014dd919062001b13565b6200152b5760405162461bcd60e51b815260206004820152601460248201527f4f66666572206d75737420626520616374697665000000000000000000000000604482015260640162000329565b6000600560009054906101000a90046001600160a01b0316898989898960405162001556906200170d565b620015679695949392919062001cc5565b604051809103906000f08015801562001584573d6000803e3d6000fd5b506001600160a01b038082166000818152602081905260408082208054948f167fffffffffffffffffffffffff00000000000000000000000000000000000000009586161790556004805460018101825592527f8a35acfbc15ff81a39ae7d344fd709f28e8600b4aa8c65c6b64bfe7fe36bd19b9091018054909316909117909155519091507fed94e6f8f334678b3265725f268ecd9032016d6050efeb9e673a561ffbfb0a7690620016479083906001600160a01b0391909116815260200190565b60405180910390a198975050505050505050565b6000816001600160a01b031663f1f0bd016040518163ffffffff1660e01b815260040160206040518083038186803b1580156200127957600080fd5b6000620016a4826200165b565b6001600160a01b031663bcaa0c5560026040518263ffffffff1660e01b815260040162001260919062001e01565b6000620016df826200165b565b6001600160a01b031663bcaa0c5560016040518263ffffffff1660e01b815260040162001260919062001e01565b6140028062001f4c83390190565b8035620017288162001f23565b919050565b600082601f8301126200173e578081fd5b8135602067ffffffffffffffff8211156200175d576200175d62001f0d565b8160051b6200176e82820162001e78565b83815282810190868401838801850189101562001789578687fd5b8693505b85841015620017b8578035620017a38162001f23565b8352600193909301929184019184016200178d565b50979650505050505050565b8035600981106200172857600080fd5b600082601f830112620017e5578081fd5b813567ffffffffffffffff81111562001802576200180262001f0d565b62001817601f8201601f191660200162001e78565b8181528460208386010111156200182c578283fd5b816020850160208301379081016020019190915292915050565b60006060828403121562001858578081fd5b6040516060810167ffffffffffffffff82821081831117156200187f576200187f62001f0d565b816040528293508435835260208501359150808211156200189f57600080fd5b620018ad868387016200172d565b60208401526040850135915080821115620018c757600080fd5b50620018d6858286016200172d565b6040830152505092915050565b600060e08284031215620018f5578081fd5b620018ff62001e4c565b90506200190c826200171b565b8152602082013567ffffffffffffffff808211156200192a57600080fd5b6200193885838601620017d4565b602084015260408401359150808211156200195257600080fd5b6200196085838601620017d4565b604084015260608401359150808211156200197a57600080fd5b6200198885838601620017d4565b60608401526080840135915080821115620019a257600080fd5b620019b085838601620017d4565b6080840152620019c360a08501620017c4565b60a084015260c0840135915080821115620019dd57600080fd5b50620019ec8482850162001846565b60c08301525092915050565b60006020828403121562001a0a578081fd5b8135620010488162001f23565b60006020828403121562001a29578081fd5b8151620010488162001f23565b6000806040838503121562001a49578081fd5b823562001a568162001f23565b9150602083013562001a688162001f3c565b809150509250929050565b6000806040838503121562001a86578182fd5b823562001a938162001f23565b946020939093013593505050565b6000806000806080858703121562001ab7578182fd5b843562001ac48162001f23565b935060208501359250604085013567ffffffffffffffff81111562001ae7578283fd5b62001af587828801620018e3565b925050606085013562001b088162001f3c565b939692955090935050565b60006020828403121562001b25578081fd5b8151620010488162001f3c565b6000806040838503121562001b45578182fd5b823567ffffffffffffffff81111562001b5c578283fd5b62001b6a85828601620018e3565b925050602083013562001a688162001f3c565b60006020828403121562001b8f578081fd5b5035919050565b60006020828403121562001ba8578081fd5b5051919050565b6000806040838503121562001bc2578182fd5b82359150602083013562001a688162001f23565b6000815180845260208085019450808401835b8381101562001c105781516001600160a01b03168752958201959082019060010162001be9565b509495945050505050565b6009811062001c2e5762001c2e62001ef7565b9052565b60008151808452815b8181101562001c595760208185018101518683018201520162001c3b565b8181111562001c6b5782602083870101525b50601f01601f19169290920160200192915050565b80518252600060208201516060602085015262001ca1606085018262001bd6565b90506040830151848203604086015262001cbc828262001bd6565b95945050505050565b60006001600160a01b0380891683528088166020840152808716604084015260c060608401528086511660c084015250602085015160e08084015262001d106101a084018262001c32565b9050604086015160bf19808584030161010086015262001d31838362001c32565b925060608801519150808584030161012086015262001d51838362001c32565b925060808801519150808584030161014086015262001d71838362001c32565b925060a0880151915062001d8a61016086018362001c1b565b60c0880151915080858403016101808601525062001da9828262001c80565b9250505083608083015262001dc260a083018415159052565b979650505050505050565b6001600160a01b03831681526040810162001048602083018462001c1b565b60208152600062001048602083018462001bd6565b60208101600c831062001e185762001e1862001ef7565b91905290565b602081016004831062001e185762001e1862001ef7565b602081016011831062001e185762001e1862001ef7565b60405160e0810167ffffffffffffffff8111828210171562001e725762001e7262001f0d565b60405290565b604051601f8201601f1916810167ffffffffffffffff8111828210171562001ea45762001ea462001f0d565b604052919050565b6000821982111562001ec25762001ec262001ee1565b500190565b60008282101562001edc5762001edc62001ee1565b500390565b634e487b7160e01b600052601160045260246000fd5b634e487b7160e01b600052602160045260246000fd5b634e487b7160e01b600052604160045260246000fd5b6001600160a01b038116811462001f3957600080fd5b50565b801515811462001f3957600080fdfe60806040526015805461ffff60a01b191690553480156200001f57600080fd5b506040516200400238038062004002833981016040819052620000429162000739565b601580546001600160a01b038089166001600160a01b03199283161790925560018054888416908316179055845160048054919093169116178155602080850151805186939262000099926005929101906200043c565b5060408201518051620000b79160028401916020909101906200043c565b5060608201518051620000d59160038401916020909101906200043c565b5060808201518051620000f39160048401916020909101906200043c565b5060a082015160058201805460ff191660018360088111156200012657634e487b7160e01b600052602160045260246000fd5b021790555060c08201518051600683019081556020808301518051620001539260078701920190620004cb565b506040820151805162000171916002840191602090910190620004cb565b50505090505062000192856011620003fd60201b620028ed1790919060201c565b82600001516001600160a01b031663af5372e66040518163ffffffff1660e01b815260040160206040518083038186803b158015620001d057600080fd5b505afa158015620001e5573d6000803e3d6000fd5b505050506040513d601f19601f820116820180604052508101906200020b9190620008bd565b6010805460ff191660018360038111156200023657634e487b7160e01b600052602160045260246000fd5b0217905550600080546001600160a01b0319166001600160a01b038616179055600f82905580620002695760006200026c565b60075b6009805460ff191660018360088111156200029757634e487b7160e01b600052602160045260246000fd5b0217905550600b5415620003f15760005b600b54811015620003ef57600b80546000919083908110620002da57634e487b7160e01b600052603260045260246000fd5b9060005260206000200160009054906101000a90046001600160a01b03169050600160176000836001600160a01b031663af5372e66040518163ffffffff1660e01b815260040160206040518083038186803b1580156200033a57600080fd5b505afa1580156200034f573d6000803e3d6000fd5b505050506040513d601f19601f82011682018060405250810190620003759190620008bd565b60038111156200039557634e487b7160e01b600052602160045260246000fd5b6003811115620003b557634e487b7160e01b600052602160045260246000fd5b81526020019081526020016000206000828254620003d4919062000943565b90915550620003e791508290506200099b565b9050620002a8565b505b505050505050620009e5565b428083556001830180546001600160a01b039093166001600160a01b031993841681179091556002840191909155600390920180549091169091179055565b8280546200044a906200095e565b90600052602060002090601f0160209004810192826200046e5760008555620004b9565b82601f106200048957805160ff1916838001178555620004b9565b82800160010185558215620004b9579182015b82811115620004b95782518255916020019190600101906200049c565b50620004c792915062000523565b5090565b828054828255906000526020600020908101928215620004b9579160200282015b82811115620004b957825182546001600160a01b0319166001600160a01b03909116178255602090920191600190910190620004ec565b5b80821115620004c7576000815560010162000524565b80516001600160a01b03811681146200055257600080fd5b919050565b600082601f83011262000568578081fd5b815160206001600160401b03821115620005865762000586620009cf565b8160051b6200059782820162000910565b838152828101908684018388018501891015620005b2578687fd5b8693505b85841015620005df57620005ca816200053a565b835260019390930192918401918401620005b6565b50979650505050505050565b805180151581146200055257600080fd5b8051600981106200055257600080fd5b600082601f8301126200061d578081fd5b81516001600160401b03811115620006395762000639620009cf565b60206200064f601f8301601f1916820162000910565b828152858284870101111562000663578384fd5b835b838110156200068257858101830151828201840152820162000665565b838111156200069357848385840101525b5095945050505050565b600060608284031215620006af578081fd5b604051606081016001600160401b038082118383101715620006d557620006d5620009cf565b81604052829350845183526020850151915080821115620006f557600080fd5b620007038683870162000557565b602084015260408501519150808211156200071d57600080fd5b506200072c8582860162000557565b6040830152505092915050565b60008060008060008060c0878903121562000752578182fd5b6200075d876200053a565b95506200076d602088016200053a565b94506200077d604088016200053a565b60608801519094506001600160401b03808211156200079a578384fd5b9088019060e0828b031215620007ae578384fd5b620007b8620008e5565b620007c3836200053a565b8152602083015182811115620007d7578586fd5b620007e58c8286016200060c565b602083015250604083015182811115620007fd578586fd5b6200080b8c8286016200060c565b60408301525060608301518281111562000823578586fd5b620008318c8286016200060c565b60608301525060808301518281111562000849578586fd5b620008578c8286016200060c565b6080830152506200086b60a08401620005fc565b60a082015260c08301518281111562000882578586fd5b620008908c8286016200069d565b60c08301525080955050505060808701519150620008b160a08801620005eb565b90509295509295509295565b600060208284031215620008cf578081fd5b815160048110620008de578182fd5b9392505050565b60405160e081016001600160401b03811182821017156200090a576200090a620009cf565b60405290565b604051601f8201601f191681016001600160401b03811182821017156200093b576200093b620009cf565b604052919050565b60008219821115620009595762000959620009b9565b500190565b600181811c908216806200097357607f821691505b602082108114156200099557634e487b7160e01b600052602260045260246000fd5b50919050565b6000600019821415620009b257620009b2620009b9565b5060010190565b634e487b7160e01b600052601160045260246000fd5b634e487b7160e01b600052604160045260246000fd5b61360d80620009f56000396000f3fe608060405234801561001057600080fd5b506004361061016c5760003560e01c8063b1be5929116100cd578063c214d37a11610081578063c3c61f9111610066578063c3c61f9114610334578063cef8f6d414610345578063fa391c641461035a57600080fd5b8063c214d37a1461030f578063c28bd4ef1461032257600080fd5b8063b737e98e116100b2578063b737e98e14610250578063b7ff5dae146102f4578063be9a65551461030757600080fd5b8063b1be592914610233578063b2375e8d1461023b57600080fd5b80636c07681f11610124578063982308f511610109578063982308f5146102085780639836515014610219578063af91ec601461022157600080fd5b80636c07681f146101ef578063959499b61461020057600080fd5b806330979eba1161015557806330979eba146101ba5780634ed1fe6e146101d25780636a816548146101e757600080fd5b806301efb6c814610171578063291197211461018f575b600080fd5b610179610362565b6040516101869190613447565b60405180910390f35b6101a261019d3660046130ca565b610705565b6040516001600160a01b039091168152602001610186565b6101c26115a4565b6040519015158152602001610186565b6101e56101e0366004612fc1565b611605565b005b6101e561175e565b6001546001600160a01b03166101a2565b6101e561198d565b6000546001600160a01b03166101a2565b6101e5611c67565b601554600160a81b900460ff166101c2565b6101e5611e6e565b610243611f48565b604051610186919061345a565b6102b2604080516080810182526000808252602082018190529181018290526060810191909152506040805160808101825260115481526012546001600160a01b03908116602083015260135492820192909252601454909116606082015290565b6040516101869190815181526020808301516001600160a01b039081169183019190915260408084015190830152606092830151169181019190915260800190565b6101e56103023660046130a1565b6120ac565b6101e5612270565b6101e561031d366004613030565b61244e565b601554600160a01b900460ff166101c2565b600f54604051908152602001610186565b61034d6127ff565b60405161018691906133cc565b6101c2612861565b61036a612ccb565b6040805160e08101909152600480546001600160a01b03168252600580546020840191906103979061351c565b80601f01602080910402602001604051908101604052809291908181526020018280546103c39061351c565b80156104105780601f106103e557610100808354040283529160200191610410565b820191906000526020600020905b8154815290600101906020018083116103f357829003601f168201915b505050505081526020016002820180546104299061351c565b80601f01602080910402602001604051908101604052809291908181526020018280546104559061351c565b80156104a25780601f10610477576101008083540402835291602001916104a2565b820191906000526020600020905b81548152906001019060200180831161048557829003601f168201915b505050505081526020016003820180546104bb9061351c565b80601f01602080910402602001604051908101604052809291908181526020018280546104e79061351c565b80156105345780601f1061050957610100808354040283529160200191610534565b820191906000526020600020905b81548152906001019060200180831161051757829003601f168201915b5050505050815260200160048201805461054d9061351c565b80601f01602080910402602001604051908101604052809291908181526020018280546105799061351c565b80156105c65780601f1061059b576101008083540402835291602001916105c6565b820191906000526020600020905b8154815290600101906020018083116105a957829003601f168201915b5050509183525050600582015460209091019060ff1660088111156105fb57634e487b7160e01b600052602160045260246000fd5b600881111561061a57634e487b7160e01b600052602160045260246000fd5b815260200160068201604051806060016040529081600082015481526020016001820180548060200260200160405190810160405280929190818152602001828054801561069157602002820191906000526020600020905b81546001600160a01b03168152600190910190602001808311610673575b50505050508152602001600282018054806020026020016040519081016040528092919081815260200182805480156106f357602002820191906000526020600020905b81546001600160a01b031681526001909101906020018083116106d5575b50505050508152505081525050905090565b60048054604080517f2acdf0fa00000000000000000000000000000000000000000000000000000000815290516000936001600160a01b039093169284928492632acdf0fa92828101926020929190829003018186803b15801561076857600080fd5b505afa15801561077c573d6000803e3d6000fd5b505050506040513d601f19601f820116820180604052508101906107a09190613011565b905060028160028111156107c457634e487b7160e01b600052602160045260246000fd5b141561083d5760405162461bcd60e51b815260206004820152602b60248201527f5375626f726465727320666f7220276f7574707574272067726f75702069732060448201527f6e6f7420616c6c6f77656400000000000000000000000000000000000000000060648201526084015b60405180910390fd5b42601355601480546001600160a01b03191633179055600061085d6115a4565b9050600061086961292c565b90508180156108805750336001600160a01b038216145b8061089e57508115801561089e57506001546001600160a01b031633145b6108ea5760405162461bcd60e51b815260206004820152600d60248201527f4163636573732064656e696564000000000000000000000000000000000000006044820152606401610834565b6000876000015190506000816001600160a01b0316632acdf0fa6040518163ffffffff1660e01b815260040160206040518083038186803b15801561092e57600080fd5b505afa158015610942573d6000803e3d6000fd5b505050506040513d601f19601f820116820180604052508101906109669190613011565b6040517ff12018c30000000000000000000000000000000000000000000000000000000081523360048201529091506001600160a01b0383169063f12018c39060240160206040518083038186803b1580156109c157600080fd5b505afa1580156109d5573d6000803e3d6000fd5b505050506040513d601f19601f820116820180604052508101906109f99190612ff5565b610a455760405162461bcd60e51b815260206004820152600b60248201527f4e6f7420616c6c6f7765640000000000000000000000000000000000000000006044820152606401610834565b600160166000836002811115610a6b57634e487b7160e01b600052602160045260246000fd5b6002811115610a8a57634e487b7160e01b600052602160045260246000fd5b81526020019081526020016000206000828254610aa79190613504565b9091555060019050856002811115610acf57634e487b7160e01b600052602160045260246000fd5b141580610b085750600260005260166020527fcaff291fe014adc6b72a172705750b4cabe8f8667664d2924a166caab288564854600110155b610b5e5760405162461bcd60e51b815260206004820152602160248201527f4f7574707574207375626f7264657220616c726561647920616c6c6f636174656044820152601960fa1b6064820152608401610834565b6000856002811115610b8057634e487b7160e01b600052602160045260246000fd5b141580610bb95750600260005260166020527fcaff291fe014adc6b72a172705750b4cabe8f8667664d2924a166caab288564854600110155b610c0f5760405162461bcd60e51b815260206004820152602160248201527f4f7574707574207375626f7264657220616c726561647920616c6c6f636174656044820152601960fa1b6064820152608401610834565b6002816002811115610c3157634e487b7160e01b600052602160045260246000fd5b148015610c3f5750600c5415155b15610d2e576000805b600c54811015610cb657600c80546000919083908110610c7857634e487b7160e01b600052603260045260246000fd5b6000918252602090912001548c516001600160a01b03918216925016811415610ca5576001925050610cb6565b50610caf81613557565b9050610c48565b5080610d2c576040805162461bcd60e51b81526020600482015260248101919091527f4f6666657220646f6573206e6f74207361746973667920706172656e74206f7260448201527f6465722073656c65637465644f66666572732073706563696669636174696f6e6064820152608401610834565b505b6000816002811115610d5057634e487b7160e01b600052602160045260246000fd5b1415610f27576000805b600b54811015610eb157600b80546000919083908110610d8a57634e487b7160e01b600052603260045260246000fd5b60009182526020909120015460405163f55ba0d360e01b81526001600160a01b039182166004820181905292509086169063f55ba0d39060240160206040518083038186803b158015610ddc57600080fd5b505afa158015610df0573d6000803e3d6000fd5b505050506040513d601f19601f82011682018060405250810190610e149190612ff5565b610e865760405162461bcd60e51b815260206004820152603c60248201527f4f66666572207265737472696374696f6e7320636f6e666c696374732077697460448201527f6820706172656e74206f726465722073706563696669636174696f6e000000006064820152608401610834565b8b516001600160a01b0382811691161415610ea057600192505b50610eaa81613557565b9050610d5a565b5080610f255760405162461bcd60e51b815260206004820152603d60248201527f4f6666657220646f6573206e6f74207361746973667920706172656e74206f7260448201527f64657220696e7075744f66666572732073706563696669636174696f6e0000006064820152608401610834565b505b6040516303ed770960e31b81526001600160a01b03831690631f6bb84890610f5490600290600401613433565b60206040518083038186803b158015610f6c57600080fd5b505afa158015610f80573d6000803e3d6000fd5b505050506040513d601f19601f82011682018060405250810190610fa49190612ff5565b1561105157600260005260176020527fc52df653038b2ad477d8d97f1ddd63cfd138847b628ad8a7b89c109c3f8782ca546110515760405162461bcd60e51b815260206004820152604160248201527f506172656e74206f726465722073706563696669636174696f6e20646f65732060448201527f6e6f742073617469736679207375626f66666572207265737472696374696f6e6064820152607360f81b608482015260a401610834565b6040516303ed770960e31b81526001600160a01b03831690631f6bb8489061107e90600390600401613433565b60206040518083038186803b15801561109657600080fd5b505afa1580156110aa573d6000803e3d6000fd5b505050506040513d601f19601f820116820180604052508101906110ce9190612ff5565b1561117b57600360005260176020527fd8b2bced50346359af71f91110b86cdf684b6ab1c6ca64a7583c044d5c24de5c5461117b5760405162461bcd60e51b815260206004820152604160248201527f506172656e74206f726465722073706563696669636174696f6e20646f65732060448201527f6e6f742073617469736679207375626f66666572207265737472696374696f6e6064820152607360f81b608482015260a401610834565b6040516303ed770960e31b81526001600160a01b03831690631f6bb848906111a890600190600401613433565b60206040518083038186803b1580156111c057600080fd5b505afa1580156111d4573d6000803e3d6000fd5b505050506040513d601f19601f820116820180604052508101906111f89190612ff5565b156112a557600160005260176020527ff36d6bc9642eb6fb6ee9998b09ce990566df752ab06e11f8de7ab633bbd57b8f546112a55760405162461bcd60e51b815260206004820152604160248201527f506172656e74206f726465722073706563696669636174696f6e20646f65732060448201527f6e6f742073617469736679207375626f66666572207265737472696374696f6e6064820152607360f81b608482015260a401610834565b6040516303ed770960e31b81526001600160a01b03831690631f6bb848906112d290600090600401613433565b60206040518083038186803b1580156112ea57600080fd5b505afa1580156112fe573d6000803e3d6000fd5b505050506040513d601f19601f820116820180604052508101906113229190612ff5565b156113ec5760405163f55ba0d360e01b81526001600160a01b03878116600483015283169063f55ba0d39060240160206040518083038186803b15801561136857600080fd5b505afa15801561137c573d6000803e3d6000fd5b505050506040513d601f19601f820116820180604052508101906113a09190612ff5565b6113ec5760405162461bcd60e51b815260206004820152601f60248201527f4f6666657220646973616c6c6f7720706172656e7420544545206f66666572006044820152606401610834565b6000826001600160a01b031663bbb5d5f76040518163ffffffff1660e01b815260040160206040518083038186803b15801561142757600080fd5b505afa15801561143b573d6000803e3d6000fd5b505050506040513d601f19601f8201168201806040525081019061145f91906131ea565b60155490915060009061147a906001600160a01b0316612a1a565b6001600160a01b031663905d2045600160009054906101000a90046001600160a01b0316848e8e6040518563ffffffff1660e01b81526004016114c09493929190613391565b602060405180830381600087803b1580156114da57600080fd5b505af11580156114ee573d6000803e3d6000fd5b505050506040513d601f19601f820116820180604052508101906115129190612f9e565b600380546001810182556000919091527fc2575a0e9e593c00f959f8c92f12db2869c3395a3b0502d05e2516446f71f85b0180546001600160a01b0319166001600160a01b0383169081179091556040519081529091507fd4a8311d4a2937c45f6564edb791f76d0a6d74db0902f4a6fb46cbee04166a639060200160405180910390a19a9950505050505050505050565b6000600760095460ff1660088111156115cd57634e487b7160e01b600052602160045260246000fd5b141580156116005750600660095460ff1660088111156115fd57634e487b7160e01b600052602160045260246000fd5b14155b905090565b60155461161a906001600160a01b0316612a1a565b6001600160a01b0316336001600160a01b03161461167a5760405162461bcd60e51b815260206004820152601260248201527f4f6e6c79206f7264657220666163746f727900000000000000000000000000006044820152606401610834565b42601355601480546001600160a01b0319166001600160a01b038416179055600060058260088111156116bd57634e487b7160e01b600052602160045260246000fd5b1490506000600660095460ff1660088111156116e957634e487b7160e01b600052602160045260246000fd5b1480156117155750600083600881111561171357634e487b7160e01b600052602160045260246000fd5b145b905081806117205750805b15611758576009805484919060ff1916600183600881111561175257634e487b7160e01b600052602160045260246000fd5b02179055505b50505050565b6001546001600160a01b031633146117b85760405162461bcd60e51b815260206004820152601b60248201527f417661696c61626c65206f6e6c7920666f7220636f6e73756d657200000000006044820152606401610834565b6117c0612861565b156118175760405162461bcd60e51b815260206004820152602160248201527f436f6d706c65746564206f726465722063616e27742062652063616e63656c656044820152601960fa1b6064820152608401610834565b60048054604080517f1bffb49100000000000000000000000000000000000000000000000000000000815290516001600160a01b03909216928392631bffb491928083019260209291829003018186803b15801561187457600080fd5b505afa158015611888573d6000803e3d6000fd5b505050506040513d601f19601f820116820180604052508101906118ac9190612ff5565b1580156118ba575060025415155b156118cc576118c96002612aa7565b50565b6118d66003612aa7565b6002546118e557506000600f55565b600254600f546040517f8383da750000000000000000000000000000000000000000000000000000000081526001600160a01b03841692638383da759261193792600401918252602082015260400190565b60206040518083038186803b15801561194f57600080fd5b505afa158015611963573d6000803e3d6000fd5b505050506040513d601f19601f8201168201806040525081019061198791906131ea565b600f5550565b600480546040805163483d45bd60e01b815290516000936001600160a01b039093169263483d45bd92808201926020929091829003018186803b1580156119d357600080fd5b505afa1580156119e7573d6000803e3d6000fd5b505050506040513d601f19601f82011682018060405250810190611a0b9190612f9e565b6001600160a01b0316636d69a3e86040518163ffffffff1660e01b815260040160206040518083038186803b158015611a4357600080fd5b505afa158015611a57573d6000803e3d6000fd5b505050506040513d601f19601f82011682018060405250810190611a7b9190612f9e565b600f54909150611a89612861565b611ae65760405162461bcd60e51b815260206004820152602860248201527f57697468647261776e20617661696c61626c65207768656e206f7264657220636044820152671bdb5c1b195d195960c21b6064820152608401610834565b336001600160a01b03831614611b645760405162461bcd60e51b815260206004820152603160248201527f417661696c61626c65206f6e6c7920666f722070726f766964657220746f6b6560448201527f6e2072656369766572206163636f756e740000000000000000000000000000006064820152608401610834565b601554600160a81b900460ff1615611bbe5760405162461bcd60e51b815260206004820152601860248201527f50726f66697420616c72656164792077697468647261776e00000000000000006044820152606401610834565b601554611bd3906001600160a01b0316612a1a565b6040517f22e8d369000000000000000000000000000000000000000000000000000000008152600481018390526001600160a01b03848116602483015291909116906322e8d36990604401600060405180830381600087803b158015611c3857600080fd5b505af1158015611c4c573d6000803e3d6000fd5b50506015805460ff60a81b1916600160a81b17905550505050565b601554600160a01b900460ff1615611cc15760405162461bcd60e51b815260206004820152601860248201527f4368616e676520616c72656164792077697468647261776e00000000000000006044820152606401610834565b6001546001600160a01b03163314611d415760405162461bcd60e51b815260206004820152602160248201527f417661696c61626c65206f6e6c7920666f72204f7264657220636f6e73756d6560448201527f72000000000000000000000000000000000000000000000000000000000000006064820152608401610834565b611d49612861565b611da65760405162461bcd60e51b815260206004820152602860248201527f57697468647261776e20617661696c61626c65207768656e206f7264657220636044820152671bdb5c1b195d195960c21b6064820152608401610834565b601554600090600160a81b900460ff1615611dc2576000611dc6565b600f545b601554909150611dde906001600160a01b0316612a1a565b6001600160a01b0316635f4550ba826040518263ffffffff1660e01b8152600401611e0b91815260200190565b600060405180830381600087803b158015611e2557600080fd5b505af1158015611e39573d6000803e3d6000fd5b5050601580547fffffffffffffffffffffff00ffffffffffffffffffffffffffffffffffffffff16600160a01b179055505050565b6000611e7861292c565b9050336001600160a01b03821614611ee45760405162461bcd60e51b815260206004820152602960248201527f417661696c61626c65206f6e6c7920666f722070726f766964657220616374696044820152681bdb9058d8dbdd5b9d60ba1b6064820152608401610834565b611eec6115a4565b611f385760405162461bcd60e51b815260206004820152601960248201527f4f72646572206861736e2774206265656e2073746172746564000000000000006044820152606401610834565b6118c96001600d600201546120ac565b611f6c60405180606001604052806060815260200160608152602001600081525090565b600d604051806060016040529081600082018054611f899061351c565b80601f0160208091040260200160405190810160405280929190818152602001828054611fb59061351c565b80156120025780601f10611fd757610100808354040283529160200191612002565b820191906000526020600020905b815481529060010190602001808311611fe557829003601f168201915b5050505050815260200160018201805461201b9061351c565b80601f01602080910402602001604051908101604052809291908181526020018280546120479061351c565b80156120945780601f1061206957610100808354040283529160200191612094565b820191906000526020600020905b81548152906001019060200180831161207757829003601f168201915b50505050508152602001600282015481525050905090565b60006120b661292c565b9050336001600160a01b038216146121225760405162461bcd60e51b815260206004820152602960248201527f417661696c61626c65206f6e6c7920666f722070726f766964657220616374696044820152681bdb9058d8dbdd5b9d60ba1b6064820152608401610834565b61212a6115a4565b6121765760405162461bcd60e51b815260206004820152601960248201527f4f72646572206861736e2774206265656e2073746172746564000000000000006044820152606401610834565b61217e612861565b156121cb5760405162461bcd60e51b815260206004820181905260248201527f436f6d706c65746564206f726465722063616e277420626520757064617465646044820152606401610834565b6009546121db9060ff1684612b2b565b6122275760405162461bcd60e51b815260206004820152600d60248201527f496e7661696420737461747573000000000000000000000000000000000000006044820152606401610834565b61223083612aa7565b60025415801561225f5750600183600881111561225d57634e487b7160e01b600052602160045260246000fd5b145b1561226957426002555b50600f5550565b6001546001600160a01b031633146122ca5760405162461bcd60e51b815260206004820152601b60248201527f417661696c61626c65206f6e6c7920666f7220636f6e73756d657200000000006044820152606401610834565b600760095460ff1660088111156122f157634e487b7160e01b600052602160045260246000fd5b1461233e5760405162461bcd60e51b815260206004820152601760248201527f4f72646572206d7573742062652073757370656e6465640000000000000000006044820152606401610834565b42601355601480546001600160a01b0319163317905560155460009061236c906001600160a01b0316612a1a565b6040517f9a5f3a1f0000000000000000000000000000000000000000000000000000000081523060048201526001600160a01b039190911690639a5f3a1f9060240160206040518083038186803b1580156123c657600080fd5b505afa1580156123da573d6000803e3d6000fd5b505050506040513d601f19601f820116820180604052508101906123fe91906131ea565b905060008111612419576009805460ff19169055600061241c565b60065b6009805460ff1916600183600881111561244657634e487b7160e01b600052602160045260246000fd5b021790555050565b600061245861292c565b9050336001600160a01b038216146124c45760405162461bcd60e51b815260206004820152602960248201527f417661696c61626c65206f6e6c7920666f722070726f766964657220616374696044820152681bdb9058d8dbdd5b9d60ba1b6064820152608401610834565b6124cc6115a4565b6125185760405162461bcd60e51b815260206004820152601960248201527f4f72646572206861736e2774206265656e2073746172746564000000000000006044820152606401610834565b612520612861565b1561256d5760405162461bcd60e51b815260206004820152601160248201527f416c726561647920636f6d706c657465640000000000000000000000000000006044820152606401610834565b600584600881111561258f57634e487b7160e01b600052602160045260246000fd5b14806125ba575060048460088111156125b857634e487b7160e01b600052602160045260246000fd5b145b61262c5760405162461bcd60e51b815260206004820152602b60248201527f43616e20636f6d706c657465206f6e6c7920776974682073746174757320457260448201527f726f72206f7220446f6e650000000000000000000000000000000000000000006064820152608401610834565b600160095460ff16600881111561265357634e487b7160e01b600052602160045260246000fd5b14806126835750600860095460ff16600881111561268157634e487b7160e01b600052602160045260246000fd5b145b6126cf5760405162461bcd60e51b815260206004820181905260248201527f43616e277420636f6d706c657465206265666f72652070726f63657373696e676044820152606401610834565b82516126e290600d906020860190612d51565b5081516126f690600e906020850190612d51565b50600584600881111561271957634e487b7160e01b600052602160045260246000fd5b1415612733576015805460ff60a81b1916600160a81b1790555b61273c84612aa7565b601554612751906001600160a01b0316612a1a565b6001600160a01b0316635110df7333600587600881111561278257634e487b7160e01b600052602160045260246000fd5b6040517fffffffff0000000000000000000000000000000000000000000000000000000060e086901b1681526001600160a01b039093166004840152146024820152604401600060405180830381600087803b1580156127e157600080fd5b505af11580156127f5573d6000803e3d6000fd5b5050505050505050565b6060600380548060200260200160405190810160405280929190818152602001828054801561285757602002820191906000526020600020905b81546001600160a01b03168152600190910190602001808311612839575b5050505050905090565b6000600460095460ff16600881111561288a57634e487b7160e01b600052602160045260246000fd5b14806128ba5750600560095460ff1660088111156128b857634e487b7160e01b600052602160045260246000fd5b145b806116005750600360095460ff1660088111156128e757634e487b7160e01b600052602160045260246000fd5b14905090565b428083556001830180546001600160a01b039093166001600160a01b031993841681179091556002840191909155600390920180549091169091179055565b600480546040805163483d45bd60e01b815290516000936001600160a01b039093169263483d45bd92808201926020929091829003018186803b15801561297257600080fd5b505afa158015612986573d6000803e3d6000fd5b505050506040513d601f19601f820116820180604052508101906129aa9190612f9e565b6001600160a01b0316636760c4b76040518163ffffffff1660e01b815260040160206040518083038186803b1580156129e257600080fd5b505afa1580156129f6573d6000803e3d6000fd5b505050506040513d601f19601f820116820180604052508101906116009190612f9e565b6000612a2582612c90565b6001600160a01b031663bcaa0c5560006040518263ffffffff1660e01b8152600401612a519190613419565b60206040518083038186803b158015612a6957600080fd5b505afa158015612a7d573d6000803e3d6000fd5b505050506040513d601f19601f82011682018060405250810190612aa19190612f9e565b92915050565b42601355601480546001600160a01b031916331790556009805482919060ff19166001836008811115612aea57634e487b7160e01b600052602160045260246000fd5b02179055507fdeec0b1e3a1ffaeb49a9045c07756b2e16cd738314db2d7ec9317e56809732bb3082604051612b20929190613374565b60405180910390a150565b6000806002846008811115612b5057634e487b7160e01b600052602160045260246000fd5b148015612b7c57506003836008811115612b7a57634e487b7160e01b600052602160045260246000fd5b145b9050600080856008811115612ba157634e487b7160e01b600052602160045260246000fd5b1480612bcc57506001856008811115612bca57634e487b7160e01b600052602160045260246000fd5b145b80612bf657506008856008811115612bf457634e487b7160e01b600052602160045260246000fd5b145b8015612c2157506001846008811115612c1f57634e487b7160e01b600052602160045260246000fd5b145b905060006001866008811115612c4757634e487b7160e01b600052602160045260246000fd5b148015612c7357506008856008811115612c7157634e487b7160e01b600052602160045260246000fd5b145b90508280612c7e5750815b80612c865750805b9695505050505050565b6000816001600160a01b031663f1f0bd016040518163ffffffff1660e01b815260040160206040518083038186803b158015612a6957600080fd5b6040518060e0016040528060006001600160a01b031681526020016060815260200160608152602001606081526020016060815260200160006008811115612d2357634e487b7160e01b600052602160045260246000fd5b8152602001612d4c60405180606001604052806000815260200160608152602001606081525090565b905290565b828054612d5d9061351c565b90600052602060002090601f016020900481019282612d7f5760008555612dc5565b82601f10612d9857805160ff1916838001178555612dc5565b82800160010185558215612dc5579182015b82811115612dc5578251825591602001919060010190612daa565b50612dd1929150612dd5565b5090565b5b80821115612dd15760008155600101612dd6565b8035612df5816135b4565b919050565b600082601f830112612e0a578081fd5b8135602067ffffffffffffffff821115612e2657612e2661359e565b8160051b612e358282016134d3565b838152828101908684018388018501891015612e4f578687fd5b8693505b85841015612e7a578035612e66816135b4565b835260019390930192918401918401612e53565b50979650505050505050565b8035612df5816135c9565b803560098110612df557600080fd5b600082601f830112612eb0578081fd5b813567ffffffffffffffff811115612eca57612eca61359e565b612edd601f8201601f19166020016134d3565b818152846020838601011115612ef1578283fd5b816020850160208301379081016020019190915292915050565b600060608284031215612f1c578081fd5b6040516060810167ffffffffffffffff8282108183111715612f4057612f4061359e565b81604052829350843583526020850135915080821115612f5f57600080fd5b612f6b86838701612dfa565b60208401526040850135915080821115612f8457600080fd5b50612f9185828601612dfa565b6040830152505092915050565b600060208284031215612faf578081fd5b8151612fba816135b4565b9392505050565b60008060408385031215612fd3578081fd5b8235612fde816135b4565b9150612fec60208401612e91565b90509250929050565b600060208284031215613006578081fd5b8151612fba816135c9565b600060208284031215613022578081fd5b815160038110612fba578182fd5b600080600060608486031215613044578081fd5b61304d84612e91565b9250602084013567ffffffffffffffff80821115613069578283fd5b61307587838801612ea0565b9350604086013591508082111561308a578283fd5b5061309786828701612ea0565b9150509250925092565b600080604083850312156130b3578182fd5b6130bc83612e91565b946020939093013593505050565b600080604083850312156130dc578182fd5b823567ffffffffffffffff808211156130f3578384fd5b9084019060e08287031215613106578384fd5b61310e6134aa565b61311783612dea565b815260208301358281111561312a578586fd5b61313688828601612ea0565b60208301525060408301358281111561314d578586fd5b61315988828601612ea0565b604083015250606083013582811115613170578586fd5b61317c88828601612ea0565b606083015250608083013582811115613193578586fd5b61319f88828601612ea0565b6080830152506131b160a08401612e91565b60a082015260c0830135828111156131c7578586fd5b6131d388828601612f0b565b60c0830152509350612fec91505060208401612e86565b6000602082840312156131fb578081fd5b5051919050565b6000815180845260208085019450808401835b8381101561323a5781516001600160a01b031687529582019590820190600101613215565b509495945050505050565b6009811061325557613255613588565b9052565b60008151808452815b8181101561327e57602081850181015186830182015201613262565b8181111561328f5782602083870101525b50601f01601f19169290920160200192915050565b6001600160a01b0381511682526000602082015160e060208501526132cc60e0850182613259565b9050604083015184820360408601526132e58282613259565b915050606083015184820360608601526132ff8282613259565b915050608083015184820360808601526133198282613259565b91505060a083015161332e60a0860182613245565b5060c083015184820360c0860152805182526020810151606060208401526133596060840182613202565b9050604082015191508281036040840152612c868183613202565b6001600160a01b038316815260408101612fba6020830184613245565b6001600160a01b03851681528360208201526080604082015260006133b960808301856132a4565b9050821515606083015295945050505050565b6020808252825182820181905260009190848201906040850190845b8181101561340d5783516001600160a01b0316835292840192918401916001016133e8565b50909695505050505050565b60208101600c831061342d5761342d613588565b91905290565b602081016004831061342d5761342d613588565b602081526000612fba60208301846132a4565b6020815260008251606060208401526134766080840182613259565b90506020840151601f198483030160408501526134938282613259565b915050604084015160608401528091505092915050565b60405160e0810167ffffffffffffffff811182821017156134cd576134cd61359e565b60405290565b604051601f8201601f1916810167ffffffffffffffff811182821017156134fc576134fc61359e565b604052919050565b6000821982111561351757613517613572565b500190565b600181811c9082168061353057607f821691505b6020821081141561355157634e487b7160e01b600052602260045260246000fd5b50919050565b600060001982141561356b5761356b613572565b5060010190565b634e487b7160e01b600052601160045260246000fd5b634e487b7160e01b600052602160045260246000fd5b634e487b7160e01b600052604160045260246000fd5b6001600160a01b03811681146118c957600080fd5b80151581146118c957600080fdfea2646970667358221220d3e259ce5f1d2fbf23b8d72b23dccaa3233131ad734244f863f864a55da802a264736f6c63430008040033a26469706673582212207b87c7e144ca8289193a3db38d1ea03fcc4d61294f989a552287f151489c0a9264736f6c63430008040033",
  "linkReferences": {},
  "deployedLinkReferences": {}
}