{
    "_format": "hh-sol-artifact-1",
    "contractName": "Order",
    "sourceName": "contracts/Order.sol",
    "abi": [
        {
            "inputs": [
                {
                    "internalType": "address",
                    "name": "_SPConfig",
                    "type": "address"
                },
                {
                    "internalType": "address",
                    "name": "_consumer",
                    "type": "address"
                },
                {
                    "internalType": "address",
                    "name": "_parentOrder",
                    "type": "address"
                },
                {
                    "components": [
                        {
                            "internalType": "address",
                            "name": "offer",
                            "type": "address"
                        },
                        {
                            "internalType": "string",
                            "name": "resultPublicKey",
                            "type": "string"
                        },
                        {
                            "internalType": "string",
                            "name": "resultPublicKeyAlgo",
                            "type": "string"
                        },
                        {
                            "internalType": "string",
                            "name": "encryptedRequirements",
                            "type": "string"
                        },
                        {
                            "internalType": "string",
                            "name": "encryptedArgs",
                            "type": "string"
                        },
                        {
                            "internalType": "enum OrderStatus",
                            "name": "status",
                            "type": "uint8"
                        },
                        {
                            "components": [
                                {
                                    "internalType": "uint256",
                                    "name": "slots",
                                    "type": "uint256"
                                },
                                {
                                    "internalType": "address[]",
                                    "name": "inputOffers",
                                    "type": "address[]"
                                },
                                {
                                    "internalType": "address[]",
                                    "name": "selectedOffers",
                                    "type": "address[]"
                                }
                            ],
                            "internalType": "struct OrderArgs",
                            "name": "args",
                            "type": "tuple"
                        }
                    ],
                    "internalType": "struct OrderInfo",
                    "name": "_info",
                    "type": "tuple"
                },
                {
                    "internalType": "uint256",
                    "name": "_orderPrice",
                    "type": "uint256"
                },
                {
                    "internalType": "bool",
                    "name": "_suspended",
                    "type": "bool"
                }
            ],
            "stateMutability": "nonpayable",
            "type": "constructor"
        },
        {
            "anonymous": false,
            "inputs": [
                {
                    "indexed": false,
                    "internalType": "address",
                    "name": "order",
                    "type": "address"
                },
                {
                    "indexed": false,
                    "internalType": "enum OrderStatus",
                    "name": "status",
                    "type": "uint8"
                }
            ],
            "name": "OrderStatusUpdated",
            "type": "event"
        },
        {
            "anonymous": false,
            "inputs": [
                {
                    "indexed": false,
                    "internalType": "address",
                    "name": "subOrder",
                    "type": "address"
                }
            ],
            "name": "SubOrderCreated",
            "type": "event"
        },
        {
            "inputs": [],
            "name": "cancelOrder",
            "outputs": [],
            "stateMutability": "nonpayable",
            "type": "function"
        },
        {
            "inputs": [
                {
                    "internalType": "enum OrderStatus",
                    "name": "status",
                    "type": "uint8"
                },
                {
                    "internalType": "string",
                    "name": "encryptedResult",
                    "type": "string"
                },
                {
                    "internalType": "string",
                    "name": "encryptedError",
                    "type": "string"
                }
            ],
            "name": "complete",
            "outputs": [],
            "stateMutability": "nonpayable",
            "type": "function"
        },
        {
            "inputs": [
                {
                    "components": [
                        {
                            "internalType": "address",
                            "name": "offer",
                            "type": "address"
                        },
                        {
                            "internalType": "string",
                            "name": "resultPublicKey",
                            "type": "string"
                        },
                        {
                            "internalType": "string",
                            "name": "resultPublicKeyAlgo",
                            "type": "string"
                        },
                        {
                            "internalType": "string",
                            "name": "encryptedRequirements",
                            "type": "string"
                        },
                        {
                            "internalType": "string",
                            "name": "encryptedArgs",
                            "type": "string"
                        },
                        {
                            "internalType": "enum OrderStatus",
                            "name": "status",
                            "type": "uint8"
                        },
                        {
                            "components": [
                                {
                                    "internalType": "uint256",
                                    "name": "slots",
                                    "type": "uint256"
                                },
                                {
                                    "internalType": "address[]",
                                    "name": "inputOffers",
                                    "type": "address[]"
                                },
                                {
                                    "internalType": "address[]",
                                    "name": "selectedOffers",
                                    "type": "address[]"
                                }
                            ],
                            "internalType": "struct OrderArgs",
                            "name": "args",
                            "type": "tuple"
                        }
                    ],
                    "internalType": "struct OrderInfo",
                    "name": "info",
                    "type": "tuple"
                },
                {
                    "internalType": "bool",
                    "name": "blocking",
                    "type": "bool"
                }
            ],
            "name": "createSubOrder",
            "outputs": [
                {
                    "internalType": "address",
                    "name": "",
                    "type": "address"
                }
            ],
            "stateMutability": "nonpayable",
            "type": "function"
        },
        {
            "inputs": [],
            "name": "getChangeWithdrawn",
            "outputs": [
                {
                    "internalType": "bool",
                    "name": "",
                    "type": "bool"
                }
            ],
            "stateMutability": "view",
            "type": "function"
        },
        {
            "inputs": [],
            "name": "getConsumer",
            "outputs": [
                {
                    "internalType": "address",
                    "name": "",
                    "type": "address"
                }
            ],
            "stateMutability": "view",
            "type": "function"
        },
        {
            "inputs": [],
            "name": "getOrderInfo",
            "outputs": [
                {
                    "components": [
                        {
                            "internalType": "address",
                            "name": "offer",
                            "type": "address"
                        },
                        {
                            "internalType": "string",
                            "name": "resultPublicKey",
                            "type": "string"
                        },
                        {
                            "internalType": "string",
                            "name": "resultPublicKeyAlgo",
                            "type": "string"
                        },
                        {
                            "internalType": "string",
                            "name": "encryptedRequirements",
                            "type": "string"
                        },
                        {
                            "internalType": "string",
                            "name": "encryptedArgs",
                            "type": "string"
                        },
                        {
                            "internalType": "enum OrderStatus",
                            "name": "status",
                            "type": "uint8"
                        },
                        {
                            "components": [
                                {
                                    "internalType": "uint256",
                                    "name": "slots",
                                    "type": "uint256"
                                },
                                {
                                    "internalType": "address[]",
                                    "name": "inputOffers",
                                    "type": "address[]"
                                },
                                {
                                    "internalType": "address[]",
                                    "name": "selectedOffers",
                                    "type": "address[]"
                                }
                            ],
                            "internalType": "struct OrderArgs",
                            "name": "args",
                            "type": "tuple"
                        }
                    ],
                    "internalType": "struct OrderInfo",
                    "name": "",
                    "type": "tuple"
                }
            ],
            "stateMutability": "view",
            "type": "function"
        },
        {
            "inputs": [],
            "name": "getOrderPrice",
            "outputs": [
                {
                    "internalType": "uint256",
                    "name": "",
                    "type": "uint256"
                }
            ],
            "stateMutability": "view",
            "type": "function"
        },
        {
            "inputs": [],
            "name": "getOrderResult",
            "outputs": [
                {
                    "components": [
                        {
                            "internalType": "string",
                            "name": "encryptedResult",
                            "type": "string"
                        },
                        {
                            "internalType": "string",
                            "name": "encryptedError",
                            "type": "string"
                        },
                        {
                            "internalType": "uint256",
                            "name": "orderPrice",
                            "type": "uint256"
                        }
                    ],
                    "internalType": "struct OrderResult",
                    "name": "",
                    "type": "tuple"
                }
            ],
            "stateMutability": "view",
            "type": "function"
        },
        {
            "inputs": [],
            "name": "getParentOrder",
            "outputs": [
                {
                    "internalType": "address",
                    "name": "",
                    "type": "address"
                }
            ],
            "stateMutability": "view",
            "type": "function"
        },
        {
            "inputs": [],
            "name": "getProfitWithdrawn",
            "outputs": [
                {
                    "internalType": "bool",
                    "name": "",
                    "type": "bool"
                }
            ],
            "stateMutability": "view",
            "type": "function"
        },
        {
            "inputs": [],
            "name": "getSubOrders",
            "outputs": [
                {
                    "internalType": "address[]",
                    "name": "",
                    "type": "address[]"
                }
            ],
            "stateMutability": "view",
            "type": "function"
        },
        {
            "inputs": [],
            "name": "isCompleted",
            "outputs": [
                {
                    "internalType": "bool",
                    "name": "",
                    "type": "bool"
                }
            ],
            "stateMutability": "view",
            "type": "function"
        },
        {
            "inputs": [],
            "name": "isReadyForProcessing",
            "outputs": [
                {
                    "internalType": "bool",
                    "name": "",
                    "type": "bool"
                }
            ],
            "stateMutability": "view",
            "type": "function"
        },
        {
            "inputs": [],
            "name": "setProcessingStatus",
            "outputs": [],
            "stateMutability": "nonpayable",
            "type": "function"
        },
        {
            "inputs": [],
            "name": "start",
            "outputs": [],
            "stateMutability": "nonpayable",
            "type": "function"
        },
        {
            "inputs": [
                {
                    "internalType": "enum OrderStatus",
                    "name": "status",
                    "type": "uint8"
                },
                {
                    "internalType": "uint256",
                    "name": "orderPrice",
                    "type": "uint256"
                }
            ],
            "name": "updateStatus",
            "outputs": [],
            "stateMutability": "nonpayable",
            "type": "function"
        },
        {
            "inputs": [],
            "name": "withdrawChange",
            "outputs": [],
            "stateMutability": "nonpayable",
            "type": "function"
        },
        {
            "inputs": [],
            "name": "withdrawProfit",
            "outputs": [],
            "stateMutability": "nonpayable",
            "type": "function"
        }
    ],
    "bytecode": "0x60806040526011805461ffff60a01b191690553480156200001f57600080fd5b50604051620038e3380380620038e3833981016040819052620000429162000631565b856001600160a01b031663f1f0bd016040518163ffffffff1660e01b815260040160206040518083038186803b1580156200007c57600080fd5b505afa15801562000091573d6000803e3d6000fd5b505050506040513d601f19601f82011682018060405250810190620000b791906200060d565b601080546001600160a01b0392831661010002610100600160a81b0319909116179055600180548783166001600160a01b03199182161790915584516004805491909316911617815560208085015180518693926200011c9260059291019062000310565b50604082015180516200013a91600284019160209091019062000310565b50606082015180516200015891600384019160209091019062000310565b50608082015180516200017691600484019160209091019062000310565b5060a082015160058201805460ff19166001836008811115620001a957634e487b7160e01b600052602160045260246000fd5b021790555060c08201518051600683019081556020808301518051620001d692600787019201906200039f565b5060408201518051620001f49160028401916020909101906200039f565b50505090505082600001516001600160a01b031663af5372e66040518163ffffffff1660e01b815260040160206040518083038186803b1580156200023857600080fd5b505afa1580156200024d573d6000803e3d6000fd5b505050506040513d601f19601f82011682018060405250810190620002739190620007b5565b6010805460ff191660018360038111156200029e57634e487b7160e01b600052602160045260246000fd5b0217905550600080546001600160a01b0319166001600160a01b038616179055600f82905580620002d1576000620002d4565b60075b6009805460ff19166001836008811115620002ff57634e487b7160e01b600052602160045260246000fd5b021790555050505050505062000887565b8280546200031e9062000834565b90600052602060002090601f0160209004810192826200034257600085556200038d565b82601f106200035d57805160ff19168380011785556200038d565b828001600101855582156200038d579182015b828111156200038d57825182559160200191906001019062000370565b506200039b929150620003f7565b5090565b8280548282559060005260206000209081019282156200038d579160200282015b828111156200038d57825182546001600160a01b0319166001600160a01b03909116178255602090920191600190910190620003c0565b5b808211156200039b5760008155600101620003f8565b80516001600160a01b03811681146200042657600080fd5b919050565b600082601f8301126200043c578081fd5b815160206001600160401b038211156200045a576200045a62000871565b8160051b6200046b82820162000801565b83815282810190868401838801850189101562000486578687fd5b8693505b85841015620004b3576200049e816200040e565b8352600193909301929184019184016200048a565b50979650505050505050565b805180151581146200042657600080fd5b8051600981106200042657600080fd5b600082601f830112620004f1578081fd5b81516001600160401b038111156200050d576200050d62000871565b602062000523601f8301601f1916820162000801565b828152858284870101111562000537578384fd5b835b838110156200055657858101830151828201840152820162000539565b838111156200056757848385840101525b5095945050505050565b60006060828403121562000583578081fd5b604051606081016001600160401b038082118383101715620005a957620005a962000871565b81604052829350845183526020850151915080821115620005c957600080fd5b620005d7868387016200042b565b60208401526040850151915080821115620005f157600080fd5b5062000600858286016200042b565b6040830152505092915050565b6000602082840312156200061f578081fd5b6200062a826200040e565b9392505050565b60008060008060008060c087890312156200064a578182fd5b62000655876200040e565b955062000665602088016200040e565b945062000675604088016200040e565b60608801519094506001600160401b038082111562000692578384fd5b9088019060e0828b031215620006a6578384fd5b620006b0620007d6565b620006bb836200040e565b8152602083015182811115620006cf578586fd5b620006dd8c828601620004e0565b602083015250604083015182811115620006f5578586fd5b620007038c828601620004e0565b6040830152506060830151828111156200071b578586fd5b620007298c828601620004e0565b60608301525060808301518281111562000741578586fd5b6200074f8c828601620004e0565b6080830152506200076360a08401620004d0565b60a082015260c0830151828111156200077a578586fd5b620007888c82860162000571565b60c08301525080955050505060808701519150620007a960a08801620004bf565b90509295509295509295565b600060208284031215620007c7578081fd5b8151600481106200062a578182fd5b60405160e081016001600160401b0381118282101715620007fb57620007fb62000871565b60405290565b604051601f8201601f191681016001600160401b03811182821017156200082c576200082c62000871565b604052919050565b600181811c908216806200084957607f821691505b602082108114156200086b57634e487b7160e01b600052602260045260246000fd5b50919050565b634e487b7160e01b600052604160045260246000fd5b61304c80620008976000396000f3fe608060405234801561001057600080fd5b50600436106101365760003560e01c8063b1be5929116100b2578063c214d37a11610081578063c3c61f9111610066578063c3c61f9114610247578063cef8f6d414610258578063fa391c641461026d57600080fd5b8063c214d37a14610222578063c28bd4ef1461023557600080fd5b8063b1be5929146101ea578063b2375e8d146101f2578063b7ff5dae14610207578063be9a65551461021a57600080fd5b80636c07681f11610109578063982308f5116100ee578063982308f5146101bf57806398365150146101d0578063af91ec60146101d857600080fd5b80636c07681f146101a6578063959499b6146101b757600080fd5b806301efb6c81461013b578063291197211461015957806330979eba146101845780636a8165481461019c575b600080fd5b610143610275565b6040516101509190612d32565b60405180910390f35b61016c6101673660046128a4565b610618565b6040516001600160a01b039091168152602001610150565b61018c610a04565b6040519015158152602001610150565b6101a4610a65565b005b6001546001600160a01b031661016c565b6101a4610eef565b6000546001600160a01b031661016c565b6101a46111be565b601154600160a81b900460ff1661018c565b6101a46113ce565b6101fa611506565b6040516101509190612d45565b6101a461021536600461264e565b61166a565b6101a46118d2565b6101a46102303660046125dd565b6119ac565b601154600160a01b900460ff1661018c565b600f54604051908152602001610150565b610260611ca0565b6040516101509190612d05565b61018c611d02565b61027d6121d3565b6040805160e08101909152600480546001600160a01b03168252600580546020840191906102aa90612f60565b80601f01602080910402602001604051908101604052809291908181526020018280546102d690612f60565b80156103235780601f106102f857610100808354040283529160200191610323565b820191906000526020600020905b81548152906001019060200180831161030657829003601f168201915b5050505050815260200160028201805461033c90612f60565b80601f016020809104026020016040519081016040528092919081815260200182805461036890612f60565b80156103b55780601f1061038a576101008083540402835291602001916103b5565b820191906000526020600020905b81548152906001019060200180831161039857829003601f168201915b505050505081526020016003820180546103ce90612f60565b80601f01602080910402602001604051908101604052809291908181526020018280546103fa90612f60565b80156104475780601f1061041c57610100808354040283529160200191610447565b820191906000526020600020905b81548152906001019060200180831161042a57829003601f168201915b5050505050815260200160048201805461046090612f60565b80601f016020809104026020016040519081016040528092919081815260200182805461048c90612f60565b80156104d95780601f106104ae576101008083540402835291602001916104d9565b820191906000526020600020905b8154815290600101906020018083116104bc57829003601f168201915b5050509183525050600582015460209091019060ff16600881111561050e57634e487b7160e01b600052602160045260246000fd5b600881111561052d57634e487b7160e01b600052602160045260246000fd5b81526020016006820160405180606001604052908160008201548152602001600182018054806020026020016040519081016040528092919081815260200182805480156105a457602002820191906000526020600020905b81546001600160a01b03168152600190910190602001808311610586575b505050505081526020016002820180548060200260200160405190810160405280929190818152602001828054801561060657602002820191906000526020600020905b81546001600160a01b031681526001909101906020018083116105e8575b50505050508152505081525050905090565b6000610622611d8e565b600061062c610a04565b90506000610638611f12565b905081801561064f5750336001600160a01b038216145b8061066d57508115801561066d57506001546001600160a01b031633145b6106be5760405162461bcd60e51b815260206004820152600d60248201527f4163636573732064656e6965640000000000000000000000000000000000000060448201526064015b60405180910390fd5b60008086600001516001600160a01b031663af5372e66040518163ffffffff1660e01b815260040160206040518083038186803b1580156106fe57600080fd5b505afa158015610712573d6000803e3d6000fd5b505050506040513d601f19601f8201168201806040525081019061073691906125c3565b9050600081600381111561075a57634e487b7160e01b600052602160045260246000fd5b146108bf5786516040517ff12018c30000000000000000000000000000000000000000000000000000000081523360048201526001600160a01b0382169063f12018c39060240160206040518083038186803b1580156107b957600080fd5b505afa1580156107cd573d6000803e3d6000fd5b505050506040513d601f19601f820116820180604052508101906107f191906125a7565b61083d5760405162461bcd60e51b815260206004820152600b60248201527f4e6f7420616c6c6f77656400000000000000000000000000000000000000000060448201526064016106b5565b6000816001600160a01b0316635a9b0b896040518163ffffffff1660e01b8152600401600060405180830381600087803b15801561087a57600080fd5b505af115801561088e573d6000803e3d6000fd5b505050506040513d6000823e601f3d908101601f191682016040526108b69190810190612677565b60a00151935050505b6011546001546040517f905d20450000000000000000000000000000000000000000000000000000000081526000926001600160a01b039081169263905d204592610916929091169087908d908d90600401612cca565b602060405180830381600087803b15801561093057600080fd5b505af1158015610944573d6000803e3d6000fd5b505050506040513d601f19601f820116820180604052508101906109689190612584565b600380546001810182556000919091527fc2575a0e9e593c00f959f8c92f12db2869c3395a3b0502d05e2516446f71f85b01805473ffffffffffffffffffffffffffffffffffffffff19166001600160a01b0383169081179091556040519081529091507fd4a8311d4a2937c45f6564edb791f76d0a6d74db0902f4a6fb46cbee04166a639060200160405180910390a1979650505050505050565b6000600760095460ff166008811115610a2d57634e487b7160e01b600052602160045260246000fd5b14158015610a605750600660095460ff166008811115610a5d57634e487b7160e01b600052602160045260246000fd5b14155b905090565b6001546001600160a01b03163314610abf5760405162461bcd60e51b815260206004820152601b60248201527f417661696c61626c65206f6e6c7920666f7220636f6e73756d6572000000000060448201526064016106b5565b610ac7611d02565b15610b3a5760405162461bcd60e51b815260206004820152602160248201527f436f6d706c65746564206f726465722063616e27742062652063616e63656c6560448201527f640000000000000000000000000000000000000000000000000000000000000060648201526084016106b5565b60048054604080517f1bffb49100000000000000000000000000000000000000000000000000000000815290516001600160a01b0390921692631bffb491928282019260209290829003018186803b158015610b9557600080fd5b505afa158015610ba9573d6000803e3d6000fd5b505050506040513d601f19601f82011682018060405250810190610bcd91906125a7565b158015610bdb575060025415155b15610bec57610bea6002612000565b565b610bf66003612000565b600254610c04576000600f55565b600060105460ff166003811115610c2b57634e487b7160e01b600052602160045260246000fd5b1415610e39576004805460408051635a9b0b8960e01b815290516001600160a01b03909216926000928492635a9b0b8992818101928692909190829003018186803b158015610c7957600080fd5b505afa158015610c8d573d6000803e3d6000fd5b505050506040513d6000823e601f3d908101601f19168201604052610cb591908101906129cd565b6060015163ffffffff1690506000826001600160a01b0316635a9b0b896040518163ffffffff1660e01b815260040160006040518083038186803b158015610cfc57600080fd5b505afa158015610d10573d6000803e3d6000fd5b505050506040513d6000823e601f3d908101601f19168201604052610d3891908101906129cd565b6080015167ffffffffffffffff169050600060025442610d589190612f1d565b90506000610d67603c83612e9b565b905082811015610d745750815b600084866001600160a01b0316638a35e9426040518163ffffffff1660e01b815260040160206040518083038186803b158015610db057600080fd5b505afa158015610dc4573d6000803e3d6000fd5b505050506040513d601f19601f82011682018060405250810190610de89190612b42565b610df29190612e9b565b90506000603c610e05610e106018612ef1565b610e0f9190612eaf565b63ffffffff16610e1f8385612ed2565b610e299190612e9b565b600f5550610bea95505050505050565b6004805460408051635a9b0b8960e01b815290516001600160a01b03909216926000928492635a9b0b899281810192869290919082900301818387803b158015610e8257600080fd5b505af1158015610e96573d6000803e3d6000fd5b505050506040513d6000823e601f3d908101601f19168201604052610ebe9190810190612677565b6101000151610ece90603c612ed2565b90504281600254610edf9190612e83565b1015610eeb576000600f555b5050565b610ef7611d8e565b600480546040805163483d45bd60e01b815290516000936001600160a01b039093169263483d45bd92808201926020929091829003018186803b158015610f3d57600080fd5b505afa158015610f51573d6000803e3d6000fd5b505050506040513d601f19601f82011682018060405250810190610f759190612584565b6001600160a01b0316636d69a3e86040518163ffffffff1660e01b815260040160206040518083038186803b158015610fad57600080fd5b505afa158015610fc1573d6000803e3d6000fd5b505050506040513d601f19601f82011682018060405250810190610fe59190612584565b600f54909150610ff3611d02565b6110505760405162461bcd60e51b815260206004820152602860248201527f57697468647261776e20617661696c61626c65207768656e206f7264657220636044820152671bdb5c1b195d195960c21b60648201526084016106b5565b336001600160a01b038316146110ce5760405162461bcd60e51b815260206004820152603160248201527f417661696c61626c65206f6e6c7920666f722070726f766964657220746f6b6560448201527f6e2072656369766572206163636f756e7400000000000000000000000000000060648201526084016106b5565b601154600160a81b900460ff16156111285760405162461bcd60e51b815260206004820152601860248201527f50726f66697420616c72656164792077697468647261776e000000000000000060448201526064016106b5565b6011546040517f22e8d369000000000000000000000000000000000000000000000000000000008152600481018390526001600160a01b038481166024830152909116906322e8d36990604401600060405180830381600087803b15801561118f57600080fd5b505af11580156111a3573d6000803e3d6000fd5b50506011805460ff60a81b1916600160a81b17905550505050565b6111c6611d8e565b601154600160a01b900460ff16156112205760405162461bcd60e51b815260206004820152601860248201527f4368616e676520616c72656164792077697468647261776e000000000000000060448201526064016106b5565b6001546001600160a01b031633146112a05760405162461bcd60e51b815260206004820152602160248201527f417661696c61626c65206f6e6c7920666f72204f7264657220636f6e73756d6560448201527f720000000000000000000000000000000000000000000000000000000000000060648201526084016106b5565b6112a8611d02565b6113055760405162461bcd60e51b815260206004820152602860248201527f57697468647261776e20617661696c61626c65207768656e206f7264657220636044820152671bdb5c1b195d195960c21b60648201526084016106b5565b601154600090600160a81b900460ff1615611321576000611325565b600f545b6011546040517f5f4550ba000000000000000000000000000000000000000000000000000000008152600481018390529192506001600160a01b031690635f4550ba90602401600060405180830381600087803b15801561138557600080fd5b505af1158015611399573d6000803e3d6000fd5b5050601180547fffffffffffffffffffffff00ffffffffffffffffffffffffffffffffffffffff16600160a01b179055505050565b60006113d8611f12565b9050336001600160a01b038216146114445760405162461bcd60e51b815260206004820152602960248201527f417661696c61626c65206f6e6c7920666f722070726f766964657220616374696044820152681bdb9058d8dbdd5b9d60ba1b60648201526084016106b5565b61144c610a04565b6114985760405162461bcd60e51b815260206004820152601960248201527f4f72646572206861736e2774206265656e20737461727465640000000000000060448201526064016106b5565b6114a0611d02565b156114ed5760405162461bcd60e51b815260206004820181905260248201527f436f6d706c65746564206f726465722063616e2774206265207570646174656460448201526064016106b5565b6114f76001612000565b60025461150357426002555b50565b61152a60405180606001604052806060815260200160608152602001600081525090565b600d60405180606001604052908160008201805461154790612f60565b80601f016020809104026020016040519081016040528092919081815260200182805461157390612f60565b80156115c05780601f10611595576101008083540402835291602001916115c0565b820191906000526020600020905b8154815290600101906020018083116115a357829003601f168201915b505050505081526020016001820180546115d990612f60565b80601f016020809104026020016040519081016040528092919081815260200182805461160590612f60565b80156116525780601f1061162757610100808354040283529160200191611652565b820191906000526020600020905b81548152906001019060200180831161163557829003601f168201915b50505050508152602001600282015481525050905090565b6000611674611f12565b9050336001600160a01b038216146116e05760405162461bcd60e51b815260206004820152602960248201527f417661696c61626c65206f6e6c7920666f722070726f766964657220616374696044820152681bdb9058d8dbdd5b9d60ba1b60648201526084016106b5565b6116e8610a04565b6117345760405162461bcd60e51b815260206004820152601960248201527f4f72646572206861736e2774206265656e20737461727465640000000000000060448201526064016106b5565b61173c611d02565b156117895760405162461bcd60e51b815260206004820181905260248201527f436f6d706c65746564206f726465722063616e2774206265207570646174656460448201526064016106b5565b6009546117999060ff168461206e565b6117e55760405162461bcd60e51b815260206004820152600d60248201527f496e76616964207374617475730000000000000000000000000000000000000060448201526064016106b5565b6117ee83612000565b60025415801561181d5750600183600881111561181b57634e487b7160e01b600052602160045260246000fd5b145b1561182757426002555b600060105460ff16600381111561184e57634e487b7160e01b600052602160045260246000fd5b146118cb57600f548211156118cb5760405162461bcd60e51b815260206004820152602b60248201527f466f7262696464656e20746f20696e63726561736520707269636520666f722060448201527f76616c75654f666665727300000000000000000000000000000000000000000060648201526084016106b5565b50600f5550565b6001546001600160a01b0316331461192c5760405162461bcd60e51b815260206004820152601b60248201527f417661696c61626c65206f6e6c7920666f7220636f6e73756d6572000000000060448201526064016106b5565b600760095460ff16600881111561195357634e487b7160e01b600052602160045260246000fd5b146119a05760405162461bcd60e51b815260206004820152601760248201527f4f72646572206d7573742062652073757370656e64656400000000000000000060448201526064016106b5565b6009805460ff19169055565b60006119b6611f12565b9050336001600160a01b03821614611a225760405162461bcd60e51b815260206004820152602960248201527f417661696c61626c65206f6e6c7920666f722070726f766964657220616374696044820152681bdb9058d8dbdd5b9d60ba1b60648201526084016106b5565b611a2a610a04565b611a765760405162461bcd60e51b815260206004820152601960248201527f4f72646572206861736e2774206265656e20737461727465640000000000000060448201526064016106b5565b611a7e611d02565b15611acb5760405162461bcd60e51b815260206004820152601160248201527f416c726561647920636f6d706c6574656400000000000000000000000000000060448201526064016106b5565b6005846008811115611aed57634e487b7160e01b600052602160045260246000fd5b1480611b1857506004846008811115611b1657634e487b7160e01b600052602160045260246000fd5b145b611b8a5760405162461bcd60e51b815260206004820152602b60248201527f43616e20636f6d706c657465206f6e6c7920776974682073746174757320457260448201527f726f72206f7220446f6e6500000000000000000000000000000000000000000060648201526084016106b5565b600160095460ff166008811115611bb157634e487b7160e01b600052602160045260246000fd5b1480611be15750600860095460ff166008811115611bdf57634e487b7160e01b600052602160045260246000fd5b145b611c2d5760405162461bcd60e51b815260206004820181905260248201527f43616e277420636f6d706c657465206265666f72652070726f63657373696e6760448201526064016106b5565b8251611c4090600d906020860190612259565b508151611c5490600e906020850190612259565b506005846008811115611c7757634e487b7160e01b600052602160045260246000fd5b1415611c91576011805460ff60a81b1916600160a81b1790555b611c9a84612000565b50505050565b60606003805480602002602001604051908101604052809291908181526020018280548015611cf857602002820191906000526020600020905b81546001600160a01b03168152600190910190602001808311611cda575b5050505050905090565b6000600460095460ff166008811115611d2b57634e487b7160e01b600052602160045260246000fd5b1480611d5b5750600560095460ff166008811115611d5957634e487b7160e01b600052602160045260246000fd5b145b80610a605750600360095460ff166008811115611d8857634e487b7160e01b600052602160045260246000fd5b14905090565b601060019054906101000a90046001600160a01b03166001600160a01b031663f1f0bd016040518163ffffffff1660e01b815260040160206040518083038186803b158015611ddc57600080fd5b505afa158015611df0573d6000803e3d6000fd5b505050506040513d601f19601f82011682018060405250810190611e149190612584565b601080547fffffffffffffffffffffff0000000000000000000000000000000000000000ff166101006001600160a01b03938416810291909117918290556040517fbcaa0c5500000000000000000000000000000000000000000000000000000000815291049091169063bcaa0c5590611e9390600090600401612d18565b60206040518083038186803b158015611eab57600080fd5b505afa158015611ebf573d6000803e3d6000fd5b505050506040513d601f19601f82011682018060405250810190611ee39190612584565b6011805473ffffffffffffffffffffffffffffffffffffffff19166001600160a01b0392909216919091179055565b600480546040805163483d45bd60e01b815290516000936001600160a01b039093169263483d45bd92808201926020929091829003018186803b158015611f5857600080fd5b505afa158015611f6c573d6000803e3d6000fd5b505050506040513d601f19601f82011682018060405250810190611f909190612584565b6001600160a01b0316636760c4b76040518163ffffffff1660e01b815260040160206040518083038186803b158015611fc857600080fd5b505afa158015611fdc573d6000803e3d6000fd5b505050506040513d601f19601f82011682018060405250810190610a609190612584565b6009805482919060ff1916600183600881111561202d57634e487b7160e01b600052602160045260246000fd5b02179055507fdeec0b1e3a1ffaeb49a9045c07756b2e16cd738314db2d7ec9317e56809732bb3082604051612063929190612cad565b60405180910390a150565b600080600284600881111561209357634e487b7160e01b600052602160045260246000fd5b1480156120bf575060038360088111156120bd57634e487b7160e01b600052602160045260246000fd5b145b90506000808560088111156120e457634e487b7160e01b600052602160045260246000fd5b148061210f5750600185600881111561210d57634e487b7160e01b600052602160045260246000fd5b145b806121395750600885600881111561213757634e487b7160e01b600052602160045260246000fd5b145b80156121645750600184600881111561216257634e487b7160e01b600052602160045260246000fd5b145b90506000600186600881111561218a57634e487b7160e01b600052602160045260246000fd5b1480156121b6575060088560088111156121b457634e487b7160e01b600052602160045260246000fd5b145b905082806121c15750815b806121c95750805b9695505050505050565b6040518060e0016040528060006001600160a01b03168152602001606081526020016060815260200160608152602001606081526020016000600881111561222b57634e487b7160e01b600052602160045260246000fd5b815260200161225460405180606001604052806000815260200160608152602001606081525090565b905290565b82805461226590612f60565b90600052602060002090601f01602090048101928261228757600085556122cd565b82601f106122a057805160ff19168380011785556122cd565b828001600101855582156122cd579182015b828111156122cd5782518255916020019190600101906122b2565b506122d99291506122dd565b5090565b5b808211156122d957600081556001016122de565b80356122fd81612ff3565b919050565b80516122fd81612ff3565b600082601f83011261231d578081fd5b8135602061233261232d83612e37565b612e06565b80838252828201915082860187848660051b8901011115612351578586fd5b855b8581101561237857813561236681612ff3565b84529284019290840190600101612353565b5090979650505050505050565b600082601f830112612395578081fd5b815160206123a561232d83612e37565b80838252828201915082860187848660051b89010111156123c4578586fd5b855b858110156123785781516123d981612ff3565b845292840192908401906001016123c6565b80356122fd81613008565b80516122fd81613008565b8051600281106122fd57600080fd5b8051600481106122fd57600080fd5b8035600981106122fd57600080fd5b600082601f83011261243e578081fd5b813561244c61232d82612e5b565b818152846020838601011115612460578283fd5b816020850160208301379081016020019190915292915050565b600082601f83011261248a578081fd5b815161249861232d82612e5b565b8181528460208386010111156124ac578283fd5b6124bd826020830160208701612f34565b949350505050565b6000606082840312156124d6578081fd5b6040516060810167ffffffffffffffff82821081831117156124fa576124fa612fdd565b8160405282935084358352602085013591508082111561251957600080fd5b6125258683870161230d565b6020840152604085013591508082111561253e57600080fd5b5061254b8582860161230d565b6040830152505092915050565b805163ffffffff811681146122fd57600080fd5b805167ffffffffffffffff811681146122fd57600080fd5b600060208284031215612595578081fd5b81516125a081612ff3565b9392505050565b6000602082840312156125b8578081fd5b81516125a081613008565b6000602082840312156125d4578081fd5b6125a082612410565b6000806000606084860312156125f1578182fd5b6125fa8461241f565b9250602084013567ffffffffffffffff80821115612616578384fd5b6126228783880161242e565b93506040860135915080821115612637578283fd5b506126448682870161242e565b9150509250925092565b60008060408385031215612660578182fd5b6126698361241f565b946020939093013593505050565b600060208284031215612688578081fd5b815167ffffffffffffffff8082111561269f578283fd5b9083019061022082860312156126b3578283fd5b6126bb612d95565b8251828111156126c9578485fd5b6126d58782860161247a565b8252506126e460208401612401565b60208201526126f560408401612410565b6040820152612706606084016123f6565b606082015260808301518281111561271c578485fd5b6127288782860161247a565b60808301525060a083015160a082015260c083015182811115612749578485fd5b61275587828601612385565b60c08301525060e08301518281111561276c578485fd5b6127788782860161247a565b60e0830152506101008381015190820152610120808401518381111561279c578586fd5b6127a88882870161247a565b82840152505061014080840151838111156127c1578586fd5b6127cd8882870161247a565b82840152505061016080840151838111156127e6578586fd5b6127f28882870161247a565b828401525050610180808401518381111561280b578586fd5b61281788828701612385565b8284015250506101a08084015183811115612830578586fd5b61283c8882870161247a565b8284015250506101c08084015183811115612855578586fd5b6128618882870161247a565b8284015250506101e0808401518381111561287a578586fd5b6128868882870161247a565b91830191909152506102009283015192810192909252509392505050565b600080604083850312156128b6578182fd5b823567ffffffffffffffff808211156128cd578384fd5b9084019060e082870312156128e0578384fd5b6128e8612dbf565b6128f1836122f2565b8152602083013582811115612904578586fd5b6129108882860161242e565b602083015250604083013582811115612927578586fd5b6129338882860161242e565b60408301525060608301358281111561294a578586fd5b6129568882860161242e565b60608301525060808301358281111561296d578586fd5b6129798882860161242e565b60808301525061298b60a0840161241f565b60a082015260c0830135828111156129a1578586fd5b6129ad888286016124c5565b60c08301525093506129c4915050602084016123eb565b90509250929050565b6000602082840312156129de578081fd5b815167ffffffffffffffff808211156129f5578283fd5b908301906101408286031215612a09578283fd5b612a11612de2565b825182811115612a1f578485fd5b612a2b8782860161247a565b825250602083015182811115612a3f578485fd5b612a4b8782860161247a565b602083015250604083015182811115612a62578485fd5b612a6e8782860161247a565b604083015250612a8060608401612558565b6060820152612a916080840161256c565b608082015260a083015182811115612aa7578485fd5b612ab38782860161247a565b60a083015250612ac560c08401612302565b60c082015260e083015182811115612adb578485fd5b612ae78782860161247a565b60e0830152506101008084015183811115612b00578586fd5b612b0c8882870161247a565b8284015250506101208084015183811115612b25578586fd5b612b318882870161247a565b918301919091525095945050505050565b600060208284031215612b53578081fd5b5051919050565b6000815180845260208085019450808401835b83811015612b925781516001600160a01b031687529582019590820190600101612b6d565b509495945050505050565b60098110612bad57612bad612fc7565b9052565b60008151808452612bc9816020860160208601612f34565b601f01601f19169290920160200192915050565b6001600160a01b0381511682526000602082015160e06020850152612c0560e0850182612bb1565b905060408301518482036040860152612c1e8282612bb1565b91505060608301518482036060860152612c388282612bb1565b91505060808301518482036080860152612c528282612bb1565b91505060a0830151612c6760a0860182612b9d565b5060c083015184820360c086015280518252602081015160606020840152612c926060840182612b5a565b90506040820151915082810360408401526121c98183612b5a565b6001600160a01b0383168152604081016125a06020830184612b9d565b6001600160a01b0385168152836020820152608060408201526000612cf26080830185612bdd565b9050821515606083015295945050505050565b6020815260006125a06020830184612b5a565b60208101600c8310612d2c57612d2c612fc7565b91905290565b6020815260006125a06020830184612bdd565b602081526000825160606020840152612d616080840182612bb1565b90506020840151601f19848303016040850152612d7e8282612bb1565b915050604084015160608401528091505092915050565b604051610220810167ffffffffffffffff81118282101715612db957612db9612fdd565b60405290565b60405160e0810167ffffffffffffffff81118282101715612db957612db9612fdd565b604051610140810167ffffffffffffffff81118282101715612db957612db9612fdd565b604051601f8201601f1916810167ffffffffffffffff81118282101715612e2f57612e2f612fdd565b604052919050565b600067ffffffffffffffff821115612e5157612e51612fdd565b5060051b60200190565b600067ffffffffffffffff821115612e7557612e75612fdd565b50601f01601f191660200190565b60008219821115612e9657612e96612f9b565b500190565b600082612eaa57612eaa612fb1565b500490565b600063ffffffff80841680612ec657612ec6612fb1565b92169190910492915050565b6000816000190483118215151615612eec57612eec612f9b565b500290565b600063ffffffff80831681851681830481118215151615612f1457612f14612f9b565b02949350505050565b600082821015612f2f57612f2f612f9b565b500390565b60005b83811015612f4f578181015183820152602001612f37565b83811115611c9a5750506000910152565b600181811c90821680612f7457607f821691505b60208210811415612f9557634e487b7160e01b600052602260045260246000fd5b50919050565b634e487b7160e01b600052601160045260246000fd5b634e487b7160e01b600052601260045260246000fd5b634e487b7160e01b600052602160045260246000fd5b634e487b7160e01b600052604160045260246000fd5b6001600160a01b038116811461150357600080fd5b801515811461150357600080fdfea264697066735822122083c4ad34972b48b142b04b17318ae239bbf2ab598ac2b44260ffa9d596e4d91864736f6c63430008040033",
    "linkReferences": {},
    "deployedLinkReferences": {}
}