{
  "_format": "hh-sol-artifact-1",
  "contractName": "Orders",
  "sourceName": "contracts/Orders.sol",
  "abi": [
    {
      "anonymous": false,
      "inputs": [
        {
          "indexed": true,
          "internalType": "address",
          "name": "consumer",
          "type": "address"
        },
        {
          "indexed": true,
          "internalType": "uint256",
          "name": "orderId",
          "type": "uint256"
        },
        {
          "indexed": false,
          "internalType": "uint256",
          "name": "change",
          "type": "uint256"
        }
      ],
      "name": "OrderChangedWithdrawn",
      "type": "event"
    },
    {
      "anonymous": false,
      "inputs": [
        {
          "indexed": true,
          "internalType": "address",
          "name": "consumer",
          "type": "address"
        },
        {
          "indexed": true,
          "internalType": "bytes32",
          "name": "externalId",
          "type": "bytes32"
        },
        {
          "indexed": true,
          "internalType": "uint256",
          "name": "offerId",
          "type": "uint256"
        },
        {
          "indexed": false,
          "internalType": "uint256",
          "name": "orderId",
          "type": "uint256"
        }
      ],
      "name": "OrderCreated",
      "type": "event"
    },
    {
      "anonymous": false,
      "inputs": [
        {
          "indexed": true,
          "internalType": "address",
          "name": "consumer",
          "type": "address"
        },
        {
          "indexed": true,
          "internalType": "uint256",
          "name": "orderId",
          "type": "uint256"
        },
        {
          "indexed": false,
          "internalType": "uint256",
          "name": "amount",
          "type": "uint256"
        }
      ],
      "name": "OrderDepositRefilled",
      "type": "event"
    },
    {
      "anonymous": false,
      "inputs": [
        {
          "indexed": true,
          "internalType": "address",
          "name": "tokenReceiver",
          "type": "address"
        },
        {
          "indexed": true,
          "internalType": "uint256",
          "name": "orderId",
          "type": "uint256"
        },
        {
          "indexed": false,
          "internalType": "uint256",
          "name": "profit",
          "type": "uint256"
        }
      ],
      "name": "OrderProfitWithdrawn",
      "type": "event"
    },
    {
      "anonymous": false,
      "inputs": [
        {
          "indexed": true,
          "internalType": "address",
          "name": "consumer",
          "type": "address"
        },
        {
          "indexed": true,
          "internalType": "uint256",
          "name": "orderId",
          "type": "uint256"
        }
      ],
      "name": "OrderStarted",
      "type": "event"
    },
    {
      "anonymous": false,
      "inputs": [
        {
          "indexed": true,
          "internalType": "uint256",
          "name": "orderId",
          "type": "uint256"
        },
        {
          "indexed": true,
          "internalType": "enum OrderStatus",
          "name": "status",
          "type": "uint8"
        }
      ],
      "name": "OrderStatusUpdated",
      "type": "event"
    },
    {
      "anonymous": false,
      "inputs": [
        {
          "indexed": true,
          "internalType": "address",
          "name": "consumer",
          "type": "address"
        },
        {
          "indexed": true,
          "internalType": "bytes32",
          "name": "externalId",
          "type": "bytes32"
        },
        {
          "indexed": true,
          "internalType": "uint256",
          "name": "subOfferId",
          "type": "uint256"
        },
        {
          "indexed": false,
          "internalType": "uint256",
          "name": "subOrderId",
          "type": "uint256"
        },
        {
          "indexed": false,
          "internalType": "uint256",
          "name": "parentOrderId",
          "type": "uint256"
        }
      ],
      "name": "SubOrderCreated",
      "type": "event"
    },
    {
      "inputs": [
        {
          "internalType": "uint256",
          "name": "orderId",
          "type": "uint256"
        }
      ],
      "name": "cancelOrder",
      "outputs": [],
      "stateMutability": "nonpayable",
      "type": "function"
    },
    {
      "inputs": [
        {
          "internalType": "uint256",
          "name": "orderId",
          "type": "uint256"
        },
        {
          "internalType": "enum OrderStatus",
          "name": "status",
          "type": "uint8"
        },
        {
          "internalType": "string",
          "name": "encryptedResult",
          "type": "string"
        },
        {
          "internalType": "string",
          "name": "encryptedError",
          "type": "string"
        }
      ],
      "name": "completeOrder",
      "outputs": [],
      "stateMutability": "nonpayable",
      "type": "function"
    },
    {
      "inputs": [
        {
          "components": [
            {
              "internalType": "uint256",
              "name": "offerId",
              "type": "uint256"
            },
            {
              "internalType": "string",
              "name": "resultPublicKey",
              "type": "string"
            },
            {
              "internalType": "string",
              "name": "encryptedRequirements",
              "type": "string"
            },
            {
              "internalType": "string",
              "name": "encryptedArgs",
              "type": "string"
            },
            {
              "internalType": "enum OrderStatus",
              "name": "status",
              "type": "uint8"
            },
            {
              "components": [
                {
                  "internalType": "uint256",
                  "name": "slots",
                  "type": "uint256"
                },
                {
                  "internalType": "uint256[]",
                  "name": "inputOffers",
                  "type": "uint256[]"
                },
                {
                  "internalType": "uint256[]",
                  "name": "selectedOffers",
                  "type": "uint256[]"
                }
              ],
              "internalType": "struct OrderArgs",
              "name": "args",
              "type": "tuple"
            }
          ],
          "internalType": "struct OrderInfo",
          "name": "info",
          "type": "tuple"
        },
        {
          "internalType": "uint256",
          "name": "holdDeposit",
          "type": "uint256"
        },
        {
          "internalType": "bool",
          "name": "suspended",
          "type": "bool"
        },
        {
          "internalType": "bytes32",
          "name": "externalId",
          "type": "bytes32"
        }
      ],
      "name": "createOrder",
      "outputs": [],
      "stateMutability": "nonpayable",
      "type": "function"
    },
    {
      "inputs": [
        {
          "internalType": "uint256",
          "name": "parentOrderId",
          "type": "uint256"
        },
        {
          "components": [
            {
              "internalType": "uint256",
              "name": "offerId",
              "type": "uint256"
            },
            {
              "internalType": "string",
              "name": "resultPublicKey",
              "type": "string"
            },
            {
              "internalType": "string",
              "name": "encryptedRequirements",
              "type": "string"
            },
            {
              "internalType": "string",
              "name": "encryptedArgs",
              "type": "string"
            },
            {
              "internalType": "enum OrderStatus",
              "name": "status",
              "type": "uint8"
            },
            {
              "components": [
                {
                  "internalType": "uint256",
                  "name": "slots",
                  "type": "uint256"
                },
                {
                  "internalType": "uint256[]",
                  "name": "inputOffers",
                  "type": "uint256[]"
                },
                {
                  "internalType": "uint256[]",
                  "name": "selectedOffers",
                  "type": "uint256[]"
                }
              ],
              "internalType": "struct OrderArgs",
              "name": "args",
              "type": "tuple"
            }
          ],
          "internalType": "struct OrderInfo",
          "name": "suborderInfo",
          "type": "tuple"
        },
        {
          "internalType": "bool",
          "name": "blockParentOrder",
          "type": "bool"
        },
        {
          "internalType": "bytes32",
          "name": "externalId",
          "type": "bytes32"
        }
      ],
      "name": "createSubOrder",
      "outputs": [],
      "stateMutability": "nonpayable",
      "type": "function"
    },
    {
      "inputs": [
        {
          "internalType": "uint256",
          "name": "orderId",
          "type": "uint256"
        }
      ],
      "name": "getOrder",
      "outputs": [
        {
          "internalType": "address",
          "name": "",
          "type": "address"
        },
        {
          "components": [
            {
              "internalType": "uint256",
              "name": "offerId",
              "type": "uint256"
            },
            {
              "internalType": "string",
              "name": "resultPublicKey",
              "type": "string"
            },
            {
              "internalType": "string",
              "name": "encryptedRequirements",
              "type": "string"
            },
            {
              "internalType": "string",
              "name": "encryptedArgs",
              "type": "string"
            },
            {
              "internalType": "enum OrderStatus",
              "name": "status",
              "type": "uint8"
            },
            {
              "components": [
                {
                  "internalType": "uint256",
                  "name": "slots",
                  "type": "uint256"
                },
                {
                  "internalType": "uint256[]",
                  "name": "inputOffers",
                  "type": "uint256[]"
                },
                {
                  "internalType": "uint256[]",
                  "name": "selectedOffers",
                  "type": "uint256[]"
                }
              ],
              "internalType": "struct OrderArgs",
              "name": "args",
              "type": "tuple"
            }
          ],
          "internalType": "struct OrderInfo",
          "name": "",
          "type": "tuple"
        },
        {
          "components": [
            {
              "internalType": "string",
              "name": "encryptedResult",
              "type": "string"
            },
            {
              "internalType": "string",
              "name": "encryptedError",
              "type": "string"
            },
            {
              "internalType": "uint256",
              "name": "orderPrice",
              "type": "uint256"
            }
          ],
          "internalType": "struct OrderResult",
          "name": "",
          "type": "tuple"
        }
      ],
      "stateMutability": "view",
      "type": "function"
    },
    {
      "inputs": [
        {
          "internalType": "uint256",
          "name": "orderId",
          "type": "uint256"
        }
      ],
      "name": "getOrderChangeWithdrawn",
      "outputs": [
        {
          "internalType": "bool",
          "name": "",
          "type": "bool"
        }
      ],
      "stateMutability": "view",
      "type": "function"
    },
    {
      "inputs": [
        {
          "internalType": "uint256",
          "name": "orderId",
          "type": "uint256"
        }
      ],
      "name": "getOrderHoldDeposit",
      "outputs": [
        {
          "internalType": "uint256",
          "name": "",
          "type": "uint256"
        }
      ],
      "stateMutability": "view",
      "type": "function"
    },
    {
      "inputs": [
        {
          "internalType": "uint256",
          "name": "orderId",
          "type": "uint256"
        }
      ],
      "name": "getOrderOrigins",
      "outputs": [
        {
          "components": [
            {
              "internalType": "uint256",
              "name": "createdDate",
              "type": "uint256"
            },
            {
              "internalType": "address",
              "name": "createdBy",
              "type": "address"
            },
            {
              "internalType": "uint256",
              "name": "modifiedDate",
              "type": "uint256"
            },
            {
              "internalType": "address",
              "name": "modifiedBy",
              "type": "address"
            }
          ],
          "internalType": "struct Origins",
          "name": "",
          "type": "tuple"
        }
      ],
      "stateMutability": "view",
      "type": "function"
    },
    {
      "inputs": [
        {
          "internalType": "uint256",
          "name": "orderId",
          "type": "uint256"
        }
      ],
      "name": "getOrderParentOrder",
      "outputs": [
        {
          "internalType": "uint256",
          "name": "",
          "type": "uint256"
        }
      ],
      "stateMutability": "view",
      "type": "function"
    },
    {
      "inputs": [
        {
          "internalType": "uint256",
          "name": "orderId",
          "type": "uint256"
        }
      ],
      "name": "getOrderPrice",
      "outputs": [
        {
          "internalType": "uint256",
          "name": "",
          "type": "uint256"
        }
      ],
      "stateMutability": "view",
      "type": "function"
    },
    {
      "inputs": [
        {
          "internalType": "uint256",
          "name": "orderId",
          "type": "uint256"
        }
      ],
      "name": "getOrderProfitWithdrawn",
      "outputs": [
        {
          "internalType": "bool",
          "name": "",
          "type": "bool"
        }
      ],
      "stateMutability": "view",
      "type": "function"
    },
    {
      "inputs": [
        {
          "internalType": "uint256",
          "name": "orderId",
          "type": "uint256"
        }
      ],
      "name": "getOrderSubOrders",
      "outputs": [
        {
          "internalType": "uint256[]",
          "name": "",
          "type": "uint256[]"
        }
      ],
      "stateMutability": "view",
      "type": "function"
    },
    {
      "inputs": [],
      "name": "getOrdersCount",
      "outputs": [
        {
          "internalType": "uint256",
          "name": "",
          "type": "uint256"
        }
      ],
      "stateMutability": "view",
      "type": "function"
    },
    {
      "inputs": [
        {
          "internalType": "uint256",
          "name": "orderId",
          "type": "uint256"
        }
      ],
      "name": "isOrderCompleted",
      "outputs": [
        {
          "internalType": "bool",
          "name": "",
          "type": "bool"
        }
      ],
      "stateMutability": "view",
      "type": "function"
    },
    {
      "inputs": [
        {
          "internalType": "uint256",
          "name": "orderId",
          "type": "uint256"
        }
      ],
      "name": "isOrderReadyForProcessing",
      "outputs": [
        {
          "internalType": "bool",
          "name": "",
          "type": "bool"
        }
      ],
      "stateMutability": "view",
      "type": "function"
    },
    {
      "inputs": [
        {
          "internalType": "uint256",
          "name": "orderId",
          "type": "uint256"
        }
      ],
      "name": "isOrderValid",
      "outputs": [
        {
          "internalType": "bool",
          "name": "",
          "type": "bool"
        }
      ],
      "stateMutability": "view",
      "type": "function"
    },
    {
      "inputs": [
        {
          "internalType": "uint256",
          "name": "orderId",
          "type": "uint256"
        }
      ],
      "name": "processOrder",
      "outputs": [],
      "stateMutability": "nonpayable",
      "type": "function"
    },
    {
      "inputs": [
        {
          "internalType": "uint256",
          "name": "orderId",
          "type": "uint256"
        },
        {
          "internalType": "uint256",
          "name": "amount",
          "type": "uint256"
        }
      ],
      "name": "refillOrder",
      "outputs": [],
      "stateMutability": "nonpayable",
      "type": "function"
    },
    {
      "inputs": [
        {
          "internalType": "uint256",
          "name": "orderId",
          "type": "uint256"
        }
      ],
      "name": "startOrder",
      "outputs": [],
      "stateMutability": "nonpayable",
      "type": "function"
    },
    {
      "inputs": [
        {
          "internalType": "uint256",
          "name": "orderId",
          "type": "uint256"
        },
        {
          "internalType": "uint256",
          "name": "orderPrice",
          "type": "uint256"
        }
      ],
      "name": "updateOrderPrice",
      "outputs": [],
      "stateMutability": "nonpayable",
      "type": "function"
    },
    {
      "inputs": [
        {
          "internalType": "uint256",
          "name": "orderId",
          "type": "uint256"
        }
      ],
      "name": "withdrawChange",
      "outputs": [],
      "stateMutability": "nonpayable",
      "type": "function"
    },
    {
      "inputs": [
        {
          "internalType": "uint256",
          "name": "orderId",
          "type": "uint256"
        }
      ],
      "name": "withdrawProfit",
      "outputs": [],
      "stateMutability": "nonpayable",
      "type": "function"
    }
  ],
  "bytecode": "0x608060405234801561001057600080fd5b50614931806100206000396000f3fe608060405234801561001057600080fd5b50600436106101825760003560e01c80637a62b924116100d8578063ab74e6421161008c578063d09ef24111610066578063d09ef241146103f2578063d82a2bea14610414578063df305d591461042757600080fd5b8063ab74e642146103c4578063b5b3b051146103d7578063c9bd9ff0146103df57600080fd5b8063835055c3116100bd578063835055c314610349578063920fba4f1461039e5780639959a56b146103b157600080fd5b80637a62b924146102fe5780637d41fdd91461033657600080fd5b80635e9e78d01161013a5780636eb691f4116101145780636eb691f41461027b578063752895dd146102ab578063779e423f146102cb57600080fd5b80635e9e78d0146102325780635ff951d9146102455780636261256b1461025857600080fd5b80632e5187fb1161016b5780632e5187fb146101f7578063514fcac71461020c578063552f9d101461021f57600080fd5b80630f251358146101875780631a02dc92146101ca575b600080fd5b6101b76101953660046140d2565b60009081526000805160206148dc83398151915260205260409020600e015490565b6040519081526020015b60405180910390f35b6101b76101d83660046140d2565b60009081526000805160206148dc833981519152602052604090205490565b61020a6102053660046140d2565b61043a565b005b61020a61021a3660046140d2565b610776565b61020a61022d3660046143d8565b610a42565b61020a610240366004614439565b610f90565b61020a61025336600461445b565b61129a565b61026b6102663660046140d2565b6116bd565b60405190151581526020016101c1565b6101b76102893660046140d2565b60009081526000805160206148dc833981519152602052604090206019015490565b6102be6102b93660046140d2565b611721565b6040516101c191906144d9565b61026b6102d93660046140d2565b60009081526000805160206148dc833981519152602052604090206014015460ff1690565b61026b61030c3660046140d2565b60009081526000805160206148dc8339815191526020526040902060140154610100900460ff1690565b61020a6103443660046140d2565b611798565b61035c6103573660046140d2565b611936565b6040516101c19190815181526020808301516001600160a01b039081169183019190915260408084015190830152606092830151169181019190915260800190565b61020a6103ac36600461451d565b6119c1565b61020a6103bf3660046140d2565b611e4c565b61026b6103d23660046140d2565b6120f1565b6101b7612174565b61026b6103ed3660046140d2565b6121ad565b6104056104003660046140d2565b6121e3565b6040516101c193929190614651565b61020a6104223660046140d2565b612667565b61020a610435366004614439565b612b86565b60008181526000805160206148dc83398151915260205260408120829150600030600483810154604051634e6e04f760e01b8152918201526001600160a01b039190911690634e6e04f79060240160206040518083038186803b1580156104a057600080fd5b505afa1580156104b4573d6000803e3d6000fd5b505050506040513d601f19601f820116820180604052508101906104d89190614757565b905060003060405163071ddd6760e11b81526001600160a01b0384811660048301529190911690630e3bbace9060240160206040518083038186803b15801561052057600080fd5b505afa158015610534573d6000803e3d6000fd5b505050506040513d601f19601f820116820180604052508101906105589190614757565b90506001600160a01b03811633146105c15760405162461bcd60e51b815260206004820152602160248201527f4f6e6c7920617661696c61626c6520666f7220616374696f6e206163636f756e6044820152601d60fa1b60648201526084015b60405180910390fd5b6105ca846116bd565b6106165760405162461bcd60e51b815260206004820152601960248201527f4f72646572206861736e2774206265656e20737461727465640000000000000060448201526064016105b8565b61061f856120f1565b156106925760405162461bcd60e51b815260206004820152602c60248201527f436f6d706c65746564206f726465722063616e27742062652072657475726e6560448201527f6420746f2070726f63657373000000000000000000000000000000000000000060648201526084016105b8565b60008581526000805160206148dc8339815191526020526040902060088101546106c09060ff166001612d8b565b6107315760405162461bcd60e51b8152602060048201526024808201527f4e6f7420616c6c6f77656420746f207365742050726f63657373696e6720737460448201527f617475730000000000000000000000000000000000000000000000000000000060648201526084016105b8565b6107538160100142600282015560030180546001600160a01b03191633179055565b61075e866001612e80565b600281015461076e574260028201555b505050505050565b60008181526000805160206148dc8339815191526020526040902060018101548291906001600160a01b031633146107f05760405162461bcd60e51b815260206004820152601b60248201527f417661696c61626c65206f6e6c7920666f7220636f6e73756d6572000000000060448201526064016105b8565b6107f9836120f1565b1561086c5760405162461bcd60e51b815260206004820152602160248201527f436f6d706c65746564206f726465722063616e27742062652063616e63656c6560448201527f640000000000000000000000000000000000000000000000000000000000000060648201526084016105b8565b60008381526000805160206148dc833981519152602052604081209050306004828101546040517f8442090a000000000000000000000000000000000000000000000000000000008152918201526001600160a01b039190911690638442090a9060240160206040518083038186803b1580156108e857600080fd5b505afa1580156108fc573d6000803e3d6000fd5b505050506040513d601f19601f820116820180604052508101906109209190614774565b1580156109305750600281015415155b1561094657610940846002612e80565b50505050565b6109688160100142600282015560030180546001600160a01b03191633179055565b610973846003612e80565b6002810154610989576000600e90910155505050565b306004828101546002840154600e8501546040517fb98c9f3e00000000000000000000000000000000000000000000000000000000815293840192909252602483015260448201526001600160a01b03919091169063b98c9f3e9060640160206040518083038186803b1580156109ff57600080fd5b505afa158015610a13573d6000803e3d6000fd5b505050506040513d601f19601f82011682018060405250810190610a379190614791565b600e90910155505050565b60008481526000805160206148dc833981519152602052604081209050600030600483810154604051634e6e04f760e01b8152918201526001600160a01b039190911690634e6e04f79060240160206040518083038186803b158015610aa757600080fd5b505afa158015610abb573d6000803e3d6000fd5b505050506040513d601f19601f82011682018060405250810190610adf9190614757565b905060003060405163071ddd6760e11b81526001600160a01b0384811660048301529190911690630e3bbace9060240160206040518083038186803b158015610b2757600080fd5b505afa158015610b3b573d6000803e3d6000fd5b505050506040513d601f19601f82011682018060405250810190610b5f9190614757565b90506000610b6c886116bd565b9050808015610b835750336001600160a01b038316145b80610ba3575080158015610ba3575060018401546001600160a01b031633145b610bef5760405162461bcd60e51b815260206004820152600d60248201527f4163636573732064656e6965640000000000000000000000000000000000000060448201526064016105b8565b308751604051634202334f60e01b815260048101919091523360248201526001600160a01b039190911690634202334f9060440160206040518083038186803b158015610c3b57600080fd5b505afa158015610c4f573d6000803e3d6000fd5b505050506040513d601f19601f82011682018060405250810190610c739190614774565b610cad5760405162461bcd60e51b815260206004820152600b60248201526a139bdd08185b1b1bddd95960aa1b60448201526064016105b8565b8651604051636165696f60e01b815260048101919091526000903090636165696f9060240160206040518083038186803b158015610cea57600080fd5b505afa158015610cfe573d6000803e3d6000fd5b505050506040513d601f19601f82011682018060405250810190610d2291906147aa565b90506001856015016000836002811115610d3e57610d3e6145bb565b6002811115610d4f57610d4f6145bb565b81526020019081526020016000206000828254610d6c91906147e1565b90915550508751610d7f90869083612f06565b50506000610d8a3090565b87516040516308e161a160e21b81526001600160a01b039290921691632385868491610dbc9160040190815260200190565b60206040518083038186803b158015610dd457600080fd5b505afa158015610de8573d6000803e3d6000fd5b505050506040513d601f19601f82011682018060405250810190610e0c9190614791565b905060008080610e1d8a8585613754565b6001808a015481830180546001600160a01b0319166001600160a01b039092169190911790558d825560038a0180549182018155600090815260209020018290559092509050610e856010880142600282015560030180546001600160a01b03191633179055565b8387601901541015610ed95760405162461bcd60e51b815260206004820152601f60248201527f4e6f7420656e6f75676820706172656e74206f72646572206465706f7369740060448201526064016105b8565b83876019016000828254610eed91906147f9565b9250508190555083816019016000828254610f0891906147e1565b90915550508815610f44576000828152601788016020526040812060019081905560188901805491929091610f3e9084906147e1565b90915550505b895160408051848152602081018e90528a9133917f030367b0ebee1bb922fc0ad998a7ec9a2aa0d7db72ab15b806b55acaf1dca46c910160405180910390a45050505050505050505050565b60008281526000805160206148dc83398151915260205260408120839150600030600483810154604051634e6e04f760e01b8152918201526001600160a01b039190911690634e6e04f79060240160206040518083038186803b158015610ff657600080fd5b505afa15801561100a573d6000803e3d6000fd5b505050506040513d601f19601f8201168201806040525081019061102e9190614757565b905060003060405163071ddd6760e11b81526001600160a01b0384811660048301529190911690630e3bbace9060240160206040518083038186803b15801561107657600080fd5b505afa15801561108a573d6000803e3d6000fd5b505050506040513d601f19601f820116820180604052508101906110ae9190614757565b90506001600160a01b03811633146111125760405162461bcd60e51b815260206004820152602160248201527f4f6e6c7920617661696c61626c6520666f7220616374696f6e206163636f756e6044820152601d60fa1b60648201526084016105b8565b61111b846116bd565b6111675760405162461bcd60e51b815260206004820152601960248201527f4f72646572206861736e2774206265656e20737461727465640000000000000060448201526064016105b8565b611170866120f1565b156111bd5760405162461bcd60e51b815260206004820181905260248201527f436f6d706c65746564206f726465722063616e2774206265207570646174656460448201526064016105b8565b60008681526000805160206148dc833981519152602052604090206008808201546111ed9160ff90911690612d8b565b61125f5760405162461bcd60e51b815260206004820152602a60248201527f43616e27742075706461746520707269636520696e2063757272656e74206f7260448201527f646572207374617475730000000000000000000000000000000000000000000060648201526084016105b8565b6112818160100142600282015560030180546001600160a01b03191633179055565b61128c876008612e80565b600e01949094555050505050565b60008481526000805160206148dc83398151915260205260408120859150600030600483810154604051634e6e04f760e01b8152918201526001600160a01b039190911690634e6e04f79060240160206040518083038186803b15801561130057600080fd5b505afa158015611314573d6000803e3d6000fd5b505050506040513d601f19601f820116820180604052508101906113389190614757565b905060003060405163071ddd6760e11b81526001600160a01b0384811660048301529190911690630e3bbace9060240160206040518083038186803b15801561138057600080fd5b505afa158015611394573d6000803e3d6000fd5b505050506040513d601f19601f820116820180604052508101906113b89190614757565b90506001600160a01b038116331461141c5760405162461bcd60e51b815260206004820152602160248201527f4f6e6c7920617661696c61626c6520666f7220616374696f6e206163636f756e6044820152601d60fa1b60648201526084016105b8565b611425846116bd565b6114715760405162461bcd60e51b815260206004820152601960248201527f4f72646572206861736e2774206265656e20737461727465640000000000000060448201526064016105b8565b61147a886120f1565b156114c75760405162461bcd60e51b815260206004820152601160248201527f416c726561647920636f6d706c6574656400000000000000000000000000000060448201526064016105b8565b60058760088111156114db576114db6145bb565b14806114f8575060048760088111156114f6576114f66145bb565b145b61156a5760405162461bcd60e51b815260206004820152602b60248201527f43616e20636f6d706c657465206f6e6c7920776974682073746174757320457260448201527f726f72206f7220446f6e6500000000000000000000000000000000000000000060648201526084016105b8565b60008881526000805160206148dc833981519152602052604081209050600160088083015460ff16908111156115a2576115a26145bb565b14806115c4575060088181015460ff16818111156115c2576115c26145bb565b145b6116105760405162461bcd60e51b815260206004820181905260248201527f43616e277420636f6d706c657465206265666f72652070726f63657373696e6760448201526064016105b8565b6116328160100142600282015560030180546001600160a01b03191633179055565b865161164790600c83019060208a0190613f97565b50855161165d90600d8301906020890190613f97565b506005886008811115611672576116726145bb565b141561168a5760148101805461ff0019166101001790555b6116948989612e80565b6116b28960058a60088111156116ac576116ac6145bb565b14613d0d565b505050505050505050565b60008181526000805160206148dc83398151915260205260408120600760088083015460ff16908111156116f3576116f36145bb565b1415801561171a5750600660088083015460ff1690811115611717576117176145bb565b14155b9392505050565b60008181526000805160206148dc83398151915260205260408120606091906003810180546040805160208084028201810190925282815293945083018282801561178b57602002820191906000526020600020905b815481526020019060010190808311611777575b5050505050915050919050565b60008181526000805160206148dc8339815191526020526040902060018101548291906001600160a01b031633146118125760405162461bcd60e51b815260206004820152601b60248201527f417661696c61626c65206f6e6c7920666f7220636f6e73756d6572000000000060448201526064016105b8565b60008381526000805160206148dc833981519152602052604081209050600760088083015460ff169081111561184a5761184a6145bb565b146118975760405162461bcd60e51b815260206004820152601760248201527f4f72646572206d7573742062652073757370656e64656400000000000000000060448201526064016105b8565b6118b98160100142600282015560030180546001600160a01b03191633179055565b6018810154806118d65760088201805460ff1916905560006118d9565b60065b60088084018054909160ff199091169060019084908111156118fd576118fd6145bb565b0217905550604051859033907fe83be2bd6985a0345b14c74f91632c816560fb0543defd73982467563c4b598990600090a35050505050565b60408051608081018252600080825260208201819052918101829052606081018290529061197c8360009081526000805160206148dc8339815191526020526040902090565b604080516080810182526010830154815260118301546001600160a01b0390811660208301526012840154928201929092526013909201541660608201529392505050565b33308551604051634202334f60e01b815260048101919091526001600160a01b0383811660248301529190911690634202334f9060440160206040518083038186803b158015611a1057600080fd5b505afa158015611a24573d6000803e3d6000fd5b505050506040513d601f19601f82011682018060405250810190611a489190614774565b611a825760405162461bcd60e51b815260206004820152600b60248201526a139bdd08185b1b1bddd95960aa1b60448201526064016105b8565b8451604051631e5dd86b60e01b81523091631e5dd86b91611aa99190600090600401614810565b60206040518083038186803b158015611ac157600080fd5b505afa158015611ad5573d6000803e3d6000fd5b505050506040513d601f19601f82011682018060405250810190611af99190614774565b15611b465760405162461bcd60e51b815260206004820181905260248201527f4f6666657220646973616c6c6f77207374616e64616c6f6e65206f726465727360448201526064016105b8565b84516040516308e161a160e21b81526004810191909152600090309063238586849060240160206040518083038186803b158015611b8357600080fd5b505afa158015611b97573d6000803e3d6000fd5b505050506040513d601f19601f82011682018060405250810190611bbb9190614791565b905080851015611bc9578094505b6040517f897ce7cf000000000000000000000000000000000000000000000000000000008152600090309063897ce7cf90611c08908490600401614834565b60206040518083038186803b158015611c2057600080fd5b505afa158015611c34573d6000803e3d6000fd5b505050506040513d601f19601f82011682018060405250810190611c589190614791565b905080861015611c66578095505b611c6e613e08565b604051636eb1769f60e11b81526001600160a01b038581166004830152306024830152919091169063dd62ed3e9060440160206040518083038186803b158015611cb757600080fd5b505afa158015611ccb573d6000803e3d6000fd5b505050506040513d601f19601f82011682018060405250810190611cef9190614791565b861115611d4a5760405162461bcd60e51b8152602060048201526024808201527f416c6c6f77656420746f6b656e73206c657373207468616e20686f6c644465706044820152631bdcda5d60e21b60648201526084016105b8565b611d52613e08565b6040516323b872dd60e01b81526001600160a01b0385811660048301523060248301526044820189905291909116906323b872dd90606401602060405180830381600087803b158015611da457600080fd5b505af1158015611db8573d6000803e3d6000fd5b505050506040513d601f19601f82011682018060405250810190611ddc9190614774565b50600080611deb898989613754565b91509150878160190181905550886000015186866001600160a01b03167fcdad6ab97fde7ccd3b74637bbb09ac75c9a4bf8b5684d210c9e61869bc67ac9b85604051611e3991815260200190565b60405180910390a4505050505050505050565b60008181526000805160206148dc83398151915260205260409020601481015460ff1615611ebc5760405162461bcd60e51b815260206004820152601860248201527f4368616e676520616c72656164792077697468647261776e000000000000000060448201526064016105b8565b60018101546001600160a01b03163314611f3e5760405162461bcd60e51b815260206004820152602160248201527f417661696c61626c65206f6e6c7920666f72204f7264657220636f6e73756d6560448201527f720000000000000000000000000000000000000000000000000000000000000060648201526084016105b8565b611f47826120f1565b611fa45760405162461bcd60e51b815260206004820152602860248201527f57697468647261776e20617661696c61626c65207768656e206f7264657220636044820152671bdb5c1b195d195960c21b60648201526084016105b8565b6014810154600090610100900460ff1615611fc0576000611fc6565b600e8201545b90506000818360190154611fda91906147f9565b9050611fe4613e08565b60018401546040517fa9059cbb0000000000000000000000000000000000000000000000000000000081526001600160a01b0391821660048201526024810184905291169063a9059cbb90604401602060405180830381600087803b15801561204c57600080fd5b505af1158015612060573d6000803e3d6000fd5b505050506040513d601f19601f820116820180604052508101906120849190614774565b508083601901600082825461209991906147f9565b909155505060148301805460ff19166001179055604051849033907ff2104e05a949a0a0c1f4b384977e9a631ddeccc6a9f14f878ca3d0510c763601906120e39085815260200190565b60405180910390a350505050565b60008181526000805160206148dc83398151915260205260408120600460088083015460ff1690811115612127576121276145bb565b148061214b5750600560088083015460ff1690811115612149576121496145bb565b145b8061171a5750600360088083015460ff169081111561216c5761216c6145bb565b149392505050565b7ff68437791109705d2e300a0b0cfc858fedffc7438da1d9bf937e2f34afa0df768054600091906121a7906001906147f9565b91505090565b60007ff68437791109705d2e300a0b0cfc858fedffc7438da1d9bf937e2f34afa0df76821580159061171a575054909110919050565b60006121ed61401b565b61221160405180606001604052806060815260200160608152602001600081525090565b60008481526000805160206148dc8339815191526020526040812090508060010160009054906101000a90046001600160a01b03168160040182600c01816040518060c0016040529081600082015481526020016001820180546122749061484e565b80601f01602080910402602001604051908101604052809291908181526020018280546122a09061484e565b80156122ed5780601f106122c2576101008083540402835291602001916122ed565b820191906000526020600020905b8154815290600101906020018083116122d057829003601f168201915b505050505081526020016002820180546123069061484e565b80601f01602080910402602001604051908101604052809291908181526020018280546123329061484e565b801561237f5780601f106123545761010080835404028352916020019161237f565b820191906000526020600020905b81548152906001019060200180831161236257829003601f168201915b505050505081526020016003820180546123989061484e565b80601f01602080910402602001604051908101604052809291908181526020018280546123c49061484e565b80156124115780601f106123e657610100808354040283529160200191612411565b820191906000526020600020905b8154815290600101906020018083116123f457829003601f168201915b5050509183525050600482015460209091019060ff166008811115612438576124386145bb565b6008811115612449576124496145bb565b81526020016005820160405180606001604052908160008201548152602001600182018054806020026020016040519081016040528092919081815260200182805480156124b657602002820191906000526020600020905b8154815260200190600101908083116124a2575b505050505081526020016002820180548060200260200160405190810160405280929190818152602001828054801561250e57602002820191906000526020600020905b8154815260200190600101908083116124fa575b505050505081525050815250509150806040518060600160405290816000820180546125399061484e565b80601f01602080910402602001604051908101604052809291908181526020018280546125659061484e565b80156125b25780601f10612587576101008083540402835291602001916125b2565b820191906000526020600020905b81548152906001019060200180831161259557829003601f168201915b505050505081526020016001820180546125cb9061484e565b80601f01602080910402602001604051908101604052809291908181526020018280546125f79061484e565b80156126445780601f1061261957610100808354040283529160200191612644565b820191906000526020600020905b81548152906001019060200180831161262757829003601f168201915b505050505081526020016002820154815250509050935093509350509193909250565b60008181526000805160206148dc833981519152602052604081209050600030600483810154604051634e6e04f760e01b8152918201526001600160a01b039190911690634e6e04f79060240160206040518083038186803b1580156126cc57600080fd5b505afa1580156126e0573d6000803e3d6000fd5b505050506040513d601f19601f820116820180604052508101906127049190614757565b90506000306040517f0cc079f30000000000000000000000000000000000000000000000000000000081526001600160a01b0384811660048301529190911690630cc079f39060240160206040518083038186803b15801561276557600080fd5b505afa158015612779573d6000803e3d6000fd5b505050506040513d601f19601f8201168201806040525081019061279d9190614757565b600e8401549091506127ae856120f1565b61280b5760405162461bcd60e51b815260206004820152602860248201527f57697468647261776e20617661696c61626c65207768656e206f7264657220636044820152671bdb5c1b195d195960c21b60648201526084016105b8565b336001600160a01b038316146128895760405162461bcd60e51b815260206004820152603160248201527f417661696c61626c65206f6e6c7920666f722070726f766964657220746f6b6560448201527f6e2072656369766572206163636f756e7400000000000000000000000000000060648201526084016105b8565b6014840154610100900460ff16156128e35760405162461bcd60e51b815260206004820152601860248201527f50726f66697420616c72656164792077697468647261776e000000000000000060448201526064016105b8565b6128eb613e08565b6040517f095ea7b3000000000000000000000000000000000000000000000000000000008152306004820152602481018390526001600160a01b03919091169063095ea7b390604401602060405180830381600087803b15801561294e57600080fd5b505af1158015612962573d6000803e3d6000fd5b505050506040513d601f19601f820116820180604052508101906129869190614774565b50306040517f2ee409080000000000000000000000000000000000000000000000000000000081526001600160a01b038481166004830152602482018490529190911690632ee4090890604401600060405180830381600087803b1580156129ed57600080fd5b505af1158015612a01573d6000803e3d6000fd5b50505050612a0c3090565b6001600160a01b031663a25983e58383306001600160a01b031663897ce7cf60016040518263ffffffff1660e01b8152600401612a499190614834565b60206040518083038186803b158015612a6157600080fd5b505afa158015612a75573d6000803e3d6000fd5b505050506040513d601f19601f82011682018060405250810190612a999190614791565b6040517fffffffff0000000000000000000000000000000000000000000000000000000060e086901b1681526001600160a01b03909316600484015260248301919091526044820152606401600060405180830381600087803b158015612aff57600080fd5b505af1158015612b13573d6000803e3d6000fd5b5050505080846019016000828254612b2b91906147f9565b909155505060148401805461ff001916610100179055604051859033907fe2350354b45acad228120b59d977f2e487571e8d75fb3b74252a1034464449b890612b779085815260200190565b60405180910390a35050505050565b33612b8f613e08565b604051636eb1769f60e11b81526001600160a01b038381166004830152306024830152919091169063dd62ed3e9060440160206040518083038186803b158015612bd857600080fd5b505afa158015612bec573d6000803e3d6000fd5b505050506040513d601f19601f82011682018060405250810190612c109190614791565b821115612c855760405162461bcd60e51b815260206004820152602660248201527f416c6c6f77656420746f6b656e73206c657373207468616e20726566696c6c2060448201527f616d6f756e74000000000000000000000000000000000000000000000000000060648201526084016105b8565b612c8d613e08565b6040516323b872dd60e01b81526001600160a01b0383811660048301523060248301526044820185905291909116906323b872dd90606401602060405180830381600087803b158015612cdf57600080fd5b505af1158015612cf3573d6000803e3d6000fd5b505050506040513d601f19601f82011682018060405250810190612d179190614774565b5060008381526000805160206148dc83398151915260205260408120905082816019016000828254612d4991906147e1565b909155505060405183815284906001600160a01b038416907f5dd58c11f2973d8fca72f1cffb326b5af815e81232ff1e581a7d534344fad71f906020016120e3565b6000806002846008811115612da257612da26145bb565b148015612dc057506003836008811115612dbe57612dbe6145bb565b145b9050600080856008811115612dd757612dd76145bb565b1480612df457506001856008811115612df257612df26145bb565b145b80612e1057506008856008811115612e0e57612e0e6145bb565b145b8015612e2d57506001846008811115612e2b57612e2b6145bb565b145b905060006001866008811115612e4557612e456145bb565b148015612e6357506008856008811115612e6157612e616145bb565b145b90508280612e6e5750815b80612e765750805b9695505050505050565b60008281526000805160206148dc8339815191526020526040902060088082018054849260ff19909116906001908490811115612ebf57612ebf6145bb565b0217905550816008811115612ed657612ed66145bb565b60405184907fd9a86b644eb5f5b43cc8a700849852481080361c7a4b00ba646d1b46c5585f9590600090a3505050565b600030600485810154604051636165696f60e01b8152918201526001600160a01b039190911690636165696f9060240160206040518083038186803b158015612f4e57600080fd5b505afa158015612f62573d6000803e3d6000fd5b505050506040513d601f19601f82011682018060405250810190612f8691906147aa565b90506002816002811115612f9c57612f9c6145bb565b14156130105760405162461bcd60e51b815260206004820152602b60248201527f5375626f726465727320666f7220276f7574707574272067726f75702069732060448201527f6e6f7420616c6c6f77656400000000000000000000000000000000000000000060648201526084016105b8565b6002826002811115613024576130246145bb565b1480156130345750600b84015415155b1561310b576000805b600b86015481101561309357600b86018054600091908390811061306357613063614889565b9060005260206000200154905085811415613082576001925050613093565b5061308c8161489f565b905061303d565b5080613109576040805162461bcd60e51b81526020600482015260248101919091527f4f6666657220646f6573206e6f74207361746973667920706172656e74206f7260448201527f6465722073656c65637465644f66666572732073706563696669636174696f6e60648201526084016105b8565b505b600082600281111561311f5761311f6145bb565b14156132ea576000805b600a86015481101561327457600a86018054600091908390811061314f5761314f614889565b906000526020600020015490506131633090565b60405163cc04f00360e01b815260048101889052602481018390526001600160a01b03919091169063cc04f0039060440160206040518083038186803b1580156131ac57600080fd5b505afa1580156131c0573d6000803e3d6000fd5b505050506040513d601f19601f820116820180604052508101906131e49190614774565b6132565760405162461bcd60e51b815260206004820152603c60248201527f4f66666572207265737472696374696f6e7320636f6e666c696374732077697460448201527f6820706172656e74206f726465722073706563696669636174696f6e0000000060648201526084016105b8565b8581141561326357600192505b5061326d8161489f565b9050613129565b50806132e85760405162461bcd60e51b815260206004820152603d60248201527f4f6666657220646f6573206e6f74207361746973667920706172656e74206f7260448201527f64657220696e7075744f66666572732073706563696669636174696f6e00000060648201526084016105b8565b505b604051631e5dd86b60e01b81523090631e5dd86b90613310908690600290600401614810565b60206040518083038186803b15801561332857600080fd5b505afa15801561333c573d6000803e3d6000fd5b505050506040513d601f19601f820116820180604052508101906133609190614774565b156133f457600260009081526016850160205260409020546133f45760405162461bcd60e51b815260206004820152604160248201527f506172656e74206f726465722073706563696669636174696f6e20646f65732060448201527f6e6f742073617469736679207375626f66666572207265737472696374696f6e6064820152607360f81b608482015260a4016105b8565b604051631e5dd86b60e01b81523090631e5dd86b9061341a908690600390600401614810565b60206040518083038186803b15801561343257600080fd5b505afa158015613446573d6000803e3d6000fd5b505050506040513d601f19601f8201168201806040525081019061346a9190614774565b156134fe57600360009081526016850160205260409020546134fe5760405162461bcd60e51b815260206004820152604160248201527f506172656e74206f726465722073706563696669636174696f6e20646f65732060448201527f6e6f742073617469736679207375626f66666572207265737472696374696f6e6064820152607360f81b608482015260a4016105b8565b604051631e5dd86b60e01b81523090631e5dd86b90613524908690600190600401614810565b60206040518083038186803b15801561353c57600080fd5b505afa158015613550573d6000803e3d6000fd5b505050506040513d601f19601f820116820180604052508101906135749190614774565b1561360857600160009081526016850160205260409020546136085760405162461bcd60e51b815260206004820152604160248201527f506172656e74206f726465722073706563696669636174696f6e20646f65732060448201527f6e6f742073617469736679207375626f66666572207265737472696374696f6e6064820152607360f81b608482015260a4016105b8565b604051631e5dd86b60e01b81523090631e5dd86b9061362e908690600090600401614810565b60206040518083038186803b15801561364657600080fd5b505afa15801561365a573d6000803e3d6000fd5b505050506040513d601f19601f8201168201806040525081019061367e9190614774565b15610940573060048086015460405163cc04f00360e01b815291820186905260248201526001600160a01b03919091169063cc04f0039060440160206040518083038186803b1580156136d057600080fd5b505afa1580156136e4573d6000803e3d6000fd5b505050506040513d601f19601f820116820180604052508101906137089190614774565b6109405760405162461bcd60e51b815260206004820152601f60248201527f4f6666657220646973616c6c6f7720706172656e7420544545206f666665720060448201526064016105b8565b8251604051634e6e04f760e01b815260048101919091526000908190339082903090634e6e04f79060240160206040518083038186803b15801561379757600080fd5b505afa1580156137ab573d6000803e3d6000fd5b505050506040513d601f19601f820116820180604052508101906137cf9190614757565b87516040517fe51334fb0000000000000000000000000000000000000000000000000000000081526004810191909152909150309063e51334fb9060240160206040518083038186803b15801561382557600080fd5b505afa158015613839573d6000803e3d6000fd5b505050506040513d601f19601f8201168201806040525081019061385d9190614774565b6138a95760405162461bcd60e51b815260206004820152601460248201527f4f66666572206d7573742062652061637469766500000000000000000000000060448201526064016105b8565b306040517fded116690000000000000000000000000000000000000000000000000000000081526001600160a01b038381166004830152919091169063ded116699060240160206040518083038186803b15801561390657600080fd5b505afa15801561391a573d6000803e3d6000fd5b505050506040513d601f19601f8201168201806040525081019061393e9190614774565b6139965760405162461bcd60e51b8152602060048201526024808201527f4e6f7420656e6f7567682070726f7669646572207365637572697479206465706044820152631bdcda5d60e21b60648201526084016105b8565b60006139a0613e80565b60008181526000805160206148dc83398151915260205260408120919250906001810180546001600160a01b0319166001600160a01b0387161790558951600482019081556020808c015180519394508c93613a029260058701920190613f97565b5060408201518051613a1e916002840191602090910190613f97565b5060608201518051613a3a916003840191602090910190613f97565b50608082015160048201805460ff19166001836008811115613a5e57613a5e6145bb565b021790555060a08201518051600583019081556020808301518051613a899260068701920190614083565b5060408201518051613aa5916002840191602090910190614083565b50504260108501819055601185018054336001600160a01b03199182168117909255601287019290925560138601805490921617905550613ae4915050565b88516040517f3835b0d300000000000000000000000000000000000000000000000000000000815260048101919091523090633835b0d39060240160206040518083038186803b158015613b3757600080fd5b505afa158015613b4b573d6000803e3d6000fd5b505050506040513d601f19601f82011682018060405250810190613b6f91906148ba565b600f8201805460ff19166001836003811115613b8d57613b8d6145bb565b0217905550600e810188905586613ba5576000613ba8565b60075b60088083018054909160ff19909116906001908490811115613bcc57613bcc6145bb565b021790555060a0890151602001515115613cff5760005b8960a001516020015151811015613cfd5760008a60a00151602001518281518110613c1057613c10614889565b602002602001015190506001836016016000613c293090565b6001600160a01b0316633835b0d3856040518263ffffffff1660e01b8152600401613c5691815260200190565b60206040518083038186803b158015613c6e57600080fd5b505afa158015613c82573d6000803e3d6000fd5b505050506040513d601f19601f82011682018060405250810190613ca691906148ba565b6003811115613cb757613cb76145bb565b6003811115613cc857613cc86145bb565b81526020019081526020016000206000828254613ce591906147e1565b90915550613cf6915082905061489f565b9050613be3565b505b909890975095505050505050565b613d16826121ad565b613d625760405162461bcd60e51b815260206004820152600d60248201527f556e6b6e6f776e206f726465720000000000000000000000000000000000000060448201526064016105b8565b60008281526000805160206148dc833981519152602052604090208054613d8857505050565b805460009081526000805160206148dc8339815191526020526040812060008581526017820160205260408120546018830180549394509092839290613dcf9084906147f9565b9091555084905080613de357506018820154155b15613e01578254613e019085613dfa576000613ece565b6005613ece565b5050505050565b6000306001600160a01b03166321df0da76040518163ffffffff1660e01b815260040160206040518083038186803b158015613e4357600080fd5b505afa158015613e57573d6000803e3d6000fd5b505050506040513d601f19601f82011682018060405250810190613e7b9190614757565b905090565b7ff68437791109705d2e300a0b0cfc858fedffc7438da1d9bf937e2f34afa0df76805460009190613eb057600181555b805491506001816000613ec383866147e1565b925050819055505090565b60008281526000805160206148dc833981519152602052604090204260128201556013810180546001600160a01b0319163317905560006005836008811115613f1957613f196145bb565b1490506000600660088085015460ff1690811115613f3957613f396145bb565b148015613f5757506000846008811115613f5557613f556145bb565b145b90508180613f625750805b15613e015760088084018054869260ff19909116906001908490811115613f8b57613f8b6145bb565b02179055505050505050565b828054613fa39061484e565b90600052602060002090601f016020900481019282613fc5576000855561400b565b82601f10613fde57805160ff191683800117855561400b565b8280016001018555821561400b579182015b8281111561400b578251825591602001919060010190613ff0565b506140179291506140bd565b5090565b6040518060c001604052806000815260200160608152602001606081526020016060815260200160006008811115614055576140556145bb565b815260200161407e60405180606001604052806000815260200160608152602001606081525090565b905290565b82805482825590600052602060002090810192821561400b579160200282018281111561400b578251825591602001919060010190613ff0565b5b8082111561401757600081556001016140be565b6000602082840312156140e457600080fd5b5035919050565b634e487b7160e01b600052604160045260246000fd5b60405160c0810167ffffffffffffffff81118282101715614124576141246140eb565b60405290565b604051601f8201601f1916810167ffffffffffffffff81118282101715614153576141536140eb565b604052919050565b600082601f83011261416c57600080fd5b813567ffffffffffffffff811115614186576141866140eb565b614199601f8201601f191660200161412a565b8181528460208386010111156141ae57600080fd5b816020850160208301376000918101602001919091529392505050565b8035600981106141da57600080fd5b919050565b600082601f8301126141f057600080fd5b8135602067ffffffffffffffff82111561420c5761420c6140eb565b8160051b61421b82820161412a565b928352848101820192828101908785111561423557600080fd5b83870192505b848310156142545782358252918301919083019061423b565b979650505050505050565b60006060828403121561427157600080fd5b6040516060810167ffffffffffffffff8282108183111715614295576142956140eb565b816040528293508435835260208501359150808211156142b457600080fd5b6142c0868387016141df565b602084015260408501359150808211156142d957600080fd5b506142e6858286016141df565b6040830152505092915050565b600060c0828403121561430557600080fd5b61430d614101565b905081358152602082013567ffffffffffffffff8082111561432e57600080fd5b61433a8583860161415b565b6020840152604084013591508082111561435357600080fd5b61435f8583860161415b565b6040840152606084013591508082111561437857600080fd5b6143848583860161415b565b6060840152614395608085016141cb565b608084015260a08401359150808211156143ae57600080fd5b506143bb8482850161425f565b60a08301525092915050565b80151581146143d557600080fd5b50565b600080600080608085870312156143ee57600080fd5b84359350602085013567ffffffffffffffff81111561440c57600080fd5b614418878288016142f3565b9350506040850135614429816143c7565b9396929550929360600135925050565b6000806040838503121561444c57600080fd5b50508035926020909101359150565b6000806000806080858703121561447157600080fd5b84359350614481602086016141cb565b9250604085013567ffffffffffffffff8082111561449e57600080fd5b6144aa8883890161415b565b935060608701359150808211156144c057600080fd5b506144cd8782880161415b565b91505092959194509250565b6020808252825182820181905260009190848201906040850190845b81811015614511578351835292840192918401916001016144f5565b50909695505050505050565b6000806000806080858703121561453357600080fd5b843567ffffffffffffffff81111561454a57600080fd5b614556878288016142f3565b945050602085013592506040850135614429816143c7565b6000815180845260005b8181101561459457602081850181015186830182015201614578565b818111156145a6576000602083870101525b50601f01601f19169290920160200192915050565b634e487b7160e01b600052602160045260246000fd5b600081518084526020808501945080840160005b83811015614601578151875295820195908201906001016145e5565b509495945050505050565b6000815160608452614621606085018261456e565b90506020830151848203602086015261463a828261456e565b915050604083015160408501528091505092915050565b6001600160a01b038416815260606020820152825160608201526000602084015160c0608084015261468761012084018261456e565b90506040850151605f19808584030160a08601526146a5838361456e565b925060608701519150808584030160c08601526146c2838361456e565b925060808701519150600982106146db576146db6145bb565b8160e086015260a087015191508085840301610100860152508051825260208101516060602084015261471160608401826145d1565b905060408201519150828103604084015261472c81836145d1565b925050508281036040840152612e76818561460c565b6001600160a01b03811681146143d557600080fd5b60006020828403121561476957600080fd5b815161171a81614742565b60006020828403121561478657600080fd5b815161171a816143c7565b6000602082840312156147a357600080fd5b5051919050565b6000602082840312156147bc57600080fd5b81516003811061171a57600080fd5b634e487b7160e01b600052601160045260246000fd5b600082198211156147f4576147f46147cb565b500190565b60008282101561480b5761480b6147cb565b500390565b8281526040810160048310614827576148276145bb565b8260208301529392505050565b6020810160118310614848576148486145bb565b91905290565b600181811c9082168061486257607f821691505b6020821081141561488357634e487b7160e01b600052602260045260246000fd5b50919050565b634e487b7160e01b600052603260045260246000fd5b60006000198214156148b3576148b36147cb565b5060010190565b6000602082840312156148cc57600080fd5b81516004811061171a57600080fdfef68437791109705d2e300a0b0cfc858fedffc7438da1d9bf937e2f34afa0df77a26469706673582212200f18ef659866923510f3e474477359ef95d750646d0117effb2ebf73dcf39fd964736f6c63430008090033",
  "linkReferences": {},
  "deployedLinkReferences": {}
}