{
    "_format": "hh-sol-artifact-1",
    "contractName": "Order",
    "sourceName": "contracts/Order.sol",
    "abi": [
        {
            "inputs": [
                {
                    "internalType": "address",
                    "name": "_SPConfig",
                    "type": "address"
                },
                {
                    "internalType": "address",
                    "name": "_consumer",
                    "type": "address"
                },
                {
                    "internalType": "address",
                    "name": "_parentOrder",
                    "type": "address"
                },
                {
                    "components": [
                        {
                            "internalType": "address",
                            "name": "offer",
                            "type": "address"
                        },
                        {
                            "internalType": "string",
                            "name": "resultPublicKey",
                            "type": "string"
                        },
                        {
                            "internalType": "string",
                            "name": "resultPublicKeyAlgo",
                            "type": "string"
                        },
                        {
                            "internalType": "string",
                            "name": "encryptedRequirements",
                            "type": "string"
                        },
                        {
                            "internalType": "string",
                            "name": "encryptedArgs",
                            "type": "string"
                        },
                        {
                            "internalType": "enum OrderStatus",
                            "name": "status",
                            "type": "uint8"
                        },
                        {
                            "components": [
                                {
                                    "internalType": "uint256",
                                    "name": "slots",
                                    "type": "uint256"
                                },
                                {
                                    "internalType": "address[]",
                                    "name": "inputOffers",
                                    "type": "address[]"
                                },
                                {
                                    "internalType": "address[]",
                                    "name": "selectedOffers",
                                    "type": "address[]"
                                }
                            ],
                            "internalType": "struct OrderArgs",
                            "name": "args",
                            "type": "tuple"
                        }
                    ],
                    "internalType": "struct OrderInfo",
                    "name": "_info",
                    "type": "tuple"
                },
                {
                    "internalType": "uint256",
                    "name": "_orderPrice",
                    "type": "uint256"
                },
                {
                    "internalType": "bool",
                    "name": "_suspended",
                    "type": "bool"
                }
            ],
            "stateMutability": "nonpayable",
            "type": "constructor"
        },
        {
            "anonymous": false,
            "inputs": [
                {
                    "indexed": false,
                    "internalType": "address",
                    "name": "order",
                    "type": "address"
                },
                {
                    "indexed": false,
                    "internalType": "enum OrderStatus",
                    "name": "status",
                    "type": "uint8"
                }
            ],
            "name": "OrderStatusUpdated",
            "type": "event"
        },
        {
            "anonymous": false,
            "inputs": [
                {
                    "indexed": false,
                    "internalType": "address",
                    "name": "subOrder",
                    "type": "address"
                }
            ],
            "name": "SubOrderCreated",
            "type": "event"
        },
        {
            "inputs": [],
            "name": "cancelOrder",
            "outputs": [],
            "stateMutability": "nonpayable",
            "type": "function"
        },
        {
            "inputs": [
                {
                    "internalType": "enum OrderStatus",
                    "name": "status",
                    "type": "uint8"
                },
                {
                    "internalType": "string",
                    "name": "encryptedResult",
                    "type": "string"
                },
                {
                    "internalType": "string",
                    "name": "encryptedError",
                    "type": "string"
                }
            ],
            "name": "complete",
            "outputs": [],
            "stateMutability": "nonpayable",
            "type": "function"
        },
        {
            "inputs": [
                {
                    "components": [
                        {
                            "internalType": "address",
                            "name": "offer",
                            "type": "address"
                        },
                        {
                            "internalType": "string",
                            "name": "resultPublicKey",
                            "type": "string"
                        },
                        {
                            "internalType": "string",
                            "name": "resultPublicKeyAlgo",
                            "type": "string"
                        },
                        {
                            "internalType": "string",
                            "name": "encryptedRequirements",
                            "type": "string"
                        },
                        {
                            "internalType": "string",
                            "name": "encryptedArgs",
                            "type": "string"
                        },
                        {
                            "internalType": "enum OrderStatus",
                            "name": "status",
                            "type": "uint8"
                        },
                        {
                            "components": [
                                {
                                    "internalType": "uint256",
                                    "name": "slots",
                                    "type": "uint256"
                                },
                                {
                                    "internalType": "address[]",
                                    "name": "inputOffers",
                                    "type": "address[]"
                                },
                                {
                                    "internalType": "address[]",
                                    "name": "selectedOffers",
                                    "type": "address[]"
                                }
                            ],
                            "internalType": "struct OrderArgs",
                            "name": "args",
                            "type": "tuple"
                        }
                    ],
                    "internalType": "struct OrderInfo",
                    "name": "info",
                    "type": "tuple"
                },
                {
                    "internalType": "bool",
                    "name": "blocking",
                    "type": "bool"
                }
            ],
            "name": "createSubOrder",
            "outputs": [
                {
                    "internalType": "address",
                    "name": "",
                    "type": "address"
                }
            ],
            "stateMutability": "nonpayable",
            "type": "function"
        },
        {
            "inputs": [],
            "name": "getChangeWithdrawn",
            "outputs": [
                {
                    "internalType": "bool",
                    "name": "",
                    "type": "bool"
                }
            ],
            "stateMutability": "view",
            "type": "function"
        },
        {
            "inputs": [],
            "name": "getConsumer",
            "outputs": [
                {
                    "internalType": "address",
                    "name": "",
                    "type": "address"
                }
            ],
            "stateMutability": "view",
            "type": "function"
        },
        {
            "inputs": [],
            "name": "getOrderInfo",
            "outputs": [
                {
                    "components": [
                        {
                            "internalType": "address",
                            "name": "offer",
                            "type": "address"
                        },
                        {
                            "internalType": "string",
                            "name": "resultPublicKey",
                            "type": "string"
                        },
                        {
                            "internalType": "string",
                            "name": "resultPublicKeyAlgo",
                            "type": "string"
                        },
                        {
                            "internalType": "string",
                            "name": "encryptedRequirements",
                            "type": "string"
                        },
                        {
                            "internalType": "string",
                            "name": "encryptedArgs",
                            "type": "string"
                        },
                        {
                            "internalType": "enum OrderStatus",
                            "name": "status",
                            "type": "uint8"
                        },
                        {
                            "components": [
                                {
                                    "internalType": "uint256",
                                    "name": "slots",
                                    "type": "uint256"
                                },
                                {
                                    "internalType": "address[]",
                                    "name": "inputOffers",
                                    "type": "address[]"
                                },
                                {
                                    "internalType": "address[]",
                                    "name": "selectedOffers",
                                    "type": "address[]"
                                }
                            ],
                            "internalType": "struct OrderArgs",
                            "name": "args",
                            "type": "tuple"
                        }
                    ],
                    "internalType": "struct OrderInfo",
                    "name": "",
                    "type": "tuple"
                }
            ],
            "stateMutability": "view",
            "type": "function"
        },
        {
            "inputs": [],
            "name": "getOrderPrice",
            "outputs": [
                {
                    "internalType": "uint256",
                    "name": "",
                    "type": "uint256"
                }
            ],
            "stateMutability": "view",
            "type": "function"
        },
        {
            "inputs": [],
            "name": "getOrderResult",
            "outputs": [
                {
                    "components": [
                        {
                            "internalType": "string",
                            "name": "encryptedResult",
                            "type": "string"
                        },
                        {
                            "internalType": "string",
                            "name": "encryptedError",
                            "type": "string"
                        },
                        {
                            "internalType": "uint256",
                            "name": "orderPrice",
                            "type": "uint256"
                        }
                    ],
                    "internalType": "struct OrderResult",
                    "name": "",
                    "type": "tuple"
                }
            ],
            "stateMutability": "view",
            "type": "function"
        },
        {
            "inputs": [],
            "name": "getParentOrder",
            "outputs": [
                {
                    "internalType": "address",
                    "name": "",
                    "type": "address"
                }
            ],
            "stateMutability": "view",
            "type": "function"
        },
        {
            "inputs": [],
            "name": "getProfitWithdrawn",
            "outputs": [
                {
                    "internalType": "bool",
                    "name": "",
                    "type": "bool"
                }
            ],
            "stateMutability": "view",
            "type": "function"
        },
        {
            "inputs": [],
            "name": "getSubOrders",
            "outputs": [
                {
                    "internalType": "address[]",
                    "name": "",
                    "type": "address[]"
                }
            ],
            "stateMutability": "view",
            "type": "function"
        },
        {
            "inputs": [],
            "name": "isCompleted",
            "outputs": [
                {
                    "internalType": "bool",
                    "name": "",
                    "type": "bool"
                }
            ],
            "stateMutability": "view",
            "type": "function"
        },
        {
            "inputs": [],
            "name": "isReadyForProcessing",
            "outputs": [
                {
                    "internalType": "bool",
                    "name": "",
                    "type": "bool"
                }
            ],
            "stateMutability": "view",
            "type": "function"
        },
        {
            "inputs": [],
            "name": "setProcessingStatus",
            "outputs": [],
            "stateMutability": "nonpayable",
            "type": "function"
        },
        {
            "inputs": [],
            "name": "start",
            "outputs": [],
            "stateMutability": "nonpayable",
            "type": "function"
        },
        {
            "inputs": [
                {
                    "internalType": "enum OrderStatus",
                    "name": "status",
                    "type": "uint8"
                },
                {
                    "internalType": "uint256",
                    "name": "orderPrice",
                    "type": "uint256"
                }
            ],
            "name": "updateStatus",
            "outputs": [],
            "stateMutability": "nonpayable",
            "type": "function"
        },
        {
            "inputs": [
                {
                    "internalType": "enum OrderStatus",
                    "name": "newStatus",
                    "type": "uint8"
                }
            ],
            "name": "updateStatusFromSuborders",
            "outputs": [],
            "stateMutability": "nonpayable",
            "type": "function"
        },
        {
            "inputs": [],
            "name": "withdrawChange",
            "outputs": [],
            "stateMutability": "nonpayable",
            "type": "function"
        },
        {
            "inputs": [],
            "name": "withdrawProfit",
            "outputs": [],
            "stateMutability": "nonpayable",
            "type": "function"
        }
    ],
    "bytecode": "0x60806040526010805461ffff60a81b191690553480156200001f57600080fd5b5060405162003e7f38038062003e7f8339810160408190526200004291620006f1565b601080546001600160a01b0380891661010002610100600160a81b031990921691909117909155600180548783166001600160a01b0319918216179091558451600480549190931691161781556020808501518051869392620000ab92600592910190620003f4565b5060408201518051620000c9916002840191602090910190620003f4565b5060608201518051620000e7916003840191602090910190620003f4565b506080820151805162000105916004840191602090910190620003f4565b5060a082015160058201805460ff191660018360088111156200013857634e487b7160e01b600052602160045260246000fd5b021790555060c0820151805160068301908155602080830151805162000165926007870192019062000483565b50604082015180516200018391600284019160209091019062000483565b50505090505082600001516001600160a01b031663af5372e66040518163ffffffff1660e01b815260040160206040518083038186803b158015620001c757600080fd5b505afa158015620001dc573d6000803e3d6000fd5b505050506040513d601f19601f8201168201806040525081019062000202919062000875565b6010805460ff191660018360038111156200022d57634e487b7160e01b600052602160045260246000fd5b0217905550600080546001600160a01b0319166001600160a01b038616179055600f829055806200026057600062000263565b60075b6009805460ff191660018360088111156200028e57634e487b7160e01b600052602160045260246000fd5b0217905550600b5415620003e85760005b600b54811015620003e657600b80546000919083908110620002d157634e487b7160e01b600052603260045260246000fd5b9060005260206000200160009054906101000a90046001600160a01b03169050600160126000836001600160a01b031663af5372e66040518163ffffffff1660e01b815260040160206040518083038186803b1580156200033157600080fd5b505afa15801562000346573d6000803e3d6000fd5b505050506040513d601f19601f820116820180604052508101906200036c919062000875565b60038111156200038c57634e487b7160e01b600052602160045260246000fd5b6003811115620003ac57634e487b7160e01b600052602160045260246000fd5b81526020019081526020016000206000828254620003cb9190620008fb565b90915550620003de915082905062000953565b90506200029f565b505b5050505050506200099d565b828054620004029062000916565b90600052602060002090601f01602090048101928262000426576000855562000471565b82601f106200044157805160ff191683800117855562000471565b8280016001018555821562000471579182015b828111156200047157825182559160200191906001019062000454565b506200047f929150620004db565b5090565b82805482825590600052602060002090810192821562000471579160200282015b828111156200047157825182546001600160a01b0319166001600160a01b03909116178255602090920191600190910190620004a4565b5b808211156200047f5760008155600101620004dc565b80516001600160a01b03811681146200050a57600080fd5b919050565b600082601f83011262000520578081fd5b815160206001600160401b038211156200053e576200053e62000987565b8160051b6200054f828201620008c8565b8381528281019086840183880185018910156200056a578687fd5b8693505b8584101562000597576200058281620004f2565b8352600193909301929184019184016200056e565b50979650505050505050565b805180151581146200050a57600080fd5b8051600981106200050a57600080fd5b600082601f830112620005d5578081fd5b81516001600160401b03811115620005f157620005f162000987565b602062000607601f8301601f19168201620008c8565b82815285828487010111156200061b578384fd5b835b838110156200063a5785810183015182820184015282016200061d565b838111156200064b57848385840101525b5095945050505050565b60006060828403121562000667578081fd5b604051606081016001600160401b0380821183831017156200068d576200068d62000987565b81604052829350845183526020850151915080821115620006ad57600080fd5b620006bb868387016200050f565b60208401526040850151915080821115620006d557600080fd5b50620006e4858286016200050f565b6040830152505092915050565b60008060008060008060c087890312156200070a578182fd5b6200071587620004f2565b95506200072560208801620004f2565b94506200073560408801620004f2565b60608801519094506001600160401b038082111562000752578384fd5b9088019060e0828b03121562000766578384fd5b620007706200089d565b6200077b83620004f2565b81526020830151828111156200078f578586fd5b6200079d8c828601620005c4565b602083015250604083015182811115620007b5578586fd5b620007c38c828601620005c4565b604083015250606083015182811115620007db578586fd5b620007e98c828601620005c4565b60608301525060808301518281111562000801578586fd5b6200080f8c828601620005c4565b6080830152506200082360a08401620005b4565b60a082015260c0830151828111156200083a578586fd5b620008488c82860162000655565b60c083015250809550505050608087015191506200086960a08801620005a3565b90509295509295509295565b60006020828403121562000887578081fd5b81516004811062000896578182fd5b9392505050565b60405160e081016001600160401b0381118282101715620008c257620008c262000987565b60405290565b604051601f8201601f191681016001600160401b0381118282101715620008f357620008f362000987565b604052919050565b6000821982111562000911576200091162000971565b500190565b600181811c908216806200092b57607f821691505b602082108114156200094d57634e487b7160e01b600052602260045260246000fd5b50919050565b60006000198214156200096a576200096a62000971565b5060010190565b634e487b7160e01b600052601160045260246000fd5b634e487b7160e01b600052604160045260246000fd5b6134d280620009ad6000396000f3fe608060405234801561001057600080fd5b50600436106101515760003560e01c8063af91ec60116100cd578063c214d37a11610081578063c3c61f9111610066578063c3c61f9114610275578063cef8f6d414610286578063fa391c641461029b57600080fd5b8063c214d37a14610250578063c28bd4ef1461026357600080fd5b8063b2375e8d116100b2578063b2375e8d14610220578063b7ff5dae14610235578063be9a65551461024857600080fd5b8063af91ec6014610206578063b1be59291461021857600080fd5b80636a81654811610124578063959499b611610109578063959499b6146101e5578063982308f5146101ed57806398365150146101fe57600080fd5b80636a816548146101cc5780636c07681f146101d457600080fd5b806301efb6c81461015657806312913d6d14610174578063291197211461018957806330979eba146101b4575b600080fd5b61015e6102a3565b60405161016b919061330c565b60405180910390f35b610187610182366004612ed2565b610646565b005b61019c610197366004612f86565b610789565b6040516001600160a01b03909116815260200161016b565b6101bc6115dd565b604051901515815260200161016b565b61018761163e565b6001546001600160a01b031661019c565b61018761186d565b6000546001600160a01b031661019c565b610187611b4c565b601054600160b01b900460ff166101bc565b610187611d58565b610228611e8f565b60405161016b919061331f565b610187610243366004612f5d565b611ff3565b6101876121b7565b61018761025e366004612eec565b612384565b601054600160a81b900460ff166101bc565b600f5460405190815260200161016b565b61028e61272a565b60405161016b9190613291565b6101bc61278c565b6102ab612ba1565b6040805160e08101909152600480546001600160a01b03168252600580546020840191906102d8906133e1565b80601f0160208091040260200160405190810160405280929190818152602001828054610304906133e1565b80156103515780601f1061032657610100808354040283529160200191610351565b820191906000526020600020905b81548152906001019060200180831161033457829003601f168201915b5050505050815260200160028201805461036a906133e1565b80601f0160208091040260200160405190810160405280929190818152602001828054610396906133e1565b80156103e35780601f106103b8576101008083540402835291602001916103e3565b820191906000526020600020905b8154815290600101906020018083116103c657829003601f168201915b505050505081526020016003820180546103fc906133e1565b80601f0160208091040260200160405190810160405280929190818152602001828054610428906133e1565b80156104755780601f1061044a57610100808354040283529160200191610475565b820191906000526020600020905b81548152906001019060200180831161045857829003601f168201915b5050505050815260200160048201805461048e906133e1565b80601f01602080910402602001604051908101604052809291908181526020018280546104ba906133e1565b80156105075780601f106104dc57610100808354040283529160200191610507565b820191906000526020600020905b8154815290600101906020018083116104ea57829003601f168201915b5050509183525050600582015460209091019060ff16600881111561053c57634e487b7160e01b600052602160045260246000fd5b600881111561055b57634e487b7160e01b600052602160045260246000fd5b81526020016006820160405180606001604052908160008201548152602001600182018054806020026020016040519081016040528092919081815260200182805480156105d257602002820191906000526020600020905b81546001600160a01b031681526001909101906020018083116105b4575b505050505081526020016002820180548060200260200160405190810160405280929190818152602001828054801561063457602002820191906000526020600020905b81546001600160a01b03168152600190910190602001808311610616575b50505050508152505081525050905090565b6010546106609061010090046001600160a01b0316612818565b6001600160a01b0316336001600160a01b0316146106c55760405162461bcd60e51b815260206004820152601260248201527f4f6e6c79206f7264657220666163746f7279000000000000000000000000000060448201526064015b60405180910390fd5b600060058260088111156106e957634e487b7160e01b600052602160045260246000fd5b1490506000600660095460ff16600881111561071557634e487b7160e01b600052602160045260246000fd5b1480156107415750600083600881111561073f57634e487b7160e01b600052602160045260246000fd5b145b9050818061074c5750805b15610784576009805484919060ff1916600183600881111561077e57634e487b7160e01b600052602160045260246000fd5b02179055505b505050565b60048054604080517f2acdf0fa00000000000000000000000000000000000000000000000000000000815290516000936001600160a01b039093169284928492632acdf0fa92828101926020929190829003018186803b1580156107ec57600080fd5b505afa158015610800573d6000803e3d6000fd5b505050506040513d601f19601f820116820180604052508101906108249190612eb3565b9050600281600281111561084857634e487b7160e01b600052602160045260246000fd5b14156108bc5760405162461bcd60e51b815260206004820152602b60248201527f5375626f726465727320666f7220276f7574707574272067726f75702069732060448201527f6e6f7420616c6c6f77656400000000000000000000000000000000000000000060648201526084016106bc565b60006108c66115dd565b905060006108d26128a5565b90508180156108e95750336001600160a01b038216145b8061090757508115801561090757506001546001600160a01b031633145b6109535760405162461bcd60e51b815260206004820152600d60248201527f4163636573732064656e6965640000000000000000000000000000000000000060448201526064016106bc565b6000876000015190506000816001600160a01b0316632acdf0fa6040518163ffffffff1660e01b815260040160206040518083038186803b15801561099757600080fd5b505afa1580156109ab573d6000803e3d6000fd5b505050506040513d601f19601f820116820180604052508101906109cf9190612eb3565b6040517ff12018c30000000000000000000000000000000000000000000000000000000081523360048201529091506001600160a01b0383169063f12018c39060240160206040518083038186803b158015610a2a57600080fd5b505afa158015610a3e573d6000803e3d6000fd5b505050506040513d601f19601f82011682018060405250810190610a629190612e97565b610aae5760405162461bcd60e51b815260206004820152600b60248201527f4e6f7420616c6c6f77656400000000000000000000000000000000000000000060448201526064016106bc565b600160116000836002811115610ad457634e487b7160e01b600052602160045260246000fd5b6002811115610af357634e487b7160e01b600052602160045260246000fd5b81526020019081526020016000206000828254610b1091906133c9565b9091555060019050856002811115610b3857634e487b7160e01b600052602160045260246000fd5b141580610b715750600260005260116020527f08037d7b151cc412d25674a4e66b334d9ae9d2e5517a7feaae5cdb828bf1c62854600110155b610bc75760405162461bcd60e51b815260206004820152602160248201527f4f7574707574207375626f7264657220616c726561647920616c6c6f636174656044820152601960fa1b60648201526084016106bc565b6000856002811115610be957634e487b7160e01b600052602160045260246000fd5b141580610c225750600260005260116020527f08037d7b151cc412d25674a4e66b334d9ae9d2e5517a7feaae5cdb828bf1c62854600110155b610c785760405162461bcd60e51b815260206004820152602160248201527f4f7574707574207375626f7264657220616c726561647920616c6c6f636174656044820152601960fa1b60648201526084016106bc565b600c5415610d6a576000805b600c54811015610cf257600c80546000919083908110610cb457634e487b7160e01b600052603260045260246000fd5b6000918252602090912001548c516001600160a01b03918216925016811415610ce1576001925050610cf2565b50610ceb8161341c565b9050610c84565b5080610d68576040805162461bcd60e51b81526020600482015260248101919091527f4f6666657220646f6573206e6f74207361746973667920706172656e74206f7260448201527f6465722073656c65637465644f66666572732073706563696669636174696f6e60648201526084016106bc565b505b600b5415610f43576000805b600b54811015610ecd57600b80546000919083908110610da657634e487b7160e01b600052603260045260246000fd5b60009182526020909120015460405163f55ba0d360e01b81526001600160a01b039182166004820181905292509086169063f55ba0d39060240160206040518083038186803b158015610df857600080fd5b505afa158015610e0c573d6000803e3d6000fd5b505050506040513d601f19601f82011682018060405250810190610e309190612e97565b610ea25760405162461bcd60e51b815260206004820152603c60248201527f4f66666572207265737472696374696f6e7320636f6e666c696374732077697460448201527f6820706172656e74206f726465722073706563696669636174696f6e0000000060648201526084016106bc565b8b516001600160a01b0382811691161415610ebc57600192505b50610ec68161341c565b9050610d76565b5080610f415760405162461bcd60e51b815260206004820152603d60248201527f4f6666657220646f6573206e6f74207361746973667920706172656e74206f7260448201527f64657220696e7075744f66666572732073706563696669636174696f6e00000060648201526084016106bc565b505b6040516303ed770960e31b81526001600160a01b03831690631f6bb84890610f70906002906004016132f8565b60206040518083038186803b158015610f8857600080fd5b505afa158015610f9c573d6000803e3d6000fd5b505050506040513d601f19601f82011682018060405250810190610fc09190612e97565b1561106d57600260005260126020527f8e1fee8c88a9e04123b21e90cae2727a7715bf522a1e46eb5934ccd05203a6b25461106d5760405162461bcd60e51b815260206004820152604160248201527f506172656e74206f726465722073706563696669636174696f6e20646f65732060448201527f6e6f742073617469736679207375626f66666572207265737472696374696f6e6064820152607360f81b608482015260a4016106bc565b6040516303ed770960e31b81526001600160a01b03831690631f6bb8489061109a906003906004016132f8565b60206040518083038186803b1580156110b257600080fd5b505afa1580156110c6573d6000803e3d6000fd5b505050506040513d601f19601f820116820180604052508101906110ea9190612e97565b1561119757600360005260126020527f0f36ad39aee03e7108cc48f54934702a5f0d4066f10344cebf8198978d86976a546111975760405162461bcd60e51b815260206004820152604160248201527f506172656e74206f726465722073706563696669636174696f6e20646f65732060448201527f6e6f742073617469736679207375626f66666572207265737472696374696f6e6064820152607360f81b608482015260a4016106bc565b6040516303ed770960e31b81526001600160a01b03831690631f6bb848906111c4906001906004016132f8565b60206040518083038186803b1580156111dc57600080fd5b505afa1580156111f0573d6000803e3d6000fd5b505050506040513d601f19601f820116820180604052508101906112149190612e97565b156112c157600160005260126020527f71a67924699a20698523213e55fe499d539379d7769cd5567e2c45d583f815a3546112c15760405162461bcd60e51b815260206004820152604160248201527f506172656e74206f726465722073706563696669636174696f6e20646f65732060448201527f6e6f742073617469736679207375626f66666572207265737472696374696f6e6064820152607360f81b608482015260a4016106bc565b6040516303ed770960e31b81526001600160a01b03831690631f6bb848906112ee906000906004016132f8565b60206040518083038186803b15801561130657600080fd5b505afa15801561131a573d6000803e3d6000fd5b505050506040513d601f19601f8201168201806040525081019061133e9190612e97565b156114085760405163f55ba0d360e01b81526001600160a01b03878116600483015283169063f55ba0d39060240160206040518083038186803b15801561138457600080fd5b505afa158015611398573d6000803e3d6000fd5b505050506040513d601f19601f820116820180604052508101906113bc9190612e97565b6114085760405162461bcd60e51b815260206004820152601f60248201527f4f6666657220646973616c6c6f7720706172656e7420544545206f666665720060448201526064016106bc565b6000826001600160a01b031663bbb5d5f76040518163ffffffff1660e01b815260040160206040518083038186803b15801561144357600080fd5b505afa158015611457573d6000803e3d6000fd5b505050506040513d601f19601f8201168201806040525081019061147b91906130af565b60105490915060009061149b9061010090046001600160a01b0316612818565b6001600160a01b031663905d2045600160009054906101000a90046001600160a01b0316848e8e6040518563ffffffff1660e01b81526004016114e19493929190613256565b602060405180830381600087803b1580156114fb57600080fd5b505af115801561150f573d6000803e3d6000fd5b505050506040513d601f19601f820116820180604052508101906115339190612e74565b600380546001810182556000919091527fc2575a0e9e593c00f959f8c92f12db2869c3395a3b0502d05e2516446f71f85b0180547fffffffffffffffffffffffff0000000000000000000000000000000000000000166001600160a01b0383169081179091556040519081529091507fd4a8311d4a2937c45f6564edb791f76d0a6d74db0902f4a6fb46cbee04166a639060200160405180910390a19a9950505050505050505050565b6000600760095460ff16600881111561160657634e487b7160e01b600052602160045260246000fd5b141580156116395750600660095460ff16600881111561163657634e487b7160e01b600052602160045260246000fd5b14155b905090565b6001546001600160a01b031633146116985760405162461bcd60e51b815260206004820152601b60248201527f417661696c61626c65206f6e6c7920666f7220636f6e73756d6572000000000060448201526064016106bc565b6116a061278c565b156116f75760405162461bcd60e51b815260206004820152602160248201527f436f6d706c65746564206f726465722063616e27742062652063616e63656c656044820152601960fa1b60648201526084016106bc565b60048054604080517f1bffb49100000000000000000000000000000000000000000000000000000000815290516001600160a01b03909216928392631bffb491928083019260209291829003018186803b15801561175457600080fd5b505afa158015611768573d6000803e3d6000fd5b505050506040513d601f19601f8201168201806040525081019061178c9190612e97565b15801561179a575060025415155b156117ac576117a96002612993565b50565b6117b66003612993565b6002546117c557506000600f55565b600254600f546040517f8383da750000000000000000000000000000000000000000000000000000000081526001600160a01b03841692638383da759261181792600401918252602082015260400190565b60206040518083038186803b15801561182f57600080fd5b505afa158015611843573d6000803e3d6000fd5b505050506040513d601f19601f8201168201806040525081019061186791906130af565b600f5550565b600480546040805163483d45bd60e01b815290516000936001600160a01b039093169263483d45bd92808201926020929091829003018186803b1580156118b357600080fd5b505afa1580156118c7573d6000803e3d6000fd5b505050506040513d601f19601f820116820180604052508101906118eb9190612e74565b6001600160a01b0316636d69a3e86040518163ffffffff1660e01b815260040160206040518083038186803b15801561192357600080fd5b505afa158015611937573d6000803e3d6000fd5b505050506040513d601f19601f8201168201806040525081019061195b9190612e74565b600f5490915061196961278c565b6119c65760405162461bcd60e51b815260206004820152602860248201527f57697468647261776e20617661696c61626c65207768656e206f7264657220636044820152671bdb5c1b195d195960c21b60648201526084016106bc565b336001600160a01b03831614611a445760405162461bcd60e51b815260206004820152603160248201527f417661696c61626c65206f6e6c7920666f722070726f766964657220746f6b6560448201527f6e2072656369766572206163636f756e7400000000000000000000000000000060648201526084016106bc565b601054600160b01b900460ff1615611a9e5760405162461bcd60e51b815260206004820152601860248201527f50726f66697420616c72656164792077697468647261776e000000000000000060448201526064016106bc565b601054611ab89061010090046001600160a01b0316612818565b6040517f22e8d369000000000000000000000000000000000000000000000000000000008152600481018390526001600160a01b03848116602483015291909116906322e8d36990604401600060405180830381600087803b158015611b1d57600080fd5b505af1158015611b31573d6000803e3d6000fd5b50506010805460ff60b01b1916600160b01b17905550505050565b601054600160a81b900460ff1615611ba65760405162461bcd60e51b815260206004820152601860248201527f4368616e676520616c72656164792077697468647261776e000000000000000060448201526064016106bc565b6001546001600160a01b03163314611c265760405162461bcd60e51b815260206004820152602160248201527f417661696c61626c65206f6e6c7920666f72204f7264657220636f6e73756d6560448201527f720000000000000000000000000000000000000000000000000000000000000060648201526084016106bc565b611c2e61278c565b611c8b5760405162461bcd60e51b815260206004820152602860248201527f57697468647261776e20617661696c61626c65207768656e206f7264657220636044820152671bdb5c1b195d195960c21b60648201526084016106bc565b601054600090600160b01b900460ff1615611ca7576000611cab565b600f545b601054909150611cc89061010090046001600160a01b0316612818565b6001600160a01b0316635f4550ba826040518263ffffffff1660e01b8152600401611cf591815260200190565b600060405180830381600087803b158015611d0f57600080fd5b505af1158015611d23573d6000803e3d6000fd5b5050601080547fffffffffffffffffffff00ffffffffffffffffffffffffffffffffffffffffff16600160a81b179055505050565b6000611d626128a5565b9050336001600160a01b03821614611dce5760405162461bcd60e51b815260206004820152602960248201527f417661696c61626c65206f6e6c7920666f722070726f766964657220616374696044820152681bdb9058d8dbdd5b9d60ba1b60648201526084016106bc565b611dd66115dd565b611e225760405162461bcd60e51b815260206004820152601960248201527f4f72646572206861736e2774206265656e20737461727465640000000000000060448201526064016106bc565b611e2a61278c565b15611e775760405162461bcd60e51b815260206004820181905260248201527f436f6d706c65746564206f726465722063616e2774206265207570646174656460448201526064016106bc565b611e816001612993565b6002546117a9574260025550565b611eb360405180606001604052806060815260200160608152602001600081525090565b600d604051806060016040529081600082018054611ed0906133e1565b80601f0160208091040260200160405190810160405280929190818152602001828054611efc906133e1565b8015611f495780601f10611f1e57610100808354040283529160200191611f49565b820191906000526020600020905b815481529060010190602001808311611f2c57829003601f168201915b50505050508152602001600182018054611f62906133e1565b80601f0160208091040260200160405190810160405280929190818152602001828054611f8e906133e1565b8015611fdb5780601f10611fb057610100808354040283529160200191611fdb565b820191906000526020600020905b815481529060010190602001808311611fbe57829003601f168201915b50505050508152602001600282015481525050905090565b6000611ffd6128a5565b9050336001600160a01b038216146120695760405162461bcd60e51b815260206004820152602960248201527f417661696c61626c65206f6e6c7920666f722070726f766964657220616374696044820152681bdb9058d8dbdd5b9d60ba1b60648201526084016106bc565b6120716115dd565b6120bd5760405162461bcd60e51b815260206004820152601960248201527f4f72646572206861736e2774206265656e20737461727465640000000000000060448201526064016106bc565b6120c561278c565b156121125760405162461bcd60e51b815260206004820181905260248201527f436f6d706c65746564206f726465722063616e2774206265207570646174656460448201526064016106bc565b6009546121229060ff1684612a01565b61216e5760405162461bcd60e51b815260206004820152600d60248201527f496e76616964207374617475730000000000000000000000000000000000000060448201526064016106bc565b61217783612993565b6002541580156121a6575060018360088111156121a457634e487b7160e01b600052602160045260246000fd5b145b156121b057426002555b50600f5550565b6001546001600160a01b031633146122115760405162461bcd60e51b815260206004820152601b60248201527f417661696c61626c65206f6e6c7920666f7220636f6e73756d6572000000000060448201526064016106bc565b600760095460ff16600881111561223857634e487b7160e01b600052602160045260246000fd5b146122855760405162461bcd60e51b815260206004820152601760248201527f4f72646572206d7573742062652073757370656e64656400000000000000000060448201526064016106bc565b6010546000906122a29061010090046001600160a01b0316612818565b6040517f9a5f3a1f0000000000000000000000000000000000000000000000000000000081523060048201526001600160a01b039190911690639a5f3a1f9060240160206040518083038186803b1580156122fc57600080fd5b505afa158015612310573d6000803e3d6000fd5b505050506040513d601f19601f8201168201806040525081019061233491906130af565b90506000811161234f576009805460ff191690556000612352565b60065b6009805460ff1916600183600881111561237c57634e487b7160e01b600052602160045260246000fd5b021790555050565b600061238e6128a5565b9050336001600160a01b038216146123fa5760405162461bcd60e51b815260206004820152602960248201527f417661696c61626c65206f6e6c7920666f722070726f766964657220616374696044820152681bdb9058d8dbdd5b9d60ba1b60648201526084016106bc565b6124026115dd565b61244e5760405162461bcd60e51b815260206004820152601960248201527f4f72646572206861736e2774206265656e20737461727465640000000000000060448201526064016106bc565b61245661278c565b156124a35760405162461bcd60e51b815260206004820152601160248201527f416c726561647920636f6d706c6574656400000000000000000000000000000060448201526064016106bc565b60058460088111156124c557634e487b7160e01b600052602160045260246000fd5b14806124f0575060048460088111156124ee57634e487b7160e01b600052602160045260246000fd5b145b6125625760405162461bcd60e51b815260206004820152602b60248201527f43616e20636f6d706c657465206f6e6c7920776974682073746174757320457260448201527f726f72206f7220446f6e6500000000000000000000000000000000000000000060648201526084016106bc565b600160095460ff16600881111561258957634e487b7160e01b600052602160045260246000fd5b14806125b95750600860095460ff1660088111156125b757634e487b7160e01b600052602160045260246000fd5b145b6126055760405162461bcd60e51b815260206004820181905260248201527f43616e277420636f6d706c657465206265666f72652070726f63657373696e6760448201526064016106bc565b825161261890600d906020860190612c27565b50815161262c90600e906020850190612c27565b50600584600881111561264f57634e487b7160e01b600052602160045260246000fd5b1415612669576010805460ff60b01b1916600160b01b1790555b61267284612993565b60105461268c9061010090046001600160a01b0316612818565b6001600160a01b031663993254ad60058660088111156126bc57634e487b7160e01b600052602160045260246000fd5b6040517fffffffff0000000000000000000000000000000000000000000000000000000060e085901b16815291146004820152602401600060405180830381600087803b15801561270c57600080fd5b505af1158015612720573d6000803e3d6000fd5b5050505050505050565b6060600380548060200260200160405190810160405280929190818152602001828054801561278257602002820191906000526020600020905b81546001600160a01b03168152600190910190602001808311612764575b5050505050905090565b6000600460095460ff1660088111156127b557634e487b7160e01b600052602160045260246000fd5b14806127e55750600560095460ff1660088111156127e357634e487b7160e01b600052602160045260246000fd5b145b806116395750600360095460ff16600881111561281257634e487b7160e01b600052602160045260246000fd5b14905090565b600061282382612b66565b6001600160a01b031663bcaa0c5560006040518263ffffffff1660e01b815260040161284f91906132de565b60206040518083038186803b15801561286757600080fd5b505afa15801561287b573d6000803e3d6000fd5b505050506040513d601f19601f8201168201806040525081019061289f9190612e74565b92915050565b600480546040805163483d45bd60e01b815290516000936001600160a01b039093169263483d45bd92808201926020929091829003018186803b1580156128eb57600080fd5b505afa1580156128ff573d6000803e3d6000fd5b505050506040513d601f19601f820116820180604052508101906129239190612e74565b6001600160a01b0316636760c4b76040518163ffffffff1660e01b815260040160206040518083038186803b15801561295b57600080fd5b505afa15801561296f573d6000803e3d6000fd5b505050506040513d601f19601f820116820180604052508101906116399190612e74565b6009805482919060ff191660018360088111156129c057634e487b7160e01b600052602160045260246000fd5b02179055507fdeec0b1e3a1ffaeb49a9045c07756b2e16cd738314db2d7ec9317e56809732bb30826040516129f6929190613239565b60405180910390a150565b6000806002846008811115612a2657634e487b7160e01b600052602160045260246000fd5b148015612a5257506003836008811115612a5057634e487b7160e01b600052602160045260246000fd5b145b9050600080856008811115612a7757634e487b7160e01b600052602160045260246000fd5b1480612aa257506001856008811115612aa057634e487b7160e01b600052602160045260246000fd5b145b80612acc57506008856008811115612aca57634e487b7160e01b600052602160045260246000fd5b145b8015612af757506001846008811115612af557634e487b7160e01b600052602160045260246000fd5b145b905060006001866008811115612b1d57634e487b7160e01b600052602160045260246000fd5b148015612b4957506008856008811115612b4757634e487b7160e01b600052602160045260246000fd5b145b90508280612b545750815b80612b5c5750805b9695505050505050565b6000816001600160a01b031663f1f0bd016040518163ffffffff1660e01b815260040160206040518083038186803b15801561286757600080fd5b6040518060e0016040528060006001600160a01b031681526020016060815260200160608152602001606081526020016060815260200160006008811115612bf957634e487b7160e01b600052602160045260246000fd5b8152602001612c2260405180606001604052806000815260200160608152602001606081525090565b905290565b828054612c33906133e1565b90600052602060002090601f016020900481019282612c555760008555612c9b565b82601f10612c6e57805160ff1916838001178555612c9b565b82800160010185558215612c9b579182015b82811115612c9b578251825591602001919060010190612c80565b50612ca7929150612cab565b5090565b5b80821115612ca75760008155600101612cac565b8035612ccb81613479565b919050565b600082601f830112612ce0578081fd5b8135602067ffffffffffffffff821115612cfc57612cfc613463565b8160051b612d0b828201613398565b838152828101908684018388018501891015612d25578687fd5b8693505b85841015612d50578035612d3c81613479565b835260019390930192918401918401612d29565b50979650505050505050565b8035612ccb8161348e565b803560098110612ccb57600080fd5b600082601f830112612d86578081fd5b813567ffffffffffffffff811115612da057612da0613463565b612db3601f8201601f1916602001613398565b818152846020838601011115612dc7578283fd5b816020850160208301379081016020019190915292915050565b600060608284031215612df2578081fd5b6040516060810167ffffffffffffffff8282108183111715612e1657612e16613463565b81604052829350843583526020850135915080821115612e3557600080fd5b612e4186838701612cd0565b60208401526040850135915080821115612e5a57600080fd5b50612e6785828601612cd0565b6040830152505092915050565b600060208284031215612e85578081fd5b8151612e9081613479565b9392505050565b600060208284031215612ea8578081fd5b8151612e908161348e565b600060208284031215612ec4578081fd5b815160038110612e90578182fd5b600060208284031215612ee3578081fd5b612e9082612d67565b600080600060608486031215612f00578182fd5b612f0984612d67565b9250602084013567ffffffffffffffff80821115612f25578384fd5b612f3187838801612d76565b93506040860135915080821115612f46578283fd5b50612f5386828701612d76565b9150509250925092565b60008060408385031215612f6f578182fd5b612f7883612d67565b946020939093013593505050565b60008060408385031215612f98578182fd5b823567ffffffffffffffff80821115612faf578384fd5b9084019060e08287031215612fc2578384fd5b612fca61336f565b612fd383612cc0565b8152602083013582811115612fe6578586fd5b612ff288828601612d76565b602083015250604083013582811115613009578586fd5b61301588828601612d76565b60408301525060608301358281111561302c578586fd5b61303888828601612d76565b60608301525060808301358281111561304f578586fd5b61305b88828601612d76565b60808301525061306d60a08401612d67565b60a082015260c083013582811115613083578586fd5b61308f88828601612de1565b60c08301525093506130a691505060208401612d5c565b90509250929050565b6000602082840312156130c0578081fd5b5051919050565b6000815180845260208085019450808401835b838110156130ff5781516001600160a01b0316875295820195908201906001016130da565b509495945050505050565b6009811061311a5761311a61344d565b9052565b60008151808452815b8181101561314357602081850181015186830182015201613127565b818111156131545782602083870101525b50601f01601f19169290920160200192915050565b6001600160a01b0381511682526000602082015160e0602085015261319160e085018261311e565b9050604083015184820360408601526131aa828261311e565b915050606083015184820360608601526131c4828261311e565b915050608083015184820360808601526131de828261311e565b91505060a08301516131f360a086018261310a565b5060c083015184820360c08601528051825260208101516060602084015261321e60608401826130c7565b9050604082015191508281036040840152612b5c81836130c7565b6001600160a01b038316815260408101612e90602083018461310a565b6001600160a01b038516815283602082015260806040820152600061327e6080830185613169565b9050821515606083015295945050505050565b6020808252825182820181905260009190848201906040850190845b818110156132d25783516001600160a01b0316835292840192918401916001016132ad565b50909695505050505050565b60208101600c83106132f2576132f261344d565b91905290565b60208101600483106132f2576132f261344d565b602081526000612e906020830184613169565b60208152600082516060602084015261333b608084018261311e565b90506020840151601f19848303016040850152613358828261311e565b915050604084015160608401528091505092915050565b60405160e0810167ffffffffffffffff8111828210171561339257613392613463565b60405290565b604051601f8201601f1916810167ffffffffffffffff811182821017156133c1576133c1613463565b604052919050565b600082198211156133dc576133dc613437565b500190565b600181811c908216806133f557607f821691505b6020821081141561341657634e487b7160e01b600052602260045260246000fd5b50919050565b600060001982141561343057613430613437565b5060010190565b634e487b7160e01b600052601160045260246000fd5b634e487b7160e01b600052602160045260246000fd5b634e487b7160e01b600052604160045260246000fd5b6001600160a01b03811681146117a957600080fd5b80151581146117a957600080fdfea26469706673582212207b9bcf946b7b25ed34a41d578228611de38f7465dfc9eac545c4e3d8638308c764736f6c63430008040033",
    "linkReferences": {},
    "deployedLinkReferences": {}
}