{
  "_format": "hh-sol-artifact-1",
  "contractName": "Orders",
  "sourceName": "contracts/Orders.sol",
  "abi": [
    {
      "anonymous": false,
      "inputs": [
        {
          "indexed": true,
          "internalType": "address",
          "name": "consumer",
          "type": "address"
        },
        {
          "indexed": true,
          "internalType": "uint256",
          "name": "orderId",
          "type": "uint256"
        },
        {
          "indexed": false,
          "internalType": "bool",
          "name": "value",
          "type": "bool"
        }
      ],
      "name": "OrderAwaitingPaymentChanged",
      "type": "event"
    },
    {
      "anonymous": false,
      "inputs": [
        {
          "indexed": true,
          "internalType": "address",
          "name": "consumer",
          "type": "address"
        },
        {
          "indexed": true,
          "internalType": "uint256",
          "name": "orderId",
          "type": "uint256"
        },
        {
          "indexed": false,
          "internalType": "uint256",
          "name": "change",
          "type": "uint256"
        }
      ],
      "name": "OrderChangedWithdrawn",
      "type": "event"
    },
    {
      "anonymous": false,
      "inputs": [
        {
          "indexed": true,
          "internalType": "address",
          "name": "consumer",
          "type": "address"
        },
        {
          "indexed": true,
          "internalType": "bytes32",
          "name": "externalId",
          "type": "bytes32"
        },
        {
          "indexed": true,
          "internalType": "uint256",
          "name": "offerId",
          "type": "uint256"
        },
        {
          "indexed": false,
          "internalType": "uint256",
          "name": "orderId",
          "type": "uint256"
        }
      ],
      "name": "OrderCreated",
      "type": "event"
    },
    {
      "anonymous": false,
      "inputs": [
        {
          "indexed": true,
          "internalType": "address",
          "name": "consumer",
          "type": "address"
        },
        {
          "indexed": true,
          "internalType": "uint256",
          "name": "orderId",
          "type": "uint256"
        },
        {
          "indexed": false,
          "internalType": "uint256",
          "name": "amount",
          "type": "uint256"
        }
      ],
      "name": "OrderDepositRefilled",
      "type": "event"
    },
    {
      "anonymous": false,
      "inputs": [
        {
          "indexed": true,
          "internalType": "address",
          "name": "consumer",
          "type": "address"
        },
        {
          "indexed": true,
          "internalType": "uint256",
          "name": "orderId",
          "type": "uint256"
        },
        {
          "indexed": false,
          "internalType": "uint256",
          "name": "value",
          "type": "uint256"
        }
      ],
      "name": "OrderDepositSpentChanged",
      "type": "event"
    },
    {
      "anonymous": false,
      "inputs": [
        {
          "indexed": true,
          "internalType": "address",
          "name": "consumer",
          "type": "address"
        },
        {
          "indexed": true,
          "internalType": "uint256",
          "name": "orderId",
          "type": "uint256"
        },
        {
          "indexed": false,
          "internalType": "string",
          "name": "encryptedResult",
          "type": "string"
        }
      ],
      "name": "OrderEncryptedResultUpdated",
      "type": "event"
    },
    {
      "anonymous": false,
      "inputs": [
        {
          "indexed": true,
          "internalType": "uint256",
          "name": "orderId",
          "type": "uint256"
        },
        {
          "indexed": false,
          "internalType": "uint256",
          "name": "price",
          "type": "uint256"
        }
      ],
      "name": "OrderPriceUpdated",
      "type": "event"
    },
    {
      "anonymous": false,
      "inputs": [
        {
          "indexed": true,
          "internalType": "address",
          "name": "tokenReceiver",
          "type": "address"
        },
        {
          "indexed": true,
          "internalType": "uint256",
          "name": "orderId",
          "type": "uint256"
        },
        {
          "indexed": false,
          "internalType": "uint256",
          "name": "profit",
          "type": "uint256"
        }
      ],
      "name": "OrderProfitWithdrawn",
      "type": "event"
    },
    {
      "anonymous": false,
      "inputs": [
        {
          "indexed": true,
          "internalType": "address",
          "name": "consumer",
          "type": "address"
        },
        {
          "indexed": true,
          "internalType": "uint256",
          "name": "orderId",
          "type": "uint256"
        }
      ],
      "name": "OrderStarted",
      "type": "event"
    },
    {
      "anonymous": false,
      "inputs": [
        {
          "indexed": true,
          "internalType": "uint256",
          "name": "orderId",
          "type": "uint256"
        },
        {
          "indexed": true,
          "internalType": "enum OrderStatus",
          "name": "status",
          "type": "uint8"
        }
      ],
      "name": "OrderStatusUpdated",
      "type": "event"
    },
    {
      "anonymous": false,
      "inputs": [
        {
          "indexed": true,
          "internalType": "uint256",
          "name": "subOrderId",
          "type": "uint256"
        },
        {
          "indexed": true,
          "internalType": "uint256",
          "name": "parentOrderId",
          "type": "uint256"
        }
      ],
      "name": "SubOrderCreated",
      "type": "event"
    },
    {
      "inputs": [
        {
          "internalType": "uint256",
          "name": "orderId",
          "type": "uint256"
        }
      ],
      "name": "cancelOrder",
      "outputs": [],
      "stateMutability": "nonpayable",
      "type": "function"
    },
    {
      "inputs": [
        {
          "internalType": "uint256",
          "name": "orderId",
          "type": "uint256"
        },
        {
          "internalType": "enum OrderStatus",
          "name": "status",
          "type": "uint8"
        },
        {
          "internalType": "string",
          "name": "encryptedResult",
          "type": "string"
        }
      ],
      "name": "completeOrder",
      "outputs": [],
      "stateMutability": "nonpayable",
      "type": "function"
    },
    {
      "inputs": [
        {
          "components": [
            {
              "internalType": "uint256",
              "name": "offerId",
              "type": "uint256"
            },
            {
              "internalType": "string",
              "name": "resultPublicKey",
              "type": "string"
            },
            {
              "internalType": "string",
              "name": "encryptedRequirements",
              "type": "string"
            },
            {
              "internalType": "string",
              "name": "encryptedArgs",
              "type": "string"
            },
            {
              "internalType": "enum OrderStatus",
              "name": "status",
              "type": "uint8"
            },
            {
              "components": [
                {
                  "internalType": "uint256",
                  "name": "slots",
                  "type": "uint256"
                },
                {
                  "internalType": "uint256[]",
                  "name": "inputOffers",
                  "type": "uint256[]"
                },
                {
                  "internalType": "uint256[]",
                  "name": "selectedOffers",
                  "type": "uint256[]"
                }
              ],
              "internalType": "struct OrderArgs",
              "name": "args",
              "type": "tuple"
            }
          ],
          "internalType": "struct OrderInfo",
          "name": "info",
          "type": "tuple"
        },
        {
          "internalType": "uint256",
          "name": "holdDeposit",
          "type": "uint256"
        },
        {
          "internalType": "bool",
          "name": "suspended",
          "type": "bool"
        },
        {
          "internalType": "bytes32",
          "name": "externalId",
          "type": "bytes32"
        }
      ],
      "name": "createOrder",
      "outputs": [],
      "stateMutability": "nonpayable",
      "type": "function"
    },
    {
      "inputs": [
        {
          "internalType": "uint256",
          "name": "parentOrderId",
          "type": "uint256"
        },
        {
          "components": [
            {
              "internalType": "uint256",
              "name": "offerId",
              "type": "uint256"
            },
            {
              "internalType": "string",
              "name": "resultPublicKey",
              "type": "string"
            },
            {
              "internalType": "string",
              "name": "encryptedRequirements",
              "type": "string"
            },
            {
              "internalType": "string",
              "name": "encryptedArgs",
              "type": "string"
            },
            {
              "internalType": "enum OrderStatus",
              "name": "status",
              "type": "uint8"
            },
            {
              "components": [
                {
                  "internalType": "uint256",
                  "name": "slots",
                  "type": "uint256"
                },
                {
                  "internalType": "uint256[]",
                  "name": "inputOffers",
                  "type": "uint256[]"
                },
                {
                  "internalType": "uint256[]",
                  "name": "selectedOffers",
                  "type": "uint256[]"
                }
              ],
              "internalType": "struct OrderArgs",
              "name": "args",
              "type": "tuple"
            }
          ],
          "internalType": "struct OrderInfo",
          "name": "suborderInfo",
          "type": "tuple"
        },
        {
          "components": [
            {
              "internalType": "bool",
              "name": "blockParentOrder",
              "type": "bool"
            },
            {
              "internalType": "bytes32",
              "name": "externalId",
              "type": "bytes32"
            },
            {
              "internalType": "uint256",
              "name": "holdSum",
              "type": "uint256"
            }
          ],
          "internalType": "struct SubOrderParams",
          "name": "params",
          "type": "tuple"
        }
      ],
      "name": "createSubOrder",
      "outputs": [],
      "stateMutability": "nonpayable",
      "type": "function"
    },
    {
      "inputs": [
        {
          "internalType": "uint256",
          "name": "orderId",
          "type": "uint256"
        }
      ],
      "name": "getAwaitingPayment",
      "outputs": [
        {
          "internalType": "bool",
          "name": "",
          "type": "bool"
        }
      ],
      "stateMutability": "view",
      "type": "function"
    },
    {
      "inputs": [
        {
          "internalType": "uint256",
          "name": "orderId",
          "type": "uint256"
        }
      ],
      "name": "getDepositSpent",
      "outputs": [
        {
          "internalType": "uint256",
          "name": "",
          "type": "uint256"
        }
      ],
      "stateMutability": "view",
      "type": "function"
    },
    {
      "inputs": [
        {
          "internalType": "uint256",
          "name": "orderId",
          "type": "uint256"
        }
      ],
      "name": "getOrder",
      "outputs": [
        {
          "internalType": "address",
          "name": "",
          "type": "address"
        },
        {
          "components": [
            {
              "internalType": "uint256",
              "name": "offerId",
              "type": "uint256"
            },
            {
              "internalType": "string",
              "name": "resultPublicKey",
              "type": "string"
            },
            {
              "internalType": "string",
              "name": "encryptedRequirements",
              "type": "string"
            },
            {
              "internalType": "string",
              "name": "encryptedArgs",
              "type": "string"
            },
            {
              "internalType": "enum OrderStatus",
              "name": "status",
              "type": "uint8"
            },
            {
              "components": [
                {
                  "internalType": "uint256",
                  "name": "slots",
                  "type": "uint256"
                },
                {
                  "internalType": "uint256[]",
                  "name": "inputOffers",
                  "type": "uint256[]"
                },
                {
                  "internalType": "uint256[]",
                  "name": "selectedOffers",
                  "type": "uint256[]"
                }
              ],
              "internalType": "struct OrderArgs",
              "name": "args",
              "type": "tuple"
            }
          ],
          "internalType": "struct OrderInfo",
          "name": "",
          "type": "tuple"
        },
        {
          "components": [
            {
              "internalType": "string",
              "name": "encryptedResult",
              "type": "string"
            },
            {
              "internalType": "uint256",
              "name": "orderPrice",
              "type": "uint256"
            }
          ],
          "internalType": "struct OrderResult",
          "name": "",
          "type": "tuple"
        }
      ],
      "stateMutability": "view",
      "type": "function"
    },
    {
      "inputs": [
        {
          "internalType": "uint256",
          "name": "orderId",
          "type": "uint256"
        }
      ],
      "name": "getOrderChangeWithdrawn",
      "outputs": [
        {
          "internalType": "bool",
          "name": "",
          "type": "bool"
        }
      ],
      "stateMutability": "view",
      "type": "function"
    },
    {
      "inputs": [
        {
          "internalType": "uint256",
          "name": "orderId",
          "type": "uint256"
        }
      ],
      "name": "getOrderHoldDeposit",
      "outputs": [
        {
          "internalType": "uint256",
          "name": "",
          "type": "uint256"
        }
      ],
      "stateMutability": "view",
      "type": "function"
    },
    {
      "inputs": [
        {
          "internalType": "uint256",
          "name": "orderId",
          "type": "uint256"
        }
      ],
      "name": "getOrderOrigins",
      "outputs": [
        {
          "components": [
            {
              "internalType": "uint256",
              "name": "createdDate",
              "type": "uint256"
            },
            {
              "internalType": "address",
              "name": "createdBy",
              "type": "address"
            },
            {
              "internalType": "uint256",
              "name": "modifiedDate",
              "type": "uint256"
            },
            {
              "internalType": "address",
              "name": "modifiedBy",
              "type": "address"
            }
          ],
          "internalType": "struct Origins",
          "name": "",
          "type": "tuple"
        }
      ],
      "stateMutability": "view",
      "type": "function"
    },
    {
      "inputs": [
        {
          "internalType": "uint256",
          "name": "orderId",
          "type": "uint256"
        }
      ],
      "name": "getOrderParentOrder",
      "outputs": [
        {
          "internalType": "uint256",
          "name": "",
          "type": "uint256"
        }
      ],
      "stateMutability": "view",
      "type": "function"
    },
    {
      "inputs": [
        {
          "internalType": "uint256",
          "name": "orderId",
          "type": "uint256"
        }
      ],
      "name": "getOrderPrice",
      "outputs": [
        {
          "internalType": "uint256",
          "name": "",
          "type": "uint256"
        }
      ],
      "stateMutability": "view",
      "type": "function"
    },
    {
      "inputs": [
        {
          "internalType": "uint256",
          "name": "orderId",
          "type": "uint256"
        }
      ],
      "name": "getOrderProfitWithdrawn",
      "outputs": [
        {
          "internalType": "bool",
          "name": "",
          "type": "bool"
        }
      ],
      "stateMutability": "view",
      "type": "function"
    },
    {
      "inputs": [
        {
          "internalType": "uint256",
          "name": "orderId",
          "type": "uint256"
        }
      ],
      "name": "getOrderSubOrders",
      "outputs": [
        {
          "internalType": "uint256[]",
          "name": "",
          "type": "uint256[]"
        }
      ],
      "stateMutability": "view",
      "type": "function"
    },
    {
      "inputs": [],
      "name": "getOrdersCount",
      "outputs": [
        {
          "internalType": "uint256",
          "name": "",
          "type": "uint256"
        }
      ],
      "stateMutability": "view",
      "type": "function"
    },
    {
      "inputs": [
        {
          "internalType": "uint256",
          "name": "orderId",
          "type": "uint256"
        }
      ],
      "name": "isOrderCompleted",
      "outputs": [
        {
          "internalType": "bool",
          "name": "",
          "type": "bool"
        }
      ],
      "stateMutability": "view",
      "type": "function"
    },
    {
      "inputs": [
        {
          "internalType": "uint256",
          "name": "orderId",
          "type": "uint256"
        }
      ],
      "name": "isOrderStarted",
      "outputs": [
        {
          "internalType": "bool",
          "name": "",
          "type": "bool"
        }
      ],
      "stateMutability": "view",
      "type": "function"
    },
    {
      "inputs": [
        {
          "internalType": "uint256",
          "name": "orderId",
          "type": "uint256"
        }
      ],
      "name": "isOrderValid",
      "outputs": [
        {
          "internalType": "bool",
          "name": "",
          "type": "bool"
        }
      ],
      "stateMutability": "view",
      "type": "function"
    },
    {
      "inputs": [
        {
          "internalType": "uint256",
          "name": "orderId",
          "type": "uint256"
        }
      ],
      "name": "processOrder",
      "outputs": [],
      "stateMutability": "nonpayable",
      "type": "function"
    },
    {
      "inputs": [
        {
          "internalType": "uint256",
          "name": "orderId",
          "type": "uint256"
        },
        {
          "internalType": "uint256",
          "name": "amount",
          "type": "uint256"
        }
      ],
      "name": "refillOrder",
      "outputs": [],
      "stateMutability": "nonpayable",
      "type": "function"
    },
    {
      "inputs": [
        {
          "internalType": "uint256",
          "name": "orderId",
          "type": "uint256"
        },
        {
          "internalType": "bool",
          "name": "value",
          "type": "bool"
        }
      ],
      "name": "setAwaitingPayment",
      "outputs": [],
      "stateMutability": "nonpayable",
      "type": "function"
    },
    {
      "inputs": [
        {
          "internalType": "uint256",
          "name": "orderId",
          "type": "uint256"
        },
        {
          "internalType": "uint256",
          "name": "value",
          "type": "uint256"
        }
      ],
      "name": "setDepositSpent",
      "outputs": [],
      "stateMutability": "nonpayable",
      "type": "function"
    },
    {
      "inputs": [
        {
          "internalType": "uint256",
          "name": "orderId",
          "type": "uint256"
        }
      ],
      "name": "startOrder",
      "outputs": [],
      "stateMutability": "nonpayable",
      "type": "function"
    },
    {
      "inputs": [
        {
          "internalType": "uint256",
          "name": "orderId",
          "type": "uint256"
        },
        {
          "internalType": "uint256",
          "name": "orderPrice",
          "type": "uint256"
        }
      ],
      "name": "updateOrderPrice",
      "outputs": [],
      "stateMutability": "nonpayable",
      "type": "function"
    },
    {
      "inputs": [
        {
          "internalType": "uint256",
          "name": "orderId",
          "type": "uint256"
        },
        {
          "internalType": "string",
          "name": "encryptedResult",
          "type": "string"
        }
      ],
      "name": "updateOrderResult",
      "outputs": [],
      "stateMutability": "nonpayable",
      "type": "function"
    },
    {
      "inputs": [
        {
          "internalType": "uint256",
          "name": "orderId",
          "type": "uint256"
        }
      ],
      "name": "withdrawChange",
      "outputs": [],
      "stateMutability": "nonpayable",
      "type": "function"
    },
    {
      "inputs": [
        {
          "internalType": "uint256",
          "name": "orderId",
          "type": "uint256"
        }
      ],
      "name": "withdrawProfit",
      "outputs": [],
      "stateMutability": "nonpayable",
      "type": "function"
    }
  ],
  "bytecode": "0x608060405234801561001057600080fd5b5061560880620000216000396000f3fe608060405234801561001057600080fd5b50600436106101b95760003560e01c806388f4a6ba116100f9578063b5b3b05111610097578063d54f807611610071578063d54f8076146104e0578063d82a2bea146104f3578063df305d5914610506578063e0ab5ae01461051957600080fd5b8063b5b3b05114610484578063c9bd9ff0146104ab578063d09ef241146104be57600080fd5b80639959a56b116100d35780639959a56b14610418578063a0a238491461042b578063a90f3a2d1461045e578063ab74e6421461047157600080fd5b806388f4a6ba146103c2578063920fba4f146103d5578063975c4727146103e857600080fd5b80635e9e78d011610166578063779e423f11610140578063779e423f146102df5780637a62b924146103225780637d41fdd91461035a578063835055c31461036d57600080fd5b80635e9e78d01461027c5780636eb691f41461028f578063752895dd146102bf57600080fd5b80632e5187fb116101975780632e5187fb146102435780632f191ee814610256578063514fcac71461026957600080fd5b80630f251358146101be57806319fed398146102015780631a02dc9214610216575b600080fd5b6101ee6101cc366004614c46565b60009081526000805160206155b383398151915260205260409020600d015490565b6040519081526020015b60405180910390f35b61021461020f366004614c70565b61052c565b005b6101ee610224366004614c46565b60009081526000805160206155b3833981519152602052604090205490565b610214610251366004614c46565b6107c0565b610214610264366004614db7565b610af7565b610214610277366004614c46565b6110f6565b61021461028a366004614e0e565b611335565b6101ee61029d366004614c46565b60009081526000805160206155b3833981519152602052604090206018015490565b6102d26102cd366004614c46565b6115dc565b6040516101f89190614e30565b6103126102ed366004614c46565b60009081526000805160206155b3833981519152602052604090206013015460ff1690565b60405190151581526020016101f8565b610312610330366004614c46565b60009081526000805160206155b38339815191526020526040902060130154610100900460ff1690565b610214610368366004614c46565b611653565b61038061037b366004614c46565b6117dd565b6040516101f89190815181526020808301516001600160a01b039081169183019190915260408084015190830152606092830151169181019190915260800190565b6103126103d0366004614c46565b611868565b6102146103e3366004615041565b6118ca565b6101ee6103f6366004614c46565b60009081526000805160206155b383398151915260205260409020601a015490565b610214610426366004614c46565b611d8c565b610312610439366004614c46565b60009081526000805160206155b3833981519152602052604090206019015460ff1690565b61021461046c3660046150a2565b612085565b61031261047f366004614c46565b6126a7565b7ff68437791109705d2e300a0b0cfc858fedffc7438da1d9bf937e2f34afa0df76546101ee565b6103126104b9366004614c46565b61270e565b6104d16104cc366004614c46565b612745565b6040516101f893929190615204565b6102146104ee366004614e0e565b612b31565b610214610501366004614c46565b612da5565b610214610514366004614e0e565b613298565b6102146105273660046152f8565b6135d0565b60008281526000805160206155b383398151915260205260408120839150600030600483810154604051634e6e04f760e01b8152918201526001600160a01b039190911690634e6e04f79060240160206040518083038186803b15801561059257600080fd5b505afa1580156105a6573d6000803e3d6000fd5b505050506040513d601f19601f820116820180604052508101906105ca9190615354565b905060003060405163071ddd6760e11b81526001600160a01b0384811660048301529190911690630e3bbace9060240160206040518083038186803b15801561061257600080fd5b505afa158015610626573d6000803e3d6000fd5b505050506040513d601f19601f8201168201806040525081019061064a9190615354565b90506001600160a01b03811633146106b35760405162461bcd60e51b815260206004820152602160248201527f4f6e6c7920617661696c61626c6520666f7220616374696f6e206163636f756e6044820152601d60fa1b60648201526084015b60405180910390fd5b60008681526000805160206155b383398151915260205260409020600881015460019060ff1660078111156106ea576106ea61517a565b1461075d5760405162461bcd60e51b815260206004820152602360248201527f4f72646572206d75737420626520696e20612070726f63657373696e6720737460448201527f617465000000000000000000000000000000000000000000000000000000000060648201526084016106aa565b60198101805460ff1916871515908117909155600182015460405191825288916001600160a01b03909116907fb10fd7c76991a3f5a6ddad3affbfd91cba71af0ecf74de0aea2f04655f869133906020015b60405180910390a350505050505050565b60008181526000805160206155b383398151915260205260408120829150600030600483810154604051634e6e04f760e01b8152918201526001600160a01b039190911690634e6e04f79060240160206040518083038186803b15801561082657600080fd5b505afa15801561083a573d6000803e3d6000fd5b505050506040513d601f19601f8201168201806040525081019061085e9190615354565b905060003060405163071ddd6760e11b81526001600160a01b0384811660048301529190911690630e3bbace9060240160206040518083038186803b1580156108a657600080fd5b505afa1580156108ba573d6000803e3d6000fd5b505050506040513d601f19601f820116820180604052508101906108de9190615354565b90506001600160a01b03811633146109425760405162461bcd60e51b815260206004820152602160248201527f4f6e6c7920617661696c61626c6520666f7220616374696f6e206163636f756e6044820152601d60fa1b60648201526084016106aa565b61094b856126a7565b156109be5760405162461bcd60e51b815260206004820152602c60248201527f436f6d706c65746564206f726465722063616e27742062652072657475726e6560448201527f6420746f2070726f63657373000000000000000000000000000000000000000060648201526084016106aa565b6109c785611868565b610a135760405162461bcd60e51b815260206004820152601960248201527f4f72646572206861736e2774206265656e20737461727465640000000000000060448201526064016106aa565b60008581526000805160206155b3833981519152602052604090206008810154610a419060ff16600161389b565b610ab25760405162461bcd60e51b8152602060048201526024808201527f4e6f7420616c6c6f77656420746f207365742050726f63657373696e6720737460448201527f617475730000000000000000000000000000000000000000000000000000000060648201526084016106aa565b610ad481600f0142600282015560030180546001600160a01b03191633179055565b610adf866001613935565b6002810154610aef574260028201555b505050505050565b60008381526000805160206155b383398151915260205260408120849150600030600483810154604051634e6e04f760e01b8152918201526001600160a01b039190911690634e6e04f79060240160206040518083038186803b158015610b5d57600080fd5b505afa158015610b71573d6000803e3d6000fd5b505050506040513d601f19601f82011682018060405250810190610b959190615354565b905060003060405163071ddd6760e11b81526001600160a01b0384811660048301529190911690630e3bbace9060240160206040518083038186803b158015610bdd57600080fd5b505afa158015610bf1573d6000803e3d6000fd5b505050506040513d601f19601f82011682018060405250810190610c159190615354565b90506001600160a01b0381163314610c795760405162461bcd60e51b815260206004820152602160248201527f4f6e6c7920617661696c61626c6520666f7220616374696f6e206163636f756e6044820152601d60fa1b60648201526084016106aa565b86610c838161270e565b610cbf5760405162461bcd60e51b815260206004820152600d60248201526c2ab735b737bbb71037b93232b960991b60448201526064016106aa565b610cc8886126a7565b15610d155760405162461bcd60e51b815260206004820152601160248201527f416c726561647920636f6d706c6574656400000000000000000000000000000060448201526064016106aa565b6005876007811115610d2957610d2961517a565b1480610d4657506004876007811115610d4457610d4461517a565b145b80610d6257506003876007811115610d6057610d6061517a565b145b610dd45760405162461bcd60e51b815260206004820152603560248201527f43616e20636f6d706c657465206f6e6c7920776974682073746174757320457260448201527f726f722c2043616e63656c6564206f7220446f6e65000000000000000000000060648201526084016106aa565b60008881526000805160206155b383398151915260205260409020600881015460019060ff166007811115610e0b57610e0b61517a565b1480610e2f57506002600882015460ff166007811115610e2d57610e2d61517a565b145b610ea15760405162461bcd60e51b815260206004820152602d60248201527f43616e277420636f6d706c657465206265666f72652070726f63657373696e6760448201527f206f722063616e63656c696e670000000000000000000000000000000000000060648201526084016106aa565b610ec381600f0142600282015560030180546001600160a01b03191633179055565b8651610ed890600c83019060208a0190614b0b565b506005886007811115610eed57610eed61517a565b1415610f055760138101805461ff0019166101001790555b610f0f8989613935565b610f2d8960058a6007811115610f2757610f2761517a565b146139b8565b604051636b227f1960e01b8152600481018a90523090636b227f1990602401600060405180830381600087803b158015610f6657600080fd5b505af1158015610f7a573d6000803e3d6000fd5b5060039250610f87915050565b886007811115610f9957610f9961517a565b1480156110385750306004828101546040517f8442090a000000000000000000000000000000000000000000000000000000008152918201526001600160a01b039190911690638442090a9060240160206040518083038186803b15801561100057600080fd5b505afa158015611014573d6000803e3d6000fd5b505050506040513d601f19601f820116820180604052508101906110389190615371565b801561105d57506000600e82015460ff16600381111561105a5761105a61517a565b14155b156110eb5780601a0154816018015410156110e05760405162461bcd60e51b815260206004820152603560248201527f4465706f7369745370656e742076616c7565206973206772656174657220746860448201527f616e206f7264657220686f6c64206465706f736974000000000000000000000060648201526084016106aa565b601a810154600d8201555b505050505050505050565b60008181526000805160206155b38339815191526020526040902060018101548291906001600160a01b031633146111705760405162461bcd60e51b815260206004820152601b60248201527f417661696c61626c65206f6e6c7920666f7220636f6e73756d6572000000000060448201526064016106aa565b611179836126a7565b156111d05760405162461bcd60e51b815260206004820152602160248201527f436f6d706c65746564206f726465722063616e27742062652063616e63656c656044820152601960fa1b60648201526084016106aa565b60008381526000805160206155b3833981519152602052604090204260118201556012810180546001600160a01b031916331790556002810154158015906112d55761121d856002613935565b306004838101546002850154600d8601546040517fb98c9f3e00000000000000000000000000000000000000000000000000000000815293840192909252602483015260448201526001600160a01b03919091169063b98c9f3e9060640160206040518083038186803b15801561129357600080fd5b505afa1580156112a7573d6000803e3d6000fd5b505050506040513d601f19601f820116820180604052508101906112cb919061538e565b600d8301556112e8565b6112e0856003613935565b6000600d8301555b604051636b227f1960e01b8152600481018690523090636b227f1990602401600060405180830381600087803b15801561132157600080fd5b505af11580156110eb573d6000803e3d6000fd5b60008281526000805160206155b383398151915260205260408120839150600030600483810154604051634e6e04f760e01b8152918201526001600160a01b039190911690634e6e04f79060240160206040518083038186803b15801561139b57600080fd5b505afa1580156113af573d6000803e3d6000fd5b505050506040513d601f19601f820116820180604052508101906113d39190615354565b905060003060405163071ddd6760e11b81526001600160a01b0384811660048301529190911690630e3bbace9060240160206040518083038186803b15801561141b57600080fd5b505afa15801561142f573d6000803e3d6000fd5b505050506040513d601f19601f820116820180604052508101906114539190615354565b90506001600160a01b03811633146114b75760405162461bcd60e51b815260206004820152602160248201527f4f6e6c7920617661696c61626c6520666f7220616374696f6e206163636f756e6044820152601d60fa1b60648201526084016106aa565b6114c0866126a7565b1561150d5760405162461bcd60e51b815260206004820181905260248201527f436f6d706c65746564206f726465722063616e2774206265207570646174656460448201526064016106aa565b61151686611868565b6115625760405162461bcd60e51b815260206004820152601960248201527f4f72646572206861736e2774206265656e20737461727465640000000000000060448201526064016106aa565b60008681526000805160206155b3833981519152602052604090204260118201556012810180546001600160a01b03191633179055600d810186905560405186815287907fddcfcd158ba340cec1297a0d825aaf047af03d3fabcc01b151a6e1d09a7160f59060200160405180910390a250505050505050565b60008181526000805160206155b383398151915260205260408120606091906003810180546040805160208084028201810190925282815293945083018282801561164657602002820191906000526020600020905b815481526020019060010190808311611632575b5050505050915050919050565b60008181526000805160206155b38339815191526020526040902060018101548291906001600160a01b031633146116cd5760405162461bcd60e51b815260206004820152601b60248201527f417661696c61626c65206f6e6c7920666f7220636f6e73756d6572000000000060448201526064016106aa565b60008381526000805160206155b383398151915260205260409020600881015460079060ff16818111156117035761170361517a565b146117505760405162461bcd60e51b815260206004820152601760248201527f4f72646572206d7573742062652073757370656e64656400000000000000000060448201526064016106aa565b61177281600f0142600282015560030180546001600160a01b03191633179055565b601781015480611783576000611786565b60065b60088301805460ff191660018360078111156117a4576117a461517a565b0217905550604051859033907fe83be2bd6985a0345b14c74f91632c816560fb0543defd73982467563c4b598990600090a35050505050565b6040805160808101825260008082526020820181905291810182905260608101829052906118238360009081526000805160206155b38339815191526020526040902090565b60408051608081018252600f830154815260108301546001600160a01b0390811660208301526011840154928201929092526012909201541660608201529392505050565b60008181526000805160206155b3833981519152602052604081206000600882015460ff16600781111561189e5761189e61517a565b14806118c3575060015b600882015460ff1660078111156118c1576118c161517a565b145b9392505050565b33308551604051634202334f60e01b815260048101919091526001600160a01b0383811660248301529190911690634202334f9060440160206040518083038186803b15801561191957600080fd5b505afa15801561192d573d6000803e3d6000fd5b505050506040513d601f19601f820116820180604052508101906119519190615371565b61198b5760405162461bcd60e51b815260206004820152600b60248201526a139bdd08185b1b1bddd95960aa1b60448201526064016106aa565b8451604051631e5dd86b60e01b81523091631e5dd86b916119b291906000906004016153a7565b60206040518083038186803b1580156119ca57600080fd5b505afa1580156119de573d6000803e3d6000fd5b505050506040513d601f19601f82011682018060405250810190611a029190615371565b15611a4f5760405162461bcd60e51b815260206004820181905260248201527f4f6666657220646973616c6c6f77207374616e64616c6f6e65206f726465727360448201526064016106aa565b84516040516308e161a160e21b81526004810191909152600090309063238586849060240160206040518083038186803b158015611a8c57600080fd5b505afa158015611aa0573d6000803e3d6000fd5b505050506040513d601f19601f82011682018060405250810190611ac4919061538e565b905080851015611ad2578094505b60405163897ce7cf60e01b8152600090309063897ce7cf90611af89084906004016153cb565b60206040518083038186803b158015611b1057600080fd5b505afa158015611b24573d6000803e3d6000fd5b505050506040513d601f19601f82011682018060405250810190611b48919061538e565b905080861015611b56578095505b611b5e613a5e565b604051636eb1769f60e11b81526001600160a01b038581166004830152306024830152919091169063dd62ed3e9060440160206040518083038186803b158015611ba757600080fd5b505afa158015611bbb573d6000803e3d6000fd5b505050506040513d601f19601f82011682018060405250810190611bdf919061538e565b861115611c3a5760405162461bcd60e51b8152602060048201526024808201527f416c6c6f77656420746f6b656e73206c657373207468616e20686f6c644465706044820152631bdcda5d60e21b60648201526084016106aa565b611c42613a5e565b6040516323b872dd60e01b81526001600160a01b0385811660048301523060248301526044820189905291909116906323b872dd90606401602060405180830381600087803b158015611c9457600080fd5b505af1158015611ca8573d6000803e3d6000fd5b505050506040513d601f19601f82011682018060405250810190611ccc9190615371565b50600080611cdb898989613ad6565b601881018a9055604051635c99c5df60e11b8152600481018390529193509150309063b9338bbe90602401600060405180830381600087803b158015611d2057600080fd5b505af1158015611d34573d6000803e3d6000fd5b50505050886000015186866001600160a01b03167fcdad6ab97fde7ccd3b74637bbb09ac75c9a4bf8b5684d210c9e61869bc67ac9b85604051611d7991815260200190565b60405180910390a4505050505050505050565b60008181526000805160206155b383398151915260205260409020601381015460ff1615611dfc5760405162461bcd60e51b815260206004820152601860248201527f4368616e676520616c72656164792077697468647261776e000000000000000060448201526064016106aa565b60018101546001600160a01b03163314611e7e5760405162461bcd60e51b815260206004820152602160248201527f417661696c61626c65206f6e6c7920666f72204f7264657220636f6e73756d6560448201527f720000000000000000000000000000000000000000000000000000000000000060648201526084016106aa565b611e87826126a7565b611ee45760405162461bcd60e51b815260206004820152602860248201527f57697468647261776e20617661696c61626c65207768656e206f7264657220636044820152671bdb5c1b195d195960c21b60648201526084016106aa565b6013810154600090610100900460ff1615611f00576000611f06565b600d8201545b90508082601801541015611f5c5760405162461bcd60e51b815260206004820152601260248201527f4e6f7420656e6f756768206465706f736974000000000000000000000000000060448201526064016106aa565b6000818360180154611f6e91906153f4565b9050611f78613a5e565b60018401546040517fa9059cbb0000000000000000000000000000000000000000000000000000000081526001600160a01b0391821660048201526024810184905291169063a9059cbb90604401602060405180830381600087803b158015611fe057600080fd5b505af1158015611ff4573d6000803e3d6000fd5b505050506040513d601f19601f820116820180604052508101906120189190615371565b508083601801600082825461202d91906153f4565b909155505060138301805460ff19166001179055604051849033907ff2104e05a949a0a0c1f4b384977e9a631ddeccc6a9f14f878ca3d0510c763601906120779085815260200190565b60405180910390a350505050565b61208e836126a7565b156120db5760405162461bcd60e51b815260206004820152601960248201527f506172656e74206f7264657220697320636f6d706c657465640000000000000060448201526064016106aa565b60008381526000805160206155b3833981519152602052604081209050600030600483810154604051634e6e04f760e01b8152918201526001600160a01b039190911690634e6e04f79060240160206040518083038186803b15801561214057600080fd5b505afa158015612154573d6000803e3d6000fd5b505050506040513d601f19601f820116820180604052508101906121789190615354565b905060003060405163071ddd6760e11b81526001600160a01b0384811660048301529190911690630e3bbace9060240160206040518083038186803b1580156121c057600080fd5b505afa1580156121d4573d6000803e3d6000fd5b505050506040513d601f19601f820116820180604052508101906121f89190615354565b9050600061220587611868565b905080801561221c5750336001600160a01b038316145b8061223c57508015801561223c575060018401546001600160a01b031633145b6122885760405162461bcd60e51b815260206004820152600d60248201527f4163636573732064656e6965640000000000000000000000000000000000000060448201526064016106aa565b308651604051634202334f60e01b815260048101919091523360248201526001600160a01b039190911690634202334f9060440160206040518083038186803b1580156122d457600080fd5b505afa1580156122e8573d6000803e3d6000fd5b505050506040513d601f19601f8201168201806040525081019061230c9190615371565b6123465760405162461bcd60e51b815260206004820152600b60248201526a139bdd08185b1b1bddd95960aa1b60448201526064016106aa565b8551604051636165696f60e01b815260048101919091526000903090636165696f9060240160206040518083038186803b15801561238357600080fd5b505afa158015612397573d6000803e3d6000fd5b505050506040513d601f19601f820116820180604052508101906123bb919061540b565b905060018560140160008360028111156123d7576123d761517a565b60028111156123e8576123e861517a565b81526020019081526020016000206000828254612405919061542c565b90915550508651612418908690836141b2565b505060008460400151600014156124a05785516040516308e161a160e21b81526004810191909152309063238586849060240160206040518083038186803b15801561246357600080fd5b505afa158015612477573d6000803e3d6000fd5b505050506040513d601f19601f8201168201806040525081019061249b919061538e565b6124a6565b84604001515b9050600080806124b7898585613ad6565b6001808a015481830180546001600160a01b0319166001600160a01b039092169190911790558c825560038a018054918201815560009081526020902001829055909250905061251f600f880142600282015560030180546001600160a01b03191633179055565b83876018015410156125735760405162461bcd60e51b815260206004820152601f60248201527f4e6f7420656e6f75676820706172656e74206f72646572206465706f7369740060448201526064016106aa565b8387601801600082825461258791906153f4565b92505081905550838160180160008282546125a2919061542c565b90915550508751156125df5760008281526016880160205260408120600190819055601789018054919290916125d990849061542c565b90915550505b604051635c99c5df60e11b815260048101839052309063b9338bbe90602401600060405180830381600087803b15801561261857600080fd5b505af115801561262c573d6000803e3d6000fd5b50508a516020808c0151604051878152929450925033917fcdad6ab97fde7ccd3b74637bbb09ac75c9a4bf8b5684d210c9e61869bc67ac9b910160405180910390a46040518a9083907f862f137e7eeb5c8accaf91684d1f4344b5cdd331f887278389821125e4a1dab990600090a350505050505050505050565b60008181526000805160206155b3833981519152602052604081206004600882015460ff1660078111156126dd576126dd61517a565b148061270157506005600882015460ff1660078111156126ff576126ff61517a565b145b806118c3575060036118a8565b60007ff68437791109705d2e300a0b0cfc858fedffc7438da1d9bf937e2f34afa0df7682158015906118c357505490911115919050565b600061274f614b8f565b60408051808201909152606081526000602082015260006127888560009081526000805160206155b38339815191526020526040902090565b90508060010160009054906101000a90046001600160a01b03168160040182600c01816040518060c0016040529081600082015481526020016001820180546127d090615444565b80601f01602080910402602001604051908101604052809291908181526020018280546127fc90615444565b80156128495780601f1061281e57610100808354040283529160200191612849565b820191906000526020600020905b81548152906001019060200180831161282c57829003601f168201915b5050505050815260200160028201805461286290615444565b80601f016020809104026020016040519081016040528092919081815260200182805461288e90615444565b80156128db5780601f106128b0576101008083540402835291602001916128db565b820191906000526020600020905b8154815290600101906020018083116128be57829003601f168201915b505050505081526020016003820180546128f490615444565b80601f016020809104026020016040519081016040528092919081815260200182805461292090615444565b801561296d5780601f106129425761010080835404028352916020019161296d565b820191906000526020600020905b81548152906001019060200180831161295057829003601f168201915b5050509183525050600482015460209091019060ff1660078111156129945761299461517a565b60078111156129a5576129a561517a565b8152602001600582016040518060600160405290816000820154815260200160018201805480602002602001604051908101604052809291908181526020018280548015612a1257602002820191906000526020600020905b8154815260200190600101908083116129fe575b5050505050815260200160028201805480602002602001604051908101604052809291908181526020018280548015612a6a57602002820191906000526020600020905b815481526020019060010190808311612a56575b50505050508152505081525050915080604051806040016040529081600082018054612a9590615444565b80601f0160208091040260200160405190810160405280929190818152602001828054612ac190615444565b8015612b0e5780601f10612ae357610100808354040283529160200191612b0e565b820191906000526020600020905b815481529060010190602001808311612af157829003601f168201915b505050505081526020016001820154815250509050935093509350509193909250565b60008281526000805160206155b383398151915260205260408120839150600030600483810154604051634e6e04f760e01b8152918201526001600160a01b039190911690634e6e04f79060240160206040518083038186803b158015612b9757600080fd5b505afa158015612bab573d6000803e3d6000fd5b505050506040513d601f19601f82011682018060405250810190612bcf9190615354565b905060003060405163071ddd6760e11b81526001600160a01b0384811660048301529190911690630e3bbace9060240160206040518083038186803b158015612c1757600080fd5b505afa158015612c2b573d6000803e3d6000fd5b505050506040513d601f19601f82011682018060405250810190612c4f9190615354565b90506001600160a01b0381163314612cb35760405162461bcd60e51b815260206004820152602160248201527f4f6e6c7920617661696c61626c6520666f7220616374696f6e206163636f756e6044820152601d60fa1b60648201526084016106aa565b60008681526000805160206155b383398151915260205260409020600881015460019060ff166007811115612cea57612cea61517a565b14612d5d5760405162461bcd60e51b815260206004820152602260248201527f4f6e6c7920617661696c61626c6520696e2070726f63657373696e672073746160448201527f746500000000000000000000000000000000000000000000000000000000000060648201526084016106aa565b601a8101869055600181015460405187815288916001600160a01b0316907f25d1f8deb5c0aaa3f1c70a4e07b3ad34335ee864f47de8c0dca68a7c91dd0542906020016107af565b60008181526000805160206155b3833981519152602052604081209050600030600483810154604051634e6e04f760e01b8152918201526001600160a01b039190911690634e6e04f79060240160206040518083038186803b158015612e0a57600080fd5b505afa158015612e1e573d6000803e3d6000fd5b505050506040513d601f19601f82011682018060405250810190612e429190615354565b90506000306040517f0cc079f30000000000000000000000000000000000000000000000000000000081526001600160a01b0384811660048301529190911690630cc079f39060240160206040518083038186803b158015612ea357600080fd5b505afa158015612eb7573d6000803e3d6000fd5b505050506040513d601f19601f82011682018060405250810190612edb9190615354565b60405163897ce7cf60e01b8152909150600090309063897ce7cf90612f05906001906004016153cb565b60206040518083038186803b158015612f1d57600080fd5b505afa158015612f31573d6000803e3d6000fd5b505050506040513d601f19601f82011682018060405250810190612f55919061538e565b600d850154909150612f66866126a7565b612fc35760405162461bcd60e51b815260206004820152602860248201527f57697468647261776e20617661696c61626c65207768656e206f7264657220636044820152671bdb5c1b195d195960c21b60648201526084016106aa565b336001600160a01b038416146130415760405162461bcd60e51b815260206004820152603160248201527f417661696c61626c65206f6e6c7920666f722070726f766964657220746f6b6560448201527f6e2072656369766572206163636f756e7400000000000000000000000000000060648201526084016106aa565b6013850154610100900460ff161561309b5760405162461bcd60e51b815260206004820152601860248201527f50726f66697420616c72656164792077697468647261776e000000000000000060448201526064016106aa565b6130a3613a5e565b6040517f095ea7b3000000000000000000000000000000000000000000000000000000008152306004820152602481018390526001600160a01b03919091169063095ea7b390604401602060405180830381600087803b15801561310657600080fd5b505af115801561311a573d6000803e3d6000fd5b505050506040513d601f19601f8201168201806040525081019061313e9190615371565b50306040517f2ee409080000000000000000000000000000000000000000000000000000000081526001600160a01b038581166004830152602482018490529190911690632ee4090890604401600060405180830381600087803b1580156131a557600080fd5b505af11580156131b9573d6000803e3d6000fd5b505050506131c43090565b6001600160a01b031663d719a90d60018584866040518563ffffffff1660e01b81526004016131f6949392919061547f565b600060405180830381600087803b15801561321057600080fd5b505af1158015613224573d6000803e3d6000fd5b505050508085601801600082825461323c91906153f4565b909155505060138501805461ff001916610100179055604051869033907fe2350354b45acad228120b59d977f2e487571e8d75fb3b74252a1034464449b8906132889085815260200190565b60405180910390a3505050505050565b816132a28161270e565b6132de5760405162461bcd60e51b815260206004820152600d60248201526c2ab735b737bbb71037b93232b960991b60448201526064016106aa565b60008381526000805160206155b3833981519152602052604090203390613304856126a7565b15801561332a57506002600882015460ff1660078111156133275761332761517a565b14155b6133805760405162461bcd60e51b815260206004820152602160248201527f436f6d706c65746564206f726465722063616e277420626520726566696c6c656044820152601960fa1b60648201526084016106aa565b60018101546001600160a01b038381169116146133df5760405162461bcd60e51b815260206004820152600e60248201527f4f776e6572206d69736d6174636800000000000000000000000000000000000060448201526064016106aa565b6133e7613a5e565b604051636eb1769f60e11b81526001600160a01b038481166004830152306024830152919091169063dd62ed3e9060440160206040518083038186803b15801561343057600080fd5b505afa158015613444573d6000803e3d6000fd5b505050506040513d601f19601f82011682018060405250810190613468919061538e565b8411156134dd5760405162461bcd60e51b815260206004820152602660248201527f416c6c6f77656420746f6b656e73206c657373207468616e20726566696c6c2060448201527f616d6f756e74000000000000000000000000000000000000000000000000000060648201526084016106aa565b6134e5613a5e565b6040516323b872dd60e01b81526001600160a01b0384811660048301523060248301526044820187905291909116906323b872dd90606401602060405180830381600087803b15801561353757600080fd5b505af115801561354b573d6000803e3d6000fd5b505050506040513d601f19601f8201168201806040525081019061356f9190615371565b5083816018016000828254613584919061542c565b909155505060405184815285906001600160a01b038416907f5dd58c11f2973d8fca72f1cffb326b5af815e81232ff1e581a7d534344fad71f9060200160405180910390a35050505050565b60008281526000805160206155b383398151915260205260408120839150600030600483810154604051634e6e04f760e01b8152918201526001600160a01b039190911690634e6e04f79060240160206040518083038186803b15801561363657600080fd5b505afa15801561364a573d6000803e3d6000fd5b505050506040513d601f19601f8201168201806040525081019061366e9190615354565b905060003060405163071ddd6760e11b81526001600160a01b0384811660048301529190911690630e3bbace9060240160206040518083038186803b1580156136b657600080fd5b505afa1580156136ca573d6000803e3d6000fd5b505050506040513d601f19601f820116820180604052508101906136ee9190615354565b90506001600160a01b03811633146137525760405162461bcd60e51b815260206004820152602160248201527f4f6e6c7920617661696c61626c6520666f7220616374696f6e206163636f756e6044820152601d60fa1b60648201526084016106aa565b60008681526000805160206155b383398151915260205260409020600881015460019060ff1660078111156137895761378961517a565b14806137ad57506002600882015460ff1660078111156137ab576137ab61517a565b145b61381f5760405162461bcd60e51b815260206004820152603060248201527f4f72646572206d75737420626520696e20612070726f63657373696e67206f7260448201527f2063616e63656c696e672073746174650000000000000000000000000000000060648201526084016106aa565b61384181600f0142600282015560030180546001600160a01b03191633179055565b855161385690600c8301906020890190614b0b565b50600181015460405188916001600160a01b0316907fc3727ad3658a9131981b1b617e2928362ba398c4c5e7f3044ad2cadd44325568906107af90600c8601906154b8565b60008060028460078111156138b2576138b261517a565b1480156138d0575060038360078111156138ce576138ce61517a565b145b90506000808560078111156138e7576138e761517a565b1480613904575060018560078111156139025761390261517a565b145b80156139215750600184600781111561391f5761391f61517a565b145b9050818061392c5750805b95945050505050565b60008281526000805160206155b38339815191526020526040902060088101805483919060ff191660018360078111156139715761397161517a565b02179055508160078111156139885761398861517a565b60405184907fd9a86b644eb5f5b43cc8a700849852481080361c7a4b00ba646d1b46c5585f9590600090a3505050565b60008281526000805160206155b38339815191526020526040902080546139de57505050565b805460009081526000805160206155b38339815191526020526040812060008581526016820160205260408120546017830180549394509092839290613a259084906153f4565b9091555084905080613a3957506017820154155b15613a57578254613a579085613a50576000614a06565b6005614a06565b5050505050565b6000306001600160a01b03166321df0da76040518163ffffffff1660e01b815260040160206040518083038186803b158015613a9957600080fd5b505afa158015613aad573d6000803e3d6000fd5b505050506040513d601f19601f82011682018060405250810190613ad19190615354565b905090565b8251604051634e6e04f760e01b815260048101919091526000908190339082903090634e6e04f79060240160206040518083038186803b158015613b1957600080fd5b505afa158015613b2d573d6000803e3d6000fd5b505050506040513d601f19601f82011682018060405250810190613b519190615354565b87516040517f3835b0d300000000000000000000000000000000000000000000000000000000815260048101919091529091506000903090633835b0d39060240160206040518083038186803b158015613baa57600080fd5b505afa158015613bbe573d6000803e3d6000fd5b505050506040513d601f19601f82011682018060405250810190613be29190615560565b9050600080826003811115613bf957613bf961517a565b8a516040517fe51334fb000000000000000000000000000000000000000000000000000000008152600481019190915291149150309063e51334fb9060240160206040518083038186803b158015613c5057600080fd5b505afa158015613c64573d6000803e3d6000fd5b505050506040513d601f19601f82011682018060405250810190613c889190615371565b613cd45760405162461bcd60e51b815260206004820152601460248201527f4f66666572206d7573742062652061637469766500000000000000000000000060448201526064016106aa565b306040517fded116690000000000000000000000000000000000000000000000000000000081526001600160a01b038581166004830152919091169063ded116699060240160206040518083038186803b158015613d3157600080fd5b505afa158015613d45573d6000803e3d6000fd5b505050506040513d601f19601f82011682018060405250810190613d699190615371565b613dc15760405162461bcd60e51b8152602060048201526024808201527f4e6f7420656e6f7567682070726f7669646572207365637572697479206465706044820152631bdcda5d60e21b60648201526084016106aa565b801580613e56575088516040517f3d8e40e200000000000000000000000000000000000000000000000000000000815260048101919091523090633d8e40e29060240160206040518083038186803b158015613e1c57600080fd5b505afa158015613e30573d6000803e3d6000fd5b505050506040513d601f19601f82011682018060405250810190613e549190615371565b155b613ec75760405162461bcd60e51b8152602060048201526024808201527f544545206f666665722062656e63686d61726b206d757374206265207665726960448201527f666965640000000000000000000000000000000000000000000000000000000060648201526084016106aa565b6000613ed1614acc565b60008181526000805160206155b383398151915260205260408120919250906001810180546001600160a01b0319166001600160a01b0389161790558b51600482019081556020808e015180519394508e93613f339260058701920190614b0b565b5060408201518051613f4f916002840191602090910190614b0b565b5060608201518051613f6b916003840191602090910190614b0b565b50608082015160048201805460ff19166001836007811115613f8f57613f8f61517a565b021790555060a08201518051600583019081556020808301518051613fba9260068701920190614bf7565b5060408201518051613fd6916002840191602090910190614bf7565b505042600f8501819055601085018054336001600160a01b03199182168117909255601187019290925560128601805490921617905550614015915050565b600e8101805485919060ff191660018360038111156140365761403661517a565b0217905550600d81018a90558861404e576000614051565b60075b60088201805460ff1916600183600781111561406f5761406f61517a565b021790555060a08b01516020015151156141a25760005b8b60a0015160200151518110156141a05760008c60a001516020015182815181106140b3576140b3615581565b6020026020010151905060018360150160006140cc3090565b6001600160a01b0316633835b0d3856040518263ffffffff1660e01b81526004016140f991815260200190565b60206040518083038186803b15801561411157600080fd5b505afa158015614125573d6000803e3d6000fd5b505050506040513d601f19601f820116820180604052508101906141499190615560565b600381111561415a5761415a61517a565b600381111561416b5761416b61517a565b81526020019081526020016000206000828254614188919061542c565b909155506141999150829050615597565b9050614086565b505b909a909950975050505050505050565b600030600485810154604051636165696f60e01b8152918201526001600160a01b039190911690636165696f9060240160206040518083038186803b1580156141fa57600080fd5b505afa15801561420e573d6000803e3d6000fd5b505050506040513d601f19601f82011682018060405250810190614232919061540b565b905060028160028111156142485761424861517a565b14156142bc5760405162461bcd60e51b815260206004820152602b60248201527f5375626f726465727320666f7220276f7574707574272067726f75702069732060448201527f6e6f7420616c6c6f77656400000000000000000000000000000000000000000060648201526084016106aa565b60028260028111156142d0576142d061517a565b1480156142e05750600b84015415155b156143b7576000805b600b86015481101561433f57600b86018054600091908390811061430f5761430f615581565b906000526020600020015490508581141561432e57600192505061433f565b5061433881615597565b90506142e9565b50806143b5576040805162461bcd60e51b81526020600482015260248101919091527f4f6666657220646f6573206e6f74207361746973667920706172656e74206f7260448201527f6465722073656c65637465644f66666572732073706563696669636174696f6e60648201526084016106aa565b505b60008260028111156143cb576143cb61517a565b1415614596576000805b600a86015481101561452057600a8601805460009190839081106143fb576143fb615581565b9060005260206000200154905061440f3090565b60405163cc04f00360e01b815260048101889052602481018390526001600160a01b03919091169063cc04f0039060440160206040518083038186803b15801561445857600080fd5b505afa15801561446c573d6000803e3d6000fd5b505050506040513d601f19601f820116820180604052508101906144909190615371565b6145025760405162461bcd60e51b815260206004820152603c60248201527f4f66666572207265737472696374696f6e7320636f6e666c696374732077697460448201527f6820706172656e74206f726465722073706563696669636174696f6e0000000060648201526084016106aa565b8581141561450f57600192505b5061451981615597565b90506143d5565b50806145945760405162461bcd60e51b815260206004820152603d60248201527f4f6666657220646f6573206e6f74207361746973667920706172656e74206f7260448201527f64657220696e7075744f66666572732073706563696669636174696f6e00000060648201526084016106aa565b505b604051631e5dd86b60e01b81523090631e5dd86b906145bc9086906002906004016153a7565b60206040518083038186803b1580156145d457600080fd5b505afa1580156145e8573d6000803e3d6000fd5b505050506040513d601f19601f8201168201806040525081019061460c9190615371565b156146a057600260009081526015850160205260409020546146a05760405162461bcd60e51b815260206004820152604160248201527f506172656e74206f726465722073706563696669636174696f6e20646f65732060448201527f6e6f742073617469736679207375626f66666572207265737472696374696f6e6064820152607360f81b608482015260a4016106aa565b604051631e5dd86b60e01b81523090631e5dd86b906146c69086906003906004016153a7565b60206040518083038186803b1580156146de57600080fd5b505afa1580156146f2573d6000803e3d6000fd5b505050506040513d601f19601f820116820180604052508101906147169190615371565b156147aa57600360009081526015850160205260409020546147aa5760405162461bcd60e51b815260206004820152604160248201527f506172656e74206f726465722073706563696669636174696f6e20646f65732060448201527f6e6f742073617469736679207375626f66666572207265737472696374696f6e6064820152607360f81b608482015260a4016106aa565b604051631e5dd86b60e01b81523090631e5dd86b906147d09086906001906004016153a7565b60206040518083038186803b1580156147e857600080fd5b505afa1580156147fc573d6000803e3d6000fd5b505050506040513d601f19601f820116820180604052508101906148209190615371565b156148b457600160009081526015850160205260409020546148b45760405162461bcd60e51b815260206004820152604160248201527f506172656e74206f726465722073706563696669636174696f6e20646f65732060448201527f6e6f742073617469736679207375626f66666572207265737472696374696f6e6064820152607360f81b608482015260a4016106aa565b604051631e5dd86b60e01b81523090631e5dd86b906148da9086906000906004016153a7565b60206040518083038186803b1580156148f257600080fd5b505afa158015614906573d6000803e3d6000fd5b505050506040513d601f19601f8201168201806040525081019061492a9190615371565b15614a00573060048086015460405163cc04f00360e01b815291820186905260248201526001600160a01b03919091169063cc04f0039060440160206040518083038186803b15801561497c57600080fd5b505afa158015614990573d6000803e3d6000fd5b505050506040513d601f19601f820116820180604052508101906149b49190615371565b614a005760405162461bcd60e51b815260206004820152601f60248201527f4f6666657220646973616c6c6f7720706172656e7420544545206f666665720060448201526064016106aa565b50505050565b60008281526000805160206155b3833981519152602052604090204260118201556012810180546001600160a01b0319163317905560006005836007811115614a5157614a5161517a565b14905060006006600884015460ff166007811115614a7157614a7161517a565b148015614a8f57506000846007811115614a8d57614a8d61517a565b145b90508180614a9a5750805b15613a575760088301805485919060ff19166001836007811115614ac057614ac061517a565b02179055505050505050565b7ff68437791109705d2e300a0b0cfc858fedffc7438da1d9bf937e2f34afa0df7680546000919081908390614b0090615597565b918290555092915050565b828054614b1790615444565b90600052602060002090601f016020900481019282614b395760008555614b7f565b82601f10614b5257805160ff1916838001178555614b7f565b82800160010185558215614b7f579182015b82811115614b7f578251825591602001919060010190614b64565b50614b8b929150614c31565b5090565b6040518060c001604052806000815260200160608152602001606081526020016060815260200160006007811115614bc957614bc961517a565b8152602001614bf260405180606001604052806000815260200160608152602001606081525090565b905290565b828054828255906000526020600020908101928215614b7f5791602002820182811115614b7f578251825591602001919060010190614b64565b5b80821115614b8b5760008155600101614c32565b600060208284031215614c5857600080fd5b5035919050565b8015158114614c6d57600080fd5b50565b60008060408385031215614c8357600080fd5b823591506020830135614c9581614c5f565b809150509250929050565b803560088110614caf57600080fd5b919050565b634e487b7160e01b600052604160045260246000fd5b6040516060810167ffffffffffffffff81118282101715614ced57614ced614cb4565b60405290565b60405160c0810167ffffffffffffffff81118282101715614ced57614ced614cb4565b604051601f8201601f1916810167ffffffffffffffff81118282101715614d3f57614d3f614cb4565b604052919050565b600082601f830112614d5857600080fd5b813567ffffffffffffffff811115614d7257614d72614cb4565b614d85601f8201601f1916602001614d16565b818152846020838601011115614d9a57600080fd5b816020850160208301376000918101602001919091529392505050565b600080600060608486031215614dcc57600080fd5b83359250614ddc60208501614ca0565b9150604084013567ffffffffffffffff811115614df857600080fd5b614e0486828701614d47565b9150509250925092565b60008060408385031215614e2157600080fd5b50508035926020909101359150565b6020808252825182820181905260009190848201906040850190845b81811015614e6857835183529284019291840191600101614e4c565b50909695505050505050565b600082601f830112614e8557600080fd5b8135602067ffffffffffffffff821115614ea157614ea1614cb4565b8160051b614eb0828201614d16565b9283528481018201928281019087851115614eca57600080fd5b83870192505b84831015614ee957823582529183019190830190614ed0565b979650505050505050565b600060608284031215614f0657600080fd5b614f0e614cca565b905081358152602082013567ffffffffffffffff80821115614f2f57600080fd5b614f3b85838601614e74565b60208401526040840135915080821115614f5457600080fd5b50614f6184828501614e74565b60408301525092915050565b600060c08284031215614f7f57600080fd5b614f87614cf3565b905081358152602082013567ffffffffffffffff80821115614fa857600080fd5b614fb485838601614d47565b60208401526040840135915080821115614fcd57600080fd5b614fd985838601614d47565b60408401526060840135915080821115614ff257600080fd5b614ffe85838601614d47565b606084015261500f60808501614ca0565b608084015260a084013591508082111561502857600080fd5b5061503584828501614ef4565b60a08301525092915050565b6000806000806080858703121561505757600080fd5b843567ffffffffffffffff81111561506e57600080fd5b61507a87828801614f6d565b94505060208501359250604085013561509281614c5f565b9396929550929360600135925050565b600080600083850360a08112156150b857600080fd5b84359350602085013567ffffffffffffffff8111156150d657600080fd5b6150e287828801614f6d565b9350506060603f19820112156150f757600080fd5b50615100614cca565b604085013561510e81614c5f565b8152606085013560208201526080909401356040850152509093909250565b6000815180845260005b8181101561515357602081850181015186830182015201615137565b81811115615165576000602083870101525b50601f01601f19169290920160200192915050565b634e487b7160e01b600052602160045260246000fd5b60088110614c6d57614c6d61517a565b600081518084526020808501945080840160005b838110156151d0578151875295820195908201906001016151b4565b509495945050505050565b60008151604084526151f0604085018261512d565b602093840151949093019390935250919050565b6001600160a01b038416815260606020820152825160608201526000602084015160c0608084015261523a61012084018261512d565b90506040850151605f19808584030160a0860152615258838361512d565b925060608701519150808584030160c0860152615275838361512d565b92506080870151915061528782615190565b8160e086015260a08701519150808584030161010086015250805182526020810151606060208401526152bd60608401826151a0565b90506040820151915082810360408401526152d881836151a0565b9250505082810360408401526152ee81856151db565b9695505050505050565b6000806040838503121561530b57600080fd5b82359150602083013567ffffffffffffffff81111561532957600080fd5b61533585828601614d47565b9150509250929050565b6001600160a01b0381168114614c6d57600080fd5b60006020828403121561536657600080fd5b81516118c38161533f565b60006020828403121561538357600080fd5b81516118c381614c5f565b6000602082840312156153a057600080fd5b5051919050565b82815260408101600483106153be576153be61517a565b8260208301529392505050565b602081016153d883615190565b91905290565b634e487b7160e01b600052601160045260246000fd5b600082821015615406576154066153de565b500390565b60006020828403121561541d57600080fd5b8151600381106118c357600080fd5b6000821982111561543f5761543f6153de565b500190565b600181811c9082168061545857607f821691505b6020821081141561547957634e487b7160e01b600052602260045260246000fd5b50919050565b60808101600386106154935761549361517a565b9481526001600160a01b03939093166020840152604083019190915260609091015290565b600060208083526000845481600182811c9150808316806154da57607f831692505b8583108114156154f857634e487b7160e01b85526022600452602485fd5b878601838152602001818015615515576001811461552657615551565b60ff19861682528782019650615551565b60008b81526020902060005b8681101561554b57815484820152908501908901615532565b83019750505b50949998505050505050505050565b60006020828403121561557257600080fd5b8151600481106118c357600080fd5b634e487b7160e01b600052603260045260246000fd5b60006000198214156155ab576155ab6153de565b506001019056fef68437791109705d2e300a0b0cfc858fedffc7438da1d9bf937e2f34afa0df77a26469706673582212209a55e3ef8148ed8d7eb8f12d26e411d20557f88e0f5f4890e0bcac4eae9f377264736f6c63430008090033",
  "linkReferences": {},
  "deployedLinkReferences": {}
}