{
  "_format": "hh-sol-artifact-1",
  "contractName": "Orders",
  "sourceName": "contracts/Orders.sol",
  "abi": [
    {
      "anonymous": false,
      "inputs": [
        {
          "indexed": true,
          "internalType": "address",
          "name": "consumer",
          "type": "address"
        },
        {
          "indexed": true,
          "internalType": "uint256",
          "name": "orderId",
          "type": "uint256"
        },
        {
          "indexed": false,
          "internalType": "uint256",
          "name": "change",
          "type": "uint256"
        }
      ],
      "name": "OrderChangedWithdrawn",
      "type": "event"
    },
    {
      "anonymous": false,
      "inputs": [
        {
          "indexed": true,
          "internalType": "address",
          "name": "consumer",
          "type": "address"
        },
        {
          "indexed": true,
          "internalType": "uint256",
          "name": "offerId",
          "type": "uint256"
        },
        {
          "indexed": true,
          "internalType": "uint256",
          "name": "orderId",
          "type": "uint256"
        }
      ],
      "name": "OrderCreated",
      "type": "event"
    },
    {
      "anonymous": false,
      "inputs": [
        {
          "indexed": true,
          "internalType": "address",
          "name": "consumer",
          "type": "address"
        },
        {
          "indexed": true,
          "internalType": "uint256",
          "name": "orderId",
          "type": "uint256"
        },
        {
          "indexed": false,
          "internalType": "uint256",
          "name": "amount",
          "type": "uint256"
        }
      ],
      "name": "OrderDepositRefilled",
      "type": "event"
    },
    {
      "anonymous": false,
      "inputs": [
        {
          "indexed": true,
          "internalType": "address",
          "name": "tokenReceiver",
          "type": "address"
        },
        {
          "indexed": true,
          "internalType": "uint256",
          "name": "orderId",
          "type": "uint256"
        },
        {
          "indexed": false,
          "internalType": "uint256",
          "name": "profit",
          "type": "uint256"
        }
      ],
      "name": "OrderProfitWithdrawn",
      "type": "event"
    },
    {
      "anonymous": false,
      "inputs": [
        {
          "indexed": true,
          "internalType": "address",
          "name": "consumer",
          "type": "address"
        },
        {
          "indexed": true,
          "internalType": "uint256",
          "name": "orderId",
          "type": "uint256"
        }
      ],
      "name": "OrderStarted",
      "type": "event"
    },
    {
      "anonymous": false,
      "inputs": [
        {
          "indexed": true,
          "internalType": "uint256",
          "name": "orderId",
          "type": "uint256"
        },
        {
          "indexed": true,
          "internalType": "enum OrderStatus",
          "name": "status",
          "type": "uint8"
        }
      ],
      "name": "OrderStatusUpdated",
      "type": "event"
    },
    {
      "anonymous": false,
      "inputs": [
        {
          "indexed": true,
          "internalType": "uint256",
          "name": "parentOrderId",
          "type": "uint256"
        },
        {
          "indexed": true,
          "internalType": "uint256",
          "name": "subOfferId",
          "type": "uint256"
        },
        {
          "indexed": true,
          "internalType": "uint256",
          "name": "subOrderId",
          "type": "uint256"
        }
      ],
      "name": "SubOrderCreated",
      "type": "event"
    },
    {
      "inputs": [
        {
          "internalType": "uint256",
          "name": "orderId",
          "type": "uint256"
        }
      ],
      "name": "cancelOrder",
      "outputs": [],
      "stateMutability": "nonpayable",
      "type": "function"
    },
    {
      "inputs": [
        {
          "internalType": "uint256",
          "name": "orderId",
          "type": "uint256"
        },
        {
          "internalType": "enum OrderStatus",
          "name": "status",
          "type": "uint8"
        },
        {
          "internalType": "string",
          "name": "encryptedResult",
          "type": "string"
        },
        {
          "internalType": "string",
          "name": "encryptedError",
          "type": "string"
        }
      ],
      "name": "completeOrder",
      "outputs": [],
      "stateMutability": "nonpayable",
      "type": "function"
    },
    {
      "inputs": [
        {
          "components": [
            {
              "internalType": "uint256",
              "name": "offerId",
              "type": "uint256"
            },
            {
              "internalType": "string",
              "name": "resultPublicKey",
              "type": "string"
            },
            {
              "internalType": "string",
              "name": "encryptedRequirements",
              "type": "string"
            },
            {
              "internalType": "string",
              "name": "encryptedArgs",
              "type": "string"
            },
            {
              "internalType": "enum OrderStatus",
              "name": "status",
              "type": "uint8"
            },
            {
              "components": [
                {
                  "internalType": "uint256",
                  "name": "slots",
                  "type": "uint256"
                },
                {
                  "internalType": "uint256[]",
                  "name": "inputOffers",
                  "type": "uint256[]"
                },
                {
                  "internalType": "uint256[]",
                  "name": "selectedOffers",
                  "type": "uint256[]"
                }
              ],
              "internalType": "struct OrderArgs",
              "name": "args",
              "type": "tuple"
            }
          ],
          "internalType": "struct OrderInfo",
          "name": "info",
          "type": "tuple"
        },
        {
          "internalType": "uint256",
          "name": "holdDeposit",
          "type": "uint256"
        },
        {
          "internalType": "bool",
          "name": "suspended",
          "type": "bool"
        }
      ],
      "name": "createOrder",
      "outputs": [],
      "stateMutability": "nonpayable",
      "type": "function"
    },
    {
      "inputs": [
        {
          "internalType": "uint256",
          "name": "parentOrderId",
          "type": "uint256"
        },
        {
          "components": [
            {
              "internalType": "uint256",
              "name": "offerId",
              "type": "uint256"
            },
            {
              "internalType": "string",
              "name": "resultPublicKey",
              "type": "string"
            },
            {
              "internalType": "string",
              "name": "encryptedRequirements",
              "type": "string"
            },
            {
              "internalType": "string",
              "name": "encryptedArgs",
              "type": "string"
            },
            {
              "internalType": "enum OrderStatus",
              "name": "status",
              "type": "uint8"
            },
            {
              "components": [
                {
                  "internalType": "uint256",
                  "name": "slots",
                  "type": "uint256"
                },
                {
                  "internalType": "uint256[]",
                  "name": "inputOffers",
                  "type": "uint256[]"
                },
                {
                  "internalType": "uint256[]",
                  "name": "selectedOffers",
                  "type": "uint256[]"
                }
              ],
              "internalType": "struct OrderArgs",
              "name": "args",
              "type": "tuple"
            }
          ],
          "internalType": "struct OrderInfo",
          "name": "suborderInfo",
          "type": "tuple"
        },
        {
          "internalType": "bool",
          "name": "blockParentOrder",
          "type": "bool"
        }
      ],
      "name": "createSubOrder",
      "outputs": [],
      "stateMutability": "nonpayable",
      "type": "function"
    },
    {
      "inputs": [
        {
          "internalType": "uint256",
          "name": "orderId",
          "type": "uint256"
        }
      ],
      "name": "getOrder",
      "outputs": [
        {
          "internalType": "address",
          "name": "",
          "type": "address"
        },
        {
          "components": [
            {
              "internalType": "uint256",
              "name": "offerId",
              "type": "uint256"
            },
            {
              "internalType": "string",
              "name": "resultPublicKey",
              "type": "string"
            },
            {
              "internalType": "string",
              "name": "encryptedRequirements",
              "type": "string"
            },
            {
              "internalType": "string",
              "name": "encryptedArgs",
              "type": "string"
            },
            {
              "internalType": "enum OrderStatus",
              "name": "status",
              "type": "uint8"
            },
            {
              "components": [
                {
                  "internalType": "uint256",
                  "name": "slots",
                  "type": "uint256"
                },
                {
                  "internalType": "uint256[]",
                  "name": "inputOffers",
                  "type": "uint256[]"
                },
                {
                  "internalType": "uint256[]",
                  "name": "selectedOffers",
                  "type": "uint256[]"
                }
              ],
              "internalType": "struct OrderArgs",
              "name": "args",
              "type": "tuple"
            }
          ],
          "internalType": "struct OrderInfo",
          "name": "",
          "type": "tuple"
        },
        {
          "components": [
            {
              "internalType": "string",
              "name": "encryptedResult",
              "type": "string"
            },
            {
              "internalType": "string",
              "name": "encryptedError",
              "type": "string"
            },
            {
              "internalType": "uint256",
              "name": "orderPrice",
              "type": "uint256"
            }
          ],
          "internalType": "struct OrderResult",
          "name": "",
          "type": "tuple"
        }
      ],
      "stateMutability": "view",
      "type": "function"
    },
    {
      "inputs": [
        {
          "internalType": "uint256",
          "name": "orderId",
          "type": "uint256"
        }
      ],
      "name": "getOrderChangeWithdrawn",
      "outputs": [
        {
          "internalType": "bool",
          "name": "",
          "type": "bool"
        }
      ],
      "stateMutability": "view",
      "type": "function"
    },
    {
      "inputs": [
        {
          "internalType": "uint256",
          "name": "orderId",
          "type": "uint256"
        }
      ],
      "name": "getOrderHoldDeposit",
      "outputs": [
        {
          "internalType": "uint256",
          "name": "",
          "type": "uint256"
        }
      ],
      "stateMutability": "view",
      "type": "function"
    },
    {
      "inputs": [
        {
          "internalType": "uint256",
          "name": "orderId",
          "type": "uint256"
        }
      ],
      "name": "getOrderOrigins",
      "outputs": [
        {
          "components": [
            {
              "internalType": "uint256",
              "name": "createdDate",
              "type": "uint256"
            },
            {
              "internalType": "address",
              "name": "createdBy",
              "type": "address"
            },
            {
              "internalType": "uint256",
              "name": "modifiedDate",
              "type": "uint256"
            },
            {
              "internalType": "address",
              "name": "modifiedBy",
              "type": "address"
            }
          ],
          "internalType": "struct Origins",
          "name": "",
          "type": "tuple"
        }
      ],
      "stateMutability": "view",
      "type": "function"
    },
    {
      "inputs": [
        {
          "internalType": "uint256",
          "name": "orderId",
          "type": "uint256"
        }
      ],
      "name": "getOrderParentOrder",
      "outputs": [
        {
          "internalType": "uint256",
          "name": "",
          "type": "uint256"
        }
      ],
      "stateMutability": "view",
      "type": "function"
    },
    {
      "inputs": [
        {
          "internalType": "uint256",
          "name": "orderId",
          "type": "uint256"
        }
      ],
      "name": "getOrderPrice",
      "outputs": [
        {
          "internalType": "uint256",
          "name": "",
          "type": "uint256"
        }
      ],
      "stateMutability": "view",
      "type": "function"
    },
    {
      "inputs": [
        {
          "internalType": "uint256",
          "name": "orderId",
          "type": "uint256"
        }
      ],
      "name": "getOrderProfitWithdrawn",
      "outputs": [
        {
          "internalType": "bool",
          "name": "",
          "type": "bool"
        }
      ],
      "stateMutability": "view",
      "type": "function"
    },
    {
      "inputs": [
        {
          "internalType": "uint256",
          "name": "orderId",
          "type": "uint256"
        }
      ],
      "name": "getOrderSubOrders",
      "outputs": [
        {
          "internalType": "uint256[]",
          "name": "",
          "type": "uint256[]"
        }
      ],
      "stateMutability": "view",
      "type": "function"
    },
    {
      "inputs": [],
      "name": "getOrdersCount",
      "outputs": [
        {
          "internalType": "uint256",
          "name": "",
          "type": "uint256"
        }
      ],
      "stateMutability": "view",
      "type": "function"
    },
    {
      "inputs": [
        {
          "internalType": "uint256",
          "name": "orderId",
          "type": "uint256"
        }
      ],
      "name": "isOrderCompleted",
      "outputs": [
        {
          "internalType": "bool",
          "name": "",
          "type": "bool"
        }
      ],
      "stateMutability": "view",
      "type": "function"
    },
    {
      "inputs": [
        {
          "internalType": "uint256",
          "name": "orderId",
          "type": "uint256"
        }
      ],
      "name": "isOrderReadyForProcessing",
      "outputs": [
        {
          "internalType": "bool",
          "name": "",
          "type": "bool"
        }
      ],
      "stateMutability": "view",
      "type": "function"
    },
    {
      "inputs": [
        {
          "internalType": "uint256",
          "name": "orderId",
          "type": "uint256"
        }
      ],
      "name": "isOrderValid",
      "outputs": [
        {
          "internalType": "bool",
          "name": "",
          "type": "bool"
        }
      ],
      "stateMutability": "view",
      "type": "function"
    },
    {
      "inputs": [
        {
          "internalType": "uint256",
          "name": "orderId",
          "type": "uint256"
        }
      ],
      "name": "processOrder",
      "outputs": [],
      "stateMutability": "nonpayable",
      "type": "function"
    },
    {
      "inputs": [
        {
          "internalType": "uint256",
          "name": "orderId",
          "type": "uint256"
        },
        {
          "internalType": "uint256",
          "name": "amount",
          "type": "uint256"
        }
      ],
      "name": "refillOrder",
      "outputs": [],
      "stateMutability": "nonpayable",
      "type": "function"
    },
    {
      "inputs": [
        {
          "internalType": "uint256",
          "name": "orderId",
          "type": "uint256"
        }
      ],
      "name": "startOrder",
      "outputs": [],
      "stateMutability": "nonpayable",
      "type": "function"
    },
    {
      "inputs": [
        {
          "internalType": "uint256",
          "name": "orderId",
          "type": "uint256"
        },
        {
          "internalType": "uint256",
          "name": "orderPrice",
          "type": "uint256"
        }
      ],
      "name": "updateOrderPrice",
      "outputs": [],
      "stateMutability": "nonpayable",
      "type": "function"
    },
    {
      "inputs": [
        {
          "internalType": "uint256",
          "name": "orderId",
          "type": "uint256"
        }
      ],
      "name": "withdrawChange",
      "outputs": [],
      "stateMutability": "nonpayable",
      "type": "function"
    },
    {
      "inputs": [
        {
          "internalType": "uint256",
          "name": "orderId",
          "type": "uint256"
        }
      ],
      "name": "withdrawProfit",
      "outputs": [],
      "stateMutability": "nonpayable",
      "type": "function"
    }
  ],
  "bytecode": "0x608060405234801561001057600080fd5b506149e7806100206000396000f3fe608060405234801561001057600080fd5b50600436106101825760003560e01c8063779e423f116100d8578063ab74e6421161008c578063d09ef24111610066578063d09ef241146103f2578063d82a2bea14610414578063df305d591461042757600080fd5b8063ab74e642146103c4578063b5b3b051146103d7578063c9bd9ff0146103df57600080fd5b80637d41fdd9116100bd5780637d41fdd914610349578063835055c31461035c5780639959a56b146103b157600080fd5b8063779e423f146102de5780637a62b9241461031157600080fd5b80635e9e78d01161013a5780636261256b116101145780636261256b1461026b5780636eb691f41461028e578063752895dd146102be57600080fd5b80635e9e78d0146102325780635ff951d914610245578063616c0f191461025857600080fd5b80632e5187fb1161016b5780632e5187fb146101f757806342d798c91461020c578063514fcac71461021f57600080fd5b80630f251358146101875780631a02dc92146101ca575b600080fd5b6101b761019536600461418f565b600090815260008051602061499283398151915260205260409020600e015490565b6040519081526020015b60405180910390f35b6101b76101d836600461418f565b6000908152600080516020614992833981519152602052604090205490565b61020a61020536600461418f565b61043a565b005b61020a61021a366004614495565b610776565b61020a61022d36600461418f565b610c9b565b61020a6102403660046144f0565b610f4b565b61020a610253366004614512565b611255565b61020a610266366004614590565b611678565b61027e61027936600461418f565b611af1565b60405190151581526020016101c1565b6101b761029c36600461418f565b6000908152600080516020614992833981519152602052604090206019015490565b6102d16102cc36600461418f565b611b55565b6040516101c191906145e0565b61027e6102ec36600461418f565b6000908152600080516020614992833981519152602052604090206014015460ff1690565b61027e61031f36600461418f565b60009081526000805160206149928339815191526020526040902060140154610100900460ff1690565b61020a61035736600461418f565b611bcc565b61036f61036a36600461418f565b611d6a565b6040516101c19190815181526020808301516001600160a01b039081169183019190915260408084015190830152606092830151169181019190915260800190565b61020a6103bf36600461418f565b611df5565b61027e6103d236600461418f565b61209a565b6101b761211d565b61027e6103ed36600461418f565b612156565b61040561040036600461418f565b61218c565b6040516101c193929190614707565b61020a61042236600461418f565b612610565b61020a6104353660046144f0565b612b2f565b600081815260008051602061499283398151915260205260408120829150600030600483810154604051634e6e04f760e01b8152918201526001600160a01b039190911690634e6e04f79060240160206040518083038186803b1580156104a057600080fd5b505afa1580156104b4573d6000803e3d6000fd5b505050506040513d601f19601f820116820180604052508101906104d8919061480d565b905060003060405163071ddd6760e11b81526001600160a01b0384811660048301529190911690630e3bbace9060240160206040518083038186803b15801561052057600080fd5b505afa158015610534573d6000803e3d6000fd5b505050506040513d601f19601f82011682018060405250810190610558919061480d565b90506001600160a01b03811633146105c15760405162461bcd60e51b815260206004820152602160248201527f4f6e6c7920617661696c61626c6520666f7220616374696f6e206163636f756e6044820152601d60fa1b60648201526084015b60405180910390fd5b6105ca84611af1565b6106165760405162461bcd60e51b815260206004820152601960248201527f4f72646572206861736e2774206265656e20737461727465640000000000000060448201526064016105b8565b61061f8561209a565b156106925760405162461bcd60e51b815260206004820152602c60248201527f436f6d706c65746564206f726465722063616e27742062652072657475726e6560448201527f6420746f2070726f63657373000000000000000000000000000000000000000060648201526084016105b8565b60008581526000805160206149928339815191526020526040902060088101546106c09060ff166001612d34565b6107315760405162461bcd60e51b8152602060048201526024808201527f4e6f7420616c6c6f77656420746f207365742050726f63657373696e6720737460448201527f617475730000000000000000000000000000000000000000000000000000000060648201526084016105b8565b6107538160100142600282015560030180546001600160a01b03191633179055565b61075e866001612e29565b600281015461076e574260028201555b505050505050565b6000838152600080516020614992833981519152602052604081209061079b85611af1565b9050600030600484810154604051634e6e04f760e01b8152918201526001600160a01b039190911690634e6e04f79060240160206040518083038186803b1580156107e557600080fd5b505afa1580156107f9573d6000803e3d6000fd5b505050506040513d601f19601f8201168201806040525081019061081d919061480d565b905060003060405163071ddd6760e11b81526001600160a01b0384811660048301529190911690630e3bbace9060240160206040518083038186803b15801561086557600080fd5b505afa158015610879573d6000803e3d6000fd5b505050506040513d601f19601f8201168201806040525081019061089d919061480d565b90508280156108b45750336001600160a01b038216145b806108d45750821580156108d4575060018401546001600160a01b031633145b6109205760405162461bcd60e51b815260206004820152600d60248201527f4163636573732064656e6965640000000000000000000000000000000000000060448201526064016105b8565b308651604051634202334f60e01b815260048101919091523360248201526001600160a01b039190911690634202334f9060440160206040518083038186803b15801561096c57600080fd5b505afa158015610980573d6000803e3d6000fd5b505050506040513d601f19601f820116820180604052508101906109a4919061482a565b6109de5760405162461bcd60e51b815260206004820152600b60248201526a139bdd08185b1b1bddd95960aa1b60448201526064016105b8565b8551604051636165696f60e01b815260048101919091526000903090636165696f9060240160206040518083038186803b158015610a1b57600080fd5b505afa158015610a2f573d6000803e3d6000fd5b505050506040513d601f19601f82011682018060405250810190610a539190614847565b90506001856015016000836002811115610a6f57610a6f614671565b6002811115610a8057610a80614671565b81526020019081526020016000206000828254610a9d919061487e565b90915550508651610ab090869083612eaf565b86516040516308e161a160e21b81526004810191909152600090309063238586849060240160206040518083038186803b158015610aed57600080fd5b505afa158015610b01573d6000803e3d6000fd5b505050506040513d601f19601f82011682018060405250810190610b259190614896565b905060008080610b368b8585613811565b6001808c015481830180546001600160a01b0319166001600160a01b039092169190911790558e825560038c0180549182018155600090815260209020018290559092509050610b9e60108a0142600282015560030180546001600160a01b03191633179055565b8389601901541015610bf25760405162461bcd60e51b815260206004820152601f60248201527f4e6f7420656e6f75676820706172656e74206f72646572206465706f7369740060448201526064016105b8565b83896019016000828254610c0691906148af565b9250508190555083816019016000828254610c21919061487e565b90915550508915610c5d57600082815260178a016020526040812060019081905560188b01805491929091610c5790849061487e565b90915550505b8a516040518391908e907f3b132e119fac45d00684c0649267bcf1463e84de5f6384ba8c9b2e7257fe0e2590600090a4505050505050505050505050565b60008181526000805160206149928339815191526020526040902060018101548291906001600160a01b03163314610d155760405162461bcd60e51b815260206004820152601b60248201527f417661696c61626c65206f6e6c7920666f7220636f6e73756d6572000000000060448201526064016105b8565b610d1e8361209a565b15610d755760405162461bcd60e51b815260206004820152602160248201527f436f6d706c65746564206f726465722063616e27742062652063616e63656c656044820152601960fa1b60648201526084016105b8565b6000838152600080516020614992833981519152602052604081209050306004828101546040517f8442090a000000000000000000000000000000000000000000000000000000008152918201526001600160a01b039190911690638442090a9060240160206040518083038186803b158015610df157600080fd5b505afa158015610e05573d6000803e3d6000fd5b505050506040513d601f19601f82011682018060405250810190610e29919061482a565b158015610e395750600281015415155b15610e4f57610e49846002612e29565b50505050565b610e718160100142600282015560030180546001600160a01b03191633179055565b610e7c846003612e29565b6002810154610e92576000600e90910155505050565b306004828101546002840154600e8501546040517fb98c9f3e00000000000000000000000000000000000000000000000000000000815293840192909252602483015260448201526001600160a01b03919091169063b98c9f3e9060640160206040518083038186803b158015610f0857600080fd5b505afa158015610f1c573d6000803e3d6000fd5b505050506040513d601f19601f82011682018060405250810190610f409190614896565b600e90910155505050565b600082815260008051602061499283398151915260205260408120839150600030600483810154604051634e6e04f760e01b8152918201526001600160a01b039190911690634e6e04f79060240160206040518083038186803b158015610fb157600080fd5b505afa158015610fc5573d6000803e3d6000fd5b505050506040513d601f19601f82011682018060405250810190610fe9919061480d565b905060003060405163071ddd6760e11b81526001600160a01b0384811660048301529190911690630e3bbace9060240160206040518083038186803b15801561103157600080fd5b505afa158015611045573d6000803e3d6000fd5b505050506040513d601f19601f82011682018060405250810190611069919061480d565b90506001600160a01b03811633146110cd5760405162461bcd60e51b815260206004820152602160248201527f4f6e6c7920617661696c61626c6520666f7220616374696f6e206163636f756e6044820152601d60fa1b60648201526084016105b8565b6110d684611af1565b6111225760405162461bcd60e51b815260206004820152601960248201527f4f72646572206861736e2774206265656e20737461727465640000000000000060448201526064016105b8565b61112b8661209a565b156111785760405162461bcd60e51b815260206004820181905260248201527f436f6d706c65746564206f726465722063616e2774206265207570646174656460448201526064016105b8565b6000868152600080516020614992833981519152602052604090206008808201546111a89160ff90911690612d34565b61121a5760405162461bcd60e51b815260206004820152602a60248201527f43616e27742075706461746520707269636520696e2063757272656e74206f7260448201527f646572207374617475730000000000000000000000000000000000000000000060648201526084016105b8565b61123c8160100142600282015560030180546001600160a01b03191633179055565b611247876008612e29565b600e01949094555050505050565b600084815260008051602061499283398151915260205260408120859150600030600483810154604051634e6e04f760e01b8152918201526001600160a01b039190911690634e6e04f79060240160206040518083038186803b1580156112bb57600080fd5b505afa1580156112cf573d6000803e3d6000fd5b505050506040513d601f19601f820116820180604052508101906112f3919061480d565b905060003060405163071ddd6760e11b81526001600160a01b0384811660048301529190911690630e3bbace9060240160206040518083038186803b15801561133b57600080fd5b505afa15801561134f573d6000803e3d6000fd5b505050506040513d601f19601f82011682018060405250810190611373919061480d565b90506001600160a01b03811633146113d75760405162461bcd60e51b815260206004820152602160248201527f4f6e6c7920617661696c61626c6520666f7220616374696f6e206163636f756e6044820152601d60fa1b60648201526084016105b8565b6113e084611af1565b61142c5760405162461bcd60e51b815260206004820152601960248201527f4f72646572206861736e2774206265656e20737461727465640000000000000060448201526064016105b8565b6114358861209a565b156114825760405162461bcd60e51b815260206004820152601160248201527f416c726561647920636f6d706c6574656400000000000000000000000000000060448201526064016105b8565b600587600881111561149657611496614671565b14806114b3575060048760088111156114b1576114b1614671565b145b6115255760405162461bcd60e51b815260206004820152602b60248201527f43616e20636f6d706c657465206f6e6c7920776974682073746174757320457260448201527f726f72206f7220446f6e6500000000000000000000000000000000000000000060648201526084016105b8565b6000888152600080516020614992833981519152602052604081209050600160088083015460ff169081111561155d5761155d614671565b148061157f575060088181015460ff168181111561157d5761157d614671565b145b6115cb5760405162461bcd60e51b815260206004820181905260248201527f43616e277420636f6d706c657465206265666f72652070726f63657373696e6760448201526064016105b8565b6115ed8160100142600282015560030180546001600160a01b03191633179055565b865161160290600c83019060208a0190614054565b50855161161890600d8301906020890190614054565b50600588600881111561162d5761162d614671565b14156116455760148101805461ff0019166101001790555b61164f8989612e29565b61166d8960058a600881111561166757611667614671565b14613dca565b505050505050505050565b33308451604051634202334f60e01b815260048101919091526001600160a01b0383811660248301529190911690634202334f9060440160206040518083038186803b1580156116c757600080fd5b505afa1580156116db573d6000803e3d6000fd5b505050506040513d601f19601f820116820180604052508101906116ff919061482a565b6117395760405162461bcd60e51b815260206004820152600b60248201526a139bdd08185b1b1bddd95960aa1b60448201526064016105b8565b8351604051631e5dd86b60e01b81523091631e5dd86b9161176091906000906004016148c6565b60206040518083038186803b15801561177857600080fd5b505afa15801561178c573d6000803e3d6000fd5b505050506040513d601f19601f820116820180604052508101906117b0919061482a565b156117fd5760405162461bcd60e51b815260206004820181905260248201527f4f6666657220646973616c6c6f77207374616e64616c6f6e65206f726465727360448201526064016105b8565b83516040516308e161a160e21b81526004810191909152600090309063238586849060240160206040518083038186803b15801561183a57600080fd5b505afa15801561184e573d6000803e3d6000fd5b505050506040513d601f19601f820116820180604052508101906118729190614896565b905080841015611880578093505b6040517f897ce7cf000000000000000000000000000000000000000000000000000000008152600090309063897ce7cf906118bf9084906004016148ea565b60206040518083038186803b1580156118d757600080fd5b505afa1580156118eb573d6000803e3d6000fd5b505050506040513d601f19601f8201168201806040525081019061190f9190614896565b90508085101561191d578094505b611925613ec5565b604051636eb1769f60e11b81526001600160a01b038581166004830152306024830152919091169063dd62ed3e9060440160206040518083038186803b15801561196e57600080fd5b505afa158015611982573d6000803e3d6000fd5b505050506040513d601f19601f820116820180604052508101906119a69190614896565b851115611a015760405162461bcd60e51b8152602060048201526024808201527f416c6c6f77656420746f6b656e73206c657373207468616e20686f6c644465706044820152631bdcda5d60e21b60648201526084016105b8565b611a09613ec5565b6040516323b872dd60e01b81526001600160a01b0385811660048301523060248301526044820188905291909116906323b872dd90606401602060405180830381600087803b158015611a5b57600080fd5b505af1158015611a6f573d6000803e3d6000fd5b505050506040513d601f19601f82011682018060405250810190611a93919061482a565b50600080611aa2888888613811565b60198101899055895160405192945090925083916001600160a01b038816907fbb4cd350108fec46a02c87acb34a38f6c465fb2dc050687359c97229703bb8f490600090a45050505050505050565b600081815260008051602061499283398151915260205260408120600760088083015460ff1690811115611b2757611b27614671565b14158015611b4e5750600660088083015460ff1690811115611b4b57611b4b614671565b14155b9392505050565b6000818152600080516020614992833981519152602052604081206060919060038101805460408051602080840282018101909252828152939450830182828015611bbf57602002820191906000526020600020905b815481526020019060010190808311611bab575b5050505050915050919050565b60008181526000805160206149928339815191526020526040902060018101548291906001600160a01b03163314611c465760405162461bcd60e51b815260206004820152601b60248201527f417661696c61626c65206f6e6c7920666f7220636f6e73756d6572000000000060448201526064016105b8565b6000838152600080516020614992833981519152602052604081209050600760088083015460ff1690811115611c7e57611c7e614671565b14611ccb5760405162461bcd60e51b815260206004820152601760248201527f4f72646572206d7573742062652073757370656e64656400000000000000000060448201526064016105b8565b611ced8160100142600282015560030180546001600160a01b03191633179055565b601881015480611d0a5760088201805460ff191690556000611d0d565b60065b60088084018054909160ff19909116906001908490811115611d3157611d31614671565b0217905550604051859033907fe83be2bd6985a0345b14c74f91632c816560fb0543defd73982467563c4b598990600090a35050505050565b604080516080810182526000808252602082018190529181018290526060810182905290611db08360009081526000805160206149928339815191526020526040902090565b604080516080810182526010830154815260118301546001600160a01b0390811660208301526012840154928201929092526013909201541660608201529392505050565b600081815260008051602061499283398151915260205260409020601481015460ff1615611e655760405162461bcd60e51b815260206004820152601860248201527f4368616e676520616c72656164792077697468647261776e000000000000000060448201526064016105b8565b60018101546001600160a01b03163314611ee75760405162461bcd60e51b815260206004820152602160248201527f417661696c61626c65206f6e6c7920666f72204f7264657220636f6e73756d6560448201527f720000000000000000000000000000000000000000000000000000000000000060648201526084016105b8565b611ef08261209a565b611f4d5760405162461bcd60e51b815260206004820152602860248201527f57697468647261776e20617661696c61626c65207768656e206f7264657220636044820152671bdb5c1b195d195960c21b60648201526084016105b8565b6014810154600090610100900460ff1615611f69576000611f6f565b600e8201545b90506000818360190154611f8391906148af565b9050611f8d613ec5565b60018401546040517fa9059cbb0000000000000000000000000000000000000000000000000000000081526001600160a01b0391821660048201526024810184905291169063a9059cbb90604401602060405180830381600087803b158015611ff557600080fd5b505af1158015612009573d6000803e3d6000fd5b505050506040513d601f19601f8201168201806040525081019061202d919061482a565b508083601901600082825461204291906148af565b909155505060148301805460ff19166001179055604051849033907ff2104e05a949a0a0c1f4b384977e9a631ddeccc6a9f14f878ca3d0510c7636019061208c9085815260200190565b60405180910390a350505050565b600081815260008051602061499283398151915260205260408120600460088083015460ff16908111156120d0576120d0614671565b14806120f45750600560088083015460ff16908111156120f2576120f2614671565b145b80611b4e5750600360088083015460ff169081111561211557612115614671565b149392505050565b7ff68437791109705d2e300a0b0cfc858fedffc7438da1d9bf937e2f34afa0df76805460009190612150906001906148af565b91505090565b60007ff68437791109705d2e300a0b0cfc858fedffc7438da1d9bf937e2f34afa0df768215801590611b4e575054909110919050565b60006121966140d8565b6121ba60405180606001604052806060815260200160608152602001600081525090565b60008481526000805160206149928339815191526020526040812090508060010160009054906101000a90046001600160a01b03168160040182600c01816040518060c00160405290816000820154815260200160018201805461221d90614904565b80601f016020809104026020016040519081016040528092919081815260200182805461224990614904565b80156122965780601f1061226b57610100808354040283529160200191612296565b820191906000526020600020905b81548152906001019060200180831161227957829003601f168201915b505050505081526020016002820180546122af90614904565b80601f01602080910402602001604051908101604052809291908181526020018280546122db90614904565b80156123285780601f106122fd57610100808354040283529160200191612328565b820191906000526020600020905b81548152906001019060200180831161230b57829003601f168201915b5050505050815260200160038201805461234190614904565b80601f016020809104026020016040519081016040528092919081815260200182805461236d90614904565b80156123ba5780601f1061238f576101008083540402835291602001916123ba565b820191906000526020600020905b81548152906001019060200180831161239d57829003601f168201915b5050509183525050600482015460209091019060ff1660088111156123e1576123e1614671565b60088111156123f2576123f2614671565b815260200160058201604051806060016040529081600082015481526020016001820180548060200260200160405190810160405280929190818152602001828054801561245f57602002820191906000526020600020905b81548152602001906001019080831161244b575b50505050508152602001600282018054806020026020016040519081016040528092919081815260200182805480156124b757602002820191906000526020600020905b8154815260200190600101908083116124a3575b505050505081525050815250509150806040518060600160405290816000820180546124e290614904565b80601f016020809104026020016040519081016040528092919081815260200182805461250e90614904565b801561255b5780601f106125305761010080835404028352916020019161255b565b820191906000526020600020905b81548152906001019060200180831161253e57829003601f168201915b5050505050815260200160018201805461257490614904565b80601f01602080910402602001604051908101604052809291908181526020018280546125a090614904565b80156125ed5780601f106125c2576101008083540402835291602001916125ed565b820191906000526020600020905b8154815290600101906020018083116125d057829003601f168201915b505050505081526020016002820154815250509050935093509350509193909250565b6000818152600080516020614992833981519152602052604081209050600030600483810154604051634e6e04f760e01b8152918201526001600160a01b039190911690634e6e04f79060240160206040518083038186803b15801561267557600080fd5b505afa158015612689573d6000803e3d6000fd5b505050506040513d601f19601f820116820180604052508101906126ad919061480d565b90506000306040517f0cc079f30000000000000000000000000000000000000000000000000000000081526001600160a01b0384811660048301529190911690630cc079f39060240160206040518083038186803b15801561270e57600080fd5b505afa158015612722573d6000803e3d6000fd5b505050506040513d601f19601f82011682018060405250810190612746919061480d565b600e8401549091506127578561209a565b6127b45760405162461bcd60e51b815260206004820152602860248201527f57697468647261776e20617661696c61626c65207768656e206f7264657220636044820152671bdb5c1b195d195960c21b60648201526084016105b8565b336001600160a01b038316146128325760405162461bcd60e51b815260206004820152603160248201527f417661696c61626c65206f6e6c7920666f722070726f766964657220746f6b6560448201527f6e2072656369766572206163636f756e7400000000000000000000000000000060648201526084016105b8565b6014840154610100900460ff161561288c5760405162461bcd60e51b815260206004820152601860248201527f50726f66697420616c72656164792077697468647261776e000000000000000060448201526064016105b8565b612894613ec5565b6040517f095ea7b3000000000000000000000000000000000000000000000000000000008152306004820152602481018390526001600160a01b03919091169063095ea7b390604401602060405180830381600087803b1580156128f757600080fd5b505af115801561290b573d6000803e3d6000fd5b505050506040513d601f19601f8201168201806040525081019061292f919061482a565b50306040517f2ee409080000000000000000000000000000000000000000000000000000000081526001600160a01b038481166004830152602482018490529190911690632ee4090890604401600060405180830381600087803b15801561299657600080fd5b505af11580156129aa573d6000803e3d6000fd5b505050506129b53090565b6001600160a01b031663a25983e58383306001600160a01b031663897ce7cf60016040518263ffffffff1660e01b81526004016129f291906148ea565b60206040518083038186803b158015612a0a57600080fd5b505afa158015612a1e573d6000803e3d6000fd5b505050506040513d601f19601f82011682018060405250810190612a429190614896565b6040517fffffffff0000000000000000000000000000000000000000000000000000000060e086901b1681526001600160a01b03909316600484015260248301919091526044820152606401600060405180830381600087803b158015612aa857600080fd5b505af1158015612abc573d6000803e3d6000fd5b5050505080846019016000828254612ad491906148af565b909155505060148401805461ff001916610100179055604051859033907fe2350354b45acad228120b59d977f2e487571e8d75fb3b74252a1034464449b890612b209085815260200190565b60405180910390a35050505050565b33612b38613ec5565b604051636eb1769f60e11b81526001600160a01b038381166004830152306024830152919091169063dd62ed3e9060440160206040518083038186803b158015612b8157600080fd5b505afa158015612b95573d6000803e3d6000fd5b505050506040513d601f19601f82011682018060405250810190612bb99190614896565b821115612c2e5760405162461bcd60e51b815260206004820152602660248201527f416c6c6f77656420746f6b656e73206c657373207468616e20726566696c6c2060448201527f616d6f756e74000000000000000000000000000000000000000000000000000060648201526084016105b8565b612c36613ec5565b6040516323b872dd60e01b81526001600160a01b0383811660048301523060248301526044820185905291909116906323b872dd90606401602060405180830381600087803b158015612c8857600080fd5b505af1158015612c9c573d6000803e3d6000fd5b505050506040513d601f19601f82011682018060405250810190612cc0919061482a565b50600083815260008051602061499283398151915260205260408120905082816019016000828254612cf2919061487e565b909155505060405183815284906001600160a01b038416907f5dd58c11f2973d8fca72f1cffb326b5af815e81232ff1e581a7d534344fad71f9060200161208c565b6000806002846008811115612d4b57612d4b614671565b148015612d6957506003836008811115612d6757612d67614671565b145b9050600080856008811115612d8057612d80614671565b1480612d9d57506001856008811115612d9b57612d9b614671565b145b80612db957506008856008811115612db757612db7614671565b145b8015612dd657506001846008811115612dd457612dd4614671565b145b905060006001866008811115612dee57612dee614671565b148015612e0c57506008856008811115612e0a57612e0a614671565b145b90508280612e175750815b80612e1f5750805b9695505050505050565b60008281526000805160206149928339815191526020526040902060088082018054849260ff19909116906001908490811115612e6857612e68614671565b0217905550816008811115612e7f57612e7f614671565b60405184907fd9a86b644eb5f5b43cc8a700849852481080361c7a4b00ba646d1b46c5585f9590600090a3505050565b600030600485810154604051636165696f60e01b8152918201526001600160a01b039190911690636165696f9060240160206040518083038186803b158015612ef757600080fd5b505afa158015612f0b573d6000803e3d6000fd5b505050506040513d601f19601f82011682018060405250810190612f2f9190614847565b90506002816002811115612f4557612f45614671565b1415612fb95760405162461bcd60e51b815260206004820152602b60248201527f5375626f726465727320666f7220276f7574707574272067726f75702069732060448201527f6e6f7420616c6c6f77656400000000000000000000000000000000000000000060648201526084016105b8565b6001816002811115612fcd57612fcd614671565b141580612fed575060026000908152601585016020526040902054600110155b6130435760405162461bcd60e51b815260206004820152602160248201527f4f7574707574207375626f7264657220616c726561647920616c6c6f636174656044820152601960fa1b60648201526084016105b8565b600081600281111561305757613057614671565b141580613077575060026000908152601585016020526040902054600110155b6130cd5760405162461bcd60e51b815260206004820152602160248201527f4f7574707574207375626f7264657220616c726561647920616c6c6f636174656044820152601960fa1b60648201526084016105b8565b60028260028111156130e1576130e1614671565b1480156130f15750600b84015415155b156131c8576000805b600b86015481101561315057600b8601805460009190839081106131205761312061493f565b906000526020600020015490508581141561313f576001925050613150565b5061314981614955565b90506130fa565b50806131c6576040805162461bcd60e51b81526020600482015260248101919091527f4f6666657220646f6573206e6f74207361746973667920706172656e74206f7260448201527f6465722073656c65637465644f66666572732073706563696669636174696f6e60648201526084016105b8565b505b60008260028111156131dc576131dc614671565b14156133a7576000805b600a86015481101561333157600a86018054600091908390811061320c5761320c61493f565b906000526020600020015490506132203090565b60405163cc04f00360e01b815260048101889052602481018390526001600160a01b03919091169063cc04f0039060440160206040518083038186803b15801561326957600080fd5b505afa15801561327d573d6000803e3d6000fd5b505050506040513d601f19601f820116820180604052508101906132a1919061482a565b6133135760405162461bcd60e51b815260206004820152603c60248201527f4f66666572207265737472696374696f6e7320636f6e666c696374732077697460448201527f6820706172656e74206f726465722073706563696669636174696f6e0000000060648201526084016105b8565b8581141561332057600192505b5061332a81614955565b90506131e6565b50806133a55760405162461bcd60e51b815260206004820152603d60248201527f4f6666657220646f6573206e6f74207361746973667920706172656e74206f7260448201527f64657220696e7075744f66666572732073706563696669636174696f6e00000060648201526084016105b8565b505b604051631e5dd86b60e01b81523090631e5dd86b906133cd9086906002906004016148c6565b60206040518083038186803b1580156133e557600080fd5b505afa1580156133f9573d6000803e3d6000fd5b505050506040513d601f19601f8201168201806040525081019061341d919061482a565b156134b157600260009081526016850160205260409020546134b15760405162461bcd60e51b815260206004820152604160248201527f506172656e74206f726465722073706563696669636174696f6e20646f65732060448201527f6e6f742073617469736679207375626f66666572207265737472696374696f6e6064820152607360f81b608482015260a4016105b8565b604051631e5dd86b60e01b81523090631e5dd86b906134d79086906003906004016148c6565b60206040518083038186803b1580156134ef57600080fd5b505afa158015613503573d6000803e3d6000fd5b505050506040513d601f19601f82011682018060405250810190613527919061482a565b156135bb57600360009081526016850160205260409020546135bb5760405162461bcd60e51b815260206004820152604160248201527f506172656e74206f726465722073706563696669636174696f6e20646f65732060448201527f6e6f742073617469736679207375626f66666572207265737472696374696f6e6064820152607360f81b608482015260a4016105b8565b604051631e5dd86b60e01b81523090631e5dd86b906135e19086906001906004016148c6565b60206040518083038186803b1580156135f957600080fd5b505afa15801561360d573d6000803e3d6000fd5b505050506040513d601f19601f82011682018060405250810190613631919061482a565b156136c557600160009081526016850160205260409020546136c55760405162461bcd60e51b815260206004820152604160248201527f506172656e74206f726465722073706563696669636174696f6e20646f65732060448201527f6e6f742073617469736679207375626f66666572207265737472696374696f6e6064820152607360f81b608482015260a4016105b8565b604051631e5dd86b60e01b81523090631e5dd86b906136eb9086906000906004016148c6565b60206040518083038186803b15801561370357600080fd5b505afa158015613717573d6000803e3d6000fd5b505050506040513d601f19601f8201168201806040525081019061373b919061482a565b15610e49573060048086015460405163cc04f00360e01b815291820186905260248201526001600160a01b03919091169063cc04f0039060440160206040518083038186803b15801561378d57600080fd5b505afa1580156137a1573d6000803e3d6000fd5b505050506040513d601f19601f820116820180604052508101906137c5919061482a565b610e495760405162461bcd60e51b815260206004820152601f60248201527f4f6666657220646973616c6c6f7720706172656e7420544545206f666665720060448201526064016105b8565b8251604051634e6e04f760e01b815260048101919091526000908190339082903090634e6e04f79060240160206040518083038186803b15801561385457600080fd5b505afa158015613868573d6000803e3d6000fd5b505050506040513d601f19601f8201168201806040525081019061388c919061480d565b87516040517fe51334fb0000000000000000000000000000000000000000000000000000000081526004810191909152909150309063e51334fb9060240160206040518083038186803b1580156138e257600080fd5b505afa1580156138f6573d6000803e3d6000fd5b505050506040513d601f19601f8201168201806040525081019061391a919061482a565b6139665760405162461bcd60e51b815260206004820152601460248201527f4f66666572206d7573742062652061637469766500000000000000000000000060448201526064016105b8565b306040517fded116690000000000000000000000000000000000000000000000000000000081526001600160a01b038381166004830152919091169063ded116699060240160206040518083038186803b1580156139c357600080fd5b505afa1580156139d7573d6000803e3d6000fd5b505050506040513d601f19601f820116820180604052508101906139fb919061482a565b613a535760405162461bcd60e51b8152602060048201526024808201527f4e6f7420656e6f7567682070726f7669646572207365637572697479206465706044820152631bdcda5d60e21b60648201526084016105b8565b6000613a5d613f3d565b600081815260008051602061499283398151915260205260408120919250906001810180546001600160a01b0319166001600160a01b0387161790558951600482019081556020808c015180519394508c93613abf9260058701920190614054565b5060408201518051613adb916002840191602090910190614054565b5060608201518051613af7916003840191602090910190614054565b50608082015160048201805460ff19166001836008811115613b1b57613b1b614671565b021790555060a08201518051600583019081556020808301518051613b469260068701920190614140565b5060408201518051613b62916002840191602090910190614140565b50504260108501819055601185018054336001600160a01b03199182168117909255601287019290925560138601805490921617905550613ba1915050565b88516040517f3835b0d300000000000000000000000000000000000000000000000000000000815260048101919091523090633835b0d39060240160206040518083038186803b158015613bf457600080fd5b505afa158015613c08573d6000803e3d6000fd5b505050506040513d601f19601f82011682018060405250810190613c2c9190614970565b600f8201805460ff19166001836003811115613c4a57613c4a614671565b0217905550600e810188905586613c62576000613c65565b60075b60088083018054909160ff19909116906001908490811115613c8957613c89614671565b021790555060a0890151602001515115613dbc5760005b8960a001516020015151811015613dba5760008a60a00151602001518281518110613ccd57613ccd61493f565b602002602001015190506001836016016000613ce63090565b6001600160a01b0316633835b0d3856040518263ffffffff1660e01b8152600401613d1391815260200190565b60206040518083038186803b158015613d2b57600080fd5b505afa158015613d3f573d6000803e3d6000fd5b505050506040513d601f19601f82011682018060405250810190613d639190614970565b6003811115613d7457613d74614671565b6003811115613d8557613d85614671565b81526020019081526020016000206000828254613da2919061487e565b90915550613db39150829050614955565b9050613ca0565b505b909890975095505050505050565b613dd382612156565b613e1f5760405162461bcd60e51b815260206004820152600d60248201527f556e6b6e6f776e206f726465720000000000000000000000000000000000000060448201526064016105b8565b6000828152600080516020614992833981519152602052604090208054613e4557505050565b805460009081526000805160206149928339815191526020526040812060008581526017820160205260408120546018830180549394509092839290613e8c9084906148af565b9091555084905080613ea057506018820154155b15613ebe578254613ebe9085613eb7576000613f8b565b6005613f8b565b5050505050565b6000306001600160a01b03166321df0da76040518163ffffffff1660e01b815260040160206040518083038186803b158015613f0057600080fd5b505afa158015613f14573d6000803e3d6000fd5b505050506040513d601f19601f82011682018060405250810190613f38919061480d565b905090565b7ff68437791109705d2e300a0b0cfc858fedffc7438da1d9bf937e2f34afa0df76805460009190613f6d57600181555b805491506001816000613f80838661487e565b925050819055505090565b6000828152600080516020614992833981519152602052604090204260128201556013810180546001600160a01b0319163317905560006005836008811115613fd657613fd6614671565b1490506000600660088085015460ff1690811115613ff657613ff6614671565b1480156140145750600084600881111561401257614012614671565b145b9050818061401f5750805b15613ebe5760088084018054869260ff1990911690600190849081111561404857614048614671565b02179055505050505050565b82805461406090614904565b90600052602060002090601f01602090048101928261408257600085556140c8565b82601f1061409b57805160ff19168380011785556140c8565b828001600101855582156140c8579182015b828111156140c85782518255916020019190600101906140ad565b506140d492915061417a565b5090565b6040518060c00160405280600081526020016060815260200160608152602001606081526020016000600881111561411257614112614671565b815260200161413b60405180606001604052806000815260200160608152602001606081525090565b905290565b8280548282559060005260206000209081019282156140c857916020028201828111156140c85782518255916020019190600101906140ad565b5b808211156140d4576000815560010161417b565b6000602082840312156141a157600080fd5b5035919050565b634e487b7160e01b600052604160045260246000fd5b60405160c0810167ffffffffffffffff811182821017156141e1576141e16141a8565b60405290565b604051601f8201601f1916810167ffffffffffffffff81118282101715614210576142106141a8565b604052919050565b600082601f83011261422957600080fd5b813567ffffffffffffffff811115614243576142436141a8565b614256601f8201601f19166020016141e7565b81815284602083860101111561426b57600080fd5b816020850160208301376000918101602001919091529392505050565b80356009811061429757600080fd5b919050565b600082601f8301126142ad57600080fd5b8135602067ffffffffffffffff8211156142c9576142c96141a8565b8160051b6142d88282016141e7565b92835284810182019282810190878511156142f257600080fd5b83870192505b84831015614311578235825291830191908301906142f8565b979650505050505050565b60006060828403121561432e57600080fd5b6040516060810167ffffffffffffffff8282108183111715614352576143526141a8565b8160405282935084358352602085013591508082111561437157600080fd5b61437d8683870161429c565b6020840152604085013591508082111561439657600080fd5b506143a38582860161429c565b6040830152505092915050565b600060c082840312156143c257600080fd5b6143ca6141be565b905081358152602082013567ffffffffffffffff808211156143eb57600080fd5b6143f785838601614218565b6020840152604084013591508082111561441057600080fd5b61441c85838601614218565b6040840152606084013591508082111561443557600080fd5b61444185838601614218565b606084015261445260808501614288565b608084015260a084013591508082111561446b57600080fd5b506144788482850161431c565b60a08301525092915050565b801515811461449257600080fd5b50565b6000806000606084860312156144aa57600080fd5b83359250602084013567ffffffffffffffff8111156144c857600080fd5b6144d4868287016143b0565b92505060408401356144e581614484565b809150509250925092565b6000806040838503121561450357600080fd5b50508035926020909101359150565b6000806000806080858703121561452857600080fd5b8435935061453860208601614288565b9250604085013567ffffffffffffffff8082111561455557600080fd5b61456188838901614218565b9350606087013591508082111561457757600080fd5b5061458487828801614218565b91505092959194509250565b6000806000606084860312156145a557600080fd5b833567ffffffffffffffff8111156145bc57600080fd5b6145c8868287016143b0565b9350506020840135915060408401356144e581614484565b6020808252825182820181905260009190848201906040850190845b81811015614618578351835292840192918401916001016145fc565b50909695505050505050565b6000815180845260005b8181101561464a5760208185018101518683018201520161462e565b8181111561465c576000602083870101525b50601f01601f19169290920160200192915050565b634e487b7160e01b600052602160045260246000fd5b600081518084526020808501945080840160005b838110156146b75781518752958201959082019060010161469b565b509495945050505050565b60008151606084526146d76060850182614624565b9050602083015184820360208601526146f08282614624565b915050604083015160408501528091505092915050565b6001600160a01b038416815260606020820152825160608201526000602084015160c0608084015261473d610120840182614624565b90506040850151605f19808584030160a086015261475b8383614624565b925060608701519150808584030160c08601526147788383614624565b9250608087015191506009821061479157614791614671565b8160e086015260a08701519150808584030161010086015250805182526020810151606060208401526147c76060840182614687565b90506040820151915082810360408401526147e28183614687565b925050508281036040840152612e1f81856146c2565b6001600160a01b038116811461449257600080fd5b60006020828403121561481f57600080fd5b8151611b4e816147f8565b60006020828403121561483c57600080fd5b8151611b4e81614484565b60006020828403121561485957600080fd5b815160038110611b4e57600080fd5b634e487b7160e01b600052601160045260246000fd5b6000821982111561489157614891614868565b500190565b6000602082840312156148a857600080fd5b5051919050565b6000828210156148c1576148c1614868565b500390565b82815260408101600483106148dd576148dd614671565b8260208301529392505050565b60208101601183106148fe576148fe614671565b91905290565b600181811c9082168061491857607f821691505b6020821081141561493957634e487b7160e01b600052602260045260246000fd5b50919050565b634e487b7160e01b600052603260045260246000fd5b600060001982141561496957614969614868565b5060010190565b60006020828403121561498257600080fd5b815160048110611b4e57600080fdfef68437791109705d2e300a0b0cfc858fedffc7438da1d9bf937e2f34afa0df77a2646970667358221220f754a4dfae4b5b61de399f6cc05d90ca5026cf571863bcc490543bce8076ee3a64736f6c63430008090033",
  "linkReferences": {},
  "deployedLinkReferences": {}
}