{
    "_format": "hh-sol-artifact-1",
    "contractName": "Order",
    "sourceName": "contracts/Order.sol",
    "abi": [
        {
            "inputs": [
                {
                    "internalType": "address",
                    "name": "_SPConfig",
                    "type": "address"
                },
                {
                    "internalType": "address",
                    "name": "_consumer",
                    "type": "address"
                },
                {
                    "internalType": "address",
                    "name": "_parentOrder",
                    "type": "address"
                },
                {
                    "components": [
                        {
                            "internalType": "address",
                            "name": "offer",
                            "type": "address"
                        },
                        {
                            "internalType": "string",
                            "name": "resultPublicKey",
                            "type": "string"
                        },
                        {
                            "internalType": "string",
                            "name": "resultPublicKeyAlgo",
                            "type": "string"
                        },
                        {
                            "internalType": "string",
                            "name": "encryptedRequirements",
                            "type": "string"
                        },
                        {
                            "internalType": "string",
                            "name": "encryptedArgs",
                            "type": "string"
                        },
                        {
                            "internalType": "enum OrderStatus",
                            "name": "status",
                            "type": "uint8"
                        }
                    ],
                    "internalType": "struct OrderInfo",
                    "name": "_info",
                    "type": "tuple"
                },
                {
                    "internalType": "uint256",
                    "name": "_orderPrice",
                    "type": "uint256"
                }
            ],
            "stateMutability": "nonpayable",
            "type": "constructor"
        },
        {
            "anonymous": false,
            "inputs": [
                {
                    "indexed": false,
                    "internalType": "address",
                    "name": "order",
                    "type": "address"
                },
                {
                    "indexed": false,
                    "internalType": "enum OrderStatus",
                    "name": "status",
                    "type": "uint8"
                }
            ],
            "name": "OrderStatusUpdated",
            "type": "event"
        },
        {
            "anonymous": false,
            "inputs": [
                {
                    "indexed": false,
                    "internalType": "address",
                    "name": "subOrder",
                    "type": "address"
                }
            ],
            "name": "SubOrderCreated",
            "type": "event"
        },
        {
            "inputs": [],
            "name": "cancelOrder",
            "outputs": [],
            "stateMutability": "nonpayable",
            "type": "function"
        },
        {
            "inputs": [
                {
                    "internalType": "enum OrderStatus",
                    "name": "status",
                    "type": "uint8"
                },
                {
                    "internalType": "string",
                    "name": "encryptedResult",
                    "type": "string"
                },
                {
                    "internalType": "string",
                    "name": "encryptedError",
                    "type": "string"
                }
            ],
            "name": "complete",
            "outputs": [],
            "stateMutability": "nonpayable",
            "type": "function"
        },
        {
            "inputs": [
                {
                    "components": [
                        {
                            "internalType": "address",
                            "name": "offer",
                            "type": "address"
                        },
                        {
                            "internalType": "string",
                            "name": "resultPublicKey",
                            "type": "string"
                        },
                        {
                            "internalType": "string",
                            "name": "resultPublicKeyAlgo",
                            "type": "string"
                        },
                        {
                            "internalType": "string",
                            "name": "encryptedRequirements",
                            "type": "string"
                        },
                        {
                            "internalType": "string",
                            "name": "encryptedArgs",
                            "type": "string"
                        },
                        {
                            "internalType": "enum OrderStatus",
                            "name": "status",
                            "type": "uint8"
                        }
                    ],
                    "internalType": "struct OrderInfo",
                    "name": "info",
                    "type": "tuple"
                }
            ],
            "name": "createSubOrder",
            "outputs": [
                {
                    "internalType": "address",
                    "name": "",
                    "type": "address"
                }
            ],
            "stateMutability": "nonpayable",
            "type": "function"
        },
        {
            "inputs": [],
            "name": "getChangeWithdrawn",
            "outputs": [
                {
                    "internalType": "bool",
                    "name": "",
                    "type": "bool"
                }
            ],
            "stateMutability": "view",
            "type": "function"
        },
        {
            "inputs": [],
            "name": "getConsumer",
            "outputs": [
                {
                    "internalType": "address",
                    "name": "",
                    "type": "address"
                }
            ],
            "stateMutability": "view",
            "type": "function"
        },
        {
            "inputs": [],
            "name": "getOrderInfo",
            "outputs": [
                {
                    "components": [
                        {
                            "internalType": "address",
                            "name": "offer",
                            "type": "address"
                        },
                        {
                            "internalType": "string",
                            "name": "resultPublicKey",
                            "type": "string"
                        },
                        {
                            "internalType": "string",
                            "name": "resultPublicKeyAlgo",
                            "type": "string"
                        },
                        {
                            "internalType": "string",
                            "name": "encryptedRequirements",
                            "type": "string"
                        },
                        {
                            "internalType": "string",
                            "name": "encryptedArgs",
                            "type": "string"
                        },
                        {
                            "internalType": "enum OrderStatus",
                            "name": "status",
                            "type": "uint8"
                        }
                    ],
                    "internalType": "struct OrderInfo",
                    "name": "",
                    "type": "tuple"
                }
            ],
            "stateMutability": "view",
            "type": "function"
        },
        {
            "inputs": [],
            "name": "getOrderPrice",
            "outputs": [
                {
                    "internalType": "uint256",
                    "name": "",
                    "type": "uint256"
                }
            ],
            "stateMutability": "view",
            "type": "function"
        },
        {
            "inputs": [],
            "name": "getOrderResult",
            "outputs": [
                {
                    "components": [
                        {
                            "internalType": "string",
                            "name": "encryptedResult",
                            "type": "string"
                        },
                        {
                            "internalType": "string",
                            "name": "encryptedError",
                            "type": "string"
                        },
                        {
                            "internalType": "uint256",
                            "name": "orderPrice",
                            "type": "uint256"
                        }
                    ],
                    "internalType": "struct OrderResult",
                    "name": "",
                    "type": "tuple"
                }
            ],
            "stateMutability": "view",
            "type": "function"
        },
        {
            "inputs": [],
            "name": "getParentOrder",
            "outputs": [
                {
                    "internalType": "address",
                    "name": "",
                    "type": "address"
                }
            ],
            "stateMutability": "view",
            "type": "function"
        },
        {
            "inputs": [],
            "name": "getProfitWithdrawn",
            "outputs": [
                {
                    "internalType": "bool",
                    "name": "",
                    "type": "bool"
                }
            ],
            "stateMutability": "view",
            "type": "function"
        },
        {
            "inputs": [],
            "name": "getSubOrders",
            "outputs": [
                {
                    "internalType": "address[]",
                    "name": "",
                    "type": "address[]"
                }
            ],
            "stateMutability": "view",
            "type": "function"
        },
        {
            "inputs": [],
            "name": "isCompleted",
            "outputs": [
                {
                    "internalType": "bool",
                    "name": "",
                    "type": "bool"
                }
            ],
            "stateMutability": "view",
            "type": "function"
        },
        {
            "inputs": [],
            "name": "setProcessingStatus",
            "outputs": [],
            "stateMutability": "nonpayable",
            "type": "function"
        },
        {
            "inputs": [
                {
                    "internalType": "enum OrderStatus",
                    "name": "_status",
                    "type": "uint8"
                },
                {
                    "internalType": "uint256",
                    "name": "_orderPrice",
                    "type": "uint256"
                }
            ],
            "name": "updateStatus",
            "outputs": [],
            "stateMutability": "nonpayable",
            "type": "function"
        },
        {
            "inputs": [],
            "name": "withdrawChange",
            "outputs": [],
            "stateMutability": "nonpayable",
            "type": "function"
        },
        {
            "inputs": [],
            "name": "withdrawProfit",
            "outputs": [],
            "stateMutability": "nonpayable",
            "type": "function"
        }
    ],
    "bytecode": "0x6080604052600e805461ffff60a01b191690553480156200001f57600080fd5b506040516200321138038062003211833981016040819052620000429162000417565b846001600160a01b031663f1f0bd016040518163ffffffff1660e01b815260040160206040518083038186803b1580156200007c57600080fd5b505afa15801562000091573d6000803e3d6000fd5b505050506040513d601f19601f82011682018060405250810190620000b79190620003f3565b600d80546001600160a01b0392831661010002610100600160a81b0319909116179055600180548683166001600160a01b03199182161790915583516004805491909316911617815560208084015180518593926200011c926005929101906200028f565b50604082015180516200013a9160028401916020909101906200028f565b5060608201518051620001589160038401916020909101906200028f565b5060808201518051620001769160048401916020909101906200028f565b5060a08201518160050160006101000a81548160ff02191690836005811115620001b057634e487b7160e01b600052602160045260246000fd5b021790555090505081600001516001600160a01b031663af5372e66040518163ffffffff1660e01b815260040160206040518083038186803b158015620001f657600080fd5b505afa1580156200020b573d6000803e3d6000fd5b505050506040513d601f19601f8201168201806040525081019062000231919062000564565b600d805460ff191660018360038111156200025c57634e487b7160e01b600052602160045260246000fd5b0217905550600080546001600160a01b0319166001600160a01b03949094169390931790925550600c5550620006369050565b8280546200029d90620005e3565b90600052602060002090601f016020900481019282620002c157600085556200030c565b82601f10620002dc57805160ff19168380011785556200030c565b828001600101855582156200030c579182015b828111156200030c578251825591602001919060010190620002ef565b506200031a9291506200031e565b5090565b5b808211156200031a57600081556001016200031f565b80516001600160a01b03811681146200034d57600080fd5b919050565b8051600681106200034d57600080fd5b600082601f83011262000373578081fd5b81516001600160401b038111156200038f576200038f62000620565b6020620003a5601f8301601f19168201620005b0565b8281528582848701011115620003b9578384fd5b835b83811015620003d8578581018301518282018401528201620003bb565b83811115620003e957848385840101525b5095945050505050565b60006020828403121562000405578081fd5b620004108262000335565b9392505050565b600080600080600060a086880312156200042f578081fd5b6200043a8662000335565b94506200044a6020870162000335565b93506200045a6040870162000335565b60608701519093506001600160401b038082111562000477578283fd5b9087019060c0828a0312156200048b578283fd5b6200049562000585565b620004a08362000335565b8152602083015182811115620004b4578485fd5b620004c28b82860162000362565b602083015250604083015182811115620004da578485fd5b620004e88b82860162000362565b60408301525060608301518281111562000500578485fd5b6200050e8b82860162000362565b60608301525060808301518281111562000526578485fd5b620005348b82860162000362565b6080830152506200054860a0840162000352565b60a0820152809450505050608086015190509295509295909350565b60006020828403121562000576578081fd5b81516004811062000410578182fd5b60405160c081016001600160401b0381118282101715620005aa57620005aa62000620565b60405290565b604051601f8201601f191681016001600160401b0381118282101715620005db57620005db62000620565b604052919050565b600181811c90821680620005f857607f821691505b602082108114156200061a57634e487b7160e01b600052602260045260246000fd5b50919050565b634e487b7160e01b600052604160045260246000fd5b612bcb80620006466000396000f3fe608060405234801561001057600080fd5b50600436106101005760003560e01c8063b2375e8d11610097578063c3c61f9111610066578063c3c61f91146101e6578063cef8f6d4146101f7578063d63944611461020c578063fa391c641461021f57600080fd5b8063b2375e8d14610199578063b7ff5dae146101ae578063c214d37a146101c1578063c28bd4ef146101d457600080fd5b8063982308f5116100d3578063982308f51461015a578063983651501461016b578063af91ec6014610173578063b1be59291461019157600080fd5b806301efb6c8146101055780636a816548146101235780636c07681f1461012d578063959499b614610152575b600080fd5b61010d610227565b60405161011a91906128e3565b60405180910390f35b61012b6104e7565b005b6001546001600160a01b03165b6040516001600160a01b03909116815260200161011a565b61012b6109e6565b6000546001600160a01b031661013a565b61012b610cb5565b600e54600160a81b900460ff165b604051901515815260200161011a565b61012b610ec5565b6101a16110cf565b60405161011a91906128f6565b61012b6101bc3660046122ea565b611233565b61012b6101cf366004612279565b61153a565b600e54600160a01b900460ff16610181565b600c5460405190815260200161011a565b6101ff611883565b60405161011a919061287c565b61013a61021a366004612539565b6118e5565b610181611d89565b61022f611f9a565b6040805160c08101909152600480546001600160a01b031682526005805460208401919061025c90612af0565b80601f016020809104026020016040519081016040528092919081815260200182805461028890612af0565b80156102d55780601f106102aa576101008083540402835291602001916102d5565b820191906000526020600020905b8154815290600101906020018083116102b857829003601f168201915b505050505081526020016002820180546102ee90612af0565b80601f016020809104026020016040519081016040528092919081815260200182805461031a90612af0565b80156103675780601f1061033c57610100808354040283529160200191610367565b820191906000526020600020905b81548152906001019060200180831161034a57829003601f168201915b5050505050815260200160038201805461038090612af0565b80601f01602080910402602001604051908101604052809291908181526020018280546103ac90612af0565b80156103f95780601f106103ce576101008083540402835291602001916103f9565b820191906000526020600020905b8154815290600101906020018083116103dc57829003601f168201915b5050505050815260200160048201805461041290612af0565b80601f016020809104026020016040519081016040528092919081815260200182805461043e90612af0565b801561048b5780601f106104605761010080835404028352916020019161048b565b820191906000526020600020905b81548152906001019060200180831161046e57829003601f168201915b505050918352505060058281015460209092019160ff16908111156104c057634e487b7160e01b600052602160045260246000fd5b60058111156104df57634e487b7160e01b600052602160045260246000fd5b905250919050565b6001546001600160a01b031633146105465760405162461bcd60e51b815260206004820152601b60248201527f417661696c61626c65206f6e6c7920666f7220636f6e73756d6572000000000060448201526064015b60405180910390fd5b61054e611d89565b156105c15760405162461bcd60e51b815260206004820152602160248201527f436f6d706c65746564206f726465722063616e27742062652063616e63656c6560448201527f6400000000000000000000000000000000000000000000000000000000000000606482015260840161053d565b60048054604080517f1bffb49100000000000000000000000000000000000000000000000000000000815290516001600160a01b0390921692631bffb491928282019260209290829003018186803b15801561061c57600080fd5b505afa158015610630573d6000803e3d6000fd5b505050506040513d601f19601f820116820180604052508101906106549190612245565b6106a3576009805460ff191660029081179091556040517fdeec0b1e3a1ffaeb49a9045c07756b2e16cd738314db2d7ec9317e56809732bb916106999130919061282e565b60405180910390a1565b6009805460ff191660039081179091556040517fdeec0b1e3a1ffaeb49a9045c07756b2e16cd738314db2d7ec9317e56809732bb916106e49130919061282e565b60405180910390a16002546106fa576000600c55565b6000600d5460ff16600381111561072157634e487b7160e01b600052602160045260246000fd5b141561092f576004805460408051635a9b0b8960e01b815290516001600160a01b03909216926000928492635a9b0b8992818101928692909190829003018186803b15801561076f57600080fd5b505afa158015610783573d6000803e3d6000fd5b505050506040513d6000823e601f3d908101601f191682016040526107ab919081019061262d565b6060015163ffffffff1690506000826001600160a01b0316635a9b0b896040518163ffffffff1660e01b815260040160006040518083038186803b1580156107f257600080fd5b505afa158015610806573d6000803e3d6000fd5b505050506040513d6000823e601f3d908101601f1916820160405261082e919081019061262d565b6080015167ffffffffffffffff16905060006002544261084e9190612aa9565b9050600061085d603c83612a27565b90508281101561086a5750815b600084866001600160a01b0316638a35e9426040518163ffffffff1660e01b815260040160206040518083038186803b1580156108a657600080fd5b505afa1580156108ba573d6000803e3d6000fd5b505050506040513d601f19601f820116820180604052508101906108de9190612744565b6108e89190612a27565b90506000603c6108fb610e106018612a7d565b6109059190612a3b565b63ffffffff166109158385612a5e565b61091f9190612a27565b600c55506109e495505050505050565b6004805460408051635a9b0b8960e01b815290516001600160a01b03909216926000928492635a9b0b899281810192869290919082900301818387803b15801561097857600080fd5b505af115801561098c573d6000803e3d6000fd5b505050506040513d6000823e601f3d908101601f191682016040526109b49190810190612313565b61010001516109c490603c612a5e565b905042816002546109d59190612a0f565b10156109e1576000600c555b50505b565b6109ee611e16565b600480546040805163483d45bd60e01b815290516000936001600160a01b039093169263483d45bd92808201926020929091829003018186803b158015610a3457600080fd5b505afa158015610a48573d6000803e3d6000fd5b505050506040513d601f19601f82011682018060405250810190610a6c9190612222565b6001600160a01b0316636d69a3e86040518163ffffffff1660e01b815260040160206040518083038186803b158015610aa457600080fd5b505afa158015610ab8573d6000803e3d6000fd5b505050506040513d601f19601f82011682018060405250810190610adc9190612222565b600c54909150610aea611d89565b610b475760405162461bcd60e51b815260206004820152602860248201527f57697468647261776e20617661696c61626c65207768656e206f7264657220636044820152671bdb5c1b195d195960c21b606482015260840161053d565b336001600160a01b03831614610bc55760405162461bcd60e51b815260206004820152603160248201527f417661696c61626c65206f6e6c7920666f722070726f766964657220746f6b6560448201527f6e2072656369766572206163636f756e74000000000000000000000000000000606482015260840161053d565b600e54600160a81b900460ff1615610c1f5760405162461bcd60e51b815260206004820152601860248201527f50726f66697420616c72656164792077697468647261776e0000000000000000604482015260640161053d565b600e546040517f22e8d369000000000000000000000000000000000000000000000000000000008152600481018390526001600160a01b038481166024830152909116906322e8d36990604401600060405180830381600087803b158015610c8657600080fd5b505af1158015610c9a573d6000803e3d6000fd5b5050600e805460ff60a81b1916600160a81b17905550505050565b610cbd611e16565b600e54600160a01b900460ff1615610d175760405162461bcd60e51b815260206004820152601860248201527f4368616e676520616c72656164792077697468647261776e0000000000000000604482015260640161053d565b6001546001600160a01b03163314610d975760405162461bcd60e51b815260206004820152602160248201527f417661696c61626c65206f6e6c7920666f72204f7264657220636f6e73756d6560448201527f7200000000000000000000000000000000000000000000000000000000000000606482015260840161053d565b610d9f611d89565b610dfc5760405162461bcd60e51b815260206004820152602860248201527f57697468647261776e20617661696c61626c65207768656e206f7264657220636044820152671bdb5c1b195d195960c21b606482015260840161053d565b600e54600090600160a81b900460ff1615610e18576000610e1c565b600c545b600e546040517f5f4550ba000000000000000000000000000000000000000000000000000000008152600481018390529192506001600160a01b031690635f4550ba90602401600060405180830381600087803b158015610e7c57600080fd5b505af1158015610e90573d6000803e3d6000fd5b5050600e80547fffffffffffffffffffffff00ffffffffffffffffffffffffffffffffffffffff16600160a01b179055505050565b600480546040805163483d45bd60e01b815290516000936001600160a01b039093169263483d45bd92808201926020929091829003018186803b158015610f0b57600080fd5b505afa158015610f1f573d6000803e3d6000fd5b505050506040513d601f19601f82011682018060405250810190610f439190612222565b6001600160a01b0316636760c4b76040518163ffffffff1660e01b815260040160206040518083038186803b158015610f7b57600080fd5b505afa158015610f8f573d6000803e3d6000fd5b505050506040513d601f19601f82011682018060405250810190610fb39190612222565b9050336001600160a01b0382161461101f5760405162461bcd60e51b815260206004820152602960248201527f417661696c61626c65206f6e6c7920666f722070726f766964657220616374696044820152681bdb9058d8dbdd5b9d60ba1b606482015260840161053d565b611027611d89565b156110745760405162461bcd60e51b815260206004820181905260248201527f436f6d706c65746564206f726465722063616e27742062652075706461746564604482015260640161053d565b6009805460ff1916600117905560025461108d57426002555b6009546040517fdeec0b1e3a1ffaeb49a9045c07756b2e16cd738314db2d7ec9317e56809732bb916110c491309160ff169061282e565b60405180910390a150565b6110f360405180606001604052806060815260200160608152602001600081525090565b600a60405180606001604052908160008201805461111090612af0565b80601f016020809104026020016040519081016040528092919081815260200182805461113c90612af0565b80156111895780601f1061115e57610100808354040283529160200191611189565b820191906000526020600020905b81548152906001019060200180831161116c57829003601f168201915b505050505081526020016001820180546111a290612af0565b80601f01602080910402602001604051908101604052809291908181526020018280546111ce90612af0565b801561121b5780601f106111f05761010080835404028352916020019161121b565b820191906000526020600020905b8154815290600101906020018083116111fe57829003601f168201915b50505050508152602001600282015481525050905090565b600480546040805163483d45bd60e01b815290516000936001600160a01b039093169263483d45bd92808201926020929091829003018186803b15801561127957600080fd5b505afa15801561128d573d6000803e3d6000fd5b505050506040513d601f19601f820116820180604052508101906112b19190612222565b6001600160a01b0316636760c4b76040518163ffffffff1660e01b815260040160206040518083038186803b1580156112e957600080fd5b505afa1580156112fd573d6000803e3d6000fd5b505050506040513d601f19601f820116820180604052508101906113219190612222565b9050336001600160a01b0382161461138d5760405162461bcd60e51b815260206004820152602960248201527f417661696c61626c65206f6e6c7920666f722070726f766964657220616374696044820152681bdb9058d8dbdd5b9d60ba1b606482015260840161053d565b611395611d89565b156113e25760405162461bcd60e51b815260206004820181905260248201527f436f6d706c65746564206f726465722063616e27742062652075706461746564604482015260640161053d565b6009805484919060ff1916600183600581111561140f57634e487b7160e01b600052602160045260246000fd5b02179055506002541580156114435750600183600581111561144157634e487b7160e01b600052602160045260246000fd5b145b1561144d57426002555b6000600d5460ff16600381111561147457634e487b7160e01b600052602160045260246000fd5b146114f157600c548211156114f15760405162461bcd60e51b815260206004820152602b60248201527f466f7262696464656e20746f20696e63726561736520707269636520666f722060448201527f76616c75654f6666657273000000000000000000000000000000000000000000606482015260840161053d565b600c8290556009546040517fdeec0b1e3a1ffaeb49a9045c07756b2e16cd738314db2d7ec9317e56809732bb9161152d91309160ff169061282e565b60405180910390a1505050565b600480546040805163483d45bd60e01b815290516000936001600160a01b039093169263483d45bd92808201926020929091829003018186803b15801561158057600080fd5b505afa158015611594573d6000803e3d6000fd5b505050506040513d601f19601f820116820180604052508101906115b89190612222565b6001600160a01b0316636760c4b76040518163ffffffff1660e01b815260040160206040518083038186803b1580156115f057600080fd5b505afa158015611604573d6000803e3d6000fd5b505050506040513d601f19601f820116820180604052508101906116289190612222565b9050336001600160a01b038216146116945760405162461bcd60e51b815260206004820152602960248201527f417661696c61626c65206f6e6c7920666f722070726f766964657220616374696044820152681bdb9058d8dbdd5b9d60ba1b606482015260840161053d565b61169c611d89565b156116e95760405162461bcd60e51b815260206004820152601160248201527f416c726561647920636f6d706c65746564000000000000000000000000000000604482015260640161053d565b600584600581111561170b57634e487b7160e01b600052602160045260246000fd5b14806117365750600484600581111561173457634e487b7160e01b600052602160045260246000fd5b145b6117a85760405162461bcd60e51b815260206004820152602b60248201527f43616e20636f6d706c657465206f6e6c7920776974682073746174757320457260448201527f726f72206f7220446f6e65000000000000000000000000000000000000000000606482015260840161053d565b6009805485919060ff191660018360058111156117d557634e487b7160e01b600052602160045260246000fd5b021790555082516117ed90600a906020860190611ff7565b50815161180190600b906020850190611ff7565b50600584600581111561182457634e487b7160e01b600052602160045260246000fd5b141561183e57600e805460ff60a81b1916600160a81b1790555b6009546040517fdeec0b1e3a1ffaeb49a9045c07756b2e16cd738314db2d7ec9317e56809732bb9161187591309160ff169061282e565b60405180910390a150505050565b606060038054806020026020016040519081016040528092919081815260200182805480156118db57602002820191906000526020600020905b81546001600160a01b031681526001909101906020018083116118bd575b5050505050905090565b600480546040805163483d45bd60e01b8152905160009384936001600160a01b03169263483d45bd9281830192602092829003018186803b15801561192957600080fd5b505afa15801561193d573d6000803e3d6000fd5b505050506040513d601f19601f820116820180604052508101906119619190612222565b6001600160a01b0316636760c4b76040518163ffffffff1660e01b815260040160206040518083038186803b15801561199957600080fd5b505afa1580156119ad573d6000803e3d6000fd5b505050506040513d601f19601f820116820180604052508101906119d19190612222565b9050336001600160a01b03821614611a3d5760405162461bcd60e51b815260206004820152602960248201527f417661696c61626c65206f6e6c7920666f722070726f766964657220616374696044820152681bdb9058d8dbdd5b9d60ba1b606482015260840161053d565b611a45611e16565b60008084600001516001600160a01b031663af5372e66040518163ffffffff1660e01b815260040160206040518083038186803b158015611a8557600080fd5b505afa158015611a99573d6000803e3d6000fd5b505050506040513d601f19601f82011682018060405250810190611abd919061225f565b90506000816003811115611ae157634e487b7160e01b600052602160045260246000fd5b14611c465784516040517ff12018c30000000000000000000000000000000000000000000000000000000081523360048201526001600160a01b0382169063f12018c39060240160206040518083038186803b158015611b4057600080fd5b505afa158015611b54573d6000803e3d6000fd5b505050506040513d601f19601f82011682018060405250810190611b789190612245565b611bc45760405162461bcd60e51b815260206004820152600b60248201527f4e6f7420616c6c6f776564000000000000000000000000000000000000000000604482015260640161053d565b6000816001600160a01b0316635a9b0b896040518163ffffffff1660e01b8152600401600060405180830381600087803b158015611c0157600080fd5b505af1158015611c15573d6000803e3d6000fd5b505050506040513d6000823e601f3d908101601f19168201604052611c3d9190810190612313565b60800151935050505b600e546001546040517fc3c3e12f0000000000000000000000000000000000000000000000000000000081526000926001600160a01b039081169263c3c3e12f92611c9b929091169087908b9060040161284b565b602060405180830381600087803b158015611cb557600080fd5b505af1158015611cc9573d6000803e3d6000fd5b505050506040513d601f19601f82011682018060405250810190611ced9190612222565b600380546001810182556000919091527fc2575a0e9e593c00f959f8c92f12db2869c3395a3b0502d05e2516446f71f85b01805473ffffffffffffffffffffffffffffffffffffffff19166001600160a01b0383169081179091556040519081529091507fd4a8311d4a2937c45f6564edb791f76d0a6d74db0902f4a6fb46cbee04166a639060200160405180910390a1935050505b50919050565b6000600460095460ff166005811115611db257634e487b7160e01b600052602160045260246000fd5b1480611de25750600560095460ff166005811115611de057634e487b7160e01b600052602160045260246000fd5b145b80611e115750600360095460ff166005811115611e0f57634e487b7160e01b600052602160045260246000fd5b145b905090565b600d60019054906101000a90046001600160a01b03166001600160a01b031663f1f0bd016040518163ffffffff1660e01b815260040160206040518083038186803b158015611e6457600080fd5b505afa158015611e78573d6000803e3d6000fd5b505050506040513d601f19601f82011682018060405250810190611e9c9190612222565b600d80547fffffffffffffffffffffff0000000000000000000000000000000000000000ff166101006001600160a01b03938416810291909117918290556040517fbcaa0c5500000000000000000000000000000000000000000000000000000000815291049091169063bcaa0c5590611f1b906000906004016128c9565b60206040518083038186803b158015611f3357600080fd5b505afa158015611f47573d6000803e3d6000fd5b505050506040513d601f19601f82011682018060405250810190611f6b9190612222565b600e805473ffffffffffffffffffffffffffffffffffffffff19166001600160a01b0392909216919091179055565b6040518060c0016040528060006001600160a01b031681526020016060815260200160608152602001606081526020016060815260200160006005811115611ff257634e487b7160e01b600052602160045260246000fd5b905290565b82805461200390612af0565b90600052602060002090601f016020900481019282612025576000855561206b565b82601f1061203e57805160ff191683800117855561206b565b8280016001018555821561206b579182015b8281111561206b578251825591602001919060010190612050565b5061207792915061207b565b5090565b5b80821115612077576000815560010161207c565b803561209b81612b7d565b919050565b600082601f8301126120b0578081fd5b8151602067ffffffffffffffff8211156120cc576120cc612b67565b8160051b6120db8282016129b6565b8381528281019086840183880185018910156120f5578687fd5b8693505b8584101561212057805161210c81612b7d565b8352600193909301929184019184016120f9565b50979650505050505050565b8051801515811461209b57600080fd5b80516004811061209b57600080fd5b80356006811061209b57600080fd5b600082601f83011261216a578081fd5b813561217d612178826129e7565b6129b6565b818152846020838601011115612191578283fd5b816020850160208301379081016020019190915292915050565b600082601f8301126121bb578081fd5b81516121c9612178826129e7565b8181528460208386010111156121dd578283fd5b6121ee826020830160208701612ac0565b949350505050565b805163ffffffff8116811461209b57600080fd5b805167ffffffffffffffff8116811461209b57600080fd5b600060208284031215612233578081fd5b815161223e81612b7d565b9392505050565b600060208284031215612256578081fd5b61223e8261212c565b600060208284031215612270578081fd5b61223e8261213c565b60008060006060848603121561228d578182fd5b6122968461214b565b9250602084013567ffffffffffffffff808211156122b2578384fd5b6122be8783880161215a565b935060408601359150808211156122d3578283fd5b506122e08682870161215a565b9150509250925092565b600080604083850312156122fc578182fd5b6123058361214b565b946020939093013593505050565b600060208284031215612324578081fd5b815167ffffffffffffffff8082111561233b578283fd5b90830190610220828603121561234f578283fd5b612357612946565b825182811115612365578485fd5b612371878286016121ab565b8252506123806020840161213c565b60208201526123916040840161212c565b60408201526060830151828111156123a7578485fd5b6123b3878286016121ab565b6060830152506080830151608082015260a083015160a082015260c0830151828111156123de578485fd5b6123ea878286016121ab565b60c08301525060e083015182811115612401578485fd5b61240d878286016121ab565b60e08301525061010083810151908201526101208084015183811115612431578586fd5b61243d888287016121ab565b8284015250506101408084015183811115612456578586fd5b612462888287016121ab565b828401525050610160808401518381111561247b578586fd5b612487888287016121ab565b82840152505061018080840151838111156124a0578586fd5b6124ac888287016120a0565b8284015250506101a080840151838111156124c5578586fd5b6124d1888287016121ab565b8284015250506101c080840151838111156124ea578586fd5b6124f6888287016121ab565b8284015250506101e0808401518381111561250f578586fd5b61251b888287016121ab565b91830191909152506102009283015192810192909252509392505050565b60006020828403121561254a578081fd5b813567ffffffffffffffff80821115612561578283fd5b9083019060c08286031215612574578283fd5b61257c612970565b61258583612090565b8152602083013582811115612598578485fd5b6125a48782860161215a565b6020830152506040830135828111156125bb578485fd5b6125c78782860161215a565b6040830152506060830135828111156125de578485fd5b6125ea8782860161215a565b606083015250608083013582811115612601578485fd5b61260d8782860161215a565b60808301525061261f60a0840161214b565b60a082015295945050505050565b60006020828403121561263e578081fd5b815167ffffffffffffffff80821115612655578283fd5b9083019060e08286031215612668578283fd5b612670612993565b82518281111561267e578485fd5b61268a878286016121ab565b82525060208301518281111561269e578485fd5b6126aa878286016121ab565b6020830152506040830151828111156126c1578485fd5b6126cd878286016121ab565b6040830152506126df606084016121f6565b60608201526126f06080840161220a565b608082015260a083015182811115612706578485fd5b612712878286016121ab565b60a08301525060c083015182811115612729578485fd5b612735878286016121ab565b60c08301525095945050505050565b600060208284031215612755578081fd5b5051919050565b6006811061276c5761276c612b51565b9052565b60008151808452612788816020860160208601612ac0565b601f01601f19169290920160200192915050565b6001600160a01b0381511682526000602082015160c060208501526127c460c0850182612770565b9050604083015184820360408601526127dd8282612770565b915050606083015184820360608601526127f78282612770565b915050608083015184820360808601526128118282612770565b91505060a083015161282660a086018261275c565b509392505050565b6001600160a01b03831681526040810161223e602083018461275c565b6001600160a01b0384168152826020820152606060408201526000612873606083018461279c565b95945050505050565b6020808252825182820181905260009190848201906040850190845b818110156128bd5783516001600160a01b031683529284019291840191600101612898565b50909695505050505050565b60208101600c83106128dd576128dd612b51565b91905290565b60208152600061223e602083018461279c565b6020815260008251606060208401526129126080840182612770565b90506020840151601f1984830301604085015261292f8282612770565b915050604084015160608401528091505092915050565b604051610220810167ffffffffffffffff8111828210171561296a5761296a612b67565b60405290565b60405160c0810167ffffffffffffffff8111828210171561296a5761296a612b67565b60405160e0810167ffffffffffffffff8111828210171561296a5761296a612b67565b604051601f8201601f1916810167ffffffffffffffff811182821017156129df576129df612b67565b604052919050565b600067ffffffffffffffff821115612a0157612a01612b67565b50601f01601f191660200190565b60008219821115612a2257612a22612b25565b500190565b600082612a3657612a36612b3b565b500490565b600063ffffffff80841680612a5257612a52612b3b565b92169190910492915050565b6000816000190483118215151615612a7857612a78612b25565b500290565b600063ffffffff80831681851681830481118215151615612aa057612aa0612b25565b02949350505050565b600082821015612abb57612abb612b25565b500390565b60005b83811015612adb578181015183820152602001612ac3565b83811115612aea576000848401525b50505050565b600181811c90821680612b0457607f821691505b60208210811415611d8357634e487b7160e01b600052602260045260246000fd5b634e487b7160e01b600052601160045260246000fd5b634e487b7160e01b600052601260045260246000fd5b634e487b7160e01b600052602160045260246000fd5b634e487b7160e01b600052604160045260246000fd5b6001600160a01b0381168114612b9257600080fd5b5056fea2646970667358221220656fe59ce05cb5131c494cb04b4a2a15f5ee56b4a4aafaa84b23533f322e8c6b64736f6c63430008040033",
    "linkReferences": {},
    "deployedLinkReferences": {}
}