{
  "_format": "hh-sol-artifact-1",
  "contractName": "Order",
  "sourceName": "contracts/Order.sol",
  "abi": [
    {
      "inputs": [
        {
          "internalType": "address",
          "name": "_SPConfig",
          "type": "address"
        },
        {
          "internalType": "address",
          "name": "_consumer",
          "type": "address"
        },
        {
          "components": [
            {
              "internalType": "address",
              "name": "offer",
              "type": "address"
            },
            {
              "internalType": "string",
              "name": "resultPublicKey",
              "type": "string"
            },
            {
              "internalType": "string",
              "name": "resultPublicKeyAlgo",
              "type": "string"
            },
            {
              "internalType": "string",
              "name": "encryptedRequirements",
              "type": "string"
            },
            {
              "internalType": "string",
              "name": "encryptedArgs",
              "type": "string"
            },
            {
              "internalType": "enum OrderStatus",
              "name": "status",
              "type": "uint8"
            }
          ],
          "internalType": "struct OrderInfo",
          "name": "_info",
          "type": "tuple"
        },
        {
          "internalType": "uint256",
          "name": "_orderPrice",
          "type": "uint256"
        }
      ],
      "stateMutability": "nonpayable",
      "type": "constructor"
    },
    {
      "anonymous": false,
      "inputs": [
        {
          "indexed": false,
          "internalType": "address",
          "name": "order",
          "type": "address"
        },
        {
          "indexed": false,
          "internalType": "enum OrderStatus",
          "name": "status",
          "type": "uint8"
        }
      ],
      "name": "OrderStatusUpdated",
      "type": "event"
    },
    {
      "inputs": [
        {
          "internalType": "address",
          "name": "_subOrder",
          "type": "address"
        }
      ],
      "name": "addSubOrder",
      "outputs": [],
      "stateMutability": "nonpayable",
      "type": "function"
    },
    {
      "inputs": [],
      "name": "cancelOrder",
      "outputs": [],
      "stateMutability": "nonpayable",
      "type": "function"
    },
    {
      "inputs": [
        {
          "internalType": "enum OrderStatus",
          "name": "_status",
          "type": "uint8"
        },
        {
          "internalType": "string",
          "name": "_encryptedResult",
          "type": "string"
        },
        {
          "internalType": "string",
          "name": "_encryptedError",
          "type": "string"
        }
      ],
      "name": "complete",
      "outputs": [],
      "stateMutability": "nonpayable",
      "type": "function"
    },
    {
      "inputs": [],
      "name": "getChangeWithdrawn",
      "outputs": [
        {
          "internalType": "bool",
          "name": "",
          "type": "bool"
        }
      ],
      "stateMutability": "view",
      "type": "function"
    },
    {
      "inputs": [],
      "name": "getConsumer",
      "outputs": [
        {
          "internalType": "address",
          "name": "",
          "type": "address"
        }
      ],
      "stateMutability": "view",
      "type": "function"
    },
    {
      "inputs": [],
      "name": "getOrderInfo",
      "outputs": [
        {
          "components": [
            {
              "internalType": "address",
              "name": "offer",
              "type": "address"
            },
            {
              "internalType": "string",
              "name": "resultPublicKey",
              "type": "string"
            },
            {
              "internalType": "string",
              "name": "resultPublicKeyAlgo",
              "type": "string"
            },
            {
              "internalType": "string",
              "name": "encryptedRequirements",
              "type": "string"
            },
            {
              "internalType": "string",
              "name": "encryptedArgs",
              "type": "string"
            },
            {
              "internalType": "enum OrderStatus",
              "name": "status",
              "type": "uint8"
            }
          ],
          "internalType": "struct OrderInfo",
          "name": "",
          "type": "tuple"
        }
      ],
      "stateMutability": "view",
      "type": "function"
    },
    {
      "inputs": [],
      "name": "getOrderPrice",
      "outputs": [
        {
          "internalType": "uint256",
          "name": "",
          "type": "uint256"
        }
      ],
      "stateMutability": "view",
      "type": "function"
    },
    {
      "inputs": [],
      "name": "getOrderResult",
      "outputs": [
        {
          "components": [
            {
              "internalType": "string",
              "name": "encryptedResult",
              "type": "string"
            },
            {
              "internalType": "string",
              "name": "encryptedError",
              "type": "string"
            },
            {
              "internalType": "uint256",
              "name": "orderPrice",
              "type": "uint256"
            }
          ],
          "internalType": "struct OrderResult",
          "name": "",
          "type": "tuple"
        }
      ],
      "stateMutability": "view",
      "type": "function"
    },
    {
      "inputs": [],
      "name": "getProfitWithdrawn",
      "outputs": [
        {
          "internalType": "bool",
          "name": "",
          "type": "bool"
        }
      ],
      "stateMutability": "view",
      "type": "function"
    },
    {
      "inputs": [],
      "name": "getSubOrders",
      "outputs": [
        {
          "internalType": "address[]",
          "name": "",
          "type": "address[]"
        }
      ],
      "stateMutability": "view",
      "type": "function"
    },
    {
      "inputs": [],
      "name": "isCompleted",
      "outputs": [
        {
          "internalType": "bool",
          "name": "",
          "type": "bool"
        }
      ],
      "stateMutability": "view",
      "type": "function"
    },
    {
      "inputs": [],
      "name": "setChangeWithdrawn",
      "outputs": [],
      "stateMutability": "nonpayable",
      "type": "function"
    },
    {
      "inputs": [],
      "name": "setProcessingStatus",
      "outputs": [],
      "stateMutability": "nonpayable",
      "type": "function"
    },
    {
      "inputs": [],
      "name": "setProfitWithdrawn",
      "outputs": [],
      "stateMutability": "nonpayable",
      "type": "function"
    },
    {
      "inputs": [
        {
          "internalType": "enum OrderStatus",
          "name": "_status",
          "type": "uint8"
        },
        {
          "internalType": "uint256",
          "name": "_orderPrice",
          "type": "uint256"
        }
      ],
      "name": "updateStatus",
      "outputs": [],
      "stateMutability": "nonpayable",
      "type": "function"
    }
  ],
  "bytecode": "0x60806040526012805461ffff60a01b191690553480156200001f57600080fd5b5060405162002e8838038062002e888339810160408190526200004291620003e8565b836001600160a01b031663f1f0bd016040518163ffffffff1660e01b815260040160206040518083038186803b1580156200007c57600080fd5b505afa15801562000091573d6000803e3d6000fd5b505050506040513d601f19601f82011682018060405250810190620000b79190620003c4565b600e80546001600160a01b039283166001600160a01b0319918216179091556000805486841690831617905583516003805491909316911617815560208084015180518593926200010e9260049291019062000260565b50604082015180516200012c91600284019160209091019062000260565b50606082015180516200014a91600384019160209091019062000260565b50608082015180516200016891600484019160209091019062000260565b5060a08201518160050160006101000a81548160ff02191690836005811115620001a257634e487b7160e01b600052602160045260246000fd5b021790555090505081600001516001600160a01b031663af5372e66040518163ffffffff1660e01b815260040160206040518083038186803b158015620001e857600080fd5b505afa158015620001fd573d6000803e3d6000fd5b505050506040513d601f19601f820116820180604052508101906200022391906200051e565b600c805460ff191660018360038111156200024e57634e487b7160e01b600052602160045260246000fd5b0217905550600b5550620005f0915050565b8280546200026e906200059d565b90600052602060002090601f016020900481019282620002925760008555620002dd565b82601f10620002ad57805160ff1916838001178555620002dd565b82800160010185558215620002dd579182015b82811115620002dd578251825591602001919060010190620002c0565b50620002eb929150620002ef565b5090565b5b80821115620002eb5760008155600101620002f0565b80516001600160a01b03811681146200031e57600080fd5b919050565b8051600681106200031e57600080fd5b600082601f83011262000344578081fd5b81516001600160401b03811115620003605762000360620005da565b602062000376601f8301601f191682016200056a565b82815285828487010111156200038a578384fd5b835b83811015620003a95785810183015182820184015282016200038c565b83811115620003ba57848385840101525b5095945050505050565b600060208284031215620003d6578081fd5b620003e18262000306565b9392505050565b60008060008060808587031215620003fe578283fd5b620004098562000306565b9350620004196020860162000306565b60408601519093506001600160401b038082111562000436578384fd5b9086019060c082890312156200044a578384fd5b620004546200053f565b6200045f8362000306565b815260208301518281111562000473578586fd5b620004818a82860162000333565b60208301525060408301518281111562000499578586fd5b620004a78a82860162000333565b604083015250606083015182811115620004bf578586fd5b620004cd8a82860162000333565b606083015250608083015182811115620004e5578586fd5b620004f38a82860162000333565b6080830152506200050760a0840162000323565b60a082015260609790970151959894975050505050565b60006020828403121562000530578081fd5b815160048110620003e1578182fd5b60405160c081016001600160401b0381118282101715620005645762000564620005da565b60405290565b604051601f8201601f191681016001600160401b0381118282101715620005955762000595620005da565b604052919050565b600181811c90821680620005b257607f821691505b60208210811415620005d457634e487b7160e01b600052602260045260246000fd5b50919050565b634e487b7160e01b600052604160045260246000fd5b61288880620006006000396000f3fe608060405234801561001057600080fd5b50600436106100f55760003560e01c8063b7ff5dae11610097578063cef8f6d411610066578063cef8f6d4146101c9578063d592925f146101de578063e3d4ae24146101e6578063fa391c64146101f957600080fd5b8063b7ff5dae14610180578063c214d37a14610193578063c28bd4ef146101a6578063c3c61f91146101b857600080fd5b8063af91ec60116100d3578063af91ec601461013d578063b050798c1461015b578063b1be592914610163578063b2375e8d1461016b57600080fd5b806301efb6c8146100fa5780636a816548146101185780636c07681f14610122575b600080fd5b610102610201565b60405161010f91906124fb565b60405180910390f35b6101206104c1565b005b6000546040516001600160a01b03909116815260200161010f565b601254600160a81b900460ff165b604051901515815260200161010f565b6101206109c5565b610120610a61565b610173610c6b565b60405161010f91906125a0565b61012061018e366004611fad565b610dcf565b6101206101a1366004611f3a565b6110d5565b601254600160a01b900460ff1661014b565b600b5460405190815260200161010f565b6101d161141d565b60405161010f9190612494565b61012061147f565b6101206101f4366004611ec7565b611500565b61014b6117dc565b610209611b5e565b6040805160c08101909152600380546001600160a01b03168252600480546020840191906102369061279a565b80601f01602080910402602001604051908101604052809291908181526020018280546102629061279a565b80156102af5780601f10610284576101008083540402835291602001916102af565b820191906000526020600020905b81548152906001019060200180831161029257829003601f168201915b505050505081526020016002820180546102c89061279a565b80601f01602080910402602001604051908101604052809291908181526020018280546102f49061279a565b80156103415780601f1061031657610100808354040283529160200191610341565b820191906000526020600020905b81548152906001019060200180831161032457829003601f168201915b5050505050815260200160038201805461035a9061279a565b80601f01602080910402602001604051908101604052809291908181526020018280546103869061279a565b80156103d35780601f106103a8576101008083540402835291602001916103d3565b820191906000526020600020905b8154815290600101906020018083116103b657829003601f168201915b505050505081526020016004820180546103ec9061279a565b80601f01602080910402602001604051908101604052809291908181526020018280546104189061279a565b80156104655780601f1061043a57610100808354040283529160200191610465565b820191906000526020600020905b81548152906001019060200180831161044857829003601f168201915b505050918352505060058281015460209092019160ff169081111561049a57634e487b7160e01b600052602160045260246000fd5b60058111156104b957634e487b7160e01b600052602160045260246000fd5b905250919050565b6000546001600160a01b031633146105205760405162461bcd60e51b815260206004820152601b60248201527f417661696c61626c65206f6e6c7920666f7220636f6e73756d6572000000000060448201526064015b60405180910390fd5b6105286117dc565b1561059b5760405162461bcd60e51b815260206004820152602160248201527f436f6d706c65746564206f726465722063616e27742062652063616e63656c6560448201527f64000000000000000000000000000000000000000000000000000000000000006064820152608401610517565b600354604080517f1bffb49100000000000000000000000000000000000000000000000000000000815290516001600160a01b0390921691631bffb49191600480820192602092909190829003018186803b1580156105f957600080fd5b505afa15801561060d573d6000803e3d6000fd5b505050506040513d601f19601f820116820180604052508101906106319190611f06565b610680576008805460ff191660029081179091556040517fdeec0b1e3a1ffaeb49a9045c07756b2e16cd738314db2d7ec9317e56809732bb9161067691309190612477565b60405180910390a1565b6008805460ff191660039081179091556040517fdeec0b1e3a1ffaeb49a9045c07756b2e16cd738314db2d7ec9317e56809732bb916106c191309190612477565b60405180910390a16001546106d7576000600b55565b6000600c5460ff1660038111156106fe57634e487b7160e01b600052602160045260246000fd5b141561090d5760035460408051635a9b0b8960e01b815290516001600160a01b03909216916000918391635a9b0b89916004808201928692909190829003018186803b15801561074d57600080fd5b505afa158015610761573d6000803e3d6000fd5b505050506040513d6000823e601f3d908101601f191682016040526107899190810190612308565b6060015163ffffffff1690506000826001600160a01b0316635a9b0b896040518163ffffffff1660e01b815260040160006040518083038186803b1580156107d057600080fd5b505afa1580156107e4573d6000803e3d6000fd5b505050506040513d6000823e601f3d908101601f1916820160405261080c9190810190612308565b6080015167ffffffffffffffff16905060006001544261082c9190612753565b9050600061083b603c836126d1565b9050828110156108485750815b600084866001600160a01b0316638a35e9426040518163ffffffff1660e01b815260040160206040518083038186803b15801561088457600080fd5b505afa158015610898573d6000803e3d6000fd5b505050506040513d601f19601f820116820180604052508101906108bc919061241f565b6108c691906126d1565b90506000603c6108d9610e106018612727565b6108e391906126e5565b63ffffffff166108f38385612708565b6108fd91906126d1565b600b55506109c395505050505050565b60035460408051635a9b0b8960e01b815290516001600160a01b03909216916000918391635a9b0b8991600480820192869290919082900301818387803b15801561095757600080fd5b505af115801561096b573d6000803e3d6000fd5b505050506040513d6000823e601f3d908101601f191682016040526109939190810190611fd8565b61012001516109a390603c612708565b905042816001546109b491906126b9565b10156109c0576000600b555b50505b565b6109cd611869565b6012546001600160a01b03163314610a315760405162461bcd60e51b815260206004820152602160248201527f417661696c61626c65206f6e6c7920666f72206f726465727320666163746f726044820152607960f81b6064820152608401610517565b601280547fffffffffffffffffffffff00ffffffffffffffffffffffffffffffffffffffff16600160a01b179055565b6003546040805163483d45bd60e01b815290516000926001600160a01b03169163483d45bd916004808301926020929190829003018186803b158015610aa657600080fd5b505afa158015610aba573d6000803e3d6000fd5b505050506040513d601f19601f82011682018060405250810190610ade9190611eea565b6001600160a01b0316636760c4b76040518163ffffffff1660e01b815260040160206040518083038186803b158015610b1657600080fd5b505afa158015610b2a573d6000803e3d6000fd5b505050506040513d601f19601f82011682018060405250810190610b4e9190611eea565b9050336001600160a01b03821614610bba5760405162461bcd60e51b815260206004820152602960248201527f417661696c61626c65206f6e6c7920666f722070726f766964657220616374696044820152681bdb9058d8dbdd5b9d60ba1b6064820152608401610517565b610bc26117dc565b15610c0f5760405162461bcd60e51b815260206004820181905260248201527f436f6d706c65746564206f726465722063616e277420626520757064617465646044820152606401610517565b6008805460ff1916600190811790915554610c2957426001555b6008546040517fdeec0b1e3a1ffaeb49a9045c07756b2e16cd738314db2d7ec9317e56809732bb91610c6091309160ff1690612477565b60405180910390a150565b610c8f60405180606001604052806060815260200160608152602001600081525090565b6009604051806060016040529081600082018054610cac9061279a565b80601f0160208091040260200160405190810160405280929190818152602001828054610cd89061279a565b8015610d255780601f10610cfa57610100808354040283529160200191610d25565b820191906000526020600020905b815481529060010190602001808311610d0857829003601f168201915b50505050508152602001600182018054610d3e9061279a565b80601f0160208091040260200160405190810160405280929190818152602001828054610d6a9061279a565b8015610db75780601f10610d8c57610100808354040283529160200191610db7565b820191906000526020600020905b815481529060010190602001808311610d9a57829003601f168201915b50505050508152602001600282015481525050905090565b6003546040805163483d45bd60e01b815290516000926001600160a01b03169163483d45bd916004808301926020929190829003018186803b158015610e1457600080fd5b505afa158015610e28573d6000803e3d6000fd5b505050506040513d601f19601f82011682018060405250810190610e4c9190611eea565b6001600160a01b0316636760c4b76040518163ffffffff1660e01b815260040160206040518083038186803b158015610e8457600080fd5b505afa158015610e98573d6000803e3d6000fd5b505050506040513d601f19601f82011682018060405250810190610ebc9190611eea565b9050336001600160a01b03821614610f285760405162461bcd60e51b815260206004820152602960248201527f417661696c61626c65206f6e6c7920666f722070726f766964657220616374696044820152681bdb9058d8dbdd5b9d60ba1b6064820152608401610517565b610f306117dc565b15610f7d5760405162461bcd60e51b815260206004820181905260248201527f436f6d706c65746564206f726465722063616e277420626520757064617465646044820152606401610517565b6008805484919060ff19166001836005811115610faa57634e487b7160e01b600052602160045260246000fd5b0217905550600154158015610fde57506001836005811115610fdc57634e487b7160e01b600052602160045260246000fd5b145b15610fe857426001555b6000600c5460ff16600381111561100f57634e487b7160e01b600052602160045260246000fd5b1461108c57600b5482111561108c5760405162461bcd60e51b815260206004820152602b60248201527f466f7262696464656e20746f20696e63726561736520707269636520666f722060448201527f76616c75654f66666572730000000000000000000000000000000000000000006064820152608401610517565b600b8290556008546040517fdeec0b1e3a1ffaeb49a9045c07756b2e16cd738314db2d7ec9317e56809732bb916110c891309160ff1690612477565b60405180910390a1505050565b6003546040805163483d45bd60e01b815290516000926001600160a01b03169163483d45bd916004808301926020929190829003018186803b15801561111a57600080fd5b505afa15801561112e573d6000803e3d6000fd5b505050506040513d601f19601f820116820180604052508101906111529190611eea565b6001600160a01b0316636760c4b76040518163ffffffff1660e01b815260040160206040518083038186803b15801561118a57600080fd5b505afa15801561119e573d6000803e3d6000fd5b505050506040513d601f19601f820116820180604052508101906111c29190611eea565b9050336001600160a01b0382161461122e5760405162461bcd60e51b815260206004820152602960248201527f417661696c61626c65206f6e6c7920666f722070726f766964657220616374696044820152681bdb9058d8dbdd5b9d60ba1b6064820152608401610517565b6112366117dc565b156112835760405162461bcd60e51b815260206004820152601160248201527f416c726561647920636f6d706c657465640000000000000000000000000000006044820152606401610517565b60058460058111156112a557634e487b7160e01b600052602160045260246000fd5b14806112d0575060048460058111156112ce57634e487b7160e01b600052602160045260246000fd5b145b6113425760405162461bcd60e51b815260206004820152602b60248201527f43616e20636f6d706c657465206f6e6c7920776974682073746174757320457260448201527f726f72206f7220446f6e650000000000000000000000000000000000000000006064820152608401610517565b6008805485919060ff1916600183600581111561136f57634e487b7160e01b600052602160045260246000fd5b02179055508251611387906009906020860190611bbb565b50815161139b90600a906020850190611bbb565b5060058460058111156113be57634e487b7160e01b600052602160045260246000fd5b14156113d8576012805460ff60a81b1916600160a81b1790555b6008546040517fdeec0b1e3a1ffaeb49a9045c07756b2e16cd738314db2d7ec9317e56809732bb9161140f91309160ff1690612477565b60405180910390a150505050565b6060600280548060200260200160405190810160405280929190818152602001828054801561147557602002820191906000526020600020905b81546001600160a01b03168152600190910190602001808311611457575b5050505050905090565b611487611869565b6012546001600160a01b031633146114eb5760405162461bcd60e51b815260206004820152602160248201527f417661696c61626c65206f6e6c7920666f72206f726465727320666163746f726044820152607960f81b6064820152608401610517565b6012805460ff60a81b1916600160a81b179055565b611508611869565b6012546001600160a01b0316331461156c5760405162461bcd60e51b815260206004820152602160248201527f417661696c61626c65206f6e6c7920666f72206f726465727320666163746f726044820152607960f81b6064820152608401610517565b6000816001600160a01b03166301efb6c86040518163ffffffff1660e01b815260040160006040518083038186803b1580156115a757600080fd5b505afa1580156115bb573d6000803e3d6000fd5b505050506040513d6000823e601f3d908101601f191682016040526115e39190810190612214565b6000015190506000816001600160a01b031663af5372e66040518163ffffffff1660e01b815260040160206040518083038186803b15801561162457600080fd5b505afa158015611638573d6000803e3d6000fd5b505050506040513d601f19601f8201168201806040525081019061165c9190611f20565b9050600d600082600381111561168257634e487b7160e01b600052602160045260246000fd5b60038111156116a157634e487b7160e01b600052602160045260246000fd5b815260208101919091526040016000205460ff16156117285760405162461bcd60e51b815260206004820152602960248201527f416c726561647920686173207375624f7264657220776974682074686973206f60448201527f66666572207479706500000000000000000000000000000000000000000000006064820152608401610517565b600280546001808201835560009283527f405787fa12a823e0f2b7631cc41b3ba8828b3321ca811111fa75cd3aa3bb5ace90910180546001600160a01b0319166001600160a01b03871617905590600d9083600381111561179957634e487b7160e01b600052602160045260246000fd5b60038111156117b857634e487b7160e01b600052602160045260246000fd5b81526020810191909152604001600020805460ff1916911515919091179055505050565b6000600460085460ff16600581111561180557634e487b7160e01b600052602160045260246000fd5b14806118355750600560085460ff16600581111561183357634e487b7160e01b600052602160045260246000fd5b145b806118645750600360085460ff16600581111561186257634e487b7160e01b600052602160045260246000fd5b145b905090565b600e60009054906101000a90046001600160a01b03166001600160a01b031663f1f0bd016040518163ffffffff1660e01b815260040160206040518083038186803b1580156118b757600080fd5b505afa1580156118cb573d6000803e3d6000fd5b505050506040513d601f19601f820116820180604052508101906118ef9190611eea565b600e80546001600160a01b0319166001600160a01b0392909216918217905560405163bcaa0c5560e01b815263bcaa0c5590611930906001906004016124e1565b60206040518083038186803b15801561194857600080fd5b505afa15801561195c573d6000803e3d6000fd5b505050506040513d601f19601f820116820180604052508101906119809190611eea565b600f80546001600160a01b0319166001600160a01b03928316179055600e5460405163bcaa0c5560e01b815291169063bcaa0c55906119c4906002906004016124e1565b60206040518083038186803b1580156119dc57600080fd5b505afa1580156119f0573d6000803e3d6000fd5b505050506040513d601f19601f82011682018060405250810190611a149190611eea565b601080546001600160a01b0319166001600160a01b03928316179055600e5460405163bcaa0c5560e01b815291169063bcaa0c5590611a58906005906004016124e1565b60206040518083038186803b158015611a7057600080fd5b505afa158015611a84573d6000803e3d6000fd5b505050506040513d601f19601f82011682018060405250810190611aa89190611eea565b601180546001600160a01b0319166001600160a01b03928316179055600e5460405163bcaa0c5560e01b815291169063bcaa0c5590611aec906000906004016124e1565b60206040518083038186803b158015611b0457600080fd5b505afa158015611b18573d6000803e3d6000fd5b505050506040513d601f19601f82011682018060405250810190611b3c9190611eea565b601280546001600160a01b0319166001600160a01b0392909216919091179055565b6040518060c0016040528060006001600160a01b031681526020016060815260200160608152602001606081526020016060815260200160006005811115611bb657634e487b7160e01b600052602160045260246000fd5b905290565b828054611bc79061279a565b90600052602060002090601f016020900481019282611be95760008555611c2f565b82601f10611c0257805160ff1916838001178555611c2f565b82800160010185558215611c2f579182015b82811115611c2f578251825591602001919060010190611c14565b50611c3b929150611c3f565b5090565b5b80821115611c3b5760008155600101611c40565b8051611c5f8161282d565b919050565b600082601f830112611c74578081fd5b8151602067ffffffffffffffff821115611c9057611c90612817565b8160051b611c9f828201612660565b838152828101908684018388018501891015611cb9578687fd5b8693505b85841015611ce4578051611cd08161282d565b835260019390930192918401918401611cbd565b50979650505050505050565b80518015158114611c5f57600080fd5b805160048110611c5f57600080fd5b8051611c5f81612845565b600082601f830112611d2a578081fd5b8135611d3d611d3882612691565b612660565b818152846020838601011115611d51578283fd5b816020850160208301379081016020019190915292915050565b600082601f830112611d7b578081fd5b8151611d89611d3882612691565b818152846020838601011115611d9d578283fd5b611dae82602083016020870161276a565b949350505050565b600060408284031215611dc7578081fd5b6040516040810181811067ffffffffffffffff82111715611dea57611dea612817565b80604052508091508251611dfd8161282d565b8152611e0b60208401611cf0565b60208201525092915050565b60006101008284031215611e29578081fd5b6040516080810181811067ffffffffffffffff82111715611e4c57611e4c612817565b604052905080611e5c8484611db6565b8152611e6b8460408501611db6565b6020820152611e7d8460808501611db6565b6040820152611e8f8460c08501611db6565b60608201525092915050565b805163ffffffff81168114611c5f57600080fd5b805167ffffffffffffffff81168114611c5f57600080fd5b600060208284031215611ed8578081fd5b8135611ee38161282d565b9392505050565b600060208284031215611efb578081fd5b8151611ee38161282d565b600060208284031215611f17578081fd5b611ee382611cf0565b600060208284031215611f31578081fd5b611ee382611d00565b600080600060608486031215611f4e578182fd5b8335611f5981612845565b9250602084013567ffffffffffffffff80821115611f75578384fd5b611f8187838801611d1a565b93506040860135915080821115611f96578283fd5b50611fa386828701611d1a565b9150509250925092565b60008060408385031215611fbf578182fd5b8235611fca81612845565b946020939093013593505050565b600060208284031215611fe9578081fd5b815167ffffffffffffffff80821115612000578283fd5b908301906103208286031215612014578283fd5b61201c6125f0565b82518281111561202a578485fd5b61203687828601611d6b565b82525061204560208401611d00565b602082015261205660408401611cf0565b604082015260608301518281111561206c578485fd5b61207887828601611d6b565b6060830152506080830151608082015260a083015160a082015260c0830151828111156120a3578485fd5b6120af87828601611d6b565b60c0830152506120c28660e08501611e17565b60e08201526101e080840151838111156120da578586fd5b6120e688828701611d6b565b6101008401525061020080850151610120840152610220808601518581111561210d578788fd5b6121198a828901611d6b565b6101408601525061024086015185811115612132578788fd5b61213e8a828901611d6b565b6101608601525061026086015185811115612157578788fd5b6121638a828901611d6b565b610180860152506102808601518581111561217c578788fd5b6121888a828901611c64565b6101a0860152506102a0860151858111156121a1578788fd5b6121ad8a828901611d6b565b6101c0860152506102c0860151858111156121c6578788fd5b6121d28a828901611d6b565b84860152506102e08601519250848311156121eb578687fd5b6121f789848801611d6b565b828501526103008601518185015250505080935050505092915050565b600060208284031215612225578081fd5b815167ffffffffffffffff8082111561223c578283fd5b9083019060c0828603121561224f578283fd5b61225761261a565b61226083611c54565b8152602083015182811115612273578485fd5b61227f87828601611d6b565b602083015250604083015182811115612296578485fd5b6122a287828601611d6b565b6040830152506060830151828111156122b9578485fd5b6122c587828601611d6b565b6060830152506080830151828111156122dc578485fd5b6122e887828601611d6b565b6080830152506122fa60a08401611d0f565b60a082015295945050505050565b600060208284031215612319578081fd5b815167ffffffffffffffff80821115612330578283fd5b9083019060e08286031215612343578283fd5b61234b61263d565b825182811115612359578485fd5b61236587828601611d6b565b825250602083015182811115612379578485fd5b61238587828601611d6b565b60208301525060408301518281111561239c578485fd5b6123a887828601611d6b565b6040830152506123ba60608401611e9b565b60608201526123cb60808401611eaf565b608082015260a0830151828111156123e1578485fd5b6123ed87828601611d6b565b60a08301525060c083015182811115612404578485fd5b61241087828601611d6b565b60c08301525095945050505050565b600060208284031215612430578081fd5b5051919050565b6006811061244757612447612801565b9052565b6000815180845261246381602086016020860161276a565b601f01601f19169290920160200192915050565b6001600160a01b038316815260408101611ee36020830184612437565b6020808252825182820181905260009190848201906040850190845b818110156124d55783516001600160a01b0316835292840192918401916001016124b0565b50909695505050505050565b60208101600c83106124f5576124f5612801565b91905290565b602081526001600160a01b0382511660208201526000602083015160c0604084015261252a60e084018261244b565b90506040840151601f1980858403016060860152612548838361244b565b92506060860151915080858403016080860152612565838361244b565b925060808601519150808584030160a086015250612583828261244b565b91505060a084015161259860c0850182612437565b509392505050565b6020815260008251606060208401526125bc608084018261244b565b90506020840151601f198483030160408501526125d9828261244b565b915050604084015160608401528091505092915050565b604051610240810167ffffffffffffffff8111828210171561261457612614612817565b60405290565b60405160c0810167ffffffffffffffff8111828210171561261457612614612817565b60405160e0810167ffffffffffffffff8111828210171561261457612614612817565b604051601f8201601f1916810167ffffffffffffffff8111828210171561268957612689612817565b604052919050565b600067ffffffffffffffff8211156126ab576126ab612817565b50601f01601f191660200190565b600082198211156126cc576126cc6127d5565b500190565b6000826126e0576126e06127eb565b500490565b600063ffffffff808416806126fc576126fc6127eb565b92169190910492915050565b6000816000190483118215151615612722576127226127d5565b500290565b600063ffffffff8083168185168183048111821515161561274a5761274a6127d5565b02949350505050565b600082821015612765576127656127d5565b500390565b60005b8381101561278557818101518382015260200161276d565b83811115612794576000848401525b50505050565b600181811c908216806127ae57607f821691505b602082108114156127cf57634e487b7160e01b600052602260045260246000fd5b50919050565b634e487b7160e01b600052601160045260246000fd5b634e487b7160e01b600052601260045260246000fd5b634e487b7160e01b600052602160045260246000fd5b634e487b7160e01b600052604160045260246000fd5b6001600160a01b038116811461284257600080fd5b50565b6006811061284257600080fdfea2646970667358221220a1d621179c5aa3edf7de2a0b7c125679f56efdd8fee20bd99cacb3bcb8edb3e864736f6c63430008040033",
  "linkReferences": {},
  "deployedLinkReferences": {}
}