{
  "_format": "hh-sol-artifact-1",
  "contractName": "OrdersFactory",
  "sourceName": "contracts/OrdersFactory.sol",
  "abi": [
    {
      "inputs": [
        {
          "internalType": "address",
          "name": "_SPConfig",
          "type": "address"
        }
      ],
      "stateMutability": "nonpayable",
      "type": "constructor"
    },
    {
      "anonymous": false,
      "inputs": [
        {
          "indexed": false,
          "internalType": "address",
          "name": "newOrderAddress",
          "type": "address"
        }
      ],
      "name": "OrderCreated",
      "type": "event"
    },
    {
      "inputs": [
        {
          "internalType": "address",
          "name": "creator",
          "type": "address"
        },
        {
          "internalType": "uint256",
          "name": "holdSum",
          "type": "uint256"
        },
        {
          "components": [
            {
              "internalType": "address",
              "name": "offer",
              "type": "address"
            },
            {
              "internalType": "string",
              "name": "resultPublicKey",
              "type": "string"
            },
            {
              "internalType": "string",
              "name": "resultPublicKeyAlgo",
              "type": "string"
            },
            {
              "internalType": "string",
              "name": "encryptedRequirements",
              "type": "string"
            },
            {
              "internalType": "string",
              "name": "encryptedArgs",
              "type": "string"
            },
            {
              "internalType": "enum OrderStatus",
              "name": "status",
              "type": "uint8"
            },
            {
              "components": [
                {
                  "internalType": "uint256",
                  "name": "slots",
                  "type": "uint256"
                },
                {
                  "internalType": "address[]",
                  "name": "inputOffers",
                  "type": "address[]"
                },
                {
                  "internalType": "address[]",
                  "name": "selectedOffers",
                  "type": "address[]"
                }
              ],
              "internalType": "struct OrderArgs",
              "name": "args",
              "type": "tuple"
            }
          ],
          "internalType": "struct OrderInfo",
          "name": "info",
          "type": "tuple"
        },
        {
          "internalType": "bool",
          "name": "blocking",
          "type": "bool"
        },
        {
          "internalType": "bytes32",
          "name": "externalId",
          "type": "bytes32"
        }
      ],
      "name": "addSubOrder",
      "outputs": [
        {
          "internalType": "address",
          "name": "",
          "type": "address"
        }
      ],
      "stateMutability": "nonpayable",
      "type": "function"
    },
    {
      "inputs": [
        {
          "components": [
            {
              "internalType": "address",
              "name": "offer",
              "type": "address"
            },
            {
              "internalType": "string",
              "name": "resultPublicKey",
              "type": "string"
            },
            {
              "internalType": "string",
              "name": "resultPublicKeyAlgo",
              "type": "string"
            },
            {
              "internalType": "string",
              "name": "encryptedRequirements",
              "type": "string"
            },
            {
              "internalType": "string",
              "name": "encryptedArgs",
              "type": "string"
            },
            {
              "internalType": "enum OrderStatus",
              "name": "status",
              "type": "uint8"
            },
            {
              "components": [
                {
                  "internalType": "uint256",
                  "name": "slots",
                  "type": "uint256"
                },
                {
                  "internalType": "address[]",
                  "name": "inputOffers",
                  "type": "address[]"
                },
                {
                  "internalType": "address[]",
                  "name": "selectedOffers",
                  "type": "address[]"
                }
              ],
              "internalType": "struct OrderArgs",
              "name": "args",
              "type": "tuple"
            }
          ],
          "internalType": "struct OrderInfo",
          "name": "info",
          "type": "tuple"
        },
        {
          "internalType": "bool",
          "name": "suspended",
          "type": "bool"
        },
        {
          "internalType": "bytes32",
          "name": "externalId",
          "type": "bytes32"
        }
      ],
      "name": "create",
      "outputs": [
        {
          "internalType": "address",
          "name": "",
          "type": "address"
        }
      ],
      "stateMutability": "nonpayable",
      "type": "function"
    },
    {
      "inputs": [
        {
          "internalType": "address",
          "name": "order",
          "type": "address"
        }
      ],
      "name": "getOrderBlockingSubordersCount",
      "outputs": [
        {
          "internalType": "uint256",
          "name": "",
          "type": "uint256"
        }
      ],
      "stateMutability": "view",
      "type": "function"
    },
    {
      "inputs": [
        {
          "internalType": "address",
          "name": "order",
          "type": "address"
        }
      ],
      "name": "getOrderHoldDeposit",
      "outputs": [
        {
          "internalType": "uint256",
          "name": "",
          "type": "uint256"
        }
      ],
      "stateMutability": "view",
      "type": "function"
    },
    {
      "inputs": [
        {
          "internalType": "address",
          "name": "orderId",
          "type": "address"
        }
      ],
      "name": "isValidOrder",
      "outputs": [
        {
          "internalType": "bool",
          "name": "",
          "type": "bool"
        }
      ],
      "stateMutability": "view",
      "type": "function"
    },
    {
      "inputs": [],
      "name": "listAll",
      "outputs": [
        {
          "internalType": "address[]",
          "name": "",
          "type": "address[]"
        }
      ],
      "stateMutability": "view",
      "type": "function"
    },
    {
      "inputs": [
        {
          "internalType": "address",
          "name": "auth",
          "type": "address"
        },
        {
          "internalType": "bool",
          "name": "error",
          "type": "bool"
        }
      ],
      "name": "onOrderCompleted",
      "outputs": [],
      "stateMutability": "nonpayable",
      "type": "function"
    },
    {
      "inputs": [
        {
          "internalType": "address",
          "name": "orderId",
          "type": "address"
        },
        {
          "internalType": "uint256",
          "name": "amount",
          "type": "uint256"
        }
      ],
      "name": "refillOrder",
      "outputs": [],
      "stateMutability": "nonpayable",
      "type": "function"
    },
    {
      "inputs": [
        {
          "internalType": "uint256",
          "name": "withdraw",
          "type": "uint256"
        }
      ],
      "name": "transferChange",
      "outputs": [],
      "stateMutability": "nonpayable",
      "type": "function"
    },
    {
      "inputs": [
        {
          "internalType": "uint256",
          "name": "profit",
          "type": "uint256"
        },
        {
          "internalType": "address",
          "name": "tokenReceiver",
          "type": "address"
        }
      ],
      "name": "transferProfit",
      "outputs": [],
      "stateMutability": "nonpayable",
      "type": "function"
    }
  ],
  "bytecode": "0x608060405234801561001057600080fd5b50604051620060433803806200604383398101604081905261003191610056565b600580546001600160a01b0319166001600160a01b0392909216919091179055610084565b600060208284031215610067578081fd5b81516001600160a01b038116811461007d578182fd5b9392505050565b615faf80620000946000396000f3fe60806040523480156200001157600080fd5b5060043610620000cc5760003560e01c806378a9eeed116200007f578063bdde182a1162000062578063bdde182a14620001c4578063cb57753214620001f4578063d80ef2df146200020b57600080fd5b806378a9eeed146200017f5780639a5f3a1f146200019857600080fd5b80632812826711620000b45780632812826714620001165780635110df7314620001515780635f4550ba146200016857600080fd5b8062b734e114620000d157806322e8d36914620000fd575b600080fd5b620000e8620000e236600462001a0b565b62000222565b60405190151581526020015b60405180910390f35b620001146200010e36600462001bdd565b620002df565b005b620001426200012736600462001a0b565b6001600160a01b031660009081526001602052604090205490565b604051908152602001620000f4565b620001146200016236600462001a49565b620003ea565b620001146200017936600462001bab565b620005c6565b6200018962000774565b604051620000f4919062001e23565b62000142620001a936600462001a0b565b6001600160a01b031660009081526003602052604090205490565b620001db620001d536600462001b4d565b620007d8565b6040516001600160a01b039091168152602001620000f4565b620001db6200020536600462001ab4565b62000c59565b620001146200021c36600462001a86565b62000ddb565b6000808290506000816001600160a01b0316636c07681f6040518163ffffffff1660e01b815260040160206040518083038186803b1580156200026457600080fd5b505afa15801562000279573d6000803e3d6000fd5b505050506040513d601f19601f820116820180604052508101906200029f919062001a2a565b6001600160a01b038581166000908152602081905260409020549192508281169116148015620002d757506001600160a01b03811615155b949350505050565b81620002eb3362000222565b620003325760405162461bcd60e51b81526020600482015260126024820152711a9818171024b73b30b634b21037b93232b960711b60448201526064015b60405180910390fd5b33600090815260016020526040902054811115620003885760405162461bcd60e51b8152602060048201526012602482015271139bdd08195b9bdd59da0819195c1bdcda5d60721b604482015260640162000329565b600554620003bf9083908590620003aa906001600160a01b0316600162000fc0565b6005546001600160a01b03169291906200104e565b3360009081526001602052604081208054859290620003e090849062001efe565b9091555050505050565b33620003f68162000222565b620004445760405162461bcd60e51b815260206004820152600d60248201527f556e6b6e6f776e206f7264657200000000000000000000000000000000000000604482015260640162000329565b60008190506000816001600160a01b031663982308f56040518163ffffffff1660e01b815260040160206040518083038186803b1580156200048557600080fd5b505afa1580156200049a573d6000803e3d6000fd5b505050506040513d601f19601f82011682018060405250810190620004c0919062001a2a565b90506001600160a01b03811615620005bf576001600160a01b038082166000818152600260209081526040808320948816835293815283822054928252600390529182208054919283926200051790849062001efe565b90915550859050806200054057506001600160a01b038216600090815260036020526040902054155b15620005bd57816001600160a01b038116634ed1fe6e88886200056557600062000568565b60055b6040518363ffffffff1660e01b81526004016200058792919062001e04565b600060405180830381600087803b158015620005a257600080fd5b505af1158015620005b7573d6000803e3d6000fd5b50505050505b505b5050505050565b80620005d23362000222565b620006155760405162461bcd60e51b81526020600482015260126024820152711a9818171024b73b30b634b21037b93232b960711b604482015260640162000329565b336000908152600160205260409020548111156200066b5760405162461bcd60e51b8152602060048201526012602482015271139bdd08195b9bdd59da0819195c1bdcda5d60721b604482015260640162000329565b336000908152600160205260408120546200068890849062001efe565b600554909150620006a2906001600160a01b031662001224565b33600090815260208190526040908190205490517fa9059cbb0000000000000000000000000000000000000000000000000000000081526001600160a01b0391821660048201526024810184905291169063a9059cbb90604401602060405180830381600087803b1580156200071757600080fd5b505af11580156200072c573d6000803e3d6000fd5b505050506040513d601f19601f8201168201806040525081019062000752919062001b2e565b503360009081526001602052604081208054839290620003e090849062001efe565b60606004805480602002602001604051908101604052809291908181526020018280548015620007ce57602002820191906000526020600020905b81546001600160a01b03168152600190910190602001808311620007af575b5050505050905090565b82516040517ff12018c3000000000000000000000000000000000000000000000000000000008152336004820181905260009290916001600160a01b0382169063f12018c39060240160206040518083038186803b1580156200083a57600080fd5b505afa1580156200084f573d6000803e3d6000fd5b505050506040513d601f19601f8201168201806040525081019062000875919062001b2e565b620008c35760405162461bcd60e51b815260206004820152600b60248201527f4e6f7420616c6c6f776564000000000000000000000000000000000000000000604482015260640162000329565b6040517f1f6bb8480000000000000000000000000000000000000000000000000000000081526001600160a01b03821690631f6bb848906200090b9060009060040162001e55565b60206040518083038186803b1580156200092457600080fd5b505afa15801562000939573d6000803e3d6000fd5b505050506040513d601f19601f820116820180604052508101906200095f919062001b2e565b15620009ae5760405162461bcd60e51b815260206004820181905260248201527f4f6666657220646973616c6c6f77207374616e64616c6f6e65206f7264657273604482015260640162000329565b6000816001600160a01b031663bbb5d5f76040518163ffffffff1660e01b815260040160206040518083038186803b158015620009ea57600080fd5b505afa158015620009ff573d6000803e3d6000fd5b505050506040513d601f19601f8201168201806040525081019062000a25919062001bc4565b60055490915062000a41906001600160a01b0316600062000fc0565b81101562000a655760055462000a62906001600160a01b0316600062000fc0565b90505b60055462000a7c906001600160a01b031662001224565b604051636eb1769f60e11b81526001600160a01b038581166004830152306024830152919091169063dd62ed3e9060440160206040518083038186803b15801562000ac657600080fd5b505afa15801562000adb573d6000803e3d6000fd5b505050506040513d601f19601f8201168201806040525081019062000b01919062001bc4565b81111562000b775760405162461bcd60e51b8152602060048201526024808201527f416c6c6f77656420746f6b656e73206c657373207468616e20686f6c6444657060448201527f6f73697400000000000000000000000000000000000000000000000000000000606482015260840162000329565b60055462000b8e906001600160a01b031662001224565b6040516323b872dd60e01b81526001600160a01b0385811660048301523060248301526044820184905291909116906323b872dd90606401602060405180830381600087803b15801562000be157600080fd5b505af115801562000bf6573d6000803e3d6000fd5b505050506040513d601f19601f8201168201806040525081019062000c1c919062001b2e565b50600062000c308460008a858b8b620012b9565b6001600160a01b03811660009081526001602052604090209290925550925050505b9392505050565b60008462000c673362000222565b62000caa5760405162461bcd60e51b81526020600482015260126024820152711a9818171024b73b30b634b21037b93232b960711b604482015260640162000329565b3360009081526001602052604090205481111562000d005760405162461bcd60e51b8152602060048201526012602482015271139bdd08195b9bdd59da0819195c1bdcda5d60721b604482015260640162000329565b3360008062000d148a848a8c858b620012b9565b6001600160a01b038416600090815260016020526040812080549293508b9290919062000d4390849062001efe565b90915550506001600160a01b038116600090815260016020526040812080548b929062000d7290849062001ee3565b9091555050861562000dce576001600160a01b03808416600081815260026020908152604080832094861683529381528382206001908190559282526003905291822080549192909162000dc890849062001ee3565b90915550505b9998505050505050505050565b600554339062000df4906001600160a01b031662001224565b604051636eb1769f60e11b81526001600160a01b038381166004830152306024830152919091169063dd62ed3e9060440160206040518083038186803b15801562000e3e57600080fd5b505afa15801562000e53573d6000803e3d6000fd5b505050506040513d601f19601f8201168201806040525081019062000e79919062001bc4565b82111562000ef05760405162461bcd60e51b815260206004820152602660248201527f416c6c6f77656420746f6b656e73206c657373207468616e20726566696c6c2060448201527f616d6f756e740000000000000000000000000000000000000000000000000000606482015260840162000329565b60055462000f07906001600160a01b031662001224565b6040516323b872dd60e01b81526001600160a01b0383811660048301523060248301526044820185905291909116906323b872dd90606401602060405180830381600087803b15801562000f5a57600080fd5b505af115801562000f6f573d6000803e3d6000fd5b505050506040513d601f19601f8201168201806040525081019062000f95919062001b2e565b506001600160a01b03831660009081526001602052604081208054849290620003e090849062001ee3565b600062000fcd836200166e565b6001600160a01b03166303a2216d836040518263ffffffff1660e01b815260040162000ffa919062001e6c565b60206040518083038186803b1580156200101357600080fd5b505afa15801562001028573d6000803e3d6000fd5b505050506040513d601f19601f8201168201806040525081019062000c52919062001bc4565b600062001064856001600160a01b0316620016aa565b90506200107a856001600160a01b031662001224565b6040517f095ea7b30000000000000000000000000000000000000000000000000000000081526001600160a01b03838116600483015260248201869052919091169063095ea7b390604401602060405180830381600087803b158015620010e057600080fd5b505af1158015620010f5573d6000803e3d6000fd5b505050506040513d601f19601f820116820180604052508101906200111b919062001b2e565b506040517f2ee409080000000000000000000000000000000000000000000000000000000081526001600160a01b03858116600483015260248201859052821690632ee4090890604401600060405180830381600087803b1580156200118057600080fd5b505af115801562001195573d6000803e3d6000fd5b50506040517fe2ab691d0000000000000000000000000000000000000000000000000000000081526001600160a01b03878116600483015260248201879052604482018690528416925063e2ab691d9150606401600060405180830381600087803b1580156200120457600080fd5b505af115801562001219573d6000803e3d6000fd5b505050505050505050565b600062001231826200166e565b6001600160a01b031663bcaa0c5560056040518263ffffffff1660e01b81526004016200125f919062001e38565b60206040518083038186803b1580156200127857600080fd5b505afa1580156200128d573d6000803e3d6000fd5b505050506040513d601f19601f82011682018060405250810190620012b3919062001a2a565b92915050565b600080856000015190506000816001600160a01b031663483d45bd6040518163ffffffff1660e01b815260040160206040518083038186803b158015620012ff57600080fd5b505afa15801562001314573d6000803e3d6000fd5b505050506040513d601f19601f820116820180604052508101906200133a919062001a2a565b6001600160a01b031663085710116040518163ffffffff1660e01b815260040160206040518083038186803b1580156200137357600080fd5b505afa15801562001388573d6000803e3d6000fd5b505050506040513d601f19601f82011682018060405250810190620013ae919062001a2a565b9050816001600160a01b0316636aa633b66040518163ffffffff1660e01b815260040160206040518083038186803b158015620013ea57600080fd5b505afa158015620013ff573d6000803e3d6000fd5b505050506040513d601f19601f8201168201806040525081019062001425919062001b2e565b8015620014dc575060055462001444906001600160a01b0316620016e5565b6040517f54e80afd0000000000000000000000000000000000000000000000000000000081526001600160a01b03838116600483015291909116906354e80afd9060240160206040518083038186803b158015620014a157600080fd5b505afa158015620014b6573d6000803e3d6000fd5b505050506040513d601f19601f82011682018060405250810190620014dc919062001b2e565b6200152a5760405162461bcd60e51b815260206004820152601460248201527f4f66666572206d75737420626520616374697665000000000000000000000000604482015260640162000329565b6000600560009054906101000a90046001600160a01b03168a8a8a8a8a8a604051620015569062001720565b62001568979695949392919062001cf3565b604051809103906000f08015801562001585573d6000803e3d6000fd5b50905089600080836001600160a01b03166001600160a01b0316815260200190815260200160002060006101000a8154816001600160a01b0302191690836001600160a01b031602179055506004819080600181540180825580915050600190039060005260206000200160009091909190916101000a8154816001600160a01b0302191690836001600160a01b031602179055507fed94e6f8f334678b3265725f268ecd9032016d6050efeb9e673a561ffbfb0a76816040516200165991906001600160a01b0391909116815260200190565b60405180910390a19998505050505050505050565b6000816001600160a01b031663f1f0bd016040518163ffffffff1660e01b815260040160206040518083038186803b1580156200127857600080fd5b6000620016b7826200166e565b6001600160a01b031663bcaa0c5560026040518263ffffffff1660e01b81526004016200125f919062001e38565b6000620016f2826200166e565b6001600160a01b031663bcaa0c5560016040518263ffffffff1660e01b81526004016200125f919062001e38565b613ff78062001f8383390190565b80356200173b8162001f5a565b919050565b600082601f83011262001751578081fd5b8135602067ffffffffffffffff82111562001770576200177062001f44565b8160051b6200178182820162001eaf565b8381528281019086840183880185018910156200179c578687fd5b8693505b85841015620017cb578035620017b68162001f5a565b835260019390930192918401918401620017a0565b50979650505050505050565b8035600981106200173b57600080fd5b600082601f830112620017f8578081fd5b813567ffffffffffffffff81111562001815576200181562001f44565b6200182a601f8201601f191660200162001eaf565b8181528460208386010111156200183f578283fd5b816020850160208301379081016020019190915292915050565b6000606082840312156200186b578081fd5b6040516060810167ffffffffffffffff828210818311171562001892576200189262001f44565b81604052829350843583526020850135915080821115620018b257600080fd5b620018c08683870162001740565b60208401526040850135915080821115620018da57600080fd5b50620018e98582860162001740565b6040830152505092915050565b600060e0828403121562001908578081fd5b6200191262001e83565b90506200191f826200172e565b8152602082013567ffffffffffffffff808211156200193d57600080fd5b6200194b85838601620017e7565b602084015260408401359150808211156200196557600080fd5b6200197385838601620017e7565b604084015260608401359150808211156200198d57600080fd5b6200199b85838601620017e7565b60608401526080840135915080821115620019b557600080fd5b620019c385838601620017e7565b6080840152620019d660a08501620017d7565b60a084015260c0840135915080821115620019f057600080fd5b50620019ff8482850162001859565b60c08301525092915050565b60006020828403121562001a1d578081fd5b813562000c528162001f5a565b60006020828403121562001a3c578081fd5b815162000c528162001f5a565b6000806040838503121562001a5c578081fd5b823562001a698162001f5a565b9150602083013562001a7b8162001f73565b809150509250929050565b6000806040838503121562001a99578182fd5b823562001aa68162001f5a565b946020939093013593505050565b600080600080600060a0868803121562001acc578081fd5b853562001ad98162001f5a565b945060208601359350604086013567ffffffffffffffff81111562001afc578182fd5b62001b0a88828901620018f6565b935050606086013562001b1d8162001f73565b949793965091946080013592915050565b60006020828403121562001b40578081fd5b815162000c528162001f73565b60008060006060848603121562001b62578283fd5b833567ffffffffffffffff81111562001b79578384fd5b62001b8786828701620018f6565b935050602084013562001b9a8162001f73565b929592945050506040919091013590565b60006020828403121562001bbd578081fd5b5035919050565b60006020828403121562001bd6578081fd5b5051919050565b6000806040838503121562001bf0578182fd5b82359150602083013562001a7b8162001f5a565b6000815180845260208085019450808401835b8381101562001c3e5781516001600160a01b03168752958201959082019060010162001c17565b509495945050505050565b6009811062001c5c5762001c5c62001f2e565b9052565b60008151808452815b8181101562001c875760208185018101518683018201520162001c69565b8181111562001c995782602083870101525b50601f01601f19169290920160200192915050565b80518252600060208201516060602085015262001ccf606085018262001c04565b90506040830151848203604086015262001cea828262001c04565b95945050505050565b60006001600160a01b03808a1683528089166020840152808816604084015260e060608401528087511660e084015250602086015160e061010084015262001d406101c084018262001c60565b9050604087015160df19808584030161012086015262001d61838362001c60565b925060608901519150808584030161014086015262001d81838362001c60565b925060808901519150808584030161016086015262001da1838362001c60565b925060a0890151915062001dba61018086018362001c49565b60c0890151915080858403016101a08601525062001dd9828262001cae565b9250505084608083015262001df260a083018515159052565b8260c083015298975050505050505050565b6001600160a01b03831681526040810162000c52602083018462001c49565b60208152600062000c52602083018462001c04565b60208101600c831062001e4f5762001e4f62001f2e565b91905290565b602081016004831062001e4f5762001e4f62001f2e565b602081016011831062001e4f5762001e4f62001f2e565b60405160e0810167ffffffffffffffff8111828210171562001ea95762001ea962001f44565b60405290565b604051601f8201601f1916810167ffffffffffffffff8111828210171562001edb5762001edb62001f44565b604052919050565b6000821982111562001ef95762001ef962001f18565b500190565b60008282101562001f135762001f1362001f18565b500390565b634e487b7160e01b600052601160045260246000fd5b634e487b7160e01b600052602160045260246000fd5b634e487b7160e01b600052604160045260246000fd5b6001600160a01b038116811462001f7057600080fd5b50565b801515811462001f7057600080fdfe60806040526016805461ffff60a01b191690553480156200001f57600080fd5b5060405162003ff738038062003ff783398101604081905262000042916200073d565b601680546001600160a01b03808a166001600160a01b031992831617909255600180548984169083161790558551600580549190931691161781556020808601518051879392620000999260069291019062000440565b5060408201518051620000b791600284019160209091019062000440565b5060608201518051620000d591600384019160209091019062000440565b5060808201518051620000f391600484019160209091019062000440565b5060a082015160058201805460ff191660018360088111156200012657634e487b7160e01b600052602160045260246000fd5b021790555060c08201518051600683019081556020808301518051620001539260078701920190620004cf565b506040820151805162000171916002840191602090910190620004cf565b505050905050620001928660126200040160201b620029021790919060201c565b83600001516001600160a01b031663af5372e66040518163ffffffff1660e01b815260040160206040518083038186803b158015620001d057600080fd5b505afa158015620001e5573d6000803e3d6000fd5b505050506040513d601f19601f820116820180604052508101906200020b9190620008cc565b6011805460ff191660018360038111156200023657634e487b7160e01b600052602160045260246000fd5b0217905550600080546001600160a01b0319166001600160a01b038716179055601083905581620002695760006200026c565b60075b600a805460ff191660018360088111156200029757634e487b7160e01b600052602160045260246000fd5b0217905550600c5415620003f15760005b600c54811015620003ef57600c80546000919083908110620002da57634e487b7160e01b600052603260045260246000fd5b9060005260206000200160009054906101000a90046001600160a01b03169050600160186000836001600160a01b031663af5372e66040518163ffffffff1660e01b815260040160206040518083038186803b1580156200033a57600080fd5b505afa1580156200034f573d6000803e3d6000fd5b505050506040513d601f19601f82011682018060405250810190620003759190620008cc565b60038111156200039557634e487b7160e01b600052602160045260246000fd5b6003811115620003b557634e487b7160e01b600052602160045260246000fd5b81526020019081526020016000206000828254620003d4919062000952565b90915550620003e79150829050620009aa565b9050620002a8565b505b60045550620009f4945050505050565b428083556001830180546001600160a01b039093166001600160a01b031993841681179091556002840191909155600390920180549091169091179055565b8280546200044e906200096d565b90600052602060002090601f016020900481019282620004725760008555620004bd565b82601f106200048d57805160ff1916838001178555620004bd565b82800160010185558215620004bd579182015b82811115620004bd578251825591602001919060010190620004a0565b50620004cb92915062000527565b5090565b828054828255906000526020600020908101928215620004bd579160200282015b82811115620004bd57825182546001600160a01b0319166001600160a01b03909116178255602090920191600190910190620004f0565b5b80821115620004cb576000815560010162000528565b80516001600160a01b03811681146200055657600080fd5b919050565b600082601f8301126200056c578081fd5b815160206001600160401b038211156200058a576200058a620009de565b8160051b6200059b8282016200091f565b838152828101908684018388018501891015620005b6578687fd5b8693505b85841015620005e357620005ce816200053e565b835260019390930192918401918401620005ba565b50979650505050505050565b805180151581146200055657600080fd5b8051600981106200055657600080fd5b600082601f83011262000621578081fd5b81516001600160401b038111156200063d576200063d620009de565b602062000653601f8301601f191682016200091f565b828152858284870101111562000667578384fd5b835b838110156200068657858101830151828201840152820162000669565b838111156200069757848385840101525b5095945050505050565b600060608284031215620006b3578081fd5b604051606081016001600160401b038082118383101715620006d957620006d9620009de565b81604052829350845183526020850151915080821115620006f957600080fd5b62000707868387016200055b565b602084015260408501519150808211156200072157600080fd5b5062000730858286016200055b565b6040830152505092915050565b600080600080600080600060e0888a03121562000758578283fd5b62000763886200053e565b965062000773602089016200053e565b955062000783604089016200053e565b60608901519095506001600160401b0380821115620007a0578485fd5b9089019060e0828c031215620007b4578485fd5b620007be620008f4565b620007c9836200053e565b8152602083015182811115620007dd578687fd5b620007eb8d82860162000610565b60208301525060408301518281111562000803578687fd5b620008118d82860162000610565b60408301525060608301518281111562000829578687fd5b620008378d82860162000610565b6060830152506080830151828111156200084f578687fd5b6200085d8d82860162000610565b6080830152506200087160a0840162000600565b60a082015260c08301518281111562000888578687fd5b620008968d828601620006a1565b60c08301525080965050505060808801519250620008b760a08901620005ef565b915060c0880151905092959891949750929550565b600060208284031215620008de578081fd5b815160048110620008ed578182fd5b9392505050565b60405160e081016001600160401b0381118282101715620009195762000919620009de565b60405290565b604051601f8201601f191681016001600160401b03811182821017156200094a576200094a620009de565b604052919050565b60008219821115620009685762000968620009c8565b500190565b600181811c908216806200098257607f821691505b60208210811415620009a457634e487b7160e01b600052602260045260246000fd5b50919050565b6000600019821415620009c157620009c1620009c8565b5060010190565b634e487b7160e01b600052601160045260246000fd5b634e487b7160e01b600052604160045260246000fd5b6135f38062000a046000396000f3fe608060405234801561001057600080fd5b50600436106101775760003560e01c8063b1be5929116100d8578063c214d37a1161008c578063cef8f6d411610066578063cef8f6d41461034d578063d3328a6914610362578063fa391c641461036a57600080fd5b8063c214d37a14610316578063c28bd4ef14610329578063c3c61f911461033b57600080fd5b8063b737e98e116100bd578063b737e98e14610257578063b7ff5dae146102fb578063be9a65551461030e57600080fd5b8063b1be59291461023a578063b2375e8d1461024257600080fd5b80636c737f5b1161012f578063982308f511610114578063982308f51461020f5780639836515014610220578063af91ec601461022857600080fd5b80636c737f5b146101f4578063959499b61461020757600080fd5b80634ed1fe6e116101605780634ed1fe6e146101b25780636a816548146101c75780636c07681f146101cf57600080fd5b806301efb6c81461017c57806330979eba1461019a575b600080fd5b610184610372565b604051610191919061342d565b60405180910390f35b6101a2610715565b6040519015158152602001610191565b6101c56101c0366004612fce565b610776565b005b6101c56108d4565b6001546001600160a01b03165b6040516001600160a01b039091168152602001610191565b6101dc6102023660046130d7565b610b05565b6101c56119a3565b6000546001600160a01b03166101dc565b6101c5611c7c565b601654600160a81b900460ff166101a2565b6101c5611e83565b61024a611f5d565b6040516101919190613440565b6102b9604080516080810182526000808252602082018190529181018290526060810191909152506040805160808101825260125481526013546001600160a01b03908116602083015260145492820192909252601554909116606082015290565b6040516101919190815181526020808301516001600160a01b039081169183019190915260408084015190830152606092830151169181019190915260800190565b6101c56103093660046130ae565b6120c1565b6101c5612285565b6101c561032436600461303d565b612463565b601654600160a01b900460ff166101a2565b6010545b604051908152602001610191565b610355612814565b60405161019191906133ec565b60045461033f565b6101a2612876565b61037a612cdf565b6040805160e08101909152600580546001600160a01b03168252600680546020840191906103a790613502565b80601f01602080910402602001604051908101604052809291908181526020018280546103d390613502565b80156104205780601f106103f557610100808354040283529160200191610420565b820191906000526020600020905b81548152906001019060200180831161040357829003601f168201915b5050505050815260200160028201805461043990613502565b80601f016020809104026020016040519081016040528092919081815260200182805461046590613502565b80156104b25780601f10610487576101008083540402835291602001916104b2565b820191906000526020600020905b81548152906001019060200180831161049557829003601f168201915b505050505081526020016003820180546104cb90613502565b80601f01602080910402602001604051908101604052809291908181526020018280546104f790613502565b80156105445780601f1061051957610100808354040283529160200191610544565b820191906000526020600020905b81548152906001019060200180831161052757829003601f168201915b5050505050815260200160048201805461055d90613502565b80601f016020809104026020016040519081016040528092919081815260200182805461058990613502565b80156105d65780601f106105ab576101008083540402835291602001916105d6565b820191906000526020600020905b8154815290600101906020018083116105b957829003601f168201915b5050509183525050600582015460209091019060ff16600881111561060b57634e487b7160e01b600052602160045260246000fd5b600881111561062a57634e487b7160e01b600052602160045260246000fd5b81526020016006820160405180606001604052908160008201548152602001600182018054806020026020016040519081016040528092919081815260200182805480156106a157602002820191906000526020600020905b81546001600160a01b03168152600190910190602001808311610683575b505050505081526020016002820180548060200260200160405190810160405280929190818152602001828054801561070357602002820191906000526020600020905b81546001600160a01b031681526001909101906020018083116106e5575b50505050508152505081525050905090565b60006007600a5460ff16600881111561073e57634e487b7160e01b600052602160045260246000fd5b1415801561077157506006600a5460ff16600881111561076e57634e487b7160e01b600052602160045260246000fd5b14155b905090565b60165461078b906001600160a01b0316612941565b6001600160a01b0316336001600160a01b0316146107f05760405162461bcd60e51b815260206004820152601260248201527f4f6e6c79206f7264657220666163746f7279000000000000000000000000000060448201526064015b60405180910390fd5b42601455601580546001600160a01b0319166001600160a01b0384161790556000600582600881111561083357634e487b7160e01b600052602160045260246000fd5b14905060006006600a5460ff16600881111561085f57634e487b7160e01b600052602160045260246000fd5b14801561088b5750600083600881111561088957634e487b7160e01b600052602160045260246000fd5b145b905081806108965750805b156108ce57600a805484919060ff191660018360088111156108c857634e487b7160e01b600052602160045260246000fd5b02179055505b50505050565b6001546001600160a01b0316331461092e5760405162461bcd60e51b815260206004820152601b60248201527f417661696c61626c65206f6e6c7920666f7220636f6e73756d6572000000000060448201526064016107e7565b610936612876565b1561098d5760405162461bcd60e51b815260206004820152602160248201527f436f6d706c65746564206f726465722063616e27742062652063616e63656c656044820152601960fa1b60648201526084016107e7565b600554604080517f1bffb49100000000000000000000000000000000000000000000000000000000815290516001600160a01b03909216918291631bffb491916004808301926020929190829003018186803b1580156109ec57600080fd5b505afa158015610a00573d6000803e3d6000fd5b505050506040513d601f19601f82011682018060405250810190610a249190613002565b158015610a32575060025415155b15610a4457610a4160026129ce565b50565b610a4e60036129ce565b600254610a5d57506000601055565b6002546010546040517f8383da750000000000000000000000000000000000000000000000000000000081526001600160a01b03841692638383da7592610aaf92600401918252602082015260400190565b60206040518083038186803b158015610ac757600080fd5b505afa158015610adb573d6000803e3d6000fd5b505050506040513d601f19601f82011682018060405250810190610aff9190613209565b60105550565b600554604080517f2acdf0fa00000000000000000000000000000000000000000000000000000000815290516000926001600160a01b03169183918391632acdf0fa916004808301926020929190829003018186803b158015610b6757600080fd5b505afa158015610b7b573d6000803e3d6000fd5b505050506040513d601f19601f82011682018060405250810190610b9f919061301e565b90506002816002811115610bc357634e487b7160e01b600052602160045260246000fd5b1415610c375760405162461bcd60e51b815260206004820152602b60248201527f5375626f726465727320666f7220276f7574707574272067726f75702069732060448201527f6e6f7420616c6c6f77656400000000000000000000000000000000000000000060648201526084016107e7565b42601455601580546001600160a01b031916331790556000610c57610715565b90506000610c63612a52565b9050818015610c7a5750336001600160a01b038216145b80610c98575081158015610c9857506001546001600160a01b031633145b610ce45760405162461bcd60e51b815260206004820152600d60248201527f4163636573732064656e6965640000000000000000000000000000000000000060448201526064016107e7565b6000886000015190506000816001600160a01b0316632acdf0fa6040518163ffffffff1660e01b815260040160206040518083038186803b158015610d2857600080fd5b505afa158015610d3c573d6000803e3d6000fd5b505050506040513d601f19601f82011682018060405250810190610d60919061301e565b6040517ff12018c30000000000000000000000000000000000000000000000000000000081523360048201529091506001600160a01b0383169063f12018c39060240160206040518083038186803b158015610dbb57600080fd5b505afa158015610dcf573d6000803e3d6000fd5b505050506040513d601f19601f82011682018060405250810190610df39190613002565b610e3f5760405162461bcd60e51b815260206004820152600b60248201527f4e6f7420616c6c6f77656400000000000000000000000000000000000000000060448201526064016107e7565b600160176000836002811115610e6557634e487b7160e01b600052602160045260246000fd5b6002811115610e8457634e487b7160e01b600052602160045260246000fd5b81526020019081526020016000206000828254610ea191906134ea565b9091555060019050856002811115610ec957634e487b7160e01b600052602160045260246000fd5b141580610f025750600260005260176020527fc52df653038b2ad477d8d97f1ddd63cfd138847b628ad8a7b89c109c3f8782ca54600110155b610f585760405162461bcd60e51b815260206004820152602160248201527f4f7574707574207375626f7264657220616c726561647920616c6c6f636174656044820152601960fa1b60648201526084016107e7565b6000856002811115610f7a57634e487b7160e01b600052602160045260246000fd5b141580610fb35750600260005260176020527fc52df653038b2ad477d8d97f1ddd63cfd138847b628ad8a7b89c109c3f8782ca54600110155b6110095760405162461bcd60e51b815260206004820152602160248201527f4f7574707574207375626f7264657220616c726561647920616c6c6f636174656044820152601960fa1b60648201526084016107e7565b600281600281111561102b57634e487b7160e01b600052602160045260246000fd5b1480156110395750600d5415155b15611128576000805b600d548110156110b057600d8054600091908390811061107257634e487b7160e01b600052603260045260246000fd5b6000918252602090912001548d516001600160a01b0391821692501681141561109f5760019250506110b0565b506110a98161353d565b9050611042565b5080611126576040805162461bcd60e51b81526020600482015260248101919091527f4f6666657220646f6573206e6f74207361746973667920706172656e74206f7260448201527f6465722073656c65637465644f66666572732073706563696669636174696f6e60648201526084016107e7565b505b600081600281111561114a57634e487b7160e01b600052602160045260246000fd5b1415611321576000805b600c548110156112ab57600c8054600091908390811061118457634e487b7160e01b600052603260045260246000fd5b60009182526020909120015460405163f55ba0d360e01b81526001600160a01b039182166004820181905292509086169063f55ba0d39060240160206040518083038186803b1580156111d657600080fd5b505afa1580156111ea573d6000803e3d6000fd5b505050506040513d601f19601f8201168201806040525081019061120e9190613002565b6112805760405162461bcd60e51b815260206004820152603c60248201527f4f66666572207265737472696374696f6e7320636f6e666c696374732077697460448201527f6820706172656e74206f726465722073706563696669636174696f6e0000000060648201526084016107e7565b8c516001600160a01b038281169116141561129a57600192505b506112a48161353d565b9050611154565b508061131f5760405162461bcd60e51b815260206004820152603d60248201527f4f6666657220646f6573206e6f74207361746973667920706172656e74206f7260448201527f64657220696e7075744f66666572732073706563696669636174696f6e00000060648201526084016107e7565b505b6040516303ed770960e31b81526001600160a01b03831690631f6bb8489061134e90600290600401613419565b60206040518083038186803b15801561136657600080fd5b505afa15801561137a573d6000803e3d6000fd5b505050506040513d601f19601f8201168201806040525081019061139e9190613002565b1561144b57600260005260186020527f2bacf7cca723d030d12aee795132f2c5f2d14ad131f16f3f27eeba3e79d18b8c5461144b5760405162461bcd60e51b815260206004820152604160248201527f506172656e74206f726465722073706563696669636174696f6e20646f65732060448201527f6e6f742073617469736679207375626f66666572207265737472696374696f6e6064820152607360f81b608482015260a4016107e7565b6040516303ed770960e31b81526001600160a01b03831690631f6bb8489061147890600390600401613419565b60206040518083038186803b15801561149057600080fd5b505afa1580156114a4573d6000803e3d6000fd5b505050506040513d601f19601f820116820180604052508101906114c89190613002565b1561157557600360005260186020527f7a6340a7048c03c55288da75abed74d2ce9194201bafb03be53c0a7cca591495546115755760405162461bcd60e51b815260206004820152604160248201527f506172656e74206f726465722073706563696669636174696f6e20646f65732060448201527f6e6f742073617469736679207375626f66666572207265737472696374696f6e6064820152607360f81b608482015260a4016107e7565b6040516303ed770960e31b81526001600160a01b03831690631f6bb848906115a290600190600401613419565b60206040518083038186803b1580156115ba57600080fd5b505afa1580156115ce573d6000803e3d6000fd5b505050506040513d601f19601f820116820180604052508101906115f29190613002565b1561169f57600160005260186020527ff3794665d3af9b6fb6f858b70185898134f96768ef31c325d52e04f0ac195a4d5461169f5760405162461bcd60e51b815260206004820152604160248201527f506172656e74206f726465722073706563696669636174696f6e20646f65732060448201527f6e6f742073617469736679207375626f66666572207265737472696374696f6e6064820152607360f81b608482015260a4016107e7565b6040516303ed770960e31b81526001600160a01b03831690631f6bb848906116cc90600090600401613419565b60206040518083038186803b1580156116e457600080fd5b505afa1580156116f8573d6000803e3d6000fd5b505050506040513d601f19601f8201168201806040525081019061171c9190613002565b156117e65760405163f55ba0d360e01b81526001600160a01b03878116600483015283169063f55ba0d39060240160206040518083038186803b15801561176257600080fd5b505afa158015611776573d6000803e3d6000fd5b505050506040513d601f19601f8201168201806040525081019061179a9190613002565b6117e65760405162461bcd60e51b815260206004820152601f60248201527f4f6666657220646973616c6c6f7720706172656e7420544545206f666665720060448201526064016107e7565b6000826001600160a01b031663bbb5d5f76040518163ffffffff1660e01b815260040160206040518083038186803b15801561182157600080fd5b505afa158015611835573d6000803e3d6000fd5b505050506040513d601f19601f820116820180604052508101906118599190613209565b601654909150600090611874906001600160a01b0316612941565b6001600160a01b031663cb577532600160009054906101000a90046001600160a01b0316848f8f8f6040518663ffffffff1660e01b81526004016118bc9594939291906133b0565b602060405180830381600087803b1580156118d657600080fd5b505af11580156118ea573d6000803e3d6000fd5b505050506040513d601f19601f8201168201806040525081019061190e9190612fb2565b600380546001810182556000919091527fc2575a0e9e593c00f959f8c92f12db2869c3395a3b0502d05e2516446f71f85b0180546001600160a01b0319166001600160a01b0383169081179091556040519081529091507fd4a8311d4a2937c45f6564edb791f76d0a6d74db0902f4a6fb46cbee04166a639060200160405180910390a19750505050505050505b9392505050565b6005546040805163483d45bd60e01b815290516000926001600160a01b03169163483d45bd916004808301926020929190829003018186803b1580156119e857600080fd5b505afa1580156119fc573d6000803e3d6000fd5b505050506040513d601f19601f82011682018060405250810190611a209190612fb2565b6001600160a01b0316636d69a3e86040518163ffffffff1660e01b815260040160206040518083038186803b158015611a5857600080fd5b505afa158015611a6c573d6000803e3d6000fd5b505050506040513d601f19601f82011682018060405250810190611a909190612fb2565b601054909150611a9e612876565b611afb5760405162461bcd60e51b815260206004820152602860248201527f57697468647261776e20617661696c61626c65207768656e206f7264657220636044820152671bdb5c1b195d195960c21b60648201526084016107e7565b336001600160a01b03831614611b795760405162461bcd60e51b815260206004820152603160248201527f417661696c61626c65206f6e6c7920666f722070726f766964657220746f6b6560448201527f6e2072656369766572206163636f756e7400000000000000000000000000000060648201526084016107e7565b601654600160a81b900460ff1615611bd35760405162461bcd60e51b815260206004820152601860248201527f50726f66697420616c72656164792077697468647261776e000000000000000060448201526064016107e7565b601654611be8906001600160a01b0316612941565b6040517f22e8d369000000000000000000000000000000000000000000000000000000008152600481018390526001600160a01b03848116602483015291909116906322e8d36990604401600060405180830381600087803b158015611c4d57600080fd5b505af1158015611c61573d6000803e3d6000fd5b50506016805460ff60a81b1916600160a81b17905550505050565b601654600160a01b900460ff1615611cd65760405162461bcd60e51b815260206004820152601860248201527f4368616e676520616c72656164792077697468647261776e000000000000000060448201526064016107e7565b6001546001600160a01b03163314611d565760405162461bcd60e51b815260206004820152602160248201527f417661696c61626c65206f6e6c7920666f72204f7264657220636f6e73756d6560448201527f720000000000000000000000000000000000000000000000000000000000000060648201526084016107e7565b611d5e612876565b611dbb5760405162461bcd60e51b815260206004820152602860248201527f57697468647261776e20617661696c61626c65207768656e206f7264657220636044820152671bdb5c1b195d195960c21b60648201526084016107e7565b601654600090600160a81b900460ff1615611dd7576000611ddb565b6010545b601654909150611df3906001600160a01b0316612941565b6001600160a01b0316635f4550ba826040518263ffffffff1660e01b8152600401611e2091815260200190565b600060405180830381600087803b158015611e3a57600080fd5b505af1158015611e4e573d6000803e3d6000fd5b5050601680547fffffffffffffffffffffff00ffffffffffffffffffffffffffffffffffffffff16600160a01b179055505050565b6000611e8d612a52565b9050336001600160a01b03821614611ef95760405162461bcd60e51b815260206004820152602960248201527f417661696c61626c65206f6e6c7920666f722070726f766964657220616374696044820152681bdb9058d8dbdd5b9d60ba1b60648201526084016107e7565b611f01610715565b611f4d5760405162461bcd60e51b815260206004820152601960248201527f4f72646572206861736e2774206265656e20737461727465640000000000000060448201526064016107e7565b610a416001600e600201546120c1565b611f8160405180606001604052806060815260200160608152602001600081525090565b600e604051806060016040529081600082018054611f9e90613502565b80601f0160208091040260200160405190810160405280929190818152602001828054611fca90613502565b80156120175780601f10611fec57610100808354040283529160200191612017565b820191906000526020600020905b815481529060010190602001808311611ffa57829003601f168201915b5050505050815260200160018201805461203090613502565b80601f016020809104026020016040519081016040528092919081815260200182805461205c90613502565b80156120a95780601f1061207e576101008083540402835291602001916120a9565b820191906000526020600020905b81548152906001019060200180831161208c57829003601f168201915b50505050508152602001600282015481525050905090565b60006120cb612a52565b9050336001600160a01b038216146121375760405162461bcd60e51b815260206004820152602960248201527f417661696c61626c65206f6e6c7920666f722070726f766964657220616374696044820152681bdb9058d8dbdd5b9d60ba1b60648201526084016107e7565b61213f610715565b61218b5760405162461bcd60e51b815260206004820152601960248201527f4f72646572206861736e2774206265656e20737461727465640000000000000060448201526064016107e7565b612193612876565b156121e05760405162461bcd60e51b815260206004820181905260248201527f436f6d706c65746564206f726465722063616e2774206265207570646174656460448201526064016107e7565b600a546121f09060ff1684612b3f565b61223c5760405162461bcd60e51b815260206004820152600d60248201527f496e76616964207374617475730000000000000000000000000000000000000060448201526064016107e7565b612245836129ce565b6002541580156122745750600183600881111561227257634e487b7160e01b600052602160045260246000fd5b145b1561227e57426002555b5060105550565b6001546001600160a01b031633146122df5760405162461bcd60e51b815260206004820152601b60248201527f417661696c61626c65206f6e6c7920666f7220636f6e73756d6572000000000060448201526064016107e7565b6007600a5460ff16600881111561230657634e487b7160e01b600052602160045260246000fd5b146123535760405162461bcd60e51b815260206004820152601760248201527f4f72646572206d7573742062652073757370656e64656400000000000000000060448201526064016107e7565b42601455601580546001600160a01b03191633179055601654600090612381906001600160a01b0316612941565b6040517f9a5f3a1f0000000000000000000000000000000000000000000000000000000081523060048201526001600160a01b039190911690639a5f3a1f9060240160206040518083038186803b1580156123db57600080fd5b505afa1580156123ef573d6000803e3d6000fd5b505050506040513d601f19601f820116820180604052508101906124139190613209565b90506000811161242e57600a805460ff191690556000612431565b60065b600a805460ff1916600183600881111561245b57634e487b7160e01b600052602160045260246000fd5b021790555050565b600061246d612a52565b9050336001600160a01b038216146124d95760405162461bcd60e51b815260206004820152602960248201527f417661696c61626c65206f6e6c7920666f722070726f766964657220616374696044820152681bdb9058d8dbdd5b9d60ba1b60648201526084016107e7565b6124e1610715565b61252d5760405162461bcd60e51b815260206004820152601960248201527f4f72646572206861736e2774206265656e20737461727465640000000000000060448201526064016107e7565b612535612876565b156125825760405162461bcd60e51b815260206004820152601160248201527f416c726561647920636f6d706c6574656400000000000000000000000000000060448201526064016107e7565b60058460088111156125a457634e487b7160e01b600052602160045260246000fd5b14806125cf575060048460088111156125cd57634e487b7160e01b600052602160045260246000fd5b145b6126415760405162461bcd60e51b815260206004820152602b60248201527f43616e20636f6d706c657465206f6e6c7920776974682073746174757320457260448201527f726f72206f7220446f6e6500000000000000000000000000000000000000000060648201526084016107e7565b6001600a5460ff16600881111561266857634e487b7160e01b600052602160045260246000fd5b148061269857506008600a5460ff16600881111561269657634e487b7160e01b600052602160045260246000fd5b145b6126e45760405162461bcd60e51b815260206004820181905260248201527f43616e277420636f6d706c657465206265666f72652070726f63657373696e6760448201526064016107e7565b82516126f790600e906020860190612d65565b50815161270b90600f906020850190612d65565b50600584600881111561272e57634e487b7160e01b600052602160045260246000fd5b1415612748576016805460ff60a81b1916600160a81b1790555b612751846129ce565b601654612766906001600160a01b0316612941565b6001600160a01b0316635110df7333600587600881111561279757634e487b7160e01b600052602160045260246000fd5b6040517fffffffff0000000000000000000000000000000000000000000000000000000060e086901b1681526001600160a01b039093166004840152146024820152604401600060405180830381600087803b1580156127f657600080fd5b505af115801561280a573d6000803e3d6000fd5b5050505050505050565b6060600380548060200260200160405190810160405280929190818152602001828054801561286c57602002820191906000526020600020905b81546001600160a01b0316815260019091019060200180831161284e575b5050505050905090565b60006004600a5460ff16600881111561289f57634e487b7160e01b600052602160045260246000fd5b14806128cf57506005600a5460ff1660088111156128cd57634e487b7160e01b600052602160045260246000fd5b145b8061077157506003600a5460ff1660088111156128fc57634e487b7160e01b600052602160045260246000fd5b14905090565b428083556001830180546001600160a01b039093166001600160a01b031993841681179091556002840191909155600390920180549091169091179055565b600061294c82612ca4565b6001600160a01b031663bcaa0c5560006040518263ffffffff1660e01b815260040161297891906133ff565b60206040518083038186803b15801561299057600080fd5b505afa1580156129a4573d6000803e3d6000fd5b505050506040513d601f19601f820116820180604052508101906129c89190612fb2565b92915050565b42601455601580546001600160a01b03191633179055600a805482919060ff19166001836008811115612a1157634e487b7160e01b600052602160045260246000fd5b02179055507fdeec0b1e3a1ffaeb49a9045c07756b2e16cd738314db2d7ec9317e56809732bb3082604051612a47929190613393565b60405180910390a150565b6005546040805163483d45bd60e01b815290516000926001600160a01b03169163483d45bd916004808301926020929190829003018186803b158015612a9757600080fd5b505afa158015612aab573d6000803e3d6000fd5b505050506040513d601f19601f82011682018060405250810190612acf9190612fb2565b6001600160a01b0316636760c4b76040518163ffffffff1660e01b815260040160206040518083038186803b158015612b0757600080fd5b505afa158015612b1b573d6000803e3d6000fd5b505050506040513d601f19601f820116820180604052508101906107719190612fb2565b6000806002846008811115612b6457634e487b7160e01b600052602160045260246000fd5b148015612b9057506003836008811115612b8e57634e487b7160e01b600052602160045260246000fd5b145b9050600080856008811115612bb557634e487b7160e01b600052602160045260246000fd5b1480612be057506001856008811115612bde57634e487b7160e01b600052602160045260246000fd5b145b80612c0a57506008856008811115612c0857634e487b7160e01b600052602160045260246000fd5b145b8015612c3557506001846008811115612c3357634e487b7160e01b600052602160045260246000fd5b145b905060006001866008811115612c5b57634e487b7160e01b600052602160045260246000fd5b148015612c8757506008856008811115612c8557634e487b7160e01b600052602160045260246000fd5b145b90508280612c925750815b80612c9a5750805b9695505050505050565b6000816001600160a01b031663f1f0bd016040518163ffffffff1660e01b815260040160206040518083038186803b15801561299057600080fd5b6040518060e0016040528060006001600160a01b031681526020016060815260200160608152602001606081526020016060815260200160006008811115612d3757634e487b7160e01b600052602160045260246000fd5b8152602001612d6060405180606001604052806000815260200160608152602001606081525090565b905290565b828054612d7190613502565b90600052602060002090601f016020900481019282612d935760008555612dd9565b82601f10612dac57805160ff1916838001178555612dd9565b82800160010185558215612dd9579182015b82811115612dd9578251825591602001919060010190612dbe565b50612de5929150612de9565b5090565b5b80821115612de55760008155600101612dea565b8035612e098161359a565b919050565b600082601f830112612e1e578081fd5b8135602067ffffffffffffffff821115612e3a57612e3a613584565b8160051b612e498282016134b9565b838152828101908684018388018501891015612e63578687fd5b8693505b85841015612e8e578035612e7a8161359a565b835260019390930192918401918401612e67565b50979650505050505050565b8035612e09816135af565b803560098110612e0957600080fd5b600082601f830112612ec4578081fd5b813567ffffffffffffffff811115612ede57612ede613584565b612ef1601f8201601f19166020016134b9565b818152846020838601011115612f05578283fd5b816020850160208301379081016020019190915292915050565b600060608284031215612f30578081fd5b6040516060810167ffffffffffffffff8282108183111715612f5457612f54613584565b81604052829350843583526020850135915080821115612f7357600080fd5b612f7f86838701612e0e565b60208401526040850135915080821115612f9857600080fd5b50612fa585828601612e0e565b6040830152505092915050565b600060208284031215612fc3578081fd5b815161199c8161359a565b60008060408385031215612fe0578081fd5b8235612feb8161359a565b9150612ff960208401612ea5565b90509250929050565b600060208284031215613013578081fd5b815161199c816135af565b60006020828403121561302f578081fd5b81516003811061199c578182fd5b600080600060608486031215613051578081fd5b61305a84612ea5565b9250602084013567ffffffffffffffff80821115613076578283fd5b61308287838801612eb4565b93506040860135915080821115613097578283fd5b506130a486828701612eb4565b9150509250925092565b600080604083850312156130c0578182fd5b6130c983612ea5565b946020939093013593505050565b6000806000606084860312156130eb578283fd5b833567ffffffffffffffff80821115613102578485fd5b9085019060e08288031215613115578485fd5b61311d613490565b61312683612dfe565b8152602083013582811115613139578687fd5b61314589828601612eb4565b60208301525060408301358281111561315c578687fd5b61316889828601612eb4565b60408301525060608301358281111561317f578687fd5b61318b89828601612eb4565b6060830152506080830135828111156131a2578687fd5b6131ae89828601612eb4565b6080830152506131c060a08401612ea5565b60a082015260c0830135828111156131d6578687fd5b6131e289828601612f1f565b60c08301525094506131f991505060208501612e9a565b9150604084013590509250925092565b60006020828403121561321a578081fd5b5051919050565b6000815180845260208085019450808401835b838110156132595781516001600160a01b031687529582019590820190600101613234565b509495945050505050565b600981106132745761327461356e565b9052565b60008151808452815b8181101561329d57602081850181015186830182015201613281565b818111156132ae5782602083870101525b50601f01601f19169290920160200192915050565b6001600160a01b0381511682526000602082015160e060208501526132eb60e0850182613278565b9050604083015184820360408601526133048282613278565b9150506060830151848203606086015261331e8282613278565b915050608083015184820360808601526133388282613278565b91505060a083015161334d60a0860182613264565b5060c083015184820360c0860152805182526020810151606060208401526133786060840182613221565b9050604082015191508281036040840152612c9a8183613221565b6001600160a01b03831681526040810161199c6020830184613264565b6001600160a01b038616815284602082015260a0604082015260006133d860a08301866132c3565b931515606083015250608001529392505050565b60208152600061199c6020830184613221565b60208101600c83106134135761341361356e565b91905290565b60208101600483106134135761341361356e565b60208152600061199c60208301846132c3565b60208152600082516060602084015261345c6080840182613278565b90506020840151601f198483030160408501526134798282613278565b915050604084015160608401528091505092915050565b60405160e0810167ffffffffffffffff811182821017156134b3576134b3613584565b60405290565b604051601f8201601f1916810167ffffffffffffffff811182821017156134e2576134e2613584565b604052919050565b600082198211156134fd576134fd613558565b500190565b600181811c9082168061351657607f821691505b6020821081141561353757634e487b7160e01b600052602260045260246000fd5b50919050565b600060001982141561355157613551613558565b5060010190565b634e487b7160e01b600052601160045260246000fd5b634e487b7160e01b600052602160045260246000fd5b634e487b7160e01b600052604160045260246000fd5b6001600160a01b0381168114610a4157600080fd5b8015158114610a4157600080fdfea264697066735822122017451a830677cf024612f853fc220efc0055f3ee3f099a23fb9ee205744233e564736f6c63430008040033a264697066735822122008fab4164d97a7e4babce2eb9e7b9daeb3237e6787e765061c08f8adf1053a4b64736f6c63430008040033",
  "linkReferences": {},
  "deployedLinkReferences": {}
}