{
    "_format": "hh-sol-artifact-1",
    "contractName": "OrdersFactory",
    "sourceName": "contracts/OrdersFactory.sol",
    "abi": [
        {
            "inputs": [
                {
                    "internalType": "address",
                    "name": "_SPConfig",
                    "type": "address"
                }
            ],
            "stateMutability": "nonpayable",
            "type": "constructor"
        },
        {
            "anonymous": false,
            "inputs": [
                {
                    "indexed": false,
                    "internalType": "address",
                    "name": "newOrderAddress",
                    "type": "address"
                }
            ],
            "name": "OrderCreated",
            "type": "event"
        },
        {
            "inputs": [
                {
                    "internalType": "address",
                    "name": "creator",
                    "type": "address"
                },
                {
                    "internalType": "uint256",
                    "name": "holdSum",
                    "type": "uint256"
                },
                {
                    "components": [
                        {
                            "internalType": "address",
                            "name": "offer",
                            "type": "address"
                        },
                        {
                            "internalType": "string",
                            "name": "resultPublicKey",
                            "type": "string"
                        },
                        {
                            "internalType": "string",
                            "name": "resultPublicKeyAlgo",
                            "type": "string"
                        },
                        {
                            "internalType": "string",
                            "name": "encryptedRequirements",
                            "type": "string"
                        },
                        {
                            "internalType": "string",
                            "name": "encryptedArgs",
                            "type": "string"
                        },
                        {
                            "internalType": "enum OrderStatus",
                            "name": "status",
                            "type": "uint8"
                        },
                        {
                            "components": [
                                {
                                    "internalType": "uint256",
                                    "name": "slots",
                                    "type": "uint256"
                                },
                                {
                                    "internalType": "address[]",
                                    "name": "inputOffers",
                                    "type": "address[]"
                                },
                                {
                                    "internalType": "address[]",
                                    "name": "selectedOffers",
                                    "type": "address[]"
                                }
                            ],
                            "internalType": "struct OrderArgs",
                            "name": "args",
                            "type": "tuple"
                        }
                    ],
                    "internalType": "struct OrderInfo",
                    "name": "info",
                    "type": "tuple"
                }
            ],
            "name": "addSubOrder",
            "outputs": [
                {
                    "internalType": "address",
                    "name": "",
                    "type": "address"
                }
            ],
            "stateMutability": "nonpayable",
            "type": "function"
        },
        {
            "inputs": [
                {
                    "components": [
                        {
                            "internalType": "address",
                            "name": "offer",
                            "type": "address"
                        },
                        {
                            "internalType": "string",
                            "name": "resultPublicKey",
                            "type": "string"
                        },
                        {
                            "internalType": "string",
                            "name": "resultPublicKeyAlgo",
                            "type": "string"
                        },
                        {
                            "internalType": "string",
                            "name": "encryptedRequirements",
                            "type": "string"
                        },
                        {
                            "internalType": "string",
                            "name": "encryptedArgs",
                            "type": "string"
                        },
                        {
                            "internalType": "enum OrderStatus",
                            "name": "status",
                            "type": "uint8"
                        },
                        {
                            "components": [
                                {
                                    "internalType": "uint256",
                                    "name": "slots",
                                    "type": "uint256"
                                },
                                {
                                    "internalType": "address[]",
                                    "name": "inputOffers",
                                    "type": "address[]"
                                },
                                {
                                    "internalType": "address[]",
                                    "name": "selectedOffers",
                                    "type": "address[]"
                                }
                            ],
                            "internalType": "struct OrderArgs",
                            "name": "args",
                            "type": "tuple"
                        }
                    ],
                    "internalType": "struct OrderInfo",
                    "name": "info",
                    "type": "tuple"
                }
            ],
            "name": "create",
            "outputs": [
                {
                    "internalType": "address",
                    "name": "",
                    "type": "address"
                }
            ],
            "stateMutability": "nonpayable",
            "type": "function"
        },
        {
            "inputs": [
                {
                    "internalType": "address",
                    "name": "order",
                    "type": "address"
                }
            ],
            "name": "getOrderHoldDeposit",
            "outputs": [
                {
                    "internalType": "uint256",
                    "name": "",
                    "type": "uint256"
                }
            ],
            "stateMutability": "view",
            "type": "function"
        },
        {
            "inputs": [
                {
                    "internalType": "address",
                    "name": "orderId",
                    "type": "address"
                }
            ],
            "name": "isValidOrder",
            "outputs": [
                {
                    "internalType": "bool",
                    "name": "",
                    "type": "bool"
                }
            ],
            "stateMutability": "view",
            "type": "function"
        },
        {
            "inputs": [],
            "name": "listAll",
            "outputs": [
                {
                    "internalType": "address[]",
                    "name": "",
                    "type": "address[]"
                }
            ],
            "stateMutability": "view",
            "type": "function"
        },
        {
            "inputs": [
                {
                    "internalType": "address",
                    "name": "orderId",
                    "type": "address"
                },
                {
                    "internalType": "uint256",
                    "name": "amount",
                    "type": "uint256"
                }
            ],
            "name": "refillOrder",
            "outputs": [],
            "stateMutability": "nonpayable",
            "type": "function"
        },
        {
            "inputs": [
                {
                    "internalType": "uint256",
                    "name": "withdraw",
                    "type": "uint256"
                }
            ],
            "name": "transferChange",
            "outputs": [],
            "stateMutability": "nonpayable",
            "type": "function"
        },
        {
            "inputs": [
                {
                    "internalType": "uint256",
                    "name": "profit",
                    "type": "uint256"
                },
                {
                    "internalType": "address",
                    "name": "tokenReceiver",
                    "type": "address"
                }
            ],
            "name": "transferProfit",
            "outputs": [],
            "stateMutability": "nonpayable",
            "type": "function"
        }
    ],
    "bytecode": "0x608060405234801561001057600080fd5b50604051620059123803806200591283398101604081905261003191610056565b600480546001600160a01b0319166001600160a01b0392909216919091179055610084565b600060208284031215610067578081fd5b81516001600160a01b038116811461007d578182fd5b9392505050565b61587e80620000946000396000f3fe60806040523480156200001157600080fd5b5060043610620000925760003560e01c80633a61ce3511620000625780633a61ce3514620001475780635f4550ba146200015e57806378a9eeed1462000175578063d80ef2df146200018e57600080fd5b8062b734e1146200009757806322e8d36914620000c35780632812826714620000dc578063291e8cec1462000117575b600080fd5b620000ae620000a836600462001a2b565b620001a5565b60405190151581526020015b60405180910390f35b620000da620000d436600462001dee565b62000262565b005b62000108620000ed36600462001a2b565b6001600160a01b031660009081526001602052604090205490565b604051908152602001620000ba565b6200012e6200012836600462001d85565b62000590565b6040516001600160a01b039091168152602001620000ba565b6200012e6200015836600462001a9e565b62000a84565b620000da6200016f36600462001dbc565b62000bbc565b6200017f62000d7d565b604051620000ba919062001fe7565b620000da6200019f36600462001a70565b62000de1565b6000808290506000816001600160a01b0316636c07681f6040518163ffffffff1660e01b815260040160206040518083038186803b158015620001e757600080fd5b505afa158015620001fc573d6000803e3d6000fd5b505050506040513d601f19601f8201168201806040525081019062000222919062001a51565b6001600160a01b0385811660009081526020819052604090205491925082811691161480156200025a57506001600160a01b03811615155b949350505050565b336200026e81620001a5565b620002b55760405162461bcd60e51b81526020600482015260126024820152711a9818171024b73b30b634b21037b93232b960711b60448201526064015b60405180910390fd5b6001600160a01b0381166000908152600160205260409020548311156200031f5760405162461bcd60e51b815260206004820152601360248201527f3530302e20496e76616c696420616d6f756e74000000000000000000000000006044820152606401620002ac565b6005546006546040517f095ea7b30000000000000000000000000000000000000000000000000000000081526001600160a01b0391821660048201526024810186905291169063095ea7b390604401602060405180830381600087803b1580156200038957600080fd5b505af11580156200039e573d6000803e3d6000fd5b505050506040513d601f19601f82011682018060405250810190620003c4919062001afb565b506006546040517f2ee409080000000000000000000000000000000000000000000000000000000081526001600160a01b0384811660048301526024820186905290911690632ee4090890604401600060405180830381600087803b1580156200042d57600080fd5b505af115801562000442573d6000803e3d6000fd5b5050600654600480546040516303a2216d60e01b81526001600160a01b03938416955063e2ab691d9450879389939216916303a2216d9162000488916001910162002019565b60206040518083038186803b158015620004a157600080fd5b505afa158015620004b6573d6000803e3d6000fd5b505050506040513d601f19601f82011682018060405250810190620004dc919062001dd5565b6040517fffffffff0000000000000000000000000000000000000000000000000000000060e086901b1681526001600160a01b03909316600484015260248301919091526044820152606401600060405180830381600087803b1580156200054357600080fd5b505af115801562000558573d6000803e3d6000fd5b505050506001600160a01b038116600090815260016020526040812080548592906200058690849062002124565b9091555050505050565b60006200059c62000f99565b6000338184600001516001600160a01b031663af5372e66040518163ffffffff1660e01b815260040160206040518083038186803b158015620005de57600080fd5b505afa158015620005f3573d6000803e3d6000fd5b505050506040513d601f19601f8201168201806040525081019062000619919062001b18565b60038111156200063957634e487b7160e01b600052602160045260246000fd5b14620007a95783516040517ff12018c30000000000000000000000000000000000000000000000000000000081523360048201526001600160a01b0382169063f12018c39060240160206040518083038186803b1580156200069a57600080fd5b505afa158015620006af573d6000803e3d6000fd5b505050506040513d601f19601f82011682018060405250810190620006d5919062001afb565b620007235760405162461bcd60e51b815260206004820152600b60248201527f4e6f7420616c6c6f7765640000000000000000000000000000000000000000006044820152606401620002ac565b6000816001600160a01b0316635a9b0b896040518163ffffffff1660e01b8152600401600060405180830381600087803b1580156200076157600080fd5b505af115801562000776573d6000803e3d6000fd5b505050506040513d6000823e601f3d908101601f19168201604052620007a0919081019062001b35565b60800151935050505b600480546040516303a2216d60e01b81526001600160a01b03909116916303a2216d91620007db916000910162002019565b60206040518083038186803b158015620007f457600080fd5b505afa15801562000809573d6000803e3d6000fd5b505050506040513d601f19601f820116820180604052508101906200082f919062001dd5565b821015620008c057600480546040516303a2216d60e01b81526001600160a01b03909116916303a2216d9162000869916000910162002019565b60206040518083038186803b1580156200088257600080fd5b505afa15801562000897573d6000803e3d6000fd5b505050506040513d601f19601f82011682018060405250810190620008bd919062001dd5565b91505b600554604051636eb1769f60e11b81526001600160a01b0383811660048301523060248301529091169063dd62ed3e9060440160206040518083038186803b1580156200090c57600080fd5b505afa15801562000921573d6000803e3d6000fd5b505050506040513d601f19601f8201168201806040525081019062000947919062001dd5565b821115620009bd5760405162461bcd60e51b8152602060048201526024808201527f416c6c6f77656420746f6b656e73206c657373207468616e20686f6c6444657060448201527f6f736974000000000000000000000000000000000000000000000000000000006064820152608401620002ac565b6005546040516323b872dd60e01b81526001600160a01b03838116600483015230602483015260448201859052909116906323b872dd90606401602060405180830381600087803b15801562000a1257600080fd5b505af115801562000a27573d6000803e3d6000fd5b505050506040513d601f19601f8201168201806040525081019062000a4d919062001afb565b50600062000a5f826000878662001219565b6001600160a01b03811660009081526001602052604090209390935550909392505050565b60003362000a9281620001a5565b62000ad55760405162461bcd60e51b81526020600482015260126024820152711a9818171024b73b30b634b21037b93232b960711b6044820152606401620002ac565b6001600160a01b03811660009081526001602052604090205484111562000b3f5760405162461bcd60e51b815260206004820152601360248201527f3530302e20496e76616c696420616d6f756e74000000000000000000000000006044820152606401620002ac565b600062000b4f8683868862001219565b6001600160a01b03831660009081526001602052604081208054929350879290919062000b7e90849062002124565b90915550506001600160a01b0381166000908152600160205260408120805487929062000bad90849062002109565b90915550909695505050505050565b3362000bc881620001a5565b62000c0b5760405162461bcd60e51b81526020600482015260126024820152711a9818171024b73b30b634b21037b93232b960711b6044820152606401620002ac565b6001600160a01b03811660009081526001602052604090205482111562000c755760405162461bcd60e51b815260206004820152601360248201527f3530302e20496e76616c696420616d6f756e74000000000000000000000000006044820152606401620002ac565b6001600160a01b03811660009081526001602052604081205462000c9b90849062002124565b6005546001600160a01b03848116600090815260208190526040908190205490517fa9059cbb000000000000000000000000000000000000000000000000000000008152908216600482015260248101849052929350169063a9059cbb90604401602060405180830381600087803b15801562000d1757600080fd5b505af115801562000d2c573d6000803e3d6000fd5b505050506040513d601f19601f8201168201806040525081019062000d52919062001afb565b506001600160a01b038216600090815260016020526040812080548392906200058690849062002124565b6060600280548060200260200160405190810160405280929190818152602001828054801562000dd757602002820191906000526020600020905b81546001600160a01b0316815260019091019060200180831162000db8575b5050505050905090565b600554604051636eb1769f60e11b81523360048201819052306024830152916001600160a01b03169063dd62ed3e9060440160206040518083038186803b15801562000e2c57600080fd5b505afa15801562000e41573d6000803e3d6000fd5b505050506040513d601f19601f8201168201806040525081019062000e67919062001dd5565b82111562000ede5760405162461bcd60e51b815260206004820152602660248201527f416c6c6f77656420746f6b656e73206c657373207468616e20726566696c6c2060448201527f616d6f756e7400000000000000000000000000000000000000000000000000006064820152608401620002ac565b6005546040516323b872dd60e01b81526001600160a01b03838116600483015230602483015260448201859052909116906323b872dd90606401602060405180830381600087803b15801562000f3357600080fd5b505af115801562000f48573d6000803e3d6000fd5b505050506040513d601f19601f8201168201806040525081019062000f6e919062001afb565b506001600160a01b038316600090815260016020526040812080548492906200058690849062002109565b60048054604080517ff1f0bd0100000000000000000000000000000000000000000000000000000000815290516001600160a01b039092169263f1f0bd01928282019260209290829003018186803b15801562000ff557600080fd5b505afa1580156200100a573d6000803e3d6000fd5b505050506040513d601f19601f8201168201806040525081019062001030919062001a51565b600480546001600160a01b0319166001600160a01b0392909216918217815560405163bcaa0c5560e01b815263bcaa0c559162001071916005910162001ffc565b60206040518083038186803b1580156200108a57600080fd5b505afa1580156200109f573d6000803e3d6000fd5b505050506040513d601f19601f82011682018060405250810190620010c5919062001a51565b600580546001600160a01b0319166001600160a01b039283161790556004805460405163bcaa0c5560e01b815292169163bcaa0c55916200110a916002910162001ffc565b60206040518083038186803b1580156200112357600080fd5b505afa15801562001138573d6000803e3d6000fd5b505050506040513d601f19601f820116820180604052508101906200115e919062001a51565b600680546001600160a01b0319166001600160a01b039283161790556004805460405163bcaa0c5560e01b815292169163bcaa0c5591620011a3916001910162001ffc565b60206040518083038186803b158015620011bc57600080fd5b505afa158015620011d1573d6000803e3d6000fd5b505050506040513d601f19601f82011682018060405250810190620011f7919062001a51565b600380546001600160a01b0319166001600160a01b0392909216919091179055565b600080836000015190506000816001600160a01b031663483d45bd6040518163ffffffff1660e01b815260040160206040518083038186803b1580156200125f57600080fd5b505afa15801562001274573d6000803e3d6000fd5b505050506040513d601f19601f820116820180604052508101906200129a919062001a51565b6001600160a01b031663085710116040518163ffffffff1660e01b815260040160206040518083038186803b158015620012d357600080fd5b505afa158015620012e8573d6000803e3d6000fd5b505050506040513d601f19601f820116820180604052508101906200130e919062001a51565b9050816001600160a01b0316636aa633b66040518163ffffffff1660e01b815260040160206040518083038186803b1580156200134a57600080fd5b505afa1580156200135f573d6000803e3d6000fd5b505050506040513d601f19601f8201168201806040525081019062001385919062001afb565b80156200142757506003546040517f54e80afd0000000000000000000000000000000000000000000000000000000081526001600160a01b038381166004830152909116906354e80afd9060240160206040518083038186803b158015620013ec57600080fd5b505afa15801562001401573d6000803e3d6000fd5b505050506040513d601f19601f8201168201806040525081019062001427919062001afb565b620014755760405162461bcd60e51b815260206004820152601460248201527f4f66666572206d757374206265206163746976650000000000000000000000006044820152606401620002ac565b6004546040516000916001600160a01b03169089908990899089906200149b906200169c565b620014ab95949392919062001eef565b604051809103906000f080158015620014c8573d6000803e3d6000fd5b506001600160a01b0380821660008181526020819052604081208054938d166001600160a01b0319948516179055600280546001810182559082527f405787fa12a823e0f2b7631cc41b3ba8828b3321ca811111fa75cd3aa3bb5ace018054909316909117909155909150836001600160a01b031663af5372e66040518163ffffffff1660e01b815260040160206040518083038186803b1580156200156d57600080fd5b505afa15801562001582573d6000803e3d6000fd5b505050506040513d601f19601f82011682018060405250810190620015a8919062001b18565b6003811115620015c857634e487b7160e01b600052602160045260246000fd5b14156200165557855160c0870151516040517ff328f55f0000000000000000000000000000000000000000000000000000000081526001600160a01b039092169163f328f55f91620016209160040190815260200190565b600060405180830381600087803b1580156200163b57600080fd5b505af115801562001650573d6000803e3d6000fd5b505050505b6040516001600160a01b03821681527fed94e6f8f334678b3265725f268ecd9032016d6050efeb9e673a561ffbfb0a769060200160405180910390a1979650505050505050565b61367c80620021cd83390190565b8035620016b781620021b3565b919050565b600082601f830112620016cd578081fd5b81356020620016e6620016e083620020b7565b62002083565b80838252828201915082860187848660051b890101111562001706578586fd5b855b85811015620017315781356200171e81620021b3565b8452928401929084019060010162001708565b5090979650505050505050565b600082601f8301126200174f578081fd5b8151602062001762620016e083620020b7565b80838252828201915082860187848660051b890101111562001782578586fd5b855b85811015620017315781516200179a81620021b3565b8452928401929084019060010162001784565b80518015158114620016b757600080fd5b805160048110620016b757600080fd5b803560068110620016b757600080fd5b600082601f830112620017ef578081fd5b813562001800620016e082620020de565b81815284602083860101111562001815578283fd5b816020850160208301379081016020019190915292915050565b600082601f83011262001840578081fd5b815162001851620016e082620020de565b81815284602083860101111562001866578283fd5b6200025a8260208301602087016200213e565b6000606082840312156200188b578081fd5b6040516060810167ffffffffffffffff8282108183111715620018b257620018b26200219d565b81604052829350843583526020850135915080821115620018d257600080fd5b620018e086838701620016bc565b60208401526040850135915080821115620018fa57600080fd5b506200190985828601620016bc565b6040830152505092915050565b600060e0828403121562001928578081fd5b6200193262002030565b90506200193f82620016aa565b8152602082013567ffffffffffffffff808211156200195d57600080fd5b6200196b85838601620017de565b602084015260408401359150808211156200198557600080fd5b6200199385838601620017de565b60408401526060840135915080821115620019ad57600080fd5b620019bb85838601620017de565b60608401526080840135915080821115620019d557600080fd5b620019e385838601620017de565b6080840152620019f660a08501620017ce565b60a084015260c084013591508082111562001a1057600080fd5b5062001a1f8482850162001879565b60c08301525092915050565b60006020828403121562001a3d578081fd5b813562001a4a81620021b3565b9392505050565b60006020828403121562001a63578081fd5b815162001a4a81620021b3565b6000806040838503121562001a83578081fd5b823562001a9081620021b3565b946020939093013593505050565b60008060006060848603121562001ab3578081fd5b833562001ac081620021b3565b925060208401359150604084013567ffffffffffffffff81111562001ae3578182fd5b62001af18682870162001916565b9150509250925092565b60006020828403121562001b0d578081fd5b62001a4a82620017ad565b60006020828403121562001b2a578081fd5b62001a4a82620017be565b60006020828403121562001b47578081fd5b815167ffffffffffffffff8082111562001b5f578283fd5b90830190610220828603121562001b74578283fd5b62001b7e6200205c565b82518281111562001b8d578485fd5b62001b9b878286016200182f565b82525062001bac60208401620017be565b602082015262001bbf60408401620017ad565b604082015260608301518281111562001bd6578485fd5b62001be4878286016200182f565b6060830152506080830151608082015260a083015160a082015260c08301518281111562001c10578485fd5b62001c1e878286016200182f565b60c08301525060e08301518281111562001c36578485fd5b62001c44878286016200182f565b60e0830152506101008381015190820152610120808401518381111562001c69578586fd5b62001c77888287016200182f565b828401525050610140808401518381111562001c91578586fd5b62001c9f888287016200182f565b828401525050610160808401518381111562001cb9578586fd5b62001cc7888287016200182f565b828401525050610180808401518381111562001ce1578586fd5b62001cef888287016200173e565b8284015250506101a0808401518381111562001d09578586fd5b62001d17888287016200182f565b8284015250506101c0808401518381111562001d31578586fd5b62001d3f888287016200182f565b8284015250506101e0808401518381111562001d59578586fd5b62001d67888287016200182f565b91830191909152506102009283015192810192909252509392505050565b60006020828403121562001d97578081fd5b813567ffffffffffffffff81111562001dae578182fd5b6200025a8482850162001916565b60006020828403121562001dce578081fd5b5035919050565b60006020828403121562001de7578081fd5b5051919050565b6000806040838503121562001e01578182fd5b82359150602083013562001e1581620021b3565b809150509250929050565b6000815180845260208085019450808401835b8381101562001e5a5781516001600160a01b03168752958201959082019060010162001e33565b509495945050505050565b6006811062001e785762001e7862002187565b9052565b6000815180845262001e968160208601602086016200213e565b601f01601f19169290920160200192915050565b80518252600060208201516060602085015262001ecb606085018262001e20565b90506040830151848203604086015262001ee6828262001e20565b95945050505050565b60006001600160a01b0380881683528087166020840152808616604084015260a060608401528085511660a084015250602084015160e060c084015262001f3b61018084018262001e7c565b90506040850151609f19808584030160e086015262001f5b838362001e7c565b925060608701519150808584030161010086015262001f7b838362001e7c565b925060808701519150808584030161012086015262001f9b838362001e7c565b925060a0870151915062001fb461014086018362001e65565b60c0870151915080858403016101608601525062001fd3828262001eaa565b925050508260808301529695505050505050565b60208152600062001a4a602083018462001e20565b60208101600c831062002013576200201362002187565b91905290565b602081016011831062002013576200201362002187565b60405160e0810167ffffffffffffffff811182821017156200205657620020566200219d565b60405290565b604051610220810167ffffffffffffffff811182821017156200205657620020566200219d565b604051601f8201601f1916810167ffffffffffffffff81118282101715620020af57620020af6200219d565b604052919050565b600067ffffffffffffffff821115620020d457620020d46200219d565b5060051b60200190565b600067ffffffffffffffff821115620020fb57620020fb6200219d565b50601f01601f191660200190565b600082198211156200211f576200211f62002171565b500190565b60008282101562002139576200213962002171565b500390565b60005b838110156200215b57818101518382015260200162002141565b838111156200216b576000848401525b50505050565b634e487b7160e01b600052601160045260246000fd5b634e487b7160e01b600052602160045260246000fd5b634e487b7160e01b600052604160045260246000fd5b6001600160a01b0381168114620021c957600080fd5b5056fe60806040526011805461ffff60a01b191690553480156200001f57600080fd5b506040516200367c3803806200367c8339810160408190526200004291620005e8565b846001600160a01b031663f1f0bd016040518163ffffffff1660e01b815260040160206040518083038186803b1580156200007c57600080fd5b505afa15801562000091573d6000803e3d6000fd5b505050506040513d601f19601f82011682018060405250810190620000b79190620005c4565b601080546001600160a01b0392831661010002610100600160a81b0319909116179055600180548683166001600160a01b03199182161790915583516004805491909316911617815560208084015180518593926200011c92600592910190620002d8565b50604082015180516200013a916002840191602090910190620002d8565b506060820151805162000158916003840191602090910190620002d8565b506080820151805162000176916004840191602090910190620002d8565b5060a08201518160050160006101000a81548160ff02191690836005811115620001b057634e487b7160e01b600052602160045260246000fd5b021790555060c08201518051600683019081556020808301518051620001dd926007870192019062000367565b5060408201518051620001fb91600284019160209091019062000367565b50505090505081600001516001600160a01b031663af5372e66040518163ffffffff1660e01b815260040160206040518083038186803b1580156200023f57600080fd5b505afa15801562000254573d6000803e3d6000fd5b505050506040513d601f19601f820116820180604052508101906200027a91906200075b565b6010805460ff19166001836003811115620002a557634e487b7160e01b600052602160045260246000fd5b0217905550600080546001600160a01b0319166001600160a01b03949094169390931790925550600f55506200082d9050565b828054620002e690620007da565b90600052602060002090601f0160209004810192826200030a576000855562000355565b82601f106200032557805160ff191683800117855562000355565b8280016001018555821562000355579182015b828111156200035557825182559160200191906001019062000338565b5062000363929150620003bf565b5090565b82805482825590600052602060002090810192821562000355579160200282015b828111156200035557825182546001600160a01b0319166001600160a01b0390911617825560209092019160019091019062000388565b5b80821115620003635760008155600101620003c0565b80516001600160a01b0381168114620003ee57600080fd5b919050565b600082601f83011262000404578081fd5b815160206001600160401b0382111562000422576200042262000817565b8160051b62000433828201620007a7565b8381528281019086840183880185018910156200044e578687fd5b8693505b858410156200047b576200046681620003d6565b83526001939093019291840191840162000452565b50979650505050505050565b805160068110620003ee57600080fd5b600082601f830112620004a8578081fd5b81516001600160401b03811115620004c457620004c462000817565b6020620004da601f8301601f19168201620007a7565b8281528582848701011115620004ee578384fd5b835b838110156200050d578581018301518282018401528201620004f0565b838111156200051e57848385840101525b5095945050505050565b6000606082840312156200053a578081fd5b604051606081016001600160401b03808211838310171562000560576200056062000817565b816040528293508451835260208501519150808211156200058057600080fd5b6200058e86838701620003f3565b60208401526040850151915080821115620005a857600080fd5b50620005b785828601620003f3565b6040830152505092915050565b600060208284031215620005d6578081fd5b620005e182620003d6565b9392505050565b600080600080600060a0868803121562000600578081fd5b6200060b86620003d6565b94506200061b60208701620003d6565b93506200062b60408701620003d6565b60608701519093506001600160401b038082111562000648578283fd5b9087019060e0828a0312156200065c578283fd5b620006666200077c565b6200067183620003d6565b815260208301518281111562000685578485fd5b620006938b82860162000497565b602083015250604083015182811115620006ab578485fd5b620006b98b82860162000497565b604083015250606083015182811115620006d1578485fd5b620006df8b82860162000497565b606083015250608083015182811115620006f7578485fd5b620007058b82860162000497565b6080830152506200071960a0840162000487565b60a082015260c08301518281111562000730578485fd5b6200073e8b82860162000528565b60c083015250809450505050608086015190509295509295909350565b6000602082840312156200076d578081fd5b815160048110620005e1578182fd5b60405160e081016001600160401b0381118282101715620007a157620007a162000817565b60405290565b604051601f8201601f191681016001600160401b0381118282101715620007d257620007d262000817565b604052919050565b600181811c90821680620007ef57607f821691505b602082108114156200081157634e487b7160e01b600052602260045260246000fd5b50919050565b634e487b7160e01b600052604160045260246000fd5b612e3f806200083d6000396000f3fe608060405234801561001057600080fd5b50600436106101005760003560e01c8063b2375e8d11610097578063c3c61f9111610066578063c3c61f91146101e6578063cef8f6d4146101f7578063f46662bc1461020c578063fa391c641461021f57600080fd5b8063b2375e8d14610199578063b7ff5dae146101ae578063c214d37a146101c1578063c28bd4ef146101d457600080fd5b8063982308f5116100d3578063982308f51461015a578063983651501461016b578063af91ec6014610173578063b1be59291461019157600080fd5b806301efb6c8146101055780636a816548146101235780636c07681f1461012d578063959499b614610152575b600080fd5b61010d610227565b60405161011a9190612b39565b60405180910390f35b61012b6105ca565b005b6001546001600160a01b03165b6040516001600160a01b03909116815260200161011a565b61012b610a4a565b6000546001600160a01b031661013a565b61012b610d19565b601154600160a81b900460ff165b604051901515815260200161011a565b61012b610f29565b6101a16110f1565b60405161011a9190612b4c565b61012b6101bc36600461246e565b611255565b61012b6101cf3660046123fd565b6114f1565b601154600160a01b900460ff16610181565b600f5460405190815260200161011a565b6101ff6117d2565b60405161011a9190612b0c565b61013a61021a3660046126bd565b611834565b610181611cd8565b61022f61200a565b6040805160e08101909152600480546001600160a01b031682526005805460208401919061025c90612d67565b80601f016020809104026020016040519081016040528092919081815260200182805461028890612d67565b80156102d55780601f106102aa576101008083540402835291602001916102d5565b820191906000526020600020905b8154815290600101906020018083116102b857829003601f168201915b505050505081526020016002820180546102ee90612d67565b80601f016020809104026020016040519081016040528092919081815260200182805461031a90612d67565b80156103675780601f1061033c57610100808354040283529160200191610367565b820191906000526020600020905b81548152906001019060200180831161034a57829003601f168201915b5050505050815260200160038201805461038090612d67565b80601f01602080910402602001604051908101604052809291908181526020018280546103ac90612d67565b80156103f95780601f106103ce576101008083540402835291602001916103f9565b820191906000526020600020905b8154815290600101906020018083116103dc57829003601f168201915b5050505050815260200160048201805461041290612d67565b80601f016020809104026020016040519081016040528092919081815260200182805461043e90612d67565b801561048b5780601f106104605761010080835404028352916020019161048b565b820191906000526020600020905b81548152906001019060200180831161046e57829003601f168201915b505050918352505060058281015460209092019160ff16908111156104c057634e487b7160e01b600052602160045260246000fd5b60058111156104df57634e487b7160e01b600052602160045260246000fd5b815260200160068201604051806060016040529081600082015481526020016001820180548060200260200160405190810160405280929190818152602001828054801561055657602002820191906000526020600020905b81546001600160a01b03168152600190910190602001808311610538575b50505050508152602001600282018054806020026020016040519081016040528092919081815260200182805480156105b857602002820191906000526020600020905b81546001600160a01b0316815260019091019060200180831161059a575b50505050508152505081525050905090565b6001546001600160a01b031633146106295760405162461bcd60e51b815260206004820152601b60248201527f417661696c61626c65206f6e6c7920666f7220636f6e73756d6572000000000060448201526064015b60405180910390fd5b610631611cd8565b156106a45760405162461bcd60e51b815260206004820152602160248201527f436f6d706c65746564206f726465722063616e27742062652063616e63656c6560448201527f64000000000000000000000000000000000000000000000000000000000000006064820152608401610620565b60048054604080517f1bffb49100000000000000000000000000000000000000000000000000000000815290516001600160a01b0390921692631bffb491928282019260209290829003018186803b1580156106ff57600080fd5b505afa158015610713573d6000803e3d6000fd5b505050506040513d601f19601f8201168201806040525081019061073791906123c9565b610747576107456002611d65565b565b6107516003611d65565b60025461075f576000600f55565b600060105460ff16600381111561078657634e487b7160e01b600052602160045260246000fd5b1415610994576004805460408051635a9b0b8960e01b815290516001600160a01b03909216926000928492635a9b0b8992818101928692909190829003018186803b1580156107d457600080fd5b505afa1580156107e8573d6000803e3d6000fd5b505050506040513d6000823e601f3d908101601f1916820160405261081091908101906127d4565b6060015163ffffffff1690506000826001600160a01b0316635a9b0b896040518163ffffffff1660e01b815260040160006040518083038186803b15801561085757600080fd5b505afa15801561086b573d6000803e3d6000fd5b505050506040513d6000823e601f3d908101601f1916820160405261089391908101906127d4565b6080015167ffffffffffffffff1690506000600254426108b39190612d24565b905060006108c2603c83612ca2565b9050828110156108cf5750815b600084866001600160a01b0316638a35e9426040518163ffffffff1660e01b815260040160206040518083038186803b15801561090b57600080fd5b505afa15801561091f573d6000803e3d6000fd5b505050506040513d601f19601f820116820180604052508101906109439190612949565b61094d9190612ca2565b90506000603c610960610e106018612cf8565b61096a9190612cb6565b63ffffffff1661097a8385612cd9565b6109849190612ca2565b600f555061074595505050505050565b6004805460408051635a9b0b8960e01b815290516001600160a01b03909216926000928492635a9b0b899281810192869290919082900301818387803b1580156109dd57600080fd5b505af11580156109f1573d6000803e3d6000fd5b505050506040513d6000823e601f3d908101601f19168201604052610a199190810190612497565b6101000151610a2990603c612cd9565b90504281600254610a3a9190612c8a565b1015610a46576000600f555b5050565b610a52611e86565b600480546040805163483d45bd60e01b815290516000936001600160a01b039093169263483d45bd92808201926020929091829003018186803b158015610a9857600080fd5b505afa158015610aac573d6000803e3d6000fd5b505050506040513d601f19601f82011682018060405250810190610ad091906123a6565b6001600160a01b0316636d69a3e86040518163ffffffff1660e01b815260040160206040518083038186803b158015610b0857600080fd5b505afa158015610b1c573d6000803e3d6000fd5b505050506040513d601f19601f82011682018060405250810190610b4091906123a6565b600f54909150610b4e611cd8565b610bab5760405162461bcd60e51b815260206004820152602860248201527f57697468647261776e20617661696c61626c65207768656e206f7264657220636044820152671bdb5c1b195d195960c21b6064820152608401610620565b336001600160a01b03831614610c295760405162461bcd60e51b815260206004820152603160248201527f417661696c61626c65206f6e6c7920666f722070726f766964657220746f6b6560448201527f6e2072656369766572206163636f756e740000000000000000000000000000006064820152608401610620565b601154600160a81b900460ff1615610c835760405162461bcd60e51b815260206004820152601860248201527f50726f66697420616c72656164792077697468647261776e00000000000000006044820152606401610620565b6011546040517f22e8d369000000000000000000000000000000000000000000000000000000008152600481018390526001600160a01b038481166024830152909116906322e8d36990604401600060405180830381600087803b158015610cea57600080fd5b505af1158015610cfe573d6000803e3d6000fd5b50506011805460ff60a81b1916600160a81b17905550505050565b610d21611e86565b601154600160a01b900460ff1615610d7b5760405162461bcd60e51b815260206004820152601860248201527f4368616e676520616c72656164792077697468647261776e00000000000000006044820152606401610620565b6001546001600160a01b03163314610dfb5760405162461bcd60e51b815260206004820152602160248201527f417661696c61626c65206f6e6c7920666f72204f7264657220636f6e73756d6560448201527f72000000000000000000000000000000000000000000000000000000000000006064820152608401610620565b610e03611cd8565b610e605760405162461bcd60e51b815260206004820152602860248201527f57697468647261776e20617661696c61626c65207768656e206f7264657220636044820152671bdb5c1b195d195960c21b6064820152608401610620565b601154600090600160a81b900460ff1615610e7c576000610e80565b600f545b6011546040517f5f4550ba000000000000000000000000000000000000000000000000000000008152600481018390529192506001600160a01b031690635f4550ba90602401600060405180830381600087803b158015610ee057600080fd5b505af1158015610ef4573d6000803e3d6000fd5b5050601180547fffffffffffffffffffffff00ffffffffffffffffffffffffffffffffffffffff16600160a01b179055505050565b600480546040805163483d45bd60e01b815290516000936001600160a01b039093169263483d45bd92808201926020929091829003018186803b158015610f6f57600080fd5b505afa158015610f83573d6000803e3d6000fd5b505050506040513d601f19601f82011682018060405250810190610fa791906123a6565b6001600160a01b0316636760c4b76040518163ffffffff1660e01b815260040160206040518083038186803b158015610fdf57600080fd5b505afa158015610ff3573d6000803e3d6000fd5b505050506040513d601f19601f8201168201806040525081019061101791906123a6565b9050336001600160a01b038216146110835760405162461bcd60e51b815260206004820152602960248201527f417661696c61626c65206f6e6c7920666f722070726f766964657220616374696044820152681bdb9058d8dbdd5b9d60ba1b6064820152608401610620565b61108b611cd8565b156110d85760405162461bcd60e51b815260206004820181905260248201527f436f6d706c65746564206f726465722063616e277420626520757064617465646044820152606401610620565b6110e26001611d65565b6002546110ee57426002555b50565b61111560405180606001604052806060815260200160608152602001600081525090565b600d60405180606001604052908160008201805461113290612d67565b80601f016020809104026020016040519081016040528092919081815260200182805461115e90612d67565b80156111ab5780601f10611180576101008083540402835291602001916111ab565b820191906000526020600020905b81548152906001019060200180831161118e57829003601f168201915b505050505081526020016001820180546111c490612d67565b80601f01602080910402602001604051908101604052809291908181526020018280546111f090612d67565b801561123d5780601f106112125761010080835404028352916020019161123d565b820191906000526020600020905b81548152906001019060200180831161122057829003601f168201915b50505050508152602001600282015481525050905090565b600480546040805163483d45bd60e01b815290516000936001600160a01b039093169263483d45bd92808201926020929091829003018186803b15801561129b57600080fd5b505afa1580156112af573d6000803e3d6000fd5b505050506040513d601f19601f820116820180604052508101906112d391906123a6565b6001600160a01b0316636760c4b76040518163ffffffff1660e01b815260040160206040518083038186803b15801561130b57600080fd5b505afa15801561131f573d6000803e3d6000fd5b505050506040513d601f19601f8201168201806040525081019061134391906123a6565b9050336001600160a01b038216146113af5760405162461bcd60e51b815260206004820152602960248201527f417661696c61626c65206f6e6c7920666f722070726f766964657220616374696044820152681bdb9058d8dbdd5b9d60ba1b6064820152608401610620565b6113b7611cd8565b156114045760405162461bcd60e51b815260206004820181905260248201527f436f6d706c65746564206f726465722063616e277420626520757064617465646044820152606401610620565b61140d83611d65565b60025415801561143c5750600183600581111561143a57634e487b7160e01b600052602160045260246000fd5b145b1561144657426002555b600060105460ff16600381111561146d57634e487b7160e01b600052602160045260246000fd5b146114ea57600f548211156114ea5760405162461bcd60e51b815260206004820152602b60248201527f466f7262696464656e20746f20696e63726561736520707269636520666f722060448201527f76616c75654f66666572730000000000000000000000000000000000000000006064820152608401610620565b50600f5550565b600480546040805163483d45bd60e01b815290516000936001600160a01b039093169263483d45bd92808201926020929091829003018186803b15801561153757600080fd5b505afa15801561154b573d6000803e3d6000fd5b505050506040513d601f19601f8201168201806040525081019061156f91906123a6565b6001600160a01b0316636760c4b76040518163ffffffff1660e01b815260040160206040518083038186803b1580156115a757600080fd5b505afa1580156115bb573d6000803e3d6000fd5b505050506040513d601f19601f820116820180604052508101906115df91906123a6565b9050336001600160a01b0382161461164b5760405162461bcd60e51b815260206004820152602960248201527f417661696c61626c65206f6e6c7920666f722070726f766964657220616374696044820152681bdb9058d8dbdd5b9d60ba1b6064820152608401610620565b611653611cd8565b156116a05760405162461bcd60e51b815260206004820152601160248201527f416c726561647920636f6d706c657465640000000000000000000000000000006044820152606401610620565b60058460058111156116c257634e487b7160e01b600052602160045260246000fd5b14806116ed575060048460058111156116eb57634e487b7160e01b600052602160045260246000fd5b145b61175f5760405162461bcd60e51b815260206004820152602b60248201527f43616e20636f6d706c657465206f6e6c7920776974682073746174757320457260448201527f726f72206f7220446f6e650000000000000000000000000000000000000000006064820152608401610620565b825161177290600d906020860190612090565b50815161178690600e906020850190612090565b5060058460058111156117a957634e487b7160e01b600052602160045260246000fd5b14156117c3576011805460ff60a81b1916600160a81b1790555b6117cc84611d65565b50505050565b6060600380548060200260200160405190810160405280929190818152602001828054801561182a57602002820191906000526020600020905b81546001600160a01b0316815260019091019060200180831161180c575b5050505050905090565b600480546040805163483d45bd60e01b8152905160009384936001600160a01b03169263483d45bd9281830192602092829003018186803b15801561187857600080fd5b505afa15801561188c573d6000803e3d6000fd5b505050506040513d601f19601f820116820180604052508101906118b091906123a6565b6001600160a01b0316636760c4b76040518163ffffffff1660e01b815260040160206040518083038186803b1580156118e857600080fd5b505afa1580156118fc573d6000803e3d6000fd5b505050506040513d601f19601f8201168201806040525081019061192091906123a6565b9050336001600160a01b0382161461198c5760405162461bcd60e51b815260206004820152602960248201527f417661696c61626c65206f6e6c7920666f722070726f766964657220616374696044820152681bdb9058d8dbdd5b9d60ba1b6064820152608401610620565b611994611e86565b60008084600001516001600160a01b031663af5372e66040518163ffffffff1660e01b815260040160206040518083038186803b1580156119d457600080fd5b505afa1580156119e8573d6000803e3d6000fd5b505050506040513d601f19601f82011682018060405250810190611a0c91906123e3565b90506000816003811115611a3057634e487b7160e01b600052602160045260246000fd5b14611b955784516040517ff12018c30000000000000000000000000000000000000000000000000000000081523360048201526001600160a01b0382169063f12018c39060240160206040518083038186803b158015611a8f57600080fd5b505afa158015611aa3573d6000803e3d6000fd5b505050506040513d601f19601f82011682018060405250810190611ac791906123c9565b611b135760405162461bcd60e51b815260206004820152600b60248201527f4e6f7420616c6c6f7765640000000000000000000000000000000000000000006044820152606401610620565b6000816001600160a01b0316635a9b0b896040518163ffffffff1660e01b8152600401600060405180830381600087803b158015611b5057600080fd5b505af1158015611b64573d6000803e3d6000fd5b505050506040513d6000823e601f3d908101601f19168201604052611b8c9190810190612497565b60800151935050505b6011546001546040517f3a61ce350000000000000000000000000000000000000000000000000000000081526000926001600160a01b0390811692633a61ce3592611bea929091169087908b90600401612adb565b602060405180830381600087803b158015611c0457600080fd5b505af1158015611c18573d6000803e3d6000fd5b505050506040513d601f19601f82011682018060405250810190611c3c91906123a6565b600380546001810182556000919091527fc2575a0e9e593c00f959f8c92f12db2869c3395a3b0502d05e2516446f71f85b01805473ffffffffffffffffffffffffffffffffffffffff19166001600160a01b0383169081179091556040519081529091507fd4a8311d4a2937c45f6564edb791f76d0a6d74db0902f4a6fb46cbee04166a639060200160405180910390a1935050505b50919050565b6000600460095460ff166005811115611d0157634e487b7160e01b600052602160045260246000fd5b1480611d315750600560095460ff166005811115611d2f57634e487b7160e01b600052602160045260246000fd5b145b80611d605750600360095460ff166005811115611d5e57634e487b7160e01b600052602160045260246000fd5b145b905090565b6009805482919060ff19166001836005811115611d9257634e487b7160e01b600052602160045260246000fd5b02179055507fdeec0b1e3a1ffaeb49a9045c07756b2e16cd738314db2d7ec9317e56809732bb3082604051611dc8929190612abe565b60405180910390a1611dd8611cd8565b8015611e085750600060105460ff166003811115611e0657634e487b7160e01b600052602160045260246000fd5b145b156110ee5760048054600a546040517feb764ad2000000000000000000000000000000000000000000000000000000008152928301526001600160a01b03169063eb764ad290602401600060405180830381600087803b158015611e6b57600080fd5b505af1158015611e7f573d6000803e3d6000fd5b5050505050565b601060019054906101000a90046001600160a01b03166001600160a01b031663f1f0bd016040518163ffffffff1660e01b815260040160206040518083038186803b158015611ed457600080fd5b505afa158015611ee8573d6000803e3d6000fd5b505050506040513d601f19601f82011682018060405250810190611f0c91906123a6565b601080547fffffffffffffffffffffff0000000000000000000000000000000000000000ff166101006001600160a01b03938416810291909117918290556040517fbcaa0c5500000000000000000000000000000000000000000000000000000000815291049091169063bcaa0c5590611f8b90600090600401612b1f565b60206040518083038186803b158015611fa357600080fd5b505afa158015611fb7573d6000803e3d6000fd5b505050506040513d601f19601f82011682018060405250810190611fdb91906123a6565b6011805473ffffffffffffffffffffffffffffffffffffffff19166001600160a01b0392909216919091179055565b6040518060e0016040528060006001600160a01b03168152602001606081526020016060815260200160608152602001606081526020016000600581111561206257634e487b7160e01b600052602160045260246000fd5b815260200161208b60405180606001604052806000815260200160608152602001606081525090565b905290565b82805461209c90612d67565b90600052602060002090601f0160209004810192826120be5760008555612104565b82601f106120d757805160ff1916838001178555612104565b82800160010185558215612104579182015b828111156121045782518255916020019190600101906120e9565b50612110929150612114565b5090565b5b808211156121105760008155600101612115565b803561213481612df4565b919050565b805161213481612df4565b600082601f830112612154578081fd5b8135602061216961216483612c3e565b612c0d565b80838252828201915082860187848660051b8901011115612188578586fd5b855b858110156121af57813561219d81612df4565b8452928401929084019060010161218a565b5090979650505050505050565b600082601f8301126121cc578081fd5b815160206121dc61216483612c3e565b80838252828201915082860187848660051b89010111156121fb578586fd5b855b858110156121af57815161221081612df4565b845292840192908401906001016121fd565b8051801515811461213457600080fd5b80516004811061213457600080fd5b80356006811061213457600080fd5b600082601f830112612260578081fd5b813561226e61216482612c62565b818152846020838601011115612282578283fd5b816020850160208301379081016020019190915292915050565b600082601f8301126122ac578081fd5b81516122ba61216482612c62565b8181528460208386010111156122ce578283fd5b6122df826020830160208701612d3b565b949350505050565b6000606082840312156122f8578081fd5b6040516060810167ffffffffffffffff828210818311171561231c5761231c612dde565b8160405282935084358352602085013591508082111561233b57600080fd5b61234786838701612144565b6020840152604085013591508082111561236057600080fd5b5061236d85828601612144565b6040830152505092915050565b805163ffffffff8116811461213457600080fd5b805167ffffffffffffffff8116811461213457600080fd5b6000602082840312156123b7578081fd5b81516123c281612df4565b9392505050565b6000602082840312156123da578081fd5b6123c282612222565b6000602082840312156123f4578081fd5b6123c282612232565b600080600060608486031215612411578182fd5b61241a84612241565b9250602084013567ffffffffffffffff80821115612436578384fd5b61244287838801612250565b93506040860135915080821115612457578283fd5b5061246486828701612250565b9150509250925092565b60008060408385031215612480578182fd5b61248983612241565b946020939093013593505050565b6000602082840312156124a8578081fd5b815167ffffffffffffffff808211156124bf578283fd5b9083019061022082860312156124d3578283fd5b6124db612b9c565b8251828111156124e9578485fd5b6124f58782860161229c565b82525061250460208401612232565b602082015261251560408401612222565b604082015260608301518281111561252b578485fd5b6125378782860161229c565b6060830152506080830151608082015260a083015160a082015260c083015182811115612562578485fd5b61256e8782860161229c565b60c08301525060e083015182811115612585578485fd5b6125918782860161229c565b60e083015250610100838101519082015261012080840151838111156125b5578586fd5b6125c18882870161229c565b82840152505061014080840151838111156125da578586fd5b6125e68882870161229c565b82840152505061016080840151838111156125ff578586fd5b61260b8882870161229c565b8284015250506101808084015183811115612624578586fd5b612630888287016121bc565b8284015250506101a08084015183811115612649578586fd5b6126558882870161229c565b8284015250506101c0808401518381111561266e578586fd5b61267a8882870161229c565b8284015250506101e08084015183811115612693578586fd5b61269f8882870161229c565b91830191909152506102009283015192810192909252509392505050565b6000602082840312156126ce578081fd5b813567ffffffffffffffff808211156126e5578283fd5b9083019060e082860312156126f8578283fd5b612700612bc6565b61270983612129565b815260208301358281111561271c578485fd5b61272887828601612250565b60208301525060408301358281111561273f578485fd5b61274b87828601612250565b604083015250606083013582811115612762578485fd5b61276e87828601612250565b606083015250608083013582811115612785578485fd5b61279187828601612250565b6080830152506127a360a08401612241565b60a082015260c0830135828111156127b9578485fd5b6127c5878286016122e7565b60c08301525095945050505050565b6000602082840312156127e5578081fd5b815167ffffffffffffffff808211156127fc578283fd5b908301906101408286031215612810578283fd5b612818612be9565b825182811115612826578485fd5b6128328782860161229c565b825250602083015182811115612846578485fd5b6128528782860161229c565b602083015250604083015182811115612869578485fd5b6128758782860161229c565b6040830152506128876060840161237a565b60608201526128986080840161238e565b608082015260a0830151828111156128ae578485fd5b6128ba8782860161229c565b60a0830152506128cc60c08401612139565b60c082015260e0830151828111156128e2578485fd5b6128ee8782860161229c565b60e0830152506101008084015183811115612907578586fd5b6129138882870161229c565b828401525050610120808401518381111561292c578586fd5b6129388882870161229c565b918301919091525095945050505050565b60006020828403121561295a578081fd5b5051919050565b6000815180845260208085019450808401835b838110156129995781516001600160a01b031687529582019590820190600101612974565b509495945050505050565b600681106129b4576129b4612dc8565b9052565b600081518084526129d0816020860160208601612d3b565b601f01601f19169290920160200192915050565b6001600160a01b0381511682526000602082015160e06020850152612a0c60e08501826129b8565b905060408301518482036040860152612a2582826129b8565b91505060608301518482036060860152612a3f82826129b8565b91505060808301518482036080860152612a5982826129b8565b91505060a0830151612a6e60a08601826129a4565b5060c083015184820360c086015280518252602081015160606020840152612a996060840182612961565b9050604082015191508281036040840152612ab48183612961565b9695505050505050565b6001600160a01b0383168152604081016123c260208301846129a4565b6001600160a01b0384168152826020820152606060408201526000612b0360608301846129e4565b95945050505050565b6020815260006123c26020830184612961565b60208101600c8310612b3357612b33612dc8565b91905290565b6020815260006123c260208301846129e4565b602081526000825160606020840152612b6860808401826129b8565b90506020840151601f19848303016040850152612b8582826129b8565b915050604084015160608401528091505092915050565b604051610220810167ffffffffffffffff81118282101715612bc057612bc0612dde565b60405290565b60405160e0810167ffffffffffffffff81118282101715612bc057612bc0612dde565b604051610140810167ffffffffffffffff81118282101715612bc057612bc0612dde565b604051601f8201601f1916810167ffffffffffffffff81118282101715612c3657612c36612dde565b604052919050565b600067ffffffffffffffff821115612c5857612c58612dde565b5060051b60200190565b600067ffffffffffffffff821115612c7c57612c7c612dde565b50601f01601f191660200190565b60008219821115612c9d57612c9d612d9c565b500190565b600082612cb157612cb1612db2565b500490565b600063ffffffff80841680612ccd57612ccd612db2565b92169190910492915050565b6000816000190483118215151615612cf357612cf3612d9c565b500290565b600063ffffffff80831681851681830481118215151615612d1b57612d1b612d9c565b02949350505050565b600082821015612d3657612d36612d9c565b500390565b60005b83811015612d56578181015183820152602001612d3e565b838111156117cc5750506000910152565b600181811c90821680612d7b57607f821691505b60208210811415611cd257634e487b7160e01b600052602260045260246000fd5b634e487b7160e01b600052601160045260246000fd5b634e487b7160e01b600052601260045260246000fd5b634e487b7160e01b600052602160045260246000fd5b634e487b7160e01b600052604160045260246000fd5b6001600160a01b03811681146110ee57600080fdfea26469706673582212204cc76a3f57e13d37b617a27321722b606e9e8a631c784fc4cf8309aa31fa0daa64736f6c63430008040033a2646970667358221220ee731565fb0bb2aa80b91170726b609b3e565abd3278fa9d24ceae9fbe16dcb364736f6c63430008040033",
    "linkReferences": {},
    "deployedLinkReferences": {}
}