{
  "_format": "hh-sol-artifact-1",
  "contractName": "OrdersFactory",
  "sourceName": "contracts/OrdersFactory.sol",
  "abi": [
    {
      "inputs": [
        {
          "internalType": "address",
          "name": "_SPConfig",
          "type": "address"
        }
      ],
      "stateMutability": "nonpayable",
      "type": "constructor"
    },
    {
      "anonymous": false,
      "inputs": [
        {
          "indexed": false,
          "internalType": "address",
          "name": "newOrderAddress",
          "type": "address"
        }
      ],
      "name": "OrderCreated",
      "type": "event"
    },
    {
      "inputs": [
        {
          "components": [
            {
              "internalType": "address",
              "name": "offer",
              "type": "address"
            },
            {
              "internalType": "string",
              "name": "resultPublicKey",
              "type": "string"
            },
            {
              "internalType": "string",
              "name": "resultPublicKeyAlgo",
              "type": "string"
            },
            {
              "internalType": "string",
              "name": "encryptedRequirements",
              "type": "string"
            },
            {
              "internalType": "string",
              "name": "encryptedArgs",
              "type": "string"
            },
            {
              "internalType": "enum OrderStatus",
              "name": "status",
              "type": "uint8"
            }
          ],
          "internalType": "struct OrderInfo",
          "name": "info",
          "type": "tuple"
        }
      ],
      "name": "create",
      "outputs": [
        {
          "internalType": "address",
          "name": "",
          "type": "address"
        }
      ],
      "stateMutability": "nonpayable",
      "type": "function"
    },
    {
      "inputs": [
        {
          "internalType": "address",
          "name": "orderId",
          "type": "address"
        },
        {
          "components": [
            {
              "internalType": "address",
              "name": "offer",
              "type": "address"
            },
            {
              "internalType": "string",
              "name": "resultPublicKey",
              "type": "string"
            },
            {
              "internalType": "string",
              "name": "resultPublicKeyAlgo",
              "type": "string"
            },
            {
              "internalType": "string",
              "name": "encryptedRequirements",
              "type": "string"
            },
            {
              "internalType": "string",
              "name": "encryptedArgs",
              "type": "string"
            },
            {
              "internalType": "enum OrderStatus",
              "name": "status",
              "type": "uint8"
            }
          ],
          "internalType": "struct OrderInfo",
          "name": "_info",
          "type": "tuple"
        }
      ],
      "name": "createSubOrder",
      "outputs": [
        {
          "internalType": "address",
          "name": "",
          "type": "address"
        }
      ],
      "stateMutability": "nonpayable",
      "type": "function"
    },
    {
      "inputs": [
        {
          "internalType": "address",
          "name": "_order",
          "type": "address"
        }
      ],
      "name": "getOrderHoldDeposit",
      "outputs": [
        {
          "internalType": "uint256",
          "name": "",
          "type": "uint256"
        }
      ],
      "stateMutability": "view",
      "type": "function"
    },
    {
      "inputs": [],
      "name": "listAll",
      "outputs": [
        {
          "internalType": "address[]",
          "name": "",
          "type": "address[]"
        }
      ],
      "stateMutability": "view",
      "type": "function"
    },
    {
      "inputs": [
        {
          "internalType": "address",
          "name": "orderId",
          "type": "address"
        },
        {
          "internalType": "uint256",
          "name": "amount",
          "type": "uint256"
        }
      ],
      "name": "refillOrder",
      "outputs": [],
      "stateMutability": "nonpayable",
      "type": "function"
    },
    {
      "inputs": [
        {
          "internalType": "address",
          "name": "orderId",
          "type": "address"
        }
      ],
      "name": "withdrawChange",
      "outputs": [],
      "stateMutability": "nonpayable",
      "type": "function"
    },
    {
      "inputs": [
        {
          "internalType": "address",
          "name": "orderId",
          "type": "address"
        }
      ],
      "name": "withdrawProfit",
      "outputs": [],
      "stateMutability": "nonpayable",
      "type": "function"
    }
  ],
  "bytecode": "0x60806040523480156200001157600080fd5b5060405162005eab38038062005eab83398101604081905262000034916200005a565b600480546001600160a01b0319166001600160a01b03929092169190911790556200008a565b6000602082840312156200006c578081fd5b81516001600160a01b038116811462000083578182fd5b9392505050565b615e11806200009a6000396000f3fe60806040523480156200001157600080fd5b5060043610620000875760003560e01c8063a5c4b2821162000062578063a5c4b28214620000fd578063cb7828ed1462000114578063d80ef2df1462000144578063dbd53616146200015b57600080fd5b806324e26241146200008c5780632812826714620000a557806378a9eeed14620000e4575b600080fd5b620000a36200009d36600462002697565b62000172565b005b620000d1620000b636600462002697565b6001600160a01b031660009081526001602052604090205490565b6040519081526020015b60405180910390f35b620000ee62000906565b604051620000db919062002d36565b620000a36200010e36600462002697565b6200096a565b6200012b6200012536600462002a1e565b62000e6b565b6040516001600160a01b039091168152602001620000db565b620000a36200015536600462002730565b62001332565b6200012b6200016c366004620026dc565b620014f0565b6200017c62001d38565b60008190506000816001600160a01b03166301efb6c86040518163ffffffff1660e01b815260040160006040518083038186803b158015620001bd57600080fd5b505afa158015620001d2573d6000803e3d6000fd5b505050506040513d6000823e601f3d908101601f19168201604052620001fc919081019062002a55565b600001516001600160a01b031663483d45bd6040518163ffffffff1660e01b815260040160206040518083038186803b1580156200023957600080fd5b505afa1580156200024e573d6000803e3d6000fd5b505050506040513d601f19601f82011682018060405250810190620002749190620026bd565b6001600160a01b0316636d69a3e86040518163ffffffff1660e01b815260040160206040518083038186803b158015620002ad57600080fd5b505afa158015620002c2573d6000803e3d6000fd5b505050506040513d601f19601f82011682018060405250810190620002e89190620026bd565b90506000826001600160a01b031663b2375e8d6040518163ffffffff1660e01b815260040160006040518083038186803b1580156200032657600080fd5b505afa1580156200033b573d6000803e3d6000fd5b505050506040513d6000823e601f3d908101601f1916820160405262000365919081019062002b5e565b604001519050826001600160a01b031663fa391c646040518163ffffffff1660e01b815260040160206040518083038186803b158015620003a557600080fd5b505afa158015620003ba573d6000803e3d6000fd5b505050506040513d601f19601f82011682018060405250810190620003e091906200275e565b620004435760405162461bcd60e51b815260206004820152602860248201527f57697468647261776e20617661696c61626c65207768656e206f7264657220636044820152671bdb5c1b195d195960c21b60648201526084015b60405180910390fd5b336001600160a01b03831614620004c35760405162461bcd60e51b815260206004820152603160248201527f417661696c61626c65206f6e6c7920666f722070726f766964657220746f6b6560448201527f6e2072656369766572206163636f756e7400000000000000000000000000000060648201526084016200043a565b826001600160a01b031663af91ec606040518163ffffffff1660e01b815260040160206040518083038186803b158015620004fd57600080fd5b505afa15801562000512573d6000803e3d6000fd5b505050506040513d601f19601f820116820180604052508101906200053891906200275e565b15620005875760405162461bcd60e51b815260206004820152601860248201527f50726f66697420616c72656164792077697468647261776e000000000000000060448201526064016200043a565b6001600160a01b0384166000908152600160205260409020548111156200063d5760405162461bcd60e51b815260206004820152604660248201527f4f72646572277320686f6c64206465706f73697420736d616c6c65722074686160448201527f6e2070726f6669742c2061736b20636f6e73756d657220746f20726566696c6c60648201527f206f726465720000000000000000000000000000000000000000000000000000608482015260a4016200043a565b6005546006546040517f095ea7b30000000000000000000000000000000000000000000000000000000081526001600160a01b0391821660048201526024810184905291169063095ea7b390604401602060405180830381600087803b158015620006a757600080fd5b505af1158015620006bc573d6000803e3d6000fd5b505050506040513d601f19601f82011682018060405250810190620006e291906200275e565b506006546040517f2ee409080000000000000000000000000000000000000000000000000000000081526001600160a01b0384811660048301526024820184905290911690632ee4090890604401600060405180830381600087803b1580156200074b57600080fd5b505af115801562000760573d6000803e3d6000fd5b5050600654600480546040516303a2216d60e01b81526001600160a01b03938416955063e2ab691d9450879387939216916303a2216d91620007a6916001910162002db9565b60206040518083038186803b158015620007bf57600080fd5b505afa158015620007d4573d6000803e3d6000fd5b505050506040513d601f19601f82011682018060405250810190620007fa919062002c19565b6040517fffffffff0000000000000000000000000000000000000000000000000000000060e086901b1681526001600160a01b03909316600484015260248301919091526044820152606401600060405180830381600087803b1580156200086157600080fd5b505af115801562000876573d6000803e3d6000fd5b505050506001600160a01b03841660009081526001602052604081208054839290620008a490849062002e9d565b92505081905550826001600160a01b031663d592925f6040518163ffffffff1660e01b8152600401600060405180830381600087803b158015620008e757600080fd5b505af1158015620008fc573d6000803e3d6000fd5b5050505050505050565b606060028054806020026020016040519081016040528092919081815260200182805480156200096057602002820191906000526020600020905b81546001600160a01b0316815260019091019060200180831162000941575b5050505050905090565b6000819050806001600160a01b031663c28bd4ef6040518163ffffffff1660e01b815260040160206040518083038186803b158015620009a957600080fd5b505afa158015620009be573d6000803e3d6000fd5b505050506040513d601f19601f82011682018060405250810190620009e491906200275e565b1562000a335760405162461bcd60e51b815260206004820152601860248201527f4368616e676520616c72656164792077697468647261776e000000000000000060448201526064016200043a565b6001600160a01b0382811660009081526020819052604090205416331462000ac45760405162461bcd60e51b815260206004820152602160248201527f417661696c61626c65206f6e6c7920666f72204f7264657220636f6e73756d6560448201527f720000000000000000000000000000000000000000000000000000000000000060648201526084016200043a565b806001600160a01b031663fa391c646040518163ffffffff1660e01b815260040160206040518083038186803b15801562000afe57600080fd5b505afa15801562000b13573d6000803e3d6000fd5b505050506040513d601f19601f8201168201806040525081019062000b3991906200275e565b62000b985760405162461bcd60e51b815260206004820152602860248201527f57697468647261776e20617661696c61626c65207768656e206f7264657220636044820152671bdb5c1b195d195960c21b60648201526084016200043a565b6000816001600160a01b031663b2375e8d6040518163ffffffff1660e01b815260040160006040518083038186803b15801562000bd457600080fd5b505afa15801562000be9573d6000803e3d6000fd5b505050506040513d6000823e601f3d908101601f1916820160405262000c13919081019062002b5e565b6040015190506000826001600160a01b031663af91ec606040518163ffffffff1660e01b815260040160206040518083038186803b15801562000c5557600080fd5b505afa15801562000c6a573d6000803e3d6000fd5b505050506040513d601f19601f8201168201806040525081019062000c9091906200275e565b62000d2d576001600160a01b03841660009081526001602052604090205482111562000cff5760405162461bcd60e51b815260206004820152601760248201527f4e6f206368616e676520666f722077697468647261776e00000000000000000060448201526064016200043a565b6001600160a01b03841660009081526001602052604090205462000d2590839062002e9d565b905062000d48565b506001600160a01b0383166000908152600160205260409020545b6005546001600160a01b03858116600090815260208190526040908190205490517fa9059cbb00000000000000000000000000000000000000000000000000000000815290821660048201526024810184905291169063a9059cbb90604401602060405180830381600087803b15801562000dc257600080fd5b505af115801562000dd7573d6000803e3d6000fd5b505050506040513d601f19601f8201168201806040525081019062000dfd91906200275e565b506001600160a01b0384166000908152600160205260408120805483929062000e2890849062002e9d565b92505081905550826001600160a01b031663b050798c6040518163ffffffff1660e01b8152600401600060405180830381600087803b158015620008e757600080fd5b600062000e7762001d38565b6000338184600001516001600160a01b031663af5372e66040518163ffffffff1660e01b815260040160206040518083038186803b15801562000eb957600080fd5b505afa15801562000ece573d6000803e3d6000fd5b505050506040513d601f19601f8201168201806040525081019062000ef491906200277b565b600381111562000f1457634e487b7160e01b600052602160045260246000fd5b146200105957835160405163f12018c360e01b81523360048201526001600160a01b0382169063f12018c39060240160206040518083038186803b15801562000f5c57600080fd5b505afa15801562000f71573d6000803e3d6000fd5b505050506040513d601f19601f8201168201806040525081019062000f9791906200275e565b62000fd35760405162461bcd60e51b815260206004820152600b60248201526a139bdd08185b1b1bddd95960aa1b60448201526064016200043a565b6000816001600160a01b0316635a9b0b896040518163ffffffff1660e01b8152600401600060405180830381600087803b1580156200101157600080fd5b505af115801562001026573d6000803e3d6000fd5b505050506040513d6000823e601f3d908101601f1916820160405262001050919081019062002798565b60800151935050505b600480546040516303a2216d60e01b81526001600160a01b03909116916303a2216d916200108b916000910162002db9565b60206040518083038186803b158015620010a457600080fd5b505afa158015620010b9573d6000803e3d6000fd5b505050506040513d601f19601f82011682018060405250810190620010df919062002c19565b8210156200117057600480546040516303a2216d60e01b81526001600160a01b03909116916303a2216d9162001119916000910162002db9565b60206040518083038186803b1580156200113257600080fd5b505afa15801562001147573d6000803e3d6000fd5b505050506040513d601f19601f820116820180604052508101906200116d919062002c19565b91505b600554604051636eb1769f60e11b81526001600160a01b0383811660048301523060248301529091169063dd62ed3e9060440160206040518083038186803b158015620011bc57600080fd5b505afa158015620011d1573d6000803e3d6000fd5b505050506040513d601f19601f82011682018060405250810190620011f7919062002c19565b8211156200126d5760405162461bcd60e51b8152602060048201526024808201527f416c6c6f77656420746f6b656e73206c657373207468616e20686f6c6444657060448201527f6f7369740000000000000000000000000000000000000000000000000000000060648201526084016200043a565b6005546040516323b872dd60e01b81526001600160a01b03838116600483015230602483015260448201859052909116906323b872dd90606401602060405180830381600087803b158015620012c257600080fd5b505af1158015620012d7573d6000803e3d6000fd5b505050506040513d601f19601f82011682018060405250810190620012fd91906200275e565b5060006200130d82868562001fb8565b6001600160a01b03811660009081526001602052604090209390935550909392505050565b600554604051636eb1769f60e11b81523360048201523060248201526001600160a01b039091169063dd62ed3e9060440160206040518083038186803b1580156200137c57600080fd5b505afa15801562001391573d6000803e3d6000fd5b505050506040513d601f19601f82011682018060405250810190620013b7919062002c19565b8111156200142e5760405162461bcd60e51b815260206004820152602660248201527f416c6c6f77656420746f6b656e73206c657373207468616e20726566696c6c2060448201527f616d6f756e74000000000000000000000000000000000000000000000000000060648201526084016200043a565b6005546040516323b872dd60e01b8152336004820152306024820152604481018390526001600160a01b03909116906323b872dd90606401602060405180830381600087803b1580156200148157600080fd5b505af115801562001496573d6000803e3d6000fd5b505050506040513d601f19601f82011682018060405250810190620014bc91906200275e565b506001600160a01b03821660009081526001602052604081208054839290620014e790849062002e82565b90915550505050565b6000620014fc62001d38565b600080846001600160a01b03166301efb6c86040518163ffffffff1660e01b815260040160006040518083038186803b1580156200153957600080fd5b505afa1580156200154e573d6000803e3d6000fd5b505050506040513d6000823e601f3d908101601f1916820160405262001578919081019062002a55565b6000015190506000816001600160a01b031663af5372e66040518163ffffffff1660e01b815260040160206040518083038186803b158015620015ba57600080fd5b505afa158015620015cf573d6000803e3d6000fd5b505050506040513d601f19601f82011682018060405250810190620015f591906200277b565b9050600085600001516001600160a01b031663af5372e66040518163ffffffff1660e01b815260040160206040518083038186803b1580156200163757600080fd5b505afa1580156200164c573d6000803e3d6000fd5b505050506040513d601f19601f820116820180604052508101906200167291906200277b565b905060008260038111156200169757634e487b7160e01b600052602160045260246000fd5b14156200170d5760405162461bcd60e51b815260206004820152602760248201527f4f6e6c792076616c7565206f66666572732063616e206861766520726571756960448201527f72656d656e74730000000000000000000000000000000000000000000000000060648201526084016200043a565b6040517f23c312210000000000000000000000000000000000000000000000000000000081526000906001600160a01b038516906323c31221906200175790859060040162002da2565b604080518083038186803b1580156200176f57600080fd5b505afa15801562001784573d6000803e3d6000fd5b505050506040513d601f19601f82011682018060405250810190620017aa919062002a00565b90508060200151620018255760405162461bcd60e51b815260206004820152602360248201527f4e6f20726571756972656d656e7420776974682074686973206f66666572207460448201527f797065000000000000000000000000000000000000000000000000000000000060648201526084016200043a565b80516001600160a01b031615806200184b5750865181516001600160a01b039081169116145b620018bf5760405162461bcd60e51b815260206004820152602a60248201527f4f66666572206775696420646f6573276e74206d61746368206f66666572207260448201527f6571756972656d656e740000000000000000000000000000000000000000000060648201526084016200043a565b6000826003811115620018e257634e487b7160e01b600052602160045260246000fd5b1462001a2757865160405163f12018c360e01b81523360048201526001600160a01b0382169063f12018c39060240160206040518083038186803b1580156200192a57600080fd5b505afa1580156200193f573d6000803e3d6000fd5b505050506040513d601f19601f820116820180604052508101906200196591906200275e565b620019a15760405162461bcd60e51b815260206004820152600b60248201526a139bdd08185b1b1bddd95960aa1b60448201526064016200043a565b6000816001600160a01b0316635a9b0b896040518163ffffffff1660e01b8152600401600060405180830381600087803b158015620019df57600080fd5b505af1158015620019f4573d6000803e3d6000fd5b505050506040513d6000823e601f3d908101601f1916820160405262001a1e919081019062002798565b60800151965050505b836001600160a01b031663483d45bd6040518163ffffffff1660e01b815260040160206040518083038186803b15801562001a6157600080fd5b505afa15801562001a76573d6000803e3d6000fd5b505050506040513d601f19601f8201168201806040525081019062001a9c9190620026bd565b6001600160a01b0316636760c4b76040518163ffffffff1660e01b815260040160206040518083038186803b15801562001ad557600080fd5b505afa15801562001aea573d6000803e3d6000fd5b505050506040513d601f19601f8201168201806040525081019062001b109190620026bd565b6001600160a01b0316336001600160a01b03161462001b985760405162461bcd60e51b815260206004820152602e60248201527f4f6e6c7920416374696f6e206163636f756e74206f66204f726465722c20636160448201527f6e20616464207375624f7264657200000000000000000000000000000000000060648201526084016200043a565b6001600160a01b03881660009081526001602052604090205485111562001c285760405162461bcd60e51b815260206004820152603a60248201527f546865207375626f726465722773206465706f736974206d757374206e6f742060448201527f65786365656420746865206f726465722773206465706f73697400000000000060648201526084016200043a565b6001600160a01b03808916600090815260208190526040812054909162001c529116898862001fb8565b6001600160a01b038a1660009081526001602052604081208054929350889290919062001c8190849062002e9d565b90915550506001600160a01b0381166000908152600160205260408120805488929062001cb090849062002e82565b90915550506040517fe3d4ae240000000000000000000000000000000000000000000000000000000081526001600160a01b0382811660048301528a169063e3d4ae2490602401600060405180830381600087803b15801562001d1257600080fd5b505af115801562001d27573d6000803e3d6000fd5b50929b9a5050505050505050505050565b60048054604080517ff1f0bd0100000000000000000000000000000000000000000000000000000000815290516001600160a01b039092169263f1f0bd01928282019260209290829003018186803b15801562001d9457600080fd5b505afa15801562001da9573d6000803e3d6000fd5b505050506040513d601f19601f8201168201806040525081019062001dcf9190620026bd565b600480546001600160a01b0319166001600160a01b0392909216918217815560405163bcaa0c5560e01b815263bcaa0c559162001e10916005910162002d85565b60206040518083038186803b15801562001e2957600080fd5b505afa15801562001e3e573d6000803e3d6000fd5b505050506040513d601f19601f8201168201806040525081019062001e649190620026bd565b600580546001600160a01b0319166001600160a01b039283161790556004805460405163bcaa0c5560e01b815292169163bcaa0c559162001ea9916002910162002d85565b60206040518083038186803b15801562001ec257600080fd5b505afa15801562001ed7573d6000803e3d6000fd5b505050506040513d601f19601f8201168201806040525081019062001efd9190620026bd565b600680546001600160a01b0319166001600160a01b039283161790556004805460405163bcaa0c5560e01b815292169163bcaa0c559162001f42916001910162002d85565b60206040518083038186803b15801562001f5b57600080fd5b505afa15801562001f70573d6000803e3d6000fd5b505050506040513d601f19601f8201168201806040525081019062001f969190620026bd565b600380546001600160a01b0319166001600160a01b0392909216919091179055565b600080836000015190506000816001600160a01b031663483d45bd6040518163ffffffff1660e01b815260040160206040518083038186803b15801562001ffe57600080fd5b505afa15801562002013573d6000803e3d6000fd5b505050506040513d601f19601f82011682018060405250810190620020399190620026bd565b6001600160a01b031663085710116040518163ffffffff1660e01b815260040160206040518083038186803b1580156200207257600080fd5b505afa15801562002087573d6000803e3d6000fd5b505050506040513d601f19601f82011682018060405250810190620020ad9190620026bd565b9050816001600160a01b0316636aa633b66040518163ffffffff1660e01b815260040160206040518083038186803b158015620020e957600080fd5b505afa158015620020fe573d6000803e3d6000fd5b505050506040513d601f19601f820116820180604052508101906200212491906200275e565b8015620021c657506003546040517f54e80afd0000000000000000000000000000000000000000000000000000000081526001600160a01b038381166004830152909116906354e80afd9060240160206040518083038186803b1580156200218b57600080fd5b505afa158015620021a0573d6000803e3d6000fd5b505050506040513d601f19601f82011682018060405250810190620021c691906200275e565b620022145760405162461bcd60e51b815260206004820152601460248201527f4f66666572206d7573742062652061637469766500000000000000000000000060448201526064016200043a565b6004546040516000916001600160a01b031690889088908890620022389062002309565b62002247949392919062002c60565b604051809103906000f08015801562002264573d6000803e3d6000fd5b506001600160a01b038181166000818152602081815260408083208054958e166001600160a01b03199687161790556002805460018101825593527f405787fa12a823e0f2b7631cc41b3ba8828b3321ca811111fa75cd3aa3bb5ace90920180549094168317909355519081529192507fed94e6f8f334678b3265725f268ecd9032016d6050efeb9e673a561ffbfb0a76910160405180910390a19695505050505050565b612e888062002f5483390190565b8035620023248162002f2c565b919050565b8051620023248162002f2c565b600082601f83011262002347578081fd5b8151602067ffffffffffffffff82111562002366576200236662002f16565b8160051b6200237782820162002e23565b83815282810190868401838801850189101562002392578687fd5b8693505b85841015620023c1578051620023ac8162002f2c565b83526001939093019291840191840162002396565b50979650505050505050565b805180151581146200232457600080fd5b8051600481106200232457600080fd5b8035620023248162002f45565b8051620023248162002f45565b600082601f83011262002419578081fd5b8135620024306200242a8262002e57565b62002e23565b81815284602083860101111562002445578283fd5b816020850160208301379081016020019190915292915050565b600082601f83011262002470578081fd5b8151620024816200242a8262002e57565b81815284602083860101111562002496578283fd5b620024a982602083016020870162002eb7565b949350505050565b600060408284031215620024c3578081fd5b6040516040810181811067ffffffffffffffff82111715620024e957620024e962002f16565b80604052508091508251620024fe8162002f2c565b81526200250e60208401620023cd565b60208201525092915050565b600060c082840312156200252c578081fd5b6200253662002dd0565b9050620025438262002317565b8152602082013567ffffffffffffffff808211156200256157600080fd5b6200256f8583860162002408565b602084015260408401359150808211156200258957600080fd5b620025978583860162002408565b60408401526060840135915080821115620025b157600080fd5b620025bf8583860162002408565b60608401526080840135915080821115620025d957600080fd5b50620025e88482850162002408565b608083015250620025fc60a08301620023ee565b60a082015292915050565b600061010082840312156200261a578081fd5b6040516080810181811067ffffffffffffffff8211171562002640576200264062002f16565b604052905080620026528484620024b1565b8152620026638460408501620024b1565b6020820152620026778460808501620024b1565b60408201526200268b8460c08501620024b1565b60608201525092915050565b600060208284031215620026a9578081fd5b8135620026b68162002f2c565b9392505050565b600060208284031215620026cf578081fd5b8151620026b68162002f2c565b60008060408385031215620026ef578081fd5b8235620026fc8162002f2c565b9150602083013567ffffffffffffffff81111562002718578182fd5b62002726858286016200251a565b9150509250929050565b6000806040838503121562002743578182fd5b8235620027508162002f2c565b946020939093013593505050565b60006020828403121562002770578081fd5b620026b682620023cd565b6000602082840312156200278d578081fd5b620026b682620023de565b600060208284031215620027aa578081fd5b815167ffffffffffffffff80821115620027c2578283fd5b908301906103208286031215620027d7578283fd5b620027e162002dfc565b825182811115620027f0578485fd5b620027fe878286016200245f565b8252506200280f60208401620023de565b60208201526200282260408401620023cd565b604082015260608301518281111562002839578485fd5b62002847878286016200245f565b6060830152506080830151608082015260a083015160a082015260c08301518281111562002873578485fd5b62002881878286016200245f565b60c083015250620028968660e0850162002607565b60e08201526101e08084015183811115620028af578586fd5b620028bd888287016200245f565b61010084015250610200808501516101208401526102208086015185811115620028e5578788fd5b620028f38a8289016200245f565b61014086015250610240860151858111156200290d578788fd5b6200291b8a8289016200245f565b610160860152506102608601518581111562002935578788fd5b620029438a8289016200245f565b61018086015250610280860151858111156200295d578788fd5b6200296b8a82890162002336565b6101a0860152506102a08601518581111562002985578788fd5b620029938a8289016200245f565b6101c0860152506102c086015185811115620029ad578788fd5b620029bb8a8289016200245f565b84860152506102e0860151925084831115620029d5578687fd5b620029e3898488016200245f565b828501526103008601518185015250505080935050505092915050565b60006040828403121562002a12578081fd5b620026b68383620024b1565b60006020828403121562002a30578081fd5b813567ffffffffffffffff81111562002a47578182fd5b620024a9848285016200251a565b60006020828403121562002a67578081fd5b815167ffffffffffffffff8082111562002a7f578283fd5b9083019060c0828603121562002a93578283fd5b62002a9d62002dd0565b62002aa88362002329565b815260208301518281111562002abc578485fd5b62002aca878286016200245f565b60208301525060408301518281111562002ae2578485fd5b62002af0878286016200245f565b60408301525060608301518281111562002b08578485fd5b62002b16878286016200245f565b60608301525060808301518281111562002b2e578485fd5b62002b3c878286016200245f565b60808301525062002b5060a08401620023fb565b60a082015295945050505050565b60006020828403121562002b70578081fd5b815167ffffffffffffffff8082111562002b88578283fd5b908301906060828603121562002b9c578283fd5b60405160608101818110838211171562002bba5762002bba62002f16565b60405282518281111562002bcc578485fd5b62002bda878286016200245f565b82525060208301518281111562002bef578485fd5b62002bfd878286016200245f565b6020830152506040830151604082015280935050505092915050565b60006020828403121562002c2b578081fd5b5051919050565b6000815180845262002c4c81602086016020860162002eb7565b601f01601f19169290920160200192915050565b60006001600160a01b03808716835280861660208401526080604084015280855116608084015250602084015160c060a084015262002ca461014084018262002c32565b90506040850151607f19808584030160c086015262002cc4838362002c32565b925060608701519150808584030160e086015262002ce3838362002c32565b92506080870151915080858403016101008601525062002d04828262002c32565b91505060a08501516006811062002d1f5762002d1f62002f00565b610120840152606090920192909252949350505050565b6020808252825182820181905260009190848201906040850190845b8181101562002d795783516001600160a01b03168352928401929184019160010162002d52565b50909695505050505050565b60208101600c831062002d9c5762002d9c62002f00565b91905290565b602081016004831062002d9c5762002d9c62002f00565b602081016011831062002d9c5762002d9c62002f00565b60405160c0810167ffffffffffffffff8111828210171562002df65762002df662002f16565b60405290565b604051610240810167ffffffffffffffff8111828210171562002df65762002df662002f16565b604051601f8201601f1916810167ffffffffffffffff8111828210171562002e4f5762002e4f62002f16565b604052919050565b600067ffffffffffffffff82111562002e745762002e7462002f16565b50601f01601f191660200190565b6000821982111562002e985762002e9862002eea565b500190565b60008282101562002eb25762002eb262002eea565b500390565b60005b8381101562002ed457818101518382015260200162002eba565b8381111562002ee4576000848401525b50505050565b634e487b7160e01b600052601160045260246000fd5b634e487b7160e01b600052602160045260246000fd5b634e487b7160e01b600052604160045260246000fd5b6001600160a01b038116811462002f4257600080fd5b50565b6006811062002f4257600080fdfe60806040526012805461ffff60a01b191690553480156200001f57600080fd5b5060405162002e8838038062002e888339810160408190526200004291620003e8565b836001600160a01b031663f1f0bd016040518163ffffffff1660e01b815260040160206040518083038186803b1580156200007c57600080fd5b505afa15801562000091573d6000803e3d6000fd5b505050506040513d601f19601f82011682018060405250810190620000b79190620003c4565b600e80546001600160a01b039283166001600160a01b0319918216179091556000805486841690831617905583516003805491909316911617815560208084015180518593926200010e9260049291019062000260565b50604082015180516200012c91600284019160209091019062000260565b50606082015180516200014a91600384019160209091019062000260565b50608082015180516200016891600484019160209091019062000260565b5060a08201518160050160006101000a81548160ff02191690836005811115620001a257634e487b7160e01b600052602160045260246000fd5b021790555090505081600001516001600160a01b031663af5372e66040518163ffffffff1660e01b815260040160206040518083038186803b158015620001e857600080fd5b505afa158015620001fd573d6000803e3d6000fd5b505050506040513d601f19601f820116820180604052508101906200022391906200051e565b600c805460ff191660018360038111156200024e57634e487b7160e01b600052602160045260246000fd5b0217905550600b5550620005f0915050565b8280546200026e906200059d565b90600052602060002090601f016020900481019282620002925760008555620002dd565b82601f10620002ad57805160ff1916838001178555620002dd565b82800160010185558215620002dd579182015b82811115620002dd578251825591602001919060010190620002c0565b50620002eb929150620002ef565b5090565b5b80821115620002eb5760008155600101620002f0565b80516001600160a01b03811681146200031e57600080fd5b919050565b8051600681106200031e57600080fd5b600082601f83011262000344578081fd5b81516001600160401b03811115620003605762000360620005da565b602062000376601f8301601f191682016200056a565b82815285828487010111156200038a578384fd5b835b83811015620003a95785810183015182820184015282016200038c565b83811115620003ba57848385840101525b5095945050505050565b600060208284031215620003d6578081fd5b620003e18262000306565b9392505050565b60008060008060808587031215620003fe578283fd5b620004098562000306565b9350620004196020860162000306565b60408601519093506001600160401b038082111562000436578384fd5b9086019060c082890312156200044a578384fd5b620004546200053f565b6200045f8362000306565b815260208301518281111562000473578586fd5b620004818a82860162000333565b60208301525060408301518281111562000499578586fd5b620004a78a82860162000333565b604083015250606083015182811115620004bf578586fd5b620004cd8a82860162000333565b606083015250608083015182811115620004e5578586fd5b620004f38a82860162000333565b6080830152506200050760a0840162000323565b60a082015260609790970151959894975050505050565b60006020828403121562000530578081fd5b815160048110620003e1578182fd5b60405160c081016001600160401b0381118282101715620005645762000564620005da565b60405290565b604051601f8201601f191681016001600160401b0381118282101715620005955762000595620005da565b604052919050565b600181811c90821680620005b257607f821691505b60208210811415620005d457634e487b7160e01b600052602260045260246000fd5b50919050565b634e487b7160e01b600052604160045260246000fd5b61288880620006006000396000f3fe608060405234801561001057600080fd5b50600436106100f55760003560e01c8063b7ff5dae11610097578063cef8f6d411610066578063cef8f6d4146101c9578063d592925f146101de578063e3d4ae24146101e6578063fa391c64146101f957600080fd5b8063b7ff5dae14610180578063c214d37a14610193578063c28bd4ef146101a6578063c3c61f91146101b857600080fd5b8063af91ec60116100d3578063af91ec601461013d578063b050798c1461015b578063b1be592914610163578063b2375e8d1461016b57600080fd5b806301efb6c8146100fa5780636a816548146101185780636c07681f14610122575b600080fd5b610102610201565b60405161010f91906124fb565b60405180910390f35b6101206104c1565b005b6000546040516001600160a01b03909116815260200161010f565b601254600160a81b900460ff165b604051901515815260200161010f565b6101206109c5565b610120610a61565b610173610c6b565b60405161010f91906125a0565b61012061018e366004611fad565b610dcf565b6101206101a1366004611f3a565b6110d5565b601254600160a01b900460ff1661014b565b600b5460405190815260200161010f565b6101d161141d565b60405161010f9190612494565b61012061147f565b6101206101f4366004611ec7565b611500565b61014b6117dc565b610209611b5e565b6040805160c08101909152600380546001600160a01b03168252600480546020840191906102369061279a565b80601f01602080910402602001604051908101604052809291908181526020018280546102629061279a565b80156102af5780601f10610284576101008083540402835291602001916102af565b820191906000526020600020905b81548152906001019060200180831161029257829003601f168201915b505050505081526020016002820180546102c89061279a565b80601f01602080910402602001604051908101604052809291908181526020018280546102f49061279a565b80156103415780601f1061031657610100808354040283529160200191610341565b820191906000526020600020905b81548152906001019060200180831161032457829003601f168201915b5050505050815260200160038201805461035a9061279a565b80601f01602080910402602001604051908101604052809291908181526020018280546103869061279a565b80156103d35780601f106103a8576101008083540402835291602001916103d3565b820191906000526020600020905b8154815290600101906020018083116103b657829003601f168201915b505050505081526020016004820180546103ec9061279a565b80601f01602080910402602001604051908101604052809291908181526020018280546104189061279a565b80156104655780601f1061043a57610100808354040283529160200191610465565b820191906000526020600020905b81548152906001019060200180831161044857829003601f168201915b505050918352505060058281015460209092019160ff169081111561049a57634e487b7160e01b600052602160045260246000fd5b60058111156104b957634e487b7160e01b600052602160045260246000fd5b905250919050565b6000546001600160a01b031633146105205760405162461bcd60e51b815260206004820152601b60248201527f417661696c61626c65206f6e6c7920666f7220636f6e73756d6572000000000060448201526064015b60405180910390fd5b6105286117dc565b1561059b5760405162461bcd60e51b815260206004820152602160248201527f436f6d706c65746564206f726465722063616e27742062652063616e63656c6560448201527f64000000000000000000000000000000000000000000000000000000000000006064820152608401610517565b600354604080517f1bffb49100000000000000000000000000000000000000000000000000000000815290516001600160a01b0390921691631bffb49191600480820192602092909190829003018186803b1580156105f957600080fd5b505afa15801561060d573d6000803e3d6000fd5b505050506040513d601f19601f820116820180604052508101906106319190611f06565b610680576008805460ff191660029081179091556040517fdeec0b1e3a1ffaeb49a9045c07756b2e16cd738314db2d7ec9317e56809732bb9161067691309190612477565b60405180910390a1565b6008805460ff191660039081179091556040517fdeec0b1e3a1ffaeb49a9045c07756b2e16cd738314db2d7ec9317e56809732bb916106c191309190612477565b60405180910390a16001546106d7576000600b55565b6000600c5460ff1660038111156106fe57634e487b7160e01b600052602160045260246000fd5b141561090d5760035460408051635a9b0b8960e01b815290516001600160a01b03909216916000918391635a9b0b89916004808201928692909190829003018186803b15801561074d57600080fd5b505afa158015610761573d6000803e3d6000fd5b505050506040513d6000823e601f3d908101601f191682016040526107899190810190612308565b6060015163ffffffff1690506000826001600160a01b0316635a9b0b896040518163ffffffff1660e01b815260040160006040518083038186803b1580156107d057600080fd5b505afa1580156107e4573d6000803e3d6000fd5b505050506040513d6000823e601f3d908101601f1916820160405261080c9190810190612308565b6080015167ffffffffffffffff16905060006001544261082c9190612753565b9050600061083b603c836126d1565b9050828110156108485750815b600084866001600160a01b0316638a35e9426040518163ffffffff1660e01b815260040160206040518083038186803b15801561088457600080fd5b505afa158015610898573d6000803e3d6000fd5b505050506040513d601f19601f820116820180604052508101906108bc919061241f565b6108c691906126d1565b90506000603c6108d9610e106018612727565b6108e391906126e5565b63ffffffff166108f38385612708565b6108fd91906126d1565b600b55506109c395505050505050565b60035460408051635a9b0b8960e01b815290516001600160a01b03909216916000918391635a9b0b8991600480820192869290919082900301818387803b15801561095757600080fd5b505af115801561096b573d6000803e3d6000fd5b505050506040513d6000823e601f3d908101601f191682016040526109939190810190611fd8565b61012001516109a390603c612708565b905042816001546109b491906126b9565b10156109c0576000600b555b50505b565b6109cd611869565b6012546001600160a01b03163314610a315760405162461bcd60e51b815260206004820152602160248201527f417661696c61626c65206f6e6c7920666f72206f726465727320666163746f726044820152607960f81b6064820152608401610517565b601280547fffffffffffffffffffffff00ffffffffffffffffffffffffffffffffffffffff16600160a01b179055565b6003546040805163483d45bd60e01b815290516000926001600160a01b03169163483d45bd916004808301926020929190829003018186803b158015610aa657600080fd5b505afa158015610aba573d6000803e3d6000fd5b505050506040513d601f19601f82011682018060405250810190610ade9190611eea565b6001600160a01b0316636760c4b76040518163ffffffff1660e01b815260040160206040518083038186803b158015610b1657600080fd5b505afa158015610b2a573d6000803e3d6000fd5b505050506040513d601f19601f82011682018060405250810190610b4e9190611eea565b9050336001600160a01b03821614610bba5760405162461bcd60e51b815260206004820152602960248201527f417661696c61626c65206f6e6c7920666f722070726f766964657220616374696044820152681bdb9058d8dbdd5b9d60ba1b6064820152608401610517565b610bc26117dc565b15610c0f5760405162461bcd60e51b815260206004820181905260248201527f436f6d706c65746564206f726465722063616e277420626520757064617465646044820152606401610517565b6008805460ff1916600190811790915554610c2957426001555b6008546040517fdeec0b1e3a1ffaeb49a9045c07756b2e16cd738314db2d7ec9317e56809732bb91610c6091309160ff1690612477565b60405180910390a150565b610c8f60405180606001604052806060815260200160608152602001600081525090565b6009604051806060016040529081600082018054610cac9061279a565b80601f0160208091040260200160405190810160405280929190818152602001828054610cd89061279a565b8015610d255780601f10610cfa57610100808354040283529160200191610d25565b820191906000526020600020905b815481529060010190602001808311610d0857829003601f168201915b50505050508152602001600182018054610d3e9061279a565b80601f0160208091040260200160405190810160405280929190818152602001828054610d6a9061279a565b8015610db75780601f10610d8c57610100808354040283529160200191610db7565b820191906000526020600020905b815481529060010190602001808311610d9a57829003601f168201915b50505050508152602001600282015481525050905090565b6003546040805163483d45bd60e01b815290516000926001600160a01b03169163483d45bd916004808301926020929190829003018186803b158015610e1457600080fd5b505afa158015610e28573d6000803e3d6000fd5b505050506040513d601f19601f82011682018060405250810190610e4c9190611eea565b6001600160a01b0316636760c4b76040518163ffffffff1660e01b815260040160206040518083038186803b158015610e8457600080fd5b505afa158015610e98573d6000803e3d6000fd5b505050506040513d601f19601f82011682018060405250810190610ebc9190611eea565b9050336001600160a01b03821614610f285760405162461bcd60e51b815260206004820152602960248201527f417661696c61626c65206f6e6c7920666f722070726f766964657220616374696044820152681bdb9058d8dbdd5b9d60ba1b6064820152608401610517565b610f306117dc565b15610f7d5760405162461bcd60e51b815260206004820181905260248201527f436f6d706c65746564206f726465722063616e277420626520757064617465646044820152606401610517565b6008805484919060ff19166001836005811115610faa57634e487b7160e01b600052602160045260246000fd5b0217905550600154158015610fde57506001836005811115610fdc57634e487b7160e01b600052602160045260246000fd5b145b15610fe857426001555b6000600c5460ff16600381111561100f57634e487b7160e01b600052602160045260246000fd5b1461108c57600b5482111561108c5760405162461bcd60e51b815260206004820152602b60248201527f466f7262696464656e20746f20696e63726561736520707269636520666f722060448201527f76616c75654f66666572730000000000000000000000000000000000000000006064820152608401610517565b600b8290556008546040517fdeec0b1e3a1ffaeb49a9045c07756b2e16cd738314db2d7ec9317e56809732bb916110c891309160ff1690612477565b60405180910390a1505050565b6003546040805163483d45bd60e01b815290516000926001600160a01b03169163483d45bd916004808301926020929190829003018186803b15801561111a57600080fd5b505afa15801561112e573d6000803e3d6000fd5b505050506040513d601f19601f820116820180604052508101906111529190611eea565b6001600160a01b0316636760c4b76040518163ffffffff1660e01b815260040160206040518083038186803b15801561118a57600080fd5b505afa15801561119e573d6000803e3d6000fd5b505050506040513d601f19601f820116820180604052508101906111c29190611eea565b9050336001600160a01b0382161461122e5760405162461bcd60e51b815260206004820152602960248201527f417661696c61626c65206f6e6c7920666f722070726f766964657220616374696044820152681bdb9058d8dbdd5b9d60ba1b6064820152608401610517565b6112366117dc565b156112835760405162461bcd60e51b815260206004820152601160248201527f416c726561647920636f6d706c657465640000000000000000000000000000006044820152606401610517565b60058460058111156112a557634e487b7160e01b600052602160045260246000fd5b14806112d0575060048460058111156112ce57634e487b7160e01b600052602160045260246000fd5b145b6113425760405162461bcd60e51b815260206004820152602b60248201527f43616e20636f6d706c657465206f6e6c7920776974682073746174757320457260448201527f726f72206f7220446f6e650000000000000000000000000000000000000000006064820152608401610517565b6008805485919060ff1916600183600581111561136f57634e487b7160e01b600052602160045260246000fd5b02179055508251611387906009906020860190611bbb565b50815161139b90600a906020850190611bbb565b5060058460058111156113be57634e487b7160e01b600052602160045260246000fd5b14156113d8576012805460ff60a81b1916600160a81b1790555b6008546040517fdeec0b1e3a1ffaeb49a9045c07756b2e16cd738314db2d7ec9317e56809732bb9161140f91309160ff1690612477565b60405180910390a150505050565b6060600280548060200260200160405190810160405280929190818152602001828054801561147557602002820191906000526020600020905b81546001600160a01b03168152600190910190602001808311611457575b5050505050905090565b611487611869565b6012546001600160a01b031633146114eb5760405162461bcd60e51b815260206004820152602160248201527f417661696c61626c65206f6e6c7920666f72206f726465727320666163746f726044820152607960f81b6064820152608401610517565b6012805460ff60a81b1916600160a81b179055565b611508611869565b6012546001600160a01b0316331461156c5760405162461bcd60e51b815260206004820152602160248201527f417661696c61626c65206f6e6c7920666f72206f726465727320666163746f726044820152607960f81b6064820152608401610517565b6000816001600160a01b03166301efb6c86040518163ffffffff1660e01b815260040160006040518083038186803b1580156115a757600080fd5b505afa1580156115bb573d6000803e3d6000fd5b505050506040513d6000823e601f3d908101601f191682016040526115e39190810190612214565b6000015190506000816001600160a01b031663af5372e66040518163ffffffff1660e01b815260040160206040518083038186803b15801561162457600080fd5b505afa158015611638573d6000803e3d6000fd5b505050506040513d601f19601f8201168201806040525081019061165c9190611f20565b9050600d600082600381111561168257634e487b7160e01b600052602160045260246000fd5b60038111156116a157634e487b7160e01b600052602160045260246000fd5b815260208101919091526040016000205460ff16156117285760405162461bcd60e51b815260206004820152602960248201527f416c726561647920686173207375624f7264657220776974682074686973206f60448201527f66666572207479706500000000000000000000000000000000000000000000006064820152608401610517565b600280546001808201835560009283527f405787fa12a823e0f2b7631cc41b3ba8828b3321ca811111fa75cd3aa3bb5ace90910180546001600160a01b0319166001600160a01b03871617905590600d9083600381111561179957634e487b7160e01b600052602160045260246000fd5b60038111156117b857634e487b7160e01b600052602160045260246000fd5b81526020810191909152604001600020805460ff1916911515919091179055505050565b6000600460085460ff16600581111561180557634e487b7160e01b600052602160045260246000fd5b14806118355750600560085460ff16600581111561183357634e487b7160e01b600052602160045260246000fd5b145b806118645750600360085460ff16600581111561186257634e487b7160e01b600052602160045260246000fd5b145b905090565b600e60009054906101000a90046001600160a01b03166001600160a01b031663f1f0bd016040518163ffffffff1660e01b815260040160206040518083038186803b1580156118b757600080fd5b505afa1580156118cb573d6000803e3d6000fd5b505050506040513d601f19601f820116820180604052508101906118ef9190611eea565b600e80546001600160a01b0319166001600160a01b0392909216918217905560405163bcaa0c5560e01b815263bcaa0c5590611930906001906004016124e1565b60206040518083038186803b15801561194857600080fd5b505afa15801561195c573d6000803e3d6000fd5b505050506040513d601f19601f820116820180604052508101906119809190611eea565b600f80546001600160a01b0319166001600160a01b03928316179055600e5460405163bcaa0c5560e01b815291169063bcaa0c55906119c4906002906004016124e1565b60206040518083038186803b1580156119dc57600080fd5b505afa1580156119f0573d6000803e3d6000fd5b505050506040513d601f19601f82011682018060405250810190611a149190611eea565b601080546001600160a01b0319166001600160a01b03928316179055600e5460405163bcaa0c5560e01b815291169063bcaa0c5590611a58906005906004016124e1565b60206040518083038186803b158015611a7057600080fd5b505afa158015611a84573d6000803e3d6000fd5b505050506040513d601f19601f82011682018060405250810190611aa89190611eea565b601180546001600160a01b0319166001600160a01b03928316179055600e5460405163bcaa0c5560e01b815291169063bcaa0c5590611aec906000906004016124e1565b60206040518083038186803b158015611b0457600080fd5b505afa158015611b18573d6000803e3d6000fd5b505050506040513d601f19601f82011682018060405250810190611b3c9190611eea565b601280546001600160a01b0319166001600160a01b0392909216919091179055565b6040518060c0016040528060006001600160a01b031681526020016060815260200160608152602001606081526020016060815260200160006005811115611bb657634e487b7160e01b600052602160045260246000fd5b905290565b828054611bc79061279a565b90600052602060002090601f016020900481019282611be95760008555611c2f565b82601f10611c0257805160ff1916838001178555611c2f565b82800160010185558215611c2f579182015b82811115611c2f578251825591602001919060010190611c14565b50611c3b929150611c3f565b5090565b5b80821115611c3b5760008155600101611c40565b8051611c5f8161282d565b919050565b600082601f830112611c74578081fd5b8151602067ffffffffffffffff821115611c9057611c90612817565b8160051b611c9f828201612660565b838152828101908684018388018501891015611cb9578687fd5b8693505b85841015611ce4578051611cd08161282d565b835260019390930192918401918401611cbd565b50979650505050505050565b80518015158114611c5f57600080fd5b805160048110611c5f57600080fd5b8051611c5f81612845565b600082601f830112611d2a578081fd5b8135611d3d611d3882612691565b612660565b818152846020838601011115611d51578283fd5b816020850160208301379081016020019190915292915050565b600082601f830112611d7b578081fd5b8151611d89611d3882612691565b818152846020838601011115611d9d578283fd5b611dae82602083016020870161276a565b949350505050565b600060408284031215611dc7578081fd5b6040516040810181811067ffffffffffffffff82111715611dea57611dea612817565b80604052508091508251611dfd8161282d565b8152611e0b60208401611cf0565b60208201525092915050565b60006101008284031215611e29578081fd5b6040516080810181811067ffffffffffffffff82111715611e4c57611e4c612817565b604052905080611e5c8484611db6565b8152611e6b8460408501611db6565b6020820152611e7d8460808501611db6565b6040820152611e8f8460c08501611db6565b60608201525092915050565b805163ffffffff81168114611c5f57600080fd5b805167ffffffffffffffff81168114611c5f57600080fd5b600060208284031215611ed8578081fd5b8135611ee38161282d565b9392505050565b600060208284031215611efb578081fd5b8151611ee38161282d565b600060208284031215611f17578081fd5b611ee382611cf0565b600060208284031215611f31578081fd5b611ee382611d00565b600080600060608486031215611f4e578182fd5b8335611f5981612845565b9250602084013567ffffffffffffffff80821115611f75578384fd5b611f8187838801611d1a565b93506040860135915080821115611f96578283fd5b50611fa386828701611d1a565b9150509250925092565b60008060408385031215611fbf578182fd5b8235611fca81612845565b946020939093013593505050565b600060208284031215611fe9578081fd5b815167ffffffffffffffff80821115612000578283fd5b908301906103208286031215612014578283fd5b61201c6125f0565b82518281111561202a578485fd5b61203687828601611d6b565b82525061204560208401611d00565b602082015261205660408401611cf0565b604082015260608301518281111561206c578485fd5b61207887828601611d6b565b6060830152506080830151608082015260a083015160a082015260c0830151828111156120a3578485fd5b6120af87828601611d6b565b60c0830152506120c28660e08501611e17565b60e08201526101e080840151838111156120da578586fd5b6120e688828701611d6b565b6101008401525061020080850151610120840152610220808601518581111561210d578788fd5b6121198a828901611d6b565b6101408601525061024086015185811115612132578788fd5b61213e8a828901611d6b565b6101608601525061026086015185811115612157578788fd5b6121638a828901611d6b565b610180860152506102808601518581111561217c578788fd5b6121888a828901611c64565b6101a0860152506102a0860151858111156121a1578788fd5b6121ad8a828901611d6b565b6101c0860152506102c0860151858111156121c6578788fd5b6121d28a828901611d6b565b84860152506102e08601519250848311156121eb578687fd5b6121f789848801611d6b565b828501526103008601518185015250505080935050505092915050565b600060208284031215612225578081fd5b815167ffffffffffffffff8082111561223c578283fd5b9083019060c0828603121561224f578283fd5b61225761261a565b61226083611c54565b8152602083015182811115612273578485fd5b61227f87828601611d6b565b602083015250604083015182811115612296578485fd5b6122a287828601611d6b565b6040830152506060830151828111156122b9578485fd5b6122c587828601611d6b565b6060830152506080830151828111156122dc578485fd5b6122e887828601611d6b565b6080830152506122fa60a08401611d0f565b60a082015295945050505050565b600060208284031215612319578081fd5b815167ffffffffffffffff80821115612330578283fd5b9083019060e08286031215612343578283fd5b61234b61263d565b825182811115612359578485fd5b61236587828601611d6b565b825250602083015182811115612379578485fd5b61238587828601611d6b565b60208301525060408301518281111561239c578485fd5b6123a887828601611d6b565b6040830152506123ba60608401611e9b565b60608201526123cb60808401611eaf565b608082015260a0830151828111156123e1578485fd5b6123ed87828601611d6b565b60a08301525060c083015182811115612404578485fd5b61241087828601611d6b565b60c08301525095945050505050565b600060208284031215612430578081fd5b5051919050565b6006811061244757612447612801565b9052565b6000815180845261246381602086016020860161276a565b601f01601f19169290920160200192915050565b6001600160a01b038316815260408101611ee36020830184612437565b6020808252825182820181905260009190848201906040850190845b818110156124d55783516001600160a01b0316835292840192918401916001016124b0565b50909695505050505050565b60208101600c83106124f5576124f5612801565b91905290565b602081526001600160a01b0382511660208201526000602083015160c0604084015261252a60e084018261244b565b90506040840151601f1980858403016060860152612548838361244b565b92506060860151915080858403016080860152612565838361244b565b925060808601519150808584030160a086015250612583828261244b565b91505060a084015161259860c0850182612437565b509392505050565b6020815260008251606060208401526125bc608084018261244b565b90506020840151601f198483030160408501526125d9828261244b565b915050604084015160608401528091505092915050565b604051610240810167ffffffffffffffff8111828210171561261457612614612817565b60405290565b60405160c0810167ffffffffffffffff8111828210171561261457612614612817565b60405160e0810167ffffffffffffffff8111828210171561261457612614612817565b604051601f8201601f1916810167ffffffffffffffff8111828210171561268957612689612817565b604052919050565b600067ffffffffffffffff8211156126ab576126ab612817565b50601f01601f191660200190565b600082198211156126cc576126cc6127d5565b500190565b6000826126e0576126e06127eb565b500490565b600063ffffffff808416806126fc576126fc6127eb565b92169190910492915050565b6000816000190483118215151615612722576127226127d5565b500290565b600063ffffffff8083168185168183048111821515161561274a5761274a6127d5565b02949350505050565b600082821015612765576127656127d5565b500390565b60005b8381101561278557818101518382015260200161276d565b83811115612794576000848401525b50505050565b600181811c908216806127ae57607f821691505b602082108114156127cf57634e487b7160e01b600052602260045260246000fd5b50919050565b634e487b7160e01b600052601160045260246000fd5b634e487b7160e01b600052601260045260246000fd5b634e487b7160e01b600052602160045260246000fd5b634e487b7160e01b600052604160045260246000fd5b6001600160a01b038116811461284257600080fd5b50565b6006811061284257600080fdfea2646970667358221220a1d621179c5aa3edf7de2a0b7c125679f56efdd8fee20bd99cacb3bcb8edb3e864736f6c63430008040033a2646970667358221220e632dfbb13029a1be381e34c548424091f32603794ff0b023d719e99b41e3d0064736f6c63430008040033",
  "linkReferences": {},
  "deployedLinkReferences": {}
}