{
  "_format": "hh-sol-artifact-1",
  "contractName": "Orders",
  "sourceName": "contracts/Orders.sol",
  "abi": [
    {
      "anonymous": false,
      "inputs": [
        {
          "indexed": true,
          "internalType": "address",
          "name": "consumer",
          "type": "address"
        },
        {
          "indexed": true,
          "internalType": "uint256",
          "name": "orderId",
          "type": "uint256"
        },
        {
          "indexed": false,
          "internalType": "bool",
          "name": "value",
          "type": "bool"
        }
      ],
      "name": "OrderAwaitingPaymentChanged",
      "type": "event"
    },
    {
      "anonymous": false,
      "inputs": [
        {
          "indexed": true,
          "internalType": "address",
          "name": "consumer",
          "type": "address"
        },
        {
          "indexed": true,
          "internalType": "uint256",
          "name": "orderId",
          "type": "uint256"
        },
        {
          "indexed": false,
          "internalType": "uint256",
          "name": "change",
          "type": "uint256"
        }
      ],
      "name": "OrderChangedWithdrawn",
      "type": "event"
    },
    {
      "anonymous": false,
      "inputs": [
        {
          "indexed": true,
          "internalType": "address",
          "name": "consumer",
          "type": "address"
        },
        {
          "indexed": true,
          "internalType": "bytes32",
          "name": "externalId",
          "type": "bytes32"
        },
        {
          "indexed": true,
          "internalType": "uint256",
          "name": "offerId",
          "type": "uint256"
        },
        {
          "indexed": false,
          "internalType": "uint256",
          "name": "orderId",
          "type": "uint256"
        }
      ],
      "name": "OrderCreated",
      "type": "event"
    },
    {
      "anonymous": false,
      "inputs": [
        {
          "indexed": true,
          "internalType": "address",
          "name": "consumer",
          "type": "address"
        },
        {
          "indexed": true,
          "internalType": "uint256",
          "name": "orderId",
          "type": "uint256"
        },
        {
          "indexed": false,
          "internalType": "uint256",
          "name": "amount",
          "type": "uint256"
        }
      ],
      "name": "OrderDepositRefilled",
      "type": "event"
    },
    {
      "anonymous": false,
      "inputs": [
        {
          "indexed": true,
          "internalType": "address",
          "name": "consumer",
          "type": "address"
        },
        {
          "indexed": true,
          "internalType": "uint256",
          "name": "orderId",
          "type": "uint256"
        },
        {
          "indexed": false,
          "internalType": "uint256",
          "name": "value",
          "type": "uint256"
        }
      ],
      "name": "OrderDepositSpentChanged",
      "type": "event"
    },
    {
      "anonymous": false,
      "inputs": [
        {
          "indexed": true,
          "internalType": "address",
          "name": "consumer",
          "type": "address"
        },
        {
          "indexed": true,
          "internalType": "uint256",
          "name": "orderId",
          "type": "uint256"
        },
        {
          "indexed": false,
          "internalType": "string",
          "name": "encryptedResult",
          "type": "string"
        }
      ],
      "name": "OrderEncryptedResultUpdated",
      "type": "event"
    },
    {
      "anonymous": false,
      "inputs": [
        {
          "indexed": true,
          "internalType": "uint256",
          "name": "orderId",
          "type": "uint256"
        },
        {
          "indexed": false,
          "internalType": "uint256",
          "name": "price",
          "type": "uint256"
        }
      ],
      "name": "OrderPriceUpdated",
      "type": "event"
    },
    {
      "anonymous": false,
      "inputs": [
        {
          "indexed": true,
          "internalType": "address",
          "name": "tokenReceiver",
          "type": "address"
        },
        {
          "indexed": true,
          "internalType": "uint256",
          "name": "orderId",
          "type": "uint256"
        },
        {
          "indexed": false,
          "internalType": "uint256",
          "name": "profit",
          "type": "uint256"
        }
      ],
      "name": "OrderProfitWithdrawn",
      "type": "event"
    },
    {
      "anonymous": false,
      "inputs": [
        {
          "indexed": true,
          "internalType": "address",
          "name": "consumer",
          "type": "address"
        },
        {
          "indexed": true,
          "internalType": "uint256",
          "name": "orderId",
          "type": "uint256"
        }
      ],
      "name": "OrderStarted",
      "type": "event"
    },
    {
      "anonymous": false,
      "inputs": [
        {
          "indexed": true,
          "internalType": "uint256",
          "name": "orderId",
          "type": "uint256"
        },
        {
          "indexed": true,
          "internalType": "enum OrderStatus",
          "name": "status",
          "type": "uint8"
        }
      ],
      "name": "OrderStatusUpdated",
      "type": "event"
    },
    {
      "anonymous": false,
      "inputs": [
        {
          "indexed": true,
          "internalType": "uint256",
          "name": "subOrderId",
          "type": "uint256"
        },
        {
          "indexed": true,
          "internalType": "uint256",
          "name": "parentOrderId",
          "type": "uint256"
        }
      ],
      "name": "SubOrderCreated",
      "type": "event"
    },
    {
      "inputs": [
        {
          "internalType": "uint256",
          "name": "orderId",
          "type": "uint256"
        }
      ],
      "name": "cancelOrder",
      "outputs": [],
      "stateMutability": "nonpayable",
      "type": "function"
    },
    {
      "inputs": [
        {
          "internalType": "uint256",
          "name": "orderId",
          "type": "uint256"
        },
        {
          "internalType": "enum OrderStatus",
          "name": "status",
          "type": "uint8"
        },
        {
          "internalType": "string",
          "name": "encryptedResult",
          "type": "string"
        }
      ],
      "name": "completeOrder",
      "outputs": [],
      "stateMutability": "nonpayable",
      "type": "function"
    },
    {
      "inputs": [
        {
          "components": [
            {
              "internalType": "uint256",
              "name": "offerId",
              "type": "uint256"
            },
            {
              "internalType": "string",
              "name": "resultPublicKey",
              "type": "string"
            },
            {
              "internalType": "string",
              "name": "encryptedRequirements",
              "type": "string"
            },
            {
              "internalType": "string",
              "name": "encryptedArgs",
              "type": "string"
            },
            {
              "internalType": "enum OrderStatus",
              "name": "status",
              "type": "uint8"
            },
            {
              "components": [
                {
                  "internalType": "uint256",
                  "name": "slots",
                  "type": "uint256"
                },
                {
                  "internalType": "uint256[]",
                  "name": "inputOffers",
                  "type": "uint256[]"
                },
                {
                  "internalType": "uint256[]",
                  "name": "selectedOffers",
                  "type": "uint256[]"
                }
              ],
              "internalType": "struct OrderArgs",
              "name": "args",
              "type": "tuple"
            }
          ],
          "internalType": "struct OrderInfo",
          "name": "info",
          "type": "tuple"
        },
        {
          "internalType": "uint256",
          "name": "holdDeposit",
          "type": "uint256"
        },
        {
          "internalType": "bool",
          "name": "suspended",
          "type": "bool"
        },
        {
          "internalType": "bytes32",
          "name": "externalId",
          "type": "bytes32"
        }
      ],
      "name": "createOrder",
      "outputs": [],
      "stateMutability": "nonpayable",
      "type": "function"
    },
    {
      "inputs": [
        {
          "internalType": "uint256",
          "name": "parentOrderId",
          "type": "uint256"
        },
        {
          "components": [
            {
              "internalType": "uint256",
              "name": "offerId",
              "type": "uint256"
            },
            {
              "internalType": "string",
              "name": "resultPublicKey",
              "type": "string"
            },
            {
              "internalType": "string",
              "name": "encryptedRequirements",
              "type": "string"
            },
            {
              "internalType": "string",
              "name": "encryptedArgs",
              "type": "string"
            },
            {
              "internalType": "enum OrderStatus",
              "name": "status",
              "type": "uint8"
            },
            {
              "components": [
                {
                  "internalType": "uint256",
                  "name": "slots",
                  "type": "uint256"
                },
                {
                  "internalType": "uint256[]",
                  "name": "inputOffers",
                  "type": "uint256[]"
                },
                {
                  "internalType": "uint256[]",
                  "name": "selectedOffers",
                  "type": "uint256[]"
                }
              ],
              "internalType": "struct OrderArgs",
              "name": "args",
              "type": "tuple"
            }
          ],
          "internalType": "struct OrderInfo",
          "name": "suborderInfo",
          "type": "tuple"
        },
        {
          "components": [
            {
              "internalType": "bool",
              "name": "blockParentOrder",
              "type": "bool"
            },
            {
              "internalType": "bytes32",
              "name": "externalId",
              "type": "bytes32"
            },
            {
              "internalType": "uint256",
              "name": "holdSum",
              "type": "uint256"
            }
          ],
          "internalType": "struct SubOrderParams",
          "name": "params",
          "type": "tuple"
        }
      ],
      "name": "createSubOrder",
      "outputs": [],
      "stateMutability": "nonpayable",
      "type": "function"
    },
    {
      "inputs": [
        {
          "internalType": "uint256",
          "name": "orderId",
          "type": "uint256"
        }
      ],
      "name": "getAwaitingPayment",
      "outputs": [
        {
          "internalType": "bool",
          "name": "",
          "type": "bool"
        }
      ],
      "stateMutability": "view",
      "type": "function"
    },
    {
      "inputs": [
        {
          "internalType": "uint256",
          "name": "orderId",
          "type": "uint256"
        }
      ],
      "name": "getDepositSpent",
      "outputs": [
        {
          "internalType": "uint256",
          "name": "",
          "type": "uint256"
        }
      ],
      "stateMutability": "view",
      "type": "function"
    },
    {
      "inputs": [
        {
          "internalType": "uint256",
          "name": "orderId",
          "type": "uint256"
        }
      ],
      "name": "getOrder",
      "outputs": [
        {
          "internalType": "address",
          "name": "",
          "type": "address"
        },
        {
          "components": [
            {
              "internalType": "uint256",
              "name": "offerId",
              "type": "uint256"
            },
            {
              "internalType": "string",
              "name": "resultPublicKey",
              "type": "string"
            },
            {
              "internalType": "string",
              "name": "encryptedRequirements",
              "type": "string"
            },
            {
              "internalType": "string",
              "name": "encryptedArgs",
              "type": "string"
            },
            {
              "internalType": "enum OrderStatus",
              "name": "status",
              "type": "uint8"
            },
            {
              "components": [
                {
                  "internalType": "uint256",
                  "name": "slots",
                  "type": "uint256"
                },
                {
                  "internalType": "uint256[]",
                  "name": "inputOffers",
                  "type": "uint256[]"
                },
                {
                  "internalType": "uint256[]",
                  "name": "selectedOffers",
                  "type": "uint256[]"
                }
              ],
              "internalType": "struct OrderArgs",
              "name": "args",
              "type": "tuple"
            }
          ],
          "internalType": "struct OrderInfo",
          "name": "",
          "type": "tuple"
        },
        {
          "components": [
            {
              "internalType": "string",
              "name": "encryptedResult",
              "type": "string"
            },
            {
              "internalType": "uint256",
              "name": "orderPrice",
              "type": "uint256"
            }
          ],
          "internalType": "struct OrderResult",
          "name": "",
          "type": "tuple"
        }
      ],
      "stateMutability": "view",
      "type": "function"
    },
    {
      "inputs": [
        {
          "internalType": "uint256",
          "name": "orderId",
          "type": "uint256"
        }
      ],
      "name": "getOrderChangeWithdrawn",
      "outputs": [
        {
          "internalType": "bool",
          "name": "",
          "type": "bool"
        }
      ],
      "stateMutability": "view",
      "type": "function"
    },
    {
      "inputs": [
        {
          "internalType": "uint256",
          "name": "orderId",
          "type": "uint256"
        }
      ],
      "name": "getOrderHoldDeposit",
      "outputs": [
        {
          "internalType": "uint256",
          "name": "",
          "type": "uint256"
        }
      ],
      "stateMutability": "view",
      "type": "function"
    },
    {
      "inputs": [
        {
          "internalType": "uint256",
          "name": "orderId",
          "type": "uint256"
        }
      ],
      "name": "getOrderOrigins",
      "outputs": [
        {
          "components": [
            {
              "internalType": "uint256",
              "name": "createdDate",
              "type": "uint256"
            },
            {
              "internalType": "address",
              "name": "createdBy",
              "type": "address"
            },
            {
              "internalType": "uint256",
              "name": "modifiedDate",
              "type": "uint256"
            },
            {
              "internalType": "address",
              "name": "modifiedBy",
              "type": "address"
            }
          ],
          "internalType": "struct Origins",
          "name": "",
          "type": "tuple"
        }
      ],
      "stateMutability": "view",
      "type": "function"
    },
    {
      "inputs": [
        {
          "internalType": "uint256",
          "name": "orderId",
          "type": "uint256"
        }
      ],
      "name": "getOrderParentOrder",
      "outputs": [
        {
          "internalType": "uint256",
          "name": "",
          "type": "uint256"
        }
      ],
      "stateMutability": "view",
      "type": "function"
    },
    {
      "inputs": [
        {
          "internalType": "uint256",
          "name": "orderId",
          "type": "uint256"
        }
      ],
      "name": "getOrderPrice",
      "outputs": [
        {
          "internalType": "uint256",
          "name": "",
          "type": "uint256"
        }
      ],
      "stateMutability": "view",
      "type": "function"
    },
    {
      "inputs": [
        {
          "internalType": "uint256",
          "name": "orderId",
          "type": "uint256"
        }
      ],
      "name": "getOrderProfitWithdrawn",
      "outputs": [
        {
          "internalType": "bool",
          "name": "",
          "type": "bool"
        }
      ],
      "stateMutability": "view",
      "type": "function"
    },
    {
      "inputs": [
        {
          "internalType": "uint256",
          "name": "orderId",
          "type": "uint256"
        }
      ],
      "name": "getOrderSubOrders",
      "outputs": [
        {
          "internalType": "uint256[]",
          "name": "",
          "type": "uint256[]"
        }
      ],
      "stateMutability": "view",
      "type": "function"
    },
    {
      "inputs": [],
      "name": "getOrdersCount",
      "outputs": [
        {
          "internalType": "uint256",
          "name": "",
          "type": "uint256"
        }
      ],
      "stateMutability": "view",
      "type": "function"
    },
    {
      "inputs": [
        {
          "internalType": "uint256",
          "name": "orderId",
          "type": "uint256"
        }
      ],
      "name": "getStartDate",
      "outputs": [
        {
          "internalType": "uint256",
          "name": "",
          "type": "uint256"
        }
      ],
      "stateMutability": "view",
      "type": "function"
    },
    {
      "inputs": [
        {
          "internalType": "uint256",
          "name": "orderId",
          "type": "uint256"
        }
      ],
      "name": "isOrderCompleted",
      "outputs": [
        {
          "internalType": "bool",
          "name": "",
          "type": "bool"
        }
      ],
      "stateMutability": "view",
      "type": "function"
    },
    {
      "inputs": [
        {
          "internalType": "uint256",
          "name": "orderId",
          "type": "uint256"
        }
      ],
      "name": "isOrderStarted",
      "outputs": [
        {
          "internalType": "bool",
          "name": "",
          "type": "bool"
        }
      ],
      "stateMutability": "view",
      "type": "function"
    },
    {
      "inputs": [
        {
          "internalType": "uint256",
          "name": "orderId",
          "type": "uint256"
        }
      ],
      "name": "isOrderValid",
      "outputs": [
        {
          "internalType": "bool",
          "name": "",
          "type": "bool"
        }
      ],
      "stateMutability": "view",
      "type": "function"
    },
    {
      "inputs": [
        {
          "internalType": "uint256",
          "name": "orderId",
          "type": "uint256"
        }
      ],
      "name": "processOrder",
      "outputs": [],
      "stateMutability": "nonpayable",
      "type": "function"
    },
    {
      "inputs": [
        {
          "internalType": "uint256",
          "name": "orderId",
          "type": "uint256"
        },
        {
          "internalType": "uint256",
          "name": "amount",
          "type": "uint256"
        }
      ],
      "name": "refillOrder",
      "outputs": [],
      "stateMutability": "nonpayable",
      "type": "function"
    },
    {
      "inputs": [
        {
          "internalType": "uint256",
          "name": "orderId",
          "type": "uint256"
        },
        {
          "internalType": "bool",
          "name": "value",
          "type": "bool"
        }
      ],
      "name": "setAwaitingPayment",
      "outputs": [],
      "stateMutability": "nonpayable",
      "type": "function"
    },
    {
      "inputs": [
        {
          "internalType": "uint256",
          "name": "orderId",
          "type": "uint256"
        },
        {
          "internalType": "uint256",
          "name": "value",
          "type": "uint256"
        }
      ],
      "name": "setDepositSpent",
      "outputs": [],
      "stateMutability": "nonpayable",
      "type": "function"
    },
    {
      "inputs": [
        {
          "internalType": "uint256",
          "name": "orderId",
          "type": "uint256"
        }
      ],
      "name": "startOrder",
      "outputs": [],
      "stateMutability": "nonpayable",
      "type": "function"
    },
    {
      "inputs": [
        {
          "internalType": "uint256",
          "name": "orderId",
          "type": "uint256"
        },
        {
          "internalType": "uint256",
          "name": "orderPrice",
          "type": "uint256"
        }
      ],
      "name": "updateOrderPrice",
      "outputs": [],
      "stateMutability": "nonpayable",
      "type": "function"
    },
    {
      "inputs": [
        {
          "internalType": "uint256",
          "name": "orderId",
          "type": "uint256"
        },
        {
          "internalType": "string",
          "name": "encryptedResult",
          "type": "string"
        }
      ],
      "name": "updateOrderResult",
      "outputs": [],
      "stateMutability": "nonpayable",
      "type": "function"
    },
    {
      "inputs": [
        {
          "internalType": "uint256",
          "name": "orderId",
          "type": "uint256"
        }
      ],
      "name": "withdrawChange",
      "outputs": [],
      "stateMutability": "nonpayable",
      "type": "function"
    },
    {
      "inputs": [
        {
          "internalType": "uint256",
          "name": "orderId",
          "type": "uint256"
        }
      ],
      "name": "withdrawProfit",
      "outputs": [],
      "stateMutability": "nonpayable",
      "type": "function"
    }
  ],
  "bytecode": "0x608060405234801561001057600080fd5b50615e5980620000216000396000f3fe608060405234801561001057600080fd5b50600436106101c45760003560e01c8063920fba4f116100f9578063ba92763a11610097578063d54f807611610071578063d54f80761461051b578063d82a2bea1461052e578063df305d5914610541578063e0ab5ae01461055457600080fd5b8063ba92763a146104b6578063c9bd9ff0146104e6578063d09ef241146104f957600080fd5b8063a0a23849116100d3578063a0a2384914610436578063a90f3a2d14610469578063ab74e6421461047c578063b5b3b0511461048f57600080fd5b8063920fba4f146103e0578063975c4727146103f35780639959a56b1461042357600080fd5b80636eb691f4116101665780637a62b924116101405780637a62b9241461032d5780637d41fdd914610365578063835055c31461037857806388f4a6ba146103cd57600080fd5b80636eb691f41461029a578063752895dd146102ca578063779e423f146102ea57600080fd5b80632e5187fb116101a25780632e5187fb1461024e5780632f191ee814610261578063514fcac7146102745780635e9e78d01461028757600080fd5b80630f251358146101c957806319fed3981461020c5780631a02dc9214610221575b600080fd5b6101f96101d7366004615497565b6000908152600080516020615e0483398151915260205260409020600d015490565b6040519081526020015b60405180910390f35b61021f61021a3660046154c1565b610567565b005b6101f961022f366004615497565b6000908152600080516020615e04833981519152602052604090205490565b61021f61025c366004615497565b6107fb565b61021f61026f366004615608565b610b32565b61021f610282366004615497565b6111e1565b61021f61029536600461565f565b611498565b6101f96102a8366004615497565b6000908152600080516020615e04833981519152602052604090206018015490565b6102dd6102d8366004615497565b61170f565b6040516102039190615681565b61031d6102f8366004615497565b6000908152600080516020615e04833981519152602052604090206013015460ff1690565b6040519015158152602001610203565b61031d61033b366004615497565b6000908152600080516020615e048339815191526020526040902060130154610100900460ff1690565b61021f610373366004615497565b611786565b61038b610386366004615497565b611910565b6040516102039190815181526020808301516001600160a01b039081169183019190915260408084015190830152606092830151169181019190915260800190565b61031d6103db366004615497565b61199b565b61021f6103ee366004615892565b6119fd565b6101f9610401366004615497565b6000908152600080516020615e0483398151915260205260409020601a015490565b61021f610431366004615497565b611f54565b61031d610444366004615497565b6000908152600080516020615e04833981519152602052604090206019015460ff1690565b61021f6104773660046158f3565b61245b565b61031d61048a366004615497565b612d0c565b7ff68437791109705d2e300a0b0cfc858fedffc7438da1d9bf937e2f34afa0df76546101f9565b6101f96104c4366004615497565b6000908152600080516020615e04833981519152602052604090206002015490565b61031d6104f4366004615497565b612d73565b61050c610507366004615497565b612daa565b60405161020393929190615a55565b61021f61052936600461565f565b613196565b61021f61053c366004615497565b613470565b61021f61054f36600461565f565b613953565b61021f610562366004615b49565b613c8b565b6000828152600080516020615e0483398151915260205260408120839150600030600483810154604051634e6e04f760e01b8152918201526001600160a01b039190911690634e6e04f79060240160206040518083038186803b1580156105cd57600080fd5b505afa1580156105e1573d6000803e3d6000fd5b505050506040513d601f19601f820116820180604052508101906106059190615ba5565b905060003060405163071ddd6760e11b81526001600160a01b0384811660048301529190911690630e3bbace9060240160206040518083038186803b15801561064d57600080fd5b505afa158015610661573d6000803e3d6000fd5b505050506040513d601f19601f820116820180604052508101906106859190615ba5565b90506001600160a01b03811633146106ee5760405162461bcd60e51b815260206004820152602160248201527f4f6e6c7920617661696c61626c6520666f7220616374696f6e206163636f756e6044820152601d60fa1b60648201526084015b60405180910390fd5b6000868152600080516020615e0483398151915260205260409020600881015460019060ff166007811115610725576107256159cb565b146107985760405162461bcd60e51b815260206004820152602360248201527f4f72646572206d75737420626520696e20612070726f63657373696e6720737460448201527f617465000000000000000000000000000000000000000000000000000000000060648201526084016106e5565b60198101805460ff1916871515908117909155600182015460405191825288916001600160a01b03909116907fb10fd7c76991a3f5a6ddad3affbfd91cba71af0ecf74de0aea2f04655f869133906020015b60405180910390a350505050505050565b6000818152600080516020615e0483398151915260205260408120829150600030600483810154604051634e6e04f760e01b8152918201526001600160a01b039190911690634e6e04f79060240160206040518083038186803b15801561086157600080fd5b505afa158015610875573d6000803e3d6000fd5b505050506040513d601f19601f820116820180604052508101906108999190615ba5565b905060003060405163071ddd6760e11b81526001600160a01b0384811660048301529190911690630e3bbace9060240160206040518083038186803b1580156108e157600080fd5b505afa1580156108f5573d6000803e3d6000fd5b505050506040513d601f19601f820116820180604052508101906109199190615ba5565b90506001600160a01b038116331461097d5760405162461bcd60e51b815260206004820152602160248201527f4f6e6c7920617661696c61626c6520666f7220616374696f6e206163636f756e6044820152601d60fa1b60648201526084016106e5565b61098685612d0c565b156109f95760405162461bcd60e51b815260206004820152602c60248201527f436f6d706c65746564206f726465722063616e27742062652072657475726e6560448201527f6420746f2070726f63657373000000000000000000000000000000000000000060648201526084016106e5565b610a028561199b565b610a4e5760405162461bcd60e51b815260206004820152601960248201527f4f72646572206861736e2774206265656e20737461727465640000000000000060448201526064016106e5565b6000858152600080516020615e04833981519152602052604090206008810154610a7c9060ff166001613f56565b610aed5760405162461bcd60e51b8152602060048201526024808201527f4e6f7420616c6c6f77656420746f207365742050726f63657373696e6720737460448201527f617475730000000000000000000000000000000000000000000000000000000060648201526084016106e5565b610b0f81600f0142600282015560030180546001600160a01b03191633179055565b610b1a866001613ff0565b6002810154610b2a574260028201555b505050505050565b6000838152600080516020615e0483398151915260205260408120849150600030600483810154604051634e6e04f760e01b8152918201526001600160a01b039190911690634e6e04f79060240160206040518083038186803b158015610b9857600080fd5b505afa158015610bac573d6000803e3d6000fd5b505050506040513d601f19601f82011682018060405250810190610bd09190615ba5565b905060003060405163071ddd6760e11b81526001600160a01b0384811660048301529190911690630e3bbace9060240160206040518083038186803b158015610c1857600080fd5b505afa158015610c2c573d6000803e3d6000fd5b505050506040513d601f19601f82011682018060405250810190610c509190615ba5565b90506001600160a01b0381163314610cb45760405162461bcd60e51b815260206004820152602160248201527f4f6e6c7920617661696c61626c6520666f7220616374696f6e206163636f756e6044820152601d60fa1b60648201526084016106e5565b86610cbe81612d73565b610cfa5760405162461bcd60e51b815260206004820152600d60248201526c2ab735b737bbb71037b93232b960991b60448201526064016106e5565b610d0388612d0c565b15610d505760405162461bcd60e51b815260206004820152601160248201527f416c726561647920636f6d706c6574656400000000000000000000000000000060448201526064016106e5565b6005876007811115610d6457610d646159cb565b1480610d8157506004876007811115610d7f57610d7f6159cb565b145b80610d9d57506003876007811115610d9b57610d9b6159cb565b145b610e0f5760405162461bcd60e51b815260206004820152603560248201527f43616e20636f6d706c657465206f6e6c7920776974682073746174757320457260448201527f726f722c2043616e63656c6564206f7220446f6e65000000000000000000000060648201526084016106e5565b6000888152600080516020615e0483398151915260205260409020600881015460019060ff166007811115610e4657610e466159cb565b1480610e6a57506002600882015460ff166007811115610e6857610e686159cb565b145b610edc5760405162461bcd60e51b815260206004820152602d60248201527f43616e277420636f6d706c657465206265666f72652070726f63657373696e6760448201527f206f722063616e63656c696e670000000000000000000000000000000000000060648201526084016106e5565b610efe81600f0142600282015560030180546001600160a01b03191633179055565b8651610f1390600c83019060208a019061535c565b506005886007811115610f2857610f286159cb565b1415610f405760138101805461ff0019166101001790555b6003886007811115610f5457610f546159cb565b1415610fc2576002600882015460ff166007811115610f7557610f756159cb565b14610fc25760405162461bcd60e51b815260206004820181905260248201527f4f72646572206d75737420626520696e2063616e63656c696e6720737461746560448201526064016106e5565b6002600882015460ff166007811115610fdd57610fdd6159cb565b141561102557600397506000600e82015460ff166003811115611002576110026159cb565b1461101657601a810154600d820155611123565b600d810154601a820155611123565b601a81015415801561105057506000600e82015460ff16600381111561104d5761104d6159cb565b14155b1561106057600d810154601a8201555b6000600e82015460ff16600381111561107b5761107b6159cb565b141561112357306004828101546002840154600d850154604051635cc64f9f60e11b815293840192909252602483015260448201526001600160a01b03919091169063b98c9f3e9060640160206040518083038186803b1580156110de57600080fd5b505afa1580156110f2573d6000803e3d6000fd5b505050506040513d601f19601f820116820180604052508101906111169190615bc2565b600d8201819055601a8201555b806018015481601a01541161113c5780601a0154611142565b80601801545b601a8201556111518989613ff0565b61116f8960058a6007811115611169576111696159cb565b14614073565b306004808301546040516336dac04f60e21b81529182018c905260248201526001600160a01b03919091169063db6b013c90604401600060405180830381600087803b1580156111be57600080fd5b505af11580156111d2573d6000803e3d6000fd5b50505050505050505050505050565b6000818152600080516020615e048339815191526020526040902060018101548291906001600160a01b0316331461125b5760405162461bcd60e51b815260206004820152601b60248201527f417661696c61626c65206f6e6c7920666f7220636f6e73756d6572000000000060448201526064016106e5565b6000838152600080516020615e04833981519152602052604090204260118201556012810180546001600160a01b0319163317905561129984612d0c565b156112f05760405162461bcd60e51b815260206004820152602160248201527f436f6d706c65746564206f726465722063616e27742062652063616e63656c656044820152601960fa1b60648201526084016106e5565b6002600882015460ff16600781111561130b5761130b6159cb565b14156113595760405162461bcd60e51b815260206004820152601160248201527f416c72656164792063616e63656c696e6700000000000000000000000000000060448201526064016106e5565b60028101541580159061141057611371856002613ff0565b306004838101546002850154600d860154604051635cc64f9f60e11b815293840192909252602483015260448201526001600160a01b03919091169063b98c9f3e9060640160206040518083038186803b1580156113ce57600080fd5b505afa1580156113e2573d6000803e3d6000fd5b505050506040513d601f19601f820116820180604052508101906114069190615bc2565b600d83015561142a565b61141b856003613ff0565b6000600d8301819055601a8301555b306004808401546040516336dac04f60e21b815291820188905260248201526001600160a01b03919091169063db6b013c90604401600060405180830381600087803b15801561147957600080fd5b505af115801561148d573d6000803e3d6000fd5b505050505050505050565b6000828152600080516020615e0483398151915260205260408120839150600030600483810154604051634e6e04f760e01b8152918201526001600160a01b039190911690634e6e04f79060240160206040518083038186803b1580156114fe57600080fd5b505afa158015611512573d6000803e3d6000fd5b505050506040513d601f19601f820116820180604052508101906115369190615ba5565b905060003060405163071ddd6760e11b81526001600160a01b0384811660048301529190911690630e3bbace9060240160206040518083038186803b15801561157e57600080fd5b505afa158015611592573d6000803e3d6000fd5b505050506040513d601f19601f820116820180604052508101906115b69190615ba5565b90506001600160a01b038116331461161a5760405162461bcd60e51b815260206004820152602160248201527f4f6e6c7920617661696c61626c6520666f7220616374696f6e206163636f756e6044820152601d60fa1b60648201526084016106e5565b61162386614114565b6116955760405162461bcd60e51b815260206004820152602e60248201527f4f72646572207072696365206d757374206265206368616e676520696e20707260448201527f6f63657373696e6720737461746500000000000000000000000000000000000060648201526084016106e5565b6000868152600080516020615e04833981519152602052604090204260118201556012810180546001600160a01b03191633179055600d810186905560405186815287907fddcfcd158ba340cec1297a0d825aaf047af03d3fabcc01b151a6e1d09a7160f59060200160405180910390a250505050505050565b6000818152600080516020615e0483398151915260205260408120606091906003810180546040805160208084028201810190925282815293945083018282801561177957602002820191906000526020600020905b815481526020019060010190808311611765575b5050505050915050919050565b6000818152600080516020615e048339815191526020526040902060018101548291906001600160a01b031633146118005760405162461bcd60e51b815260206004820152601b60248201527f417661696c61626c65206f6e6c7920666f7220636f6e73756d6572000000000060448201526064016106e5565b6000838152600080516020615e0483398151915260205260409020600881015460079060ff1681811115611836576118366159cb565b146118835760405162461bcd60e51b815260206004820152601760248201527f4f72646572206d7573742062652073757370656e64656400000000000000000060448201526064016106e5565b6118a581600f0142600282015560030180546001600160a01b03191633179055565b6017810154806118b65760006118b9565b60065b60088301805460ff191660018360078111156118d7576118d76159cb565b0217905550604051859033907fe83be2bd6985a0345b14c74f91632c816560fb0543defd73982467563c4b598990600090a35050505050565b604080516080810182526000808252602082018190529181018290526060810182905290611956836000908152600080516020615e048339815191526020526040902090565b60408051608081018252600f830154815260108301546001600160a01b0390811660208301526011840154928201929092526012909201541660608201529392505050565b6000818152600080516020615e04833981519152602052604081206000600882015460ff1660078111156119d1576119d16159cb565b14806119f6575060015b600882015460ff1660078111156119f4576119f46159cb565b145b9392505050565b33308551604051634202334f60e01b815260048101919091526001600160a01b0383811660248301529190911690634202334f9060440160206040518083038186803b158015611a4c57600080fd5b505afa158015611a60573d6000803e3d6000fd5b505050506040513d601f19601f82011682018060405250810190611a849190615bdb565b611abe5760405162461bcd60e51b815260206004820152600b60248201526a139bdd08185b1b1bddd95960aa1b60448201526064016106e5565b8451604051631e5dd86b60e01b81523091631e5dd86b91611ae59190600090600401615bf8565b60206040518083038186803b158015611afd57600080fd5b505afa158015611b11573d6000803e3d6000fd5b505050506040513d601f19601f82011682018060405250810190611b359190615bdb565b15611b825760405162461bcd60e51b815260206004820181905260248201527f4f6666657220646973616c6c6f77207374616e64616c6f6e65206f726465727360448201526064016106e5565b84516040516308e161a160e21b81526004810191909152600090309063238586849060240160206040518083038186803b158015611bbf57600080fd5b505afa158015611bd3573d6000803e3d6000fd5b505050506040513d601f19601f82011682018060405250810190611bf79190615bc2565b905080851015611c05578094505b60405163897ce7cf60e01b8152600090309063897ce7cf90611c2b908490600401615c1c565b60206040518083038186803b158015611c4357600080fd5b505afa158015611c57573d6000803e3d6000fd5b505050506040513d601f19601f82011682018060405250810190611c7b9190615bc2565b905080861015611c89578095505b611c91614213565b604051636eb1769f60e11b81526001600160a01b038581166004830152306024830152919091169063dd62ed3e9060440160206040518083038186803b158015611cda57600080fd5b505afa158015611cee573d6000803e3d6000fd5b505050506040513d601f19601f82011682018060405250810190611d129190615bc2565b861115611d6d5760405162461bcd60e51b8152602060048201526024808201527f416c6c6f77656420746f6b656e73206c657373207468616e20686f6c644465706044820152631bdcda5d60e21b60648201526084016106e5565b611d75614213565b6040516323b872dd60e01b81526001600160a01b0385811660048301523060248301526044820189905291909116906323b872dd90606401602060405180830381600087803b158015611dc757600080fd5b505af1158015611ddb573d6000803e3d6000fd5b505050506040513d601f19601f82011682018060405250810190611dff9190615bdb565b50600080611e0e89898961428b565b601881018a90558a51604051630624204f60e01b8152600481019190915291935091503090630624204f9060240160206040518083038186803b158015611e5457600080fd5b505afa158015611e68573d6000803e3d6000fd5b505050506040513d601f19601f82011682018060405250810190611e8c9190615bdb565b15611e9f57611e9a8261494e565b611f07565b30895160405163d7208bb160e01b81526004810185905260248101919091526001600160a01b03919091169063d7208bb190604401600060405180830381600087803b158015611eee57600080fd5b505af1158015611f02573d6000803e3d6000fd5b505050505b885160405183815287906001600160a01b038816907fcdad6ab97fde7ccd3b74637bbb09ac75c9a4bf8b5684d210c9e61869bc67ac9b9060200160405180910390a4505050505050505050565b6000818152600080516020615e0483398151915260205260409020601381015460ff1615611fc45760405162461bcd60e51b815260206004820152601860248201527f4368616e676520616c72656164792077697468647261776e000000000000000060448201526064016106e5565b60018101546001600160a01b031633146120465760405162461bcd60e51b815260206004820152602160248201527f417661696c61626c65206f6e6c7920666f72204f7264657220636f6e73756d6560448201527f720000000000000000000000000000000000000000000000000000000000000060648201526084016106e5565b60006002600883015460ff166007811115612063576120636159cb565b1480156120e9575030600483810154604051634221048560e11b8152918201526001600160a01b039190911690638442090a9060240160206040518083038186803b1580156120b157600080fd5b505afa1580156120c5573d6000803e3d6000fd5b505050506040513d601f19601f820116820180604052508101906120e99190615bdb565b90506120f483612d0c565b806120fc5750805b6121595760405162461bcd60e51b815260206004820152602860248201527f57697468647261776e20617661696c61626c65207768656e206f7264657220636044820152671bdb5c1b195d195960c21b60648201526084016106e5565b600081156122ae5760005b600b8401548110156122ac57600b84018054600091908390811061218a5761218a615c2f565b600091825260209091200154604051633835b0d360e01b8152600481018290529091506001903090633835b0d39060240160206040518083038186803b1580156121d357600080fd5b505afa1580156121e7573d6000803e3d6000fd5b505050506040513d601f19601f8201168201806040525081019061220b9190615c45565b600381111561221c5761221c6159cb565b1415612299576040516308e161a160e21b815260048101829052309063238586849060240160206040518083038186803b15801561225957600080fd5b505afa15801561226d573d6000803e3d6000fd5b505050506040513d601f19601f820116820180604052508101906122919190615bc2565b9250506122ac565b50806122a481615c7c565b915050612164565b505b6013830154600090610100900460ff16156122ca5760006122da565b8184601a01546122da9190615c97565b905080846018015410156123305760405162461bcd60e51b815260206004820152601260248201527f4e6f7420656e6f756768206465706f736974000000000000000000000000000060448201526064016106e5565b60008185601801546123429190615caf565b905061234c614213565b60018601546040517fa9059cbb0000000000000000000000000000000000000000000000000000000081526001600160a01b0391821660048201526024810184905291169063a9059cbb90604401602060405180830381600087803b1580156123b457600080fd5b505af11580156123c8573d6000803e3d6000fd5b505050506040513d601f19601f820116820180604052508101906123ec9190615bdb565b50808560180160008282546124019190615caf565b909155505060138501805460ff19166001179055604051869033907ff2104e05a949a0a0c1f4b384977e9a631ddeccc6a9f14f878ca3d0510c7636019061244b9085815260200190565b60405180910390a3505050505050565b61246483612d0c565b156124b15760405162461bcd60e51b815260206004820152601960248201527f506172656e74206f7264657220697320636f6d706c657465640000000000000060448201526064016106e5565b6000838152600080516020615e04833981519152602052604081209050600030600483810154604051634e6e04f760e01b8152918201526001600160a01b039190911690634e6e04f79060240160206040518083038186803b15801561251657600080fd5b505afa15801561252a573d6000803e3d6000fd5b505050506040513d601f19601f8201168201806040525081019061254e9190615ba5565b905060003060405163071ddd6760e11b81526001600160a01b0384811660048301529190911690630e3bbace9060240160206040518083038186803b15801561259657600080fd5b505afa1580156125aa573d6000803e3d6000fd5b505050506040513d601f19601f820116820180604052508101906125ce9190615ba5565b905060006125db8761199b565b806125fe57506002600885015460ff1660078111156125fc576125fc6159cb565b145b90508080156126155750336001600160a01b038316145b80612635575080158015612635575060018401546001600160a01b031633145b6126815760405162461bcd60e51b815260206004820152600d60248201527f4163636573732064656e6965640000000000000000000000000000000000000060448201526064016106e5565b308651604051634202334f60e01b815260048101919091523360248201526001600160a01b039190911690634202334f9060440160206040518083038186803b1580156126cd57600080fd5b505afa1580156126e1573d6000803e3d6000fd5b505050506040513d601f19601f820116820180604052508101906127059190615bdb565b61273f5760405162461bcd60e51b815260206004820152600b60248201526a139bdd08185b1b1bddd95960aa1b60448201526064016106e5565b6002600885015460ff16600781111561275a5761275a6159cb565b1415612859578551604051636165696f60e01b815260048101919091526002903090636165696f9060240160206040518083038186803b15801561279d57600080fd5b505afa1580156127b1573d6000803e3d6000fd5b505050506040513d601f19601f820116820180604052508101906127d59190615cc6565b60028111156127e6576127e66159cb565b146128595760405162461bcd60e51b815260206004820152603060248201527f41667465722063616e63656c696e672c206f6e6c79204f7574707574206f666660448201527f65727320697320617661696c61626c650000000000000000000000000000000060648201526084016106e5565b8551604051636165696f60e01b815260048101919091526000903090636165696f9060240160206040518083038186803b15801561289657600080fd5b505afa1580156128aa573d6000803e3d6000fd5b505050506040513d601f19601f820116820180604052508101906128ce9190615cc6565b905060018560140160008360028111156128ea576128ea6159cb565b60028111156128fb576128fb6159cb565b815260200190815260200160002060008282546129189190615c97565b9091555050865161292b908690836149c8565b505060008460400151600014156129b35785516040516308e161a160e21b81526004810191909152309063238586849060240160206040518083038186803b15801561297657600080fd5b505afa15801561298a573d6000803e3d6000fd5b505050506040513d601f19601f820116820180604052508101906129ae9190615bc2565b6129b9565b84604001515b9050600080806129ca89858561428b565b6001808a015481830180546001600160a01b0319166001600160a01b039092169190911790558c825560038a0180549182018155600090815260209020018290559092509050612a32600f880142600282015560030180546001600160a01b03191633179055565b8387601801541015612a865760405162461bcd60e51b815260206004820152601f60248201527f4e6f7420656e6f75676820706172656e74206f72646572206465706f7369740060448201526064016106e5565b83876018016000828254612a9a9190615caf565b9250508190555083816018016000828254612ab59190615c97565b9091555050875115612ba3576006600888015460ff166007811115612adc57612adc6159cb565b1480612b0057506007600888015460ff166007811115612afe57612afe6159cb565b145b612b725760405162461bcd60e51b815260206004820152602c60248201527f4f72646572206d75737420626520696e20426c6f636b6564206f72205375737060448201527f656e64656420737461747573000000000000000000000000000000000000000060648201526084016106e5565b6000828152601688016020526040812060019081905560178901805491929091612b9d908490615c97565b90915550505b8851602089015160405133907fcdad6ab97fde7ccd3b74637bbb09ac75c9a4bf8b5684d210c9e61869bc67ac9b90612bde9087815260200190565b60405180910390a46040518a9083907f862f137e7eeb5c8accaf91684d1f4344b5cdd331f887278389821125e4a1dab990600090a38851604051630624204f60e01b815260048101919091523090630624204f9060240160206040518083038186803b158015612c4d57600080fd5b505afa158015612c61573d6000803e3d6000fd5b505050506040513d601f19601f82011682018060405250810190612c859190615bdb565b15612c9857612c938261494e565b612d00565b30895160405163d7208bb160e01b81526004810185905260248101919091526001600160a01b03919091169063d7208bb190604401600060405180830381600087803b158015612ce757600080fd5b505af1158015612cfb573d6000803e3d6000fd5b505050505b50505050505050505050565b6000818152600080516020615e04833981519152602052604081206004600882015460ff166007811115612d4257612d426159cb565b1480612d6657506005600882015460ff166007811115612d6457612d646159cb565b145b806119f6575060036119db565b60007ff68437791109705d2e300a0b0cfc858fedffc7438da1d9bf937e2f34afa0df7682158015906119f657505490911115919050565b6000612db46153e0565b6040805180820190915260608152600060208201526000612ded856000908152600080516020615e048339815191526020526040902090565b90508060010160009054906101000a90046001600160a01b03168160040182600c01816040518060c001604052908160008201548152602001600182018054612e3590615ce7565b80601f0160208091040260200160405190810160405280929190818152602001828054612e6190615ce7565b8015612eae5780601f10612e8357610100808354040283529160200191612eae565b820191906000526020600020905b815481529060010190602001808311612e9157829003601f168201915b50505050508152602001600282018054612ec790615ce7565b80601f0160208091040260200160405190810160405280929190818152602001828054612ef390615ce7565b8015612f405780601f10612f1557610100808354040283529160200191612f40565b820191906000526020600020905b815481529060010190602001808311612f2357829003601f168201915b50505050508152602001600382018054612f5990615ce7565b80601f0160208091040260200160405190810160405280929190818152602001828054612f8590615ce7565b8015612fd25780601f10612fa757610100808354040283529160200191612fd2565b820191906000526020600020905b815481529060010190602001808311612fb557829003601f168201915b5050509183525050600482015460209091019060ff166007811115612ff957612ff96159cb565b600781111561300a5761300a6159cb565b815260200160058201604051806060016040529081600082015481526020016001820180548060200260200160405190810160405280929190818152602001828054801561307757602002820191906000526020600020905b815481526020019060010190808311613063575b50505050508152602001600282018054806020026020016040519081016040528092919081815260200182805480156130cf57602002820191906000526020600020905b8154815260200190600101908083116130bb575b505050505081525050815250509150806040518060400160405290816000820180546130fa90615ce7565b80601f016020809104026020016040519081016040528092919081815260200182805461312690615ce7565b80156131735780601f1061314857610100808354040283529160200191613173565b820191906000526020600020905b81548152906001019060200180831161315657829003601f168201915b505050505081526020016001820154815250509050935093509350509193909250565b6000828152600080516020615e0483398151915260205260408120839150600030600483810154604051634e6e04f760e01b8152918201526001600160a01b039190911690634e6e04f79060240160206040518083038186803b1580156131fc57600080fd5b505afa158015613210573d6000803e3d6000fd5b505050506040513d601f19601f820116820180604052508101906132349190615ba5565b905060003060405163071ddd6760e11b81526001600160a01b0384811660048301529190911690630e3bbace9060240160206040518083038186803b15801561327c57600080fd5b505afa158015613290573d6000803e3d6000fd5b505050506040513d601f19601f820116820180604052508101906132b49190615ba5565b90506001600160a01b03811633146133185760405162461bcd60e51b815260206004820152602160248201527f4f6e6c7920617661696c61626c6520666f7220616374696f6e206163636f756e6044820152601d60fa1b60648201526084016106e5565b6000868152600080516020615e048339815191526020526040902061333c87614114565b6133ae5760405162461bcd60e51b815260206004820152603060248201527f5370656e74206465706f736974206d757374206265206368616e676520696e2060448201527f70726f63657373696e672073746174650000000000000000000000000000000060648201526084016106e5565b80601801548611156134285760405162461bcd60e51b815260206004820152603860248201527f4465706f736974207370656e74206d757374206265206c657373207468616e2060448201527f6f7220657175616c20746f20686f6c64206465706f736974000000000000000060648201526084016106e5565b601a8101869055600181015460405187815288916001600160a01b0316907f25d1f8deb5c0aaa3f1c70a4e07b3ad34335ee864f47de8c0dca68a7c91dd0542906020016107ea565b6000818152600080516020615e04833981519152602052604081209050600030600483810154604051634e6e04f760e01b8152918201526001600160a01b039190911690634e6e04f79060240160206040518083038186803b1580156134d557600080fd5b505afa1580156134e9573d6000803e3d6000fd5b505050506040513d601f19601f8201168201806040525081019061350d9190615ba5565b90506000306040517f0cc079f30000000000000000000000000000000000000000000000000000000081526001600160a01b0384811660048301529190911690630cc079f39060240160206040518083038186803b15801561356e57600080fd5b505afa158015613582573d6000803e3d6000fd5b505050506040513d601f19601f820116820180604052508101906135a69190615ba5565b60405163897ce7cf60e01b8152909150600090309063897ce7cf906135d090600190600401615c1c565b60206040518083038186803b1580156135e857600080fd5b505afa1580156135fc573d6000803e3d6000fd5b505050506040513d601f19601f820116820180604052508101906136209190615bc2565b601a85015490915061363186612d0c565b61368e5760405162461bcd60e51b815260206004820152602860248201527f57697468647261776e20617661696c61626c65207768656e206f7264657220636044820152671bdb5c1b195d195960c21b60648201526084016106e5565b336001600160a01b0384161461370c5760405162461bcd60e51b815260206004820152603160248201527f417661696c61626c65206f6e6c7920666f722070726f766964657220746f6b6560448201527f6e2072656369766572206163636f756e7400000000000000000000000000000060648201526084016106e5565b6013850154610100900460ff16156137665760405162461bcd60e51b815260206004820152601860248201527f50726f66697420616c72656164792077697468647261776e000000000000000060448201526064016106e5565b61376e614213565b6040517f095ea7b3000000000000000000000000000000000000000000000000000000008152306004820152602481018390526001600160a01b03919091169063095ea7b390604401602060405180830381600087803b1580156137d157600080fd5b505af11580156137e5573d6000803e3d6000fd5b505050506040513d601f19601f820116820180604052508101906138099190615bdb565b50306040517f2ee409080000000000000000000000000000000000000000000000000000000081526001600160a01b038581166004830152602482018490529190911690632ee4090890604401600060405180830381600087803b15801561387057600080fd5b505af1158015613884573d6000803e3d6000fd5b5050505061388f3090565b6001600160a01b031663d719a90d60018584866040518563ffffffff1660e01b81526004016138c19493929190615d22565b600060405180830381600087803b1580156138db57600080fd5b505af11580156138ef573d6000803e3d6000fd5b50505050808560180160008282546139079190615caf565b909155505060138501805461ff001916610100179055604051869033907fe2350354b45acad228120b59d977f2e487571e8d75fb3b74252a1034464449b89061244b9085815260200190565b8161395d81612d73565b6139995760405162461bcd60e51b815260206004820152600d60248201526c2ab735b737bbb71037b93232b960991b60448201526064016106e5565b6000838152600080516020615e048339815191526020526040902033906139bf85612d0c565b1580156139e557506002600882015460ff1660078111156139e2576139e26159cb565b14155b613a3b5760405162461bcd60e51b815260206004820152602160248201527f436f6d706c65746564206f726465722063616e277420626520726566696c6c656044820152601960fa1b60648201526084016106e5565b60018101546001600160a01b03838116911614613a9a5760405162461bcd60e51b815260206004820152600e60248201527f4f776e6572206d69736d6174636800000000000000000000000000000000000060448201526064016106e5565b613aa2614213565b604051636eb1769f60e11b81526001600160a01b038481166004830152306024830152919091169063dd62ed3e9060440160206040518083038186803b158015613aeb57600080fd5b505afa158015613aff573d6000803e3d6000fd5b505050506040513d601f19601f82011682018060405250810190613b239190615bc2565b841115613b985760405162461bcd60e51b815260206004820152602660248201527f416c6c6f77656420746f6b656e73206c657373207468616e20726566696c6c2060448201527f616d6f756e74000000000000000000000000000000000000000000000000000060648201526084016106e5565b613ba0614213565b6040516323b872dd60e01b81526001600160a01b0384811660048301523060248301526044820187905291909116906323b872dd90606401602060405180830381600087803b158015613bf257600080fd5b505af1158015613c06573d6000803e3d6000fd5b505050506040513d601f19601f82011682018060405250810190613c2a9190615bdb565b5083816018016000828254613c3f9190615c97565b909155505060405184815285906001600160a01b038416907f5dd58c11f2973d8fca72f1cffb326b5af815e81232ff1e581a7d534344fad71f9060200160405180910390a35050505050565b6000828152600080516020615e0483398151915260205260408120839150600030600483810154604051634e6e04f760e01b8152918201526001600160a01b039190911690634e6e04f79060240160206040518083038186803b158015613cf157600080fd5b505afa158015613d05573d6000803e3d6000fd5b505050506040513d601f19601f82011682018060405250810190613d299190615ba5565b905060003060405163071ddd6760e11b81526001600160a01b0384811660048301529190911690630e3bbace9060240160206040518083038186803b158015613d7157600080fd5b505afa158015613d85573d6000803e3d6000fd5b505050506040513d601f19601f82011682018060405250810190613da99190615ba5565b90506001600160a01b0381163314613e0d5760405162461bcd60e51b815260206004820152602160248201527f4f6e6c7920617661696c61626c6520666f7220616374696f6e206163636f756e6044820152601d60fa1b60648201526084016106e5565b6000868152600080516020615e0483398151915260205260409020600881015460019060ff166007811115613e4457613e446159cb565b1480613e6857506002600882015460ff166007811115613e6657613e666159cb565b145b613eda5760405162461bcd60e51b815260206004820152603060248201527f4f72646572206d75737420626520696e20612070726f63657373696e67206f7260448201527f2063616e63656c696e672073746174650000000000000000000000000000000060648201526084016106e5565b613efc81600f0142600282015560030180546001600160a01b03191633179055565b8551613f1190600c830190602089019061535c565b50600181015460405188916001600160a01b0316907fc3727ad3658a9131981b1b617e2928362ba398c4c5e7f3044ad2cadd44325568906107ea90600c860190615d5b565b6000806002846007811115613f6d57613f6d6159cb565b148015613f8b57506003836007811115613f8957613f896159cb565b145b9050600080856007811115613fa257613fa26159cb565b1480613fbf57506001856007811115613fbd57613fbd6159cb565b145b8015613fdc57506001846007811115613fda57613fda6159cb565b145b90508180613fe75750805b95945050505050565b6000828152600080516020615e048339815191526020526040902060088101805483919060ff1916600183600781111561402c5761402c6159cb565b0217905550816007811115614043576140436159cb565b60405184907fd9a86b644eb5f5b43cc8a700849852481080361c7a4b00ba646d1b46c5585f9590600090a3505050565b6000828152600080516020615e048339815191526020526040808220805480845291909220906140a35750505050565b600084815260168201602052604090205460011480156140d85760018260170160008282546140d29190615caf565b90915550505b8380156140e25750805b806140ef57506017820154155b1561410d57825461410d908561410657600061521c565b600561521c565b5050505050565b6000818152600080516020615e04833981519152602052604081206001600882015460ff16600781111561414a5761414a6159cb565b14156141595750600192915050565b6002600882015460ff166007811115614174576141746159cb565b1480156141fc575030600482810154604051634221048560e11b8152918201526001600160a01b039190911690638442090a9060240160206040518083038186803b1580156141c257600080fd5b505afa1580156141d6573d6000803e3d6000fd5b505050506040513d601f19601f820116820180604052508101906141fa9190615bdb565b155b1561420a5750600192915050565b50600092915050565b6000306001600160a01b03166321df0da76040518163ffffffff1660e01b815260040160206040518083038186803b15801561424e57600080fd5b505afa158015614262573d6000803e3d6000fd5b505050506040513d601f19601f820116820180604052508101906142869190615ba5565b905090565b8251604051634e6e04f760e01b815260048101919091526000908190339082903090634e6e04f79060240160206040518083038186803b1580156142ce57600080fd5b505afa1580156142e2573d6000803e3d6000fd5b505050506040513d601f19601f820116820180604052508101906143069190615ba5565b8751604051633835b0d360e01b815260048101919091529091506000903090633835b0d39060240160206040518083038186803b15801561434657600080fd5b505afa15801561435a573d6000803e3d6000fd5b505050506040513d601f19601f8201168201806040525081019061437e9190615c45565b9050600080826003811115614395576143956159cb565b8a516040517fe51334fb000000000000000000000000000000000000000000000000000000008152600481019190915291149150309063e51334fb9060240160206040518083038186803b1580156143ec57600080fd5b505afa158015614400573d6000803e3d6000fd5b505050506040513d601f19601f820116820180604052508101906144249190615bdb565b6144705760405162461bcd60e51b815260206004820152601460248201527f4f66666572206d7573742062652061637469766500000000000000000000000060448201526064016106e5565b306040517fded116690000000000000000000000000000000000000000000000000000000081526001600160a01b038581166004830152919091169063ded116699060240160206040518083038186803b1580156144cd57600080fd5b505afa1580156144e1573d6000803e3d6000fd5b505050506040513d601f19601f820116820180604052508101906145059190615bdb565b61455d5760405162461bcd60e51b8152602060048201526024808201527f4e6f7420656e6f7567682070726f7669646572207365637572697479206465706044820152631bdcda5d60e21b60648201526084016106e5565b8015806145f2575088516040517f3d8e40e200000000000000000000000000000000000000000000000000000000815260048101919091523090633d8e40e29060240160206040518083038186803b1580156145b857600080fd5b505afa1580156145cc573d6000803e3d6000fd5b505050506040513d601f19601f820116820180604052508101906145f09190615bdb565b155b6146635760405162461bcd60e51b8152602060048201526024808201527f544545206f666665722062656e63686d61726b206d757374206265207665726960448201527f666965640000000000000000000000000000000000000000000000000000000060648201526084016106e5565b600061466d61531d565b6000818152600080516020615e0483398151915260205260408120919250906001810180546001600160a01b0319166001600160a01b0389161790558b51600482019081556020808e015180519394508e936146cf926005870192019061535c565b50604082015180516146eb91600284019160209091019061535c565b506060820151805161470791600384019160209091019061535c565b50608082015160048201805460ff1916600183600781111561472b5761472b6159cb565b021790555060a082015180516005830190815560208083015180516147569260068701920190615448565b5060408201518051614772916002840191602090910190615448565b505042600f8501819055601085018054336001600160a01b031991821681179092556011870192909255601286018054909216179055506147b1915050565b600e8101805485919060ff191660018360038111156147d2576147d26159cb565b0217905550600d81018a9055886147ea5760006147ed565b60075b60088201805460ff1916600183600781111561480b5761480b6159cb565b021790555060a08b015160200151511561493e5760005b8b60a00151602001515181101561493c5760008c60a0015160200151828151811061484f5761484f615c2f565b6020026020010151905060018360150160006148683090565b6001600160a01b0316633835b0d3856040518263ffffffff1660e01b815260040161489591815260200190565b60206040518083038186803b1580156148ad57600080fd5b505afa1580156148c1573d6000803e3d6000fd5b505050506040513d601f19601f820116820180604052508101906148e59190615c45565b60038111156148f6576148f66159cb565b6003811115614907576149076159cb565b815260200190815260200160002060008282546149249190615c97565b909155506149359150829050615c7c565b9050614822565b505b909a909950975050505050505050565b614959816004613ff0565b614964816000614073565b6000818152600080516020615e04833981519152602052604090204260118201556012810180546001600160a01b031916331790556040805160208101918290526000908190526149b991600c84019161535c565b50600d810154601a9091015550565b600030600485810154604051636165696f60e01b8152918201526001600160a01b039190911690636165696f9060240160206040518083038186803b158015614a1057600080fd5b505afa158015614a24573d6000803e3d6000fd5b505050506040513d601f19601f82011682018060405250810190614a489190615cc6565b90506002816002811115614a5e57614a5e6159cb565b1415614ad25760405162461bcd60e51b815260206004820152602b60248201527f5375626f726465727320666f7220276f7574707574272067726f75702069732060448201527f6e6f7420616c6c6f77656400000000000000000000000000000000000000000060648201526084016106e5565b6002826002811115614ae657614ae66159cb565b148015614af65750600b84015415155b15614bcd576000805b600b860154811015614b5557600b860180546000919083908110614b2557614b25615c2f565b9060005260206000200154905085811415614b44576001925050614b55565b50614b4e81615c7c565b9050614aff565b5080614bcb576040805162461bcd60e51b81526020600482015260248101919091527f4f6666657220646f6573206e6f74207361746973667920706172656e74206f7260448201527f6465722073656c65637465644f66666572732073706563696669636174696f6e60648201526084016106e5565b505b6000826002811115614be157614be16159cb565b1415614dac576000805b600a860154811015614d3657600a860180546000919083908110614c1157614c11615c2f565b90600052602060002001549050614c253090565b60405163cc04f00360e01b815260048101889052602481018390526001600160a01b03919091169063cc04f0039060440160206040518083038186803b158015614c6e57600080fd5b505afa158015614c82573d6000803e3d6000fd5b505050506040513d601f19601f82011682018060405250810190614ca69190615bdb565b614d185760405162461bcd60e51b815260206004820152603c60248201527f4f66666572207265737472696374696f6e7320636f6e666c696374732077697460448201527f6820706172656e74206f726465722073706563696669636174696f6e0000000060648201526084016106e5565b85811415614d2557600192505b50614d2f81615c7c565b9050614beb565b5080614daa5760405162461bcd60e51b815260206004820152603d60248201527f4f6666657220646f6573206e6f74207361746973667920706172656e74206f7260448201527f64657220696e7075744f66666572732073706563696669636174696f6e00000060648201526084016106e5565b505b604051631e5dd86b60e01b81523090631e5dd86b90614dd2908690600290600401615bf8565b60206040518083038186803b158015614dea57600080fd5b505afa158015614dfe573d6000803e3d6000fd5b505050506040513d601f19601f82011682018060405250810190614e229190615bdb565b15614eb65760026000908152601585016020526040902054614eb65760405162461bcd60e51b815260206004820152604160248201527f506172656e74206f726465722073706563696669636174696f6e20646f65732060448201527f6e6f742073617469736679207375626f66666572207265737472696374696f6e6064820152607360f81b608482015260a4016106e5565b604051631e5dd86b60e01b81523090631e5dd86b90614edc908690600390600401615bf8565b60206040518083038186803b158015614ef457600080fd5b505afa158015614f08573d6000803e3d6000fd5b505050506040513d601f19601f82011682018060405250810190614f2c9190615bdb565b15614fc05760036000908152601585016020526040902054614fc05760405162461bcd60e51b815260206004820152604160248201527f506172656e74206f726465722073706563696669636174696f6e20646f65732060448201527f6e6f742073617469736679207375626f66666572207265737472696374696f6e6064820152607360f81b608482015260a4016106e5565b604051631e5dd86b60e01b81523090631e5dd86b90614fe6908690600190600401615bf8565b60206040518083038186803b158015614ffe57600080fd5b505afa158015615012573d6000803e3d6000fd5b505050506040513d601f19601f820116820180604052508101906150369190615bdb565b156150ca57600160009081526015850160205260409020546150ca5760405162461bcd60e51b815260206004820152604160248201527f506172656e74206f726465722073706563696669636174696f6e20646f65732060448201527f6e6f742073617469736679207375626f66666572207265737472696374696f6e6064820152607360f81b608482015260a4016106e5565b604051631e5dd86b60e01b81523090631e5dd86b906150f0908690600090600401615bf8565b60206040518083038186803b15801561510857600080fd5b505afa15801561511c573d6000803e3d6000fd5b505050506040513d601f19601f820116820180604052508101906151409190615bdb565b15615216573060048086015460405163cc04f00360e01b815291820186905260248201526001600160a01b03919091169063cc04f0039060440160206040518083038186803b15801561519257600080fd5b505afa1580156151a6573d6000803e3d6000fd5b505050506040513d601f19601f820116820180604052508101906151ca9190615bdb565b6152165760405162461bcd60e51b815260206004820152601f60248201527f4f6666657220646973616c6c6f7720706172656e7420544545206f666665720060448201526064016106e5565b50505050565b6000828152600080516020615e04833981519152602052604090204260118201556012810180546001600160a01b03191633179055600061525c8461199b565b8061527f57506002600883015460ff16600781111561527d5761527d6159cb565b145b90506000811580156152a2575060058460078111156152a0576152a06159cb565b145b905060006006600885015460ff1660078111156152c1576152c16159cb565b1480156152df575060008560078111156152dd576152dd6159cb565b145b905081806152ea5750805b15610b2a5760088401805486919060ff19166001836007811115615310576153106159cb565b0217905550505050505050565b7ff68437791109705d2e300a0b0cfc858fedffc7438da1d9bf937e2f34afa0df768054600091908190839061535190615c7c565b918290555092915050565b82805461536890615ce7565b90600052602060002090601f01602090048101928261538a57600085556153d0565b82601f106153a357805160ff19168380011785556153d0565b828001600101855582156153d0579182015b828111156153d05782518255916020019190600101906153b5565b506153dc929150615482565b5090565b6040518060c00160405280600081526020016060815260200160608152602001606081526020016000600781111561541a5761541a6159cb565b815260200161544360405180606001604052806000815260200160608152602001606081525090565b905290565b8280548282559060005260206000209081019282156153d057916020028201828111156153d05782518255916020019190600101906153b5565b5b808211156153dc5760008155600101615483565b6000602082840312156154a957600080fd5b5035919050565b80151581146154be57600080fd5b50565b600080604083850312156154d457600080fd5b8235915060208301356154e6816154b0565b809150509250929050565b80356008811061550057600080fd5b919050565b634e487b7160e01b600052604160045260246000fd5b6040516060810167ffffffffffffffff8111828210171561553e5761553e615505565b60405290565b60405160c0810167ffffffffffffffff8111828210171561553e5761553e615505565b604051601f8201601f1916810167ffffffffffffffff8111828210171561559057615590615505565b604052919050565b600082601f8301126155a957600080fd5b813567ffffffffffffffff8111156155c3576155c3615505565b6155d6601f8201601f1916602001615567565b8181528460208386010111156155eb57600080fd5b816020850160208301376000918101602001919091529392505050565b60008060006060848603121561561d57600080fd5b8335925061562d602085016154f1565b9150604084013567ffffffffffffffff81111561564957600080fd5b61565586828701615598565b9150509250925092565b6000806040838503121561567257600080fd5b50508035926020909101359150565b6020808252825182820181905260009190848201906040850190845b818110156156b95783518352928401929184019160010161569d565b50909695505050505050565b600082601f8301126156d657600080fd5b8135602067ffffffffffffffff8211156156f2576156f2615505565b8160051b615701828201615567565b928352848101820192828101908785111561571b57600080fd5b83870192505b8483101561573a57823582529183019190830190615721565b979650505050505050565b60006060828403121561575757600080fd5b61575f61551b565b905081358152602082013567ffffffffffffffff8082111561578057600080fd5b61578c858386016156c5565b602084015260408401359150808211156157a557600080fd5b506157b2848285016156c5565b60408301525092915050565b600060c082840312156157d057600080fd5b6157d8615544565b905081358152602082013567ffffffffffffffff808211156157f957600080fd5b61580585838601615598565b6020840152604084013591508082111561581e57600080fd5b61582a85838601615598565b6040840152606084013591508082111561584357600080fd5b61584f85838601615598565b6060840152615860608085016154f1565b608084015260a084013591508082111561587957600080fd5b5061588684828501615745565b60a08301525092915050565b600080600080608085870312156158a857600080fd5b843567ffffffffffffffff8111156158bf57600080fd5b6158cb878288016157be565b9450506020850135925060408501356158e3816154b0565b9396929550929360600135925050565b600080600083850360a081121561590957600080fd5b84359350602085013567ffffffffffffffff81111561592757600080fd5b615933878288016157be565b9350506060603f198201121561594857600080fd5b5061595161551b565b604085013561595f816154b0565b8152606085013560208201526080909401356040850152509093909250565b6000815180845260005b818110156159a457602081850181015186830182015201615988565b818111156159b6576000602083870101525b50601f01601f19169290920160200192915050565b634e487b7160e01b600052602160045260246000fd5b600881106154be576154be6159cb565b600081518084526020808501945080840160005b83811015615a2157815187529582019590820190600101615a05565b509495945050505050565b6000815160408452615a41604085018261597e565b602093840151949093019390935250919050565b6001600160a01b038416815260606020820152825160608201526000602084015160c06080840152615a8b61012084018261597e565b90506040850151605f19808584030160a0860152615aa9838361597e565b925060608701519150808584030160c0860152615ac6838361597e565b925060808701519150615ad8826159e1565b8160e086015260a0870151915080858403016101008601525080518252602081015160606020840152615b0e60608401826159f1565b9050604082015191508281036040840152615b2981836159f1565b925050508281036040840152615b3f8185615a2c565b9695505050505050565b60008060408385031215615b5c57600080fd5b82359150602083013567ffffffffffffffff811115615b7a57600080fd5b615b8685828601615598565b9150509250929050565b6001600160a01b03811681146154be57600080fd5b600060208284031215615bb757600080fd5b81516119f681615b90565b600060208284031215615bd457600080fd5b5051919050565b600060208284031215615bed57600080fd5b81516119f6816154b0565b8281526040810160048310615c0f57615c0f6159cb565b8260208301529392505050565b60208101615c29836159e1565b91905290565b634e487b7160e01b600052603260045260246000fd5b600060208284031215615c5757600080fd5b8151600481106119f657600080fd5b634e487b7160e01b600052601160045260246000fd5b6000600019821415615c9057615c90615c66565b5060010190565b60008219821115615caa57615caa615c66565b500190565b600082821015615cc157615cc1615c66565b500390565b600060208284031215615cd857600080fd5b8151600381106119f657600080fd5b600181811c90821680615cfb57607f821691505b60208210811415615d1c57634e487b7160e01b600052602260045260246000fd5b50919050565b6080810160038610615d3657615d366159cb565b9481526001600160a01b03939093166020840152604083019190915260609091015290565b600060208083526000845481600182811c915080831680615d7d57607f831692505b858310811415615d9b57634e487b7160e01b85526022600452602485fd5b878601838152602001818015615db85760018114615dc957615df4565b60ff19861682528782019650615df4565b60008b81526020902060005b86811015615dee57815484820152908501908901615dd5565b83019750505b5094999850505050505050505056fef68437791109705d2e300a0b0cfc858fedffc7438da1d9bf937e2f34afa0df77a2646970667358221220b41a9cbe49e069712b5724c7af834b7c7cc44413403386a5cd0534f8dc9063d864736f6c63430008090033",
  "linkReferences": {},
  "deployedLinkReferences": {}
}