{
  "_format": "hh-sol-artifact-1",
  "contractName": "Orders",
  "sourceName": "contracts/Orders.sol",
  "abi": [
    {
      "anonymous": false,
      "inputs": [
        {
          "indexed": true,
          "internalType": "address",
          "name": "consumer",
          "type": "address"
        },
        {
          "indexed": true,
          "internalType": "uint256",
          "name": "orderId",
          "type": "uint256"
        },
        {
          "indexed": false,
          "internalType": "bool",
          "name": "value",
          "type": "bool"
        }
      ],
      "name": "OrderAwaitingPaymentChanged",
      "type": "event"
    },
    {
      "anonymous": false,
      "inputs": [
        {
          "indexed": true,
          "internalType": "address",
          "name": "consumer",
          "type": "address"
        },
        {
          "indexed": true,
          "internalType": "uint256",
          "name": "orderId",
          "type": "uint256"
        },
        {
          "indexed": false,
          "internalType": "uint256",
          "name": "change",
          "type": "uint256"
        }
      ],
      "name": "OrderChangedWithdrawn",
      "type": "event"
    },
    {
      "anonymous": false,
      "inputs": [
        {
          "indexed": true,
          "internalType": "address",
          "name": "consumer",
          "type": "address"
        },
        {
          "indexed": true,
          "internalType": "bytes32",
          "name": "externalId",
          "type": "bytes32"
        },
        {
          "indexed": true,
          "internalType": "uint256",
          "name": "offerId",
          "type": "uint256"
        },
        {
          "indexed": false,
          "internalType": "uint256",
          "name": "orderId",
          "type": "uint256"
        }
      ],
      "name": "OrderCreated",
      "type": "event"
    },
    {
      "anonymous": false,
      "inputs": [
        {
          "indexed": true,
          "internalType": "address",
          "name": "consumer",
          "type": "address"
        },
        {
          "indexed": true,
          "internalType": "uint256",
          "name": "orderId",
          "type": "uint256"
        },
        {
          "indexed": false,
          "internalType": "uint256",
          "name": "amount",
          "type": "uint256"
        }
      ],
      "name": "OrderDepositRefilled",
      "type": "event"
    },
    {
      "anonymous": false,
      "inputs": [
        {
          "indexed": true,
          "internalType": "address",
          "name": "consumer",
          "type": "address"
        },
        {
          "indexed": true,
          "internalType": "uint256",
          "name": "orderId",
          "type": "uint256"
        },
        {
          "indexed": false,
          "internalType": "uint256",
          "name": "value",
          "type": "uint256"
        }
      ],
      "name": "OrderDepositSpentChanged",
      "type": "event"
    },
    {
      "anonymous": false,
      "inputs": [
        {
          "indexed": true,
          "internalType": "address",
          "name": "consumer",
          "type": "address"
        },
        {
          "indexed": true,
          "internalType": "uint256",
          "name": "orderId",
          "type": "uint256"
        },
        {
          "indexed": false,
          "internalType": "string",
          "name": "encryptedResult",
          "type": "string"
        }
      ],
      "name": "OrderEncryptedResultUpdated",
      "type": "event"
    },
    {
      "anonymous": false,
      "inputs": [
        {
          "indexed": true,
          "internalType": "uint256",
          "name": "orderId",
          "type": "uint256"
        },
        {
          "indexed": false,
          "internalType": "uint256",
          "name": "price",
          "type": "uint256"
        }
      ],
      "name": "OrderPriceUpdated",
      "type": "event"
    },
    {
      "anonymous": false,
      "inputs": [
        {
          "indexed": true,
          "internalType": "address",
          "name": "tokenReceiver",
          "type": "address"
        },
        {
          "indexed": true,
          "internalType": "uint256",
          "name": "orderId",
          "type": "uint256"
        },
        {
          "indexed": false,
          "internalType": "uint256",
          "name": "profit",
          "type": "uint256"
        }
      ],
      "name": "OrderProfitWithdrawn",
      "type": "event"
    },
    {
      "anonymous": false,
      "inputs": [
        {
          "indexed": true,
          "internalType": "address",
          "name": "consumer",
          "type": "address"
        },
        {
          "indexed": true,
          "internalType": "uint256",
          "name": "orderId",
          "type": "uint256"
        }
      ],
      "name": "OrderStarted",
      "type": "event"
    },
    {
      "anonymous": false,
      "inputs": [
        {
          "indexed": true,
          "internalType": "uint256",
          "name": "orderId",
          "type": "uint256"
        },
        {
          "indexed": true,
          "internalType": "enum OrderStatus",
          "name": "status",
          "type": "uint8"
        }
      ],
      "name": "OrderStatusUpdated",
      "type": "event"
    },
    {
      "anonymous": false,
      "inputs": [
        {
          "indexed": true,
          "internalType": "address",
          "name": "consumer",
          "type": "address"
        },
        {
          "indexed": true,
          "internalType": "bytes32",
          "name": "externalId",
          "type": "bytes32"
        },
        {
          "indexed": true,
          "internalType": "uint256",
          "name": "subOfferId",
          "type": "uint256"
        },
        {
          "indexed": false,
          "internalType": "uint256",
          "name": "subOrderId",
          "type": "uint256"
        },
        {
          "indexed": false,
          "internalType": "uint256",
          "name": "parentOrderId",
          "type": "uint256"
        }
      ],
      "name": "SubOrderCreated",
      "type": "event"
    },
    {
      "inputs": [
        {
          "internalType": "uint256",
          "name": "orderId",
          "type": "uint256"
        }
      ],
      "name": "cancelOrder",
      "outputs": [],
      "stateMutability": "nonpayable",
      "type": "function"
    },
    {
      "inputs": [
        {
          "internalType": "uint256",
          "name": "orderId",
          "type": "uint256"
        },
        {
          "internalType": "enum OrderStatus",
          "name": "status",
          "type": "uint8"
        },
        {
          "internalType": "string",
          "name": "encryptedResult",
          "type": "string"
        }
      ],
      "name": "completeOrder",
      "outputs": [],
      "stateMutability": "nonpayable",
      "type": "function"
    },
    {
      "inputs": [
        {
          "components": [
            {
              "internalType": "uint256",
              "name": "offerId",
              "type": "uint256"
            },
            {
              "internalType": "string",
              "name": "resultPublicKey",
              "type": "string"
            },
            {
              "internalType": "string",
              "name": "encryptedRequirements",
              "type": "string"
            },
            {
              "internalType": "string",
              "name": "encryptedArgs",
              "type": "string"
            },
            {
              "internalType": "enum OrderStatus",
              "name": "status",
              "type": "uint8"
            },
            {
              "components": [
                {
                  "internalType": "uint256",
                  "name": "slots",
                  "type": "uint256"
                },
                {
                  "internalType": "uint256[]",
                  "name": "inputOffers",
                  "type": "uint256[]"
                },
                {
                  "internalType": "uint256[]",
                  "name": "selectedOffers",
                  "type": "uint256[]"
                }
              ],
              "internalType": "struct OrderArgs",
              "name": "args",
              "type": "tuple"
            }
          ],
          "internalType": "struct OrderInfo",
          "name": "info",
          "type": "tuple"
        },
        {
          "internalType": "uint256",
          "name": "holdDeposit",
          "type": "uint256"
        },
        {
          "internalType": "bool",
          "name": "suspended",
          "type": "bool"
        },
        {
          "internalType": "bytes32",
          "name": "externalId",
          "type": "bytes32"
        }
      ],
      "name": "createOrder",
      "outputs": [],
      "stateMutability": "nonpayable",
      "type": "function"
    },
    {
      "inputs": [
        {
          "internalType": "uint256",
          "name": "parentOrderId",
          "type": "uint256"
        },
        {
          "components": [
            {
              "internalType": "uint256",
              "name": "offerId",
              "type": "uint256"
            },
            {
              "internalType": "string",
              "name": "resultPublicKey",
              "type": "string"
            },
            {
              "internalType": "string",
              "name": "encryptedRequirements",
              "type": "string"
            },
            {
              "internalType": "string",
              "name": "encryptedArgs",
              "type": "string"
            },
            {
              "internalType": "enum OrderStatus",
              "name": "status",
              "type": "uint8"
            },
            {
              "components": [
                {
                  "internalType": "uint256",
                  "name": "slots",
                  "type": "uint256"
                },
                {
                  "internalType": "uint256[]",
                  "name": "inputOffers",
                  "type": "uint256[]"
                },
                {
                  "internalType": "uint256[]",
                  "name": "selectedOffers",
                  "type": "uint256[]"
                }
              ],
              "internalType": "struct OrderArgs",
              "name": "args",
              "type": "tuple"
            }
          ],
          "internalType": "struct OrderInfo",
          "name": "suborderInfo",
          "type": "tuple"
        },
        {
          "components": [
            {
              "internalType": "bool",
              "name": "blockParentOrder",
              "type": "bool"
            },
            {
              "internalType": "bytes32",
              "name": "externalId",
              "type": "bytes32"
            },
            {
              "internalType": "uint256",
              "name": "holdSum",
              "type": "uint256"
            }
          ],
          "internalType": "struct SubOrderParams",
          "name": "params",
          "type": "tuple"
        }
      ],
      "name": "createSubOrder",
      "outputs": [],
      "stateMutability": "nonpayable",
      "type": "function"
    },
    {
      "inputs": [
        {
          "internalType": "uint256",
          "name": "orderId",
          "type": "uint256"
        }
      ],
      "name": "getAwaitingPayment",
      "outputs": [
        {
          "internalType": "bool",
          "name": "",
          "type": "bool"
        }
      ],
      "stateMutability": "view",
      "type": "function"
    },
    {
      "inputs": [
        {
          "internalType": "uint256",
          "name": "orderId",
          "type": "uint256"
        }
      ],
      "name": "getDepositSpent",
      "outputs": [
        {
          "internalType": "uint256",
          "name": "",
          "type": "uint256"
        }
      ],
      "stateMutability": "view",
      "type": "function"
    },
    {
      "inputs": [
        {
          "internalType": "uint256",
          "name": "orderId",
          "type": "uint256"
        }
      ],
      "name": "getOrder",
      "outputs": [
        {
          "internalType": "address",
          "name": "",
          "type": "address"
        },
        {
          "components": [
            {
              "internalType": "uint256",
              "name": "offerId",
              "type": "uint256"
            },
            {
              "internalType": "string",
              "name": "resultPublicKey",
              "type": "string"
            },
            {
              "internalType": "string",
              "name": "encryptedRequirements",
              "type": "string"
            },
            {
              "internalType": "string",
              "name": "encryptedArgs",
              "type": "string"
            },
            {
              "internalType": "enum OrderStatus",
              "name": "status",
              "type": "uint8"
            },
            {
              "components": [
                {
                  "internalType": "uint256",
                  "name": "slots",
                  "type": "uint256"
                },
                {
                  "internalType": "uint256[]",
                  "name": "inputOffers",
                  "type": "uint256[]"
                },
                {
                  "internalType": "uint256[]",
                  "name": "selectedOffers",
                  "type": "uint256[]"
                }
              ],
              "internalType": "struct OrderArgs",
              "name": "args",
              "type": "tuple"
            }
          ],
          "internalType": "struct OrderInfo",
          "name": "",
          "type": "tuple"
        },
        {
          "components": [
            {
              "internalType": "string",
              "name": "encryptedResult",
              "type": "string"
            },
            {
              "internalType": "uint256",
              "name": "orderPrice",
              "type": "uint256"
            }
          ],
          "internalType": "struct OrderResult",
          "name": "",
          "type": "tuple"
        }
      ],
      "stateMutability": "view",
      "type": "function"
    },
    {
      "inputs": [
        {
          "internalType": "uint256",
          "name": "orderId",
          "type": "uint256"
        }
      ],
      "name": "getOrderChangeWithdrawn",
      "outputs": [
        {
          "internalType": "bool",
          "name": "",
          "type": "bool"
        }
      ],
      "stateMutability": "view",
      "type": "function"
    },
    {
      "inputs": [
        {
          "internalType": "uint256",
          "name": "orderId",
          "type": "uint256"
        }
      ],
      "name": "getOrderHoldDeposit",
      "outputs": [
        {
          "internalType": "uint256",
          "name": "",
          "type": "uint256"
        }
      ],
      "stateMutability": "view",
      "type": "function"
    },
    {
      "inputs": [
        {
          "internalType": "uint256",
          "name": "orderId",
          "type": "uint256"
        }
      ],
      "name": "getOrderOrigins",
      "outputs": [
        {
          "components": [
            {
              "internalType": "uint256",
              "name": "createdDate",
              "type": "uint256"
            },
            {
              "internalType": "address",
              "name": "createdBy",
              "type": "address"
            },
            {
              "internalType": "uint256",
              "name": "modifiedDate",
              "type": "uint256"
            },
            {
              "internalType": "address",
              "name": "modifiedBy",
              "type": "address"
            }
          ],
          "internalType": "struct Origins",
          "name": "",
          "type": "tuple"
        }
      ],
      "stateMutability": "view",
      "type": "function"
    },
    {
      "inputs": [
        {
          "internalType": "uint256",
          "name": "orderId",
          "type": "uint256"
        }
      ],
      "name": "getOrderParentOrder",
      "outputs": [
        {
          "internalType": "uint256",
          "name": "",
          "type": "uint256"
        }
      ],
      "stateMutability": "view",
      "type": "function"
    },
    {
      "inputs": [
        {
          "internalType": "uint256",
          "name": "orderId",
          "type": "uint256"
        }
      ],
      "name": "getOrderPrice",
      "outputs": [
        {
          "internalType": "uint256",
          "name": "",
          "type": "uint256"
        }
      ],
      "stateMutability": "view",
      "type": "function"
    },
    {
      "inputs": [
        {
          "internalType": "uint256",
          "name": "orderId",
          "type": "uint256"
        }
      ],
      "name": "getOrderProfitWithdrawn",
      "outputs": [
        {
          "internalType": "bool",
          "name": "",
          "type": "bool"
        }
      ],
      "stateMutability": "view",
      "type": "function"
    },
    {
      "inputs": [
        {
          "internalType": "uint256",
          "name": "orderId",
          "type": "uint256"
        }
      ],
      "name": "getOrderSubOrders",
      "outputs": [
        {
          "internalType": "uint256[]",
          "name": "",
          "type": "uint256[]"
        }
      ],
      "stateMutability": "view",
      "type": "function"
    },
    {
      "inputs": [],
      "name": "getOrdersCount",
      "outputs": [
        {
          "internalType": "uint256",
          "name": "",
          "type": "uint256"
        }
      ],
      "stateMutability": "view",
      "type": "function"
    },
    {
      "inputs": [
        {
          "internalType": "uint256",
          "name": "orderId",
          "type": "uint256"
        }
      ],
      "name": "isOrderCompleted",
      "outputs": [
        {
          "internalType": "bool",
          "name": "",
          "type": "bool"
        }
      ],
      "stateMutability": "view",
      "type": "function"
    },
    {
      "inputs": [
        {
          "internalType": "uint256",
          "name": "orderId",
          "type": "uint256"
        }
      ],
      "name": "isOrderStarted",
      "outputs": [
        {
          "internalType": "bool",
          "name": "",
          "type": "bool"
        }
      ],
      "stateMutability": "view",
      "type": "function"
    },
    {
      "inputs": [
        {
          "internalType": "uint256",
          "name": "orderId",
          "type": "uint256"
        }
      ],
      "name": "isOrderValid",
      "outputs": [
        {
          "internalType": "bool",
          "name": "",
          "type": "bool"
        }
      ],
      "stateMutability": "view",
      "type": "function"
    },
    {
      "inputs": [
        {
          "internalType": "uint256",
          "name": "orderId",
          "type": "uint256"
        }
      ],
      "name": "processOrder",
      "outputs": [],
      "stateMutability": "nonpayable",
      "type": "function"
    },
    {
      "inputs": [
        {
          "internalType": "uint256",
          "name": "orderId",
          "type": "uint256"
        },
        {
          "internalType": "uint256",
          "name": "amount",
          "type": "uint256"
        }
      ],
      "name": "refillOrder",
      "outputs": [],
      "stateMutability": "nonpayable",
      "type": "function"
    },
    {
      "inputs": [
        {
          "internalType": "uint256",
          "name": "orderId",
          "type": "uint256"
        },
        {
          "internalType": "bool",
          "name": "value",
          "type": "bool"
        }
      ],
      "name": "setAwaitingPayment",
      "outputs": [],
      "stateMutability": "nonpayable",
      "type": "function"
    },
    {
      "inputs": [
        {
          "internalType": "uint256",
          "name": "orderId",
          "type": "uint256"
        },
        {
          "internalType": "uint256",
          "name": "value",
          "type": "uint256"
        }
      ],
      "name": "setDepositSpent",
      "outputs": [],
      "stateMutability": "nonpayable",
      "type": "function"
    },
    {
      "inputs": [
        {
          "internalType": "uint256",
          "name": "orderId",
          "type": "uint256"
        }
      ],
      "name": "startOrder",
      "outputs": [],
      "stateMutability": "nonpayable",
      "type": "function"
    },
    {
      "inputs": [
        {
          "internalType": "uint256",
          "name": "orderId",
          "type": "uint256"
        },
        {
          "internalType": "uint256",
          "name": "orderPrice",
          "type": "uint256"
        }
      ],
      "name": "updateOrderPrice",
      "outputs": [],
      "stateMutability": "nonpayable",
      "type": "function"
    },
    {
      "inputs": [
        {
          "internalType": "uint256",
          "name": "orderId",
          "type": "uint256"
        },
        {
          "internalType": "string",
          "name": "encryptedResult",
          "type": "string"
        }
      ],
      "name": "updateOrderResult",
      "outputs": [],
      "stateMutability": "nonpayable",
      "type": "function"
    },
    {
      "inputs": [
        {
          "internalType": "uint256",
          "name": "orderId",
          "type": "uint256"
        }
      ],
      "name": "withdrawChange",
      "outputs": [],
      "stateMutability": "nonpayable",
      "type": "function"
    },
    {
      "inputs": [
        {
          "internalType": "uint256",
          "name": "orderId",
          "type": "uint256"
        }
      ],
      "name": "withdrawProfit",
      "outputs": [],
      "stateMutability": "nonpayable",
      "type": "function"
    }
  ],
  "bytecode": "0x608060405234801561001057600080fd5b5061528b806100206000396000f3fe608060405234801561001057600080fd5b50600436106101b95760003560e01c806388f4a6ba116100f9578063b5b3b05111610097578063d54f807611610071578063d54f8076146104c1578063d82a2bea146104d4578063df305d59146104e7578063e0ab5ae0146104fa57600080fd5b8063b5b3b05114610484578063c9bd9ff01461048c578063d09ef2411461049f57600080fd5b80639959a56b116100d35780639959a56b14610418578063a0a238491461042b578063a90f3a2d1461045e578063ab74e6421461047157600080fd5b806388f4a6ba146103c2578063920fba4f146103d5578063975c4727146103e857600080fd5b80635e9e78d011610166578063779e423f11610140578063779e423f146102df5780637a62b924146103225780637d41fdd91461035a578063835055c31461036d57600080fd5b80635e9e78d01461027c5780636eb691f41461028f578063752895dd146102bf57600080fd5b80632e5187fb116101975780632e5187fb146102435780632f191ee814610256578063514fcac71461026957600080fd5b80630f251358146101be57806319fed398146102015780631a02dc9214610216575b600080fd5b6101ee6101cc366004614904565b600090815260008051602061523683398151915260205260409020600d015490565b6040519081526020015b60405180910390f35b61021461020f36600461492e565b61050d565b005b6101ee610224366004614904565b6000908152600080516020615236833981519152602052604090205490565b610214610251366004614904565b6107a1565b610214610264366004614a75565b610ad8565b610214610277366004614904565b611038565b61021461028a366004614acc565b611231565b6101ee61029d366004614904565b6000908152600080516020615236833981519152602052604090206018015490565b6102d26102cd366004614904565b6114d8565b6040516101f89190614aee565b6103126102ed366004614904565b6000908152600080516020615236833981519152602052604090206013015460ff1690565b60405190151581526020016101f8565b610312610330366004614904565b60009081526000805160206152368339815191526020526040902060130154610100900460ff1690565b610214610368366004614904565b61154f565b61038061037b366004614904565b6116d9565b6040516101f89190815181526020808301516001600160a01b039081169183019190915260408084015190830152606092830151169181019190915260800190565b6103126103d0366004614904565b611764565b6102146103e3366004614cff565b6117c6565b6101ee6103f6366004614904565b600090815260008051602061523683398151915260205260409020601a015490565b610214610426366004614904565b611c51565b610312610439366004614904565b6000908152600080516020615236833981519152602052604090206019015460ff1690565b61021461046c366004614d60565b611ef6565b61031261047f366004614904565b6124a0565b6101ee612507565b61031261049a366004614904565b612540565b6104b26104ad366004614904565b612576565b6040516101f893929190614eb2565b6102146104cf366004614acc565b612962565b6102146104e2366004614904565b612bd6565b6102146104f5366004614acc565b6130f5565b610214610508366004614fad565b61335a565b600082815260008051602061523683398151915260205260408120839150600030600483810154604051634e6e04f760e01b8152918201526001600160a01b039190911690634e6e04f79060240160206040518083038186803b15801561057357600080fd5b505afa158015610587573d6000803e3d6000fd5b505050506040513d601f19601f820116820180604052508101906105ab9190615009565b905060003060405163071ddd6760e11b81526001600160a01b0384811660048301529190911690630e3bbace9060240160206040518083038186803b1580156105f357600080fd5b505afa158015610607573d6000803e3d6000fd5b505050506040513d601f19601f8201168201806040525081019061062b9190615009565b90506001600160a01b03811633146106945760405162461bcd60e51b815260206004820152602160248201527f4f6e6c7920617661696c61626c6520666f7220616374696f6e206163636f756e6044820152601d60fa1b60648201526084015b60405180910390fd5b600086815260008051602061523683398151915260205260409020600881015460019060ff1660078111156106cb576106cb614e38565b1461073e5760405162461bcd60e51b815260206004820152602360248201527f4f72646572206d75737420626520696e20612070726f63657373696e6720737460448201527f6174650000000000000000000000000000000000000000000000000000000000606482015260840161068b565b60198101805460ff1916871515908117909155600182015460405191825288916001600160a01b03909116907fb10fd7c76991a3f5a6ddad3affbfd91cba71af0ecf74de0aea2f04655f869133906020015b60405180910390a350505050505050565b600081815260008051602061523683398151915260205260408120829150600030600483810154604051634e6e04f760e01b8152918201526001600160a01b039190911690634e6e04f79060240160206040518083038186803b15801561080757600080fd5b505afa15801561081b573d6000803e3d6000fd5b505050506040513d601f19601f8201168201806040525081019061083f9190615009565b905060003060405163071ddd6760e11b81526001600160a01b0384811660048301529190911690630e3bbace9060240160206040518083038186803b15801561088757600080fd5b505afa15801561089b573d6000803e3d6000fd5b505050506040513d601f19601f820116820180604052508101906108bf9190615009565b90506001600160a01b03811633146109235760405162461bcd60e51b815260206004820152602160248201527f4f6e6c7920617661696c61626c6520666f7220616374696f6e206163636f756e6044820152601d60fa1b606482015260840161068b565b61092c856124a0565b1561099f5760405162461bcd60e51b815260206004820152602c60248201527f436f6d706c65746564206f726465722063616e27742062652072657475726e6560448201527f6420746f2070726f636573730000000000000000000000000000000000000000606482015260840161068b565b6109a885611764565b6109f45760405162461bcd60e51b815260206004820152601960248201527f4f72646572206861736e2774206265656e207374617274656400000000000000604482015260640161068b565b6000858152600080516020615236833981519152602052604090206008810154610a229060ff166001613625565b610a935760405162461bcd60e51b8152602060048201526024808201527f4e6f7420616c6c6f77656420746f207365742050726f63657373696e6720737460448201527f6174757300000000000000000000000000000000000000000000000000000000606482015260840161068b565b610ab581600f0142600282015560030180546001600160a01b03191633179055565b610ac08660016136bf565b6002810154610ad0574260028201555b505050505050565b600083815260008051602061523683398151915260205260408120849150600030600483810154604051634e6e04f760e01b8152918201526001600160a01b039190911690634e6e04f79060240160206040518083038186803b158015610b3e57600080fd5b505afa158015610b52573d6000803e3d6000fd5b505050506040513d601f19601f82011682018060405250810190610b769190615009565b905060003060405163071ddd6760e11b81526001600160a01b0384811660048301529190911690630e3bbace9060240160206040518083038186803b158015610bbe57600080fd5b505afa158015610bd2573d6000803e3d6000fd5b505050506040513d601f19601f82011682018060405250810190610bf69190615009565b90506001600160a01b0381163314610c5a5760405162461bcd60e51b815260206004820152602160248201527f4f6e6c7920617661696c61626c6520666f7220616374696f6e206163636f756e6044820152601d60fa1b606482015260840161068b565b610c63876124a0565b15610cb05760405162461bcd60e51b815260206004820152601160248201527f416c726561647920636f6d706c65746564000000000000000000000000000000604482015260640161068b565b6005866007811115610cc457610cc4614e38565b1480610ce157506004866007811115610cdf57610cdf614e38565b145b80610cfd57506003866007811115610cfb57610cfb614e38565b145b610d6f5760405162461bcd60e51b815260206004820152603560248201527f43616e20636f6d706c657465206f6e6c7920776974682073746174757320457260448201527f726f722c2043616e63656c6564206f7220446f6e650000000000000000000000606482015260840161068b565b600087815260008051602061523683398151915260205260409020600881015460019060ff166007811115610da657610da6614e38565b1480610dca57506002600882015460ff166007811115610dc857610dc8614e38565b145b610e3c5760405162461bcd60e51b815260206004820152602d60248201527f43616e277420636f6d706c657465206265666f72652070726f63657373696e6760448201527f206f722063616e63656c696e6700000000000000000000000000000000000000606482015260840161068b565b610e5e81600f0142600282015560030180546001600160a01b03191633179055565b8551610e7390600c83019060208901906147c9565b506005876007811115610e8857610e88614e38565b1415610ea05760138101805461ff0019166101001790555b610eaa88886136bf565b610ec8886005896007811115610ec257610ec2614e38565b14613742565b6003876007811115610edc57610edc614e38565b148015610f7b5750306004828101546040517f8442090a000000000000000000000000000000000000000000000000000000008152918201526001600160a01b039190911690638442090a9060240160206040518083038186803b158015610f4357600080fd5b505afa158015610f57573d6000803e3d6000fd5b505050506040513d601f19601f82011682018060405250810190610f7b9190615026565b8015610fa057506000600e82015460ff166003811115610f9d57610f9d614e38565b14155b1561102e5780601a0154816018015410156110235760405162461bcd60e51b815260206004820152603560248201527f4465706f7369745370656e742076616c7565206973206772656174657220746860448201527f616e206f7264657220686f6c64206465706f7369740000000000000000000000606482015260840161068b565b601a810154600d8201555b5050505050505050565b60008181526000805160206152368339815191526020526040902060018101548291906001600160a01b031633146110b25760405162461bcd60e51b815260206004820152601b60248201527f417661696c61626c65206f6e6c7920666f7220636f6e73756d65720000000000604482015260640161068b565b6110bb836124a0565b156111125760405162461bcd60e51b815260206004820152602160248201527f436f6d706c65746564206f726465722063616e27742062652063616e63656c656044820152601960fa1b606482015260840161068b565b6000838152600080516020615236833981519152602052604090204260118201556012810180546001600160a01b031916331790556002810154158015906112175761115f8560026136bf565b306004838101546002850154600d8601546040517fb98c9f3e00000000000000000000000000000000000000000000000000000000815293840192909252602483015260448201526001600160a01b03919091169063b98c9f3e9060640160206040518083038186803b1580156111d557600080fd5b505afa1580156111e9573d6000803e3d6000fd5b505050506040513d601f19601f8201168201806040525081019061120d9190615043565b600d83015561122a565b6112228560036136bf565b6000600d8301555b5050505050565b600082815260008051602061523683398151915260205260408120839150600030600483810154604051634e6e04f760e01b8152918201526001600160a01b039190911690634e6e04f79060240160206040518083038186803b15801561129757600080fd5b505afa1580156112ab573d6000803e3d6000fd5b505050506040513d601f19601f820116820180604052508101906112cf9190615009565b905060003060405163071ddd6760e11b81526001600160a01b0384811660048301529190911690630e3bbace9060240160206040518083038186803b15801561131757600080fd5b505afa15801561132b573d6000803e3d6000fd5b505050506040513d601f19601f8201168201806040525081019061134f9190615009565b90506001600160a01b03811633146113b35760405162461bcd60e51b815260206004820152602160248201527f4f6e6c7920617661696c61626c6520666f7220616374696f6e206163636f756e6044820152601d60fa1b606482015260840161068b565b6113bc866124a0565b156114095760405162461bcd60e51b815260206004820181905260248201527f436f6d706c65746564206f726465722063616e27742062652075706461746564604482015260640161068b565b61141286611764565b61145e5760405162461bcd60e51b815260206004820152601960248201527f4f72646572206861736e2774206265656e207374617274656400000000000000604482015260640161068b565b6000868152600080516020615236833981519152602052604090204260118201556012810180546001600160a01b03191633179055600d810186905560405186815287907fddcfcd158ba340cec1297a0d825aaf047af03d3fabcc01b151a6e1d09a7160f59060200160405180910390a250505050505050565b600081815260008051602061523683398151915260205260408120606091906003810180546040805160208084028201810190925282815293945083018282801561154257602002820191906000526020600020905b81548152602001906001019080831161152e575b5050505050915050919050565b60008181526000805160206152368339815191526020526040902060018101548291906001600160a01b031633146115c95760405162461bcd60e51b815260206004820152601b60248201527f417661696c61626c65206f6e6c7920666f7220636f6e73756d65720000000000604482015260640161068b565b600083815260008051602061523683398151915260205260409020600881015460079060ff16818111156115ff576115ff614e38565b1461164c5760405162461bcd60e51b815260206004820152601760248201527f4f72646572206d7573742062652073757370656e646564000000000000000000604482015260640161068b565b61166e81600f0142600282015560030180546001600160a01b03191633179055565b60178101548061167f576000611682565b60065b60088301805460ff191660018360078111156116a0576116a0614e38565b0217905550604051859033907fe83be2bd6985a0345b14c74f91632c816560fb0543defd73982467563c4b598990600090a35050505050565b60408051608081018252600080825260208201819052918101829052606081018290529061171f8360009081526000805160206152368339815191526020526040902090565b60408051608081018252600f830154815260108301546001600160a01b0390811660208301526011840154928201929092526012909201541660608201529392505050565b6000818152600080516020615236833981519152602052604081206000600882015460ff16600781111561179a5761179a614e38565b14806117bf575060015b600882015460ff1660078111156117bd576117bd614e38565b145b9392505050565b33308551604051634202334f60e01b815260048101919091526001600160a01b0383811660248301529190911690634202334f9060440160206040518083038186803b15801561181557600080fd5b505afa158015611829573d6000803e3d6000fd5b505050506040513d601f19601f8201168201806040525081019061184d9190615026565b6118875760405162461bcd60e51b815260206004820152600b60248201526a139bdd08185b1b1bddd95960aa1b604482015260640161068b565b8451604051631e5dd86b60e01b81523091631e5dd86b916118ae919060009060040161505c565b60206040518083038186803b1580156118c657600080fd5b505afa1580156118da573d6000803e3d6000fd5b505050506040513d601f19601f820116820180604052508101906118fe9190615026565b1561194b5760405162461bcd60e51b815260206004820181905260248201527f4f6666657220646973616c6c6f77207374616e64616c6f6e65206f7264657273604482015260640161068b565b84516040516308e161a160e21b81526004810191909152600090309063238586849060240160206040518083038186803b15801561198857600080fd5b505afa15801561199c573d6000803e3d6000fd5b505050506040513d601f19601f820116820180604052508101906119c09190615043565b9050808510156119ce578094505b6040517f897ce7cf000000000000000000000000000000000000000000000000000000008152600090309063897ce7cf90611a0d908490600401615080565b60206040518083038186803b158015611a2557600080fd5b505afa158015611a39573d6000803e3d6000fd5b505050506040513d601f19601f82011682018060405250810190611a5d9190615043565b905080861015611a6b578095505b611a73613836565b604051636eb1769f60e11b81526001600160a01b038581166004830152306024830152919091169063dd62ed3e9060440160206040518083038186803b158015611abc57600080fd5b505afa158015611ad0573d6000803e3d6000fd5b505050506040513d601f19601f82011682018060405250810190611af49190615043565b861115611b4f5760405162461bcd60e51b8152602060048201526024808201527f416c6c6f77656420746f6b656e73206c657373207468616e20686f6c644465706044820152631bdcda5d60e21b606482015260840161068b565b611b57613836565b6040516323b872dd60e01b81526001600160a01b0385811660048301523060248301526044820189905291909116906323b872dd90606401602060405180830381600087803b158015611ba957600080fd5b505af1158015611bbd573d6000803e3d6000fd5b505050506040513d601f19601f82011682018060405250810190611be19190615026565b50600080611bf08989896138ae565b91509150878160180181905550886000015186866001600160a01b03167fcdad6ab97fde7ccd3b74637bbb09ac75c9a4bf8b5684d210c9e61869bc67ac9b85604051611c3e91815260200190565b60405180910390a4505050505050505050565b600081815260008051602061523683398151915260205260409020601381015460ff1615611cc15760405162461bcd60e51b815260206004820152601860248201527f4368616e676520616c72656164792077697468647261776e0000000000000000604482015260640161068b565b60018101546001600160a01b03163314611d435760405162461bcd60e51b815260206004820152602160248201527f417661696c61626c65206f6e6c7920666f72204f7264657220636f6e73756d6560448201527f7200000000000000000000000000000000000000000000000000000000000000606482015260840161068b565b611d4c826124a0565b611da95760405162461bcd60e51b815260206004820152602860248201527f57697468647261776e20617661696c61626c65207768656e206f7264657220636044820152671bdb5c1b195d195960c21b606482015260840161068b565b6013810154600090610100900460ff1615611dc5576000611dcb565b600d8201545b90506000818360180154611ddf91906150b0565b9050611de9613836565b60018401546040517fa9059cbb0000000000000000000000000000000000000000000000000000000081526001600160a01b0391821660048201526024810184905291169063a9059cbb90604401602060405180830381600087803b158015611e5157600080fd5b505af1158015611e65573d6000803e3d6000fd5b505050506040513d601f19601f82011682018060405250810190611e899190615026565b5080836018016000828254611e9e91906150b0565b909155505060138301805460ff19166001179055604051849033907ff2104e05a949a0a0c1f4b384977e9a631ddeccc6a9f14f878ca3d0510c76360190611ee89085815260200190565b60405180910390a350505050565b611eff836124a0565b15611f4c5760405162461bcd60e51b815260206004820152601960248201527f506172656e74206f7264657220697320636f6d706c6574656400000000000000604482015260640161068b565b6000838152600080516020615236833981519152602052604081209050600030600483810154604051634e6e04f760e01b8152918201526001600160a01b039190911690634e6e04f79060240160206040518083038186803b158015611fb157600080fd5b505afa158015611fc5573d6000803e3d6000fd5b505050506040513d601f19601f82011682018060405250810190611fe99190615009565b905060003060405163071ddd6760e11b81526001600160a01b0384811660048301529190911690630e3bbace9060240160206040518083038186803b15801561203157600080fd5b505afa158015612045573d6000803e3d6000fd5b505050506040513d601f19601f820116820180604052508101906120699190615009565b9050600061207687611764565b905080801561208d5750336001600160a01b038316145b806120ad5750801580156120ad575060018401546001600160a01b031633145b6120f95760405162461bcd60e51b815260206004820152600d60248201527f4163636573732064656e69656400000000000000000000000000000000000000604482015260640161068b565b308651604051634202334f60e01b815260048101919091523360248201526001600160a01b039190911690634202334f9060440160206040518083038186803b15801561214557600080fd5b505afa158015612159573d6000803e3d6000fd5b505050506040513d601f19601f8201168201806040525081019061217d9190615026565b6121b75760405162461bcd60e51b815260206004820152600b60248201526a139bdd08185b1b1bddd95960aa1b604482015260640161068b565b8551604051636165696f60e01b815260048101919091526000903090636165696f9060240160206040518083038186803b1580156121f457600080fd5b505afa158015612208573d6000803e3d6000fd5b505050506040513d601f19601f8201168201806040525081019061222c91906150c7565b9050600185601401600083600281111561224857612248614e38565b600281111561225957612259614e38565b8152602001908152602001600020600082825461227691906150e8565b9091555050865161228990869083613e61565b505060008460400151600014156123115785516040516308e161a160e21b81526004810191909152309063238586849060240160206040518083038186803b1580156122d457600080fd5b505afa1580156122e8573d6000803e3d6000fd5b505050506040513d601f19601f8201168201806040525081019061230c9190615043565b612317565b84604001515b9050600080806123288985856138ae565b6001808a015481830180546001600160a01b0319166001600160a01b039092169190911790558c825560038a0180549182018155600090815260209020018290559092509050612390600f880142600282015560030180546001600160a01b03191633179055565b83876018015410156123e45760405162461bcd60e51b815260206004820152601f60248201527f4e6f7420656e6f75676820706172656e74206f72646572206465706f73697400604482015260640161068b565b838760180160008282546123f891906150b0565b925050819055508381601801600082825461241391906150e8565b909155505087511561245057600082815260168801602052604081206001908190556017890180549192909161244a9084906150e8565b90915550505b88516020808a0151604080518681529283018e9052909133917f030367b0ebee1bb922fc0ad998a7ec9a2aa0d7db72ab15b806b55acaf1dca46c910160405180910390a450505050505050505050565b6000818152600080516020615236833981519152602052604081206004600882015460ff1660078111156124d6576124d6614e38565b14806124fa57506005600882015460ff1660078111156124f8576124f8614e38565b145b806117bf575060036117a4565b7ff68437791109705d2e300a0b0cfc858fedffc7438da1d9bf937e2f34afa0df7680546000919061253a906001906150b0565b91505090565b60007ff68437791109705d2e300a0b0cfc858fedffc7438da1d9bf937e2f34afa0df7682158015906117bf575054909110919050565b600061258061484d565b60408051808201909152606081526000602082015260006125b98560009081526000805160206152368339815191526020526040902090565b90508060010160009054906101000a90046001600160a01b03168160040182600c01816040518060c00160405290816000820154815260200160018201805461260190615100565b80601f016020809104026020016040519081016040528092919081815260200182805461262d90615100565b801561267a5780601f1061264f5761010080835404028352916020019161267a565b820191906000526020600020905b81548152906001019060200180831161265d57829003601f168201915b5050505050815260200160028201805461269390615100565b80601f01602080910402602001604051908101604052809291908181526020018280546126bf90615100565b801561270c5780601f106126e15761010080835404028352916020019161270c565b820191906000526020600020905b8154815290600101906020018083116126ef57829003601f168201915b5050505050815260200160038201805461272590615100565b80601f016020809104026020016040519081016040528092919081815260200182805461275190615100565b801561279e5780601f106127735761010080835404028352916020019161279e565b820191906000526020600020905b81548152906001019060200180831161278157829003601f168201915b5050509183525050600482015460209091019060ff1660078111156127c5576127c5614e38565b60078111156127d6576127d6614e38565b815260200160058201604051806060016040529081600082015481526020016001820180548060200260200160405190810160405280929190818152602001828054801561284357602002820191906000526020600020905b81548152602001906001019080831161282f575b505050505081526020016002820180548060200260200160405190810160405280929190818152602001828054801561289b57602002820191906000526020600020905b815481526020019060010190808311612887575b505050505081525050815250509150806040518060400160405290816000820180546128c690615100565b80601f01602080910402602001604051908101604052809291908181526020018280546128f290615100565b801561293f5780601f106129145761010080835404028352916020019161293f565b820191906000526020600020905b81548152906001019060200180831161292257829003601f168201915b505050505081526020016001820154815250509050935093509350509193909250565b600082815260008051602061523683398151915260205260408120839150600030600483810154604051634e6e04f760e01b8152918201526001600160a01b039190911690634e6e04f79060240160206040518083038186803b1580156129c857600080fd5b505afa1580156129dc573d6000803e3d6000fd5b505050506040513d601f19601f82011682018060405250810190612a009190615009565b905060003060405163071ddd6760e11b81526001600160a01b0384811660048301529190911690630e3bbace9060240160206040518083038186803b158015612a4857600080fd5b505afa158015612a5c573d6000803e3d6000fd5b505050506040513d601f19601f82011682018060405250810190612a809190615009565b90506001600160a01b0381163314612ae45760405162461bcd60e51b815260206004820152602160248201527f4f6e6c7920617661696c61626c6520666f7220616374696f6e206163636f756e6044820152601d60fa1b606482015260840161068b565b600086815260008051602061523683398151915260205260409020600881015460019060ff166007811115612b1b57612b1b614e38565b14612b8e5760405162461bcd60e51b815260206004820152602260248201527f4f6e6c7920617661696c61626c6520696e2070726f63657373696e672073746160448201527f7465000000000000000000000000000000000000000000000000000000000000606482015260840161068b565b601a8101869055600181015460405187815288916001600160a01b0316907f25d1f8deb5c0aaa3f1c70a4e07b3ad34335ee864f47de8c0dca68a7c91dd054290602001610790565b6000818152600080516020615236833981519152602052604081209050600030600483810154604051634e6e04f760e01b8152918201526001600160a01b039190911690634e6e04f79060240160206040518083038186803b158015612c3b57600080fd5b505afa158015612c4f573d6000803e3d6000fd5b505050506040513d601f19601f82011682018060405250810190612c739190615009565b90506000306040517f0cc079f30000000000000000000000000000000000000000000000000000000081526001600160a01b0384811660048301529190911690630cc079f39060240160206040518083038186803b158015612cd457600080fd5b505afa158015612ce8573d6000803e3d6000fd5b505050506040513d601f19601f82011682018060405250810190612d0c9190615009565b600d840154909150612d1d856124a0565b612d7a5760405162461bcd60e51b815260206004820152602860248201527f57697468647261776e20617661696c61626c65207768656e206f7264657220636044820152671bdb5c1b195d195960c21b606482015260840161068b565b336001600160a01b03831614612df85760405162461bcd60e51b815260206004820152603160248201527f417661696c61626c65206f6e6c7920666f722070726f766964657220746f6b6560448201527f6e2072656369766572206163636f756e74000000000000000000000000000000606482015260840161068b565b6013840154610100900460ff1615612e525760405162461bcd60e51b815260206004820152601860248201527f50726f66697420616c72656164792077697468647261776e0000000000000000604482015260640161068b565b612e5a613836565b6040517f095ea7b3000000000000000000000000000000000000000000000000000000008152306004820152602481018390526001600160a01b03919091169063095ea7b390604401602060405180830381600087803b158015612ebd57600080fd5b505af1158015612ed1573d6000803e3d6000fd5b505050506040513d601f19601f82011682018060405250810190612ef59190615026565b50306040517f2ee409080000000000000000000000000000000000000000000000000000000081526001600160a01b038481166004830152602482018490529190911690632ee4090890604401600060405180830381600087803b158015612f5c57600080fd5b505af1158015612f70573d6000803e3d6000fd5b50505050612f7b3090565b6001600160a01b031663a25983e58383306001600160a01b031663897ce7cf60016040518263ffffffff1660e01b8152600401612fb89190615080565b60206040518083038186803b158015612fd057600080fd5b505afa158015612fe4573d6000803e3d6000fd5b505050506040513d601f19601f820116820180604052508101906130089190615043565b6040517fffffffff0000000000000000000000000000000000000000000000000000000060e086901b1681526001600160a01b03909316600484015260248301919091526044820152606401600060405180830381600087803b15801561306e57600080fd5b505af1158015613082573d6000803e3d6000fd5b505050508084601801600082825461309a91906150b0565b909155505060138401805461ff001916610100179055604051859033907fe2350354b45acad228120b59d977f2e487571e8d75fb3b74252a1034464449b8906130e69085815260200190565b60405180910390a35050505050565b6130fe826124a0565b156131555760405162461bcd60e51b815260206004820152602160248201527f436f6d706c65746564206f726465722063616e277420626520726566696c6c656044820152601960fa1b606482015260840161068b565b3361315e613836565b604051636eb1769f60e11b81526001600160a01b038381166004830152306024830152919091169063dd62ed3e9060440160206040518083038186803b1580156131a757600080fd5b505afa1580156131bb573d6000803e3d6000fd5b505050506040513d601f19601f820116820180604052508101906131df9190615043565b8211156132545760405162461bcd60e51b815260206004820152602660248201527f416c6c6f77656420746f6b656e73206c657373207468616e20726566696c6c2060448201527f616d6f756e740000000000000000000000000000000000000000000000000000606482015260840161068b565b61325c613836565b6040516323b872dd60e01b81526001600160a01b0383811660048301523060248301526044820185905291909116906323b872dd90606401602060405180830381600087803b1580156132ae57600080fd5b505af11580156132c2573d6000803e3d6000fd5b505050506040513d601f19601f820116820180604052508101906132e69190615026565b5060008381526000805160206152368339815191526020526040812090508281601801600082825461331891906150e8565b909155505060405183815284906001600160a01b038416907f5dd58c11f2973d8fca72f1cffb326b5af815e81232ff1e581a7d534344fad71f90602001611ee8565b600082815260008051602061523683398151915260205260408120839150600030600483810154604051634e6e04f760e01b8152918201526001600160a01b039190911690634e6e04f79060240160206040518083038186803b1580156133c057600080fd5b505afa1580156133d4573d6000803e3d6000fd5b505050506040513d601f19601f820116820180604052508101906133f89190615009565b905060003060405163071ddd6760e11b81526001600160a01b0384811660048301529190911690630e3bbace9060240160206040518083038186803b15801561344057600080fd5b505afa158015613454573d6000803e3d6000fd5b505050506040513d601f19601f820116820180604052508101906134789190615009565b90506001600160a01b03811633146134dc5760405162461bcd60e51b815260206004820152602160248201527f4f6e6c7920617661696c61626c6520666f7220616374696f6e206163636f756e6044820152601d60fa1b606482015260840161068b565b600086815260008051602061523683398151915260205260409020600881015460019060ff16600781111561351357613513614e38565b148061353757506002600882015460ff16600781111561353557613535614e38565b145b6135a95760405162461bcd60e51b815260206004820152603060248201527f4f72646572206d75737420626520696e20612070726f63657373696e67206f7260448201527f2063616e63656c696e6720737461746500000000000000000000000000000000606482015260840161068b565b6135cb81600f0142600282015560030180546001600160a01b03191633179055565b85516135e090600c83019060208901906147c9565b50600181015460405188916001600160a01b0316907fc3727ad3658a9131981b1b617e2928362ba398c4c5e7f3044ad2cadd443255689061079090600c86019061513b565b600080600284600781111561363c5761363c614e38565b14801561365a5750600383600781111561365857613658614e38565b145b905060008085600781111561367157613671614e38565b148061368e5750600185600781111561368c5761368c614e38565b145b80156136ab575060018460078111156136a9576136a9614e38565b145b905081806136b65750805b95945050505050565b60008281526000805160206152368339815191526020526040902060088101805483919060ff191660018360078111156136fb576136fb614e38565b021790555081600781111561371257613712614e38565b60405184907fd9a86b644eb5f5b43cc8a700849852481080361c7a4b00ba646d1b46c5585f9590600090a3505050565b61374b82612540565b6137975760405162461bcd60e51b815260206004820152600d60248201527f556e6b6e6f776e206f7264657200000000000000000000000000000000000000604482015260640161068b565b60008281526000805160206152368339815191526020526040902080546137bd57505050565b8054600090815260008051602061523683398151915260205260408120600085815260168201602052604081205460178301805493945090928392906138049084906150b0565b909155508490508061381857506017820154155b1561122a57825461122a908561382f5760006146b5565b60056146b5565b6000306001600160a01b03166321df0da76040518163ffffffff1660e01b815260040160206040518083038186803b15801561387157600080fd5b505afa158015613885573d6000803e3d6000fd5b505050506040513d601f19601f820116820180604052508101906138a99190615009565b905090565b8251604051634e6e04f760e01b815260048101919091526000908190339082903090634e6e04f79060240160206040518083038186803b1580156138f157600080fd5b505afa158015613905573d6000803e3d6000fd5b505050506040513d601f19601f820116820180604052508101906139299190615009565b87516040517fe51334fb0000000000000000000000000000000000000000000000000000000081526004810191909152909150309063e51334fb9060240160206040518083038186803b15801561397f57600080fd5b505afa158015613993573d6000803e3d6000fd5b505050506040513d601f19601f820116820180604052508101906139b79190615026565b613a035760405162461bcd60e51b815260206004820152601460248201527f4f66666572206d75737420626520616374697665000000000000000000000000604482015260640161068b565b306040517fded116690000000000000000000000000000000000000000000000000000000081526001600160a01b038381166004830152919091169063ded116699060240160206040518083038186803b158015613a6057600080fd5b505afa158015613a74573d6000803e3d6000fd5b505050506040513d601f19601f82011682018060405250810190613a989190615026565b613af05760405162461bcd60e51b8152602060048201526024808201527f4e6f7420656e6f7567682070726f7669646572207365637572697479206465706044820152631bdcda5d60e21b606482015260840161068b565b6000613afa61477b565b600081815260008051602061523683398151915260205260408120919250906001810180546001600160a01b0319166001600160a01b0387161790558951600482019081556020808c015180519394508c93613b5c92600587019201906147c9565b5060408201518051613b789160028401916020909101906147c9565b5060608201518051613b949160038401916020909101906147c9565b50608082015160048201805460ff19166001836007811115613bb857613bb8614e38565b021790555060a08201518051600583019081556020808301518051613be392600687019201906148b5565b5060408201518051613bff9160028401916020909101906148b5565b505042600f8501819055601085018054336001600160a01b03199182168117909255601187019290925560128601805490921617905550613c3e915050565b88516040517f3835b0d300000000000000000000000000000000000000000000000000000000815260048101919091523090633835b0d39060240160206040518083038186803b158015613c9157600080fd5b505afa158015613ca5573d6000803e3d6000fd5b505050506040513d601f19601f82011682018060405250810190613cc991906151e3565b600e8201805460ff19166001836003811115613ce757613ce7614e38565b0217905550600d810188905586613cff576000613d02565b60075b60088201805460ff19166001836007811115613d2057613d20614e38565b021790555060a0890151602001515115613e535760005b8960a001516020015151811015613e515760008a60a00151602001518281518110613d6457613d64615204565b602002602001015190506001836015016000613d7d3090565b6001600160a01b0316633835b0d3856040518263ffffffff1660e01b8152600401613daa91815260200190565b60206040518083038186803b158015613dc257600080fd5b505afa158015613dd6573d6000803e3d6000fd5b505050506040513d601f19601f82011682018060405250810190613dfa91906151e3565b6003811115613e0b57613e0b614e38565b6003811115613e1c57613e1c614e38565b81526020019081526020016000206000828254613e3991906150e8565b90915550613e4a915082905061521a565b9050613d37565b505b909890975095505050505050565b600030600485810154604051636165696f60e01b8152918201526001600160a01b039190911690636165696f9060240160206040518083038186803b158015613ea957600080fd5b505afa158015613ebd573d6000803e3d6000fd5b505050506040513d601f19601f82011682018060405250810190613ee191906150c7565b90506002816002811115613ef757613ef7614e38565b1415613f6b5760405162461bcd60e51b815260206004820152602b60248201527f5375626f726465727320666f7220276f7574707574272067726f75702069732060448201527f6e6f7420616c6c6f776564000000000000000000000000000000000000000000606482015260840161068b565b6002826002811115613f7f57613f7f614e38565b148015613f8f5750600b84015415155b15614066576000805b600b860154811015613fee57600b860180546000919083908110613fbe57613fbe615204565b9060005260206000200154905085811415613fdd576001925050613fee565b50613fe78161521a565b9050613f98565b5080614064576040805162461bcd60e51b81526020600482015260248101919091527f4f6666657220646f6573206e6f74207361746973667920706172656e74206f7260448201527f6465722073656c65637465644f66666572732073706563696669636174696f6e606482015260840161068b565b505b600082600281111561407a5761407a614e38565b1415614245576000805b600a8601548110156141cf57600a8601805460009190839081106140aa576140aa615204565b906000526020600020015490506140be3090565b60405163cc04f00360e01b815260048101889052602481018390526001600160a01b03919091169063cc04f0039060440160206040518083038186803b15801561410757600080fd5b505afa15801561411b573d6000803e3d6000fd5b505050506040513d601f19601f8201168201806040525081019061413f9190615026565b6141b15760405162461bcd60e51b815260206004820152603c60248201527f4f66666572207265737472696374696f6e7320636f6e666c696374732077697460448201527f6820706172656e74206f726465722073706563696669636174696f6e00000000606482015260840161068b565b858114156141be57600192505b506141c88161521a565b9050614084565b50806142435760405162461bcd60e51b815260206004820152603d60248201527f4f6666657220646f6573206e6f74207361746973667920706172656e74206f7260448201527f64657220696e7075744f66666572732073706563696669636174696f6e000000606482015260840161068b565b505b604051631e5dd86b60e01b81523090631e5dd86b9061426b90869060029060040161505c565b60206040518083038186803b15801561428357600080fd5b505afa158015614297573d6000803e3d6000fd5b505050506040513d601f19601f820116820180604052508101906142bb9190615026565b1561434f576002600090815260158501602052604090205461434f5760405162461bcd60e51b815260206004820152604160248201527f506172656e74206f726465722073706563696669636174696f6e20646f65732060448201527f6e6f742073617469736679207375626f66666572207265737472696374696f6e6064820152607360f81b608482015260a40161068b565b604051631e5dd86b60e01b81523090631e5dd86b9061437590869060039060040161505c565b60206040518083038186803b15801561438d57600080fd5b505afa1580156143a1573d6000803e3d6000fd5b505050506040513d601f19601f820116820180604052508101906143c59190615026565b1561445957600360009081526015850160205260409020546144595760405162461bcd60e51b815260206004820152604160248201527f506172656e74206f726465722073706563696669636174696f6e20646f65732060448201527f6e6f742073617469736679207375626f66666572207265737472696374696f6e6064820152607360f81b608482015260a40161068b565b604051631e5dd86b60e01b81523090631e5dd86b9061447f90869060019060040161505c565b60206040518083038186803b15801561449757600080fd5b505afa1580156144ab573d6000803e3d6000fd5b505050506040513d601f19601f820116820180604052508101906144cf9190615026565b1561456357600160009081526015850160205260409020546145635760405162461bcd60e51b815260206004820152604160248201527f506172656e74206f726465722073706563696669636174696f6e20646f65732060448201527f6e6f742073617469736679207375626f66666572207265737472696374696f6e6064820152607360f81b608482015260a40161068b565b604051631e5dd86b60e01b81523090631e5dd86b9061458990869060009060040161505c565b60206040518083038186803b1580156145a157600080fd5b505afa1580156145b5573d6000803e3d6000fd5b505050506040513d601f19601f820116820180604052508101906145d99190615026565b156146af573060048086015460405163cc04f00360e01b815291820186905260248201526001600160a01b03919091169063cc04f0039060440160206040518083038186803b15801561462b57600080fd5b505afa15801561463f573d6000803e3d6000fd5b505050506040513d601f19601f820116820180604052508101906146639190615026565b6146af5760405162461bcd60e51b815260206004820152601f60248201527f4f6666657220646973616c6c6f7720706172656e7420544545206f6666657200604482015260640161068b565b50505050565b6000828152600080516020615236833981519152602052604090204260118201556012810180546001600160a01b031916331790556000600583600781111561470057614700614e38565b14905060006006600884015460ff16600781111561472057614720614e38565b14801561473e5750600084600781111561473c5761473c614e38565b145b905081806147495750805b1561122a5760088301805485919060ff1916600183600781111561476f5761476f614e38565b02179055505050505050565b7ff68437791109705d2e300a0b0cfc858fedffc7438da1d9bf937e2f34afa0df768054600091906147ab57600181555b8054915060018160006147be83866150e8565b925050819055505090565b8280546147d590615100565b90600052602060002090601f0160209004810192826147f7576000855561483d565b82601f1061481057805160ff191683800117855561483d565b8280016001018555821561483d579182015b8281111561483d578251825591602001919060010190614822565b506148499291506148ef565b5090565b6040518060c00160405280600081526020016060815260200160608152602001606081526020016000600781111561488757614887614e38565b81526020016148b060405180606001604052806000815260200160608152602001606081525090565b905290565b82805482825590600052602060002090810192821561483d579160200282018281111561483d578251825591602001919060010190614822565b5b8082111561484957600081556001016148f0565b60006020828403121561491657600080fd5b5035919050565b801515811461492b57600080fd5b50565b6000806040838503121561494157600080fd5b8235915060208301356149538161491d565b809150509250929050565b80356008811061496d57600080fd5b919050565b634e487b7160e01b600052604160045260246000fd5b6040516060810167ffffffffffffffff811182821017156149ab576149ab614972565b60405290565b60405160c0810167ffffffffffffffff811182821017156149ab576149ab614972565b604051601f8201601f1916810167ffffffffffffffff811182821017156149fd576149fd614972565b604052919050565b600082601f830112614a1657600080fd5b813567ffffffffffffffff811115614a3057614a30614972565b614a43601f8201601f19166020016149d4565b818152846020838601011115614a5857600080fd5b816020850160208301376000918101602001919091529392505050565b600080600060608486031215614a8a57600080fd5b83359250614a9a6020850161495e565b9150604084013567ffffffffffffffff811115614ab657600080fd5b614ac286828701614a05565b9150509250925092565b60008060408385031215614adf57600080fd5b50508035926020909101359150565b6020808252825182820181905260009190848201906040850190845b81811015614b2657835183529284019291840191600101614b0a565b50909695505050505050565b600082601f830112614b4357600080fd5b8135602067ffffffffffffffff821115614b5f57614b5f614972565b8160051b614b6e8282016149d4565b9283528481018201928281019087851115614b8857600080fd5b83870192505b84831015614ba757823582529183019190830190614b8e565b979650505050505050565b600060608284031215614bc457600080fd5b614bcc614988565b905081358152602082013567ffffffffffffffff80821115614bed57600080fd5b614bf985838601614b32565b60208401526040840135915080821115614c1257600080fd5b50614c1f84828501614b32565b60408301525092915050565b600060c08284031215614c3d57600080fd5b614c456149b1565b905081358152602082013567ffffffffffffffff80821115614c6657600080fd5b614c7285838601614a05565b60208401526040840135915080821115614c8b57600080fd5b614c9785838601614a05565b60408401526060840135915080821115614cb057600080fd5b614cbc85838601614a05565b6060840152614ccd6080850161495e565b608084015260a0840135915080821115614ce657600080fd5b50614cf384828501614bb2565b60a08301525092915050565b60008060008060808587031215614d1557600080fd5b843567ffffffffffffffff811115614d2c57600080fd5b614d3887828801614c2b565b945050602085013592506040850135614d508161491d565b9396929550929360600135925050565b600080600083850360a0811215614d7657600080fd5b84359350602085013567ffffffffffffffff811115614d9457600080fd5b614da087828801614c2b565b9350506060603f1982011215614db557600080fd5b50614dbe614988565b6040850135614dcc8161491d565b8152606085013560208201526080909401356040850152509093909250565b6000815180845260005b81811015614e1157602081850181015186830182015201614df5565b81811115614e23576000602083870101525b50601f01601f19169290920160200192915050565b634e487b7160e01b600052602160045260246000fd5b600081518084526020808501945080840160005b83811015614e7e57815187529582019590820190600101614e62565b509495945050505050565b6000815160408452614e9e6040850182614deb565b602093840151949093019390935250919050565b6001600160a01b038416815260606020820152825160608201526000602084015160c06080840152614ee8610120840182614deb565b90506040850151605f19808584030160a0860152614f068383614deb565b925060608701519150808584030160c0860152614f238383614deb565b92506080870151915060088210614f3c57614f3c614e38565b8160e086015260a0870151915080858403016101008601525080518252602081015160606020840152614f726060840182614e4e565b9050604082015191508281036040840152614f8d8183614e4e565b925050508281036040840152614fa38185614e89565b9695505050505050565b60008060408385031215614fc057600080fd5b82359150602083013567ffffffffffffffff811115614fde57600080fd5b614fea85828601614a05565b9150509250929050565b6001600160a01b038116811461492b57600080fd5b60006020828403121561501b57600080fd5b81516117bf81614ff4565b60006020828403121561503857600080fd5b81516117bf8161491d565b60006020828403121561505557600080fd5b5051919050565b828152604081016004831061507357615073614e38565b8260208301529392505050565b602081016011831061509457615094614e38565b91905290565b634e487b7160e01b600052601160045260246000fd5b6000828210156150c2576150c261509a565b500390565b6000602082840312156150d957600080fd5b8151600381106117bf57600080fd5b600082198211156150fb576150fb61509a565b500190565b600181811c9082168061511457607f821691505b6020821081141561513557634e487b7160e01b600052602260045260246000fd5b50919050565b600060208083526000845481600182811c91508083168061515d57607f831692505b85831081141561517b57634e487b7160e01b85526022600452602485fd5b87860183815260200181801561519857600181146151a9576151d4565b60ff198616825287820196506151d4565b60008b81526020902060005b868110156151ce578154848201529085019089016151b5565b83019750505b50949998505050505050505050565b6000602082840312156151f557600080fd5b8151600481106117bf57600080fd5b634e487b7160e01b600052603260045260246000fd5b600060001982141561522e5761522e61509a565b506001019056fef68437791109705d2e300a0b0cfc858fedffc7438da1d9bf937e2f34afa0df77a2646970667358221220ebe72488ff557bbfe5a03200cb04eb7ccc93927486edce9dab66aaa034a6a56064736f6c63430008090033",
  "linkReferences": {},
  "deployedLinkReferences": {}
}