{
    "_format": "hh-sol-artifact-1",
    "contractName": "Order",
    "sourceName": "contracts/Order.sol",
    "abi": [
        {
            "inputs": [
                {
                    "internalType": "address",
                    "name": "_SPConfig",
                    "type": "address"
                },
                {
                    "internalType": "address",
                    "name": "_consumer",
                    "type": "address"
                },
                {
                    "internalType": "address",
                    "name": "_parentOrder",
                    "type": "address"
                },
                {
                    "components": [
                        {
                            "internalType": "address",
                            "name": "offer",
                            "type": "address"
                        },
                        {
                            "internalType": "string",
                            "name": "resultPublicKey",
                            "type": "string"
                        },
                        {
                            "internalType": "string",
                            "name": "resultPublicKeyAlgo",
                            "type": "string"
                        },
                        {
                            "internalType": "string",
                            "name": "encryptedRequirements",
                            "type": "string"
                        },
                        {
                            "internalType": "string",
                            "name": "encryptedArgs",
                            "type": "string"
                        },
                        {
                            "internalType": "enum OrderStatus",
                            "name": "status",
                            "type": "uint8"
                        },
                        {
                            "components": [
                                {
                                    "internalType": "uint256",
                                    "name": "slots",
                                    "type": "uint256"
                                },
                                {
                                    "internalType": "address[]",
                                    "name": "inputOffers",
                                    "type": "address[]"
                                },
                                {
                                    "internalType": "address[]",
                                    "name": "selectedOffers",
                                    "type": "address[]"
                                }
                            ],
                            "internalType": "struct OrderArgs",
                            "name": "args",
                            "type": "tuple"
                        }
                    ],
                    "internalType": "struct OrderInfo",
                    "name": "_info",
                    "type": "tuple"
                },
                {
                    "internalType": "uint256",
                    "name": "_orderPrice",
                    "type": "uint256"
                },
                {
                    "internalType": "bool",
                    "name": "_suspended",
                    "type": "bool"
                }
            ],
            "stateMutability": "nonpayable",
            "type": "constructor"
        },
        {
            "anonymous": false,
            "inputs": [
                {
                    "indexed": false,
                    "internalType": "address",
                    "name": "order",
                    "type": "address"
                },
                {
                    "indexed": false,
                    "internalType": "enum OrderStatus",
                    "name": "status",
                    "type": "uint8"
                }
            ],
            "name": "OrderStatusUpdated",
            "type": "event"
        },
        {
            "anonymous": false,
            "inputs": [
                {
                    "indexed": false,
                    "internalType": "address",
                    "name": "subOrder",
                    "type": "address"
                }
            ],
            "name": "SubOrderCreated",
            "type": "event"
        },
        {
            "inputs": [],
            "name": "cancelOrder",
            "outputs": [],
            "stateMutability": "nonpayable",
            "type": "function"
        },
        {
            "inputs": [
                {
                    "internalType": "enum OrderStatus",
                    "name": "status",
                    "type": "uint8"
                },
                {
                    "internalType": "string",
                    "name": "encryptedResult",
                    "type": "string"
                },
                {
                    "internalType": "string",
                    "name": "encryptedError",
                    "type": "string"
                }
            ],
            "name": "complete",
            "outputs": [],
            "stateMutability": "nonpayable",
            "type": "function"
        },
        {
            "inputs": [
                {
                    "components": [
                        {
                            "internalType": "address",
                            "name": "offer",
                            "type": "address"
                        },
                        {
                            "internalType": "string",
                            "name": "resultPublicKey",
                            "type": "string"
                        },
                        {
                            "internalType": "string",
                            "name": "resultPublicKeyAlgo",
                            "type": "string"
                        },
                        {
                            "internalType": "string",
                            "name": "encryptedRequirements",
                            "type": "string"
                        },
                        {
                            "internalType": "string",
                            "name": "encryptedArgs",
                            "type": "string"
                        },
                        {
                            "internalType": "enum OrderStatus",
                            "name": "status",
                            "type": "uint8"
                        },
                        {
                            "components": [
                                {
                                    "internalType": "uint256",
                                    "name": "slots",
                                    "type": "uint256"
                                },
                                {
                                    "internalType": "address[]",
                                    "name": "inputOffers",
                                    "type": "address[]"
                                },
                                {
                                    "internalType": "address[]",
                                    "name": "selectedOffers",
                                    "type": "address[]"
                                }
                            ],
                            "internalType": "struct OrderArgs",
                            "name": "args",
                            "type": "tuple"
                        }
                    ],
                    "internalType": "struct OrderInfo",
                    "name": "info",
                    "type": "tuple"
                },
                {
                    "internalType": "bool",
                    "name": "blocking",
                    "type": "bool"
                }
            ],
            "name": "createSubOrder",
            "outputs": [
                {
                    "internalType": "address",
                    "name": "",
                    "type": "address"
                }
            ],
            "stateMutability": "nonpayable",
            "type": "function"
        },
        {
            "inputs": [],
            "name": "getChangeWithdrawn",
            "outputs": [
                {
                    "internalType": "bool",
                    "name": "",
                    "type": "bool"
                }
            ],
            "stateMutability": "view",
            "type": "function"
        },
        {
            "inputs": [],
            "name": "getConsumer",
            "outputs": [
                {
                    "internalType": "address",
                    "name": "",
                    "type": "address"
                }
            ],
            "stateMutability": "view",
            "type": "function"
        },
        {
            "inputs": [],
            "name": "getOrderInfo",
            "outputs": [
                {
                    "components": [
                        {
                            "internalType": "address",
                            "name": "offer",
                            "type": "address"
                        },
                        {
                            "internalType": "string",
                            "name": "resultPublicKey",
                            "type": "string"
                        },
                        {
                            "internalType": "string",
                            "name": "resultPublicKeyAlgo",
                            "type": "string"
                        },
                        {
                            "internalType": "string",
                            "name": "encryptedRequirements",
                            "type": "string"
                        },
                        {
                            "internalType": "string",
                            "name": "encryptedArgs",
                            "type": "string"
                        },
                        {
                            "internalType": "enum OrderStatus",
                            "name": "status",
                            "type": "uint8"
                        },
                        {
                            "components": [
                                {
                                    "internalType": "uint256",
                                    "name": "slots",
                                    "type": "uint256"
                                },
                                {
                                    "internalType": "address[]",
                                    "name": "inputOffers",
                                    "type": "address[]"
                                },
                                {
                                    "internalType": "address[]",
                                    "name": "selectedOffers",
                                    "type": "address[]"
                                }
                            ],
                            "internalType": "struct OrderArgs",
                            "name": "args",
                            "type": "tuple"
                        }
                    ],
                    "internalType": "struct OrderInfo",
                    "name": "",
                    "type": "tuple"
                }
            ],
            "stateMutability": "view",
            "type": "function"
        },
        {
            "inputs": [],
            "name": "getOrderPrice",
            "outputs": [
                {
                    "internalType": "uint256",
                    "name": "",
                    "type": "uint256"
                }
            ],
            "stateMutability": "view",
            "type": "function"
        },
        {
            "inputs": [],
            "name": "getOrderResult",
            "outputs": [
                {
                    "components": [
                        {
                            "internalType": "string",
                            "name": "encryptedResult",
                            "type": "string"
                        },
                        {
                            "internalType": "string",
                            "name": "encryptedError",
                            "type": "string"
                        },
                        {
                            "internalType": "uint256",
                            "name": "orderPrice",
                            "type": "uint256"
                        }
                    ],
                    "internalType": "struct OrderResult",
                    "name": "",
                    "type": "tuple"
                }
            ],
            "stateMutability": "view",
            "type": "function"
        },
        {
            "inputs": [],
            "name": "getParentOrder",
            "outputs": [
                {
                    "internalType": "address",
                    "name": "",
                    "type": "address"
                }
            ],
            "stateMutability": "view",
            "type": "function"
        },
        {
            "inputs": [],
            "name": "getProfitWithdrawn",
            "outputs": [
                {
                    "internalType": "bool",
                    "name": "",
                    "type": "bool"
                }
            ],
            "stateMutability": "view",
            "type": "function"
        },
        {
            "inputs": [],
            "name": "getSubOrders",
            "outputs": [
                {
                    "internalType": "address[]",
                    "name": "",
                    "type": "address[]"
                }
            ],
            "stateMutability": "view",
            "type": "function"
        },
        {
            "inputs": [],
            "name": "isCompleted",
            "outputs": [
                {
                    "internalType": "bool",
                    "name": "",
                    "type": "bool"
                }
            ],
            "stateMutability": "view",
            "type": "function"
        },
        {
            "inputs": [],
            "name": "isReadyForProcessing",
            "outputs": [
                {
                    "internalType": "bool",
                    "name": "",
                    "type": "bool"
                }
            ],
            "stateMutability": "view",
            "type": "function"
        },
        {
            "inputs": [],
            "name": "setProcessingStatus",
            "outputs": [],
            "stateMutability": "nonpayable",
            "type": "function"
        },
        {
            "inputs": [],
            "name": "start",
            "outputs": [],
            "stateMutability": "nonpayable",
            "type": "function"
        },
        {
            "inputs": [
                {
                    "internalType": "enum OrderStatus",
                    "name": "status",
                    "type": "uint8"
                },
                {
                    "internalType": "uint256",
                    "name": "orderPrice",
                    "type": "uint256"
                }
            ],
            "name": "updateStatus",
            "outputs": [],
            "stateMutability": "nonpayable",
            "type": "function"
        },
        {
            "inputs": [],
            "name": "withdrawChange",
            "outputs": [],
            "stateMutability": "nonpayable",
            "type": "function"
        },
        {
            "inputs": [],
            "name": "withdrawProfit",
            "outputs": [],
            "stateMutability": "nonpayable",
            "type": "function"
        }
    ],
    "bytecode": "0x60806040526010805461ffff60a81b191690553480156200001f57600080fd5b5060405162002ebf38038062002ebf83398101604081905262000042916200059c565b601080546001600160a01b0380891661010002610100600160a81b031990921691909117909155600180548783166001600160a01b0319918216179091558451600480549190931691161781556020808501518051869392620000ab926005929101906200029f565b5060408201518051620000c99160028401916020909101906200029f565b5060608201518051620000e79160038401916020909101906200029f565b5060808201518051620001059160048401916020909101906200029f565b5060a082015160058201805460ff191660018360088111156200013857634e487b7160e01b600052602160045260246000fd5b021790555060c082015180516006830190815560208083015180516200016592600787019201906200032e565b5060408201518051620001839160028401916020909101906200032e565b50505090505082600001516001600160a01b031663af5372e66040518163ffffffff1660e01b815260040160206040518083038186803b158015620001c757600080fd5b505afa158015620001dc573d6000803e3d6000fd5b505050506040513d601f19601f8201168201806040525081019062000202919062000720565b6010805460ff191660018360038111156200022d57634e487b7160e01b600052602160045260246000fd5b0217905550600080546001600160a01b0319166001600160a01b038616179055600f829055806200026057600062000263565b60075b6009805460ff191660018360088111156200028e57634e487b7160e01b600052602160045260246000fd5b0217905550505050505050620007f9565b828054620002ad90620007a6565b90600052602060002090601f016020900481019282620002d157600085556200031c565b82601f10620002ec57805160ff19168380011785556200031c565b828001600101855582156200031c579182015b828111156200031c578251825591602001919060010190620002ff565b506200032a92915062000386565b5090565b8280548282559060005260206000209081019282156200031c579160200282015b828111156200031c57825182546001600160a01b0319166001600160a01b039091161782556020909201916001909101906200034f565b5b808211156200032a576000815560010162000387565b80516001600160a01b0381168114620003b557600080fd5b919050565b600082601f830112620003cb578081fd5b815160206001600160401b03821115620003e957620003e9620007e3565b8160051b620003fa82820162000773565b83815282810190868401838801850189101562000415578687fd5b8693505b8584101562000442576200042d816200039d565b83526001939093019291840191840162000419565b50979650505050505050565b80518015158114620003b557600080fd5b805160098110620003b557600080fd5b600082601f83011262000480578081fd5b81516001600160401b038111156200049c576200049c620007e3565b6020620004b2601f8301601f1916820162000773565b8281528582848701011115620004c6578384fd5b835b83811015620004e5578581018301518282018401528201620004c8565b83811115620004f657848385840101525b5095945050505050565b60006060828403121562000512578081fd5b604051606081016001600160401b038082118383101715620005385762000538620007e3565b816040528293508451835260208501519150808211156200055857600080fd5b6200056686838701620003ba565b602084015260408501519150808211156200058057600080fd5b506200058f85828601620003ba565b6040830152505092915050565b60008060008060008060c08789031215620005b5578182fd5b620005c0876200039d565b9550620005d0602088016200039d565b9450620005e0604088016200039d565b60608801519094506001600160401b0380821115620005fd578384fd5b9088019060e0828b03121562000611578384fd5b6200061b62000748565b62000626836200039d565b81526020830151828111156200063a578586fd5b620006488c8286016200046f565b60208301525060408301518281111562000660578586fd5b6200066e8c8286016200046f565b60408301525060608301518281111562000686578586fd5b620006948c8286016200046f565b606083015250608083015182811115620006ac578586fd5b620006ba8c8286016200046f565b608083015250620006ce60a084016200045f565b60a082015260c083015182811115620006e5578586fd5b620006f38c82860162000500565b60c083015250809550505050608087015191506200071460a088016200044e565b90509295509295509295565b60006020828403121562000732578081fd5b81516004811062000741578182fd5b9392505050565b60405160e081016001600160401b03811182821017156200076d576200076d620007e3565b60405290565b604051601f8201601f191681016001600160401b03811182821017156200079e576200079e620007e3565b604052919050565b600181811c90821680620007bb57607f821691505b60208210811415620007dd57634e487b7160e01b600052602260045260246000fd5b50919050565b634e487b7160e01b600052604160045260246000fd5b6126b680620008096000396000f3fe608060405234801561001057600080fd5b50600436106101365760003560e01c8063b1be5929116100b2578063c214d37a11610081578063c3c61f9111610066578063c3c61f9114610247578063cef8f6d414610258578063fa391c641461026d57600080fd5b8063c214d37a14610222578063c28bd4ef1461023557600080fd5b8063b1be5929146101ea578063b2375e8d146101f2578063b7ff5dae14610207578063be9a65551461021a57600080fd5b80636c07681f11610109578063982308f5116100ee578063982308f5146101bf57806398365150146101d0578063af91ec60146101d857600080fd5b80636c07681f146101a6578063959499b6146101b757600080fd5b806301efb6c81461013b578063291197211461015957806330979eba146101845780636a8165481461019c575b600080fd5b610143610275565b6040516101509190612539565b60405180910390f35b61016c610167366004612201565b610618565b6040516001600160a01b039091168152602001610150565b61018c610976565b6040519015158152602001610150565b6101a46109d7565b005b6001546001600160a01b031661016c565b6101a4610c22565b6000546001600160a01b031661016c565b6101a4610f01565b601054600160b01b900460ff1661018c565b6101a461110d565b6101fa611244565b604051610150919061254c565b6101a46102153660046121d8565b6113a8565b6101a4611610565b6101a4610230366004612167565b6116ea565b601054600160a81b900460ff1661018c565b600f54604051908152602001610150565b6102606119de565b604051610150919061250c565b61018c611a40565b61027d611e55565b6040805160e08101909152600480546001600160a01b03168252600580546020840191906102aa906125f6565b80601f01602080910402602001604051908101604052809291908181526020018280546102d6906125f6565b80156103235780601f106102f857610100808354040283529160200191610323565b820191906000526020600020905b81548152906001019060200180831161030657829003601f168201915b5050505050815260200160028201805461033c906125f6565b80601f0160208091040260200160405190810160405280929190818152602001828054610368906125f6565b80156103b55780601f1061038a576101008083540402835291602001916103b5565b820191906000526020600020905b81548152906001019060200180831161039857829003601f168201915b505050505081526020016003820180546103ce906125f6565b80601f01602080910402602001604051908101604052809291908181526020018280546103fa906125f6565b80156104475780601f1061041c57610100808354040283529160200191610447565b820191906000526020600020905b81548152906001019060200180831161042a57829003601f168201915b50505050508152602001600482018054610460906125f6565b80601f016020809104026020016040519081016040528092919081815260200182805461048c906125f6565b80156104d95780601f106104ae576101008083540402835291602001916104d9565b820191906000526020600020905b8154815290600101906020018083116104bc57829003601f168201915b5050509183525050600582015460209091019060ff16600881111561050e57634e487b7160e01b600052602160045260246000fd5b600881111561052d57634e487b7160e01b600052602160045260246000fd5b81526020016006820160405180606001604052908160008201548152602001600182018054806020026020016040519081016040528092919081815260200182805480156105a457602002820191906000526020600020905b81546001600160a01b03168152600190910190602001808311610586575b505050505081526020016002820180548060200260200160405190810160405280929190818152602001828054801561060657602002820191906000526020600020905b81546001600160a01b031681526001909101906020018083116105e8575b50505050508152505081525050905090565b600080610623610976565b9050600061062f611acc565b90508180156106465750336001600160a01b038216145b8061066457508115801561066457506001546001600160a01b031633145b6106b55760405162461bcd60e51b815260206004820152600d60248201527f4163636573732064656e6965640000000000000000000000000000000000000060448201526064015b60405180910390fd5b6000856000015190506000816001600160a01b031663bbb5d5f76040518163ffffffff1660e01b815260040160206040518083038186803b1580156106f957600080fd5b505afa15801561070d573d6000803e3d6000fd5b505050506040513d601f19601f82011682018060405250810190610731919061232a565b6040517ff12018c30000000000000000000000000000000000000000000000000000000081523360048201529091506001600160a01b0383169063f12018c39060240160206040518083038186803b15801561078c57600080fd5b505afa1580156107a0573d6000803e3d6000fd5b505050506040513d601f19601f820116820180604052508101906107c4919061214b565b6108105760405162461bcd60e51b815260206004820152600b60248201527f4e6f7420616c6c6f77656400000000000000000000000000000000000000000060448201526064016106ac565b60105460009061082d9061010090046001600160a01b0316611bba565b6001546040517f905d20450000000000000000000000000000000000000000000000000000000081526001600160a01b039283169263905d20459261087d9291169086908d908d906004016124d1565b602060405180830381600087803b15801561089757600080fd5b505af11580156108ab573d6000803e3d6000fd5b505050506040513d601f19601f820116820180604052508101906108cf9190612128565b600380546001810182556000919091527fc2575a0e9e593c00f959f8c92f12db2869c3395a3b0502d05e2516446f71f85b0180547fffffffffffffffffffffffff0000000000000000000000000000000000000000166001600160a01b0383169081179091556040519081529091507fd4a8311d4a2937c45f6564edb791f76d0a6d74db0902f4a6fb46cbee04166a639060200160405180910390a1979650505050505050565b6000600760095460ff16600881111561099f57634e487b7160e01b600052602160045260246000fd5b141580156109d25750600660095460ff1660088111156109cf57634e487b7160e01b600052602160045260246000fd5b14155b905090565b6001546001600160a01b03163314610a315760405162461bcd60e51b815260206004820152601b60248201527f417661696c61626c65206f6e6c7920666f7220636f6e73756d6572000000000060448201526064016106ac565b610a39611a40565b15610aac5760405162461bcd60e51b815260206004820152602160248201527f436f6d706c65746564206f726465722063616e27742062652063616e63656c6560448201527f640000000000000000000000000000000000000000000000000000000000000060648201526084016106ac565b60048054604080517f1bffb49100000000000000000000000000000000000000000000000000000000815290516001600160a01b03909216928392631bffb491928083019260209291829003018186803b158015610b0957600080fd5b505afa158015610b1d573d6000803e3d6000fd5b505050506040513d601f19601f82011682018060405250810190610b41919061214b565b158015610b4f575060025415155b15610b6157610b5e6002611c47565b50565b610b6b6003611c47565b600254610b7a57506000600f55565b600254600f546040517f8383da750000000000000000000000000000000000000000000000000000000081526001600160a01b03841692638383da7592610bcc92600401918252602082015260400190565b60206040518083038186803b158015610be457600080fd5b505afa158015610bf8573d6000803e3d6000fd5b505050506040513d601f19601f82011682018060405250810190610c1c919061232a565b600f5550565b600480546040805163483d45bd60e01b815290516000936001600160a01b039093169263483d45bd92808201926020929091829003018186803b158015610c6857600080fd5b505afa158015610c7c573d6000803e3d6000fd5b505050506040513d601f19601f82011682018060405250810190610ca09190612128565b6001600160a01b0316636d69a3e86040518163ffffffff1660e01b815260040160206040518083038186803b158015610cd857600080fd5b505afa158015610cec573d6000803e3d6000fd5b505050506040513d601f19601f82011682018060405250810190610d109190612128565b600f54909150610d1e611a40565b610d7b5760405162461bcd60e51b815260206004820152602860248201527f57697468647261776e20617661696c61626c65207768656e206f7264657220636044820152671bdb5c1b195d195960c21b60648201526084016106ac565b336001600160a01b03831614610df95760405162461bcd60e51b815260206004820152603160248201527f417661696c61626c65206f6e6c7920666f722070726f766964657220746f6b6560448201527f6e2072656369766572206163636f756e7400000000000000000000000000000060648201526084016106ac565b601054600160b01b900460ff1615610e535760405162461bcd60e51b815260206004820152601860248201527f50726f66697420616c72656164792077697468647261776e000000000000000060448201526064016106ac565b601054610e6d9061010090046001600160a01b0316611bba565b6040517f22e8d369000000000000000000000000000000000000000000000000000000008152600481018390526001600160a01b03848116602483015291909116906322e8d36990604401600060405180830381600087803b158015610ed257600080fd5b505af1158015610ee6573d6000803e3d6000fd5b50506010805460ff60b01b1916600160b01b17905550505050565b601054600160a81b900460ff1615610f5b5760405162461bcd60e51b815260206004820152601860248201527f4368616e676520616c72656164792077697468647261776e000000000000000060448201526064016106ac565b6001546001600160a01b03163314610fdb5760405162461bcd60e51b815260206004820152602160248201527f417661696c61626c65206f6e6c7920666f72204f7264657220636f6e73756d6560448201527f720000000000000000000000000000000000000000000000000000000000000060648201526084016106ac565b610fe3611a40565b6110405760405162461bcd60e51b815260206004820152602860248201527f57697468647261776e20617661696c61626c65207768656e206f7264657220636044820152671bdb5c1b195d195960c21b60648201526084016106ac565b601054600090600160b01b900460ff161561105c576000611060565b600f545b60105490915061107d9061010090046001600160a01b0316611bba565b6001600160a01b0316635f4550ba826040518263ffffffff1660e01b81526004016110aa91815260200190565b600060405180830381600087803b1580156110c457600080fd5b505af11580156110d8573d6000803e3d6000fd5b5050601080547fffffffffffffffffffff00ffffffffffffffffffffffffffffffffffffffffff16600160a81b179055505050565b6000611117611acc565b9050336001600160a01b038216146111835760405162461bcd60e51b815260206004820152602960248201527f417661696c61626c65206f6e6c7920666f722070726f766964657220616374696044820152681bdb9058d8dbdd5b9d60ba1b60648201526084016106ac565b61118b610976565b6111d75760405162461bcd60e51b815260206004820152601960248201527f4f72646572206861736e2774206265656e20737461727465640000000000000060448201526064016106ac565b6111df611a40565b1561122c5760405162461bcd60e51b815260206004820181905260248201527f436f6d706c65746564206f726465722063616e2774206265207570646174656460448201526064016106ac565b6112366001611c47565b600254610b5e574260025550565b61126860405180606001604052806060815260200160608152602001600081525090565b600d604051806060016040529081600082018054611285906125f6565b80601f01602080910402602001604051908101604052809291908181526020018280546112b1906125f6565b80156112fe5780601f106112d3576101008083540402835291602001916112fe565b820191906000526020600020905b8154815290600101906020018083116112e157829003601f168201915b50505050508152602001600182018054611317906125f6565b80601f0160208091040260200160405190810160405280929190818152602001828054611343906125f6565b80156113905780601f1061136557610100808354040283529160200191611390565b820191906000526020600020905b81548152906001019060200180831161137357829003601f168201915b50505050508152602001600282015481525050905090565b60006113b2611acc565b9050336001600160a01b0382161461141e5760405162461bcd60e51b815260206004820152602960248201527f417661696c61626c65206f6e6c7920666f722070726f766964657220616374696044820152681bdb9058d8dbdd5b9d60ba1b60648201526084016106ac565b611426610976565b6114725760405162461bcd60e51b815260206004820152601960248201527f4f72646572206861736e2774206265656e20737461727465640000000000000060448201526064016106ac565b61147a611a40565b156114c75760405162461bcd60e51b815260206004820181905260248201527f436f6d706c65746564206f726465722063616e2774206265207570646174656460448201526064016106ac565b6009546114d79060ff1684611cb5565b6115235760405162461bcd60e51b815260206004820152600d60248201527f496e76616964207374617475730000000000000000000000000000000000000060448201526064016106ac565b61152c83611c47565b60025415801561155b5750600183600881111561155957634e487b7160e01b600052602160045260246000fd5b145b1561156557426002555b600060105460ff16600381111561158c57634e487b7160e01b600052602160045260246000fd5b1461160957600f548211156116095760405162461bcd60e51b815260206004820152602b60248201527f466f7262696464656e20746f20696e63726561736520707269636520666f722060448201527f76616c75654f666665727300000000000000000000000000000000000000000060648201526084016106ac565b50600f5550565b6001546001600160a01b0316331461166a5760405162461bcd60e51b815260206004820152601b60248201527f417661696c61626c65206f6e6c7920666f7220636f6e73756d6572000000000060448201526064016106ac565b600760095460ff16600881111561169157634e487b7160e01b600052602160045260246000fd5b146116de5760405162461bcd60e51b815260206004820152601760248201527f4f72646572206d7573742062652073757370656e64656400000000000000000060448201526064016106ac565b6009805460ff19169055565b60006116f4611acc565b9050336001600160a01b038216146117605760405162461bcd60e51b815260206004820152602960248201527f417661696c61626c65206f6e6c7920666f722070726f766964657220616374696044820152681bdb9058d8dbdd5b9d60ba1b60648201526084016106ac565b611768610976565b6117b45760405162461bcd60e51b815260206004820152601960248201527f4f72646572206861736e2774206265656e20737461727465640000000000000060448201526064016106ac565b6117bc611a40565b156118095760405162461bcd60e51b815260206004820152601160248201527f416c726561647920636f6d706c6574656400000000000000000000000000000060448201526064016106ac565b600584600881111561182b57634e487b7160e01b600052602160045260246000fd5b14806118565750600484600881111561185457634e487b7160e01b600052602160045260246000fd5b145b6118c85760405162461bcd60e51b815260206004820152602b60248201527f43616e20636f6d706c657465206f6e6c7920776974682073746174757320457260448201527f726f72206f7220446f6e6500000000000000000000000000000000000000000060648201526084016106ac565b600160095460ff1660088111156118ef57634e487b7160e01b600052602160045260246000fd5b148061191f5750600860095460ff16600881111561191d57634e487b7160e01b600052602160045260246000fd5b145b61196b5760405162461bcd60e51b815260206004820181905260248201527f43616e277420636f6d706c657465206265666f72652070726f63657373696e6760448201526064016106ac565b825161197e90600d906020860190611edb565b50815161199290600e906020850190611edb565b5060058460088111156119b557634e487b7160e01b600052602160045260246000fd5b14156119cf576010805460ff60b01b1916600160b01b1790555b6119d884611c47565b50505050565b60606003805480602002602001604051908101604052809291908181526020018280548015611a3657602002820191906000526020600020905b81546001600160a01b03168152600190910190602001808311611a18575b5050505050905090565b6000600460095460ff166008811115611a6957634e487b7160e01b600052602160045260246000fd5b1480611a995750600560095460ff166008811115611a9757634e487b7160e01b600052602160045260246000fd5b145b806109d25750600360095460ff166008811115611ac657634e487b7160e01b600052602160045260246000fd5b14905090565b600480546040805163483d45bd60e01b815290516000936001600160a01b039093169263483d45bd92808201926020929091829003018186803b158015611b1257600080fd5b505afa158015611b26573d6000803e3d6000fd5b505050506040513d601f19601f82011682018060405250810190611b4a9190612128565b6001600160a01b0316636760c4b76040518163ffffffff1660e01b815260040160206040518083038186803b158015611b8257600080fd5b505afa158015611b96573d6000803e3d6000fd5b505050506040513d601f19601f820116820180604052508101906109d29190612128565b6000611bc582611e1a565b6001600160a01b031663bcaa0c5560006040518263ffffffff1660e01b8152600401611bf1919061251f565b60206040518083038186803b158015611c0957600080fd5b505afa158015611c1d573d6000803e3d6000fd5b505050506040513d601f19601f82011682018060405250810190611c419190612128565b92915050565b6009805482919060ff19166001836008811115611c7457634e487b7160e01b600052602160045260246000fd5b02179055507fdeec0b1e3a1ffaeb49a9045c07756b2e16cd738314db2d7ec9317e56809732bb3082604051611caa9291906124b4565b60405180910390a150565b6000806002846008811115611cda57634e487b7160e01b600052602160045260246000fd5b148015611d0657506003836008811115611d0457634e487b7160e01b600052602160045260246000fd5b145b9050600080856008811115611d2b57634e487b7160e01b600052602160045260246000fd5b1480611d5657506001856008811115611d5457634e487b7160e01b600052602160045260246000fd5b145b80611d8057506008856008811115611d7e57634e487b7160e01b600052602160045260246000fd5b145b8015611dab57506001846008811115611da957634e487b7160e01b600052602160045260246000fd5b145b905060006001866008811115611dd157634e487b7160e01b600052602160045260246000fd5b148015611dfd57506008856008811115611dfb57634e487b7160e01b600052602160045260246000fd5b145b90508280611e085750815b80611e105750805b9695505050505050565b6000816001600160a01b031663f1f0bd016040518163ffffffff1660e01b815260040160206040518083038186803b158015611c0957600080fd5b6040518060e0016040528060006001600160a01b031681526020016060815260200160608152602001606081526020016060815260200160006008811115611ead57634e487b7160e01b600052602160045260246000fd5b8152602001611ed660405180606001604052806000815260200160608152602001606081525090565b905290565b828054611ee7906125f6565b90600052602060002090601f016020900481019282611f095760008555611f4f565b82601f10611f2257805160ff1916838001178555611f4f565b82800160010185558215611f4f579182015b82811115611f4f578251825591602001919060010190611f34565b50611f5b929150611f5f565b5090565b5b80821115611f5b5760008155600101611f60565b8035611f7f8161265d565b919050565b600082601f830112611f94578081fd5b8135602067ffffffffffffffff821115611fb057611fb0612647565b8160051b611fbf8282016125c5565b838152828101908684018388018501891015611fd9578687fd5b8693505b85841015612004578035611ff08161265d565b835260019390930192918401918401611fdd565b50979650505050505050565b8035611f7f81612672565b803560098110611f7f57600080fd5b600082601f83011261203a578081fd5b813567ffffffffffffffff81111561205457612054612647565b612067601f8201601f19166020016125c5565b81815284602083860101111561207b578283fd5b816020850160208301379081016020019190915292915050565b6000606082840312156120a6578081fd5b6040516060810167ffffffffffffffff82821081831117156120ca576120ca612647565b816040528293508435835260208501359150808211156120e957600080fd5b6120f586838701611f84565b6020840152604085013591508082111561210e57600080fd5b5061211b85828601611f84565b6040830152505092915050565b600060208284031215612139578081fd5b81516121448161265d565b9392505050565b60006020828403121561215c578081fd5b815161214481612672565b60008060006060848603121561217b578182fd5b6121848461201b565b9250602084013567ffffffffffffffff808211156121a0578384fd5b6121ac8783880161202a565b935060408601359150808211156121c1578283fd5b506121ce8682870161202a565b9150509250925092565b600080604083850312156121ea578182fd5b6121f38361201b565b946020939093013593505050565b60008060408385031215612213578182fd5b823567ffffffffffffffff8082111561222a578384fd5b9084019060e0828703121561223d578384fd5b61224561259c565b61224e83611f74565b8152602083013582811115612261578586fd5b61226d8882860161202a565b602083015250604083013582811115612284578586fd5b6122908882860161202a565b6040830152506060830135828111156122a7578586fd5b6122b38882860161202a565b6060830152506080830135828111156122ca578586fd5b6122d68882860161202a565b6080830152506122e860a0840161201b565b60a082015260c0830135828111156122fe578586fd5b61230a88828601612095565b60c083015250935061232191505060208401612010565b90509250929050565b60006020828403121561233b578081fd5b5051919050565b6000815180845260208085019450808401835b8381101561237a5781516001600160a01b031687529582019590820190600101612355565b509495945050505050565b6009811061239557612395612631565b9052565b60008151808452815b818110156123be576020818501810151868301820152016123a2565b818111156123cf5782602083870101525b50601f01601f19169290920160200192915050565b6001600160a01b0381511682526000602082015160e0602085015261240c60e0850182612399565b9050604083015184820360408601526124258282612399565b9150506060830151848203606086015261243f8282612399565b915050608083015184820360808601526124598282612399565b91505060a083015161246e60a0860182612385565b5060c083015184820360c0860152805182526020810151606060208401526124996060840182612342565b9050604082015191508281036040840152611e108183612342565b6001600160a01b0383168152604081016121446020830184612385565b6001600160a01b03851681528360208201526080604082015260006124f960808301856123e4565b9050821515606083015295945050505050565b6020815260006121446020830184612342565b60208101600c831061253357612533612631565b91905290565b60208152600061214460208301846123e4565b6020815260008251606060208401526125686080840182612399565b90506020840151601f198483030160408501526125858282612399565b915050604084015160608401528091505092915050565b60405160e0810167ffffffffffffffff811182821017156125bf576125bf612647565b60405290565b604051601f8201601f1916810167ffffffffffffffff811182821017156125ee576125ee612647565b604052919050565b600181811c9082168061260a57607f821691505b6020821081141561262b57634e487b7160e01b600052602260045260246000fd5b50919050565b634e487b7160e01b600052602160045260246000fd5b634e487b7160e01b600052604160045260246000fd5b6001600160a01b0381168114610b5e57600080fd5b8015158114610b5e57600080fdfea2646970667358221220d7d753868687a96ce2a8d0f31157d2cd1a25e750eff7aeee6ed2dc3a75df0dd464736f6c63430008040033",
    "linkReferences": {},
    "deployedLinkReferences": {}
}