{
    "_format": "hh-sol-artifact-1",
    "contractName": "Provider",
    "sourceName": "contracts/Provider.sol",
    "abi": [
        {
            "inputs": [
                {
                    "internalType": "address",
                    "name": "superproAddress",
                    "type": "address"
                },
                {
                    "internalType": "address",
                    "name": "_auth",
                    "type": "address"
                },
                {
                    "components": [
                        {
                            "internalType": "address",
                            "name": "tokenReceiver",
                            "type": "address"
                        },
                        {
                            "internalType": "address",
                            "name": "actionAccount",
                            "type": "address"
                        },
                        {
                            "internalType": "string",
                            "name": "name",
                            "type": "string"
                        },
                        {
                            "internalType": "string",
                            "name": "description",
                            "type": "string"
                        },
                        {
                            "internalType": "string",
                            "name": "metadata",
                            "type": "string"
                        }
                    ],
                    "internalType": "struct ProviderInfo",
                    "name": "_info",
                    "type": "tuple"
                }
            ],
            "stateMutability": "nonpayable",
            "type": "constructor"
        },
        {
            "inputs": [
                {
                    "internalType": "address",
                    "name": "offer",
                    "type": "address"
                }
            ],
            "name": "addOffer",
            "outputs": [],
            "stateMutability": "nonpayable",
            "type": "function"
        },
        {
            "inputs": [],
            "name": "gc",
            "outputs": [],
            "stateMutability": "nonpayable",
            "type": "function"
        },
        {
            "inputs": [],
            "name": "getActionAccount",
            "outputs": [
                {
                    "internalType": "address",
                    "name": "",
                    "type": "address"
                }
            ],
            "stateMutability": "view",
            "type": "function"
        },
        {
            "inputs": [],
            "name": "getAuth",
            "outputs": [
                {
                    "internalType": "address",
                    "name": "",
                    "type": "address"
                }
            ],
            "stateMutability": "view",
            "type": "function"
        },
        {
            "inputs": [],
            "name": "getInfo",
            "outputs": [
                {
                    "components": [
                        {
                            "internalType": "address",
                            "name": "tokenReceiver",
                            "type": "address"
                        },
                        {
                            "internalType": "address",
                            "name": "actionAccount",
                            "type": "address"
                        },
                        {
                            "internalType": "string",
                            "name": "name",
                            "type": "string"
                        },
                        {
                            "internalType": "string",
                            "name": "description",
                            "type": "string"
                        },
                        {
                            "internalType": "string",
                            "name": "metadata",
                            "type": "string"
                        }
                    ],
                    "internalType": "struct ProviderInfo",
                    "name": "",
                    "type": "tuple"
                }
            ],
            "stateMutability": "view",
            "type": "function"
        },
        {
            "inputs": [],
            "name": "getOffersState",
            "outputs": [
                {
                    "components": [
                        {
                            "internalType": "uint256",
                            "name": "teeEnabled",
                            "type": "uint256"
                        },
                        {
                            "internalType": "uint256",
                            "name": "valueEnabled",
                            "type": "uint256"
                        },
                        {
                            "internalType": "uint256",
                            "name": "lastDisabledAfter",
                            "type": "uint256"
                        }
                    ],
                    "internalType": "struct ProviderOffersState",
                    "name": "",
                    "type": "tuple"
                }
            ],
            "stateMutability": "view",
            "type": "function"
        },
        {
            "inputs": [
                {
                    "internalType": "uint256",
                    "name": "additional",
                    "type": "uint256"
                }
            ],
            "name": "getTargetSecDepo",
            "outputs": [
                {
                    "internalType": "uint256",
                    "name": "",
                    "type": "uint256"
                }
            ],
            "stateMutability": "view",
            "type": "function"
        },
        {
            "inputs": [],
            "name": "getTeeOffers",
            "outputs": [
                {
                    "internalType": "address[]",
                    "name": "",
                    "type": "address[]"
                }
            ],
            "stateMutability": "view",
            "type": "function"
        },
        {
            "inputs": [],
            "name": "getTokenReceiver",
            "outputs": [
                {
                    "internalType": "address",
                    "name": "",
                    "type": "address"
                }
            ],
            "stateMutability": "view",
            "type": "function"
        },
        {
            "inputs": [],
            "name": "getValueOffers",
            "outputs": [
                {
                    "internalType": "address[]",
                    "name": "",
                    "type": "address[]"
                }
            ],
            "stateMutability": "view",
            "type": "function"
        },
        {
            "inputs": [],
            "name": "getViolationRate",
            "outputs": [
                {
                    "internalType": "uint256",
                    "name": "",
                    "type": "uint256"
                }
            ],
            "stateMutability": "view",
            "type": "function"
        },
        {
            "inputs": [],
            "name": "hasEnabledOffers",
            "outputs": [
                {
                    "internalType": "bool",
                    "name": "",
                    "type": "bool"
                }
            ],
            "stateMutability": "view",
            "type": "function"
        },
        {
            "inputs": [],
            "name": "incrViolationRate",
            "outputs": [],
            "stateMutability": "nonpayable",
            "type": "function"
        },
        {
            "inputs": [
                {
                    "components": [
                        {
                            "internalType": "address",
                            "name": "tokenReceiver",
                            "type": "address"
                        },
                        {
                            "internalType": "address",
                            "name": "actionAccount",
                            "type": "address"
                        },
                        {
                            "internalType": "string",
                            "name": "name",
                            "type": "string"
                        },
                        {
                            "internalType": "string",
                            "name": "description",
                            "type": "string"
                        },
                        {
                            "internalType": "string",
                            "name": "metadata",
                            "type": "string"
                        }
                    ],
                    "internalType": "struct ProviderInfo",
                    "name": "_info",
                    "type": "tuple"
                }
            ],
            "name": "modify",
            "outputs": [],
            "stateMutability": "nonpayable",
            "type": "function"
        },
        {
            "inputs": [
                {
                    "internalType": "bool",
                    "name": "enabled",
                    "type": "bool"
                },
                {
                    "internalType": "uint256",
                    "name": "disabledAfter",
                    "type": "uint256"
                }
            ],
            "name": "setOfferState",
            "outputs": [],
            "stateMutability": "nonpayable",
            "type": "function"
        },
        {
            "inputs": [],
            "name": "teeEnabledRecently",
            "outputs": [
                {
                    "internalType": "uint256",
                    "name": "",
                    "type": "uint256"
                }
            ],
            "stateMutability": "view",
            "type": "function"
        },
        {
            "inputs": [],
            "name": "valueEnabledRecently",
            "outputs": [
                {
                    "internalType": "uint256",
                    "name": "",
                    "type": "uint256"
                }
            ],
            "stateMutability": "view",
            "type": "function"
        }
    ],
    "bytecode": "0x60806040523480156200001157600080fd5b5060405162001f8f38038062001f8f833981016040819052620000349162000240565b600080546001600160a01b03199081166001600160a01b03868116919091179092556001805482168584161790558251600c80548316918416919091178155602080850151600d8054909416941693909317909155604083015180518493620000a392600e92910190620000ec565b5060608201518051620000c1916003840191602090910190620000ec565b5060808201518051620000df916004840191602090910190620000ec565b50905050505050620003fb565b828054620000fa90620003a8565b90600052602060002090601f0160209004810192826200011e576000855562000169565b82601f106200013957805160ff191683800117855562000169565b8280016001018555821562000169579182015b82811115620001695782518255916020019190600101906200014c565b50620001779291506200017b565b5090565b5b808211156200017757600081556001016200017c565b80516001600160a01b0381168114620001aa57600080fd5b919050565b600082601f830112620001c0578081fd5b81516001600160401b03811115620001dc57620001dc620003e5565b6020620001f2601f8301601f1916820162000375565b828152858284870101111562000206578384fd5b835b838110156200022557858101830151828201840152820162000208565b838111156200023657848385840101525b5095945050505050565b60008060006060848603121562000255578283fd5b620002608462000192565b9250620002706020850162000192565b60408501519092506001600160401b03808211156200028d578283fd5b9085019060a08288031215620002a1578283fd5b620002ab6200034a565b620002b68362000192565b8152620002c66020840162000192565b6020820152604083015182811115620002dd578485fd5b620002eb89828601620001af565b60408301525060608301518281111562000303578485fd5b6200031189828601620001af565b60608301525060808301518281111562000329578485fd5b6200033789828601620001af565b6080830152508093505050509250925092565b60405160a081016001600160401b03811182821017156200036f576200036f620003e5565b60405290565b604051601f8201601f191681016001600160401b0381118282101715620003a057620003a0620003e5565b604052919050565b600181811c90821680620003bd57607f821691505b60208210811415620003df57634e487b7160e01b600052602260045260246000fd5b50919050565b634e487b7160e01b600052604160045260246000fd5b611b84806200040b6000396000f3fe608060405234801561001057600080fd5b506004361061011b5760003560e01c80636760c4b7116100b25780639789e32311610081578063bab13ee111610066578063bab13ee11461023d578063cf06217c14610245578063fc282c1f1461025857600080fd5b80639789e32314610217578063a553269b1461022a57600080fd5b80636760c4b7146101c8578063685dd944146101d95780636d69a3e8146101ee57806380eecb09146101ff57600080fd5b80631b71d85f116100ee5780631b71d85f1461018e5780634547ada9146101985780635a9b0b89146101a05780635e7ddcb8146101b557600080fd5b806308571011146101205780630c72dc311461014a5780630cca32f71461015c57806316f8640014610164575b600080fd5b6001546001600160a01b03165b6040516001600160a01b0390911681526020015b60405180910390f35b6002545b604051908152602001610141565b61014e610260565b61016c6102d0565b6040805182518152602080840151908201529181015190820152606001610141565b610196610319565b005b61014e61032f565b6101a8610398565b6040516101419190611997565b6101966101c33660046117d0565b6105a6565b600d546001600160a01b031661012d565b6101e1610690565b604051610141919061191c565b600c546001600160a01b031661012d565b6102076106f5565b6040519015158152602001610141565b610196610225366004611786565b610723565b610196610238366004611732565b610abb565b610196610c19565b61014e6102533660046118a1565b610cc9565b6101e1610d8e565b60006102cb60036005016001018054806020026020016040519081016040528092919081815260200182805480156102c157602002820191906000526020600020905b81546001600160a01b031681526001909101906020018083116102a3575b5050505050610df0565b905090565b6102f460405180606001604052806000815260200160008152602001600081525090565b5060408051606081018252600354815260045460208201526005549181019190915290565b6103236008610edc565b61032d600a610edc565b565b60006102cb60036007016001018054806020026020016040519081016040528092919081815260200182805480156102c1576020028201919060005260206000209081546001600160a01b031681526001909101906020018083116102a3575050505050610df0565b6040805160a08101825260008082526020820152606091810182905281810182905260808101919091526040805160a081018252600c80546001600160a01b039081168352600d54166020830152600e805492939192918401916103fb90611a90565b80601f016020809104026020016040519081016040528092919081815260200182805461042790611a90565b80156104745780601f1061044957610100808354040283529160200191610474565b820191906000526020600020905b81548152906001019060200180831161045757829003601f168201915b5050505050815260200160038201805461048d90611a90565b80601f01602080910402602001604051908101604052809291908181526020018280546104b990611a90565b80156105065780601f106104db57610100808354040283529160200191610506565b820191906000526020600020905b8154815290600101906020018083116104e957829003601f168201915b5050505050815260200160048201805461051f90611a90565b80601f016020809104026020016040519081016040528092919081815260200182805461054b90611a90565b80156105985780601f1061056d57610100808354040283529160200191610598565b820191906000526020600020905b81548152906001019060200180831161057b57829003601f168201915b505050505081525050905090565b6001546001600160a01b031633146106055760405162461bcd60e51b815260206004820152601a60248201527f4f6e6c79206f776e65722063616e206d6f6469667920696e666f00000000000060448201526064015b60405180910390fd5b8051600c80546001600160a01b03199081166001600160a01b03938416178255602080850151600d8054909316941693909317905560408301518051849361065292600e92910190611602565b506060820151805161066e916003840191602090910190611602565b506080820151805161068a916004840191602090910190611602565b50505050565b606060036004018054806020026020016040519081016040528092919081815260200182805480156106eb57602002820191906000526020600020905b81546001600160a01b031681526001909101906020018083116106cd575b5050505050905090565b600454600354600091829161070a9190611a42565b9050600081118061071d57506005544211155b91505090565b60003390506000816001600160a01b031663af5372e66040518163ffffffff1660e01b815260040160206040518083038186803b15801561076357600080fd5b505afa158015610777573d6000803e3d6000fd5b505050506040513d601f19601f8201168201806040525081019061079b91906117b1565b90506000808260038111156107c057634e487b7160e01b600052602160045260246000fd5b1490506000816107e6576000546107e1906001600160a01b03166006610ff1565b6107fd565b6000546107fd906001600160a01b03166005610ff1565b90506000826108205760005461081b906001600160a01b031661107e565b610835565b600054610835906001600160a01b031661110b565b6040517f165dee3f0000000000000000000000000000000000000000000000000000000081526001600160a01b03878116600483015291925060009183169063165dee3f9060240160206040518083038186803b15801561089557600080fd5b505afa1580156108a9573d6000803e3d6000fd5b505050506040513d601f19601f820116820180604052508101906108cd919061174e565b6001549091506001600160a01b0380831691161461092d5760405162461bcd60e51b815260206004820152601060248201527f556e6b6e6f776e2070726f76696465720000000000000000000000000000000060448201526064016105fc565b8715610a7d57600061093e84610cc9565b6000805491925090610958906001600160a01b0316611142565b6040517fb00e3c240000000000000000000000000000000000000000000000000000000081526001600160a01b038581166004830152919091169063b00e3c249060240160206040518083038186803b1580156109b457600080fd5b505afa1580156109c8573d6000803e3d6000fd5b505050506040513d601f19601f820116820180604052508101906109ec91906118b9565b905081811015610a645760405162461bcd60e51b815260206004820152602760248201527f43616e277420656e61626c652064756520736d616c6c2073656375726974792060448201527f6465706f7369740000000000000000000000000000000000000000000000000060648201526084016105fc565b610a716003876001611179565b50505050505050505050565b610a8a6003856000611179565b610a96600385886111f4565b600354158015610aa65750600454155b15610ab15760058790555b5050505050505050565b600054610ad0906001600160a01b031661110b565b6001600160a01b0316336001600160a01b03161480610b145750600054610aff906001600160a01b031661107e565b6001600160a01b0316336001600160a01b0316145b610b605760405162461bcd60e51b815260206004820181905260248201527f417661696c61626c65206f6e6c7920666f72204f6666657273466163746f727960448201526064016105fc565b6000816001600160a01b031663af5372e66040518163ffffffff1660e01b815260040160206040518083038186803b158015610b9b57600080fd5b505afa158015610baf573d6000803e3d6000fd5b505050506040513d601f19601f82011682018060405250810190610bd391906117b1565b9050600080826003811115610bf857634e487b7160e01b600052602160045260246000fd5b149050610c086003826001611179565b610c1460038285611214565b505050565b600054610c2e906001600160a01b031661110b565b6001600160a01b0316336001600160a01b031614610cb45760405162461bcd60e51b815260206004820152602360248201527f417661696c61626c65206f6e6c7920666f72205465654f66666572734661637460448201527f6f7279000000000000000000000000000000000000000000000000000000000060648201526084016105fc565b600260008154610cc390611acb565b90915550565b600080548190610ce3906001600160a01b03166002610ff1565b90506000610cef61032f565b600454610cfc9190611a42565b600054610d13906001600160a01b03166006610ff1565b610d1d9190611a5a565b90506000610d29610260565b600354610d369190611a42565b600054610d4d906001600160a01b03166005610ff1565b610d579190611a5a565b9050600085610d668484611a42565b610d709190611a42565b90506000818511610d815781610d83565b845b979650505050505050565b6060600380018054806020026020016040519081016040528092919081815260200182805480156106eb576020028201919060005260206000209081546001600160a01b031681526001909101906020018083116106cd575050505050905090565b600080805b8351811015610ed5576000848281518110610e2057634e487b7160e01b600052603260045260246000fd5b602002602001015190506000816001600160a01b0316636d483c846040518163ffffffff1660e01b815260040160206040518083038186803b158015610e6557600080fd5b505afa158015610e79573d6000803e3d6000fd5b505050506040513d601f19601f82011682018060405250810190610e9d91906118b9565b90508015801590610ead57504281115b15610ec057610ebd600185611a42565b93505b50508080610ecd90611acb565b915050610df5565b5092915050565b60005a905060005b600183015481108015610f0457506233e1405a610f019084611a79565b11155b15610c14576000836001018281548110610f2e57634e487b7160e01b600052603260045260246000fd5b60009182526020918290200154604080517f6aa633b600000000000000000000000000000000000000000000000000000000815290516001600160a01b03909216935083928392636aa633b6926004808201939291829003018186803b158015610f9757600080fd5b505afa158015610fab573d6000803e3d6000fd5b505050506040513d601f19601f82011682018060405250810190610fcf919061176a565b610fdd57610fdd8583611288565b610fe8600184611a42565b92505050610ee4565b6000610ffc836114ac565b6001600160a01b03166303a2216d836040518263ffffffff1660e01b81526004016110279190611983565b60206040518083038186803b15801561103f57600080fd5b505afa158015611053573d6000803e3d6000fd5b505050506040513d601f19601f8201168201806040525081019061107791906118b9565b9392505050565b6000611089826114ac565b6001600160a01b031663bcaa0c5560066040518263ffffffff1660e01b81526004016110b59190611969565b60206040518083038186803b1580156110cd57600080fd5b505afa1580156110e1573d6000803e3d6000fd5b505050506040513d601f19601f82011682018060405250810190611105919061174e565b92915050565b6000611116826114ac565b6001600160a01b031663bcaa0c5560046040518263ffffffff1660e01b81526004016110b59190611969565b600061114d826114ac565b6001600160a01b031663bcaa0c5560016040518263ffffffff1660e01b81526004016110b59190611969565b81156111ba5780156111a5578254600190849060009061119a908490611a42565b90915550610c149050565b8254600190849060009061119a908490611a79565b80156111d5576001838101805460009061119a908490611a42565b600183810180546000906111ea908490611a79565b9091555050505050565b811561120757610c1460058401826114e7565b610c1460078401826114e7565b811561125157600483018054600181018255600091825260209091200180546001600160a01b0383166001600160a01b0319909116179055505050565b600383018054600181018255600091825260209091200180546001600160a01b0383166001600160a01b0319909116179055505050565b6001600160a01b0381166112de5760405162461bcd60e51b815260206004820181905260248201527f417474656d707420746f2072656d6f76652061207a65726f206164647265737360448201526064016105fc565b60018201546112eb575050565b6001600160a01b0381166000818152602084905260409020546001840180549192918390811061132b57634e487b7160e01b600052603260045260246000fd5b6000918252602090912001546001600160a01b0316146113b25760405162461bcd60e51b8152602060048201526024808201527f3530302e20556e6578706563746564204164647265737348617368536574207360448201527f746174650000000000000000000000000000000000000000000000000000000060648201526084016105fc565b600180840180546000926113c591611a79565b815481106113e357634e487b7160e01b600052603260045260246000fd5b6000918252602090912001546001850180546001600160a01b03909216925082918490811061142257634e487b7160e01b600052603260045260246000fd5b600091825260208083209190910180546001600160a01b0319166001600160a01b03948516179055838316825286905260408082208590559185168152908120556001840180548061148457634e487b7160e01b600052603160045260246000fd5b600082815260209020810160001990810180546001600160a01b031916905501905550505050565b6000816001600160a01b031663f1f0bd016040518163ffffffff1660e01b815260040160206040518083038186803b1580156110cd57600080fd5b6001600160a01b03811661153d5760405162461bcd60e51b815260206004820152601d60248201527f417474656d707420746f206164642061207a65726f206164647265737300000060448201526064016105fc565b600182015460009015806115b357506001600160a01b0382166000908152602084905260409020541580156115b35750816001600160a01b03168360010160008154811061159b57634e487b7160e01b600052603260045260246000fd5b6000918252602090912001546001600160a01b031614155b9050806115bf57505050565b50600180830180546001600160a01b03909316600081815260209586526040812085905592840182559082529290200180546001600160a01b0319169091179055565b82805461160e90611a90565b90600052602060002090601f0160209004810192826116305760008555611676565b82601f1061164957805160ff1916838001178555611676565b82800160010185558215611676579182015b8281111561167657825182559160200191906001019061165b565b50611682929150611686565b5090565b5b808211156116825760008155600101611687565b80356116a681611b28565b919050565b600082601f8301126116bb578081fd5b813567ffffffffffffffff808211156116d6576116d6611b12565b604051601f8301601f19908116603f011681019082821181831017156116fe576116fe611b12565b81604052838152866020858801011115611716578485fd5b8360208701602083013792830160200193909352509392505050565b600060208284031215611743578081fd5b813561107781611b28565b60006020828403121561175f578081fd5b815161107781611b28565b60006020828403121561177b578081fd5b815161107781611b40565b60008060408385031215611798578081fd5b82356117a381611b40565b946020939093013593505050565b6000602082840312156117c2578081fd5b815160048110611077578182fd5b6000602082840312156117e1578081fd5b813567ffffffffffffffff808211156117f8578283fd5b9083019060a0828603121561180b578283fd5b611813611a19565b61181c8361169b565b815261182a6020840161169b565b6020820152604083013582811115611840578485fd5b61184c878286016116ab565b604083015250606083013582811115611863578485fd5b61186f878286016116ab565b606083015250608083013582811115611886578485fd5b611892878286016116ab565b60808301525095945050505050565b6000602082840312156118b2578081fd5b5035919050565b6000602082840312156118ca578081fd5b5051919050565b60008151808452815b818110156118f6576020818501810151868301820152016118da565b818111156119075782602083870101525b50601f01601f19169290920160200192915050565b6020808252825182820181905260009190848201906040850190845b8181101561195d5783516001600160a01b031683529284019291840191600101611938565b50909695505050505050565b60208101600c831061197d5761197d611afc565b91905290565b602081016011831061197d5761197d611afc565b6020815260006001600160a01b0380845116602084015280602085015116604084015250604083015160a060608401526119d460c08401826118d1565b90506060840151601f19808584030160808601526119f283836118d1565b925060808601519150808584030160a086015250611a1082826118d1565b95945050505050565b60405160a0810167ffffffffffffffff81118282101715611a3c57611a3c611b12565b60405290565b60008219821115611a5557611a55611ae6565b500190565b6000816000190483118215151615611a7457611a74611ae6565b500290565b600082821015611a8b57611a8b611ae6565b500390565b600181811c90821680611aa457607f821691505b60208210811415611ac557634e487b7160e01b600052602260045260246000fd5b50919050565b6000600019821415611adf57611adf611ae6565b5060010190565b634e487b7160e01b600052601160045260246000fd5b634e487b7160e01b600052602160045260246000fd5b634e487b7160e01b600052604160045260246000fd5b6001600160a01b0381168114611b3d57600080fd5b50565b8015158114611b3d57600080fdfea2646970667358221220f22c093fc1c2faef04ba7f8874fd314741bb917d0221211fc5c149f3fecefc6164736f6c63430008040033",
    "linkReferences": {},
    "deployedLinkReferences": {}
}