{
  "_format": "hh-sol-artifact-1",
  "contractName": "Provider",
  "sourceName": "contracts/Provider.sol",
  "abi": [
    {
      "inputs": [
        {
          "internalType": "address",
          "name": "superproAddress",
          "type": "address"
        },
        {
          "internalType": "address",
          "name": "_auth",
          "type": "address"
        },
        {
          "components": [
            {
              "internalType": "address",
              "name": "tokenReceiver",
              "type": "address"
            },
            {
              "internalType": "address",
              "name": "actionAccount",
              "type": "address"
            },
            {
              "internalType": "string",
              "name": "name",
              "type": "string"
            },
            {
              "internalType": "string",
              "name": "description",
              "type": "string"
            },
            {
              "internalType": "string",
              "name": "metadata",
              "type": "string"
            }
          ],
          "internalType": "struct ProviderInfo",
          "name": "_info",
          "type": "tuple"
        },
        {
          "internalType": "bytes32",
          "name": "_externalId",
          "type": "bytes32"
        }
      ],
      "stateMutability": "nonpayable",
      "type": "constructor"
    },
    {
      "inputs": [
        {
          "internalType": "address",
          "name": "offer",
          "type": "address"
        }
      ],
      "name": "addOffer",
      "outputs": [],
      "stateMutability": "nonpayable",
      "type": "function"
    },
    {
      "inputs": [],
      "name": "gc",
      "outputs": [],
      "stateMutability": "nonpayable",
      "type": "function"
    },
    {
      "inputs": [],
      "name": "getActionAccount",
      "outputs": [
        {
          "internalType": "address",
          "name": "",
          "type": "address"
        }
      ],
      "stateMutability": "view",
      "type": "function"
    },
    {
      "inputs": [],
      "name": "getAuth",
      "outputs": [
        {
          "internalType": "address",
          "name": "",
          "type": "address"
        }
      ],
      "stateMutability": "view",
      "type": "function"
    },
    {
      "inputs": [],
      "name": "getExteranlId",
      "outputs": [
        {
          "internalType": "bytes32",
          "name": "",
          "type": "bytes32"
        }
      ],
      "stateMutability": "view",
      "type": "function"
    },
    {
      "inputs": [],
      "name": "getInfo",
      "outputs": [
        {
          "components": [
            {
              "internalType": "address",
              "name": "tokenReceiver",
              "type": "address"
            },
            {
              "internalType": "address",
              "name": "actionAccount",
              "type": "address"
            },
            {
              "internalType": "string",
              "name": "name",
              "type": "string"
            },
            {
              "internalType": "string",
              "name": "description",
              "type": "string"
            },
            {
              "internalType": "string",
              "name": "metadata",
              "type": "string"
            }
          ],
          "internalType": "struct ProviderInfo",
          "name": "",
          "type": "tuple"
        }
      ],
      "stateMutability": "view",
      "type": "function"
    },
    {
      "inputs": [],
      "name": "getOffersState",
      "outputs": [
        {
          "components": [
            {
              "internalType": "uint256",
              "name": "teeEnabled",
              "type": "uint256"
            },
            {
              "internalType": "uint256",
              "name": "valueEnabled",
              "type": "uint256"
            },
            {
              "internalType": "uint256",
              "name": "lastDisabledAfter",
              "type": "uint256"
            }
          ],
          "internalType": "struct ProviderOffersState",
          "name": "",
          "type": "tuple"
        }
      ],
      "stateMutability": "view",
      "type": "function"
    },
    {
      "inputs": [],
      "name": "getOrigins",
      "outputs": [
        {
          "components": [
            {
              "internalType": "uint256",
              "name": "createdDate",
              "type": "uint256"
            },
            {
              "internalType": "address",
              "name": "createdBy",
              "type": "address"
            },
            {
              "internalType": "uint256",
              "name": "modifiedDate",
              "type": "uint256"
            },
            {
              "internalType": "address",
              "name": "modifiedBy",
              "type": "address"
            }
          ],
          "internalType": "struct Origins",
          "name": "",
          "type": "tuple"
        }
      ],
      "stateMutability": "view",
      "type": "function"
    },
    {
      "inputs": [
        {
          "internalType": "uint256",
          "name": "additional",
          "type": "uint256"
        }
      ],
      "name": "getTargetSecDepo",
      "outputs": [
        {
          "internalType": "uint256",
          "name": "",
          "type": "uint256"
        }
      ],
      "stateMutability": "view",
      "type": "function"
    },
    {
      "inputs": [],
      "name": "getTeeOffers",
      "outputs": [
        {
          "internalType": "address[]",
          "name": "",
          "type": "address[]"
        }
      ],
      "stateMutability": "view",
      "type": "function"
    },
    {
      "inputs": [],
      "name": "getTokenReceiver",
      "outputs": [
        {
          "internalType": "address",
          "name": "",
          "type": "address"
        }
      ],
      "stateMutability": "view",
      "type": "function"
    },
    {
      "inputs": [],
      "name": "getValueOffers",
      "outputs": [
        {
          "internalType": "address[]",
          "name": "",
          "type": "address[]"
        }
      ],
      "stateMutability": "view",
      "type": "function"
    },
    {
      "inputs": [],
      "name": "getViolationRate",
      "outputs": [
        {
          "internalType": "uint256",
          "name": "",
          "type": "uint256"
        }
      ],
      "stateMutability": "view",
      "type": "function"
    },
    {
      "inputs": [],
      "name": "hasEnabledOffers",
      "outputs": [
        {
          "internalType": "bool",
          "name": "",
          "type": "bool"
        }
      ],
      "stateMutability": "view",
      "type": "function"
    },
    {
      "inputs": [],
      "name": "incrViolationRate",
      "outputs": [],
      "stateMutability": "nonpayable",
      "type": "function"
    },
    {
      "inputs": [
        {
          "components": [
            {
              "internalType": "address",
              "name": "tokenReceiver",
              "type": "address"
            },
            {
              "internalType": "address",
              "name": "actionAccount",
              "type": "address"
            },
            {
              "internalType": "string",
              "name": "name",
              "type": "string"
            },
            {
              "internalType": "string",
              "name": "description",
              "type": "string"
            },
            {
              "internalType": "string",
              "name": "metadata",
              "type": "string"
            }
          ],
          "internalType": "struct ProviderInfo",
          "name": "_info",
          "type": "tuple"
        }
      ],
      "name": "modify",
      "outputs": [],
      "stateMutability": "nonpayable",
      "type": "function"
    },
    {
      "inputs": [
        {
          "internalType": "bool",
          "name": "enabled",
          "type": "bool"
        },
        {
          "internalType": "uint256",
          "name": "disabledAfter",
          "type": "uint256"
        }
      ],
      "name": "setOfferState",
      "outputs": [],
      "stateMutability": "nonpayable",
      "type": "function"
    },
    {
      "inputs": [],
      "name": "teeEnabledRecently",
      "outputs": [
        {
          "internalType": "uint256",
          "name": "",
          "type": "uint256"
        }
      ],
      "stateMutability": "view",
      "type": "function"
    },
    {
      "inputs": [],
      "name": "valueEnabledRecently",
      "outputs": [
        {
          "internalType": "uint256",
          "name": "",
          "type": "uint256"
        }
      ],
      "stateMutability": "view",
      "type": "function"
    }
  ],
  "bytecode": "0x60806040523480156200001157600080fd5b506040516200212a3803806200212a83398101604081905262000034916200029e565b600080546001600160a01b03199081166001600160a01b03878116919091179092556001805482168684161790558351600d80548316918416919091178155602080860151600e8054909416941693909317909155604084015180518593620000a392600f929101906200014a565b5060608201518051620000c19160038401916020909101906200014a565b5060808201518051620000df9160048401916020909101906200014a565b50905050620000fe8360126200010b60201b62000ee81790919060201c565b600255506200045f915050565b428083556001830180546001600160a01b039093166001600160a01b031993841681179091556002840191909155600390920180549091169091179055565b82805462000158906200040c565b90600052602060002090601f0160209004810192826200017c5760008555620001c7565b82601f106200019757805160ff1916838001178555620001c7565b82800160010185558215620001c7579182015b82811115620001c7578251825591602001919060010190620001aa565b50620001d5929150620001d9565b5090565b5b80821115620001d55760008155600101620001da565b80516001600160a01b03811681146200020857600080fd5b919050565b600082601f8301126200021e578081fd5b81516001600160401b038111156200023a576200023a62000449565b602062000250601f8301601f19168201620003d9565b828152858284870101111562000264578384fd5b835b838110156200028357858101830151828201840152820162000266565b838111156200029457848385840101525b5095945050505050565b60008060008060808587031215620002b4578384fd5b620002bf85620001f0565b9350620002cf60208601620001f0565b60408601519093506001600160401b0380821115620002ec578384fd5b9086019060a0828903121562000300578384fd5b6200030a620003ae565b6200031583620001f0565b81526200032560208401620001f0565b60208201526040830151828111156200033c578586fd5b6200034a8a8286016200020d565b60408301525060608301518281111562000362578586fd5b620003708a8286016200020d565b60608301525060808301518281111562000388578586fd5b620003968a8286016200020d565b60808301525060609790970151959894975050505050565b60405160a081016001600160401b0381118282101715620003d357620003d362000449565b60405290565b604051601f8201601f191681016001600160401b038111828210171562000404576200040462000449565b604052919050565b600181811c908216806200042157607f821691505b602082108114156200044357634e487b7160e01b600052602260045260246000fd5b50919050565b634e487b7160e01b600052604160045260246000fd5b611cbb806200046f6000396000f3fe608060405234801561001057600080fd5b50600436106101515760003560e01c8063685dd944116100cd578063b737e98e11610081578063cf06217c11610066578063cf06217c1461031f578063d3328a6914610332578063fc282c1f1461033a57600080fd5b8063b737e98e14610273578063bab13ee11461031757600080fd5b806380eecb09116100b257806380eecb09146102355780639789e3231461024d578063a553269b1461026057600080fd5b8063685dd9441461020f5780636d69a3e81461022457600080fd5b80631b71d85f116101245780635a9b0b89116101095780635a9b0b89146101d65780635e7ddcb8146101eb5780636760c4b7146101fe57600080fd5b80631b71d85f146101c45780634547ada9146101ce57600080fd5b806308571011146101565780630c72dc31146101805780630cca32f71461019257806316f864001461019a575b600080fd5b6001546001600160a01b03165b6040516001600160a01b0390911681526020015b60405180910390f35b6003545b604051908152602001610177565b610184610342565b6101a26103b2565b6040805182518152602080840151908201529181015190820152606001610177565b6101cc6103fb565b005b610184610411565b6101de61047a565b6040516101779190611ace565b6101cc6101f9366004611907565b610688565b600e546001600160a01b0316610163565b610217610788565b6040516101779190611a53565b600d546001600160a01b0316610163565b61023d6107ec565b6040519015158152602001610177565b6101cc61025b3660046118bd565b61081a565b6101cc61026e366004611869565b610bb2565b6102d5604080516080810182526000808252602082018190529181018290526060810191909152506040805160808101825260125481526013546001600160a01b03908116602083015260145492820192909252601554909116606082015290565b6040516101779190815181526020808301516001600160a01b039081169183019190915260408084015190830152606092830151169181019190915260800190565b6101cc610d10565b61018461032d3660046119d8565b610dc0565b600254610184565b610217610e85565b60006103ad60046005016001018054806020026020016040519081016040528092919081815260200182805480156103a357602002820191906000526020600020905b81546001600160a01b03168152600190910190602001808311610385575b5050505050610f27565b905090565b6103d660405180606001604052806000815260200160008152602001600081525090565b5060408051606081018252600454815260055460208201526006549181019190915290565b6104056009611013565b61040f600b611013565b565b60006103ad60046007016001018054806020026020016040519081016040528092919081815260200182805480156103a3576020028201919060005260206000209081546001600160a01b03168152600190910190602001808311610385575050505050610f27565b6040805160a08101825260008082526020820152606091810182905281810182905260808101919091526040805160a081018252600d80546001600160a01b039081168352600e54166020830152600f805492939192918401916104dd90611bc7565b80601f016020809104026020016040519081016040528092919081815260200182805461050990611bc7565b80156105565780601f1061052b57610100808354040283529160200191610556565b820191906000526020600020905b81548152906001019060200180831161053957829003601f168201915b5050505050815260200160038201805461056f90611bc7565b80601f016020809104026020016040519081016040528092919081815260200182805461059b90611bc7565b80156105e85780601f106105bd576101008083540402835291602001916105e8565b820191906000526020600020905b8154815290600101906020018083116105cb57829003601f168201915b5050505050815260200160048201805461060190611bc7565b80601f016020809104026020016040519081016040528092919081815260200182805461062d90611bc7565b801561067a5780601f1061064f5761010080835404028352916020019161067a565b820191906000526020600020905b81548152906001019060200180831161065d57829003601f168201915b505050505081525050905090565b6001546001600160a01b031633146106e75760405162461bcd60e51b815260206004820152601a60248201527f4f6e6c79206f776e65722063616e206d6f6469667920696e666f00000000000060448201526064015b60405180910390fd5b42601455601580546001600160a01b031916331790558051600d80546001600160a01b03199081166001600160a01b03938416178255602080850151600e8054909316941693909317905560408301518051849361074a92600f92910190611739565b5060608201518051610766916003840191602090910190611739565b5060808201518051610782916004840191602090910190611739565b50505050565b6060600480018054806020026020016040519081016040528092919081815260200182805480156107e257602002820191906000526020600020905b81546001600160a01b031681526001909101906020018083116107c4575b5050505050905090565b60055460045460009182916108019190611b79565b9050600081118061081457506006544211155b91505090565b60003390506000816001600160a01b031663af5372e66040518163ffffffff1660e01b815260040160206040518083038186803b15801561085a57600080fd5b505afa15801561086e573d6000803e3d6000fd5b505050506040513d601f19601f8201168201806040525081019061089291906118e8565b90506000808260038111156108b757634e487b7160e01b600052602160045260246000fd5b1490506000816108dd576000546108d8906001600160a01b03166006611128565b6108f4565b6000546108f4906001600160a01b03166005611128565b905060008261091757600054610912906001600160a01b03166111b5565b61092c565b60005461092c906001600160a01b0316611242565b6040517f165dee3f0000000000000000000000000000000000000000000000000000000081526001600160a01b03878116600483015291925060009183169063165dee3f9060240160206040518083038186803b15801561098c57600080fd5b505afa1580156109a0573d6000803e3d6000fd5b505050506040513d601f19601f820116820180604052508101906109c49190611885565b6001549091506001600160a01b03808316911614610a245760405162461bcd60e51b815260206004820152601060248201527f556e6b6e6f776e2070726f76696465720000000000000000000000000000000060448201526064016106de565b8715610b74576000610a3584610dc0565b6000805491925090610a4f906001600160a01b0316611279565b6040517fb00e3c240000000000000000000000000000000000000000000000000000000081526001600160a01b038581166004830152919091169063b00e3c249060240160206040518083038186803b158015610aab57600080fd5b505afa158015610abf573d6000803e3d6000fd5b505050506040513d601f19601f82011682018060405250810190610ae391906119f0565b905081811015610b5b5760405162461bcd60e51b815260206004820152602760248201527f43616e277420656e61626c652064756520736d616c6c2073656375726974792060448201527f6465706f7369740000000000000000000000000000000000000000000000000060648201526084016106de565b610b6860048760016112b0565b50505050505050505050565b610b8160048560006112b0565b610b8d6004858861132b565b600454158015610b9d5750600554155b15610ba85760068790555b5050505050505050565b600054610bc7906001600160a01b0316611242565b6001600160a01b0316336001600160a01b03161480610c0b5750600054610bf6906001600160a01b03166111b5565b6001600160a01b0316336001600160a01b0316145b610c575760405162461bcd60e51b815260206004820181905260248201527f417661696c61626c65206f6e6c7920666f72204f6666657273466163746f727960448201526064016106de565b6000816001600160a01b031663af5372e66040518163ffffffff1660e01b815260040160206040518083038186803b158015610c9257600080fd5b505afa158015610ca6573d6000803e3d6000fd5b505050506040513d601f19601f82011682018060405250810190610cca91906118e8565b9050600080826003811115610cef57634e487b7160e01b600052602160045260246000fd5b149050610cff60048260016112b0565b610d0b6004828561134b565b505050565b600054610d25906001600160a01b0316611242565b6001600160a01b0316336001600160a01b031614610dab5760405162461bcd60e51b815260206004820152602360248201527f417661696c61626c65206f6e6c7920666f72205465654f66666572734661637460448201527f6f7279000000000000000000000000000000000000000000000000000000000060648201526084016106de565b600360008154610dba90611c02565b90915550565b600080548190610dda906001600160a01b03166002611128565b90506000610de6610411565b600554610df39190611b79565b600054610e0a906001600160a01b03166006611128565b610e149190611b91565b90506000610e20610342565b600454610e2d9190611b79565b600054610e44906001600160a01b03166005611128565b610e4e9190611b91565b9050600085610e5d8484611b79565b610e679190611b79565b90506000818511610e785781610e7a565b845b979650505050505050565b606060046003018054806020026020016040519081016040528092919081815260200182805480156107e2576020028201919060005260206000209081546001600160a01b031681526001909101906020018083116107c4575050505050905090565b428083556001830180546001600160a01b039093166001600160a01b031993841681179091556002840191909155600390920180549091169091179055565b600080805b835181101561100c576000848281518110610f5757634e487b7160e01b600052603260045260246000fd5b602002602001015190506000816001600160a01b031663aad451336040518163ffffffff1660e01b815260040160206040518083038186803b158015610f9c57600080fd5b505afa158015610fb0573d6000803e3d6000fd5b505050506040513d601f19601f82011682018060405250810190610fd491906119f0565b90508015801590610fe457504281115b15610ff757610ff4600185611b79565b93505b5050808061100490611c02565b915050610f2c565b5092915050565b60005a905060005b60018301548110801561103b57506233e1405a6110389084611bb0565b11155b15610d0b57600083600101828154811061106557634e487b7160e01b600052603260045260246000fd5b60009182526020918290200154604080517f6aa633b600000000000000000000000000000000000000000000000000000000815290516001600160a01b03909216935083928392636aa633b6926004808201939291829003018186803b1580156110ce57600080fd5b505afa1580156110e2573d6000803e3d6000fd5b505050506040513d601f19601f8201168201806040525081019061110691906118a1565b6111145761111485836113bf565b61111f600184611b79565b9250505061101b565b6000611133836115e3565b6001600160a01b03166303a2216d836040518263ffffffff1660e01b815260040161115e9190611aba565b60206040518083038186803b15801561117657600080fd5b505afa15801561118a573d6000803e3d6000fd5b505050506040513d601f19601f820116820180604052508101906111ae91906119f0565b9392505050565b60006111c0826115e3565b6001600160a01b031663bcaa0c5560066040518263ffffffff1660e01b81526004016111ec9190611aa0565b60206040518083038186803b15801561120457600080fd5b505afa158015611218573d6000803e3d6000fd5b505050506040513d601f19601f8201168201806040525081019061123c9190611885565b92915050565b600061124d826115e3565b6001600160a01b031663bcaa0c5560046040518263ffffffff1660e01b81526004016111ec9190611aa0565b6000611284826115e3565b6001600160a01b031663bcaa0c5560016040518263ffffffff1660e01b81526004016111ec9190611aa0565b81156112f15780156112dc57825460019084906000906112d1908490611b79565b90915550610d0b9050565b825460019084906000906112d1908490611bb0565b801561130c57600183810180546000906112d1908490611b79565b60018381018054600090611321908490611bb0565b9091555050505050565b811561133e57610d0b600584018261161e565b610d0b600784018261161e565b811561138857600483018054600181018255600091825260209091200180546001600160a01b0383166001600160a01b0319909116179055505050565b600383018054600181018255600091825260209091200180546001600160a01b0383166001600160a01b0319909116179055505050565b6001600160a01b0381166114155760405162461bcd60e51b815260206004820181905260248201527f417474656d707420746f2072656d6f76652061207a65726f206164647265737360448201526064016106de565b6001820154611422575050565b6001600160a01b0381166000818152602084905260409020546001840180549192918390811061146257634e487b7160e01b600052603260045260246000fd5b6000918252602090912001546001600160a01b0316146114e95760405162461bcd60e51b8152602060048201526024808201527f3530302e20556e6578706563746564204164647265737348617368536574207360448201527f746174650000000000000000000000000000000000000000000000000000000060648201526084016106de565b600180840180546000926114fc91611bb0565b8154811061151a57634e487b7160e01b600052603260045260246000fd5b6000918252602090912001546001850180546001600160a01b03909216925082918490811061155957634e487b7160e01b600052603260045260246000fd5b600091825260208083209190910180546001600160a01b0319166001600160a01b0394851617905583831682528690526040808220859055918516815290812055600184018054806115bb57634e487b7160e01b600052603160045260246000fd5b600082815260209020810160001990810180546001600160a01b031916905501905550505050565b6000816001600160a01b031663f1f0bd016040518163ffffffff1660e01b815260040160206040518083038186803b15801561120457600080fd5b6001600160a01b0381166116745760405162461bcd60e51b815260206004820152601d60248201527f417474656d707420746f206164642061207a65726f206164647265737300000060448201526064016106de565b600182015460009015806116ea57506001600160a01b0382166000908152602084905260409020541580156116ea5750816001600160a01b0316836001016000815481106116d257634e487b7160e01b600052603260045260246000fd5b6000918252602090912001546001600160a01b031614155b9050806116f657505050565b50600180830180546001600160a01b03909316600081815260209586526040812085905592840182559082529290200180546001600160a01b0319169091179055565b82805461174590611bc7565b90600052602060002090601f01602090048101928261176757600085556117ad565b82601f1061178057805160ff19168380011785556117ad565b828001600101855582156117ad579182015b828111156117ad578251825591602001919060010190611792565b506117b99291506117bd565b5090565b5b808211156117b957600081556001016117be565b80356117dd81611c5f565b919050565b600082601f8301126117f2578081fd5b813567ffffffffffffffff8082111561180d5761180d611c49565b604051601f8301601f19908116603f0116810190828211818310171561183557611835611c49565b8160405283815286602085880101111561184d578485fd5b8360208701602083013792830160200193909352509392505050565b60006020828403121561187a578081fd5b81356111ae81611c5f565b600060208284031215611896578081fd5b81516111ae81611c5f565b6000602082840312156118b2578081fd5b81516111ae81611c77565b600080604083850312156118cf578081fd5b82356118da81611c77565b946020939093013593505050565b6000602082840312156118f9578081fd5b8151600481106111ae578182fd5b600060208284031215611918578081fd5b813567ffffffffffffffff8082111561192f578283fd5b9083019060a08286031215611942578283fd5b61194a611b50565b611953836117d2565b8152611961602084016117d2565b6020820152604083013582811115611977578485fd5b611983878286016117e2565b60408301525060608301358281111561199a578485fd5b6119a6878286016117e2565b6060830152506080830135828111156119bd578485fd5b6119c9878286016117e2565b60808301525095945050505050565b6000602082840312156119e9578081fd5b5035919050565b600060208284031215611a01578081fd5b5051919050565b60008151808452815b81811015611a2d57602081850181015186830182015201611a11565b81811115611a3e5782602083870101525b50601f01601f19169290920160200192915050565b6020808252825182820181905260009190848201906040850190845b81811015611a945783516001600160a01b031683529284019291840191600101611a6f565b50909695505050505050565b60208101600c8310611ab457611ab4611c33565b91905290565b6020810160118310611ab457611ab4611c33565b6020815260006001600160a01b0380845116602084015280602085015116604084015250604083015160a06060840152611b0b60c0840182611a08565b90506060840151601f1980858403016080860152611b298383611a08565b925060808601519150808584030160a086015250611b478282611a08565b95945050505050565b60405160a0810167ffffffffffffffff81118282101715611b7357611b73611c49565b60405290565b60008219821115611b8c57611b8c611c1d565b500190565b6000816000190483118215151615611bab57611bab611c1d565b500290565b600082821015611bc257611bc2611c1d565b500390565b600181811c90821680611bdb57607f821691505b60208210811415611bfc57634e487b7160e01b600052602260045260246000fd5b50919050565b6000600019821415611c1657611c16611c1d565b5060010190565b634e487b7160e01b600052601160045260246000fd5b634e487b7160e01b600052602160045260246000fd5b634e487b7160e01b600052604160045260246000fd5b6001600160a01b0381168114611c7457600080fd5b50565b8015158114611c7457600080fdfea2646970667358221220adedc6e75137f97084a039e380a421b091b9e23eef3733cdb44811bbe299ea7464736f6c63430008040033",
  "linkReferences": {},
  "deployedLinkReferences": {}
}