{
  "_format": "hh-sol-artifact-1",
  "contractName": "Providers",
  "sourceName": "contracts/Providers.sol",
  "abi": [
    {
      "anonymous": false,
      "inputs": [
        {
          "indexed": true,
          "internalType": "address",
          "name": "auth",
          "type": "address"
        }
      ],
      "name": "ProviderModified",
      "type": "event"
    },
    {
      "anonymous": false,
      "inputs": [
        {
          "indexed": true,
          "internalType": "address",
          "name": "auth",
          "type": "address"
        },
        {
          "indexed": true,
          "internalType": "uint256",
          "name": "charge",
          "type": "uint256"
        }
      ],
      "name": "ProviderPenalty",
      "type": "event"
    },
    {
      "anonymous": false,
      "inputs": [
        {
          "indexed": true,
          "internalType": "address",
          "name": "auth",
          "type": "address"
        }
      ],
      "name": "ProviderRegistered",
      "type": "event"
    },
    {
      "anonymous": false,
      "inputs": [
        {
          "indexed": true,
          "internalType": "address",
          "name": "auth",
          "type": "address"
        },
        {
          "indexed": false,
          "internalType": "uint256",
          "name": "amount",
          "type": "uint256"
        }
      ],
      "name": "ProviderSecurityDepoRefilled",
      "type": "event"
    },
    {
      "anonymous": false,
      "inputs": [
        {
          "indexed": true,
          "internalType": "address",
          "name": "auth",
          "type": "address"
        },
        {
          "indexed": false,
          "internalType": "uint256",
          "name": "amount",
          "type": "uint256"
        }
      ],
      "name": "ProviderSecurityDepoUnlocked",
      "type": "event"
    },
    {
      "anonymous": false,
      "inputs": [
        {
          "indexed": true,
          "internalType": "address",
          "name": "auth",
          "type": "address"
        },
        {
          "indexed": false,
          "internalType": "uint256",
          "name": "newViolationRate",
          "type": "uint256"
        }
      ],
      "name": "ProviderViolationRateIncremented",
      "type": "event"
    },
    {
      "inputs": [
        {
          "internalType": "uint256",
          "name": "teeOfferId",
          "type": "uint256"
        },
        {
          "internalType": "uint256",
          "name": "amount",
          "type": "uint256"
        }
      ],
      "name": "chargePenalty",
      "outputs": [],
      "stateMutability": "nonpayable",
      "type": "function"
    },
    {
      "inputs": [
        {
          "internalType": "address",
          "name": "providerAuth",
          "type": "address"
        }
      ],
      "name": "getProviderActionAccount",
      "outputs": [
        {
          "internalType": "address",
          "name": "",
          "type": "address"
        }
      ],
      "stateMutability": "view",
      "type": "function"
    },
    {
      "inputs": [
        {
          "internalType": "address",
          "name": "providerAuth",
          "type": "address"
        }
      ],
      "name": "getProviderInfo",
      "outputs": [
        {
          "components": [
            {
              "internalType": "address",
              "name": "tokenReceiver",
              "type": "address"
            },
            {
              "internalType": "address",
              "name": "actionAccount",
              "type": "address"
            },
            {
              "internalType": "string",
              "name": "name",
              "type": "string"
            },
            {
              "internalType": "string",
              "name": "description",
              "type": "string"
            },
            {
              "internalType": "string",
              "name": "metadata",
              "type": "string"
            }
          ],
          "internalType": "struct ProviderInfo",
          "name": "",
          "type": "tuple"
        }
      ],
      "stateMutability": "view",
      "type": "function"
    },
    {
      "inputs": [
        {
          "internalType": "address",
          "name": "providerAuth",
          "type": "address"
        }
      ],
      "name": "getProviderOrigins",
      "outputs": [
        {
          "components": [
            {
              "internalType": "uint256",
              "name": "createdDate",
              "type": "uint256"
            },
            {
              "internalType": "address",
              "name": "createdBy",
              "type": "address"
            },
            {
              "internalType": "uint256",
              "name": "modifiedDate",
              "type": "uint256"
            },
            {
              "internalType": "address",
              "name": "modifiedBy",
              "type": "address"
            }
          ],
          "internalType": "struct Origins",
          "name": "",
          "type": "tuple"
        }
      ],
      "stateMutability": "view",
      "type": "function"
    },
    {
      "inputs": [
        {
          "internalType": "address",
          "name": "providerAuth",
          "type": "address"
        }
      ],
      "name": "getProviderSecurityDeposit",
      "outputs": [
        {
          "internalType": "uint256",
          "name": "",
          "type": "uint256"
        }
      ],
      "stateMutability": "view",
      "type": "function"
    },
    {
      "inputs": [
        {
          "internalType": "address",
          "name": "providerAuth",
          "type": "address"
        }
      ],
      "name": "getProviderTokenReceiver",
      "outputs": [
        {
          "internalType": "address",
          "name": "",
          "type": "address"
        }
      ],
      "stateMutability": "view",
      "type": "function"
    },
    {
      "inputs": [
        {
          "internalType": "address",
          "name": "providerAuth",
          "type": "address"
        }
      ],
      "name": "getProviderViolationRate",
      "outputs": [
        {
          "internalType": "uint256",
          "name": "",
          "type": "uint256"
        }
      ],
      "stateMutability": "view",
      "type": "function"
    },
    {
      "inputs": [],
      "name": "getProvidersAuths",
      "outputs": [
        {
          "internalType": "address[]",
          "name": "",
          "type": "address[]"
        }
      ],
      "stateMutability": "view",
      "type": "function"
    },
    {
      "inputs": [],
      "name": "getProvidersCount",
      "outputs": [
        {
          "internalType": "uint256",
          "name": "",
          "type": "uint256"
        }
      ],
      "stateMutability": "view",
      "type": "function"
    },
    {
      "inputs": [
        {
          "internalType": "address",
          "name": "providerAuth",
          "type": "address"
        }
      ],
      "name": "incrProviderViolationRate",
      "outputs": [],
      "stateMutability": "nonpayable",
      "type": "function"
    },
    {
      "inputs": [
        {
          "internalType": "address",
          "name": "providerAuth",
          "type": "address"
        }
      ],
      "name": "isProviderRegistered",
      "outputs": [
        {
          "internalType": "bool",
          "name": "",
          "type": "bool"
        }
      ],
      "stateMutability": "view",
      "type": "function"
    },
    {
      "inputs": [
        {
          "components": [
            {
              "internalType": "address",
              "name": "tokenReceiver",
              "type": "address"
            },
            {
              "internalType": "address",
              "name": "actionAccount",
              "type": "address"
            },
            {
              "internalType": "string",
              "name": "name",
              "type": "string"
            },
            {
              "internalType": "string",
              "name": "description",
              "type": "string"
            },
            {
              "internalType": "string",
              "name": "metadata",
              "type": "string"
            }
          ],
          "internalType": "struct ProviderInfo",
          "name": "info",
          "type": "tuple"
        }
      ],
      "name": "modifyProvider",
      "outputs": [],
      "stateMutability": "nonpayable",
      "type": "function"
    },
    {
      "inputs": [
        {
          "internalType": "uint256",
          "name": "amount",
          "type": "uint256"
        }
      ],
      "name": "refillProviderSecurityDepo",
      "outputs": [],
      "stateMutability": "nonpayable",
      "type": "function"
    },
    {
      "inputs": [
        {
          "components": [
            {
              "internalType": "address",
              "name": "tokenReceiver",
              "type": "address"
            },
            {
              "internalType": "address",
              "name": "actionAccount",
              "type": "address"
            },
            {
              "internalType": "string",
              "name": "name",
              "type": "string"
            },
            {
              "internalType": "string",
              "name": "description",
              "type": "string"
            },
            {
              "internalType": "string",
              "name": "metadata",
              "type": "string"
            }
          ],
          "internalType": "struct ProviderInfo",
          "name": "info",
          "type": "tuple"
        }
      ],
      "name": "registerProvider",
      "outputs": [],
      "stateMutability": "nonpayable",
      "type": "function"
    },
    {
      "inputs": [
        {
          "internalType": "uint256",
          "name": "amount",
          "type": "uint256"
        }
      ],
      "name": "returnProviderSecurityDepo",
      "outputs": [],
      "stateMutability": "nonpayable",
      "type": "function"
    }
  ],
  "bytecode": "0x608060405234801561001057600080fd5b50611bca806100206000396000f3fe608060405234801561001057600080fd5b50600436106100f55760003560e01c8063743c7f3c11610097578063bfafedef11610066578063bfafedef14610304578063d8a2d2c51461032b578063e50e576f1461033e578063efd6be961461035157600080fd5b8063743c7f3c146102675780637583902f1461027a5780637a0c9fd71461029a57806389ffbb66146102af57600080fd5b806324a45aa4116100d357806324a45aa4146101d35780632cf9452d1461022c578063349c90461461024157806337e3340a1461025457600080fd5b80630cc079f3146100fa5780630e3bbace146101625780631ead914e146101b0575b600080fd5b6101456101083660046116a2565b6001600160a01b0390811660009081527f52588381cd4d8d3547de3f83e02afc2a959800daf5acde67c4c75b8795a617ca60205260409020541690565b6040516001600160a01b0390911681526020015b60405180910390f35b6101456101703660046116a2565b6001600160a01b0390811660009081527f52588381cd4d8d3547de3f83e02afc2a959800daf5acde67c4c75b8795a617ca60205260409020600101541690565b6101c36101be3660046116a2565b610364565b6040519015158152602001610159565b61021e6101e13660046116a2565b6001600160a01b031660009081527f52588381cd4d8d3547de3f83e02afc2a959800daf5acde67c4c75b8795a617ca602052604090206009015490565b604051908152602001610159565b61023f61023a3660046116bf565b610419565b005b61023f61024f3660046116d8565b610781565b61023f6102623660046117c6565b610938565b61023f6102753660046116bf565b610aae565b61028d6102883660046116a2565b610cc1565b60405161015991906118ea565b6102a2610f00565b604051610159919061196c565b6102c26102bd3660046116a2565b610f85565b6040516101599190815181526020808301516001600160a01b039081169183019190915260408084015190830152606092830151169181019190915260800190565b7f52588381cd4d8d3547de3f83e02afc2a959800daf5acde67c4c75b8795a617cc5461021e565b61021e6103393660046116a2565b61102b565b61023f61034c3660046116a2565b611121565b61023f61035f3660046117c6565b611205565b7f52588381cd4d8d3547de3f83e02afc2a959800daf5acde67c4c75b8795a617cc546000907f52588381cd4d8d3547de3f83e02afc2a959800daf5acde67c4c75b8795a617ca906103b85750600092915050565b6001600160a01b03831660009081526001820160205260409020541515806104125750826001600160a01b0316816002016000815481106103fb576103fb6119b9565b6000918252602090912001546001600160a01b0316145b9392505050565b336000306040517f2f06cde80000000000000000000000000000000000000000000000000000000081526001600160a01b038481166004830152600060248301529190911690632f06cde89060440160206040518083038186803b15801561048057600080fd5b505afa158015610494573d6000803e3d6000fd5b505050506040513d601f19601f820116820180604052508101906104b891906119cf565b905060006104c58361102b565b90506000841161051c5760405162461bcd60e51b815260206004820152600e60248201527f496e76616c696420616d6f756e7400000000000000000000000000000000000060448201526064015b60405180910390fd5b808411156105925760405162461bcd60e51b815260206004820152602260248201527f4465706f736974206c657373207468616e2072657175657374656420616d6f7560448201527f6e740000000000000000000000000000000000000000000000000000000000006064820152608401610513565b6000306040517f024ed19e0000000000000000000000000000000000000000000000000000000081526001600160a01b038681166004830152919091169063024ed19e9060240160206040518083038186803b1580156105f157600080fd5b505afa158015610605573d6000803e3d6000fd5b505050506040513d601f19601f8201168201806040525081019061062991906119e8565b905060006106378684611a20565b90508115806106465750808411155b6106b85760405162461bcd60e51b815260206004820152603160248201527f436f756e74206f6620656e61626c6564206f666665727320726571756972656460448201527f2061206c6172676572206465706f7369740000000000000000000000000000006064820152608401610513565b306040517f9d564d9a0000000000000000000000000000000000000000000000000000000081526001600160a01b038781166004830152602482018990529190911690639d564d9a90604401600060405180830381600087803b15801561071e57600080fd5b505af1158015610732573d6000803e3d6000fd5b50505050846001600160a01b03167f491959aeb49cbc7254b9a38e2aa5c7c4eda0618abf03212c038f70b7ffc78ab18760405161077191815260200190565b60405180910390a2505050505050565b3330146107d05760405162461bcd60e51b815260206004820152601660248201527f45787465726e616c206163636573732064656e696564000000000000000000006044820152606401610513565b6040517f4e6e04f7000000000000000000000000000000000000000000000000000000008152600481018390526000903090634e6e04f79060240160206040518083038186803b15801561082357600080fd5b505afa158015610837573d6000803e3d6000fd5b505050506040513d601f19601f8201168201806040525081019061085b9190611a37565b905060006108688261102b565b90506000838210610879578361087b565b815b9050306040517fe5ee677f0000000000000000000000000000000000000000000000000000000081526001600160a01b03858116600483015260248201849052919091169063e5ee677f90604401600060405180830381600087803b1580156108e357600080fd5b505af11580156108f7573d6000803e3d6000fd5b50506040518392506001600160a01b03861691507f4c03946098f04bb1c120c20ccd7faae3259d996644dcf1e84eb55751b09d8db490600090a35050505050565b61094133610364565b61098d5760405162461bcd60e51b815260206004820152601a60248201527f50726f7669646572206973206e6f7420726567697374657265640000000000006044820152606401610513565b3360008181527f52588381cd4d8d3547de3f83e02afc2a959800daf5acde67c4c75b8795a617ca6020526040902042600782015560088101805473ffffffffffffffffffffffffffffffffffffffff19169092179091558151815473ffffffffffffffffffffffffffffffffffffffff199081166001600160a01b0392831617835560208085015160018501805490931693169290921790556040830151805184928492610a4492600285019291909101906115e1565b5060608201518051610a609160038401916020909101906115e1565b5060808201518051610a7c9160048401916020909101906115e1565b50506040513391507f68383e0998ad9071523447c34fc42e5f2ceb5edc3d9c8c61c80de104b371cc5c90600090a25050565b610ab733610364565b610b035760405162461bcd60e51b815260206004820152601a60248201527f50726f7669646572206973206e6f7420726567697374657265640000000000006044820152606401610513565b3360003060405163c345315360e01b81526001600160a01b038481166004830152919091169063c34531539060240160806040518083038186803b158015610b4a57600080fd5b505afa158015610b5e573d6000803e3d6000fd5b505050506040513d601f19601f82011682018060405250810190610b829190611a54565b90508281606001518260200151610b999190611a20565b1015610c0d5760405162461bcd60e51b815260206004820152602260248201527f4e6f7420656e6f756768207374616b656420746f6b656e7320746f207265666960448201527f6c6c0000000000000000000000000000000000000000000000000000000000006064820152608401610513565b3060405163a25983e560e01b81526001600160a01b0384811660048301526024820186905260006044830152919091169063a25983e590606401600060405180830381600087803b158015610c6157600080fd5b505af1158015610c75573d6000803e3d6000fd5b50505050816001600160a01b03167fa00a5a8400fb99170695f28ed505fc8b19ae0a08f8205a0d264dbb4f8850757184604051610cb491815260200190565b60405180910390a2505050565b6040805160a0808201835260008083526020808401829052606084860181905280850181905260808501526001600160a01b0386811683527f52588381cd4d8d3547de3f83e02afc2a959800daf5acde67c4c75b8795a617ca8252918590208551938401865280548316845260018101549092169083015260028101805493949193849284019190610d5290611aba565b80601f0160208091040260200160405190810160405280929190818152602001828054610d7e90611aba565b8015610dcb5780601f10610da057610100808354040283529160200191610dcb565b820191906000526020600020905b815481529060010190602001808311610dae57829003601f168201915b50505050508152602001600382018054610de490611aba565b80601f0160208091040260200160405190810160405280929190818152602001828054610e1090611aba565b8015610e5d5780601f10610e3257610100808354040283529160200191610e5d565b820191906000526020600020905b815481529060010190602001808311610e4057829003601f168201915b50505050508152602001600482018054610e7690611aba565b80601f0160208091040260200160405190810160405280929190818152602001828054610ea290611aba565b8015610eef5780601f10610ec457610100808354040283529160200191610eef565b820191906000526020600020905b815481529060010190602001808311610ed257829003601f168201915b505050505081525050915050919050565b606060007f52588381cd4d8d3547de3f83e02afc2a959800daf5acde67c4c75b8795a617ca60028101805460408051602080840282018101909252828152939450830182828015610f7a57602002820191906000526020600020905b81546001600160a01b03168152600190910190602001808311610f5c575b505050505091505090565b604080516080810182526000808252602082018190529181018290526060810182905290610fe6836001600160a01b031660009081527f52588381cd4d8d3547de3f83e02afc2a959800daf5acde67c4c75b8795a617ca6020526040902090565b604080516080810182526005830154815260068301546001600160a01b0390811660208301526007840154928201929092526008909201541660608201529392505050565b600061103682610364565b6110825760405162461bcd60e51b815260206004820152600e60248201527f4e6f7420612070726f76696465720000000000000000000000000000000000006044820152606401610513565b306040517f80acddbd0000000000000000000000000000000000000000000000000000000081526001600160a01b03848116600483015291909116906380acddbd9060240160606040518083038186803b1580156110df57600080fd5b505afa1580156110f3573d6000803e3d6000fd5b505050506040513d601f19601f820116820180604052508101906111179190611af5565b6040015192915050565b3330146111705760405162461bcd60e51b815260206004820152601660248201527f45787465726e616c206163636573732064656e696564000000000000000000006044820152606401610513565b6001600160a01b03811660009081527f52588381cd4d8d3547de3f83e02afc2a959800daf5acde67c4c75b8795a617ca60205260408120905080600901600081546111ba90611b51565b9091555060098101546040519081526001600160a01b038316907febb939c0d7d2fffc5d2993e54117e806d70e1b12ee7e77336a891de176fa48bc9060200160405180910390a25050565b61120e33610364565b1561125b5760405162461bcd60e51b815260206004820152601b60248201527f50726f766964657220616c7265616479207265676973746572656400000000006044820152606401610513565b3360003060405163c345315360e01b81526001600160a01b038481166004830152919091169063c34531539060240160806040518083038186803b1580156112a257600080fd5b505afa1580156112b6573d6000803e3d6000fd5b505050506040513d601f19601f820116820180604052508101906112da9190611a54565b90506000816060015182602001516112f29190611a20565b6040517f897ce7cf000000000000000000000000000000000000000000000000000000008152909150600090309063897ce7cf9061133590600290600401611b6c565b60206040518083038186803b15801561134d57600080fd5b505afa158015611361573d6000803e3d6000fd5b505050506040513d601f19601f8201168201806040525081019061138591906119cf565b9050808210156113fd5760405162461bcd60e51b815260206004820152602960248201527f4e6f7420656e6f756768207374616b656420746f6b656e7320666f722072656760448201527f697374726174696f6e00000000000000000000000000000000000000000000006064820152608401610513565b3060405163a25983e560e01b81526001600160a01b0386811660048301526024820184905260006044830152919091169063a25983e590606401600060405180830381600087803b15801561145157600080fd5b505af1158015611465573d6000803e3d6000fd5b5050505060006114927f52588381cd4d8d3547de3f83e02afc2a959800daf5acde67c4c75b8795a617ca90565b600281810180546001600160a01b0389811660008181526001808801602090815260408084208790558287018855968352808320909501805473ffffffffffffffffffffffffffffffffffffffff199081168517909155928252878552908590208d51815484169085161781558d850151918101805490931691909316179055918a0151805194955091938a93859361153193918501929101906115e1565b506060820151805161154d9160038401916020909101906115e1565b50608082015180516115699160048401916020909101906115e1565b505042600583018190556006830180543373ffffffffffffffffffffffffffffffffffffffff19918216811790925560078501929092556008840180549092161790555060405133907f70abce74777b3838ae60a33a6b9a87d9d25532668fe4fea548554c55868579c090600090a250505050505050565b8280546115ed90611aba565b90600052602060002090601f01602090048101928261160f5760008555611655565b82601f1061162857805160ff1916838001178555611655565b82800160010185558215611655579182015b8281111561165557825182559160200191906001019061163a565b50611661929150611665565b5090565b5b808211156116615760008155600101611666565b6001600160a01b038116811461168f57600080fd5b50565b803561169d8161167a565b919050565b6000602082840312156116b457600080fd5b81356104128161167a565b6000602082840312156116d157600080fd5b5035919050565b600080604083850312156116eb57600080fd5b50508035926020909101359150565b634e487b7160e01b600052604160045260246000fd5b60405160a0810167ffffffffffffffff81118282101715611733576117336116fa565b60405290565b600082601f83011261174a57600080fd5b813567ffffffffffffffff80821115611765576117656116fa565b604051601f8301601f19908116603f0116810190828211818310171561178d5761178d6116fa565b816040528381528660208588010111156117a657600080fd5b836020870160208301376000602085830101528094505050505092915050565b6000602082840312156117d857600080fd5b813567ffffffffffffffff808211156117f057600080fd5b9083019060a0828603121561180457600080fd5b61180c611710565b61181583611692565b815261182360208401611692565b602082015260408301358281111561183a57600080fd5b61184687828601611739565b60408301525060608301358281111561185e57600080fd5b61186a87828601611739565b60608301525060808301358281111561188257600080fd5b61188e87828601611739565b60808301525095945050505050565b6000815180845260005b818110156118c3576020818501810151868301820152016118a7565b818111156118d5576000602083870101525b50601f01601f19169290920160200192915050565b6020815260006001600160a01b0380845116602084015280602085015116604084015250604083015160a0606084015261192760c084018261189d565b90506060840151601f1980858403016080860152611945838361189d565b925060808601519150808584030160a086015250611963828261189d565b95945050505050565b6020808252825182820181905260009190848201906040850190845b818110156119ad5783516001600160a01b031683529284019291840191600101611988565b50909695505050505050565b634e487b7160e01b600052603260045260246000fd5b6000602082840312156119e157600080fd5b5051919050565b6000602082840312156119fa57600080fd5b8151801515811461041257600080fd5b634e487b7160e01b600052601160045260246000fd5b600082821015611a3257611a32611a0a565b500390565b600060208284031215611a4957600080fd5b81516104128161167a565b600060808284031215611a6657600080fd5b6040516080810181811067ffffffffffffffff82111715611a8957611a896116fa565b8060405250825181526020830151602082015260408301516040820152606083015160608201528091505092915050565b600181811c90821680611ace57607f821691505b60208210811415611aef57634e487b7160e01b600052602260045260246000fd5b50919050565b600060608284031215611b0757600080fd5b6040516060810181811067ffffffffffffffff82111715611b2a57611b2a6116fa565b80604052508251815260208301516020820152604083015160408201528091505092915050565b6000600019821415611b6557611b65611a0a565b5060010190565b6020810160118310611b8e57634e487b7160e01b600052602160045260246000fd5b9190529056fea2646970667358221220f07ebf4331dc205ca98565b4e45cfa8b4a70f87e729883b459cd4506ea65432364736f6c63430008090033",
  "linkReferences": {},
  "deployedLinkReferences": {}
}