{
  "_format": "hh-sol-artifact-1",
  "contractName": "ProviderRegistry",
  "sourceName": "contracts/ProviderRegistry.sol",
  "abi": [
    {
      "inputs": [
        {
          "internalType": "address",
          "name": "superproAddress",
          "type": "address"
        }
      ],
      "stateMutability": "nonpayable",
      "type": "constructor"
    },
    {
      "anonymous": false,
      "inputs": [
        {
          "indexed": false,
          "internalType": "address",
          "name": "providerInfo",
          "type": "address"
        }
      ],
      "name": "ProviderRegistred",
      "type": "event"
    },
    {
      "inputs": [
        {
          "internalType": "address",
          "name": "tcb",
          "type": "address"
        },
        {
          "internalType": "uint256",
          "name": "amount",
          "type": "uint256"
        }
      ],
      "name": "chargePenalty",
      "outputs": [],
      "stateMutability": "nonpayable",
      "type": "function"
    },
    {
      "inputs": [
        {
          "internalType": "address",
          "name": "providerAuth",
          "type": "address"
        }
      ],
      "name": "checkRegistration",
      "outputs": [
        {
          "internalType": "bool",
          "name": "",
          "type": "bool"
        }
      ],
      "stateMutability": "view",
      "type": "function"
    },
    {
      "inputs": [
        {
          "internalType": "address",
          "name": "providerAuth",
          "type": "address"
        }
      ],
      "name": "get",
      "outputs": [
        {
          "internalType": "address",
          "name": "providerInfoContract",
          "type": "address"
        }
      ],
      "stateMutability": "view",
      "type": "function"
    },
    {
      "inputs": [
        {
          "internalType": "address",
          "name": "providerAuth",
          "type": "address"
        }
      ],
      "name": "getSecurityDeposit",
      "outputs": [
        {
          "internalType": "uint256",
          "name": "",
          "type": "uint256"
        }
      ],
      "stateMutability": "view",
      "type": "function"
    },
    {
      "inputs": [
        {
          "internalType": "address",
          "name": "providerAuth",
          "type": "address"
        }
      ],
      "name": "hasEnoughSecurityDeposit",
      "outputs": [
        {
          "internalType": "bool",
          "name": "",
          "type": "bool"
        }
      ],
      "stateMutability": "view",
      "type": "function"
    },
    {
      "inputs": [],
      "name": "listAll",
      "outputs": [
        {
          "internalType": "address[]",
          "name": "",
          "type": "address[]"
        }
      ],
      "stateMutability": "view",
      "type": "function"
    },
    {
      "inputs": [
        {
          "internalType": "uint256",
          "name": "amount",
          "type": "uint256"
        }
      ],
      "name": "refillSecurityDepo",
      "outputs": [],
      "stateMutability": "nonpayable",
      "type": "function"
    },
    {
      "inputs": [
        {
          "components": [
            {
              "internalType": "address",
              "name": "tokenReceiver",
              "type": "address"
            },
            {
              "internalType": "address",
              "name": "actionAccount",
              "type": "address"
            },
            {
              "internalType": "string",
              "name": "name",
              "type": "string"
            },
            {
              "internalType": "string",
              "name": "description",
              "type": "string"
            },
            {
              "internalType": "string",
              "name": "metadata",
              "type": "string"
            }
          ],
          "internalType": "struct ProviderInfo",
          "name": "info",
          "type": "tuple"
        }
      ],
      "name": "register",
      "outputs": [
        {
          "internalType": "address",
          "name": "",
          "type": "address"
        }
      ],
      "stateMutability": "nonpayable",
      "type": "function"
    },
    {
      "inputs": [
        {
          "internalType": "uint256",
          "name": "amount",
          "type": "uint256"
        }
      ],
      "name": "returnSecurityDepo",
      "outputs": [],
      "stateMutability": "nonpayable",
      "type": "function"
    }
  ],
  "bytecode": "0x608060405234801561001057600080fd5b5060405162003fd338038062003fd383398101604081905261003191610056565b600080546001600160a01b0319166001600160a01b0392909216919091179055610084565b600060208284031215610067578081fd5b81516001600160a01b038116811461007d578182fd5b9392505050565b613f3f80620000946000396000f3fe60806040523480156200001157600080fd5b5060043610620000b05760003560e01c80638f01d436116200007f578063c2bc2efc1162000062578063c2bc2efc1462000180578063c57a7daa1462000197578063e2a4128314620001ae57600080fd5b80638f01d4361462000143578063b00e3c24146200015a57600080fd5b80630203c1e514620000b557806354e80afd14620000e95780635cdf48f1146200011157806378a9eeed146200012a575b600080fd5b620000cc620000c63660046200165d565b620001df565b6040516001600160a01b0390911681526020015b60405180910390f35b62000100620000fa36600462001569565b6200057b565b6040519015158152602001620000e0565b6200012862000122366004620015ae565b62000682565b005b6200013462000a20565b604051620000e09190620019b1565b620001286200015436600462001881565b62000a84565b620001716200016b36600462001569565b62000c61565b604051908152602001620000e0565b620000cc6200019136600462001569565b62000e7c565b62000128620001a836600462001881565b62000f06565b62000100620001bf36600462001569565b6001600160a01b0390811660009081526005602052604090205416151590565b336000908152600560205260408120546001600160a01b0316156200024b5760405162461bcd60e51b815260206004820152601b60248201527f50726f766964657220616c72656164792072656769737465726564000000000060448201526064015b60405180910390fd5b62000255620011e9565b60015460405163c345315360e01b81523360048201819052916000916001600160a01b039091169063c34531539060240160806040518083038186803b1580156200029f57600080fd5b505afa158015620002b4573d6000803e3d6000fd5b505050506040513d601f19601f82011682018060405250810190620002da919062001740565b9050600081606001518260200151620002f4919062001ae4565b600080546040517f03a2216d00000000000000000000000000000000000000000000000000000000815292935090916001600160a01b03909116906303a2216d90620003469060029060040162001a16565b60206040518083038186803b1580156200035f57600080fd5b505afa15801562000374573d6000803e3d6000fd5b505050506040513d601f19601f820116820180604052508101906200039a91906200189a565b905080821015620004145760405162461bcd60e51b815260206004820152603160248201527f546f20736d616c6c207374616b6520666f72206c6f636b2070726f766964657260448201527f207265676973747279206465706f736974000000000000000000000000000000606482015260840162000242565b600080546040516001600160a01b0390911690869089906200043690620014f7565b6200044493929190620018f8565b604051809103906000f08015801562000461573d6000803e3d6000fd5b5060015460405163e2ab691d60e01b81526001600160a01b038881166004830152602482018690526000604483015292935091169063e2ab691d90606401600060405180830381600087803b158015620004ba57600080fd5b505af1158015620004cf573d6000803e3d6000fd5b505050506001600160a01b03858116600090815260056020908152604080832080549486166001600160a01b031995861681179091556006805460018101825594527ff652222313e28459528d920b65115c16c04f3efc82aaedc97be59f3f377c0d3f9093018054909416831790935591519081527f1c83de88aeaf361073f802e77f075493e38f1ad1f9de5d3e83ac307553cf15db910160405180910390a19450505050505b919050565b6001600160a01b03808216600090815260056020526040812054909116620005d75760405162461bcd60e51b815260206004820152600e60248201526d2737ba103090383937bb34b232b960911b604482015260640162000242565b6001600160a01b038281166000908152600560205260408082205490516333c1885f60e21b815260048101839052921691829063cf06217c9060240160206040518083038186803b1580156200062c57600080fd5b505afa15801562000641573d6000803e3d6000fd5b505050506040513d601f19601f820116820180604052508101906200066791906200189a565b90506000620006768562000c61565b90911115949350505050565b6200068c620011e9565b60005460405163bcaa0c5560e01b81526001600160a01b039091169063bcaa0c5590620006bf9060089060040162001a00565b60206040518083038186803b158015620006d857600080fd5b505afa158015620006ed573d6000803e3d6000fd5b505050506040513d601f19601f820116820180604052508101906200071391906200158f565b6001600160a01b0316336001600160a01b031614620007755760405162461bcd60e51b815260206004820152601c60248201527f417661696c61626c65206f6e6c7920666f7220436f6e73656e73757300000000604482015260640162000242565b60008290506000816001600160a01b031663182c3dfd6040518163ffffffff1660e01b815260040160006040518083038186803b158015620007b657600080fd5b505afa158015620007cb573d6000803e3d6000fd5b505050506040513d6000823e601f3d908101601f19168201604052620007f59190810190620017a9565b6000015190506000816001600160a01b031663483d45bd6040518163ffffffff1660e01b815260040160206040518083038186803b1580156200083757600080fd5b505afa1580156200084c573d6000803e3d6000fd5b505050506040513d601f19601f820116820180604052508101906200087291906200158f565b90506000816001600160a01b031663085710116040518163ffffffff1660e01b815260040160206040518083038186803b158015620008b057600080fd5b505afa158015620008c5573d6000803e3d6000fd5b505050506040513d601f19601f82011682018060405250810190620008eb91906200158f565b6001546040517f183147030000000000000000000000000000000000000000000000000000000081526001600160a01b03808416600483015260248201899052929350911690631831470390604401600060405180830381600087803b1580156200095557600080fd5b505af11580156200096a573d6000803e3d6000fd5b50505050826001600160a01b031663d96b262b6040518163ffffffff1660e01b8152600401600060405180830381600087803b158015620009aa57600080fd5b505af1158015620009bf573d6000803e3d6000fd5b50505050816001600160a01b031663d96b262b6040518163ffffffff1660e01b8152600401600060405180830381600087803b158015620009ff57600080fd5b505af115801562000a14573d6000803e3d6000fd5b50505050505050505050565b6060600680548060200260200160405190810160405280929190818152602001828054801562000a7a57602002820191906000526020600020905b81546001600160a01b0316815260019091019060200180831162000a5b575b5050505050905090565b336000818152600560205260409020546001600160a01b031662000adc5760405162461bcd60e51b815260206004820152600e60248201526d2737ba103090383937bb34b232b960911b604482015260640162000242565b60015460405163c345315360e01b81526001600160a01b038381166004830152600092169063c34531539060240160806040518083038186803b15801562000b2357600080fd5b505afa15801562000b38573d6000803e3d6000fd5b505050506040513d601f19601f8201168201806040525081019062000b5e919062001740565b9050828160600151826020015162000b77919062001ae4565b101562000bed5760405162461bcd60e51b815260206004820152603160248201527f546f20736d616c6c207374616b6520666f72206c6f636b2070726f766964657260448201527f207265676973747279206465706f736974000000000000000000000000000000606482015260840162000242565b60015460405163e2ab691d60e01b81526001600160a01b03848116600483015260248201869052600060448301529091169063e2ab691d90606401600060405180830381600087803b15801562000c4357600080fd5b505af115801562000c58573d6000803e3d6000fd5b50505050505050565b6001600160a01b0380821660009081526005602052604081205490911662000cbd5760405162461bcd60e51b815260206004820152600e60248201526d2737ba103090383937bb34b232b960911b604482015260640162000242565b60008060009054906101000a90046001600160a01b03166001600160a01b031663f1f0bd016040518163ffffffff1660e01b815260040160206040518083038186803b15801562000d0d57600080fd5b505afa15801562000d22573d6000803e3d6000fd5b505050506040513d601f19601f8201168201806040525081019062000d4891906200158f565b90506000816001600160a01b031663bcaa0c5560026040518263ffffffff1660e01b815260040162000d7b919062001a00565b60206040518083038186803b15801562000d9457600080fd5b505afa15801562000da9573d6000803e3d6000fd5b505050506040513d601f19601f8201168201806040525081019062000dcf91906200158f565b6040517f4bfb1e7a0000000000000000000000000000000000000000000000000000000081529091506001600160a01b03821690634bfb1e7a9062000e1c90879060019060040162001992565b60606040518083038186803b15801562000e3557600080fd5b505afa15801562000e4a573d6000803e3d6000fd5b505050506040513d601f19601f8201168201806040525081019062000e709190620015fe565b60400151949350505050565b6001600160a01b0380821660009081526005602052604081205490911662000ee75760405162461bcd60e51b815260206004820152601a60248201527f50726f7669646572206973206e6f742072656769737465726564000000000000604482015260640162000242565b506001600160a01b039081166000908152600560205260409020541690565b62000f10620011e9565b336000818152600560205260408082205490516333c1885f60e21b8152600481018390526001600160a01b039091169190829063cf06217c9060240160206040518083038186803b15801562000f6557600080fd5b505afa15801562000f7a573d6000803e3d6000fd5b505050506040513d601f19601f8201168201806040525081019062000fa091906200189a565b9050600062000faf8462000c61565b905060008511620010035760405162461bcd60e51b815260206004820152600e60248201527f496e76616c696420616d6f756e74000000000000000000000000000000000000604482015260640162000242565b808511156200107b5760405162461bcd60e51b815260206004820152602260248201527f4465706f736974206c657373207468616e2072657175657374656420616d6f7560448201527f6e74000000000000000000000000000000000000000000000000000000000000606482015260840162000242565b600062001089868362001ae4565b9050836001600160a01b03166380eecb096040518163ffffffff1660e01b815260040160206040518083038186803b158015620010c557600080fd5b505afa158015620010da573d6000803e3d6000fd5b505050506040513d601f19601f82011682018060405250810190620011009190620015dc565b15806200110d5750808311155b620011815760405162461bcd60e51b815260206004820152603160248201527f436f756e74206f6620656e61626c6564206f666665727320726571756972656460448201527f2061206c6172676572206465706f736974000000000000000000000000000000606482015260840162000242565b6001546040517f7eee288d0000000000000000000000000000000000000000000000000000000081526001600160a01b0387811660048301526024820189905290911690637eee288d90604401600060405180830381600087803b158015620009ff57600080fd5b60008054906101000a90046001600160a01b03166001600160a01b031663f1f0bd016040518163ffffffff1660e01b815260040160206040518083038186803b1580156200123657600080fd5b505afa1580156200124b573d6000803e3d6000fd5b505050506040513d601f19601f820116820180604052508101906200127191906200158f565b600080546001600160a01b0319166001600160a01b0392909216918217905560405163bcaa0c5560e01b815263bcaa0c5590620012b49060029060040162001a00565b60206040518083038186803b158015620012cd57600080fd5b505afa158015620012e2573d6000803e3d6000fd5b505050506040513d601f19601f820116820180604052508101906200130891906200158f565b600180546001600160a01b0319166001600160a01b0392831617905560005460405163bcaa0c5560e01b815291169063bcaa0c55906200134e9060059060040162001a00565b60206040518083038186803b1580156200136757600080fd5b505afa1580156200137c573d6000803e3d6000fd5b505050506040513d601f19601f82011682018060405250810190620013a291906200158f565b600280546001600160a01b0319166001600160a01b0392831617905560005460405163bcaa0c5560e01b815291169063bcaa0c5590620013e790600490810162001a00565b60206040518083038186803b1580156200140057600080fd5b505afa15801562001415573d6000803e3d6000fd5b505050506040513d601f19601f820116820180604052508101906200143b91906200158f565b600380546001600160a01b0319166001600160a01b0392831617905560005460405163bcaa0c5560e01b815291169063bcaa0c5590620014819060069060040162001a00565b60206040518083038186803b1580156200149a57600080fd5b505afa158015620014af573d6000803e3d6000fd5b505050506040513d601f19601f82011682018060405250810190620014d591906200158f565b600480546001600160a01b0319166001600160a01b0392909216919091179055565b6123898062001b8183390190565b8035620005768162001b67565b600082601f83011262001523578081fd5b81356200153a620015348262001ab9565b62001a85565b8181528460208386010111156200154f578283fd5b816020850160208301379081016020019190915292915050565b6000602082840312156200157b578081fd5b8135620015888162001b67565b9392505050565b600060208284031215620015a1578081fd5b8151620015888162001b67565b60008060408385031215620015c1578081fd5b8235620015ce8162001b67565b946020939093013593505050565b600060208284031215620015ee578081fd5b8151801515811462001588578182fd5b60006060828403121562001610578081fd5b6040516060810181811067ffffffffffffffff8211171562001636576200163662001b51565b80604052508251815260208301516020820152604083015160408201528091505092915050565b6000602082840312156200166f578081fd5b813567ffffffffffffffff8082111562001687578283fd5b9083019060a082860312156200169b578283fd5b620016a562001a33565b620016b08362001505565b8152620016c06020840162001505565b6020820152604083013582811115620016d7578485fd5b620016e58782860162001512565b604083015250606083013582811115620016fd578485fd5b6200170b8782860162001512565b60608301525060808301358281111562001723578485fd5b620017318782860162001512565b60808301525095945050505050565b60006080828403121562001752578081fd5b6040516080810181811067ffffffffffffffff8211171562001778576200177862001b51565b8060405250825181526020830151602082015260408301516040820152606083015160608201528091505092915050565b60006020808385031215620017bc578182fd5b825167ffffffffffffffff80821115620017d4578384fd5b9084019060808287031215620017e8578384fd5b620017f262001a5f565b8251620017ff8162001b67565b815282840151848201526040808401519082015260608301518281111562001825578586fd5b80840193505086601f8401126200183a578485fd5b825191506200184d620015348362001ab9565b828152878584860101111562001861578586fd5b620018728386830187870162001b08565b60608201529695505050505050565b60006020828403121562001893578081fd5b5035919050565b600060208284031215620018ac578081fd5b5051919050565b600c8110620018c657620018c662001b3b565b9052565b60008151808452620018e481602086016020860162001b08565b601f01601f19169290920160200192915050565b60006001600160a01b03808616835280851660208401526060604084015280845116606084015280602085015116608084015250604083015160a08084015262001947610100840182620018ca565b90506060840151605f19808584030160c0860152620019678383620018ca565b925060808601519150808584030160e086015250620019878282620018ca565b979650505050505050565b6001600160a01b038316815260408101620015886020830184620018b3565b6020808252825182820181905260009190848201906040850190845b81811015620019f45783516001600160a01b031683529284019291840191600101620019cd565b50909695505050505050565b6020810162001a108284620018b3565b92915050565b602081016011831062001a2d5762001a2d62001b3b565b91905290565b60405160a0810167ffffffffffffffff8111828210171562001a595762001a5962001b51565b60405290565b6040516080810167ffffffffffffffff8111828210171562001a595762001a5962001b51565b604051601f8201601f1916810167ffffffffffffffff8111828210171562001ab15762001ab162001b51565b604052919050565b600067ffffffffffffffff82111562001ad65762001ad662001b51565b50601f01601f191660200190565b60008282101562001b0357634e487b7160e01b81526011600452602481fd5b500390565b60005b8381101562001b2557818101518382015260200162001b0b565b8381111562001b35576000848401525b50505050565b634e487b7160e01b600052602160045260246000fd5b634e487b7160e01b600052604160045260246000fd5b6001600160a01b038116811462001b7d57600080fd5b5056fe60806040523480156200001157600080fd5b506040516200238938038062002389833981016040819052620000349162000240565b600080546001600160a01b03199081166001600160a01b0386811691909117909255600680548216858416179055825160118054831691841691909117815560208085015160128054909416941693909317909155604083015180518493620000a392601392910190620000ec565b5060608201518051620000c1916003840191602090910190620000ec565b5060808201518051620000df916004840191602090910190620000ec565b50905050505050620003fb565b828054620000fa90620003a8565b90600052602060002090601f0160209004810192826200011e576000855562000169565b82601f106200013957805160ff191683800117855562000169565b8280016001018555821562000169579182015b82811115620001695782518255916020019190600101906200014c565b50620001779291506200017b565b5090565b5b808211156200017757600081556001016200017c565b80516001600160a01b0381168114620001aa57600080fd5b919050565b600082601f830112620001c0578081fd5b81516001600160401b03811115620001dc57620001dc620003e5565b6020620001f2601f8301601f1916820162000375565b828152858284870101111562000206578384fd5b835b838110156200022557858101830151828201840152820162000208565b838111156200023657848385840101525b5095945050505050565b60008060006060848603121562000255578283fd5b620002608462000192565b9250620002706020850162000192565b60408501519092506001600160401b03808211156200028d578283fd5b9085019060a08288031215620002a1578283fd5b620002ab6200034a565b620002b68362000192565b8152620002c66020840162000192565b6020820152604083015182811115620002dd578485fd5b620002eb89828601620001af565b60408301525060608301518281111562000303578485fd5b6200031189828601620001af565b60608301525060808301518281111562000329578485fd5b6200033789828601620001af565b6080830152508093505050509250925092565b60405160a081016001600160401b03811182821017156200036f576200036f620003e5565b60405290565b604051601f8201601f191681016001600160401b0381118282101715620003a057620003a0620003e5565b604052919050565b600181811c90821680620003bd57607f821691505b60208210811415620003df57634e487b7160e01b600052602260045260246000fd5b50919050565b634e487b7160e01b600052604160045260246000fd5b611f7e806200040b6000396000f3fe608060405234801561001057600080fd5b506004361061011b5760003560e01c8063685dd944116100b2578063a553269b11610081578063cf06217c11610066578063cf06217c14610241578063d96b262b14610254578063fc282c1f1461025c57600080fd5b8063a553269b14610226578063a804e2331461023957600080fd5b8063685dd944146101d55780636d69a3e8146101ea57806380eecb09146101fb5780639789e3231461021357600080fd5b80634547ada9116100ee5780634547ada9146101945780635a9b0b891461019c5780635e7ddcb8146101b15780636760c4b7146101c457600080fd5b806308571011146101205780630cca32f71461014a57806316f86400146101605780631b71d85f1461018a575b600080fd5b6006546001600160a01b03165b6040516001600160a01b0390911681526020015b60405180910390f35b610152610264565b604051908152602001610141565b61016861035c565b6040805182518152602080840151908201529181015190820152606001610141565b6101926103a5565b005b610152610599565b6101a461068b565b6040516101419190611d9a565b6101926101bf366004611bd3565b610899565b6012546001600160a01b031661012d565b6101dd610983565b6040516101419190611d1f565b6011546001600160a01b031661012d565b6102036109e8565b6040519015158152602001610141565b610192610221366004611b89565b610a16565b610192610234366004611b2e565b610d59565b600754610152565b61015261024f366004611ca4565b610f41565b6101926111d0565b6101dd61126d565b600080805b600e5481101561035657600e8054600091908390811061029957634e487b7160e01b600052603260045260246000fd5b600091825260208083209091015460408051631b520f2160e21b815290516001600160a01b0390921694508492636d483c8492600480840193829003018186803b1580156102e657600080fd5b505afa1580156102fa573d6000803e3d6000fd5b505050506040513d601f19601f8201168201806040525081019061031e9190611cbc565b9050801580159061032e57504281115b156103415761033e600185611e45565b93505b5050808061034e90611ec8565b915050610269565b50919050565b61038060405180606001604052806000815260200160008152602001600081525090565b506040805160608101825260085481526009546020820152600a549181019190915290565b60005a905060005b600e54811080156103cb57506233e1405a6103c89084611e7c565b11155b156104a157600e805460009190839081106103f657634e487b7160e01b600052603260045260246000fd5b600091825260209182902001546040805163355319db60e11b815290516001600160a01b03909216935083928392636aa633b6926004808201939291829003018186803b15801561044657600080fd5b505afa15801561045a573d6000803e3d6000fd5b505050506040513d601f19601f8201168201806040525081019061047e9190611b6d565b61048d5761048d600d836112d0565b610498600184611e45565b925050506103ad565b601054811080156104bf57506233e1405a6104bc9084611e7c565b11155b15610595576010805460009190839081106104ea57634e487b7160e01b600052603260045260246000fd5b600091825260209182902001546040805163355319db60e11b815290516001600160a01b03909216935083928392636aa633b6926004808201939291829003018186803b15801561053a57600080fd5b505afa15801561054e573d6000803e3d6000fd5b505050506040513d601f19601f820116820180604052508101906105729190611b6d565b61058157610581600f836112d0565b61058c600184611e45565b925050506104a1565b5050565b600080805b601054811015610356576010805460009190839081106105ce57634e487b7160e01b600052603260045260246000fd5b600091825260208083209091015460408051631b520f2160e21b815290516001600160a01b0390921694508492636d483c8492600480840193829003018186803b15801561061b57600080fd5b505afa15801561062f573d6000803e3d6000fd5b505050506040513d601f19601f820116820180604052508101906106539190611cbc565b9050801580159061066357504281115b1561067657610673600185611e45565b93505b5050808061068390611ec8565b91505061059e565b6040805160a08101825260008082526020820152606091810182905281810182905260808101919091526040805160a081018252601180546001600160a01b0390811683526012541660208301526013805492939192918401916106ee90611e93565b80601f016020809104026020016040519081016040528092919081815260200182805461071a90611e93565b80156107675780601f1061073c57610100808354040283529160200191610767565b820191906000526020600020905b81548152906001019060200180831161074a57829003601f168201915b5050505050815260200160038201805461078090611e93565b80601f01602080910402602001604051908101604052809291908181526020018280546107ac90611e93565b80156107f95780601f106107ce576101008083540402835291602001916107f9565b820191906000526020600020905b8154815290600101906020018083116107dc57829003601f168201915b5050505050815260200160048201805461081290611e93565b80601f016020809104026020016040519081016040528092919081815260200182805461083e90611e93565b801561088b5780601f106108605761010080835404028352916020019161088b565b820191906000526020600020905b81548152906001019060200180831161086e57829003601f168201915b505050505081525050905090565b6006546001600160a01b031633146108f85760405162461bcd60e51b815260206004820152601a60248201527f4f6e6c79206f776e65722063616e206d6f6469667920696e666f00000000000060448201526064015b60405180910390fd5b8051601180546001600160a01b03199081166001600160a01b03938416178255602080850151601280549093169416939093179055604083015180518493610945926013929101906119fe565b50606082015180516109619160038401916020909101906119fe565b506080820151805161097d9160048401916020909101906119fe565b50505050565b606060086004018054806020026020016040519081016040528092919081815260200182805480156109de57602002820191906000526020600020905b81546001600160a01b031681526001909101906020018083116109c0575b5050505050905090565b60095460085460009182916109fd9190611e45565b90506000811180610a105750600a544211155b91505090565b610a1e6114f4565b60003390506000816001600160a01b031663af5372e66040518163ffffffff1660e01b815260040160206040518083038186803b158015610a5e57600080fd5b505afa158015610a72573d6000803e3d6000fd5b505050506040513d601f19601f82011682018060405250810190610a969190611bb4565b9050600080826003811115610abb57634e487b7160e01b600052602160045260246000fd5b149050600081610acd57600554610ad1565b6004545b9050600082610aeb576003546001600160a01b0316610af8565b6002546001600160a01b03165b6040517f165dee3f0000000000000000000000000000000000000000000000000000000081526001600160a01b03878116600483015291925060009183169063165dee3f9060240160206040518083038186803b158015610b5857600080fd5b505afa158015610b6c573d6000803e3d6000fd5b505050506040513d601f19601f82011682018060405250810190610b909190611b51565b6006549091506001600160a01b03808316911614610bf05760405162461bcd60e51b815260206004820152601060248201527f556e6b6e6f776e2070726f76696465720000000000000000000000000000000060448201526064016108ef565b8715610d2a576000610c0184610f41565b6001546040517fb00e3c240000000000000000000000000000000000000000000000000000000081526001600160a01b0385811660048301529293506000929091169063b00e3c249060240160206040518083038186803b158015610c6557600080fd5b505afa158015610c79573d6000803e3d6000fd5b505050506040513d601f19601f82011682018060405250810190610c9d9190611cbc565b905081811015610d155760405162461bcd60e51b815260206004820152602760248201527f43616e277420656e61626c652064756520736d616c6c2073656375726974792060448201527f6465706f7369740000000000000000000000000000000000000000000000000060648201526084016108ef565b610d1e8661184d565b50505050505050505050565b610d348487611893565b600854158015610d445750600954155b15610d4f57600a8790555b5050505050505050565b610d616114f4565b6002546001600160a01b0316331480610d8457506003546001600160a01b031633145b610dd05760405162461bcd60e51b815260206004820181905260248201527f417661696c61626c65206f6e6c7920666f72204f6666657273466163746f727960448201526064016108ef565b6000816001600160a01b031663af5372e66040518163ffffffff1660e01b815260040160206040518083038186803b158015610e0b57600080fd5b505afa158015610e1f573d6000803e3d6000fd5b505050506040513d601f19601f82011682018060405250810190610e439190611bb4565b90506000816003811115610e6757634e487b7160e01b600052602160045260246000fd5b1415610ed857600c80546001808201835560009283527fdf6966c971051c3d54ec59162606531493a51404a002842f56009d7e5cf4a8c790910180546001600160a01b0319166001600160a01b0386161790556008805491929091610ecd908490611e45565b909155506105959050565b600b80546001808201835560009283527f0175b7a638427703f0dbe7bb9bbf987a2551717b34e79f33b5b1008d1fa01db990910180546001600160a01b0319166001600160a01b0386161790556009805491929091610f38908490611e45565b90915550505050565b60008054604080517ff1f0bd01000000000000000000000000000000000000000000000000000000008152905183926001600160a01b03169163f1f0bd01916004808301926020929190829003018186803b158015610f9f57600080fd5b505afa158015610fb3573d6000803e3d6000fd5b505050506040513d601f19601f82011682018060405250810190610fd79190611b51565b90506000816001600160a01b03166303a2216d60026040518263ffffffff1660e01b81526004016110089190611d86565b60206040518083038186803b15801561102057600080fd5b505afa158015611034573d6000803e3d6000fd5b505050506040513d601f19601f820116820180604052508101906110589190611cbc565b90506000611064610599565b6009546110719190611e45565b6040516303a2216d60e01b81526001600160a01b038516906303a2216d9061109e90600690600401611d86565b60206040518083038186803b1580156110b657600080fd5b505afa1580156110ca573d6000803e3d6000fd5b505050506040513d601f19601f820116820180604052508101906110ee9190611cbc565b6110f89190611e5d565b90506000611104610264565b6008546111119190611e45565b6040516303a2216d60e01b81526001600160a01b038616906303a2216d9061113e90600590600401611d86565b60206040518083038186803b15801561115657600080fd5b505afa15801561116a573d6000803e3d6000fd5b505050506040513d601f19601f8201168201806040525081019061118e9190611cbc565b6111989190611e5d565b90506000866111a78484611e45565b6111b19190611e45565b905060008185116111c257816111c4565b845b98975050505050505050565b6111d86114f4565b6001546001600160a01b031633146112585760405162461bcd60e51b815260206004820152602360248201527f417661696c61626c65206f6e6c7920666f722050726f7669646572526567697360448201527f747279000000000000000000000000000000000000000000000000000000000060648201526084016108ef565b60076000815461126790611ec8565b90915550565b606060086003018054806020026020016040519081016040528092919081815260200182805480156109de576020028201919060005260206000209081546001600160a01b031681526001909101906020018083116109c0575050505050905090565b6001600160a01b0381166113265760405162461bcd60e51b815260206004820181905260248201527f417474656d707420746f2072656d6f76652061207a65726f206164647265737360448201526064016108ef565b6001820154611333575050565b6001600160a01b0381166000818152602084905260409020546001840180549192918390811061137357634e487b7160e01b600052603260045260246000fd5b6000918252602090912001546001600160a01b0316146113fa5760405162461bcd60e51b8152602060048201526024808201527f3530302e20556e6578706563746564204164647265737348617368536574207360448201527f746174650000000000000000000000000000000000000000000000000000000060648201526084016108ef565b6001808401805460009261140d91611e7c565b8154811061142b57634e487b7160e01b600052603260045260246000fd5b6000918252602090912001546001850180546001600160a01b03909216925082918490811061146a57634e487b7160e01b600052603260045260246000fd5b600091825260208083209190910180546001600160a01b0319166001600160a01b0394851617905583831682528690526040808220859055918516815290812055600184018054806114cc57634e487b7160e01b600052603160045260246000fd5b600082815260209020810160001990810180546001600160a01b031916905501905550505050565b60008054906101000a90046001600160a01b03166001600160a01b031663f1f0bd016040518163ffffffff1660e01b815260040160206040518083038186803b15801561154057600080fd5b505afa158015611554573d6000803e3d6000fd5b505050506040513d601f19601f820116820180604052508101906115789190611b51565b600080546001600160a01b0319166001600160a01b0392909216918217905560405163bcaa0c5560e01b815263bcaa0c55906115b990600190600401611d6c565b60206040518083038186803b1580156115d157600080fd5b505afa1580156115e5573d6000803e3d6000fd5b505050506040513d601f19601f820116820180604052508101906116099190611b51565b600180546001600160a01b0319166001600160a01b0392831617905560005460405163bcaa0c5560e01b815291169063bcaa0c559061164c906004908101611d6c565b60206040518083038186803b15801561166457600080fd5b505afa158015611678573d6000803e3d6000fd5b505050506040513d601f19601f8201168201806040525081019061169c9190611b51565b600280546001600160a01b0319166001600160a01b0392831617905560005460405163bcaa0c5560e01b815291169063bcaa0c55906116e090600690600401611d6c565b60206040518083038186803b1580156116f857600080fd5b505afa15801561170c573d6000803e3d6000fd5b505050506040513d601f19601f820116820180604052508101906117309190611b51565b600380546001600160a01b0319166001600160a01b039283161790556000546040516303a2216d60e01b81529116906303a2216d9061177490600590600401611d86565b60206040518083038186803b15801561178c57600080fd5b505afa1580156117a0573d6000803e3d6000fd5b505050506040513d601f19601f820116820180604052508101906117c49190611cbc565b60049081556000546040516303a2216d60e01b81526001600160a01b03909116916303a2216d916117f89160069101611d86565b60206040518083038186803b15801561181057600080fd5b505afa158015611824573d6000803e3d6000fd5b505050506040513d601f19601f820116820180604052508101906118489190611cbc565b600555565b8015611874576008805460019190600090611869908490611e45565b909155506118909050565b600980546001919060009061188a908490611e45565b90915550505b50565b81156118c05760088054600191906000906118af908490611e7c565b909155506105959050600d826118e3565b60098054600191906000906118d6908490611e7c565b909155506105959050600f825b6001600160a01b0381166119395760405162461bcd60e51b815260206004820152601d60248201527f417474656d707420746f206164642061207a65726f206164647265737300000060448201526064016108ef565b600182015460009015806119af57506001600160a01b0382166000908152602084905260409020541580156119af5750816001600160a01b03168360010160008154811061199757634e487b7160e01b600052603260045260246000fd5b6000918252602090912001546001600160a01b031614155b9050806119bb57505050565b50600180830180546001600160a01b03909316600081815260209586526040812085905592840182559082529290200180546001600160a01b0319169091179055565b828054611a0a90611e93565b90600052602060002090601f016020900481019282611a2c5760008555611a72565b82601f10611a4557805160ff1916838001178555611a72565b82800160010185558215611a72579182015b82811115611a72578251825591602001919060010190611a57565b50611a7e929150611a82565b5090565b5b80821115611a7e5760008155600101611a83565b8035611aa281611f25565b919050565b600082601f830112611ab7578081fd5b813567ffffffffffffffff80821115611ad257611ad2611f0f565b604051601f8301601f19908116603f01168101908282118183101715611afa57611afa611f0f565b81604052838152866020858801011115611b12578485fd5b8360208701602083013792830160200193909352509392505050565b600060208284031215611b3f578081fd5b8135611b4a81611f25565b9392505050565b600060208284031215611b62578081fd5b8151611b4a81611f25565b600060208284031215611b7e578081fd5b8151611b4a81611f3a565b60008060408385031215611b9b578081fd5b8235611ba681611f3a565b946020939093013593505050565b600060208284031215611bc5578081fd5b815160048110611b4a578182fd5b600060208284031215611be4578081fd5b813567ffffffffffffffff80821115611bfb578283fd5b9083019060a08286031215611c0e578283fd5b611c16611e1c565b611c1f83611a97565b8152611c2d60208401611a97565b6020820152604083013582811115611c43578485fd5b611c4f87828601611aa7565b604083015250606083013582811115611c66578485fd5b611c7287828601611aa7565b606083015250608083013582811115611c89578485fd5b611c9587828601611aa7565b60808301525095945050505050565b600060208284031215611cb5578081fd5b5035919050565b600060208284031215611ccd578081fd5b5051919050565b60008151808452815b81811015611cf957602081850181015186830182015201611cdd565b81811115611d0a5782602083870101525b50601f01601f19169290920160200192915050565b6020808252825182820181905260009190848201906040850190845b81811015611d605783516001600160a01b031683529284019291840191600101611d3b565b50909695505050505050565b60208101600c8310611d8057611d80611ef9565b91905290565b6020810160118310611d8057611d80611ef9565b6020815260006001600160a01b0380845116602084015280602085015116604084015250604083015160a06060840152611dd760c0840182611cd4565b90506060840151601f1980858403016080860152611df58383611cd4565b925060808601519150808584030160a086015250611e138282611cd4565b95945050505050565b60405160a0810167ffffffffffffffff81118282101715611e3f57611e3f611f0f565b60405290565b60008219821115611e5857611e58611ee3565b500190565b6000816000190483118215151615611e7757611e77611ee3565b500290565b600082821015611e8e57611e8e611ee3565b500390565b600181811c90821680611ea757607f821691505b6020821081141561035657634e487b7160e01b600052602260045260246000fd5b6000600019821415611edc57611edc611ee3565b5060010190565b634e487b7160e01b600052601160045260246000fd5b634e487b7160e01b600052602160045260246000fd5b634e487b7160e01b600052604160045260246000fd5b6001600160a01b038116811461189057600080fd5b801515811461189057600080fdfea2646970667358221220bc0799973e089e334e99bfbd29c5b70f44af8e8a2020dd47a1dd06e41e5cff4264736f6c63430008040033a2646970667358221220d09258575f5f84bab3af6c05e646b6b55ff7b6d5dbe3995efe538a9c20a0c4f464736f6c63430008040033",
  "linkReferences": {},
  "deployedLinkReferences": {}
}