{
  "_format": "hh-sol-artifact-1",
  "contractName": "ProviderRegistry",
  "sourceName": "contracts/ProviderRegistry.sol",
  "abi": [
    {
      "inputs": [
        {
          "internalType": "address",
          "name": "superproAddress",
          "type": "address"
        }
      ],
      "stateMutability": "nonpayable",
      "type": "constructor"
    },
    {
      "anonymous": false,
      "inputs": [
        {
          "indexed": false,
          "internalType": "address",
          "name": "providerInfo",
          "type": "address"
        }
      ],
      "name": "ProviderRegistred",
      "type": "event"
    },
    {
      "inputs": [
        {
          "internalType": "address",
          "name": "teeOffer",
          "type": "address"
        },
        {
          "internalType": "uint256",
          "name": "amount",
          "type": "uint256"
        }
      ],
      "name": "chargePenalty",
      "outputs": [],
      "stateMutability": "nonpayable",
      "type": "function"
    },
    {
      "inputs": [
        {
          "internalType": "address",
          "name": "providerAuth",
          "type": "address"
        }
      ],
      "name": "checkRegistration",
      "outputs": [
        {
          "internalType": "bool",
          "name": "",
          "type": "bool"
        }
      ],
      "stateMutability": "view",
      "type": "function"
    },
    {
      "inputs": [
        {
          "internalType": "address",
          "name": "providerAuth",
          "type": "address"
        }
      ],
      "name": "get",
      "outputs": [
        {
          "internalType": "address",
          "name": "providerInfoContract",
          "type": "address"
        }
      ],
      "stateMutability": "view",
      "type": "function"
    },
    {
      "inputs": [
        {
          "internalType": "address",
          "name": "providerAuth",
          "type": "address"
        }
      ],
      "name": "getSecurityDeposit",
      "outputs": [
        {
          "internalType": "uint256",
          "name": "",
          "type": "uint256"
        }
      ],
      "stateMutability": "view",
      "type": "function"
    },
    {
      "inputs": [
        {
          "internalType": "address",
          "name": "providerAuth",
          "type": "address"
        }
      ],
      "name": "hasEnoughSecurityDeposit",
      "outputs": [
        {
          "internalType": "bool",
          "name": "",
          "type": "bool"
        }
      ],
      "stateMutability": "view",
      "type": "function"
    },
    {
      "inputs": [],
      "name": "listAll",
      "outputs": [
        {
          "internalType": "address[]",
          "name": "",
          "type": "address[]"
        }
      ],
      "stateMutability": "view",
      "type": "function"
    },
    {
      "inputs": [
        {
          "internalType": "uint256",
          "name": "amount",
          "type": "uint256"
        }
      ],
      "name": "refillSecurityDepo",
      "outputs": [],
      "stateMutability": "nonpayable",
      "type": "function"
    },
    {
      "inputs": [
        {
          "components": [
            {
              "internalType": "address",
              "name": "tokenReceiver",
              "type": "address"
            },
            {
              "internalType": "address",
              "name": "actionAccount",
              "type": "address"
            },
            {
              "internalType": "string",
              "name": "name",
              "type": "string"
            },
            {
              "internalType": "string",
              "name": "description",
              "type": "string"
            },
            {
              "internalType": "string",
              "name": "metadata",
              "type": "string"
            }
          ],
          "internalType": "struct ProviderInfo",
          "name": "info",
          "type": "tuple"
        },
        {
          "internalType": "bytes32",
          "name": "externalId",
          "type": "bytes32"
        }
      ],
      "name": "register",
      "outputs": [
        {
          "internalType": "address",
          "name": "",
          "type": "address"
        }
      ],
      "stateMutability": "nonpayable",
      "type": "function"
    },
    {
      "inputs": [
        {
          "internalType": "uint256",
          "name": "amount",
          "type": "uint256"
        }
      ],
      "name": "returnSecurityDepo",
      "outputs": [],
      "stateMutability": "nonpayable",
      "type": "function"
    }
  ],
  "bytecode": "0x608060405234801561001057600080fd5b5060405161381b38038061381b83398101604081905261002f91610054565b600080546001600160a01b0319166001600160a01b0392909216919091179055610082565b600060208284031215610065578081fd5b81516001600160a01b038116811461007b578182fd5b9392505050565b61378a806100916000396000f3fe60806040523480156200001157600080fd5b5060043610620000b05760003560e01c80638f01d436116200007f578063c2bc2efc1162000062578063c2bc2efc1462000180578063c57a7daa1462000197578063e2a4128314620001ae57600080fd5b80638f01d4361462000143578063b00e3c24146200015a57600080fd5b806324448c3c14620000b557806354e80afd14620000e95780635cdf48f1146200011157806378a9eeed146200012a575b600080fd5b620000cc620000c63660046200126b565b620001df565b6040516001600160a01b0390911681526020015b60405180910390f35b62000100620000fa3660046200117e565b6200052f565b6040519015158152602001620000e0565b6200012862000122366004620011bc565b62000636565b005b6200013462000865565b604051620000e0919062001519565b6200012862000154366004620013bf565b620008c9565b620001716200016b3660046200117e565b62000ad0565b604051908152602001620000e0565b620000cc620001913660046200117e565b62000bd1565b62000128620001a8366004620013bf565b62000c5b565b62000100620001bf3660046200117e565b6001600160a01b0390811660009081526001602052604090205416151590565b336000908152600160205260408120546001600160a01b0316156200024b5760405162461bcd60e51b815260206004820152601b60248201527f50726f766964657220616c72656164792072656769737465726564000000000060448201526064015b60405180910390fd5b6000805433919062000266906001600160a01b031662000f34565b60405163c345315360e01b81526001600160a01b038481166004830152919091169063c34531539060240160806040518083038186803b158015620002aa57600080fd5b505afa158015620002bf573d6000803e3d6000fd5b505050506040513d601f19601f82011682018060405250810190620002e5919062001356565b9050600081606001518260200151620002ff9190620015c1565b60008054919250906200031d906001600160a01b0316600262000fc3565b905080821015620003975760405162461bcd60e51b815260206004820152603160248201527f546f20736d616c6c207374616b6520666f72206c6f636b2070726f766964657260448201527f207265676973747279206465706f736974000000000000000000000000000000606482015260840162000242565b600080546040516001600160a01b039091169086908a908a90620003bb90620010cf565b620003ca949392919062001456565b604051809103906000f080158015620003e7573d6000803e3d6000fd5b5060005490915062000402906001600160a01b031662000f34565b60405163e2ab691d60e01b81526001600160a01b0387811660048301526024820185905260006044830152919091169063e2ab691d90606401600060405180830381600087803b1580156200045657600080fd5b505af11580156200046b573d6000803e3d6000fd5b505050506001600160a01b03858116600090815260016020818152604080842080549587167fffffffffffffffffffffffff000000000000000000000000000000000000000096871681179091556002805494850181559094527f405787fa12a823e0f2b7631cc41b3ba8828b3321ca811111fa75cd3aa3bb5ace90920180549094168317909355519081527f1c83de88aeaf361073f802e77f075493e38f1ad1f9de5d3e83ac307553cf15db910160405180910390a19450505050505b92915050565b6001600160a01b038082166000908152600160205260408120549091166200058b5760405162461bcd60e51b815260206004820152600e60248201526d2737ba103090383937bb34b232b960911b604482015260640162000242565b6001600160a01b038281166000908152600160205260408082205490516333c1885f60e21b815260048101839052921691829063cf06217c9060240160206040518083038186803b158015620005e057600080fd5b505afa158015620005f5573d6000803e3d6000fd5b505050506040513d601f19601f820116820180604052508101906200061b9190620013d8565b905060006200062a8562000ad0565b90911115949350505050565b6000546200064d906001600160a01b031662001058565b6001600160a01b0316336001600160a01b031614620006af5760405162461bcd60e51b815260206004820152601c60248201527f417661696c61626c65206f6e6c7920666f7220436f6e73656e73757300000000604482015260640162000242565b6000826001600160a01b031663483d45bd6040518163ffffffff1660e01b815260040160206040518083038186803b158015620006eb57600080fd5b505afa15801562000700573d6000803e3d6000fd5b505050506040513d601f19601f820116820180604052508101906200072691906200119d565b90506000816001600160a01b031663085710116040518163ffffffff1660e01b815260040160206040518083038186803b1580156200076457600080fd5b505afa15801562000779573d6000803e3d6000fd5b505050506040513d601f19601f820116820180604052508101906200079f91906200119d565b90506000620007ae8262000ad0565b90506000848210620007c15784620007c3565b815b600054909150620007dd906001600160a01b031662000f34565b6040517f183147030000000000000000000000000000000000000000000000000000000081526001600160a01b0385811660048301526024820184905291909116906318314703906044015b600060405180830381600087803b1580156200084457600080fd5b505af115801562000859573d6000803e3d6000fd5b50505050505050505050565b60606002805480602002602001604051908101604052809291908181526020018280548015620008bf57602002820191906000526020600020905b81546001600160a01b03168152600190910190602001808311620008a0575b5050505050905090565b336000818152600160205260409020546001600160a01b0316620009215760405162461bcd60e51b815260206004820152600e60248201526d2737ba103090383937bb34b232b960911b604482015260640162000242565b6000805462000939906001600160a01b031662000f34565b60405163c345315360e01b81526001600160a01b038481166004830152919091169063c34531539060240160806040518083038186803b1580156200097d57600080fd5b505afa15801562000992573d6000803e3d6000fd5b505050506040513d601f19601f82011682018060405250810190620009b8919062001356565b90508281606001518260200151620009d19190620015c1565b101562000a475760405162461bcd60e51b815260206004820152603160248201527f546f20736d616c6c207374616b6520666f72206c6f636b2070726f766964657260448201527f207265676973747279206465706f736974000000000000000000000000000000606482015260840162000242565b60005462000a5e906001600160a01b031662000f34565b60405163e2ab691d60e01b81526001600160a01b0384811660048301526024820186905260006044830152919091169063e2ab691d90606401600060405180830381600087803b15801562000ab257600080fd5b505af115801562000ac7573d6000803e3d6000fd5b50505050505050565b6001600160a01b0380821660009081526001602052604081205490911662000b2c5760405162461bcd60e51b815260206004820152600e60248201526d2737ba103090383937bb34b232b960911b604482015260640162000242565b60005462000b43906001600160a01b031662000f34565b6001600160a01b0316634bfb1e7a8360016040518363ffffffff1660e01b815260040162000b73929190620014fa565b60606040518083038186803b15801562000b8c57600080fd5b505afa15801562000ba1573d6000803e3d6000fd5b505050506040513d601f19601f8201168201806040525081019062000bc791906200120c565b6040015192915050565b6001600160a01b0380821660009081526001602052604081205490911662000c3c5760405162461bcd60e51b815260206004820152601a60248201527f50726f7669646572206973206e6f742072656769737465726564000000000000604482015260640162000242565b506001600160a01b039081166000908152600160205260409020541690565b336000818152600160205260408082205490516333c1885f60e21b8152600481018390526001600160a01b039091169190829063cf06217c9060240160206040518083038186803b15801562000cb057600080fd5b505afa15801562000cc5573d6000803e3d6000fd5b505050506040513d601f19601f8201168201806040525081019062000ceb9190620013d8565b9050600062000cfa8462000ad0565b90506000851162000d4e5760405162461bcd60e51b815260206004820152600e60248201527f496e76616c696420616d6f756e74000000000000000000000000000000000000604482015260640162000242565b8085111562000dc65760405162461bcd60e51b815260206004820152602260248201527f4465706f736974206c657373207468616e2072657175657374656420616d6f7560448201527f6e74000000000000000000000000000000000000000000000000000000000000606482015260840162000242565b600062000dd48683620015c1565b9050836001600160a01b03166380eecb096040518163ffffffff1660e01b815260040160206040518083038186803b15801562000e1057600080fd5b505afa15801562000e25573d6000803e3d6000fd5b505050506040513d601f19601f8201168201806040525081019062000e4b9190620011ea565b158062000e585750808311155b62000ecc5760405162461bcd60e51b815260206004820152603160248201527f436f756e74206f6620656e61626c6564206f666665727320726571756972656460448201527f2061206c6172676572206465706f736974000000000000000000000000000000606482015260840162000242565b60005462000ee3906001600160a01b031662000f34565b6040517f7eee288d0000000000000000000000000000000000000000000000000000000081526001600160a01b038781166004830152602482018990529190911690637eee288d9060440162000829565b600062000f418262001093565b6001600160a01b031663bcaa0c5560026040518263ffffffff1660e01b815260040162000f6f919062001568565b60206040518083038186803b15801562000f8857600080fd5b505afa15801562000f9d573d6000803e3d6000fd5b505050506040513d601f19601f820116820180604052508101906200052991906200119d565b600062000fd08362001093565b6001600160a01b03166303a2216d836040518263ffffffff1660e01b815260040162000ffd919062001578565b60206040518083038186803b1580156200101657600080fd5b505afa1580156200102b573d6000803e3d6000fd5b505050506040513d601f19601f82011682018060405250810190620010519190620013d8565b9392505050565b6000620010658262001093565b6001600160a01b031663bcaa0c5560086040518263ffffffff1660e01b815260040162000f6f919062001568565b6000816001600160a01b031663f1f0bd016040518163ffffffff1660e01b815260040160206040518083038186803b15801562000f8857600080fd5b61212a806200162b83390190565b8035620010ea8162001611565b919050565b600082601f83011262001100578081fd5b813567ffffffffffffffff808211156200111e576200111e620015fb565b604051601f8301601f19908116603f01168101908282118183101715620011495762001149620015fb565b8160405283815286602085880101111562001162578485fd5b8360208701602083013792830160200193909352509392505050565b60006020828403121562001190578081fd5b8135620010518162001611565b600060208284031215620011af578081fd5b8151620010518162001611565b60008060408385031215620011cf578081fd5b8235620011dc8162001611565b946020939093013593505050565b600060208284031215620011fc578081fd5b8151801515811462001051578182fd5b6000606082840312156200121e578081fd5b6040516060810181811067ffffffffffffffff82111715620012445762001244620015fb565b80604052508251815260208301516020820152604083015160408201528091505092915050565b600080604083850312156200127e578182fd5b823567ffffffffffffffff8082111562001296578384fd5b9084019060a08287031215620012aa578384fd5b620012b462001595565b620012bf83620010dd565b8152620012cf60208401620010dd565b6020820152604083013582811115620012e6578586fd5b620012f488828601620010ef565b6040830152506060830135828111156200130c578586fd5b6200131a88828601620010ef565b60608301525060808301358281111562001332578586fd5b6200134088828601620010ef565b6080830152509660209590950135955050505050565b60006080828403121562001368578081fd5b6040516080810181811067ffffffffffffffff821117156200138e576200138e620015fb565b8060405250825181526020830151602082015260408301516040820152606083015160608201528091505092915050565b600060208284031215620013d1578081fd5b5035919050565b600060208284031215620013ea578081fd5b5051919050565b600c8110620014045762001404620015e5565b9052565b60008151808452815b818110156200142f5760208185018101518683018201520162001411565b81811115620014415782602083870101525b50601f01601f19169290920160200192915050565b60006001600160a01b0380871683528086166020840152608060408401528085511660808401528060208601511660a084015250604084015160a060c0840152620014a661012084018262001408565b90506060850151607f19808584030160e0860152620014c6838362001408565b925060808701519150808584030161010086015250620014e7828262001408565b9250505082606083015295945050505050565b6001600160a01b038316815260408101620010516020830184620013f1565b6020808252825182820181905260009190848201906040850190845b818110156200155c5783516001600160a01b03168352928401929184019160010162001535565b50909695505050505050565b60208101620005298284620013f1565b60208101601183106200158f576200158f620015e5565b91905290565b60405160a0810167ffffffffffffffff81118282101715620015bb57620015bb620015fb565b60405290565b600082821015620015e057634e487b7160e01b81526011600452602481fd5b500390565b634e487b7160e01b600052602160045260246000fd5b634e487b7160e01b600052604160045260246000fd5b6001600160a01b03811681146200162757600080fd5b5056fe60806040523480156200001157600080fd5b506040516200212a3803806200212a83398101604081905262000034916200029e565b600080546001600160a01b03199081166001600160a01b03878116919091179092556001805482168684161790558351600d80548316918416919091178155602080860151600e8054909416941693909317909155604084015180518593620000a392600f929101906200014a565b5060608201518051620000c19160038401916020909101906200014a565b5060808201518051620000df9160048401916020909101906200014a565b50905050620000fe8360126200010b60201b62000ee81790919060201c565b600255506200045f915050565b428083556001830180546001600160a01b039093166001600160a01b031993841681179091556002840191909155600390920180549091169091179055565b82805462000158906200040c565b90600052602060002090601f0160209004810192826200017c5760008555620001c7565b82601f106200019757805160ff1916838001178555620001c7565b82800160010185558215620001c7579182015b82811115620001c7578251825591602001919060010190620001aa565b50620001d5929150620001d9565b5090565b5b80821115620001d55760008155600101620001da565b80516001600160a01b03811681146200020857600080fd5b919050565b600082601f8301126200021e578081fd5b81516001600160401b038111156200023a576200023a62000449565b602062000250601f8301601f19168201620003d9565b828152858284870101111562000264578384fd5b835b838110156200028357858101830151828201840152820162000266565b838111156200029457848385840101525b5095945050505050565b60008060008060808587031215620002b4578384fd5b620002bf85620001f0565b9350620002cf60208601620001f0565b60408601519093506001600160401b0380821115620002ec578384fd5b9086019060a0828903121562000300578384fd5b6200030a620003ae565b6200031583620001f0565b81526200032560208401620001f0565b60208201526040830151828111156200033c578586fd5b6200034a8a8286016200020d565b60408301525060608301518281111562000362578586fd5b620003708a8286016200020d565b60608301525060808301518281111562000388578586fd5b620003968a8286016200020d565b60808301525060609790970151959894975050505050565b60405160a081016001600160401b0381118282101715620003d357620003d362000449565b60405290565b604051601f8201601f191681016001600160401b038111828210171562000404576200040462000449565b604052919050565b600181811c908216806200042157607f821691505b602082108114156200044357634e487b7160e01b600052602260045260246000fd5b50919050565b634e487b7160e01b600052604160045260246000fd5b611cbb806200046f6000396000f3fe608060405234801561001057600080fd5b50600436106101515760003560e01c8063685dd944116100cd578063b737e98e11610081578063cf06217c11610066578063cf06217c1461031f578063d3328a6914610332578063fc282c1f1461033a57600080fd5b8063b737e98e14610273578063bab13ee11461031757600080fd5b806380eecb09116100b257806380eecb09146102355780639789e3231461024d578063a553269b1461026057600080fd5b8063685dd9441461020f5780636d69a3e81461022457600080fd5b80631b71d85f116101245780635a9b0b89116101095780635a9b0b89146101d65780635e7ddcb8146101eb5780636760c4b7146101fe57600080fd5b80631b71d85f146101c45780634547ada9146101ce57600080fd5b806308571011146101565780630c72dc31146101805780630cca32f71461019257806316f864001461019a575b600080fd5b6001546001600160a01b03165b6040516001600160a01b0390911681526020015b60405180910390f35b6003545b604051908152602001610177565b610184610342565b6101a26103b2565b6040805182518152602080840151908201529181015190820152606001610177565b6101cc6103fb565b005b610184610411565b6101de61047a565b6040516101779190611ace565b6101cc6101f9366004611907565b610688565b600e546001600160a01b0316610163565b610217610788565b6040516101779190611a53565b600d546001600160a01b0316610163565b61023d6107ec565b6040519015158152602001610177565b6101cc61025b3660046118bd565b61081a565b6101cc61026e366004611869565b610bb2565b6102d5604080516080810182526000808252602082018190529181018290526060810191909152506040805160808101825260125481526013546001600160a01b03908116602083015260145492820192909252601554909116606082015290565b6040516101779190815181526020808301516001600160a01b039081169183019190915260408084015190830152606092830151169181019190915260800190565b6101cc610d10565b61018461032d3660046119d8565b610dc0565b600254610184565b610217610e85565b60006103ad60046005016001018054806020026020016040519081016040528092919081815260200182805480156103a357602002820191906000526020600020905b81546001600160a01b03168152600190910190602001808311610385575b5050505050610f27565b905090565b6103d660405180606001604052806000815260200160008152602001600081525090565b5060408051606081018252600454815260055460208201526006549181019190915290565b6104056009611013565b61040f600b611013565b565b60006103ad60046007016001018054806020026020016040519081016040528092919081815260200182805480156103a3576020028201919060005260206000209081546001600160a01b03168152600190910190602001808311610385575050505050610f27565b6040805160a08101825260008082526020820152606091810182905281810182905260808101919091526040805160a081018252600d80546001600160a01b039081168352600e54166020830152600f805492939192918401916104dd90611bc7565b80601f016020809104026020016040519081016040528092919081815260200182805461050990611bc7565b80156105565780601f1061052b57610100808354040283529160200191610556565b820191906000526020600020905b81548152906001019060200180831161053957829003601f168201915b5050505050815260200160038201805461056f90611bc7565b80601f016020809104026020016040519081016040528092919081815260200182805461059b90611bc7565b80156105e85780601f106105bd576101008083540402835291602001916105e8565b820191906000526020600020905b8154815290600101906020018083116105cb57829003601f168201915b5050505050815260200160048201805461060190611bc7565b80601f016020809104026020016040519081016040528092919081815260200182805461062d90611bc7565b801561067a5780601f1061064f5761010080835404028352916020019161067a565b820191906000526020600020905b81548152906001019060200180831161065d57829003601f168201915b505050505081525050905090565b6001546001600160a01b031633146106e75760405162461bcd60e51b815260206004820152601a60248201527f4f6e6c79206f776e65722063616e206d6f6469667920696e666f00000000000060448201526064015b60405180910390fd5b42601455601580546001600160a01b031916331790558051600d80546001600160a01b03199081166001600160a01b03938416178255602080850151600e8054909316941693909317905560408301518051849361074a92600f92910190611739565b5060608201518051610766916003840191602090910190611739565b5060808201518051610782916004840191602090910190611739565b50505050565b6060600480018054806020026020016040519081016040528092919081815260200182805480156107e257602002820191906000526020600020905b81546001600160a01b031681526001909101906020018083116107c4575b5050505050905090565b60055460045460009182916108019190611b79565b9050600081118061081457506006544211155b91505090565b60003390506000816001600160a01b031663af5372e66040518163ffffffff1660e01b815260040160206040518083038186803b15801561085a57600080fd5b505afa15801561086e573d6000803e3d6000fd5b505050506040513d601f19601f8201168201806040525081019061089291906118e8565b90506000808260038111156108b757634e487b7160e01b600052602160045260246000fd5b1490506000816108dd576000546108d8906001600160a01b03166006611128565b6108f4565b6000546108f4906001600160a01b03166005611128565b905060008261091757600054610912906001600160a01b03166111b5565b61092c565b60005461092c906001600160a01b0316611242565b6040517f165dee3f0000000000000000000000000000000000000000000000000000000081526001600160a01b03878116600483015291925060009183169063165dee3f9060240160206040518083038186803b15801561098c57600080fd5b505afa1580156109a0573d6000803e3d6000fd5b505050506040513d601f19601f820116820180604052508101906109c49190611885565b6001549091506001600160a01b03808316911614610a245760405162461bcd60e51b815260206004820152601060248201527f556e6b6e6f776e2070726f76696465720000000000000000000000000000000060448201526064016106de565b8715610b74576000610a3584610dc0565b6000805491925090610a4f906001600160a01b0316611279565b6040517fb00e3c240000000000000000000000000000000000000000000000000000000081526001600160a01b038581166004830152919091169063b00e3c249060240160206040518083038186803b158015610aab57600080fd5b505afa158015610abf573d6000803e3d6000fd5b505050506040513d601f19601f82011682018060405250810190610ae391906119f0565b905081811015610b5b5760405162461bcd60e51b815260206004820152602760248201527f43616e277420656e61626c652064756520736d616c6c2073656375726974792060448201527f6465706f7369740000000000000000000000000000000000000000000000000060648201526084016106de565b610b6860048760016112b0565b50505050505050505050565b610b8160048560006112b0565b610b8d6004858861132b565b600454158015610b9d5750600554155b15610ba85760068790555b5050505050505050565b600054610bc7906001600160a01b0316611242565b6001600160a01b0316336001600160a01b03161480610c0b5750600054610bf6906001600160a01b03166111b5565b6001600160a01b0316336001600160a01b0316145b610c575760405162461bcd60e51b815260206004820181905260248201527f417661696c61626c65206f6e6c7920666f72204f6666657273466163746f727960448201526064016106de565b6000816001600160a01b031663af5372e66040518163ffffffff1660e01b815260040160206040518083038186803b158015610c9257600080fd5b505afa158015610ca6573d6000803e3d6000fd5b505050506040513d601f19601f82011682018060405250810190610cca91906118e8565b9050600080826003811115610cef57634e487b7160e01b600052602160045260246000fd5b149050610cff60048260016112b0565b610d0b6004828561134b565b505050565b600054610d25906001600160a01b0316611242565b6001600160a01b0316336001600160a01b031614610dab5760405162461bcd60e51b815260206004820152602360248201527f417661696c61626c65206f6e6c7920666f72205465654f66666572734661637460448201527f6f7279000000000000000000000000000000000000000000000000000000000060648201526084016106de565b600360008154610dba90611c02565b90915550565b600080548190610dda906001600160a01b03166002611128565b90506000610de6610411565b600554610df39190611b79565b600054610e0a906001600160a01b03166006611128565b610e149190611b91565b90506000610e20610342565b600454610e2d9190611b79565b600054610e44906001600160a01b03166005611128565b610e4e9190611b91565b9050600085610e5d8484611b79565b610e679190611b79565b90506000818511610e785781610e7a565b845b979650505050505050565b606060046003018054806020026020016040519081016040528092919081815260200182805480156107e2576020028201919060005260206000209081546001600160a01b031681526001909101906020018083116107c4575050505050905090565b428083556001830180546001600160a01b039093166001600160a01b031993841681179091556002840191909155600390920180549091169091179055565b600080805b835181101561100c576000848281518110610f5757634e487b7160e01b600052603260045260246000fd5b602002602001015190506000816001600160a01b031663aad451336040518163ffffffff1660e01b815260040160206040518083038186803b158015610f9c57600080fd5b505afa158015610fb0573d6000803e3d6000fd5b505050506040513d601f19601f82011682018060405250810190610fd491906119f0565b90508015801590610fe457504281115b15610ff757610ff4600185611b79565b93505b5050808061100490611c02565b915050610f2c565b5092915050565b60005a905060005b60018301548110801561103b57506233e1405a6110389084611bb0565b11155b15610d0b57600083600101828154811061106557634e487b7160e01b600052603260045260246000fd5b60009182526020918290200154604080517f6aa633b600000000000000000000000000000000000000000000000000000000815290516001600160a01b03909216935083928392636aa633b6926004808201939291829003018186803b1580156110ce57600080fd5b505afa1580156110e2573d6000803e3d6000fd5b505050506040513d601f19601f8201168201806040525081019061110691906118a1565b6111145761111485836113bf565b61111f600184611b79565b9250505061101b565b6000611133836115e3565b6001600160a01b03166303a2216d836040518263ffffffff1660e01b815260040161115e9190611aba565b60206040518083038186803b15801561117657600080fd5b505afa15801561118a573d6000803e3d6000fd5b505050506040513d601f19601f820116820180604052508101906111ae91906119f0565b9392505050565b60006111c0826115e3565b6001600160a01b031663bcaa0c5560066040518263ffffffff1660e01b81526004016111ec9190611aa0565b60206040518083038186803b15801561120457600080fd5b505afa158015611218573d6000803e3d6000fd5b505050506040513d601f19601f8201168201806040525081019061123c9190611885565b92915050565b600061124d826115e3565b6001600160a01b031663bcaa0c5560046040518263ffffffff1660e01b81526004016111ec9190611aa0565b6000611284826115e3565b6001600160a01b031663bcaa0c5560016040518263ffffffff1660e01b81526004016111ec9190611aa0565b81156112f15780156112dc57825460019084906000906112d1908490611b79565b90915550610d0b9050565b825460019084906000906112d1908490611bb0565b801561130c57600183810180546000906112d1908490611b79565b60018381018054600090611321908490611bb0565b9091555050505050565b811561133e57610d0b600584018261161e565b610d0b600784018261161e565b811561138857600483018054600181018255600091825260209091200180546001600160a01b0383166001600160a01b0319909116179055505050565b600383018054600181018255600091825260209091200180546001600160a01b0383166001600160a01b0319909116179055505050565b6001600160a01b0381166114155760405162461bcd60e51b815260206004820181905260248201527f417474656d707420746f2072656d6f76652061207a65726f206164647265737360448201526064016106de565b6001820154611422575050565b6001600160a01b0381166000818152602084905260409020546001840180549192918390811061146257634e487b7160e01b600052603260045260246000fd5b6000918252602090912001546001600160a01b0316146114e95760405162461bcd60e51b8152602060048201526024808201527f3530302e20556e6578706563746564204164647265737348617368536574207360448201527f746174650000000000000000000000000000000000000000000000000000000060648201526084016106de565b600180840180546000926114fc91611bb0565b8154811061151a57634e487b7160e01b600052603260045260246000fd5b6000918252602090912001546001850180546001600160a01b03909216925082918490811061155957634e487b7160e01b600052603260045260246000fd5b600091825260208083209190910180546001600160a01b0319166001600160a01b0394851617905583831682528690526040808220859055918516815290812055600184018054806115bb57634e487b7160e01b600052603160045260246000fd5b600082815260209020810160001990810180546001600160a01b031916905501905550505050565b6000816001600160a01b031663f1f0bd016040518163ffffffff1660e01b815260040160206040518083038186803b15801561120457600080fd5b6001600160a01b0381166116745760405162461bcd60e51b815260206004820152601d60248201527f417474656d707420746f206164642061207a65726f206164647265737300000060448201526064016106de565b600182015460009015806116ea57506001600160a01b0382166000908152602084905260409020541580156116ea5750816001600160a01b0316836001016000815481106116d257634e487b7160e01b600052603260045260246000fd5b6000918252602090912001546001600160a01b031614155b9050806116f657505050565b50600180830180546001600160a01b03909316600081815260209586526040812085905592840182559082529290200180546001600160a01b0319169091179055565b82805461174590611bc7565b90600052602060002090601f01602090048101928261176757600085556117ad565b82601f1061178057805160ff19168380011785556117ad565b828001600101855582156117ad579182015b828111156117ad578251825591602001919060010190611792565b506117b99291506117bd565b5090565b5b808211156117b957600081556001016117be565b80356117dd81611c5f565b919050565b600082601f8301126117f2578081fd5b813567ffffffffffffffff8082111561180d5761180d611c49565b604051601f8301601f19908116603f0116810190828211818310171561183557611835611c49565b8160405283815286602085880101111561184d578485fd5b8360208701602083013792830160200193909352509392505050565b60006020828403121561187a578081fd5b81356111ae81611c5f565b600060208284031215611896578081fd5b81516111ae81611c5f565b6000602082840312156118b2578081fd5b81516111ae81611c77565b600080604083850312156118cf578081fd5b82356118da81611c77565b946020939093013593505050565b6000602082840312156118f9578081fd5b8151600481106111ae578182fd5b600060208284031215611918578081fd5b813567ffffffffffffffff8082111561192f578283fd5b9083019060a08286031215611942578283fd5b61194a611b50565b611953836117d2565b8152611961602084016117d2565b6020820152604083013582811115611977578485fd5b611983878286016117e2565b60408301525060608301358281111561199a578485fd5b6119a6878286016117e2565b6060830152506080830135828111156119bd578485fd5b6119c9878286016117e2565b60808301525095945050505050565b6000602082840312156119e9578081fd5b5035919050565b600060208284031215611a01578081fd5b5051919050565b60008151808452815b81811015611a2d57602081850181015186830182015201611a11565b81811115611a3e5782602083870101525b50601f01601f19169290920160200192915050565b6020808252825182820181905260009190848201906040850190845b81811015611a945783516001600160a01b031683529284019291840191600101611a6f565b50909695505050505050565b60208101600c8310611ab457611ab4611c33565b91905290565b6020810160118310611ab457611ab4611c33565b6020815260006001600160a01b0380845116602084015280602085015116604084015250604083015160a06060840152611b0b60c0840182611a08565b90506060840151601f1980858403016080860152611b298383611a08565b925060808601519150808584030160a086015250611b478282611a08565b95945050505050565b60405160a0810167ffffffffffffffff81118282101715611b7357611b73611c49565b60405290565b60008219821115611b8c57611b8c611c1d565b500190565b6000816000190483118215151615611bab57611bab611c1d565b500290565b600082821015611bc257611bc2611c1d565b500390565b600181811c90821680611bdb57607f821691505b60208210811415611bfc57634e487b7160e01b600052602260045260246000fd5b50919050565b6000600019821415611c1657611c16611c1d565b5060010190565b634e487b7160e01b600052601160045260246000fd5b634e487b7160e01b600052602160045260246000fd5b634e487b7160e01b600052604160045260246000fd5b6001600160a01b0381168114611c7457600080fd5b50565b8015158114611c7457600080fdfea2646970667358221220df23bbef2973bd103f4c16d1ee2f9846482bd5921eea0380b3c4ce1696d66a6964736f6c63430008040033a26469706673582212209faa5d04fd0b38fc7ef355409c3ae27b487039e5f7ab4aecb866e7db3f91a36964736f6c63430008040033",
  "linkReferences": {},
  "deployedLinkReferences": {}
}