{
  "_format": "hh-sol-artifact-1",
  "contractName": "Provider",
  "sourceName": "contracts/Provider.sol",
  "abi": [
    {
      "inputs": [
        {
          "internalType": "address",
          "name": "superproAddress",
          "type": "address"
        },
        {
          "internalType": "address",
          "name": "_auth",
          "type": "address"
        },
        {
          "components": [
            {
              "internalType": "address",
              "name": "tokenReceiver",
              "type": "address"
            },
            {
              "internalType": "address",
              "name": "actionAccount",
              "type": "address"
            },
            {
              "internalType": "string",
              "name": "name",
              "type": "string"
            },
            {
              "internalType": "string",
              "name": "description",
              "type": "string"
            },
            {
              "internalType": "string",
              "name": "metadata",
              "type": "string"
            }
          ],
          "internalType": "struct ProviderInfo",
          "name": "_info",
          "type": "tuple"
        }
      ],
      "stateMutability": "nonpayable",
      "type": "constructor"
    },
    {
      "inputs": [
        {
          "internalType": "address",
          "name": "offer",
          "type": "address"
        }
      ],
      "name": "addOffer",
      "outputs": [],
      "stateMutability": "nonpayable",
      "type": "function"
    },
    {
      "inputs": [],
      "name": "gc",
      "outputs": [],
      "stateMutability": "nonpayable",
      "type": "function"
    },
    {
      "inputs": [],
      "name": "getActionAccount",
      "outputs": [
        {
          "internalType": "address",
          "name": "",
          "type": "address"
        }
      ],
      "stateMutability": "view",
      "type": "function"
    },
    {
      "inputs": [],
      "name": "getAuth",
      "outputs": [
        {
          "internalType": "address",
          "name": "",
          "type": "address"
        }
      ],
      "stateMutability": "view",
      "type": "function"
    },
    {
      "inputs": [],
      "name": "getInfo",
      "outputs": [
        {
          "components": [
            {
              "internalType": "address",
              "name": "tokenReceiver",
              "type": "address"
            },
            {
              "internalType": "address",
              "name": "actionAccount",
              "type": "address"
            },
            {
              "internalType": "string",
              "name": "name",
              "type": "string"
            },
            {
              "internalType": "string",
              "name": "description",
              "type": "string"
            },
            {
              "internalType": "string",
              "name": "metadata",
              "type": "string"
            }
          ],
          "internalType": "struct ProviderInfo",
          "name": "",
          "type": "tuple"
        }
      ],
      "stateMutability": "view",
      "type": "function"
    },
    {
      "inputs": [],
      "name": "getOffersState",
      "outputs": [
        {
          "components": [
            {
              "internalType": "uint256",
              "name": "teeEnabled",
              "type": "uint256"
            },
            {
              "internalType": "uint256",
              "name": "valueEnabled",
              "type": "uint256"
            },
            {
              "internalType": "uint256",
              "name": "lastDisabledAfter",
              "type": "uint256"
            }
          ],
          "internalType": "struct ProviderOffersState",
          "name": "",
          "type": "tuple"
        }
      ],
      "stateMutability": "view",
      "type": "function"
    },
    {
      "inputs": [],
      "name": "getOrigins",
      "outputs": [
        {
          "components": [
            {
              "internalType": "uint256",
              "name": "createdDate",
              "type": "uint256"
            },
            {
              "internalType": "address",
              "name": "createdBy",
              "type": "address"
            },
            {
              "internalType": "uint256",
              "name": "modifiedDate",
              "type": "uint256"
            },
            {
              "internalType": "address",
              "name": "modifiedBy",
              "type": "address"
            }
          ],
          "internalType": "struct Origins",
          "name": "",
          "type": "tuple"
        }
      ],
      "stateMutability": "view",
      "type": "function"
    },
    {
      "inputs": [
        {
          "internalType": "uint256",
          "name": "additional",
          "type": "uint256"
        }
      ],
      "name": "getTargetSecDepo",
      "outputs": [
        {
          "internalType": "uint256",
          "name": "",
          "type": "uint256"
        }
      ],
      "stateMutability": "view",
      "type": "function"
    },
    {
      "inputs": [],
      "name": "getTeeOffers",
      "outputs": [
        {
          "internalType": "address[]",
          "name": "",
          "type": "address[]"
        }
      ],
      "stateMutability": "view",
      "type": "function"
    },
    {
      "inputs": [],
      "name": "getTokenReceiver",
      "outputs": [
        {
          "internalType": "address",
          "name": "",
          "type": "address"
        }
      ],
      "stateMutability": "view",
      "type": "function"
    },
    {
      "inputs": [],
      "name": "getValueOffers",
      "outputs": [
        {
          "internalType": "address[]",
          "name": "",
          "type": "address[]"
        }
      ],
      "stateMutability": "view",
      "type": "function"
    },
    {
      "inputs": [],
      "name": "getViolationRate",
      "outputs": [
        {
          "internalType": "uint256",
          "name": "",
          "type": "uint256"
        }
      ],
      "stateMutability": "view",
      "type": "function"
    },
    {
      "inputs": [],
      "name": "hasEnabledOffers",
      "outputs": [
        {
          "internalType": "bool",
          "name": "",
          "type": "bool"
        }
      ],
      "stateMutability": "view",
      "type": "function"
    },
    {
      "inputs": [],
      "name": "incrViolationRate",
      "outputs": [],
      "stateMutability": "nonpayable",
      "type": "function"
    },
    {
      "inputs": [
        {
          "components": [
            {
              "internalType": "address",
              "name": "tokenReceiver",
              "type": "address"
            },
            {
              "internalType": "address",
              "name": "actionAccount",
              "type": "address"
            },
            {
              "internalType": "string",
              "name": "name",
              "type": "string"
            },
            {
              "internalType": "string",
              "name": "description",
              "type": "string"
            },
            {
              "internalType": "string",
              "name": "metadata",
              "type": "string"
            }
          ],
          "internalType": "struct ProviderInfo",
          "name": "_info",
          "type": "tuple"
        }
      ],
      "name": "modify",
      "outputs": [],
      "stateMutability": "nonpayable",
      "type": "function"
    },
    {
      "inputs": [
        {
          "internalType": "bool",
          "name": "enabled",
          "type": "bool"
        },
        {
          "internalType": "uint256",
          "name": "disabledAfter",
          "type": "uint256"
        }
      ],
      "name": "setOfferState",
      "outputs": [],
      "stateMutability": "nonpayable",
      "type": "function"
    },
    {
      "inputs": [],
      "name": "teeEnabledRecently",
      "outputs": [
        {
          "internalType": "uint256",
          "name": "",
          "type": "uint256"
        }
      ],
      "stateMutability": "view",
      "type": "function"
    },
    {
      "inputs": [],
      "name": "valueEnabledRecently",
      "outputs": [
        {
          "internalType": "uint256",
          "name": "",
          "type": "uint256"
        }
      ],
      "stateMutability": "view",
      "type": "function"
    }
  ],
  "bytecode": "0x60806040523480156200001157600080fd5b50604051620020fd380380620020fd83398101604081905262000034916200029a565b600080546001600160a01b03199081166001600160a01b03868116919091179092556001805482168584161790558251600c80548316918416919091178155602080850151600d8054909416941693909317909155604083015180518493620000a392600e9291019062000146565b5060608201518051620000c191600384019160209091019062000146565b5060808201518051620000df91600484019160209091019062000146565b50905050620000fe8260116200010760201b62000ec51790919060201c565b50505062000455565b428083556001830180546001600160a01b039093166001600160a01b031993841681179091556002840191909155600390920180549091169091179055565b828054620001549062000402565b90600052602060002090601f016020900481019282620001785760008555620001c3565b82601f106200019357805160ff1916838001178555620001c3565b82800160010185558215620001c3579182015b82811115620001c3578251825591602001919060010190620001a6565b50620001d1929150620001d5565b5090565b5b80821115620001d15760008155600101620001d6565b80516001600160a01b03811681146200020457600080fd5b919050565b600082601f8301126200021a578081fd5b81516001600160401b038111156200023657620002366200043f565b60206200024c601f8301601f19168201620003cf565b828152858284870101111562000260578384fd5b835b838110156200027f57858101830151828201840152820162000262565b838111156200029057848385840101525b5095945050505050565b600080600060608486031215620002af578283fd5b620002ba84620001ec565b9250620002ca60208501620001ec565b60408501519092506001600160401b0380821115620002e7578283fd5b9085019060a08288031215620002fb578283fd5b62000305620003a4565b6200031083620001ec565b81526200032060208401620001ec565b602082015260408301518281111562000337578485fd5b620003458982860162000209565b6040830152506060830151828111156200035d578485fd5b6200036b8982860162000209565b60608301525060808301518281111562000383578485fd5b620003918982860162000209565b6080830152508093505050509250925092565b60405160a081016001600160401b0381118282101715620003c957620003c96200043f565b60405290565b604051601f8201601f191681016001600160401b0381118282101715620003fa57620003fa6200043f565b604052919050565b600181811c908216806200041757607f821691505b602082108114156200043957634e487b7160e01b600052602260045260246000fd5b50919050565b634e487b7160e01b600052604160045260246000fd5b611c9880620004656000396000f3fe608060405234801561001057600080fd5b50600436106101365760003560e01c8063685dd944116100b2578063a553269b11610081578063bab13ee111610066578063bab13ee1146102fc578063cf06217c14610304578063fc282c1f1461031757600080fd5b8063a553269b14610245578063b737e98e1461025857600080fd5b8063685dd944146101f45780636d69a3e81461020957806380eecb091461021a5780639789e3231461023257600080fd5b80631b71d85f116101095780635a9b0b89116100ee5780635a9b0b89146101bb5780635e7ddcb8146101d05780636760c4b7146101e357600080fd5b80631b71d85f146101a95780634547ada9146101b357600080fd5b8063085710111461013b5780630c72dc31146101655780630cca32f71461017757806316f864001461017f575b600080fd5b6001546001600160a01b03165b6040516001600160a01b0390911681526020015b60405180910390f35b6002545b60405190815260200161015c565b61016961031f565b61018761038f565b604080518251815260208084015190820152918101519082015260600161015c565b6101b16103d8565b005b6101696103ee565b6101c3610457565b60405161015c9190611aab565b6101b16101de3660046118e4565b610665565b600d546001600160a01b0316610148565b6101fc610765565b60405161015c9190611a30565b600c546001600160a01b0316610148565b6102226107ca565b604051901515815260200161015c565b6101b161024036600461189a565b6107f8565b6101b1610253366004611846565b610b90565b6102ba604080516080810182526000808252602082018190529181018290526060810191909152506040805160808101825260115481526012546001600160a01b03908116602083015260135492820192909252601454909116606082015290565b60405161015c9190815181526020808301516001600160a01b039081169183019190915260408084015190830152606092830151169181019190915260800190565b6101b1610cee565b6101696103123660046119b5565b610d9e565b6101fc610e63565b600061038a600360050160010180548060200260200160405190810160405280929190818152602001828054801561038057602002820191906000526020600020905b81546001600160a01b03168152600190910190602001808311610362575b5050505050610f04565b905090565b6103b360405180606001604052806000815260200160008152602001600081525090565b5060408051606081018252600354815260045460208201526005549181019190915290565b6103e26008610ff0565b6103ec600a610ff0565b565b600061038a6003600701600101805480602002602001604051908101604052809291908181526020018280548015610380576020028201919060005260206000209081546001600160a01b03168152600190910190602001808311610362575050505050610f04565b6040805160a08101825260008082526020820152606091810182905281810182905260808101919091526040805160a081018252600c80546001600160a01b039081168352600d54166020830152600e805492939192918401916104ba90611ba4565b80601f01602080910402602001604051908101604052809291908181526020018280546104e690611ba4565b80156105335780601f1061050857610100808354040283529160200191610533565b820191906000526020600020905b81548152906001019060200180831161051657829003601f168201915b5050505050815260200160038201805461054c90611ba4565b80601f016020809104026020016040519081016040528092919081815260200182805461057890611ba4565b80156105c55780601f1061059a576101008083540402835291602001916105c5565b820191906000526020600020905b8154815290600101906020018083116105a857829003601f168201915b505050505081526020016004820180546105de90611ba4565b80601f016020809104026020016040519081016040528092919081815260200182805461060a90611ba4565b80156106575780601f1061062c57610100808354040283529160200191610657565b820191906000526020600020905b81548152906001019060200180831161063a57829003601f168201915b505050505081525050905090565b6001546001600160a01b031633146106c45760405162461bcd60e51b815260206004820152601a60248201527f4f6e6c79206f776e65722063616e206d6f6469667920696e666f00000000000060448201526064015b60405180910390fd5b42601355601480546001600160a01b031916331790558051600c80546001600160a01b03199081166001600160a01b03938416178255602080850151600d8054909316941693909317905560408301518051849361072792600e92910190611716565b5060608201518051610743916003840191602090910190611716565b506080820151805161075f916004840191602090910190611716565b50505050565b606060036004018054806020026020016040519081016040528092919081815260200182805480156107c057602002820191906000526020600020905b81546001600160a01b031681526001909101906020018083116107a2575b5050505050905090565b60045460035460009182916107df9190611b56565b905060008111806107f257506005544211155b91505090565b60003390506000816001600160a01b031663af5372e66040518163ffffffff1660e01b815260040160206040518083038186803b15801561083857600080fd5b505afa15801561084c573d6000803e3d6000fd5b505050506040513d601f19601f8201168201806040525081019061087091906118c5565b905060008082600381111561089557634e487b7160e01b600052602160045260246000fd5b1490506000816108bb576000546108b6906001600160a01b03166006611105565b6108d2565b6000546108d2906001600160a01b03166005611105565b90506000826108f5576000546108f0906001600160a01b0316611192565b61090a565b60005461090a906001600160a01b031661121f565b6040517f165dee3f0000000000000000000000000000000000000000000000000000000081526001600160a01b03878116600483015291925060009183169063165dee3f9060240160206040518083038186803b15801561096a57600080fd5b505afa15801561097e573d6000803e3d6000fd5b505050506040513d601f19601f820116820180604052508101906109a29190611862565b6001549091506001600160a01b03808316911614610a025760405162461bcd60e51b815260206004820152601060248201527f556e6b6e6f776e2070726f76696465720000000000000000000000000000000060448201526064016106bb565b8715610b52576000610a1384610d9e565b6000805491925090610a2d906001600160a01b0316611256565b6040517fb00e3c240000000000000000000000000000000000000000000000000000000081526001600160a01b038581166004830152919091169063b00e3c249060240160206040518083038186803b158015610a8957600080fd5b505afa158015610a9d573d6000803e3d6000fd5b505050506040513d601f19601f82011682018060405250810190610ac191906119cd565b905081811015610b395760405162461bcd60e51b815260206004820152602760248201527f43616e277420656e61626c652064756520736d616c6c2073656375726974792060448201527f6465706f7369740000000000000000000000000000000000000000000000000060648201526084016106bb565b610b46600387600161128d565b50505050505050505050565b610b5f600385600061128d565b610b6b60038588611308565b600354158015610b7b5750600454155b15610b865760058790555b5050505050505050565b600054610ba5906001600160a01b031661121f565b6001600160a01b0316336001600160a01b03161480610be95750600054610bd4906001600160a01b0316611192565b6001600160a01b0316336001600160a01b0316145b610c355760405162461bcd60e51b815260206004820181905260248201527f417661696c61626c65206f6e6c7920666f72204f6666657273466163746f727960448201526064016106bb565b6000816001600160a01b031663af5372e66040518163ffffffff1660e01b815260040160206040518083038186803b158015610c7057600080fd5b505afa158015610c84573d6000803e3d6000fd5b505050506040513d601f19601f82011682018060405250810190610ca891906118c5565b9050600080826003811115610ccd57634e487b7160e01b600052602160045260246000fd5b149050610cdd600382600161128d565b610ce960038285611328565b505050565b600054610d03906001600160a01b031661121f565b6001600160a01b0316336001600160a01b031614610d895760405162461bcd60e51b815260206004820152602360248201527f417661696c61626c65206f6e6c7920666f72205465654f66666572734661637460448201527f6f7279000000000000000000000000000000000000000000000000000000000060648201526084016106bb565b600260008154610d9890611bdf565b90915550565b600080548190610db8906001600160a01b03166002611105565b90506000610dc46103ee565b600454610dd19190611b56565b600054610de8906001600160a01b03166006611105565b610df29190611b6e565b90506000610dfe61031f565b600354610e0b9190611b56565b600054610e22906001600160a01b03166005611105565b610e2c9190611b6e565b9050600085610e3b8484611b56565b610e459190611b56565b90506000818511610e565781610e58565b845b979650505050505050565b6060600380018054806020026020016040519081016040528092919081815260200182805480156107c0576020028201919060005260206000209081546001600160a01b031681526001909101906020018083116107a2575050505050905090565b428083556001830180546001600160a01b039093166001600160a01b031993841681179091556002840191909155600390920180549091169091179055565b600080805b8351811015610fe9576000848281518110610f3457634e487b7160e01b600052603260045260246000fd5b602002602001015190506000816001600160a01b031663aad451336040518163ffffffff1660e01b815260040160206040518083038186803b158015610f7957600080fd5b505afa158015610f8d573d6000803e3d6000fd5b505050506040513d601f19601f82011682018060405250810190610fb191906119cd565b90508015801590610fc157504281115b15610fd457610fd1600185611b56565b93505b50508080610fe190611bdf565b915050610f09565b5092915050565b60005a905060005b60018301548110801561101857506233e1405a6110159084611b8d565b11155b15610ce957600083600101828154811061104257634e487b7160e01b600052603260045260246000fd5b60009182526020918290200154604080517f6aa633b600000000000000000000000000000000000000000000000000000000815290516001600160a01b03909216935083928392636aa633b6926004808201939291829003018186803b1580156110ab57600080fd5b505afa1580156110bf573d6000803e3d6000fd5b505050506040513d601f19601f820116820180604052508101906110e3919061187e565b6110f1576110f1858361139c565b6110fc600184611b56565b92505050610ff8565b6000611110836115c0565b6001600160a01b03166303a2216d836040518263ffffffff1660e01b815260040161113b9190611a97565b60206040518083038186803b15801561115357600080fd5b505afa158015611167573d6000803e3d6000fd5b505050506040513d601f19601f8201168201806040525081019061118b91906119cd565b9392505050565b600061119d826115c0565b6001600160a01b031663bcaa0c5560066040518263ffffffff1660e01b81526004016111c99190611a7d565b60206040518083038186803b1580156111e157600080fd5b505afa1580156111f5573d6000803e3d6000fd5b505050506040513d601f19601f820116820180604052508101906112199190611862565b92915050565b600061122a826115c0565b6001600160a01b031663bcaa0c5560046040518263ffffffff1660e01b81526004016111c99190611a7d565b6000611261826115c0565b6001600160a01b031663bcaa0c5560016040518263ffffffff1660e01b81526004016111c99190611a7d565b81156112ce5780156112b957825460019084906000906112ae908490611b56565b90915550610ce99050565b825460019084906000906112ae908490611b8d565b80156112e957600183810180546000906112ae908490611b56565b600183810180546000906112fe908490611b8d565b9091555050505050565b811561131b57610ce960058401826115fb565b610ce960078401826115fb565b811561136557600483018054600181018255600091825260209091200180546001600160a01b0383166001600160a01b0319909116179055505050565b600383018054600181018255600091825260209091200180546001600160a01b0383166001600160a01b0319909116179055505050565b6001600160a01b0381166113f25760405162461bcd60e51b815260206004820181905260248201527f417474656d707420746f2072656d6f76652061207a65726f206164647265737360448201526064016106bb565b60018201546113ff575050565b6001600160a01b0381166000818152602084905260409020546001840180549192918390811061143f57634e487b7160e01b600052603260045260246000fd5b6000918252602090912001546001600160a01b0316146114c65760405162461bcd60e51b8152602060048201526024808201527f3530302e20556e6578706563746564204164647265737348617368536574207360448201527f746174650000000000000000000000000000000000000000000000000000000060648201526084016106bb565b600180840180546000926114d991611b8d565b815481106114f757634e487b7160e01b600052603260045260246000fd5b6000918252602090912001546001850180546001600160a01b03909216925082918490811061153657634e487b7160e01b600052603260045260246000fd5b600091825260208083209190910180546001600160a01b0319166001600160a01b03948516179055838316825286905260408082208590559185168152908120556001840180548061159857634e487b7160e01b600052603160045260246000fd5b600082815260209020810160001990810180546001600160a01b031916905501905550505050565b6000816001600160a01b031663f1f0bd016040518163ffffffff1660e01b815260040160206040518083038186803b1580156111e157600080fd5b6001600160a01b0381166116515760405162461bcd60e51b815260206004820152601d60248201527f417474656d707420746f206164642061207a65726f206164647265737300000060448201526064016106bb565b600182015460009015806116c757506001600160a01b0382166000908152602084905260409020541580156116c75750816001600160a01b0316836001016000815481106116af57634e487b7160e01b600052603260045260246000fd5b6000918252602090912001546001600160a01b031614155b9050806116d357505050565b50600180830180546001600160a01b03909316600081815260209586526040812085905592840182559082529290200180546001600160a01b0319169091179055565b82805461172290611ba4565b90600052602060002090601f016020900481019282611744576000855561178a565b82601f1061175d57805160ff191683800117855561178a565b8280016001018555821561178a579182015b8281111561178a57825182559160200191906001019061176f565b5061179692915061179a565b5090565b5b80821115611796576000815560010161179b565b80356117ba81611c3c565b919050565b600082601f8301126117cf578081fd5b813567ffffffffffffffff808211156117ea576117ea611c26565b604051601f8301601f19908116603f0116810190828211818310171561181257611812611c26565b8160405283815286602085880101111561182a578485fd5b8360208701602083013792830160200193909352509392505050565b600060208284031215611857578081fd5b813561118b81611c3c565b600060208284031215611873578081fd5b815161118b81611c3c565b60006020828403121561188f578081fd5b815161118b81611c54565b600080604083850312156118ac578081fd5b82356118b781611c54565b946020939093013593505050565b6000602082840312156118d6578081fd5b81516004811061118b578182fd5b6000602082840312156118f5578081fd5b813567ffffffffffffffff8082111561190c578283fd5b9083019060a0828603121561191f578283fd5b611927611b2d565b611930836117af565b815261193e602084016117af565b6020820152604083013582811115611954578485fd5b611960878286016117bf565b604083015250606083013582811115611977578485fd5b611983878286016117bf565b60608301525060808301358281111561199a578485fd5b6119a6878286016117bf565b60808301525095945050505050565b6000602082840312156119c6578081fd5b5035919050565b6000602082840312156119de578081fd5b5051919050565b60008151808452815b81811015611a0a576020818501810151868301820152016119ee565b81811115611a1b5782602083870101525b50601f01601f19169290920160200192915050565b6020808252825182820181905260009190848201906040850190845b81811015611a715783516001600160a01b031683529284019291840191600101611a4c565b50909695505050505050565b60208101600c8310611a9157611a91611c10565b91905290565b6020810160118310611a9157611a91611c10565b6020815260006001600160a01b0380845116602084015280602085015116604084015250604083015160a06060840152611ae860c08401826119e5565b90506060840151601f1980858403016080860152611b0683836119e5565b925060808601519150808584030160a086015250611b2482826119e5565b95945050505050565b60405160a0810167ffffffffffffffff81118282101715611b5057611b50611c26565b60405290565b60008219821115611b6957611b69611bfa565b500190565b6000816000190483118215151615611b8857611b88611bfa565b500290565b600082821015611b9f57611b9f611bfa565b500390565b600181811c90821680611bb857607f821691505b60208210811415611bd957634e487b7160e01b600052602260045260246000fd5b50919050565b6000600019821415611bf357611bf3611bfa565b5060010190565b634e487b7160e01b600052601160045260246000fd5b634e487b7160e01b600052602160045260246000fd5b634e487b7160e01b600052604160045260246000fd5b6001600160a01b0381168114611c5157600080fd5b50565b8015158114611c5157600080fdfea2646970667358221220828dc800382702c81ca50eae65a85be1b46a1f046c9ce9f2538f3a57892704ee64736f6c63430008040033",
  "linkReferences": {},
  "deployedLinkReferences": {}
}