{
  "_format": "hh-sol-artifact-1",
  "contractName": "ProvidersOffers",
  "sourceName": "contracts/ProvidersOffers.sol",
  "abi": [
    {
      "inputs": [
        {
          "internalType": "address",
          "name": "providerAuth",
          "type": "address"
        },
        {
          "internalType": "uint256",
          "name": "offerId",
          "type": "uint256"
        },
        {
          "internalType": "enum OfferType",
          "name": "offerType",
          "type": "uint8"
        }
      ],
      "name": "addProviderOffer",
      "outputs": [],
      "stateMutability": "nonpayable",
      "type": "function"
    },
    {
      "inputs": [
        {
          "internalType": "address",
          "name": "providerAuth",
          "type": "address"
        }
      ],
      "name": "gcProviderOffers",
      "outputs": [],
      "stateMutability": "nonpayable",
      "type": "function"
    },
    {
      "inputs": [
        {
          "internalType": "address",
          "name": "providerAuth",
          "type": "address"
        }
      ],
      "name": "getProviderOffersState",
      "outputs": [
        {
          "components": [
            {
              "internalType": "uint256",
              "name": "teeEnabled",
              "type": "uint256"
            },
            {
              "internalType": "uint256",
              "name": "valueEnabled",
              "type": "uint256"
            },
            {
              "internalType": "uint256",
              "name": "lastDisabledAfter",
              "type": "uint256"
            }
          ],
          "internalType": "struct ProviderOffersState",
          "name": "",
          "type": "tuple"
        }
      ],
      "stateMutability": "view",
      "type": "function"
    },
    {
      "inputs": [
        {
          "internalType": "address",
          "name": "providerAuth",
          "type": "address"
        }
      ],
      "name": "getProviderRecentlyEnabledTeeOffersCount",
      "outputs": [
        {
          "internalType": "uint256",
          "name": "",
          "type": "uint256"
        }
      ],
      "stateMutability": "view",
      "type": "function"
    },
    {
      "inputs": [
        {
          "internalType": "address",
          "name": "providerAuth",
          "type": "address"
        }
      ],
      "name": "getProviderRecentlyEnabledValueOffersCount",
      "outputs": [
        {
          "internalType": "uint256",
          "name": "",
          "type": "uint256"
        }
      ],
      "stateMutability": "view",
      "type": "function"
    },
    {
      "inputs": [
        {
          "internalType": "address",
          "name": "providerAuth",
          "type": "address"
        },
        {
          "internalType": "uint256",
          "name": "additional",
          "type": "uint256"
        }
      ],
      "name": "getProviderRequiredSecDepo",
      "outputs": [
        {
          "internalType": "uint256",
          "name": "",
          "type": "uint256"
        }
      ],
      "stateMutability": "view",
      "type": "function"
    },
    {
      "inputs": [
        {
          "internalType": "address",
          "name": "providerAuth",
          "type": "address"
        }
      ],
      "name": "getProviderTeeOffers",
      "outputs": [
        {
          "internalType": "uint256[]",
          "name": "",
          "type": "uint256[]"
        }
      ],
      "stateMutability": "view",
      "type": "function"
    },
    {
      "inputs": [
        {
          "internalType": "address",
          "name": "providerAuth",
          "type": "address"
        }
      ],
      "name": "getProviderValueOffers",
      "outputs": [
        {
          "internalType": "uint256[]",
          "name": "",
          "type": "uint256[]"
        }
      ],
      "stateMutability": "view",
      "type": "function"
    },
    {
      "inputs": [
        {
          "internalType": "address",
          "name": "providerAuth",
          "type": "address"
        }
      ],
      "name": "isProviderHasEnabledOffers",
      "outputs": [
        {
          "internalType": "bool",
          "name": "",
          "type": "bool"
        }
      ],
      "stateMutability": "view",
      "type": "function"
    },
    {
      "inputs": [
        {
          "internalType": "address",
          "name": "providerAuth",
          "type": "address"
        }
      ],
      "name": "isProviderHasEnoughSecurityDeposit",
      "outputs": [
        {
          "internalType": "bool",
          "name": "",
          "type": "bool"
        }
      ],
      "stateMutability": "view",
      "type": "function"
    },
    {
      "inputs": [
        {
          "internalType": "address",
          "name": "providerAuth",
          "type": "address"
        },
        {
          "internalType": "uint256",
          "name": "offerId",
          "type": "uint256"
        },
        {
          "internalType": "enum OfferType",
          "name": "offerType",
          "type": "uint8"
        },
        {
          "internalType": "bool",
          "name": "enabled",
          "type": "bool"
        },
        {
          "internalType": "uint256",
          "name": "disabledAfter",
          "type": "uint256"
        }
      ],
      "name": "setProviderOfferState",
      "outputs": [],
      "stateMutability": "nonpayable",
      "type": "function"
    }
  ],
  "bytecode": "0x608060405234801561001057600080fd5b506113fa806100206000396000f3fe608060405234801561001057600080fd5b50600436106100c95760003560e01c80639189644b11610081578063dc7f1bde1161005b578063dc7f1bde14610198578063ded11669146101cd578063fa8e245e146101e057600080fd5b80639189644b1461015d578063a4f48e3d14610170578063b6dd45ff1461018557600080fd5b80632f06cde8116100b25780632f06cde8146101175780635ee5ad281461012a5780638360fd051461014a57600080fd5b80630115b2c6146100ce578063024ed19e146100f4575b600080fd5b6100e16100dc366004611169565b6101f3565b6040519081526020015b60405180910390f35b610107610102366004611169565b610296565b60405190151581526020016100eb565b6100e1610125366004611184565b6102fc565b61013d610138366004611169565b610513565b6040516100eb91906111ae565b6100e1610158366004611169565b6105ac565b61013d61016b366004611169565b610641565b61018361017e366004611212565b6106d8565b005b610183610193366004611169565b610a6d565b6101ab6101a6366004611169565b610b11565b60408051825181526020808401519082015291810151908201526060016100eb565b6101076101db366004611169565b610b95565b6101836101ee366004611269565b610c2e565b6001600160a01b03811660009081527f50542d7ac6a2c0ac82903312cbfb15baf9b1f21f258b8bbffd589111401c33e96020526040812061028f8160070160010180548060200260200160405190810160405280929190818152602001828054801561027e57602002820191906000526020600020905b81548152602001906001019080831161026a575b505050505061028a3090565b610ce2565b9392505050565b6001600160a01b03811660009081527f50542d7ac6a2c0ac82903312cbfb15baf9b1f21f258b8bbffd589111401c33e9602052604081206001810154815483916102df916112bb565b905060008111806102f4575060028201544211155b949350505050565b6001600160a01b03821660009081527f50542d7ac6a2c0ac82903312cbfb15baf9b1f21f258b8bbffd589111401c33e96020526040808220905163897ce7cf60e01b81528290309063897ce7cf90610359906002906004016112e9565b60206040518083038186803b15801561037157600080fd5b505afa158015610385573d6000803e3d6000fd5b505050506040513d601f19601f820116820180604052508101906103a99190611311565b905060006103b6866101f3565b60018401546103c591906112bb565b60405163897ce7cf60e01b8152309063897ce7cf906103e9906006906004016112e9565b60206040518083038186803b15801561040157600080fd5b505afa158015610415573d6000803e3d6000fd5b505050506040513d601f19601f820116820180604052508101906104399190611311565b610443919061132a565b90506000610450876105ac565b845461045c91906112bb565b60405163897ce7cf60e01b8152309063897ce7cf90610480906005906004016112e9565b60206040518083038186803b15801561049857600080fd5b505afa1580156104ac573d6000803e3d6000fd5b505050506040513d601f19601f820116820180604052508101906104d09190611311565b6104da919061132a565b90506000866104e984846112bb565b6104f391906112bb565b905060008185116105045781610506565b845b9998505050505050505050565b60606000610554836001600160a01b031660009081527f50542d7ac6a2c0ac82903312cbfb15baf9b1f21f258b8bbffd589111401c33e96020526040902090565b6003810180546040805160208084028201810190925282815293945083018282801561059f57602002820191906000526020600020905b81548152602001906001019080831161058b575b5050505050915050919050565b6001600160a01b03811660009081527f50542d7ac6a2c0ac82903312cbfb15baf9b1f21f258b8bbffd589111401c33e96020526040812061028f8160050160010180548060200260200160405190810160405280929190818152602001828054801561027e576020028201919060005260206000209081548152602001906001019080831161026a57505050505061028a3090565b60606000610682836001600160a01b031660009081527f50542d7ac6a2c0ac82903312cbfb15baf9b1f21f258b8bbffd589111401c33e96020526040902090565b6004810180546040805160208084028201810190925282815293945083018282801561059f576020028201919060005260206000209081548152602001906001019080831161058b575050505050915050919050565b33301461072c5760405162461bcd60e51b815260206004820152601660248201527f45787465726e616c206163636573732064656e6965640000000000000000000060448201526064015b60405180910390fd5b600080846003811115610741576107416112d3565b1490506000816107c45760405163897ce7cf60e01b8152309063897ce7cf9061076f906006906004016112e9565b60206040518083038186803b15801561078757600080fd5b505afa15801561079b573d6000803e3d6000fd5b505050506040513d601f19601f820116820180604052508101906107bf9190611311565b610838565b60405163897ce7cf60e01b8152309063897ce7cf906107e8906005906004016112e9565b60206040518083038186803b15801561080057600080fd5b505afa158015610814573d6000803e3d6000fd5b505050506040513d601f19601f820116820180604052508101906108389190611311565b90506000610879886001600160a01b031660009081527f50542d7ac6a2c0ac82903312cbfb15baf9b1f21f258b8bbffd589111401c33e96020526040902090565b90508415610a2d576000306040517f2f06cde80000000000000000000000000000000000000000000000000000000081526001600160a01b038b81166004830152602482018690529190911690632f06cde89060440160206040518083038186803b1580156108e757600080fd5b505afa1580156108fb573d6000803e3d6000fd5b505050506040513d601f19601f8201168201806040525081019061091f9190611311565b905060003060405163d8a2d2c560e01b81526001600160a01b038c81166004830152919091169063d8a2d2c59060240160206040518083038186803b15801561096757600080fd5b505afa15801561097b573d6000803e3d6000fd5b505050506040513d601f19601f8201168201806040525081019061099f9190611311565b905081811015610a175760405162461bcd60e51b815260206004820152602760248201527f43616e277420656e61626c652064756520736d616c6c2073656375726974792060448201527f6465706f736974000000000000000000000000000000000000000000000000006064820152608401610723565b610a2383866001610dce565b5050505050610a66565b610a3981846000610dce565b610a44818489610e4a565b8054158015610a5557506001810154155b15610a6257600281018490555b5050505b5050505050565b333014610abc5760405162461bcd60e51b815260206004820152601660248201527f45787465726e616c206163636573732064656e696564000000000000000000006044820152606401610723565b6001600160a01b03811660009081527f50542d7ac6a2c0ac82903312cbfb15baf9b1f21f258b8bbffd589111401c33e960205260409020610b006005820130610e6a565b610b0d6007820130610e6a565b5050565b610b3560405180606001604052806000815260200160008152602001600081525090565b6001600160a01b03821660009081527f50542d7ac6a2c0ac82903312cbfb15baf9b1f21f258b8bbffd589111401c33e960205260408120604080516060810182528254815260018301546020820152600290920154908201529392505050565b600080610ba38360006102fc565b905060003060405163d8a2d2c560e01b81526001600160a01b038681166004830152919091169063d8a2d2c59060240160206040518083038186803b158015610beb57600080fd5b505afa158015610bff573d6000803e3d6000fd5b505050506040513d601f19601f82011682018060405250810190610c239190611311565b909111159392505050565b333014610c7d5760405162461bcd60e51b815260206004820152601660248201527f45787465726e616c206163636573732064656e696564000000000000000000006044820152606401610723565b6001600160a01b03831660009081527f50542d7ac6a2c0ac82903312cbfb15baf9b1f21f258b8bbffd589111401c33e9602052604081209080836003811115610cc857610cc86112d3565b149050610cd782826001610dce565b610a66828286610f60565b600080805b8451811015610dc6576000858281518110610d0457610d04611349565b602002602001015190506000856001600160a01b0316631e7adb9d836040518263ffffffff1660e01b8152600401610d3e91815260200190565b60206040518083038186803b158015610d5657600080fd5b505afa158015610d6a573d6000803e3d6000fd5b505050506040513d601f19601f82011682018060405250810190610d8e9190611311565b90508015801590610d9e57504281115b15610db157610dae6001856112bb565b93505b50508080610dbe9061135f565b915050610ce7565b509392505050565b8115610e0f578015610dfa5782546001908490600090610def9084906112bb565b90915550610e459050565b82546001908490600090610def90849061137a565b8015610e2a5760018381018054600090610def9084906112bb565b60018381018054600090610e3f90849061137a565b90915550505b505050565b8115610e5d57610e456005840182610fa4565b610e456007840182610fa4565b60005a905060005b600184015481108015610e9257506233e1405a610e8f908461137a565b11155b15610f5a576000846001018281548110610eae57610eae611349565b90600052602060002001549050836001600160a01b031663e51334fb826040518263ffffffff1660e01b8152600401610ee991815260200190565b60206040518083038186803b158015610f0157600080fd5b505afa158015610f15573d6000803e3d6000fd5b505050506040513d601f19601f82011682018060405250810190610f399190611391565b610f4757610f478582611025565b610f526001836112bb565b915050610e72565b50505050565b8115610f85576004830180546001810182556000918252602090912001819055505050565b6003830180546001810182556000918252602090912001819055505050565b60018201546000901580610fef5750600082815260208490526040902054158015610fef57508183600101600081548110610fe157610fe1611349565b906000526020600020015414155b905080610ffb57505050565b50600180830180546000848152602095865260408120829055928101825590825292902090910155565b6001820154611032575050565b6000818152602083905260409020546001830180548391908390811061105a5761105a611349565b9060005260206000200154146110b25760405162461bcd60e51b815260206004820152601f60248201527f3530302e20556e6578706563746564204f6666657273536574207374617465006044820152606401610723565b600180840180546000926110c59161137a565b815481106110d5576110d5611349565b90600052602060002001549050808460010183815481106110f8576110f8611349565b600091825260208083209091019290925582815290859052604080822084905584825281205560018401805480611131576111316113ae565b6001900381819060005260206000200160009055905550505050565b80356001600160a01b038116811461116457600080fd5b919050565b60006020828403121561117b57600080fd5b61028f8261114d565b6000806040838503121561119757600080fd5b6111a08361114d565b946020939093013593505050565b6020808252825182820181905260009190848201906040850190845b818110156111e6578351835292840192918401916001016111ca565b50909695505050505050565b80356004811061116457600080fd5b801515811461120f57600080fd5b50565b600080600080600060a0868803121561122a57600080fd5b6112338661114d565b945060208601359350611248604087016111f2565b9250606086013561125881611201565b949793965091946080013592915050565b60008060006060848603121561127e57600080fd5b6112878461114d565b92506020840135915061129c604085016111f2565b90509250925092565b634e487b7160e01b600052601160045260246000fd5b600082198211156112ce576112ce6112a5565b500190565b634e487b7160e01b600052602160045260246000fd5b602081016011831061130b57634e487b7160e01b600052602160045260246000fd5b91905290565b60006020828403121561132357600080fd5b5051919050565b6000816000190483118215151615611344576113446112a5565b500290565b634e487b7160e01b600052603260045260246000fd5b6000600019821415611373576113736112a5565b5060010190565b60008282101561138c5761138c6112a5565b500390565b6000602082840312156113a357600080fd5b815161028f81611201565b634e487b7160e01b600052603160045260246000fdfea26469706673582212203ddfb743ee5564d32801113629026dd0c3e05f3c16e23cf0ba45477f33ba342d64736f6c63430008090033",
  "linkReferences": {},
  "deployedLinkReferences": {}
}