{
  "_format": "hh-sol-artifact-1",
  "contractName": "ProvidersOffers",
  "sourceName": "contracts/ProvidersOffers.sol",
  "abi": [
    {
      "inputs": [
        {
          "internalType": "address",
          "name": "providerAuth",
          "type": "address"
        },
        {
          "internalType": "uint256",
          "name": "offerId",
          "type": "uint256"
        },
        {
          "internalType": "enum OfferType",
          "name": "offerType",
          "type": "uint8"
        }
      ],
      "name": "addProviderOffer",
      "outputs": [],
      "stateMutability": "nonpayable",
      "type": "function"
    },
    {
      "inputs": [
        {
          "internalType": "address",
          "name": "providerAuth",
          "type": "address"
        }
      ],
      "name": "gcProviderOffers",
      "outputs": [],
      "stateMutability": "nonpayable",
      "type": "function"
    },
    {
      "inputs": [
        {
          "internalType": "address",
          "name": "providerAuth",
          "type": "address"
        }
      ],
      "name": "getProviderOffersState",
      "outputs": [
        {
          "components": [
            {
              "internalType": "uint256",
              "name": "teeEnabled",
              "type": "uint256"
            },
            {
              "internalType": "uint256",
              "name": "valueEnabled",
              "type": "uint256"
            },
            {
              "internalType": "uint256",
              "name": "lastDisabledAfter",
              "type": "uint256"
            }
          ],
          "internalType": "struct ProviderOffersState",
          "name": "",
          "type": "tuple"
        }
      ],
      "stateMutability": "view",
      "type": "function"
    },
    {
      "inputs": [
        {
          "internalType": "address",
          "name": "providerAuth",
          "type": "address"
        }
      ],
      "name": "getProviderRecentlyEnabledTeeOffersCount",
      "outputs": [
        {
          "internalType": "uint256",
          "name": "",
          "type": "uint256"
        }
      ],
      "stateMutability": "view",
      "type": "function"
    },
    {
      "inputs": [
        {
          "internalType": "address",
          "name": "providerAuth",
          "type": "address"
        }
      ],
      "name": "getProviderRecentlyEnabledValueOffersCount",
      "outputs": [
        {
          "internalType": "uint256",
          "name": "",
          "type": "uint256"
        }
      ],
      "stateMutability": "view",
      "type": "function"
    },
    {
      "inputs": [
        {
          "internalType": "address",
          "name": "providerAuth",
          "type": "address"
        },
        {
          "internalType": "uint256",
          "name": "additional",
          "type": "uint256"
        }
      ],
      "name": "getProviderRequiredSecDepo",
      "outputs": [
        {
          "internalType": "uint256",
          "name": "",
          "type": "uint256"
        }
      ],
      "stateMutability": "view",
      "type": "function"
    },
    {
      "inputs": [
        {
          "internalType": "address",
          "name": "providerAuth",
          "type": "address"
        }
      ],
      "name": "getProviderTeeOffers",
      "outputs": [
        {
          "internalType": "uint256[]",
          "name": "",
          "type": "uint256[]"
        }
      ],
      "stateMutability": "view",
      "type": "function"
    },
    {
      "inputs": [
        {
          "internalType": "address",
          "name": "providerAuth",
          "type": "address"
        }
      ],
      "name": "getProviderValueOffers",
      "outputs": [
        {
          "internalType": "uint256[]",
          "name": "",
          "type": "uint256[]"
        }
      ],
      "stateMutability": "view",
      "type": "function"
    },
    {
      "inputs": [
        {
          "internalType": "address",
          "name": "providerAuth",
          "type": "address"
        }
      ],
      "name": "isProviderHasEnabledOffers",
      "outputs": [
        {
          "internalType": "bool",
          "name": "",
          "type": "bool"
        }
      ],
      "stateMutability": "view",
      "type": "function"
    },
    {
      "inputs": [
        {
          "internalType": "address",
          "name": "providerAuth",
          "type": "address"
        }
      ],
      "name": "isProviderHasEnoughSecurityDeposit",
      "outputs": [
        {
          "internalType": "bool",
          "name": "",
          "type": "bool"
        }
      ],
      "stateMutability": "view",
      "type": "function"
    },
    {
      "inputs": [
        {
          "internalType": "address",
          "name": "providerAuth",
          "type": "address"
        },
        {
          "internalType": "uint256",
          "name": "offerId",
          "type": "uint256"
        },
        {
          "internalType": "enum OfferType",
          "name": "offerType",
          "type": "uint8"
        },
        {
          "internalType": "bool",
          "name": "enabled",
          "type": "bool"
        },
        {
          "internalType": "uint256",
          "name": "disabledAfter",
          "type": "uint256"
        }
      ],
      "name": "setProviderOfferState",
      "outputs": [],
      "stateMutability": "nonpayable",
      "type": "function"
    }
  ],
  "bytecode": "0x608060405234801561001057600080fd5b50611486806100206000396000f3fe608060405234801561001057600080fd5b50600436106100c95760003560e01c80639189644b11610081578063dc7f1bde1161005b578063dc7f1bde14610198578063ded11669146101cd578063fa8e245e146101e057600080fd5b80639189644b1461015d578063a4f48e3d14610170578063b6dd45ff1461018557600080fd5b80632f06cde8116100b25780632f06cde8146101175780635ee5ad281461012a5780638360fd051461014a57600080fd5b80630115b2c6146100ce578063024ed19e146100f4575b600080fd5b6100e16100dc3660046111f5565b6101f3565b6040519081526020015b60405180910390f35b6101076101023660046111f5565b610296565b60405190151581526020016100eb565b6100e1610125366004611210565b6102fc565b61013d6101383660046111f5565b610515565b6040516100eb919061123a565b6100e16101583660046111f5565b6105ae565b61013d61016b3660046111f5565b610643565b61018361017e36600461129e565b6106da565b005b6101836101933660046111f5565b610a6f565b6101ab6101a63660046111f5565b610b13565b60408051825181526020808401519082015291810151908201526060016100eb565b6101076101db3660046111f5565b610b97565b6101836101ee3660046112f5565b610c30565b6001600160a01b03811660009081527f50542d7ac6a2c0ac82903312cbfb15baf9b1f21f258b8bbffd589111401c33e96020526040812061028f8160070160010180548060200260200160405190810160405280929190818152602001828054801561027e57602002820191906000526020600020905b81548152602001906001019080831161026a575b505050505061028a3090565b610ce4565b9392505050565b6001600160a01b03811660009081527f50542d7ac6a2c0ac82903312cbfb15baf9b1f21f258b8bbffd589111401c33e9602052604081206001810154815483916102df91611347565b905060008111806102f4575060028201544211155b949350505050565b6001600160a01b03821660009081527f50542d7ac6a2c0ac82903312cbfb15baf9b1f21f258b8bbffd589111401c33e96020526040808220905163897ce7cf60e01b81528290309063897ce7cf9061035990600290600401611375565b60206040518083038186803b15801561037157600080fd5b505afa158015610385573d6000803e3d6000fd5b505050506040513d601f19601f820116820180604052508101906103a9919061139d565b905060006103b6866101f3565b60018401546103c59190611347565b60405163897ce7cf60e01b8152309063897ce7cf906103e990600690600401611375565b60206040518083038186803b15801561040157600080fd5b505afa158015610415573d6000803e3d6000fd5b505050506040513d601f19601f82011682018060405250810190610439919061139d565b61044391906113b6565b90506000610450876105ae565b845461045c9190611347565b60405163897ce7cf60e01b8152309063897ce7cf9061048090600590600401611375565b60206040518083038186803b15801561049857600080fd5b505afa1580156104ac573d6000803e3d6000fd5b505050506040513d601f19601f820116820180604052508101906104d0919061139d565b6104da91906113b6565b90506000866104e98484611347565b6104f39190611347565b905060008185116105045781610506565b845b96505050505050505b92915050565b60606000610556836001600160a01b031660009081527f50542d7ac6a2c0ac82903312cbfb15baf9b1f21f258b8bbffd589111401c33e96020526040902090565b600381018054604080516020808402820181019092528281529394508301828280156105a157602002820191906000526020600020905b81548152602001906001019080831161058d575b5050505050915050919050565b6001600160a01b03811660009081527f50542d7ac6a2c0ac82903312cbfb15baf9b1f21f258b8bbffd589111401c33e96020526040812061028f8160050160010180548060200260200160405190810160405280929190818152602001828054801561027e576020028201919060005260206000209081548152602001906001019080831161026a57505050505061028a3090565b60606000610684836001600160a01b031660009081527f50542d7ac6a2c0ac82903312cbfb15baf9b1f21f258b8bbffd589111401c33e96020526040902090565b600481018054604080516020808402820181019092528281529394508301828280156105a1576020028201919060005260206000209081548152602001906001019080831161058d575050505050915050919050565b33301461072e5760405162461bcd60e51b815260206004820152601660248201527f45787465726e616c206163636573732064656e6965640000000000000000000060448201526064015b60405180910390fd5b6000808460038111156107435761074361135f565b1490506000816107c65760405163897ce7cf60e01b8152309063897ce7cf9061077190600690600401611375565b60206040518083038186803b15801561078957600080fd5b505afa15801561079d573d6000803e3d6000fd5b505050506040513d601f19601f820116820180604052508101906107c1919061139d565b61083a565b60405163897ce7cf60e01b8152309063897ce7cf906107ea90600590600401611375565b60206040518083038186803b15801561080257600080fd5b505afa158015610816573d6000803e3d6000fd5b505050506040513d601f19601f8201168201806040525081019061083a919061139d565b9050600061087b886001600160a01b031660009081527f50542d7ac6a2c0ac82903312cbfb15baf9b1f21f258b8bbffd589111401c33e96020526040902090565b90508415610a2f576000306040517f2f06cde80000000000000000000000000000000000000000000000000000000081526001600160a01b038b81166004830152602482018690529190911690632f06cde89060440160206040518083038186803b1580156108e957600080fd5b505afa1580156108fd573d6000803e3d6000fd5b505050506040513d601f19601f82011682018060405250810190610921919061139d565b905060003060405163d8a2d2c560e01b81526001600160a01b038c81166004830152919091169063d8a2d2c59060240160206040518083038186803b15801561096957600080fd5b505afa15801561097d573d6000803e3d6000fd5b505050506040513d601f19601f820116820180604052508101906109a1919061139d565b905081811015610a195760405162461bcd60e51b815260206004820152602760248201527f43616e277420656e61626c652064756520736d616c6c2073656375726974792060448201527f6465706f736974000000000000000000000000000000000000000000000000006064820152608401610725565b610a2583866001610dd0565b5050505050610a68565b610a3b81846000610dd0565b610a46818489610e4c565b8054158015610a5757506001810154155b15610a6457600281018490555b5050505b5050505050565b333014610abe5760405162461bcd60e51b815260206004820152601660248201527f45787465726e616c206163636573732064656e696564000000000000000000006044820152606401610725565b6001600160a01b03811660009081527f50542d7ac6a2c0ac82903312cbfb15baf9b1f21f258b8bbffd589111401c33e960205260409020610b026005820130610e6c565b610b0f6007820130610e6c565b5050565b610b3760405180606001604052806000815260200160008152602001600081525090565b6001600160a01b03821660009081527f50542d7ac6a2c0ac82903312cbfb15baf9b1f21f258b8bbffd589111401c33e960205260408120604080516060810182528254815260018301546020820152600290920154908201529392505050565b600080610ba58360006102fc565b905060003060405163d8a2d2c560e01b81526001600160a01b038681166004830152919091169063d8a2d2c59060240160206040518083038186803b158015610bed57600080fd5b505afa158015610c01573d6000803e3d6000fd5b505050506040513d601f19601f82011682018060405250810190610c25919061139d565b909111159392505050565b333014610c7f5760405162461bcd60e51b815260206004820152601660248201527f45787465726e616c206163636573732064656e696564000000000000000000006044820152606401610725565b6001600160a01b03831660009081527f50542d7ac6a2c0ac82903312cbfb15baf9b1f21f258b8bbffd589111401c33e9602052604081209080836003811115610cca57610cca61135f565b149050610cd982826001610dd0565b610a68828286610f62565b600080805b8451811015610dc8576000858281518110610d0657610d066113d5565b602002602001015190506000856001600160a01b0316631e7adb9d836040518263ffffffff1660e01b8152600401610d4091815260200190565b60206040518083038186803b158015610d5857600080fd5b505afa158015610d6c573d6000803e3d6000fd5b505050506040513d601f19601f82011682018060405250810190610d90919061139d565b90508015801590610da057504281115b15610db357610db0600185611347565b93505b50508080610dc0906113eb565b915050610ce9565b509392505050565b8115610e11578015610dfc5782546001908490600090610df1908490611347565b90915550610e479050565b82546001908490600090610df1908490611406565b8015610e2c5760018381018054600090610df1908490611347565b60018381018054600090610e41908490611406565b90915550505b505050565b8115610e5f57610e476005840182610fa6565b610e476007840182610fa6565b60005a905060005b600184015481108015610e9457506233e1405a610e919084611406565b11155b15610f5c576000846001018281548110610eb057610eb06113d5565b90600052602060002001549050836001600160a01b031663e51334fb826040518263ffffffff1660e01b8152600401610eeb91815260200190565b60206040518083038186803b158015610f0357600080fd5b505afa158015610f17573d6000803e3d6000fd5b505050506040513d601f19601f82011682018060405250810190610f3b919061141d565b610f4957610f498582611027565b610f54600183611347565b915050610e74565b50505050565b8115610f87576004830180546001810182556000918252602090912001819055505050565b6003830180546001810182556000918252602090912001819055505050565b60018201546000901580610ff15750600082815260208490526040902054158015610ff157508183600101600081548110610fe357610fe36113d5565b906000526020600020015414155b905080610ffd57505050565b50600180830180546000848152602095865260408120829055928101825590825292902090910155565b6110318282611184565b15610b0f576001820154611043575050565b6000818152602083905260409020546001830180548391908390811061106b5761106b6113d5565b9060005260206000200154146110e95760405162461bcd60e51b815260206004820152602160248201527f3530302e20556e65787065637465642055696e7448617368536574207374617460448201527f65000000000000000000000000000000000000000000000000000000000000006064820152608401610725565b600180840180546000926110fc91611406565b8154811061110c5761110c6113d5565b906000526020600020015490508084600101838154811061112f5761112f6113d5565b6000918252602080832090910192909255828152908590526040808220849055848252812055600184018054806111685761116861143a565b6001900381819060005260206000200160009055905550505050565b60018201546000906111985750600061050f565b60008281526020849052604090205415158061028f575081836001016000815481106111c6576111c66113d5565b9060005260206000200154149392505050565b80356001600160a01b03811681146111f057600080fd5b919050565b60006020828403121561120757600080fd5b61028f826111d9565b6000806040838503121561122357600080fd5b61122c836111d9565b946020939093013593505050565b6020808252825182820181905260009190848201906040850190845b8181101561127257835183529284019291840191600101611256565b50909695505050505050565b8035600481106111f057600080fd5b801515811461129b57600080fd5b50565b600080600080600060a086880312156112b657600080fd5b6112bf866111d9565b9450602086013593506112d46040870161127e565b925060608601356112e48161128d565b949793965091946080013592915050565b60008060006060848603121561130a57600080fd5b611313846111d9565b9250602084013591506113286040850161127e565b90509250925092565b634e487b7160e01b600052601160045260246000fd5b6000821982111561135a5761135a611331565b500190565b634e487b7160e01b600052602160045260246000fd5b602081016008831061139757634e487b7160e01b600052602160045260246000fd5b91905290565b6000602082840312156113af57600080fd5b5051919050565b60008160001904831182151516156113d0576113d0611331565b500290565b634e487b7160e01b600052603260045260246000fd5b60006000198214156113ff576113ff611331565b5060010190565b60008282101561141857611418611331565b500390565b60006020828403121561142f57600080fd5b815161028f8161128d565b634e487b7160e01b600052603160045260246000fdfea26469706673582212200b3b2d53ad4c74160a354d198370bb8d7a0bda11b916c7054080db2ab775676164736f6c63430008090033",
  "linkReferences": {},
  "deployedLinkReferences": {}
}