{
    "_format": "hh-sol-artifact-1",
    "contractName": "ProviderRegistry",
    "sourceName": "contracts/ProviderRegistry.sol",
    "abi": [
        {
            "inputs": [
                {
                    "internalType": "address",
                    "name": "superproAddress",
                    "type": "address"
                }
            ],
            "stateMutability": "nonpayable",
            "type": "constructor"
        },
        {
            "anonymous": false,
            "inputs": [
                {
                    "indexed": false,
                    "internalType": "address",
                    "name": "providerInfo",
                    "type": "address"
                }
            ],
            "name": "ProviderRegistred",
            "type": "event"
        },
        {
            "inputs": [
                {
                    "internalType": "address",
                    "name": "teeOffer",
                    "type": "address"
                },
                {
                    "internalType": "uint256",
                    "name": "amount",
                    "type": "uint256"
                }
            ],
            "name": "chargePenalty",
            "outputs": [],
            "stateMutability": "nonpayable",
            "type": "function"
        },
        {
            "inputs": [
                {
                    "internalType": "address",
                    "name": "providerAuth",
                    "type": "address"
                }
            ],
            "name": "checkRegistration",
            "outputs": [
                {
                    "internalType": "bool",
                    "name": "",
                    "type": "bool"
                }
            ],
            "stateMutability": "view",
            "type": "function"
        },
        {
            "inputs": [
                {
                    "internalType": "address",
                    "name": "providerAuth",
                    "type": "address"
                }
            ],
            "name": "get",
            "outputs": [
                {
                    "internalType": "address",
                    "name": "providerInfoContract",
                    "type": "address"
                }
            ],
            "stateMutability": "view",
            "type": "function"
        },
        {
            "inputs": [
                {
                    "internalType": "address",
                    "name": "providerAuth",
                    "type": "address"
                }
            ],
            "name": "getSecurityDeposit",
            "outputs": [
                {
                    "internalType": "uint256",
                    "name": "",
                    "type": "uint256"
                }
            ],
            "stateMutability": "view",
            "type": "function"
        },
        {
            "inputs": [
                {
                    "internalType": "address",
                    "name": "providerAuth",
                    "type": "address"
                }
            ],
            "name": "hasEnoughSecurityDeposit",
            "outputs": [
                {
                    "internalType": "bool",
                    "name": "",
                    "type": "bool"
                }
            ],
            "stateMutability": "view",
            "type": "function"
        },
        {
            "inputs": [],
            "name": "listAll",
            "outputs": [
                {
                    "internalType": "address[]",
                    "name": "",
                    "type": "address[]"
                }
            ],
            "stateMutability": "view",
            "type": "function"
        },
        {
            "inputs": [
                {
                    "internalType": "uint256",
                    "name": "amount",
                    "type": "uint256"
                }
            ],
            "name": "refillSecurityDepo",
            "outputs": [],
            "stateMutability": "nonpayable",
            "type": "function"
        },
        {
            "inputs": [
                {
                    "components": [
                        {
                            "internalType": "address",
                            "name": "tokenReceiver",
                            "type": "address"
                        },
                        {
                            "internalType": "address",
                            "name": "actionAccount",
                            "type": "address"
                        },
                        {
                            "internalType": "string",
                            "name": "name",
                            "type": "string"
                        },
                        {
                            "internalType": "string",
                            "name": "description",
                            "type": "string"
                        },
                        {
                            "internalType": "string",
                            "name": "metadata",
                            "type": "string"
                        }
                    ],
                    "internalType": "struct ProviderInfo",
                    "name": "info",
                    "type": "tuple"
                }
            ],
            "name": "register",
            "outputs": [
                {
                    "internalType": "address",
                    "name": "",
                    "type": "address"
                }
            ],
            "stateMutability": "nonpayable",
            "type": "function"
        },
        {
            "inputs": [
                {
                    "internalType": "uint256",
                    "name": "amount",
                    "type": "uint256"
                }
            ],
            "name": "returnSecurityDepo",
            "outputs": [],
            "stateMutability": "nonpayable",
            "type": "function"
        }
    ],
    "bytecode": "0x608060405234801561001057600080fd5b5060405161366b38038061366b83398101604081905261002f91610054565b600080546001600160a01b0319166001600160a01b0392909216919091179055610082565b600060208284031215610065578081fd5b81516001600160a01b038116811461007b578182fd5b9392505050565b6135da806100916000396000f3fe60806040523480156200001157600080fd5b5060043610620000b05760003560e01c80638f01d436116200007f578063c2bc2efc1162000062578063c2bc2efc1462000180578063c57a7daa1462000197578063e2a4128314620001ae57600080fd5b80638f01d4361462000143578063b00e3c24146200015a57600080fd5b80630203c1e514620000b557806354e80afd14620000e95780635cdf48f1146200011157806378a9eeed146200012a575b600080fd5b620000cc620000c636600462001268565b620001df565b6040516001600160a01b0390911681526020015b60405180910390f35b62000100620000fa3660046200117b565b6200052b565b6040519015158152602001620000e0565b6200012862000122366004620011b9565b62000632565b005b6200013462000861565b604051620000e0919062001504565b6200012862000154366004620013b4565b620008c5565b620001716200016b3660046200117b565b62000acc565b604051908152602001620000e0565b620000cc620001913660046200117b565b62000bcd565b62000128620001a8366004620013b4565b62000c57565b62000100620001bf3660046200117b565b6001600160a01b0390811660009081526001602052604090205416151590565b336000908152600160205260408120546001600160a01b0316156200024b5760405162461bcd60e51b815260206004820152601b60248201527f50726f766964657220616c72656164792072656769737465726564000000000060448201526064015b60405180910390fd5b6000805433919062000266906001600160a01b031662000f30565b60405163c345315360e01b81526001600160a01b038481166004830152919091169063c34531539060240160806040518083038186803b158015620002aa57600080fd5b505afa158015620002bf573d6000803e3d6000fd5b505050506040513d601f19601f82011682018060405250810190620002e591906200134b565b9050600081606001518260200151620002ff9190620015ac565b60008054919250906200031d906001600160a01b0316600262000fc5565b905080821015620003975760405162461bcd60e51b815260206004820152603160248201527f546f20736d616c6c207374616b6520666f72206c6f636b2070726f766964657260448201527f207265676973747279206465706f736974000000000000000000000000000000606482015260840162000242565b600080546040516001600160a01b039091169086908990620003b990620010d1565b620003c7939291906200144b565b604051809103906000f080158015620003e4573d6000803e3d6000fd5b50600054909150620003ff906001600160a01b031662000f30565b60405163e2ab691d60e01b81526001600160a01b0387811660048301526024820185905260006044830152919091169063e2ab691d90606401600060405180830381600087803b1580156200045357600080fd5b505af115801562000468573d6000803e3d6000fd5b505050506001600160a01b03858116600090815260016020818152604080842080549587167fffffffffffffffffffffffff000000000000000000000000000000000000000096871681179091556002805494850181559094527f405787fa12a823e0f2b7631cc41b3ba8828b3321ca811111fa75cd3aa3bb5ace90920180549094168317909355519081527f1c83de88aeaf361073f802e77f075493e38f1ad1f9de5d3e83ac307553cf15db910160405180910390a19450505050505b919050565b6001600160a01b03808216600090815260016020526040812054909116620005875760405162461bcd60e51b815260206004820152600e60248201526d2737ba103090383937bb34b232b960911b604482015260640162000242565b6001600160a01b038281166000908152600160205260408082205490516333c1885f60e21b815260048101839052921691829063cf06217c9060240160206040518083038186803b158015620005dc57600080fd5b505afa158015620005f1573d6000803e3d6000fd5b505050506040513d601f19601f82011682018060405250810190620006179190620013cd565b90506000620006268562000acc565b90911115949350505050565b60005462000649906001600160a01b03166200105a565b6001600160a01b0316336001600160a01b031614620006ab5760405162461bcd60e51b815260206004820152601c60248201527f417661696c61626c65206f6e6c7920666f7220436f6e73656e73757300000000604482015260640162000242565b6000826001600160a01b031663483d45bd6040518163ffffffff1660e01b815260040160206040518083038186803b158015620006e757600080fd5b505afa158015620006fc573d6000803e3d6000fd5b505050506040513d601f19601f820116820180604052508101906200072291906200119a565b90506000816001600160a01b031663085710116040518163ffffffff1660e01b815260040160206040518083038186803b1580156200076057600080fd5b505afa15801562000775573d6000803e3d6000fd5b505050506040513d601f19601f820116820180604052508101906200079b91906200119a565b90506000620007aa8262000acc565b90506000848210620007bd5784620007bf565b815b600054909150620007d9906001600160a01b031662000f30565b6040517f183147030000000000000000000000000000000000000000000000000000000081526001600160a01b0385811660048301526024820184905291909116906318314703906044015b600060405180830381600087803b1580156200084057600080fd5b505af115801562000855573d6000803e3d6000fd5b50505050505050505050565b60606002805480602002602001604051908101604052809291908181526020018280548015620008bb57602002820191906000526020600020905b81546001600160a01b031681526001909101906020018083116200089c575b5050505050905090565b336000818152600160205260409020546001600160a01b03166200091d5760405162461bcd60e51b815260206004820152600e60248201526d2737ba103090383937bb34b232b960911b604482015260640162000242565b6000805462000935906001600160a01b031662000f30565b60405163c345315360e01b81526001600160a01b038481166004830152919091169063c34531539060240160806040518083038186803b1580156200097957600080fd5b505afa1580156200098e573d6000803e3d6000fd5b505050506040513d601f19601f82011682018060405250810190620009b491906200134b565b90508281606001518260200151620009cd9190620015ac565b101562000a435760405162461bcd60e51b815260206004820152603160248201527f546f20736d616c6c207374616b6520666f72206c6f636b2070726f766964657260448201527f207265676973747279206465706f736974000000000000000000000000000000606482015260840162000242565b60005462000a5a906001600160a01b031662000f30565b60405163e2ab691d60e01b81526001600160a01b0384811660048301526024820186905260006044830152919091169063e2ab691d90606401600060405180830381600087803b15801562000aae57600080fd5b505af115801562000ac3573d6000803e3d6000fd5b50505050505050565b6001600160a01b0380821660009081526001602052604081205490911662000b285760405162461bcd60e51b815260206004820152600e60248201526d2737ba103090383937bb34b232b960911b604482015260640162000242565b60005462000b3f906001600160a01b031662000f30565b6001600160a01b0316634bfb1e7a8360016040518363ffffffff1660e01b815260040162000b6f929190620014e5565b60606040518083038186803b15801562000b8857600080fd5b505afa15801562000b9d573d6000803e3d6000fd5b505050506040513d601f19601f8201168201806040525081019062000bc3919062001209565b6040015192915050565b6001600160a01b0380821660009081526001602052604081205490911662000c385760405162461bcd60e51b815260206004820152601a60248201527f50726f7669646572206973206e6f742072656769737465726564000000000000604482015260640162000242565b506001600160a01b039081166000908152600160205260409020541690565b336000818152600160205260408082205490516333c1885f60e21b8152600481018390526001600160a01b039091169190829063cf06217c9060240160206040518083038186803b15801562000cac57600080fd5b505afa15801562000cc1573d6000803e3d6000fd5b505050506040513d601f19601f8201168201806040525081019062000ce79190620013cd565b9050600062000cf68462000acc565b90506000851162000d4a5760405162461bcd60e51b815260206004820152600e60248201527f496e76616c696420616d6f756e74000000000000000000000000000000000000604482015260640162000242565b8085111562000dc25760405162461bcd60e51b815260206004820152602260248201527f4465706f736974206c657373207468616e2072657175657374656420616d6f7560448201527f6e74000000000000000000000000000000000000000000000000000000000000606482015260840162000242565b600062000dd08683620015ac565b9050836001600160a01b03166380eecb096040518163ffffffff1660e01b815260040160206040518083038186803b15801562000e0c57600080fd5b505afa15801562000e21573d6000803e3d6000fd5b505050506040513d601f19601f8201168201806040525081019062000e479190620011e7565b158062000e545750808311155b62000ec85760405162461bcd60e51b815260206004820152603160248201527f436f756e74206f6620656e61626c6564206f666665727320726571756972656460448201527f2061206c6172676572206465706f736974000000000000000000000000000000606482015260840162000242565b60005462000edf906001600160a01b031662000f30565b6040517f7eee288d0000000000000000000000000000000000000000000000000000000081526001600160a01b038781166004830152602482018990529190911690637eee288d9060440162000825565b600062000f3d8262001095565b6001600160a01b031663bcaa0c5560026040518263ffffffff1660e01b815260040162000f6b919062001553565b60206040518083038186803b15801562000f8457600080fd5b505afa15801562000f99573d6000803e3d6000fd5b505050506040513d601f19601f8201168201806040525081019062000fbf91906200119a565b92915050565b600062000fd28362001095565b6001600160a01b03166303a2216d836040518263ffffffff1660e01b815260040162000fff919062001563565b60206040518083038186803b1580156200101857600080fd5b505afa1580156200102d573d6000803e3d6000fd5b505050506040513d601f19601f82011682018060405250810190620010539190620013cd565b9392505050565b6000620010678262001095565b6001600160a01b031663bcaa0c5560086040518263ffffffff1660e01b815260040162000f6b919062001553565b6000816001600160a01b031663f1f0bd016040518163ffffffff1660e01b815260040160206040518083038186803b15801562000f8457600080fd5b611f8f806200161683390190565b80356200052681620015fc565b600082601f830112620010fd578081fd5b813567ffffffffffffffff808211156200111b576200111b620015e6565b604051601f8301601f19908116603f01168101908282118183101715620011465762001146620015e6565b816040528381528660208588010111156200115f578485fd5b8360208701602083013792830160200193909352509392505050565b6000602082840312156200118d578081fd5b81356200105381620015fc565b600060208284031215620011ac578081fd5b81516200105381620015fc565b60008060408385031215620011cc578081fd5b8235620011d981620015fc565b946020939093013593505050565b600060208284031215620011f9578081fd5b8151801515811462001053578182fd5b6000606082840312156200121b578081fd5b6040516060810181811067ffffffffffffffff82111715620012415762001241620015e6565b80604052508251815260208301516020820152604083015160408201528091505092915050565b6000602082840312156200127a578081fd5b813567ffffffffffffffff8082111562001292578283fd5b9083019060a08286031215620012a6578283fd5b620012b062001580565b620012bb83620010df565b8152620012cb60208401620010df565b6020820152604083013582811115620012e2578485fd5b620012f087828601620010ec565b60408301525060608301358281111562001308578485fd5b6200131687828601620010ec565b6060830152506080830135828111156200132e578485fd5b6200133c87828601620010ec565b60808301525095945050505050565b6000608082840312156200135d578081fd5b6040516080810181811067ffffffffffffffff82111715620013835762001383620015e6565b8060405250825181526020830151602082015260408301516040820152606083015160608201528091505092915050565b600060208284031215620013c6578081fd5b5035919050565b600060208284031215620013df578081fd5b5051919050565b600c8110620013f957620013f9620015d0565b9052565b60008151808452815b81811015620014245760208185018101518683018201520162001406565b81811115620014365782602083870101525b50601f01601f19169290920160200192915050565b60006001600160a01b03808616835280851660208401526060604084015280845116606084015280602085015116608084015250604083015160a0808401526200149a610100840182620013fd565b90506060840151605f19808584030160c0860152620014ba8383620013fd565b925060808601519150808584030160e086015250620014da8282620013fd565b979650505050505050565b6001600160a01b038316815260408101620010536020830184620013e6565b6020808252825182820181905260009190848201906040850190845b81811015620015475783516001600160a01b03168352928401929184019160010162001520565b50909695505050505050565b6020810162000fbf8284620013e6565b60208101601183106200157a576200157a620015d0565b91905290565b60405160a0810167ffffffffffffffff81118282101715620015a657620015a6620015e6565b60405290565b600082821015620015cb57634e487b7160e01b81526011600452602481fd5b500390565b634e487b7160e01b600052602160045260246000fd5b634e487b7160e01b600052604160045260246000fd5b6001600160a01b03811681146200161257600080fd5b5056fe60806040523480156200001157600080fd5b5060405162001f8f38038062001f8f833981016040819052620000349162000240565b600080546001600160a01b03199081166001600160a01b03868116919091179092556001805482168584161790558251600c80548316918416919091178155602080850151600d8054909416941693909317909155604083015180518493620000a392600e92910190620000ec565b5060608201518051620000c1916003840191602090910190620000ec565b5060808201518051620000df916004840191602090910190620000ec565b50905050505050620003fb565b828054620000fa90620003a8565b90600052602060002090601f0160209004810192826200011e576000855562000169565b82601f106200013957805160ff191683800117855562000169565b8280016001018555821562000169579182015b82811115620001695782518255916020019190600101906200014c565b50620001779291506200017b565b5090565b5b808211156200017757600081556001016200017c565b80516001600160a01b0381168114620001aa57600080fd5b919050565b600082601f830112620001c0578081fd5b81516001600160401b03811115620001dc57620001dc620003e5565b6020620001f2601f8301601f1916820162000375565b828152858284870101111562000206578384fd5b835b838110156200022557858101830151828201840152820162000208565b838111156200023657848385840101525b5095945050505050565b60008060006060848603121562000255578283fd5b620002608462000192565b9250620002706020850162000192565b60408501519092506001600160401b03808211156200028d578283fd5b9085019060a08288031215620002a1578283fd5b620002ab6200034a565b620002b68362000192565b8152620002c66020840162000192565b6020820152604083015182811115620002dd578485fd5b620002eb89828601620001af565b60408301525060608301518281111562000303578485fd5b6200031189828601620001af565b60608301525060808301518281111562000329578485fd5b6200033789828601620001af565b6080830152508093505050509250925092565b60405160a081016001600160401b03811182821017156200036f576200036f620003e5565b60405290565b604051601f8201601f191681016001600160401b0381118282101715620003a057620003a0620003e5565b604052919050565b600181811c90821680620003bd57607f821691505b60208210811415620003df57634e487b7160e01b600052602260045260246000fd5b50919050565b634e487b7160e01b600052604160045260246000fd5b611b84806200040b6000396000f3fe608060405234801561001057600080fd5b506004361061011b5760003560e01c80636760c4b7116100b25780639789e32311610081578063bab13ee111610066578063bab13ee11461023d578063cf06217c14610245578063fc282c1f1461025857600080fd5b80639789e32314610217578063a553269b1461022a57600080fd5b80636760c4b7146101c8578063685dd944146101d95780636d69a3e8146101ee57806380eecb09146101ff57600080fd5b80631b71d85f116100ee5780631b71d85f1461018e5780634547ada9146101985780635a9b0b89146101a05780635e7ddcb8146101b557600080fd5b806308571011146101205780630c72dc311461014a5780630cca32f71461015c57806316f8640014610164575b600080fd5b6001546001600160a01b03165b6040516001600160a01b0390911681526020015b60405180910390f35b6002545b604051908152602001610141565b61014e610260565b61016c6102d0565b6040805182518152602080840151908201529181015190820152606001610141565b610196610319565b005b61014e61032f565b6101a8610398565b6040516101419190611997565b6101966101c33660046117d0565b6105a6565b600d546001600160a01b031661012d565b6101e1610690565b604051610141919061191c565b600c546001600160a01b031661012d565b6102076106f5565b6040519015158152602001610141565b610196610225366004611786565b610723565b610196610238366004611732565b610abb565b610196610c19565b61014e6102533660046118a1565b610cc9565b6101e1610d8e565b60006102cb60036005016001018054806020026020016040519081016040528092919081815260200182805480156102c157602002820191906000526020600020905b81546001600160a01b031681526001909101906020018083116102a3575b5050505050610df0565b905090565b6102f460405180606001604052806000815260200160008152602001600081525090565b5060408051606081018252600354815260045460208201526005549181019190915290565b6103236008610edc565b61032d600a610edc565b565b60006102cb60036007016001018054806020026020016040519081016040528092919081815260200182805480156102c1576020028201919060005260206000209081546001600160a01b031681526001909101906020018083116102a3575050505050610df0565b6040805160a08101825260008082526020820152606091810182905281810182905260808101919091526040805160a081018252600c80546001600160a01b039081168352600d54166020830152600e805492939192918401916103fb90611a90565b80601f016020809104026020016040519081016040528092919081815260200182805461042790611a90565b80156104745780601f1061044957610100808354040283529160200191610474565b820191906000526020600020905b81548152906001019060200180831161045757829003601f168201915b5050505050815260200160038201805461048d90611a90565b80601f01602080910402602001604051908101604052809291908181526020018280546104b990611a90565b80156105065780601f106104db57610100808354040283529160200191610506565b820191906000526020600020905b8154815290600101906020018083116104e957829003601f168201915b5050505050815260200160048201805461051f90611a90565b80601f016020809104026020016040519081016040528092919081815260200182805461054b90611a90565b80156105985780601f1061056d57610100808354040283529160200191610598565b820191906000526020600020905b81548152906001019060200180831161057b57829003601f168201915b505050505081525050905090565b6001546001600160a01b031633146106055760405162461bcd60e51b815260206004820152601a60248201527f4f6e6c79206f776e65722063616e206d6f6469667920696e666f00000000000060448201526064015b60405180910390fd5b8051600c80546001600160a01b03199081166001600160a01b03938416178255602080850151600d8054909316941693909317905560408301518051849361065292600e92910190611602565b506060820151805161066e916003840191602090910190611602565b506080820151805161068a916004840191602090910190611602565b50505050565b606060036004018054806020026020016040519081016040528092919081815260200182805480156106eb57602002820191906000526020600020905b81546001600160a01b031681526001909101906020018083116106cd575b5050505050905090565b600454600354600091829161070a9190611a42565b9050600081118061071d57506005544211155b91505090565b60003390506000816001600160a01b031663af5372e66040518163ffffffff1660e01b815260040160206040518083038186803b15801561076357600080fd5b505afa158015610777573d6000803e3d6000fd5b505050506040513d601f19601f8201168201806040525081019061079b91906117b1565b90506000808260038111156107c057634e487b7160e01b600052602160045260246000fd5b1490506000816107e6576000546107e1906001600160a01b03166006610ff1565b6107fd565b6000546107fd906001600160a01b03166005610ff1565b90506000826108205760005461081b906001600160a01b031661107e565b610835565b600054610835906001600160a01b031661110b565b6040517f165dee3f0000000000000000000000000000000000000000000000000000000081526001600160a01b03878116600483015291925060009183169063165dee3f9060240160206040518083038186803b15801561089557600080fd5b505afa1580156108a9573d6000803e3d6000fd5b505050506040513d601f19601f820116820180604052508101906108cd919061174e565b6001549091506001600160a01b0380831691161461092d5760405162461bcd60e51b815260206004820152601060248201527f556e6b6e6f776e2070726f76696465720000000000000000000000000000000060448201526064016105fc565b8715610a7d57600061093e84610cc9565b6000805491925090610958906001600160a01b0316611142565b6040517fb00e3c240000000000000000000000000000000000000000000000000000000081526001600160a01b038581166004830152919091169063b00e3c249060240160206040518083038186803b1580156109b457600080fd5b505afa1580156109c8573d6000803e3d6000fd5b505050506040513d601f19601f820116820180604052508101906109ec91906118b9565b905081811015610a645760405162461bcd60e51b815260206004820152602760248201527f43616e277420656e61626c652064756520736d616c6c2073656375726974792060448201527f6465706f7369740000000000000000000000000000000000000000000000000060648201526084016105fc565b610a716003876001611179565b50505050505050505050565b610a8a6003856000611179565b610a96600385886111f4565b600354158015610aa65750600454155b15610ab15760058790555b5050505050505050565b600054610ad0906001600160a01b031661110b565b6001600160a01b0316336001600160a01b03161480610b145750600054610aff906001600160a01b031661107e565b6001600160a01b0316336001600160a01b0316145b610b605760405162461bcd60e51b815260206004820181905260248201527f417661696c61626c65206f6e6c7920666f72204f6666657273466163746f727960448201526064016105fc565b6000816001600160a01b031663af5372e66040518163ffffffff1660e01b815260040160206040518083038186803b158015610b9b57600080fd5b505afa158015610baf573d6000803e3d6000fd5b505050506040513d601f19601f82011682018060405250810190610bd391906117b1565b9050600080826003811115610bf857634e487b7160e01b600052602160045260246000fd5b149050610c086003826001611179565b610c1460038285611214565b505050565b600054610c2e906001600160a01b031661110b565b6001600160a01b0316336001600160a01b031614610cb45760405162461bcd60e51b815260206004820152602360248201527f417661696c61626c65206f6e6c7920666f72205465654f66666572734661637460448201527f6f7279000000000000000000000000000000000000000000000000000000000060648201526084016105fc565b600260008154610cc390611acb565b90915550565b600080548190610ce3906001600160a01b03166002610ff1565b90506000610cef61032f565b600454610cfc9190611a42565b600054610d13906001600160a01b03166006610ff1565b610d1d9190611a5a565b90506000610d29610260565b600354610d369190611a42565b600054610d4d906001600160a01b03166005610ff1565b610d579190611a5a565b9050600085610d668484611a42565b610d709190611a42565b90506000818511610d815781610d83565b845b979650505050505050565b6060600380018054806020026020016040519081016040528092919081815260200182805480156106eb576020028201919060005260206000209081546001600160a01b031681526001909101906020018083116106cd575050505050905090565b600080805b8351811015610ed5576000848281518110610e2057634e487b7160e01b600052603260045260246000fd5b602002602001015190506000816001600160a01b0316636d483c846040518163ffffffff1660e01b815260040160206040518083038186803b158015610e6557600080fd5b505afa158015610e79573d6000803e3d6000fd5b505050506040513d601f19601f82011682018060405250810190610e9d91906118b9565b90508015801590610ead57504281115b15610ec057610ebd600185611a42565b93505b50508080610ecd90611acb565b915050610df5565b5092915050565b60005a905060005b600183015481108015610f0457506233e1405a610f019084611a79565b11155b15610c14576000836001018281548110610f2e57634e487b7160e01b600052603260045260246000fd5b60009182526020918290200154604080517f6aa633b600000000000000000000000000000000000000000000000000000000815290516001600160a01b03909216935083928392636aa633b6926004808201939291829003018186803b158015610f9757600080fd5b505afa158015610fab573d6000803e3d6000fd5b505050506040513d601f19601f82011682018060405250810190610fcf919061176a565b610fdd57610fdd8583611288565b610fe8600184611a42565b92505050610ee4565b6000610ffc836114ac565b6001600160a01b03166303a2216d836040518263ffffffff1660e01b81526004016110279190611983565b60206040518083038186803b15801561103f57600080fd5b505afa158015611053573d6000803e3d6000fd5b505050506040513d601f19601f8201168201806040525081019061107791906118b9565b9392505050565b6000611089826114ac565b6001600160a01b031663bcaa0c5560066040518263ffffffff1660e01b81526004016110b59190611969565b60206040518083038186803b1580156110cd57600080fd5b505afa1580156110e1573d6000803e3d6000fd5b505050506040513d601f19601f82011682018060405250810190611105919061174e565b92915050565b6000611116826114ac565b6001600160a01b031663bcaa0c5560046040518263ffffffff1660e01b81526004016110b59190611969565b600061114d826114ac565b6001600160a01b031663bcaa0c5560016040518263ffffffff1660e01b81526004016110b59190611969565b81156111ba5780156111a5578254600190849060009061119a908490611a42565b90915550610c149050565b8254600190849060009061119a908490611a79565b80156111d5576001838101805460009061119a908490611a42565b600183810180546000906111ea908490611a79565b9091555050505050565b811561120757610c1460058401826114e7565b610c1460078401826114e7565b811561125157600483018054600181018255600091825260209091200180546001600160a01b0383166001600160a01b0319909116179055505050565b600383018054600181018255600091825260209091200180546001600160a01b0383166001600160a01b0319909116179055505050565b6001600160a01b0381166112de5760405162461bcd60e51b815260206004820181905260248201527f417474656d707420746f2072656d6f76652061207a65726f206164647265737360448201526064016105fc565b60018201546112eb575050565b6001600160a01b0381166000818152602084905260409020546001840180549192918390811061132b57634e487b7160e01b600052603260045260246000fd5b6000918252602090912001546001600160a01b0316146113b25760405162461bcd60e51b8152602060048201526024808201527f3530302e20556e6578706563746564204164647265737348617368536574207360448201527f746174650000000000000000000000000000000000000000000000000000000060648201526084016105fc565b600180840180546000926113c591611a79565b815481106113e357634e487b7160e01b600052603260045260246000fd5b6000918252602090912001546001850180546001600160a01b03909216925082918490811061142257634e487b7160e01b600052603260045260246000fd5b600091825260208083209190910180546001600160a01b0319166001600160a01b03948516179055838316825286905260408082208590559185168152908120556001840180548061148457634e487b7160e01b600052603160045260246000fd5b600082815260209020810160001990810180546001600160a01b031916905501905550505050565b6000816001600160a01b031663f1f0bd016040518163ffffffff1660e01b815260040160206040518083038186803b1580156110cd57600080fd5b6001600160a01b03811661153d5760405162461bcd60e51b815260206004820152601d60248201527f417474656d707420746f206164642061207a65726f206164647265737300000060448201526064016105fc565b600182015460009015806115b357506001600160a01b0382166000908152602084905260409020541580156115b35750816001600160a01b03168360010160008154811061159b57634e487b7160e01b600052603260045260246000fd5b6000918252602090912001546001600160a01b031614155b9050806115bf57505050565b50600180830180546001600160a01b03909316600081815260209586526040812085905592840182559082529290200180546001600160a01b0319169091179055565b82805461160e90611a90565b90600052602060002090601f0160209004810192826116305760008555611676565b82601f1061164957805160ff1916838001178555611676565b82800160010185558215611676579182015b8281111561167657825182559160200191906001019061165b565b50611682929150611686565b5090565b5b808211156116825760008155600101611687565b80356116a681611b28565b919050565b600082601f8301126116bb578081fd5b813567ffffffffffffffff808211156116d6576116d6611b12565b604051601f8301601f19908116603f011681019082821181831017156116fe576116fe611b12565b81604052838152866020858801011115611716578485fd5b8360208701602083013792830160200193909352509392505050565b600060208284031215611743578081fd5b813561107781611b28565b60006020828403121561175f578081fd5b815161107781611b28565b60006020828403121561177b578081fd5b815161107781611b40565b60008060408385031215611798578081fd5b82356117a381611b40565b946020939093013593505050565b6000602082840312156117c2578081fd5b815160048110611077578182fd5b6000602082840312156117e1578081fd5b813567ffffffffffffffff808211156117f8578283fd5b9083019060a0828603121561180b578283fd5b611813611a19565b61181c8361169b565b815261182a6020840161169b565b6020820152604083013582811115611840578485fd5b61184c878286016116ab565b604083015250606083013582811115611863578485fd5b61186f878286016116ab565b606083015250608083013582811115611886578485fd5b611892878286016116ab565b60808301525095945050505050565b6000602082840312156118b2578081fd5b5035919050565b6000602082840312156118ca578081fd5b5051919050565b60008151808452815b818110156118f6576020818501810151868301820152016118da565b818111156119075782602083870101525b50601f01601f19169290920160200192915050565b6020808252825182820181905260009190848201906040850190845b8181101561195d5783516001600160a01b031683529284019291840191600101611938565b50909695505050505050565b60208101600c831061197d5761197d611afc565b91905290565b602081016011831061197d5761197d611afc565b6020815260006001600160a01b0380845116602084015280602085015116604084015250604083015160a060608401526119d460c08401826118d1565b90506060840151601f19808584030160808601526119f283836118d1565b925060808601519150808584030160a086015250611a1082826118d1565b95945050505050565b60405160a0810167ffffffffffffffff81118282101715611a3c57611a3c611b12565b60405290565b60008219821115611a5557611a55611ae6565b500190565b6000816000190483118215151615611a7457611a74611ae6565b500290565b600082821015611a8b57611a8b611ae6565b500390565b600181811c90821680611aa457607f821691505b60208210811415611ac557634e487b7160e01b600052602260045260246000fd5b50919050565b6000600019821415611adf57611adf611ae6565b5060010190565b634e487b7160e01b600052601160045260246000fd5b634e487b7160e01b600052602160045260246000fd5b634e487b7160e01b600052604160045260246000fd5b6001600160a01b0381168114611b3d57600080fd5b50565b8015158114611b3d57600080fdfea26469706673582212207eff038575677d93b72adf018216b70694ee6443dc209b0470e80434063d878364736f6c63430008040033a26469706673582212204851ef047f8ea9fed3400a796c0ec3199e3e7ca63a640c3a05ee3f23f0a3447f64736f6c63430008040033",
    "linkReferences": {},
    "deployedLinkReferences": {}
}