{
  "_format": "hh-sol-artifact-1",
  "contractName": "Providers",
  "sourceName": "contracts/Providers.sol",
  "abi": [
    {
      "anonymous": false,
      "inputs": [
        {
          "indexed": true,
          "internalType": "address",
          "name": "auth",
          "type": "address"
        }
      ],
      "name": "ProviderModified",
      "type": "event"
    },
    {
      "anonymous": false,
      "inputs": [
        {
          "indexed": true,
          "internalType": "address",
          "name": "auth",
          "type": "address"
        },
        {
          "indexed": true,
          "internalType": "uint256",
          "name": "charge",
          "type": "uint256"
        }
      ],
      "name": "ProviderPenalty",
      "type": "event"
    },
    {
      "anonymous": false,
      "inputs": [
        {
          "indexed": true,
          "internalType": "address",
          "name": "auth",
          "type": "address"
        }
      ],
      "name": "ProviderRegistered",
      "type": "event"
    },
    {
      "anonymous": false,
      "inputs": [
        {
          "indexed": true,
          "internalType": "address",
          "name": "auth",
          "type": "address"
        },
        {
          "indexed": false,
          "internalType": "uint256",
          "name": "amount",
          "type": "uint256"
        }
      ],
      "name": "ProviderSecurityDepoRefilled",
      "type": "event"
    },
    {
      "anonymous": false,
      "inputs": [
        {
          "indexed": true,
          "internalType": "address",
          "name": "auth",
          "type": "address"
        },
        {
          "indexed": false,
          "internalType": "uint256",
          "name": "amount",
          "type": "uint256"
        }
      ],
      "name": "ProviderSecurityDepoUnlocked",
      "type": "event"
    },
    {
      "anonymous": false,
      "inputs": [
        {
          "indexed": true,
          "internalType": "address",
          "name": "auth",
          "type": "address"
        },
        {
          "indexed": false,
          "internalType": "uint256",
          "name": "newViolationRate",
          "type": "uint256"
        }
      ],
      "name": "ProviderViolationRateIncremented",
      "type": "event"
    },
    {
      "inputs": [
        {
          "internalType": "uint256",
          "name": "teeOfferId",
          "type": "uint256"
        },
        {
          "internalType": "uint256",
          "name": "amount",
          "type": "uint256"
        }
      ],
      "name": "chargePenalty",
      "outputs": [],
      "stateMutability": "nonpayable",
      "type": "function"
    },
    {
      "inputs": [
        {
          "internalType": "address",
          "name": "providerAuth",
          "type": "address"
        }
      ],
      "name": "getProviderActionAccount",
      "outputs": [
        {
          "internalType": "address",
          "name": "",
          "type": "address"
        }
      ],
      "stateMutability": "view",
      "type": "function"
    },
    {
      "inputs": [
        {
          "internalType": "address",
          "name": "providerAuth",
          "type": "address"
        }
      ],
      "name": "getProviderInfo",
      "outputs": [
        {
          "components": [
            {
              "internalType": "address",
              "name": "tokenReceiver",
              "type": "address"
            },
            {
              "internalType": "address",
              "name": "actionAccount",
              "type": "address"
            },
            {
              "internalType": "string",
              "name": "name",
              "type": "string"
            },
            {
              "internalType": "string",
              "name": "description",
              "type": "string"
            },
            {
              "internalType": "string",
              "name": "metadata",
              "type": "string"
            },
            {
              "internalType": "string",
              "name": "externalId",
              "type": "string"
            }
          ],
          "internalType": "struct ProviderInfo",
          "name": "",
          "type": "tuple"
        }
      ],
      "stateMutability": "view",
      "type": "function"
    },
    {
      "inputs": [
        {
          "internalType": "address",
          "name": "providerAuth",
          "type": "address"
        }
      ],
      "name": "getProviderOrigins",
      "outputs": [
        {
          "components": [
            {
              "internalType": "uint256",
              "name": "createdDate",
              "type": "uint256"
            },
            {
              "internalType": "address",
              "name": "createdBy",
              "type": "address"
            },
            {
              "internalType": "uint256",
              "name": "modifiedDate",
              "type": "uint256"
            },
            {
              "internalType": "address",
              "name": "modifiedBy",
              "type": "address"
            }
          ],
          "internalType": "struct Origins",
          "name": "",
          "type": "tuple"
        }
      ],
      "stateMutability": "view",
      "type": "function"
    },
    {
      "inputs": [
        {
          "internalType": "address",
          "name": "providerAuth",
          "type": "address"
        }
      ],
      "name": "getProviderSecurityDeposit",
      "outputs": [
        {
          "internalType": "uint256",
          "name": "",
          "type": "uint256"
        }
      ],
      "stateMutability": "view",
      "type": "function"
    },
    {
      "inputs": [
        {
          "internalType": "address",
          "name": "providerAuth",
          "type": "address"
        }
      ],
      "name": "getProviderTokenReceiver",
      "outputs": [
        {
          "internalType": "address",
          "name": "",
          "type": "address"
        }
      ],
      "stateMutability": "view",
      "type": "function"
    },
    {
      "inputs": [
        {
          "internalType": "address",
          "name": "providerAuth",
          "type": "address"
        }
      ],
      "name": "getProviderViolationRate",
      "outputs": [
        {
          "internalType": "uint256",
          "name": "",
          "type": "uint256"
        }
      ],
      "stateMutability": "view",
      "type": "function"
    },
    {
      "inputs": [],
      "name": "getProvidersAuths",
      "outputs": [
        {
          "internalType": "address[]",
          "name": "",
          "type": "address[]"
        }
      ],
      "stateMutability": "view",
      "type": "function"
    },
    {
      "inputs": [],
      "name": "getProvidersCount",
      "outputs": [
        {
          "internalType": "uint256",
          "name": "",
          "type": "uint256"
        }
      ],
      "stateMutability": "view",
      "type": "function"
    },
    {
      "inputs": [
        {
          "internalType": "address",
          "name": "providerAuth",
          "type": "address"
        }
      ],
      "name": "incrProviderViolationRate",
      "outputs": [],
      "stateMutability": "nonpayable",
      "type": "function"
    },
    {
      "inputs": [
        {
          "internalType": "address",
          "name": "providerAuth",
          "type": "address"
        }
      ],
      "name": "isProviderRegistered",
      "outputs": [
        {
          "internalType": "bool",
          "name": "",
          "type": "bool"
        }
      ],
      "stateMutability": "view",
      "type": "function"
    },
    {
      "inputs": [
        {
          "components": [
            {
              "internalType": "address",
              "name": "tokenReceiver",
              "type": "address"
            },
            {
              "internalType": "address",
              "name": "actionAccount",
              "type": "address"
            },
            {
              "internalType": "string",
              "name": "name",
              "type": "string"
            },
            {
              "internalType": "string",
              "name": "description",
              "type": "string"
            },
            {
              "internalType": "string",
              "name": "metadata",
              "type": "string"
            },
            {
              "internalType": "string",
              "name": "externalId",
              "type": "string"
            }
          ],
          "internalType": "struct ProviderInfo",
          "name": "info",
          "type": "tuple"
        }
      ],
      "name": "modifyProvider",
      "outputs": [],
      "stateMutability": "nonpayable",
      "type": "function"
    },
    {
      "inputs": [
        {
          "internalType": "uint256",
          "name": "amount",
          "type": "uint256"
        }
      ],
      "name": "refillProviderSecurityDepo",
      "outputs": [],
      "stateMutability": "nonpayable",
      "type": "function"
    },
    {
      "inputs": [
        {
          "components": [
            {
              "internalType": "address",
              "name": "tokenReceiver",
              "type": "address"
            },
            {
              "internalType": "address",
              "name": "actionAccount",
              "type": "address"
            },
            {
              "internalType": "string",
              "name": "name",
              "type": "string"
            },
            {
              "internalType": "string",
              "name": "description",
              "type": "string"
            },
            {
              "internalType": "string",
              "name": "metadata",
              "type": "string"
            },
            {
              "internalType": "string",
              "name": "externalId",
              "type": "string"
            }
          ],
          "internalType": "struct ProviderInfo",
          "name": "info",
          "type": "tuple"
        }
      ],
      "name": "registerProvider",
      "outputs": [],
      "stateMutability": "nonpayable",
      "type": "function"
    },
    {
      "inputs": [
        {
          "internalType": "uint256",
          "name": "amount",
          "type": "uint256"
        }
      ],
      "name": "returnProviderSecurityDepo",
      "outputs": [],
      "stateMutability": "nonpayable",
      "type": "function"
    }
  ],
  "bytecode": "0x608060405234801561001057600080fd5b50611d04806100206000396000f3fe608060405234801561001057600080fd5b50600436106100f55760003560e01c8063743c7f3c11610097578063a7b6a2d611610066578063a7b6a2d614610304578063bfafedef14610317578063d8a2d2c51461033e578063e50e576f1461035157600080fd5b8063743c7f3c146102675780637583902f1461027a5780637a0c9fd71461029a57806389ffbb66146102af57600080fd5b806324a45aa4116100d357806324a45aa4146101d35780632cf9452d1461022c578063349c9046146102415780634c2e0edc1461025457600080fd5b80630cc079f3146100fa5780630e3bbace146101625780631ead914e146101b0575b600080fd5b61014561010836600461179b565b6001600160a01b0390811660009081527f52588381cd4d8d3547de3f83e02afc2a959800daf5acde67c4c75b8795a617ca60205260409020541690565b6040516001600160a01b0390911681526020015b60405180910390f35b61014561017036600461179b565b6001600160a01b0390811660009081527f52588381cd4d8d3547de3f83e02afc2a959800daf5acde67c4c75b8795a617ca60205260409020600101541690565b6101c36101be36600461179b565b610364565b6040519015158152602001610159565b61021e6101e136600461179b565b6001600160a01b031660009081527f52588381cd4d8d3547de3f83e02afc2a959800daf5acde67c4c75b8795a617ca60205260409020600a015490565b604051908152602001610159565b61023f61023a3660046117b8565b610419565b005b61023f61024f3660046117d1565b610781565b61023f6102623660046118bf565b610938565b61023f6102753660046117b8565b610aca565b61028d61028836600461179b565b610cdd565b6040516101599190611a07565b6102a2610fdd565b6040516101599190611aa6565b6102c26102bd36600461179b565b611062565b6040516101599190815181526020808301516001600160a01b039081169183019190915260408084015190830152606092830151169181019190915260800190565b61023f6103123660046118bf565b611108565b7f52588381cd4d8d3547de3f83e02afc2a959800daf5acde67c4c75b8795a617cc5461021e565b61021e61034c36600461179b565b611500565b61023f61035f36600461179b565b6115f6565b7f52588381cd4d8d3547de3f83e02afc2a959800daf5acde67c4c75b8795a617cc546000907f52588381cd4d8d3547de3f83e02afc2a959800daf5acde67c4c75b8795a617ca906103b85750600092915050565b6001600160a01b03831660009081526001820160205260409020541515806104125750826001600160a01b0316816002016000815481106103fb576103fb611af3565b6000918252602090912001546001600160a01b0316145b9392505050565b336000306040517f2f06cde80000000000000000000000000000000000000000000000000000000081526001600160a01b038481166004830152600060248301529190911690632f06cde89060440160206040518083038186803b15801561048057600080fd5b505afa158015610494573d6000803e3d6000fd5b505050506040513d601f19601f820116820180604052508101906104b89190611b09565b905060006104c583611500565b90506000841161051c5760405162461bcd60e51b815260206004820152600e60248201527f496e76616c696420616d6f756e7400000000000000000000000000000000000060448201526064015b60405180910390fd5b808411156105925760405162461bcd60e51b815260206004820152602260248201527f4465706f736974206c657373207468616e2072657175657374656420616d6f7560448201527f6e740000000000000000000000000000000000000000000000000000000000006064820152608401610513565b6000306040517f024ed19e0000000000000000000000000000000000000000000000000000000081526001600160a01b038681166004830152919091169063024ed19e9060240160206040518083038186803b1580156105f157600080fd5b505afa158015610605573d6000803e3d6000fd5b505050506040513d601f19601f820116820180604052508101906106299190611b22565b905060006106378684611b5a565b90508115806106465750808411155b6106b85760405162461bcd60e51b815260206004820152603160248201527f436f756e74206f6620656e61626c6564206f666665727320726571756972656460448201527f2061206c6172676572206465706f7369740000000000000000000000000000006064820152608401610513565b306040517f9d564d9a0000000000000000000000000000000000000000000000000000000081526001600160a01b038781166004830152602482018990529190911690639d564d9a90604401600060405180830381600087803b15801561071e57600080fd5b505af1158015610732573d6000803e3d6000fd5b50505050846001600160a01b03167f491959aeb49cbc7254b9a38e2aa5c7c4eda0618abf03212c038f70b7ffc78ab18760405161077191815260200190565b60405180910390a2505050505050565b3330146107d05760405162461bcd60e51b815260206004820152601660248201527f45787465726e616c206163636573732064656e696564000000000000000000006044820152606401610513565b6040517f4e6e04f7000000000000000000000000000000000000000000000000000000008152600481018390526000903090634e6e04f79060240160206040518083038186803b15801561082357600080fd5b505afa158015610837573d6000803e3d6000fd5b505050506040513d601f19601f8201168201806040525081019061085b9190611b71565b9050600061086882611500565b90506000838210610879578361087b565b815b9050306040517fe5ee677f0000000000000000000000000000000000000000000000000000000081526001600160a01b03858116600483015260248201849052919091169063e5ee677f90604401600060405180830381600087803b1580156108e357600080fd5b505af11580156108f7573d6000803e3d6000fd5b50506040518392506001600160a01b03861691507f4c03946098f04bb1c120c20ccd7faae3259d996644dcf1e84eb55751b09d8db490600090a35050505050565b61094133610364565b61098d5760405162461bcd60e51b815260206004820152601a60248201527f50726f7669646572206973206e6f7420726567697374657265640000000000006044820152606401610513565b3360008181527f52588381cd4d8d3547de3f83e02afc2a959800daf5acde67c4c75b8795a617ca6020526040902042600882015560098101805473ffffffffffffffffffffffffffffffffffffffff19169092179091558151815473ffffffffffffffffffffffffffffffffffffffff199081166001600160a01b0392831617835560208085015160018501805490931693169290921790556040830151805184928492610a4492600285019291909101906116da565b5060608201518051610a609160038401916020909101906116da565b5060808201518051610a7c9160048401916020909101906116da565b5060a08201518051610a989160058401916020909101906116da565b50506040513391507f68383e0998ad9071523447c34fc42e5f2ceb5edc3d9c8c61c80de104b371cc5c90600090a25050565b610ad333610364565b610b1f5760405162461bcd60e51b815260206004820152601a60248201527f50726f7669646572206973206e6f7420726567697374657265640000000000006044820152606401610513565b3360003060405163c345315360e01b81526001600160a01b038481166004830152919091169063c34531539060240160806040518083038186803b158015610b6657600080fd5b505afa158015610b7a573d6000803e3d6000fd5b505050506040513d601f19601f82011682018060405250810190610b9e9190611b8e565b90508281606001518260200151610bb59190611b5a565b1015610c295760405162461bcd60e51b815260206004820152602260248201527f4e6f7420656e6f756768207374616b656420746f6b656e7320746f207265666960448201527f6c6c0000000000000000000000000000000000000000000000000000000000006064820152608401610513565b3060405163a25983e560e01b81526001600160a01b0384811660048301526024820186905260006044830152919091169063a25983e590606401600060405180830381600087803b158015610c7d57600080fd5b505af1158015610c91573d6000803e3d6000fd5b50505050816001600160a01b03167fa00a5a8400fb99170695f28ed505fc8b19ae0a08f8205a0d264dbb4f8850757184604051610cd091815260200190565b60405180910390a2505050565b610d286040518060c0016040528060006001600160a01b0316815260200160006001600160a01b03168152602001606081526020016060815260200160608152602001606081525090565b6001600160a01b03821660009081527f52588381cd4d8d3547de3f83e02afc2a959800daf5acde67c4c75b8795a617ca602052604081206040805160c08101825282546001600160a01b03908116825260018401541660208201526002830180549394509092849284019190610d9d90611bf4565b80601f0160208091040260200160405190810160405280929190818152602001828054610dc990611bf4565b8015610e165780601f10610deb57610100808354040283529160200191610e16565b820191906000526020600020905b815481529060010190602001808311610df957829003601f168201915b50505050508152602001600382018054610e2f90611bf4565b80601f0160208091040260200160405190810160405280929190818152602001828054610e5b90611bf4565b8015610ea85780601f10610e7d57610100808354040283529160200191610ea8565b820191906000526020600020905b815481529060010190602001808311610e8b57829003601f168201915b50505050508152602001600482018054610ec190611bf4565b80601f0160208091040260200160405190810160405280929190818152602001828054610eed90611bf4565b8015610f3a5780601f10610f0f57610100808354040283529160200191610f3a565b820191906000526020600020905b815481529060010190602001808311610f1d57829003601f168201915b50505050508152602001600582018054610f5390611bf4565b80601f0160208091040260200160405190810160405280929190818152602001828054610f7f90611bf4565b8015610fcc5780601f10610fa157610100808354040283529160200191610fcc565b820191906000526020600020905b815481529060010190602001808311610faf57829003601f168201915b505050505081525050915050919050565b606060007f52588381cd4d8d3547de3f83e02afc2a959800daf5acde67c4c75b8795a617ca6002810180546040805160208084028201810190925282815293945083018282801561105757602002820191906000526020600020905b81546001600160a01b03168152600190910190602001808311611039575b505050505091505090565b6040805160808101825260008082526020820181905291810182905260608101829052906110c3836001600160a01b031660009081527f52588381cd4d8d3547de3f83e02afc2a959800daf5acde67c4c75b8795a617ca6020526040902090565b604080516080810182526006830154815260078301546001600160a01b0390811660208301526008840154928201929092526009909201541660608201529392505050565b61111133610364565b1561115e5760405162461bcd60e51b815260206004820152601b60248201527f50726f766964657220616c7265616479207265676973746572656400000000006044820152606401610513565b3360003060405163c345315360e01b81526001600160a01b038481166004830152919091169063c34531539060240160806040518083038186803b1580156111a557600080fd5b505afa1580156111b9573d6000803e3d6000fd5b505050506040513d601f19601f820116820180604052508101906111dd9190611b8e565b90506000816060015182602001516111f59190611b5a565b6040517f897ce7cf000000000000000000000000000000000000000000000000000000008152909150600090309063897ce7cf9061123890600290600401611c2f565b60206040518083038186803b15801561125057600080fd5b505afa158015611264573d6000803e3d6000fd5b505050506040513d601f19601f820116820180604052508101906112889190611b09565b9050808210156113005760405162461bcd60e51b815260206004820152602960248201527f4e6f7420656e6f756768207374616b656420746f6b656e7320666f722072656760448201527f697374726174696f6e00000000000000000000000000000000000000000000006064820152608401610513565b3060405163a25983e560e01b81526001600160a01b0386811660048301526024820184905260006044830152919091169063a25983e590606401600060405180830381600087803b15801561135457600080fd5b505af1158015611368573d6000803e3d6000fd5b5050505060006113957f52588381cd4d8d3547de3f83e02afc2a959800daf5acde67c4c75b8795a617ca90565b600281810180546001600160a01b0389811660008181526001808801602090815260408084208790558287018855968352808320909501805473ffffffffffffffffffffffffffffffffffffffff199081168517909155928252878552908590208d51815484169085161781558d850151918101805490931691909316179055918a0151805194955091938a93859361143493918501929101906116da565b50606082015180516114509160038401916020909101906116da565b506080820151805161146c9160048401916020909101906116da565b5060a082015180516114889160058401916020909101906116da565b505042600683018190556007830180543373ffffffffffffffffffffffffffffffffffffffff19918216811790925560088501929092556009840180549092161790555060405133907f70abce74777b3838ae60a33a6b9a87d9d25532668fe4fea548554c55868579c090600090a250505050505050565b600061150b82610364565b6115575760405162461bcd60e51b815260206004820152600e60248201527f4e6f7420612070726f76696465720000000000000000000000000000000000006044820152606401610513565b306040517f80acddbd0000000000000000000000000000000000000000000000000000000081526001600160a01b03848116600483015291909116906380acddbd9060240160606040518083038186803b1580156115b457600080fd5b505afa1580156115c8573d6000803e3d6000fd5b505050506040513d601f19601f820116820180604052508101906115ec9190611c57565b6040015192915050565b3330146116455760405162461bcd60e51b815260206004820152601660248201527f45787465726e616c206163636573732064656e696564000000000000000000006044820152606401610513565b6001600160a01b03811660009081527f52588381cd4d8d3547de3f83e02afc2a959800daf5acde67c4c75b8795a617ca60205260408120905080600a016000815461168f90611cb3565b90915550600a8101546040519081526001600160a01b038316907febb939c0d7d2fffc5d2993e54117e806d70e1b12ee7e77336a891de176fa48bc9060200160405180910390a25050565b8280546116e690611bf4565b90600052602060002090601f016020900481019282611708576000855561174e565b82601f1061172157805160ff191683800117855561174e565b8280016001018555821561174e579182015b8281111561174e578251825591602001919060010190611733565b5061175a92915061175e565b5090565b5b8082111561175a576000815560010161175f565b6001600160a01b038116811461178857600080fd5b50565b803561179681611773565b919050565b6000602082840312156117ad57600080fd5b813561041281611773565b6000602082840312156117ca57600080fd5b5035919050565b600080604083850312156117e457600080fd5b50508035926020909101359150565b634e487b7160e01b600052604160045260246000fd5b60405160c0810167ffffffffffffffff8111828210171561182c5761182c6117f3565b60405290565b600082601f83011261184357600080fd5b813567ffffffffffffffff8082111561185e5761185e6117f3565b604051601f8301601f19908116603f01168101908282118183101715611886576118866117f3565b8160405283815286602085880101111561189f57600080fd5b836020870160208301376000602085830101528094505050505092915050565b6000602082840312156118d157600080fd5b813567ffffffffffffffff808211156118e957600080fd5b9083019060c082860312156118fd57600080fd5b611905611809565b61190e8361178b565b815261191c6020840161178b565b602082015260408301358281111561193357600080fd5b61193f87828601611832565b60408301525060608301358281111561195757600080fd5b61196387828601611832565b60608301525060808301358281111561197b57600080fd5b61198787828601611832565b60808301525060a08301358281111561199f57600080fd5b6119ab87828601611832565b60a08301525095945050505050565b6000815180845260005b818110156119e0576020818501810151868301820152016119c4565b818111156119f2576000602083870101525b50601f01601f19169290920160200192915050565b6020815260006001600160a01b0380845116602084015280602085015116604084015250604083015160c06060840152611a4460e08401826119ba565b90506060840151601f1980858403016080860152611a6283836119ba565b925060808601519150808584030160a0860152611a7f83836119ba565b925060a08601519150808584030160c086015250611a9d82826119ba565b95945050505050565b6020808252825182820181905260009190848201906040850190845b81811015611ae75783516001600160a01b031683529284019291840191600101611ac2565b50909695505050505050565b634e487b7160e01b600052603260045260246000fd5b600060208284031215611b1b57600080fd5b5051919050565b600060208284031215611b3457600080fd5b8151801515811461041257600080fd5b634e487b7160e01b600052601160045260246000fd5b600082821015611b6c57611b6c611b44565b500390565b600060208284031215611b8357600080fd5b815161041281611773565b600060808284031215611ba057600080fd5b6040516080810181811067ffffffffffffffff82111715611bc357611bc36117f3565b8060405250825181526020830151602082015260408301516040820152606083015160608201528091505092915050565b600181811c90821680611c0857607f821691505b60208210811415611c2957634e487b7160e01b600052602260045260246000fd5b50919050565b6020810160118310611c5157634e487b7160e01b600052602160045260246000fd5b91905290565b600060608284031215611c6957600080fd5b6040516060810181811067ffffffffffffffff82111715611c8c57611c8c6117f3565b80604052508251815260208301516020820152604083015160408201528091505092915050565b6000600019821415611cc757611cc7611b44565b506001019056fea264697066735822122076bcb6b59d2071ce77f48446d928c4d188c538beaa3508c703e3ed768ceaf10164736f6c63430008090033",
  "linkReferences": {},
  "deployedLinkReferences": {}
}