{
  "_format": "hh-sol-artifact-1",
  "contractName": "Staking",
  "sourceName": "contracts/Staking.sol",
  "abi": [
    {
      "anonymous": false,
      "inputs": [
        {
          "indexed": true,
          "internalType": "address",
          "name": "owner",
          "type": "address"
        },
        {
          "indexed": false,
          "internalType": "uint256",
          "name": "amount",
          "type": "uint256"
        },
        {
          "indexed": false,
          "internalType": "uint256",
          "name": "totalLocked",
          "type": "uint256"
        }
      ],
      "name": "TokensLocked",
      "type": "event"
    },
    {
      "anonymous": false,
      "inputs": [
        {
          "indexed": true,
          "internalType": "address",
          "name": "owner",
          "type": "address"
        },
        {
          "indexed": false,
          "internalType": "uint256",
          "name": "amount",
          "type": "uint256"
        },
        {
          "indexed": false,
          "internalType": "uint256",
          "name": "totalAmount",
          "type": "uint256"
        }
      ],
      "name": "TokensStaked",
      "type": "event"
    },
    {
      "anonymous": false,
      "inputs": [
        {
          "indexed": true,
          "internalType": "address",
          "name": "owner",
          "type": "address"
        },
        {
          "indexed": false,
          "internalType": "uint256",
          "name": "amount",
          "type": "uint256"
        },
        {
          "indexed": false,
          "internalType": "uint256",
          "name": "totalLocked",
          "type": "uint256"
        }
      ],
      "name": "TokensUnlocked",
      "type": "event"
    },
    {
      "anonymous": false,
      "inputs": [
        {
          "indexed": true,
          "internalType": "address",
          "name": "owner",
          "type": "address"
        },
        {
          "indexed": false,
          "internalType": "uint256",
          "name": "amount",
          "type": "uint256"
        },
        {
          "indexed": false,
          "internalType": "uint256",
          "name": "totalAmount",
          "type": "uint256"
        }
      ],
      "name": "TokensUnstaked",
      "type": "event"
    },
    {
      "inputs": [
        {
          "internalType": "address",
          "name": "stakeOwner",
          "type": "address"
        },
        {
          "internalType": "uint256",
          "name": "amount",
          "type": "uint256"
        }
      ],
      "name": "confiscateTokensFrom",
      "outputs": [],
      "stateMutability": "nonpayable",
      "type": "function"
    },
    {
      "inputs": [
        {
          "internalType": "address",
          "name": "_stakeOwner",
          "type": "address"
        }
      ],
      "name": "getLockedTokensInfo",
      "outputs": [
        {
          "components": [
            {
              "internalType": "uint256",
              "name": "fromDate",
              "type": "uint256"
            },
            {
              "internalType": "uint256",
              "name": "toDate",
              "type": "uint256"
            },
            {
              "internalType": "uint256",
              "name": "amount",
              "type": "uint256"
            }
          ],
          "internalType": "struct LockedTokens",
          "name": "ret",
          "type": "tuple"
        }
      ],
      "stateMutability": "view",
      "type": "function"
    },
    {
      "inputs": [
        {
          "internalType": "address",
          "name": "stakeOwner",
          "type": "address"
        }
      ],
      "name": "getStakeInfo",
      "outputs": [
        {
          "components": [
            {
              "internalType": "uint256",
              "name": "startDate",
              "type": "uint256"
            },
            {
              "internalType": "uint256",
              "name": "amount",
              "type": "uint256"
            },
            {
              "internalType": "uint256",
              "name": "profit",
              "type": "uint256"
            },
            {
              "internalType": "uint256",
              "name": "totalLocked",
              "type": "uint256"
            }
          ],
          "internalType": "struct StakeInfo",
          "name": "ret",
          "type": "tuple"
        }
      ],
      "stateMutability": "view",
      "type": "function"
    },
    {
      "inputs": [
        {
          "internalType": "address",
          "name": "stakeOwner",
          "type": "address"
        },
        {
          "internalType": "uint256",
          "name": "amount",
          "type": "uint256"
        },
        {
          "internalType": "uint256",
          "name": "secondsCount",
          "type": "uint256"
        }
      ],
      "name": "lockTokens",
      "outputs": [],
      "stateMutability": "nonpayable",
      "type": "function"
    },
    {
      "inputs": [
        {
          "internalType": "uint256",
          "name": "amount",
          "type": "uint256"
        }
      ],
      "name": "stake",
      "outputs": [],
      "stateMutability": "nonpayable",
      "type": "function"
    },
    {
      "inputs": [
        {
          "internalType": "address",
          "name": "beneficiary",
          "type": "address"
        },
        {
          "internalType": "uint256",
          "name": "amount",
          "type": "uint256"
        }
      ],
      "name": "stakeFor",
      "outputs": [],
      "stateMutability": "nonpayable",
      "type": "function"
    },
    {
      "inputs": [
        {
          "internalType": "address",
          "name": "stakeOwner",
          "type": "address"
        },
        {
          "internalType": "uint256",
          "name": "amount",
          "type": "uint256"
        }
      ],
      "name": "unlockTokens",
      "outputs": [],
      "stateMutability": "nonpayable",
      "type": "function"
    },
    {
      "inputs": [
        {
          "internalType": "uint256",
          "name": "amount",
          "type": "uint256"
        }
      ],
      "name": "unstake",
      "outputs": [],
      "stateMutability": "nonpayable",
      "type": "function"
    }
  ],
  "bytecode": "0x608060405234801561001057600080fd5b50611221806100206000396000f3fe608060405234801561001057600080fd5b50600436106100885760003560e01c8063a25983e51161005b578063a25983e514610102578063a694fc3a14610115578063c345315314610128578063e5ee677f1461016e57600080fd5b80632e17de781461008d5780632ee40908146100a257806380acddbd146100b55780639d564d9a146100ef575b600080fd5b6100a061009b36600461102f565b610181565b005b6100a06100b0366004611060565b610378565b6100c86100c336600461108c565b610489565b60408051825181526020808401519082015291810151908201526060015b60405180910390f35b6100a06100fd366004611060565b61050e565b6100a06101103660046110b0565b6106f3565b6100a061012336600461102f565b610892565b61013b61013636600461108c565b610995565b6040516100e691908151815260208083015190820152604080830151908201526060918201519181019190915260800190565b6100a061017c366004611060565b610a50565b33600061018d82610dcd565b9050806002015481600101546101a391906110fb565b60038201546101b290856110fb565b11156102055760405162461bcd60e51b815260206004820152601260248201527f5374616b6520697320746f6f20736d616c6c000000000000000000000000000060448201526064015b60405180910390fd5b8281600201541061022f57828160020160008282546102249190611113565b9091555061026f9050565b806002015481600101600082825461024791906110fb565b9091555050600060028201819055600182018054859290610269908490611113565b90915550505b600181015461027d57600081555b610285610ec9565b6040517fa9059cbb0000000000000000000000000000000000000000000000000000000081526001600160a01b03848116600483015260248201869052919091169063a9059cbb90604401602060405180830381600087803b1580156102ea57600080fd5b505af11580156102fe573d6000803e3d6000fd5b505050506040513d601f19601f82011682018060405250810190610322919061112a565b50816001600160a01b03167f6f2d3e000c89d37446b7c0374c0125068ff316d1e3ee302336478a8cd03c233684836001015460405161036b929190918252602082015260400190565b60405180910390a2505050565b33600061038484610dcd565b90508281600101600082825461039a91906110fb565b909155506103a89050610ec9565b6040516323b872dd60e01b81526001600160a01b0384811660048301523060248301526044820186905291909116906323b872dd90606401602060405180830381600087803b1580156103fa57600080fd5b505af115801561040e573d6000803e3d6000fd5b505050506040513d601f19601f82011682018060405250810190610432919061112a565b50836001600160a01b03167fdd2a19c3bdd089cbe77c04f5655f83de0504d6140d12c8667646f55d0557c4dc84836001015460405161047b929190918252602082015260400190565b60405180910390a250505050565b6104ad60405180606001604052806000815260200160008152602001600081525090565b506001600160a01b031660009081527f32f2c33fc1245a73547aac59828c90d9a68522baf8965a3292f47e9f8ed78fb76020908152604091829020825160608101845281548152600182015492810192909252600201549181019190915290565b33301461055d5760405162461bcd60e51b815260206004820152601660248201527f45787465726e616c206163636573732064656e6965640000000000000000000060448201526064016101fc565b6001600160a01b03821660009081527f32f2c33fc1245a73547aac59828c90d9a68522baf8965a3292f47e9f8ed78fb6602081815260408084207f32f2c33fc1245a73547aac59828c90d9a68522baf8965a3292f47e9f8ed78fb790925290922060028101549192918411156106155760405162461bcd60e51b815260206004820152601860248201527f4e6f7420656e6f756768206c6f636b656420746f6b656e73000000000000000060448201526064016101fc565b42816001015411156106695760405162461bcd60e51b815260206004820152601460248201527f546f6f206561726c7920666f7220756e6c6f636b00000000000000000000000060448201526064016101fc565b8381600201600082825461067d9190611113565b92505081905550838260030160008282546106989190611113565b909155505060038201546040516001600160a01b038716917f89882ad382a3742d4db24e4dabc5000c5852aed762904db28442e4e1630a1d07916106e491888252602082015260400190565b60405180910390a25050505050565b3330146107425760405162461bcd60e51b815260206004820152601660248201527f45787465726e616c206163636573732064656e6965640000000000000000000060448201526064016101fc565b7f32f2c33fc1245a73547aac59828c90d9a68522baf8965a3292f47e9f8ed78fb642600061077084836110fb565b6001600160a01b03871660009081526020859052604090206001810154919250908611156107e05760405162461bcd60e51b815260206004820152601260248201527f5374616b6520697320746f6f20736d616c6c000000000000000000000000000060448201526064016101fc565b6001600160a01b0387166000908152600180860160205260408220858155908101849055600281018054919289926108199084906110fb565b925050819055508682600301600082825461083491906110fb565b909155505060038201546040516001600160a01b038a16917fd741e738a23fd18a03a26522320d9fc6cac1fed483e215ea9150fbc2fc43385d91610880918b8252602082015260400190565b60405180910390a25050505050505050565b33600061089e82610dcd565b9050828160010160008282546108b491906110fb565b909155506108c29050610ec9565b6040516323b872dd60e01b81526001600160a01b0384811660048301523060248301526044820186905291909116906323b872dd90606401602060405180830381600087803b15801561091457600080fd5b505af1158015610928573d6000803e3d6000fd5b505050506040513d601f19601f8201168201806040525081019061094c919061112a565b50816001600160a01b03167fdd2a19c3bdd089cbe77c04f5655f83de0504d6140d12c8667646f55d0557c4dc84836001015460405161036b929190918252602082015260400190565b6109c06040518060800160405280600081526020016000815260200160008152602001600081525090565b506001600160a01b03811660009081527f32f2c33fc1245a73547aac59828c90d9a68522baf8965a3292f47e9f8ed78fb66020818152604092839020835160808101855281548082526001830154938201849052600283015495820195909552600390910154606082015292610a3591610f41565b82604001818151610a4691906110fb565b9052509092915050565b333014610a9f5760405162461bcd60e51b815260206004820152601660248201527f45787465726e616c206163636573732064656e6965640000000000000000000060448201526064016101fc565b7f32f2c33fc1245a73547aac59828c90d9a68522baf8965a3292f47e9f8ed78fb66000610acb84610dcd565b6001600160a01b03851660009081526001840160205260409020600281015491925090841115610b3d5760405162461bcd60e51b815260206004820152601860248201527f4e6f7420656e6f756768206c6f636b656420746f6b656e73000000000000000060448201526064016101fc565b6000610b4d826000015486610f41565b90508260020154811115610ba35760405162461bcd60e51b815260206004820181905260248201527f3530302e20556e65787065637465642070726f66697420636f6e646974696f6e60448201526064016101fc565b84826002016000828254610bb79190611113565b9250508190555084836001016000828254610bd29190611113565b9250508190555084836003016000828254610bed9190611113565b9250508190555080836002016000828254610c089190611113565b9091555060009050306001600160a01b03166321df0da76040518163ffffffff1660e01b815260040160206040518083038186803b158015610c4957600080fd5b505afa158015610c5d573d6000803e3d6000fd5b505050506040513d601f19601f82011682018060405250810190610c81919061114c565b90506001600160a01b03811663095ea7b330610c9d89866110fb565b6040517fffffffff0000000000000000000000000000000000000000000000000000000060e085901b1681526001600160a01b0390921660048301526024820152604401602060405180830381600087803b158015610cfb57600080fd5b505af1158015610d0f573d6000803e3d6000fd5b505050506040513d601f19601f82011682018060405250810190610d33919061112a565b506001600160a01b0381166379cc679030610d4e89866110fb565b6040517fffffffff0000000000000000000000000000000000000000000000000000000060e085901b1681526001600160a01b0390921660048301526024820152604401600060405180830381600087803b158015610dac57600080fd5b505af1158015610dc0573d6000803e3d6000fd5b5050505050505050505050565b6001600160a01b03811660009081527f32f2c33fc1245a73547aac59828c90d9a68522baf8965a3292f47e9f8ed78fb660208190526040822080546001820154919391610e1a9190610f41565b905080836002016000828254610e3091906110fb565b90915550504283558015610ec257610e46610ec9565b6040517f40c10f19000000000000000000000000000000000000000000000000000000008152306004820152602481018390526001600160a01b0391909116906340c10f1990604401600060405180830381600087803b158015610ea957600080fd5b505af1158015610ebd573d6000803e3d6000fd5b505050505b5050919050565b6000306001600160a01b03166321df0da76040518163ffffffff1660e01b815260040160206040518083038186803b158015610f0457600080fd5b505afa158015610f18573d6000803e3d6000fd5b505050506040513d601f19601f82011682018060405250810190610f3c919061114c565b905090565b600082610f5057506000611029565b6000610f5c8442611113565b90506000610f6d6201518083611169565b6040517f897ce7cf000000000000000000000000000000000000000000000000000000008152909150600090309063897ce7cf90610fb09060039060040161118b565b60206040518083038186803b158015610fc857600080fd5b505afa158015610fdc573d6000803e3d6000fd5b505050506040513d601f19601f8201168201806040525081019061100091906111b3565b905060648161100f84886111cc565b61101991906111cc565b6110239190611169565b93505050505b92915050565b60006020828403121561104157600080fd5b5035919050565b6001600160a01b038116811461105d57600080fd5b50565b6000806040838503121561107357600080fd5b823561107e81611048565b946020939093013593505050565b60006020828403121561109e57600080fd5b81356110a981611048565b9392505050565b6000806000606084860312156110c557600080fd5b83356110d081611048565b95602085013595506040909401359392505050565b634e487b7160e01b600052601160045260246000fd5b6000821982111561110e5761110e6110e5565b500190565b600082821015611125576111256110e5565b500390565b60006020828403121561113c57600080fd5b815180151581146110a957600080fd5b60006020828403121561115e57600080fd5b81516110a981611048565b60008261118657634e487b7160e01b600052601260045260246000fd5b500490565b60208101601183106111ad57634e487b7160e01b600052602160045260246000fd5b91905290565b6000602082840312156111c557600080fd5b5051919050565b60008160001904831182151516156111e6576111e66110e5565b50029056fea2646970667358221220720a8a6fc95d65b9c8e9cea0de8e7b19d553ae8ccb7921bdbf7d47963c412a4b64736f6c63430008090033",
  "linkReferences": {},
  "deployedLinkReferences": {}
}