{
    "_format": "hh-sol-artifact-1",
    "contractName": "Staking",
    "sourceName": "contracts/Staking.sol",
    "abi": [
        {
            "inputs": [
                {
                    "internalType": "address",
                    "name": "addr",
                    "type": "address"
                }
            ],
            "stateMutability": "nonpayable",
            "type": "constructor"
        },
        {
            "inputs": [
                {
                    "internalType": "address",
                    "name": "stakeOwner",
                    "type": "address"
                },
                {
                    "internalType": "uint256",
                    "name": "amount",
                    "type": "uint256"
                }
            ],
            "name": "confiscateFrom",
            "outputs": [],
            "stateMutability": "nonpayable",
            "type": "function"
        },
        {
            "inputs": [
                {
                    "internalType": "address",
                    "name": "_stakeOwner",
                    "type": "address"
                },
                {
                    "internalType": "enum ContractName",
                    "name": "_name",
                    "type": "uint8"
                }
            ],
            "name": "getLockInfo",
            "outputs": [
                {
                    "components": [
                        {
                            "internalType": "uint256",
                            "name": "fromDate",
                            "type": "uint256"
                        },
                        {
                            "internalType": "uint256",
                            "name": "toDate",
                            "type": "uint256"
                        },
                        {
                            "internalType": "uint256",
                            "name": "amount",
                            "type": "uint256"
                        }
                    ],
                    "internalType": "struct LockedTokens",
                    "name": "ret",
                    "type": "tuple"
                }
            ],
            "stateMutability": "view",
            "type": "function"
        },
        {
            "inputs": [
                {
                    "internalType": "address",
                    "name": "stakeOwner",
                    "type": "address"
                }
            ],
            "name": "getStakeInfo",
            "outputs": [
                {
                    "components": [
                        {
                            "internalType": "uint256",
                            "name": "startDate",
                            "type": "uint256"
                        },
                        {
                            "internalType": "uint256",
                            "name": "amount",
                            "type": "uint256"
                        },
                        {
                            "internalType": "uint256",
                            "name": "profit",
                            "type": "uint256"
                        },
                        {
                            "internalType": "uint256",
                            "name": "totalLocked",
                            "type": "uint256"
                        }
                    ],
                    "internalType": "struct StakeInfo",
                    "name": "ret",
                    "type": "tuple"
                }
            ],
            "stateMutability": "view",
            "type": "function"
        },
        {
            "inputs": [
                {
                    "internalType": "address",
                    "name": "stakeOwner",
                    "type": "address"
                },
                {
                    "internalType": "uint256",
                    "name": "amount",
                    "type": "uint256"
                },
                {
                    "internalType": "uint256",
                    "name": "secondsCount",
                    "type": "uint256"
                }
            ],
            "name": "lock",
            "outputs": [],
            "stateMutability": "nonpayable",
            "type": "function"
        },
        {
            "inputs": [
                {
                    "internalType": "uint256",
                    "name": "amount",
                    "type": "uint256"
                }
            ],
            "name": "stake",
            "outputs": [],
            "stateMutability": "nonpayable",
            "type": "function"
        },
        {
            "inputs": [
                {
                    "internalType": "address",
                    "name": "beneficiary",
                    "type": "address"
                },
                {
                    "internalType": "uint256",
                    "name": "amount",
                    "type": "uint256"
                }
            ],
            "name": "stakeFor",
            "outputs": [],
            "stateMutability": "nonpayable",
            "type": "function"
        },
        {
            "inputs": [
                {
                    "internalType": "address",
                    "name": "stakeOwner",
                    "type": "address"
                },
                {
                    "internalType": "uint256",
                    "name": "amount",
                    "type": "uint256"
                }
            ],
            "name": "unlock",
            "outputs": [],
            "stateMutability": "nonpayable",
            "type": "function"
        },
        {
            "inputs": [
                {
                    "internalType": "uint256",
                    "name": "amount",
                    "type": "uint256"
                }
            ],
            "name": "unstake",
            "outputs": [],
            "stateMutability": "nonpayable",
            "type": "function"
        }
    ],
    "bytecode": "0x608060405234801561001057600080fd5b5060405161127838038061127883398101604081905261002f91610054565b600080546001600160a01b0319166001600160a01b0392909216919091179055610082565b600060208284031215610065578081fd5b81516001600160a01b038116811461007b578182fd5b9392505050565b6111e7806100916000396000f3fe608060405234801561001057600080fd5b50600436106100885760003560e01c80637eee288d1161005b5780637eee288d14610102578063a694fc3a14610115578063c345315314610128578063e2ab691d1461016e57600080fd5b8063183147031461008d5780632e17de78146100a25780632ee40908146100b55780634bfb1e7a146100c8575b600080fd5b6100a061009b366004610fcd565b610181565b005b6100a06100b0366004611068565b610444565b6100a06100c3366004610fcd565b6105e9565b6100db6100d6366004610f95565b6106ab565b60408051825181526020808401519082015291810151908201526060015b60405180910390f35b6100a0610110366004610fcd565b610766565b6100a0610123366004611068565b61094b565b61013b610136366004610f56565b6109b9565b6040516100f991908151815260208083015190820152604080830151908201526060918201519181019190915260800190565b6100a061017c366004610ff8565b610a50565b610189610c0d565b600061019483610d77565b60008054604051637c80bb4f60e01b815233600482015292935090916001600160a01b0390911690637c80bb4f9060240160206040518083038186803b1580156101dd57600080fd5b505afa1580156101f1573d6000803e3d6000fd5b505050506040513d601f19601f82011682018060405250810190610215919061104c565b6001600160a01b0385166000908152600360205260408120919250908183600b81111561025257634e487b7160e01b600052602160045260246000fd5b600b81111561027157634e487b7160e01b600052602160045260246000fd5b8152602001908152602001600020905080600201548411156102da5760405162461bcd60e51b815260206004820152601860248201527f4e6f7420656e6f756768206c6f636b656420746f6b656e73000000000000000060448201526064015b60405180910390fd5b60006102ea826000015486610e4b565b905083600201548111156103405760405162461bcd60e51b815260206004820181905260248201527f3530302e20556e65787065637465642070726f66697420636f6e646974696f6e60448201526064016102d1565b848260020160008282546103549190611149565b925050819055508484600101600082825461036f9190611149565b925050819055508484600301600082825461038a9190611149565b92505081905550808460020160008282546103a59190611149565b90915550506001546001600160a01b0316639dc29fac306103c688856110c6565b6040517fffffffff0000000000000000000000000000000000000000000000000000000060e085901b1681526001600160a01b0390921660048301526024820152604401600060405180830381600087803b15801561042457600080fd5b505af1158015610438573d6000803e3d6000fd5b50505050505050505050565b61044c610c0d565b33600061045882610d77565b90508060020154816001015461046e91906110c6565b600382015461047d90856110c6565b11156104cb5760405162461bcd60e51b815260206004820152601260248201527f5374616b6520697320746f6f20736d616c6c000000000000000000000000000060448201526064016102d1565b828160020154106104f557828160020160008282546104ea9190611149565b909155506105359050565b806002015481600101600082825461050d91906110c6565b909155505060006002820181905560018201805485929061052f908490611149565b90915550505b600181015461054357600081555b6001546040517fa9059cbb0000000000000000000000000000000000000000000000000000000081526001600160a01b038481166004830152602482018690529091169063a9059cbb906044015b602060405180830381600087803b1580156105ab57600080fd5b505af11580156105bf573d6000803e3d6000fd5b505050506040513d601f19601f820116820180604052508101906105e3919061102c565b50505050565b6105f1610c0d565b3360006105fd84610d77565b90508281600101600082825461061391906110c6565b90915550506001546040516323b872dd60e01b81526001600160a01b03848116600483015230602483015260448201869052909116906323b872dd90606401602060405180830381600087803b15801561066c57600080fd5b505af1158015610680573d6000803e3d6000fd5b505050506040513d601f19601f820116820180604052508101906106a4919061102c565b5050505050565b6106cf60405180606001604052806000815260200160008152602001600081525090565b6001600160a01b03831660009081526003602052604081209083600b81111561070857634e487b7160e01b600052602160045260246000fd5b600b81111561072757634e487b7160e01b600052602160045260246000fd5b81526020019081526020016000206040518060600160405290816000820154815260200160018201548152602001600282015481525050905092915050565b61076e610c0d565b6001600160a01b0382811660009081526002602052604080822082549151637c80bb4f60e01b815233600482015290939190911690637c80bb4f9060240160206040518083038186803b1580156107c457600080fd5b505afa1580156107d8573d6000803e3d6000fd5b505050506040513d601f19601f820116820180604052508101906107fc919061104c565b6001600160a01b0385166000908152600360205260408120919250908183600b81111561083957634e487b7160e01b600052602160045260246000fd5b600b81111561085857634e487b7160e01b600052602160045260246000fd5b8152602001908152602001600020905080600201548411156108bc5760405162461bcd60e51b815260206004820152601860248201527f4e6f7420656e6f756768206c6f636b656420746f6b656e73000000000000000060448201526064016102d1565b42816001015411156109105760405162461bcd60e51b815260206004820152601460248201527f546f6f206561726c7920666f7220756e6c6f636b00000000000000000000000060448201526064016102d1565b838160020160008282546109249190611149565b925050819055508383600301600082825461093f9190611149565b90915550505050505050565b610953610c0d565b33600061095f82610d77565b90508281600101600082825461097591906110c6565b90915550506001546040516323b872dd60e01b81526001600160a01b03848116600483015230602483015260448201869052909116906323b872dd90606401610591565b6109e46040518060800160405280600081526020016000815260200160008152602001600081525090565b506001600160a01b0381166000908152600260208181526040928390208351608081018552815480825260018301549382018490529382015494810194909452600301546060840152610a379190610e4b565b81604001818151610a4891906110c6565b905250919050565b610a58610c0d565b426000610a6583836110c6565b6001600160a01b0386166000908152600260205260409020600181015491925090851115610ad55760405162461bcd60e51b815260206004820152601260248201527f5374616b6520697320746f6f20736d616c6c000000000000000000000000000060448201526064016102d1565b60008054604051637c80bb4f60e01b81523360048201526001600160a01b0390911690637c80bb4f9060240160206040518083038186803b158015610b1957600080fd5b505afa158015610b2d573d6000803e3d6000fd5b505050506040513d601f19601f82011682018060405250810190610b51919061104c565b6001600160a01b0388166000908152600360205260408120919250908183600b811115610b8e57634e487b7160e01b600052602160045260246000fd5b600b811115610bad57634e487b7160e01b600052602160045260246000fd5b8152602001908152602001600020905084816000018190555083816001018190555086816002016000828254610be391906110c6565b9250508190555086836003016000828254610bfe91906110c6565b90915550505050505050505050565b60008054906101000a90046001600160a01b03166001600160a01b031663f1f0bd016040518163ffffffff1660e01b815260040160206040518083038186803b158015610c5957600080fd5b505afa158015610c6d573d6000803e3d6000fd5b505050506040513d601f19601f82011682018060405250810190610c919190610f79565b6000805473ffffffffffffffffffffffffffffffffffffffff19166001600160a01b039290921691821790556040517fbcaa0c5500000000000000000000000000000000000000000000000000000000815263bcaa0c5590610cf890600590600401611098565b60206040518083038186803b158015610d1057600080fd5b505afa158015610d24573d6000803e3d6000fd5b505050506040513d601f19601f82011682018060405250810190610d489190610f79565b6001805473ffffffffffffffffffffffffffffffffffffffff19166001600160a01b0392909216919091179055565b6001600160a01b038116600090815260026020526040812080546001820154919291610da39190610e4b565b905080826002016000828254610db991906110c6565b90915550504282558015610e45576001546040517f40c10f19000000000000000000000000000000000000000000000000000000008152306004820152602481018390526001600160a01b03909116906340c10f1990604401600060405180830381600087803b158015610e2c57600080fd5b505af1158015610e40573d6000803e3d6000fd5b505050505b50919050565b600082610e5a57506000610f50565b6000610e668442611149565b90506000610e77610e10601861111d565b610e879063ffffffff16836110de565b600080546040517f03a2216d00000000000000000000000000000000000000000000000000000000815292935090916001600160a01b03909116906303a2216d90610ed7906003906004016110b2565b60206040518083038186803b158015610eef57600080fd5b505afa158015610f03573d6000803e3d6000fd5b505050506040513d601f19601f82011682018060405250810190610f279190611080565b9050606481610f3684886110fe565b610f4091906110fe565b610f4a91906110de565b93505050505b92915050565b600060208284031215610f67578081fd5b8135610f728161118c565b9392505050565b600060208284031215610f8a578081fd5b8151610f728161118c565b60008060408385031215610fa7578081fd5b8235610fb28161118c565b91506020830135610fc2816111a4565b809150509250929050565b60008060408385031215610fdf578182fd5b8235610fea8161118c565b946020939093013593505050565b60008060006060848603121561100c578081fd5b83356110178161118c565b95602085013595506040909401359392505050565b60006020828403121561103d578081fd5b81518015158114610f72578182fd5b60006020828403121561105d578081fd5b8151610f72816111a4565b600060208284031215611079578081fd5b5035919050565b600060208284031215611091578081fd5b5051919050565b60208101600c83106110ac576110ac611176565b91905290565b60208101601183106110ac576110ac611176565b600082198211156110d9576110d9611160565b500190565b6000826110f957634e487b7160e01b81526012600452602481fd5b500490565b600081600019048311821515161561111857611118611160565b500290565b600063ffffffff8083168185168183048111821515161561114057611140611160565b02949350505050565b60008282101561115b5761115b611160565b500390565b634e487b7160e01b600052601160045260246000fd5b634e487b7160e01b600052602160045260246000fd5b6001600160a01b03811681146111a157600080fd5b50565b600c81106111a157600080fdfea2646970667358221220e584db95b6d31d3db836cc3d6af64e30b81d9cf46895c82a29d51eccb81b0c0064736f6c63430008040033",
    "linkReferences": {},
    "deployedLinkReferences": {}
}