{
  "_format": "hh-sol-artifact-1",
  "contractName": "Staking",
  "sourceName": "contracts/Staking.sol",
  "abi": [
    {
      "anonymous": false,
      "inputs": [
        {
          "indexed": false,
          "internalType": "enum Purpose",
          "name": "executor",
          "type": "uint8"
        },
        {
          "indexed": true,
          "internalType": "address",
          "name": "owner",
          "type": "address"
        },
        {
          "indexed": false,
          "internalType": "uint256",
          "name": "amount",
          "type": "uint256"
        },
        {
          "indexed": false,
          "internalType": "uint256",
          "name": "totalLocked",
          "type": "uint256"
        }
      ],
      "name": "TokensLocked",
      "type": "event"
    },
    {
      "anonymous": false,
      "inputs": [
        {
          "indexed": true,
          "internalType": "address",
          "name": "owner",
          "type": "address"
        },
        {
          "indexed": false,
          "internalType": "uint256",
          "name": "amount",
          "type": "uint256"
        },
        {
          "indexed": false,
          "internalType": "uint256",
          "name": "totalAmount",
          "type": "uint256"
        }
      ],
      "name": "TokensStaked",
      "type": "event"
    },
    {
      "anonymous": false,
      "inputs": [
        {
          "indexed": false,
          "internalType": "enum Purpose",
          "name": "executor",
          "type": "uint8"
        },
        {
          "indexed": true,
          "internalType": "address",
          "name": "owner",
          "type": "address"
        },
        {
          "indexed": false,
          "internalType": "uint256",
          "name": "amount",
          "type": "uint256"
        },
        {
          "indexed": false,
          "internalType": "uint256",
          "name": "totalLocked",
          "type": "uint256"
        }
      ],
      "name": "TokensUnlocked",
      "type": "event"
    },
    {
      "anonymous": false,
      "inputs": [
        {
          "indexed": true,
          "internalType": "address",
          "name": "owner",
          "type": "address"
        },
        {
          "indexed": false,
          "internalType": "uint256",
          "name": "amount",
          "type": "uint256"
        },
        {
          "indexed": false,
          "internalType": "uint256",
          "name": "totalAmount",
          "type": "uint256"
        }
      ],
      "name": "TokensUnstaked",
      "type": "event"
    },
    {
      "inputs": [
        {
          "internalType": "enum Purpose",
          "name": "executor",
          "type": "uint8"
        },
        {
          "internalType": "address",
          "name": "stakeOwner",
          "type": "address"
        },
        {
          "internalType": "uint256",
          "name": "amount",
          "type": "uint256"
        }
      ],
      "name": "confiscateTokensFrom",
      "outputs": [],
      "stateMutability": "nonpayable",
      "type": "function"
    },
    {
      "inputs": [
        {
          "internalType": "enum Purpose",
          "name": "executor",
          "type": "uint8"
        },
        {
          "internalType": "address",
          "name": "stakeOwner",
          "type": "address"
        }
      ],
      "name": "getLockedTokensInfo",
      "outputs": [
        {
          "components": [
            {
              "internalType": "uint256",
              "name": "fromDate",
              "type": "uint256"
            },
            {
              "internalType": "uint256",
              "name": "toDate",
              "type": "uint256"
            },
            {
              "internalType": "uint256",
              "name": "amount",
              "type": "uint256"
            }
          ],
          "internalType": "struct LockedTokens",
          "name": "ret",
          "type": "tuple"
        }
      ],
      "stateMutability": "view",
      "type": "function"
    },
    {
      "inputs": [
        {
          "internalType": "address",
          "name": "stakeOwner",
          "type": "address"
        }
      ],
      "name": "getStakeInfo",
      "outputs": [
        {
          "components": [
            {
              "internalType": "uint256",
              "name": "startDate",
              "type": "uint256"
            },
            {
              "internalType": "uint256",
              "name": "amount",
              "type": "uint256"
            },
            {
              "internalType": "uint256",
              "name": "profit",
              "type": "uint256"
            },
            {
              "internalType": "uint256",
              "name": "totalLocked",
              "type": "uint256"
            }
          ],
          "internalType": "struct StakeInfo",
          "name": "ret",
          "type": "tuple"
        }
      ],
      "stateMutability": "view",
      "type": "function"
    },
    {
      "inputs": [
        {
          "internalType": "enum Purpose",
          "name": "executor",
          "type": "uint8"
        },
        {
          "internalType": "address",
          "name": "stakeOwner",
          "type": "address"
        },
        {
          "internalType": "uint256",
          "name": "amount",
          "type": "uint256"
        },
        {
          "internalType": "uint256",
          "name": "secondsCount",
          "type": "uint256"
        }
      ],
      "name": "lockTokens",
      "outputs": [],
      "stateMutability": "nonpayable",
      "type": "function"
    },
    {
      "inputs": [
        {
          "internalType": "uint256",
          "name": "amount",
          "type": "uint256"
        }
      ],
      "name": "stake",
      "outputs": [],
      "stateMutability": "nonpayable",
      "type": "function"
    },
    {
      "inputs": [
        {
          "internalType": "address",
          "name": "beneficiary",
          "type": "address"
        },
        {
          "internalType": "uint256",
          "name": "amount",
          "type": "uint256"
        }
      ],
      "name": "stakeFor",
      "outputs": [],
      "stateMutability": "nonpayable",
      "type": "function"
    },
    {
      "inputs": [
        {
          "internalType": "enum Purpose",
          "name": "executor",
          "type": "uint8"
        },
        {
          "internalType": "address",
          "name": "stakeOwner",
          "type": "address"
        },
        {
          "internalType": "uint256",
          "name": "amount",
          "type": "uint256"
        }
      ],
      "name": "unlockTokens",
      "outputs": [],
      "stateMutability": "nonpayable",
      "type": "function"
    },
    {
      "inputs": [
        {
          "internalType": "uint256",
          "name": "amount",
          "type": "uint256"
        }
      ],
      "name": "unstake",
      "outputs": [],
      "stateMutability": "nonpayable",
      "type": "function"
    }
  ],
  "bytecode": "0x608060405234801561001057600080fd5b506111f2806100206000396000f3fe608060405234801561001057600080fd5b50600436106100885760003560e01c8063a694fc3a1161005b578063a694fc3a14610102578063c15d649014610115578063c345315314610128578063d719a90d1461016e57600080fd5b80631dd96db81461008d5780632e17de78146100c75780632ee40908146100dc578063896d087f146100ef575b600080fd5b6100a061009b366004610f63565b610181565b60408051825181526020808401519082015291810151908201526060015b60405180910390f35b6100da6100d5366004610f9a565b610261565b005b6100da6100ea366004610fb3565b610458565b6100da6100fd366004610fdf565b610569565b6100da610110366004610f9a565b61070f565b6100da610123366004610fdf565b610812565b61013b61013636600461101e565b610a35565b6040516100be91908151815260208083015190820152604080830151908201526060918201519181019190915260800190565b6100da61017c366004611042565b610af0565b6101a560405180606001604052806000815260200160008152602001600081525090565b6001600160a01b03821660009081527f32f2c33fc1245a73547aac59828c90d9a68522baf8965a3292f47e9f8ed78fb7602052604081207f32f2c33fc1245a73547aac59828c90d9a68522baf8965a3292f47e9f8ed78fb69185600281111561021057610210611086565b600281111561022157610221611086565b8152602001908152602001600020604051806060016040529081600082015481526020016001820154815260200160028201548152505091505092915050565b33600061026d82610cd5565b90508060020154816001015461028391906110b2565b600382015461029290856110b2565b11156102e55760405162461bcd60e51b815260206004820152601260248201527f5374616b6520697320746f6f20736d616c6c000000000000000000000000000060448201526064015b60405180910390fd5b8281600201541061030f578281600201600082825461030491906110ca565b9091555061034f9050565b806002015481600101600082825461032791906110b2565b90915550506000600282018190556001820180548592906103499084906110ca565b90915550505b600181015461035d57600081555b610365610dd1565b6040517fa9059cbb0000000000000000000000000000000000000000000000000000000081526001600160a01b03848116600483015260248201869052919091169063a9059cbb90604401602060405180830381600087803b1580156103ca57600080fd5b505af11580156103de573d6000803e3d6000fd5b505050506040513d601f19601f8201168201806040525081019061040291906110e1565b50816001600160a01b03167f6f2d3e000c89d37446b7c0374c0125068ff316d1e3ee302336478a8cd03c233684836001015460405161044b929190918252602082015260400190565b60405180910390a2505050565b33600061046484610cd5565b90508281600101600082825461047a91906110b2565b909155506104889050610dd1565b6040516323b872dd60e01b81526001600160a01b0384811660048301523060248301526044820186905291909116906323b872dd90606401602060405180830381600087803b1580156104da57600080fd5b505af11580156104ee573d6000803e3d6000fd5b505050506040513d601f19601f8201168201806040525081019061051291906110e1565b50836001600160a01b03167fdd2a19c3bdd089cbe77c04f5655f83de0504d6140d12c8667646f55d0557c4dc84836001015460405161055b929190918252602082015260400190565b60405180910390a250505050565b3330146105b85760405162461bcd60e51b815260206004820152601660248201527f45787465726e616c206163636573732064656e6965640000000000000000000060448201526064016102dc565b7f32f2c33fc1245a73547aac59828c90d9a68522baf8965a3292f47e9f8ed78fb660006105e484610cd5565b6001600160a01b03851660009081526001840160205260408120919250908187600281111561061557610615611086565b600281111561062657610626611086565b81526020019081526020016000209050806002015484111561068a5760405162461bcd60e51b815260206004820152601860248201527f4e6f7420656e6f756768206c6f636b656420746f6b656e73000000000000000060448201526064016102dc565b600061069a826000015486610e49565b9050848260020160008282546106b091906110ca565b92505081905550848360010160008282546106cb91906110ca565b92505081905550848360030160008282546106e691906110ca565b925050819055508083600201600082825461070191906110ca565b909155505050505050505050565b33600061071b82610cd5565b90508281600101600082825461073191906110b2565b9091555061073f9050610dd1565b6040516323b872dd60e01b81526001600160a01b0384811660048301523060248301526044820186905291909116906323b872dd90606401602060405180830381600087803b15801561079157600080fd5b505af11580156107a5573d6000803e3d6000fd5b505050506040513d601f19601f820116820180604052508101906107c991906110e1565b50816001600160a01b03167fdd2a19c3bdd089cbe77c04f5655f83de0504d6140d12c8667646f55d0557c4dc84836001015460405161044b929190918252602082015260400190565b6001600160a01b03821660009081527f32f2c33fc1245a73547aac59828c90d9a68522baf8965a3292f47e9f8ed78fb6602081815260408084207f32f2c33fc1245a73547aac59828c90d9a68522baf8965a3292f47e9f8ed78fb79092528320919290918187600281111561088957610889611086565b600281111561089a5761089a611086565b81526020019081526020016000209050806001015460001415610906573330146109065760405162461bcd60e51b815260206004820152601660248201527f45787465726e616c206163636573732064656e6965640000000000000000000060448201526064016102dc565b806002015484111561095a5760405162461bcd60e51b815260206004820152601860248201527f4e6f7420656e6f756768206c6f636b656420746f6b656e73000000000000000060448201526064016102dc565b42816001015411156109ae5760405162461bcd60e51b815260206004820152601460248201527f546f6f206561726c7920666f7220756e6c6f636b00000000000000000000000060448201526064016102dc565b838160020160008282546109c291906110ca565b92505081905550838260030160008282546109dd91906110ca565b92505081905550846001600160a01b03167f9425718d055217c5cbd3e54a422eea52441bbad0e5051ffa557cbeaf0bf8c8ef87868560030154604051610a2593929190611103565b60405180910390a2505050505050565b610a606040518060800160405280600081526020016000815260200160008152602001600081525090565b506001600160a01b03811660009081527f32f2c33fc1245a73547aac59828c90d9a68522baf8965a3292f47e9f8ed78fb66020818152604092839020835160808101855281548082526001830154938201849052600283015495820195909552600390910154606082015292610ad591610e49565b82604001818151610ae691906110b2565b9052509092915050565b333014610b3f5760405162461bcd60e51b815260206004820152601660248201527f45787465726e616c206163636573732064656e6965640000000000000000000060448201526064016102dc565b7f32f2c33fc1245a73547aac59828c90d9a68522baf8965a3292f47e9f8ed78fb64260008315610b7857610b7384426110b2565b610b7b565b60005b6001600160a01b0387166000908152602085905260409020600181015491925090861115610beb5760405162461bcd60e51b815260206004820152601260248201527f5374616b6520697320746f6f20736d616c6c000000000000000000000000000060448201526064016102dc565b6001600160a01b03871660009081526001850160205260408120818a6002811115610c1857610c18611086565b6002811115610c2957610c29611086565b8152602001908152602001600020905083816000018190555082816001018190555086816002016000828254610c5f91906110b2565b9250508190555086826003016000828254610c7a91906110b2565b92505081905550876001600160a01b03167fff6f40e87abea799284278135b3ad56a0a09cdf5959365cd983b94ba6dc17b0f8a898560030154604051610cc293929190611103565b60405180910390a2505050505050505050565b6001600160a01b03811660009081527f32f2c33fc1245a73547aac59828c90d9a68522baf8965a3292f47e9f8ed78fb660208190526040822080546001820154919391610d229190610e49565b905080836002016000828254610d3891906110b2565b90915550504283558015610dca57610d4e610dd1565b6040517f40c10f19000000000000000000000000000000000000000000000000000000008152306004820152602481018390526001600160a01b0391909116906340c10f1990604401600060405180830381600087803b158015610db157600080fd5b505af1158015610dc5573d6000803e3d6000fd5b505050505b5050919050565b6000306001600160a01b03166321df0da76040518163ffffffff1660e01b815260040160206040518083038186803b158015610e0c57600080fd5b505afa158015610e20573d6000803e3d6000fd5b505050506040513d601f19601f82011682018060405250810190610e44919061112b565b905090565b600082610e5857506000610f31565b6000610e6484426110ca565b90506000610e756201518083611148565b6040517f897ce7cf000000000000000000000000000000000000000000000000000000008152909150600090309063897ce7cf90610eb89060039060040161116a565b60206040518083038186803b158015610ed057600080fd5b505afa158015610ee4573d6000803e3d6000fd5b505050506040513d601f19601f82011682018060405250810190610f089190611184565b9050606481610f17848861119d565b610f21919061119d565b610f2b9190611148565b93505050505b92915050565b803560038110610f4657600080fd5b919050565b6001600160a01b0381168114610f6057600080fd5b50565b60008060408385031215610f7657600080fd5b610f7f83610f37565b91506020830135610f8f81610f4b565b809150509250929050565b600060208284031215610fac57600080fd5b5035919050565b60008060408385031215610fc657600080fd5b8235610fd181610f4b565b946020939093013593505050565b600080600060608486031215610ff457600080fd5b610ffd84610f37565b9250602084013561100d81610f4b565b929592945050506040919091013590565b60006020828403121561103057600080fd5b813561103b81610f4b565b9392505050565b6000806000806080858703121561105857600080fd5b61106185610f37565b9350602085013561107181610f4b565b93969395505050506040820135916060013590565b634e487b7160e01b600052602160045260246000fd5b634e487b7160e01b600052601160045260246000fd5b600082198211156110c5576110c561109c565b500190565b6000828210156110dc576110dc61109c565b500390565b6000602082840312156110f357600080fd5b8151801515811461103b57600080fd5b606081016003851061111757611117611086565b938152602081019290925260409091015290565b60006020828403121561113d57600080fd5b815161103b81610f4b565b60008261116557634e487b7160e01b600052601260045260246000fd5b500490565b602081016008831061117e5761117e611086565b91905290565b60006020828403121561119657600080fd5b5051919050565b60008160001904831182151516156111b7576111b761109c565b50029056fea2646970667358221220a3fcf52b1c21133671df5d6a5df74acbd6a3a83cee63bf17ef53d32ef13684cf64736f6c63430008090033",
  "linkReferences": {},
  "deployedLinkReferences": {}
}