{
    "_format": "hh-sol-artifact-1",
    "contractName": "Staking",
    "sourceName": "contracts/Staking.sol",
    "abi": [
        {
            "inputs": [
                {
                    "internalType": "address",
                    "name": "addr",
                    "type": "address"
                }
            ],
            "stateMutability": "nonpayable",
            "type": "constructor"
        },
        {
            "inputs": [
                {
                    "internalType": "address",
                    "name": "stakeOwner",
                    "type": "address"
                },
                {
                    "internalType": "uint256",
                    "name": "amount",
                    "type": "uint256"
                }
            ],
            "name": "confiscateFrom",
            "outputs": [],
            "stateMutability": "nonpayable",
            "type": "function"
        },
        {
            "inputs": [
                {
                    "internalType": "address",
                    "name": "_stakeOwner",
                    "type": "address"
                },
                {
                    "internalType": "enum ContractName",
                    "name": "_name",
                    "type": "uint8"
                }
            ],
            "name": "getLockInfo",
            "outputs": [
                {
                    "components": [
                        {
                            "internalType": "uint256",
                            "name": "fromDate",
                            "type": "uint256"
                        },
                        {
                            "internalType": "uint256",
                            "name": "toDate",
                            "type": "uint256"
                        },
                        {
                            "internalType": "uint256",
                            "name": "amount",
                            "type": "uint256"
                        }
                    ],
                    "internalType": "struct LockedTokens",
                    "name": "ret",
                    "type": "tuple"
                }
            ],
            "stateMutability": "view",
            "type": "function"
        },
        {
            "inputs": [
                {
                    "internalType": "address",
                    "name": "stakeOwner",
                    "type": "address"
                }
            ],
            "name": "getStakeInfo",
            "outputs": [
                {
                    "components": [
                        {
                            "internalType": "uint256",
                            "name": "startDate",
                            "type": "uint256"
                        },
                        {
                            "internalType": "uint256",
                            "name": "amount",
                            "type": "uint256"
                        },
                        {
                            "internalType": "uint256",
                            "name": "profit",
                            "type": "uint256"
                        },
                        {
                            "internalType": "uint256",
                            "name": "totalLocked",
                            "type": "uint256"
                        }
                    ],
                    "internalType": "struct StakeInfo",
                    "name": "ret",
                    "type": "tuple"
                }
            ],
            "stateMutability": "view",
            "type": "function"
        },
        {
            "inputs": [
                {
                    "internalType": "address",
                    "name": "stakeOwner",
                    "type": "address"
                },
                {
                    "internalType": "uint256",
                    "name": "amount",
                    "type": "uint256"
                },
                {
                    "internalType": "uint256",
                    "name": "secondsCount",
                    "type": "uint256"
                }
            ],
            "name": "lock",
            "outputs": [],
            "stateMutability": "nonpayable",
            "type": "function"
        },
        {
            "inputs": [
                {
                    "internalType": "uint256",
                    "name": "amount",
                    "type": "uint256"
                }
            ],
            "name": "stake",
            "outputs": [],
            "stateMutability": "nonpayable",
            "type": "function"
        },
        {
            "inputs": [
                {
                    "internalType": "address",
                    "name": "beneficiary",
                    "type": "address"
                },
                {
                    "internalType": "uint256",
                    "name": "amount",
                    "type": "uint256"
                }
            ],
            "name": "stakeFor",
            "outputs": [],
            "stateMutability": "nonpayable",
            "type": "function"
        },
        {
            "inputs": [
                {
                    "internalType": "address",
                    "name": "stakeOwner",
                    "type": "address"
                },
                {
                    "internalType": "uint256",
                    "name": "amount",
                    "type": "uint256"
                }
            ],
            "name": "unlock",
            "outputs": [],
            "stateMutability": "nonpayable",
            "type": "function"
        },
        {
            "inputs": [
                {
                    "internalType": "uint256",
                    "name": "amount",
                    "type": "uint256"
                }
            ],
            "name": "unstake",
            "outputs": [],
            "stateMutability": "nonpayable",
            "type": "function"
        }
    ],
    "bytecode": "0x608060405234801561001057600080fd5b506040516111c63803806111c683398101604081905261002f91610054565b600080546001600160a01b0319166001600160a01b0392909216919091179055610082565b600060208284031215610065578081fd5b81516001600160a01b038116811461007b578182fd5b9392505050565b611135806100916000396000f3fe608060405234801561001057600080fd5b50600436106100885760003560e01c80637eee288d1161005b5780637eee288d14610102578063a694fc3a14610115578063c345315314610128578063e2ab691d1461016e57600080fd5b8063183147031461008d5780632e17de78146100a25780632ee40908146100b55780634bfb1e7a146100c8575b600080fd5b6100a061009b366004610f47565b610181565b005b6100a06100b0366004610fe2565b61044e565b6100a06100c3366004610f47565b6105fe565b6100db6100d6366004610f0f565b6106cb565b60408051825181526020808401519082015291810151908201526060015b60405180910390f35b6100a0610110366004610f47565b610786565b6100a0610123366004610fe2565b610963565b61013b610136366004610ed7565b6109dc565b6040516100f991908151815260208083015190820152604080830151908201526060918201519181019190915260800190565b6100a061017c366004610f72565b610a73565b600061018c83610c2a565b60008054604051637c80bb4f60e01b815233600482015292935090916001600160a01b0390911690637c80bb4f9060240160206040518083038186803b1580156101d557600080fd5b505afa1580156101e9573d6000803e3d6000fd5b505050506040513d601f19601f8201168201806040525081019061020d9190610fc6565b6001600160a01b0385166000908152600260205260408120919250908183600b81111561024a57634e487b7160e01b600052602160045260246000fd5b600b81111561026957634e487b7160e01b600052602160045260246000fd5b8152602001908152602001600020905080600201548411156102d25760405162461bcd60e51b815260206004820152601860248201527f4e6f7420656e6f756768206c6f636b656420746f6b656e73000000000000000060448201526064015b60405180910390fd5b60006102e2826000015486610d11565b905083600201548111156103385760405162461bcd60e51b815260206004820181905260248201527f3530302e20556e65787065637465642070726f66697420636f6e646974696f6e60448201526064016102c9565b8482600201600082825461034c9190611097565b92505081905550848460010160008282546103679190611097565b92505081905550848460030160008282546103829190611097565b925050819055508084600201600082825461039d9190611097565b90915550506000546103b7906001600160a01b0316610d88565b6001600160a01b0316639dc29fac306103d08885611040565b6040517fffffffff0000000000000000000000000000000000000000000000000000000060e085901b1681526001600160a01b0390921660048301526024820152604401600060405180830381600087803b15801561042e57600080fd5b505af1158015610442573d6000803e3d6000fd5b50505050505050505050565b33600061045a82610c2a565b9050806002015481600101546104709190611040565b600382015461047f9085611040565b11156104cd5760405162461bcd60e51b815260206004820152601260248201527f5374616b6520697320746f6f20736d616c6c000000000000000000000000000060448201526064016102c9565b828160020154106104f757828160020160008282546104ec9190611097565b909155506105379050565b806002015481600101600082825461050f9190611040565b9091555050600060028201819055600182018054859290610531908490611097565b90915550505b600181015461054557600081555b60005461055a906001600160a01b0316610d88565b6040517fa9059cbb0000000000000000000000000000000000000000000000000000000081526001600160a01b03848116600483015260248201869052919091169063a9059cbb906044015b602060405180830381600087803b1580156105c057600080fd5b505af11580156105d4573d6000803e3d6000fd5b505050506040513d601f19601f820116820180604052508101906105f89190610fa6565b50505050565b33600061060a84610c2a565b9050828160010160008282546106209190611040565b909155505060005461063a906001600160a01b0316610d88565b6040516323b872dd60e01b81526001600160a01b0384811660048301523060248301526044820186905291909116906323b872dd90606401602060405180830381600087803b15801561068c57600080fd5b505af11580156106a0573d6000803e3d6000fd5b505050506040513d601f19601f820116820180604052508101906106c49190610fa6565b5050505050565b6106ef60405180606001604052806000815260200160008152602001600081525090565b6001600160a01b03831660009081526002602052604081209083600b81111561072857634e487b7160e01b600052602160045260246000fd5b600b81111561074757634e487b7160e01b600052602160045260246000fd5b81526020019081526020016000206040518060600160405290816000820154815260200160018201548152602001600282015481525050905092915050565b6001600160a01b0382811660009081526001602052604080822082549151637c80bb4f60e01b815233600482015290939190911690637c80bb4f9060240160206040518083038186803b1580156107dc57600080fd5b505afa1580156107f0573d6000803e3d6000fd5b505050506040513d601f19601f820116820180604052508101906108149190610fc6565b6001600160a01b0385166000908152600260205260408120919250908183600b81111561085157634e487b7160e01b600052602160045260246000fd5b600b81111561087057634e487b7160e01b600052602160045260246000fd5b8152602001908152602001600020905080600201548411156108d45760405162461bcd60e51b815260206004820152601860248201527f4e6f7420656e6f756768206c6f636b656420746f6b656e73000000000000000060448201526064016102c9565b42816001015411156109285760405162461bcd60e51b815260206004820152601460248201527f546f6f206561726c7920666f7220756e6c6f636b00000000000000000000000060448201526064016102c9565b8381600201600082825461093c9190611097565b92505081905550838360030160008282546109579190611097565b90915550505050505050565b33600061096f82610c2a565b9050828160010160008282546109859190611040565b909155505060005461099f906001600160a01b0316610d88565b6040516323b872dd60e01b81526001600160a01b0384811660048301523060248301526044820186905291909116906323b872dd906064016105a6565b610a076040518060800160405280600081526020016000815260200160008152602001600081525090565b506001600160a01b0381166000908152600160208181526040928390208351608081018552815480825293820154928101839052600282015494810194909452600301546060840152610a5a9190610d11565b81604001818151610a6b9190611040565b905250919050565b426000610a808383611040565b6001600160a01b03861660009081526001602081905260409091209081015491925090851115610af25760405162461bcd60e51b815260206004820152601260248201527f5374616b6520697320746f6f20736d616c6c000000000000000000000000000060448201526064016102c9565b60008054604051637c80bb4f60e01b81523360048201526001600160a01b0390911690637c80bb4f9060240160206040518083038186803b158015610b3657600080fd5b505afa158015610b4a573d6000803e3d6000fd5b505050506040513d601f19601f82011682018060405250810190610b6e9190610fc6565b6001600160a01b0388166000908152600260205260408120919250908183600b811115610bab57634e487b7160e01b600052602160045260246000fd5b600b811115610bca57634e487b7160e01b600052602160045260246000fd5b8152602001908152602001600020905084816000018190555083816001018190555086816002016000828254610c009190611040565b9250508190555086836003016000828254610c1b9190611040565b90915550505050505050505050565b6001600160a01b03811660009081526001602081905260408220805491810154909291610c5691610d11565b905080826002016000828254610c6c9190611040565b90915550504282558015610d0b57600054610c8f906001600160a01b0316610d88565b6040517f40c10f19000000000000000000000000000000000000000000000000000000008152306004820152602481018390526001600160a01b0391909116906340c10f1990604401600060405180830381600087803b158015610cf257600080fd5b505af1158015610d06573d6000803e3d6000fd5b505050505b50919050565b600082610d2057506000610d82565b6000610d2c8442611097565b90506000610d3d6201518083611058565b6000805491925090610d59906001600160a01b03166003610e0f565b9050606481610d688488611078565b610d729190611078565b610d7c9190611058565b93505050505b92915050565b6000610d9382610e9c565b6001600160a01b031663bcaa0c5560056040518263ffffffff1660e01b8152600401610dbf9190611012565b60206040518083038186803b158015610dd757600080fd5b505afa158015610deb573d6000803e3d6000fd5b505050506040513d601f19601f82011682018060405250810190610d829190610ef3565b6000610e1a83610e9c565b6001600160a01b03166303a2216d836040518263ffffffff1660e01b8152600401610e45919061102c565b60206040518083038186803b158015610e5d57600080fd5b505afa158015610e71573d6000803e3d6000fd5b505050506040513d601f19601f82011682018060405250810190610e959190610ffa565b9392505050565b6000816001600160a01b031663f1f0bd016040518163ffffffff1660e01b815260040160206040518083038186803b158015610dd757600080fd5b600060208284031215610ee8578081fd5b8135610e95816110da565b600060208284031215610f04578081fd5b8151610e95816110da565b60008060408385031215610f21578081fd5b8235610f2c816110da565b91506020830135610f3c816110f2565b809150509250929050565b60008060408385031215610f59578182fd5b8235610f64816110da565b946020939093013593505050565b600080600060608486031215610f86578081fd5b8335610f91816110da565b95602085013595506040909401359392505050565b600060208284031215610fb7578081fd5b81518015158114610e95578182fd5b600060208284031215610fd7578081fd5b8151610e95816110f2565b600060208284031215610ff3578081fd5b5035919050565b60006020828403121561100b578081fd5b5051919050565b60208101600c8310611026576110266110c4565b91905290565b6020810160118310611026576110266110c4565b60008219821115611053576110536110ae565b500190565b60008261107357634e487b7160e01b81526012600452602481fd5b500490565b6000816000190483118215151615611092576110926110ae565b500290565b6000828210156110a9576110a96110ae565b500390565b634e487b7160e01b600052601160045260246000fd5b634e487b7160e01b600052602160045260246000fd5b6001600160a01b03811681146110ef57600080fd5b50565b600c81106110ef57600080fdfea264697066735822122060a0281f13967571a1f6d73533c5dc8abb23e965f96be7cc95112dc8788d372064736f6c63430008040033",
    "linkReferences": {},
    "deployedLinkReferences": {}
}