{
  "_format": "hh-sol-artifact-1",
  "contractName": "Superpro",
  "sourceName": "contracts/Superpro.sol",
  "abi": [
    {
      "inputs": [
        {
          "internalType": "enum ParamName",
          "name": "name",
          "type": "uint8"
        }
      ],
      "name": "getConfigParam",
      "outputs": [
        {
          "internalType": "uint256",
          "name": "",
          "type": "uint256"
        }
      ],
      "stateMutability": "view",
      "type": "function"
    },
    {
      "inputs": [],
      "name": "getToken",
      "outputs": [
        {
          "internalType": "address",
          "name": "",
          "type": "address"
        }
      ],
      "stateMutability": "view",
      "type": "function"
    },
    {
      "inputs": [],
      "name": "getVersion",
      "outputs": [
        {
          "internalType": "string",
          "name": "",
          "type": "string"
        }
      ],
      "stateMutability": "view",
      "type": "function"
    },
    {
      "inputs": [
        {
          "internalType": "enum ParamName",
          "name": "name",
          "type": "uint8"
        },
        {
          "internalType": "uint256",
          "name": "value",
          "type": "uint256"
        }
      ],
      "name": "setConfigParam",
      "outputs": [],
      "stateMutability": "nonpayable",
      "type": "function"
    },
    {
      "inputs": [
        {
          "components": [
            {
              "internalType": "string",
              "name": "version",
              "type": "string"
            },
            {
              "internalType": "address",
              "name": "token",
              "type": "address"
            },
            {
              "internalType": "uint256",
              "name": "orderMinimumDeposit",
              "type": "uint256"
            },
            {
              "internalType": "uint256",
              "name": "profitWithdrawDelayDays",
              "type": "uint256"
            },
            {
              "internalType": "uint256",
              "name": "minSecurityDeposit",
              "type": "uint256"
            },
            {
              "internalType": "uint256",
              "name": "stakingPercentPerDay",
              "type": "uint256"
            },
            {
              "internalType": "uint256",
              "name": "stopDelayDays",
              "type": "uint256"
            },
            {
              "internalType": "uint256",
              "name": "teeOfferSecurityDeposit",
              "type": "uint256"
            },
            {
              "internalType": "uint256",
              "name": "offerSecurityDeposit",
              "type": "uint256"
            },
            {
              "internalType": "uint256",
              "name": "teeRewardPerEpoch",
              "type": "uint256"
            },
            {
              "internalType": "uint256",
              "name": "votingDepsit",
              "type": "uint256"
            },
            {
              "internalType": "uint256",
              "name": "votingDurationDays",
              "type": "uint256"
            },
            {
              "internalType": "uint256",
              "name": "votingExecutionTimeoutDays",
              "type": "uint256"
            },
            {
              "internalType": "uint256",
              "name": "votingHoldDays",
              "type": "uint256"
            },
            {
              "internalType": "uint256",
              "name": "votingMinumumTurnout",
              "type": "uint256"
            },
            {
              "internalType": "uint256",
              "name": "L1",
              "type": "uint256"
            },
            {
              "internalType": "uint256",
              "name": "L2",
              "type": "uint256"
            },
            {
              "internalType": "uint256",
              "name": "Threshold",
              "type": "uint256"
            },
            {
              "internalType": "uint256",
              "name": "epochDurationSeconds",
              "type": "uint256"
            }
          ],
          "internalType": "struct SuperproParams",
          "name": "params",
          "type": "tuple"
        }
      ],
      "name": "setConfigParams",
      "outputs": [],
      "stateMutability": "nonpayable",
      "type": "function"
    },
    {
      "inputs": [
        {
          "internalType": "string",
          "name": "newVersion",
          "type": "string"
        }
      ],
      "name": "setVersion",
      "outputs": [],
      "stateMutability": "nonpayable",
      "type": "function"
    }
  ],
  "bytecode": "0x608060405234801561001057600080fd5b50610a62806100206000396000f3fe608060405234801561001057600080fd5b50600436106100725760003560e01c8063788bc78c11610050578063788bc78c146100f1578063897ce7cf1461010457806398d7beb71461012557600080fd5b80630d8e6e2c1461007757806321df0da7146100955780636e4b1fa0146100dc575b600080fd5b61007f610138565b60405161008c919061068d565b60405180910390f35b7f138bd5e559c13aa9dfbf617b0343ed463691d1034ede8cbb5ffe8a72825518e55460405173ffffffffffffffffffffffffffffffffffffffff909116815260200161008c565b6100ef6100ea3660046107d8565b6101ee565b005b6100ef6100ff36600461090e565b610372565b61011761011236600461098f565b6103ac565b60405190815260200161008c565b6100ef6101333660046109b1565b61042b565b7f138bd5e559c13aa9dfbf617b0343ed463691d1034ede8cbb5ffe8a72825518e4805460609190819061016a906109db565b80601f0160208091040260200160405190810160405280929190818152602001828054610196906109db565b80156101e35780601f106101b8576101008083540402835291602001916101e3565b820191906000526020600020905b8154815290600101906020018083116101c657829003601f168201915b505050505091505090565b6101f66104b1565b805180517f138bd5e559c13aa9dfbf617b0343ed463691d1034ede8cbb5ffe8a72825518e49161022b91839160200190610580565b50602082810151600183810180547fffffffffffffffffffffffff00000000000000000000000000000000000000001673ffffffffffffffffffffffffffffffffffffffff90931692909217909155604080850151600080805260029586019094528184205560608501519183528083209190915560808401519282528082209290925560a0830151600382528282205560c0830151600482528282205560e083015160058252828220556101008301516006825282822055610120830151600782528282205561014083015160088252828220556101608301516009825282822055610180830151600a8252828220556101a0830151600b8252828220556101c0830151600c8252828220556101e0830151600d825282822055610200830151600e825282822055610220830151600f8252828220556102409092015160108352912055565b61037a6104b1565b7f138bd5e559c13aa9dfbf617b0343ed463691d1034ede8cbb5ffe8a72825518e46103a6818484610604565b50505050565b60007f138bd5e559c13aa9dfbf617b0343ed463691d1034ede8cbb5ffe8a72825518e47f138bd5e559c13aa9dfbf617b0343ed463691d1034ede8cbb5ffe8a72825518e68284601081111561040357610403610a16565b601081111561041457610414610a16565b815260200190815260200160002054915050919050565b6104336104b1565b7f138bd5e559c13aa9dfbf617b0343ed463691d1034ede8cbb5ffe8a72825518e4817f138bd5e559c13aa9dfbf617b0343ed463691d1034ede8cbb5ffe8a72825518e6600085601081111561048a5761048a610a16565b601081111561049b5761049b610a16565b8152602081019190915260400160002055505050565b7fc8fcad8db84d3cc18b4c41d551ea0ee66dd599cde068d998e57d5e09332c131c6004015473ffffffffffffffffffffffffffffffffffffffff16331461057e576040517f08c379a000000000000000000000000000000000000000000000000000000000815260206004820152602260248201527f4c69624469616d6f6e643a204d75737420626520636f6e7472616374206f776e60448201527f6572000000000000000000000000000000000000000000000000000000000000606482015260840160405180910390fd5b565b82805461058c906109db565b90600052602060002090601f0160209004810192826105ae57600085556105f4565b82601f106105c757805160ff19168380011785556105f4565b828001600101855582156105f4579182015b828111156105f45782518255916020019190600101906105d9565b50610600929150610678565b5090565b828054610610906109db565b90600052602060002090601f01602090048101928261063257600085556105f4565b82601f1061064b5782800160ff198235161785556105f4565b828001600101855582156105f4579182015b828111156105f457823582559160200191906001019061065d565b5b808211156106005760008155600101610679565b600060208083528351808285015260005b818110156106ba5785810183015185820160400152820161069e565b818111156106cc576000604083870101525b50601f01601f1916929092016040019392505050565b634e487b7160e01b600052604160045260246000fd5b604051610260810167ffffffffffffffff8111828210171561071c5761071c6106e2565b60405290565b600082601f83011261073357600080fd5b813567ffffffffffffffff8082111561074e5761074e6106e2565b604051601f8301601f19908116603f01168101908282118183101715610776576107766106e2565b8160405283815286602085880101111561078f57600080fd5b836020870160208301376000602085830101528094505050505092915050565b803573ffffffffffffffffffffffffffffffffffffffff811681146107d357600080fd5b919050565b6000602082840312156107ea57600080fd5b813567ffffffffffffffff8082111561080257600080fd5b90830190610260828603121561081757600080fd5b61081f6106f8565b82358281111561082e57600080fd5b61083a87828601610722565b825250610849602084016107af565b602082015260408381013590820152606080840135908201526080808401359082015260a0808401359082015260c0808401359082015260e08084013590820152610100808401359082015261012080840135908201526101408084013590820152610160808401359082015261018080840135908201526101a080840135908201526101c080840135908201526101e08084013590820152610200808401359082015261022080840135908201526102409283013592810192909252509392505050565b6000806020838503121561092157600080fd5b823567ffffffffffffffff8082111561093957600080fd5b818501915085601f83011261094d57600080fd5b81358181111561095c57600080fd5b86602082850101111561096e57600080fd5b60209290920196919550909350505050565b8035601181106107d357600080fd5b6000602082840312156109a157600080fd5b6109aa82610980565b9392505050565b600080604083850312156109c457600080fd5b6109cd83610980565b946020939093013593505050565b600181811c908216806109ef57607f821691505b60208210811415610a1057634e487b7160e01b600052602260045260246000fd5b50919050565b634e487b7160e01b600052602160045260246000fdfea26469706673582212206da345b85bd92c1bbecf3fad41c3209ff95235b541b3dc501477ac88d4d26e8964736f6c63430008090033",
  "linkReferences": {},
  "deployedLinkReferences": {}
}