{
  "_format": "hh-sol-artifact-1",
  "contractName": "SuperproToken",
  "sourceName": "contracts/SuperproToken.sol",
  "abi": [
    {
      "inputs": [
        {
          "internalType": "address",
          "name": "addr",
          "type": "address"
        },
        {
          "internalType": "uint256",
          "name": "supply",
          "type": "uint256"
        },
        {
          "internalType": "string",
          "name": "ticker",
          "type": "string"
        },
        {
          "internalType": "string",
          "name": "description",
          "type": "string"
        }
      ],
      "stateMutability": "nonpayable",
      "type": "constructor"
    },
    {
      "anonymous": false,
      "inputs": [
        {
          "indexed": true,
          "internalType": "address",
          "name": "owner",
          "type": "address"
        },
        {
          "indexed": true,
          "internalType": "address",
          "name": "spender",
          "type": "address"
        },
        {
          "indexed": false,
          "internalType": "uint256",
          "name": "value",
          "type": "uint256"
        }
      ],
      "name": "Approval",
      "type": "event"
    },
    {
      "anonymous": false,
      "inputs": [
        {
          "indexed": true,
          "internalType": "address",
          "name": "from",
          "type": "address"
        },
        {
          "indexed": true,
          "internalType": "address",
          "name": "to",
          "type": "address"
        },
        {
          "indexed": false,
          "internalType": "uint256",
          "name": "value",
          "type": "uint256"
        }
      ],
      "name": "Transfer",
      "type": "event"
    },
    {
      "inputs": [
        {
          "internalType": "address",
          "name": "owner",
          "type": "address"
        },
        {
          "internalType": "address",
          "name": "spender",
          "type": "address"
        }
      ],
      "name": "allowance",
      "outputs": [
        {
          "internalType": "uint256",
          "name": "",
          "type": "uint256"
        }
      ],
      "stateMutability": "view",
      "type": "function"
    },
    {
      "inputs": [
        {
          "internalType": "address",
          "name": "spender",
          "type": "address"
        },
        {
          "internalType": "uint256",
          "name": "amount",
          "type": "uint256"
        }
      ],
      "name": "approve",
      "outputs": [
        {
          "internalType": "bool",
          "name": "",
          "type": "bool"
        }
      ],
      "stateMutability": "nonpayable",
      "type": "function"
    },
    {
      "inputs": [
        {
          "internalType": "address",
          "name": "account",
          "type": "address"
        }
      ],
      "name": "balanceOf",
      "outputs": [
        {
          "internalType": "uint256",
          "name": "",
          "type": "uint256"
        }
      ],
      "stateMutability": "view",
      "type": "function"
    },
    {
      "inputs": [
        {
          "internalType": "uint256",
          "name": "amount",
          "type": "uint256"
        }
      ],
      "name": "burn",
      "outputs": [],
      "stateMutability": "nonpayable",
      "type": "function"
    },
    {
      "inputs": [
        {
          "internalType": "address",
          "name": "account",
          "type": "address"
        },
        {
          "internalType": "uint256",
          "name": "amount",
          "type": "uint256"
        }
      ],
      "name": "burnFrom",
      "outputs": [],
      "stateMutability": "nonpayable",
      "type": "function"
    },
    {
      "inputs": [],
      "name": "decimals",
      "outputs": [
        {
          "internalType": "uint8",
          "name": "",
          "type": "uint8"
        }
      ],
      "stateMutability": "view",
      "type": "function"
    },
    {
      "inputs": [
        {
          "internalType": "address",
          "name": "spender",
          "type": "address"
        },
        {
          "internalType": "uint256",
          "name": "subtractedValue",
          "type": "uint256"
        }
      ],
      "name": "decreaseAllowance",
      "outputs": [
        {
          "internalType": "bool",
          "name": "",
          "type": "bool"
        }
      ],
      "stateMutability": "nonpayable",
      "type": "function"
    },
    {
      "inputs": [
        {
          "internalType": "address",
          "name": "spender",
          "type": "address"
        },
        {
          "internalType": "uint256",
          "name": "addedValue",
          "type": "uint256"
        }
      ],
      "name": "increaseAllowance",
      "outputs": [
        {
          "internalType": "bool",
          "name": "",
          "type": "bool"
        }
      ],
      "stateMutability": "nonpayable",
      "type": "function"
    },
    {
      "inputs": [
        {
          "internalType": "address",
          "name": "receiver",
          "type": "address"
        },
        {
          "internalType": "uint256",
          "name": "amount",
          "type": "uint256"
        }
      ],
      "name": "mint",
      "outputs": [],
      "stateMutability": "nonpayable",
      "type": "function"
    },
    {
      "inputs": [],
      "name": "name",
      "outputs": [
        {
          "internalType": "string",
          "name": "",
          "type": "string"
        }
      ],
      "stateMutability": "view",
      "type": "function"
    },
    {
      "inputs": [],
      "name": "symbol",
      "outputs": [
        {
          "internalType": "string",
          "name": "",
          "type": "string"
        }
      ],
      "stateMutability": "view",
      "type": "function"
    },
    {
      "inputs": [],
      "name": "totalSupply",
      "outputs": [
        {
          "internalType": "uint256",
          "name": "",
          "type": "uint256"
        }
      ],
      "stateMutability": "view",
      "type": "function"
    },
    {
      "inputs": [
        {
          "internalType": "address",
          "name": "to",
          "type": "address"
        },
        {
          "internalType": "uint256",
          "name": "amount",
          "type": "uint256"
        }
      ],
      "name": "transfer",
      "outputs": [
        {
          "internalType": "bool",
          "name": "",
          "type": "bool"
        }
      ],
      "stateMutability": "nonpayable",
      "type": "function"
    },
    {
      "inputs": [
        {
          "internalType": "address",
          "name": "from",
          "type": "address"
        },
        {
          "internalType": "address",
          "name": "to",
          "type": "address"
        },
        {
          "internalType": "uint256",
          "name": "amount",
          "type": "uint256"
        }
      ],
      "name": "transferFrom",
      "outputs": [
        {
          "internalType": "bool",
          "name": "",
          "type": "bool"
        }
      ],
      "stateMutability": "nonpayable",
      "type": "function"
    }
  ],
  "bytecode": "0x60806040523480156200001157600080fd5b50604051620012e3380380620012e38339810160408190526200003491620002d8565b8051819083906200004d9060039060208501906200017f565b508051620000639060049060208401906200017f565b5050600580546001600160a01b0319166001600160a01b038716179055506200008d338462000097565b50505050620003e0565b6001600160a01b038216620000f25760405162461bcd60e51b815260206004820152601f60248201527f45524332303a206d696e7420746f20746865207a65726f206164647265737300604482015260640160405180910390fd5b806002600082825462000106919062000368565b90915550506001600160a01b038216600090815260208190526040812080548392906200013590849062000368565b90915550506040518181526001600160a01b038316906000907fddf252ad1be2c89b69c2b068fc378daa952ba7f163c4a11628f55a4df523b3ef9060200160405180910390a35050565b8280546200018d906200038d565b90600052602060002090601f016020900481019282620001b15760008555620001fc565b82601f10620001cc57805160ff1916838001178555620001fc565b82800160010185558215620001fc579182015b82811115620001fc578251825591602001919060010190620001df565b506200020a9291506200020e565b5090565b5b808211156200020a57600081556001016200020f565b600082601f83011262000236578081fd5b81516001600160401b0380821115620002535762000253620003ca565b604051601f8301601f19908116603f011681019082821181831017156200027e576200027e620003ca565b816040528381526020925086838588010111156200029a578485fd5b8491505b83821015620002bd57858201830151818301840152908201906200029e565b83821115620002ce57848385830101525b9695505050505050565b60008060008060808587031215620002ee578384fd5b84516001600160a01b038116811462000305578485fd5b6020860151604087015191955093506001600160401b038082111562000329578384fd5b620003378883890162000225565b935060608701519150808211156200034d578283fd5b506200035c8782880162000225565b91505092959194509250565b600082198211156200038857634e487b7160e01b81526011600452602481fd5b500190565b600181811c90821680620003a257607f821691505b60208210811415620003c457634e487b7160e01b600052602260045260246000fd5b50919050565b634e487b7160e01b600052604160045260246000fd5b610ef380620003f06000396000f3fe608060405234801561001057600080fd5b50600436106100ea5760003560e01c806342966c681161008c57806395d89b411161006657806395d89b41146101db578063a457c2d7146101e3578063a9059cbb146101f6578063dd62ed3e1461020957600080fd5b806342966c681461018c57806370a082311461019f57806379cc6790146101c857600080fd5b806323b872dd116100c857806323b872dd14610142578063313ce56714610155578063395093511461016457806340c10f191461017757600080fd5b806306fdde03146100ef578063095ea7b31461010d57806318160ddd14610130575b600080fd5b6100f7610242565b6040516101049190610dd5565b60405180910390f35b61012061011b366004610d73565b6102d4565b6040519015158152602001610104565b6002545b604051908152602001610104565b610120610150366004610d33565b6102ec565b60405160128152602001610104565b610120610172366004610d73565b610310565b61018a610185366004610d73565b61034f565b005b61018a61019a366004610dbd565b61056a565b6101346101ad366004610cbc565b6001600160a01b031660009081526020819052604090205490565b61018a6101d6366004610d73565b610577565b6100f7610590565b6101206101f1366004610d73565b61059f565b610120610204366004610d73565b610649565b610134610217366004610cfb565b6001600160a01b03918216600090815260016020908152604080832093909416825291909152205490565b60606003805461025190610e57565b80601f016020809104026020016040519081016040528092919081815260200182805461027d90610e57565b80156102ca5780601f1061029f576101008083540402835291602001916102ca565b820191906000526020600020905b8154815290600101906020018083116102ad57829003601f168201915b5050505050905090565b6000336102e2818585610657565b5060019392505050565b6000336102fa8582856107af565b610305858585610841565b506001949350505050565b3360008181526001602090815260408083206001600160a01b03871684529091528120549091906102e2908290869061034a908790610e28565b610657565b600560009054906101000a90046001600160a01b03166001600160a01b031663f1f0bd016040518163ffffffff1660e01b815260040160206040518083038186803b15801561039d57600080fd5b505afa1580156103b1573d6000803e3d6000fd5b505050506040513d601f19601f820116820180604052508101906103d59190610cdf565b600580547fffffffffffffffffffffffff0000000000000000000000000000000000000000166001600160a01b039290921691821790556040517f7c80bb4f00000000000000000000000000000000000000000000000000000000815233600482015260009190637c80bb4f9060240160206040518083038186803b15801561045d57600080fd5b505afa158015610471573d6000803e3d6000fd5b505050506040513d601f19601f820116820180604052508101906104959190610d9e565b9050600281600b8111156104b957634e487b7160e01b600052602160045260246000fd5b14806104e45750600881600b8111156104e257634e487b7160e01b600052602160045260246000fd5b145b61055b5760405162461bcd60e51b815260206004820152603460248201527f4f6e6c79205374616b696e6720616e6420436f6e73656e73757320636f6e747260448201527f616374732063616e206d696e7420746f6b656e7300000000000000000000000060648201526084015b60405180910390fd5b6105658383610a58565b505050565b6105743382610b37565b50565b6105828233836107af565b61058c8282610b37565b5050565b60606004805461025190610e57565b3360008181526001602090815260408083206001600160a01b03871684529091528120549091908381101561063c5760405162461bcd60e51b815260206004820152602560248201527f45524332303a2064656372656173656420616c6c6f77616e63652062656c6f7760448201527f207a65726f0000000000000000000000000000000000000000000000000000006064820152608401610552565b6103058286868403610657565b6000336102e2818585610841565b6001600160a01b0383166106d25760405162461bcd60e51b8152602060048201526024808201527f45524332303a20617070726f76652066726f6d20746865207a65726f2061646460448201527f72657373000000000000000000000000000000000000000000000000000000006064820152608401610552565b6001600160a01b03821661074e5760405162461bcd60e51b815260206004820152602260248201527f45524332303a20617070726f766520746f20746865207a65726f20616464726560448201527f73730000000000000000000000000000000000000000000000000000000000006064820152608401610552565b6001600160a01b0383811660008181526001602090815260408083209487168084529482529182902085905590518481527f8c5be1e5ebec7d5bd14f71427d1e84f3dd0314c0f7b2291e5b200ac8c7c3b925910160405180910390a3505050565b6001600160a01b03838116600090815260016020908152604080832093861683529290522054600019811461083b578181101561082e5760405162461bcd60e51b815260206004820152601d60248201527f45524332303a20696e73756666696369656e7420616c6c6f77616e63650000006044820152606401610552565b61083b8484848403610657565b50505050565b6001600160a01b0383166108bd5760405162461bcd60e51b815260206004820152602560248201527f45524332303a207472616e736665722066726f6d20746865207a65726f20616460448201527f64726573730000000000000000000000000000000000000000000000000000006064820152608401610552565b6001600160a01b0382166109395760405162461bcd60e51b815260206004820152602360248201527f45524332303a207472616e7366657220746f20746865207a65726f206164647260448201527f65737300000000000000000000000000000000000000000000000000000000006064820152608401610552565b6001600160a01b038316600090815260208190526040902054818110156109c85760405162461bcd60e51b815260206004820152602660248201527f45524332303a207472616e7366657220616d6f756e742065786365656473206260448201527f616c616e636500000000000000000000000000000000000000000000000000006064820152608401610552565b6001600160a01b038085166000908152602081905260408082208585039055918516815290812080548492906109ff908490610e28565b92505081905550826001600160a01b0316846001600160a01b03167fddf252ad1be2c89b69c2b068fc378daa952ba7f163c4a11628f55a4df523b3ef84604051610a4b91815260200190565b60405180910390a361083b565b6001600160a01b038216610aae5760405162461bcd60e51b815260206004820152601f60248201527f45524332303a206d696e7420746f20746865207a65726f2061646472657373006044820152606401610552565b8060026000828254610ac09190610e28565b90915550506001600160a01b03821660009081526020819052604081208054839290610aed908490610e28565b90915550506040518181526001600160a01b038316906000907fddf252ad1be2c89b69c2b068fc378daa952ba7f163c4a11628f55a4df523b3ef9060200160405180910390a35050565b6001600160a01b038216610bb35760405162461bcd60e51b815260206004820152602160248201527f45524332303a206275726e2066726f6d20746865207a65726f2061646472657360448201527f73000000000000000000000000000000000000000000000000000000000000006064820152608401610552565b6001600160a01b03821660009081526020819052604090205481811015610c425760405162461bcd60e51b815260206004820152602260248201527f45524332303a206275726e20616d6f756e7420657863656564732062616c616e60448201527f63650000000000000000000000000000000000000000000000000000000000006064820152608401610552565b6001600160a01b0383166000908152602081905260408120838303905560028054849290610c71908490610e40565b90915550506040518281526000906001600160a01b038516907fddf252ad1be2c89b69c2b068fc378daa952ba7f163c4a11628f55a4df523b3ef9060200160405180910390a3505050565b600060208284031215610ccd578081fd5b8135610cd881610ea8565b9392505050565b600060208284031215610cf0578081fd5b8151610cd881610ea8565b60008060408385031215610d0d578081fd5b8235610d1881610ea8565b91506020830135610d2881610ea8565b809150509250929050565b600080600060608486031215610d47578081fd5b8335610d5281610ea8565b92506020840135610d6281610ea8565b929592945050506040919091013590565b60008060408385031215610d85578182fd5b8235610d9081610ea8565b946020939093013593505050565b600060208284031215610daf578081fd5b8151600c8110610cd8578182fd5b600060208284031215610dce578081fd5b5035919050565b6000602080835283518082850152825b81811015610e0157858101830151858201604001528201610de5565b81811115610e125783604083870101525b50601f01601f1916929092016040019392505050565b60008219821115610e3b57610e3b610e92565b500190565b600082821015610e5257610e52610e92565b500390565b600181811c90821680610e6b57607f821691505b60208210811415610e8c57634e487b7160e01b600052602260045260246000fd5b50919050565b634e487b7160e01b600052601160045260246000fd5b6001600160a01b038116811461057457600080fdfea2646970667358221220a87ae9726622069bc658454d08ce4501624e7eee10a6ec3cc0ac8b84edc3037664736f6c63430008040033",
  "linkReferences": {},
  "deployedLinkReferences": {}
}