{
  "_format": "hh-sol-artifact-1",
  "contractName": "SuperproToken",
  "sourceName": "contracts/SuperproToken.sol",
  "abi": [
    {
      "inputs": [
        {
          "internalType": "address",
          "name": "addr",
          "type": "address"
        },
        {
          "internalType": "uint256",
          "name": "supply",
          "type": "uint256"
        },
        {
          "internalType": "string",
          "name": "ticker",
          "type": "string"
        },
        {
          "internalType": "string",
          "name": "description",
          "type": "string"
        }
      ],
      "stateMutability": "nonpayable",
      "type": "constructor"
    },
    {
      "anonymous": false,
      "inputs": [
        {
          "indexed": true,
          "internalType": "address",
          "name": "owner",
          "type": "address"
        },
        {
          "indexed": true,
          "internalType": "address",
          "name": "spender",
          "type": "address"
        },
        {
          "indexed": false,
          "internalType": "uint256",
          "name": "value",
          "type": "uint256"
        }
      ],
      "name": "Approval",
      "type": "event"
    },
    {
      "anonymous": false,
      "inputs": [
        {
          "indexed": true,
          "internalType": "address",
          "name": "from",
          "type": "address"
        },
        {
          "indexed": true,
          "internalType": "address",
          "name": "to",
          "type": "address"
        },
        {
          "indexed": false,
          "internalType": "uint256",
          "name": "value",
          "type": "uint256"
        }
      ],
      "name": "Transfer",
      "type": "event"
    },
    {
      "inputs": [
        {
          "internalType": "address",
          "name": "owner",
          "type": "address"
        },
        {
          "internalType": "address",
          "name": "spender",
          "type": "address"
        }
      ],
      "name": "allowance",
      "outputs": [
        {
          "internalType": "uint256",
          "name": "",
          "type": "uint256"
        }
      ],
      "stateMutability": "view",
      "type": "function"
    },
    {
      "inputs": [
        {
          "internalType": "address",
          "name": "spender",
          "type": "address"
        },
        {
          "internalType": "uint256",
          "name": "amount",
          "type": "uint256"
        }
      ],
      "name": "approve",
      "outputs": [
        {
          "internalType": "bool",
          "name": "",
          "type": "bool"
        }
      ],
      "stateMutability": "nonpayable",
      "type": "function"
    },
    {
      "inputs": [
        {
          "internalType": "address",
          "name": "account",
          "type": "address"
        }
      ],
      "name": "balanceOf",
      "outputs": [
        {
          "internalType": "uint256",
          "name": "",
          "type": "uint256"
        }
      ],
      "stateMutability": "view",
      "type": "function"
    },
    {
      "inputs": [
        {
          "internalType": "uint256",
          "name": "amount",
          "type": "uint256"
        }
      ],
      "name": "burn",
      "outputs": [],
      "stateMutability": "nonpayable",
      "type": "function"
    },
    {
      "inputs": [
        {
          "internalType": "address",
          "name": "account",
          "type": "address"
        },
        {
          "internalType": "uint256",
          "name": "amount",
          "type": "uint256"
        }
      ],
      "name": "burnFrom",
      "outputs": [],
      "stateMutability": "nonpayable",
      "type": "function"
    },
    {
      "inputs": [],
      "name": "decimals",
      "outputs": [
        {
          "internalType": "uint8",
          "name": "",
          "type": "uint8"
        }
      ],
      "stateMutability": "view",
      "type": "function"
    },
    {
      "inputs": [
        {
          "internalType": "address",
          "name": "spender",
          "type": "address"
        },
        {
          "internalType": "uint256",
          "name": "subtractedValue",
          "type": "uint256"
        }
      ],
      "name": "decreaseAllowance",
      "outputs": [
        {
          "internalType": "bool",
          "name": "",
          "type": "bool"
        }
      ],
      "stateMutability": "nonpayable",
      "type": "function"
    },
    {
      "inputs": [
        {
          "internalType": "address",
          "name": "spender",
          "type": "address"
        },
        {
          "internalType": "uint256",
          "name": "addedValue",
          "type": "uint256"
        }
      ],
      "name": "increaseAllowance",
      "outputs": [
        {
          "internalType": "bool",
          "name": "",
          "type": "bool"
        }
      ],
      "stateMutability": "nonpayable",
      "type": "function"
    },
    {
      "inputs": [
        {
          "internalType": "address",
          "name": "receiver",
          "type": "address"
        },
        {
          "internalType": "uint256",
          "name": "amount",
          "type": "uint256"
        }
      ],
      "name": "mint",
      "outputs": [],
      "stateMutability": "nonpayable",
      "type": "function"
    },
    {
      "inputs": [],
      "name": "name",
      "outputs": [
        {
          "internalType": "string",
          "name": "",
          "type": "string"
        }
      ],
      "stateMutability": "view",
      "type": "function"
    },
    {
      "inputs": [],
      "name": "symbol",
      "outputs": [
        {
          "internalType": "string",
          "name": "",
          "type": "string"
        }
      ],
      "stateMutability": "view",
      "type": "function"
    },
    {
      "inputs": [],
      "name": "totalSupply",
      "outputs": [
        {
          "internalType": "uint256",
          "name": "",
          "type": "uint256"
        }
      ],
      "stateMutability": "view",
      "type": "function"
    },
    {
      "inputs": [
        {
          "internalType": "address",
          "name": "to",
          "type": "address"
        },
        {
          "internalType": "uint256",
          "name": "amount",
          "type": "uint256"
        }
      ],
      "name": "transfer",
      "outputs": [
        {
          "internalType": "bool",
          "name": "",
          "type": "bool"
        }
      ],
      "stateMutability": "nonpayable",
      "type": "function"
    },
    {
      "inputs": [
        {
          "internalType": "address",
          "name": "from",
          "type": "address"
        },
        {
          "internalType": "address",
          "name": "to",
          "type": "address"
        },
        {
          "internalType": "uint256",
          "name": "amount",
          "type": "uint256"
        }
      ],
      "name": "transferFrom",
      "outputs": [
        {
          "internalType": "bool",
          "name": "",
          "type": "bool"
        }
      ],
      "stateMutability": "nonpayable",
      "type": "function"
    }
  ],
  "bytecode": "0x60806040523480156200001157600080fd5b506040516200109e3803806200109e8339810160408190526200003491620002f2565b8051819083906200004d9060039060208501906200017f565b508051620000639060049060208401906200017f565b5050600580546001600160a01b0319166001600160a01b038716179055506200008d338462000097565b50505050620003ea565b6001600160a01b038216620000f25760405162461bcd60e51b815260206004820152601f60248201527f45524332303a206d696e7420746f20746865207a65726f206164647265737300604482015260640160405180910390fd5b806002600082825462000106919062000386565b90915550506001600160a01b038216600090815260208190526040812080548392906200013590849062000386565b90915550506040518181526001600160a01b038316906000907fddf252ad1be2c89b69c2b068fc378daa952ba7f163c4a11628f55a4df523b3ef9060200160405180910390a35050565b8280546200018d90620003ad565b90600052602060002090601f016020900481019282620001b15760008555620001fc565b82601f10620001cc57805160ff1916838001178555620001fc565b82800160010185558215620001fc579182015b82811115620001fc578251825591602001919060010190620001df565b506200020a9291506200020e565b5090565b5b808211156200020a57600081556001016200020f565b634e487b7160e01b600052604160045260246000fd5b600082601f8301126200024d57600080fd5b81516001600160401b03808211156200026a576200026a62000225565b604051601f8301601f19908116603f0116810190828211818310171562000295576200029562000225565b81604052838152602092508683858801011115620002b257600080fd5b600091505b83821015620002d65785820183015181830184015290820190620002b7565b83821115620002e85760008385830101525b9695505050505050565b600080600080608085870312156200030957600080fd5b84516001600160a01b03811681146200032157600080fd5b6020860151604087015191955093506001600160401b03808211156200034657600080fd5b62000354888389016200023b565b935060608701519150808211156200036b57600080fd5b506200037a878288016200023b565b91505092959194509250565b60008219821115620003a857634e487b7160e01b600052601160045260246000fd5b500190565b600181811c90821680620003c257607f821691505b60208210811415620003e457634e487b7160e01b600052602260045260246000fd5b50919050565b610ca480620003fa6000396000f3fe608060405234801561001057600080fd5b50600436106100ea5760003560e01c806342966c681161008c57806395d89b411161006657806395d89b41146101db578063a457c2d7146101e3578063a9059cbb146101f6578063dd62ed3e1461020957600080fd5b806342966c681461018c57806370a082311461019f57806379cc6790146101c857600080fd5b806323b872dd116100c857806323b872dd14610142578063313ce56714610155578063395093511461016457806340c10f191461017757600080fd5b806306fdde03146100ef578063095ea7b31461010d57806318160ddd14610130575b600080fd5b6100f7610242565b6040516101049190610aa9565b60405180910390f35b61012061011b366004610b1a565b6102d4565b6040519015158152602001610104565b6002545b604051908152602001610104565b610120610150366004610b44565b6102ec565b60405160128152602001610104565b610120610172366004610b1a565b610310565b61018a610185366004610b1a565b61034f565b005b61018a61019a366004610b80565b61035d565b6101346101ad366004610b99565b6001600160a01b031660009081526020819052604090205490565b61018a6101d6366004610b1a565b61036a565b6100f761037f565b6101206101f1366004610b1a565b61038e565b610120610204366004610b1a565b61043d565b610134610217366004610bbb565b6001600160a01b03918216600090815260016020908152604080832093909416825291909152205490565b60606003805461025190610bee565b80601f016020809104026020016040519081016040528092919081815260200182805461027d90610bee565b80156102ca5780601f1061029f576101008083540402835291602001916102ca565b820191906000526020600020905b8154815290600101906020018083116102ad57829003601f168201915b5050505050905090565b6000336102e281858561044b565b5060019392505050565b6000336102fa8582856105a4565b610305858585610636565b506001949350505050565b3360008181526001602090815260408083206001600160a01b03871684529091528120549091906102e2908290869061034a908790610c3f565b61044b565b610359828261084d565b5050565b610367338261092c565b50565b6103758233836105a4565b610359828261092c565b60606004805461025190610bee565b3360008181526001602090815260408083206001600160a01b0387168452909152812054909190838110156104305760405162461bcd60e51b815260206004820152602560248201527f45524332303a2064656372656173656420616c6c6f77616e63652062656c6f7760448201527f207a65726f00000000000000000000000000000000000000000000000000000060648201526084015b60405180910390fd5b610305828686840361044b565b6000336102e2818585610636565b6001600160a01b0383166104c65760405162461bcd60e51b8152602060048201526024808201527f45524332303a20617070726f76652066726f6d20746865207a65726f2061646460448201527f72657373000000000000000000000000000000000000000000000000000000006064820152608401610427565b6001600160a01b0382166105425760405162461bcd60e51b815260206004820152602260248201527f45524332303a20617070726f766520746f20746865207a65726f20616464726560448201527f73730000000000000000000000000000000000000000000000000000000000006064820152608401610427565b6001600160a01b0383811660008181526001602090815260408083209487168084529482529182902085905590518481527f8c5be1e5ebec7d5bd14f71427d1e84f3dd0314c0f7b2291e5b200ac8c7c3b92591015b60405180910390a3505050565b6001600160a01b03838116600090815260016020908152604080832093861683529290522054600019811461063057818110156106235760405162461bcd60e51b815260206004820152601d60248201527f45524332303a20696e73756666696369656e7420616c6c6f77616e63650000006044820152606401610427565b610630848484840361044b565b50505050565b6001600160a01b0383166106b25760405162461bcd60e51b815260206004820152602560248201527f45524332303a207472616e736665722066726f6d20746865207a65726f20616460448201527f64726573730000000000000000000000000000000000000000000000000000006064820152608401610427565b6001600160a01b03821661072e5760405162461bcd60e51b815260206004820152602360248201527f45524332303a207472616e7366657220746f20746865207a65726f206164647260448201527f65737300000000000000000000000000000000000000000000000000000000006064820152608401610427565b6001600160a01b038316600090815260208190526040902054818110156107bd5760405162461bcd60e51b815260206004820152602660248201527f45524332303a207472616e7366657220616d6f756e742065786365656473206260448201527f616c616e636500000000000000000000000000000000000000000000000000006064820152608401610427565b6001600160a01b038085166000908152602081905260408082208585039055918516815290812080548492906107f4908490610c3f565b92505081905550826001600160a01b0316846001600160a01b03167fddf252ad1be2c89b69c2b068fc378daa952ba7f163c4a11628f55a4df523b3ef8460405161084091815260200190565b60405180910390a3610630565b6001600160a01b0382166108a35760405162461bcd60e51b815260206004820152601f60248201527f45524332303a206d696e7420746f20746865207a65726f2061646472657373006044820152606401610427565b80600260008282546108b59190610c3f565b90915550506001600160a01b038216600090815260208190526040812080548392906108e2908490610c3f565b90915550506040518181526001600160a01b038316906000907fddf252ad1be2c89b69c2b068fc378daa952ba7f163c4a11628f55a4df523b3ef9060200160405180910390a35050565b6001600160a01b0382166109a85760405162461bcd60e51b815260206004820152602160248201527f45524332303a206275726e2066726f6d20746865207a65726f2061646472657360448201527f73000000000000000000000000000000000000000000000000000000000000006064820152608401610427565b6001600160a01b03821660009081526020819052604090205481811015610a375760405162461bcd60e51b815260206004820152602260248201527f45524332303a206275726e20616d6f756e7420657863656564732062616c616e60448201527f63650000000000000000000000000000000000000000000000000000000000006064820152608401610427565b6001600160a01b0383166000908152602081905260408120838303905560028054849290610a66908490610c57565b90915550506040518281526000906001600160a01b038516907fddf252ad1be2c89b69c2b068fc378daa952ba7f163c4a11628f55a4df523b3ef90602001610597565b600060208083528351808285015260005b81811015610ad657858101830151858201604001528201610aba565b81811115610ae8576000604083870101525b50601f01601f1916929092016040019392505050565b80356001600160a01b0381168114610b1557600080fd5b919050565b60008060408385031215610b2d57600080fd5b610b3683610afe565b946020939093013593505050565b600080600060608486031215610b5957600080fd5b610b6284610afe565b9250610b7060208501610afe565b9150604084013590509250925092565b600060208284031215610b9257600080fd5b5035919050565b600060208284031215610bab57600080fd5b610bb482610afe565b9392505050565b60008060408385031215610bce57600080fd5b610bd783610afe565b9150610be560208401610afe565b90509250929050565b600181811c90821680610c0257607f821691505b60208210811415610c2357634e487b7160e01b600052602260045260246000fd5b50919050565b634e487b7160e01b600052601160045260246000fd5b60008219821115610c5257610c52610c29565b500190565b600082821015610c6957610c69610c29565b50039056fea2646970667358221220ab566c499636c08dc3c840ea13aceee8b1793b4cd17cccaa8c007c24885c8e1964736f6c63430008090033",
  "linkReferences": {},
  "deployedLinkReferences": {}
}