{
    "_format": "hh-sol-artifact-1",
    "contractName": "Superpro",
    "sourceName": "contracts/Superpro.sol",
    "abi": [
        {
            "inputs": [],
            "stateMutability": "nonpayable",
            "type": "constructor"
        },
        {
            "inputs": [
                {
                    "internalType": "address",
                    "name": "",
                    "type": "address"
                }
            ],
            "name": "UnknownContract",
            "type": "error"
        },
        {
            "inputs": [
                {
                    "internalType": "enum ContractName",
                    "name": "name",
                    "type": "uint8"
                }
            ],
            "name": "getAddress",
            "outputs": [
                {
                    "internalType": "address",
                    "name": "",
                    "type": "address"
                }
            ],
            "stateMutability": "view",
            "type": "function"
        },
        {
            "inputs": [],
            "name": "getLatestSuperpro",
            "outputs": [
                {
                    "internalType": "address",
                    "name": "",
                    "type": "address"
                }
            ],
            "stateMutability": "view",
            "type": "function"
        },
        {
            "inputs": [
                {
                    "internalType": "address",
                    "name": "contractAddress",
                    "type": "address"
                }
            ],
            "name": "getNameByAddress",
            "outputs": [
                {
                    "internalType": "enum ContractName",
                    "name": "name",
                    "type": "uint8"
                }
            ],
            "stateMutability": "view",
            "type": "function"
        },
        {
            "inputs": [
                {
                    "internalType": "enum ParamName",
                    "name": "name",
                    "type": "uint8"
                }
            ],
            "name": "getParam",
            "outputs": [
                {
                    "internalType": "uint256",
                    "name": "",
                    "type": "uint256"
                }
            ],
            "stateMutability": "view",
            "type": "function"
        },
        {
            "inputs": [
                {
                    "components": [
                        {
                            "components": [
                                {
                                    "internalType": "address",
                                    "name": "ordersFactory",
                                    "type": "address"
                                },
                                {
                                    "internalType": "address",
                                    "name": "providerRegistry",
                                    "type": "address"
                                },
                                {
                                    "internalType": "address",
                                    "name": "staking",
                                    "type": "address"
                                },
                                {
                                    "internalType": "address",
                                    "name": "superpro",
                                    "type": "address"
                                },
                                {
                                    "internalType": "address",
                                    "name": "teeOffersFactory",
                                    "type": "address"
                                },
                                {
                                    "internalType": "address",
                                    "name": "token",
                                    "type": "address"
                                },
                                {
                                    "internalType": "address",
                                    "name": "valueOffersFactory",
                                    "type": "address"
                                },
                                {
                                    "internalType": "address",
                                    "name": "voting",
                                    "type": "address"
                                },
                                {
                                    "internalType": "address",
                                    "name": "consensus",
                                    "type": "address"
                                },
                                {
                                    "internalType": "address",
                                    "name": "suspicious",
                                    "type": "address"
                                },
                                {
                                    "internalType": "address",
                                    "name": "lastBlocks",
                                    "type": "address"
                                },
                                {
                                    "internalType": "address",
                                    "name": "epochs",
                                    "type": "address"
                                }
                            ],
                            "internalType": "struct ContractAddresses",
                            "name": "addrs",
                            "type": "tuple"
                        },
                        {
                            "components": [
                                {
                                    "internalType": "uint256",
                                    "name": "orderMinimumDeposit",
                                    "type": "uint256"
                                },
                                {
                                    "internalType": "uint256",
                                    "name": "profitWithdrawDelayDays",
                                    "type": "uint256"
                                },
                                {
                                    "internalType": "uint256",
                                    "name": "minSecurityDeposit",
                                    "type": "uint256"
                                },
                                {
                                    "internalType": "uint256",
                                    "name": "stakingPercentPerDay",
                                    "type": "uint256"
                                },
                                {
                                    "internalType": "uint256",
                                    "name": "stopDelayDays",
                                    "type": "uint256"
                                },
                                {
                                    "internalType": "uint256",
                                    "name": "teeOfferSecurityDeposit",
                                    "type": "uint256"
                                },
                                {
                                    "internalType": "uint256",
                                    "name": "offerSecurityDeposit",
                                    "type": "uint256"
                                },
                                {
                                    "internalType": "uint256",
                                    "name": "teeRewardPerEpoch",
                                    "type": "uint256"
                                },
                                {
                                    "internalType": "uint256",
                                    "name": "votingDepsit",
                                    "type": "uint256"
                                },
                                {
                                    "internalType": "uint256",
                                    "name": "votingDurationDays",
                                    "type": "uint256"
                                },
                                {
                                    "internalType": "uint256",
                                    "name": "votingExecutionTimeoutDays",
                                    "type": "uint256"
                                },
                                {
                                    "internalType": "uint256",
                                    "name": "votingHoldDays",
                                    "type": "uint256"
                                },
                                {
                                    "internalType": "uint256",
                                    "name": "votingMinumumTurnout",
                                    "type": "uint256"
                                },
                                {
                                    "internalType": "uint256",
                                    "name": "L1",
                                    "type": "uint256"
                                },
                                {
                                    "internalType": "uint256",
                                    "name": "L2",
                                    "type": "uint256"
                                },
                                {
                                    "internalType": "uint256",
                                    "name": "Threshold",
                                    "type": "uint256"
                                },
                                {
                                    "internalType": "uint256",
                                    "name": "epochDurationSeconds",
                                    "type": "uint256"
                                }
                            ],
                            "internalType": "struct SuperproParams",
                            "name": "params",
                            "type": "tuple"
                        }
                    ],
                    "internalType": "struct SuperproConfig",
                    "name": "config",
                    "type": "tuple"
                }
            ],
            "name": "init",
            "outputs": [],
            "stateMutability": "nonpayable",
            "type": "function"
        },
        {
            "inputs": [
                {
                    "internalType": "enum ContractName",
                    "name": "name",
                    "type": "uint8"
                },
                {
                    "internalType": "address",
                    "name": "newAddress",
                    "type": "address"
                }
            ],
            "name": "setAddress",
            "outputs": [],
            "stateMutability": "nonpayable",
            "type": "function"
        },
        {
            "inputs": [
                {
                    "internalType": "enum ParamName",
                    "name": "name",
                    "type": "uint8"
                },
                {
                    "internalType": "uint256",
                    "name": "value",
                    "type": "uint256"
                }
            ],
            "name": "setParam",
            "outputs": [],
            "stateMutability": "nonpayable",
            "type": "function"
        }
    ],
    "bytecode": "0x608060405234801561001057600080fd5b50600080546001600160a01b0319163317905561193a806100326000396000f3fe608060405234801561001057600080fd5b506004361061007d5760003560e01c80637c80bb4f1161005b5780637c80bb4f146100d0578063bcaa0c55146100f0578063c1cca2b31461011b578063f1f0bd011461012e57600080fd5b806303a2216d146100825780630589c4e5146100a857806367f92864146100bd575b600080fd5b6100956100903660046116cb565b610136565b6040519081526020015b60405180910390f35b6100bb6100b6366004611695565b61020c565b005b6100bb6100cb36600461170e565b6103df565b6100e36100de36600461163c565b610dcb565b60405161009f9190611829565b6101036100fe36600461167b565b6111dd565b6040516001600160a01b03909116815260200161009f565b6100bb6101293660046116e5565b6112b7565b610103611413565b6003600090815260016020527f7dfe757ecd65cbd7922a9c0161e935dd7fdbcc0e999689c7d31633896b1fc60b546001600160a01b03166101b25760405162461bcd60e51b8152602060048201526011602482015270139bdd081a5b9a5d1a585b1a5e985d1959607a1b60448201526064015b60405180910390fd5b600260008360108111156101d657634e487b7160e01b600052602160045260246000fd5b60108111156101f557634e487b7160e01b600052602160045260246000fd5b81526020019081526020016000205490505b919050565b600360005260016020527f7dfe757ecd65cbd7922a9c0161e935dd7fdbcc0e999689c7d31633896b1fc60b546001600160a01b03166102815760405162461bcd60e51b8152602060048201526011602482015270139bdd081a5b9a5d1a585b1a5e985d1959607a1b60448201526064016101a9565b6001600160a01b0381166102d75760405162461bcd60e51b815260206004820152601860248201527f496e76616c696420636f6e74726163742061646472657373000000000000000060448201526064016101a9565b600760005260016020527fdc686ec4a0ff239c70e7c7c36e8f853eced3bc8618f48d2b816da2a74311237e546001600160a01b031633146103655760405162461bcd60e51b815260206004820152602260248201527f4368616e6765732063616e206f6e6c79206265206d61646520627920766f74696044820152616e6760f01b60648201526084016101a9565b806001600084600b81111561038a57634e487b7160e01b600052602160045260246000fd5b600b8111156103a957634e487b7160e01b600052602160045260246000fd5b815260200190815260200160002060006101000a8154816001600160a01b0302191690836001600160a01b031602179055505050565b6000546001600160a01b031633146104395760405162461bcd60e51b815260206004820152600d60248201527f4163636573732064656e6965640000000000000000000000000000000000000060448201526064016101a9565b600360005260016020527f7dfe757ecd65cbd7922a9c0161e935dd7fdbcc0e999689c7d31633896b1fc60b546001600160a01b0316156104bb5760405162461bcd60e51b815260206004820152601260248201527f416c726561647920696e6974616c697a6564000000000000000000000000000060448201526064016101a9565b8051606001516001600160a01b031615806104e357508051606001516001600160a01b031630145b61052f5760405162461bcd60e51b815260206004820152601e60248201527f43616e74206f7665727269646520737570657270726f2061646472657373000060448201526064016101a9565b8051516000808052600160208181527fa6eef7e35abe7026729641147f7915573c7e97b47efa546f5f6e3230263bcb4980546001600160a01b039586167fffffffffffffffffffffffff00000000000000000000000000000000000000009182161790915585518201518385527fcc69885fda6bcc1a4ace058b4a62bf5e179ea78fd58a1ccd71c22cc9b688792f805491871691831691909117905585516040908101517fd9d16d34ffb15ba3a3d852f0d403e2ce1d691fb54de27ac87cd2f993f3ec330f8054918816918416919091179055600385527f7dfe757ecd65cbd7922a9c0161e935dd7fdbcc0e999689c7d31633896b1fc60b805430908416179055865160800151600486527fedc95719e9a3b28dd8e80877cb5880a9be7de1a13fc8b05e7999683b6b56764380548416918816919091179055865160a00151600586527fe2689cd4a84e23ad2f564004f1c9013e9589d260bde6380aba3ca7e09e4df40c80548416918816919091179055865160c00151600686527f8f331abe73332f95a25873e8b430885974c0409691f89d643119a11623a7924a80548416918816919091179055865160e00151600786527fdc686ec4a0ff239c70e7c7c36e8f853eced3bc8618f48d2b816da2a74311237e8054841691881691909117905586516101000151600886527f4db623e5c4870b62d3fc9b4e8f893a1a77627d75ab45d9ff7e56ba19564af99b8054841691881691909117905586516101200151600986527f74a5fbcb419ab7dbacbb2c92a4e163730f0da5c72b911deecf4f05a6b327d0a48054841691881691909117905586516101400151600a86527f2a32391a76c35a36352b711f9152c0d0a340cd686850c8ef25fbb11c71b89e7b8054841691881691909117905586516101600151600b86527ffc80cd5fe514767bc6e66ec558e68a5429ea70b50fa6caa3b53fc9278e9186328054909316961695909517905580850180515184805260028084527fac33ff75c19e70fe83507db0d683fd3465c996598dc972688b7ace676c89077b919091558151909201519284527fe90b7bceb6e7df5418fb78d8ee546e97c83a08bbccc01a0644d599ccd2a7c2e092909255905190920151919081601081111561087d57634e487b7160e01b600052602160045260246000fd5b81526020019081526020016000208190555080602001516060015160026000600360108111156108bd57634e487b7160e01b600052602160045260246000fd5b60108111156108dc57634e487b7160e01b600052602160045260246000fd5b815260200190815260200160002081905550806020015160800151600260006004601081111561091c57634e487b7160e01b600052602160045260246000fd5b601081111561093b57634e487b7160e01b600052602160045260246000fd5b815260200190815260200160002081905550806020015160a00151600260006005601081111561097b57634e487b7160e01b600052602160045260246000fd5b601081111561099a57634e487b7160e01b600052602160045260246000fd5b815260200190815260200160002081905550806020015160c0015160026000600660108111156109da57634e487b7160e01b600052602160045260246000fd5b60108111156109f957634e487b7160e01b600052602160045260246000fd5b815260200190815260200160002081905550806020015160e001516002600060076010811115610a3957634e487b7160e01b600052602160045260246000fd5b6010811115610a5857634e487b7160e01b600052602160045260246000fd5b815260200190815260200160002081905550806020015161010001516002600060086010811115610a9957634e487b7160e01b600052602160045260246000fd5b6010811115610ab857634e487b7160e01b600052602160045260246000fd5b815260200190815260200160002081905550806020015161012001516002600060096010811115610af957634e487b7160e01b600052602160045260246000fd5b6010811115610b1857634e487b7160e01b600052602160045260246000fd5b8152602001908152602001600020819055508060200151610140015160026000600a6010811115610b5957634e487b7160e01b600052602160045260246000fd5b6010811115610b7857634e487b7160e01b600052602160045260246000fd5b8152602001908152602001600020819055508060200151610160015160026000600b6010811115610bb957634e487b7160e01b600052602160045260246000fd5b6010811115610bd857634e487b7160e01b600052602160045260246000fd5b8152602001908152602001600020819055508060200151610180015160026000600c6010811115610c1957634e487b7160e01b600052602160045260246000fd5b6010811115610c3857634e487b7160e01b600052602160045260246000fd5b81526020019081526020016000208190555080602001516101a0015160026000600d6010811115610c7957634e487b7160e01b600052602160045260246000fd5b6010811115610c9857634e487b7160e01b600052602160045260246000fd5b81526020019081526020016000208190555080602001516101c0015160026000600e6010811115610cd957634e487b7160e01b600052602160045260246000fd5b6010811115610cf857634e487b7160e01b600052602160045260246000fd5b81526020019081526020016000208190555080602001516101e0015160026000600f6010811115610d3957634e487b7160e01b600052602160045260246000fd5b6010811115610d5857634e487b7160e01b600052602160045260246000fd5b8152602001908152602001600020819055508060200151610200015160026000601080811115610d9857634e487b7160e01b600052602160045260246000fd5b6010811115610db757634e487b7160e01b600052602160045260246000fd5b815260208101919091526040016000205550565b6003600090815260016020527f7dfe757ecd65cbd7922a9c0161e935dd7fdbcc0e999689c7d31633896b1fc60b546001600160a01b0316610e425760405162461bcd60e51b8152602060048201526011602482015270139bdd081a5b9a5d1a585b1a5e985d1959607a1b60448201526064016101a9565b6000805260016020527fa6eef7e35abe7026729641147f7915573c7e97b47efa546f5f6e3230263bcb49546001600160a01b0383811691161415610e8857506000919050565b600660005260016020527f8f331abe73332f95a25873e8b430885974c0409691f89d643119a11623a7924a546001600160a01b0383811691161415610ecf57506006919050565b600160008190526020527fcc69885fda6bcc1a4ace058b4a62bf5e179ea78fd58a1ccd71c22cc9b688792f546001600160a01b0383811691161415610f1657506001919050565b600260005260016020527fd9d16d34ffb15ba3a3d852f0d403e2ce1d691fb54de27ac87cd2f993f3ec330f546001600160a01b0383811691161415610f5d57506002919050565b600360005260016020527f7dfe757ecd65cbd7922a9c0161e935dd7fdbcc0e999689c7d31633896b1fc60b546001600160a01b0383811691161415610fa457506003919050565b600460005260016020527fedc95719e9a3b28dd8e80877cb5880a9be7de1a13fc8b05e7999683b6b567643546001600160a01b0383811691161415610feb57506004919050565b600560005260016020527fe2689cd4a84e23ad2f564004f1c9013e9589d260bde6380aba3ca7e09e4df40c546001600160a01b038381169116141561103257506005919050565b600760005260016020527fdc686ec4a0ff239c70e7c7c36e8f853eced3bc8618f48d2b816da2a74311237e546001600160a01b038381169116141561107957506007919050565b600860005260016020527f4db623e5c4870b62d3fc9b4e8f893a1a77627d75ab45d9ff7e56ba19564af99b546001600160a01b03838116911614156110c057506008919050565b600960005260016020527f74a5fbcb419ab7dbacbb2c92a4e163730f0da5c72b911deecf4f05a6b327d0a4546001600160a01b038381169116141561110757506009919050565b600a60005260016020527f2a32391a76c35a36352b711f9152c0d0a340cd686850c8ef25fbb11c71b89e7b546001600160a01b038381169116141561114e5750600a919050565b600b60005260016020527ffc80cd5fe514767bc6e66ec558e68a5429ea70b50fa6caa3b53fc9278e918632546001600160a01b03838116911614156111955750600b919050565b60405162461bcd60e51b815260206004820152601860248201527f556e6b6e6f776e20636f6e74726163742061646472657373000000000000000060448201526064016101a9565b6003600090815260016020527f7dfe757ecd65cbd7922a9c0161e935dd7fdbcc0e999689c7d31633896b1fc60b546001600160a01b03166112545760405162461bcd60e51b8152602060048201526011602482015270139bdd081a5b9a5d1a585b1a5e985d1959607a1b60448201526064016101a9565b6001600083600b81111561127857634e487b7160e01b600052602160045260246000fd5b600b81111561129757634e487b7160e01b600052602160045260246000fd5b81526020810191909152604001600020546001600160a01b031692915050565b600360005260016020527f7dfe757ecd65cbd7922a9c0161e935dd7fdbcc0e999689c7d31633896b1fc60b546001600160a01b031661132c5760405162461bcd60e51b8152602060048201526011602482015270139bdd081a5b9a5d1a585b1a5e985d1959607a1b60448201526064016101a9565b600760005260016020527fdc686ec4a0ff239c70e7c7c36e8f853eced3bc8618f48d2b816da2a74311237e546001600160a01b031633146113ba5760405162461bcd60e51b815260206004820152602260248201527f4368616e6765732063616e206f6e6c79206265206d61646520627920766f74696044820152616e6760f01b60648201526084016101a9565b80600260008460108111156113df57634e487b7160e01b600052602160045260246000fd5b60108111156113fe57634e487b7160e01b600052602160045260246000fd5b81526020810191909152604001600020555050565b6003600090815260016020527f7dfe757ecd65cbd7922a9c0161e935dd7fdbcc0e999689c7d31633896b1fc60b546001600160a01b031661148a5760405162461bcd60e51b8152602060048201526011602482015270139bdd081a5b9a5d1a585b1a5e985d1959607a1b60448201526064016101a9565b600360005260016020527f7dfe757ecd65cbd7922a9c0161e935dd7fdbcc0e999689c7d31633896b1fc60b546001600160a01b0316308114156114cc57905090565b806001600160a01b031663f1f0bd016040518163ffffffff1660e01b815260040160206040518083038186803b15801561150557600080fd5b505afa158015611519573d6000803e3d6000fd5b505050506040513d601f19601f8201168201806040525081019061153d919061165f565b91505090565b8035610207816118ec565b8035600c811061020757600080fd5b80356011811061020757600080fd5b6000610220828403121561157e578081fd5b611586611851565b823581526020808401359082015260408084013590820152606080840135908201526080808401359082015260a0808401359082015260c0808401359082015260e08084013590820152610100808401359082015261012080840135908201526101408084013590820152610160808401359082015261018080840135908201526101a080840135908201526101c080840135908201526101e08084013590820152610200928301359281019290925250919050565b60006020828403121561164d578081fd5b8135611658816118ec565b9392505050565b600060208284031215611670578081fd5b8151611658816118ec565b60006020828403121561168c578081fd5b6116588261154e565b600080604083850312156116a7578081fd5b6116b08361154e565b915060208301356116c0816118ec565b809150509250929050565b6000602082840312156116dc578081fd5b6116588261155d565b600080604083850312156116f7578182fd5b6117008361155d565b946020939093013593505050565b60008183036103a0811215611721578182fd5b611729611889565b61018080831215611738578384fd5b6117406118ba565b925061174b85611543565b835261175960208601611543565b602084015261176a60408601611543565b604084015261177b60608601611543565b606084015261178c60808601611543565b608084015261179d60a08601611543565b60a08401526117ae60c08601611543565b60c08401526117bf60e08601611543565b60e08401526101006117d2818701611543565b908401526101206117e4868201611543565b908401526101406117f6868201611543565b90840152610160611808868201611543565b9084015282825261181b8686830161156c565b602083015250949350505050565b60208101600c831061184b57634e487b7160e01b600052602160045260246000fd5b91905290565b604051610220810167ffffffffffffffff8111828210171561188357634e487b7160e01b600052604160045260246000fd5b60405290565b6040805190810167ffffffffffffffff8111828210171561188357634e487b7160e01b600052604160045260246000fd5b604051610180810167ffffffffffffffff8111828210171561188357634e487b7160e01b600052604160045260246000fd5b6001600160a01b038116811461190157600080fd5b5056fea26469706673582212203deca4d3ff7a77f5a04650d9143f79a29d1e99cb19fbdccd088fdf8ef1a84a6d64736f6c63430008040033",
    "linkReferences": {},
    "deployedLinkReferences": {}
}