{
  "_format": "hh-sol-artifact-1",
  "contractName": "Suspicious",
  "sourceName": "contracts/consensus/Suspicious.sol",
  "abi": [
    {
      "inputs": [
        {
          "internalType": "address",
          "name": "_SPConfig",
          "type": "address"
        }
      ],
      "stateMutability": "nonpayable",
      "type": "constructor"
    },
    {
      "inputs": [
        {
          "internalType": "address",
          "name": "item",
          "type": "address"
        }
      ],
      "name": "add",
      "outputs": [],
      "stateMutability": "nonpayable",
      "type": "function"
    },
    {
      "inputs": [
        {
          "internalType": "address[]",
          "name": "items",
          "type": "address[]"
        }
      ],
      "name": "addMany",
      "outputs": [],
      "stateMutability": "nonpayable",
      "type": "function"
    },
    {
      "inputs": [],
      "name": "count",
      "outputs": [
        {
          "internalType": "uint256",
          "name": "",
          "type": "uint256"
        }
      ],
      "stateMutability": "view",
      "type": "function"
    },
    {
      "inputs": [
        {
          "internalType": "address",
          "name": "tcb",
          "type": "address"
        },
        {
          "internalType": "uint16",
          "name": "max",
          "type": "uint16"
        }
      ],
      "name": "getRandomL2",
      "outputs": [],
      "stateMutability": "nonpayable",
      "type": "function"
    },
    {
      "inputs": [],
      "name": "listAll",
      "outputs": [
        {
          "internalType": "address[]",
          "name": "",
          "type": "address[]"
        }
      ],
      "stateMutability": "view",
      "type": "function"
    },
    {
      "inputs": [
        {
          "internalType": "address",
          "name": "item",
          "type": "address"
        }
      ],
      "name": "remove",
      "outputs": [],
      "stateMutability": "nonpayable",
      "type": "function"
    },
    {
      "inputs": [
        {
          "internalType": "address[]",
          "name": "items",
          "type": "address[]"
        }
      ],
      "name": "removeMany",
      "outputs": [],
      "stateMutability": "nonpayable",
      "type": "function"
    }
  ],
  "bytecode": "0x608060405234801561001057600080fd5b506040516110fb3803806110fb83398101604081905261002f91610054565b600280546001600160a01b0319166001600160a01b0392909216919091179055610082565b600060208284031215610065578081fd5b81516001600160a01b038116811461007b578182fd5b9392505050565b61106a806100916000396000f3fe608060405234801561001057600080fd5b506004361061007d5760003560e01c80634d53cd521161005b5780634d53cd52146100c057806378a9eeed146100d35780638dcfdaad146100e8578063b37d97b5146100fb57600080fd5b806306661abd146100825780630a3b0a4f1461009857806329092d0e146100ad575b600080fd5b6001546040519081526020015b60405180910390f35b6100ab6100a6366004610d9c565b61010e565b005b6100ab6100bb366004610d9c565b610196565b6100ab6100ce366004610dd4565b610226565b6100db610407565b60405161008f9190610ef1565b6100ab6100f6366004610e12565b61046c565b6100ab610109366004610e12565b61053b565b600254610123906001600160a01b0316610606565b6001600160a01b0316336001600160a01b0316146101885760405162461bcd60e51b815260206004820152601c60248201527f417661696c61626c65206f6e6c7920666f7220636f6e73656e7375730000000060448201526064015b60405180910390fd5b610193600082610693565b50565b6002546101ab906001600160a01b0316610606565b6001600160a01b0316336001600160a01b03161461020b5760405162461bcd60e51b815260206004820152601c60248201527f417661696c61626c65206f6e6c7920666f7220636f6e73656e73757300000000604482015260640161017f565b6102166000826107bb565b156101935761019360008261083c565b6001546040517fa03a018800000000000000000000000000000000000000000000000000000000815260048101919091526001600160a01b0383169063a03a01889060240160206040518083038186803b15801561028357600080fd5b505afa158015610297573d6000803e3d6000fd5b505050506040513d601f19601f820116820180604052508101906102bb9190610ed9565b8161ffff16111561030e5760405162461bcd60e51b815260206004820152601860248201527f544342204c3220686173206e6f20667265652063656c6c730000000000000000604482015260640161017f565b600254600090610328906001600160a01b0316600e610a7a565b6001549091508110156001600160a01b0384166367e1f6128261035a57610355600061ffff871688610b00565b6103b3565b60018054604080516020808402820181019092528281529291908301828280156103ad57602002820191906000526020600020905b81546001600160a01b0316815260019091019060200180831161038f575b50505050505b6040518263ffffffff1660e01b81526004016103cf9190610ef1565b600060405180830381600087803b1580156103e957600080fd5b505af11580156103fd573d6000803e3d6000fd5b5050505050505050565b6060600060010180548060200260200160405190810160405280929190818152602001828054801561046257602002820191906000526020600020905b81546001600160a01b03168152600190910190602001808311610444575b5050505050905090565b600254610481906001600160a01b0316610606565b6001600160a01b0316336001600160a01b0316146104e15760405162461bcd60e51b815260206004820152601c60248201527f417661696c61626c65206f6e6c7920666f7220636f6e73656e73757300000000604482015260640161017f565b60005b81518161ffff16101561053757610525828261ffff168151811061051857634e487b7160e01b600052603260045260246000fd5b6020026020010151610196565b8061052f81610f9b565b9150506104e4565b5050565b600254610550906001600160a01b0316610606565b6001600160a01b0316336001600160a01b0316146105b05760405162461bcd60e51b815260206004820152601c60248201527f417661696c61626c65206f6e6c7920666f7220636f6e73656e73757300000000604482015260640161017f565b60005b81518161ffff161015610537576105f4828261ffff16815181106105e757634e487b7160e01b600052603260045260246000fd5b602002602001015161010e565b806105fe81610f9b565b9150506105b3565b600061061182610d51565b6001600160a01b031663bcaa0c5560086040518263ffffffff1660e01b815260040161063d9190610f3e565b60206040518083038186803b15801561065557600080fd5b505afa158015610669573d6000803e3d6000fd5b505050506040513d601f19601f8201168201806040525081019061068d9190610db8565b92915050565b6001600160a01b0381166106e95760405162461bcd60e51b815260206004820152601d60248201527f417474656d707420746f206164642061207a65726f2061646472657373000000604482015260640161017f565b6001820154600090158061075f57506001600160a01b03821660009081526020849052604090205415801561075f5750816001600160a01b03168360010160008154811061074757634e487b7160e01b600052603260045260246000fd5b6000918252602090912001546001600160a01b031614155b90508061076b57505050565b50600180830180546001600160a01b039093166000818152602095865260408120859055928401825590825292902001805473ffffffffffffffffffffffffffffffffffffffff19169091179055565b60018201546000906107cf5750600061068d565b6001600160a01b0382166000908152602084905260409020541515806108355750816001600160a01b03168360010160008154811061081e57634e487b7160e01b600052603260045260246000fd5b6000918252602090912001546001600160a01b0316145b9392505050565b6001600160a01b0381166108925760405162461bcd60e51b815260206004820181905260248201527f417474656d707420746f2072656d6f76652061207a65726f2061646472657373604482015260640161017f565b600182015461089f575050565b6001600160a01b038116600081815260208490526040902054600184018054919291839081106108df57634e487b7160e01b600052603260045260246000fd5b6000918252602090912001546001600160a01b0316146109665760405162461bcd60e51b8152602060048201526024808201527f3530302e20556e6578706563746564204164647265737348617368536574207360448201527f7461746500000000000000000000000000000000000000000000000000000000606482015260840161017f565b6001808401805460009261097991610f84565b8154811061099757634e487b7160e01b600052603260045260246000fd5b6000918252602090912001546001850180546001600160a01b0390921692508291849081106109d657634e487b7160e01b600052603260045260246000fd5b6000918252602080832091909101805473ffffffffffffffffffffffffffffffffffffffff19166001600160a01b039485161790558383168252869052604080822085905591851681529081205560018401805480610a4557634e487b7160e01b600052603160045260246000fd5b6000828152602090208101600019908101805473ffffffffffffffffffffffffffffffffffffffff1916905501905550505050565b6000610a8583610d51565b6001600160a01b03166303a2216d836040518263ffffffff1660e01b8152600401610ab09190610f58565b60206040518083038186803b158015610ac857600080fd5b505afa158015610adc573d6000803e3d6000fd5b505050506040513d601f19601f820116820180604052508101906108359190610ed9565b606060005a905060008060008760010180549050600143610b219190610f84565b60408051914060208301526bffffffffffffffffffffffff1960608a901b16908201526054016040516020818303038152906040528051906020012060001c610b6a9190610fbd565b905060008767ffffffffffffffff811115610b9557634e487b7160e01b600052604160045260246000fd5b604051908082528060200260200182016040528015610bbe578160200160208202803683370190505b5090508192505b878461ffff1614158015610be657506233e1405a610be39087610f84565b11155b15610d4557886001018381548110610c0e57634e487b7160e01b600052603260045260246000fd5b9060005260206000200160009054906101000a90046001600160a01b0316818561ffff1681518110610c5057634e487b7160e01b600052603260045260246000fd5b60200260200101906001600160a01b031690816001600160a01b0316815250506002896001018481548110610c9557634e487b7160e01b600052603260045260246000fd5b60009182526020918290200154604051610cda926001600160a01b039092169186910160609290921b6bffffffffffffffffffffffff19168252601482015260340190565b6040516020818303038152906040528051906020012060001c610cfd9190610fbd565b610d079084610f6c565b60018a810154919450610d1991610f84565b831015610d3057610d2b836001610f6c565b610d33565b60005b9250610d3e84610f9b565b9350610bc5565b98975050505050505050565b6000816001600160a01b031663f1f0bd016040518163ffffffff1660e01b815260040160206040518083038186803b15801561065557600080fd5b8035610d978161101f565b919050565b600060208284031215610dad578081fd5b81356108358161101f565b600060208284031215610dc9578081fd5b81516108358161101f565b60008060408385031215610de6578081fd5b8235610df18161101f565b9150602083013561ffff81168114610e07578182fd5b809150509250929050565b60006020808385031215610e24578182fd5b823567ffffffffffffffff80821115610e3b578384fd5b818501915085601f830112610e4e578384fd5b813581811115610e6057610e60611009565b8060051b604051601f19603f83011681018181108582111715610e8557610e85611009565b604052828152858101935084860182860187018a1015610ea3578788fd5b8795505b83861015610ecc57610eb881610d8c565b855260019590950194938601938601610ea7565b5098975050505050505050565b600060208284031215610eea578081fd5b5051919050565b6020808252825182820181905260009190848201906040850190845b81811015610f325783516001600160a01b031683529284019291840191600101610f0d565b50909695505050505050565b60208101600c8310610f5257610f52610ff3565b91905290565b6020810160118310610f5257610f52610ff3565b60008219821115610f7f57610f7f610fdd565b500190565b600082821015610f9657610f96610fdd565b500390565b600061ffff80831681811415610fb357610fb3610fdd565b6001019392505050565b600082610fd857634e487b7160e01b81526012600452602481fd5b500690565b634e487b7160e01b600052601160045260246000fd5b634e487b7160e01b600052602160045260246000fd5b634e487b7160e01b600052604160045260246000fd5b6001600160a01b038116811461019357600080fdfea2646970667358221220187bddf1c416bd4107b0fbc5d337c86f97cd75f131bf1ab148d91c675e1458b864736f6c63430008040033",
  "linkReferences": {},
  "deployedLinkReferences": {}
}