{
  "_format": "hh-sol-artifact-1",
  "contractName": "TCB",
  "sourceName": "contracts/consensus/TCB.sol",
  "abi": [
    {
      "inputs": [
        {
          "internalType": "uint256",
          "name": "_L1",
          "type": "uint256"
        },
        {
          "internalType": "uint256",
          "name": "_L2",
          "type": "uint256"
        },
        {
          "internalType": "address",
          "name": "_teeOffer",
          "type": "address"
        },
        {
          "internalType": "address",
          "name": "_SPConfig",
          "type": "address"
        }
      ],
      "stateMutability": "nonpayable",
      "type": "constructor"
    },
    {
      "inputs": [
        {
          "internalType": "uint256",
          "name": "benchmark",
          "type": "uint256"
        },
        {
          "internalType": "string",
          "name": "properties",
          "type": "string"
        },
        {
          "internalType": "bytes32",
          "name": "deviceID",
          "type": "bytes32"
        },
        {
          "internalType": "string",
          "name": "_quote",
          "type": "string"
        }
      ],
      "name": "addData",
      "outputs": [],
      "stateMutability": "nonpayable",
      "type": "function"
    },
    {
      "inputs": [
        {
          "internalType": "enum LType",
          "name": "lType",
          "type": "uint8"
        },
        {
          "internalType": "enum LStatus[]",
          "name": "marks",
          "type": "uint8[]"
        }
      ],
      "name": "addMarks",
      "outputs": [],
      "stateMutability": "nonpayable",
      "type": "function"
    },
    {
      "inputs": [
        {
          "internalType": "address[]",
          "name": "items",
          "type": "address[]"
        }
      ],
      "name": "addToCheckL1",
      "outputs": [],
      "stateMutability": "nonpayable",
      "type": "function"
    },
    {
      "inputs": [
        {
          "internalType": "address[]",
          "name": "items",
          "type": "address[]"
        }
      ],
      "name": "addToCheckL2",
      "outputs": [],
      "stateMutability": "nonpayable",
      "type": "function"
    },
    {
      "inputs": [],
      "name": "complete",
      "outputs": [],
      "stateMutability": "nonpayable",
      "type": "function"
    },
    {
      "inputs": [],
      "name": "getBenchmark",
      "outputs": [
        {
          "internalType": "uint256",
          "name": "",
          "type": "uint256"
        }
      ],
      "stateMutability": "view",
      "type": "function"
    },
    {
      "inputs": [],
      "name": "getEpochInfo",
      "outputs": [
        {
          "components": [
            {
              "internalType": "uint256",
              "name": "index",
              "type": "uint256"
            },
            {
              "internalType": "bool",
              "name": "valid",
              "type": "bool"
            },
            {
              "internalType": "bool",
              "name": "reparation",
              "type": "bool"
            }
          ],
          "internalType": "struct TcbEpochInfo",
          "name": "",
          "type": "tuple"
        }
      ],
      "stateMutability": "view",
      "type": "function"
    },
    {
      "inputs": [],
      "name": "getL1",
      "outputs": [
        {
          "internalType": "address[]",
          "name": "",
          "type": "address[]"
        }
      ],
      "stateMutability": "view",
      "type": "function"
    },
    {
      "inputs": [],
      "name": "getL1Marks",
      "outputs": [
        {
          "internalType": "enum LStatus[]",
          "name": "",
          "type": "uint8[]"
        }
      ],
      "stateMutability": "view",
      "type": "function"
    },
    {
      "inputs": [],
      "name": "getL2",
      "outputs": [
        {
          "internalType": "address[]",
          "name": "",
          "type": "address[]"
        }
      ],
      "stateMutability": "view",
      "type": "function"
    },
    {
      "inputs": [],
      "name": "getL2Marks",
      "outputs": [
        {
          "internalType": "enum LStatus[]",
          "name": "",
          "type": "uint8[]"
        }
      ],
      "stateMutability": "view",
      "type": "function"
    },
    {
      "inputs": [],
      "name": "getOwnMarks",
      "outputs": [
        {
          "internalType": "uint256",
          "name": "",
          "type": "uint256"
        },
        {
          "internalType": "uint256",
          "name": "",
          "type": "uint256"
        }
      ],
      "stateMutability": "view",
      "type": "function"
    },
    {
      "inputs": [],
      "name": "getPaidAmount",
      "outputs": [
        {
          "internalType": "uint256",
          "name": "",
          "type": "uint256"
        }
      ],
      "stateMutability": "view",
      "type": "function"
    },
    {
      "inputs": [],
      "name": "getPublicData",
      "outputs": [
        {
          "components": [
            {
              "internalType": "address",
              "name": "teeOffer",
              "type": "address"
            },
            {
              "internalType": "bytes32",
              "name": "deviceID",
              "type": "bytes32"
            },
            {
              "internalType": "uint256",
              "name": "benchmark",
              "type": "uint256"
            },
            {
              "internalType": "string",
              "name": "properties",
              "type": "string"
            }
          ],
          "internalType": "struct TcbPublicData",
          "name": "",
          "type": "tuple"
        }
      ],
      "stateMutability": "view",
      "type": "function"
    },
    {
      "inputs": [],
      "name": "getQuote",
      "outputs": [
        {
          "internalType": "string",
          "name": "",
          "type": "string"
        }
      ],
      "stateMutability": "view",
      "type": "function"
    },
    {
      "inputs": [],
      "name": "getTcbStatus",
      "outputs": [
        {
          "internalType": "enum TcbStatus",
          "name": "",
          "type": "uint8"
        }
      ],
      "stateMutability": "view",
      "type": "function"
    },
    {
      "inputs": [],
      "name": "incrNegative",
      "outputs": [],
      "stateMutability": "nonpayable",
      "type": "function"
    },
    {
      "inputs": [],
      "name": "incrPositive",
      "outputs": [],
      "stateMutability": "nonpayable",
      "type": "function"
    },
    {
      "inputs": [],
      "name": "makeBun",
      "outputs": [],
      "stateMutability": "nonpayable",
      "type": "function"
    },
    {
      "inputs": [
        {
          "internalType": "uint256",
          "name": "lastBlocksTableSize",
          "type": "uint256"
        }
      ],
      "name": "needL1toCompleted",
      "outputs": [
        {
          "internalType": "uint256",
          "name": "",
          "type": "uint256"
        }
      ],
      "stateMutability": "view",
      "type": "function"
    },
    {
      "inputs": [
        {
          "internalType": "uint256",
          "name": "suspTableSize",
          "type": "uint256"
        }
      ],
      "name": "needL2toCompleted",
      "outputs": [
        {
          "internalType": "uint256",
          "name": "",
          "type": "uint256"
        }
      ],
      "stateMutability": "view",
      "type": "function"
    },
    {
      "inputs": [],
      "name": "resetMarks",
      "outputs": [],
      "stateMutability": "nonpayable",
      "type": "function"
    },
    {
      "inputs": [
        {
          "internalType": "uint256",
          "name": "index",
          "type": "uint256"
        }
      ],
      "name": "setEpoch",
      "outputs": [],
      "stateMutability": "nonpayable",
      "type": "function"
    },
    {
      "inputs": [
        {
          "internalType": "bool",
          "name": "reparation",
          "type": "bool"
        }
      ],
      "name": "setEpochReparationMark",
      "outputs": [],
      "stateMutability": "nonpayable",
      "type": "function"
    },
    {
      "inputs": [
        {
          "internalType": "uint256",
          "name": "reward",
          "type": "uint256"
        }
      ],
      "name": "updPaidAmount",
      "outputs": [],
      "stateMutability": "nonpayable",
      "type": "function"
    }
  ],
  "bytecode": "0x60806040523480156200001157600080fd5b506040516200219c3803806200219c833981016040819052620000349162000154565b600d849055600e839055600080546001600160a01b038084166001600160a01b0319928316179092556002805492851692909116821790556040805163c422c1b160e01b8152905163c422c1b191600480820192602092909190829003018186803b158015620000a357600080fd5b505afa158015620000b8573d6000803e3d6000fd5b505050506040513d601f19601f82011682018060405250810190620000de919062000130565b600f80546001600160a01b0319166001600160a01b039290921691909117905550506010805460ff19169055506200019e9050565b80516001600160a01b03811681146200012b57600080fd5b919050565b60006020828403121562000142578081fd5b6200014d8262000113565b9392505050565b600080600080608085870312156200016a578283fd5b8451935060208501519250620001836040860162000113565b9150620001936060860162000113565b905092959194509250565b611fee80620001ae6000396000f3fe608060405234801561001057600080fd5b50600436106101a35760003560e01c80636a20a8a1116100ee578063990db36311610097578063a9fd1a8f11610071578063a9fd1a8f1461030d578063b71712e414610385578063bf7ce7421461038d578063fe71954b146103a257600080fd5b8063990db363146102ea578063a00da731146102f2578063a03a0188146102fa57600080fd5b80637d3e3ef1116100c85780637d3e3ef1146102c75780638c6cd3ad146102cf5780638e2c2d3b146102e257600080fd5b80636a20a8a1146102a4578063774140b2146102ac57806379a94569146102bf57600080fd5b8063457bb7f411610150578063639dd37f1161012a578063639dd37f1461027657806367e1f61214610289578063684f04661461029c57600080fd5b8063457bb7f41461023a578063522e11771461025b57806354e410ca1461026357600080fd5b8063171755b111610181578063171755b1146101fd578063385bb5cd1461021257806343fe9e7b1461022557600080fd5b80630ceb2cef146101a85780630f8f4292146101bd57806312824836146101db575b600080fd5b6101bb6101b6366004611c54565b6103b5565b005b6101c5610441565b6040516101d29190611d90565b60405180910390f35b600a546040805161ffff620100008404811682529092166020830152016101d2565b6102056104da565b6040516101d29190611df8565b6101bb610220366004611c54565b610563565b61022d6105f5565b6040516101d29190611d43565b61024d610248366004611c54565b610659565b6040519081526020016101d2565b6101bb610699565b60105460ff166040516101d29190611deb565b6101bb610284366004611adc565b610a50565b6101bb610297366004611adc565b610b64565b6101bb610c75565b600b5461024d565b6101bb6102ba366004611b9d565b610cfe565b60045461024d565b6101bb610f1a565b6101bb6102dd366004611c84565b610fc5565b6101bb611205565b6101c5611289565b61022d611321565b61024d610308366004611c54565b611384565b61035f60408051606081018252600080825260208201819052918101919091525060408051606081018252601154815260125460ff808216151560208401526101009091041615159181019190915290565b6040805182518152602080840151151590820152918101511515908201526060016101d2565b6101bb6113bd565b610395611446565b6040516101d29190611e0b565b6101bb6103b0366004611b7d565b611531565b6000546103ca906001600160a01b03166115c0565b6001600160a01b0316336001600160a01b03161461042f5760405162461bcd60e51b815260206004820152601960248201527f417661696c61626c65206f6e6c7920666f722045706f6368730000000000000060448201526064015b60405180910390fd5b6011556012805460ff19166001179055565b606060066003018054806020026020016040519081016040528092919081815260200182805480156104d057602002820191906000526020600020906000905b82829054906101000a900460ff1660028111156104ae57634e487b7160e01b600052602160045260246000fd5b8152602060019283018181049485019490930390920291018084116104815790505b5050505050905090565b6060600180546104e990611ed9565b80601f016020809104026020016040519081016040528092919081815260200182805461051590611ed9565b80156104d05780601f10610537576101008083540402835291602001916104d0565b820191906000526020600020905b81548152906001019060200180831161054557509395945050505050565b600054610578906001600160a01b031661164d565b6001600160a01b0316336001600160a01b0316146105d85760405162461bcd60e51b815260206004820152601c60248201527f417661696c61626c65206f6e6c7920666f7220436f6e73656e737573000000006044820152606401610426565b80600660050160008282546105ed9190611eaa565b909155505050565b606060066001018054806020026020016040519081016040528092919081815260200182805480156104d057602002820191906000526020600020905b81546001600160a01b03168152600190910190602001808311610632575050505050905090565b600080600660070154831161066e5782610672565b600d545b6006549091508111610685576000610692565b6006546106929082611ec2565b9392505050565b6000546106ae906001600160a01b031661164d565b6001600160a01b0316336001600160a01b03161461070e5760405162461bcd60e51b815260206004820152601c60248201527f417661696c61626c65206f6e6c7920666f7220436f6e73656e737573000000006044820152606401610426565b600160105460ff16600281111561073557634e487b7160e01b600052602160045260246000fd5b14156107775760405162461bcd60e51b8152602060048201526011602482015270105b1c9958591e4818dbdb5c1b195d1959607a1b6044820152606401610426565b60005461080090610790906001600160a01b0316611684565b6001600160a01b03166306661abd6040518163ffffffff1660e01b815260040160206040518083038186803b1580156107c857600080fd5b505afa1580156107dc573d6000803e3d6000fd5b505050506040513d601f19601f820116820180604052508101906102489190611c6c565b1561084d5760405162461bcd60e51b815260206004820152601c60248201527f4e65656420746f20616464206d6f7265206c61737420626c6f636b73000000006044820152606401610426565b6000546108d690610866906001600160a01b03166116bb565b6001600160a01b03166306661abd6040518163ffffffff1660e01b815260040160206040518083038186803b15801561089e57600080fd5b505afa1580156108b2573d6000803e3d6000fd5b505050506040513d601f19601f820116820180604052508101906103089190611c6c565b156109495760405162461bcd60e51b815260206004820152602660248201527f4d6f72652073757370656374656420626c6f636b73206e65656420746f20626560448201527f20616464656400000000000000000000000000000000000000000000000000006064820152608401610426565b600654600854146109c25760405162461bcd60e51b815260206004820152602560248201527f4e65656420746f20616464206d6f7265206d61726b73206f66206c617374206260448201527f6c6f636b730000000000000000000000000000000000000000000000000000006064820152608401610426565b60075460095414610a3a5760405162461bcd60e51b8152602060048201526024808201527f4e65656420746f20616464206d6f7265206d61726b73206f662073757370696360448201527f696f7573000000000000000000000000000000000000000000000000000000006064820152608401610426565b601080546001919060ff191682805b0217905550565b600054610a65906001600160a01b0316611684565b6001600160a01b0316336001600160a01b031614610aeb5760405162461bcd60e51b815260206004820152602860248201527f417661696c61626c65206f6e6c7920666f72204c617374426c6f636b7354616260448201527f6c65207461626c650000000000000000000000000000000000000000000000006064820152608401610426565b600160105460ff166002811115610b1257634e487b7160e01b600052602160045260246000fd5b1415610b545760405162461bcd60e51b8152602060048201526011602482015270105b1c9958591e4818dbdb5c1b195d1959607a1b6044820152606401610426565b610b6160066000836116f2565b50565b600054610b79906001600160a01b03166116bb565b6001600160a01b0316336001600160a01b031614610bff5760405162461bcd60e51b815260206004820152602360248201527f417661696c61626c65206f6e6c7920666f7220537573706963696f757320746160448201527f626c6500000000000000000000000000000000000000000000000000000000006064820152608401610426565b600160105460ff166002811115610c2657634e487b7160e01b600052602160045260246000fd5b1415610c685760405162461bcd60e51b8152602060048201526011602482015270105b1c9958591e4818dbdb5c1b195d1959607a1b6044820152606401610426565b610b6160066001836116f2565b600054610c8a906001600160a01b031661164d565b6001600160a01b0316336001600160a01b031614610cea5760405162461bcd60e51b815260206004820152601c60248201527f417661696c61626c65206f6e6c7920666f7220436f6e73656e737573000000006044820152606401610426565b601080546002919060ff1916600183610a49565b6002546040805163483d45bd60e01b815290516000926001600160a01b03169163483d45bd916004808301926020929190829003018186803b158015610d4357600080fd5b505afa158015610d57573d6000803e3d6000fd5b505050506040513d601f19601f82011682018060405250810190610d7b9190611ac0565b6001600160a01b0316636760c4b76040518163ffffffff1660e01b815260040160206040518083038186803b158015610db357600080fd5b505afa158015610dc7573d6000803e3d6000fd5b505050506040513d601f19601f82011682018060405250810190610deb9190611ac0565b9050336001600160a01b03821614610e4f5760405162461bcd60e51b815260206004820152602160248201527f417661696c61626c65206f6e6c7920666f7220616374696f6e206163636f756e6044820152601d60fa1b6064820152608401610426565b600160105460ff166002811115610e7657634e487b7160e01b600052602160045260246000fd5b1415610eb85760405162461bcd60e51b8152602060048201526011602482015270105b1c9958591e4818dbdb5c1b195d1959607a1b6044820152606401610426565b6000825111610f095760405162461bcd60e51b815260206004820152600560248201527f456d7074790000000000000000000000000000000000000000000000000000006044820152606401610426565b610f1560068484611818565b505050565b600054610f2f906001600160a01b031661164d565b6001600160a01b0316336001600160a01b031614610f8f5760405162461bcd60e51b815260206004820152601c60248201527f417661696c61626c65206f6e6c7920666f7220436f6e73656e737573000000006044820152606401610426565b600a8054600290610fa99062010000900461ffff16611f14565b91906101000a81548161ffff021916908361ffff160217905550565b6002546040805163483d45bd60e01b815290516000926001600160a01b03169163483d45bd916004808301926020929190829003018186803b15801561100a57600080fd5b505afa15801561101e573d6000803e3d6000fd5b505050506040513d601f19601f820116820180604052508101906110429190611ac0565b6001600160a01b0316636760c4b76040518163ffffffff1660e01b815260040160206040518083038186803b15801561107a57600080fd5b505afa15801561108e573d6000803e3d6000fd5b505050506040513d601f19601f820116820180604052508101906110b29190611ac0565b9050336001600160a01b038216146111165760405162461bcd60e51b815260206004820152602160248201527f417661696c61626c65206f6e6c7920666f7220616374696f6e206163636f756e6044820152601d60fa1b6064820152608401610426565b600160105460ff16600281111561113d57634e487b7160e01b600052602160045260246000fd5b141561117f5760405162461bcd60e51b8152602060048201526011602482015270105b1c9958591e4818dbdb5c1b195d1959607a1b6044820152606401610426565b826111cc5760405162461bcd60e51b815260206004820152600f60248201527f456d7074792064657669636520494400000000000000000000000000000000006044820152606401610426565b600485905583516111e49060059060208701906119bc565b50600383905581516111fd9060019060208501906119bc565b505050505050565b60005461121a906001600160a01b031661164d565b6001600160a01b0316336001600160a01b03161461127a5760405162461bcd60e51b815260206004820152601c60248201527f417661696c61626c65206f6e6c7920666f7220436f6e73656e737573000000006044820152606401610426565b600a805463ffffffff19169055565b606060066002018054806020026020016040519081016040528092919081815260200182805480156104d057602002820191906000526020600020906000905b82829054906101000a900460ff1660028111156112f657634e487b7160e01b600052602160045260246000fd5b8152602060019283018181049485019490930390920291018084116112c95790505050505050905090565b606060066000018054806020026020016040519081016040528092919081815260200182805480156104d0576020028201919060005260206000209081546001600160a01b03168152600190910190602001808311610632575050505050905090565b6000806006600801548311611399578261139d565b600e545b60075490915081116113b0576000610692565b6007546106929082611ec2565b6000546113d2906001600160a01b031661164d565b6001600160a01b0316336001600160a01b0316146114325760405162461bcd60e51b815260206004820152601c60248201527f417661696c61626c65206f6e6c7920666f7220436f6e73656e737573000000006044820152606401610426565b600a8054600090610fa99061ffff16611f14565b604080516080810182526000808252602082018190529181019190915260608082015260408051608081018252600280546001600160a01b03168252600354602083015260045492820192909252600580549192916060840191906114aa90611ed9565b80601f01602080910402602001604051908101604052809291908181526020018280546114d690611ed9565b80156115235780601f106114f857610100808354040283529160200191611523565b820191906000526020600020905b81548152906001019060200180831161150657829003601f168201915b505050505081525050905090565b600054611546906001600160a01b03166115c0565b6001600160a01b0316336001600160a01b0316146115a65760405162461bcd60e51b815260206004820152601960248201527f417661696c61626c65206f6e6c7920666f722045706f636873000000000000006044820152606401610426565b601280549115156101000261ff0019909216919091179055565b60006115cb82611981565b6001600160a01b031663bcaa0c55600b6040518263ffffffff1660e01b81526004016115f79190611dd1565b60206040518083038186803b15801561160f57600080fd5b505afa158015611623573d6000803e3d6000fd5b505050506040513d601f19601f820116820180604052508101906116479190611ac0565b92915050565b600061165882611981565b6001600160a01b031663bcaa0c5560086040518263ffffffff1660e01b81526004016115f79190611dd1565b600061168f82611981565b6001600160a01b031663bcaa0c55600a6040518263ffffffff1660e01b81526004016115f79190611dd1565b60006116c682611981565b6001600160a01b031663bcaa0c5560096040518263ffffffff1660e01b81526004016115f79190611dd1565b60005a9050600080600185600181111561171c57634e487b7160e01b600052602160045260246000fd5b14905060008161173357600787015487541061173f565b60088701546001880154105b905060008261174e5787611753565b876001015b90505b818015611768575085518461ffff1614155b801561178157506233e1405a61177e9087611ec2565b11155b1561180e5780868561ffff16815181106117ab57634e487b7160e01b600052603260045260246000fd5b60209081029190910181015182546001810184556000938452919092200180547fffffffffffffffffffffffff0000000000000000000000000000000000000000166001600160a01b0390921691909117905561180784611f14565b9350611756565b5050505050505050565b6000600183600181111561183c57634e487b7160e01b600052602160045260246000fd5b14905060008161185c57600285015485546118579190611ec2565b611870565b600385015460018601546118709190611ec2565b90506000826118825785600201611887565b856003015b905083518210156118da5760405162461bcd60e51b815260206004820152601260248201527f496e76616c6964206d61726b732073697a6500000000000000000000000000006044820152606401610426565b60005b8451811015611978578185828151811061190757634e487b7160e01b600052603260045260246000fd5b602090810291909101810151825460018101845560009384529282902091830490910180549192909160ff601f9092166101000a91820219169083600281111561196157634e487b7160e01b600052602160045260246000fd5b02179055508061197081611f36565b9150506118dd565b50505050505050565b6000816001600160a01b031663f1f0bd016040518163ffffffff1660e01b815260040160206040518083038186803b15801561160f57600080fd5b8280546119c890611ed9565b90600052602060002090601f0160209004810192826119ea5760008555611a30565b82601f10611a0357805160ff1916838001178555611a30565b82800160010185558215611a30579182015b82811115611a30578251825591602001919060010190611a15565b50611a3c929150611a40565b5090565b5b80821115611a3c5760008155600101611a41565b600082601f830112611a65578081fd5b813567ffffffffffffffff811115611a7f57611a7f611f7d565b611a92601f8201601f1916602001611e55565b818152846020838601011115611aa6578283fd5b816020850160208301379081016020019190915292915050565b600060208284031215611ad1578081fd5b815161069281611fa3565b60006020808385031215611aee578182fd5b823567ffffffffffffffff811115611b04578283fd5b8301601f81018513611b14578283fd5b8035611b27611b2282611e86565b611e55565b80828252848201915084840188868560051b8701011115611b46578687fd5b8694505b83851015611b71578035611b5d81611fa3565b835260019490940193918501918501611b4a565b50979650505050505050565b600060208284031215611b8e578081fd5b81358015158114610692578182fd5b60008060408385031215611baf578081fd5b823560028110611bbd578182fd5b915060208381013567ffffffffffffffff811115611bd9578283fd5b8401601f81018613611be9578283fd5b8035611bf7611b2282611e86565b80828252848201915084840189868560051b8701011115611c16578687fd5b8694505b83851015611c4457803560038110611c30578788fd5b835260019490940193918501918501611c1a565b5080955050505050509250929050565b600060208284031215611c65578081fd5b5035919050565b600060208284031215611c7d578081fd5b5051919050565b60008060008060808587031215611c99578182fd5b84359350602085013567ffffffffffffffff80821115611cb7578384fd5b611cc388838901611a55565b9450604087013593506060870135915080821115611cdf578283fd5b50611cec87828801611a55565b91505092959194509250565b60008151808452815b81811015611d1d57602081850181015186830182015201611d01565b81811115611d2e5782602083870101525b50601f01601f19169290920160200192915050565b6020808252825182820181905260009190848201906040850190845b81811015611d845783516001600160a01b031683529284019291840191600101611d5f565b50909695505050505050565b6020808252825182820181905260009190848201906040850190845b81811015611d84578351611dbf81611f93565b83529284019291840191600101611dac565b60208101600c8310611de557611de5611f67565b91905290565b60208101611de583611f93565b6020815260006106926020830184611cf8565b602081526001600160a01b038251166020820152602082015160408201526040820151606082015260006060830151608080840152611e4d60a0840182611cf8565b949350505050565b604051601f8201601f1916810167ffffffffffffffff81118282101715611e7e57611e7e611f7d565b604052919050565b600067ffffffffffffffff821115611ea057611ea0611f7d565b5060051b60200190565b60008219821115611ebd57611ebd611f51565b500190565b600082821015611ed457611ed4611f51565b500390565b600181811c90821680611eed57607f821691505b60208210811415611f0e57634e487b7160e01b600052602260045260246000fd5b50919050565b600061ffff80831681811415611f2c57611f2c611f51565b6001019392505050565b6000600019821415611f4a57611f4a611f51565b5060010190565b634e487b7160e01b600052601160045260246000fd5b634e487b7160e01b600052602160045260246000fd5b634e487b7160e01b600052604160045260246000fd5b60038110610b6157610b61611f67565b6001600160a01b0381168114610b6157600080fdfea2646970667358221220aea25b7babc752c1766680db4432bfd419a6215e0bef13286e26c0938106b0f064736f6c63430008040033",
  "linkReferences": {},
  "deployedLinkReferences": {}
}