{
    "_format": "hh-sol-artifact-1",
    "contractName": "TCB",
    "sourceName": "contracts/consensus/TCB.sol",
    "abi": [
        {
            "inputs": [
                {
                    "internalType": "uint256",
                    "name": "_L1",
                    "type": "uint256"
                },
                {
                    "internalType": "uint256",
                    "name": "_L2",
                    "type": "uint256"
                },
                {
                    "internalType": "address",
                    "name": "_teeOffer",
                    "type": "address"
                },
                {
                    "internalType": "address",
                    "name": "_SPConfig",
                    "type": "address"
                }
            ],
            "stateMutability": "nonpayable",
            "type": "constructor"
        },
        {
            "inputs": [
                {
                    "internalType": "enum LType",
                    "name": "lType",
                    "type": "uint8"
                },
                {
                    "internalType": "enum LStatus[]",
                    "name": "marks",
                    "type": "uint8[]"
                }
            ],
            "name": "addMarks",
            "outputs": [],
            "stateMutability": "nonpayable",
            "type": "function"
        },
        {
            "inputs": [
                {
                    "components": [
                        {
                            "internalType": "string",
                            "name": "teeReport",
                            "type": "string"
                        },
                        {
                            "internalType": "string",
                            "name": "teeSignature",
                            "type": "string"
                        }
                    ],
                    "internalType": "struct TcbOnlyStored",
                    "name": "_onlyStored",
                    "type": "tuple"
                }
            ],
            "name": "addStoredData",
            "outputs": [],
            "stateMutability": "nonpayable",
            "type": "function"
        },
        {
            "inputs": [
                {
                    "internalType": "address[]",
                    "name": "items",
                    "type": "address[]"
                }
            ],
            "name": "addToCheckL1",
            "outputs": [],
            "stateMutability": "nonpayable",
            "type": "function"
        },
        {
            "inputs": [
                {
                    "internalType": "address[]",
                    "name": "items",
                    "type": "address[]"
                }
            ],
            "name": "addToCheckL2",
            "outputs": [],
            "stateMutability": "nonpayable",
            "type": "function"
        },
        {
            "inputs": [
                {
                    "internalType": "uint256",
                    "name": "benchmark",
                    "type": "uint256"
                },
                {
                    "internalType": "string",
                    "name": "properties",
                    "type": "string"
                },
                {
                    "internalType": "bytes32",
                    "name": "deviceID",
                    "type": "bytes32"
                }
            ],
            "name": "addUsedData",
            "outputs": [],
            "stateMutability": "nonpayable",
            "type": "function"
        },
        {
            "inputs": [],
            "name": "complete",
            "outputs": [],
            "stateMutability": "nonpayable",
            "type": "function"
        },
        {
            "inputs": [],
            "name": "getBenchmark",
            "outputs": [
                {
                    "internalType": "uint256",
                    "name": "",
                    "type": "uint256"
                }
            ],
            "stateMutability": "view",
            "type": "function"
        },
        {
            "inputs": [],
            "name": "getEpochInfo",
            "outputs": [
                {
                    "components": [
                        {
                            "internalType": "uint256",
                            "name": "index",
                            "type": "uint256"
                        },
                        {
                            "internalType": "bool",
                            "name": "valid",
                            "type": "bool"
                        },
                        {
                            "internalType": "bool",
                            "name": "reparation",
                            "type": "bool"
                        }
                    ],
                    "internalType": "struct TcbEpochInfo",
                    "name": "",
                    "type": "tuple"
                }
            ],
            "stateMutability": "view",
            "type": "function"
        },
        {
            "inputs": [],
            "name": "getL1",
            "outputs": [
                {
                    "internalType": "address[]",
                    "name": "",
                    "type": "address[]"
                }
            ],
            "stateMutability": "view",
            "type": "function"
        },
        {
            "inputs": [],
            "name": "getL1Marks",
            "outputs": [
                {
                    "internalType": "enum LStatus[]",
                    "name": "",
                    "type": "uint8[]"
                }
            ],
            "stateMutability": "view",
            "type": "function"
        },
        {
            "inputs": [],
            "name": "getL2",
            "outputs": [
                {
                    "internalType": "address[]",
                    "name": "",
                    "type": "address[]"
                }
            ],
            "stateMutability": "view",
            "type": "function"
        },
        {
            "inputs": [],
            "name": "getL2Marks",
            "outputs": [
                {
                    "internalType": "enum LStatus[]",
                    "name": "",
                    "type": "uint8[]"
                }
            ],
            "stateMutability": "view",
            "type": "function"
        },
        {
            "inputs": [],
            "name": "getOwnMarks",
            "outputs": [
                {
                    "internalType": "uint256",
                    "name": "",
                    "type": "uint256"
                },
                {
                    "internalType": "uint256",
                    "name": "",
                    "type": "uint256"
                }
            ],
            "stateMutability": "view",
            "type": "function"
        },
        {
            "inputs": [],
            "name": "getPaidAmount",
            "outputs": [
                {
                    "internalType": "uint256",
                    "name": "",
                    "type": "uint256"
                }
            ],
            "stateMutability": "view",
            "type": "function"
        },
        {
            "inputs": [],
            "name": "getStoredData",
            "outputs": [
                {
                    "components": [
                        {
                            "internalType": "string",
                            "name": "teeReport",
                            "type": "string"
                        },
                        {
                            "internalType": "string",
                            "name": "teeSignature",
                            "type": "string"
                        }
                    ],
                    "internalType": "struct TcbOnlyStored",
                    "name": "",
                    "type": "tuple"
                }
            ],
            "stateMutability": "view",
            "type": "function"
        },
        {
            "inputs": [],
            "name": "getTcbStatus",
            "outputs": [
                {
                    "internalType": "enum TcbStatus",
                    "name": "",
                    "type": "uint8"
                }
            ],
            "stateMutability": "view",
            "type": "function"
        },
        {
            "inputs": [],
            "name": "getUsedData",
            "outputs": [
                {
                    "components": [
                        {
                            "internalType": "address",
                            "name": "teeOffer",
                            "type": "address"
                        },
                        {
                            "internalType": "bytes32",
                            "name": "deviceID",
                            "type": "bytes32"
                        },
                        {
                            "internalType": "uint256",
                            "name": "benchmark",
                            "type": "uint256"
                        },
                        {
                            "internalType": "string",
                            "name": "properties",
                            "type": "string"
                        }
                    ],
                    "internalType": "struct TcbUsedData",
                    "name": "",
                    "type": "tuple"
                }
            ],
            "stateMutability": "view",
            "type": "function"
        },
        {
            "inputs": [],
            "name": "incrNegative",
            "outputs": [],
            "stateMutability": "nonpayable",
            "type": "function"
        },
        {
            "inputs": [],
            "name": "incrPositive",
            "outputs": [],
            "stateMutability": "nonpayable",
            "type": "function"
        },
        {
            "inputs": [],
            "name": "makeBun",
            "outputs": [],
            "stateMutability": "nonpayable",
            "type": "function"
        },
        {
            "inputs": [
                {
                    "internalType": "uint256",
                    "name": "lastBlocksTableSize",
                    "type": "uint256"
                }
            ],
            "name": "needL1toCompleted",
            "outputs": [
                {
                    "internalType": "uint256",
                    "name": "",
                    "type": "uint256"
                }
            ],
            "stateMutability": "view",
            "type": "function"
        },
        {
            "inputs": [
                {
                    "internalType": "uint256",
                    "name": "suspTableSize",
                    "type": "uint256"
                }
            ],
            "name": "needL2toCompleted",
            "outputs": [
                {
                    "internalType": "uint256",
                    "name": "",
                    "type": "uint256"
                }
            ],
            "stateMutability": "view",
            "type": "function"
        },
        {
            "inputs": [],
            "name": "resetMarks",
            "outputs": [],
            "stateMutability": "nonpayable",
            "type": "function"
        },
        {
            "inputs": [
                {
                    "internalType": "uint256",
                    "name": "index",
                    "type": "uint256"
                }
            ],
            "name": "setEpoch",
            "outputs": [],
            "stateMutability": "nonpayable",
            "type": "function"
        },
        {
            "inputs": [
                {
                    "internalType": "bool",
                    "name": "reparation",
                    "type": "bool"
                }
            ],
            "name": "setEpochReparationMark",
            "outputs": [],
            "stateMutability": "nonpayable",
            "type": "function"
        },
        {
            "inputs": [
                {
                    "internalType": "uint256",
                    "name": "reward",
                    "type": "uint256"
                }
            ],
            "name": "updPaidAmount",
            "outputs": [],
            "stateMutability": "nonpayable",
            "type": "function"
        }
    ],
    "bytecode": "0x60806040523480156200001157600080fd5b506040516200247a3803806200247a833981016040819052620000349162000154565b600e849055600f839055600080546001600160a01b038084166001600160a01b0319928316179092556003805492851692909116821790556040805163c422c1b160e01b8152905163c422c1b191600480820192602092909190829003018186803b158015620000a357600080fd5b505afa158015620000b8573d6000803e3d6000fd5b505050506040513d601f19601f82011682018060405250810190620000de919062000130565b601080546001600160a01b0319166001600160a01b039290921691909117905550506011805460ff19169055506200019e9050565b80516001600160a01b03811681146200012b57600080fd5b919050565b60006020828403121562000142578081fd5b6200014d8262000113565b9392505050565b600080600080608085870312156200016a578283fd5b8451935060208501519250620001836040860162000113565b9150620001936060860162000113565b905092959194509250565b6122cc80620001ae6000396000f3fe608060405234801561001057600080fd5b50600436106101ae5760003560e01c8063774140b2116100ee578063a03a018811610097578063b69ca9a111610071578063b69ca9a114610390578063b71712e4146103a5578063c852295b146103ad578063fe71954b146103c057600080fd5b8063a03a0188146102f2578063a9fd1a8f14610305578063b2d8327f1461037d57600080fd5b80638e2c2d3b116100c85780638e2c2d3b146102da578063990db363146102e2578063a00da731146102ea57600080fd5b8063774140b2146102b757806379a94569146102ca5780637d3e3ef1146102d257600080fd5b8063457bb7f41161015b578063639dd37f11610135578063639dd37f1461028157806367e1f61214610294578063684f0466146102a75780636a20a8a1146102af57600080fd5b8063457bb7f414610245578063522e11771461026657806354e410ca1461026e57600080fd5b8063182c3dfd1161018c578063182c3dfd14610208578063385bb5cd1461021d57806343fe9e7b1461023057600080fd5b80630ceb2cef146101b35780630f8f4292146101c857806312824836146101e6575b600080fd5b6101c66101c1366004611f29565b6103d3565b005b6101d061045f565b6040516101dd919061203f565b60405180910390f35b600b546040805161ffff620100008404811682529092166020830152016101dd565b6102106104f8565b6040516101dd91906120e9565b6101c661022b366004611f29565b6105e3565b610238610675565b6040516101dd9190611ff2565b610258610253366004611f29565b6106d9565b6040519081526020016101dd565b6101c6610718565b60115460ff166040516101dd919061209a565b6101c661028f366004611d0f565b610acf565b6101c66102a2366004611d0f565b610be3565b6101c6610cf4565b600c54610258565b6101c66102c5366004611dd0565b610d7d565b600554610258565b6101c6610f99565b6101c6611044565b6101d06110c8565b610238611160565b610258610300366004611f29565b6111c3565b61035760408051606081018252600080825260208201819052918101919091525060408051606081018252601254815260135460ff808216151560208401526101009091041615159181019190915290565b6040805182518152602080840151151590820152918101511515908201526060016101dd565b6101c661038b366004611e87565b6111fc565b6103986113f0565b6040516101dd91906120a7565b6101c66114b3565b6101c66103bb366004611f59565b61153c565b6101c66103ce366004611db0565b611764565b6000546103e8906001600160a01b03166117f3565b6001600160a01b0316336001600160a01b03161461044d5760405162461bcd60e51b815260206004820152601960248201527f417661696c61626c65206f6e6c7920666f722045706f6368730000000000000060448201526064015b60405180910390fd5b6012556013805460ff19166001179055565b606060076003018054806020026020016040519081016040528092919081815260200182805480156104ee57602002820191906000526020600020906000905b82829054906101000a900460ff1660028111156104cc57634e487b7160e01b600052602160045260246000fd5b81526020600192830181810494850194909303909202910180841161049f5790505b5050505050905090565b604080516080810182526000808252602082018190529181019190915260608082015260408051608081018252600380546001600160a01b031682526004546020830152600554928201929092526006805491929160608401919061055c906121b7565b80601f0160208091040260200160405190810160405280929190818152602001828054610588906121b7565b80156105d55780601f106105aa576101008083540402835291602001916105d5565b820191906000526020600020905b8154815290600101906020018083116105b857829003601f168201915b505050505081525050905090565b6000546105f8906001600160a01b0316611880565b6001600160a01b0316336001600160a01b0316146106585760405162461bcd60e51b815260206004820152601c60248201527f417661696c61626c65206f6e6c7920666f7220436f6e73656e737573000000006044820152606401610444565b806007600501600082825461066d9190612188565b909155505050565b606060076001018054806020026020016040519081016040528092919081815260200182805480156104ee57602002820191906000526020600020905b81546001600160a01b031681526001909101906020018083116106b2575050505050905090565b600080600780015483116106ed57826106f1565b600e545b6007549091508111610704576000610711565b60075461071190826121a0565b9392505050565b60005461072d906001600160a01b0316611880565b6001600160a01b0316336001600160a01b03161461078d5760405162461bcd60e51b815260206004820152601c60248201527f417661696c61626c65206f6e6c7920666f7220436f6e73656e737573000000006044820152606401610444565b600160115460ff1660028111156107b457634e487b7160e01b600052602160045260246000fd5b14156107f65760405162461bcd60e51b8152602060048201526011602482015270105b1c9958591e4818dbdb5c1b195d1959607a1b6044820152606401610444565b60005461087f9061080f906001600160a01b03166118b7565b6001600160a01b03166306661abd6040518163ffffffff1660e01b815260040160206040518083038186803b15801561084757600080fd5b505afa15801561085b573d6000803e3d6000fd5b505050506040513d601f19601f820116820180604052508101906102539190611f41565b156108cc5760405162461bcd60e51b815260206004820152601c60248201527f4e65656420746f20616464206d6f7265206c61737420626c6f636b73000000006044820152606401610444565b600054610955906108e5906001600160a01b03166118ee565b6001600160a01b03166306661abd6040518163ffffffff1660e01b815260040160206040518083038186803b15801561091d57600080fd5b505afa158015610931573d6000803e3d6000fd5b505050506040513d601f19601f820116820180604052508101906103009190611f41565b156109c85760405162461bcd60e51b815260206004820152602660248201527f4d6f72652073757370656374656420626c6f636b73206e65656420746f20626560448201527f20616464656400000000000000000000000000000000000000000000000000006064820152608401610444565b60075460095414610a415760405162461bcd60e51b815260206004820152602560248201527f4e65656420746f20616464206d6f7265206d61726b73206f66206c617374206260448201527f6c6f636b730000000000000000000000000000000000000000000000000000006064820152608401610444565b600854600a5414610ab95760405162461bcd60e51b8152602060048201526024808201527f4e65656420746f20616464206d6f7265206d61726b73206f662073757370696360448201527f696f7573000000000000000000000000000000000000000000000000000000006064820152608401610444565b601180546001919060ff191682805b0217905550565b600054610ae4906001600160a01b03166118b7565b6001600160a01b0316336001600160a01b031614610b6a5760405162461bcd60e51b815260206004820152602860248201527f417661696c61626c65206f6e6c7920666f72204c617374426c6f636b7354616260448201527f6c65207461626c650000000000000000000000000000000000000000000000006064820152608401610444565b600160115460ff166002811115610b9157634e487b7160e01b600052602160045260246000fd5b1415610bd35760405162461bcd60e51b8152602060048201526011602482015270105b1c9958591e4818dbdb5c1b195d1959607a1b6044820152606401610444565b610be06007600083611925565b50565b600054610bf8906001600160a01b03166118ee565b6001600160a01b0316336001600160a01b031614610c7e5760405162461bcd60e51b815260206004820152602360248201527f417661696c61626c65206f6e6c7920666f7220537573706963696f757320746160448201527f626c6500000000000000000000000000000000000000000000000000000000006064820152608401610444565b600160115460ff166002811115610ca557634e487b7160e01b600052602160045260246000fd5b1415610ce75760405162461bcd60e51b8152602060048201526011602482015270105b1c9958591e4818dbdb5c1b195d1959607a1b6044820152606401610444565b610be06007600183611925565b600054610d09906001600160a01b0316611880565b6001600160a01b0316336001600160a01b031614610d695760405162461bcd60e51b815260206004820152601c60248201527f417661696c61626c65206f6e6c7920666f7220436f6e73656e737573000000006044820152606401610444565b601180546002919060ff1916600183610ac8565b6003546040805163483d45bd60e01b815290516000926001600160a01b03169163483d45bd916004808301926020929190829003018186803b158015610dc257600080fd5b505afa158015610dd6573d6000803e3d6000fd5b505050506040513d601f19601f82011682018060405250810190610dfa9190611cf3565b6001600160a01b0316636760c4b76040518163ffffffff1660e01b815260040160206040518083038186803b158015610e3257600080fd5b505afa158015610e46573d6000803e3d6000fd5b505050506040513d601f19601f82011682018060405250810190610e6a9190611cf3565b9050336001600160a01b03821614610ece5760405162461bcd60e51b815260206004820152602160248201527f417661696c61626c65206f6e6c7920666f7220616374696f6e206163636f756e6044820152601d60fa1b6064820152608401610444565b600160115460ff166002811115610ef557634e487b7160e01b600052602160045260246000fd5b1415610f375760405162461bcd60e51b8152602060048201526011602482015270105b1c9958591e4818dbdb5c1b195d1959607a1b6044820152606401610444565b6000825111610f885760405162461bcd60e51b815260206004820152600560248201527f456d7074790000000000000000000000000000000000000000000000000000006044820152606401610444565b610f9460078484611a4b565b505050565b600054610fae906001600160a01b0316611880565b6001600160a01b0316336001600160a01b03161461100e5760405162461bcd60e51b815260206004820152601c60248201527f417661696c61626c65206f6e6c7920666f7220436f6e73656e737573000000006044820152606401610444565b600b80546002906110289062010000900461ffff166121f2565b91906101000a81548161ffff021916908361ffff160217905550565b600054611059906001600160a01b0316611880565b6001600160a01b0316336001600160a01b0316146110b95760405162461bcd60e51b815260206004820152601c60248201527f417661696c61626c65206f6e6c7920666f7220436f6e73656e737573000000006044820152606401610444565b600b805463ffffffff19169055565b606060076002018054806020026020016040519081016040528092919081815260200182805480156104ee57602002820191906000526020600020906000905b82829054906101000a900460ff16600281111561113557634e487b7160e01b600052602160045260246000fd5b8152602060019283018181049485019490930390920291018084116111085790505050505050905090565b606060076000018054806020026020016040519081016040528092919081815260200182805480156104ee576020028201919060005260206000209081546001600160a01b031681526001909101906020018083116106b2575050505050905090565b60008060076008015483116111d857826111dc565b600f545b60085490915081116111ef576000610711565b60085461071190826121a0565b6003546040805163483d45bd60e01b815290516000926001600160a01b03169163483d45bd916004808301926020929190829003018186803b15801561124157600080fd5b505afa158015611255573d6000803e3d6000fd5b505050506040513d601f19601f820116820180604052508101906112799190611cf3565b6001600160a01b0316636760c4b76040518163ffffffff1660e01b815260040160206040518083038186803b1580156112b157600080fd5b505afa1580156112c5573d6000803e3d6000fd5b505050506040513d601f19601f820116820180604052508101906112e99190611cf3565b9050336001600160a01b0382161461134d5760405162461bcd60e51b815260206004820152602160248201527f417661696c61626c65206f6e6c7920666f7220616374696f6e206163636f756e6044820152601d60fa1b6064820152608401610444565b600160115460ff16600281111561137457634e487b7160e01b600052602160045260246000fd5b14156113b65760405162461bcd60e51b8152602060048201526011602482015270105b1c9958591e4818dbdb5c1b195d1959607a1b6044820152606401610444565b8151805183916001916113d0918391602090910190611bef565b5060208281015180516113e99260018501920190611bef565b5050505050565b60408051808201909152606080825260208201526001604051806040016040529081600082018054611421906121b7565b80601f016020809104026020016040519081016040528092919081815260200182805461144d906121b7565b801561149a5780601f1061146f5761010080835404028352916020019161149a565b820191906000526020600020905b81548152906001019060200180831161147d57829003601f168201915b5050505050815260200160018201805461055c906121b7565b6000546114c8906001600160a01b0316611880565b6001600160a01b0316336001600160a01b0316146115285760405162461bcd60e51b815260206004820152601c60248201527f417661696c61626c65206f6e6c7920666f7220436f6e73656e737573000000006044820152606401610444565b600b80546000906110289061ffff166121f2565b6003546040805163483d45bd60e01b815290516000926001600160a01b03169163483d45bd916004808301926020929190829003018186803b15801561158157600080fd5b505afa158015611595573d6000803e3d6000fd5b505050506040513d601f19601f820116820180604052508101906115b99190611cf3565b6001600160a01b0316636760c4b76040518163ffffffff1660e01b815260040160206040518083038186803b1580156115f157600080fd5b505afa158015611605573d6000803e3d6000fd5b505050506040513d601f19601f820116820180604052508101906116299190611cf3565b9050336001600160a01b0382161461168d5760405162461bcd60e51b815260206004820152602160248201527f417661696c61626c65206f6e6c7920666f7220616374696f6e206163636f756e6044820152601d60fa1b6064820152608401610444565b600160115460ff1660028111156116b457634e487b7160e01b600052602160045260246000fd5b14156116f65760405162461bcd60e51b8152602060048201526011602482015270105b1c9958591e4818dbdb5c1b195d1959607a1b6044820152606401610444565b816117435760405162461bcd60e51b815260206004820152600f60248201527f456d7074792064657669636520494400000000000000000000000000000000006044820152606401610444565b6005849055825161175b906006906020860190611bef565b50506004555050565b600054611779906001600160a01b03166117f3565b6001600160a01b0316336001600160a01b0316146117d95760405162461bcd60e51b815260206004820152601960248201527f417661696c61626c65206f6e6c7920666f722045706f636873000000000000006044820152606401610444565b601380549115156101000261ff0019909216919091179055565b60006117fe82611bb4565b6001600160a01b031663bcaa0c55600b6040518263ffffffff1660e01b815260040161182a9190612080565b60206040518083038186803b15801561184257600080fd5b505afa158015611856573d6000803e3d6000fd5b505050506040513d601f19601f8201168201806040525081019061187a9190611cf3565b92915050565b600061188b82611bb4565b6001600160a01b031663bcaa0c5560086040518263ffffffff1660e01b815260040161182a9190612080565b60006118c282611bb4565b6001600160a01b031663bcaa0c55600a6040518263ffffffff1660e01b815260040161182a9190612080565b60006118f982611bb4565b6001600160a01b031663bcaa0c5560096040518263ffffffff1660e01b815260040161182a9190612080565b60005a9050600080600185600181111561194f57634e487b7160e01b600052602160045260246000fd5b149050600081611966576007870154875410611972565b60088701546001880154105b90506000826119815787611986565b876001015b90505b81801561199b575085518461ffff1614155b80156119b457506233e1405a6119b190876121a0565b11155b15611a415780868561ffff16815181106119de57634e487b7160e01b600052603260045260246000fd5b60209081029190910181015182546001810184556000938452919092200180547fffffffffffffffffffffffff0000000000000000000000000000000000000000166001600160a01b03909216919091179055611a3a846121f2565b9350611989565b5050505050505050565b60006001836001811115611a6f57634e487b7160e01b600052602160045260246000fd5b149050600081611a8f5760028501548554611a8a91906121a0565b611aa3565b60038501546001860154611aa391906121a0565b9050600082611ab55785600201611aba565b856003015b90508351821015611b0d5760405162461bcd60e51b815260206004820152601260248201527f496e76616c6964206d61726b732073697a6500000000000000000000000000006044820152606401610444565b60005b8451811015611bab5781858281518110611b3a57634e487b7160e01b600052603260045260246000fd5b602090810291909101810151825460018101845560009384529282902091830490910180549192909160ff601f9092166101000a918202191690836002811115611b9457634e487b7160e01b600052602160045260246000fd5b021790555080611ba381612214565b915050611b10565b50505050505050565b6000816001600160a01b031663f1f0bd016040518163ffffffff1660e01b815260040160206040518083038186803b15801561184257600080fd5b828054611bfb906121b7565b90600052602060002090601f016020900481019282611c1d5760008555611c63565b82601f10611c3657805160ff1916838001178555611c63565b82800160010185558215611c63579182015b82811115611c63578251825591602001919060010190611c48565b50611c6f929150611c73565b5090565b5b80821115611c6f5760008155600101611c74565b600082601f830112611c98578081fd5b813567ffffffffffffffff811115611cb257611cb261225b565b611cc5601f8201601f1916602001612133565b818152846020838601011115611cd9578283fd5b816020850160208301379081016020019190915292915050565b600060208284031215611d04578081fd5b815161071181612281565b60006020808385031215611d21578182fd5b823567ffffffffffffffff811115611d37578283fd5b8301601f81018513611d47578283fd5b8035611d5a611d5582612164565b612133565b80828252848201915084840188868560051b8701011115611d79578687fd5b8694505b83851015611da4578035611d9081612281565b835260019490940193918501918501611d7d565b50979650505050505050565b600060208284031215611dc1578081fd5b81358015158114610711578182fd5b60008060408385031215611de2578081fd5b823560028110611df0578182fd5b915060208381013567ffffffffffffffff811115611e0c578283fd5b8401601f81018613611e1c578283fd5b8035611e2a611d5582612164565b80828252848201915084840189868560051b8701011115611e49578687fd5b8694505b83851015611e7757803560038110611e63578788fd5b835260019490940193918501918501611e4d565b5080955050505050509250929050565b600060208284031215611e98578081fd5b813567ffffffffffffffff80821115611eaf578283fd5b9083019060408286031215611ec2578283fd5b604051604081018181108382111715611edd57611edd61225b565b604052823582811115611eee578485fd5b611efa87828601611c88565b825250602083013582811115611f0e578485fd5b611f1a87828601611c88565b60208301525095945050505050565b600060208284031215611f3a578081fd5b5035919050565b600060208284031215611f52578081fd5b5051919050565b600080600060608486031215611f6d578081fd5b83359250602084013567ffffffffffffffff811115611f8a578182fd5b611f9686828701611c88565b925050604084013590509250925092565b60008151808452815b81811015611fcc57602081850181015186830182015201611fb0565b81811115611fdd5782602083870101525b50601f01601f19169290920160200192915050565b6020808252825182820181905260009190848201906040850190845b818110156120335783516001600160a01b03168352928401929184019160010161200e565b50909695505050505050565b6020808252825182820181905260009190848201906040850190845b8181101561203357835161206e81612271565b8352928401929184019160010161205b565b60208101600c831061209457612094612245565b91905290565b6020810161209483612271565b6020815260008251604060208401526120c36060840182611fa7565b90506020840151601f198483030160408501526120e08282611fa7565b95945050505050565b602081526001600160a01b03825116602082015260208201516040820152604082015160608201526000606083015160808084015261212b60a0840182611fa7565b949350505050565b604051601f8201601f1916810167ffffffffffffffff8111828210171561215c5761215c61225b565b604052919050565b600067ffffffffffffffff82111561217e5761217e61225b565b5060051b60200190565b6000821982111561219b5761219b61222f565b500190565b6000828210156121b2576121b261222f565b500390565b600181811c908216806121cb57607f821691505b602082108114156121ec57634e487b7160e01b600052602260045260246000fd5b50919050565b600061ffff8083168181141561220a5761220a61222f565b6001019392505050565b60006000198214156122285761222861222f565b5060010190565b634e487b7160e01b600052601160045260246000fd5b634e487b7160e01b600052602160045260246000fd5b634e487b7160e01b600052604160045260246000fd5b60038110610be057610be0612245565b6001600160a01b0381168114610be057600080fdfea264697066735822122030d7d78fa3cb91923df918c4f66d79da17cdc97b2d01584b32d8be9ef7304eef64736f6c63430008040033",
    "linkReferences": {},
    "deployedLinkReferences": {}
}