{
  "_format": "hh-sol-artifact-1",
  "contractName": "TCB",
  "sourceName": "contracts/consensus/TCB.sol",
  "abi": [
    {
      "inputs": [
        {
          "internalType": "uint256",
          "name": "_L1",
          "type": "uint256"
        },
        {
          "internalType": "uint256",
          "name": "_L2",
          "type": "uint256"
        },
        {
          "internalType": "address",
          "name": "_teeOffer",
          "type": "address"
        },
        {
          "internalType": "address",
          "name": "_SPConfig",
          "type": "address"
        }
      ],
      "stateMutability": "nonpayable",
      "type": "constructor"
    },
    {
      "inputs": [
        {
          "internalType": "uint256",
          "name": "benchmark",
          "type": "uint256"
        },
        {
          "internalType": "string",
          "name": "properties",
          "type": "string"
        },
        {
          "internalType": "bytes32",
          "name": "deviceID",
          "type": "bytes32"
        },
        {
          "internalType": "string",
          "name": "_quote",
          "type": "string"
        }
      ],
      "name": "addData",
      "outputs": [],
      "stateMutability": "nonpayable",
      "type": "function"
    },
    {
      "inputs": [
        {
          "internalType": "enum LType",
          "name": "lType",
          "type": "uint8"
        },
        {
          "internalType": "uint8[]",
          "name": "verifiedStatuses",
          "type": "uint8[]"
        }
      ],
      "name": "addMarks",
      "outputs": [],
      "stateMutability": "nonpayable",
      "type": "function"
    },
    {
      "inputs": [
        {
          "internalType": "address[]",
          "name": "items",
          "type": "address[]"
        }
      ],
      "name": "addToCheckL1",
      "outputs": [],
      "stateMutability": "nonpayable",
      "type": "function"
    },
    {
      "inputs": [
        {
          "internalType": "address[]",
          "name": "items",
          "type": "address[]"
        }
      ],
      "name": "addToCheckL2",
      "outputs": [],
      "stateMutability": "nonpayable",
      "type": "function"
    },
    {
      "inputs": [],
      "name": "complete",
      "outputs": [],
      "stateMutability": "nonpayable",
      "type": "function"
    },
    {
      "inputs": [],
      "name": "getBenchmark",
      "outputs": [
        {
          "internalType": "uint256",
          "name": "",
          "type": "uint256"
        }
      ],
      "stateMutability": "view",
      "type": "function"
    },
    {
      "inputs": [],
      "name": "getEpochInfo",
      "outputs": [
        {
          "components": [
            {
              "internalType": "uint256",
              "name": "index",
              "type": "uint256"
            },
            {
              "internalType": "bool",
              "name": "valid",
              "type": "bool"
            },
            {
              "internalType": "bool",
              "name": "reparation",
              "type": "bool"
            }
          ],
          "internalType": "struct TcbEpochInfo",
          "name": "",
          "type": "tuple"
        }
      ],
      "stateMutability": "view",
      "type": "function"
    },
    {
      "inputs": [],
      "name": "getL1",
      "outputs": [
        {
          "internalType": "address[]",
          "name": "",
          "type": "address[]"
        }
      ],
      "stateMutability": "view",
      "type": "function"
    },
    {
      "inputs": [],
      "name": "getL1Marks",
      "outputs": [
        {
          "internalType": "uint8[]",
          "name": "",
          "type": "uint8[]"
        }
      ],
      "stateMutability": "view",
      "type": "function"
    },
    {
      "inputs": [],
      "name": "getL2",
      "outputs": [
        {
          "internalType": "address[]",
          "name": "",
          "type": "address[]"
        }
      ],
      "stateMutability": "view",
      "type": "function"
    },
    {
      "inputs": [],
      "name": "getL2Marks",
      "outputs": [
        {
          "internalType": "uint8[]",
          "name": "",
          "type": "uint8[]"
        }
      ],
      "stateMutability": "view",
      "type": "function"
    },
    {
      "inputs": [],
      "name": "getOwnMarks",
      "outputs": [
        {
          "internalType": "uint256",
          "name": "",
          "type": "uint256"
        },
        {
          "internalType": "uint256",
          "name": "",
          "type": "uint256"
        }
      ],
      "stateMutability": "view",
      "type": "function"
    },
    {
      "inputs": [],
      "name": "getPaidAmount",
      "outputs": [
        {
          "internalType": "uint256",
          "name": "",
          "type": "uint256"
        }
      ],
      "stateMutability": "view",
      "type": "function"
    },
    {
      "inputs": [],
      "name": "getPublicData",
      "outputs": [
        {
          "components": [
            {
              "internalType": "address",
              "name": "teeOffer",
              "type": "address"
            },
            {
              "internalType": "bytes32",
              "name": "deviceID",
              "type": "bytes32"
            },
            {
              "internalType": "uint256",
              "name": "benchmark",
              "type": "uint256"
            },
            {
              "internalType": "string",
              "name": "properties",
              "type": "string"
            }
          ],
          "internalType": "struct TcbPublicData",
          "name": "",
          "type": "tuple"
        }
      ],
      "stateMutability": "view",
      "type": "function"
    },
    {
      "inputs": [],
      "name": "getQuote",
      "outputs": [
        {
          "internalType": "string",
          "name": "",
          "type": "string"
        }
      ],
      "stateMutability": "view",
      "type": "function"
    },
    {
      "inputs": [],
      "name": "getTcbStatus",
      "outputs": [
        {
          "internalType": "enum TcbStatus",
          "name": "",
          "type": "uint8"
        }
      ],
      "stateMutability": "view",
      "type": "function"
    },
    {
      "inputs": [],
      "name": "incrNegative",
      "outputs": [],
      "stateMutability": "nonpayable",
      "type": "function"
    },
    {
      "inputs": [],
      "name": "incrPositive",
      "outputs": [],
      "stateMutability": "nonpayable",
      "type": "function"
    },
    {
      "inputs": [],
      "name": "makeBun",
      "outputs": [],
      "stateMutability": "nonpayable",
      "type": "function"
    },
    {
      "inputs": [
        {
          "internalType": "uint256",
          "name": "lastBlocksTableSize",
          "type": "uint256"
        }
      ],
      "name": "needL1toCompleted",
      "outputs": [
        {
          "internalType": "uint256",
          "name": "",
          "type": "uint256"
        }
      ],
      "stateMutability": "view",
      "type": "function"
    },
    {
      "inputs": [
        {
          "internalType": "uint256",
          "name": "suspTableSize",
          "type": "uint256"
        }
      ],
      "name": "needL2toCompleted",
      "outputs": [
        {
          "internalType": "uint256",
          "name": "",
          "type": "uint256"
        }
      ],
      "stateMutability": "view",
      "type": "function"
    },
    {
      "inputs": [],
      "name": "resetMarks",
      "outputs": [],
      "stateMutability": "nonpayable",
      "type": "function"
    },
    {
      "inputs": [
        {
          "internalType": "uint256",
          "name": "index",
          "type": "uint256"
        }
      ],
      "name": "setEpoch",
      "outputs": [],
      "stateMutability": "nonpayable",
      "type": "function"
    },
    {
      "inputs": [
        {
          "internalType": "bool",
          "name": "reparation",
          "type": "bool"
        }
      ],
      "name": "setEpochReparationMark",
      "outputs": [],
      "stateMutability": "nonpayable",
      "type": "function"
    },
    {
      "inputs": [
        {
          "internalType": "uint256",
          "name": "reward",
          "type": "uint256"
        }
      ],
      "name": "updPaidAmount",
      "outputs": [],
      "stateMutability": "nonpayable",
      "type": "function"
    }
  ],
  "bytecode": "0x60806040523480156200001157600080fd5b506040516200211638038062002116833981016040819052620000349162000154565b600d849055600e839055600080546001600160a01b038084166001600160a01b0319928316179092556002805492851692909116821790556040805163c422c1b160e01b8152905163c422c1b191600480820192602092909190829003018186803b158015620000a357600080fd5b505afa158015620000b8573d6000803e3d6000fd5b505050506040513d601f19601f82011682018060405250810190620000de919062000130565b600f80546001600160a01b0319166001600160a01b039290921691909117905550506010805460ff19169055506200019e9050565b80516001600160a01b03811681146200012b57600080fd5b919050565b60006020828403121562000142578081fd5b6200014d8262000113565b9392505050565b600080600080608085870312156200016a578283fd5b8451935060208501519250620001836040860162000113565b9150620001936060860162000113565b905092959194509250565b611f6880620001ae6000396000f3fe608060405234801561001057600080fd5b50600436106101a35760003560e01c80636a20a8a1116100ee578063990db36311610097578063a9fd1a8f11610071578063a9fd1a8f1461030d578063b71712e414610385578063bf7ce7421461038d578063fe71954b146103a257600080fd5b8063990db363146102ea578063a00da731146102f2578063a03a0188146102fa57600080fd5b80637d3e3ef1116100c85780637d3e3ef1146102c75780638c6cd3ad146102cf5780638e2c2d3b146102e257600080fd5b80636a20a8a1146102a4578063774140b2146102ac57806379a94569146102bf57600080fd5b8063457bb7f411610150578063639dd37f1161012a578063639dd37f1461027657806367e1f61214610289578063684f04661461029c57600080fd5b8063457bb7f41461023a578063522e11771461025b57806354e410ca1461026357600080fd5b8063171755b111610181578063171755b1146101fd578063385bb5cd1461021257806343fe9e7b1461022557600080fd5b80630ceb2cef146101a85780630f8f4292146101bd57806312824836146101db575b600080fd5b6101bb6101b6366004611bdd565b6103b5565b005b6101c5610441565b6040516101d29190611d19565b60405180910390f35b600a546040805161ffff620100008404811682529092166020830152016101d2565b6102056104ba565b6040516101d29190611d82565b6101bb610220366004611bdd565b610543565b61022d6105d5565b6040516101d29190611ccc565b61024d610248366004611bdd565b610639565b6040519081526020016101d2565b6101bb610679565b60105460ff166040516101d29190611d6e565b6101bb610284366004611a63565b610a30565b6101bb610297366004611a63565b610b44565b6101bb610c55565b600b5461024d565b6101bb6102ba366004611b24565b610cde565b60045461024d565b6101bb610efa565b6101bb6102dd366004611c0d565b610fa5565b6101bb6111e5565b6101c5611269565b61022d6112c6565b61024d610308366004611bdd565b611329565b61035f60408051606081018252600080825260208201819052918101919091525060408051606081018252601154815260125460ff808216151560208401526101009091041615159181019190915290565b6040805182518152602080840151151590820152918101511515908201526060016101d2565b6101bb611362565b6103956113eb565b6040516101d29190611d95565b6101bb6103b0366004611b04565b6114d6565b6000546103ca906001600160a01b0316611565565b6001600160a01b0316336001600160a01b03161461042f5760405162461bcd60e51b815260206004820152601960248201527f417661696c61626c65206f6e6c7920666f722045706f6368730000000000000060448201526064015b60405180910390fd5b6011556012805460ff19166001179055565b606060066003018054806020026020016040519081016040528092919081815260200182805480156104b057602002820191906000526020600020906000905b825461010083900a900460ff168152602060019283018181049485019490930390920291018084116104815790505b5050505050905090565b6060600180546104c990611e63565b80601f01602080910402602001604051908101604052809291908181526020018280546104f590611e63565b80156104b05780601f10610517576101008083540402835291602001916104b0565b820191906000526020600020905b81548152906001019060200180831161052557509395945050505050565b600054610558906001600160a01b03166115f2565b6001600160a01b0316336001600160a01b0316146105b85760405162461bcd60e51b815260206004820152601c60248201527f417661696c61626c65206f6e6c7920666f7220436f6e73656e737573000000006044820152606401610426565b80600660050160008282546105cd9190611e34565b909155505050565b606060066001018054806020026020016040519081016040528092919081815260200182805480156104b057602002820191906000526020600020905b81546001600160a01b03168152600190910190602001808311610612575050505050905090565b600080600660070154831161064e5782610652565b600d545b6006549091508111610665576000610672565b6006546106729082611e4c565b9392505050565b60005461068e906001600160a01b03166115f2565b6001600160a01b0316336001600160a01b0316146106ee5760405162461bcd60e51b815260206004820152601c60248201527f417661696c61626c65206f6e6c7920666f7220436f6e73656e737573000000006044820152606401610426565b600160105460ff16600281111561071557634e487b7160e01b600052602160045260246000fd5b14156107575760405162461bcd60e51b8152602060048201526011602482015270105b1c9958591e4818dbdb5c1b195d1959607a1b6044820152606401610426565b6000546107e090610770906001600160a01b0316611629565b6001600160a01b03166306661abd6040518163ffffffff1660e01b815260040160206040518083038186803b1580156107a857600080fd5b505afa1580156107bc573d6000803e3d6000fd5b505050506040513d601f19601f820116820180604052508101906102489190611bf5565b1561082d5760405162461bcd60e51b815260206004820152601c60248201527f4e65656420746f20616464206d6f7265206c61737420626c6f636b73000000006044820152606401610426565b6000546108b690610846906001600160a01b0316611660565b6001600160a01b03166306661abd6040518163ffffffff1660e01b815260040160206040518083038186803b15801561087e57600080fd5b505afa158015610892573d6000803e3d6000fd5b505050506040513d601f19601f820116820180604052508101906103089190611bf5565b156109295760405162461bcd60e51b815260206004820152602660248201527f4d6f72652073757370656374656420626c6f636b73206e65656420746f20626560448201527f20616464656400000000000000000000000000000000000000000000000000006064820152608401610426565b600654600854146109a25760405162461bcd60e51b815260206004820152602560248201527f4e65656420746f20616464206d6f7265206d61726b73206f66206c617374206260448201527f6c6f636b730000000000000000000000000000000000000000000000000000006064820152608401610426565b60075460095414610a1a5760405162461bcd60e51b8152602060048201526024808201527f4e65656420746f20616464206d6f7265206d61726b73206f662073757370696360448201527f696f7573000000000000000000000000000000000000000000000000000000006064820152608401610426565b601080546001919060ff191682805b0217905550565b600054610a45906001600160a01b0316611629565b6001600160a01b0316336001600160a01b031614610acb5760405162461bcd60e51b815260206004820152602860248201527f417661696c61626c65206f6e6c7920666f72204c617374426c6f636b7354616260448201527f6c65207461626c650000000000000000000000000000000000000000000000006064820152608401610426565b600160105460ff166002811115610af257634e487b7160e01b600052602160045260246000fd5b1415610b345760405162461bcd60e51b8152602060048201526011602482015270105b1c9958591e4818dbdb5c1b195d1959607a1b6044820152606401610426565b610b416006600083611697565b50565b600054610b59906001600160a01b0316611660565b6001600160a01b0316336001600160a01b031614610bdf5760405162461bcd60e51b815260206004820152602360248201527f417661696c61626c65206f6e6c7920666f7220537573706963696f757320746160448201527f626c6500000000000000000000000000000000000000000000000000000000006064820152608401610426565b600160105460ff166002811115610c0657634e487b7160e01b600052602160045260246000fd5b1415610c485760405162461bcd60e51b8152602060048201526011602482015270105b1c9958591e4818dbdb5c1b195d1959607a1b6044820152606401610426565b610b416006600183611697565b600054610c6a906001600160a01b03166115f2565b6001600160a01b0316336001600160a01b031614610cca5760405162461bcd60e51b815260206004820152601c60248201527f417661696c61626c65206f6e6c7920666f7220436f6e73656e737573000000006044820152606401610426565b601080546002919060ff1916600183610a29565b6002546040805163483d45bd60e01b815290516000926001600160a01b03169163483d45bd916004808301926020929190829003018186803b158015610d2357600080fd5b505afa158015610d37573d6000803e3d6000fd5b505050506040513d601f19601f82011682018060405250810190610d5b9190611a47565b6001600160a01b0316636760c4b76040518163ffffffff1660e01b815260040160206040518083038186803b158015610d9357600080fd5b505afa158015610da7573d6000803e3d6000fd5b505050506040513d601f19601f82011682018060405250810190610dcb9190611a47565b9050336001600160a01b03821614610e2f5760405162461bcd60e51b815260206004820152602160248201527f417661696c61626c65206f6e6c7920666f7220616374696f6e206163636f756e6044820152601d60fa1b6064820152608401610426565b600160105460ff166002811115610e5657634e487b7160e01b600052602160045260246000fd5b1415610e985760405162461bcd60e51b8152602060048201526011602482015270105b1c9958591e4818dbdb5c1b195d1959607a1b6044820152606401610426565b6000825111610ee95760405162461bcd60e51b815260206004820152600560248201527f456d7074790000000000000000000000000000000000000000000000000000006044820152606401610426565b610ef5600684846117bd565b505050565b600054610f0f906001600160a01b03166115f2565b6001600160a01b0316336001600160a01b031614610f6f5760405162461bcd60e51b815260206004820152601c60248201527f417661696c61626c65206f6e6c7920666f7220436f6e73656e737573000000006044820152606401610426565b600a8054600290610f899062010000900461ffff16611e9e565b91906101000a81548161ffff021916908361ffff160217905550565b6002546040805163483d45bd60e01b815290516000926001600160a01b03169163483d45bd916004808301926020929190829003018186803b158015610fea57600080fd5b505afa158015610ffe573d6000803e3d6000fd5b505050506040513d601f19601f820116820180604052508101906110229190611a47565b6001600160a01b0316636760c4b76040518163ffffffff1660e01b815260040160206040518083038186803b15801561105a57600080fd5b505afa15801561106e573d6000803e3d6000fd5b505050506040513d601f19601f820116820180604052508101906110929190611a47565b9050336001600160a01b038216146110f65760405162461bcd60e51b815260206004820152602160248201527f417661696c61626c65206f6e6c7920666f7220616374696f6e206163636f756e6044820152601d60fa1b6064820152608401610426565b600160105460ff16600281111561111d57634e487b7160e01b600052602160045260246000fd5b141561115f5760405162461bcd60e51b8152602060048201526011602482015270105b1c9958591e4818dbdb5c1b195d1959607a1b6044820152606401610426565b826111ac5760405162461bcd60e51b815260206004820152600f60248201527f456d7074792064657669636520494400000000000000000000000000000000006044820152606401610426565b600485905583516111c4906005906020870190611943565b50600383905581516111dd906001906020850190611943565b505050505050565b6000546111fa906001600160a01b03166115f2565b6001600160a01b0316336001600160a01b03161461125a5760405162461bcd60e51b815260206004820152601c60248201527f417661696c61626c65206f6e6c7920666f7220436f6e73656e737573000000006044820152606401610426565b600a805463ffffffff19169055565b606060066002018054806020026020016040519081016040528092919081815260200182805480156104b0576000918252602091829020805460ff1684529082028301929091600191018084116104815790505050505050905090565b606060066000018054806020026020016040519081016040528092919081815260200182805480156104b0576020028201919060005260206000209081546001600160a01b03168152600190910190602001808311610612575050505050905090565b600080600660080154831161133e5782611342565b600e545b6007549091508111611355576000610672565b6007546106729082611e4c565b600054611377906001600160a01b03166115f2565b6001600160a01b0316336001600160a01b0316146113d75760405162461bcd60e51b815260206004820152601c60248201527f417661696c61626c65206f6e6c7920666f7220436f6e73656e737573000000006044820152606401610426565b600a8054600090610f899061ffff16611e9e565b604080516080810182526000808252602082018190529181019190915260608082015260408051608081018252600280546001600160a01b031682526003546020830152600454928201929092526005805491929160608401919061144f90611e63565b80601f016020809104026020016040519081016040528092919081815260200182805461147b90611e63565b80156114c85780601f1061149d576101008083540402835291602001916114c8565b820191906000526020600020905b8154815290600101906020018083116114ab57829003601f168201915b505050505081525050905090565b6000546114eb906001600160a01b0316611565565b6001600160a01b0316336001600160a01b03161461154b5760405162461bcd60e51b815260206004820152601960248201527f417661696c61626c65206f6e6c7920666f722045706f636873000000000000006044820152606401610426565b601280549115156101000261ff0019909216919091179055565b600061157082611908565b6001600160a01b031663bcaa0c55600b6040518263ffffffff1660e01b815260040161159c9190611d54565b60206040518083038186803b1580156115b457600080fd5b505afa1580156115c8573d6000803e3d6000fd5b505050506040513d601f19601f820116820180604052508101906115ec9190611a47565b92915050565b60006115fd82611908565b6001600160a01b031663bcaa0c5560086040518263ffffffff1660e01b815260040161159c9190611d54565b600061163482611908565b6001600160a01b031663bcaa0c55600a6040518263ffffffff1660e01b815260040161159c9190611d54565b600061166b82611908565b6001600160a01b031663bcaa0c5560096040518263ffffffff1660e01b815260040161159c9190611d54565b60005a905060008060018560018111156116c157634e487b7160e01b600052602160045260246000fd5b1490506000816116d85760078701548754106116e4565b60088701546001880154105b90506000826116f357876116f8565b876001015b90505b81801561170d575085518461ffff1614155b801561172657506233e1405a6117239087611e4c565b11155b156117b35780868561ffff168151811061175057634e487b7160e01b600052603260045260246000fd5b60209081029190910181015182546001810184556000938452919092200180547fffffffffffffffffffffffff0000000000000000000000000000000000000000166001600160a01b039092169190911790556117ac84611e9e565b93506116fb565b5050505050505050565b600060018360018111156117e157634e487b7160e01b600052602160045260246000fd5b14905060008161180157600285015485546117fc9190611e4c565b611815565b600385015460018601546118159190611e4c565b9050600082611827578560020161182c565b856003015b9050835182101561187f5760405162461bcd60e51b815260206004820152601260248201527f496e76616c6964206d61726b732073697a6500000000000000000000000000006044820152606401610426565b60005b84518110156118ff57818582815181106118ac57634e487b7160e01b600052603260045260246000fd5b6020908102919091018101518254600181018455600093845292829020918304909101805460ff928316601f9094166101000a9384029290930219909216179055806118f781611ec0565b915050611882565b50505050505050565b6000816001600160a01b031663f1f0bd016040518163ffffffff1660e01b815260040160206040518083038186803b1580156115b457600080fd5b82805461194f90611e63565b90600052602060002090601f01602090048101928261197157600085556119b7565b82601f1061198a57805160ff19168380011785556119b7565b828001600101855582156119b7579182015b828111156119b757825182559160200191906001019061199c565b506119c39291506119c7565b5090565b5b808211156119c357600081556001016119c8565b600082601f8301126119ec578081fd5b813567ffffffffffffffff811115611a0657611a06611f07565b611a19601f8201601f1916602001611ddf565b818152846020838601011115611a2d578283fd5b816020850160208301379081016020019190915292915050565b600060208284031215611a58578081fd5b815161067281611f1d565b60006020808385031215611a75578182fd5b823567ffffffffffffffff811115611a8b578283fd5b8301601f81018513611a9b578283fd5b8035611aae611aa982611e10565b611ddf565b80828252848201915084840188868560051b8701011115611acd578687fd5b8694505b83851015611af8578035611ae481611f1d565b835260019490940193918501918501611ad1565b50979650505050505050565b600060208284031215611b15578081fd5b81358015158114610672578182fd5b60008060408385031215611b36578081fd5b823560028110611b44578182fd5b915060208381013567ffffffffffffffff811115611b60578283fd5b8401601f81018613611b70578283fd5b8035611b7e611aa982611e10565b80828252848201915084840189868560051b8701011115611b9d578687fd5b8694505b83851015611bcd57803560ff81168114611bb9578788fd5b835260019490940193918501918501611ba1565b5080955050505050509250929050565b600060208284031215611bee578081fd5b5035919050565b600060208284031215611c06578081fd5b5051919050565b60008060008060808587031215611c22578182fd5b84359350602085013567ffffffffffffffff80821115611c40578384fd5b611c4c888389016119dc565b9450604087013593506060870135915080821115611c68578283fd5b50611c75878288016119dc565b91505092959194509250565b60008151808452815b81811015611ca657602081850181015186830182015201611c8a565b81811115611cb75782602083870101525b50601f01601f19169290920160200192915050565b6020808252825182820181905260009190848201906040850190845b81811015611d0d5783516001600160a01b031683529284019291840191600101611ce8565b50909695505050505050565b6020808252825182820181905260009190848201906040850190845b81811015611d0d57835160ff1683529284019291840191600101611d35565b60208101600c8310611d6857611d68611ef1565b91905290565b6020810160038310611d6857611d68611ef1565b6020815260006106726020830184611c81565b602081526001600160a01b038251166020820152602082015160408201526040820151606082015260006060830151608080840152611dd760a0840182611c81565b949350505050565b604051601f8201601f1916810167ffffffffffffffff81118282101715611e0857611e08611f07565b604052919050565b600067ffffffffffffffff821115611e2a57611e2a611f07565b5060051b60200190565b60008219821115611e4757611e47611edb565b500190565b600082821015611e5e57611e5e611edb565b500390565b600181811c90821680611e7757607f821691505b60208210811415611e9857634e487b7160e01b600052602260045260246000fd5b50919050565b600061ffff80831681811415611eb657611eb6611edb565b6001019392505050565b6000600019821415611ed457611ed4611edb565b5060010190565b634e487b7160e01b600052601160045260246000fd5b634e487b7160e01b600052602160045260246000fd5b634e487b7160e01b600052604160045260246000fd5b6001600160a01b0381168114610b4157600080fdfea264697066735822122046257d1f42b61c772e5339ba8678802c6721c6cd21c128fccddb1ae06b57b11164736f6c63430008040033",
  "linkReferences": {},
  "deployedLinkReferences": {}
}