{
  "_format": "hh-sol-artifact-1",
  "contractName": "TeeOffer",
  "sourceName": "contracts/TeeOffer.sol",
  "abi": [
    {
      "inputs": [
        {
          "internalType": "address",
          "name": "_superpro",
          "type": "address"
        },
        {
          "internalType": "address",
          "name": "_provider",
          "type": "address"
        },
        {
          "internalType": "address",
          "name": "_creator",
          "type": "address"
        },
        {
          "components": [
            {
              "internalType": "string",
              "name": "name",
              "type": "string"
            },
            {
              "internalType": "string",
              "name": "description",
              "type": "string"
            },
            {
              "internalType": "string",
              "name": "teeType",
              "type": "string"
            },
            {
              "internalType": "uint32",
              "name": "slots",
              "type": "uint32"
            },
            {
              "internalType": "uint64",
              "name": "minTimeMinutes",
              "type": "uint64"
            },
            {
              "internalType": "string",
              "name": "properties",
              "type": "string"
            },
            {
              "internalType": "address",
              "name": "tcb",
              "type": "address"
            },
            {
              "internalType": "string",
              "name": "tlb",
              "type": "string"
            },
            {
              "internalType": "string",
              "name": "argsPublicKey",
              "type": "string"
            },
            {
              "internalType": "string",
              "name": "argsPublicKeyAlgo",
              "type": "string"
            }
          ],
          "internalType": "struct TeeOfferInfo",
          "name": "_info",
          "type": "tuple"
        },
        {
          "internalType": "bytes32",
          "name": "_externalId",
          "type": "bytes32"
        }
      ],
      "stateMutability": "nonpayable",
      "type": "constructor"
    },
    {
      "inputs": [
        {
          "internalType": "address",
          "name": "tcb",
          "type": "address"
        }
      ],
      "name": "addTcb",
      "outputs": [],
      "stateMutability": "nonpayable",
      "type": "function"
    },
    {
      "inputs": [
        {
          "internalType": "string",
          "name": "tlb",
          "type": "string"
        }
      ],
      "name": "addTlb",
      "outputs": [],
      "stateMutability": "nonpayable",
      "type": "function"
    },
    {
      "inputs": [],
      "name": "blockOffer",
      "outputs": [],
      "stateMutability": "nonpayable",
      "type": "function"
    },
    {
      "inputs": [],
      "name": "disable",
      "outputs": [],
      "stateMutability": "nonpayable",
      "type": "function"
    },
    {
      "inputs": [],
      "name": "enable",
      "outputs": [],
      "stateMutability": "nonpayable",
      "type": "function"
    },
    {
      "inputs": [],
      "name": "get",
      "outputs": [
        {
          "components": [
            {
              "internalType": "string",
              "name": "name",
              "type": "string"
            },
            {
              "internalType": "string",
              "name": "description",
              "type": "string"
            },
            {
              "internalType": "string",
              "name": "teeType",
              "type": "string"
            },
            {
              "internalType": "uint32",
              "name": "slots",
              "type": "uint32"
            },
            {
              "internalType": "uint64",
              "name": "minTimeMinutes",
              "type": "uint64"
            },
            {
              "internalType": "string",
              "name": "properties",
              "type": "string"
            },
            {
              "internalType": "address",
              "name": "tcb",
              "type": "address"
            },
            {
              "internalType": "string",
              "name": "tlb",
              "type": "string"
            },
            {
              "internalType": "string",
              "name": "argsPublicKey",
              "type": "string"
            },
            {
              "internalType": "string",
              "name": "argsPublicKeyAlgo",
              "type": "string"
            }
          ],
          "internalType": "struct TeeOfferInfo",
          "name": "",
          "type": "tuple"
        },
        {
          "internalType": "address",
          "name": "",
          "type": "address"
        },
        {
          "internalType": "uint256",
          "name": "",
          "type": "uint256"
        }
      ],
      "stateMutability": "view",
      "type": "function"
    },
    {
      "inputs": [
        {
          "internalType": "uint256",
          "name": "startDate",
          "type": "uint256"
        },
        {
          "internalType": "uint256",
          "name": "orderPrice",
          "type": "uint256"
        }
      ],
      "name": "getClosingPrice",
      "outputs": [
        {
          "internalType": "uint256",
          "name": "",
          "type": "uint256"
        }
      ],
      "stateMutability": "view",
      "type": "function"
    },
    {
      "inputs": [],
      "name": "getDisabledAfter",
      "outputs": [
        {
          "internalType": "uint256",
          "name": "",
          "type": "uint256"
        }
      ],
      "stateMutability": "view",
      "type": "function"
    },
    {
      "inputs": [],
      "name": "getHoldDeposit",
      "outputs": [
        {
          "internalType": "uint256",
          "name": "",
          "type": "uint256"
        }
      ],
      "stateMutability": "pure",
      "type": "function"
    },
    {
      "inputs": [],
      "name": "getInfo",
      "outputs": [
        {
          "components": [
            {
              "internalType": "string",
              "name": "name",
              "type": "string"
            },
            {
              "internalType": "string",
              "name": "description",
              "type": "string"
            },
            {
              "internalType": "string",
              "name": "teeType",
              "type": "string"
            },
            {
              "internalType": "uint32",
              "name": "slots",
              "type": "uint32"
            },
            {
              "internalType": "uint64",
              "name": "minTimeMinutes",
              "type": "uint64"
            },
            {
              "internalType": "string",
              "name": "properties",
              "type": "string"
            },
            {
              "internalType": "address",
              "name": "tcb",
              "type": "address"
            },
            {
              "internalType": "string",
              "name": "tlb",
              "type": "string"
            },
            {
              "internalType": "string",
              "name": "argsPublicKey",
              "type": "string"
            },
            {
              "internalType": "string",
              "name": "argsPublicKeyAlgo",
              "type": "string"
            }
          ],
          "internalType": "struct TeeOfferInfo",
          "name": "",
          "type": "tuple"
        }
      ],
      "stateMutability": "view",
      "type": "function"
    },
    {
      "inputs": [],
      "name": "getLastTcbAddedTime",
      "outputs": [
        {
          "internalType": "uint256",
          "name": "",
          "type": "uint256"
        }
      ],
      "stateMutability": "view",
      "type": "function"
    },
    {
      "inputs": [],
      "name": "getLastTcbReward",
      "outputs": [
        {
          "internalType": "uint256",
          "name": "",
          "type": "uint256"
        }
      ],
      "stateMutability": "view",
      "type": "function"
    },
    {
      "inputs": [],
      "name": "getLastTlbAddedTime",
      "outputs": [
        {
          "internalType": "uint256",
          "name": "",
          "type": "uint256"
        }
      ],
      "stateMutability": "view",
      "type": "function"
    },
    {
      "inputs": [
        {
          "internalType": "address",
          "name": "lockedTcb",
          "type": "address"
        }
      ],
      "name": "getLockInfo",
      "outputs": [
        {
          "components": [
            {
              "internalType": "uint256",
              "name": "fromDate",
              "type": "uint256"
            },
            {
              "internalType": "uint256",
              "name": "toDate",
              "type": "uint256"
            },
            {
              "internalType": "uint256",
              "name": "amount",
              "type": "uint256"
            }
          ],
          "internalType": "struct LockedTokens",
          "name": "",
          "type": "tuple"
        }
      ],
      "stateMutability": "view",
      "type": "function"
    },
    {
      "inputs": [],
      "name": "getOfferGroup",
      "outputs": [
        {
          "internalType": "enum OfferGroup",
          "name": "",
          "type": "uint8"
        }
      ],
      "stateMutability": "pure",
      "type": "function"
    },
    {
      "inputs": [],
      "name": "getOfferType",
      "outputs": [
        {
          "internalType": "enum OfferType",
          "name": "",
          "type": "uint8"
        }
      ],
      "stateMutability": "pure",
      "type": "function"
    },
    {
      "inputs": [],
      "name": "getOrigins",
      "outputs": [
        {
          "components": [
            {
              "internalType": "uint256",
              "name": "createdDate",
              "type": "uint256"
            },
            {
              "internalType": "address",
              "name": "createdBy",
              "type": "address"
            },
            {
              "internalType": "uint256",
              "name": "modifiedDate",
              "type": "uint256"
            },
            {
              "internalType": "address",
              "name": "modifiedBy",
              "type": "address"
            }
          ],
          "internalType": "struct Origins",
          "name": "",
          "type": "tuple"
        }
      ],
      "stateMutability": "view",
      "type": "function"
    },
    {
      "inputs": [],
      "name": "getProvider",
      "outputs": [
        {
          "internalType": "address",
          "name": "",
          "type": "address"
        }
      ],
      "stateMutability": "view",
      "type": "function"
    },
    {
      "inputs": [],
      "name": "getTcb",
      "outputs": [
        {
          "internalType": "address",
          "name": "",
          "type": "address"
        }
      ],
      "stateMutability": "view",
      "type": "function"
    },
    {
      "inputs": [],
      "name": "getTlb",
      "outputs": [
        {
          "internalType": "string",
          "name": "",
          "type": "string"
        }
      ],
      "stateMutability": "view",
      "type": "function"
    },
    {
      "inputs": [],
      "name": "getTotalLocked",
      "outputs": [
        {
          "internalType": "uint256",
          "name": "",
          "type": "uint256"
        }
      ],
      "stateMutability": "view",
      "type": "function"
    },
    {
      "inputs": [],
      "name": "getViolationRate",
      "outputs": [
        {
          "internalType": "uint8",
          "name": "",
          "type": "uint8"
        }
      ],
      "stateMutability": "view",
      "type": "function"
    },
    {
      "inputs": [
        {
          "internalType": "address",
          "name": "checkedTcb",
          "type": "address"
        }
      ],
      "name": "hasTcb",
      "outputs": [
        {
          "internalType": "bool",
          "name": "",
          "type": "bool"
        }
      ],
      "stateMutability": "view",
      "type": "function"
    },
    {
      "inputs": [],
      "name": "incrViolationRate",
      "outputs": [],
      "stateMutability": "nonpayable",
      "type": "function"
    },
    {
      "inputs": [
        {
          "internalType": "address",
          "name": "",
          "type": "address"
        }
      ],
      "name": "isAllowedFor",
      "outputs": [
        {
          "internalType": "bool",
          "name": "",
          "type": "bool"
        }
      ],
      "stateMutability": "pure",
      "type": "function"
    },
    {
      "inputs": [],
      "name": "isCancelable",
      "outputs": [
        {
          "internalType": "bool",
          "name": "",
          "type": "bool"
        }
      ],
      "stateMutability": "pure",
      "type": "function"
    },
    {
      "inputs": [],
      "name": "isEnabled",
      "outputs": [
        {
          "internalType": "bool",
          "name": "",
          "type": "bool"
        }
      ],
      "stateMutability": "view",
      "type": "function"
    },
    {
      "inputs": [
        {
          "internalType": "enum OfferType",
          "name": "",
          "type": "uint8"
        }
      ],
      "name": "isRestrictedByOfferType",
      "outputs": [
        {
          "internalType": "bool",
          "name": "",
          "type": "bool"
        }
      ],
      "stateMutability": "pure",
      "type": "function"
    },
    {
      "inputs": [
        {
          "internalType": "address",
          "name": "",
          "type": "address"
        }
      ],
      "name": "isRestrictionsPermitThatOffer",
      "outputs": [
        {
          "internalType": "bool",
          "name": "",
          "type": "bool"
        }
      ],
      "stateMutability": "pure",
      "type": "function"
    },
    {
      "inputs": [
        {
          "internalType": "address",
          "name": "lockedTcb",
          "type": "address"
        },
        {
          "internalType": "uint256",
          "name": "reward",
          "type": "uint256"
        }
      ],
      "name": "lock",
      "outputs": [],
      "stateMutability": "nonpayable",
      "type": "function"
    },
    {
      "inputs": [
        {
          "internalType": "string",
          "name": "description",
          "type": "string"
        }
      ],
      "name": "setDescription",
      "outputs": [],
      "stateMutability": "nonpayable",
      "type": "function"
    },
    {
      "inputs": [
        {
          "internalType": "string",
          "name": "publicKey",
          "type": "string"
        },
        {
          "internalType": "string",
          "name": "algo",
          "type": "string"
        }
      ],
      "name": "setKeys",
      "outputs": [],
      "stateMutability": "nonpayable",
      "type": "function"
    },
    {
      "inputs": [
        {
          "internalType": "string",
          "name": "name",
          "type": "string"
        }
      ],
      "name": "setName",
      "outputs": [],
      "stateMutability": "nonpayable",
      "type": "function"
    },
    {
      "inputs": [
        {
          "internalType": "address",
          "name": "unlockedTcb",
          "type": "address"
        },
        {
          "internalType": "uint256",
          "name": "reward",
          "type": "uint256"
        }
      ],
      "name": "unlock",
      "outputs": [],
      "stateMutability": "nonpayable",
      "type": "function"
    }
  ],
  "bytecode": "0x60806040523480156200001157600080fd5b506040516200300f3803806200300f8339810160408190526200003491620003df565b6000826060015163ffffffff1611620000835760405162461bcd60e51b815260206004820152600d60248201526c496e76616c696420736c6f747360981b604482015260640160405180910390fd5b600080546001600160a01b0319166001600160a01b038616179055815180518391600391620000ba9183916020909101906200025e565b506020828101518051620000d592600185019201906200025e565b5060408201518051620000f39160028401916020909101906200025e565b50606082015160038201805460808501516001600160401b0316640100000000026001600160601b031990911663ffffffff9093169290921791909117905560a082015180516200014f9160048401916020909101906200025e565b5060c08201516005820180546001600160a01b0319166001600160a01b0390921691909117905560e08201518051620001939160068401916020909101906200025e565b506101008201518051620001b29160078401916020909101906200025e565b506101208201518051620001d19160088401916020909101906200025e565b5050600060015550620001f2600c846200021f602090811b620021cc17901c565b601080546001600160a01b0319166001600160a01b03969096169590951790945550505060025562000668565b428083556001830180546001600160a01b039093166001600160a01b031993841681179091556002840191909155600390920180549091169091179055565b8280546200026c9062000615565b90600052602060002090601f016020900481019282620002905760008555620002db565b82601f10620002ab57805160ff1916838001178555620002db565b82800160010185558215620002db579182015b82811115620002db578251825591602001919060010190620002be565b50620002e9929150620002ed565b5090565b5b80821115620002e95760008155600101620002ee565b80516001600160a01b03811681146200031c57600080fd5b919050565b600082601f83011262000332578081fd5b81516001600160401b038111156200034e576200034e62000652565b602062000364601f8301601f19168201620005e2565b828152858284870101111562000378578384fd5b835b83811015620003975785810183015182820184015282016200037a565b83811115620003a857848385840101525b5095945050505050565b805163ffffffff811681146200031c57600080fd5b80516001600160401b03811681146200031c57600080fd5b600080600080600060a08688031215620003f7578081fd5b620004028662000304565b9450620004126020870162000304565b9350620004226040870162000304565b60608701519093506001600160401b03808211156200043f578283fd5b90870190610140828a03121562000454578283fd5b6200045e620005b6565b8251828111156200046d578485fd5b6200047b8b82860162000321565b82525060208301518281111562000490578485fd5b6200049e8b82860162000321565b602083015250604083015182811115620004b6578485fd5b620004c48b82860162000321565b604083015250620004d860608401620003b2565b6060820152620004eb60808401620003c7565b608082015260a08301518281111562000502578485fd5b620005108b82860162000321565b60a0830152506200052460c0840162000304565b60c082015260e0830151828111156200053b578485fd5b620005498b82860162000321565b60e083015250610100808401518381111562000563578586fd5b620005718c82870162000321565b82840152505061012080840151838111156200058b578586fd5b620005998c82870162000321565b828401525050809450505050608086015190509295509295909350565b60405161014081016001600160401b0381118282101715620005dc57620005dc62000652565b60405290565b604051601f8201601f191681016001600160401b03811182821017156200060d576200060d62000652565b604052919050565b600181811c908216806200062a57607f821691505b602082108114156200064c57634e487b7160e01b600052602260045260246000fd5b50919050565b634e487b7160e01b600052604160045260246000fd5b61299780620006786000396000f3fe608060405234801561001057600080fd5b50600436106102265760003560e01c80637eee288d1161012a578063bab13ee1116100bd578063c47f00271161008c578063f12018c311610071578063f12018c31461051a578063f4732da61461052e578063f55ba0d31461051a57600080fd5b8063c47f0027146104f4578063c6f3d61c1461050757600080fd5b8063bab13ee1146104c1578063bba610b0146104c9578063bbb5d5f7146104dc578063c422c1b1146104e357600080fd5b8063a3907d71116100f9578063a3907d71146103fe578063aad4513314610406578063af5372e61461040e578063b737e98e1461041d57600080fd5b80637eee288d146103bd5780638383da75146103d05780638a35e942146103e357806390c3f38f146103eb57600080fd5b80632f2770db116101bd578063502524611161018c5780636aa633b6116101715780636aa633b6146103695780636d4ce63c146103715780637238ccdb1461038857600080fd5b8063502524611461034c5780635a9b0b891461035457600080fd5b80632f2770db146103025780633f3de01c1461030a57806344c406771461031f578063483d45bd1461032757600080fd5b8063282d3fdf116101f9578063282d3fdf146102a057806328e01805146102b55780632acdf0fa146102e05780632c413abf146102ef57600080fd5b80630c72dc311461022b578063154e1c151461024f5780631bffb491146102795780631f6bb8481461028c575b600080fd5b600054600160a01b900460ff1660405160ff90911681526020015b60405180910390f35b6008546001600160a01b03166000908152601260205260409020545b604051908152602001610246565b60015b6040519015158152602001610246565b61027c61029a36600461251a565b50600090565b6102b36102ae3660046124ef565b610536565b005b61027c6102c33660046124b7565b6001600160a01b0316600090815260126020526040902054151590565b60016040516102469190612781565b6102b36102fd3660046124b7565b610645565b6102b3610739565b61031261097a565b60405161024691906127bd565b6102b3610a0f565b6000546001600160a01b03165b6040516001600160a01b039091168152602001610246565b60145461026b565b61035c610ac0565b60405161024691906127d0565b61027c610f83565b610379610f9d565b604051610246939291906127e3565b61039b6103963660046124b7565b611483565b6040805182518152602080840151908201529181015190820152606001610246565b6102b36103cb3660046124ef565b6114e9565b61026b6103de3660046125ed565b61172b565b61026b6117d2565b6102b36103f9366004612539565b611949565b6102b3611ab1565b60015461026b565b60006040516102469190612795565b61047f6040805160808101825260008082526020820181905291810182905260608101919091525060408051608081018252600c548152600d546001600160a01b039081166020830152600e5492820192909252600f54909116606082015290565b6040516102469190815181526020808301516001600160a01b039081169183019190915260408084015190830152606092830151169181019190915260800190565b6102b3611c91565b6102b36104d7366004612574565b611d3a565b600061026b565b6008546001600160a01b0316610334565b6102b3610502366004612539565b611eb7565b6102b3610515366004612539565b61201b565b61027c6105283660046124b7565b50600190565b60135461026b565b60105461054b906001600160a01b031661220b565b6001600160a01b0316336001600160a01b0316146105b05760405162461bcd60e51b815260206004820152601c60248201527f4f6e6c7920617661696c61626c6520666f72205465654f66666572730000000060448201526064015b60405180910390fd5b601054429060009062015180906105d1906001600160a01b03166001612298565b6105db9190612860565b6105e59042612811565b6001600160a01b0385166000908152601160205260408120848155600181018390556002810180549394509092869290610620908490612811565b9250508190555083601360008282546106399190612811565b90915550505050505050565b60105461065a906001600160a01b031661220b565b6001600160a01b0316336001600160a01b0316146106ba5760405162461bcd60e51b815260206004820152601c60248201527f4f6e6c7920617661696c61626c6520666f72205465654f66666572730000000060448201526064016105a7565b6000546002600160a01b90910460ff16106107075760405162461bcd60e51b815260206004820152600d60248201526c13d999995c88189b1bd8dad959609a1b60448201526064016105a7565b600880546001600160a01b039092166001600160a01b0319909216821790556000908152601260205260409020429055565b60008054906101000a90046001600160a01b03166001600160a01b0316636760c4b76040518163ffffffff1660e01b815260040160206040518083038186803b15801561078557600080fd5b505afa158015610799573d6000803e3d6000fd5b505050506040513d601f19601f820116820180604052508101906107bd91906124d3565b6001600160a01b0316336001600160a01b0316146108275760405162461bcd60e51b815260206004820152602160248201527f4f6e6c7920617661696c61626c6520666f7220416374696f6e206163636f756e6044820152601d60fa1b60648201526084016105a7565b6000546002600160a01b90910460ff16106108745760405162461bcd60e51b815260206004820152600d60248201526c13d999995c88189b1bd8dad959609a1b60448201526064016105a7565b600154156108c45760405162461bcd60e51b815260206004820152601960248201527f4f6666657220697320616c72656164792064697361626c65640000000000000060448201526064016105a7565b42600e55600f80546001600160a01b0319163317905560105462015180906108f6906001600160a01b03166004612298565b6109009190612860565b61090a9042612811565b600181905560008054604051639789e32360e01b8152600481019290925260248201929092526001600160a01b0390911690639789e323906044015b600060405180830381600087803b15801561096057600080fd5b505af1158015610974573d6000803e3d6000fd5b50505050565b60606003600601805461098c90612896565b80601f01602080910402602001604051908101604052809291908181526020018280546109b890612896565b8015610a055780601f106109da57610100808354040283529160200191610a05565b820191906000526020600020905b8154815290600101906020018083116109e857829003601f168201915b5050505050905090565b601054610a24906001600160a01b031661220b565b6001600160a01b0316336001600160a01b031614610a845760405162461bcd60e51b815260206004820152601c60248201527f4f6e6c7920617661696c61626c6520666f72205465654f66666572730000000060448201526064016105a7565b600060138190558054604051639789e32360e01b815260048101929092524260248301526001600160a01b031690639789e32390604401610946565b610b2f604051806101400160405280606081526020016060815260200160608152602001600063ffffffff168152602001600067ffffffffffffffff1681526020016060815260200160006001600160a01b031681526020016060815260200160608152602001606081525090565b600360405180610140016040529081600082018054610b4d90612896565b80601f0160208091040260200160405190810160405280929190818152602001828054610b7990612896565b8015610bc65780601f10610b9b57610100808354040283529160200191610bc6565b820191906000526020600020905b815481529060010190602001808311610ba957829003601f168201915b50505050508152602001600182018054610bdf90612896565b80601f0160208091040260200160405190810160405280929190818152602001828054610c0b90612896565b8015610c585780601f10610c2d57610100808354040283529160200191610c58565b820191906000526020600020905b815481529060010190602001808311610c3b57829003601f168201915b50505050508152602001600282018054610c7190612896565b80601f0160208091040260200160405190810160405280929190818152602001828054610c9d90612896565b8015610cea5780601f10610cbf57610100808354040283529160200191610cea565b820191906000526020600020905b815481529060010190602001808311610ccd57829003601f168201915b5050509183525050600382015463ffffffff81166020830152640100000000900467ffffffffffffffff166040820152600482018054606090920191610d2f90612896565b80601f0160208091040260200160405190810160405280929190818152602001828054610d5b90612896565b8015610da85780601f10610d7d57610100808354040283529160200191610da8565b820191906000526020600020905b815481529060010190602001808311610d8b57829003601f168201915b505050918352505060058201546001600160a01b03166020820152600682018054604090920191610dd890612896565b80601f0160208091040260200160405190810160405280929190818152602001828054610e0490612896565b8015610e515780601f10610e2657610100808354040283529160200191610e51565b820191906000526020600020905b815481529060010190602001808311610e3457829003601f168201915b50505050508152602001600782018054610e6a90612896565b80601f0160208091040260200160405190810160405280929190818152602001828054610e9690612896565b8015610ee35780601f10610eb857610100808354040283529160200191610ee3565b820191906000526020600020905b815481529060010190602001808311610ec657829003601f168201915b50505050508152602001600882018054610efc90612896565b80601f0160208091040260200160405190810160405280929190818152602001828054610f2890612896565b8015610f755780601f10610f4a57610100808354040283529160200191610f75565b820191906000526020600020905b815481529060010190602001808311610f5857829003601f168201915b505050505081525050905090565b600060015460001480610f9857506001544211155b905090565b61100c604051806101400160405280606081526020016060815260200160608152602001600063ffffffff168152602001600067ffffffffffffffff1681526020016060815260200160006001600160a01b031681526020016060815260200160608152602001606081525090565b600080600360008054906101000a90046001600160a01b0316600154826040518061014001604052908160008201805461104590612896565b80601f016020809104026020016040519081016040528092919081815260200182805461107190612896565b80156110be5780601f10611093576101008083540402835291602001916110be565b820191906000526020600020905b8154815290600101906020018083116110a157829003601f168201915b505050505081526020016001820180546110d790612896565b80601f016020809104026020016040519081016040528092919081815260200182805461110390612896565b80156111505780601f1061112557610100808354040283529160200191611150565b820191906000526020600020905b81548152906001019060200180831161113357829003601f168201915b5050505050815260200160028201805461116990612896565b80601f016020809104026020016040519081016040528092919081815260200182805461119590612896565b80156111e25780601f106111b7576101008083540402835291602001916111e2565b820191906000526020600020905b8154815290600101906020018083116111c557829003601f168201915b5050509183525050600382015463ffffffff81166020830152640100000000900467ffffffffffffffff16604082015260048201805460609092019161122790612896565b80601f016020809104026020016040519081016040528092919081815260200182805461125390612896565b80156112a05780601f10611275576101008083540402835291602001916112a0565b820191906000526020600020905b81548152906001019060200180831161128357829003601f168201915b505050918352505060058201546001600160a01b031660208201526006820180546040909201916112d090612896565b80601f01602080910402602001604051908101604052809291908181526020018280546112fc90612896565b80156113495780601f1061131e57610100808354040283529160200191611349565b820191906000526020600020905b81548152906001019060200180831161132c57829003601f168201915b5050505050815260200160078201805461136290612896565b80601f016020809104026020016040519081016040528092919081815260200182805461138e90612896565b80156113db5780601f106113b0576101008083540402835291602001916113db565b820191906000526020600020905b8154815290600101906020018083116113be57829003601f168201915b505050505081526020016008820180546113f490612896565b80601f016020809104026020016040519081016040528092919081815260200182805461142090612896565b801561146d5780601f106114425761010080835404028352916020019161146d565b820191906000526020600020905b81548152906001019060200180831161145057829003601f168201915b5050505050815250509250925092509250909192565b6114a760405180606001604052806000815260200160008152602001600081525090565b506001600160a01b0316600090815260116020908152604091829020825160608101845281548152600182015492810192909252600201549181019190915290565b6010546114fe906001600160a01b031661220b565b6001600160a01b0316336001600160a01b03161461155e5760405162461bcd60e51b815260206004820152601c60248201527f4f6e6c7920617661696c61626c6520666f72205465654f66666572730000000060448201526064016105a7565b6000546002600160a01b90910460ff16106115ab5760405162461bcd60e51b815260206004820152600d60248201526c13d999995c88189b1bd8dad959609a1b60448201526064016105a7565b6001600160a01b0382166000908152601160205260409020601354158015906115da5750806002015460135410155b61164c5760405162461bcd60e51b815260206004820152602c60248201527f52657761726420666f7220746869732054434220636f6e66697363617465642060448201527f627920436f6e73656e737573000000000000000000000000000000000000000060648201526084016105a7565b80600201548211156116a05760405162461bcd60e51b815260206004820152601860248201527f4e6f7420656e6f756768206c6f636b656420746f6b656e73000000000000000060448201526064016105a7565b42816001015411156116f45760405162461bcd60e51b815260206004820152601460248201527f546f6f206561726c7920666f7220756e6c6f636b00000000000000000000000060448201526064016105a7565b81816002016000828254611708919061287f565b925050819055508160136000828254611721919061287f565b9091555050505050565b600080611738844261287f565b90506000611747603c83612829565b600654909150640100000000900467ffffffffffffffff1681101561177d5750600654640100000000900467ffffffffffffffff165b60065460009063ffffffff166117916117d2565b61179b9190612829565b905060006117ad603c6201518061283d565b63ffffffff166117bd8385612860565b6117c79190612829565b979650505050505050565b6008546000906001600160a01b03166117eb5750600090565b601054611800906001600160a01b0316612325565b6008546040517fb8ac86420000000000000000000000000000000000000000000000000000000081526001600160a01b03918216600482015291169063b8ac86429060240160206040518083038186803b15801561185d57600080fd5b505afa158015611871573d6000803e3d6000fd5b505050506040513d601f19601f8201168201806040525081019061189591906125d5565b6010546118aa906001600160a01b0316612325565b6008546040517fc00007b00000000000000000000000000000000000000000000000000000000081526001600160a01b03918216600482015291169063c00007b09060240160206040518083038186803b15801561190757600080fd5b505afa15801561191b573d6000803e3d6000fd5b505050506040513d601f19601f8201168201806040525081019061193f91906125d5565b610f989190612811565b60008054906101000a90046001600160a01b03166001600160a01b0316636760c4b76040518163ffffffff1660e01b815260040160206040518083038186803b15801561199557600080fd5b505afa1580156119a9573d6000803e3d6000fd5b505050506040513d601f19601f820116820180604052508101906119cd91906124d3565b6001600160a01b0316336001600160a01b031614611a375760405162461bcd60e51b815260206004820152602160248201527f4f6e6c7920617661696c61626c6520666f7220416374696f6e206163636f756e6044820152601d60fa1b60648201526084016105a7565b6000546002600160a01b90910460ff1610611a845760405162461bcd60e51b815260206004820152600d60248201526c13d999995c88189b1bd8dad959609a1b60448201526064016105a7565b42600e55600f80546001600160a01b031916331790558051611aad906004906020840190612397565b5050565b60008054906101000a90046001600160a01b03166001600160a01b0316636760c4b76040518163ffffffff1660e01b815260040160206040518083038186803b158015611afd57600080fd5b505afa158015611b11573d6000803e3d6000fd5b505050506040513d601f19601f82011682018060405250810190611b3591906124d3565b6001600160a01b0316336001600160a01b031614611b9f5760405162461bcd60e51b815260206004820152602160248201527f4f6e6c7920617661696c61626c6520666f7220416374696f6e206163636f756e6044820152601d60fa1b60648201526084016105a7565b6000546002600160a01b90910460ff1610611bec5760405162461bcd60e51b815260206004820152600d60248201526c13d999995c88189b1bd8dad959609a1b60448201526064016105a7565b600154611c3b5760405162461bcd60e51b815260206004820152601860248201527f4f6666657220697320616c726561647920656e61626c6564000000000000000060448201526064016105a7565b42600e55600f80546001600160a01b03191633179055600060018181558154604051639789e32360e01b8152600481019290925260248201929092526001600160a01b0390911690639789e32390604401610946565b601054611ca6906001600160a01b031661220b565b6001600160a01b0316336001600160a01b031614611d065760405162461bcd60e51b815260206004820152601c60248201527f4f6e6c7920617661696c61626c6520666f72205465654f66666572730000000060448201526064016105a7565b60008054601490611d2090600160a01b900460ff166128d1565b91906101000a81548160ff021916908360ff160217905550565b60008054906101000a90046001600160a01b03166001600160a01b0316636760c4b76040518163ffffffff1660e01b815260040160206040518083038186803b158015611d8657600080fd5b505afa158015611d9a573d6000803e3d6000fd5b505050506040513d601f19601f82011682018060405250810190611dbe91906124d3565b6001600160a01b0316336001600160a01b031614611e285760405162461bcd60e51b815260206004820152602160248201527f4f6e6c7920617661696c61626c6520666f7220416374696f6e206163636f756e6044820152601d60fa1b60648201526084016105a7565b6000546002600160a01b90910460ff1610611e755760405162461bcd60e51b815260206004820152600d60248201526c13d999995c88189b1bd8dad959609a1b60448201526064016105a7565b42600e55600f80546001600160a01b031916331790558151611e9e90600a906020850190612397565b508051611eb290600b906020840190612397565b505050565b60008054906101000a90046001600160a01b03166001600160a01b0316636760c4b76040518163ffffffff1660e01b815260040160206040518083038186803b158015611f0357600080fd5b505afa158015611f17573d6000803e3d6000fd5b505050506040513d601f19601f82011682018060405250810190611f3b91906124d3565b6001600160a01b0316336001600160a01b031614611fa55760405162461bcd60e51b815260206004820152602160248201527f4f6e6c7920617661696c61626c6520666f7220416374696f6e206163636f756e6044820152601d60fa1b60648201526084016105a7565b6000546002600160a01b90910460ff1610611ff25760405162461bcd60e51b815260206004820152600d60248201526c13d999995c88189b1bd8dad959609a1b60448201526064016105a7565b42600e55600f80546001600160a01b031916331790558051611aad906003906020840190612397565b60008054906101000a90046001600160a01b03166001600160a01b0316636760c4b76040518163ffffffff1660e01b815260040160206040518083038186803b15801561206757600080fd5b505afa15801561207b573d6000803e3d6000fd5b505050506040513d601f19601f8201168201806040525081019061209f91906124d3565b6001600160a01b0316336001600160a01b0316146121095760405162461bcd60e51b815260206004820152602160248201527f4f6e6c7920617661696c61626c6520666f7220416374696f6e206163636f756e6044820152601d60fa1b60648201526084016105a7565b6000546002600160a01b90910460ff16106121565760405162461bcd60e51b815260206004820152600d60248201526c13d999995c88189b1bd8dad959609a1b60448201526064016105a7565b42601454620151806121689190612811565b106121b55760405162461bcd60e51b815260206004820152601460248201527f417661696c61626c65206f6e636520612064617900000000000000000000000060448201526064016105a7565b426014558051611aad906009906020840190612397565b428083556001830180546001600160a01b039093166001600160a01b031993841681179091556002840191909155600390920180549091169091179055565b60006122168261235c565b6001600160a01b031663bcaa0c5560046040518263ffffffff1660e01b81526004016122429190612767565b60206040518083038186803b15801561225a57600080fd5b505afa15801561226e573d6000803e3d6000fd5b505050506040513d601f19601f8201168201806040525081019061229291906124d3565b92915050565b60006122a38361235c565b6001600160a01b03166303a2216d836040518263ffffffff1660e01b81526004016122ce91906127a9565b60206040518083038186803b1580156122e657600080fd5b505afa1580156122fa573d6000803e3d6000fd5b505050506040513d601f19601f8201168201806040525081019061231e91906125d5565b9392505050565b60006123308261235c565b6001600160a01b031663bcaa0c55600b6040518263ffffffff1660e01b81526004016122429190612767565b6000816001600160a01b031663f1f0bd016040518163ffffffff1660e01b815260040160206040518083038186803b15801561225a57600080fd5b8280546123a390612896565b90600052602060002090601f0160209004810192826123c5576000855561240b565b82601f106123de57805160ff191683800117855561240b565b8280016001018555821561240b579182015b8281111561240b5782518255916020019190600101906123f0565b5061241792915061241b565b5090565b5b80821115612417576000815560010161241c565b600082601f830112612440578081fd5b813567ffffffffffffffff8082111561245b5761245b612933565b604051601f8301601f19908116603f0116810190828211818310171561248357612483612933565b8160405283815286602085880101111561249b578485fd5b8360208701602083013792830160200193909352509392505050565b6000602082840312156124c8578081fd5b813561231e81612949565b6000602082840312156124e4578081fd5b815161231e81612949565b60008060408385031215612501578081fd5b823561250c81612949565b946020939093013593505050565b60006020828403121561252b578081fd5b81356004811061231e578182fd5b60006020828403121561254a578081fd5b813567ffffffffffffffff811115612560578182fd5b61256c84828501612430565b949350505050565b60008060408385031215612586578182fd5b823567ffffffffffffffff8082111561259d578384fd5b6125a986838701612430565b935060208501359150808211156125be578283fd5b506125cb85828601612430565b9150509250929050565b6000602082840312156125e6578081fd5b5051919050565b600080604083850312156125ff578182fd5b50508035926020909101359150565b60008151808452815b8181101561263357602081850181015186830182015201612617565b818111156126445782602083870101525b50601f01601f19169290920160200192915050565b6000610140825181855261266f8286018261260e565b91505060208301518482036020860152612689828261260e565b915050604083015184820360408601526126a3828261260e565b91505060608301516126bd606086018263ffffffff169052565b5060808301516126d9608086018267ffffffffffffffff169052565b5060a083015184820360a08601526126f1828261260e565b91505060c083015161270e60c08601826001600160a01b03169052565b5060e083015184820360e0860152612726828261260e565b9150506101008084015185830382870152612741838261260e565b92505050610120808401518583038287015261275d838261260e565b9695505050505050565b60208101600c831061277b5761277b61291d565b91905290565b602081016003831061277b5761277b61291d565b602081016004831061277b5761277b61291d565b602081016011831061277b5761277b61291d565b60208152600061231e602083018461260e565b60208152600061231e6020830184612659565b6060815260006127f66060830186612659565b6001600160a01b039490941660208301525060400152919050565b60008219821115612824576128246128f1565b500190565b60008261283857612838612907565b500490565b600063ffffffff8084168061285457612854612907565b92169190910492915050565b600081600019048311821515161561287a5761287a6128f1565b500290565b600082821015612891576128916128f1565b500390565b600181811c908216806128aa57607f821691505b602082108114156128cb57634e487b7160e01b600052602260045260246000fd5b50919050565b600060ff821660ff8114156128e8576128e86128f1565b60010192915050565b634e487b7160e01b600052601160045260246000fd5b634e487b7160e01b600052601260045260246000fd5b634e487b7160e01b600052602160045260246000fd5b634e487b7160e01b600052604160045260246000fd5b6001600160a01b038116811461295e57600080fd5b5056fea26469706673582212202712d9fc106b71ea2ebace61385614262b60ea2526ae3ddce20eb4058fd09ae564736f6c63430008040033",
  "linkReferences": {},
  "deployedLinkReferences": {}
}