{
  "_format": "hh-sol-artifact-1",
  "contractName": "TeeOffersFactory",
  "sourceName": "contracts/TeeOffersFactory.sol",
  "abi": [
    {
      "inputs": [
        {
          "internalType": "address",
          "name": "_SPConfig",
          "type": "address"
        }
      ],
      "stateMutability": "nonpayable",
      "type": "constructor"
    },
    {
      "anonymous": false,
      "inputs": [
        {
          "indexed": false,
          "internalType": "address",
          "name": "teeOffer",
          "type": "address"
        }
      ],
      "name": "TeeOfferCreated",
      "type": "event"
    },
    {
      "inputs": [
        {
          "internalType": "address",
          "name": "tcb",
          "type": "address"
        }
      ],
      "name": "addTcb",
      "outputs": [],
      "stateMutability": "nonpayable",
      "type": "function"
    },
    {
      "inputs": [
        {
          "internalType": "address",
          "name": "tcb",
          "type": "address"
        }
      ],
      "name": "blockDevice",
      "outputs": [],
      "stateMutability": "nonpayable",
      "type": "function"
    },
    {
      "inputs": [
        {
          "internalType": "address",
          "name": "tcb",
          "type": "address"
        }
      ],
      "name": "calcReparation",
      "outputs": [
        {
          "internalType": "uint256",
          "name": "",
          "type": "uint256"
        }
      ],
      "stateMutability": "view",
      "type": "function"
    },
    {
      "inputs": [
        {
          "internalType": "address",
          "name": "tcb",
          "type": "address"
        },
        {
          "internalType": "uint256",
          "name": "amount",
          "type": "uint256"
        }
      ],
      "name": "chargeReparation",
      "outputs": [],
      "stateMutability": "nonpayable",
      "type": "function"
    },
    {
      "inputs": [
        {
          "internalType": "address",
          "name": "tcb",
          "type": "address"
        }
      ],
      "name": "checkTcb",
      "outputs": [
        {
          "internalType": "bool",
          "name": "",
          "type": "bool"
        }
      ],
      "stateMutability": "view",
      "type": "function"
    },
    {
      "inputs": [
        {
          "internalType": "address",
          "name": "providerAuth",
          "type": "address"
        },
        {
          "components": [
            {
              "internalType": "string",
              "name": "name",
              "type": "string"
            },
            {
              "internalType": "string",
              "name": "description",
              "type": "string"
            },
            {
              "internalType": "string",
              "name": "teeType",
              "type": "string"
            },
            {
              "internalType": "uint32",
              "name": "slots",
              "type": "uint32"
            },
            {
              "internalType": "uint64",
              "name": "minTimeMinutes",
              "type": "uint64"
            },
            {
              "internalType": "string",
              "name": "properties",
              "type": "string"
            },
            {
              "internalType": "address",
              "name": "tcb",
              "type": "address"
            },
            {
              "internalType": "string",
              "name": "tlb",
              "type": "string"
            },
            {
              "internalType": "string",
              "name": "argsPublicKey",
              "type": "string"
            },
            {
              "internalType": "string",
              "name": "argsPublicKeyAlgo",
              "type": "string"
            }
          ],
          "internalType": "struct TeeOfferInfo",
          "name": "info",
          "type": "tuple"
        }
      ],
      "name": "create",
      "outputs": [
        {
          "internalType": "address",
          "name": "",
          "type": "address"
        }
      ],
      "stateMutability": "nonpayable",
      "type": "function"
    },
    {
      "inputs": [
        {
          "internalType": "address",
          "name": "offer",
          "type": "address"
        }
      ],
      "name": "getOffersProvider",
      "outputs": [
        {
          "internalType": "address",
          "name": "",
          "type": "address"
        }
      ],
      "stateMutability": "view",
      "type": "function"
    },
    {
      "inputs": [],
      "name": "listAll",
      "outputs": [
        {
          "internalType": "address[]",
          "name": "",
          "type": "address[]"
        }
      ],
      "stateMutability": "view",
      "type": "function"
    },
    {
      "inputs": [
        {
          "internalType": "address",
          "name": "tcb",
          "type": "address"
        },
        {
          "internalType": "uint256",
          "name": "reward",
          "type": "uint256"
        }
      ],
      "name": "lockTcbReward",
      "outputs": [],
      "stateMutability": "nonpayable",
      "type": "function"
    },
    {
      "inputs": [
        {
          "internalType": "address",
          "name": "tcb",
          "type": "address"
        },
        {
          "internalType": "uint256",
          "name": "amount",
          "type": "uint256"
        }
      ],
      "name": "unlockTcbReward",
      "outputs": [],
      "stateMutability": "nonpayable",
      "type": "function"
    }
  ],
  "bytecode": "0x608060405234801561001057600080fd5b50604051620054263803806200542683398101604081905261003191610056565b600080546001600160a01b0319166001600160a01b0392909216919091179055610084565b600060208284031215610067578081fd5b81516001600160a01b038116811461007d578182fd5b9392505050565b61539280620000946000396000f3fe60806040523480156200001157600080fd5b5060043610620000cd5760003560e01c806378a9eeed116200007f578063baa678241162000062578063baa6782414620001cc578063e055530714620001e3578063fa4e04a614620001fa57600080fd5b806378a9eeed146200018d5780639a6bcd0e14620001a657600080fd5b806336afedef11620000b457806336afedef146200013757806344bde3ff146200015f5780636b2e41b6146200017657600080fd5b8063165dee3f14620000d25780632c413abf146200011e575b600080fd5b62000101620000e336600462001c6e565b6001600160a01b039081166000908152600360205260409020541690565b6040516001600160a01b0390911681526020015b60405180910390f35b620001356200012f36600462001c6e565b62000211565b005b6200014e6200014836600462001c6e565b62000472565b604051901515815260200162000115565b620001356200017036600462001c6e565b620005b0565b620001356200018736600462001e56565b620009ab565b6200019762000c5c565b604051620001159190620021b4565b620001bd620001b736600462001c6e565b62000cc0565b60405190815260200162000115565b62000101620001dd36600462001cac565b62000eca565b62000135620001f436600462001e56565b620013e8565b620001356200020b36600462001e56565b6200155b565b60005462000228906001600160a01b031662001717565b6001600160a01b0316336001600160a01b0316146200028e5760405162461bcd60e51b815260206004820152601c60248201527f417661696c61626c65206f6e6c7920666f7220436f6e73656e7375730000000060448201526064015b60405180910390fd5b60008190506000816001600160a01b031663bf7ce7426040518163ffffffff1660e01b815260040160006040518083038186803b158015620002cf57600080fd5b505afa158015620002e4573d6000803e3d6000fd5b505050506040513d6000823e601f3d908101601f191682016040526200030e919081019062001f05565b6020808201516000908152600290915260409020549091506001600160a01b031680158062000349575081516001600160a01b038281169116145b620003bd5760405162461bcd60e51b815260206004820152602a60248201527f54686572652063616e206265206f6e6c79206f6e652064657669636520666f7260448201527f206f6e65206f6666657200000000000000000000000000000000000000000000606482015260840162000285565b815160208084015160009081526002909152604090819020805473ffffffffffffffffffffffffffffffffffffffff19166001600160a01b03938416179055835190517f2c413abf0000000000000000000000000000000000000000000000000000000081528683166004820152911690632c413abf906024015b600060405180830381600087803b1580156200045357600080fd5b505af115801562000468573d6000803e3d6000fd5b5050505050505050565b600080826001600160a01b031663bf7ce7426040518163ffffffff1660e01b815260040160006040518083038186803b158015620004af57600080fd5b505afa158015620004c4573d6000803e3d6000fd5b505050506040513d6000823e601f3d908101601f19168201604052620004ee919081019062001f05565b516001600160a01b03808216600081815260036020526040908190205490517f28e0180500000000000000000000000000000000000000000000000000000000815287841660048201529394509091161515916328e018059060240160206040518083038186803b1580156200056357600080fd5b505afa15801562000578573d6000803e3d6000fd5b505050506040513d601f19601f820116820180604052508101906200059e919062001e84565b8015620005a85750805b949350505050565b600054620005c7906001600160a01b031662001717565b6001600160a01b0316336001600160a01b031614620006295760405162461bcd60e51b815260206004820152601c60248201527f417661696c61626c65206f6e6c7920666f7220436f6e73656e73757300000000604482015260640162000285565b6000816001600160a01b031663bf7ce7426040518163ffffffff1660e01b815260040160006040518083038186803b1580156200066557600080fd5b505afa1580156200067a573d6000803e3d6000fd5b505050506040513d6000823e601f3d908101601f19168201604052620006a4919081019062001f05565b6000015190506000816001600160a01b031663f4732da66040518163ffffffff1660e01b815260040160206040518083038186803b158015620006e657600080fd5b505afa158015620006fb573d6000803e3d6000fd5b505050506040513d601f19601f8201168201806040525081019062000721919062001fdd565b90506000836001600160a01b031663bf7ce7426040518163ffffffff1660e01b815260040160006040518083038186803b1580156200075f57600080fd5b505afa15801562000774573d6000803e3d6000fd5b505050506040513d6000823e601f3d908101601f191682016040526200079e919081019062001f05565b6020015190506000620007b184620017a6565b6000805491925090620007cd906001600160a01b031662001856565b6001600160a01b0316634bfb1e7a8360046040518363ffffffff1660e01b8152600401620007fd92919062002195565b60606040518083038186803b1580156200081657600080fd5b505afa1580156200082b573d6000803e3d6000fd5b505050506040513d601f19601f8201168201806040525081019062000851919062001ea6565b90508381604001511015620008a95760405162461bcd60e51b815260206004820152601d60248201527f3530302e204e6f7420656e6f756768206c6f636b656420746f6b656e73000000604482015260640162000285565b600054620008c0906001600160a01b031662001856565b604051631831470360e01b81526001600160a01b038481166004830152602482018790529190911690631831470390604401600060405180830381600087803b1580156200090d57600080fd5b505af115801562000922573d6000803e3d6000fd5b50505050846001600160a01b03166344c406776040518163ffffffff1660e01b8152600401600060405180830381600087803b1580156200096257600080fd5b505af115801562000977573d6000803e3d6000fd5b5050506000938452505060026020525060409020805473ffffffffffffffffffffffffffffffffffffffff19169055505050565b600054620009c2906001600160a01b031662001717565b6001600160a01b0316336001600160a01b03161462000a245760405162461bcd60e51b815260206004820152601c60248201527f417661696c61626c65206f6e6c7920666f7220436f6e73656e73757300000000604482015260640162000285565b6000826001600160a01b031663bf7ce7426040518163ffffffff1660e01b815260040160006040518083038186803b15801562000a6057600080fd5b505afa15801562000a75573d6000803e3d6000fd5b505050506040513d6000823e601f3d908101601f1916820160405262000a9f919081019062001f05565b6000015190506000816001600160a01b031663483d45bd6040518163ffffffff1660e01b815260040160206040518083038186803b15801562000ae157600080fd5b505afa15801562000af6573d6000803e3d6000fd5b505050506040513d601f19601f8201168201806040525081019062000b1c919062001c8d565b9050600062000b2b83620017a6565b60005490915062000b45906001600160a01b031662001856565b604051631831470360e01b81526001600160a01b038381166004830152602482018790529190911690631831470390604401600060405180830381600087803b15801562000b9257600080fd5b505af115801562000ba7573d6000803e3d6000fd5b50505050826001600160a01b031663bab13ee16040518163ffffffff1660e01b8152600401600060405180830381600087803b15801562000be757600080fd5b505af115801562000bfc573d6000803e3d6000fd5b50505050816001600160a01b031663bab13ee16040518163ffffffff1660e01b8152600401600060405180830381600087803b15801562000c3c57600080fd5b505af115801562000c51573d6000803e3d6000fd5b505050505050505050565b6060600180548060200260200160405190810160405280929190818152602001828054801562000cb657602002820191906000526020600020905b81546001600160a01b0316815260019091019060200180831162000c97575b5050505050905090565b6000808290506000816001600160a01b031663bf7ce7426040518163ffffffff1660e01b815260040160006040518083038186803b15801562000d0257600080fd5b505afa15801562000d17573d6000803e3d6000fd5b505050506040513d6000823e601f3d908101601f1916820160405262000d41919081019062001f05565b519050600062000d5182620017a6565b600080549192509062000d6d906001600160a01b031662001891565b6040517fc00007b00000000000000000000000000000000000000000000000000000000081526001600160a01b038881166004830152919091169063c00007b09060240160206040518083038186803b15801562000dca57600080fd5b505afa15801562000ddf573d6000803e3d6000fd5b505050506040513d601f19601f8201168201806040525081019062000e05919062001fdd565b600080549192509062000e21906001600160a01b031662001856565b6001600160a01b0316634bfb1e7a8460046040518363ffffffff1660e01b815260040162000e5192919062002195565b60606040518083038186803b15801562000e6a57600080fd5b505afa15801562000e7f573d6000803e3d6000fd5b505050506040513d601f19601f8201168201806040525081019062000ea5919062001ea6565b604001519050600081831062000ebc578162000ebe565b825b98975050505050505050565b60008054819062000ee4906001600160a01b0316620018cc565b6040517fc2bc2efc0000000000000000000000000000000000000000000000000000000081526001600160a01b038681166004830152919091169063c2bc2efc9060240160206040518083038186803b15801562000f4157600080fd5b505afa15801562000f56573d6000803e3d6000fd5b505050506040513d601f19601f8201168201806040525081019062000f7c919062001c8d565b9050806001600160a01b0316631b71d85f6040518163ffffffff1660e01b8152600401600060405180830381600087803b15801562000fba57600080fd5b505af115801562000fcf573d6000803e3d6000fd5b50506000805490925062000fef91506001600160a01b0316600562001907565b60008054919250906200100b906001600160a01b0316620018cc565b6040517fb00e3c240000000000000000000000000000000000000000000000000000000081526001600160a01b038881166004830152919091169063b00e3c249060240160206040518083038186803b1580156200106857600080fd5b505afa1580156200107d573d6000803e3d6000fd5b505050506040513d601f19601f82011682018060405250810190620010a3919062001fdd565b6040517fcf06217c000000000000000000000000000000000000000000000000000000008152600481018490529091506000906001600160a01b0385169063cf06217c9060240160206040518083038186803b1580156200110357600080fd5b505afa15801562001118573d6000803e3d6000fd5b505050506040513d601f19601f820116820180604052508101906200113e919062001fdd565b9050336001600160a01b0316846001600160a01b0316636760c4b76040518163ffffffff1660e01b815260040160206040518083038186803b1580156200118457600080fd5b505afa15801562001199573d6000803e3d6000fd5b505050506040513d601f19601f82011682018060405250810190620011bf919062001c8d565b6001600160a01b031614620012175760405162461bcd60e51b815260206004820152600d60248201527f4163636573732064656e69656400000000000000000000000000000000000000604482015260640162000285565b80821015620012695760405162461bcd60e51b815260206004820152601d60248201527f5365637572697479206465706f73697420697320746f6f20736d616c6c000000604482015260640162000285565b600080546040516001600160a01b0390911690869033908a906200128d9062001bc9565b6200129c94939291906200203b565b604051809103906000f080158015620012b9573d6000803e3d6000fd5b506001600160a01b03818116600081815260036020526040808220805473ffffffffffffffffffffffffffffffffffffffff199081168f87161790915560018054808201825593527fb10e2d527612073b26eecdfd717e6a320cf44b4afac2b0732d9fcbe2b7fa0cf690920180549092168317909155517fa553269b000000000000000000000000000000000000000000000000000000008152600481019190915291925086169063a553269b90602401600060405180830381600087803b1580156200138557600080fd5b505af11580156200139a573d6000803e3d6000fd5b50506040516001600160a01b03841681527f4918fbfe7b2dd77341ba9a051a159bcca59437e8840b4718d4b0dd13d8175f369250602001905060405180910390a19450505050505b92915050565b600054620013ff906001600160a01b031662001717565b6001600160a01b0316336001600160a01b031614620014615760405162461bcd60e51b815260206004820152601c60248201527f417661696c61626c65206f6e6c7920666f7220436f6e73656e73757300000000604482015260640162000285565b6000826001600160a01b031663bf7ce7426040518163ffffffff1660e01b815260040160006040518083038186803b1580156200149d57600080fd5b505afa158015620014b2573d6000803e3d6000fd5b505050506040513d6000823e601f3d908101601f19168201604052620014dc919081019062001f05565b5190506000620014ec82620017a6565b600080549192506200150c916001600160a01b031690839086906200199c565b6040517f282d3fdf0000000000000000000000000000000000000000000000000000000081526001600160a01b0385811660048301526024820185905283169063282d3fdf9060440162000438565b60005462001572906001600160a01b031662001717565b6001600160a01b0316336001600160a01b031614620015d45760405162461bcd60e51b815260206004820152601c60248201527f417661696c61626c65206f6e6c7920666f7220436f6e73656e73757300000000604482015260640162000285565b6000826001600160a01b031663bf7ce7426040518163ffffffff1660e01b815260040160006040518083038186803b1580156200161057600080fd5b505afa15801562001625573d6000803e3d6000fd5b505050506040513d6000823e601f3d908101601f191682016040526200164f919081019062001f05565b51905060006200165f82620017a6565b604051637eee288d60e01b81526001600160a01b0386811660048301526024820186905291925090831690637eee288d90604401600060405180830381600087803b158015620016ae57600080fd5b505af1158015620016c3573d6000803e3d6000fd5b5050600054620016df92506001600160a01b0316905062001856565b604051637eee288d60e01b81526001600160a01b038381166004830152602482018690529190911690637eee288d9060440162000438565b6000620017248262001b52565b6001600160a01b031663bcaa0c5560086040518263ffffffff1660e01b815260040162001752919062002203565b60206040518083038186803b1580156200176b57600080fd5b505afa15801562001780573d6000803e3d6000fd5b505050506040513d601f19601f82011682018060405250810190620013e2919062001c8d565b6000816001600160a01b031663483d45bd6040518163ffffffff1660e01b815260040160206040518083038186803b158015620017e257600080fd5b505afa158015620017f7573d6000803e3d6000fd5b505050506040513d601f19601f820116820180604052508101906200181d919062001c8d565b6001600160a01b0316636d69a3e86040518163ffffffff1660e01b815260040160206040518083038186803b1580156200176b57600080fd5b6000620018638262001b52565b6001600160a01b031663bcaa0c5560026040518263ffffffff1660e01b815260040162001752919062002203565b60006200189e8262001b52565b6001600160a01b031663bcaa0c55600b6040518263ffffffff1660e01b815260040162001752919062002203565b6000620018d98262001b52565b6001600160a01b031663bcaa0c5560016040518263ffffffff1660e01b815260040162001752919062002203565b6000620019148362001b52565b6001600160a01b03166303a2216d836040518263ffffffff1660e01b815260040162001941919062002213565b60206040518083038186803b1580156200195a57600080fd5b505afa1580156200196f573d6000803e3d6000fd5b505050506040513d601f19601f8201168201806040525081019062001995919062001fdd565b9392505050565b6000620019b2856001600160a01b031662001856565b9050620019c8856001600160a01b031662001b8e565b6040517f095ea7b30000000000000000000000000000000000000000000000000000000081526001600160a01b03838116600483015260248201869052919091169063095ea7b390604401602060405180830381600087803b15801562001a2e57600080fd5b505af115801562001a43573d6000803e3d6000fd5b505050506040513d601f19601f8201168201806040525081019062001a69919062001e84565b506040517f2ee409080000000000000000000000000000000000000000000000000000000081526001600160a01b03858116600483015260248201859052821690632ee4090890604401600060405180830381600087803b15801562001ace57600080fd5b505af115801562001ae3573d6000803e3d6000fd5b50506040517fe2ab691d0000000000000000000000000000000000000000000000000000000081526001600160a01b03878116600483015260248201879052604482018690528416925063e2ab691d9150606401600060405180830381600087803b15801562000c3c57600080fd5b6000816001600160a01b031663f1f0bd016040518163ffffffff1660e01b815260040160206040518083038186803b1580156200176b57600080fd5b600062001b9b8262001b52565b6001600160a01b031663bcaa0c5560056040518263ffffffff1660e01b815260040162001752919062002203565b613002806200235b83390190565b803562001be48162002341565b919050565b600082601f83011262001bfa578081fd5b813562001c1162001c0b82620022b7565b62002283565b81815284602083860101111562001c26578283fd5b816020850160208301379081016020019190915292915050565b803563ffffffff8116811462001be457600080fd5b803567ffffffffffffffff8116811462001be457600080fd5b60006020828403121562001c80578081fd5b8135620019958162002341565b60006020828403121562001c9f578081fd5b8151620019958162002341565b6000806040838503121562001cbf578081fd5b823562001ccc8162002341565b9150602083013567ffffffffffffffff8082111562001ce9578283fd5b90840190610140828703121562001cfe578283fd5b62001d0862002230565b82358281111562001d17578485fd5b62001d258882860162001be9565b82525060208301358281111562001d3a578485fd5b62001d488882860162001be9565b60208301525060408301358281111562001d60578485fd5b62001d6e8882860162001be9565b60408301525062001d826060840162001c40565b606082015262001d956080840162001c55565b608082015260a08301358281111562001dac578485fd5b62001dba8882860162001be9565b60a08301525062001dce60c0840162001bd7565b60c082015260e08301358281111562001de5578485fd5b62001df38882860162001be9565b60e083015250610100808401358381111562001e0d578586fd5b62001e1b8982870162001be9565b828401525050610120808401358381111562001e35578586fd5b62001e438982870162001be9565b8284015250508093505050509250929050565b6000806040838503121562001e69578182fd5b823562001e768162002341565b946020939093013593505050565b60006020828403121562001e96578081fd5b8151801515811462001995578182fd5b60006060828403121562001eb8578081fd5b6040516060810181811067ffffffffffffffff8211171562001ede5762001ede6200232b565b80604052508251815260208301516020820152604083015160408201528091505092915050565b6000602080838503121562001f18578182fd5b825167ffffffffffffffff8082111562001f30578384fd5b908401906080828703121562001f44578384fd5b62001f4e6200225d565b825162001f5b8162002341565b815282840151848201526040808401519082015260608301518281111562001f81578586fd5b80840193505086601f84011262001f96578485fd5b8251915062001fa962001c0b83620022b7565b828152878584860101111562001fbd578586fd5b62001fce83868301878701620022e2565b60608201529695505050505050565b60006020828403121562001fef578081fd5b5051919050565b600c811062002009576200200962002315565b9052565b6000815180845262002027816020860160208601620022e2565b601f01601f19169290920160200192915050565b60006001600160a01b03808716835280861660208401528085166040840152506080606083015282516101408060808501526200207d6101c08501836200200d565b91506020850151607f19808685030160a08701526200209d84836200200d565b935060408701519150808685030160c0870152620020bc84836200200d565b935060608701519150620020d860e087018363ffffffff169052565b60808701519150610100620020f88188018467ffffffffffffffff169052565b60a088015192506101208288870301818901526200211786856200200d565b955060c0890151935062002135858901856001600160a01b03169052565b60e0890151945082888703016101608901526200215386866200200d565b955081890151945082888703016101808901526200217286866200200d565b9550808901519450505080868503016101a0870152505062000ebe82826200200d565b6001600160a01b03831681526040810162001995602083018462001ff6565b6020808252825182820181905260009190848201906040850190845b81811015620021f75783516001600160a01b031683529284019291840191600101620021d0565b50909695505050505050565b60208101620013e2828462001ff6565b60208101601183106200222a576200222a62002315565b91905290565b604051610140810167ffffffffffffffff811182821017156200225757620022576200232b565b60405290565b6040516080810167ffffffffffffffff811182821017156200225757620022576200232b565b604051601f8201601f1916810167ffffffffffffffff81118282101715620022af57620022af6200232b565b604052919050565b600067ffffffffffffffff821115620022d457620022d46200232b565b50601f01601f191660200190565b60005b83811015620022ff578181015183820152602001620022e5565b838111156200230f576000848401525b50505050565b634e487b7160e01b600052602160045260246000fd5b634e487b7160e01b600052604160045260246000fd5b6001600160a01b03811681146200235757600080fd5b5056fe60806040523480156200001157600080fd5b5060405162003002380380620030028339810160408190526200003491620003dc565b6000816060015163ffffffff1611620000835760405162461bcd60e51b815260206004820152600d60248201526c496e76616c696420736c6f747360981b604482015260640160405180910390fd5b600080546001600160a01b0319166001600160a01b038516179055805180518291600291620000ba9183916020909101906200025b565b506020828101518051620000d592600185019201906200025b565b5060408201518051620000f39160028401916020909101906200025b565b50606082015160038201805460808501516001600160401b0316640100000000026001600160601b031990911663ffffffff9093169290921791909117905560a082015180516200014f9160048401916020909101906200025b565b5060c08201516005820180546001600160a01b0319166001600160a01b0390921691909117905560e08201518051620001939160068401916020909101906200025b565b506101008201518051620001b29160078401916020909101906200025b565b506101208201518051620001d19160088401916020909101906200025b565b5050600060015550620001f2600b836200021c602090811b620021cc17901c565b5050600f80546001600160a01b0319166001600160a01b039390931692909217909155506200065b565b428083556001830180546001600160a01b039093166001600160a01b031993841681179091556002840191909155600390920180549091169091179055565b828054620002699062000608565b90600052602060002090601f0160209004810192826200028d5760008555620002d8565b82601f10620002a857805160ff1916838001178555620002d8565b82800160010185558215620002d8579182015b82811115620002d8578251825591602001919060010190620002bb565b50620002e6929150620002ea565b5090565b5b80821115620002e65760008155600101620002eb565b80516001600160a01b03811681146200031957600080fd5b919050565b600082601f8301126200032f578081fd5b81516001600160401b038111156200034b576200034b62000645565b602062000361601f8301601f19168201620005d5565b828152858284870101111562000375578384fd5b835b838110156200039457858101830151828201840152820162000377565b83811115620003a557848385840101525b5095945050505050565b805163ffffffff811681146200031957600080fd5b80516001600160401b03811681146200031957600080fd5b60008060008060808587031215620003f2578384fd5b620003fd8562000301565b93506200040d6020860162000301565b92506200041d6040860162000301565b60608601519092506001600160401b03808211156200043a578283fd5b9086019061014082890312156200044f578283fd5b62000459620005a9565b82518281111562000468578485fd5b620004768a8286016200031e565b8252506020830151828111156200048b578485fd5b620004998a8286016200031e565b602083015250604083015182811115620004b1578485fd5b620004bf8a8286016200031e565b604083015250620004d360608401620003af565b6060820152620004e660808401620003c4565b608082015260a083015182811115620004fd578485fd5b6200050b8a8286016200031e565b60a0830152506200051f60c0840162000301565b60c082015260e08301518281111562000536578485fd5b620005448a8286016200031e565b60e08301525061010080840151838111156200055e578586fd5b6200056c8b8287016200031e565b828401525050610120808401518381111562000586578586fd5b620005948b8287016200031e565b82840152505080935050505092959194509250565b60405161014081016001600160401b0381118282101715620005cf57620005cf62000645565b60405290565b604051601f8201601f191681016001600160401b038111828210171562000600576200060062000645565b604052919050565b600181811c908216806200061d57607f821691505b602082108114156200063f57634e487b7160e01b600052602260045260246000fd5b50919050565b634e487b7160e01b600052604160045260246000fd5b612997806200066b6000396000f3fe608060405234801561001057600080fd5b50600436106102265760003560e01c80637eee288d1161012a578063bab13ee1116100bd578063c47f00271161008c578063f12018c311610071578063f12018c31461051a578063f4732da61461052e578063f55ba0d31461051a57600080fd5b8063c47f0027146104f4578063c6f3d61c1461050757600080fd5b8063bab13ee1146104c1578063bba610b0146104c9578063bbb5d5f7146104dc578063c422c1b1146104e357600080fd5b8063a3907d71116100f9578063a3907d71146103fe578063aad4513314610406578063af5372e61461040e578063b737e98e1461041d57600080fd5b80637eee288d146103bd5780638383da75146103d05780638a35e942146103e357806390c3f38f146103eb57600080fd5b80632f2770db116101bd578063502524611161018c5780636aa633b6116101715780636aa633b6146103695780636d4ce63c146103715780637238ccdb1461038857600080fd5b8063502524611461034c5780635a9b0b891461035457600080fd5b80632f2770db146103025780633f3de01c1461030a57806344c406771461031f578063483d45bd1461032757600080fd5b8063282d3fdf116101f9578063282d3fdf146102a057806328e01805146102b55780632acdf0fa146102e05780632c413abf146102ef57600080fd5b80630c72dc311461022b578063154e1c151461024f5780631bffb491146102795780631f6bb8481461028c575b600080fd5b600054600160a01b900460ff1660405160ff90911681526020015b60405180910390f35b6007546001600160a01b03166000908152601160205260409020545b604051908152602001610246565b60015b6040519015158152602001610246565b61027c61029a36600461251a565b50600090565b6102b36102ae3660046124ef565b610536565b005b61027c6102c33660046124b7565b6001600160a01b0316600090815260116020526040902054151590565b60016040516102469190612781565b6102b36102fd3660046124b7565b610645565b6102b3610739565b61031261097a565b60405161024691906127bd565b6102b3610a0f565b6000546001600160a01b03165b6040516001600160a01b039091168152602001610246565b60135461026b565b61035c610ac0565b60405161024691906127d0565b61027c610f83565b610379610f9d565b604051610246939291906127e3565b61039b6103963660046124b7565b611483565b6040805182518152602080840151908201529181015190820152606001610246565b6102b36103cb3660046124ef565b6114e9565b61026b6103de3660046125ed565b61172b565b61026b6117d2565b6102b36103f9366004612539565b611949565b6102b3611ab1565b60015461026b565b60006040516102469190612795565b61047f6040805160808101825260008082526020820181905291810182905260608101919091525060408051608081018252600b548152600c546001600160a01b039081166020830152600d5492820192909252600e54909116606082015290565b6040516102469190815181526020808301516001600160a01b039081169183019190915260408084015190830152606092830151169181019190915260800190565b6102b3611c91565b6102b36104d7366004612574565b611d3a565b600061026b565b6007546001600160a01b0316610334565b6102b3610502366004612539565b611eb7565b6102b3610515366004612539565b61201b565b61027c6105283660046124b7565b50600190565b60125461026b565b600f5461054b906001600160a01b031661220b565b6001600160a01b0316336001600160a01b0316146105b05760405162461bcd60e51b815260206004820152601c60248201527f4f6e6c7920617661696c61626c6520666f72205465654f66666572730000000060448201526064015b60405180910390fd5b600f54429060009062015180906105d1906001600160a01b03166001612298565b6105db9190612860565b6105e59042612811565b6001600160a01b0385166000908152601060205260408120848155600181018390556002810180549394509092869290610620908490612811565b9250508190555083601260008282546106399190612811565b90915550505050505050565b600f5461065a906001600160a01b031661220b565b6001600160a01b0316336001600160a01b0316146106ba5760405162461bcd60e51b815260206004820152601c60248201527f4f6e6c7920617661696c61626c6520666f72205465654f66666572730000000060448201526064016105a7565b6000546002600160a01b90910460ff16106107075760405162461bcd60e51b815260206004820152600d60248201526c13d999995c88189b1bd8dad959609a1b60448201526064016105a7565b600780546001600160a01b039092166001600160a01b0319909216821790556000908152601160205260409020429055565b60008054906101000a90046001600160a01b03166001600160a01b0316636760c4b76040518163ffffffff1660e01b815260040160206040518083038186803b15801561078557600080fd5b505afa158015610799573d6000803e3d6000fd5b505050506040513d601f19601f820116820180604052508101906107bd91906124d3565b6001600160a01b0316336001600160a01b0316146108275760405162461bcd60e51b815260206004820152602160248201527f4f6e6c7920617661696c61626c6520666f7220416374696f6e206163636f756e6044820152601d60fa1b60648201526084016105a7565b6000546002600160a01b90910460ff16106108745760405162461bcd60e51b815260206004820152600d60248201526c13d999995c88189b1bd8dad959609a1b60448201526064016105a7565b600154156108c45760405162461bcd60e51b815260206004820152601960248201527f4f6666657220697320616c72656164792064697361626c65640000000000000060448201526064016105a7565b42600d55600e80546001600160a01b03191633179055600f5462015180906108f6906001600160a01b03166004612298565b6109009190612860565b61090a9042612811565b600181905560008054604051639789e32360e01b8152600481019290925260248201929092526001600160a01b0390911690639789e323906044015b600060405180830381600087803b15801561096057600080fd5b505af1158015610974573d6000803e3d6000fd5b50505050565b60606002600601805461098c90612896565b80601f01602080910402602001604051908101604052809291908181526020018280546109b890612896565b8015610a055780601f106109da57610100808354040283529160200191610a05565b820191906000526020600020905b8154815290600101906020018083116109e857829003601f168201915b5050505050905090565b600f54610a24906001600160a01b031661220b565b6001600160a01b0316336001600160a01b031614610a845760405162461bcd60e51b815260206004820152601c60248201527f4f6e6c7920617661696c61626c6520666f72205465654f66666572730000000060448201526064016105a7565b600060128190558054604051639789e32360e01b815260048101929092524260248301526001600160a01b031690639789e32390604401610946565b610b2f604051806101400160405280606081526020016060815260200160608152602001600063ffffffff168152602001600067ffffffffffffffff1681526020016060815260200160006001600160a01b031681526020016060815260200160608152602001606081525090565b600260405180610140016040529081600082018054610b4d90612896565b80601f0160208091040260200160405190810160405280929190818152602001828054610b7990612896565b8015610bc65780601f10610b9b57610100808354040283529160200191610bc6565b820191906000526020600020905b815481529060010190602001808311610ba957829003601f168201915b50505050508152602001600182018054610bdf90612896565b80601f0160208091040260200160405190810160405280929190818152602001828054610c0b90612896565b8015610c585780601f10610c2d57610100808354040283529160200191610c58565b820191906000526020600020905b815481529060010190602001808311610c3b57829003601f168201915b50505050508152602001600282018054610c7190612896565b80601f0160208091040260200160405190810160405280929190818152602001828054610c9d90612896565b8015610cea5780601f10610cbf57610100808354040283529160200191610cea565b820191906000526020600020905b815481529060010190602001808311610ccd57829003601f168201915b5050509183525050600382015463ffffffff81166020830152640100000000900467ffffffffffffffff166040820152600482018054606090920191610d2f90612896565b80601f0160208091040260200160405190810160405280929190818152602001828054610d5b90612896565b8015610da85780601f10610d7d57610100808354040283529160200191610da8565b820191906000526020600020905b815481529060010190602001808311610d8b57829003601f168201915b505050918352505060058201546001600160a01b03166020820152600682018054604090920191610dd890612896565b80601f0160208091040260200160405190810160405280929190818152602001828054610e0490612896565b8015610e515780601f10610e2657610100808354040283529160200191610e51565b820191906000526020600020905b815481529060010190602001808311610e3457829003601f168201915b50505050508152602001600782018054610e6a90612896565b80601f0160208091040260200160405190810160405280929190818152602001828054610e9690612896565b8015610ee35780601f10610eb857610100808354040283529160200191610ee3565b820191906000526020600020905b815481529060010190602001808311610ec657829003601f168201915b50505050508152602001600882018054610efc90612896565b80601f0160208091040260200160405190810160405280929190818152602001828054610f2890612896565b8015610f755780601f10610f4a57610100808354040283529160200191610f75565b820191906000526020600020905b815481529060010190602001808311610f5857829003601f168201915b505050505081525050905090565b600060015460001480610f9857506001544211155b905090565b61100c604051806101400160405280606081526020016060815260200160608152602001600063ffffffff168152602001600067ffffffffffffffff1681526020016060815260200160006001600160a01b031681526020016060815260200160608152602001606081525090565b600080600260008054906101000a90046001600160a01b0316600154826040518061014001604052908160008201805461104590612896565b80601f016020809104026020016040519081016040528092919081815260200182805461107190612896565b80156110be5780601f10611093576101008083540402835291602001916110be565b820191906000526020600020905b8154815290600101906020018083116110a157829003601f168201915b505050505081526020016001820180546110d790612896565b80601f016020809104026020016040519081016040528092919081815260200182805461110390612896565b80156111505780601f1061112557610100808354040283529160200191611150565b820191906000526020600020905b81548152906001019060200180831161113357829003601f168201915b5050505050815260200160028201805461116990612896565b80601f016020809104026020016040519081016040528092919081815260200182805461119590612896565b80156111e25780601f106111b7576101008083540402835291602001916111e2565b820191906000526020600020905b8154815290600101906020018083116111c557829003601f168201915b5050509183525050600382015463ffffffff81166020830152640100000000900467ffffffffffffffff16604082015260048201805460609092019161122790612896565b80601f016020809104026020016040519081016040528092919081815260200182805461125390612896565b80156112a05780601f10611275576101008083540402835291602001916112a0565b820191906000526020600020905b81548152906001019060200180831161128357829003601f168201915b505050918352505060058201546001600160a01b031660208201526006820180546040909201916112d090612896565b80601f01602080910402602001604051908101604052809291908181526020018280546112fc90612896565b80156113495780601f1061131e57610100808354040283529160200191611349565b820191906000526020600020905b81548152906001019060200180831161132c57829003601f168201915b5050505050815260200160078201805461136290612896565b80601f016020809104026020016040519081016040528092919081815260200182805461138e90612896565b80156113db5780601f106113b0576101008083540402835291602001916113db565b820191906000526020600020905b8154815290600101906020018083116113be57829003601f168201915b505050505081526020016008820180546113f490612896565b80601f016020809104026020016040519081016040528092919081815260200182805461142090612896565b801561146d5780601f106114425761010080835404028352916020019161146d565b820191906000526020600020905b81548152906001019060200180831161145057829003601f168201915b5050505050815250509250925092509250909192565b6114a760405180606001604052806000815260200160008152602001600081525090565b506001600160a01b0316600090815260106020908152604091829020825160608101845281548152600182015492810192909252600201549181019190915290565b600f546114fe906001600160a01b031661220b565b6001600160a01b0316336001600160a01b03161461155e5760405162461bcd60e51b815260206004820152601c60248201527f4f6e6c7920617661696c61626c6520666f72205465654f66666572730000000060448201526064016105a7565b6000546002600160a01b90910460ff16106115ab5760405162461bcd60e51b815260206004820152600d60248201526c13d999995c88189b1bd8dad959609a1b60448201526064016105a7565b6001600160a01b0382166000908152601060205260409020601254158015906115da5750806002015460125410155b61164c5760405162461bcd60e51b815260206004820152602c60248201527f52657761726420666f7220746869732054434220636f6e66697363617465642060448201527f627920436f6e73656e737573000000000000000000000000000000000000000060648201526084016105a7565b80600201548211156116a05760405162461bcd60e51b815260206004820152601860248201527f4e6f7420656e6f756768206c6f636b656420746f6b656e73000000000000000060448201526064016105a7565b42816001015411156116f45760405162461bcd60e51b815260206004820152601460248201527f546f6f206561726c7920666f7220756e6c6f636b00000000000000000000000060448201526064016105a7565b81816002016000828254611708919061287f565b925050819055508160126000828254611721919061287f565b9091555050505050565b600080611738844261287f565b90506000611747603c83612829565b600554909150640100000000900467ffffffffffffffff1681101561177d5750600554640100000000900467ffffffffffffffff165b60055460009063ffffffff166117916117d2565b61179b9190612829565b905060006117ad603c6201518061283d565b63ffffffff166117bd8385612860565b6117c79190612829565b979650505050505050565b6007546000906001600160a01b03166117eb5750600090565b600f54611800906001600160a01b0316612325565b6007546040517fb8ac86420000000000000000000000000000000000000000000000000000000081526001600160a01b03918216600482015291169063b8ac86429060240160206040518083038186803b15801561185d57600080fd5b505afa158015611871573d6000803e3d6000fd5b505050506040513d601f19601f8201168201806040525081019061189591906125d5565b600f546118aa906001600160a01b0316612325565b6007546040517fc00007b00000000000000000000000000000000000000000000000000000000081526001600160a01b03918216600482015291169063c00007b09060240160206040518083038186803b15801561190757600080fd5b505afa15801561191b573d6000803e3d6000fd5b505050506040513d601f19601f8201168201806040525081019061193f91906125d5565b610f989190612811565b60008054906101000a90046001600160a01b03166001600160a01b0316636760c4b76040518163ffffffff1660e01b815260040160206040518083038186803b15801561199557600080fd5b505afa1580156119a9573d6000803e3d6000fd5b505050506040513d601f19601f820116820180604052508101906119cd91906124d3565b6001600160a01b0316336001600160a01b031614611a375760405162461bcd60e51b815260206004820152602160248201527f4f6e6c7920617661696c61626c6520666f7220416374696f6e206163636f756e6044820152601d60fa1b60648201526084016105a7565b6000546002600160a01b90910460ff1610611a845760405162461bcd60e51b815260206004820152600d60248201526c13d999995c88189b1bd8dad959609a1b60448201526064016105a7565b42600d55600e80546001600160a01b031916331790558051611aad906003906020840190612397565b5050565b60008054906101000a90046001600160a01b03166001600160a01b0316636760c4b76040518163ffffffff1660e01b815260040160206040518083038186803b158015611afd57600080fd5b505afa158015611b11573d6000803e3d6000fd5b505050506040513d601f19601f82011682018060405250810190611b3591906124d3565b6001600160a01b0316336001600160a01b031614611b9f5760405162461bcd60e51b815260206004820152602160248201527f4f6e6c7920617661696c61626c6520666f7220416374696f6e206163636f756e6044820152601d60fa1b60648201526084016105a7565b6000546002600160a01b90910460ff1610611bec5760405162461bcd60e51b815260206004820152600d60248201526c13d999995c88189b1bd8dad959609a1b60448201526064016105a7565b600154611c3b5760405162461bcd60e51b815260206004820152601860248201527f4f6666657220697320616c726561647920656e61626c6564000000000000000060448201526064016105a7565b42600d55600e80546001600160a01b03191633179055600060018181558154604051639789e32360e01b8152600481019290925260248201929092526001600160a01b0390911690639789e32390604401610946565b600f54611ca6906001600160a01b031661220b565b6001600160a01b0316336001600160a01b031614611d065760405162461bcd60e51b815260206004820152601c60248201527f4f6e6c7920617661696c61626c6520666f72205465654f66666572730000000060448201526064016105a7565b60008054601490611d2090600160a01b900460ff166128d1565b91906101000a81548160ff021916908360ff160217905550565b60008054906101000a90046001600160a01b03166001600160a01b0316636760c4b76040518163ffffffff1660e01b815260040160206040518083038186803b158015611d8657600080fd5b505afa158015611d9a573d6000803e3d6000fd5b505050506040513d601f19601f82011682018060405250810190611dbe91906124d3565b6001600160a01b0316336001600160a01b031614611e285760405162461bcd60e51b815260206004820152602160248201527f4f6e6c7920617661696c61626c6520666f7220416374696f6e206163636f756e6044820152601d60fa1b60648201526084016105a7565b6000546002600160a01b90910460ff1610611e755760405162461bcd60e51b815260206004820152600d60248201526c13d999995c88189b1bd8dad959609a1b60448201526064016105a7565b42600d55600e80546001600160a01b031916331790558151611e9e906009906020850190612397565b508051611eb290600a906020840190612397565b505050565b60008054906101000a90046001600160a01b03166001600160a01b0316636760c4b76040518163ffffffff1660e01b815260040160206040518083038186803b158015611f0357600080fd5b505afa158015611f17573d6000803e3d6000fd5b505050506040513d601f19601f82011682018060405250810190611f3b91906124d3565b6001600160a01b0316336001600160a01b031614611fa55760405162461bcd60e51b815260206004820152602160248201527f4f6e6c7920617661696c61626c6520666f7220416374696f6e206163636f756e6044820152601d60fa1b60648201526084016105a7565b6000546002600160a01b90910460ff1610611ff25760405162461bcd60e51b815260206004820152600d60248201526c13d999995c88189b1bd8dad959609a1b60448201526064016105a7565b42600d55600e80546001600160a01b031916331790558051611aad906002906020840190612397565b60008054906101000a90046001600160a01b03166001600160a01b0316636760c4b76040518163ffffffff1660e01b815260040160206040518083038186803b15801561206757600080fd5b505afa15801561207b573d6000803e3d6000fd5b505050506040513d601f19601f8201168201806040525081019061209f91906124d3565b6001600160a01b0316336001600160a01b0316146121095760405162461bcd60e51b815260206004820152602160248201527f4f6e6c7920617661696c61626c6520666f7220416374696f6e206163636f756e6044820152601d60fa1b60648201526084016105a7565b6000546002600160a01b90910460ff16106121565760405162461bcd60e51b815260206004820152600d60248201526c13d999995c88189b1bd8dad959609a1b60448201526064016105a7565b42601354620151806121689190612811565b106121b55760405162461bcd60e51b815260206004820152601460248201527f417661696c61626c65206f6e636520612064617900000000000000000000000060448201526064016105a7565b426013558051611aad906008906020840190612397565b428083556001830180546001600160a01b039093166001600160a01b031993841681179091556002840191909155600390920180549091169091179055565b60006122168261235c565b6001600160a01b031663bcaa0c5560046040518263ffffffff1660e01b81526004016122429190612767565b60206040518083038186803b15801561225a57600080fd5b505afa15801561226e573d6000803e3d6000fd5b505050506040513d601f19601f8201168201806040525081019061229291906124d3565b92915050565b60006122a38361235c565b6001600160a01b03166303a2216d836040518263ffffffff1660e01b81526004016122ce91906127a9565b60206040518083038186803b1580156122e657600080fd5b505afa1580156122fa573d6000803e3d6000fd5b505050506040513d601f19601f8201168201806040525081019061231e91906125d5565b9392505050565b60006123308261235c565b6001600160a01b031663bcaa0c55600b6040518263ffffffff1660e01b81526004016122429190612767565b6000816001600160a01b031663f1f0bd016040518163ffffffff1660e01b815260040160206040518083038186803b15801561225a57600080fd5b8280546123a390612896565b90600052602060002090601f0160209004810192826123c5576000855561240b565b82601f106123de57805160ff191683800117855561240b565b8280016001018555821561240b579182015b8281111561240b5782518255916020019190600101906123f0565b5061241792915061241b565b5090565b5b80821115612417576000815560010161241c565b600082601f830112612440578081fd5b813567ffffffffffffffff8082111561245b5761245b612933565b604051601f8301601f19908116603f0116810190828211818310171561248357612483612933565b8160405283815286602085880101111561249b578485fd5b8360208701602083013792830160200193909352509392505050565b6000602082840312156124c8578081fd5b813561231e81612949565b6000602082840312156124e4578081fd5b815161231e81612949565b60008060408385031215612501578081fd5b823561250c81612949565b946020939093013593505050565b60006020828403121561252b578081fd5b81356004811061231e578182fd5b60006020828403121561254a578081fd5b813567ffffffffffffffff811115612560578182fd5b61256c84828501612430565b949350505050565b60008060408385031215612586578182fd5b823567ffffffffffffffff8082111561259d578384fd5b6125a986838701612430565b935060208501359150808211156125be578283fd5b506125cb85828601612430565b9150509250929050565b6000602082840312156125e6578081fd5b5051919050565b600080604083850312156125ff578182fd5b50508035926020909101359150565b60008151808452815b8181101561263357602081850181015186830182015201612617565b818111156126445782602083870101525b50601f01601f19169290920160200192915050565b6000610140825181855261266f8286018261260e565b91505060208301518482036020860152612689828261260e565b915050604083015184820360408601526126a3828261260e565b91505060608301516126bd606086018263ffffffff169052565b5060808301516126d9608086018267ffffffffffffffff169052565b5060a083015184820360a08601526126f1828261260e565b91505060c083015161270e60c08601826001600160a01b03169052565b5060e083015184820360e0860152612726828261260e565b9150506101008084015185830382870152612741838261260e565b92505050610120808401518583038287015261275d838261260e565b9695505050505050565b60208101600c831061277b5761277b61291d565b91905290565b602081016003831061277b5761277b61291d565b602081016004831061277b5761277b61291d565b602081016011831061277b5761277b61291d565b60208152600061231e602083018461260e565b60208152600061231e6020830184612659565b6060815260006127f66060830186612659565b6001600160a01b039490941660208301525060400152919050565b60008219821115612824576128246128f1565b500190565b60008261283857612838612907565b500490565b600063ffffffff8084168061285457612854612907565b92169190910492915050565b600081600019048311821515161561287a5761287a6128f1565b500290565b600082821015612891576128916128f1565b500390565b600181811c908216806128aa57607f821691505b602082108114156128cb57634e487b7160e01b600052602260045260246000fd5b50919050565b600060ff821660ff8114156128e8576128e86128f1565b60010192915050565b634e487b7160e01b600052601160045260246000fd5b634e487b7160e01b600052601260045260246000fd5b634e487b7160e01b600052602160045260246000fd5b634e487b7160e01b600052604160045260246000fd5b6001600160a01b038116811461295e57600080fd5b5056fea26469706673582212203a7976c43391b0fc11dc420d58cddfaa0c8cb463daab69dc00f7f33a9da0b4bf64736f6c63430008040033a264697066735822122045faf8df28e47e284fe199b78de6f4b78a758273355c343790cde5392731c56f64736f6c63430008040033",
  "linkReferences": {},
  "deployedLinkReferences": {}
}