{
    "_format": "hh-sol-artifact-1",
    "contractName": "TeeOffersFactory",
    "sourceName": "contracts/TeeOffersFactory.sol",
    "abi": [
        {
            "inputs": [
                {
                    "internalType": "address",
                    "name": "_SPConfig",
                    "type": "address"
                }
            ],
            "stateMutability": "nonpayable",
            "type": "constructor"
        },
        {
            "anonymous": false,
            "inputs": [
                {
                    "indexed": false,
                    "internalType": "address",
                    "name": "teeOffer",
                    "type": "address"
                }
            ],
            "name": "TeeOfferCreated",
            "type": "event"
        },
        {
            "inputs": [
                {
                    "internalType": "address",
                    "name": "tcb",
                    "type": "address"
                }
            ],
            "name": "addTcb",
            "outputs": [],
            "stateMutability": "nonpayable",
            "type": "function"
        },
        {
            "inputs": [
                {
                    "internalType": "address",
                    "name": "tcb",
                    "type": "address"
                }
            ],
            "name": "blockDevice",
            "outputs": [],
            "stateMutability": "nonpayable",
            "type": "function"
        },
        {
            "inputs": [
                {
                    "internalType": "address",
                    "name": "tcb",
                    "type": "address"
                }
            ],
            "name": "calcReparation",
            "outputs": [
                {
                    "internalType": "uint256",
                    "name": "",
                    "type": "uint256"
                }
            ],
            "stateMutability": "view",
            "type": "function"
        },
        {
            "inputs": [
                {
                    "internalType": "address",
                    "name": "tcb",
                    "type": "address"
                },
                {
                    "internalType": "uint256",
                    "name": "amount",
                    "type": "uint256"
                }
            ],
            "name": "chargeReparation",
            "outputs": [],
            "stateMutability": "nonpayable",
            "type": "function"
        },
        {
            "inputs": [
                {
                    "internalType": "address",
                    "name": "tcb",
                    "type": "address"
                }
            ],
            "name": "checkTcb",
            "outputs": [
                {
                    "internalType": "bool",
                    "name": "",
                    "type": "bool"
                }
            ],
            "stateMutability": "view",
            "type": "function"
        },
        {
            "inputs": [
                {
                    "internalType": "address",
                    "name": "providerAuth",
                    "type": "address"
                },
                {
                    "components": [
                        {
                            "internalType": "string",
                            "name": "name",
                            "type": "string"
                        },
                        {
                            "internalType": "string",
                            "name": "description",
                            "type": "string"
                        },
                        {
                            "internalType": "string",
                            "name": "teeType",
                            "type": "string"
                        },
                        {
                            "internalType": "uint32",
                            "name": "slots",
                            "type": "uint32"
                        },
                        {
                            "internalType": "uint64",
                            "name": "minTimeMinutes",
                            "type": "uint64"
                        },
                        {
                            "internalType": "string",
                            "name": "properties",
                            "type": "string"
                        },
                        {
                            "internalType": "address",
                            "name": "tcb",
                            "type": "address"
                        },
                        {
                            "internalType": "string",
                            "name": "tlb",
                            "type": "string"
                        },
                        {
                            "internalType": "string",
                            "name": "argsPublicKey",
                            "type": "string"
                        },
                        {
                            "internalType": "string",
                            "name": "argsPublicKeyAlgo",
                            "type": "string"
                        }
                    ],
                    "internalType": "struct TeeOfferInfo",
                    "name": "info",
                    "type": "tuple"
                }
            ],
            "name": "create",
            "outputs": [
                {
                    "internalType": "address",
                    "name": "",
                    "type": "address"
                }
            ],
            "stateMutability": "nonpayable",
            "type": "function"
        },
        {
            "inputs": [
                {
                    "internalType": "address",
                    "name": "offer",
                    "type": "address"
                }
            ],
            "name": "getOffersProvider",
            "outputs": [
                {
                    "internalType": "address",
                    "name": "",
                    "type": "address"
                }
            ],
            "stateMutability": "view",
            "type": "function"
        },
        {
            "inputs": [],
            "name": "listAll",
            "outputs": [
                {
                    "internalType": "address[]",
                    "name": "",
                    "type": "address[]"
                }
            ],
            "stateMutability": "view",
            "type": "function"
        },
        {
            "inputs": [
                {
                    "internalType": "address",
                    "name": "tcb",
                    "type": "address"
                },
                {
                    "internalType": "uint256",
                    "name": "reward",
                    "type": "uint256"
                }
            ],
            "name": "lockTcbReward",
            "outputs": [],
            "stateMutability": "nonpayable",
            "type": "function"
        },
        {
            "inputs": [
                {
                    "internalType": "address",
                    "name": "tcb",
                    "type": "address"
                },
                {
                    "internalType": "uint256",
                    "name": "amount",
                    "type": "uint256"
                }
            ],
            "name": "unlockTcbReward",
            "outputs": [],
            "stateMutability": "nonpayable",
            "type": "function"
        }
    ],
    "bytecode": "0x608060405234801561001057600080fd5b50604051620051ba380380620051ba83398101604081905261003191610056565b600080546001600160a01b0319166001600160a01b0392909216919091179055610084565b600060208284031215610067578081fd5b81516001600160a01b038116811461007d578182fd5b9392505050565b61512680620000946000396000f3fe60806040523480156200001157600080fd5b5060043610620000cd5760003560e01c806378a9eeed116200007f578063baa678241162000062578063baa6782414620001cc578063e055530714620001e3578063fa4e04a614620001fa57600080fd5b806378a9eeed146200018d5780639a6bcd0e14620001a657600080fd5b806336afedef11620000b457806336afedef146200013757806344bde3ff146200015f5780636b2e41b6146200017657600080fd5b8063165dee3f14620000d25780632c413abf146200011e575b600080fd5b62000101620000e336600462001c6b565b6001600160a01b039081166000908152600360205260409020541690565b6040516001600160a01b0390911681526020015b60405180910390f35b620001356200012f36600462001c6b565b62000211565b005b6200014e6200014836600462001c6b565b62000472565b604051901515815260200162000115565b620001356200017036600462001c6b565b620005b0565b620001356200018736600462001e53565b620009ab565b6200019762000c5c565b604051620001159190620021ac565b620001bd620001b736600462001c6b565b62000cc0565b60405190815260200162000115565b62000101620001dd36600462001ca9565b62000eca565b62000135620001f436600462001e53565b620013e5565b620001356200020b36600462001e53565b62001558565b60005462000228906001600160a01b031662001714565b6001600160a01b0316336001600160a01b0316146200028e5760405162461bcd60e51b815260206004820152601c60248201527f417661696c61626c65206f6e6c7920666f7220436f6e73656e7375730000000060448201526064015b60405180910390fd5b60008190506000816001600160a01b031663182c3dfd6040518163ffffffff1660e01b815260040160006040518083038186803b158015620002cf57600080fd5b505afa158015620002e4573d6000803e3d6000fd5b505050506040513d6000823e601f3d908101601f191682016040526200030e919081019062001f02565b6020808201516000908152600290915260409020549091506001600160a01b031680158062000349575081516001600160a01b038281169116145b620003bd5760405162461bcd60e51b815260206004820152602a60248201527f54686572652063616e206265206f6e6c79206f6e652064657669636520666f7260448201527f206f6e65206f6666657200000000000000000000000000000000000000000000606482015260840162000285565b815160208084015160009081526002909152604090819020805473ffffffffffffffffffffffffffffffffffffffff19166001600160a01b03938416179055835190517f2c413abf0000000000000000000000000000000000000000000000000000000081528683166004820152911690632c413abf906024015b600060405180830381600087803b1580156200045357600080fd5b505af115801562000468573d6000803e3d6000fd5b5050505050505050565b600080826001600160a01b031663182c3dfd6040518163ffffffff1660e01b815260040160006040518083038186803b158015620004af57600080fd5b505afa158015620004c4573d6000803e3d6000fd5b505050506040513d6000823e601f3d908101601f19168201604052620004ee919081019062001f02565b516001600160a01b03808216600081815260036020526040908190205490517f28e0180500000000000000000000000000000000000000000000000000000000815287841660048201529394509091161515916328e018059060240160206040518083038186803b1580156200056357600080fd5b505afa15801562000578573d6000803e3d6000fd5b505050506040513d601f19601f820116820180604052508101906200059e919062001e81565b8015620005a85750805b949350505050565b600054620005c7906001600160a01b031662001714565b6001600160a01b0316336001600160a01b031614620006295760405162461bcd60e51b815260206004820152601c60248201527f417661696c61626c65206f6e6c7920666f7220436f6e73656e73757300000000604482015260640162000285565b6000816001600160a01b031663182c3dfd6040518163ffffffff1660e01b815260040160006040518083038186803b1580156200066557600080fd5b505afa1580156200067a573d6000803e3d6000fd5b505050506040513d6000823e601f3d908101601f19168201604052620006a4919081019062001f02565b6000015190506000816001600160a01b031663f4732da66040518163ffffffff1660e01b815260040160206040518083038186803b158015620006e657600080fd5b505afa158015620006fb573d6000803e3d6000fd5b505050506040513d601f19601f8201168201806040525081019062000721919062001fda565b90506000836001600160a01b031663182c3dfd6040518163ffffffff1660e01b815260040160006040518083038186803b1580156200075f57600080fd5b505afa15801562000774573d6000803e3d6000fd5b505050506040513d6000823e601f3d908101601f191682016040526200079e919081019062001f02565b6020015190506000620007b184620017a3565b6000805491925090620007cd906001600160a01b031662001853565b6001600160a01b0316634bfb1e7a8360046040518363ffffffff1660e01b8152600401620007fd9291906200218d565b60606040518083038186803b1580156200081657600080fd5b505afa1580156200082b573d6000803e3d6000fd5b505050506040513d601f19601f8201168201806040525081019062000851919062001ea3565b90508381604001511015620008a95760405162461bcd60e51b815260206004820152601d60248201527f3530302e204e6f7420656e6f756768206c6f636b656420746f6b656e73000000604482015260640162000285565b600054620008c0906001600160a01b031662001853565b604051631831470360e01b81526001600160a01b038481166004830152602482018790529190911690631831470390604401600060405180830381600087803b1580156200090d57600080fd5b505af115801562000922573d6000803e3d6000fd5b50505050846001600160a01b03166344c406776040518163ffffffff1660e01b8152600401600060405180830381600087803b1580156200096257600080fd5b505af115801562000977573d6000803e3d6000fd5b5050506000938452505060026020525060409020805473ffffffffffffffffffffffffffffffffffffffff19169055505050565b600054620009c2906001600160a01b031662001714565b6001600160a01b0316336001600160a01b03161462000a245760405162461bcd60e51b815260206004820152601c60248201527f417661696c61626c65206f6e6c7920666f7220436f6e73656e73757300000000604482015260640162000285565b6000826001600160a01b031663182c3dfd6040518163ffffffff1660e01b815260040160006040518083038186803b15801562000a6057600080fd5b505afa15801562000a75573d6000803e3d6000fd5b505050506040513d6000823e601f3d908101601f1916820160405262000a9f919081019062001f02565b6000015190506000816001600160a01b031663483d45bd6040518163ffffffff1660e01b815260040160206040518083038186803b15801562000ae157600080fd5b505afa15801562000af6573d6000803e3d6000fd5b505050506040513d601f19601f8201168201806040525081019062000b1c919062001c8a565b9050600062000b2b83620017a3565b60005490915062000b45906001600160a01b031662001853565b604051631831470360e01b81526001600160a01b038381166004830152602482018790529190911690631831470390604401600060405180830381600087803b15801562000b9257600080fd5b505af115801562000ba7573d6000803e3d6000fd5b50505050826001600160a01b031663bab13ee16040518163ffffffff1660e01b8152600401600060405180830381600087803b15801562000be757600080fd5b505af115801562000bfc573d6000803e3d6000fd5b50505050816001600160a01b031663bab13ee16040518163ffffffff1660e01b8152600401600060405180830381600087803b15801562000c3c57600080fd5b505af115801562000c51573d6000803e3d6000fd5b505050505050505050565b6060600180548060200260200160405190810160405280929190818152602001828054801562000cb657602002820191906000526020600020905b81546001600160a01b0316815260019091019060200180831162000c97575b5050505050905090565b6000808290506000816001600160a01b031663182c3dfd6040518163ffffffff1660e01b815260040160006040518083038186803b15801562000d0257600080fd5b505afa15801562000d17573d6000803e3d6000fd5b505050506040513d6000823e601f3d908101601f1916820160405262000d41919081019062001f02565b519050600062000d5182620017a3565b600080549192509062000d6d906001600160a01b03166200188e565b6040517fc00007b00000000000000000000000000000000000000000000000000000000081526001600160a01b038881166004830152919091169063c00007b09060240160206040518083038186803b15801562000dca57600080fd5b505afa15801562000ddf573d6000803e3d6000fd5b505050506040513d601f19601f8201168201806040525081019062000e05919062001fda565b600080549192509062000e21906001600160a01b031662001853565b6001600160a01b0316634bfb1e7a8460046040518363ffffffff1660e01b815260040162000e519291906200218d565b60606040518083038186803b15801562000e6a57600080fd5b505afa15801562000e7f573d6000803e3d6000fd5b505050506040513d601f19601f8201168201806040525081019062000ea5919062001ea3565b604001519050600081831062000ebc578162000ebe565b825b98975050505050505050565b60008054819062000ee4906001600160a01b0316620018c9565b6040517fc2bc2efc0000000000000000000000000000000000000000000000000000000081526001600160a01b038681166004830152919091169063c2bc2efc9060240160206040518083038186803b15801562000f4157600080fd5b505afa15801562000f56573d6000803e3d6000fd5b505050506040513d601f19601f8201168201806040525081019062000f7c919062001c8a565b9050806001600160a01b0316631b71d85f6040518163ffffffff1660e01b8152600401600060405180830381600087803b15801562000fba57600080fd5b505af115801562000fcf573d6000803e3d6000fd5b50506000805490925062000fef91506001600160a01b0316600562001904565b60008054919250906200100b906001600160a01b0316620018c9565b6040517fb00e3c240000000000000000000000000000000000000000000000000000000081526001600160a01b038881166004830152919091169063b00e3c249060240160206040518083038186803b1580156200106857600080fd5b505afa1580156200107d573d6000803e3d6000fd5b505050506040513d601f19601f82011682018060405250810190620010a3919062001fda565b6040517fcf06217c000000000000000000000000000000000000000000000000000000008152600481018490529091506000906001600160a01b0385169063cf06217c9060240160206040518083038186803b1580156200110357600080fd5b505afa15801562001118573d6000803e3d6000fd5b505050506040513d601f19601f820116820180604052508101906200113e919062001fda565b9050336001600160a01b0316846001600160a01b0316636760c4b76040518163ffffffff1660e01b815260040160206040518083038186803b1580156200118457600080fd5b505afa15801562001199573d6000803e3d6000fd5b505050506040513d601f19601f82011682018060405250810190620011bf919062001c8a565b6001600160a01b031614620012175760405162461bcd60e51b815260206004820152600d60248201527f4163636573732064656e69656400000000000000000000000000000000000000604482015260640162000285565b80821015620012695760405162461bcd60e51b815260206004820152601d60248201527f5365637572697479206465706f73697420697320746f6f20736d616c6c000000604482015260640162000285565b600080546040516001600160a01b0390911690869089906200128b9062001bc6565b620012999392919062002038565b604051809103906000f080158015620012b6573d6000803e3d6000fd5b506001600160a01b03818116600081815260036020526040808220805473ffffffffffffffffffffffffffffffffffffffff199081168f87161790915560018054808201825593527fb10e2d527612073b26eecdfd717e6a320cf44b4afac2b0732d9fcbe2b7fa0cf690920180549092168317909155517fa553269b000000000000000000000000000000000000000000000000000000008152600481019190915291925086169063a553269b90602401600060405180830381600087803b1580156200138257600080fd5b505af115801562001397573d6000803e3d6000fd5b50506040516001600160a01b03841681527f4918fbfe7b2dd77341ba9a051a159bcca59437e8840b4718d4b0dd13d8175f369250602001905060405180910390a19450505050505b92915050565b600054620013fc906001600160a01b031662001714565b6001600160a01b0316336001600160a01b0316146200145e5760405162461bcd60e51b815260206004820152601c60248201527f417661696c61626c65206f6e6c7920666f7220436f6e73656e73757300000000604482015260640162000285565b6000826001600160a01b031663182c3dfd6040518163ffffffff1660e01b815260040160006040518083038186803b1580156200149a57600080fd5b505afa158015620014af573d6000803e3d6000fd5b505050506040513d6000823e601f3d908101601f19168201604052620014d9919081019062001f02565b5190506000620014e982620017a3565b6000805491925062001509916001600160a01b0316908390869062001999565b6040517f282d3fdf0000000000000000000000000000000000000000000000000000000081526001600160a01b0385811660048301526024820185905283169063282d3fdf9060440162000438565b6000546200156f906001600160a01b031662001714565b6001600160a01b0316336001600160a01b031614620015d15760405162461bcd60e51b815260206004820152601c60248201527f417661696c61626c65206f6e6c7920666f7220436f6e73656e73757300000000604482015260640162000285565b6000826001600160a01b031663182c3dfd6040518163ffffffff1660e01b815260040160006040518083038186803b1580156200160d57600080fd5b505afa15801562001622573d6000803e3d6000fd5b505050506040513d6000823e601f3d908101601f191682016040526200164c919081019062001f02565b51905060006200165c82620017a3565b604051637eee288d60e01b81526001600160a01b0386811660048301526024820186905291925090831690637eee288d90604401600060405180830381600087803b158015620016ab57600080fd5b505af1158015620016c0573d6000803e3d6000fd5b5050600054620016dc92506001600160a01b0316905062001853565b604051637eee288d60e01b81526001600160a01b038381166004830152602482018690529190911690637eee288d9060440162000438565b6000620017218262001b4f565b6001600160a01b031663bcaa0c5560086040518263ffffffff1660e01b81526004016200174f9190620021fb565b60206040518083038186803b1580156200176857600080fd5b505afa1580156200177d573d6000803e3d6000fd5b505050506040513d601f19601f82011682018060405250810190620013df919062001c8a565b6000816001600160a01b031663483d45bd6040518163ffffffff1660e01b815260040160206040518083038186803b158015620017df57600080fd5b505afa158015620017f4573d6000803e3d6000fd5b505050506040513d601f19601f820116820180604052508101906200181a919062001c8a565b6001600160a01b0316636d69a3e86040518163ffffffff1660e01b815260040160206040518083038186803b1580156200176857600080fd5b6000620018608262001b4f565b6001600160a01b031663bcaa0c5560026040518263ffffffff1660e01b81526004016200174f9190620021fb565b60006200189b8262001b4f565b6001600160a01b031663bcaa0c55600b6040518263ffffffff1660e01b81526004016200174f9190620021fb565b6000620018d68262001b4f565b6001600160a01b031663bcaa0c5560016040518263ffffffff1660e01b81526004016200174f9190620021fb565b6000620019118362001b4f565b6001600160a01b03166303a2216d836040518263ffffffff1660e01b81526004016200193e91906200220b565b60206040518083038186803b1580156200195757600080fd5b505afa1580156200196c573d6000803e3d6000fd5b505050506040513d601f19601f8201168201806040525081019062001992919062001fda565b9392505050565b6000620019af856001600160a01b031662001853565b9050620019c5856001600160a01b031662001b8b565b6040517f095ea7b30000000000000000000000000000000000000000000000000000000081526001600160a01b03838116600483015260248201869052919091169063095ea7b390604401602060405180830381600087803b15801562001a2b57600080fd5b505af115801562001a40573d6000803e3d6000fd5b505050506040513d601f19601f8201168201806040525081019062001a66919062001e81565b506040517f2ee409080000000000000000000000000000000000000000000000000000000081526001600160a01b03858116600483015260248201859052821690632ee4090890604401600060405180830381600087803b15801562001acb57600080fd5b505af115801562001ae0573d6000803e3d6000fd5b50506040517fe2ab691d0000000000000000000000000000000000000000000000000000000081526001600160a01b03878116600483015260248201879052604482018690528416925063e2ab691d9150606401600060405180830381600087803b15801562000c3c57600080fd5b6000816001600160a01b031663f1f0bd016040518163ffffffff1660e01b815260040160206040518083038186803b1580156200176857600080fd5b600062001b988262001b4f565b6001600160a01b031663bcaa0c5560056040518263ffffffff1660e01b81526004016200174f9190620021fb565b612d9e806200235383390190565b803562001be18162002339565b919050565b600082601f83011262001bf7578081fd5b813562001c0e62001c0882620022af565b6200227b565b81815284602083860101111562001c23578283fd5b816020850160208301379081016020019190915292915050565b803563ffffffff8116811462001be157600080fd5b803567ffffffffffffffff8116811462001be157600080fd5b60006020828403121562001c7d578081fd5b8135620019928162002339565b60006020828403121562001c9c578081fd5b8151620019928162002339565b6000806040838503121562001cbc578081fd5b823562001cc98162002339565b9150602083013567ffffffffffffffff8082111562001ce6578283fd5b90840190610140828703121562001cfb578283fd5b62001d0562002228565b82358281111562001d14578485fd5b62001d228882860162001be6565b82525060208301358281111562001d37578485fd5b62001d458882860162001be6565b60208301525060408301358281111562001d5d578485fd5b62001d6b8882860162001be6565b60408301525062001d7f6060840162001c3d565b606082015262001d926080840162001c52565b608082015260a08301358281111562001da9578485fd5b62001db78882860162001be6565b60a08301525062001dcb60c0840162001bd4565b60c082015260e08301358281111562001de2578485fd5b62001df08882860162001be6565b60e083015250610100808401358381111562001e0a578586fd5b62001e188982870162001be6565b828401525050610120808401358381111562001e32578586fd5b62001e408982870162001be6565b8284015250508093505050509250929050565b6000806040838503121562001e66578182fd5b823562001e738162002339565b946020939093013593505050565b60006020828403121562001e93578081fd5b8151801515811462001992578182fd5b60006060828403121562001eb5578081fd5b6040516060810181811067ffffffffffffffff8211171562001edb5762001edb62002323565b80604052508251815260208301516020820152604083015160408201528091505092915050565b6000602080838503121562001f15578182fd5b825167ffffffffffffffff8082111562001f2d578384fd5b908401906080828703121562001f41578384fd5b62001f4b62002255565b825162001f588162002339565b815282840151848201526040808401519082015260608301518281111562001f7e578586fd5b80840193505086601f84011262001f93578485fd5b8251915062001fa662001c0883620022af565b828152878584860101111562001fba578586fd5b62001fcb83868301878701620022da565b60608201529695505050505050565b60006020828403121562001fec578081fd5b5051919050565b600c81106200200657620020066200230d565b9052565b6000815180845262002024816020860160208601620022da565b601f01601f19169290920160200192915050565b60006001600160a01b038086168352808516602084015250606060408301528251610140806060850152620020726101a08501836200200a565b91506020850151605f19808685030160808701526200209284836200200a565b935060408701519150808685030160a0870152620020b184836200200a565b935060608701519150620020cd60c087018363ffffffff169052565b608087015167ffffffffffffffff811660e0880152915060a087015191506101008187860301818801526200210385846200200a565b945060c0880151925061012062002124818901856001600160a01b03169052565b60e089015193508288870301858901526200214086856200200a565b955081890151945082888703016101608901526200215f86866200200a565b95508089015194505050808685030161018087015250506200218282826200200a565b979650505050505050565b6001600160a01b03831681526040810162001992602083018462001ff3565b6020808252825182820181905260009190848201906040850190845b81811015620021ef5783516001600160a01b031683529284019291840191600101620021c8565b50909695505050505050565b60208101620013df828462001ff3565b60208101601183106200222257620022226200230d565b91905290565b604051610140810167ffffffffffffffff811182821017156200224f576200224f62002323565b60405290565b6040516080810167ffffffffffffffff811182821017156200224f576200224f62002323565b604051601f8201601f1916810167ffffffffffffffff81118282101715620022a757620022a762002323565b604052919050565b600067ffffffffffffffff821115620022cc57620022cc62002323565b50601f01601f191660200190565b60005b83811015620022f7578181015183820152602001620022dd565b8381111562002307576000848401525b50505050565b634e487b7160e01b600052602160045260246000fd5b634e487b7160e01b600052604160045260246000fd5b6001600160a01b03811681146200234f57600080fd5b5056fe60806040523480156200001157600080fd5b5060405162002d9e38038062002d9e833981016040819052620000349162000383565b6000816060015163ffffffff1611620000835760405162461bcd60e51b815260206004820152600d60248201526c496e76616c696420736c6f747360981b604482015260640160405180910390fd5b600080546001600160a01b0319166001600160a01b038416179055805180518291600291620000ba91839160209091019062000202565b506020828101518051620000d5926001850192019062000202565b5060408201518051620000f391600284019160209091019062000202565b50606082015160038201805460808501516001600160401b0316640100000000026001600160601b031990911663ffffffff9093169290921791909117905560a082015180516200014f91600484019160209091019062000202565b5060c08201516005820180546001600160a01b0319166001600160a01b0390921691909117905560e082015180516200019391600684019160209091019062000202565b506101008201518051620001b291600784019160209091019062000202565b506101208201518051620001d191600884019160209091019062000202565b505060006001555050600b80546001600160a01b0319166001600160a01b03939093169290921790915550620005ef565b82805462000210906200059c565b90600052602060002090601f0160209004810192826200023457600085556200027f565b82601f106200024f57805160ff19168380011785556200027f565b828001600101855582156200027f579182015b828111156200027f57825182559160200191906001019062000262565b506200028d92915062000291565b5090565b5b808211156200028d576000815560010162000292565b80516001600160a01b0381168114620002c057600080fd5b919050565b600082601f830112620002d6578081fd5b81516001600160401b03811115620002f257620002f2620005d9565b602062000308601f8301601f1916820162000569565b82815285828487010111156200031c578384fd5b835b838110156200033b5785810183015182820184015282016200031e565b838111156200034c57848385840101525b5095945050505050565b805163ffffffff81168114620002c057600080fd5b80516001600160401b0381168114620002c057600080fd5b60008060006060848603121562000398578283fd5b620003a384620002a8565b9250620003b360208501620002a8565b60408501519092506001600160401b0380821115620003d0578283fd5b908501906101408288031215620003e5578283fd5b620003ef6200053d565b825182811115620003fe578485fd5b6200040c89828601620002c5565b82525060208301518281111562000421578485fd5b6200042f89828601620002c5565b60208301525060408301518281111562000447578485fd5b6200045589828601620002c5565b604083015250620004696060840162000356565b60608201526200047c608084016200036b565b608082015260a08301518281111562000493578485fd5b620004a189828601620002c5565b60a083015250620004b560c08401620002a8565b60c082015260e083015182811115620004cc578485fd5b620004da89828601620002c5565b60e0830152506101008084015183811115620004f4578586fd5b620005028a828701620002c5565b82840152505061012080840151838111156200051c578586fd5b6200052a8a828701620002c5565b8284015250508093505050509250925092565b60405161014081016001600160401b0381118282101715620005635762000563620005d9565b60405290565b604051601f8201601f191681016001600160401b0381118282101715620005945762000594620005d9565b604052919050565b600181811c90821680620005b157607f821691505b60208210811415620005d357634e487b7160e01b600052602260045260246000fd5b50919050565b634e487b7160e01b600052604160045260246000fd5b61279f80620005ff6000396000f3fe608060405234801561001057600080fd5b50600436106101c45760003560e01c80637eee288d116100f9578063bba610b011610097578063c47f002711610071578063c47f00271461038b578063c6f3d61c1461039e578063f12018c3146103b1578063f4732da6146103c557600080fd5b8063bba610b014610360578063bbb5d5f714610373578063c422c1b11461037a57600080fd5b806390c3f38f116100d357806390c3f38f1461032e578063a3907d7114610341578063af5372e614610349578063bab13ee11461035857600080fd5b80637eee288d146103005780638383da75146103135780638a35e9421461032657600080fd5b806344c40677116101665780636aa633b6116101405780636aa633b61461029a5780636d483c84146102a25780636d4ce63c146102b45780637238ccdb146102cb57600080fd5b806344c4067714610258578063483d45bd146102605780635a9b0b891461028557600080fd5b806328e01805116101a257806328e01805146102155780632c413abf146102285780632f2770db1461023b5780633f3de01c1461024357600080fd5b80630c72dc31146101c95780631bffb491146101ed578063282d3fdf14610200575b600080fd5b600054600160a01b900460ff1660405160ff90911681526020015b60405180910390f35b60015b60405190151581526020016101e4565b61021361020e366004612332565b6103cd565b005b6101f06102233660046122fa565b6104dc565b6102136102363660046122fa565b610515565b610213610629565b61024b610854565b6040516101e491906125c5565b6102136108e9565b6000546001600160a01b03165b6040516001600160a01b0390911681526020016101e4565b61028d61099a565b6040516101e491906125d8565b6101f0610e5d565b6001545b6040519081526020016101e4565b6102bc610e77565b6040516101e4939291906125eb565b6102de6102d93660046122fa565b61135d565b60408051825181526020808401519082015291810151908201526060016101e4565b61021361030e366004612332565b6113c3565b6102a6610321366004612409565b611605565b6102a66116ac565b61021361033c36600461235d565b611823565b610213611975565b60006040516101e4919061259d565b610213611b3f565b61021361036e366004612390565b611be8565b60006102a6565b6007546001600160a01b031661026d565b61021361039936600461235d565b611d4f565b6102136103ac36600461235d565b611e9d565b6101f06103bf3660046122fa565b50600190565b600e546102a6565b600b546103e2906001600160a01b031661204e565b6001600160a01b0316336001600160a01b0316146104475760405162461bcd60e51b815260206004820152601c60248201527f4f6e6c7920617661696c61626c6520666f72205465654f66666572730000000060448201526064015b60405180910390fd5b600b5442906000906201518090610468906001600160a01b031660016120db565b6104729190612668565b61047c9042612619565b6001600160a01b0385166000908152600c602052604081208481556001810183905560028101805493945090928692906104b7908490612619565b9250508190555083600e60008282546104d09190612619565b90915550505050505050565b6007546001600160a01b038281166000818152600d6020526040812054909392909216149060ff16818061050d5750805b949350505050565b600b5461052a906001600160a01b031661204e565b6001600160a01b0316336001600160a01b03161461058a5760405162461bcd60e51b815260206004820152601c60248201527f4f6e6c7920617661696c61626c6520666f72205465654f666665727300000000604482015260640161043e565b6000546002600160a01b90910460ff16106105d75760405162461bcd60e51b815260206004820152600d60248201526c13d999995c88189b1bd8dad959609a1b604482015260640161043e565b600780546001600160a01b039092167fffffffffffffffffffffffff0000000000000000000000000000000000000000909216821790556000908152600d60205260409020805460ff19166001179055565b60008054906101000a90046001600160a01b03166001600160a01b0316636760c4b76040518163ffffffff1660e01b815260040160206040518083038186803b15801561067557600080fd5b505afa158015610689573d6000803e3d6000fd5b505050506040513d601f19601f820116820180604052508101906106ad9190612316565b6001600160a01b0316336001600160a01b0316146107175760405162461bcd60e51b815260206004820152602160248201527f4f6e6c7920617661696c61626c6520666f7220416374696f6e206163636f756e6044820152601d60fa1b606482015260840161043e565b6000546002600160a01b90910460ff16106107645760405162461bcd60e51b815260206004820152600d60248201526c13d999995c88189b1bd8dad959609a1b604482015260640161043e565b600154156107b45760405162461bcd60e51b815260206004820152601960248201527f4f6666657220697320616c72656164792064697361626c656400000000000000604482015260640161043e565b600b5462015180906107d0906001600160a01b031660046120db565b6107da9190612668565b6107e49042612619565b600181905560008054604051639789e32360e01b8152600481019290925260248201929092526001600160a01b0390911690639789e323906044015b600060405180830381600087803b15801561083a57600080fd5b505af115801561084e573d6000803e3d6000fd5b50505050565b6060600260060180546108669061269e565b80601f01602080910402602001604051908101604052809291908181526020018280546108929061269e565b80156108df5780601f106108b4576101008083540402835291602001916108df565b820191906000526020600020905b8154815290600101906020018083116108c257829003601f168201915b5050505050905090565b600b546108fe906001600160a01b031661204e565b6001600160a01b0316336001600160a01b03161461095e5760405162461bcd60e51b815260206004820152601c60248201527f4f6e6c7920617661696c61626c6520666f72205465654f666665727300000000604482015260640161043e565b6000600e8190558054604051639789e32360e01b815260048101929092524260248301526001600160a01b031690639789e32390604401610820565b610a09604051806101400160405280606081526020016060815260200160608152602001600063ffffffff168152602001600067ffffffffffffffff1681526020016060815260200160006001600160a01b031681526020016060815260200160608152602001606081525090565b600260405180610140016040529081600082018054610a279061269e565b80601f0160208091040260200160405190810160405280929190818152602001828054610a539061269e565b8015610aa05780601f10610a7557610100808354040283529160200191610aa0565b820191906000526020600020905b815481529060010190602001808311610a8357829003601f168201915b50505050508152602001600182018054610ab99061269e565b80601f0160208091040260200160405190810160405280929190818152602001828054610ae59061269e565b8015610b325780601f10610b0757610100808354040283529160200191610b32565b820191906000526020600020905b815481529060010190602001808311610b1557829003601f168201915b50505050508152602001600282018054610b4b9061269e565b80601f0160208091040260200160405190810160405280929190818152602001828054610b779061269e565b8015610bc45780601f10610b9957610100808354040283529160200191610bc4565b820191906000526020600020905b815481529060010190602001808311610ba757829003601f168201915b5050509183525050600382015463ffffffff81166020830152640100000000900467ffffffffffffffff166040820152600482018054606090920191610c099061269e565b80601f0160208091040260200160405190810160405280929190818152602001828054610c359061269e565b8015610c825780601f10610c5757610100808354040283529160200191610c82565b820191906000526020600020905b815481529060010190602001808311610c6557829003601f168201915b505050918352505060058201546001600160a01b03166020820152600682018054604090920191610cb29061269e565b80601f0160208091040260200160405190810160405280929190818152602001828054610cde9061269e565b8015610d2b5780601f10610d0057610100808354040283529160200191610d2b565b820191906000526020600020905b815481529060010190602001808311610d0e57829003601f168201915b50505050508152602001600782018054610d449061269e565b80601f0160208091040260200160405190810160405280929190818152602001828054610d709061269e565b8015610dbd5780601f10610d9257610100808354040283529160200191610dbd565b820191906000526020600020905b815481529060010190602001808311610da057829003601f168201915b50505050508152602001600882018054610dd69061269e565b80601f0160208091040260200160405190810160405280929190818152602001828054610e029061269e565b8015610e4f5780601f10610e2457610100808354040283529160200191610e4f565b820191906000526020600020905b815481529060010190602001808311610e3257829003601f168201915b505050505081525050905090565b600060015460001480610e7257506001544211155b905090565b610ee6604051806101400160405280606081526020016060815260200160608152602001600063ffffffff168152602001600067ffffffffffffffff1681526020016060815260200160006001600160a01b031681526020016060815260200160608152602001606081525090565b600080600260008054906101000a90046001600160a01b03166001548260405180610140016040529081600082018054610f1f9061269e565b80601f0160208091040260200160405190810160405280929190818152602001828054610f4b9061269e565b8015610f985780601f10610f6d57610100808354040283529160200191610f98565b820191906000526020600020905b815481529060010190602001808311610f7b57829003601f168201915b50505050508152602001600182018054610fb19061269e565b80601f0160208091040260200160405190810160405280929190818152602001828054610fdd9061269e565b801561102a5780601f10610fff5761010080835404028352916020019161102a565b820191906000526020600020905b81548152906001019060200180831161100d57829003601f168201915b505050505081526020016002820180546110439061269e565b80601f016020809104026020016040519081016040528092919081815260200182805461106f9061269e565b80156110bc5780601f10611091576101008083540402835291602001916110bc565b820191906000526020600020905b81548152906001019060200180831161109f57829003601f168201915b5050509183525050600382015463ffffffff81166020830152640100000000900467ffffffffffffffff1660408201526004820180546060909201916111019061269e565b80601f016020809104026020016040519081016040528092919081815260200182805461112d9061269e565b801561117a5780601f1061114f5761010080835404028352916020019161117a565b820191906000526020600020905b81548152906001019060200180831161115d57829003601f168201915b505050918352505060058201546001600160a01b031660208201526006820180546040909201916111aa9061269e565b80601f01602080910402602001604051908101604052809291908181526020018280546111d69061269e565b80156112235780601f106111f857610100808354040283529160200191611223565b820191906000526020600020905b81548152906001019060200180831161120657829003601f168201915b5050505050815260200160078201805461123c9061269e565b80601f01602080910402602001604051908101604052809291908181526020018280546112689061269e565b80156112b55780601f1061128a576101008083540402835291602001916112b5565b820191906000526020600020905b81548152906001019060200180831161129857829003601f168201915b505050505081526020016008820180546112ce9061269e565b80601f01602080910402602001604051908101604052809291908181526020018280546112fa9061269e565b80156113475780601f1061131c57610100808354040283529160200191611347565b820191906000526020600020905b81548152906001019060200180831161132a57829003601f168201915b5050505050815250509250925092509250909192565b61138160405180606001604052806000815260200160008152602001600081525090565b506001600160a01b03166000908152600c6020908152604091829020825160608101845281548152600182015492810192909252600201549181019190915290565b600b546113d8906001600160a01b031661204e565b6001600160a01b0316336001600160a01b0316146114385760405162461bcd60e51b815260206004820152601c60248201527f4f6e6c7920617661696c61626c6520666f72205465654f666665727300000000604482015260640161043e565b6000546002600160a01b90910460ff16106114855760405162461bcd60e51b815260206004820152600d60248201526c13d999995c88189b1bd8dad959609a1b604482015260640161043e565b6001600160a01b0382166000908152600c60205260409020600e54158015906114b457508060020154600e5410155b6115265760405162461bcd60e51b815260206004820152602c60248201527f52657761726420666f7220746869732054434220636f6e66697363617465642060448201527f627920436f6e73656e7375730000000000000000000000000000000000000000606482015260840161043e565b806002015482111561157a5760405162461bcd60e51b815260206004820152601860248201527f4e6f7420656e6f756768206c6f636b656420746f6b656e730000000000000000604482015260640161043e565b42816001015411156115ce5760405162461bcd60e51b815260206004820152601460248201527f546f6f206561726c7920666f7220756e6c6f636b000000000000000000000000604482015260640161043e565b818160020160008282546115e29190612687565b9250508190555081600e60008282546115fb9190612687565b9091555050505050565b6000806116128442612687565b90506000611621603c83612631565b600554909150640100000000900467ffffffffffffffff168110156116575750600554640100000000900467ffffffffffffffff165b60055460009063ffffffff1661166b6116ac565b6116759190612631565b90506000611687603c62015180612645565b63ffffffff166116978385612668565b6116a19190612631565b979650505050505050565b6007546000906001600160a01b03166116c55750600090565b600b546116da906001600160a01b0316612168565b6007546040517fb8ac86420000000000000000000000000000000000000000000000000000000081526001600160a01b03918216600482015291169063b8ac86429060240160206040518083038186803b15801561173757600080fd5b505afa15801561174b573d6000803e3d6000fd5b505050506040513d601f19601f8201168201806040525081019061176f91906123f1565b600b54611784906001600160a01b0316612168565b6007546040517fc00007b00000000000000000000000000000000000000000000000000000000081526001600160a01b03918216600482015291169063c00007b09060240160206040518083038186803b1580156117e157600080fd5b505afa1580156117f5573d6000803e3d6000fd5b505050506040513d601f19601f8201168201806040525081019061181991906123f1565b610e729190612619565b60008054906101000a90046001600160a01b03166001600160a01b0316636760c4b76040518163ffffffff1660e01b815260040160206040518083038186803b15801561186f57600080fd5b505afa158015611883573d6000803e3d6000fd5b505050506040513d601f19601f820116820180604052508101906118a79190612316565b6001600160a01b0316336001600160a01b0316146119115760405162461bcd60e51b815260206004820152602160248201527f4f6e6c7920617661696c61626c6520666f7220416374696f6e206163636f756e6044820152601d60fa1b606482015260840161043e565b6000546002600160a01b90910460ff161061195e5760405162461bcd60e51b815260206004820152600d60248201526c13d999995c88189b1bd8dad959609a1b604482015260640161043e565b80516119719060039060208401906121da565b5050565b60008054906101000a90046001600160a01b03166001600160a01b0316636760c4b76040518163ffffffff1660e01b815260040160206040518083038186803b1580156119c157600080fd5b505afa1580156119d5573d6000803e3d6000fd5b505050506040513d601f19601f820116820180604052508101906119f99190612316565b6001600160a01b0316336001600160a01b031614611a635760405162461bcd60e51b815260206004820152602160248201527f4f6e6c7920617661696c61626c6520666f7220416374696f6e206163636f756e6044820152601d60fa1b606482015260840161043e565b6000546002600160a01b90910460ff1610611ab05760405162461bcd60e51b815260206004820152600d60248201526c13d999995c88189b1bd8dad959609a1b604482015260640161043e565b600154611aff5760405162461bcd60e51b815260206004820152601860248201527f4f6666657220697320616c726561647920656e61626c65640000000000000000604482015260640161043e565b600060018181558154604051639789e32360e01b8152600481019290925260248201929092526001600160a01b0390911690639789e32390604401610820565b600b54611b54906001600160a01b031661204e565b6001600160a01b0316336001600160a01b031614611bb45760405162461bcd60e51b815260206004820152601c60248201527f4f6e6c7920617661696c61626c6520666f72205465654f666665727300000000604482015260640161043e565b60008054601490611bce90600160a01b900460ff166126d9565b91906101000a81548160ff021916908360ff160217905550565b60008054906101000a90046001600160a01b03166001600160a01b0316636760c4b76040518163ffffffff1660e01b815260040160206040518083038186803b158015611c3457600080fd5b505afa158015611c48573d6000803e3d6000fd5b505050506040513d601f19601f82011682018060405250810190611c6c9190612316565b6001600160a01b0316336001600160a01b031614611cd65760405162461bcd60e51b815260206004820152602160248201527f4f6e6c7920617661696c61626c6520666f7220416374696f6e206163636f756e6044820152601d60fa1b606482015260840161043e565b6000546002600160a01b90910460ff1610611d235760405162461bcd60e51b815260206004820152600d60248201526c13d999995c88189b1bd8dad959609a1b604482015260640161043e565b8151611d369060099060208501906121da565b508051611d4a90600a9060208401906121da565b505050565b60008054906101000a90046001600160a01b03166001600160a01b0316636760c4b76040518163ffffffff1660e01b815260040160206040518083038186803b158015611d9b57600080fd5b505afa158015611daf573d6000803e3d6000fd5b505050506040513d601f19601f82011682018060405250810190611dd39190612316565b6001600160a01b0316336001600160a01b031614611e3d5760405162461bcd60e51b815260206004820152602160248201527f4f6e6c7920617661696c61626c6520666f7220416374696f6e206163636f756e6044820152601d60fa1b606482015260840161043e565b6000546002600160a01b90910460ff1610611e8a5760405162461bcd60e51b815260206004820152600d60248201526c13d999995c88189b1bd8dad959609a1b604482015260640161043e565b80516119719060029060208401906121da565b60008054906101000a90046001600160a01b03166001600160a01b0316636760c4b76040518163ffffffff1660e01b815260040160206040518083038186803b158015611ee957600080fd5b505afa158015611efd573d6000803e3d6000fd5b505050506040513d601f19601f82011682018060405250810190611f219190612316565b6001600160a01b0316336001600160a01b031614611f8b5760405162461bcd60e51b815260206004820152602160248201527f4f6e6c7920617661696c61626c6520666f7220416374696f6e206163636f756e6044820152601d60fa1b606482015260840161043e565b6000546002600160a01b90910460ff1610611fd85760405162461bcd60e51b815260206004820152600d60248201526c13d999995c88189b1bd8dad959609a1b604482015260640161043e565b42600f5462015180611fea9190612619565b106120375760405162461bcd60e51b815260206004820152601460248201527f417661696c61626c65206f6e6365206120646179000000000000000000000000604482015260640161043e565b42600f5580516119719060089060208401906121da565b60006120598261219f565b6001600160a01b031663bcaa0c5560046040518263ffffffff1660e01b81526004016120859190612583565b60206040518083038186803b15801561209d57600080fd5b505afa1580156120b1573d6000803e3d6000fd5b505050506040513d601f19601f820116820180604052508101906120d59190612316565b92915050565b60006120e68361219f565b6001600160a01b03166303a2216d836040518263ffffffff1660e01b815260040161211191906125b1565b60206040518083038186803b15801561212957600080fd5b505afa15801561213d573d6000803e3d6000fd5b505050506040513d601f19601f8201168201806040525081019061216191906123f1565b9392505050565b60006121738261219f565b6001600160a01b031663bcaa0c55600b6040518263ffffffff1660e01b81526004016120859190612583565b6000816001600160a01b031663f1f0bd016040518163ffffffff1660e01b815260040160206040518083038186803b15801561209d57600080fd5b8280546121e69061269e565b90600052602060002090601f016020900481019282612208576000855561224e565b82601f1061222157805160ff191683800117855561224e565b8280016001018555821561224e579182015b8281111561224e578251825591602001919060010190612233565b5061225a92915061225e565b5090565b5b8082111561225a576000815560010161225f565b600082601f830112612283578081fd5b813567ffffffffffffffff8082111561229e5761229e61273b565b604051601f8301601f19908116603f011681019082821181831017156122c6576122c661273b565b816040528381528660208588010111156122de578485fd5b8360208701602083013792830160200193909352509392505050565b60006020828403121561230b578081fd5b813561216181612751565b600060208284031215612327578081fd5b815161216181612751565b60008060408385031215612344578081fd5b823561234f81612751565b946020939093013593505050565b60006020828403121561236e578081fd5b813567ffffffffffffffff811115612384578182fd5b61050d84828501612273565b600080604083850312156123a2578182fd5b823567ffffffffffffffff808211156123b9578384fd5b6123c586838701612273565b935060208501359150808211156123da578283fd5b506123e785828601612273565b9150509250929050565b600060208284031215612402578081fd5b5051919050565b6000806040838503121561241b578182fd5b50508035926020909101359150565b60008151808452815b8181101561244f57602081850181015186830182015201612433565b818111156124605782602083870101525b50601f01601f19169290920160200192915050565b6000610140825181855261248b8286018261242a565b915050602083015184820360208601526124a5828261242a565b915050604083015184820360408601526124bf828261242a565b91505060608301516124d9606086018263ffffffff169052565b5060808301516124f5608086018267ffffffffffffffff169052565b5060a083015184820360a086015261250d828261242a565b91505060c083015161252a60c08601826001600160a01b03169052565b5060e083015184820360e0860152612542828261242a565b915050610100808401518583038287015261255d838261242a565b925050506101208084015185830382870152612579838261242a565b9695505050505050565b60208101600c831061259757612597612725565b91905290565b602081016004831061259757612597612725565b602081016011831061259757612597612725565b602081526000612161602083018461242a565b6020815260006121616020830184612475565b6060815260006125fe6060830186612475565b6001600160a01b039490941660208301525060400152919050565b6000821982111561262c5761262c6126f9565b500190565b6000826126405761264061270f565b500490565b600063ffffffff8084168061265c5761265c61270f565b92169190910492915050565b6000816000190483118215151615612682576126826126f9565b500290565b600082821015612699576126996126f9565b500390565b600181811c908216806126b257607f821691505b602082108114156126d357634e487b7160e01b600052602260045260246000fd5b50919050565b600060ff821660ff8114156126f0576126f06126f9565b60010192915050565b634e487b7160e01b600052601160045260246000fd5b634e487b7160e01b600052601260045260246000fd5b634e487b7160e01b600052602160045260246000fd5b634e487b7160e01b600052604160045260246000fd5b6001600160a01b038116811461276657600080fd5b5056fea264697066735822122073c6132cf8f26012645407d195fd93217aff8b256466380acb87a358ed7030c364736f6c63430008040033a2646970667358221220587fae39cfa5b93ac79a6413a29e8f1412a46bd8dbebaa6cd1bb0cc3ba17f71f64736f6c63430008040033",
    "linkReferences": {},
    "deployedLinkReferences": {}
}