{
    "_format": "hh-sol-artifact-1",
    "contractName": "TeeOffer",
    "sourceName": "contracts/TeeOffer.sol",
    "abi": [
        {
            "inputs": [
                {
                    "internalType": "address",
                    "name": "_superpro",
                    "type": "address"
                },
                {
                    "internalType": "address",
                    "name": "_provider",
                    "type": "address"
                },
                {
                    "components": [
                        {
                            "internalType": "string",
                            "name": "name",
                            "type": "string"
                        },
                        {
                            "internalType": "string",
                            "name": "description",
                            "type": "string"
                        },
                        {
                            "internalType": "string",
                            "name": "teeType",
                            "type": "string"
                        },
                        {
                            "internalType": "uint32",
                            "name": "slots",
                            "type": "uint32"
                        },
                        {
                            "internalType": "uint64",
                            "name": "minTimeMinutes",
                            "type": "uint64"
                        },
                        {
                            "internalType": "string",
                            "name": "properties",
                            "type": "string"
                        },
                        {
                            "internalType": "address",
                            "name": "tcb",
                            "type": "address"
                        },
                        {
                            "internalType": "string",
                            "name": "tlb",
                            "type": "string"
                        },
                        {
                            "internalType": "string",
                            "name": "argsPublicKey",
                            "type": "string"
                        },
                        {
                            "internalType": "string",
                            "name": "argsPublicKeyAlgo",
                            "type": "string"
                        }
                    ],
                    "internalType": "struct TeeOfferInfo",
                    "name": "_info",
                    "type": "tuple"
                }
            ],
            "stateMutability": "nonpayable",
            "type": "constructor"
        },
        {
            "inputs": [
                {
                    "internalType": "address",
                    "name": "tcb",
                    "type": "address"
                }
            ],
            "name": "addTcb",
            "outputs": [],
            "stateMutability": "nonpayable",
            "type": "function"
        },
        {
            "inputs": [
                {
                    "internalType": "string",
                    "name": "tlb",
                    "type": "string"
                }
            ],
            "name": "addTlb",
            "outputs": [],
            "stateMutability": "nonpayable",
            "type": "function"
        },
        {
            "inputs": [],
            "name": "blockOffer",
            "outputs": [],
            "stateMutability": "nonpayable",
            "type": "function"
        },
        {
            "inputs": [],
            "name": "disable",
            "outputs": [],
            "stateMutability": "nonpayable",
            "type": "function"
        },
        {
            "inputs": [],
            "name": "enable",
            "outputs": [],
            "stateMutability": "nonpayable",
            "type": "function"
        },
        {
            "inputs": [],
            "name": "get",
            "outputs": [
                {
                    "components": [
                        {
                            "internalType": "string",
                            "name": "name",
                            "type": "string"
                        },
                        {
                            "internalType": "string",
                            "name": "description",
                            "type": "string"
                        },
                        {
                            "internalType": "string",
                            "name": "teeType",
                            "type": "string"
                        },
                        {
                            "internalType": "uint32",
                            "name": "slots",
                            "type": "uint32"
                        },
                        {
                            "internalType": "uint64",
                            "name": "minTimeMinutes",
                            "type": "uint64"
                        },
                        {
                            "internalType": "string",
                            "name": "properties",
                            "type": "string"
                        },
                        {
                            "internalType": "address",
                            "name": "tcb",
                            "type": "address"
                        },
                        {
                            "internalType": "string",
                            "name": "tlb",
                            "type": "string"
                        },
                        {
                            "internalType": "string",
                            "name": "argsPublicKey",
                            "type": "string"
                        },
                        {
                            "internalType": "string",
                            "name": "argsPublicKeyAlgo",
                            "type": "string"
                        }
                    ],
                    "internalType": "struct TeeOfferInfo",
                    "name": "",
                    "type": "tuple"
                },
                {
                    "internalType": "address",
                    "name": "",
                    "type": "address"
                },
                {
                    "internalType": "uint256",
                    "name": "",
                    "type": "uint256"
                }
            ],
            "stateMutability": "view",
            "type": "function"
        },
        {
            "inputs": [
                {
                    "internalType": "uint256",
                    "name": "startDate",
                    "type": "uint256"
                },
                {
                    "internalType": "uint256",
                    "name": "orderPrice",
                    "type": "uint256"
                }
            ],
            "name": "getClosingPrice",
            "outputs": [
                {
                    "internalType": "uint256",
                    "name": "",
                    "type": "uint256"
                }
            ],
            "stateMutability": "view",
            "type": "function"
        },
        {
            "inputs": [],
            "name": "getDisalbedAfter",
            "outputs": [
                {
                    "internalType": "uint256",
                    "name": "",
                    "type": "uint256"
                }
            ],
            "stateMutability": "view",
            "type": "function"
        },
        {
            "inputs": [],
            "name": "getHoldDeposit",
            "outputs": [
                {
                    "internalType": "uint256",
                    "name": "",
                    "type": "uint256"
                }
            ],
            "stateMutability": "pure",
            "type": "function"
        },
        {
            "inputs": [],
            "name": "getInfo",
            "outputs": [
                {
                    "components": [
                        {
                            "internalType": "string",
                            "name": "name",
                            "type": "string"
                        },
                        {
                            "internalType": "string",
                            "name": "description",
                            "type": "string"
                        },
                        {
                            "internalType": "string",
                            "name": "teeType",
                            "type": "string"
                        },
                        {
                            "internalType": "uint32",
                            "name": "slots",
                            "type": "uint32"
                        },
                        {
                            "internalType": "uint64",
                            "name": "minTimeMinutes",
                            "type": "uint64"
                        },
                        {
                            "internalType": "string",
                            "name": "properties",
                            "type": "string"
                        },
                        {
                            "internalType": "address",
                            "name": "tcb",
                            "type": "address"
                        },
                        {
                            "internalType": "string",
                            "name": "tlb",
                            "type": "string"
                        },
                        {
                            "internalType": "string",
                            "name": "argsPublicKey",
                            "type": "string"
                        },
                        {
                            "internalType": "string",
                            "name": "argsPublicKeyAlgo",
                            "type": "string"
                        }
                    ],
                    "internalType": "struct TeeOfferInfo",
                    "name": "",
                    "type": "tuple"
                }
            ],
            "stateMutability": "view",
            "type": "function"
        },
        {
            "inputs": [],
            "name": "getLastTcbAddedTime",
            "outputs": [
                {
                    "internalType": "uint256",
                    "name": "",
                    "type": "uint256"
                }
            ],
            "stateMutability": "view",
            "type": "function"
        },
        {
            "inputs": [],
            "name": "getLastTcbReward",
            "outputs": [
                {
                    "internalType": "uint256",
                    "name": "",
                    "type": "uint256"
                }
            ],
            "stateMutability": "view",
            "type": "function"
        },
        {
            "inputs": [],
            "name": "getLastTlbAddedTime",
            "outputs": [
                {
                    "internalType": "uint256",
                    "name": "",
                    "type": "uint256"
                }
            ],
            "stateMutability": "view",
            "type": "function"
        },
        {
            "inputs": [
                {
                    "internalType": "address",
                    "name": "lockedTcb",
                    "type": "address"
                }
            ],
            "name": "getLockInfo",
            "outputs": [
                {
                    "components": [
                        {
                            "internalType": "uint256",
                            "name": "fromDate",
                            "type": "uint256"
                        },
                        {
                            "internalType": "uint256",
                            "name": "toDate",
                            "type": "uint256"
                        },
                        {
                            "internalType": "uint256",
                            "name": "amount",
                            "type": "uint256"
                        }
                    ],
                    "internalType": "struct LockedTokens",
                    "name": "",
                    "type": "tuple"
                }
            ],
            "stateMutability": "view",
            "type": "function"
        },
        {
            "inputs": [],
            "name": "getOfferType",
            "outputs": [
                {
                    "internalType": "enum OfferType",
                    "name": "",
                    "type": "uint8"
                }
            ],
            "stateMutability": "pure",
            "type": "function"
        },
        {
            "inputs": [],
            "name": "getProvider",
            "outputs": [
                {
                    "internalType": "address",
                    "name": "",
                    "type": "address"
                }
            ],
            "stateMutability": "view",
            "type": "function"
        },
        {
            "inputs": [],
            "name": "getTcb",
            "outputs": [
                {
                    "internalType": "address",
                    "name": "",
                    "type": "address"
                }
            ],
            "stateMutability": "view",
            "type": "function"
        },
        {
            "inputs": [],
            "name": "getTlb",
            "outputs": [
                {
                    "internalType": "string",
                    "name": "",
                    "type": "string"
                }
            ],
            "stateMutability": "view",
            "type": "function"
        },
        {
            "inputs": [],
            "name": "getTotalLocked",
            "outputs": [
                {
                    "internalType": "uint256",
                    "name": "",
                    "type": "uint256"
                }
            ],
            "stateMutability": "view",
            "type": "function"
        },
        {
            "inputs": [],
            "name": "getViolationRate",
            "outputs": [
                {
                    "internalType": "uint8",
                    "name": "",
                    "type": "uint8"
                }
            ],
            "stateMutability": "view",
            "type": "function"
        },
        {
            "inputs": [
                {
                    "internalType": "address",
                    "name": "checkedTcb",
                    "type": "address"
                }
            ],
            "name": "hasTcb",
            "outputs": [
                {
                    "internalType": "bool",
                    "name": "",
                    "type": "bool"
                }
            ],
            "stateMutability": "view",
            "type": "function"
        },
        {
            "inputs": [],
            "name": "incrViolationRate",
            "outputs": [],
            "stateMutability": "nonpayable",
            "type": "function"
        },
        {
            "inputs": [
                {
                    "internalType": "address",
                    "name": "",
                    "type": "address"
                }
            ],
            "name": "isAllowedFor",
            "outputs": [
                {
                    "internalType": "bool",
                    "name": "",
                    "type": "bool"
                }
            ],
            "stateMutability": "pure",
            "type": "function"
        },
        {
            "inputs": [],
            "name": "isCancelable",
            "outputs": [
                {
                    "internalType": "bool",
                    "name": "",
                    "type": "bool"
                }
            ],
            "stateMutability": "pure",
            "type": "function"
        },
        {
            "inputs": [],
            "name": "isEnabled",
            "outputs": [
                {
                    "internalType": "bool",
                    "name": "",
                    "type": "bool"
                }
            ],
            "stateMutability": "view",
            "type": "function"
        },
        {
            "inputs": [
                {
                    "internalType": "address",
                    "name": "lockedTcb",
                    "type": "address"
                },
                {
                    "internalType": "uint256",
                    "name": "reward",
                    "type": "uint256"
                }
            ],
            "name": "lock",
            "outputs": [],
            "stateMutability": "nonpayable",
            "type": "function"
        },
        {
            "inputs": [
                {
                    "internalType": "string",
                    "name": "description",
                    "type": "string"
                }
            ],
            "name": "setDescription",
            "outputs": [],
            "stateMutability": "nonpayable",
            "type": "function"
        },
        {
            "inputs": [
                {
                    "internalType": "string",
                    "name": "publicKey",
                    "type": "string"
                },
                {
                    "internalType": "string",
                    "name": "algo",
                    "type": "string"
                }
            ],
            "name": "setKeys",
            "outputs": [],
            "stateMutability": "nonpayable",
            "type": "function"
        },
        {
            "inputs": [
                {
                    "internalType": "string",
                    "name": "name",
                    "type": "string"
                }
            ],
            "name": "setName",
            "outputs": [],
            "stateMutability": "nonpayable",
            "type": "function"
        },
        {
            "inputs": [
                {
                    "internalType": "address",
                    "name": "unlockedTcb",
                    "type": "address"
                },
                {
                    "internalType": "uint256",
                    "name": "reward",
                    "type": "uint256"
                }
            ],
            "name": "unlock",
            "outputs": [],
            "stateMutability": "nonpayable",
            "type": "function"
        }
    ],
    "bytecode": "0x60806040523480156200001157600080fd5b5060405162002dbb38038062002dbb833981016040819052620000349162000383565b6000816060015163ffffffff1611620000835760405162461bcd60e51b815260206004820152600d60248201526c496e76616c696420736c6f747360981b604482015260640160405180910390fd5b600080546001600160a01b0319166001600160a01b038416179055805180518291600291620000ba91839160209091019062000202565b506020828101518051620000d5926001850192019062000202565b5060408201518051620000f391600284019160209091019062000202565b50606082015160038201805460808501516001600160401b0316640100000000026001600160601b031990911663ffffffff9093169290921791909117905560a082015180516200014f91600484019160209091019062000202565b5060c08201516005820180546001600160a01b0319166001600160a01b0390921691909117905560e082015180516200019391600684019160209091019062000202565b506101008201518051620001b291600784019160209091019062000202565b506101208201518051620001d191600884019160209091019062000202565b505060006001555050600b80546001600160a01b0319166001600160a01b03939093169290921790915550620005ef565b82805462000210906200059c565b90600052602060002090601f0160209004810192826200023457600085556200027f565b82601f106200024f57805160ff19168380011785556200027f565b828001600101855582156200027f579182015b828111156200027f57825182559160200191906001019062000262565b506200028d92915062000291565b5090565b5b808211156200028d576000815560010162000292565b80516001600160a01b0381168114620002c057600080fd5b919050565b600082601f830112620002d6578081fd5b81516001600160401b03811115620002f257620002f2620005d9565b602062000308601f8301601f1916820162000569565b82815285828487010111156200031c578384fd5b835b838110156200033b5785810183015182820184015282016200031e565b838111156200034c57848385840101525b5095945050505050565b805163ffffffff81168114620002c057600080fd5b80516001600160401b0381168114620002c057600080fd5b60008060006060848603121562000398578283fd5b620003a384620002a8565b9250620003b360208501620002a8565b60408501519092506001600160401b0380821115620003d0578283fd5b908501906101408288031215620003e5578283fd5b620003ef6200053d565b825182811115620003fe578485fd5b6200040c89828601620002c5565b82525060208301518281111562000421578485fd5b6200042f89828601620002c5565b60208301525060408301518281111562000447578485fd5b6200045589828601620002c5565b604083015250620004696060840162000356565b60608201526200047c608084016200036b565b608082015260a08301518281111562000493578485fd5b620004a189828601620002c5565b60a083015250620004b560c08401620002a8565b60c082015260e083015182811115620004cc578485fd5b620004da89828601620002c5565b60e0830152506101008084015183811115620004f4578586fd5b620005028a828701620002c5565b82840152505061012080840151838111156200051c578586fd5b6200052a8a828701620002c5565b8284015250508093505050509250925092565b60405161014081016001600160401b0381118282101715620005635762000563620005d9565b60405290565b604051601f8201601f191681016001600160401b0381118282101715620005945762000594620005d9565b604052919050565b600181811c90821680620005b157607f821691505b60208210811415620005d357634e487b7160e01b600052602260045260246000fd5b50919050565b634e487b7160e01b600052604160045260246000fd5b6127bc80620005ff6000396000f3fe608060405234801561001057600080fd5b50600436106101da5760003560e01c80637238ccdb11610104578063bab13ee1116100a2578063c47f002711610071578063c47f0027146103e1578063c6f3d61c146103f4578063f12018c314610407578063f4732da61461041b57600080fd5b8063bab13ee1146103ae578063bba610b0146103b6578063bbb5d5f7146103c9578063c422c1b1146103d057600080fd5b80638a35e942116100de5780638a35e9421461037c57806390c3f38f14610384578063a3907d7114610397578063af5372e61461039f57600080fd5b80637238ccdb146103215780637eee288d146103565780638383da751461036957600080fd5b80633f3de01c1161017c5780635a9b0b891161014b5780635a9b0b89146102e55780636aa633b6146102fa5780636d483c84146103025780636d4ce63c1461030a57600080fd5b80633f3de01c1461029b57806344c40677146102b0578063483d45bd146102b857806350252461146102dd57600080fd5b8063282d3fdf116101b8578063282d3fdf1461024057806328e01805146102555780632c413abf146102805780632f2770db1461029357600080fd5b80630c72dc31146101df578063154e1c15146102035780631bffb4911461022d575b600080fd5b600054600160a01b900460ff1660405160ff90911681526020015b60405180910390f35b6007546001600160a01b03166000908152600d60205260409020545b6040519081526020016101fa565b60015b60405190151581526020016101fa565b61025361024e366004612347565b610423565b005b61023061026336600461230f565b6001600160a01b03166000908152600d6020526040902054151590565b61025361028e36600461230f565b610532565b61025361063e565b6102a3610869565b6040516101fa91906125e2565b6102536108fe565b6000546001600160a01b03165b6040516001600160a01b0390911681526020016101fa565b600f5461021f565b6102ed6109af565b6040516101fa91906125f5565b610230610e72565b60015461021f565b610312610e8c565b6040516101fa93929190612608565b61033461032f36600461230f565b611372565b60408051825181526020808401519082015291810151908201526060016101fa565b610253610364366004612347565b6113d8565b61021f610377366004612426565b61161a565b61021f6116c1565b610253610392366004612372565b611838565b61025361198a565b60006040516101fa91906125ba565b610253611b54565b6102536103c43660046123ad565b611bfd565b600061021f565b6007546001600160a01b03166102c5565b6102536103ef366004612372565b611d64565b610253610402366004612372565b611eb2565b61023061041536600461230f565b50600190565b600e5461021f565b600b54610438906001600160a01b0316612063565b6001600160a01b0316336001600160a01b03161461049d5760405162461bcd60e51b815260206004820152601c60248201527f4f6e6c7920617661696c61626c6520666f72205465654f66666572730000000060448201526064015b60405180910390fd5b600b54429060009062015180906104be906001600160a01b031660016120f0565b6104c89190612685565b6104d29042612636565b6001600160a01b0385166000908152600c6020526040812084815560018101839055600281018054939450909286929061050d908490612636565b9250508190555083600e60008282546105269190612636565b90915550505050505050565b600b54610547906001600160a01b0316612063565b6001600160a01b0316336001600160a01b0316146105a75760405162461bcd60e51b815260206004820152601c60248201527f4f6e6c7920617661696c61626c6520666f72205465654f6666657273000000006044820152606401610494565b6000546002600160a01b90910460ff16106105f45760405162461bcd60e51b815260206004820152600d60248201526c13d999995c88189b1bd8dad959609a1b6044820152606401610494565b600780546001600160a01b039092167fffffffffffffffffffffffff0000000000000000000000000000000000000000909216821790556000908152600d60205260409020429055565b60008054906101000a90046001600160a01b03166001600160a01b0316636760c4b76040518163ffffffff1660e01b815260040160206040518083038186803b15801561068a57600080fd5b505afa15801561069e573d6000803e3d6000fd5b505050506040513d601f19601f820116820180604052508101906106c2919061232b565b6001600160a01b0316336001600160a01b03161461072c5760405162461bcd60e51b815260206004820152602160248201527f4f6e6c7920617661696c61626c6520666f7220416374696f6e206163636f756e6044820152601d60fa1b6064820152608401610494565b6000546002600160a01b90910460ff16106107795760405162461bcd60e51b815260206004820152600d60248201526c13d999995c88189b1bd8dad959609a1b6044820152606401610494565b600154156107c95760405162461bcd60e51b815260206004820152601960248201527f4f6666657220697320616c72656164792064697361626c6564000000000000006044820152606401610494565b600b5462015180906107e5906001600160a01b031660046120f0565b6107ef9190612685565b6107f99042612636565b600181905560008054604051639789e32360e01b8152600481019290925260248201929092526001600160a01b0390911690639789e323906044015b600060405180830381600087803b15801561084f57600080fd5b505af1158015610863573d6000803e3d6000fd5b50505050565b60606002600601805461087b906126bb565b80601f01602080910402602001604051908101604052809291908181526020018280546108a7906126bb565b80156108f45780601f106108c9576101008083540402835291602001916108f4565b820191906000526020600020905b8154815290600101906020018083116108d757829003601f168201915b5050505050905090565b600b54610913906001600160a01b0316612063565b6001600160a01b0316336001600160a01b0316146109735760405162461bcd60e51b815260206004820152601c60248201527f4f6e6c7920617661696c61626c6520666f72205465654f6666657273000000006044820152606401610494565b6000600e8190558054604051639789e32360e01b815260048101929092524260248301526001600160a01b031690639789e32390604401610835565b610a1e604051806101400160405280606081526020016060815260200160608152602001600063ffffffff168152602001600067ffffffffffffffff1681526020016060815260200160006001600160a01b031681526020016060815260200160608152602001606081525090565b600260405180610140016040529081600082018054610a3c906126bb565b80601f0160208091040260200160405190810160405280929190818152602001828054610a68906126bb565b8015610ab55780601f10610a8a57610100808354040283529160200191610ab5565b820191906000526020600020905b815481529060010190602001808311610a9857829003601f168201915b50505050508152602001600182018054610ace906126bb565b80601f0160208091040260200160405190810160405280929190818152602001828054610afa906126bb565b8015610b475780601f10610b1c57610100808354040283529160200191610b47565b820191906000526020600020905b815481529060010190602001808311610b2a57829003601f168201915b50505050508152602001600282018054610b60906126bb565b80601f0160208091040260200160405190810160405280929190818152602001828054610b8c906126bb565b8015610bd95780601f10610bae57610100808354040283529160200191610bd9565b820191906000526020600020905b815481529060010190602001808311610bbc57829003601f168201915b5050509183525050600382015463ffffffff81166020830152640100000000900467ffffffffffffffff166040820152600482018054606090920191610c1e906126bb565b80601f0160208091040260200160405190810160405280929190818152602001828054610c4a906126bb565b8015610c975780601f10610c6c57610100808354040283529160200191610c97565b820191906000526020600020905b815481529060010190602001808311610c7a57829003601f168201915b505050918352505060058201546001600160a01b03166020820152600682018054604090920191610cc7906126bb565b80601f0160208091040260200160405190810160405280929190818152602001828054610cf3906126bb565b8015610d405780601f10610d1557610100808354040283529160200191610d40565b820191906000526020600020905b815481529060010190602001808311610d2357829003601f168201915b50505050508152602001600782018054610d59906126bb565b80601f0160208091040260200160405190810160405280929190818152602001828054610d85906126bb565b8015610dd25780601f10610da757610100808354040283529160200191610dd2565b820191906000526020600020905b815481529060010190602001808311610db557829003601f168201915b50505050508152602001600882018054610deb906126bb565b80601f0160208091040260200160405190810160405280929190818152602001828054610e17906126bb565b8015610e645780601f10610e3957610100808354040283529160200191610e64565b820191906000526020600020905b815481529060010190602001808311610e4757829003601f168201915b505050505081525050905090565b600060015460001480610e8757506001544211155b905090565b610efb604051806101400160405280606081526020016060815260200160608152602001600063ffffffff168152602001600067ffffffffffffffff1681526020016060815260200160006001600160a01b031681526020016060815260200160608152602001606081525090565b600080600260008054906101000a90046001600160a01b03166001548260405180610140016040529081600082018054610f34906126bb565b80601f0160208091040260200160405190810160405280929190818152602001828054610f60906126bb565b8015610fad5780601f10610f8257610100808354040283529160200191610fad565b820191906000526020600020905b815481529060010190602001808311610f9057829003601f168201915b50505050508152602001600182018054610fc6906126bb565b80601f0160208091040260200160405190810160405280929190818152602001828054610ff2906126bb565b801561103f5780601f106110145761010080835404028352916020019161103f565b820191906000526020600020905b81548152906001019060200180831161102257829003601f168201915b50505050508152602001600282018054611058906126bb565b80601f0160208091040260200160405190810160405280929190818152602001828054611084906126bb565b80156110d15780601f106110a6576101008083540402835291602001916110d1565b820191906000526020600020905b8154815290600101906020018083116110b457829003601f168201915b5050509183525050600382015463ffffffff81166020830152640100000000900467ffffffffffffffff166040820152600482018054606090920191611116906126bb565b80601f0160208091040260200160405190810160405280929190818152602001828054611142906126bb565b801561118f5780601f106111645761010080835404028352916020019161118f565b820191906000526020600020905b81548152906001019060200180831161117257829003601f168201915b505050918352505060058201546001600160a01b031660208201526006820180546040909201916111bf906126bb565b80601f01602080910402602001604051908101604052809291908181526020018280546111eb906126bb565b80156112385780601f1061120d57610100808354040283529160200191611238565b820191906000526020600020905b81548152906001019060200180831161121b57829003601f168201915b50505050508152602001600782018054611251906126bb565b80601f016020809104026020016040519081016040528092919081815260200182805461127d906126bb565b80156112ca5780601f1061129f576101008083540402835291602001916112ca565b820191906000526020600020905b8154815290600101906020018083116112ad57829003601f168201915b505050505081526020016008820180546112e3906126bb565b80601f016020809104026020016040519081016040528092919081815260200182805461130f906126bb565b801561135c5780601f106113315761010080835404028352916020019161135c565b820191906000526020600020905b81548152906001019060200180831161133f57829003601f168201915b5050505050815250509250925092509250909192565b61139660405180606001604052806000815260200160008152602001600081525090565b506001600160a01b03166000908152600c6020908152604091829020825160608101845281548152600182015492810192909252600201549181019190915290565b600b546113ed906001600160a01b0316612063565b6001600160a01b0316336001600160a01b03161461144d5760405162461bcd60e51b815260206004820152601c60248201527f4f6e6c7920617661696c61626c6520666f72205465654f6666657273000000006044820152606401610494565b6000546002600160a01b90910460ff161061149a5760405162461bcd60e51b815260206004820152600d60248201526c13d999995c88189b1bd8dad959609a1b6044820152606401610494565b6001600160a01b0382166000908152600c60205260409020600e54158015906114c957508060020154600e5410155b61153b5760405162461bcd60e51b815260206004820152602c60248201527f52657761726420666f7220746869732054434220636f6e66697363617465642060448201527f627920436f6e73656e73757300000000000000000000000000000000000000006064820152608401610494565b806002015482111561158f5760405162461bcd60e51b815260206004820152601860248201527f4e6f7420656e6f756768206c6f636b656420746f6b656e7300000000000000006044820152606401610494565b42816001015411156115e35760405162461bcd60e51b815260206004820152601460248201527f546f6f206561726c7920666f7220756e6c6f636b0000000000000000000000006044820152606401610494565b818160020160008282546115f791906126a4565b9250508190555081600e600082825461161091906126a4565b9091555050505050565b60008061162784426126a4565b90506000611636603c8361264e565b600554909150640100000000900467ffffffffffffffff1681101561166c5750600554640100000000900467ffffffffffffffff165b60055460009063ffffffff166116806116c1565b61168a919061264e565b9050600061169c603c62015180612662565b63ffffffff166116ac8385612685565b6116b6919061264e565b979650505050505050565b6007546000906001600160a01b03166116da5750600090565b600b546116ef906001600160a01b031661217d565b6007546040517fb8ac86420000000000000000000000000000000000000000000000000000000081526001600160a01b03918216600482015291169063b8ac86429060240160206040518083038186803b15801561174c57600080fd5b505afa158015611760573d6000803e3d6000fd5b505050506040513d601f19601f82011682018060405250810190611784919061240e565b600b54611799906001600160a01b031661217d565b6007546040517fc00007b00000000000000000000000000000000000000000000000000000000081526001600160a01b03918216600482015291169063c00007b09060240160206040518083038186803b1580156117f657600080fd5b505afa15801561180a573d6000803e3d6000fd5b505050506040513d601f19601f8201168201806040525081019061182e919061240e565b610e879190612636565b60008054906101000a90046001600160a01b03166001600160a01b0316636760c4b76040518163ffffffff1660e01b815260040160206040518083038186803b15801561188457600080fd5b505afa158015611898573d6000803e3d6000fd5b505050506040513d601f19601f820116820180604052508101906118bc919061232b565b6001600160a01b0316336001600160a01b0316146119265760405162461bcd60e51b815260206004820152602160248201527f4f6e6c7920617661696c61626c6520666f7220416374696f6e206163636f756e6044820152601d60fa1b6064820152608401610494565b6000546002600160a01b90910460ff16106119735760405162461bcd60e51b815260206004820152600d60248201526c13d999995c88189b1bd8dad959609a1b6044820152606401610494565b80516119869060039060208401906121ef565b5050565b60008054906101000a90046001600160a01b03166001600160a01b0316636760c4b76040518163ffffffff1660e01b815260040160206040518083038186803b1580156119d657600080fd5b505afa1580156119ea573d6000803e3d6000fd5b505050506040513d601f19601f82011682018060405250810190611a0e919061232b565b6001600160a01b0316336001600160a01b031614611a785760405162461bcd60e51b815260206004820152602160248201527f4f6e6c7920617661696c61626c6520666f7220416374696f6e206163636f756e6044820152601d60fa1b6064820152608401610494565b6000546002600160a01b90910460ff1610611ac55760405162461bcd60e51b815260206004820152600d60248201526c13d999995c88189b1bd8dad959609a1b6044820152606401610494565b600154611b145760405162461bcd60e51b815260206004820152601860248201527f4f6666657220697320616c726561647920656e61626c656400000000000000006044820152606401610494565b600060018181558154604051639789e32360e01b8152600481019290925260248201929092526001600160a01b0390911690639789e32390604401610835565b600b54611b69906001600160a01b0316612063565b6001600160a01b0316336001600160a01b031614611bc95760405162461bcd60e51b815260206004820152601c60248201527f4f6e6c7920617661696c61626c6520666f72205465654f6666657273000000006044820152606401610494565b60008054601490611be390600160a01b900460ff166126f6565b91906101000a81548160ff021916908360ff160217905550565b60008054906101000a90046001600160a01b03166001600160a01b0316636760c4b76040518163ffffffff1660e01b815260040160206040518083038186803b158015611c4957600080fd5b505afa158015611c5d573d6000803e3d6000fd5b505050506040513d601f19601f82011682018060405250810190611c81919061232b565b6001600160a01b0316336001600160a01b031614611ceb5760405162461bcd60e51b815260206004820152602160248201527f4f6e6c7920617661696c61626c6520666f7220416374696f6e206163636f756e6044820152601d60fa1b6064820152608401610494565b6000546002600160a01b90910460ff1610611d385760405162461bcd60e51b815260206004820152600d60248201526c13d999995c88189b1bd8dad959609a1b6044820152606401610494565b8151611d4b9060099060208501906121ef565b508051611d5f90600a9060208401906121ef565b505050565b60008054906101000a90046001600160a01b03166001600160a01b0316636760c4b76040518163ffffffff1660e01b815260040160206040518083038186803b158015611db057600080fd5b505afa158015611dc4573d6000803e3d6000fd5b505050506040513d601f19601f82011682018060405250810190611de8919061232b565b6001600160a01b0316336001600160a01b031614611e525760405162461bcd60e51b815260206004820152602160248201527f4f6e6c7920617661696c61626c6520666f7220416374696f6e206163636f756e6044820152601d60fa1b6064820152608401610494565b6000546002600160a01b90910460ff1610611e9f5760405162461bcd60e51b815260206004820152600d60248201526c13d999995c88189b1bd8dad959609a1b6044820152606401610494565b80516119869060029060208401906121ef565b60008054906101000a90046001600160a01b03166001600160a01b0316636760c4b76040518163ffffffff1660e01b815260040160206040518083038186803b158015611efe57600080fd5b505afa158015611f12573d6000803e3d6000fd5b505050506040513d601f19601f82011682018060405250810190611f36919061232b565b6001600160a01b0316336001600160a01b031614611fa05760405162461bcd60e51b815260206004820152602160248201527f4f6e6c7920617661696c61626c6520666f7220416374696f6e206163636f756e6044820152601d60fa1b6064820152608401610494565b6000546002600160a01b90910460ff1610611fed5760405162461bcd60e51b815260206004820152600d60248201526c13d999995c88189b1bd8dad959609a1b6044820152606401610494565b42600f5462015180611fff9190612636565b1061204c5760405162461bcd60e51b815260206004820152601460248201527f417661696c61626c65206f6e63652061206461790000000000000000000000006044820152606401610494565b42600f5580516119869060089060208401906121ef565b600061206e826121b4565b6001600160a01b031663bcaa0c5560046040518263ffffffff1660e01b815260040161209a91906125a0565b60206040518083038186803b1580156120b257600080fd5b505afa1580156120c6573d6000803e3d6000fd5b505050506040513d601f19601f820116820180604052508101906120ea919061232b565b92915050565b60006120fb836121b4565b6001600160a01b03166303a2216d836040518263ffffffff1660e01b815260040161212691906125ce565b60206040518083038186803b15801561213e57600080fd5b505afa158015612152573d6000803e3d6000fd5b505050506040513d601f19601f82011682018060405250810190612176919061240e565b9392505050565b6000612188826121b4565b6001600160a01b031663bcaa0c55600b6040518263ffffffff1660e01b815260040161209a91906125a0565b6000816001600160a01b031663f1f0bd016040518163ffffffff1660e01b815260040160206040518083038186803b1580156120b257600080fd5b8280546121fb906126bb565b90600052602060002090601f01602090048101928261221d5760008555612263565b82601f1061223657805160ff1916838001178555612263565b82800160010185558215612263579182015b82811115612263578251825591602001919060010190612248565b5061226f929150612273565b5090565b5b8082111561226f5760008155600101612274565b600082601f830112612298578081fd5b813567ffffffffffffffff808211156122b3576122b3612758565b604051601f8301601f19908116603f011681019082821181831017156122db576122db612758565b816040528381528660208588010111156122f3578485fd5b8360208701602083013792830160200193909352509392505050565b600060208284031215612320578081fd5b81356121768161276e565b60006020828403121561233c578081fd5b81516121768161276e565b60008060408385031215612359578081fd5b82356123648161276e565b946020939093013593505050565b600060208284031215612383578081fd5b813567ffffffffffffffff811115612399578182fd5b6123a584828501612288565b949350505050565b600080604083850312156123bf578182fd5b823567ffffffffffffffff808211156123d6578384fd5b6123e286838701612288565b935060208501359150808211156123f7578283fd5b5061240485828601612288565b9150509250929050565b60006020828403121561241f578081fd5b5051919050565b60008060408385031215612438578182fd5b50508035926020909101359150565b60008151808452815b8181101561246c57602081850181015186830182015201612450565b8181111561247d5782602083870101525b50601f01601f19169290920160200192915050565b600061014082518185526124a882860182612447565b915050602083015184820360208601526124c28282612447565b915050604083015184820360408601526124dc8282612447565b91505060608301516124f6606086018263ffffffff169052565b506080830151612512608086018267ffffffffffffffff169052565b5060a083015184820360a086015261252a8282612447565b91505060c083015161254760c08601826001600160a01b03169052565b5060e083015184820360e086015261255f8282612447565b915050610100808401518583038287015261257a8382612447565b9250505061012080840151858303828701526125968382612447565b9695505050505050565b60208101600c83106125b4576125b4612742565b91905290565b60208101600483106125b4576125b4612742565b60208101601183106125b4576125b4612742565b6020815260006121766020830184612447565b6020815260006121766020830184612492565b60608152600061261b6060830186612492565b6001600160a01b039490941660208301525060400152919050565b6000821982111561264957612649612716565b500190565b60008261265d5761265d61272c565b500490565b600063ffffffff808416806126795761267961272c565b92169190910492915050565b600081600019048311821515161561269f5761269f612716565b500290565b6000828210156126b6576126b6612716565b500390565b600181811c908216806126cf57607f821691505b602082108114156126f057634e487b7160e01b600052602260045260246000fd5b50919050565b600060ff821660ff81141561270d5761270d612716565b60010192915050565b634e487b7160e01b600052601160045260246000fd5b634e487b7160e01b600052601260045260246000fd5b634e487b7160e01b600052602160045260246000fd5b634e487b7160e01b600052604160045260246000fd5b6001600160a01b038116811461278357600080fd5b5056fea264697066735822122070bf13eb865e5246ee5caaec6b15f8015b9fecc7d5bb26cbc5261aceb55b1ef464736f6c63430008040033",
    "linkReferences": {},
    "deployedLinkReferences": {}
}