{
  "_format": "hh-sol-artifact-1",
  "contractName": "TeeOffersFactory",
  "sourceName": "contracts/TeeOffersFactory.sol",
  "abi": [
    {
      "inputs": [
        {
          "internalType": "address",
          "name": "_SPConfig",
          "type": "address"
        }
      ],
      "stateMutability": "nonpayable",
      "type": "constructor"
    },
    {
      "anonymous": false,
      "inputs": [
        {
          "indexed": false,
          "internalType": "address",
          "name": "teeOffer",
          "type": "address"
        }
      ],
      "name": "TeeOfferCreated",
      "type": "event"
    },
    {
      "inputs": [
        {
          "internalType": "address",
          "name": "tcb",
          "type": "address"
        }
      ],
      "name": "addTcb",
      "outputs": [],
      "stateMutability": "nonpayable",
      "type": "function"
    },
    {
      "inputs": [
        {
          "internalType": "address",
          "name": "tcb",
          "type": "address"
        }
      ],
      "name": "calcPenalty",
      "outputs": [
        {
          "internalType": "uint256",
          "name": "",
          "type": "uint256"
        }
      ],
      "stateMutability": "view",
      "type": "function"
    },
    {
      "inputs": [
        {
          "internalType": "address",
          "name": "tcb",
          "type": "address"
        }
      ],
      "name": "checkTcb",
      "outputs": [
        {
          "internalType": "bool",
          "name": "",
          "type": "bool"
        }
      ],
      "stateMutability": "view",
      "type": "function"
    },
    {
      "inputs": [
        {
          "internalType": "address",
          "name": "tcb",
          "type": "address"
        }
      ],
      "name": "confiscateAll",
      "outputs": [],
      "stateMutability": "nonpayable",
      "type": "function"
    },
    {
      "inputs": [
        {
          "internalType": "address",
          "name": "providerAuth",
          "type": "address"
        },
        {
          "components": [
            {
              "internalType": "string",
              "name": "name",
              "type": "string"
            },
            {
              "internalType": "string",
              "name": "description",
              "type": "string"
            },
            {
              "internalType": "string",
              "name": "teeType",
              "type": "string"
            },
            {
              "internalType": "uint32",
              "name": "slots",
              "type": "uint32"
            },
            {
              "internalType": "uint64",
              "name": "minTimeMinutes",
              "type": "uint64"
            },
            {
              "internalType": "string",
              "name": "properties",
              "type": "string"
            },
            {
              "internalType": "string",
              "name": "tcb",
              "type": "string"
            }
          ],
          "internalType": "struct TeeOfferInfo",
          "name": "info",
          "type": "tuple"
        }
      ],
      "name": "create",
      "outputs": [
        {
          "internalType": "address",
          "name": "",
          "type": "address"
        }
      ],
      "stateMutability": "nonpayable",
      "type": "function"
    },
    {
      "inputs": [
        {
          "internalType": "address",
          "name": "offer",
          "type": "address"
        }
      ],
      "name": "getOffersProvider",
      "outputs": [
        {
          "internalType": "address",
          "name": "",
          "type": "address"
        }
      ],
      "stateMutability": "view",
      "type": "function"
    },
    {
      "inputs": [],
      "name": "listAll",
      "outputs": [
        {
          "internalType": "address[]",
          "name": "",
          "type": "address[]"
        }
      ],
      "stateMutability": "view",
      "type": "function"
    },
    {
      "inputs": [
        {
          "internalType": "address",
          "name": "tcb",
          "type": "address"
        },
        {
          "internalType": "uint256",
          "name": "reward",
          "type": "uint256"
        }
      ],
      "name": "lockTcbReward",
      "outputs": [],
      "stateMutability": "nonpayable",
      "type": "function"
    },
    {
      "inputs": [
        {
          "internalType": "address",
          "name": "tcb",
          "type": "address"
        },
        {
          "internalType": "uint256",
          "name": "amount",
          "type": "uint256"
        }
      ],
      "name": "unlockTcbReward",
      "outputs": [],
      "stateMutability": "nonpayable",
      "type": "function"
    }
  ],
  "bytecode": "0x60806040523480156200001157600080fd5b5060405162004b0f38038062004b0f83398101604081905262000034916200005a565b600080546001600160a01b0319166001600160a01b03929092169190911790556200008a565b6000602082840312156200006c578081fd5b81516001600160a01b038116811462000083578182fd5b9392505050565b614a75806200009a6000396000f3fe60806040523480156200001157600080fd5b5060043610620000b05760003560e01c806378a9eeed116200007f578063d692851b1162000062578063d692851b1462000198578063e055530714620001af578063fa4e04a614620001c657600080fd5b806378a9eeed146200016857806394ea496a146200018157600080fd5b8063165dee3f14620000b55780632c413abf146200010157806336afedef146200011a5780633c0a8cc61462000142575b600080fd5b620000e4620000c636600462001ff5565b6001600160a01b039081166000908152600760205260409020541690565b6040516001600160a01b0390911681526020015b60405180910390f35b620001186200011236600462001ff5565b620001dd565b005b620001316200012b36600462001ff5565b620004ab565b6040519015158152602001620000f8565b620001596200015336600462001ff5565b620005e9565b604051908152602001620000f8565b6200017262000a5b565b604051620000f8919062002475565b620000e4620001923660046200203a565b62000abf565b62000118620001a936600462001ff5565b62001034565b62000118620001c036600462002180565b620014e8565b62000118620001d736600462002180565b6200194d565b620001e762001c4e565b60005460405163bcaa0c5560e01b81526001600160a01b039091169063bcaa0c55906200021a90600890600401620024c4565b60206040518083038186803b1580156200023357600080fd5b505afa15801562000248573d6000803e3d6000fd5b505050506040513d601f19601f820116820180604052508101906200026e91906200201b565b6001600160a01b0316336001600160a01b031614620002d45760405162461bcd60e51b815260206004820152601c60248201527f417661696c61626c65206f6e6c7920666f7220436f6e73656e7375730000000060448201526064015b60405180910390fd5b60008190506000816001600160a01b031663182c3dfd6040518163ffffffff1660e01b815260040160006040518083038186803b1580156200031557600080fd5b505afa1580156200032a573d6000803e3d6000fd5b505050506040513d6000823e601f3d908101601f191682016040526200035491908101906200222f565b6020808201516000908152600690915260409020549091506001600160a01b03168015806200038f575081516001600160a01b038281169116145b620004035760405162461bcd60e51b815260206004820152602a60248201527f54686572652063616e206265206f6e6c79206f6e652064657669636520666f7260448201527f206f6e65206f66666572000000000000000000000000000000000000000000006064820152608401620002cb565b81516020808401516000908152600690915260409081902080546001600160a01b0319166001600160a01b03938416179055835190517f2c413abf0000000000000000000000000000000000000000000000000000000081528683166004820152911690632c413abf906024015b600060405180830381600087803b1580156200048c57600080fd5b505af1158015620004a1573d6000803e3d6000fd5b5050505050505050565b600080826001600160a01b031663182c3dfd6040518163ffffffff1660e01b815260040160006040518083038186803b158015620004e857600080fd5b505afa158015620004fd573d6000803e3d6000fd5b505050506040513d6000823e601f3d908101601f191682016040526200052791908101906200222f565b516001600160a01b03808216600081815260076020526040908190205490517f28e0180500000000000000000000000000000000000000000000000000000000815287841660048201529394509091161515916328e018059060240160206040518083038186803b1580156200059c57600080fd5b505afa158015620005b1573d6000803e3d6000fd5b505050506040513d601f19601f82011682018060405250810190620005d79190620021ae565b8015620005e15750805b949350505050565b60008054604080517ff1f0bd01000000000000000000000000000000000000000000000000000000008152905183926001600160a01b03169163f1f0bd01916004808301926020929190829003018186803b1580156200064857600080fd5b505afa1580156200065d573d6000803e3d6000fd5b505050506040513d601f19601f820116820180604052508101906200068391906200201b565b90506000816001600160a01b031663bcaa0c55600b6040518263ffffffff1660e01b8152600401620006b69190620024c4565b60206040518083038186803b158015620006cf57600080fd5b505afa158015620006e4573d6000803e3d6000fd5b505050506040513d601f19601f820116820180604052508101906200070a91906200201b565b90506000826001600160a01b031663bcaa0c5560026040518263ffffffff1660e01b81526004016200073d9190620024c4565b60206040518083038186803b1580156200075657600080fd5b505afa1580156200076b573d6000803e3d6000fd5b505050506040513d601f19601f820116820180604052508101906200079191906200201b565b905060008590506000816001600160a01b031663182c3dfd6040518163ffffffff1660e01b815260040160006040518083038186803b158015620007d457600080fd5b505afa158015620007e9573d6000803e3d6000fd5b505050506040513d6000823e601f3d908101601f191682016040526200081391908101906200222f565b6000015190506000816001600160a01b031663483d45bd6040518163ffffffff1660e01b815260040160206040518083038186803b1580156200085557600080fd5b505afa1580156200086a573d6000803e3d6000fd5b505050506040513d601f19601f820116820180604052508101906200089091906200201b565b90506000816001600160a01b031663085710116040518163ffffffff1660e01b815260040160206040518083038186803b158015620008ce57600080fd5b505afa158015620008e3573d6000803e3d6000fd5b505050506040513d601f19601f820116820180604052508101906200090991906200201b565b6040517fc00007b00000000000000000000000000000000000000000000000000000000081526001600160a01b038b8116600483015291925060009188169063c00007b09060240160206040518083038186803b1580156200096a57600080fd5b505afa1580156200097f573d6000803e3d6000fd5b505050506040513d601f19601f82011682018060405250810190620009a5919062002307565b90506000866001600160a01b0316634bfb1e7a8460016040518363ffffffff1660e01b8152600401620009da92919062002456565b60606040518083038186803b158015620009f357600080fd5b505afa15801562000a08573d6000803e3d6000fd5b505050506040513d601f19601f8201168201806040525081019062000a2e9190620021d0565b905060008160400151831062000a4957816040015162000a4b565b825b9c9b505050505050505050505050565b6060600580548060200260200160405190810160405280929190818152602001828054801562000ab557602002820191906000526020600020905b81546001600160a01b0316815260019091019060200180831162000a96575b5050505050905090565b600062000acb62001c4e565b6001546040517fc2bc2efc0000000000000000000000000000000000000000000000000000000081526001600160a01b038581166004830152600092169063c2bc2efc9060240160206040518083038186803b15801562000b2b57600080fd5b505afa15801562000b40573d6000803e3d6000fd5b505050506040513d601f19601f8201168201806040525081019062000b6691906200201b565b9050806001600160a01b0316631b71d85f6040518163ffffffff1660e01b8152600401600060405180830381600087803b15801562000ba457600080fd5b505af115801562000bb9573d6000803e3d6000fd5b5050600080546040517f03a2216d0000000000000000000000000000000000000000000000000000000081529193506001600160a01b031691506303a2216d9062000c0a90600590600401620024d4565b60206040518083038186803b15801562000c2357600080fd5b505afa15801562000c38573d6000803e3d6000fd5b505050506040513d601f19601f8201168201806040525081019062000c5e919062002307565b6001546040517fb00e3c240000000000000000000000000000000000000000000000000000000081526001600160a01b0388811660048301529293506000929091169063b00e3c249060240160206040518083038186803b15801562000cc357600080fd5b505afa15801562000cd8573d6000803e3d6000fd5b505050506040513d601f19601f8201168201806040525081019062000cfe919062002307565b6040517fcf06217c000000000000000000000000000000000000000000000000000000008152600481018490529091506000906001600160a01b0385169063cf06217c9060240160206040518083038186803b15801562000d5e57600080fd5b505afa15801562000d73573d6000803e3d6000fd5b505050506040513d601f19601f8201168201806040525081019062000d99919062002307565b9050336001600160a01b0316846001600160a01b0316636760c4b76040518163ffffffff1660e01b815260040160206040518083038186803b15801562000ddf57600080fd5b505afa15801562000df4573d6000803e3d6000fd5b505050506040513d601f19601f8201168201806040525081019062000e1a91906200201b565b6001600160a01b03161462000e725760405162461bcd60e51b815260206004820152600d60248201527f4163636573732064656e696564000000000000000000000000000000000000006044820152606401620002cb565b8082101562000ec45760405162461bcd60e51b815260206004820152601d60248201527f5365637572697479206465706f73697420697320746f6f20736d616c6c0000006044820152606401620002cb565b600080546040516001600160a01b03909116908690899062000ee69062001f5d565b62000ef49392919062002365565b604051809103906000f08015801562000f11573d6000803e3d6000fd5b506001600160a01b0381811660008181526007602052604080822080546001600160a01b03199081168f8716179091556005805460018101825593527f036b6384b5eca791c62761152d0c79bb0604c104a5fb6f4eb0703f3154bb3db090920180549092168317909155517fa553269b000000000000000000000000000000000000000000000000000000008152600481019190915291925086169063a553269b90602401600060405180830381600087803b15801562000fd157600080fd5b505af115801562000fe6573d6000803e3d6000fd5b50506040516001600160a01b03841681527f4918fbfe7b2dd77341ba9a051a159bcca59437e8840b4718d4b0dd13d8175f369250602001905060405180910390a19450505050505b92915050565b6200103e62001c4e565b60005460405163bcaa0c5560e01b81526001600160a01b039091169063bcaa0c55906200107190600890600401620024c4565b60206040518083038186803b1580156200108a57600080fd5b505afa1580156200109f573d6000803e3d6000fd5b505050506040513d601f19601f82011682018060405250810190620010c591906200201b565b6001600160a01b0316336001600160a01b031614620011275760405162461bcd60e51b815260206004820152601c60248201527f417661696c61626c65206f6e6c7920666f7220436f6e73656e737573000000006044820152606401620002cb565b6000816001600160a01b031663182c3dfd6040518163ffffffff1660e01b815260040160006040518083038186803b1580156200116357600080fd5b505afa15801562001178573d6000803e3d6000fd5b505050506040513d6000823e601f3d908101601f19168201604052620011a291908101906200222f565b6000015190506000816001600160a01b031663f4732da66040518163ffffffff1660e01b815260040160206040518083038186803b158015620011e457600080fd5b505afa158015620011f9573d6000803e3d6000fd5b505050506040513d601f19601f820116820180604052508101906200121f919062002307565b90506000826001600160a01b031663483d45bd6040518163ffffffff1660e01b815260040160206040518083038186803b1580156200125d57600080fd5b505afa15801562001272573d6000803e3d6000fd5b505050506040513d601f19601f820116820180604052508101906200129891906200201b565b6001600160a01b0316636d69a3e86040518163ffffffff1660e01b815260040160206040518083038186803b158015620012d157600080fd5b505afa158015620012e6573d6000803e3d6000fd5b505050506040513d601f19601f820116820180604052508101906200130c91906200201b565b6002546040517f4bfb1e7a0000000000000000000000000000000000000000000000000000000081529192506000916001600160a01b0390911690634bfb1e7a906200135f908590600490810162002456565b60606040518083038186803b1580156200137857600080fd5b505afa1580156200138d573d6000803e3d6000fd5b505050506040513d601f19601f82011682018060405250810190620013b39190620021d0565b905082816040015110156200140b5760405162461bcd60e51b815260206004820152601860248201527f4e6f7420656e6f756768206c6f636b656420746f6b656e7300000000000000006044820152606401620002cb565b6002546040517f183147030000000000000000000000000000000000000000000000000000000081526001600160a01b0384811660048301526024820186905290911690631831470390604401600060405180830381600087803b1580156200147357600080fd5b505af115801562001488573d6000803e3d6000fd5b50505050836001600160a01b031663c439c0456040518163ffffffff1660e01b8152600401600060405180830381600087803b158015620014c857600080fd5b505af1158015620014dd573d6000803e3d6000fd5b505050505050505050565b620014f262001c4e565b60005460405163bcaa0c5560e01b81526001600160a01b039091169063bcaa0c55906200152590600890600401620024c4565b60206040518083038186803b1580156200153e57600080fd5b505afa15801562001553573d6000803e3d6000fd5b505050506040513d601f19601f820116820180604052508101906200157991906200201b565b6001600160a01b0316336001600160a01b031614620015db5760405162461bcd60e51b815260206004820152601c60248201527f417661696c61626c65206f6e6c7920666f7220436f6e73656e737573000000006044820152606401620002cb565b6000826001600160a01b031663182c3dfd6040518163ffffffff1660e01b815260040160006040518083038186803b1580156200161757600080fd5b505afa1580156200162c573d6000803e3d6000fd5b505050506040513d6000823e601f3d908101601f191682016040526200165691908101906200222f565b6000015190506000816001600160a01b031663483d45bd6040518163ffffffff1660e01b815260040160206040518083038186803b1580156200169857600080fd5b505afa158015620016ad573d6000803e3d6000fd5b505050506040513d601f19601f82011682018060405250810190620016d391906200201b565b6001600160a01b0316636d69a3e86040518163ffffffff1660e01b815260040160206040518083038186803b1580156200170c57600080fd5b505afa15801562001721573d6000803e3d6000fd5b505050506040513d601f19601f820116820180604052508101906200174791906200201b565b600480546002546040517f095ea7b30000000000000000000000000000000000000000000000000000000081526001600160a01b039182169381019390935260248301879052929350919091169063095ea7b390604401602060405180830381600087803b158015620017b957600080fd5b505af1158015620017ce573d6000803e3d6000fd5b505050506040513d601f19601f82011682018060405250810190620017f49190620021ae565b506002546040517f2ee409080000000000000000000000000000000000000000000000000000000081526001600160a01b0383811660048301526024820186905290911690632ee4090890604401600060405180830381600087803b1580156200185d57600080fd5b505af115801562001872573d6000803e3d6000fd5b50506002546040517fe2ab691d0000000000000000000000000000000000000000000000000000000081526001600160a01b0385811660048301526024820188905260006044830152909116925063e2ab691d9150606401600060405180830381600087803b158015620018e557600080fd5b505af1158015620018fa573d6000803e3d6000fd5b50506040517f282d3fdf0000000000000000000000000000000000000000000000000000000081526001600160a01b038781166004830152602482018790528516925063282d3fdf915060440162000471565b6200195762001c4e565b60005460405163bcaa0c5560e01b81526001600160a01b039091169063bcaa0c55906200198a90600890600401620024c4565b60206040518083038186803b158015620019a357600080fd5b505afa158015620019b8573d6000803e3d6000fd5b505050506040513d601f19601f82011682018060405250810190620019de91906200201b565b6001600160a01b0316336001600160a01b03161462001a405760405162461bcd60e51b815260206004820152601c60248201527f417661696c61626c65206f6e6c7920666f7220436f6e73656e737573000000006044820152606401620002cb565b6000826001600160a01b031663182c3dfd6040518163ffffffff1660e01b815260040160006040518083038186803b15801562001a7c57600080fd5b505afa15801562001a91573d6000803e3d6000fd5b505050506040513d6000823e601f3d908101601f1916820160405262001abb91908101906200222f565b6000015190506000816001600160a01b031663483d45bd6040518163ffffffff1660e01b815260040160206040518083038186803b15801562001afd57600080fd5b505afa15801562001b12573d6000803e3d6000fd5b505050506040513d601f19601f8201168201806040525081019062001b3891906200201b565b6001600160a01b0316636d69a3e86040518163ffffffff1660e01b815260040160206040518083038186803b15801562001b7157600080fd5b505afa15801562001b86573d6000803e3d6000fd5b505050506040513d601f19601f8201168201806040525081019062001bac91906200201b565b604051637eee288d60e01b81526001600160a01b0386811660048301526024820186905291925090831690637eee288d90604401600060405180830381600087803b15801562001bfb57600080fd5b505af115801562001c10573d6000803e3d6000fd5b5050600254604051637eee288d60e01b81526001600160a01b038581166004830152602482018890529091169250637eee288d915060440162000471565b60008054906101000a90046001600160a01b03166001600160a01b031663f1f0bd016040518163ffffffff1660e01b815260040160206040518083038186803b15801562001c9b57600080fd5b505afa15801562001cb0573d6000803e3d6000fd5b505050506040513d601f19601f8201168201806040525081019062001cd691906200201b565b600080546001600160a01b0319166001600160a01b0392909216918217905560405163bcaa0c5560e01b815263bcaa0c559062001d1990600190600401620024c4565b60206040518083038186803b15801562001d3257600080fd5b505afa15801562001d47573d6000803e3d6000fd5b505050506040513d601f19601f8201168201806040525081019062001d6d91906200201b565b600180546001600160a01b0319166001600160a01b0392831617905560005460405163bcaa0c5560e01b815291169063bcaa0c559062001db390600290600401620024c4565b60206040518083038186803b15801562001dcc57600080fd5b505afa15801562001de1573d6000803e3d6000fd5b505050506040513d601f19601f8201168201806040525081019062001e0791906200201b565b600280546001600160a01b0319166001600160a01b0392831617905560005460405163bcaa0c5560e01b815291169063bcaa0c559062001e4d90600b90600401620024c4565b60206040518083038186803b15801562001e6657600080fd5b505afa15801562001e7b573d6000803e3d6000fd5b505050506040513d601f19601f8201168201806040525081019062001ea191906200201b565b600380546001600160a01b0319166001600160a01b0392831617905560005460405163bcaa0c5560e01b815291169063bcaa0c559062001ee790600590600401620024c4565b60206040518083038186803b15801562001f0057600080fd5b505afa15801562001f15573d6000803e3d6000fd5b505050506040513d601f19601f8201168201806040525081019062001f3b91906200201b565b600480546001600160a01b0319166001600160a01b0392909216919091179055565b612425806200261b83390190565b600082601f83011262001f7c578081fd5b813562001f9362001f8d8262002577565b62002543565b81815284602083860101111562001fa8578283fd5b816020850160208301379081016020019190915292915050565b803563ffffffff8116811462001fd757600080fd5b919050565b803567ffffffffffffffff8116811462001fd757600080fd5b60006020828403121562002007578081fd5b8135620020148162002601565b9392505050565b6000602082840312156200202d578081fd5b8151620020148162002601565b600080604083850312156200204d578081fd5b82356200205a8162002601565b9150602083013567ffffffffffffffff8082111562002077578283fd5b9084019060e082870312156200208b578283fd5b62002095620024f1565b823582811115620020a4578485fd5b620020b28882860162001f6b565b825250602083013582811115620020c7578485fd5b620020d58882860162001f6b565b602083015250604083013582811115620020ed578485fd5b620020fb8882860162001f6b565b6040830152506200210f6060840162001fc2565b6060820152620021226080840162001fdc565b608082015260a08301358281111562002139578485fd5b620021478882860162001f6b565b60a08301525060c0830135828111156200215f578485fd5b6200216d8882860162001f6b565b60c0830152508093505050509250929050565b6000806040838503121562002193578182fd5b8235620021a08162002601565b946020939093013593505050565b600060208284031215620021c0578081fd5b8151801515811462002014578182fd5b600060608284031215620021e2578081fd5b6040516060810181811067ffffffffffffffff82111715620022085762002208620025eb565b80604052508251815260208301516020820152604083015160408201528091505092915050565b6000602080838503121562002242578182fd5b825167ffffffffffffffff808211156200225a578384fd5b90840190608082870312156200226e578384fd5b620022786200251d565b8251620022858162002601565b8152828401518482015260408084015190820152606083015182811115620022ab578586fd5b80840193505086601f840112620022c0578485fd5b82519150620022d362001f8d8362002577565b8281528785848601011115620022e7578586fd5b620022f883868301878701620025a2565b60608201529695505050505050565b60006020828403121562002319578081fd5b5051919050565b600c8110620023335762002333620025d5565b9052565b6000815180845262002351816020860160208601620025a2565b601f01601f19169290920160200192915050565b60006001600160a01b03808616835280851660208401525060606040830152825160e060608401526200239d61014084018262002337565b90506020840151605f1980858403016080860152620023bd838362002337565b925060408601519150808584030160a0860152620023dc838362002337565b925063ffffffff60608701511660c0860152608086015191506200240c60e086018367ffffffffffffffff169052565b60a0860151915080858403016101008601526200242a838362002337565b925060c086015191508085840301610120860152506200244b828262002337565b979650505050505050565b6001600160a01b03831681526040810162002014602083018462002320565b6020808252825182820181905260009190848201906040850190845b81811015620024b85783516001600160a01b03168352928401929184019160010162002491565b50909695505050505050565b602081016200102e828462002320565b6020810160118310620024eb57620024eb620025d5565b91905290565b60405160e0810167ffffffffffffffff81118282101715620025175762002517620025eb565b60405290565b6040516080810167ffffffffffffffff81118282101715620025175762002517620025eb565b604051601f8201601f1916810167ffffffffffffffff811182821017156200256f576200256f620025eb565b604052919050565b600067ffffffffffffffff821115620025945762002594620025eb565b50601f01601f191660200190565b60005b83811015620025bf578181015183820152602001620025a5565b83811115620025cf576000848401525b50505050565b634e487b7160e01b600052602160045260246000fd5b634e487b7160e01b600052604160045260246000fd5b6001600160a01b03811681146200261757600080fd5b5056fe60806040523480156200001157600080fd5b5060405162002425380380620024258339810160408190526200003491620002d0565b600080546001600160a01b0319166001600160a01b0384161790558051805182916003916200006b9183916020909101906200014f565b5060208281015180516200008692600185019201906200014f565b5060408201518051620000a49160028401916020909101906200014f565b50606082015160038201805460808501516001600160401b0316640100000000026001600160601b031990911663ffffffff9093169290921791909117905560a08201518051620001009160048401916020909101906200014f565b5060c082015180516200011e9160058401916020909101906200014f565b505060006002555050600980546001600160a01b0319166001600160a01b03939093169290921790915550620004d7565b8280546200015d9062000484565b90600052602060002090601f016020900481019282620001815760008555620001cc565b82601f106200019c57805160ff1916838001178555620001cc565b82800160010185558215620001cc579182015b82811115620001cc578251825591602001919060010190620001af565b50620001da929150620001de565b5090565b5b80821115620001da5760008155600101620001df565b80516001600160a01b03811681146200020d57600080fd5b919050565b600082601f83011262000223578081fd5b81516001600160401b038111156200023f576200023f620004c1565b602062000255601f8301601f1916820162000451565b828152858284870101111562000269578384fd5b835b83811015620002885785810183015182820184015282016200026b565b838111156200029957848385840101525b5095945050505050565b805163ffffffff811681146200020d57600080fd5b80516001600160401b03811681146200020d57600080fd5b600080600060608486031215620002e5578283fd5b620002f084620001f5565b92506200030060208501620001f5565b60408501519092506001600160401b03808211156200031d578283fd5b9085019060e0828803121562000331578283fd5b6200033b62000426565b8251828111156200034a578485fd5b620003588982860162000212565b8252506020830151828111156200036d578485fd5b6200037b8982860162000212565b60208301525060408301518281111562000393578485fd5b620003a18982860162000212565b604083015250620003b560608401620002a3565b6060820152620003c860808401620002b8565b608082015260a083015182811115620003df578485fd5b620003ed8982860162000212565b60a08301525060c08301518281111562000405578485fd5b620004138982860162000212565b60c0830152508093505050509250925092565b60405160e081016001600160401b03811182821017156200044b576200044b620004c1565b60405290565b604051601f8201601f191681016001600160401b03811182821017156200047c576200047c620004c1565b604052919050565b600181811c908216806200049957607f821691505b60208210811415620004bb57634e487b7160e01b600052602260045260246000fd5b50919050565b634e487b7160e01b600052604160045260246000fd5b611f3e80620004e76000396000f3fe608060405234801561001057600080fd5b50600436106101775760003560e01c80636d4ce63c116100d8578063a804e2331161008c578063c439c04511610066578063c439c045146102ec578063d96b262b146102f4578063f4732da6146102fc57600080fd5b8063a804e233146102ad578063af5372e6146102cc578063c422c1b1146102db57600080fd5b80637eee288d116100bd5780637eee288d1461028a5780638a35e9421461029d578063a3907d71146102a557600080fd5b80636d4ce63c1461023e5780637238ccdb1461025557600080fd5b806335e3e0cb1161012f5780635a9b0b89116101145780635a9b0b891461020f5780636aa633b6146102245780636d483c841461022c57600080fd5b806335e3e0cb146101d7578063483d45bd146101ea57600080fd5b806328e018051161016057806328e01805146101a95780632c413abf146101bc5780632f2770db146101cf57600080fd5b80631bffb4911461017c578063282d3fdf14610194575b600080fd5b60015b60405190151581526020015b60405180910390f35b6101a76101a2366004611adf565b610304565b005b61017f6101b7366004611aa0565b610482565b6101a76101ca366004611aa0565b6104bb565b6101a7610565565b6101a76101e5366004611b0a565b6107c6565b6000546001600160a01b03165b6040516001600160a01b03909116815260200161018b565b61021761097f565b60405161018b9190611d6f565b61017f610ce7565b6002545b60405190815260200161018b565b610246610d01565b60405161018b93929190611d82565b610268610263366004611aa0565b61108c565b604080518251815260208084015190820152918101519082015260600161018b565b6101a7610298366004611adf565b6110f2565b6102306112dc565b6101a76114b5565b600154600160a01b900460ff1660405160ff909116815260200161018b565b600060405161018b9190611d47565b6001546001600160a01b03166101f7565b6101a7611637565b6101a76116a0565b600e54610230565b61030c61175c565b600a546001600160a01b0316331461036b5760405162461bcd60e51b815260206004820152601c60248201527f4f6e6c7920617661696c61626c6520666f72205465654f66666572730000000060448201526064015b60405180910390fd5b61037361175c565b426000610383610e106018611e10565b6009546040516303a2216d60e01b815263ffffffff92909216916001600160a01b03909116906303a2216d906103be90600190600401611d5b565b60206040518083038186803b1580156103d657600080fd5b505afa1580156103ea573d6000803e3d6000fd5b505050506040513d601f19601f8201168201806040525081019061040e9190611c21565b6104189190611df1565b6104229042611dd9565b6001600160a01b0385166000908152600c6020526040812084815560018101839055600281018054939450909286929061045d908490611dd9565b9250508190555083600e60008282546104769190611dd9565b90915550505050505050565b6001546001600160a01b038281166000818152600d6020526040812054909392909216149060ff1681806104b35750805b949350505050565b6104c361175c565b600a546001600160a01b0316331461051d5760405162461bcd60e51b815260206004820152601c60248201527f4f6e6c7920617661696c61626c6520666f72205465654f6666657273000000006044820152606401610362565b600180546001600160a01b0390921673ffffffffffffffffffffffffffffffffffffffff19909216821781556000918252600d6020526040909120805460ff19169091179055565b60008054906101000a90046001600160a01b03166001600160a01b0316636760c4b76040518163ffffffff1660e01b815260040160206040518083038186803b1580156105b157600080fd5b505afa1580156105c5573d6000803e3d6000fd5b505050506040513d601f19601f820116820180604052508101906105e99190611ac3565b6001600160a01b0316336001600160a01b0316146106535760405162461bcd60e51b815260206004820152602160248201527f4f6e6c7920617661696c61626c6520666f7220416374696f6e206163636f756e6044820152601d60fa1b6064820152608401610362565b61065b61175c565b600254156106ab5760405162461bcd60e51b815260206004820152601960248201527f4f6666657220697320616c72656164792064697361626c6564000000000000006044820152606401610362565b6106b8610e106018611e10565b6009546040516303a2216d60e01b815263ffffffff92909216916001600160a01b03909116906303a2216d906106f2906004908101611d5b565b60206040518083038186803b15801561070a57600080fd5b505afa15801561071e573d6000803e3d6000fd5b505050506040513d601f19601f820116820180604052508101906107429190611c21565b61074c9190611df1565b6107569042611dd9565b600281905560008054604051639789e32360e01b8152600481019290925260248201929092526001600160a01b0390911690639789e323906044015b600060405180830381600087803b1580156107ac57600080fd5b505af11580156107c0573d6000803e3d6000fd5b50505050565b60008054906101000a90046001600160a01b03166001600160a01b0316636760c4b76040518163ffffffff1660e01b815260040160206040518083038186803b15801561081257600080fd5b505afa158015610826573d6000803e3d6000fd5b505050506040513d601f19601f8201168201806040525081019061084a9190611ac3565b6001600160a01b0316336001600160a01b0316146108b45760405162461bcd60e51b815260206004820152602160248201527f4f6e6c7920617661696c61626c6520666f7220416374696f6e206163636f756e6044820152601d60fa1b6064820152608401610362565b8051805182916003916108ce91839160209091019061194f565b5060208281015180516108e7926001850192019061194f565b506040820151805161090391600284019160209091019061194f565b506060820151600382018054608085015167ffffffffffffffff16640100000000026bffffffffffffffffffffffff1990911663ffffffff9093169290921791909117905560a0820151805161096391600484019160209091019061194f565b5060c082015180516107c091600584019160209091019061194f565b6109cf6040518060e00160405280606081526020016060815260200160608152602001600063ffffffff168152602001600067ffffffffffffffff16815260200160608152602001606081525090565b60036040518060e00160405290816000820180546109ec90611e53565b80601f0160208091040260200160405190810160405280929190818152602001828054610a1890611e53565b8015610a655780601f10610a3a57610100808354040283529160200191610a65565b820191906000526020600020905b815481529060010190602001808311610a4857829003601f168201915b50505050508152602001600182018054610a7e90611e53565b80601f0160208091040260200160405190810160405280929190818152602001828054610aaa90611e53565b8015610af75780601f10610acc57610100808354040283529160200191610af7565b820191906000526020600020905b815481529060010190602001808311610ada57829003601f168201915b50505050508152602001600282018054610b1090611e53565b80601f0160208091040260200160405190810160405280929190818152602001828054610b3c90611e53565b8015610b895780601f10610b5e57610100808354040283529160200191610b89565b820191906000526020600020905b815481529060010190602001808311610b6c57829003601f168201915b5050509183525050600382015463ffffffff81166020830152640100000000900467ffffffffffffffff166040820152600482018054606090920191610bce90611e53565b80601f0160208091040260200160405190810160405280929190818152602001828054610bfa90611e53565b8015610c475780601f10610c1c57610100808354040283529160200191610c47565b820191906000526020600020905b815481529060010190602001808311610c2a57829003601f168201915b50505050508152602001600582018054610c6090611e53565b80601f0160208091040260200160405190810160405280929190818152602001828054610c8c90611e53565b8015610cd95780601f10610cae57610100808354040283529160200191610cd9565b820191906000526020600020905b815481529060010190602001808311610cbc57829003601f168201915b505050505081525050905090565b600060025460001480610cfc57506002544211155b905090565b610d516040518060e00160405280606081526020016060815260200160608152602001600063ffffffff168152602001600067ffffffffffffffff16815260200160608152602001606081525090565b600080600360008054906101000a90046001600160a01b0316600254826040518060e0016040529081600082018054610d8990611e53565b80601f0160208091040260200160405190810160405280929190818152602001828054610db590611e53565b8015610e025780601f10610dd757610100808354040283529160200191610e02565b820191906000526020600020905b815481529060010190602001808311610de557829003601f168201915b50505050508152602001600182018054610e1b90611e53565b80601f0160208091040260200160405190810160405280929190818152602001828054610e4790611e53565b8015610e945780601f10610e6957610100808354040283529160200191610e94565b820191906000526020600020905b815481529060010190602001808311610e7757829003601f168201915b50505050508152602001600282018054610ead90611e53565b80601f0160208091040260200160405190810160405280929190818152602001828054610ed990611e53565b8015610f265780601f10610efb57610100808354040283529160200191610f26565b820191906000526020600020905b815481529060010190602001808311610f0957829003601f168201915b5050509183525050600382015463ffffffff81166020830152640100000000900467ffffffffffffffff166040820152600482018054606090920191610f6b90611e53565b80601f0160208091040260200160405190810160405280929190818152602001828054610f9790611e53565b8015610fe45780601f10610fb957610100808354040283529160200191610fe4565b820191906000526020600020905b815481529060010190602001808311610fc757829003601f168201915b50505050508152602001600582018054610ffd90611e53565b80601f016020809104026020016040519081016040528092919081815260200182805461102990611e53565b80156110765780601f1061104b57610100808354040283529160200191611076565b820191906000526020600020905b81548152906001019060200180831161105957829003601f168201915b5050505050815250509250925092509250909192565b6110b060405180606001604052806000815260200160008152602001600081525090565b506001600160a01b03166000908152600c6020908152604091829020825160608101845281548152600182015492810192909252600201549181019190915290565b6110fa61175c565b600a546001600160a01b031633146111545760405162461bcd60e51b815260206004820152601c60248201527f4f6e6c7920617661696c61626c6520666f72205465654f6666657273000000006044820152606401610362565b61115c61175c565b6001600160a01b0382166000908152600c60205260409020600e541580159061118b57508060020154600e5410155b6111fd5760405162461bcd60e51b815260206004820152602c60248201527f52657761726420666f7220746869732054434220636f6e66697363617465642060448201527f627920436f6e73656e73757300000000000000000000000000000000000000006064820152608401610362565b80600201548211156112515760405162461bcd60e51b815260206004820152601860248201527f4e6f7420656e6f756768206c6f636b656420746f6b656e7300000000000000006044820152606401610362565b42816001015411156112a55760405162461bcd60e51b815260206004820152601460248201527f546f6f206561726c7920666f7220756e6c6f636b0000000000000000000000006044820152606401610362565b818160020160008282546112b99190611e3c565b9250508190555081600e60008282546112d29190611e3c565b9091555050505050565b6001546000906001600160a01b03166112f55750600090565b60095460405163bcaa0c5560e01b81526000916001600160a01b03169063bcaa0c559061132790600b90600401611d2d565b60206040518083038186803b15801561133f57600080fd5b505afa158015611353573d6000803e3d6000fd5b505050506040513d601f19601f820116820180604052508101906113779190611ac3565b6001546040517f31aeceac0000000000000000000000000000000000000000000000000000000081526001600160a01b0391821660048201529192508216906331aeceac9060240160206040518083038186803b1580156113d757600080fd5b505afa1580156113eb573d6000803e3d6000fd5b505050506040513d601f19601f8201168201806040525081019061140f9190611c21565b6001546040517fc00007b00000000000000000000000000000000000000000000000000000000081526001600160a01b0391821660048201529083169063c00007b09060240160206040518083038186803b15801561146d57600080fd5b505afa158015611481573d6000803e3d6000fd5b505050506040513d601f19601f820116820180604052508101906114a59190611c21565b6114af9190611dd9565b91505090565b60008054906101000a90046001600160a01b03166001600160a01b0316636760c4b76040518163ffffffff1660e01b815260040160206040518083038186803b15801561150157600080fd5b505afa158015611515573d6000803e3d6000fd5b505050506040513d601f19601f820116820180604052508101906115399190611ac3565b6001600160a01b0316336001600160a01b0316146115a35760405162461bcd60e51b815260206004820152602160248201527f4f6e6c7920617661696c61626c6520666f7220416374696f6e206163636f756e6044820152601d60fa1b6064820152608401610362565b6115ab61175c565b6002546115fa5760405162461bcd60e51b815260206004820152601860248201527f4f6666657220697320616c726561647920656e61626c656400000000000000006044820152606401610362565b600060028190558054604051639789e32360e01b81526001600482015260248101929092526001600160a01b031690639789e32390604401610792565b61163f61175c565b600a546001600160a01b031633146116995760405162461bcd60e51b815260206004820152601c60248201527f4f6e6c7920617661696c61626c6520666f72205465654f6666657273000000006044820152606401610362565b6000600e55565b6116a861175c565b600b546001600160a01b031633146117285760405162461bcd60e51b815260206004820152602360248201527f417661696c61626c65206f6e6c7920666f722050726f7669646572526567697360448201527f74727900000000000000000000000000000000000000000000000000000000006064820152608401610362565b6001805460149061174290600160a01b900460ff16611e8e565b91906101000a81548160ff021916908360ff160217905550565b600960009054906101000a90046001600160a01b03166001600160a01b031663f1f0bd016040518163ffffffff1660e01b815260040160206040518083038186803b1580156117aa57600080fd5b505afa1580156117be573d6000803e3d6000fd5b505050506040513d601f19601f820116820180604052508101906117e29190611ac3565b6009805473ffffffffffffffffffffffffffffffffffffffff19166001600160a01b0392909216918217905560405163bcaa0c5560e01b815263bcaa0c559061182f906004908101611d2d565b60206040518083038186803b15801561184757600080fd5b505afa15801561185b573d6000803e3d6000fd5b505050506040513d601f19601f8201168201806040525081019061187f9190611ac3565b600a805473ffffffffffffffffffffffffffffffffffffffff19166001600160a01b0392831617905560095460405163bcaa0c5560e01b815291169063bcaa0c55906118d090600190600401611d2d565b60206040518083038186803b1580156118e857600080fd5b505afa1580156118fc573d6000803e3d6000fd5b505050506040513d601f19601f820116820180604052508101906119209190611ac3565b600b805473ffffffffffffffffffffffffffffffffffffffff19166001600160a01b0392909216919091179055565b82805461195b90611e53565b90600052602060002090601f01602090048101928261197d57600085556119c3565b82601f1061199657805160ff19168380011785556119c3565b828001600101855582156119c3579182015b828111156119c35782518255916020019190600101906119a8565b506119cf9291506119d3565b5090565b5b808211156119cf57600081556001016119d4565b600082601f8301126119f8578081fd5b813567ffffffffffffffff80821115611a1357611a13611eda565b604051601f8301601f19908116603f01168101908282118183101715611a3b57611a3b611eda565b81604052838152866020858801011115611a53578485fd5b8360208701602083013792830160200193909352509392505050565b803563ffffffff81168114611a8357600080fd5b919050565b803567ffffffffffffffff81168114611a8357600080fd5b600060208284031215611ab1578081fd5b8135611abc81611ef0565b9392505050565b600060208284031215611ad4578081fd5b8151611abc81611ef0565b60008060408385031215611af1578081fd5b8235611afc81611ef0565b946020939093013593505050565b600060208284031215611b1b578081fd5b813567ffffffffffffffff80821115611b32578283fd5b9083019060e08286031215611b45578283fd5b611b4d611db0565b823582811115611b5b578485fd5b611b67878286016119e8565b825250602083013582811115611b7b578485fd5b611b87878286016119e8565b602083015250604083013582811115611b9e578485fd5b611baa878286016119e8565b604083015250611bbc60608401611a6f565b6060820152611bcd60808401611a88565b608082015260a083013582811115611be3578485fd5b611bef878286016119e8565b60a08301525060c083013582811115611c06578485fd5b611c12878286016119e8565b60c08301525095945050505050565b600060208284031215611c32578081fd5b5051919050565b60008151808452815b81811015611c5e57602081850181015186830182015201611c42565b81811115611c6f5782602083870101525b50601f01601f19169290920160200192915050565b6000815160e08452611c9960e0850182611c39565b905060208301518482036020860152611cb28282611c39565b91505060408301518482036040860152611ccc8282611c39565b91505063ffffffff606084015116606085015267ffffffffffffffff608084015116608085015260a083015184820360a0860152611d0a8282611c39565b91505060c083015184820360c0860152611d248282611c39565b95945050505050565b60208101600c8310611d4157611d41611ec4565b91905290565b6020810160048310611d4157611d41611ec4565b6020810160118310611d4157611d41611ec4565b602081526000611abc6020830184611c84565b606081526000611d956060830186611c84565b6001600160a01b039490941660208301525060400152919050565b60405160e0810167ffffffffffffffff81118282101715611dd357611dd3611eda565b60405290565b60008219821115611dec57611dec611eae565b500190565b6000816000190483118215151615611e0b57611e0b611eae565b500290565b600063ffffffff80831681851681830481118215151615611e3357611e33611eae565b02949350505050565b600082821015611e4e57611e4e611eae565b500390565b600181811c90821680611e6757607f821691505b60208210811415611e8857634e487b7160e01b600052602260045260246000fd5b50919050565b600060ff821660ff811415611ea557611ea5611eae565b60010192915050565b634e487b7160e01b600052601160045260246000fd5b634e487b7160e01b600052602160045260246000fd5b634e487b7160e01b600052604160045260246000fd5b6001600160a01b0381168114611f0557600080fd5b5056fea26469706673582212205a72dbde1e83c290c1a42d44e5b73899b061fc6b35d7f78bacbf3d41950ea8be64736f6c63430008040033a264697066735822122086c65fe9881c008ffe341d616b6d2def9e57eb2296d0b7a8ab803134528d9fef64736f6c63430008040033",
  "linkReferences": {},
  "deployedLinkReferences": {}
}