{
  "_format": "hh-sol-artifact-1",
  "contractName": "TeeOffersConsensusManager",
  "sourceName": "contracts/TeeOffersConsensusManager.sol",
  "abi": [
    {
      "anonymous": false,
      "inputs": [
        {
          "indexed": true,
          "internalType": "address",
          "name": "providerAuth",
          "type": "address"
        },
        {
          "indexed": true,
          "internalType": "uint256",
          "name": "teeOfferId",
          "type": "uint256"
        },
        {
          "indexed": false,
          "internalType": "uint256",
          "name": "violationRate",
          "type": "uint256"
        }
      ],
      "name": "TeeOfferViolationRateChanged",
      "type": "event"
    },
    {
      "anonymous": false,
      "inputs": [
        {
          "indexed": false,
          "internalType": "uint256",
          "name": "teeOfferId",
          "type": "uint256"
        },
        {
          "indexed": false,
          "internalType": "string",
          "name": "message",
          "type": "string"
        }
      ],
      "name": "WarningMessage",
      "type": "event"
    },
    {
      "inputs": [
        {
          "internalType": "uint256",
          "name": "teeOfferId",
          "type": "uint256"
        },
        {
          "internalType": "bytes32",
          "name": "deviceID",
          "type": "bytes32"
        }
      ],
      "name": "banTeeOffer",
      "outputs": [],
      "stateMutability": "nonpayable",
      "type": "function"
    },
    {
      "inputs": [
        {
          "internalType": "uint256",
          "name": "teeOfferId",
          "type": "uint256"
        },
        {
          "internalType": "bytes32",
          "name": "deviceID",
          "type": "bytes32"
        }
      ],
      "name": "blockTeeOffer",
      "outputs": [],
      "stateMutability": "nonpayable",
      "type": "function"
    },
    {
      "inputs": [
        {
          "internalType": "uint256",
          "name": "teeOfferId",
          "type": "uint256"
        }
      ],
      "name": "confisacateAllRewards",
      "outputs": [],
      "stateMutability": "nonpayable",
      "type": "function"
    },
    {
      "inputs": [
        {
          "internalType": "uint256",
          "name": "teeOfferId",
          "type": "uint256"
        }
      ],
      "name": "getLastTeeBenchmark",
      "outputs": [
        {
          "internalType": "uint256",
          "name": "",
          "type": "uint256"
        }
      ],
      "stateMutability": "view",
      "type": "function"
    },
    {
      "inputs": [
        {
          "internalType": "bytes32",
          "name": "deviceID",
          "type": "bytes32"
        }
      ],
      "name": "getTeeOfferByDeviceId",
      "outputs": [
        {
          "internalType": "uint256",
          "name": "",
          "type": "uint256"
        }
      ],
      "stateMutability": "view",
      "type": "function"
    },
    {
      "inputs": [
        {
          "internalType": "uint256",
          "name": "teeOfferId",
          "type": "uint256"
        }
      ],
      "name": "getTeeOfferLastTcbReward",
      "outputs": [
        {
          "internalType": "uint256",
          "name": "",
          "type": "uint256"
        }
      ],
      "stateMutability": "view",
      "type": "function"
    },
    {
      "inputs": [
        {
          "internalType": "uint256",
          "name": "teeOfferId",
          "type": "uint256"
        }
      ],
      "name": "getTeeOfferViolationRate",
      "outputs": [
        {
          "internalType": "uint256",
          "name": "",
          "type": "uint256"
        }
      ],
      "stateMutability": "view",
      "type": "function"
    },
    {
      "inputs": [
        {
          "internalType": "uint256",
          "name": "teeOfferId",
          "type": "uint256"
        }
      ],
      "name": "getTeeVerifiedBenchmark",
      "outputs": [
        {
          "internalType": "uint256",
          "name": "",
          "type": "uint256"
        }
      ],
      "stateMutability": "view",
      "type": "function"
    },
    {
      "inputs": [
        {
          "internalType": "uint256",
          "name": "teeOfferId",
          "type": "uint256"
        }
      ],
      "name": "incrTeeOfferViolationRate",
      "outputs": [],
      "stateMutability": "nonpayable",
      "type": "function"
    },
    {
      "inputs": [
        {
          "internalType": "uint256",
          "name": "teeOfferId",
          "type": "uint256"
        },
        {
          "internalType": "uint256",
          "name": "tcbId",
          "type": "uint256"
        },
        {
          "internalType": "uint256",
          "name": "reward",
          "type": "uint256"
        }
      ],
      "name": "lockTcbReward",
      "outputs": [],
      "stateMutability": "nonpayable",
      "type": "function"
    },
    {
      "inputs": [
        {
          "internalType": "uint256",
          "name": "teeOfferId",
          "type": "uint256"
        },
        {
          "internalType": "bytes32",
          "name": "deviceID",
          "type": "bytes32"
        }
      ],
      "name": "setTeeDeviceId",
      "outputs": [],
      "stateMutability": "nonpayable",
      "type": "function"
    },
    {
      "inputs": [
        {
          "internalType": "uint256",
          "name": "tcbId",
          "type": "uint256"
        }
      ],
      "name": "unlockTcbReward",
      "outputs": [],
      "stateMutability": "nonpayable",
      "type": "function"
    },
    {
      "inputs": [
        {
          "internalType": "uint256",
          "name": "teeOfferId",
          "type": "uint256"
        },
        {
          "internalType": "uint256",
          "name": "benchmark",
          "type": "uint256"
        }
      ],
      "name": "updateVerifiedTeeBenchmark",
      "outputs": [],
      "stateMutability": "nonpayable",
      "type": "function"
    }
  ],
  "bytecode": "0x608060405234801561001057600080fd5b50611fae806100206000396000f3fe608060405234801561001057600080fd5b50600436106100df5760003560e01c80637c9db37c1161008c578063b8c4e81711610066578063b8c4e817146101cf578063bcbe0272146101e2578063d46c9977146101f5578063fa06374b1461020857600080fd5b80637c9db37c1461016a5780638ddf2e8a1461017d578063a078dec3146101bc57600080fd5b80634feeb8a3116100bd5780634feeb8a3146101315780635383455914610144578063705e75171461015757600080fd5b80630b82a0ce146100e45780632e50d42c146101095780633e54d22d1461011c575b600080fd5b6100f76100f23660046117d2565b61021b565b60405190815260200160405180910390f35b6100f76101173660046117d2565b61032e565b61012f61012a3660046117d2565b610402565b005b61012f61013f3660046117eb565b610745565b61012f6101523660046117eb565b6107c1565b6100f76101653660046117d2565b610820565b61012f61017836600461180d565b61091d565b6100f761018b3660046117d2565b60009081527fa15d1660ecf4f4c2ac27ec148e6bb28bae19d84f4ea12b71b4576a040a68ee88602052604090205490565b61012f6101ca3660046117d2565b610c35565b6100f76101dd3660046117d2565b611032565b61012f6101f03660046117eb565b6110bb565b61012f6102033660046117eb565b6111e4565b61012f6102163660046117d2565b6115d7565b60405163b11d109960e01b8152600481018290526000908190309063b11d10999060240160206040518083038186803b15801561025757600080fd5b505afa15801561026b573d6000803e3d6000fd5b505050506040513d601f19601f8201168201806040525081019061028f9190611839565b90508061029f5750600092915050565b6040517f379ccd3300000000000000000000000000000000000000000000000000000000815260048101829052309063379ccd339060240160206040518083038186803b1580156102ef57600080fd5b505afa158015610303573d6000803e3d6000fd5b505050506040513d601f19601f820116820180604052508101906103279190611839565b9392505050565b6040517f50b4b0f70000000000000000000000000000000000000000000000000000000081526004810182905260009030906350b4b0f79060240160206040518083038186803b15801561038157600080fd5b505afa158015610395573d6000803e3d6000fd5b505050506040513d601f19601f820116820180604052508101906103b99190611867565b156103cd576103c782610820565b92915050565b5060009081527fa15d1660ecf4f4c2ac27ec148e6bb28bae19d84f4ea12b71b4576a040a68ee8760205260409020600b015490565b33301461044f5760405162461bcd60e51b8152602060048201526016602482015275115e1d195c9b985b081858d8d95cdcc819195b9a595960521b60448201526064015b60405180910390fd5b60008181527fa15d1660ecf4f4c2ac27ec148e6bb28bae19d84f4ea12b71b4576a040a68ee876020526040812060008381527fa15d1660ecf4f4c2ac27ec148e6bb28bae19d84f4ea12b71b4576a040a68ee856020526040812091925050600080306005840154604051630cc079f360e01b81526001600160a01b039182166004820152911690630cc079f39060240160206040518083038186803b1580156104f757600080fd5b505afa15801561050b573d6000803e3d6000fd5b505050506040513d601f19601f8201168201806040525081019061052f919061189a565b6040517f1dd96db80000000000000000000000000000000000000000000000000000000081529091506000903090631dd96db8906105749060029086906004016118e1565b60606040518083038186803b15801561058c57600080fd5b505afa1580156105a0573d6000803e3d6000fd5b505050506040513d601f19601f820116820180604052508101906105c49190611999565b905084600a01548160400151106105e15784600a0154925061067d565b7f649e4a1a8dde5a5ea5836e5188ea067dac7f6fb83a66517432f85867d6815f248660405161066d9181526040602082018190526021908201527f4661696c20746f20636f6e66697363617465206c6f636b65642072657761726460608201527f7300000000000000000000000000000000000000000000000000000000000000608082015260a00190565b60405180910390a1806040015192505b60405163896d087f60e01b8152309063896d087f906106a590600290869088906004016119f5565b600060405180830381600087803b1580156106bf57600080fd5b505af11580156106d3573d6000803e3d6000fd5b505050506106de3090565b6001600160a01b0316637b312066846040518263ffffffff1660e01b815260040161070b91815260200190565b600060405180830381600087803b15801561072557600080fd5b505af1158015610739573d6000803e3d6000fd5b50505050505050505050565b33301461078d5760405162461bcd60e51b8152602060048201526016602482015275115e1d195c9b985b081858d8d95cdcc819195b9a595960521b6044820152606401610446565b60009182527fa15d1660ecf4f4c2ac27ec148e6bb28bae19d84f4ea12b71b4576a040a68ee876020526040909120600b0155565b3330146108095760405162461bcd60e51b8152602060048201526016602482015275115e1d195c9b985b081858d8d95cdcc819195b9a595960521b6044820152606401610446565b61081382826111e4565b61081c82610402565b5050565b60405163b11d109960e01b8152600481018290526000908190309063b11d10999060240160206040518083038186803b15801561085c57600080fd5b505afa158015610870573d6000803e3d6000fd5b505050506040513d601f19601f820116820180604052508101906108949190611839565b60405163708b32f960e11b815260048101829052909150600090309063e11665f29060240160006040518083038186803b1580156108d157600080fd5b505afa1580156108e5573d6000803e3d6000fd5b505050506040513d6000823e601f3d908101601f1916820160405261090d9190810190611d97565b6060015160400151949350505050565b3330146109655760405162461bcd60e51b8152602060048201526016602482015275115e1d195c9b985b081858d8d95cdcc819195b9a595960521b6044820152606401610446565b60008381527fa15d1660ecf4f4c2ac27ec148e6bb28bae19d84f4ea12b71b4576a040a68ee87602090815260408083207fa15d1660ecf4f4c2ac27ec148e6bb28bae19d84f4ea12b71b4576a040a68ee85835281842060058101548351630cc079f360e01b81526001600160a01b03909116600482015292517fa15d1660ecf4f4c2ac27ec148e6bb28bae19d84f4ea12b71b4576a040a68ee8495929491933092630cc079f392602480840193829003018186803b158015610a2657600080fd5b505afa158015610a3a573d6000803e3d6000fd5b505050506040513d601f19601f82011682018060405250810190610a5e919061189a565b9050610a6861175a565b6040517f095ea7b3000000000000000000000000000000000000000000000000000000008152306004820152602481018790526001600160a01b03919091169063095ea7b390604401602060405180830381600087803b158015610acb57600080fd5b505af1158015610adf573d6000803e3d6000fd5b505050506040513d601f19601f82011682018060405250810190610b039190611867565b50306040517f2ee409080000000000000000000000000000000000000000000000000000000081526001600160a01b038381166004830152602482018890529190911690632ee4090890604401600060405180830381600087803b158015610b6a57600080fd5b505af1158015610b7e573d6000803e3d6000fd5b50505050610b893090565b6001600160a01b031663d719a90d6002838860006040518563ffffffff1660e01b8152600401610bbc9493929190611e84565b600060405180830381600087803b158015610bd657600080fd5b505af1158015610bea573d6000803e3d6000fd5b505050508483600a016000828254610c029190611ecc565b90915550506000868152600c8401602052604081208054879290610c27908490611ecc565b909155505050505050505050565b60405163708b32f960e11b815260048101829052600090309063e11665f29060240160006040518083038186803b158015610c6f57600080fd5b505afa158015610c83573d6000803e3d6000fd5b505050506040513d6000823e601f3d908101601f19168201604052610cab9190810190611d97565b606001515160008181527fa15d1660ecf4f4c2ac27ec148e6bb28bae19d84f4ea12b71b4576a040a68ee87602052604081209192509060008381527fa15d1660ecf4f4c2ac27ec148e6bb28bae19d84f4ea12b71b4576a040a68ee8560205260408120919250506000306005830154604051630cc079f360e01b81526001600160a01b039182166004820152911690630cc079f39060240160206040518083038186803b158015610d5b57600080fd5b505afa158015610d6f573d6000803e3d6000fd5b505050506040513d601f19601f82011682018060405250810190610d93919061189a565b90506001600160a01b0381163314610e135760405162461bcd60e51b815260206004820152602160248201527f4f6e6c7920617661696c61626c6520666f7220746f6b656e207265636569766560448201527f72000000000000000000000000000000000000000000000000000000000000006064820152608401610446565b6040517f897ce7cf000000000000000000000000000000000000000000000000000000008152600090309063897ce7cf90610e5390600190600401611ee4565b60206040518083038186803b158015610e6b57600080fd5b505afa158015610e7f573d6000803e3d6000fd5b505050506040513d601f19601f82011682018060405250810190610ea39190611839565b60405163708b32f960e11b815260048101889052909150600090309063e11665f29060240160006040518083038186803b158015610ee057600080fd5b505afa158015610ef4573d6000803e3d6000fd5b505050506040513d6000823e601f3d908101601f19168201604052610f1c9190810190611d97565b6040908101516000898152600c8801602052919091205490915042610f418484611ecc565b10610f8e5760405162461bcd60e51b815260206004820152601c60248201527f546f6f206561726c7920666f7220756e6c6f636b2072657761726473000000006044820152606401610446565b6040517fc15d6490000000000000000000000000000000000000000000000000000000008152309063c15d649090610fcf90600290889086906004016119f5565b600060405180830381600087803b158015610fe957600080fd5b505af1158015610ffd573d6000803e3d6000fd5b505050508086600a0160008282546110159190611efe565b909155505050600096875250505050600c01602052506040812055565b60008181527fa15d1660ecf4f4c2ac27ec148e6bb28bae19d84f4ea12b71b4576a040a68ee85602052604081206000815460ff166003811115611077576110776118b7565b146110855750600092915050565b505060009081527fa15d1660ecf4f4c2ac27ec148e6bb28bae19d84f4ea12b71b4576a040a68ee87602052604090205460ff1690565b3330146111035760405162461bcd60e51b8152602060048201526016602482015275115e1d195c9b985b081858d8d95cdcc819195b9a595960521b6044820152606401610446565b60008181527fa15d1660ecf4f4c2ac27ec148e6bb28bae19d84f4ea12b71b4576a040a68ee8860205260409020547fa15d1660ecf4f4c2ac27ec148e6bb28bae19d84f4ea12b71b4576a040a68ee849080158061115f57508381145b6111d15760405162461bcd60e51b815260206004820152602a60248201527f54686572652063616e206265206f6e6c79206f6e652064657669636520666f7260448201527f206f6e65206f66666572000000000000000000000000000000000000000000006064820152608401610446565b5060009182526004016020526040902055565b33301461122c5760405162461bcd60e51b8152602060048201526016602482015275115e1d195c9b985b081858d8d95cdcc819195b9a595960521b6044820152606401610446565b60008281527fa15d1660ecf4f4c2ac27ec148e6bb28bae19d84f4ea12b71b4576a040a68ee85602090815260408083208484527fa15d1660ecf4f4c2ac27ec148e6bb28bae19d84f4ea12b71b4576a040a68ee889092528083208390554260068301819055600583015491517fa4f48e3d0000000000000000000000000000000000000000000000000000000081527fa15d1660ecf4f4c2ac27ec148e6bb28bae19d84f4ea12b71b4576a040a68ee8494309363a4f48e3d93611303936001600160a01b03909216928a9290918291600401611f15565b600060405180830381600087803b15801561131d57600080fd5b505af1158015611331573d6000803e3d6000fd5b50505050600061133e3090565b6001600160a01b031663897ce7cf60026040518263ffffffff1660e01b815260040161136a9190611ee4565b60206040518083038186803b15801561138257600080fd5b505afa158015611396573d6000803e3d6000fd5b505050506040513d601f19601f820116820180604052508101906113ba9190611839565b905060003060058401546040517fd8a2d2c50000000000000000000000000000000000000000000000000000000081526001600160a01b03918216600482015291169063d8a2d2c59060240160206040518083038186803b15801561141e57600080fd5b505afa158015611432573d6000803e3d6000fd5b505050506040513d601f19601f820116820180604052508101906114569190611839565b905060008282106114685750816114ff565b7f649e4a1a8dde5a5ea5836e5188ea067dac7f6fb83a66517432f85867d6815f24876040516114f49181526040602082018190526023908201527f4661696c20746f20636f6e66697363617465207365637572697479206465706f60608201527f7369740000000000000000000000000000000000000000000000000000000000608082015260a00190565b60405180910390a150805b600584015460405163896d087f60e01b8152309163896d087f91611536916000916001600160a01b039091169086906004016119f5565b600060405180830381600087803b15801561155057600080fd5b505af1158015611564573d6000803e3d6000fd5b5050505061156f3090565b6001600160a01b0316637b312066826040518263ffffffff1660e01b815260040161159c91815260200190565b600060405180830381600087803b1580156115b657600080fd5b505af11580156115ca573d6000803e3d6000fd5b5050505050505050505050565b33301461161f5760405162461bcd60e51b8152602060048201526016602482015275115e1d195c9b985b081858d8d95cdcc819195b9a595960521b6044820152606401610446565b60008181527fa15d1660ecf4f4c2ac27ec148e6bb28bae19d84f4ea12b71b4576a040a68ee856020526040812090506000815460ff166003811115611666576116666118b7565b146116b35760405162461bcd60e51b815260206004820152601260248201527f496e76616c6964206f66666572207479706500000000000000000000000000006044820152606401610446565b60008281527fa15d1660ecf4f4c2ac27ec148e6bb28bae19d84f4ea12b71b4576a040a68ee87602052604081208054909182916116f29060ff16611f58565b82546101009290920a60ff818102199093169183160217909155600583015482546040519216825284916001600160a01b03909116907f8afe26414495b48d7a81267e874a66e7595073254e6889545f7d427f916fba789060200160405180910390a3505050565b6000306001600160a01b03166321df0da76040518163ffffffff1660e01b815260040160206040518083038186803b15801561179557600080fd5b505afa1580156117a9573d6000803e3d6000fd5b505050506040513d601f19601f820116820180604052508101906117cd919061189a565b905090565b6000602082840312156117e457600080fd5b5035919050565b600080604083850312156117fe57600080fd5b50508035926020909101359150565b60008060006060848603121561182257600080fd5b505081359360208301359350604090920135919050565b60006020828403121561184b57600080fd5b5051919050565b8051801515811461186257600080fd5b919050565b60006020828403121561187957600080fd5b61032782611852565b6001600160a01b038116811461189757600080fd5b50565b6000602082840312156118ac57600080fd5b815161032781611882565b634e487b7160e01b600052602160045260246000fd5b600381106118dd576118dd6118b7565b9052565b604081016118ef82856118cd565b6001600160a01b03831660208301529392505050565b634e487b7160e01b600052604160045260246000fd5b604051610160810167ffffffffffffffff8111828210171561193f5761193f611905565b60405290565b60405160e0810167ffffffffffffffff8111828210171561193f5761193f611905565b604051601f8201601f1916810167ffffffffffffffff8111828210171561199157611991611905565b604052919050565b6000606082840312156119ab57600080fd5b6040516060810181811067ffffffffffffffff821117156119ce576119ce611905565b80604052508251815260208301516020820152604083015160408201528091505092915050565b60608101611a0382866118cd565b6001600160a01b0393909316602082015260400152919050565b600082601f830112611a2e57600080fd5b815167ffffffffffffffff811115611a4857611a48611905565b6020611a5c601f8301601f19168201611968565b8281528582848701011115611a7057600080fd5b60005b83811015611a8e578581018301518282018401528201611a73565b83811115611a9f5760008385840101525b5095945050505050565b600060808284031215611abb57600080fd5b6040516080810167ffffffffffffffff8282108183111715611adf57611adf611905565b816040528293508451835260208501516020840152604085015160408401526060850151915080821115611b1257600080fd5b50611b1f85828601611a1d565b6060830152505092915050565b600067ffffffffffffffff821115611b4657611b46611905565b5060051b60200190565b600082601f830112611b6157600080fd5b81516020611b76611b7183611b2c565b611968565b82815260059290921b84018101918181019086841115611b9557600080fd5b8286015b84811015611bb05780518352918301918301611b99565b509695505050505050565b6004811061189757600080fd5b805161186281611bbb565b600082601f830112611be457600080fd5b81516020611bf4611b7183611b2c565b82815260059290921b84018101918181019086841115611c1357600080fd5b8286015b84811015611bb0578051611c2a81611bbb565b8352918301918301611c17565b805161ffff8116811461186257600080fd5b60006101608284031215611c5c57600080fd5b611c6461191b565b9050815167ffffffffffffffff80821115611c7e57600080fd5b611c8a85838601611b50565b83526020840151915080821115611ca057600080fd5b50611cad84828501611bd3565b6020830152506040820151604082015260608201516060820152611cd360808301611852565b6080820152611ce460a08301611852565b60a0820152611cf560c08301611852565b60c0820152611d0660e08301611c37565b60e0820152610100611d19818401611c37565b908201526101208281015190820152610140611d36818401611852565b9082015292915050565b600060408284031215611d5257600080fd5b6040516040810181811067ffffffffffffffff82111715611d7557611d75611905565b60405282518152905080611d8b60208401611852565b60208201525092915050565b600060208284031215611da957600080fd5b815167ffffffffffffffff80821115611dc157600080fd5b908301906101008286031215611dd657600080fd5b611dde611945565b825182811115611ded57600080fd5b611df987828601611a1d565b8252506020830151602082015260408301516040820152606083015182811115611e2257600080fd5b611e2e87828601611aa9565b606083015250608083015182811115611e4657600080fd5b611e5287828601611c49565b608083015250611e6460a08401611bc8565b60a0820152611e768660c08501611d40565b60c082015295945050505050565b60808101611e9282876118cd565b6001600160a01b038516602083015283604083015282606083015295945050505050565b634e487b7160e01b600052601160045260246000fd5b60008219821115611edf57611edf611eb6565b500190565b6020810160088310611ef857611ef86118b7565b91905290565b600082821015611f1057611f10611eb6565b500390565b6001600160a01b03861681526020810185905260a0810160048510611f3c57611f3c6118b7565b6040820194909452911515606083015260809091015292915050565b600060ff821660ff811415611f6f57611f6f611eb6565b6001019291505056fea26469706673582212201350e55843e5b0b0ae03d631c4ea26b70924101344a2eaeb724dc8f31339a94064736f6c63430008090033",
  "linkReferences": {},
  "deployedLinkReferences": {}
}