{
    "_format": "hh-sol-artifact-1",
    "contractName": "TeeOffer",
    "sourceName": "contracts/TeeOffer.sol",
    "abi": [
        {
            "inputs": [
                {
                    "internalType": "address",
                    "name": "_superpro",
                    "type": "address"
                },
                {
                    "internalType": "address",
                    "name": "_provider",
                    "type": "address"
                },
                {
                    "components": [
                        {
                            "internalType": "string",
                            "name": "name",
                            "type": "string"
                        },
                        {
                            "internalType": "string",
                            "name": "description",
                            "type": "string"
                        },
                        {
                            "internalType": "string",
                            "name": "teeType",
                            "type": "string"
                        },
                        {
                            "internalType": "uint32",
                            "name": "slots",
                            "type": "uint32"
                        },
                        {
                            "internalType": "uint64",
                            "name": "minTimeMinutes",
                            "type": "uint64"
                        },
                        {
                            "internalType": "string",
                            "name": "properties",
                            "type": "string"
                        },
                        {
                            "internalType": "address",
                            "name": "tcb",
                            "type": "address"
                        },
                        {
                            "internalType": "string",
                            "name": "tlb",
                            "type": "string"
                        },
                        {
                            "internalType": "string",
                            "name": "argsPublicKey",
                            "type": "string"
                        },
                        {
                            "internalType": "string",
                            "name": "argsPublicKeyAlgo",
                            "type": "string"
                        }
                    ],
                    "internalType": "struct TeeOfferInfo",
                    "name": "_info",
                    "type": "tuple"
                }
            ],
            "stateMutability": "nonpayable",
            "type": "constructor"
        },
        {
            "inputs": [
                {
                    "internalType": "address",
                    "name": "tcb",
                    "type": "address"
                }
            ],
            "name": "addTcb",
            "outputs": [],
            "stateMutability": "nonpayable",
            "type": "function"
        },
        {
            "inputs": [
                {
                    "internalType": "string",
                    "name": "tlb",
                    "type": "string"
                }
            ],
            "name": "addTlb",
            "outputs": [],
            "stateMutability": "nonpayable",
            "type": "function"
        },
        {
            "inputs": [],
            "name": "confiscateAll",
            "outputs": [],
            "stateMutability": "nonpayable",
            "type": "function"
        },
        {
            "inputs": [],
            "name": "disable",
            "outputs": [],
            "stateMutability": "nonpayable",
            "type": "function"
        },
        {
            "inputs": [],
            "name": "enable",
            "outputs": [],
            "stateMutability": "nonpayable",
            "type": "function"
        },
        {
            "inputs": [
                {
                    "internalType": "uint256",
                    "name": "slots",
                    "type": "uint256"
                }
            ],
            "name": "freeUpSlots",
            "outputs": [],
            "stateMutability": "nonpayable",
            "type": "function"
        },
        {
            "inputs": [],
            "name": "get",
            "outputs": [
                {
                    "components": [
                        {
                            "internalType": "string",
                            "name": "name",
                            "type": "string"
                        },
                        {
                            "internalType": "string",
                            "name": "description",
                            "type": "string"
                        },
                        {
                            "internalType": "string",
                            "name": "teeType",
                            "type": "string"
                        },
                        {
                            "internalType": "uint32",
                            "name": "slots",
                            "type": "uint32"
                        },
                        {
                            "internalType": "uint64",
                            "name": "minTimeMinutes",
                            "type": "uint64"
                        },
                        {
                            "internalType": "string",
                            "name": "properties",
                            "type": "string"
                        },
                        {
                            "internalType": "address",
                            "name": "tcb",
                            "type": "address"
                        },
                        {
                            "internalType": "string",
                            "name": "tlb",
                            "type": "string"
                        },
                        {
                            "internalType": "string",
                            "name": "argsPublicKey",
                            "type": "string"
                        },
                        {
                            "internalType": "string",
                            "name": "argsPublicKeyAlgo",
                            "type": "string"
                        }
                    ],
                    "internalType": "struct TeeOfferInfo",
                    "name": "",
                    "type": "tuple"
                },
                {
                    "internalType": "address",
                    "name": "",
                    "type": "address"
                },
                {
                    "internalType": "uint256",
                    "name": "",
                    "type": "uint256"
                }
            ],
            "stateMutability": "view",
            "type": "function"
        },
        {
            "inputs": [],
            "name": "getDisalbedAfter",
            "outputs": [
                {
                    "internalType": "uint256",
                    "name": "",
                    "type": "uint256"
                }
            ],
            "stateMutability": "view",
            "type": "function"
        },
        {
            "inputs": [],
            "name": "getFreeSlots",
            "outputs": [
                {
                    "internalType": "uint256",
                    "name": "",
                    "type": "uint256"
                }
            ],
            "stateMutability": "view",
            "type": "function"
        },
        {
            "inputs": [],
            "name": "getInfo",
            "outputs": [
                {
                    "components": [
                        {
                            "internalType": "string",
                            "name": "name",
                            "type": "string"
                        },
                        {
                            "internalType": "string",
                            "name": "description",
                            "type": "string"
                        },
                        {
                            "internalType": "string",
                            "name": "teeType",
                            "type": "string"
                        },
                        {
                            "internalType": "uint32",
                            "name": "slots",
                            "type": "uint32"
                        },
                        {
                            "internalType": "uint64",
                            "name": "minTimeMinutes",
                            "type": "uint64"
                        },
                        {
                            "internalType": "string",
                            "name": "properties",
                            "type": "string"
                        },
                        {
                            "internalType": "address",
                            "name": "tcb",
                            "type": "address"
                        },
                        {
                            "internalType": "string",
                            "name": "tlb",
                            "type": "string"
                        },
                        {
                            "internalType": "string",
                            "name": "argsPublicKey",
                            "type": "string"
                        },
                        {
                            "internalType": "string",
                            "name": "argsPublicKeyAlgo",
                            "type": "string"
                        }
                    ],
                    "internalType": "struct TeeOfferInfo",
                    "name": "",
                    "type": "tuple"
                }
            ],
            "stateMutability": "view",
            "type": "function"
        },
        {
            "inputs": [],
            "name": "getLastTcbReward",
            "outputs": [
                {
                    "internalType": "uint256",
                    "name": "",
                    "type": "uint256"
                }
            ],
            "stateMutability": "view",
            "type": "function"
        },
        {
            "inputs": [
                {
                    "internalType": "address",
                    "name": "lockedTcb",
                    "type": "address"
                }
            ],
            "name": "getLockInfo",
            "outputs": [
                {
                    "components": [
                        {
                            "internalType": "uint256",
                            "name": "fromDate",
                            "type": "uint256"
                        },
                        {
                            "internalType": "uint256",
                            "name": "toDate",
                            "type": "uint256"
                        },
                        {
                            "internalType": "uint256",
                            "name": "amount",
                            "type": "uint256"
                        }
                    ],
                    "internalType": "struct LockedTokens",
                    "name": "",
                    "type": "tuple"
                }
            ],
            "stateMutability": "view",
            "type": "function"
        },
        {
            "inputs": [],
            "name": "getOfferType",
            "outputs": [
                {
                    "internalType": "enum OfferType",
                    "name": "",
                    "type": "uint8"
                }
            ],
            "stateMutability": "pure",
            "type": "function"
        },
        {
            "inputs": [],
            "name": "getPenaltiesCount",
            "outputs": [
                {
                    "internalType": "uint8",
                    "name": "",
                    "type": "uint8"
                }
            ],
            "stateMutability": "view",
            "type": "function"
        },
        {
            "inputs": [],
            "name": "getProvider",
            "outputs": [
                {
                    "internalType": "address",
                    "name": "",
                    "type": "address"
                }
            ],
            "stateMutability": "view",
            "type": "function"
        },
        {
            "inputs": [],
            "name": "getTcb",
            "outputs": [
                {
                    "internalType": "address",
                    "name": "",
                    "type": "address"
                }
            ],
            "stateMutability": "view",
            "type": "function"
        },
        {
            "inputs": [],
            "name": "getTlb",
            "outputs": [
                {
                    "internalType": "string",
                    "name": "",
                    "type": "string"
                }
            ],
            "stateMutability": "view",
            "type": "function"
        },
        {
            "inputs": [],
            "name": "getTotalLocked",
            "outputs": [
                {
                    "internalType": "uint256",
                    "name": "",
                    "type": "uint256"
                }
            ],
            "stateMutability": "view",
            "type": "function"
        },
        {
            "inputs": [
                {
                    "internalType": "address",
                    "name": "checkedTcb",
                    "type": "address"
                }
            ],
            "name": "hasTcb",
            "outputs": [
                {
                    "internalType": "bool",
                    "name": "",
                    "type": "bool"
                }
            ],
            "stateMutability": "view",
            "type": "function"
        },
        {
            "inputs": [],
            "name": "incrPenalties",
            "outputs": [],
            "stateMutability": "nonpayable",
            "type": "function"
        },
        {
            "inputs": [],
            "name": "isCancelable",
            "outputs": [
                {
                    "internalType": "bool",
                    "name": "",
                    "type": "bool"
                }
            ],
            "stateMutability": "pure",
            "type": "function"
        },
        {
            "inputs": [],
            "name": "isEnabled",
            "outputs": [
                {
                    "internalType": "bool",
                    "name": "",
                    "type": "bool"
                }
            ],
            "stateMutability": "view",
            "type": "function"
        },
        {
            "inputs": [
                {
                    "internalType": "address",
                    "name": "lockedTcb",
                    "type": "address"
                },
                {
                    "internalType": "uint256",
                    "name": "reward",
                    "type": "uint256"
                }
            ],
            "name": "lock",
            "outputs": [],
            "stateMutability": "nonpayable",
            "type": "function"
        },
        {
            "inputs": [
                {
                    "components": [
                        {
                            "internalType": "string",
                            "name": "name",
                            "type": "string"
                        },
                        {
                            "internalType": "string",
                            "name": "description",
                            "type": "string"
                        },
                        {
                            "internalType": "string",
                            "name": "teeType",
                            "type": "string"
                        },
                        {
                            "internalType": "uint32",
                            "name": "slots",
                            "type": "uint32"
                        },
                        {
                            "internalType": "uint64",
                            "name": "minTimeMinutes",
                            "type": "uint64"
                        },
                        {
                            "internalType": "string",
                            "name": "properties",
                            "type": "string"
                        },
                        {
                            "internalType": "address",
                            "name": "tcb",
                            "type": "address"
                        },
                        {
                            "internalType": "string",
                            "name": "tlb",
                            "type": "string"
                        },
                        {
                            "internalType": "string",
                            "name": "argsPublicKey",
                            "type": "string"
                        },
                        {
                            "internalType": "string",
                            "name": "argsPublicKeyAlgo",
                            "type": "string"
                        }
                    ],
                    "internalType": "struct TeeOfferInfo",
                    "name": "_info",
                    "type": "tuple"
                }
            ],
            "name": "modify",
            "outputs": [],
            "stateMutability": "nonpayable",
            "type": "function"
        },
        {
            "inputs": [
                {
                    "internalType": "uint256",
                    "name": "slots",
                    "type": "uint256"
                }
            ],
            "name": "rentSlots",
            "outputs": [],
            "stateMutability": "nonpayable",
            "type": "function"
        },
        {
            "inputs": [
                {
                    "internalType": "address",
                    "name": "unlockedTcb",
                    "type": "address"
                },
                {
                    "internalType": "uint256",
                    "name": "reward",
                    "type": "uint256"
                }
            ],
            "name": "unlock",
            "outputs": [],
            "stateMutability": "nonpayable",
            "type": "function"
        }
    ],
    "bytecode": "0x60806040523480156200001157600080fd5b5060405162002dfc38038062002dfc833981016040819052620000349162000339565b600080546001600160a01b0319166001600160a01b0384161790558051805182916002916200006b918391602090910190620001b8565b506020828101518051620000869260018501920190620001b8565b5060408201518051620000a4916002840191602090910190620001b8565b50606082015160038201805460808501516001600160401b0316640100000000026001600160601b031990911663ffffffff9093169290921791909117905560a0820151805162000100916004840191602090910190620001b8565b5060c08201516005820180546001600160a01b0319166001600160a01b0390921691909117905560e0820151805162000144916006840191602090910190620001b8565b50610100820151805162000163916007840191602090910190620001b8565b50610120820151805162000182916008840191602090910190620001b8565b5050600060128190556001555050600b80546001600160a01b0319166001600160a01b03939093169290921790915550620005a5565b828054620001c69062000552565b90600052602060002090601f016020900481019282620001ea576000855562000235565b82601f106200020557805160ff191683800117855562000235565b8280016001018555821562000235579182015b828111156200023557825182559160200191906001019062000218565b506200024392915062000247565b5090565b5b8082111562000243576000815560010162000248565b80516001600160a01b03811681146200027657600080fd5b919050565b600082601f8301126200028c578081fd5b81516001600160401b03811115620002a857620002a86200058f565b6020620002be601f8301601f191682016200051f565b8281528582848701011115620002d2578384fd5b835b83811015620002f1578581018301518282018401528201620002d4565b838111156200030257848385840101525b5095945050505050565b805163ffffffff811681146200027657600080fd5b80516001600160401b03811681146200027657600080fd5b6000806000606084860312156200034e578283fd5b62000359846200025e565b925062000369602085016200025e565b60408501519092506001600160401b038082111562000386578283fd5b9085019061014082880312156200039b578283fd5b620003a5620004f3565b825182811115620003b4578485fd5b620003c2898286016200027b565b825250602083015182811115620003d7578485fd5b620003e5898286016200027b565b602083015250604083015182811115620003fd578485fd5b6200040b898286016200027b565b6040830152506200041f606084016200030c565b6060820152620004326080840162000321565b608082015260a08301518281111562000449578485fd5b62000457898286016200027b565b60a0830152506200046b60c084016200025e565b60c082015260e08301518281111562000482578485fd5b62000490898286016200027b565b60e0830152506101008084015183811115620004aa578586fd5b620004b88a8287016200027b565b8284015250506101208084015183811115620004d2578586fd5b620004e08a8287016200027b565b8284015250508093505050509250925092565b60405161014081016001600160401b03811182821017156200051957620005196200058f565b60405290565b604051601f8201601f191681016001600160401b03811182821017156200054a576200054a6200058f565b604052919050565b600181811c908216806200056757607f821691505b602082108114156200058957634e487b7160e01b600052602260045260246000fd5b50919050565b634e487b7160e01b600052604160045260246000fd5b61284780620005b56000396000f3fe608060405234801561001057600080fd5b50600436106101ae5760003560e01c80637eee288d116100ee578063c439c04511610097578063d96b262b11610071578063d96b262b1461035f578063eb764ad214610367578063f328f55f1461037a578063f4732da61461038d57600080fd5b8063c439c04514610331578063c6f3d61c14610339578063d016da251461034c57600080fd5b8063a804e233116100c8578063a804e233146102f2578063af5372e614610311578063c422c1b11461032057600080fd5b80637eee288d146102cf5780638a35e942146102e2578063a3907d71146102ea57600080fd5b80633f3de01c1161015b5780636aa633b6116101355780636aa633b6146102735780636d483c841461027b5780636d4ce63c146102835780637238ccdb1461029a57600080fd5b80633f3de01c14610224578063483d45bd146102395780635a9b0b891461025e57600080fd5b80632c413abf1161018c5780632c413abf146101f35780632f2770db146102065780633e7ccd271461020e57600080fd5b80631bffb491146101b3578063282d3fdf146101cb57806328e01805146101e0575b600080fd5b60015b60405190151581526020015b60405180910390f35b6101de6101d93660046122a6565b610395565b005b6101b66101ee366004612267565b610513565b6101de610201366004612267565b61054c565b6101de6105e8565b610216610849565b6040519081526020016101c2565b61022c610866565b6040516101c29190612664565b6000546001600160a01b03165b6040516001600160a01b0390911681526020016101c2565b6102666108fb565b6040516101c29190612677565b6101b6610dbe565b600154610216565b61028b610dd6565b6040516101c29392919061268a565b6102ad6102a8366004612267565b6112bc565b60408051825181526020808401519082015291810151908201526060016101c2565b6101de6102dd3660046122a6565b611322565b61021661150c565b6101de6116e6565b600054600160a01b900460ff1660405160ff90911681526020016101c2565b60006040516101c2919061263c565b6007546001600160a01b0316610246565b6101de61186b565b6101de6103473660046122f1565b6118d4565b6101de61035a366004612324565b6119d9565b6101de611bf2565b6101de610375366004612499565b611cae565b6101de610388366004612499565b611df0565b601154610216565b61039d611eab565b600c546001600160a01b031633146103fc5760405162461bcd60e51b815260206004820152601c60248201527f4f6e6c7920617661696c61626c6520666f72205465654f66666572730000000060448201526064015b60405180910390fd5b610404611eab565b426000610414610e106018612719565b600b546040516303a2216d60e01b815263ffffffff92909216916001600160a01b03909116906303a2216d9061044f90600190600401612650565b60206040518083038186803b15801561046757600080fd5b505afa15801561047b573d6000803e3d6000fd5b505050506040513d601f19601f8201168201806040525081019061049f91906124b1565b6104a991906126fa565b6104b390426126e2565b6001600160a01b0385166000908152600f602052604081208481556001810183905560028101805493945090928692906104ee9084906126e2565b92505081905550836011600082825461050791906126e2565b90915550505050505050565b6007546001600160a01b03828116600081815260106020526040812054909392909216149060ff1681806105445750805b949350505050565b610554611eab565b600c546001600160a01b031633146105ae5760405162461bcd60e51b815260206004820152601c60248201527f4f6e6c7920617661696c61626c6520666f72205465654f66666572730000000060448201526064016103f3565b600780546001600160a01b039092166001600160a01b0319909216821790556000908152601060205260409020805460ff19166001179055565b60008054906101000a90046001600160a01b03166001600160a01b0316636760c4b76040518163ffffffff1660e01b815260040160206040518083038186803b15801561063457600080fd5b505afa158015610648573d6000803e3d6000fd5b505050506040513d601f19601f8201168201806040525081019061066c919061228a565b6001600160a01b0316336001600160a01b0316146106d65760405162461bcd60e51b815260206004820152602160248201527f4f6e6c7920617661696c61626c6520666f7220416374696f6e206163636f756e6044820152601d60fa1b60648201526084016103f3565b6106de611eab565b6001541561072e5760405162461bcd60e51b815260206004820152601960248201527f4f6666657220697320616c72656164792064697361626c65640000000000000060448201526064016103f3565b61073b610e106018612719565b600b546040516303a2216d60e01b815263ffffffff92909216916001600160a01b03909116906303a2216d90610775906004908101612650565b60206040518083038186803b15801561078d57600080fd5b505afa1580156107a1573d6000803e3d6000fd5b505050506040513d601f19601f820116820180604052508101906107c591906124b1565b6107cf91906126fa565b6107d990426126e2565b600181905560008054604051639789e32360e01b8152600481019290925260248201929092526001600160a01b0390911690639789e323906044015b600060405180830381600087803b15801561082f57600080fd5b505af1158015610843573d6000803e3d6000fd5b50505050565b6012546005546000916108619163ffffffff16612745565b905090565b6060600260060180546108789061275c565b80601f01602080910402602001604051908101604052809291908181526020018280546108a49061275c565b80156108f15780601f106108c6576101008083540402835291602001916108f1565b820191906000526020600020905b8154815290600101906020018083116108d457829003601f168201915b5050505050905090565b61096a604051806101400160405280606081526020016060815260200160608152602001600063ffffffff168152602001600067ffffffffffffffff1681526020016060815260200160006001600160a01b031681526020016060815260200160608152602001606081525090565b6002604051806101400160405290816000820180546109889061275c565b80601f01602080910402602001604051908101604052809291908181526020018280546109b49061275c565b8015610a015780601f106109d657610100808354040283529160200191610a01565b820191906000526020600020905b8154815290600101906020018083116109e457829003601f168201915b50505050508152602001600182018054610a1a9061275c565b80601f0160208091040260200160405190810160405280929190818152602001828054610a469061275c565b8015610a935780601f10610a6857610100808354040283529160200191610a93565b820191906000526020600020905b815481529060010190602001808311610a7657829003601f168201915b50505050508152602001600282018054610aac9061275c565b80601f0160208091040260200160405190810160405280929190818152602001828054610ad89061275c565b8015610b255780601f10610afa57610100808354040283529160200191610b25565b820191906000526020600020905b815481529060010190602001808311610b0857829003601f168201915b5050509183525050600382015463ffffffff81166020830152640100000000900467ffffffffffffffff166040820152600482018054606090920191610b6a9061275c565b80601f0160208091040260200160405190810160405280929190818152602001828054610b969061275c565b8015610be35780601f10610bb857610100808354040283529160200191610be3565b820191906000526020600020905b815481529060010190602001808311610bc657829003601f168201915b505050918352505060058201546001600160a01b03166020820152600682018054604090920191610c139061275c565b80601f0160208091040260200160405190810160405280929190818152602001828054610c3f9061275c565b8015610c8c5780601f10610c6157610100808354040283529160200191610c8c565b820191906000526020600020905b815481529060010190602001808311610c6f57829003601f168201915b50505050508152602001600782018054610ca59061275c565b80601f0160208091040260200160405190810160405280929190818152602001828054610cd19061275c565b8015610d1e5780601f10610cf357610100808354040283529160200191610d1e565b820191906000526020600020905b815481529060010190602001808311610d0157829003601f168201915b50505050508152602001600882018054610d379061275c565b80601f0160208091040260200160405190810160405280929190818152602001828054610d639061275c565b8015610db05780601f10610d8557610100808354040283529160200191610db0565b820191906000526020600020905b815481529060010190602001808311610d9357829003601f168201915b505050505081525050905090565b60006001546000148061086157505060015442111590565b610e45604051806101400160405280606081526020016060815260200160608152602001600063ffffffff168152602001600067ffffffffffffffff1681526020016060815260200160006001600160a01b031681526020016060815260200160608152602001606081525090565b600080600260008054906101000a90046001600160a01b03166001548260405180610140016040529081600082018054610e7e9061275c565b80601f0160208091040260200160405190810160405280929190818152602001828054610eaa9061275c565b8015610ef75780601f10610ecc57610100808354040283529160200191610ef7565b820191906000526020600020905b815481529060010190602001808311610eda57829003601f168201915b50505050508152602001600182018054610f109061275c565b80601f0160208091040260200160405190810160405280929190818152602001828054610f3c9061275c565b8015610f895780601f10610f5e57610100808354040283529160200191610f89565b820191906000526020600020905b815481529060010190602001808311610f6c57829003601f168201915b50505050508152602001600282018054610fa29061275c565b80601f0160208091040260200160405190810160405280929190818152602001828054610fce9061275c565b801561101b5780601f10610ff05761010080835404028352916020019161101b565b820191906000526020600020905b815481529060010190602001808311610ffe57829003601f168201915b5050509183525050600382015463ffffffff81166020830152640100000000900467ffffffffffffffff1660408201526004820180546060909201916110609061275c565b80601f016020809104026020016040519081016040528092919081815260200182805461108c9061275c565b80156110d95780601f106110ae576101008083540402835291602001916110d9565b820191906000526020600020905b8154815290600101906020018083116110bc57829003601f168201915b505050918352505060058201546001600160a01b031660208201526006820180546040909201916111099061275c565b80601f01602080910402602001604051908101604052809291908181526020018280546111359061275c565b80156111825780601f1061115757610100808354040283529160200191611182565b820191906000526020600020905b81548152906001019060200180831161116557829003601f168201915b5050505050815260200160078201805461119b9061275c565b80601f01602080910402602001604051908101604052809291908181526020018280546111c79061275c565b80156112145780601f106111e957610100808354040283529160200191611214565b820191906000526020600020905b8154815290600101906020018083116111f757829003601f168201915b5050505050815260200160088201805461122d9061275c565b80601f01602080910402602001604051908101604052809291908181526020018280546112599061275c565b80156112a65780601f1061127b576101008083540402835291602001916112a6565b820191906000526020600020905b81548152906001019060200180831161128957829003601f168201915b5050505050815250509250925092509250909192565b6112e060405180606001604052806000815260200160008152602001600081525090565b506001600160a01b03166000908152600f6020908152604091829020825160608101845281548152600182015492810192909252600201549181019190915290565b61132a611eab565b600c546001600160a01b031633146113845760405162461bcd60e51b815260206004820152601c60248201527f4f6e6c7920617661696c61626c6520666f72205465654f66666572730000000060448201526064016103f3565b61138c611eab565b6001600160a01b0382166000908152600f60205260409020601154158015906113bb5750806002015460115410155b61142d5760405162461bcd60e51b815260206004820152602c60248201527f52657761726420666f7220746869732054434220636f6e66697363617465642060448201527f627920436f6e73656e737573000000000000000000000000000000000000000060648201526084016103f3565b80600201548211156114815760405162461bcd60e51b815260206004820152601860248201527f4e6f7420656e6f756768206c6f636b656420746f6b656e73000000000000000060448201526064016103f3565b42816001015411156114d55760405162461bcd60e51b815260206004820152601460248201527f546f6f206561726c7920666f7220756e6c6f636b00000000000000000000000060448201526064016103f3565b818160020160008282546114e99190612745565b9250508190555081601160008282546115029190612745565b9091555050505050565b6007546000906001600160a01b03166115255750600090565b600b805460405163bcaa0c5560e01b81526000926001600160a01b039092169163bcaa0c55916115589190600401612622565b60206040518083038186803b15801561157057600080fd5b505afa158015611584573d6000803e3d6000fd5b505050506040513d601f19601f820116820180604052508101906115a8919061228a565b6007546040517f31aeceac0000000000000000000000000000000000000000000000000000000081526001600160a01b0391821660048201529192508216906331aeceac9060240160206040518083038186803b15801561160857600080fd5b505afa15801561161c573d6000803e3d6000fd5b505050506040513d601f19601f8201168201806040525081019061164091906124b1565b6007546040517fc00007b00000000000000000000000000000000000000000000000000000000081526001600160a01b0391821660048201529083169063c00007b09060240160206040518083038186803b15801561169e57600080fd5b505afa1580156116b2573d6000803e3d6000fd5b505050506040513d601f19601f820116820180604052508101906116d691906124b1565b6116e091906126e2565b91505090565b60008054906101000a90046001600160a01b03166001600160a01b0316636760c4b76040518163ffffffff1660e01b815260040160206040518083038186803b15801561173257600080fd5b505afa158015611746573d6000803e3d6000fd5b505050506040513d601f19601f8201168201806040525081019061176a919061228a565b6001600160a01b0316336001600160a01b0316146117d45760405162461bcd60e51b815260206004820152602160248201527f4f6e6c7920617661696c61626c6520666f7220416374696f6e206163636f756e6044820152601d60fa1b60648201526084016103f3565b6117dc611eab565b60015461182b5760405162461bcd60e51b815260206004820152601860248201527f4f6666657220697320616c726561647920656e61626c6564000000000000000060448201526064016103f3565b600060018181558154604051639789e32360e01b8152600481019290925260248201929092526001600160a01b0390911690639789e32390604401610815565b611873611eab565b600c546001600160a01b031633146118cd5760405162461bcd60e51b815260206004820152601c60248201527f4f6e6c7920617661696c61626c6520666f72205465654f66666572730000000060448201526064016103f3565b6000601155565b60008054906101000a90046001600160a01b03166001600160a01b0316636760c4b76040518163ffffffff1660e01b815260040160206040518083038186803b15801561192057600080fd5b505afa158015611934573d6000803e3d6000fd5b505050506040513d601f19601f82011682018060405250810190611958919061228a565b6001600160a01b0316336001600160a01b0316146119c25760405162461bcd60e51b815260206004820152602160248201527f4f6e6c7920617661696c61626c6520666f7220416374696f6e206163636f756e6044820152601d60fa1b60648201526084016103f3565b80516119d590600890602084019061210b565b5050565b60008054906101000a90046001600160a01b03166001600160a01b0316636760c4b76040518163ffffffff1660e01b815260040160206040518083038186803b158015611a2557600080fd5b505afa158015611a39573d6000803e3d6000fd5b505050506040513d601f19601f82011682018060405250810190611a5d919061228a565b6001600160a01b0316336001600160a01b031614611ac75760405162461bcd60e51b815260206004820152602160248201527f4f6e6c7920617661696c61626c6520666f7220416374696f6e206163636f756e6044820152601d60fa1b60648201526084016103f3565b805180518291600291611ae191839160209091019061210b565b506020828101518051611afa926001850192019061210b565b5060408201518051611b1691600284019160209091019061210b565b506060820151600382018054608085015167ffffffffffffffff16640100000000026bffffffffffffffffffffffff1990911663ffffffff9093169290921791909117905560a08201518051611b7691600484019160209091019061210b565b5060c08201516005820180546001600160a01b0319166001600160a01b0390921691909117905560e08201518051611bb891600684019160209091019061210b565b506101008201518051611bd591600784019160209091019061210b565b50610120820151805161084391600884019160209091019061210b565b611bfa611eab565b600e546001600160a01b03163314611c7a5760405162461bcd60e51b815260206004820152602360248201527f417661696c61626c65206f6e6c7920666f722050726f7669646572526567697360448201527f747279000000000000000000000000000000000000000000000000000000000060648201526084016103f3565b60008054601490611c9490600160a01b900460ff16612797565b91906101000a81548160ff021916908360ff160217905550565b611cb6611eab565b600d546040517eb734e10000000000000000000000000000000000000000000000000000000081523360048201526001600160a01b039091169062b734e19060240160206040518083038186803b158015611d1057600080fd5b505afa158015611d24573d6000803e3d6000fd5b505050506040513d601f19601f82011682018060405250810190611d4891906122d1565b611d845760405162461bcd60e51b815260206004820152600d60248201526c1058d8d95cdcc819195b9a5959609a1b60448201526064016103f3565b601254811115611dd65760405162461bcd60e51b815260206004820152601260248201527f3530302e20496e76616c696420736c6f7473000000000000000000000000000060448201526064016103f3565b8060126000828254611de89190612745565b909155505050565b611df8611eab565b600d546001600160a01b03163314611e425760405162461bcd60e51b815260206004820152600d60248201526c1058d8d95cdcc819195b9a5959609a1b60448201526064016103f3565b611e4a610849565b811115611e995760405162461bcd60e51b815260206004820152600d60248201527f4e6f206672656520736c6f74730000000000000000000000000000000000000060448201526064016103f3565b8060126000828254611de891906126e2565b600b60009054906101000a90046001600160a01b03166001600160a01b031663f1f0bd016040518163ffffffff1660e01b815260040160206040518083038186803b158015611ef957600080fd5b505afa158015611f0d573d6000803e3d6000fd5b505050506040513d601f19601f82011682018060405250810190611f31919061228a565b600b80546001600160a01b0319166001600160a01b0392909216918217905560405163bcaa0c5560e01b815263bcaa0c5590611f71906004908101612622565b60206040518083038186803b158015611f8957600080fd5b505afa158015611f9d573d6000803e3d6000fd5b505050506040513d601f19601f82011682018060405250810190611fc1919061228a565b600c80546001600160a01b0319166001600160a01b03928316179055600b5460405163bcaa0c5560e01b815291169063bcaa0c559061200590600090600401612622565b60206040518083038186803b15801561201d57600080fd5b505afa158015612031573d6000803e3d6000fd5b505050506040513d601f19601f82011682018060405250810190612055919061228a565b600d80546001600160a01b0319166001600160a01b03928316179055600b5460405163bcaa0c5560e01b815291169063bcaa0c559061209990600190600401612622565b60206040518083038186803b1580156120b157600080fd5b505afa1580156120c5573d6000803e3d6000fd5b505050506040513d601f19601f820116820180604052508101906120e9919061228a565b600e80546001600160a01b0319166001600160a01b0392909216919091179055565b8280546121179061275c565b90600052602060002090601f016020900481019282612139576000855561217f565b82601f1061215257805160ff191683800117855561217f565b8280016001018555821561217f579182015b8281111561217f578251825591602001919060010190612164565b5061218b92915061218f565b5090565b5b8082111561218b5760008155600101612190565b80356121af816127f9565b919050565b600082601f8301126121c4578081fd5b813567ffffffffffffffff808211156121df576121df6127e3565b604051601f8301601f19908116603f01168101908282118183101715612207576122076127e3565b8160405283815286602085880101111561221f578485fd5b8360208701602083013792830160200193909352509392505050565b803563ffffffff811681146121af57600080fd5b803567ffffffffffffffff811681146121af57600080fd5b600060208284031215612278578081fd5b8135612283816127f9565b9392505050565b60006020828403121561229b578081fd5b8151612283816127f9565b600080604083850312156122b8578081fd5b82356122c3816127f9565b946020939093013593505050565b6000602082840312156122e2578081fd5b81518015158114612283578182fd5b600060208284031215612302578081fd5b813567ffffffffffffffff811115612318578182fd5b610544848285016121b4565b600060208284031215612335578081fd5b813567ffffffffffffffff8082111561234c578283fd5b908301906101408286031215612360578283fd5b6123686126b8565b823582811115612376578485fd5b612382878286016121b4565b825250602083013582811115612396578485fd5b6123a2878286016121b4565b6020830152506040830135828111156123b9578485fd5b6123c5878286016121b4565b6040830152506123d76060840161223b565b60608201526123e86080840161224f565b608082015260a0830135828111156123fe578485fd5b61240a878286016121b4565b60a08301525061241c60c084016121a4565b60c082015260e083013582811115612432578485fd5b61243e878286016121b4565b60e0830152506101008084013583811115612457578586fd5b612463888287016121b4565b828401525050610120808401358381111561247c578586fd5b612488888287016121b4565b918301919091525095945050505050565b6000602082840312156124aa578081fd5b5035919050565b6000602082840312156124c2578081fd5b5051919050565b60008151808452815b818110156124ee576020818501810151868301820152016124d2565b818111156124ff5782602083870101525b50601f01601f19169290920160200192915050565b6000610140825181855261252a828601826124c9565b9150506020830151848203602086015261254482826124c9565b9150506040830151848203604086015261255e82826124c9565b9150506060830151612578606086018263ffffffff169052565b506080830151612594608086018267ffffffffffffffff169052565b5060a083015184820360a08601526125ac82826124c9565b91505060c08301516125c960c08601826001600160a01b03169052565b5060e083015184820360e08601526125e182826124c9565b91505061010080840151858303828701526125fc83826124c9565b92505050610120808401518583038287015261261883826124c9565b9695505050505050565b60208101600c8310612636576126366127cd565b91905290565b6020810160048310612636576126366127cd565b6020810160118310612636576126366127cd565b60208152600061228360208301846124c9565b6020815260006122836020830184612514565b60608152600061269d6060830186612514565b6001600160a01b039490941660208301525060400152919050565b604051610140810167ffffffffffffffff811182821017156126dc576126dc6127e3565b60405290565b600082198211156126f5576126f56127b7565b500190565b6000816000190483118215151615612714576127146127b7565b500290565b600063ffffffff8083168185168183048111821515161561273c5761273c6127b7565b02949350505050565b600082821015612757576127576127b7565b500390565b600181811c9082168061277057607f821691505b6020821081141561279157634e487b7160e01b600052602260045260246000fd5b50919050565b600060ff821660ff8114156127ae576127ae6127b7565b60010192915050565b634e487b7160e01b600052601160045260246000fd5b634e487b7160e01b600052602160045260246000fd5b634e487b7160e01b600052604160045260246000fd5b6001600160a01b038116811461280e57600080fd5b5056fea264697066735822122041062cfe87e40cab9cbf5b4cacf657d1082fc222667b51cfd537a72f64b6621f64736f6c63430008040033",
    "linkReferences": {},
    "deployedLinkReferences": {}
}