{
    "_format": "hh-sol-artifact-1",
    "contractName": "TeeOffer",
    "sourceName": "contracts/TeeOffer.sol",
    "abi": [
        {
            "inputs": [
                {
                    "internalType": "address",
                    "name": "_superpro",
                    "type": "address"
                },
                {
                    "internalType": "address",
                    "name": "_provider",
                    "type": "address"
                },
                {
                    "components": [
                        {
                            "internalType": "string",
                            "name": "name",
                            "type": "string"
                        },
                        {
                            "internalType": "string",
                            "name": "description",
                            "type": "string"
                        },
                        {
                            "internalType": "string",
                            "name": "teeType",
                            "type": "string"
                        },
                        {
                            "internalType": "uint32",
                            "name": "slots",
                            "type": "uint32"
                        },
                        {
                            "internalType": "uint64",
                            "name": "minTimeMinutes",
                            "type": "uint64"
                        },
                        {
                            "internalType": "string",
                            "name": "properties",
                            "type": "string"
                        },
                        {
                            "internalType": "address",
                            "name": "tcb",
                            "type": "address"
                        },
                        {
                            "internalType": "string",
                            "name": "tlb",
                            "type": "string"
                        },
                        {
                            "internalType": "string",
                            "name": "argsPublicKey",
                            "type": "string"
                        },
                        {
                            "internalType": "string",
                            "name": "argsPublicKeyAlgo",
                            "type": "string"
                        }
                    ],
                    "internalType": "struct TeeOfferInfo",
                    "name": "_info",
                    "type": "tuple"
                }
            ],
            "stateMutability": "nonpayable",
            "type": "constructor"
        },
        {
            "inputs": [
                {
                    "internalType": "address",
                    "name": "tcb",
                    "type": "address"
                }
            ],
            "name": "addTcb",
            "outputs": [],
            "stateMutability": "nonpayable",
            "type": "function"
        },
        {
            "inputs": [
                {
                    "internalType": "string",
                    "name": "tlb",
                    "type": "string"
                }
            ],
            "name": "addTlb",
            "outputs": [],
            "stateMutability": "nonpayable",
            "type": "function"
        },
        {
            "inputs": [],
            "name": "confiscateAll",
            "outputs": [],
            "stateMutability": "nonpayable",
            "type": "function"
        },
        {
            "inputs": [],
            "name": "disable",
            "outputs": [],
            "stateMutability": "nonpayable",
            "type": "function"
        },
        {
            "inputs": [],
            "name": "enable",
            "outputs": [],
            "stateMutability": "nonpayable",
            "type": "function"
        },
        {
            "inputs": [],
            "name": "get",
            "outputs": [
                {
                    "components": [
                        {
                            "internalType": "string",
                            "name": "name",
                            "type": "string"
                        },
                        {
                            "internalType": "string",
                            "name": "description",
                            "type": "string"
                        },
                        {
                            "internalType": "string",
                            "name": "teeType",
                            "type": "string"
                        },
                        {
                            "internalType": "uint32",
                            "name": "slots",
                            "type": "uint32"
                        },
                        {
                            "internalType": "uint64",
                            "name": "minTimeMinutes",
                            "type": "uint64"
                        },
                        {
                            "internalType": "string",
                            "name": "properties",
                            "type": "string"
                        },
                        {
                            "internalType": "address",
                            "name": "tcb",
                            "type": "address"
                        },
                        {
                            "internalType": "string",
                            "name": "tlb",
                            "type": "string"
                        },
                        {
                            "internalType": "string",
                            "name": "argsPublicKey",
                            "type": "string"
                        },
                        {
                            "internalType": "string",
                            "name": "argsPublicKeyAlgo",
                            "type": "string"
                        }
                    ],
                    "internalType": "struct TeeOfferInfo",
                    "name": "",
                    "type": "tuple"
                },
                {
                    "internalType": "address",
                    "name": "",
                    "type": "address"
                },
                {
                    "internalType": "uint256",
                    "name": "",
                    "type": "uint256"
                }
            ],
            "stateMutability": "view",
            "type": "function"
        },
        {
            "inputs": [],
            "name": "getDisalbedAfter",
            "outputs": [
                {
                    "internalType": "uint256",
                    "name": "",
                    "type": "uint256"
                }
            ],
            "stateMutability": "view",
            "type": "function"
        },
        {
            "inputs": [],
            "name": "getInfo",
            "outputs": [
                {
                    "components": [
                        {
                            "internalType": "string",
                            "name": "name",
                            "type": "string"
                        },
                        {
                            "internalType": "string",
                            "name": "description",
                            "type": "string"
                        },
                        {
                            "internalType": "string",
                            "name": "teeType",
                            "type": "string"
                        },
                        {
                            "internalType": "uint32",
                            "name": "slots",
                            "type": "uint32"
                        },
                        {
                            "internalType": "uint64",
                            "name": "minTimeMinutes",
                            "type": "uint64"
                        },
                        {
                            "internalType": "string",
                            "name": "properties",
                            "type": "string"
                        },
                        {
                            "internalType": "address",
                            "name": "tcb",
                            "type": "address"
                        },
                        {
                            "internalType": "string",
                            "name": "tlb",
                            "type": "string"
                        },
                        {
                            "internalType": "string",
                            "name": "argsPublicKey",
                            "type": "string"
                        },
                        {
                            "internalType": "string",
                            "name": "argsPublicKeyAlgo",
                            "type": "string"
                        }
                    ],
                    "internalType": "struct TeeOfferInfo",
                    "name": "",
                    "type": "tuple"
                }
            ],
            "stateMutability": "view",
            "type": "function"
        },
        {
            "inputs": [],
            "name": "getLastTcbReward",
            "outputs": [
                {
                    "internalType": "uint256",
                    "name": "",
                    "type": "uint256"
                }
            ],
            "stateMutability": "view",
            "type": "function"
        },
        {
            "inputs": [
                {
                    "internalType": "address",
                    "name": "lockedTcb",
                    "type": "address"
                }
            ],
            "name": "getLockInfo",
            "outputs": [
                {
                    "components": [
                        {
                            "internalType": "uint256",
                            "name": "fromDate",
                            "type": "uint256"
                        },
                        {
                            "internalType": "uint256",
                            "name": "toDate",
                            "type": "uint256"
                        },
                        {
                            "internalType": "uint256",
                            "name": "amount",
                            "type": "uint256"
                        }
                    ],
                    "internalType": "struct LockedTokens",
                    "name": "",
                    "type": "tuple"
                }
            ],
            "stateMutability": "view",
            "type": "function"
        },
        {
            "inputs": [],
            "name": "getOfferType",
            "outputs": [
                {
                    "internalType": "enum OfferType",
                    "name": "",
                    "type": "uint8"
                }
            ],
            "stateMutability": "pure",
            "type": "function"
        },
        {
            "inputs": [],
            "name": "getPenaltiesCount",
            "outputs": [
                {
                    "internalType": "uint8",
                    "name": "",
                    "type": "uint8"
                }
            ],
            "stateMutability": "view",
            "type": "function"
        },
        {
            "inputs": [],
            "name": "getProvider",
            "outputs": [
                {
                    "internalType": "address",
                    "name": "",
                    "type": "address"
                }
            ],
            "stateMutability": "view",
            "type": "function"
        },
        {
            "inputs": [],
            "name": "getTcb",
            "outputs": [
                {
                    "internalType": "address",
                    "name": "",
                    "type": "address"
                }
            ],
            "stateMutability": "view",
            "type": "function"
        },
        {
            "inputs": [],
            "name": "getTlb",
            "outputs": [
                {
                    "internalType": "string",
                    "name": "",
                    "type": "string"
                }
            ],
            "stateMutability": "view",
            "type": "function"
        },
        {
            "inputs": [],
            "name": "getTotalLocked",
            "outputs": [
                {
                    "internalType": "uint256",
                    "name": "",
                    "type": "uint256"
                }
            ],
            "stateMutability": "view",
            "type": "function"
        },
        {
            "inputs": [
                {
                    "internalType": "address",
                    "name": "checkedTcb",
                    "type": "address"
                }
            ],
            "name": "hasTcb",
            "outputs": [
                {
                    "internalType": "bool",
                    "name": "",
                    "type": "bool"
                }
            ],
            "stateMutability": "view",
            "type": "function"
        },
        {
            "inputs": [],
            "name": "incrPenalties",
            "outputs": [],
            "stateMutability": "nonpayable",
            "type": "function"
        },
        {
            "inputs": [],
            "name": "isCancelable",
            "outputs": [
                {
                    "internalType": "bool",
                    "name": "",
                    "type": "bool"
                }
            ],
            "stateMutability": "pure",
            "type": "function"
        },
        {
            "inputs": [],
            "name": "isEnabled",
            "outputs": [
                {
                    "internalType": "bool",
                    "name": "",
                    "type": "bool"
                }
            ],
            "stateMutability": "view",
            "type": "function"
        },
        {
            "inputs": [
                {
                    "internalType": "address",
                    "name": "lockedTcb",
                    "type": "address"
                },
                {
                    "internalType": "uint256",
                    "name": "reward",
                    "type": "uint256"
                }
            ],
            "name": "lock",
            "outputs": [],
            "stateMutability": "nonpayable",
            "type": "function"
        },
        {
            "inputs": [
                {
                    "components": [
                        {
                            "internalType": "string",
                            "name": "name",
                            "type": "string"
                        },
                        {
                            "internalType": "string",
                            "name": "description",
                            "type": "string"
                        },
                        {
                            "internalType": "string",
                            "name": "teeType",
                            "type": "string"
                        },
                        {
                            "internalType": "uint32",
                            "name": "slots",
                            "type": "uint32"
                        },
                        {
                            "internalType": "uint64",
                            "name": "minTimeMinutes",
                            "type": "uint64"
                        },
                        {
                            "internalType": "string",
                            "name": "properties",
                            "type": "string"
                        },
                        {
                            "internalType": "address",
                            "name": "tcb",
                            "type": "address"
                        },
                        {
                            "internalType": "string",
                            "name": "tlb",
                            "type": "string"
                        },
                        {
                            "internalType": "string",
                            "name": "argsPublicKey",
                            "type": "string"
                        },
                        {
                            "internalType": "string",
                            "name": "argsPublicKeyAlgo",
                            "type": "string"
                        }
                    ],
                    "internalType": "struct TeeOfferInfo",
                    "name": "_info",
                    "type": "tuple"
                }
            ],
            "name": "modify",
            "outputs": [],
            "stateMutability": "nonpayable",
            "type": "function"
        },
        {
            "inputs": [
                {
                    "internalType": "address",
                    "name": "unlockedTcb",
                    "type": "address"
                },
                {
                    "internalType": "uint256",
                    "name": "reward",
                    "type": "uint256"
                }
            ],
            "name": "unlock",
            "outputs": [],
            "stateMutability": "nonpayable",
            "type": "function"
        }
    ],
    "bytecode": "0x60806040523480156200001157600080fd5b5060405162002b5438038062002b54833981016040819052620000349162000334565b600080546001600160a01b0319166001600160a01b0384161790558051805182916002916200006b918391602090910190620001b3565b506020828101518051620000869260018501920190620001b3565b5060408201518051620000a4916002840191602090910190620001b3565b50606082015160038201805460808501516001600160401b0316640100000000026001600160601b031990911663ffffffff9093169290921791909117905560a0820151805162000100916004840191602090910190620001b3565b5060c08201516005820180546001600160a01b0319166001600160a01b0390921691909117905560e0820151805162000144916006840191602090910190620001b3565b50610100820151805162000163916007840191602090910190620001b3565b50610120820151805162000182916008840191602090910190620001b3565b505060006001555050600b80546001600160a01b0319166001600160a01b03939093169290921790915550620005a0565b828054620001c1906200054d565b90600052602060002090601f016020900481019282620001e5576000855562000230565b82601f106200020057805160ff191683800117855562000230565b8280016001018555821562000230579182015b828111156200023057825182559160200191906001019062000213565b506200023e92915062000242565b5090565b5b808211156200023e576000815560010162000243565b80516001600160a01b03811681146200027157600080fd5b919050565b600082601f83011262000287578081fd5b81516001600160401b03811115620002a357620002a36200058a565b6020620002b9601f8301601f191682016200051a565b8281528582848701011115620002cd578384fd5b835b83811015620002ec578581018301518282018401528201620002cf565b83811115620002fd57848385840101525b5095945050505050565b805163ffffffff811681146200027157600080fd5b80516001600160401b03811681146200027157600080fd5b60008060006060848603121562000349578283fd5b620003548462000259565b9250620003646020850162000259565b60408501519092506001600160401b038082111562000381578283fd5b90850190610140828803121562000396578283fd5b620003a0620004ee565b825182811115620003af578485fd5b620003bd8982860162000276565b825250602083015182811115620003d2578485fd5b620003e08982860162000276565b602083015250604083015182811115620003f8578485fd5b620004068982860162000276565b6040830152506200041a6060840162000307565b60608201526200042d608084016200031c565b608082015260a08301518281111562000444578485fd5b620004528982860162000276565b60a0830152506200046660c0840162000259565b60c082015260e0830151828111156200047d578485fd5b6200048b8982860162000276565b60e0830152506101008084015183811115620004a5578586fd5b620004b38a82870162000276565b8284015250506101208084015183811115620004cd578586fd5b620004db8a82870162000276565b8284015250508093505050509250925092565b60405161014081016001600160401b03811182821017156200051457620005146200058a565b60405290565b604051601f8201601f191681016001600160401b03811182821017156200054557620005456200058a565b604052919050565b600181811c908216806200056257607f821691505b602082108114156200058457634e487b7160e01b600052602260045260246000fd5b50919050565b634e487b7160e01b600052604160045260246000fd5b6125a480620005b06000396000f3fe608060405234801561001057600080fd5b506004361061018d5760003560e01c80637238ccdb116100e3578063c422c1b11161008c578063d016da2511610066578063d016da251461031f578063d96b262b14610332578063f4732da61461033a57600080fd5b8063c422c1b1146102f3578063c439c04514610304578063c6f3d61c1461030c57600080fd5b8063a3907d71116100bd578063a3907d71146102bd578063a804e233146102c5578063af5372e6146102e457600080fd5b80637238ccdb1461026d5780637eee288d146102a25780638a35e942146102b557600080fd5b80633f3de01c116101455780636aa633b61161011f5780636aa633b61461023c5780636d483c84146102445780636d4ce63c1461025657600080fd5b80633f3de01c146101ed578063483d45bd146102025780635a9b0b891461022757600080fd5b806328e018051161017657806328e01805146101bf5780632c413abf146101d25780632f2770db146101e557600080fd5b80631bffb49114610192578063282d3fdf146101aa575b600080fd5b60015b60405190151581526020015b60405180910390f35b6101bd6101b836600461203b565b610342565b005b6101956101cd366004611ffc565b6104c0565b6101bd6101e0366004611ffc565b6104f9565b6101bd610595565b6101f56107f6565b6040516101a191906123c1565b6000546001600160a01b03165b6040516001600160a01b0390911681526020016101a1565b61022f61088b565b6040516101a191906123d4565b610195610d4e565b6001545b6040519081526020016101a1565b61025e610d68565b6040516101a1939291906123e7565b61028061027b366004611ffc565b61124e565b60408051825181526020808401519082015291810151908201526060016101a1565b6101bd6102b036600461203b565b6112b4565b61024861149e565b6101bd611678565b600054600160a01b900460ff1660405160ff90911681526020016101a1565b60006040516101a19190612399565b6007546001600160a01b031661020f565b6101bd6117fd565b6101bd61031a366004612066565b611866565b6101bd61032d366004612099565b61196b565b6101bd611b84565b601154610248565b61034a611c40565b600c546001600160a01b031633146103a95760405162461bcd60e51b815260206004820152601c60248201527f4f6e6c7920617661696c61626c6520666f72205465654f66666572730000000060448201526064015b60405180910390fd5b6103b1611c40565b4260006103c1610e106018612476565b600b546040516303a2216d60e01b815263ffffffff92909216916001600160a01b03909116906303a2216d906103fc906001906004016123ad565b60206040518083038186803b15801561041457600080fd5b505afa158015610428573d6000803e3d6000fd5b505050506040513d601f19601f8201168201806040525081019061044c919061220e565b6104569190612457565b610460904261243f565b6001600160a01b0385166000908152600f6020526040812084815560018101839055600281018054939450909286929061049b90849061243f565b9250508190555083601160008282546104b4919061243f565b90915550505050505050565b6007546001600160a01b03828116600081815260106020526040812054909392909216149060ff1681806104f15750805b949350505050565b610501611c40565b600c546001600160a01b0316331461055b5760405162461bcd60e51b815260206004820152601c60248201527f4f6e6c7920617661696c61626c6520666f72205465654f66666572730000000060448201526064016103a0565b600780546001600160a01b039092166001600160a01b0319909216821790556000908152601060205260409020805460ff19166001179055565b60008054906101000a90046001600160a01b03166001600160a01b0316636760c4b76040518163ffffffff1660e01b815260040160206040518083038186803b1580156105e157600080fd5b505afa1580156105f5573d6000803e3d6000fd5b505050506040513d601f19601f82011682018060405250810190610619919061201f565b6001600160a01b0316336001600160a01b0316146106835760405162461bcd60e51b815260206004820152602160248201527f4f6e6c7920617661696c61626c6520666f7220416374696f6e206163636f756e6044820152601d60fa1b60648201526084016103a0565b61068b611c40565b600154156106db5760405162461bcd60e51b815260206004820152601960248201527f4f6666657220697320616c72656164792064697361626c65640000000000000060448201526064016103a0565b6106e8610e106018612476565b600b546040516303a2216d60e01b815263ffffffff92909216916001600160a01b03909116906303a2216d906107229060049081016123ad565b60206040518083038186803b15801561073a57600080fd5b505afa15801561074e573d6000803e3d6000fd5b505050506040513d601f19601f82011682018060405250810190610772919061220e565b61077c9190612457565b610786904261243f565b600181905560008054604051639789e32360e01b8152600481019290925260248201929092526001600160a01b0390911690639789e323906044015b600060405180830381600087803b1580156107dc57600080fd5b505af11580156107f0573d6000803e3d6000fd5b50505050565b606060026006018054610808906124b9565b80601f0160208091040260200160405190810160405280929190818152602001828054610834906124b9565b80156108815780601f1061085657610100808354040283529160200191610881565b820191906000526020600020905b81548152906001019060200180831161086457829003601f168201915b5050505050905090565b6108fa604051806101400160405280606081526020016060815260200160608152602001600063ffffffff168152602001600067ffffffffffffffff1681526020016060815260200160006001600160a01b031681526020016060815260200160608152602001606081525090565b600260405180610140016040529081600082018054610918906124b9565b80601f0160208091040260200160405190810160405280929190818152602001828054610944906124b9565b80156109915780601f1061096657610100808354040283529160200191610991565b820191906000526020600020905b81548152906001019060200180831161097457829003601f168201915b505050505081526020016001820180546109aa906124b9565b80601f01602080910402602001604051908101604052809291908181526020018280546109d6906124b9565b8015610a235780601f106109f857610100808354040283529160200191610a23565b820191906000526020600020905b815481529060010190602001808311610a0657829003601f168201915b50505050508152602001600282018054610a3c906124b9565b80601f0160208091040260200160405190810160405280929190818152602001828054610a68906124b9565b8015610ab55780601f10610a8a57610100808354040283529160200191610ab5565b820191906000526020600020905b815481529060010190602001808311610a9857829003601f168201915b5050509183525050600382015463ffffffff81166020830152640100000000900467ffffffffffffffff166040820152600482018054606090920191610afa906124b9565b80601f0160208091040260200160405190810160405280929190818152602001828054610b26906124b9565b8015610b735780601f10610b4857610100808354040283529160200191610b73565b820191906000526020600020905b815481529060010190602001808311610b5657829003601f168201915b505050918352505060058201546001600160a01b03166020820152600682018054604090920191610ba3906124b9565b80601f0160208091040260200160405190810160405280929190818152602001828054610bcf906124b9565b8015610c1c5780601f10610bf157610100808354040283529160200191610c1c565b820191906000526020600020905b815481529060010190602001808311610bff57829003601f168201915b50505050508152602001600782018054610c35906124b9565b80601f0160208091040260200160405190810160405280929190818152602001828054610c61906124b9565b8015610cae5780601f10610c8357610100808354040283529160200191610cae565b820191906000526020600020905b815481529060010190602001808311610c9157829003601f168201915b50505050508152602001600882018054610cc7906124b9565b80601f0160208091040260200160405190810160405280929190818152602001828054610cf3906124b9565b8015610d405780601f10610d1557610100808354040283529160200191610d40565b820191906000526020600020905b815481529060010190602001808311610d2357829003601f168201915b505050505081525050905090565b600060015460001480610d6357506001544211155b905090565b610dd7604051806101400160405280606081526020016060815260200160608152602001600063ffffffff168152602001600067ffffffffffffffff1681526020016060815260200160006001600160a01b031681526020016060815260200160608152602001606081525090565b600080600260008054906101000a90046001600160a01b03166001548260405180610140016040529081600082018054610e10906124b9565b80601f0160208091040260200160405190810160405280929190818152602001828054610e3c906124b9565b8015610e895780601f10610e5e57610100808354040283529160200191610e89565b820191906000526020600020905b815481529060010190602001808311610e6c57829003601f168201915b50505050508152602001600182018054610ea2906124b9565b80601f0160208091040260200160405190810160405280929190818152602001828054610ece906124b9565b8015610f1b5780601f10610ef057610100808354040283529160200191610f1b565b820191906000526020600020905b815481529060010190602001808311610efe57829003601f168201915b50505050508152602001600282018054610f34906124b9565b80601f0160208091040260200160405190810160405280929190818152602001828054610f60906124b9565b8015610fad5780601f10610f8257610100808354040283529160200191610fad565b820191906000526020600020905b815481529060010190602001808311610f9057829003601f168201915b5050509183525050600382015463ffffffff81166020830152640100000000900467ffffffffffffffff166040820152600482018054606090920191610ff2906124b9565b80601f016020809104026020016040519081016040528092919081815260200182805461101e906124b9565b801561106b5780601f106110405761010080835404028352916020019161106b565b820191906000526020600020905b81548152906001019060200180831161104e57829003601f168201915b505050918352505060058201546001600160a01b0316602082015260068201805460409092019161109b906124b9565b80601f01602080910402602001604051908101604052809291908181526020018280546110c7906124b9565b80156111145780601f106110e957610100808354040283529160200191611114565b820191906000526020600020905b8154815290600101906020018083116110f757829003601f168201915b5050505050815260200160078201805461112d906124b9565b80601f0160208091040260200160405190810160405280929190818152602001828054611159906124b9565b80156111a65780601f1061117b576101008083540402835291602001916111a6565b820191906000526020600020905b81548152906001019060200180831161118957829003601f168201915b505050505081526020016008820180546111bf906124b9565b80601f01602080910402602001604051908101604052809291908181526020018280546111eb906124b9565b80156112385780601f1061120d57610100808354040283529160200191611238565b820191906000526020600020905b81548152906001019060200180831161121b57829003601f168201915b5050505050815250509250925092509250909192565b61127260405180606001604052806000815260200160008152602001600081525090565b506001600160a01b03166000908152600f6020908152604091829020825160608101845281548152600182015492810192909252600201549181019190915290565b6112bc611c40565b600c546001600160a01b031633146113165760405162461bcd60e51b815260206004820152601c60248201527f4f6e6c7920617661696c61626c6520666f72205465654f66666572730000000060448201526064016103a0565b61131e611c40565b6001600160a01b0382166000908152600f602052604090206011541580159061134d5750806002015460115410155b6113bf5760405162461bcd60e51b815260206004820152602c60248201527f52657761726420666f7220746869732054434220636f6e66697363617465642060448201527f627920436f6e73656e737573000000000000000000000000000000000000000060648201526084016103a0565b80600201548211156114135760405162461bcd60e51b815260206004820152601860248201527f4e6f7420656e6f756768206c6f636b656420746f6b656e73000000000000000060448201526064016103a0565b42816001015411156114675760405162461bcd60e51b815260206004820152601460248201527f546f6f206561726c7920666f7220756e6c6f636b00000000000000000000000060448201526064016103a0565b8181600201600082825461147b91906124a2565b92505081905550816011600082825461149491906124a2565b9091555050505050565b6007546000906001600160a01b03166114b75750600090565b600b805460405163bcaa0c5560e01b81526000926001600160a01b039092169163bcaa0c55916114ea919060040161237f565b60206040518083038186803b15801561150257600080fd5b505afa158015611516573d6000803e3d6000fd5b505050506040513d601f19601f8201168201806040525081019061153a919061201f565b6007546040517f31aeceac0000000000000000000000000000000000000000000000000000000081526001600160a01b0391821660048201529192508216906331aeceac9060240160206040518083038186803b15801561159a57600080fd5b505afa1580156115ae573d6000803e3d6000fd5b505050506040513d601f19601f820116820180604052508101906115d2919061220e565b6007546040517fc00007b00000000000000000000000000000000000000000000000000000000081526001600160a01b0391821660048201529083169063c00007b09060240160206040518083038186803b15801561163057600080fd5b505afa158015611644573d6000803e3d6000fd5b505050506040513d601f19601f82011682018060405250810190611668919061220e565b611672919061243f565b91505090565b60008054906101000a90046001600160a01b03166001600160a01b0316636760c4b76040518163ffffffff1660e01b815260040160206040518083038186803b1580156116c457600080fd5b505afa1580156116d8573d6000803e3d6000fd5b505050506040513d601f19601f820116820180604052508101906116fc919061201f565b6001600160a01b0316336001600160a01b0316146117665760405162461bcd60e51b815260206004820152602160248201527f4f6e6c7920617661696c61626c6520666f7220416374696f6e206163636f756e6044820152601d60fa1b60648201526084016103a0565b61176e611c40565b6001546117bd5760405162461bcd60e51b815260206004820152601860248201527f4f6666657220697320616c726561647920656e61626c6564000000000000000060448201526064016103a0565b600060018181558154604051639789e32360e01b8152600481019290925260248201929092526001600160a01b0390911690639789e323906044016107c2565b611805611c40565b600c546001600160a01b0316331461185f5760405162461bcd60e51b815260206004820152601c60248201527f4f6e6c7920617661696c61626c6520666f72205465654f66666572730000000060448201526064016103a0565b6000601155565b60008054906101000a90046001600160a01b03166001600160a01b0316636760c4b76040518163ffffffff1660e01b815260040160206040518083038186803b1580156118b257600080fd5b505afa1580156118c6573d6000803e3d6000fd5b505050506040513d601f19601f820116820180604052508101906118ea919061201f565b6001600160a01b0316336001600160a01b0316146119545760405162461bcd60e51b815260206004820152602160248201527f4f6e6c7920617661696c61626c6520666f7220416374696f6e206163636f756e6044820152601d60fa1b60648201526084016103a0565b8051611967906008906020840190611ea0565b5050565b60008054906101000a90046001600160a01b03166001600160a01b0316636760c4b76040518163ffffffff1660e01b815260040160206040518083038186803b1580156119b757600080fd5b505afa1580156119cb573d6000803e3d6000fd5b505050506040513d601f19601f820116820180604052508101906119ef919061201f565b6001600160a01b0316336001600160a01b031614611a595760405162461bcd60e51b815260206004820152602160248201527f4f6e6c7920617661696c61626c6520666f7220416374696f6e206163636f756e6044820152601d60fa1b60648201526084016103a0565b805180518291600291611a73918391602090910190611ea0565b506020828101518051611a8c9260018501920190611ea0565b5060408201518051611aa8916002840191602090910190611ea0565b506060820151600382018054608085015167ffffffffffffffff16640100000000026bffffffffffffffffffffffff1990911663ffffffff9093169290921791909117905560a08201518051611b08916004840191602090910190611ea0565b5060c08201516005820180546001600160a01b0319166001600160a01b0390921691909117905560e08201518051611b4a916006840191602090910190611ea0565b506101008201518051611b67916007840191602090910190611ea0565b5061012082015180516107f0916008840191602090910190611ea0565b611b8c611c40565b600e546001600160a01b03163314611c0c5760405162461bcd60e51b815260206004820152602360248201527f417661696c61626c65206f6e6c7920666f722050726f7669646572526567697360448201527f747279000000000000000000000000000000000000000000000000000000000060648201526084016103a0565b60008054601490611c2690600160a01b900460ff166124f4565b91906101000a81548160ff021916908360ff160217905550565b600b60009054906101000a90046001600160a01b03166001600160a01b031663f1f0bd016040518163ffffffff1660e01b815260040160206040518083038186803b158015611c8e57600080fd5b505afa158015611ca2573d6000803e3d6000fd5b505050506040513d601f19601f82011682018060405250810190611cc6919061201f565b600b80546001600160a01b0319166001600160a01b0392909216918217905560405163bcaa0c5560e01b815263bcaa0c5590611d0690600490810161237f565b60206040518083038186803b158015611d1e57600080fd5b505afa158015611d32573d6000803e3d6000fd5b505050506040513d601f19601f82011682018060405250810190611d56919061201f565b600c80546001600160a01b0319166001600160a01b03928316179055600b5460405163bcaa0c5560e01b815291169063bcaa0c5590611d9a9060009060040161237f565b60206040518083038186803b158015611db257600080fd5b505afa158015611dc6573d6000803e3d6000fd5b505050506040513d601f19601f82011682018060405250810190611dea919061201f565b600d80546001600160a01b0319166001600160a01b03928316179055600b5460405163bcaa0c5560e01b815291169063bcaa0c5590611e2e9060019060040161237f565b60206040518083038186803b158015611e4657600080fd5b505afa158015611e5a573d6000803e3d6000fd5b505050506040513d601f19601f82011682018060405250810190611e7e919061201f565b600e80546001600160a01b0319166001600160a01b0392909216919091179055565b828054611eac906124b9565b90600052602060002090601f016020900481019282611ece5760008555611f14565b82601f10611ee757805160ff1916838001178555611f14565b82800160010185558215611f14579182015b82811115611f14578251825591602001919060010190611ef9565b50611f20929150611f24565b5090565b5b80821115611f205760008155600101611f25565b8035611f4481612556565b919050565b600082601f830112611f59578081fd5b813567ffffffffffffffff80821115611f7457611f74612540565b604051601f8301601f19908116603f01168101908282118183101715611f9c57611f9c612540565b81604052838152866020858801011115611fb4578485fd5b8360208701602083013792830160200193909352509392505050565b803563ffffffff81168114611f4457600080fd5b803567ffffffffffffffff81168114611f4457600080fd5b60006020828403121561200d578081fd5b813561201881612556565b9392505050565b600060208284031215612030578081fd5b815161201881612556565b6000806040838503121561204d578081fd5b823561205881612556565b946020939093013593505050565b600060208284031215612077578081fd5b813567ffffffffffffffff81111561208d578182fd5b6104f184828501611f49565b6000602082840312156120aa578081fd5b813567ffffffffffffffff808211156120c1578283fd5b9083019061014082860312156120d5578283fd5b6120dd612415565b8235828111156120eb578485fd5b6120f787828601611f49565b82525060208301358281111561210b578485fd5b61211787828601611f49565b60208301525060408301358281111561212e578485fd5b61213a87828601611f49565b60408301525061214c60608401611fd0565b606082015261215d60808401611fe4565b608082015260a083013582811115612173578485fd5b61217f87828601611f49565b60a08301525061219160c08401611f39565b60c082015260e0830135828111156121a7578485fd5b6121b387828601611f49565b60e08301525061010080840135838111156121cc578586fd5b6121d888828701611f49565b82840152505061012080840135838111156121f1578586fd5b6121fd88828701611f49565b918301919091525095945050505050565b60006020828403121561221f578081fd5b5051919050565b60008151808452815b8181101561224b5760208185018101518683018201520161222f565b8181111561225c5782602083870101525b50601f01601f19169290920160200192915050565b6000610140825181855261228782860182612226565b915050602083015184820360208601526122a18282612226565b915050604083015184820360408601526122bb8282612226565b91505060608301516122d5606086018263ffffffff169052565b5060808301516122f1608086018267ffffffffffffffff169052565b5060a083015184820360a08601526123098282612226565b91505060c083015161232660c08601826001600160a01b03169052565b5060e083015184820360e086015261233e8282612226565b91505061010080840151858303828701526123598382612226565b9250505061012080840151858303828701526123758382612226565b9695505050505050565b60208101600c83106123935761239361252a565b91905290565b60208101600483106123935761239361252a565b60208101601183106123935761239361252a565b6020815260006120186020830184612226565b6020815260006120186020830184612271565b6060815260006123fa6060830186612271565b6001600160a01b039490941660208301525060400152919050565b604051610140810167ffffffffffffffff8111828210171561243957612439612540565b60405290565b6000821982111561245257612452612514565b500190565b600081600019048311821515161561247157612471612514565b500290565b600063ffffffff8083168185168183048111821515161561249957612499612514565b02949350505050565b6000828210156124b4576124b4612514565b500390565b600181811c908216806124cd57607f821691505b602082108114156124ee57634e487b7160e01b600052602260045260246000fd5b50919050565b600060ff821660ff81141561250b5761250b612514565b60010192915050565b634e487b7160e01b600052601160045260246000fd5b634e487b7160e01b600052602160045260246000fd5b634e487b7160e01b600052604160045260246000fd5b6001600160a01b038116811461256b57600080fd5b5056fea2646970667358221220114d074a6ee2948f2610940d49b8454ee246039fc388fb74ef7f9eae083be5ad64736f6c63430008040033",
    "linkReferences": {},
    "deployedLinkReferences": {}
}