{
  "_format": "hh-sol-artifact-1",
  "contractName": "TeeOffersFactory",
  "sourceName": "contracts/TeeOffersFactory.sol",
  "abi": [
    {
      "inputs": [
        {
          "internalType": "address",
          "name": "_SPConfig",
          "type": "address"
        }
      ],
      "stateMutability": "nonpayable",
      "type": "constructor"
    },
    {
      "anonymous": false,
      "inputs": [
        {
          "indexed": false,
          "internalType": "address",
          "name": "teeOffer",
          "type": "address"
        }
      ],
      "name": "TeeOfferCreated",
      "type": "event"
    },
    {
      "inputs": [
        {
          "internalType": "address",
          "name": "tcb",
          "type": "address"
        }
      ],
      "name": "addTcb",
      "outputs": [],
      "stateMutability": "nonpayable",
      "type": "function"
    },
    {
      "inputs": [
        {
          "internalType": "address",
          "name": "tcb",
          "type": "address"
        }
      ],
      "name": "blockDevice",
      "outputs": [],
      "stateMutability": "nonpayable",
      "type": "function"
    },
    {
      "inputs": [
        {
          "internalType": "address",
          "name": "tcb",
          "type": "address"
        }
      ],
      "name": "calcReparation",
      "outputs": [
        {
          "internalType": "uint256",
          "name": "",
          "type": "uint256"
        }
      ],
      "stateMutability": "view",
      "type": "function"
    },
    {
      "inputs": [
        {
          "internalType": "address",
          "name": "tcb",
          "type": "address"
        },
        {
          "internalType": "uint256",
          "name": "amount",
          "type": "uint256"
        }
      ],
      "name": "chargeReparation",
      "outputs": [],
      "stateMutability": "nonpayable",
      "type": "function"
    },
    {
      "inputs": [
        {
          "internalType": "address",
          "name": "tcb",
          "type": "address"
        }
      ],
      "name": "checkTcb",
      "outputs": [
        {
          "internalType": "bool",
          "name": "",
          "type": "bool"
        }
      ],
      "stateMutability": "view",
      "type": "function"
    },
    {
      "inputs": [
        {
          "internalType": "address",
          "name": "providerAuth",
          "type": "address"
        },
        {
          "components": [
            {
              "internalType": "string",
              "name": "name",
              "type": "string"
            },
            {
              "internalType": "string",
              "name": "description",
              "type": "string"
            },
            {
              "internalType": "string",
              "name": "teeType",
              "type": "string"
            },
            {
              "internalType": "uint32",
              "name": "slots",
              "type": "uint32"
            },
            {
              "internalType": "uint64",
              "name": "minTimeMinutes",
              "type": "uint64"
            },
            {
              "internalType": "string",
              "name": "properties",
              "type": "string"
            },
            {
              "internalType": "address",
              "name": "tcb",
              "type": "address"
            },
            {
              "internalType": "string",
              "name": "tlb",
              "type": "string"
            },
            {
              "internalType": "string",
              "name": "argsPublicKey",
              "type": "string"
            }
          ],
          "internalType": "struct TeeOfferInfo",
          "name": "info",
          "type": "tuple"
        },
        {
          "internalType": "bytes32",
          "name": "externalId",
          "type": "bytes32"
        }
      ],
      "name": "create",
      "outputs": [
        {
          "internalType": "address",
          "name": "",
          "type": "address"
        }
      ],
      "stateMutability": "nonpayable",
      "type": "function"
    },
    {
      "inputs": [
        {
          "internalType": "address",
          "name": "offer",
          "type": "address"
        }
      ],
      "name": "getOffersProvider",
      "outputs": [
        {
          "internalType": "address",
          "name": "",
          "type": "address"
        }
      ],
      "stateMutability": "view",
      "type": "function"
    },
    {
      "inputs": [],
      "name": "listAll",
      "outputs": [
        {
          "internalType": "address[]",
          "name": "",
          "type": "address[]"
        }
      ],
      "stateMutability": "view",
      "type": "function"
    },
    {
      "inputs": [
        {
          "internalType": "address",
          "name": "tcb",
          "type": "address"
        },
        {
          "internalType": "uint256",
          "name": "reward",
          "type": "uint256"
        }
      ],
      "name": "lockTcbReward",
      "outputs": [],
      "stateMutability": "nonpayable",
      "type": "function"
    },
    {
      "inputs": [
        {
          "internalType": "address",
          "name": "tcb",
          "type": "address"
        },
        {
          "internalType": "uint256",
          "name": "amount",
          "type": "uint256"
        }
      ],
      "name": "unlockTcbReward",
      "outputs": [],
      "stateMutability": "nonpayable",
      "type": "function"
    }
  ],
  "bytecode": "0x608060405234801561001057600080fd5b50604051620052013803806200520183398101604081905261003191610056565b600080546001600160a01b0319166001600160a01b0392909216919091179055610084565b600060208284031215610067578081fd5b81516001600160a01b038116811461007d578182fd5b9392505050565b61516d80620000946000396000f3fe60806040523480156200001157600080fd5b5060043610620000cd5760003560e01c80636b2e41b6116200007f5780639a6bcd0e11620000625780639a6bcd0e14620001bd578063e055530714620001e3578063fa4e04a614620001fa57600080fd5b80636b2e41b6146200018d57806378a9eeed14620001a457600080fd5b806336afedef11620000b457806336afedef146200013757806344bde3ff146200015f5780635bce665d146200017657600080fd5b8063165dee3f14620000d25780632c413abf146200011e575b600080fd5b62000101620000e336600462001c95565b6001600160a01b039081166000908152600360205260409020541690565b6040516001600160a01b0390911681526020015b60405180910390f35b620001356200012f36600462001c95565b62000211565b005b6200014e6200014836600462001c95565b62000472565b604051901515815260200162000115565b620001356200017036600462001c95565b620005b0565b620001016200018736600462001cd3565b620009ab565b620001356200019e36600462001e5e565b62000ef1565b620001ae620011a2565b604051620001159190620021a9565b620001d4620001ce36600462001c95565b62001206565b60405190815260200162000115565b62000135620001f436600462001e5e565b62001410565b620001356200020b36600462001e5e565b62001583565b60005462000228906001600160a01b03166200173f565b6001600160a01b0316336001600160a01b0316146200028e5760405162461bcd60e51b815260206004820152601c60248201527f417661696c61626c65206f6e6c7920666f7220436f6e73656e7375730000000060448201526064015b60405180910390fd5b60008190506000816001600160a01b031663bf7ce7426040518163ffffffff1660e01b815260040160006040518083038186803b158015620002cf57600080fd5b505afa158015620002e4573d6000803e3d6000fd5b505050506040513d6000823e601f3d908101601f191682016040526200030e919081019062001f0d565b6020808201516000908152600290915260409020549091506001600160a01b031680158062000349575081516001600160a01b038281169116145b620003bd5760405162461bcd60e51b815260206004820152602a60248201527f54686572652063616e206265206f6e6c79206f6e652064657669636520666f7260448201527f206f6e65206f6666657200000000000000000000000000000000000000000000606482015260840162000285565b815160208084015160009081526002909152604090819020805473ffffffffffffffffffffffffffffffffffffffff19166001600160a01b03938416179055835190517f2c413abf0000000000000000000000000000000000000000000000000000000081528683166004820152911690632c413abf906024015b600060405180830381600087803b1580156200045357600080fd5b505af115801562000468573d6000803e3d6000fd5b5050505050505050565b600080826001600160a01b031663bf7ce7426040518163ffffffff1660e01b815260040160006040518083038186803b158015620004af57600080fd5b505afa158015620004c4573d6000803e3d6000fd5b505050506040513d6000823e601f3d908101601f19168201604052620004ee919081019062001f0d565b516001600160a01b03808216600081815260036020526040908190205490517f28e0180500000000000000000000000000000000000000000000000000000000815287841660048201529394509091161515916328e018059060240160206040518083038186803b1580156200056357600080fd5b505afa15801562000578573d6000803e3d6000fd5b505050506040513d601f19601f820116820180604052508101906200059e919062001e8c565b8015620005a85750805b949350505050565b600054620005c7906001600160a01b03166200173f565b6001600160a01b0316336001600160a01b031614620006295760405162461bcd60e51b815260206004820152601c60248201527f417661696c61626c65206f6e6c7920666f7220436f6e73656e73757300000000604482015260640162000285565b6000816001600160a01b031663bf7ce7426040518163ffffffff1660e01b815260040160006040518083038186803b1580156200066557600080fd5b505afa1580156200067a573d6000803e3d6000fd5b505050506040513d6000823e601f3d908101601f19168201604052620006a4919081019062001f0d565b6000015190506000816001600160a01b031663f4732da66040518163ffffffff1660e01b815260040160206040518083038186803b158015620006e657600080fd5b505afa158015620006fb573d6000803e3d6000fd5b505050506040513d601f19601f8201168201806040525081019062000721919062001fe5565b90506000836001600160a01b031663bf7ce7426040518163ffffffff1660e01b815260040160006040518083038186803b1580156200075f57600080fd5b505afa15801562000774573d6000803e3d6000fd5b505050506040513d6000823e601f3d908101601f191682016040526200079e919081019062001f0d565b6020015190506000620007b184620017d4565b6000805491925090620007cd906001600160a01b031662001884565b6001600160a01b0316634bfb1e7a8360046040518363ffffffff1660e01b8152600401620007fd9291906200218a565b60606040518083038186803b1580156200081657600080fd5b505afa1580156200082b573d6000803e3d6000fd5b505050506040513d601f19601f8201168201806040525081019062000851919062001eae565b90508381604001511015620008a95760405162461bcd60e51b815260206004820152601d60248201527f3530302e204e6f7420656e6f756768206c6f636b656420746f6b656e73000000604482015260640162000285565b600054620008c0906001600160a01b031662001884565b604051631831470360e01b81526001600160a01b038481166004830152602482018790529190911690631831470390604401600060405180830381600087803b1580156200090d57600080fd5b505af115801562000922573d6000803e3d6000fd5b50505050846001600160a01b03166344c406776040518163ffffffff1660e01b8152600401600060405180830381600087803b1580156200096257600080fd5b505af115801562000977573d6000803e3d6000fd5b5050506000938452505060026020525060409020805473ffffffffffffffffffffffffffffffffffffffff19169055505050565b600080548190620009c5906001600160a01b0316620018bf565b6040517fc2bc2efc0000000000000000000000000000000000000000000000000000000081526001600160a01b038781166004830152919091169063c2bc2efc9060240160206040518083038186803b15801562000a2257600080fd5b505afa15801562000a37573d6000803e3d6000fd5b505050506040513d601f19601f8201168201806040525081019062000a5d919062001cb4565b9050806001600160a01b0316631b71d85f6040518163ffffffff1660e01b8152600401600060405180830381600087803b15801562000a9b57600080fd5b505af115801562000ab0573d6000803e3d6000fd5b50506000805490925062000ad091506001600160a01b03166005620018fa565b600080549192509062000aec906001600160a01b0316620018bf565b6040517fb00e3c240000000000000000000000000000000000000000000000000000000081526001600160a01b038981166004830152919091169063b00e3c249060240160206040518083038186803b15801562000b4957600080fd5b505afa15801562000b5e573d6000803e3d6000fd5b505050506040513d601f19601f8201168201806040525081019062000b84919062001fe5565b6040517fcf06217c000000000000000000000000000000000000000000000000000000008152600481018490529091506000906001600160a01b0385169063cf06217c9060240160206040518083038186803b15801562000be457600080fd5b505afa15801562000bf9573d6000803e3d6000fd5b505050506040513d601f19601f8201168201806040525081019062000c1f919062001fe5565b9050336001600160a01b0316846001600160a01b0316636760c4b76040518163ffffffff1660e01b815260040160206040518083038186803b15801562000c6557600080fd5b505afa15801562000c7a573d6000803e3d6000fd5b505050506040513d601f19601f8201168201806040525081019062000ca0919062001cb4565b6001600160a01b03161462000cf85760405162461bcd60e51b815260206004820152600d60248201527f4163636573732064656e69656400000000000000000000000000000000000000604482015260640162000285565b8082101562000d4a5760405162461bcd60e51b815260206004820152601d60248201527f5365637572697479206465706f73697420697320746f6f20736d616c6c000000604482015260640162000285565b60008060009054906101000a90046001600160a01b031685338a8a60405162000d739062001bf0565b62000d8395949392919062002043565b604051809103906000f08015801562000da0573d6000803e3d6000fd5b5090508860036000836001600160a01b03166001600160a01b0316815260200190815260200160002060006101000a8154816001600160a01b0302191690836001600160a01b031602179055506001819080600181540180825580915050600190039060005260206000200160009091909190916101000a8154816001600160a01b0302191690836001600160a01b03160217905550846001600160a01b031663a553269b826040518263ffffffff1660e01b815260040162000e7291906001600160a01b0391909116815260200190565b600060405180830381600087803b15801562000e8d57600080fd5b505af115801562000ea2573d6000803e3d6000fd5b50506040516001600160a01b03841681527f4918fbfe7b2dd77341ba9a051a159bcca59437e8840b4718d4b0dd13d8175f369250602001905060405180910390a19450505050505b9392505050565b60005462000f08906001600160a01b03166200173f565b6001600160a01b0316336001600160a01b03161462000f6a5760405162461bcd60e51b815260206004820152601c60248201527f417661696c61626c65206f6e6c7920666f7220436f6e73656e73757300000000604482015260640162000285565b6000826001600160a01b031663bf7ce7426040518163ffffffff1660e01b815260040160006040518083038186803b15801562000fa657600080fd5b505afa15801562000fbb573d6000803e3d6000fd5b505050506040513d6000823e601f3d908101601f1916820160405262000fe5919081019062001f0d565b6000015190506000816001600160a01b031663483d45bd6040518163ffffffff1660e01b815260040160206040518083038186803b1580156200102757600080fd5b505afa1580156200103c573d6000803e3d6000fd5b505050506040513d601f19601f8201168201806040525081019062001062919062001cb4565b905060006200107183620017d4565b6000549091506200108b906001600160a01b031662001884565b604051631831470360e01b81526001600160a01b038381166004830152602482018790529190911690631831470390604401600060405180830381600087803b158015620010d857600080fd5b505af1158015620010ed573d6000803e3d6000fd5b50505050826001600160a01b031663bab13ee16040518163ffffffff1660e01b8152600401600060405180830381600087803b1580156200112d57600080fd5b505af115801562001142573d6000803e3d6000fd5b50505050816001600160a01b031663bab13ee16040518163ffffffff1660e01b8152600401600060405180830381600087803b1580156200118257600080fd5b505af115801562001197573d6000803e3d6000fd5b505050505050505050565b60606001805480602002602001604051908101604052809291908181526020018280548015620011fc57602002820191906000526020600020905b81546001600160a01b03168152600190910190602001808311620011dd575b5050505050905090565b6000808290506000816001600160a01b031663bf7ce7426040518163ffffffff1660e01b815260040160006040518083038186803b1580156200124857600080fd5b505afa1580156200125d573d6000803e3d6000fd5b505050506040513d6000823e601f3d908101601f1916820160405262001287919081019062001f0d565b51905060006200129782620017d4565b6000805491925090620012b3906001600160a01b031662001988565b6040517fc00007b00000000000000000000000000000000000000000000000000000000081526001600160a01b038881166004830152919091169063c00007b09060240160206040518083038186803b1580156200131057600080fd5b505afa15801562001325573d6000803e3d6000fd5b505050506040513d601f19601f820116820180604052508101906200134b919062001fe5565b600080549192509062001367906001600160a01b031662001884565b6001600160a01b0316634bfb1e7a8460046040518363ffffffff1660e01b8152600401620013979291906200218a565b60606040518083038186803b158015620013b057600080fd5b505afa158015620013c5573d6000803e3d6000fd5b505050506040513d601f19601f82011682018060405250810190620013eb919062001eae565b604001519050600081831062001402578162001404565b825b98975050505050505050565b60005462001427906001600160a01b03166200173f565b6001600160a01b0316336001600160a01b031614620014895760405162461bcd60e51b815260206004820152601c60248201527f417661696c61626c65206f6e6c7920666f7220436f6e73656e73757300000000604482015260640162000285565b6000826001600160a01b031663bf7ce7426040518163ffffffff1660e01b815260040160006040518083038186803b158015620014c557600080fd5b505afa158015620014da573d6000803e3d6000fd5b505050506040513d6000823e601f3d908101601f1916820160405262001504919081019062001f0d565b51905060006200151482620017d4565b6000805491925062001534916001600160a01b03169083908690620019c3565b6040517f282d3fdf0000000000000000000000000000000000000000000000000000000081526001600160a01b0385811660048301526024820185905283169063282d3fdf9060440162000438565b6000546200159a906001600160a01b03166200173f565b6001600160a01b0316336001600160a01b031614620015fc5760405162461bcd60e51b815260206004820152601c60248201527f417661696c61626c65206f6e6c7920666f7220436f6e73656e73757300000000604482015260640162000285565b6000826001600160a01b031663bf7ce7426040518163ffffffff1660e01b815260040160006040518083038186803b1580156200163857600080fd5b505afa1580156200164d573d6000803e3d6000fd5b505050506040513d6000823e601f3d908101601f1916820160405262001677919081019062001f0d565b51905060006200168782620017d4565b604051637eee288d60e01b81526001600160a01b0386811660048301526024820186905291925090831690637eee288d90604401600060405180830381600087803b158015620016d657600080fd5b505af1158015620016eb573d6000803e3d6000fd5b50506000546200170792506001600160a01b0316905062001884565b604051637eee288d60e01b81526001600160a01b038381166004830152602482018690529190911690637eee288d9060440162000438565b60006200174c8262001b79565b6001600160a01b031663bcaa0c5560086040518263ffffffff1660e01b81526004016200177a9190620021f8565b60206040518083038186803b1580156200179357600080fd5b505afa158015620017a8573d6000803e3d6000fd5b505050506040513d601f19601f82011682018060405250810190620017ce919062001cb4565b92915050565b6000816001600160a01b031663483d45bd6040518163ffffffff1660e01b815260040160206040518083038186803b1580156200181057600080fd5b505afa15801562001825573d6000803e3d6000fd5b505050506040513d601f19601f820116820180604052508101906200184b919062001cb4565b6001600160a01b0316636d69a3e86040518163ffffffff1660e01b815260040160206040518083038186803b1580156200179357600080fd5b6000620018918262001b79565b6001600160a01b031663bcaa0c5560026040518263ffffffff1660e01b81526004016200177a9190620021f8565b6000620018cc8262001b79565b6001600160a01b031663bcaa0c5560016040518263ffffffff1660e01b81526004016200177a9190620021f8565b6000620019078362001b79565b6001600160a01b03166303a2216d836040518263ffffffff1660e01b815260040162001934919062002208565b60206040518083038186803b1580156200194d57600080fd5b505afa15801562001962573d6000803e3d6000fd5b505050506040513d601f19601f8201168201806040525081019062000eea919062001fe5565b6000620019958262001b79565b6001600160a01b031663bcaa0c55600b6040518263ffffffff1660e01b81526004016200177a9190620021f8565b6000620019d9856001600160a01b031662001884565b9050620019ef856001600160a01b031662001bb5565b6040517f095ea7b30000000000000000000000000000000000000000000000000000000081526001600160a01b03838116600483015260248201869052919091169063095ea7b390604401602060405180830381600087803b15801562001a5557600080fd5b505af115801562001a6a573d6000803e3d6000fd5b505050506040513d601f19601f8201168201806040525081019062001a90919062001e8c565b506040517f2ee409080000000000000000000000000000000000000000000000000000000081526001600160a01b03858116600483015260248201859052821690632ee4090890604401600060405180830381600087803b15801562001af557600080fd5b505af115801562001b0a573d6000803e3d6000fd5b50506040517fe2ab691d0000000000000000000000000000000000000000000000000000000081526001600160a01b03878116600483015260248201879052604482018690528416925063e2ab691d9150606401600060405180830381600087803b1580156200118257600080fd5b6000816001600160a01b031663f1f0bd016040518163ffffffff1660e01b815260040160206040518083038186803b1580156200179357600080fd5b600062001bc28262001b79565b6001600160a01b031663bcaa0c5560056040518263ffffffff1660e01b81526004016200177a9190620021f8565b612de8806200235083390190565b803562001c0b8162002336565b919050565b600082601f83011262001c21578081fd5b813562001c3862001c3282620022ac565b62002278565b81815284602083860101111562001c4d578283fd5b816020850160208301379081016020019190915292915050565b803563ffffffff8116811462001c0b57600080fd5b803567ffffffffffffffff8116811462001c0b57600080fd5b60006020828403121562001ca7578081fd5b813562000eea8162002336565b60006020828403121562001cc6578081fd5b815162000eea8162002336565b60008060006060848603121562001ce8578182fd5b833562001cf58162002336565b9250602084013567ffffffffffffffff8082111562001d12578384fd5b90850190610120828803121562001d27578384fd5b62001d3162002225565b82358281111562001d40578586fd5b62001d4e8982860162001c10565b82525060208301358281111562001d63578586fd5b62001d718982860162001c10565b60208301525060408301358281111562001d89578586fd5b62001d978982860162001c10565b60408301525062001dab6060840162001c67565b606082015262001dbe6080840162001c7c565b608082015260a08301358281111562001dd5578586fd5b62001de38982860162001c10565b60a08301525062001df760c0840162001bfe565b60c082015260e08301358281111562001e0e578586fd5b62001e1c8982860162001c10565b60e083015250610100808401358381111562001e36578687fd5b62001e448a82870162001c10565b828401525050809450505050604084013590509250925092565b6000806040838503121562001e71578182fd5b823562001e7e8162002336565b946020939093013593505050565b60006020828403121562001e9e578081fd5b8151801515811462000eea578182fd5b60006060828403121562001ec0578081fd5b6040516060810181811067ffffffffffffffff8211171562001ee65762001ee662002320565b80604052508251815260208301516020820152604083015160408201528091505092915050565b6000602080838503121562001f20578182fd5b825167ffffffffffffffff8082111562001f38578384fd5b908401906080828703121562001f4c578384fd5b62001f5662002252565b825162001f638162002336565b815282840151848201526040808401519082015260608301518281111562001f89578586fd5b80840193505086601f84011262001f9e578485fd5b8251915062001fb162001c3283620022ac565b828152878584860101111562001fc5578586fd5b62001fd683868301878701620022d7565b60608201529695505050505050565b60006020828403121562001ff7578081fd5b5051919050565b600c81106200201157620020116200230a565b9052565b600081518084526200202f816020860160208601620022d7565b601f01601f19169290920160200192915050565b60006001600160a01b038088168352808716602084015280861660408401525060a0606083015283516101208060a0850152620020856101c085018362002015565b91506020860151609f19808685030160c0870152620020a5848362002015565b935060408801519150808685030160e0870152620020c4848362002015565b935060608801519150610100620020e28188018463ffffffff169052565b608089015167ffffffffffffffff811688860152925060a08901519350818786030161014088015262002116858562002015565b945060c08901519350620021366101608801856001600160a01b03169052565b60e08901519350818786030161018088015262002154858562002015565b94508089015193505080868503016101a0870152505062002176828262002015565b925050508260808301529695505050505050565b6001600160a01b03831681526040810162000eea602083018462001ffe565b6020808252825182820181905260009190848201906040850190845b81811015620021ec5783516001600160a01b031683529284019291840191600101620021c5565b50909695505050505050565b60208101620017ce828462001ffe565b60208101601183106200221f576200221f6200230a565b91905290565b604051610120810167ffffffffffffffff811182821017156200224c576200224c62002320565b60405290565b6040516080810167ffffffffffffffff811182821017156200224c576200224c62002320565b604051601f8201601f1916810167ffffffffffffffff81118282101715620022a457620022a462002320565b604052919050565b600067ffffffffffffffff821115620022c957620022c962002320565b50601f01601f191660200190565b60005b83811015620022f4578181015183820152602001620022da565b8381111562002304576000848401525b50505050565b634e487b7160e01b600052602160045260246000fd5b634e487b7160e01b600052604160045260246000fd5b6001600160a01b03811681146200234c57600080fd5b5056fe60806040523480156200001157600080fd5b5060405162002de838038062002de88339810160408190526200003491620003c0565b6000826060015163ffffffff1611620000835760405162461bcd60e51b815260206004820152600d60248201526c496e76616c696420736c6f747360981b604482015260640160405180910390fd5b600080546001600160a01b0319166001600160a01b038616179055815180518391600391620000ba9183916020909101906200023f565b506020828101518051620000d592600185019201906200023f565b5060408201518051620000f39160028401916020909101906200023f565b50606082015160038201805460808501516001600160401b0316640100000000026001600160601b031990911663ffffffff9093169290921791909117905560a082015180516200014f9160048401916020909101906200023f565b5060c08201516005820180546001600160a01b0319166001600160a01b0390921691909117905560e08201518051620001939160068401916020909101906200023f565b506101008201518051620001b29160078401916020909101906200023f565b5050600060015550620001d3600b8462000200602090811b6200208117901c565b600f80546001600160a01b0319166001600160a01b03969096169590951790945550505060025562000621565b428083556001830180546001600160a01b039093166001600160a01b031993841681179091556002840191909155600390920180549091169091179055565b8280546200024d90620005ce565b90600052602060002090601f016020900481019282620002715760008555620002bc565b82601f106200028c57805160ff1916838001178555620002bc565b82800160010185558215620002bc579182015b82811115620002bc5782518255916020019190600101906200029f565b50620002ca929150620002ce565b5090565b5b80821115620002ca5760008155600101620002cf565b80516001600160a01b0381168114620002fd57600080fd5b919050565b600082601f83011262000313578081fd5b81516001600160401b038111156200032f576200032f6200060b565b602062000345601f8301601f191682016200059b565b828152858284870101111562000359578384fd5b835b83811015620003785785810183015182820184015282016200035b565b838111156200038957848385840101525b5095945050505050565b805163ffffffff81168114620002fd57600080fd5b80516001600160401b0381168114620002fd57600080fd5b600080600080600060a08688031215620003d8578081fd5b620003e386620002e5565b9450620003f360208701620002e5565b93506200040360408701620002e5565b60608701519093506001600160401b038082111562000420578283fd5b90870190610120828a03121562000435578283fd5b6200043f6200056f565b8251828111156200044e578485fd5b6200045c8b82860162000302565b82525060208301518281111562000471578485fd5b6200047f8b82860162000302565b60208301525060408301518281111562000497578485fd5b620004a58b82860162000302565b604083015250620004b96060840162000393565b6060820152620004cc60808401620003a8565b608082015260a083015182811115620004e3578485fd5b620004f18b82860162000302565b60a0830152506200050560c08401620002e5565b60c082015260e0830151828111156200051c578485fd5b6200052a8b82860162000302565b60e083015250610100808401518381111562000544578586fd5b620005528c82870162000302565b828401525050809450505050608086015190509295509295909350565b60405161012081016001600160401b03811182821017156200059557620005956200060b565b60405290565b604051601f8201601f191681016001600160401b0381118282101715620005c657620005c66200060b565b604052919050565b600181811c90821680620005e357607f821691505b602082108114156200060557634e487b7160e01b600052602260045260246000fd5b50919050565b634e487b7160e01b600052604160045260246000fd5b6127b780620006316000396000f3fe608060405234801561001057600080fd5b50600436106102265760003560e01c80637238ccdb1161012a578063b737e98e116100bd578063c47f00271161008c578063f12018c311610071578063f12018c31461051a578063f4732da61461052e578063f55ba0d31461051a57600080fd5b8063c47f0027146104f4578063c6f3d61c1461050757600080fd5b8063b737e98e14610430578063bab13ee1146104d4578063bbb5d5f7146104dc578063c422c1b1146104e357600080fd5b806390c3f38f116100f957806390c3f38f146103fe578063a3907d7114610411578063aad4513314610419578063af5372e61461042157600080fd5b80637238ccdb1461039b5780637eee288d146103d05780638383da75146103e35780638a35e942146103f657600080fd5b80632c413abf116101bd578063483d45bd1161018c5780635a9b0b89116101715780635a9b0b89146103675780636aa633b61461037c5780636d4ce63c1461038457600080fd5b8063483d45bd1461033a578063502524611461035f57600080fd5b80632c413abf146103025780632f2770db146103155780633f3de01c1461031d57806344c406771461033257600080fd5b80631f6bb848116101f95780631f6bb848146102a1578063282d3fdf146102b557806328e01805146102c85780632acdf0fa146102f357600080fd5b80630c72dc311461022b578063154e1c151461024f578063157def53146102795780631bffb4911461028e575b600080fd5b600054600160a01b900460ff1660405160ff90911681526020015b60405180910390f35b6008546001600160a01b03166000908152601160205260409020545b604051908152602001610246565b61028c610287366004612367565b610536565b005b60015b6040519015158152602001610246565b6102916102af366004612348565b50600090565b61028c6102c336600461231d565b6106a3565b6102916102d63660046122e5565b6001600160a01b0316600090815260116020526040902054151590565b600160405161024691906125a1565b61028c6103103660046122e5565b6107ad565b61028c6108a1565b610325610ae2565b60405161024691906125dd565b61028c610b77565b6000546001600160a01b03165b6040516001600160a01b039091168152602001610246565b60135461026b565b61036f610c28565b60405161024691906125f0565b610291611052565b61038c61106c565b60405161024693929190612603565b6103ae6103a93660046122e5565b6114b9565b6040805182518152602080840151908201529181015190820152606001610246565b61028c6103de36600461231d565b61151f565b61026b6103f1366004612429565b611761565b61026b611808565b61028c61040c366004612367565b61197f565b61028c611ae3565b60015461026b565b600060405161024691906125b5565b6104926040805160808101825260008082526020820181905291810182905260608101919091525060408051608081018252600b548152600c546001600160a01b039081166020830152600d5492820192909252600e54909116606082015290565b6040516102469190815181526020808301516001600160a01b039081169183019190915260408084015190830152606092830151169181019190915260800190565b61028c611cc3565b600061026b565b6008546001600160a01b0316610347565b61028c610502366004612367565b611d6c565b61028c610515366004612367565b611ed0565b6102916105283660046122e5565b50600190565b60125461026b565b60008054906101000a90046001600160a01b03166001600160a01b0316636760c4b76040518163ffffffff1660e01b815260040160206040518083038186803b15801561058257600080fd5b505afa158015610596573d6000803e3d6000fd5b505050506040513d601f19601f820116820180604052508101906105ba9190612301565b6001600160a01b0316336001600160a01b0316146106295760405162461bcd60e51b815260206004820152602160248201527f4f6e6c7920617661696c61626c6520666f7220416374696f6e206163636f756e6044820152601d60fa1b60648201526084015b60405180910390fd5b6000546002600160a01b90910460ff16106106765760405162461bcd60e51b815260206004820152600d60248201526c13d999995c88189b1bd8dad959609a1b6044820152606401610620565b42600d55600e80546001600160a01b03191633179055805161069f90600a90602084019061224c565b5050565b600f546106b8906001600160a01b03166120c0565b6001600160a01b0316336001600160a01b0316146107185760405162461bcd60e51b815260206004820152601c60248201527f4f6e6c7920617661696c61626c6520666f72205465654f6666657273000000006044820152606401610620565b600f5442906000906201518090610739906001600160a01b0316600161214d565b6107439190612680565b61074d9042612631565b6001600160a01b0385166000908152601060205260408120848155600181018390556002810180549394509092869290610788908490612631565b9250508190555083601260008282546107a19190612631565b90915550505050505050565b600f546107c2906001600160a01b03166120c0565b6001600160a01b0316336001600160a01b0316146108225760405162461bcd60e51b815260206004820152601c60248201527f4f6e6c7920617661696c61626c6520666f72205465654f6666657273000000006044820152606401610620565b6000546002600160a01b90910460ff161061086f5760405162461bcd60e51b815260206004820152600d60248201526c13d999995c88189b1bd8dad959609a1b6044820152606401610620565b600880546001600160a01b039092166001600160a01b0319909216821790556000908152601160205260409020429055565b60008054906101000a90046001600160a01b03166001600160a01b0316636760c4b76040518163ffffffff1660e01b815260040160206040518083038186803b1580156108ed57600080fd5b505afa158015610901573d6000803e3d6000fd5b505050506040513d601f19601f820116820180604052508101906109259190612301565b6001600160a01b0316336001600160a01b03161461098f5760405162461bcd60e51b815260206004820152602160248201527f4f6e6c7920617661696c61626c6520666f7220416374696f6e206163636f756e6044820152601d60fa1b6064820152608401610620565b6000546002600160a01b90910460ff16106109dc5760405162461bcd60e51b815260206004820152600d60248201526c13d999995c88189b1bd8dad959609a1b6044820152606401610620565b60015415610a2c5760405162461bcd60e51b815260206004820152601960248201527f4f6666657220697320616c72656164792064697361626c6564000000000000006044820152606401610620565b42600d55600e80546001600160a01b03191633179055600f546201518090610a5e906001600160a01b0316600461214d565b610a689190612680565b610a729042612631565b600181905560008054604051639789e32360e01b8152600481019290925260248201929092526001600160a01b0390911690639789e323906044015b600060405180830381600087803b158015610ac857600080fd5b505af1158015610adc573d6000803e3d6000fd5b50505050565b606060036006018054610af4906126b6565b80601f0160208091040260200160405190810160405280929190818152602001828054610b20906126b6565b8015610b6d5780601f10610b4257610100808354040283529160200191610b6d565b820191906000526020600020905b815481529060010190602001808311610b5057829003601f168201915b5050505050905090565b600f54610b8c906001600160a01b03166120c0565b6001600160a01b0316336001600160a01b031614610bec5760405162461bcd60e51b815260206004820152601c60248201527f4f6e6c7920617661696c61626c6520666f72205465654f6666657273000000006044820152606401610620565b600060128190558054604051639789e32360e01b815260048101929092524260248301526001600160a01b031690639789e32390604401610aae565b610c90604051806101200160405280606081526020016060815260200160608152602001600063ffffffff168152602001600067ffffffffffffffff1681526020016060815260200160006001600160a01b0316815260200160608152602001606081525090565b600360405180610120016040529081600082018054610cae906126b6565b80601f0160208091040260200160405190810160405280929190818152602001828054610cda906126b6565b8015610d275780601f10610cfc57610100808354040283529160200191610d27565b820191906000526020600020905b815481529060010190602001808311610d0a57829003601f168201915b50505050508152602001600182018054610d40906126b6565b80601f0160208091040260200160405190810160405280929190818152602001828054610d6c906126b6565b8015610db95780601f10610d8e57610100808354040283529160200191610db9565b820191906000526020600020905b815481529060010190602001808311610d9c57829003601f168201915b50505050508152602001600282018054610dd2906126b6565b80601f0160208091040260200160405190810160405280929190818152602001828054610dfe906126b6565b8015610e4b5780601f10610e2057610100808354040283529160200191610e4b565b820191906000526020600020905b815481529060010190602001808311610e2e57829003601f168201915b5050509183525050600382015463ffffffff81166020830152640100000000900467ffffffffffffffff166040820152600482018054606090920191610e90906126b6565b80601f0160208091040260200160405190810160405280929190818152602001828054610ebc906126b6565b8015610f095780601f10610ede57610100808354040283529160200191610f09565b820191906000526020600020905b815481529060010190602001808311610eec57829003601f168201915b505050918352505060058201546001600160a01b03166020820152600682018054604090920191610f39906126b6565b80601f0160208091040260200160405190810160405280929190818152602001828054610f65906126b6565b8015610fb25780601f10610f8757610100808354040283529160200191610fb2565b820191906000526020600020905b815481529060010190602001808311610f9557829003601f168201915b50505050508152602001600782018054610fcb906126b6565b80601f0160208091040260200160405190810160405280929190818152602001828054610ff7906126b6565b80156110445780601f1061101957610100808354040283529160200191611044565b820191906000526020600020905b81548152906001019060200180831161102757829003601f168201915b505050505081525050905090565b60006001546000148061106757506001544211155b905090565b6110d4604051806101200160405280606081526020016060815260200160608152602001600063ffffffff168152602001600067ffffffffffffffff1681526020016060815260200160006001600160a01b0316815260200160608152602001606081525090565b600080600360008054906101000a90046001600160a01b0316600154826040518061012001604052908160008201805461110d906126b6565b80601f0160208091040260200160405190810160405280929190818152602001828054611139906126b6565b80156111865780601f1061115b57610100808354040283529160200191611186565b820191906000526020600020905b81548152906001019060200180831161116957829003601f168201915b5050505050815260200160018201805461119f906126b6565b80601f01602080910402602001604051908101604052809291908181526020018280546111cb906126b6565b80156112185780601f106111ed57610100808354040283529160200191611218565b820191906000526020600020905b8154815290600101906020018083116111fb57829003601f168201915b50505050508152602001600282018054611231906126b6565b80601f016020809104026020016040519081016040528092919081815260200182805461125d906126b6565b80156112aa5780601f1061127f576101008083540402835291602001916112aa565b820191906000526020600020905b81548152906001019060200180831161128d57829003601f168201915b5050509183525050600382015463ffffffff81166020830152640100000000900467ffffffffffffffff1660408201526004820180546060909201916112ef906126b6565b80601f016020809104026020016040519081016040528092919081815260200182805461131b906126b6565b80156113685780601f1061133d57610100808354040283529160200191611368565b820191906000526020600020905b81548152906001019060200180831161134b57829003601f168201915b505050918352505060058201546001600160a01b03166020820152600682018054604090920191611398906126b6565b80601f01602080910402602001604051908101604052809291908181526020018280546113c4906126b6565b80156114115780601f106113e657610100808354040283529160200191611411565b820191906000526020600020905b8154815290600101906020018083116113f457829003601f168201915b5050505050815260200160078201805461142a906126b6565b80601f0160208091040260200160405190810160405280929190818152602001828054611456906126b6565b80156114a35780601f10611478576101008083540402835291602001916114a3565b820191906000526020600020905b81548152906001019060200180831161148657829003601f168201915b5050505050815250509250925092509250909192565b6114dd60405180606001604052806000815260200160008152602001600081525090565b506001600160a01b0316600090815260106020908152604091829020825160608101845281548152600182015492810192909252600201549181019190915290565b600f54611534906001600160a01b03166120c0565b6001600160a01b0316336001600160a01b0316146115945760405162461bcd60e51b815260206004820152601c60248201527f4f6e6c7920617661696c61626c6520666f72205465654f6666657273000000006044820152606401610620565b6000546002600160a01b90910460ff16106115e15760405162461bcd60e51b815260206004820152600d60248201526c13d999995c88189b1bd8dad959609a1b6044820152606401610620565b6001600160a01b0382166000908152601060205260409020601254158015906116105750806002015460125410155b6116825760405162461bcd60e51b815260206004820152602c60248201527f52657761726420666f7220746869732054434220636f6e66697363617465642060448201527f627920436f6e73656e73757300000000000000000000000000000000000000006064820152608401610620565b80600201548211156116d65760405162461bcd60e51b815260206004820152601860248201527f4e6f7420656e6f756768206c6f636b656420746f6b656e7300000000000000006044820152606401610620565b428160010154111561172a5760405162461bcd60e51b815260206004820152601460248201527f546f6f206561726c7920666f7220756e6c6f636b0000000000000000000000006044820152606401610620565b8181600201600082825461173e919061269f565b925050819055508160126000828254611757919061269f565b9091555050505050565b60008061176e844261269f565b9050600061177d603c83612649565b600654909150640100000000900467ffffffffffffffff168110156117b35750600654640100000000900467ffffffffffffffff165b60065460009063ffffffff166117c7611808565b6117d19190612649565b905060006117e3603c6201518061265d565b63ffffffff166117f38385612680565b6117fd9190612649565b979650505050505050565b6008546000906001600160a01b03166118215750600090565b600f54611836906001600160a01b03166121da565b6008546040517fb8ac86420000000000000000000000000000000000000000000000000000000081526001600160a01b03918216600482015291169063b8ac86429060240160206040518083038186803b15801561189357600080fd5b505afa1580156118a7573d6000803e3d6000fd5b505050506040513d601f19601f820116820180604052508101906118cb9190612411565b600f546118e0906001600160a01b03166121da565b6008546040517fc00007b00000000000000000000000000000000000000000000000000000000081526001600160a01b03918216600482015291169063c00007b09060240160206040518083038186803b15801561193d57600080fd5b505afa158015611951573d6000803e3d6000fd5b505050506040513d601f19601f820116820180604052508101906119759190612411565b6110679190612631565b60008054906101000a90046001600160a01b03166001600160a01b0316636760c4b76040518163ffffffff1660e01b815260040160206040518083038186803b1580156119cb57600080fd5b505afa1580156119df573d6000803e3d6000fd5b505050506040513d601f19601f82011682018060405250810190611a039190612301565b6001600160a01b0316336001600160a01b031614611a6d5760405162461bcd60e51b815260206004820152602160248201527f4f6e6c7920617661696c61626c6520666f7220416374696f6e206163636f756e6044820152601d60fa1b6064820152608401610620565b6000546002600160a01b90910460ff1610611aba5760405162461bcd60e51b815260206004820152600d60248201526c13d999995c88189b1bd8dad959609a1b6044820152606401610620565b42600d55600e80546001600160a01b03191633179055805161069f90600490602084019061224c565b60008054906101000a90046001600160a01b03166001600160a01b0316636760c4b76040518163ffffffff1660e01b815260040160206040518083038186803b158015611b2f57600080fd5b505afa158015611b43573d6000803e3d6000fd5b505050506040513d601f19601f82011682018060405250810190611b679190612301565b6001600160a01b0316336001600160a01b031614611bd15760405162461bcd60e51b815260206004820152602160248201527f4f6e6c7920617661696c61626c6520666f7220416374696f6e206163636f756e6044820152601d60fa1b6064820152608401610620565b6000546002600160a01b90910460ff1610611c1e5760405162461bcd60e51b815260206004820152600d60248201526c13d999995c88189b1bd8dad959609a1b6044820152606401610620565b600154611c6d5760405162461bcd60e51b815260206004820152601860248201527f4f6666657220697320616c726561647920656e61626c656400000000000000006044820152606401610620565b42600d55600e80546001600160a01b03191633179055600060018181558154604051639789e32360e01b8152600481019290925260248201929092526001600160a01b0390911690639789e32390604401610aae565b600f54611cd8906001600160a01b03166120c0565b6001600160a01b0316336001600160a01b031614611d385760405162461bcd60e51b815260206004820152601c60248201527f4f6e6c7920617661696c61626c6520666f72205465654f6666657273000000006044820152606401610620565b60008054601490611d5290600160a01b900460ff166126f1565b91906101000a81548160ff021916908360ff160217905550565b60008054906101000a90046001600160a01b03166001600160a01b0316636760c4b76040518163ffffffff1660e01b815260040160206040518083038186803b158015611db857600080fd5b505afa158015611dcc573d6000803e3d6000fd5b505050506040513d601f19601f82011682018060405250810190611df09190612301565b6001600160a01b0316336001600160a01b031614611e5a5760405162461bcd60e51b815260206004820152602160248201527f4f6e6c7920617661696c61626c6520666f7220416374696f6e206163636f756e6044820152601d60fa1b6064820152608401610620565b6000546002600160a01b90910460ff1610611ea75760405162461bcd60e51b815260206004820152600d60248201526c13d999995c88189b1bd8dad959609a1b6044820152606401610620565b42600d55600e80546001600160a01b03191633179055805161069f90600390602084019061224c565b60008054906101000a90046001600160a01b03166001600160a01b0316636760c4b76040518163ffffffff1660e01b815260040160206040518083038186803b158015611f1c57600080fd5b505afa158015611f30573d6000803e3d6000fd5b505050506040513d601f19601f82011682018060405250810190611f549190612301565b6001600160a01b0316336001600160a01b031614611fbe5760405162461bcd60e51b815260206004820152602160248201527f4f6e6c7920617661696c61626c6520666f7220416374696f6e206163636f756e6044820152601d60fa1b6064820152608401610620565b6000546002600160a01b90910460ff161061200b5760405162461bcd60e51b815260206004820152600d60248201526c13d999995c88189b1bd8dad959609a1b6044820152606401610620565b426013546201518061201d9190612631565b1061206a5760405162461bcd60e51b815260206004820152601460248201527f417661696c61626c65206f6e63652061206461790000000000000000000000006044820152606401610620565b42601355805161069f90600990602084019061224c565b428083556001830180546001600160a01b039093166001600160a01b031993841681179091556002840191909155600390920180549091169091179055565b60006120cb82612211565b6001600160a01b031663bcaa0c5560046040518263ffffffff1660e01b81526004016120f79190612587565b60206040518083038186803b15801561210f57600080fd5b505afa158015612123573d6000803e3d6000fd5b505050506040513d601f19601f820116820180604052508101906121479190612301565b92915050565b600061215883612211565b6001600160a01b03166303a2216d836040518263ffffffff1660e01b815260040161218391906125c9565b60206040518083038186803b15801561219b57600080fd5b505afa1580156121af573d6000803e3d6000fd5b505050506040513d601f19601f820116820180604052508101906121d39190612411565b9392505050565b60006121e582612211565b6001600160a01b031663bcaa0c55600b6040518263ffffffff1660e01b81526004016120f79190612587565b6000816001600160a01b031663f1f0bd016040518163ffffffff1660e01b815260040160206040518083038186803b15801561210f57600080fd5b828054612258906126b6565b90600052602060002090601f01602090048101928261227a57600085556122c0565b82601f1061229357805160ff19168380011785556122c0565b828001600101855582156122c0579182015b828111156122c05782518255916020019190600101906122a5565b506122cc9291506122d0565b5090565b5b808211156122cc57600081556001016122d1565b6000602082840312156122f6578081fd5b81356121d381612769565b600060208284031215612312578081fd5b81516121d381612769565b6000806040838503121561232f578081fd5b823561233a81612769565b946020939093013593505050565b600060208284031215612359578081fd5b8135600481106121d3578182fd5b600060208284031215612378578081fd5b813567ffffffffffffffff8082111561238f578283fd5b818401915084601f8301126123a2578283fd5b8135818111156123b4576123b4612753565b604051601f8201601f19908116603f011681019083821181831017156123dc576123dc612753565b816040528281528760208487010111156123f4578586fd5b826020860160208301379182016020019490945295945050505050565b600060208284031215612422578081fd5b5051919050565b6000806040838503121561243b578182fd5b50508035926020909101359150565b60008151808452815b8181101561246f57602081850181015186830182015201612453565b818111156124805782602083870101525b50601f01601f19169290920160200192915050565b600061012082518185526124ab8286018261244a565b915050602083015184820360208601526124c5828261244a565b915050604083015184820360408601526124df828261244a565b91505060608301516124f9606086018263ffffffff169052565b506080830151612515608086018267ffffffffffffffff169052565b5060a083015184820360a086015261252d828261244a565b91505060c083015161254a60c08601826001600160a01b03169052565b5060e083015184820360e0860152612562828261244a565b915050610100808401518583038287015261257d838261244a565b9695505050505050565b60208101600c831061259b5761259b61273d565b91905290565b602081016003831061259b5761259b61273d565b602081016004831061259b5761259b61273d565b602081016011831061259b5761259b61273d565b6020815260006121d3602083018461244a565b6020815260006121d36020830184612495565b6060815260006126166060830186612495565b6001600160a01b039490941660208301525060400152919050565b6000821982111561264457612644612711565b500190565b60008261265857612658612727565b500490565b600063ffffffff8084168061267457612674612727565b92169190910492915050565b600081600019048311821515161561269a5761269a612711565b500290565b6000828210156126b1576126b1612711565b500390565b600181811c908216806126ca57607f821691505b602082108114156126eb57634e487b7160e01b600052602260045260246000fd5b50919050565b600060ff821660ff81141561270857612708612711565b60010192915050565b634e487b7160e01b600052601160045260246000fd5b634e487b7160e01b600052601260045260246000fd5b634e487b7160e01b600052602160045260246000fd5b634e487b7160e01b600052604160045260246000fd5b6001600160a01b038116811461277e57600080fd5b5056fea2646970667358221220ba798eaa6fa58b706aab141bf9f25e548051926c0c3722de8d9eb513765a460664736f6c63430008040033a264697066735822122024c41b2ebd72d77c9853524839d80290ece674e91643f94ac518f3a4ab7330f164736f6c63430008040033",
  "linkReferences": {},
  "deployedLinkReferences": {}
}