{
    "_format": "hh-sol-artifact-1",
    "contractName": "Voting",
    "sourceName": "contracts/Voting.sol",
    "abi": [
        {
            "inputs": [
                {
                    "internalType": "contract ISuperpro",
                    "name": "addr",
                    "type": "address"
                }
            ],
            "stateMutability": "nonpayable",
            "type": "constructor"
        },
        {
            "anonymous": false,
            "inputs": [
                {
                    "indexed": false,
                    "internalType": "address",
                    "name": "newBallotAddress",
                    "type": "address"
                }
            ],
            "name": "BallotCreated",
            "type": "event"
        },
        {
            "inputs": [
                {
                    "internalType": "enum ContractName",
                    "name": "contractName",
                    "type": "uint8"
                },
                {
                    "internalType": "address",
                    "name": "newAddress",
                    "type": "address"
                }
            ],
            "name": "createBallotForAddressUpdate",
            "outputs": [
                {
                    "internalType": "address",
                    "name": "",
                    "type": "address"
                }
            ],
            "stateMutability": "nonpayable",
            "type": "function"
        },
        {
            "inputs": [
                {
                    "internalType": "enum ParamName",
                    "name": "paramName",
                    "type": "uint8"
                },
                {
                    "internalType": "uint256",
                    "name": "newValue",
                    "type": "uint256"
                }
            ],
            "name": "createBallotForParamUpdate",
            "outputs": [
                {
                    "internalType": "address",
                    "name": "",
                    "type": "address"
                }
            ],
            "stateMutability": "nonpayable",
            "type": "function"
        },
        {
            "inputs": [],
            "name": "getBallots",
            "outputs": [
                {
                    "internalType": "address[]",
                    "name": "",
                    "type": "address[]"
                }
            ],
            "stateMutability": "view",
            "type": "function"
        },
        {
            "inputs": [],
            "name": "getTotalHoldedVotes",
            "outputs": [
                {
                    "internalType": "uint256",
                    "name": "",
                    "type": "uint256"
                }
            ],
            "stateMutability": "view",
            "type": "function"
        },
        {
            "inputs": [
                {
                    "internalType": "address",
                    "name": "user",
                    "type": "address"
                }
            ],
            "name": "getUserBallots",
            "outputs": [
                {
                    "internalType": "address[]",
                    "name": "",
                    "type": "address[]"
                }
            ],
            "stateMutability": "view",
            "type": "function"
        },
        {
            "inputs": [
                {
                    "internalType": "address",
                    "name": "user",
                    "type": "address"
                }
            ],
            "name": "getUserHoldedVotesCount",
            "outputs": [
                {
                    "internalType": "uint256",
                    "name": "",
                    "type": "uint256"
                }
            ],
            "stateMutability": "view",
            "type": "function"
        },
        {
            "inputs": [
                {
                    "internalType": "uint256",
                    "name": "amount",
                    "type": "uint256"
                }
            ],
            "name": "hold",
            "outputs": [],
            "stateMutability": "nonpayable",
            "type": "function"
        },
        {
            "inputs": [
                {
                    "internalType": "address",
                    "name": "ballotAddress",
                    "type": "address"
                }
            ],
            "name": "resolve",
            "outputs": [],
            "stateMutability": "nonpayable",
            "type": "function"
        },
        {
            "inputs": [
                {
                    "internalType": "uint256",
                    "name": "amount",
                    "type": "uint256"
                }
            ],
            "name": "unhold",
            "outputs": [],
            "stateMutability": "nonpayable",
            "type": "function"
        }
    ],
    "bytecode": "0x608060405234801561001057600080fd5b50604051612cd4380380612cd483398101604081905261002f91610054565b600080546001600160a01b0319166001600160a01b0392909216919091179055610082565b600060208284031215610065578081fd5b81516001600160a01b038116811461007b578182fd5b9392505050565b612c43806100916000396000f3fe60806040523480156200001157600080fd5b5060043610620000b05760003560e01c806355ea6c47116200007f578063bc992bcb1162000062578063bc992bcb1462000169578063d5deba031462000195578063eb87c6dc14620001ac57600080fd5b806355ea6c47146200012c5780635e0521fb146200014357600080fd5b806327cf0f2514620000b55780632930974514620000e95780633955b07014620000fc57806349c910c01462000115575b600080fd5b620000cc620000c6366004620011b0565b620001b6565b6040516001600160a01b0390911681526020015b60405180910390f35b6006545b604051908152602001620000e0565b620001136200010d36600462001337565b62000258565b005b620001136200012636600462001337565b6200030a565b620001136200013d3660046200116b565b62000466565b6200015a620001543660046200116b565b62000aad565b604051620000e0919062001411565b620000ed6200017a3660046200116b565b6001600160a01b031660009081526005602052604090205490565b620000cc620001a6366004620011ed565b62000b25565b6200015a62000bb8565b600033620001c362000c1c565b6040805160a0810182526000808252602082018181529282018190526060820181905260808201529085600b8111156200020d57634e487b7160e01b600052602160045260246000fd5b9081600b8111156200022f57634e487b7160e01b600052602160045260246000fd5b9052506001600160a01b03841660408201526200024d828262000d90565b925050505b92915050565b6200026262000c1c565b3360009081526005602052604081208054839290620002839084906200158a565b9091555050600154604051637eee288d60e01b8152336004820152602481018390526001600160a01b0390911690637eee288d90604401600060405180830381600087803b158015620002d557600080fd5b505af1158015620002ea573d6000803e3d6000fd5b5050505080600660008282546200030291906200158a565b909155505050565b6200031462000c1c565b3360009081526005602052604081208054839290620003359084906200156f565b90915550506001546000546040516303a2216d60e01b81526001600160a01b039283169263e2ab691d9233928692909116906303a2216d906200037e90600b90600401620014c8565b60206040518083038186803b1580156200039757600080fd5b505afa158015620003ac573d6000803e3d6000fd5b505050506040513d601f19601f82011682018060405250810190620003d2919062001350565b6040517fffffffff0000000000000000000000000000000000000000000000000000000060e086901b1681526001600160a01b03909316600484015260248301919091526044820152606401600060405180830381600087803b1580156200043957600080fd5b505af11580156200044e573d6000803e3d6000fd5b5050505080600660008282546200030291906200156f565b6200047062000c1c565b6001600160a01b0381166000908152600360205260409020546002548110620004e05760405162461bcd60e51b815260206004820152601b60248201527f556e6b6e6f776e2062616c6c6f742c2077726f6e6720696e646578000000000060448201526064015b60405180910390fd5b816001600160a01b0316600282815481106200050c57634e487b7160e01b600052603260045260246000fd5b6000918252602090912001546001600160a01b031614620005705760405162461bcd60e51b815260206004820152601d60248201527f556e6b6e6f776e2062616c6c6f742c2077726f6e6720616464726573730000006044820152606401620004d7565b60008290506000816001600160a01b0316635a9b0b896040518163ffffffff1660e01b815260040160006040518083038186803b158015620005b157600080fd5b505afa158015620005c6573d6000803e3d6000fd5b505050506040513d6000823e601f3d908101601f19168201604052620005f091908101906200121b565b90508060600151421015620006485760405162461bcd60e51b815260206004820152601460248201527f42616c6c6f74206973207374696c6c206f70656e0000000000000000000000006044820152606401620004d7565b80608001514210156200069e5760405162461bcd60e51b815260206004820152601960248201527f5761697420756e74696c20657865637574696f6e2064617465000000000000006044820152606401620004d7565b60008160c001516002811115620006c557634e487b7160e01b600052602160045260246000fd5b14620007145760405162461bcd60e51b815260206004820152601860248201527f42616c6c6f7420697320616c726561647920636c6f73656400000000000000006044820152606401620004d7565b8061012001518161016001518261014001516200073291906200156f565b10156200082e576040516391e4793560e01b81526001600160a01b038316906391e47935906200076b9060029060009060040162001460565b600060405180830381600087803b1580156200078657600080fd5b505af11580156200079b573d6000803e3d6000fd5b5050600154835160208501516040517f183147030000000000000000000000000000000000000000000000000000000081526001600160a01b039283166004820152602481019190915291169250631831470391506044015b600060405180830381600087803b1580156200080f57600080fd5b505af115801562000824573d6000803e3d6000fd5b5050505050505050565b8061016001518161014001511162000872576040516391e4793560e01b81526001600160a01b038316906391e47935906200076b9060029060019060040162001460565b600060a08201515160018111156200089a57634e487b7160e01b600052602160045260246000fd5b1415620009345760005460a0820151602081015160409182015191517f0589c4e50000000000000000000000000000000000000000000000000000000081526001600160a01b0390931692630589c4e592620008fa9291600401620014a2565b600060405180830381600087803b1580156200091557600080fd5b505af11580156200092a573d6000803e3d6000fd5b5050505062000a07565b600160a08201515160018111156200095c57634e487b7160e01b600052602160045260246000fd5b1415620009be5760005460a082015160608101516080909101516040517fc1cca2b30000000000000000000000000000000000000000000000000000000081526001600160a01b039093169263c1cca2b392620008fa929091600401620014d8565b60405162461bcd60e51b815260206004820152601c60248201527f556e6b6e6f776e206d6f64696669636174696f6e2072657175657374000000006044820152606401620004d7565b6040516391e4793560e01b81526001600160a01b038316906391e479359062000a3890600190819060040162001460565b600060405180830381600087803b15801562000a5357600080fd5b505af115801562000a68573d6000803e3d6000fd5b505060015483516020850151604051637eee288d60e01b81526001600160a01b039283166004820152602481019190915291169250637eee288d9150604401620007f4565b6001600160a01b03811660009081526004602090815260409182902080548351818402810184019094528084526060939283018282801562000b1957602002820191906000526020600020905b81546001600160a01b0316815260019091019060200180831162000afa575b50505050509050919050565b60003362000b3262000c1c565b6040805160a081018252600060208201819052918101829052606081018281526080820192909252600181529085601081111562000b8057634e487b7160e01b600052602160045260246000fd5b9081601081111562000ba257634e487b7160e01b600052602160045260246000fd5b905250608081018490526200024d828262000d90565b6060600280548060200260200160405190810160405280929190818152602001828054801562000c1257602002820191906000526020600020905b81546001600160a01b0316815260019091019060200180831162000bf3575b5050505050905090565b60008054906101000a90046001600160a01b03166001600160a01b031663f1f0bd016040518163ffffffff1660e01b815260040160206040518083038186803b15801562000c6957600080fd5b505afa15801562000c7e573d6000803e3d6000fd5b505050506040513d601f19601f8201168201806040525081019062000ca4919062001191565b6000805473ffffffffffffffffffffffffffffffffffffffff19166001600160a01b039290921691821790556040517fbcaa0c5500000000000000000000000000000000000000000000000000000000815263bcaa0c559062000d0d9060029060040162001492565b60206040518083038186803b15801562000d2657600080fd5b505afa15801562000d3b573d6000803e3d6000fd5b505050506040513d601f19601f8201168201806040525081019062000d61919062001191565b6001805473ffffffffffffffffffffffffffffffffffffffff19166001600160a01b0392909216919091179055565b600080546040516303a2216d60e01b815282916001600160a01b0316906303a2216d9062000dc490600890600401620014c8565b60206040518083038186803b15801562000ddd57600080fd5b505afa15801562000df2573d6000803e3d6000fd5b505050506040513d601f19601f8201168201806040525081019062000e18919062001350565b6001546040517fe2ab691d0000000000000000000000000000000000000000000000000000000081526001600160a01b038781166004830152602482018490526000604483015292935091169063e2ab691d90606401600060405180830381600087803b15801562000e8957600080fd5b505af115801562000e9e573d6000803e3d6000fd5b5050600080546040519193506001600160a01b0316915086908490879062000ec69062000fc3565b62000ed5949392919062001393565b604051809103906000f08015801562000ef2573d6000803e3d6000fd5b50600280546001600160a01b03838116600081815260036020908152604080832086905560018087019097557f405787fa12a823e0f2b7631cc41b3ba8828b3321ca811111fa75cd3aa3bb5ace909501805473ffffffffffffffffffffffffffffffffffffffff199081168517909155938c16825260048152848220805496870181558252908190209094018054909216811790915590519081529192507f165f4a0bebf649c196135ba0519a9a51da33d33a9e4d096b71050c2c97ec670f910160405180910390a1949350505050565b6115d1806200163d83390190565b805162000fde81620015fc565b919050565b600082601f83011262000ff4578081fd5b8151602067ffffffffffffffff821115620010135762001013620015d0565b62001023818360051b016200153b565b80838252828201915082860187848660061b890101111562001043578586fd5b855b85811015620010a257604080838b0312156200105f578788fd5b62001069620014e8565b83516200107681620015fc565b81528387015180151581146200108a57898afd5b81880152855293850193919091019060010162001045565b5090979650505050505050565b805162000fde8162001612565b80516003811062000fde57600080fd5b600060a08284031215620010de578081fd5b60405160a0810181811067ffffffffffffffff82111715620011045762001104620015d0565b80604052508091508251620011198162001612565b815260208301516200112b8162001620565b602082015260408301516200114081620015fc565b6040820152606083015162001155816200162e565b6060820152608092830151920191909152919050565b6000602082840312156200117d578081fd5b81356200118a81620015fc565b9392505050565b600060208284031215620011a3578081fd5b81516200118a81620015fc565b60008060408385031215620011c3578081fd5b8235620011d08162001620565b91506020830135620011e281620015fc565b809150509250929050565b6000806040838503121562001200578182fd5b82356200120d816200162e565b946020939093013593505050565b6000602082840312156200122d578081fd5b815167ffffffffffffffff8082111562001245578283fd5b9083019061022082860312156200125a578283fd5b6200126462001514565b6200126f8362000fd1565b815260208301516020820152604083015160408201526060830151606082015260808301516080820152620012a88660a08501620010cc565b60a0820152610140620012bd818501620010bc565b60c0830152610160620012d2818601620010af565b60e0840152610180808601516101008501526101a08601516101208501526101c0860151838501526101e08601518285015261020086015192508483111562001319578687fd5b620013278984880162000fe3565b9084015250909695505050505050565b60006020828403121562001349578081fd5b5035919050565b60006020828403121562001362578081fd5b5051919050565b600c81106200137c576200137c620015ba565b9052565b601181106200137c576200137c620015ba565b6000610100820190506001600160a01b03808716835280861660208401528460408401528351620013c481620015e6565b60608401526020840151620013dd608085018262001369565b5060408401511660a08301526060830151620013fd60c084018262001380565b50608083015160e083015295945050505050565b6020808252825182820181905260009190848201906040850190845b81811015620014545783516001600160a01b0316835292840192918401916001016200142d565b50909695505050505050565b6040810160038410620014775762001477620015ba565b8382526200148583620015e6565b8260208301529392505050565b6020810162000252828462001369565b60408101620014b2828562001369565b6001600160a01b03831660208301529392505050565b6020810162000252828462001380565b6040810162001485828562001380565b6040805190810167ffffffffffffffff811182821017156200150e576200150e620015d0565b60405290565b6040516101a0810167ffffffffffffffff811182821017156200150e576200150e620015d0565b604051601f8201601f1916810167ffffffffffffffff81118282101715620015675762001567620015d0565b604052919050565b60008219821115620015855762001585620015a4565b500190565b6000828210156200159f576200159f620015a4565b500390565b634e487b7160e01b600052601160045260246000fd5b634e487b7160e01b600052602160045260246000fd5b634e487b7160e01b600052604160045260246000fd5b60028110620015f957620015f9620015ba565b50565b6001600160a01b0381168114620015f957600080fd5b60028110620015f957600080fd5b600c8110620015f957600080fd5b60118110620015f957600080fdfe60806040523480156200001157600080fd5b50604051620015d1380380620015d183398101604081905262000034916200033e565b600080546001600160a01b038087166001600160a01b0319928316178355600180549187169190921617815560028490554260035560088054909160ff1990911690830217905550805160068054839290829060ff191660018381811115620000ad57634e487b7160e01b600052602160045260246000fd5b021790555060208201518154829061ff00191661010083600b811115620000e457634e487b7160e01b600052602160045260246000fd5b0217905550604082015181546001600160a01b03909116620100000262010000600160b01b0319821681178355606084015191839160ff60b01b191662010000600160b81b031990911617600160b01b8360108111156200015557634e487b7160e01b600052602160045260246000fd5b021790555060809190910151600190910155600080546040516303a2216d60e01b81526001600160a01b03909116906303a2216d906200019b9060099060040162000438565b60206040518083038186803b158015620001b457600080fd5b505afa158015620001c9573d6000803e3d6000fd5b505050506040513d601f19601f82011682018060405250810190620001ef91906200041f565b600080546040516303a2216d60e01b815292935090916001600160a01b03909116906303a2216d906200022890600a9060040162000438565b60206040518083038186803b1580156200024157600080fd5b505afa15801562000256573d6000803e3d6000fd5b505050506040513d601f19601f820116820180604052508101906200027c91906200041f565b90506200028d610e1060186200049e565b6200029f9063ffffffff16836200047c565b600354620002ae919062000461565b600455620002c0610e1060186200049e565b620002d29063ffffffff16826200047c565b600454620002e1919062000461565b60055550620004e3945050505050565b80516001600160a01b03811681146200030957600080fd5b919050565b8051600c81106200030957600080fd5b8051600281106200030957600080fd5b8051601181106200030957600080fd5b60008060008084860361010081121562000356578485fd5b6200036186620002f1565b94506200037160208701620002f1565b93506040860151925060a0605f19820112156200038c578182fd5b5060405160a081016001600160401b0381118282101715620003bc57634e487b7160e01b83526041600452602483fd5b604052620003cd606087016200031e565b8152620003dd608087016200030e565b6020820152620003f060a08701620002f1565b60408201526200040360c087016200032e565b606082015260e086015160808201528091505092959194509250565b60006020828403121562000431578081fd5b5051919050565b60208101601183106200045b57634e487b7160e01b600052602160045260246000fd5b91905290565b60008219821115620004775762000477620004cd565b500190565b6000816000190483118215151615620004995762000499620004cd565b500290565b600063ffffffff80831681851681830481118215151615620004c457620004c4620004cd565b02949350505050565b634e487b7160e01b600052601160045260246000fd5b6110de80620004f36000396000f3fe608060405234801561001057600080fd5b50600436106100415760003560e01c80634b9f5c98146100465780635a9b0b891461005b57806391e4793514610079575b600080fd5b610059610054366004610dae565b61008c565b005b610063610473565b6040516100709190610f26565b60405180910390f35b610059610087366004610dce565b610af6565b600054604080517ff1f0bd01000000000000000000000000000000000000000000000000000000008152905133926001600160a01b03169163f1f0bd01916004808301926020929190829003018186803b1580156100e957600080fd5b505afa1580156100fd573d6000803e3d6000fd5b505050506040513d601f19601f820116820180604052508101906101219190610d87565b600080547fffffffffffffffffffffffff0000000000000000000000000000000000000000166001600160a01b0392909216918217815560405163bcaa0c5560e01b815290919063bcaa0c559061017d90600790600401610f04565b60206040518083038186803b15801561019557600080fd5b505afa1580156101a9573d6000803e3d6000fd5b505050506040513d601f19601f820116820180604052508101906101cd9190610d87565b60405163bc992bcb60e01b81526001600160a01b03848116600483015291925060009183169063bc992bcb9060240160206040518083038186803b15801561021457600080fd5b505afa158015610228573d6000803e3d6000fd5b505050506040513d601f19601f8201168201806040525081019061024c9190610e0c565b1161029e5760405162461bcd60e51b815260206004820152600f60248201527f4e6f20766f74696e6720706f776572000000000000000000000000000000000060448201526064015b60405180910390fd5b60045442106102ef5760405162461bcd60e51b815260206004820152601060248201527f42616c6c6f7420697320636c6f736564000000000000000000000000000000006044820152606401610295565b6001600160a01b0382166000908152600f6020526040812054600e54909190821080156103595750836001600160a01b0316600e838154811061034257634e487b7160e01b600052603260045260246000fd5b6000918252602090912001546001600160a01b0316145b905080156103c85784600e838154811061038357634e487b7160e01b600052603260045260246000fd5b60009182526020909120018054911515600160a01b027fffffffffffffffffffffff00ffffffffffffffffffffffffffffffffffffffff90921691909117905561046c565b600e80546001600160a01b038681166000818152600f6020908152604080832086905580518082019091529283528a1515908301908152600185018655949052517fbb7b4a454dc3493923482f07822329ed19e8244eff582cc204f8554c3620c3fd909201805493511515600160a01b027fffffffffffffffffffffff00000000000000000000000000000000000000000090941692909116919091179190911790555b5050505050565b61047b610ce7565b60008060009054906101000a90046001600160a01b03166001600160a01b031663f1f0bd016040518163ffffffff1660e01b815260040160206040518083038186803b1580156104ca57600080fd5b505afa1580156104de573d6000803e3d6000fd5b505050506040513d601f19601f820116820180604052508101906105029190610d87565b90506000816001600160a01b031663bcaa0c5560076040518263ffffffff1660e01b81526004016105339190610f04565b60206040518083038186803b15801561054b57600080fd5b505afa15801561055f573d6000803e3d6000fd5b505050506040513d601f19601f820116820180604052508101906105839190610d87565b90506000816001600160a01b031663293097456040518163ffffffff1660e01b815260040160206040518083038186803b1580156105c057600080fd5b505afa1580156105d4573d6000803e3d6000fd5b505050506040513d601f19601f820116820180604052508101906105f89190610e0c565b600080546040517f03a2216d00000000000000000000000000000000000000000000000000000000815292935090916001600160a01b03909116906303a2216d9061064890600c90600401610f18565b60206040518083038186803b15801561066057600080fd5b505afa158015610674573d6000803e3d6000fd5b505050506040513d601f19601f820116820180604052508101906106989190610e0c565b905060006106a68383610cc8565b604080516101a081018252600180546001600160a01b0316825260025460208301526003548284015260045460608301526005546080830152825160a081810190945260068054959650929491938501929091829060ff168581111561071c57634e487b7160e01b600052602160045260246000fd5b600181111561073b57634e487b7160e01b600052602160045260246000fd5b81528154602090910190610100900460ff16600b81111561076c57634e487b7160e01b600052602160045260246000fd5b600b81111561078b57634e487b7160e01b600052602160045260246000fd5b815281546201000081046001600160a01b03166020830152604090910190760100000000000000000000000000000000000000000000900460ff1660108111156107e557634e487b7160e01b600052602160045260246000fd5b601081111561080457634e487b7160e01b600052602160045260246000fd5b815260019190910154602091820152908252600783015491019060ff16600281111561084057634e487b7160e01b600052602160045260246000fd5b600281111561085f57634e487b7160e01b600052602160045260246000fd5b81526020016007820160019054906101000a900460ff16600181111561089557634e487b7160e01b600052602160045260246000fd5b60018111156108b457634e487b7160e01b600052602160045260246000fd5b81526020016008820154815260200160098201548152602001600a8201548152602001600b8201548152602001600c8201805480602002602001604051908101604052809291908181526020016000905b8282101561095057600084815260209081902060408051808201909152908401546001600160a01b0381168252600160a01b900460ff16151581830152825260019092019101610905565b5050509152505061010081018490526101208101829052600e80546040805160208084028201810190925282815293995060009084015b828210156109d257600084815260209081902060408051808201909152908401546001600160a01b0381168252600160a01b900460ff16151581830152825260019092019101610987565b5050505061018087015260005b600e54811015610aed576000600e8281548110610a0c57634e487b7160e01b600052603260045260246000fd5b60009182526020822001805460405163bc992bcb60e01b81526001600160a01b03918216600482015291935088169063bc992bcb9060240160206040518083038186803b158015610a5c57600080fd5b505afa158015610a70573d6000803e3d6000fd5b505050506040513d601f19601f82011682018060405250810190610a949190610e0c565b8254909150600160a01b900460ff1615610ac357808961014001818151610abb9190610ff7565b905250610ada565b808961016001818151610ad69190610ff7565b9052505b505080610ae69061104e565b90506109df565b50505050505090565b60008060009054906101000a90046001600160a01b03166001600160a01b031663f1f0bd016040518163ffffffff1660e01b815260040160206040518083038186803b158015610b4557600080fd5b505afa158015610b59573d6000803e3d6000fd5b505050506040513d601f19601f82011682018060405250810190610b7d9190610d87565b60405163bcaa0c5560e01b81529091506001600160a01b0382169063bcaa0c5590610bad90600790600401610f04565b60206040518083038186803b158015610bc557600080fd5b505afa158015610bd9573d6000803e3d6000fd5b505050506040513d601f19601f82011682018060405250810190610bfd9190610d87565b6001600160a01b0316336001600160a01b031614610c5d5760405162461bcd60e51b815260206004820152600d60248201527f4163636573732064656e696564000000000000000000000000000000000000006044820152606401610295565b6008805484919060ff19166001836002811115610c8a57634e487b7160e01b600052602160045260246000fd5b02179055506008805483919061ff001916610100836001811115610cbe57634e487b7160e01b600052602160045260246000fd5b0217905550505050565b60006064610cd6838561102f565b610ce0919061100f565b9392505050565b604051806101a0016040528060006001600160a01b0316815260200160008152602001600081526020016000815260200160008152602001610d506040805160a08101825260008082526020820181905291810182905260608101829052608081019190915290565b8152602001600081526020016000815260200160008152602001600081526020016000815260200160008152602001606081525090565b600060208284031215610d98578081fd5b81516001600160a01b0381168114610ce0578182fd5b600060208284031215610dbf578081fd5b81358015158114610ce0578182fd5b60008060408385031215610de0578081fd5b823560038110610dee578182fd5b9150602083013560028110610e01578182fd5b809150509250929050565b600060208284031215610e1d578081fd5b5051919050565b6000815180845260208085019450808401835b83811015610e6957815180516001600160a01b0316885283015115158388015260409096019590820190600101610e37565b509495945050505050565b610e7d81611095565b9052565b60038110610e7d57610e7d61107f565b600c8110610e7d57610e7d61107f565b60118110610e7d57610e7d61107f565b8051610ebc81611095565b808352506020810151610ed26020840182610e91565b506001600160a01b0360408201511660408301526060810151610ef86060840182610ea1565b50608090810151910152565b60208101610f128284610e91565b92915050565b60208101610f128284610ea1565b60208152610f406020820183516001600160a01b03169052565b602082015160408201526040820151606082015260608201516080820152608082015160a0820152600060a0830151610f7c60c0840182610eb1565b5060c0830151610160610f9181850183610e81565b60e08501519150610180610fa781860184610e74565b6101008601516101a08601526101208601516101c08601526101408601516101e086015290850151610200850152840151610220808501529050610fef610240840182610e24565b949350505050565b6000821982111561100a5761100a611069565b500190565b60008261102a57634e487b7160e01b81526012600452602481fd5b500490565b600081600019048311821515161561104957611049611069565b500290565b600060001982141561106257611062611069565b5060010190565b634e487b7160e01b600052601160045260246000fd5b634e487b7160e01b600052602160045260246000fd5b600281106110a5576110a561107f565b5056fea2646970667358221220fadd458bcb853fca2156e2656e3db0082a6ee41c853eceb058eb2715cd67cd3d64736f6c63430008040033a2646970667358221220e63e73ad08c67dcb9c1b0f2fc4e5bddc11bfa23f0e4576cfa78849c92da8361964736f6c63430008040033",
    "linkReferences": {},
    "deployedLinkReferences": {}
}