{
    "_format": "hh-sol-artifact-1",
    "contractName": "Voting",
    "sourceName": "contracts/Voting.sol",
    "abi": [
        {
            "inputs": [
                {
                    "internalType": "contract ISuperpro",
                    "name": "addr",
                    "type": "address"
                }
            ],
            "stateMutability": "nonpayable",
            "type": "constructor"
        },
        {
            "anonymous": false,
            "inputs": [
                {
                    "indexed": false,
                    "internalType": "address",
                    "name": "newBallotAddress",
                    "type": "address"
                }
            ],
            "name": "BallotCreated",
            "type": "event"
        },
        {
            "inputs": [
                {
                    "internalType": "enum ContractName",
                    "name": "contractName",
                    "type": "uint8"
                },
                {
                    "internalType": "address",
                    "name": "newAddress",
                    "type": "address"
                }
            ],
            "name": "createBallotForAddressUpdate",
            "outputs": [
                {
                    "internalType": "address",
                    "name": "",
                    "type": "address"
                }
            ],
            "stateMutability": "nonpayable",
            "type": "function"
        },
        {
            "inputs": [
                {
                    "internalType": "enum ParamName",
                    "name": "paramName",
                    "type": "uint8"
                },
                {
                    "internalType": "uint256",
                    "name": "newValue",
                    "type": "uint256"
                }
            ],
            "name": "createBallotForParamUpdate",
            "outputs": [
                {
                    "internalType": "address",
                    "name": "",
                    "type": "address"
                }
            ],
            "stateMutability": "nonpayable",
            "type": "function"
        },
        {
            "inputs": [],
            "name": "getBallots",
            "outputs": [
                {
                    "internalType": "address[]",
                    "name": "",
                    "type": "address[]"
                }
            ],
            "stateMutability": "view",
            "type": "function"
        },
        {
            "inputs": [],
            "name": "getTotalHoldedVotes",
            "outputs": [
                {
                    "internalType": "uint256",
                    "name": "",
                    "type": "uint256"
                }
            ],
            "stateMutability": "view",
            "type": "function"
        },
        {
            "inputs": [
                {
                    "internalType": "address",
                    "name": "user",
                    "type": "address"
                }
            ],
            "name": "getUserBallots",
            "outputs": [
                {
                    "internalType": "address[]",
                    "name": "",
                    "type": "address[]"
                }
            ],
            "stateMutability": "view",
            "type": "function"
        },
        {
            "inputs": [
                {
                    "internalType": "address",
                    "name": "user",
                    "type": "address"
                }
            ],
            "name": "getUserHoldedVotesCount",
            "outputs": [
                {
                    "internalType": "uint256",
                    "name": "",
                    "type": "uint256"
                }
            ],
            "stateMutability": "view",
            "type": "function"
        },
        {
            "inputs": [
                {
                    "internalType": "uint256",
                    "name": "amount",
                    "type": "uint256"
                }
            ],
            "name": "hold",
            "outputs": [],
            "stateMutability": "nonpayable",
            "type": "function"
        },
        {
            "inputs": [
                {
                    "internalType": "address",
                    "name": "ballotAddress",
                    "type": "address"
                }
            ],
            "name": "resolve",
            "outputs": [],
            "stateMutability": "nonpayable",
            "type": "function"
        },
        {
            "inputs": [
                {
                    "internalType": "uint256",
                    "name": "amount",
                    "type": "uint256"
                }
            ],
            "name": "unhold",
            "outputs": [],
            "stateMutability": "nonpayable",
            "type": "function"
        }
    ],
    "bytecode": "0x608060405234801561001057600080fd5b50604051612bcb380380612bcb83398101604081905261002f91610054565b600080546001600160a01b0319166001600160a01b0392909216919091179055610082565b600060208284031215610065578081fd5b81516001600160a01b038116811461007b578182fd5b9392505050565b612b3a806100916000396000f3fe60806040523480156200001157600080fd5b5060043610620000b05760003560e01c806355ea6c47116200007f578063bc992bcb1162000062578063bc992bcb1462000169578063d5deba031462000195578063eb87c6dc14620001ac57600080fd5b806355ea6c47146200012c5780635e0521fb146200014357600080fd5b806327cf0f2514620000b55780632930974514620000e95780633955b07014620000fc57806349c910c01462000115575b600080fd5b620000cc620000c6366004620010fa565b620001b6565b6040516001600160a01b0390911681526020015b60405180910390f35b6005545b604051908152602001620000e0565b620001136200010d36600462001281565b62000250565b005b620001136200012636600462001281565b6200030d565b620001136200013d366004620010bc565b62000405565b6200015a62000154366004620010bc565b62000a6c565b604051620000e091906200135b565b620000ed6200017a366004620010bc565b6001600160a01b031660009081526004602052604090205490565b620000cc620001a636600462001137565b62000ae4565b6200015a62000b6b565b6040805160a08101825260008082526020820181815292820181905260608201819052608082018190529133919085600b8111156200020557634e487b7160e01b600052602160045260246000fd5b9081600b8111156200022757634e487b7160e01b600052602160045260246000fd5b9052506001600160a01b038416604082015262000245828262000bcf565b925050505b92915050565b336000908152600460205260408120805483929062000271908490620014d4565b90915550506000546200028d906001600160a01b031662000db4565b604051637eee288d60e01b8152336004820152602481018390526001600160a01b039190911690637eee288d90604401600060405180830381600087803b158015620002d857600080fd5b505af1158015620002ed573d6000803e3d6000fd5b505050508060056000828254620003059190620014d4565b909155505050565b33600090815260046020526040812080548392906200032e908490620014b9565b90915550506000546200034a906001600160a01b031662000db4565b6000546001600160a01b039182169163e2ab691d9133918591620003719116600b62000e43565b6040517fffffffff0000000000000000000000000000000000000000000000000000000060e086901b1681526001600160a01b03909316600484015260248301919091526044820152606401600060405180830381600087803b158015620003d857600080fd5b505af1158015620003ed573d6000803e3d6000fd5b505050508060056000828254620003059190620014b9565b6001600160a01b0381166000908152600260205260409020546001548110620004755760405162461bcd60e51b815260206004820152601b60248201527f556e6b6e6f776e2062616c6c6f742c2077726f6e6720696e646578000000000060448201526064015b60405180910390fd5b816001600160a01b031660018281548110620004a157634e487b7160e01b600052603260045260246000fd5b6000918252602090912001546001600160a01b031614620005055760405162461bcd60e51b815260206004820152601d60248201527f556e6b6e6f776e2062616c6c6f742c2077726f6e67206164647265737300000060448201526064016200046c565b60008290506000816001600160a01b0316635a9b0b896040518163ffffffff1660e01b815260040160006040518083038186803b1580156200054657600080fd5b505afa1580156200055b573d6000803e3d6000fd5b505050506040513d6000823e601f3d908101601f1916820160405262000585919081019062001165565b90508060600151421015620005dd5760405162461bcd60e51b815260206004820152601460248201527f42616c6c6f74206973207374696c6c206f70656e00000000000000000000000060448201526064016200046c565b8060800151421015620006335760405162461bcd60e51b815260206004820152601960248201527f5761697420756e74696c20657865637574696f6e20646174650000000000000060448201526064016200046c565b60008160c0015160028111156200065a57634e487b7160e01b600052602160045260246000fd5b14620006a95760405162461bcd60e51b815260206004820152601860248201527f42616c6c6f7420697320616c726561647920636c6f736564000000000000000060448201526064016200046c565b806101200151816101600151826101400151620006c79190620014b9565b1015620007d8576040516391e4793560e01b81526001600160a01b038316906391e47935906200070090600290600090600401620013aa565b600060405180830381600087803b1580156200071b57600080fd5b505af115801562000730573d6000803e3d6000fd5b50506000546200074c92506001600160a01b0316905062000db4565b815160208301516040517f183147030000000000000000000000000000000000000000000000000000000081526001600160a01b03928316600482015260248101919091529116906318314703906044015b600060405180830381600087803b158015620007b957600080fd5b505af1158015620007ce573d6000803e3d6000fd5b5050505050505050565b806101600151816101400151116200081c576040516391e4793560e01b81526001600160a01b038316906391e47935906200070090600290600190600401620013aa565b600060a08201515160018111156200084457634e487b7160e01b600052602160045260246000fd5b1415620008de5760005460a0820151602081015160409182015191517f0589c4e50000000000000000000000000000000000000000000000000000000081526001600160a01b0390931692630589c4e592620008a49291600401620013ec565b600060405180830381600087803b158015620008bf57600080fd5b505af1158015620008d4573d6000803e3d6000fd5b50505050620009b1565b600160a08201515160018111156200090657634e487b7160e01b600052602160045260246000fd5b1415620009685760005460a082015160608101516080909101516040517fc1cca2b30000000000000000000000000000000000000000000000000000000081526001600160a01b039093169263c1cca2b392620008a492909160040162001422565b60405162461bcd60e51b815260206004820152601c60248201527f556e6b6e6f776e206d6f64696669636174696f6e20726571756573740000000060448201526064016200046c565b6040516391e4793560e01b81526001600160a01b038316906391e4793590620009e2906001908190600401620013aa565b600060405180830381600087803b158015620009fd57600080fd5b505af115801562000a12573d6000803e3d6000fd5b505060005462000a2e92506001600160a01b0316905062000db4565b81516020830151604051637eee288d60e01b81526001600160a01b0392831660048201526024810191909152911690637eee288d906044016200079e565b6001600160a01b03811660009081526003602090815260409182902080548351818402810184019094528084526060939283018282801562000ad857602002820191906000526020600020905b81546001600160a01b0316815260019091019060200180831162000ab9575b50505050509050919050565b6040805160a08101825260006020820181905291810182905260608101828152608082018390526001825233919085601081111562000b3357634e487b7160e01b600052602160045260246000fd5b9081601081111562000b5557634e487b7160e01b600052602160045260246000fd5b9052506080810184905262000245828262000bcf565b6060600180548060200260200160405190810160405280929190818152602001828054801562000bc557602002820191906000526020600020905b81546001600160a01b0316815260019091019060200180831162000ba6575b5050505050905090565b60008054819062000beb906001600160a01b0316600862000e43565b60005490915062000c05906001600160a01b031662000db4565b6040517fe2ab691d0000000000000000000000000000000000000000000000000000000081526001600160a01b0386811660048301526024820184905260006044830152919091169063e2ab691d90606401600060405180830381600087803b15801562000c7257600080fd5b505af115801562000c87573d6000803e3d6000fd5b5050600080546040519193506001600160a01b0316915086908490879062000caf9062000f14565b62000cbe9493929190620012dd565b604051809103906000f08015801562000cdb573d6000803e3d6000fd5b50600180546001600160a01b03838116600081815260026020908152604080832086905585870187557fb10e2d527612073b26eecdfd717e6a320cf44b4afac2b0732d9fcbe2b7fa0cf690950180547fffffffffffffffffffffffff00000000000000000000000000000000000000009081168517909155938c16825260038152848220805496870181558252908190209094018054909216811790915590519081529192507f165f4a0bebf649c196135ba0519a9a51da33d33a9e4d096b71050c2c97ec670f910160405180910390a1949350505050565b600062000dc18262000ed8565b6001600160a01b031663bcaa0c5560026040518263ffffffff1660e01b815260040162000def9190620013dc565b60206040518083038186803b15801562000e0857600080fd5b505afa15801562000e1d573d6000803e3d6000fd5b505050506040513d601f19601f820116820180604052508101906200024a9190620010db565b600062000e508362000ed8565b6001600160a01b03166303a2216d836040518263ffffffff1660e01b815260040162000e7d919062001412565b60206040518083038186803b15801562000e9657600080fd5b505afa15801562000eab573d6000803e3d6000fd5b505050506040513d601f19601f8201168201806040525081019062000ed191906200129a565b9392505050565b6000816001600160a01b031663f1f0bd016040518163ffffffff1660e01b815260040160206040518083038186803b15801562000e0857600080fd5b61157e806200158783390190565b805162000f2f8162001546565b919050565b600082601f83011262000f45578081fd5b8151602067ffffffffffffffff82111562000f645762000f646200151a565b62000f74818360051b0162001485565b80838252828201915082860187848660061b890101111562000f94578586fd5b855b8581101562000ff357604080838b03121562000fb0578788fd5b62000fba62001432565b835162000fc78162001546565b815283870151801515811462000fdb57898afd5b81880152855293850193919091019060010162000f96565b5090979650505050505050565b805162000f2f816200155c565b80516003811062000f2f57600080fd5b600060a082840312156200102f578081fd5b60405160a0810181811067ffffffffffffffff821117156200105557620010556200151a565b806040525080915082516200106a816200155c565b815260208301516200107c816200156a565b60208201526040830151620010918162001546565b60408201526060830151620010a68162001578565b6060820152608092830151920191909152919050565b600060208284031215620010ce578081fd5b813562000ed18162001546565b600060208284031215620010ed578081fd5b815162000ed18162001546565b600080604083850312156200110d578081fd5b82356200111a816200156a565b915060208301356200112c8162001546565b809150509250929050565b600080604083850312156200114a578182fd5b8235620011578162001578565b946020939093013593505050565b60006020828403121562001177578081fd5b815167ffffffffffffffff808211156200118f578283fd5b908301906102208286031215620011a4578283fd5b620011ae6200145e565b620011b98362000f22565b815260208301516020820152604083015160408201526060830151606082015260808301516080820152620011f28660a085016200101d565b60a0820152610140620012078185016200100d565b60c08301526101606200121c81860162001000565b60e0840152610180808601516101008501526101a08601516101208501526101c0860151838501526101e08601518285015261020086015192508483111562001263578687fd5b620012718984880162000f34565b9084015250909695505050505050565b60006020828403121562001293578081fd5b5035919050565b600060208284031215620012ac578081fd5b5051919050565b600c8110620012c657620012c662001504565b9052565b60118110620012c657620012c662001504565b6000610100820190506001600160a01b038087168352808616602084015284604084015283516200130e8162001530565b60608401526020840151620013276080850182620012b3565b5060408401511660a083015260608301516200134760c0840182620012ca565b50608083015160e083015295945050505050565b6020808252825182820181905260009190848201906040850190845b818110156200139e5783516001600160a01b03168352928401929184019160010162001377565b50909695505050505050565b6040810160038410620013c157620013c162001504565b838252620013cf8362001530565b8260208301529392505050565b602081016200024a8284620012b3565b60408101620013fc8285620012b3565b6001600160a01b03831660208301529392505050565b602081016200024a8284620012ca565b60408101620013cf8285620012ca565b6040805190810167ffffffffffffffff811182821017156200145857620014586200151a565b60405290565b6040516101a0810167ffffffffffffffff811182821017156200145857620014586200151a565b604051601f8201601f1916810167ffffffffffffffff81118282101715620014b157620014b16200151a565b604052919050565b60008219821115620014cf57620014cf620014ee565b500190565b600082821015620014e957620014e9620014ee565b500390565b634e487b7160e01b600052601160045260246000fd5b634e487b7160e01b600052602160045260246000fd5b634e487b7160e01b600052604160045260246000fd5b6002811062001543576200154362001504565b50565b6001600160a01b03811681146200154357600080fd5b600281106200154357600080fd5b600c81106200154357600080fd5b601181106200154357600080fdfe60806040523480156200001157600080fd5b506040516200157e3803806200157e83398101604081905262000034916200031a565b600080546001600160a01b038087166001600160a01b0319928316178355600180549187169190921617815560028490554260035560088054909160ff1990911690830217905550805160068054839290829060ff191660018381811115620000ad57634e487b7160e01b600052602160045260246000fd5b021790555060208201518154829061ff00191661010083600b811115620000e457634e487b7160e01b600052602160045260246000fd5b0217905550604082015181546001600160a01b03909116620100000262010000600160b01b0319821681178355606084015191839160ff60b01b191662010000600160b81b031990911617600160b01b8360108111156200015557634e487b7160e01b600052602160045260246000fd5b021790555060809190910151600190910155600080546040516303a2216d60e01b81526001600160a01b03909116906303a2216d906200019b9060099060040162000414565b60206040518083038186803b158015620001b457600080fd5b505afa158015620001c9573d6000803e3d6000fd5b505050506040513d601f19601f82011682018060405250810190620001ef9190620003fb565b600080546040516303a2216d60e01b815292935090916001600160a01b03909116906303a2216d906200022890600a9060040162000414565b60206040518083038186803b1580156200024157600080fd5b505afa15801562000256573d6000803e3d6000fd5b505050506040513d601f19601f820116820180604052508101906200027c9190620003fb565b90506200028d620151808362000458565b6003546200029c91906200043d565b600455620002ae620151808262000458565b600454620002bd91906200043d565b6005555062000490945050505050565b80516001600160a01b0381168114620002e557600080fd5b919050565b8051600c8110620002e557600080fd5b805160028110620002e557600080fd5b805160118110620002e557600080fd5b60008060008084860361010081121562000332578485fd5b6200033d86620002cd565b94506200034d60208701620002cd565b93506040860151925060a0605f198201121562000368578182fd5b5060405160a081016001600160401b03811182821017156200039857634e487b7160e01b83526041600452602483fd5b604052620003a960608701620002fa565b8152620003b960808701620002ea565b6020820152620003cc60a08701620002cd565b6040820152620003df60c087016200030a565b606082015260e086015160808201528091505092959194509250565b6000602082840312156200040d578081fd5b5051919050565b60208101601183106200043757634e487b7160e01b600052602160045260246000fd5b91905290565b600082198211156200045357620004536200047a565b500190565b60008160001904831182151516156200047557620004756200047a565b500290565b634e487b7160e01b600052601160045260246000fd5b6110de80620004a06000396000f3fe608060405234801561001057600080fd5b50600436106100415760003560e01c80634b9f5c98146100465780635a9b0b891461005b57806391e4793514610079575b600080fd5b610059610054366004610dae565b61008c565b005b610063610473565b6040516100709190610f26565b60405180910390f35b610059610087366004610dce565b610af6565b600054604080517ff1f0bd01000000000000000000000000000000000000000000000000000000008152905133926001600160a01b03169163f1f0bd01916004808301926020929190829003018186803b1580156100e957600080fd5b505afa1580156100fd573d6000803e3d6000fd5b505050506040513d601f19601f820116820180604052508101906101219190610d87565b600080547fffffffffffffffffffffffff0000000000000000000000000000000000000000166001600160a01b0392909216918217815560405163bcaa0c5560e01b815290919063bcaa0c559061017d90600790600401610f04565b60206040518083038186803b15801561019557600080fd5b505afa1580156101a9573d6000803e3d6000fd5b505050506040513d601f19601f820116820180604052508101906101cd9190610d87565b60405163bc992bcb60e01b81526001600160a01b03848116600483015291925060009183169063bc992bcb9060240160206040518083038186803b15801561021457600080fd5b505afa158015610228573d6000803e3d6000fd5b505050506040513d601f19601f8201168201806040525081019061024c9190610e0c565b1161029e5760405162461bcd60e51b815260206004820152600f60248201527f4e6f20766f74696e6720706f776572000000000000000000000000000000000060448201526064015b60405180910390fd5b60045442106102ef5760405162461bcd60e51b815260206004820152601060248201527f42616c6c6f7420697320636c6f736564000000000000000000000000000000006044820152606401610295565b6001600160a01b0382166000908152600f6020526040812054600e54909190821080156103595750836001600160a01b0316600e838154811061034257634e487b7160e01b600052603260045260246000fd5b6000918252602090912001546001600160a01b0316145b905080156103c85784600e838154811061038357634e487b7160e01b600052603260045260246000fd5b60009182526020909120018054911515600160a01b027fffffffffffffffffffffff00ffffffffffffffffffffffffffffffffffffffff90921691909117905561046c565b600e80546001600160a01b038681166000818152600f6020908152604080832086905580518082019091529283528a1515908301908152600185018655949052517fbb7b4a454dc3493923482f07822329ed19e8244eff582cc204f8554c3620c3fd909201805493511515600160a01b027fffffffffffffffffffffff00000000000000000000000000000000000000000090941692909116919091179190911790555b5050505050565b61047b610ce7565b60008060009054906101000a90046001600160a01b03166001600160a01b031663f1f0bd016040518163ffffffff1660e01b815260040160206040518083038186803b1580156104ca57600080fd5b505afa1580156104de573d6000803e3d6000fd5b505050506040513d601f19601f820116820180604052508101906105029190610d87565b90506000816001600160a01b031663bcaa0c5560076040518263ffffffff1660e01b81526004016105339190610f04565b60206040518083038186803b15801561054b57600080fd5b505afa15801561055f573d6000803e3d6000fd5b505050506040513d601f19601f820116820180604052508101906105839190610d87565b90506000816001600160a01b031663293097456040518163ffffffff1660e01b815260040160206040518083038186803b1580156105c057600080fd5b505afa1580156105d4573d6000803e3d6000fd5b505050506040513d601f19601f820116820180604052508101906105f89190610e0c565b600080546040517f03a2216d00000000000000000000000000000000000000000000000000000000815292935090916001600160a01b03909116906303a2216d9061064890600c90600401610f18565b60206040518083038186803b15801561066057600080fd5b505afa158015610674573d6000803e3d6000fd5b505050506040513d601f19601f820116820180604052508101906106989190610e0c565b905060006106a68383610cc8565b604080516101a081018252600180546001600160a01b0316825260025460208301526003548284015260045460608301526005546080830152825160a081810190945260068054959650929491938501929091829060ff168581111561071c57634e487b7160e01b600052602160045260246000fd5b600181111561073b57634e487b7160e01b600052602160045260246000fd5b81528154602090910190610100900460ff16600b81111561076c57634e487b7160e01b600052602160045260246000fd5b600b81111561078b57634e487b7160e01b600052602160045260246000fd5b815281546201000081046001600160a01b03166020830152604090910190760100000000000000000000000000000000000000000000900460ff1660108111156107e557634e487b7160e01b600052602160045260246000fd5b601081111561080457634e487b7160e01b600052602160045260246000fd5b815260019190910154602091820152908252600783015491019060ff16600281111561084057634e487b7160e01b600052602160045260246000fd5b600281111561085f57634e487b7160e01b600052602160045260246000fd5b81526020016007820160019054906101000a900460ff16600181111561089557634e487b7160e01b600052602160045260246000fd5b60018111156108b457634e487b7160e01b600052602160045260246000fd5b81526020016008820154815260200160098201548152602001600a8201548152602001600b8201548152602001600c8201805480602002602001604051908101604052809291908181526020016000905b8282101561095057600084815260209081902060408051808201909152908401546001600160a01b0381168252600160a01b900460ff16151581830152825260019092019101610905565b5050509152505061010081018490526101208101829052600e80546040805160208084028201810190925282815293995060009084015b828210156109d257600084815260209081902060408051808201909152908401546001600160a01b0381168252600160a01b900460ff16151581830152825260019092019101610987565b5050505061018087015260005b600e54811015610aed576000600e8281548110610a0c57634e487b7160e01b600052603260045260246000fd5b60009182526020822001805460405163bc992bcb60e01b81526001600160a01b03918216600482015291935088169063bc992bcb9060240160206040518083038186803b158015610a5c57600080fd5b505afa158015610a70573d6000803e3d6000fd5b505050506040513d601f19601f82011682018060405250810190610a949190610e0c565b8254909150600160a01b900460ff1615610ac357808961014001818151610abb9190610ff7565b905250610ada565b808961016001818151610ad69190610ff7565b9052505b505080610ae69061104e565b90506109df565b50505050505090565b60008060009054906101000a90046001600160a01b03166001600160a01b031663f1f0bd016040518163ffffffff1660e01b815260040160206040518083038186803b158015610b4557600080fd5b505afa158015610b59573d6000803e3d6000fd5b505050506040513d601f19601f82011682018060405250810190610b7d9190610d87565b60405163bcaa0c5560e01b81529091506001600160a01b0382169063bcaa0c5590610bad90600790600401610f04565b60206040518083038186803b158015610bc557600080fd5b505afa158015610bd9573d6000803e3d6000fd5b505050506040513d601f19601f82011682018060405250810190610bfd9190610d87565b6001600160a01b0316336001600160a01b031614610c5d5760405162461bcd60e51b815260206004820152600d60248201527f4163636573732064656e696564000000000000000000000000000000000000006044820152606401610295565b6008805484919060ff19166001836002811115610c8a57634e487b7160e01b600052602160045260246000fd5b02179055506008805483919061ff001916610100836001811115610cbe57634e487b7160e01b600052602160045260246000fd5b0217905550505050565b60006064610cd6838561102f565b610ce0919061100f565b9392505050565b604051806101a0016040528060006001600160a01b0316815260200160008152602001600081526020016000815260200160008152602001610d506040805160a08101825260008082526020820181905291810182905260608101829052608081019190915290565b8152602001600081526020016000815260200160008152602001600081526020016000815260200160008152602001606081525090565b600060208284031215610d98578081fd5b81516001600160a01b0381168114610ce0578182fd5b600060208284031215610dbf578081fd5b81358015158114610ce0578182fd5b60008060408385031215610de0578081fd5b823560038110610dee578182fd5b9150602083013560028110610e01578182fd5b809150509250929050565b600060208284031215610e1d578081fd5b5051919050565b6000815180845260208085019450808401835b83811015610e6957815180516001600160a01b0316885283015115158388015260409096019590820190600101610e37565b509495945050505050565b610e7d81611095565b9052565b60038110610e7d57610e7d61107f565b600c8110610e7d57610e7d61107f565b60118110610e7d57610e7d61107f565b8051610ebc81611095565b808352506020810151610ed26020840182610e91565b506001600160a01b0360408201511660408301526060810151610ef86060840182610ea1565b50608090810151910152565b60208101610f128284610e91565b92915050565b60208101610f128284610ea1565b60208152610f406020820183516001600160a01b03169052565b602082015160408201526040820151606082015260608201516080820152608082015160a0820152600060a0830151610f7c60c0840182610eb1565b5060c0830151610160610f9181850183610e81565b60e08501519150610180610fa781860184610e74565b6101008601516101a08601526101208601516101c08601526101408601516101e086015290850151610200850152840151610220808501529050610fef610240840182610e24565b949350505050565b6000821982111561100a5761100a611069565b500190565b60008261102a57634e487b7160e01b81526012600452602481fd5b500490565b600081600019048311821515161561104957611049611069565b500290565b600060001982141561106257611062611069565b5060010190565b634e487b7160e01b600052601160045260246000fd5b634e487b7160e01b600052602160045260246000fd5b600281106110a5576110a561107f565b5056fea2646970667358221220252f1f7c0c8d7bd364b2593a91e6bdfa05a7a069cb82a60e169f91ef779645cb64736f6c63430008040033a2646970667358221220b1823f5d53eeaf4606a29a11e34ae5cfc4762d216f0be909d8478e36fa05a7eb64736f6c63430008040033",
    "linkReferences": {},
    "deployedLinkReferences": {}
}